{
  "address": "0x3C0d776104550703A3169b6AE17DA210C4Ca5F34",
  "abi": [
    {
      "inputs": [],
      "stateMutability": "nonpayable",
      "type": "constructor"
    },
    {
      "inputs": [
        {
          "internalType": "address",
          "name": "target",
          "type": "address"
        }
      ],
      "name": "AddressEmptyCode",
      "type": "error"
    },
    {
      "inputs": [],
      "name": "AlreadyDistributed",
      "type": "error"
    },
    {
      "inputs": [],
      "name": "ArityMismatch",
      "type": "error"
    },
    {
      "inputs": [],
      "name": "CheckpointUnorderedInsertion",
      "type": "error"
    },
    {
      "inputs": [],
      "name": "CurrentEpochNotCreated",
      "type": "error"
    },
    {
      "inputs": [
        {
          "internalType": "address",
          "name": "implementation",
          "type": "address"
        }
      ],
      "name": "ERC1967InvalidImplementation",
      "type": "error"
    },
    {
      "inputs": [],
      "name": "ERC1967NonPayable",
      "type": "error"
    },
    {
      "inputs": [],
      "name": "EnforcedPause",
      "type": "error"
    },
    {
      "inputs": [],
      "name": "EpochEnded",
      "type": "error"
    },
    {
      "inputs": [],
      "name": "EpochFinalised",
      "type": "error"
    },
    {
      "inputs": [],
      "name": "EpochNotEnded",
      "type": "error"
    },
    {
      "inputs": [],
      "name": "EpochNotStarted",
      "type": "error"
    },
    {
      "inputs": [],
      "name": "ExpectedPause",
      "type": "error"
    },
    {
      "inputs": [],
      "name": "FailedInnerCall",
      "type": "error"
    },
    {
      "inputs": [],
      "name": "InvalidDlpList",
      "type": "error"
    },
    {
      "inputs": [],
      "name": "InvalidDlpStatus",
      "type": "error"
    },
    {
      "inputs": [],
      "name": "InvalidInitialization",
      "type": "error"
    },
    {
      "inputs": [],
      "name": "InvalidPerformancePercentages",
      "type": "error"
    },
    {
      "inputs": [],
      "name": "InvalidStakeAmount",
      "type": "error"
    },
    {
      "inputs": [],
      "name": "InvalidStakersPercentage",
      "type": "error"
    },
    {
      "inputs": [],
      "name": "InvalidUnstakeAmount",
      "type": "error"
    },
    {
      "inputs": [],
      "name": "NotAllowed",
      "type": "error"
    },
    {
      "inputs": [],
      "name": "NotDlpOwner",
      "type": "error"
    },
    {
      "inputs": [],
      "name": "NotInitializing",
      "type": "error"
    },
    {
      "inputs": [],
      "name": "NothingToClaim",
      "type": "error"
    },
    {
      "inputs": [
        {
          "internalType": "address",
          "name": "owner",
          "type": "address"
        }
      ],
      "name": "OwnableInvalidOwner",
      "type": "error"
    },
    {
      "inputs": [
        {
          "internalType": "address",
          "name": "account",
          "type": "address"
        }
      ],
      "name": "OwnableUnauthorizedAccount",
      "type": "error"
    },
    {
      "inputs": [],
      "name": "PreviousEpochNotFinalised",
      "type": "error"
    },
    {
      "inputs": [],
      "name": "ReentrancyGuardReentrantCall",
      "type": "error"
    },
    {
      "inputs": [
        {
          "internalType": "uint8",
          "name": "bits",
          "type": "uint8"
        },
        {
          "internalType": "uint256",
          "name": "value",
          "type": "uint256"
        }
      ],
      "name": "SafeCastOverflowedUintDowncast",
      "type": "error"
    },
    {
      "inputs": [],
      "name": "TooManyDlps",
      "type": "error"
    },
    {
      "inputs": [],
      "name": "TransferFailed",
      "type": "error"
    },
    {
      "inputs": [],
      "name": "UUPSUnauthorizedCallContext",
      "type": "error"
    },
    {
      "inputs": [
        {
          "internalType": "bytes32",
          "name": "slot",
          "type": "bytes32"
        }
      ],
      "name": "UUPSUnsupportedProxiableUUID",
      "type": "error"
    },
    {
      "anonymous": false,
      "inputs": [
        {
          "indexed": true,
          "internalType": "uint256",
          "name": "dlpId",
          "type": "uint256"
        }
      ],
      "name": "DlpDeregistered",
      "type": "event"
    },
    {
      "anonymous": false,
      "inputs": [
        {
          "indexed": true,
          "internalType": "uint256",
          "name": "dlpId",
          "type": "uint256"
        },
        {
          "indexed": true,
          "internalType": "address",
          "name": "dlpAddress",
          "type": "address"
        },
        {
          "indexed": true,
          "internalType": "address",
          "name": "ownerAddress",
          "type": "address"
        }
      ],
      "name": "DlpRegistered",
      "type": "event"
    },
    {
      "anonymous": false,
      "inputs": [
        {
          "indexed": false,
          "internalType": "uint256",
          "name": "dlpId",
          "type": "uint256"
        },
        {
          "indexed": false,
          "internalType": "uint256",
          "name": "stakersPercentage",
          "type": "uint256"
        }
      ],
      "name": "DlpStakersPercentageUpdated",
      "type": "event"
    },
    {
      "anonymous": false,
      "inputs": [
        {
          "indexed": false,
          "internalType": "uint256",
          "name": "epochId",
          "type": "uint256"
        }
      ],
      "name": "EpochCreated",
      "type": "event"
    },
    {
      "anonymous": false,
      "inputs": [
        {
          "indexed": false,
          "internalType": "uint256",
          "name": "epochId",
          "type": "uint256"
        },
        {
          "indexed": false,
          "internalType": "bool",
          "name": "isFinalised",
          "type": "bool"
        }
      ],
      "name": "EpochPerformancesSaved",
      "type": "event"
    },
    {
      "anonymous": false,
      "inputs": [
        {
          "indexed": false,
          "internalType": "uint256",
          "name": "newEpochRewardAmount",
          "type": "uint256"
        }
      ],
      "name": "EpochRewardAmountUpdated",
      "type": "event"
    },
    {
      "anonymous": false,
      "inputs": [
        {
          "indexed": false,
          "internalType": "uint256",
          "name": "newEpochSize",
          "type": "uint256"
        }
      ],
      "name": "EpochSizeUpdated",
      "type": "event"
    },
    {
      "anonymous": false,
      "inputs": [
        {
          "indexed": false,
          "internalType": "uint64",
          "name": "version",
          "type": "uint64"
        }
      ],
      "name": "Initialized",
      "type": "event"
    },
    {
      "anonymous": false,
      "inputs": [
        {
          "indexed": false,
          "internalType": "uint256",
          "name": "newMaxNumberOfRegisteredDlps",
          "type": "uint256"
        }
      ],
      "name": "MaxNumberOfRegisteredDlpsUpdated",
      "type": "event"
    },
    {
      "anonymous": false,
      "inputs": [
        {
          "indexed": false,
          "internalType": "uint256",
          "name": "newMinDlpStakeAmount",
          "type": "uint256"
        }
      ],
      "name": "MinDlpStakeAmountUpdated",
      "type": "event"
    },
    {
      "anonymous": false,
      "inputs": [
        {
          "indexed": false,
          "internalType": "uint256",
          "name": "newNumberOfTopDlps",
          "type": "uint256"
        }
      ],
      "name": "NumberOfTopDlpsUpdated",
      "type": "event"
    },
    {
      "anonymous": false,
      "inputs": [
        {
          "indexed": true,
          "internalType": "address",
          "name": "previousOwner",
          "type": "address"
        },
        {
          "indexed": true,
          "internalType": "address",
          "name": "newOwner",
          "type": "address"
        }
      ],
      "name": "OwnershipTransferStarted",
      "type": "event"
    },
    {
      "anonymous": false,
      "inputs": [
        {
          "indexed": true,
          "internalType": "address",
          "name": "previousOwner",
          "type": "address"
        },
        {
          "indexed": true,
          "internalType": "address",
          "name": "newOwner",
          "type": "address"
        }
      ],
      "name": "OwnershipTransferred",
      "type": "event"
    },
    {
      "anonymous": false,
      "inputs": [
        {
          "indexed": false,
          "internalType": "address",
          "name": "account",
          "type": "address"
        }
      ],
      "name": "Paused",
      "type": "event"
    },
    {
      "anonymous": false,
      "inputs": [
        {
          "indexed": false,
          "internalType": "uint256",
          "name": "newTtfPercentage",
          "type": "uint256"
        },
        {
          "indexed": false,
          "internalType": "uint256",
          "name": "newTfcPercentage",
          "type": "uint256"
        },
        {
          "indexed": false,
          "internalType": "uint256",
          "name": "newVduPercentage",
          "type": "uint256"
        },
        {
          "indexed": false,
          "internalType": "uint256",
          "name": "newUwPercentage",
          "type": "uint256"
        }
      ],
      "name": "PerformancePercentagesUpdated",
      "type": "event"
    },
    {
      "anonymous": false,
      "inputs": [
        {
          "indexed": true,
          "internalType": "address",
          "name": "staker",
          "type": "address"
        },
        {
          "indexed": true,
          "internalType": "uint256",
          "name": "dlpId",
          "type": "uint256"
        },
        {
          "indexed": false,
          "internalType": "uint256",
          "name": "amount",
          "type": "uint256"
        }
      ],
      "name": "Staked",
      "type": "event"
    },
    {
      "anonymous": false,
      "inputs": [
        {
          "indexed": false,
          "internalType": "address",
          "name": "staker",
          "type": "address"
        },
        {
          "indexed": false,
          "internalType": "uint256",
          "name": "dlpId",
          "type": "uint256"
        },
        {
          "indexed": false,
          "internalType": "uint256",
          "name": "epochId",
          "type": "uint256"
        },
        {
          "indexed": false,
          "internalType": "uint256",
          "name": "claimAmount",
          "type": "uint256"
        }
      ],
      "name": "StakerDlpEpochRewardClaimed",
      "type": "event"
    },
    {
      "anonymous": false,
      "inputs": [
        {
          "indexed": false,
          "internalType": "address",
          "name": "account",
          "type": "address"
        }
      ],
      "name": "Unpaused",
      "type": "event"
    },
    {
      "anonymous": false,
      "inputs": [
        {
          "indexed": true,
          "internalType": "address",
          "name": "staker",
          "type": "address"
        },
        {
          "indexed": true,
          "internalType": "uint256",
          "name": "dlpId",
          "type": "uint256"
        },
        {
          "indexed": false,
          "internalType": "uint256",
          "name": "amount",
          "type": "uint256"
        }
      ],
      "name": "Unstaked",
      "type": "event"
    },
    {
      "anonymous": false,
      "inputs": [
        {
          "indexed": true,
          "internalType": "address",
          "name": "implementation",
          "type": "address"
        }
      ],
      "name": "Upgraded",
      "type": "event"
    },
    {
      "inputs": [],
      "name": "UPGRADE_INTERFACE_VERSION",
      "outputs": [
        {
          "internalType": "string",
          "name": "",
          "type": "string"
        }
      ],
      "stateMutability": "view",
      "type": "function"
    },
    {
      "inputs": [],
      "name": "acceptOwnership",
      "outputs": [],
      "stateMutability": "nonpayable",
      "type": "function"
    },
    {
      "inputs": [],
      "name": "addRewardForDlps",
      "outputs": [],
      "stateMutability": "payable",
      "type": "function"
    },
    {
      "inputs": [
        {
          "internalType": "uint256",
          "name": "dlpId",
          "type": "uint256"
        }
      ],
      "name": "claimReward",
      "outputs": [],
      "stateMutability": "nonpayable",
      "type": "function"
    },
    {
      "inputs": [
        {
          "internalType": "uint256",
          "name": "dlpId",
          "type": "uint256"
        },
        {
          "internalType": "uint256",
          "name": "lastEpochToClaim",
          "type": "uint256"
        }
      ],
      "name": "claimRewardUntilEpoch",
      "outputs": [],
      "stateMutability": "nonpayable",
      "type": "function"
    },
    {
      "inputs": [
        {
          "internalType": "address",
          "name": "stakerAddress",
          "type": "address"
        },
        {
          "internalType": "uint256",
          "name": "dlpId",
          "type": "uint256"
        }
      ],
      "name": "claimableAmount",
      "outputs": [
        {
          "internalType": "uint256",
          "name": "",
          "type": "uint256"
        }
      ],
      "stateMutability": "view",
      "type": "function"
    },
    {
      "inputs": [],
      "name": "createEpochs",
      "outputs": [],
      "stateMutability": "nonpayable",
      "type": "function"
    },
    {
      "inputs": [
        {
          "internalType": "uint256",
          "name": "blockNumber",
          "type": "uint256"
        }
      ],
      "name": "createEpochsUntilBlockNumber",
      "outputs": [],
      "stateMutability": "nonpayable",
      "type": "function"
    },
    {
      "inputs": [
        {
          "internalType": "uint256",
          "name": "dlpId",
          "type": "uint256"
        }
      ],
      "name": "deregisterDlp",
      "outputs": [],
      "stateMutability": "nonpayable",
      "type": "function"
    },
    {
      "inputs": [
        {
          "internalType": "uint256",
          "name": "dlpId",
          "type": "uint256"
        },
        {
          "internalType": "uint256",
          "name": "dlpOwnerAmount",
          "type": "uint256"
        }
      ],
      "name": "distributeStakeAfterDeregistration",
      "outputs": [],
      "stateMutability": "nonpayable",
      "type": "function"
    },
    {
      "inputs": [
        {
          "internalType": "uint256",
          "name": "dlpId",
          "type": "uint256"
        },
        {
          "internalType": "uint256",
          "name": "epochId",
          "type": "uint256"
        }
      ],
      "name": "dlpEpochs",
      "outputs": [
        {
          "components": [
            {
              "internalType": "uint256",
              "name": "ttf",
              "type": "uint256"
            },
            {
              "internalType": "uint256",
              "name": "tfc",
              "type": "uint256"
            },
            {
              "internalType": "uint256",
              "name": "vdu",
              "type": "uint256"
            },
            {
              "internalType": "uint256",
              "name": "uw",
              "type": "uint256"
            },
            {
              "internalType": "uint256",
              "name": "stakeAmount",
              "type": "uint256"
            },
            {
              "internalType": "bool",
              "name": "isTopDlp",
              "type": "bool"
            },
            {
              "internalType": "uint256",
              "name": "rewardAmount",
              "type": "uint256"
            },
            {
              "internalType": "uint256",
              "name": "stakersPercentage",
              "type": "uint256"
            }
          ],
          "internalType": "struct IDataLiquidityPoolsRoot.DlpEpochInfo",
          "name": "",
          "type": "tuple"
        }
      ],
      "stateMutability": "view",
      "type": "function"
    },
    {
      "inputs": [
        {
          "internalType": "address",
          "name": "dlpAddress",
          "type": "address"
        }
      ],
      "name": "dlpIds",
      "outputs": [
        {
          "internalType": "uint256",
          "name": "dlpId",
          "type": "uint256"
        }
      ],
      "stateMutability": "view",
      "type": "function"
    },
    {
      "inputs": [
        {
          "internalType": "uint256",
          "name": "dlpId",
          "type": "uint256"
        }
      ],
      "name": "dlps",
      "outputs": [
        {
          "components": [
            {
              "internalType": "uint256",
              "name": "id",
              "type": "uint256"
            },
            {
              "internalType": "address",
              "name": "dlpAddress",
              "type": "address"
            },
            {
              "internalType": "address",
              "name": "ownerAddress",
              "type": "address"
            },
            {
              "internalType": "enum IDataLiquidityPoolsRoot.DlpStatus",
              "name": "status",
              "type": "uint8"
            },
            {
              "internalType": "uint256",
              "name": "registrationBlockNumber",
              "type": "uint256"
            },
            {
              "internalType": "uint256",
              "name": "grantedAmount",
              "type": "uint256"
            },
            {
              "internalType": "uint256",
              "name": "stakersPercentage",
              "type": "uint256"
            },
            {
              "internalType": "uint256",
              "name": "stakeAmount",
              "type": "uint256"
            }
          ],
          "internalType": "struct IDataLiquidityPoolsRoot.DlpResponse",
          "name": "",
          "type": "tuple"
        }
      ],
      "stateMutability": "view",
      "type": "function"
    },
    {
      "inputs": [
        {
          "internalType": "address",
          "name": "dlpAddress",
          "type": "address"
        }
      ],
      "name": "dlpsByAddress",
      "outputs": [
        {
          "components": [
            {
              "internalType": "uint256",
              "name": "id",
              "type": "uint256"
            },
            {
              "internalType": "address",
              "name": "dlpAddress",
              "type": "address"
            },
            {
              "internalType": "address",
              "name": "ownerAddress",
              "type": "address"
            },
            {
              "internalType": "enum IDataLiquidityPoolsRoot.DlpStatus",
              "name": "status",
              "type": "uint8"
            },
            {
              "internalType": "uint256",
              "name": "registrationBlockNumber",
              "type": "uint256"
            },
            {
              "internalType": "uint256",
              "name": "grantedAmount",
              "type": "uint256"
            },
            {
              "internalType": "uint256",
              "name": "stakersPercentage",
              "type": "uint256"
            },
            {
              "internalType": "uint256",
              "name": "stakeAmount",
              "type": "uint256"
            }
          ],
          "internalType": "struct IDataLiquidityPoolsRoot.DlpResponse",
          "name": "",
          "type": "tuple"
        }
      ],
      "stateMutability": "view",
      "type": "function"
    },
    {
      "inputs": [],
      "name": "dlpsCount",
      "outputs": [
        {
          "internalType": "uint256",
          "name": "",
          "type": "uint256"
        }
      ],
      "stateMutability": "view",
      "type": "function"
    },
    {
      "inputs": [],
      "name": "epochRewardAmount",
      "outputs": [
        {
          "internalType": "uint256",
          "name": "",
          "type": "uint256"
        }
      ],
      "stateMutability": "view",
      "type": "function"
    },
    {
      "inputs": [],
      "name": "epochSize",
      "outputs": [
        {
          "internalType": "uint256",
          "name": "",
          "type": "uint256"
        }
      ],
      "stateMutability": "view",
      "type": "function"
    },
    {
      "inputs": [
        {
          "internalType": "uint256",
          "name": "epochId",
          "type": "uint256"
        }
      ],
      "name": "epochs",
      "outputs": [
        {
          "components": [
            {
              "internalType": "uint256",
              "name": "startBlock",
              "type": "uint256"
            },
            {
              "internalType": "uint256",
              "name": "endBlock",
              "type": "uint256"
            },
            {
              "internalType": "uint256",
              "name": "reward",
              "type": "uint256"
            },
            {
              "internalType": "bool",
              "name": "isFinalised",
              "type": "bool"
            },
            {
              "internalType": "uint256[]",
              "name": "dlpIds",
              "type": "uint256[]"
            }
          ],
          "internalType": "struct IDataLiquidityPoolsRoot.EpochInfo",
          "name": "",
          "type": "tuple"
        }
      ],
      "stateMutability": "view",
      "type": "function"
    },
    {
      "inputs": [],
      "name": "epochsCount",
      "outputs": [
        {
          "internalType": "uint256",
          "name": "",
          "type": "uint256"
        }
      ],
      "stateMutability": "view",
      "type": "function"
    },
    {
      "inputs": [
        {
          "internalType": "uint256",
          "name": "dlpId",
          "type": "uint256"
        }
      ],
      "name": "estimatedDlpReward",
      "outputs": [
        {
          "internalType": "uint256",
          "name": "historyRewardEstimation",
          "type": "uint256"
        },
        {
          "internalType": "uint256",
          "name": "stakeRewardEstimation",
          "type": "uint256"
        }
      ],
      "stateMutability": "view",
      "type": "function"
    },
    {
      "inputs": [
        {
          "internalType": "uint256[]",
          "name": "dlpIds",
          "type": "uint256[]"
        }
      ],
      "name": "forceRemoveDlps",
      "outputs": [],
      "stateMutability": "nonpayable",
      "type": "function"
    },
    {
      "inputs": [
        {
          "internalType": "uint256",
          "name": "from",
          "type": "uint256"
        },
        {
          "internalType": "uint256",
          "name": "to",
          "type": "uint256"
        }
      ],
      "name": "getAllDlpAddressesThatAreNotAContract",
      "outputs": [
        {
          "components": [
            {
              "internalType": "uint256",
              "name": "id",
              "type": "uint256"
            },
            {
              "internalType": "address",
              "name": "dlpAddress",
              "type": "address"
            }
          ],
          "internalType": "struct DataLiquidityPoolsRootImplementation.DlpResponse2[]",
          "name": "",
          "type": "tuple[]"
        }
      ],
      "stateMutability": "view",
      "type": "function"
    },
    {
      "inputs": [
        {
          "internalType": "uint256",
          "name": "from",
          "type": "uint256"
        },
        {
          "internalType": "uint256",
          "name": "to",
          "type": "uint256"
        }
      ],
      "name": "getAllDlps",
      "outputs": [
        {
          "components": [
            {
              "internalType": "uint256",
              "name": "id",
              "type": "uint256"
            },
            {
              "internalType": "address",
              "name": "dlpAddress",
              "type": "address"
            }
          ],
          "internalType": "struct DataLiquidityPoolsRootImplementation.DlpResponse2[]",
          "name": "",
          "type": "tuple[]"
        }
      ],
      "stateMutability": "view",
      "type": "function"
    },
    {
      "inputs": [
        {
          "components": [
            {
              "internalType": "address payable",
              "name": "ownerAddress",
              "type": "address"
            },
            {
              "internalType": "uint256",
              "name": "maxNumberOfRegisteredDlps",
              "type": "uint256"
            },
            {
              "internalType": "uint256",
              "name": "numberOfTopDlps",
              "type": "uint256"
            },
            {
              "internalType": "uint256",
              "name": "minDlpStakeAmount",
              "type": "uint256"
            },
            {
              "internalType": "uint256",
              "name": "startBlock",
              "type": "uint256"
            },
            {
              "internalType": "uint256",
              "name": "epochSize",
              "type": "uint256"
            },
            {
              "internalType": "uint256",
              "name": "epochRewardAmount",
              "type": "uint256"
            },
            {
              "internalType": "uint256",
              "name": "ttfPercentage",
              "type": "uint256"
            },
            {
              "internalType": "uint256",
              "name": "tfcPercentage",
              "type": "uint256"
            },
            {
              "internalType": "uint256",
              "name": "vduPercentage",
              "type": "uint256"
            },
            {
              "internalType": "uint256",
              "name": "uwPercentage",
              "type": "uint256"
            }
          ],
          "internalType": "struct DataLiquidityPoolsRootImplementation.InitParams",
          "name": "params",
          "type": "tuple"
        }
      ],
      "name": "initialize",
      "outputs": [],
      "stateMutability": "nonpayable",
      "type": "function"
    },
    {
      "inputs": [
        {
          "internalType": "address",
          "name": "account",
          "type": "address"
        }
      ],
      "name": "isContract",
      "outputs": [
        {
          "internalType": "bool",
          "name": "",
          "type": "bool"
        }
      ],
      "stateMutability": "view",
      "type": "function"
    },
    {
      "inputs": [],
      "name": "maxNumberOfRegisteredDlps",
      "outputs": [
        {
          "internalType": "uint256",
          "name": "",
          "type": "uint256"
        }
      ],
      "stateMutability": "view",
      "type": "function"
    },
    {
      "inputs": [],
      "name": "minDlpStakeAmount",
      "outputs": [
        {
          "internalType": "uint256",
          "name": "",
          "type": "uint256"
        }
      ],
      "stateMutability": "view",
      "type": "function"
    },
    {
      "inputs": [],
      "name": "numberOfTopDlps",
      "outputs": [
        {
          "internalType": "uint256",
          "name": "",
          "type": "uint256"
        }
      ],
      "stateMutability": "view",
      "type": "function"
    },
    {
      "inputs": [],
      "name": "owner",
      "outputs": [
        {
          "internalType": "address",
          "name": "",
          "type": "address"
        }
      ],
      "stateMutability": "view",
      "type": "function"
    },
    {
      "inputs": [],
      "name": "pause",
      "outputs": [],
      "stateMutability": "nonpayable",
      "type": "function"
    },
    {
      "inputs": [],
      "name": "paused",
      "outputs": [
        {
          "internalType": "bool",
          "name": "",
          "type": "bool"
        }
      ],
      "stateMutability": "view",
      "type": "function"
    },
    {
      "inputs": [],
      "name": "pendingOwner",
      "outputs": [
        {
          "internalType": "address",
          "name": "",
          "type": "address"
        }
      ],
      "stateMutability": "view",
      "type": "function"
    },
    {
      "inputs": [],
      "name": "proxiableUUID",
      "outputs": [
        {
          "internalType": "bytes32",
          "name": "",
          "type": "bytes32"
        }
      ],
      "stateMutability": "view",
      "type": "function"
    },
    {
      "inputs": [
        {
          "internalType": "address",
          "name": "dlpAddress",
          "type": "address"
        },
        {
          "internalType": "address payable",
          "name": "dlpOwnerAddress",
          "type": "address"
        },
        {
          "internalType": "uint256",
          "name": "stakersPercentage",
          "type": "uint256"
        }
      ],
      "name": "registerDlp",
      "outputs": [],
      "stateMutability": "payable",
      "type": "function"
    },
    {
      "inputs": [
        {
          "internalType": "address",
          "name": "dlpAddress",
          "type": "address"
        },
        {
          "internalType": "address payable",
          "name": "dlpOwnerAddress",
          "type": "address"
        },
        {
          "internalType": "uint256",
          "name": "stakersPercentage",
          "type": "uint256"
        }
      ],
      "name": "registerDlpWithGrant",
      "outputs": [],
      "stateMutability": "payable",
      "type": "function"
    },
    {
      "inputs": [],
      "name": "registeredDlps",
      "outputs": [
        {
          "internalType": "uint256[]",
          "name": "",
          "type": "uint256[]"
        }
      ],
      "stateMutability": "view",
      "type": "function"
    },
    {
      "inputs": [],
      "name": "registeredDlpsCount",
      "outputs": [
        {
          "internalType": "uint256",
          "name": "",
          "type": "uint256"
        }
      ],
      "stateMutability": "view",
      "type": "function"
    },
    {
      "inputs": [],
      "name": "renounceOwnership",
      "outputs": [],
      "stateMutability": "nonpayable",
      "type": "function"
    },
    {
      "inputs": [
        {
          "internalType": "uint256",
          "name": "epochId",
          "type": "uint256"
        },
        {
          "components": [
            {
              "internalType": "uint256",
              "name": "dlpId",
              "type": "uint256"
            },
            {
              "internalType": "uint256",
              "name": "ttf",
              "type": "uint256"
            },
            {
              "internalType": "uint256",
              "name": "tfc",
              "type": "uint256"
            },
            {
              "internalType": "uint256",
              "name": "vdu",
              "type": "uint256"
            },
            {
              "internalType": "uint256",
              "name": "uw",
              "type": "uint256"
            }
          ],
          "internalType": "struct IDataLiquidityPoolsRoot.DlpPerformance[]",
          "name": "dlpPerformances",
          "type": "tuple[]"
        },
        {
          "internalType": "bool",
          "name": "isFinalised",
          "type": "bool"
        }
      ],
      "name": "saveEpochPerformances",
      "outputs": [],
      "stateMutability": "nonpayable",
      "type": "function"
    },
    {
      "inputs": [
        {
          "internalType": "uint256",
          "name": "dlpId",
          "type": "uint256"
        }
      ],
      "name": "stake",
      "outputs": [],
      "stateMutability": "payable",
      "type": "function"
    },
    {
      "inputs": [
        {
          "internalType": "address",
          "name": "staker",
          "type": "address"
        },
        {
          "internalType": "uint256",
          "name": "dlpId",
          "type": "uint256"
        },
        {
          "internalType": "uint256",
          "name": "epochId",
          "type": "uint256"
        }
      ],
      "name": "stakerDlpEpochs",
      "outputs": [
        {
          "components": [
            {
              "internalType": "uint256",
              "name": "dlpId",
              "type": "uint256"
            },
            {
              "internalType": "uint256",
              "name": "epochId",
              "type": "uint256"
            },
            {
              "internalType": "uint256",
              "name": "stakeAmount",
              "type": "uint256"
            },
            {
              "internalType": "uint256",
              "name": "rewardAmount",
              "type": "uint256"
            },
            {
              "internalType": "uint256",
              "name": "claimAmount",
              "type": "uint256"
            }
          ],
          "internalType": "struct IDataLiquidityPoolsRoot.StakerDlpEpochInfo",
          "name": "",
          "type": "tuple"
        }
      ],
      "stateMutability": "view",
      "type": "function"
    },
    {
      "inputs": [
        {
          "internalType": "address",
          "name": "stakerAddress",
          "type": "address"
        },
        {
          "internalType": "uint256",
          "name": "dlpId",
          "type": "uint256"
        }
      ],
      "name": "stakerDlps",
      "outputs": [
        {
          "components": [
            {
              "internalType": "uint256",
              "name": "dlpId",
              "type": "uint256"
            },
            {
              "internalType": "uint256",
              "name": "stakeAmount",
              "type": "uint256"
            },
            {
              "internalType": "uint256",
              "name": "lastClaimedEpochId",
              "type": "uint256"
            }
          ],
          "internalType": "struct IDataLiquidityPoolsRoot.StakerDlpInfo",
          "name": "",
          "type": "tuple"
        }
      ],
      "stateMutability": "view",
      "type": "function"
    },
    {
      "inputs": [
        {
          "internalType": "address",
          "name": "stakerAddress",
          "type": "address"
        }
      ],
      "name": "stakerDlpsList",
      "outputs": [
        {
          "components": [
            {
              "internalType": "uint256",
              "name": "dlpId",
              "type": "uint256"
            },
            {
              "internalType": "uint256",
              "name": "stakeAmount",
              "type": "uint256"
            },
            {
              "internalType": "uint256",
              "name": "lastClaimedEpochId",
              "type": "uint256"
            }
          ],
          "internalType": "struct IDataLiquidityPoolsRoot.StakerDlpInfo[]",
          "name": "",
          "type": "tuple[]"
        }
      ],
      "stateMutability": "view",
      "type": "function"
    },
    {
      "inputs": [
        {
          "internalType": "address",
          "name": "staker",
          "type": "address"
        }
      ],
      "name": "stakerDlpsListCount",
      "outputs": [
        {
          "internalType": "uint256",
          "name": "",
          "type": "uint256"
        }
      ],
      "stateMutability": "view",
      "type": "function"
    },
    {
      "inputs": [],
      "name": "tfcPercentage",
      "outputs": [
        {
          "internalType": "uint256",
          "name": "",
          "type": "uint256"
        }
      ],
      "stateMutability": "view",
      "type": "function"
    },
    {
      "inputs": [
        {
          "internalType": "uint256",
          "name": "numberOfDlps",
          "type": "uint256"
        }
      ],
      "name": "topDlpIds",
      "outputs": [
        {
          "internalType": "uint256[]",
          "name": "",
          "type": "uint256[]"
        }
      ],
      "stateMutability": "view",
      "type": "function"
    },
    {
      "inputs": [],
      "name": "totalDlpsRewardAmount",
      "outputs": [
        {
          "internalType": "uint256",
          "name": "",
          "type": "uint256"
        }
      ],
      "stateMutability": "view",
      "type": "function"
    },
    {
      "inputs": [
        {
          "internalType": "address",
          "name": "newOwner",
          "type": "address"
        }
      ],
      "name": "transferOwnership",
      "outputs": [],
      "stateMutability": "nonpayable",
      "type": "function"
    },
    {
      "inputs": [],
      "name": "ttfPercentage",
      "outputs": [
        {
          "internalType": "uint256",
          "name": "",
          "type": "uint256"
        }
      ],
      "stateMutability": "view",
      "type": "function"
    },
    {
      "inputs": [],
      "name": "unpause",
      "outputs": [],
      "stateMutability": "nonpayable",
      "type": "function"
    },
    {
      "inputs": [
        {
          "internalType": "uint256",
          "name": "dlpId",
          "type": "uint256"
        },
        {
          "internalType": "uint256",
          "name": "amount",
          "type": "uint256"
        }
      ],
      "name": "unstake",
      "outputs": [],
      "stateMutability": "nonpayable",
      "type": "function"
    },
    {
      "inputs": [
        {
          "internalType": "address",
          "name": "stakerAddress",
          "type": "address"
        },
        {
          "internalType": "uint256",
          "name": "dlpId",
          "type": "uint256"
        }
      ],
      "name": "unstakebleAmount",
      "outputs": [
        {
          "internalType": "uint256",
          "name": "",
          "type": "uint256"
        }
      ],
      "stateMutability": "view",
      "type": "function"
    },
    {
      "inputs": [
        {
          "internalType": "uint256",
          "name": "dlpId",
          "type": "uint256"
        },
        {
          "internalType": "uint256",
          "name": "stakersPercentage",
          "type": "uint256"
        }
      ],
      "name": "updateDlpStakersPercentage",
      "outputs": [],
      "stateMutability": "nonpayable",
      "type": "function"
    },
    {
      "inputs": [
        {
          "internalType": "uint256",
          "name": "newEpochRewardAmount",
          "type": "uint256"
        }
      ],
      "name": "updateEpochRewardAmount",
      "outputs": [],
      "stateMutability": "nonpayable",
      "type": "function"
    },
    {
      "inputs": [
        {
          "internalType": "uint256",
          "name": "newEpochSize",
          "type": "uint256"
        }
      ],
      "name": "updateEpochSize",
      "outputs": [],
      "stateMutability": "nonpayable",
      "type": "function"
    },
    {
      "inputs": [
        {
          "internalType": "uint256",
          "name": "newMaxNumberOfRegisteredDlps",
          "type": "uint256"
        }
      ],
      "name": "updateMaxNumberOfRegisteredDlps",
      "outputs": [],
      "stateMutability": "nonpayable",
      "type": "function"
    },
    {
      "inputs": [
        {
          "internalType": "uint256",
          "name": "newMinDlpStakeAmount",
          "type": "uint256"
        }
      ],
      "name": "updateMinDlpStakeAmount",
      "outputs": [],
      "stateMutability": "nonpayable",
      "type": "function"
    },
    {
      "inputs": [
        {
          "internalType": "uint256",
          "name": "newNumberOfTopDlps",
          "type": "uint256"
        }
      ],
      "name": "updateNumberOfTopDlps",
      "outputs": [],
      "stateMutability": "nonpayable",
      "type": "function"
    },
    {
      "inputs": [
        {
          "internalType": "uint256",
          "name": "newTtfPercentage",
          "type": "uint256"
        },
        {
          "internalType": "uint256",
          "name": "newTfcPercentage",
          "type": "uint256"
        },
        {
          "internalType": "uint256",
          "name": "newVduPercentage",
          "type": "uint256"
        },
        {
          "internalType": "uint256",
          "name": "newUwPercentage",
          "type": "uint256"
        }
      ],
      "name": "updatePerformancePercentages",
      "outputs": [],
      "stateMutability": "nonpayable",
      "type": "function"
    },
    {
      "inputs": [
        {
          "internalType": "address",
          "name": "newImplementation",
          "type": "address"
        },
        {
          "internalType": "bytes",
          "name": "data",
          "type": "bytes"
        }
      ],
      "name": "upgradeToAndCall",
      "outputs": [],
      "stateMutability": "payable",
      "type": "function"
    },
    {
      "inputs": [],
      "name": "uwPercentage",
      "outputs": [
        {
          "internalType": "uint256",
          "name": "",
          "type": "uint256"
        }
      ],
      "stateMutability": "view",
      "type": "function"
    },
    {
      "inputs": [],
      "name": "vduPercentage",
      "outputs": [
        {
          "internalType": "uint256",
          "name": "",
          "type": "uint256"
        }
      ],
      "stateMutability": "view",
      "type": "function"
    },
    {
      "inputs": [],
      "name": "version",
      "outputs": [
        {
          "internalType": "uint256",
          "name": "",
          "type": "uint256"
        }
      ],
      "stateMutability": "pure",
      "type": "function"
    }
  ],
  "transactionHash": "0xb274dcc0dbb9e2550788278b1f6f6d1509b29b0457368a092992cc61255ae6b9",
  "args": [],
  "numDeployments": 3,
  "solcInputHash": "590c43421844f2efcc66173db5b65bd7",
  "bytecode": "0x60a0604052306080523480156200001557600080fd5b506200002062000026565b620000da565b7ff0c57e16840df040f15088dc2f81fe391c3923bec73e23a9662efc9c229c6a00805468010000000000000000900460ff1615620000775760405163f92ee8a960e01b815260040160405180910390fd5b80546001600160401b0390811614620000d75780546001600160401b0319166001600160401b0390811782556040519081527fc7f505b2f371ae2175ee4913f4499e1f2633a7b5936321eed1cdaeb6115181d29060200160405180910390a15b50565b608051614bd96200010460003960008181612faa01528181612fd301526131140152614bd96000f3fe6080604052600436106103b85760003560e01c806391fab574116101f2578063caef8a0e1161010d578063e7ebaa6f116100a0578063f2fde38b1161006f578063f2fde38b14610b59578063face6d1a14610b79578063fc492a0814610b99578063fd605f4e14610bb957600080fd5b8063e7ebaa6f14610ad9578063ea83e47b14610af9578063eaeb2ec814610b19578063f2f5bf9d14610b3957600080fd5b8063d4e01872116100dc578063d4e0187214610a2f578063da97013a14610a4f578063e30c397814610a62578063e7a6227614610a7757600080fd5b8063caef8a0e146109cd578063d0842917146109ed578063d3c84b7d14610a03578063d3e14c3214610a1957600080fd5b8063ad3cb1cc11610185578063c22b9fd411610154578063c22b9fd414610961578063c6b61e4c14610977578063c7091593146109a4578063ca4ab3a2146109b757600080fd5b8063ad3cb1cc146108b6578063ae169a50146108f4578063b4fcea1d14610914578063c06020b01461093457600080fd5b8063a4e9196a116101c1578063a4e9196a14610843578063a66d2ad614610863578063a694fc3a14610883578063a9d90f9b1461089657600080fd5b806391fab574146107c05780639d3ce842146107e05780639e2c8a5b146107f6578063a23247ae1461081657600080fd5b806354fd4d50116102e257806376bc9869116102755780638d8c658f116102445780638d8c658f1461073d5780638da5cb5b1461075d578063916e1c571461078a57806391c52185146107a057600080fd5b806376bc9869146106de57806379b8d938146106f357806379ba5097146107135780638456cb591461072857600080fd5b806368ed41ed116102b157806368ed41ed146106735780636b289f5b146106895780636f341432146106a9578063715018a6146106c957600080fd5b806354fd4d5014610604578063572d356e1461061857806357e041571461062e5780635c975abb1461064e57600080fd5b806334a2e4eb1161035a5780634b925e98116103295780634b925e98146105b15780634f1ef286146105c657806351c144a4146105d957806352d1902d146105ef57600080fd5b806334a2e4eb146105205780633f2f924f1461054d5780633f4ba83a1461056f578063439b37561461058457600080fd5b806316279055116103965780631627905514610421578063178f794d146104525780632ae51134146104685780632d3b6df4146104eb57600080fd5b806307813e06146103bd578063132c58e9146103f35780631430091c14610417575b600080fd5b3480156103c957600080fd5b506103dd6103d83660046142b7565b610bd9565b6040516103ea91906142e3565b60405180910390f35b3480156103ff57600080fd5b5061040960045481565b6040519081526020016103ea565b61041f610c4c565b005b34801561042d57600080fd5b5061044261043c366004614304565b3b151590565b60405190151581526020016103ea565b34801561045e57600080fd5b5061040960095481565b34801561047457600080fd5b50610488610483366004614321565b610c81565b6040516103ea9190600061010082019050825182526020830151602083015260408301516040830152606083015160608301526080830151608083015260a0830151151560a083015260c083015160c083015260e083015160e083015292915050565b3480156104f757600080fd5b5061050b610506366004614343565b610dd1565b604080519283526020830191909152016103ea565b34801561052c57600080fd5b5061054061053b366004614304565b610f5d565b6040516103ea919061435c565b34801561055957600080fd5b50610562611087565b6040516103ea91906143be565b34801561057b57600080fd5b5061041f611098565b34801561059057600080fd5b506105a461059f366004614304565b6110a8565b6040516103ea919061440c565b3480156105bd57600080fd5b506104096110d2565b61041f6105d4366004614524565b6110de565b3480156105e557600080fd5b5061040960025481565b3480156105fb57600080fd5b506104096110fd565b34801561061057600080fd5b506001610409565b34801561062457600080fd5b5061040960055481565b34801561063a57600080fd5b5061041f610649366004614603565b61111a565b34801561065a57600080fd5b50600080516020614b648339815191525460ff16610442565b34801561067f57600080fd5b50610409600a5481565b34801561069557600080fd5b5061041f6106a4366004614343565b6116f3565b3480156106b557600080fd5b5061041f6106c4366004614321565b61176c565b3480156106d557600080fd5b5061041f6119b1565b3480156106ea57600080fd5b5061041f6119c3565b3480156106ff57600080fd5b5061040961070e3660046142b7565b6119cc565b34801561071f57600080fd5b5061041f611ad6565b34801561073457600080fd5b5061041f611b23565b34801561074957600080fd5b50610562610758366004614343565b611b33565b34801561076957600080fd5b50610772611db2565b6040516001600160a01b0390911681526020016103ea565b34801561079657600080fd5b50610409600f5481565b3480156107ac57600080fd5b5061041f6107bb366004614343565b611de7565b3480156107cc57600080fd5b5061041f6107db3660046146f5565b611e59565b3480156107ec57600080fd5b5061040960075481565b34801561080257600080fd5b5061041f610811366004614321565b611ea3565b34801561082257600080fd5b50610836610831366004614321565b611f0d565b6040516103ea9190614785565b34801561084f57600080fd5b5061041f61085e366004614343565b61201a565b34801561086f57600080fd5b5061041f61087e3660046147e8565b612057565b61041f610891366004614343565b612294565b3480156108a257600080fd5b5061041f6108b1366004614321565b6122d4565b3480156108c257600080fd5b506108e7604051806040016040528060058152602001640352e302e360dc1b81525081565b6040516103ea91906148a6565b34801561090057600080fd5b5061041f61090f366004614343565b612305565b34801561092057600080fd5b5061041f61092f366004614343565b612338565b34801561094057600080fd5b5061040961094f366004614304565b600c6020526000908152604090205481565b34801561096d57600080fd5b5061040960085481565b34801561098357600080fd5b50610997610992366004614343565b6124a2565b6040516103ea91906148d9565b61041f6109b2366004614955565b612537565b3480156109c357600080fd5b5061040960035481565b3480156109d957600080fd5b5061041f6109e8366004614343565b6125a0565b3480156109f957600080fd5b5061040960005481565b348015610a0f57600080fd5b5061040960015481565b348015610a2557600080fd5b5061040960065481565b348015610a3b57600080fd5b5061041f610a4a366004614343565b612612565b61041f610a5d366004614955565b612684565b348015610a6e57600080fd5b506107726126d6565b348015610a8357600080fd5b50610a97610a92366004614996565b6126ff565b6040516103ea9190600060a082019050825182526020830151602083015260408301516040830152606083015160608301526080830151608083015292915050565b348015610ae557600080fd5b50610409610af4366004614304565b61282a565b348015610b0557600080fd5b506105a4610b14366004614343565b61284b565b348015610b2557600080fd5b5061041f610b34366004614343565b6128f2565b348015610b4557600080fd5b50610836610b54366004614321565b612908565b348015610b6557600080fd5b5061041f610b74366004614304565b612a0d565b348015610b8557600080fd5b50610409610b943660046142b7565b612a92565b348015610ba557600080fd5b5061041f610bb43660046149cb565b612b81565b348015610bc557600080fd5b5061041f610bd4366004614321565b612c68565b610bfd60405180606001604052806000815260200160008152602001600081525090565b6040518060600160405280838152602001610c188585612d56565b81526000848152600b602090815260408083206001600160a01b038916845260070182529091205491015290505b92915050565b610c54612dd2565b3460036000828254610c669190614a13565b90915550506001600080516020614b8483398151915255565b565b610ccb604051806101000160405280600081526020016000815260200160008152602001600081526020016000815260200160001515815260200160008152602001600081525090565b600082815260106020818152604080842087855260068082018452828620835160e081018552815481526001808301548288019081526002840154838801908152600385015460608086019182526004870154608080880191909152600588015460a0880152969097015460c0860152885161010081018a52855181529251838b01529051978201979097529551938601939093529689905294909352549092830191610d8c918891610d8791610d829190614a26565b612e1e565b612e55565b81526000858152601060209081526040909120910190610daf9060030187612e8b565b151581526020018260a0015181526020018260c0015181525091505092915050565b6000806000600b600f5411610de7576001610df6565b600a600f54610df69190614a26565b90506000925060006001600f54610e0d9190614a26565b90505b818110610e98576000818152601060205260409020600581015460ff16610e375750610e86565b600086815260068201602052604081206004810154909103610e5a575050610e86565b806004015481600601548260050154610e739190614a39565b610e7d9190614a50565b95505050610e98565b80610e9081614a72565b915050610e10565b50600f546000908152601060209081526040808320878452600b90925282209091805b610ec784600301612ea3565b811015610f0857600684016000610ee16003870184612ead565b81526020019081526020016000206004015482610efe9190614a13565b9150600101610ebb565b506000610f1488612eb9565b9050600082828660020154610f299190614a39565b610f339190614a50565b905081846004015482610f469190614a39565b610f509190614a50565b9650505050505050915091565b6001600160a01b0381166000908152601160205260408120606091610f8182612ea3565b6001600160401b03811115610f9857610f98614493565b604051908082528060200260200182016040528015610fed57816020015b610fda60405180606001604052806000815260200160008152602001600081525090565b815260200190600190039081610fb65790505b50905060005b610ffc83612ea3565b81101561107f57600061100f8483612ead565b9050604051806060016040528082815260200161102c8884612d56565b81526000838152600b602090815260408083206001600160a01b038c168452600701825290912054910152835184908490811061106b5761106b614a89565b602090810291909101015250600101610ff3565b509392505050565b6060611093600d612f06565b905090565b6110a0612f13565b610c7f612f45565b6110b061425d565b6001600160a01b0382166000908152600c6020526040902054610c469061284b565b6000611093600d612ea3565b6110e6612f9f565b6110ef82613044565b6110f9828261304c565b5050565b6000611107613109565b50600080516020614b4483398151915290565b611122612f13565b61112a6119c3565b6000838152601060205260408120805490910361115a576040516333e7d47160e11b815260040160405180910390fd5b600581015460ff16156111805760405163ca2f9a6160e01b815260040160405180910390fd5b81156112025760106000611195600187614a26565b815260208101919091526040016000206005015460ff166111c95760405163c99e29b360e01b815260040160405180910390fd5b43816001015411156111ee5760405163756b785760e01b815260040160405180910390fd5b60058101805460ff19166001179055611227565b438160010154101561122757604051636bec07d760e11b815260040160405180910390fd5b60008481526010602052604081206003019061124282612ea3565b9050845181146112655760405163c21fe6bf60e01b815260040160405180910390fd5b600080805b8383101561146c5785600601600089858151811061128a5761128a614a89565b602002602001015160000151815260200190815260200160002091506112d68884815181106112bb576112bb614a89565b60200260200101516000015186612e8b90919063ffffffff16565b6112f35760405163b8e4b73960e01b815260040160405180910390fd5b87838151811061130557611305614a89565b602002602001015160200151826000018190555087838151811061132b5761132b614a89565b602002602001015160400151826001018190555087838151811061135157611351614a89565b602002602001015160600151826002018190555087838151811061137757611377614a89565b60200260200101516080015182600301819055506009548884815181106113a0576113a0614a89565b6020026020010151608001516113b69190614a39565b6008548985815181106113cb576113cb614a89565b6020026020010151606001516113e19190614a39565b6007548a86815181106113f6576113f6614a89565b60200260200101516040015161140c9190614a39565b6006548b878151811061142157611421614a89565b6020026020010151602001516114379190614a39565b6114419190614a13565b61144b9190614a13565b6114559190614a13565b61145f9082614a13565b600190930192905061126a565b8060000361147f57505050505050505050565b600092505b838310156116ad578560060160008985815181106114a4576114a4614a89565b602002602001015160000151815260200190815260200160002091508086600201546009548a86815181106114db576114db614a89565b6020026020010151608001516114f19190614a39565b6008548b878151811061150657611506614a89565b60200260200101516060015161151c9190614a39565b6007548c888151811061153157611531614a89565b6020026020010151604001516115479190614a39565b6006548d898151811061155c5761155c614a89565b6020026020010151602001516115729190614a39565b61157c9190614a13565b6115869190614a13565b6115909190614a13565b61159a9190614a39565b6115a49190614a50565b60058301558680156115c2575068056bc75e2d631000008260060154105b156116a2576000600b60008a86815181106115df576115df614a89565b6020908102919091018101515182528101919091526040016000206002015460068401546001600160a01b039091169068056bc75e2d63100000906116249082614a26565b85600501546116339190614a39565b61163d9190614a50565b604051600081818185875af1925050503d8060008114611679576040519150601f19603f3d011682016040523d82523d6000602084013e61167e565b606091505b50509050806116a0576040516312171d8360e31b815260040160405180910390fd5b505b600190920191611484565b604080518a815288151560208201527f3c387ccbf64e52e42837a373a65ea10f0fc23678882ab5424891e8a9c824db48910160405180910390a15050505050505b505050565b600f54600090815260106020526040902060010154431115611728576040516331bad64960e01b815260040160405180910390fd5b611730612f13565b60048190556040518181527f2fe8cb48ce95af273ee232223c3a0fbda25a65208753e99801ce508751f2b7fb906020015b60405180910390a150565b611774612dd2565b600f546000908152601060205260409020600101544311156117a9576040516331bad64960e01b815260040160405180910390fd5b6117b1612f13565b6000828152600b6020526040902060028082810154600160a01b900460ff16908111156117e0576117e06143f6565b146117fe57604051636e1ed6c560e11b815260040160405180910390fd5b6002810154611816906001600160a01b031684612d56565b6000036118365760405163cce553a960e01b815260040160405180910390fd5b81156118b45760028101546040516000916001600160a01b03169084908381818185875af1925050503d806000811461188b576040519150601f19603f3d011682016040523d82523d6000602084013e611890565b606091505b50509050806118b2576040516312171d8360e31b815260040160405180910390fd5b505b60008282600501546118c69190614a26565b11156119545760006118d6611db2565b6001600160a01b03168383600501546118ef9190614a26565b604051600081818185875af1925050503d806000811461192b576040519150601f19603f3d011682016040523d82523d6000602084013e611930565b606091505b5050905080611952576040516312171d8360e31b815260040160405180910390fd5b505b611965816008018260050154613152565b505060028101546001600160a01b03166000908152600782016020526040902060058201546119979160030190613152565b5050506110f96001600080516020614b8483398151915255565b6119b9612f13565b610c7f6000613190565b610c7f436131c8565b6000818152600b602090815260408083206001600160a01b03861684526007019091528120805482905b600f54811015611acd5780611a0a81614a9f565b60008181526010602090815260408083208a84526006810190925290912060058201549294509092509060ff16611a42575050611acd565b6000611a628989611a5d60018760000154610d829190614a26565b6133b2565b90506000826004015411611a77576000611ab9565b68056bc75e2d6310000082600601548360040154846005015484611a9b9190614a39565b611aa59190614a50565b611aaf9190614a39565b611ab99190614a50565b611ac39086614a13565b94505050506119f6565b50949350505050565b3380611ae06126d6565b6001600160a01b031614611b175760405163118cdaa760e01b81526001600160a01b03821660048201526024015b60405180910390fd5b611b2081613190565b50565b611b2b612f13565b610c7f613431565b60606000611b41600d612f06565b8051909150611b50848261347a565b93506000846001600160401b03811115611b6c57611b6c614493565b604051908082528060200260200182016040528015611b95578160200160208202803683370190505b50905084600003611ba857949350505050565b6000856001600160401b03811115611bc257611bc2614493565b604051908082528060200260200182016040528015611beb578160200160208202803683370190505b50905060005b83811015611da7576000858281518110611c0d57611c0d614a89565b602002602001015190506000611c2282612eb9565b90508860005b8a811015611ca757858181518110611c4257611c42614a89565b6020026020010151831180611c925750858181518110611c6457611c64614a89565b602002602001015183148015611c925750868181518110611c8757611c87614a89565b602002602001015184105b15611c9f57809150611ca7565b600101611c28565b5089811015611d9c576000611cbd60018c614a26565b90505b81811115611d5c5786611cd4600183614a26565b81518110611ce457611ce4614a89565b6020026020010151878281518110611cfe57611cfe614a89565b602090810291909101015285611d15600183614a26565b81518110611d2557611d25614a89565b6020026020010151868281518110611d3f57611d3f614a89565b602090810291909101015280611d5481614a72565b915050611cc0565b5082868281518110611d7057611d70614a89565b60200260200101818152505081858281518110611d8f57611d8f614a89565b6020026020010181815250505b505050600101611bf1565b509095945050505050565b6000807f9016d09d72d40fdae2fd8ceac6b6234c7706214fd39c1cd1e609a0528c1993005b546001600160a01b031692915050565b611def612f13565b600f54600090815260106020526040902060010154431115611e24576040516331bad64960e01b815260040160405180910390fd5b60018190556040518181527f6b483472b0089ea2e57226738b935fd1ec5b6a3c529b3dee0bc284f4285ae99090602001611761565b611e61612f13565b60005b81518110156110f957611e9a828281518110611e8257611e82614a89565b6020026020010151600d61349090919063ffffffff16565b50600101611e64565b600f54600090815260106020526040902060010154431115611ed8576040516331bad64960e01b815260040160405180910390fd5b611ee23383612a92565b811115611f02576040516314fea1a960e11b815260040160405180910390fd5b6110f933838361349c565b60606000611f1b8484614a26565b6001600160401b03811115611f3257611f32614493565b604051908082528060200260200182016040528015611f7757816020015b6040805180820190915260008082526020820152815260200190600190039081611f505790505b509050835b8381101561107f576040805180820190915280600b6000611f9e600d86612ead565b8152602001908152602001600020600001548152602001600b6000611fcd85600d612ead90919063ffffffff16565b81526020810191909152604001600020600101546001600160a01b0316905282611ff78784614a26565b8151811061200757612007614a89565b6020908102919091010152600101611f7c565b612022612f13565b60028190556040518181527fe9a6d1b35cdb834e1d3cfe94b7199407fc9dbb6d64ba6c59b30295425d86d4c190602001611761565b7ff0c57e16840df040f15088dc2f81fe391c3923bec73e23a9662efc9c229c6a008054600160401b810460ff1615906001600160401b031660008115801561209c5750825b90506000826001600160401b031660011480156120b85750303b155b9050811580156120c6575080155b156120e45760405163f92ee8a960e01b815260040160405180910390fd5b845467ffffffffffffffff19166001178555831561210e57845460ff60401b1916600160401b1785555b6121166135a1565b61211e6135a1565b6121266135a9565b61212e6135b9565b60208601516000556040860151600155606086015160025560a086015160055560c086015160045560e0860151600681905561010087015160078190556101208801516008819055610140890151600981905592909161218d91614a13565b6121979190614a13565b6121a19190614a13565b68056bc75e2d63100000146121c95760405163e2b5214560e01b815260040160405180910390fd5b60008052601060205260808601517f6e0956cda88cad152e89927e53611735b61a5c762d1428573c6931b0a5efcb019061220f9061220990600290614a26565b4361347a565b8155608087015161222290600190614a26565b60018083019190915560058201805460ff19169091179055865161224590613190565b50831561228c57845460ff60401b19168555604051600181527fc7f505b2f371ae2175ee4913f4499e1f2633a7b5936321eed1cdaeb6115181d29060200160405180910390a15b505050505050565b600f546000908152601060205260409020600101544311156122c9576040516331bad64960e01b815260040160405180910390fd5b611b203382346135c9565b6122dc612dd2565b6122e46136f3565b6122ee8282613724565b6110f96001600080516020614b8483398151915255565b61230d612dd2565b6123156136f3565b61232181600f54613724565b611b206001600080516020614b8483398151915255565b6000818152600b602052604090206002015481906001600160a01b0316331461237457604051633387d70760e01b815260040160405180910390fd5b61237c612dd2565b600f546000908152601060205260409020600101544311156123b1576040516331bad64960e01b815260040160405180910390fd5b6000828152600b602052604090206001600282810154600160a01b900460ff16908111156123e1576123e16143f6565b146123ff57604051636e1ed6c560e11b815260040160405180910390fd5b60028101805460ff60a01b1916600160a11b17905561241f600d84613490565b5060405183907fc3f4c6824ace066416e91f60e8762e0257019e0eb2e83afa4cdf62d23991e73990600090a26000816005015461245c3386612d56565b6124669190614a26565b905080156124895760028201548254612489916001600160a01b0316908361349c565b50506110f96001600080516020614b8483398151915255565b6124d66040518060a00160405280600081526020016000815260200160008152602001600015158152602001606081525090565b6040805160a08101825260008481526010602081815284832080548552600181015482860152600281015495850195909552600585015460ff161515606085015291869052905290608082019061252f90600301612f06565b905292915050565b61253f6136f3565b612547612dd2565b600f5460009081526010602052604090206001015443111561257c576040516331bad64960e01b815260040160405180910390fd5b6125898383836000613930565b6116ee6001600080516020614b8483398151915255565b6125a8612f13565b600f546000908152601060205260409020600101544311156125dd576040516331bad64960e01b815260040160405180910390fd5b60008190556040518181527f789d1a2d6d155c3453c68a23a6d03692c27a2f60d3599ef073c85585fb4d4eec90602001611761565b61261a612f13565b600f5460009081526010602052604090206001015443111561264f576040516331bad64960e01b815260040160405180910390fd5b60058190556040518181527f3cd59cf395448ba3bfd2541dcb31ccd800b9e303281df0888a62ae5d5f673f5890602001611761565b61268c6136f3565b612694612dd2565b600f546000908152601060205260409020600101544311156126c9576040516331bad64960e01b815260040160405180910390fd5b6125898383836001613930565b6000807f237e158222e3e6968b72b9db0d8043aacf074ad9f650f0d1606b4d82ee432c00611dd7565b6127316040518060a0016040528060008152602001600081526020016000815260200160008152602001600081525090565b6000828152601060205260408120546127589086908690611a5d90610d8290600190614a26565b6000848152601060209081526040808320888452600601825291829020825160a0810184528881529182018790529181018390526004820154929350909160608201906127a65760006127e8565b82600401548468056bc75e2d63100000856006015486600501546127ca9190614a39565b6127d49190614a50565b6127de9190614a39565b6127e89190614a50565b81526000878152600b602090815260408083206001600160a01b038c1684526007018252808320898452600201825290912054910152925050505b9392505050565b6001600160a01b0381166000908152601160205260408120610c4690612ea3565b61285361425d565b6000828152600b60209081526040918290208251610100810184528154815260018201546001600160a01b039081169382019390935260028083015493841694820194909452909290916060830191600160a01b90910460ff16908111156128bd576128bd6143f6565b81526020018260030154815260200182600501548152602001826004015481526020016128e985612eb9565b90529392505050565b611b2043821061290257436131c8565b816131c8565b606060006129168484614a26565b6001600160401b0381111561292d5761292d614493565b60405190808252806020026020018201604052801561297257816020015b604080518082019091526000808252602082015281526020019060019003908161294b5790505b509050835b8381101561107f57600061298c600d83612ead565b6000818152600b60205260409020600101549091506001600160a01b0316803b612a03576040805180820182526000848152600b60209081529290205481526001600160a01b03831691810191909152846129e78986614a26565b815181106129f7576129f7614a89565b60200260200101819052505b5050600101612977565b612a15612f13565b7f237e158222e3e6968b72b9db0d8043aacf074ad9f650f0d1606b4d82ee432c0080546001600160a01b0319166001600160a01b0383169081178255612a59611db2565b6001600160a01b03167f38d16b8cac22d99fc7c124b9cd0de2d3fa1faef420bfe791d8c362d765e2270060405160405180910390a35050565b600080612ab56005544311612aa8576000612e1e565b600554610d829043614a26565b6000848152600b602090815260408083206001600160a01b0389168452600701909152812091925090612aea90600301613ad3565b6000858152600b602090815260408083206001600160a01b038a1684526007019091529020612b1c9060010184613b1a565b612b269190614ab8565b6000858152600b60205260409020600201546001600160d01b039190911691506001600160a01b0390811690861603612b79578060025410612b69576000612b76565b600254612b769082614a26565b90505b949350505050565b612b89612f13565b600f54600090815260106020526040902060010154431115612bbe576040516331bad64960e01b815260040160405180910390fd5b8082612bca8587614a13565b612bd49190614a13565b612bde9190614a13565b68056bc75e2d6310000014612c065760405163e2b5214560e01b815260040160405180910390fd5b60068490556007839055600882905560098190556040805185815260208101859052908101839052606081018290527f9fed7ac1282e0ba1555a16ba3a71b4db07d3740cc71e611b077b581d1ad87c0b9060800160405180910390a150505050565b6000828152600b602052604090206002015482906001600160a01b03163314612ca457604051633387d70760e01b815260040160405180910390fd5b600f54600090815260106020526040902060010154431115612cd9576040516331bad64960e01b815260040160405180910390fd5b68056bc75e2d63100000821115612d035760405163d1be20e560e01b815260040160405180910390fd5b6000838152600b602090815260409182902060040184905581518581529081018490527fdc7c1eb84b8e606e429c65b5053a00111db03437dbbad386aa5c2cb0ea19d84d910160405180910390a1505050565b6000818152600b602090815260408083206001600160a01b03861684526007019091528120612d8790600301613ad3565b6000838152600b602090815260408083206001600160a01b03881684526007019091529020612db890600101613ad3565b612dc29190614ab8565b6001600160d01b03169392505050565b600080516020614b84833981519152805460011901612e0457604051633ee5aeb560e01b815260040160405180910390fd5b60029055565b6001600080516020614b8483398151915255565b600065ffffffffffff821115612e51576040516306dfcc6560e41b81526030600482015260248101839052604401611b0e565b5090565b6000828152600b60205260408120612e709060080183613b1a565b6000848152600b60205260409020612db89060060184613b1a565b60008181526001830160205260408120541515612823565b6000610c46825490565b60006128238383613b65565b6000818152600b60205260408120612ed390600801613ad3565b6000838152600b60205260409020612eed90600601613ad3565b612ef79190614ab8565b6001600160d01b031692915050565b6060600061282383613b8f565b33612f1c611db2565b6001600160a01b031614610c7f5760405163118cdaa760e01b8152336004820152602401611b0e565b612f4d613beb565b600080516020614b64833981519152805460ff191681557f5db9ee0a495bf2e6ff9c91a7834c1ba4fdd244a5e8aa4e537bd38aeae4b073aa335b6040516001600160a01b039091168152602001611761565b306001600160a01b037f000000000000000000000000000000000000000000000000000000000000000016148061302657507f00000000000000000000000000000000000000000000000000000000000000006001600160a01b031661301a600080516020614b44833981519152546001600160a01b031690565b6001600160a01b031614155b15610c7f5760405163703e46dd60e11b815260040160405180910390fd5b611b20612f13565b816001600160a01b03166352d1902d6040518163ffffffff1660e01b8152600401602060405180830381865afa9250505080156130a6575060408051601f3d908101601f191682019092526130a391810190614ad8565b60015b6130ce57604051634c9c8ce360e01b81526001600160a01b0383166004820152602401611b0e565b600080516020614b4483398151915281146130ff57604051632a87526960e21b815260048101829052602401611b0e565b6116ee8383613c1b565b306001600160a01b037f00000000000000000000000000000000000000000000000000000000000000001614610c7f5760405163703e46dd60e11b815260040160405180910390fd5b60008061318561316143612e1e565b61316a85613c71565b61317387613ad3565b61317d9190614af1565b869190613ca5565b915091509250929050565b7f237e158222e3e6968b72b9db0d8043aacf074ad9f650f0d1606b4d82ee432c0080546001600160a01b03191681556110f982613cc0565b600f54600090815260106020526040902060018101544310156131e9575050565b60006131f6600154611b33565b90505b82826001015410156116ee57600f805490600061321583614a9f565b9091555050600f54600090815260106020526040902060018084015461323a91614a13565b80825560055460019161324d9190614a13565b6132579190614a26565b6001820155600454600282015560005b825181101561336d5761329f83828151811061328557613285614a89565b602002602001015183600301613d3190919063ffffffff16565b506132ca8382815181106132b5576132b5614a89565b6020026020010151610d878660010154612e1e565b8260060160008584815181106132e2576132e2614a89565b6020026020010151815260200190815260200160002060040181905550600b600084838151811061331557613315614a89565b602002602001015181526020019081526020016000206004015482600601600085848151811061334757613347614a89565b602090810291909101810151825281019190915260400160002060060155600101613267565b8193507f0129593a287c7be892e56181ff1238eb466a2c952dc53a3029140d1f3ddc4a8d600f546040516133a391815260200190565b60405180910390a150506131f9565b6000828152600b602090815260408083206001600160a01b038716845260070190915281206133e49060030183613b1a565b6000848152600b602090815260408083206001600160a01b038916845260070190915290206134169060010184613b1a565b6134209190614ab8565b6001600160d01b0316949350505050565b6134396136f3565b600080516020614b64833981519152805460ff191660011781557f62e78cea01bee320cd4e420270b5ea74000d11b0c9f74754ebdbfc544b05a25833612f87565b60008183106134895781612823565b5090919050565b60006128238383613d3d565b6000828152600b602052604090206134b76008820183613152565b50506001600160a01b038416600090815260078201602052604090206134e09060030183613152565b50506000846001600160a01b03168360405160006040518083038185875af1925050503d806000811461352f576040519150601f19603f3d011682016040523d82523d6000602084013e613534565b606091505b5050905080613556576040516312171d8360e31b815260040160405180910390fd5b83856001600160a01b03167f7fc4727e062e336010f2c282598ef5f14facb3de68cf8195c2f23e1454b2b74e8560405161359291815260200190565b60405180910390a35050505050565b610c7f613e37565b6135b1613e37565b610c7f613e80565b6135c1613e37565b610c7f613e88565b6000828152600b602052604090206001600282810154600160a01b900460ff16908111156135f9576135f96143f6565b1461361757604051636e1ed6c560e11b815260040160405180910390fd5b6001600160a01b03841660009081526011602052604090206136398185613d31565b506136478260060184613152565b50506001600160a01b038516600090815260078301602052604081206136709060010185613152565b506001600160a01b038716600090815260078501602052604081206001600160d01b039290921692508290036136a657600f5481555b85876001600160a01b03167f1449c6dd7851abc30abf37f57715f492010519147cc2652fbc38202c18a6ee90876040516136e291815260200190565b60405180910390a350505050505050565b600080516020614b648339815191525460ff1615610c7f5760405163d93c066560e01b815260040160405180910390fd5b6000828152600b60209081526040808320338452600701909152812090805b82548411156138a657600060106000856000015460016137639190614a13565b815260208082019290925260409081016000908120898252600681019093522060058201549192509060ff1661379a5750506138a6565b84548560006137a883614a9f565b919050555060006137c83389611a5d60018760000154610d829190614a26565b905060008260040154116137dd57600061381f565b68056bc75e2d63100000826006015483600401548460050154846138019190614a39565b61380b9190614a50565b6138159190614a39565b61381f9190614a50565b94508460000361383157505050613743565b8554600090815260028701602052604090208590556138508585614a13565b865460408051338152602081018c905290810191909152606081018790529094507f4952128cd80b7e898bd01cdbeef5d50f236e06f3e18d6961eed5ad968aca61ad9060800160405180910390a1505050613743565b806000036138c7576040516312d37ee560e31b815260040160405180910390fd5b604051600090339083908381818185875af1925050503d8060008114613909576040519150601f19603f3d011682016040523d82523d6000602084013e61390e565b606091505b505090508061228c576040516312171d8360e31b815260040160405180910390fd5b60005461393d600d612ea3565b1061395b576040516334227c9f60e11b815260040160405180910390fd5b6001600160a01b0384166000908152600c60205260409020541561399257604051636e1ed6c560e11b815260040160405180910390fd5b68056bc75e2d631000008211156139bc5760405163d1be20e560e01b815260040160405180910390fd5b6000600a600081546139cd90614a9f565b91829055506000818152600b6020526040902060025491925090341015613a0757604051630103be3b60e21b815260040160405180910390fd5b8215613a14573460058201555b8181556002810180546001830180546001600160a01b038a81166001600160a01b031990921682179092559088166001600160a81b031990921691909117600160a01b17909155600482018590556000908152600c60205260409020829055613a7e8583346135c9565b613a89600d83613d31565b50846001600160a01b0316866001600160a01b0316837fe5c2985d22a121f4f7b534ee3a7ab105a620e670bb02f5d1188e20a8670f401e60405160405180910390a4505050505050565b80546000908015613b1157613afb83613aed600184614a26565b600091825260209091200190565b54600160301b90046001600160d01b0316612823565b60009392505050565b815460009081613b2c85858385613ea9565b90508015613b5957613b4385613aed600184614a26565b54600160301b90046001600160d01b0316613b5c565b60005b95945050505050565b6000826000018281548110613b7c57613b7c614a89565b9060005260206000200154905092915050565b606081600001805480602002602001604051908101604052809291908181526020018280548015613bdf57602002820191906000526020600020905b815481526020019060010190808311613bcb575b50505050509050919050565b600080516020614b648339815191525460ff16610c7f57604051638dfc202b60e01b815260040160405180910390fd5b613c2482613f03565b6040516001600160a01b038316907fbc7cd75a20ee27fd9adebab32041f755214dbc6bffa90cc0225b39da2e5c2d3b90600090a2805115613c69576116ee8282613f68565b6110f9613fd5565b60006001600160d01b03821115612e51576040516306dfcc6560e41b815260d0600482015260248101839052604401611b0e565b600080613cb3858585613ff4565b915091505b935093915050565b7f9016d09d72d40fdae2fd8ceac6b6234c7706214fd39c1cd1e609a0528c19930080546001600160a01b031981166001600160a01b03848116918217845560405192169182907f8be0079c531659141344cd1fd0a4f28419497f9722a3daafe3b4186f6b6457e090600090a3505050565b6000612823838361416e565b60008181526001830160205260408120548015613e26576000613d61600183614a26565b8554909150600090613d7590600190614a26565b9050808214613dda576000866000018281548110613d9557613d95614a89565b9060005260206000200154905080876000018481548110613db857613db8614a89565b6000918252602080832090910192909255918252600188019052604090208390555b8554869080613deb57613deb614b11565b600190038181906000526020600020016000905590558560010160008681526020019081526020016000206000905560019350505050610c46565b6000915050610c46565b5092915050565b7ff0c57e16840df040f15088dc2f81fe391c3923bec73e23a9662efc9c229c6a0054600160401b900460ff16610c7f57604051631afcd79f60e31b815260040160405180910390fd5b612e0a613e37565b613e90613e37565b600080516020614b64833981519152805460ff19169055565b60005b8183101561107f576000613ec084846141bd565b60008781526020902090915065ffffffffffff86169082015465ffffffffffff161115613eef57809250613efd565b613efa816001614a13565b93505b50613eac565b806001600160a01b03163b600003613f3957604051634c9c8ce360e01b81526001600160a01b0382166004820152602401611b0e565b600080516020614b4483398151915280546001600160a01b0319166001600160a01b0392909216919091179055565b6060600080846001600160a01b031684604051613f859190614b27565b600060405180830381855af49150503d8060008114613fc0576040519150601f19603f3d011682016040523d82523d6000602084013e613fc5565b606091505b5091509150613b5c8583836141d8565b3415610c7f5760405163b398979f60e01b815260040160405180910390fd5b82546000908190801561411357600061401287613aed600185614a26565b60408051808201909152905465ffffffffffff808216808452600160301b9092046001600160d01b03166020840152919250908716101561406657604051632520601d60e01b815260040160405180910390fd5b805165ffffffffffff8088169116036140b2578461408988613aed600186614a26565b80546001600160d01b0392909216600160301b0265ffffffffffff909216919091179055614103565b6040805180820190915265ffffffffffff80881682526001600160d01b0380881660208085019182528b54600181018d5560008d81529190912094519151909216600160301b029216919091179101555b602001519250839150613cb89050565b50506040805180820190915265ffffffffffff80851682526001600160d01b0380851660208085019182528854600181018a5560008a815291822095519251909316600160301b029190931617920191909155905081613cb8565b60008181526001830160205260408120546141b557508154600181810184556000848152602080822090930184905584548482528286019093526040902091909155610c46565b506000610c46565b60006141cc6002848418614a50565b61282390848416614a13565b6060826141ed576141e882614234565b612823565b815115801561420457506001600160a01b0384163b155b1561422d57604051639996b31560e01b81526001600160a01b0385166004820152602401611b0e565b5080612823565b8051156142445780518082602001fd5b604051630a12f52160e11b815260040160405180910390fd5b60408051610100810182526000808252602082018190529181018290529060608201908152602001600081526020016000815260200160008152602001600081525090565b6001600160a01b0381168114611b2057600080fd5b600080604083850312156142ca57600080fd5b82356142d5816142a2565b946020939093013593505050565b81518152602080830151908201526040808301519082015260608101610c46565b60006020828403121561431657600080fd5b8135612823816142a2565b6000806040838503121561433457600080fd5b50508035926020909101359150565b60006020828403121561435557600080fd5b5035919050565b6020808252825182820181905260009190848201906040850190845b818110156143b25761439f8385518051825260208082015190830152604090810151910152565b9284019260609290920191600101614378565b50909695505050505050565b6020808252825182820181905260009190848201906040850190845b818110156143b2578351835292840192918401916001016143da565b634e487b7160e01b600052602160045260246000fd5b815181526020808301516001600160a01b03908116918301919091526040808401519091169082015260608201516101008201906003811061445e57634e487b7160e01b600052602160045260246000fd5b806060840152506080830151608083015260a083015160a083015260c083015160c083015260e083015160e083015292915050565b634e487b7160e01b600052604160045260246000fd5b60405160a081016001600160401b03811182821017156144cb576144cb614493565b60405290565b60405161016081016001600160401b03811182821017156144cb576144cb614493565b604051601f8201601f191681016001600160401b038111828210171561451c5761451c614493565b604052919050565b6000806040838503121561453757600080fd5b8235614542816142a2565b91506020838101356001600160401b038082111561455f57600080fd5b818601915086601f83011261457357600080fd5b81358181111561458557614585614493565b614597601f8201601f191685016144f4565b915080825287848285010111156145ad57600080fd5b80848401858401376000848284010152508093505050509250929050565b60006001600160401b038211156145e4576145e4614493565b5060051b60200190565b803580151581146145fe57600080fd5b919050565b6000806000606080858703121561461957600080fd5b843593506020808601356001600160401b0381111561463757600080fd5b8601601f8101881361464857600080fd5b803561465b614656826145cb565b6144f4565b81815260a0918202830184019184820191908b84111561467a57600080fd5b938501935b838510156146d65780858d0312156146975760008081fd5b61469f6144a9565b853581528686013587820152604080870135908201528786013588820152608080870135908201528352938401939185019161467f565b508097505050505050506146ec604085016145ee565b90509250925092565b6000602080838503121561470857600080fd5b82356001600160401b0381111561471e57600080fd5b8301601f8101851361472f57600080fd5b803561473d614656826145cb565b81815260059190911b8201830190838101908783111561475c57600080fd5b928401925b8284101561477a57833582529284019290840190614761565b979650505050505050565b602080825282518282018190526000919060409081850190868401855b828110156147d0578151805185528601516001600160a01b03168685015292840192908501906001016147a2565b5091979650505050505050565b80356145fe816142a2565b600061016082840312156147fb57600080fd5b6148036144d1565b61480c836147dd565b81526020830135602082015260408301356040820152606083013560608201526080830135608082015260a083013560a082015260c083013560c082015260e083013560e08201526101008084013581830152506101208084013581830152506101408084013581830152508091505092915050565b60005b8381101561489d578181015183820152602001614885565b50506000910152565b60208152600082518060208401526148c5816040850160208701614882565b601f01601f19169190910160400192915050565b6000602080835260c0830184518285015281850151604085015260408501516060850152606085015115156080850152608085015160a08086015281815180845260e0870191508483019350600092505b8083101561494a578351825292840192600192909201919084019061492a565b509695505050505050565b60008060006060848603121561496a57600080fd5b8335614975816142a2565b92506020840135614985816142a2565b929592945050506040919091013590565b6000806000606084860312156149ab57600080fd5b83356149b6816142a2565b95602085013595506040909401359392505050565b600080600080608085870312156149e157600080fd5b5050823594602084013594506040840135936060013592509050565b634e487b7160e01b600052601160045260246000fd5b80820180821115610c4657610c466149fd565b81810381811115610c4657610c466149fd565b8082028115828204841417610c4657610c466149fd565b600082614a6d57634e487b7160e01b600052601260045260246000fd5b500490565b600081614a8157614a816149fd565b506000190190565b634e487b7160e01b600052603260045260246000fd5b600060018201614ab157614ab16149fd565b5060010190565b6001600160d01b03828116828216039080821115613e3057613e306149fd565b600060208284031215614aea57600080fd5b5051919050565b6001600160d01b03818116838216019080821115613e3057613e306149fd565b634e487b7160e01b600052603160045260246000fd5b60008251614b39818460208701614882565b919091019291505056fe360894a13ba1a3210667c828492db98dca3e2076cc3735a920a3ca505d382bbccd5ed15c6e187e77e9aee88184c21f4f2182ab5827cb3b7e07fbedcd63f033009b779b17422d0df92223018b32b4d1fa46e071723d6817e2486d003becc55f00a264697066735822122080170890c60475f353ae19a910a4cf5add9c1e8f74039c13c2901ca998ac213464736f6c63430008180033",
  "devdoc": {
    "errors": {
      "AddressEmptyCode(address)": [
        {
          "details": "There's no code at `target` (it is not a contract)."
        }
      ],
      "CheckpointUnorderedInsertion()": [
        {
          "details": "A value was attempted to be inserted on a past checkpoint."
        }
      ],
      "ERC1967InvalidImplementation(address)": [
        {
          "details": "The `implementation` of the proxy is invalid."
        }
      ],
      "ERC1967NonPayable()": [
        {
          "details": "An upgrade function sees `msg.value > 0` that may be lost."
        }
      ],
      "EnforcedPause()": [
        {
          "details": "The operation failed because the contract is paused."
        }
      ],
      "ExpectedPause()": [
        {
          "details": "The operation failed because the contract is not paused."
        }
      ],
      "FailedInnerCall()": [
        {
          "details": "A call to an address target failed. The target may have reverted."
        }
      ],
      "InvalidInitialization()": [
        {
          "details": "The contract is already initialized."
        }
      ],
      "NotInitializing()": [
        {
          "details": "The contract is not initializing."
        }
      ],
      "OwnableInvalidOwner(address)": [
        {
          "details": "The owner is not a valid owner account. (eg. `address(0)`)"
        }
      ],
      "OwnableUnauthorizedAccount(address)": [
        {
          "details": "The caller account is not authorized to perform an operation."
        }
      ],
      "ReentrancyGuardReentrantCall()": [
        {
          "details": "Unauthorized reentrant call."
        }
      ],
      "SafeCastOverflowedUintDowncast(uint8,uint256)": [
        {
          "details": "Value doesn't fit in an uint of `bits` size."
        }
      ],
      "UUPSUnauthorizedCallContext()": [
        {
          "details": "The call is from an unauthorized context."
        }
      ],
      "UUPSUnsupportedProxiableUUID(bytes32)": [
        {
          "details": "The storage `slot` is unsupported as a UUID."
        }
      ]
    },
    "events": {
      "DlpDeregistered(uint256)": {
        "params": {
          "dlpId": "id of the dlp"
        }
      },
      "DlpRegistered(uint256,address,address)": {
        "params": {
          "dlpAddress": "address of the dlp",
          "dlpId": "id of the dlp",
          "ownerAddress": "owner of the dlp"
        }
      },
      "DlpStakersPercentageUpdated(uint256,uint256)": {
        "params": {
          "dlpId": "id of the dlp",
          "stakersPercentage": "new stakers percentage"
        }
      },
      "EpochCreated(uint256)": {
        "params": {
          "epochId": "reward epoch id"
        }
      },
      "EpochPerformancesSaved(uint256,bool)": {
        "params": {
          "epochId": "epoch id",
          "isFinalised": "true if the performances are final"
        }
      },
      "EpochRewardAmountUpdated(uint256)": {
        "params": {
          "newEpochRewardAmount": "new epoch reward amount"
        }
      },
      "EpochSizeUpdated(uint256)": {
        "params": {
          "newEpochSize": "new epoch size"
        }
      },
      "Initialized(uint64)": {
        "details": "Triggered when the contract has been initialized or reinitialized."
      },
      "MaxNumberOfRegisteredDlpsUpdated(uint256)": {
        "params": {
          "newMaxNumberOfRegisteredDlps": "new max number of registered dlps"
        }
      },
      "MinDlpStakeAmountUpdated(uint256)": {
        "params": {
          "newMinDlpStakeAmount": "new minDlpStakeAmount"
        }
      },
      "NumberOfTopDlpsUpdated(uint256)": {
        "params": {
          "newNumberOfTopDlps": "new max number of dlps"
        }
      },
      "Paused(address)": {
        "details": "Emitted when the pause is triggered by `account`."
      },
      "PerformancePercentagesUpdated(uint256,uint256,uint256,uint256)": {
        "params": {
          "newTfcPercentage": "new tfc percentage",
          "newTtfPercentage": "new ttf percentage",
          "newUwPercentage": "new uw percentage",
          "newVduPercentage": "new vdu percentage"
        }
      },
      "Staked(address,uint256,uint256)": {
        "params": {
          "amount": "amount stake",
          "dlpId": "id of the dlp",
          "staker": "address of the staker"
        }
      },
      "StakerDlpEpochRewardClaimed(address,uint256,uint256,uint256)": {
        "params": {
          "claimAmount": "amount claimed",
          "dlpId": "id of the dlp",
          "epochId": "epoch id",
          "staker": "address of the staker"
        }
      },
      "Unpaused(address)": {
        "details": "Emitted when the pause is lifted by `account`."
      },
      "Unstaked(address,uint256,uint256)": {
        "params": {
          "amount": "amount unstake",
          "dlpId": "id of the dlp",
          "staker": "address of the staker"
        }
      },
      "Upgraded(address)": {
        "details": "Emitted when the implementation is upgraded."
      }
    },
    "kind": "dev",
    "methods": {
      "acceptOwnership()": {
        "details": "The new owner accepts the ownership transfer."
      },
      "claimReward(uint256)": {
        "params": {
          "dlpId": "dlp id"
        }
      },
      "claimRewardUntilEpoch(uint256,uint256)": {
        "params": {
          "dlpId": "id of the dlp",
          "lastEpochToClaim": "epoch id"
        }
      },
      "claimableAmount(address,uint256)": {
        "params": {
          "dlpId": "id of the dlp",
          "stakerAddress": "address of the staker"
        }
      },
      "constructor": {
        "custom:oz-upgrades-unsafe-allow": "constructor"
      },
      "createEpochsUntilBlockNumber(uint256)": {
        "details": "useful only when createEpochs cannot be called because there are to many epochs to create",
        "params": {
          "blockNumber": "block number"
        }
      },
      "deregisterDlp(uint256)": {
        "params": {
          "dlpId": "dlp id"
        }
      },
      "distributeStakeAfterDeregistration(uint256,uint256)": {
        "params": {
          "dlpId": "dlp id",
          "dlpOwnerAmount": "amount to distribute to the dlp owner"
        }
      },
      "dlpEpochs(uint256,uint256)": {
        "params": {
          "dlpId": "id of the dlp",
          "epochId": "epoch id"
        }
      },
      "dlps(uint256)": {
        "params": {
          "dlpId": "id of the dlp"
        }
      },
      "dlpsByAddress(address)": {
        "params": {
          "dlpAddress": "address of the dlp"
        }
      },
      "epochs(uint256)": {
        "params": {
          "epochId": "epoch id"
        }
      },
      "estimatedDlpReward(uint256)": {
        "details": "if the historyRewardEstimation > 0, stakeRewardEstimation might be irrelevantpercentage is",
        "params": {
          "dlpId": "id of the dlp"
        },
        "returns": {
          "historyRewardEstimation": "     percentage estimated reward per epoch based on                                      the data from the last epoch in which the dlp was part of",
          "stakeRewardEstimation": "       percentage estimated reward per epoch based on                                      the total stake amount and reward from the current epoch"
        }
      },
      "initialize((address,uint256,uint256,uint256,uint256,uint256,uint256,uint256,uint256,uint256,uint256))": {
        "params": {
          "params": "initialization parameters"
        }
      },
      "owner()": {
        "details": "Returns the address of the current owner."
      },
      "pause()": {
        "details": "Pauses the contract"
      },
      "paused()": {
        "details": "Returns true if the contract is paused, and false otherwise."
      },
      "pendingOwner()": {
        "details": "Returns the address of the pending owner."
      },
      "proxiableUUID()": {
        "details": "Implementation of the ERC1822 {proxiableUUID} function. This returns the storage slot used by the implementation. It is used to validate the implementation's compatibility when performing an upgrade. IMPORTANT: A proxy pointing at a proxiable contract should not be considered proxiable itself, because this risks bricking a proxy that upgrades to it, by delegating to itself until out of gas. Thus it is critical that this function revert if invoked through a proxy. This is guaranteed by the `notDelegated` modifier."
      },
      "registerDlp(address,address,uint256)": {
        "params": {
          "dlpAddress": "address of the dlp",
          "dlpOwnerAddress": "owner of the dlp",
          "stakersPercentage": "percentage of the rewards that will be distributed to the stakers"
        }
      },
      "registerDlpWithGrant(address,address,uint256)": {
        "params": {
          "dlpAddress": "address of the dlp",
          "dlpOwnerAddress": "owner of the dlp",
          "stakersPercentage": "percentage of the rewards that will be distributed to the stakers"
        }
      },
      "renounceOwnership()": {
        "details": "Leaves the contract without owner. It will not be possible to call `onlyOwner` functions. Can only be called by the current owner. NOTE: Renouncing ownership will leave the contract without an owner, thereby disabling any functionality that is only available to the owner."
      },
      "saveEpochPerformances(uint256,(uint256,uint256,uint256,uint256,uint256)[],bool)": {
        "params": {
          "dlpPerformances": "An array of DLPPerformance structs containing the performance metrics of the DLPs",
          "epochId": "The ID of the epoch"
        }
      },
      "stake(uint256)": {
        "params": {
          "dlpId": "dlp id"
        }
      },
      "stakerDlpEpochs(address,uint256,uint256)": {
        "params": {
          "dlpId": "id of the dlp",
          "epochId": "epoch id",
          "staker": "address of the staker"
        }
      },
      "stakerDlps(address,uint256)": {
        "params": {
          "dlpId": "id of the dlp",
          "stakerAddress": "address of the staker"
        }
      },
      "stakerDlpsList(address)": {
        "params": {
          "stakerAddress": "address of the staker"
        }
      },
      "topDlpIds(uint256)": {
        "params": {
          "numberOfDlps": "number of dlps"
        }
      },
      "transferOwnership(address)": {
        "details": "Starts the ownership transfer of the contract to a new account. Replaces the pending transfer if there is one. Can only be called by the current owner."
      },
      "unpause()": {
        "details": "Unpauses the contract"
      },
      "unstake(uint256,uint256)": {
        "params": {
          "amount": "amount to unstake",
          "dlpId": "dlp id"
        }
      },
      "unstakebleAmount(address,uint256)": {
        "params": {
          "dlpId": "id of the dlp",
          "stakerAddress": "address of the staker"
        }
      },
      "updateDlpStakersPercentage(uint256,uint256)": {
        "params": {
          "dlpId": "dlp id",
          "stakersPercentage": "new stakers percentage"
        }
      },
      "updateEpochRewardAmount(uint256)": {
        "params": {
          "newEpochRewardAmount": "new epoch size"
        }
      },
      "updateEpochSize(uint256)": {
        "params": {
          "newEpochSize": "new epoch size"
        }
      },
      "updateMaxNumberOfRegisteredDlps(uint256)": {
        "params": {
          "newMaxNumberOfRegisteredDlps": "new maximum number of dlps"
        }
      },
      "updateMinDlpStakeAmount(uint256)": {
        "params": {
          "newMinDlpStakeAmount": "new minDlpStakeAmount"
        }
      },
      "updateNumberOfTopDlps(uint256)": {
        "params": {
          "newNumberOfTopDlps": "new maximum number of dlps"
        }
      },
      "updatePerformancePercentages(uint256,uint256,uint256,uint256)": {
        "params": {
          "newTfcPercentage": "new tfc percentage",
          "newTtfPercentage": "new ttf percentage",
          "newUwPercentage": "new uw percentage",
          "newVduPercentage": "new vdu percentage"
        }
      },
      "upgradeToAndCall(address,bytes)": {
        "custom:oz-upgrades-unsafe-allow-reachable": "delegatecall",
        "details": "Upgrade the implementation of the proxy to `newImplementation`, and subsequently execute the function call encoded in `data`. Calls {_authorizeUpgrade}. Emits an {Upgraded} event."
      }
    },
    "version": 1
  },
  "userdoc": {
    "events": {
      "DlpDeregistered(uint256)": {
        "notice": "Triggered when a dlp has been deregistered"
      },
      "DlpRegistered(uint256,address,address)": {
        "notice": "Triggered when a dlp has registered"
      },
      "DlpStakersPercentageUpdated(uint256,uint256)": {
        "notice": "Triggered when the dlp stakers percentage has been updated"
      },
      "EpochCreated(uint256)": {
        "notice": "Triggered when a epoch has been created"
      },
      "EpochPerformancesSaved(uint256,bool)": {
        "notice": "Triggered when epoch performances have been saved"
      },
      "EpochRewardAmountUpdated(uint256)": {
        "notice": "Triggered when the epoch reward amount has been updated"
      },
      "EpochSizeUpdated(uint256)": {
        "notice": "Triggered when the epoch size has been updated"
      },
      "MaxNumberOfRegisteredDlpsUpdated(uint256)": {
        "notice": "Triggered when the max number of registered dlps has been updated"
      },
      "MinDlpStakeAmountUpdated(uint256)": {
        "notice": "Triggered when the minDlpStakeAmount has been updated"
      },
      "NumberOfTopDlpsUpdated(uint256)": {
        "notice": "Triggered when the max number of top dlps has been updated"
      },
      "PerformancePercentagesUpdated(uint256,uint256,uint256,uint256)": {
        "notice": "Triggered when the performance percentages has been updated"
      },
      "Staked(address,uint256,uint256)": {
        "notice": "Triggered when user has stake some DAT for a DLP"
      },
      "StakerDlpEpochRewardClaimed(address,uint256,uint256,uint256)": {
        "notice": "Triggered when a staker has claimed a reward for a dlp in an epoch"
      },
      "Unstaked(address,uint256,uint256)": {
        "notice": "Triggered when user has unstake some DAT from a DLP"
      }
    },
    "kind": "user",
    "methods": {
      "addRewardForDlps()": {
        "notice": "Adds rewards for dlps"
      },
      "claimReward(uint256)": {
        "notice": "Claims reward for a dlp until the current epoch"
      },
      "claimRewardUntilEpoch(uint256,uint256)": {
        "notice": "Claims reward for a dlp until a specific epoch"
      },
      "claimableAmount(address,uint256)": {
        "notice": "Gets the claimable amount for a staker for a dlp"
      },
      "createEpochs()": {
        "notice": "Creates epochs until current block number"
      },
      "createEpochsUntilBlockNumber(uint256)": {
        "notice": "Creates epochs until a specific block number"
      },
      "deregisterDlp(uint256)": {
        "notice": "Deregisters dlp"
      },
      "distributeStakeAfterDeregistration(uint256,uint256)": {
        "notice": "Distributes stake after deregistration of a granted DLP"
      },
      "dlpEpochs(uint256,uint256)": {
        "notice": "Gets epoch dlp information"
      },
      "dlps(uint256)": {
        "notice": "Gets the dlp information"
      },
      "dlpsByAddress(address)": {
        "notice": "Gets the dlp information"
      },
      "epochs(uint256)": {
        "notice": "Gets epoch information"
      },
      "estimatedDlpReward(uint256)": {
        "notice": "Gets the estimated rewards for dlp's stakesThis contract returns a percentages, scaled by 1e18"
      },
      "initialize((address,uint256,uint256,uint256,uint256,uint256,uint256,uint256,uint256,uint256,uint256))": {
        "notice": "Initialize the contract"
      },
      "registerDlp(address,address,uint256)": {
        "notice": "Registers a dlp"
      },
      "registerDlpWithGrant(address,address,uint256)": {
        "notice": "Registers a dlp with grant"
      },
      "registeredDlps()": {
        "notice": "Gets registered dlps list"
      },
      "saveEpochPerformances(uint256,(uint256,uint256,uint256,uint256,uint256)[],bool)": {
        "notice": "Saves the performances of top DLPs for a specific epoch and calculates the rewards for the DLPs"
      },
      "stake(uint256)": {
        "notice": "Stakes Vana tokens for a DLP"
      },
      "stakerDlpEpochs(address,uint256,uint256)": {
        "notice": "Gets information about the staker for a dlp in an epoch"
      },
      "stakerDlps(address,uint256)": {
        "notice": "Gets the information about the dlp for a staker"
      },
      "stakerDlpsList(address)": {
        "notice": "Gets the information about the dlps for which the staker has staked"
      },
      "stakerDlpsListCount(address)": {
        "notice": "Gets the number of dlps for which the staker has staked"
      },
      "topDlpIds(uint256)": {
        "notice": "Gets the top dlps ids"
      },
      "unstake(uint256,uint256)": {
        "notice": "Unstakes Vana tokens from a DLP"
      },
      "unstakebleAmount(address,uint256)": {
        "notice": "Gets the unstakeble amount for a staker for a dlp"
      },
      "updateDlpStakersPercentage(uint256,uint256)": {
        "notice": "Updates the stakers percentage for a dlp"
      },
      "updateEpochRewardAmount(uint256)": {
        "notice": "Updates the epochRewardAmount"
      },
      "updateEpochSize(uint256)": {
        "notice": "Updates the epoch size"
      },
      "updateMaxNumberOfRegisteredDlps(uint256)": {
        "notice": "Updates the maximum number of registered dlps"
      },
      "updateMinDlpStakeAmount(uint256)": {
        "notice": "Updates the minDlpStakeAmount"
      },
      "updateNumberOfTopDlps(uint256)": {
        "notice": "Updates the maximum number of top dlps"
      },
      "updatePerformancePercentages(uint256,uint256,uint256,uint256)": {
        "notice": "Updates the performance percentages"
      },
      "version()": {
        "notice": "returns the version of the contract"
      }
    },
    "version": 1
  },
  "storageLayout": {
    "storage": [
      {
        "astId": 10305,
        "contract": "contracts/root/DataLiquidityPoolsRootImplementation.sol:DataLiquidityPoolsRootImplementation",
        "label": "maxNumberOfRegisteredDlps",
        "offset": 0,
        "slot": "0",
        "type": "t_uint256"
      },
      {
        "astId": 10308,
        "contract": "contracts/root/DataLiquidityPoolsRootImplementation.sol:DataLiquidityPoolsRootImplementation",
        "label": "numberOfTopDlps",
        "offset": 0,
        "slot": "1",
        "type": "t_uint256"
      },
      {
        "astId": 10311,
        "contract": "contracts/root/DataLiquidityPoolsRootImplementation.sol:DataLiquidityPoolsRootImplementation",
        "label": "minDlpStakeAmount",
        "offset": 0,
        "slot": "2",
        "type": "t_uint256"
      },
      {
        "astId": 10314,
        "contract": "contracts/root/DataLiquidityPoolsRootImplementation.sol:DataLiquidityPoolsRootImplementation",
        "label": "totalDlpsRewardAmount",
        "offset": 0,
        "slot": "3",
        "type": "t_uint256"
      },
      {
        "astId": 10317,
        "contract": "contracts/root/DataLiquidityPoolsRootImplementation.sol:DataLiquidityPoolsRootImplementation",
        "label": "epochRewardAmount",
        "offset": 0,
        "slot": "4",
        "type": "t_uint256"
      },
      {
        "astId": 10320,
        "contract": "contracts/root/DataLiquidityPoolsRootImplementation.sol:DataLiquidityPoolsRootImplementation",
        "label": "epochSize",
        "offset": 0,
        "slot": "5",
        "type": "t_uint256"
      },
      {
        "astId": 10323,
        "contract": "contracts/root/DataLiquidityPoolsRootImplementation.sol:DataLiquidityPoolsRootImplementation",
        "label": "ttfPercentage",
        "offset": 0,
        "slot": "6",
        "type": "t_uint256"
      },
      {
        "astId": 10326,
        "contract": "contracts/root/DataLiquidityPoolsRootImplementation.sol:DataLiquidityPoolsRootImplementation",
        "label": "tfcPercentage",
        "offset": 0,
        "slot": "7",
        "type": "t_uint256"
      },
      {
        "astId": 10329,
        "contract": "contracts/root/DataLiquidityPoolsRootImplementation.sol:DataLiquidityPoolsRootImplementation",
        "label": "vduPercentage",
        "offset": 0,
        "slot": "8",
        "type": "t_uint256"
      },
      {
        "astId": 10332,
        "contract": "contracts/root/DataLiquidityPoolsRootImplementation.sol:DataLiquidityPoolsRootImplementation",
        "label": "uwPercentage",
        "offset": 0,
        "slot": "9",
        "type": "t_uint256"
      },
      {
        "astId": 10335,
        "contract": "contracts/root/DataLiquidityPoolsRootImplementation.sol:DataLiquidityPoolsRootImplementation",
        "label": "dlpsCount",
        "offset": 0,
        "slot": "10",
        "type": "t_uint256"
      },
      {
        "astId": 10340,
        "contract": "contracts/root/DataLiquidityPoolsRootImplementation.sol:DataLiquidityPoolsRootImplementation",
        "label": "_dlps",
        "offset": 0,
        "slot": "11",
        "type": "t_mapping(t_uint256,t_struct(Dlp)10442_storage)"
      },
      {
        "astId": 10345,
        "contract": "contracts/root/DataLiquidityPoolsRootImplementation.sol:DataLiquidityPoolsRootImplementation",
        "label": "dlpIds",
        "offset": 0,
        "slot": "12",
        "type": "t_mapping(t_address,t_uint256)"
      },
      {
        "astId": 10348,
        "contract": "contracts/root/DataLiquidityPoolsRootImplementation.sol:DataLiquidityPoolsRootImplementation",
        "label": "_registeredDlps",
        "offset": 0,
        "slot": "13",
        "type": "t_struct(UintSet)7072_storage"
      },
      {
        "astId": 10351,
        "contract": "contracts/root/DataLiquidityPoolsRootImplementation.sol:DataLiquidityPoolsRootImplementation",
        "label": "epochsCount",
        "offset": 0,
        "slot": "15",
        "type": "t_uint256"
      },
      {
        "astId": 10356,
        "contract": "contracts/root/DataLiquidityPoolsRootImplementation.sol:DataLiquidityPoolsRootImplementation",
        "label": "_epochs",
        "offset": 0,
        "slot": "16",
        "type": "t_mapping(t_uint256,t_struct(Epoch)10402_storage)"
      },
      {
        "astId": 10361,
        "contract": "contracts/root/DataLiquidityPoolsRootImplementation.sol:DataLiquidityPoolsRootImplementation",
        "label": "_stakers",
        "offset": 0,
        "slot": "17",
        "type": "t_mapping(t_address,t_struct(Staker)10446_storage)"
      }
    ],
    "types": {
      "t_address": {
        "encoding": "inplace",
        "label": "address",
        "numberOfBytes": "20"
      },
      "t_address_payable": {
        "encoding": "inplace",
        "label": "address payable",
        "numberOfBytes": "20"
      },
      "t_array(t_bytes32)dyn_storage": {
        "base": "t_bytes32",
        "encoding": "dynamic_array",
        "label": "bytes32[]",
        "numberOfBytes": "32"
      },
      "t_array(t_struct(Checkpoint208)5556_storage)dyn_storage": {
        "base": "t_struct(Checkpoint208)5556_storage",
        "encoding": "dynamic_array",
        "label": "struct Checkpoints.Checkpoint208[]",
        "numberOfBytes": "32"
      },
      "t_bool": {
        "encoding": "inplace",
        "label": "bool",
        "numberOfBytes": "1"
      },
      "t_bytes32": {
        "encoding": "inplace",
        "label": "bytes32",
        "numberOfBytes": "32"
      },
      "t_enum(DlpStatus)10370": {
        "encoding": "inplace",
        "label": "enum IDataLiquidityPoolsRoot.DlpStatus",
        "numberOfBytes": "1"
      },
      "t_mapping(t_address,t_struct(DlpStaker)10415_storage)": {
        "encoding": "mapping",
        "key": "t_address",
        "label": "mapping(address => struct IDataLiquidityPoolsRoot.DlpStaker)",
        "numberOfBytes": "32",
        "value": "t_struct(DlpStaker)10415_storage"
      },
      "t_mapping(t_address,t_struct(Staker)10446_storage)": {
        "encoding": "mapping",
        "key": "t_address",
        "label": "mapping(address => struct IDataLiquidityPoolsRoot.Staker)",
        "numberOfBytes": "32",
        "value": "t_struct(Staker)10446_storage"
      },
      "t_mapping(t_address,t_uint256)": {
        "encoding": "mapping",
        "key": "t_address",
        "label": "mapping(address => uint256)",
        "numberOfBytes": "32",
        "value": "t_uint256"
      },
      "t_mapping(t_bytes32,t_uint256)": {
        "encoding": "mapping",
        "key": "t_bytes32",
        "label": "mapping(bytes32 => uint256)",
        "numberOfBytes": "32",
        "value": "t_uint256"
      },
      "t_mapping(t_uint256,t_struct(Dlp)10442_storage)": {
        "encoding": "mapping",
        "key": "t_uint256",
        "label": "mapping(uint256 => struct IDataLiquidityPoolsRoot.Dlp)",
        "numberOfBytes": "32",
        "value": "t_struct(Dlp)10442_storage"
      },
      "t_mapping(t_uint256,t_struct(Epoch)10402_storage)": {
        "encoding": "mapping",
        "key": "t_uint256",
        "label": "mapping(uint256 => struct IDataLiquidityPoolsRoot.Epoch)",
        "numberOfBytes": "32",
        "value": "t_struct(Epoch)10402_storage"
      },
      "t_mapping(t_uint256,t_struct(EpochDlp)10385_storage)": {
        "encoding": "mapping",
        "key": "t_uint256",
        "label": "mapping(uint256 => struct IDataLiquidityPoolsRoot.EpochDlp)",
        "numberOfBytes": "32",
        "value": "t_struct(EpochDlp)10385_storage"
      },
      "t_mapping(t_uint256,t_uint256)": {
        "encoding": "mapping",
        "key": "t_uint256",
        "label": "mapping(uint256 => uint256)",
        "numberOfBytes": "32",
        "value": "t_uint256"
      },
      "t_struct(Checkpoint208)5556_storage": {
        "encoding": "inplace",
        "label": "struct Checkpoints.Checkpoint208",
        "members": [
          {
            "astId": 5553,
            "contract": "contracts/root/DataLiquidityPoolsRootImplementation.sol:DataLiquidityPoolsRootImplementation",
            "label": "_key",
            "offset": 0,
            "slot": "0",
            "type": "t_uint48"
          },
          {
            "astId": 5555,
            "contract": "contracts/root/DataLiquidityPoolsRootImplementation.sol:DataLiquidityPoolsRootImplementation",
            "label": "_value",
            "offset": 6,
            "slot": "0",
            "type": "t_uint208"
          }
        ],
        "numberOfBytes": "32"
      },
      "t_struct(Dlp)10442_storage": {
        "encoding": "inplace",
        "label": "struct IDataLiquidityPoolsRoot.Dlp",
        "members": [
          {
            "astId": 10417,
            "contract": "contracts/root/DataLiquidityPoolsRootImplementation.sol:DataLiquidityPoolsRootImplementation",
            "label": "id",
            "offset": 0,
            "slot": "0",
            "type": "t_uint256"
          },
          {
            "astId": 10419,
            "contract": "contracts/root/DataLiquidityPoolsRootImplementation.sol:DataLiquidityPoolsRootImplementation",
            "label": "dlpAddress",
            "offset": 0,
            "slot": "1",
            "type": "t_address"
          },
          {
            "astId": 10421,
            "contract": "contracts/root/DataLiquidityPoolsRootImplementation.sol:DataLiquidityPoolsRootImplementation",
            "label": "ownerAddress",
            "offset": 0,
            "slot": "2",
            "type": "t_address_payable"
          },
          {
            "astId": 10424,
            "contract": "contracts/root/DataLiquidityPoolsRootImplementation.sol:DataLiquidityPoolsRootImplementation",
            "label": "status",
            "offset": 20,
            "slot": "2",
            "type": "t_enum(DlpStatus)10370"
          },
          {
            "astId": 10426,
            "contract": "contracts/root/DataLiquidityPoolsRootImplementation.sol:DataLiquidityPoolsRootImplementation",
            "label": "registrationBlockNumber",
            "offset": 0,
            "slot": "3",
            "type": "t_uint256"
          },
          {
            "astId": 10428,
            "contract": "contracts/root/DataLiquidityPoolsRootImplementation.sol:DataLiquidityPoolsRootImplementation",
            "label": "stakersPercentage",
            "offset": 0,
            "slot": "4",
            "type": "t_uint256"
          },
          {
            "astId": 10430,
            "contract": "contracts/root/DataLiquidityPoolsRootImplementation.sol:DataLiquidityPoolsRootImplementation",
            "label": "grantedAmount",
            "offset": 0,
            "slot": "5",
            "type": "t_uint256"
          },
          {
            "astId": 10433,
            "contract": "contracts/root/DataLiquidityPoolsRootImplementation.sol:DataLiquidityPoolsRootImplementation",
            "label": "stakeAmountCheckpoints",
            "offset": 0,
            "slot": "6",
            "type": "t_struct(Trace208)5551_storage"
          },
          {
            "astId": 10438,
            "contract": "contracts/root/DataLiquidityPoolsRootImplementation.sol:DataLiquidityPoolsRootImplementation",
            "label": "stakers",
            "offset": 0,
            "slot": "7",
            "type": "t_mapping(t_address,t_struct(DlpStaker)10415_storage)"
          },
          {
            "astId": 10441,
            "contract": "contracts/root/DataLiquidityPoolsRootImplementation.sol:DataLiquidityPoolsRootImplementation",
            "label": "unstakeAmountCheckpoints",
            "offset": 0,
            "slot": "8",
            "type": "t_struct(Trace208)5551_storage"
          }
        ],
        "numberOfBytes": "288"
      },
      "t_struct(DlpStaker)10415_storage": {
        "encoding": "inplace",
        "label": "struct IDataLiquidityPoolsRoot.DlpStaker",
        "members": [
          {
            "astId": 10404,
            "contract": "contracts/root/DataLiquidityPoolsRootImplementation.sol:DataLiquidityPoolsRootImplementation",
            "label": "lastClaimedEpochId",
            "offset": 0,
            "slot": "0",
            "type": "t_uint256"
          },
          {
            "astId": 10407,
            "contract": "contracts/root/DataLiquidityPoolsRootImplementation.sol:DataLiquidityPoolsRootImplementation",
            "label": "stakeAmountCheckpoints",
            "offset": 0,
            "slot": "1",
            "type": "t_struct(Trace208)5551_storage"
          },
          {
            "astId": 10411,
            "contract": "contracts/root/DataLiquidityPoolsRootImplementation.sol:DataLiquidityPoolsRootImplementation",
            "label": "claimAmounts",
            "offset": 0,
            "slot": "2",
            "type": "t_mapping(t_uint256,t_uint256)"
          },
          {
            "astId": 10414,
            "contract": "contracts/root/DataLiquidityPoolsRootImplementation.sol:DataLiquidityPoolsRootImplementation",
            "label": "unstakeAmountCheckpoints",
            "offset": 0,
            "slot": "3",
            "type": "t_struct(Trace208)5551_storage"
          }
        ],
        "numberOfBytes": "128"
      },
      "t_struct(Epoch)10402_storage": {
        "encoding": "inplace",
        "label": "struct IDataLiquidityPoolsRoot.Epoch",
        "members": [
          {
            "astId": 10387,
            "contract": "contracts/root/DataLiquidityPoolsRootImplementation.sol:DataLiquidityPoolsRootImplementation",
            "label": "startBlock",
            "offset": 0,
            "slot": "0",
            "type": "t_uint256"
          },
          {
            "astId": 10389,
            "contract": "contracts/root/DataLiquidityPoolsRootImplementation.sol:DataLiquidityPoolsRootImplementation",
            "label": "endBlock",
            "offset": 0,
            "slot": "1",
            "type": "t_uint256"
          },
          {
            "astId": 10391,
            "contract": "contracts/root/DataLiquidityPoolsRootImplementation.sol:DataLiquidityPoolsRootImplementation",
            "label": "rewardAmount",
            "offset": 0,
            "slot": "2",
            "type": "t_uint256"
          },
          {
            "astId": 10394,
            "contract": "contracts/root/DataLiquidityPoolsRootImplementation.sol:DataLiquidityPoolsRootImplementation",
            "label": "dlpIds",
            "offset": 0,
            "slot": "3",
            "type": "t_struct(UintSet)7072_storage"
          },
          {
            "astId": 10396,
            "contract": "contracts/root/DataLiquidityPoolsRootImplementation.sol:DataLiquidityPoolsRootImplementation",
            "label": "isFinalised",
            "offset": 0,
            "slot": "5",
            "type": "t_bool"
          },
          {
            "astId": 10401,
            "contract": "contracts/root/DataLiquidityPoolsRootImplementation.sol:DataLiquidityPoolsRootImplementation",
            "label": "dlps",
            "offset": 0,
            "slot": "6",
            "type": "t_mapping(t_uint256,t_struct(EpochDlp)10385_storage)"
          }
        ],
        "numberOfBytes": "224"
      },
      "t_struct(EpochDlp)10385_storage": {
        "encoding": "inplace",
        "label": "struct IDataLiquidityPoolsRoot.EpochDlp",
        "members": [
          {
            "astId": 10372,
            "contract": "contracts/root/DataLiquidityPoolsRootImplementation.sol:DataLiquidityPoolsRootImplementation",
            "label": "ttf",
            "offset": 0,
            "slot": "0",
            "type": "t_uint256"
          },
          {
            "astId": 10374,
            "contract": "contracts/root/DataLiquidityPoolsRootImplementation.sol:DataLiquidityPoolsRootImplementation",
            "label": "tfc",
            "offset": 0,
            "slot": "1",
            "type": "t_uint256"
          },
          {
            "astId": 10376,
            "contract": "contracts/root/DataLiquidityPoolsRootImplementation.sol:DataLiquidityPoolsRootImplementation",
            "label": "vdu",
            "offset": 0,
            "slot": "2",
            "type": "t_uint256"
          },
          {
            "astId": 10378,
            "contract": "contracts/root/DataLiquidityPoolsRootImplementation.sol:DataLiquidityPoolsRootImplementation",
            "label": "uw",
            "offset": 0,
            "slot": "3",
            "type": "t_uint256"
          },
          {
            "astId": 10380,
            "contract": "contracts/root/DataLiquidityPoolsRootImplementation.sol:DataLiquidityPoolsRootImplementation",
            "label": "stakeAmount",
            "offset": 0,
            "slot": "4",
            "type": "t_uint256"
          },
          {
            "astId": 10382,
            "contract": "contracts/root/DataLiquidityPoolsRootImplementation.sol:DataLiquidityPoolsRootImplementation",
            "label": "rewardAmount",
            "offset": 0,
            "slot": "5",
            "type": "t_uint256"
          },
          {
            "astId": 10384,
            "contract": "contracts/root/DataLiquidityPoolsRootImplementation.sol:DataLiquidityPoolsRootImplementation",
            "label": "stakersPercentage",
            "offset": 0,
            "slot": "6",
            "type": "t_uint256"
          }
        ],
        "numberOfBytes": "224"
      },
      "t_struct(Set)6600_storage": {
        "encoding": "inplace",
        "label": "struct EnumerableSet.Set",
        "members": [
          {
            "astId": 6595,
            "contract": "contracts/root/DataLiquidityPoolsRootImplementation.sol:DataLiquidityPoolsRootImplementation",
            "label": "_values",
            "offset": 0,
            "slot": "0",
            "type": "t_array(t_bytes32)dyn_storage"
          },
          {
            "astId": 6599,
            "contract": "contracts/root/DataLiquidityPoolsRootImplementation.sol:DataLiquidityPoolsRootImplementation",
            "label": "_positions",
            "offset": 0,
            "slot": "1",
            "type": "t_mapping(t_bytes32,t_uint256)"
          }
        ],
        "numberOfBytes": "64"
      },
      "t_struct(Staker)10446_storage": {
        "encoding": "inplace",
        "label": "struct IDataLiquidityPoolsRoot.Staker",
        "members": [
          {
            "astId": 10445,
            "contract": "contracts/root/DataLiquidityPoolsRootImplementation.sol:DataLiquidityPoolsRootImplementation",
            "label": "dlpIds",
            "offset": 0,
            "slot": "0",
            "type": "t_struct(UintSet)7072_storage"
          }
        ],
        "numberOfBytes": "64"
      },
      "t_struct(Trace208)5551_storage": {
        "encoding": "inplace",
        "label": "struct Checkpoints.Trace208",
        "members": [
          {
            "astId": 5550,
            "contract": "contracts/root/DataLiquidityPoolsRootImplementation.sol:DataLiquidityPoolsRootImplementation",
            "label": "_checkpoints",
            "offset": 0,
            "slot": "0",
            "type": "t_array(t_struct(Checkpoint208)5556_storage)dyn_storage"
          }
        ],
        "numberOfBytes": "32"
      },
      "t_struct(UintSet)7072_storage": {
        "encoding": "inplace",
        "label": "struct EnumerableSet.UintSet",
        "members": [
          {
            "astId": 7071,
            "contract": "contracts/root/DataLiquidityPoolsRootImplementation.sol:DataLiquidityPoolsRootImplementation",
            "label": "_inner",
            "offset": 0,
            "slot": "0",
            "type": "t_struct(Set)6600_storage"
          }
        ],
        "numberOfBytes": "64"
      },
      "t_uint208": {
        "encoding": "inplace",
        "label": "uint208",
        "numberOfBytes": "26"
      },
      "t_uint256": {
        "encoding": "inplace",
        "label": "uint256",
        "numberOfBytes": "32"
      },
      "t_uint48": {
        "encoding": "inplace",
        "label": "uint48",
        "numberOfBytes": "6"
      }
    }
  }
}