{
  "address": "0x1291a1b0d137da1fc1C45B0fdea23B2f59751287",
  "abi": [
    {
      "inputs": [],
      "stateMutability": "nonpayable",
      "type": "constructor"
    },
    {
      "inputs": [
        {
          "internalType": "address",
          "name": "target",
          "type": "address"
        }
      ],
      "name": "AddressEmptyCode",
      "type": "error"
    },
    {
      "inputs": [
        {
          "internalType": "address",
          "name": "account",
          "type": "address"
        }
      ],
      "name": "AddressInsufficientBalance",
      "type": "error"
    },
    {
      "inputs": [],
      "name": "ECDSAInvalidSignature",
      "type": "error"
    },
    {
      "inputs": [
        {
          "internalType": "uint256",
          "name": "length",
          "type": "uint256"
        }
      ],
      "name": "ECDSAInvalidSignatureLength",
      "type": "error"
    },
    {
      "inputs": [
        {
          "internalType": "bytes32",
          "name": "s",
          "type": "bytes32"
        }
      ],
      "name": "ECDSAInvalidSignatureS",
      "type": "error"
    },
    {
      "inputs": [
        {
          "internalType": "address",
          "name": "implementation",
          "type": "address"
        }
      ],
      "name": "ERC1967InvalidImplementation",
      "type": "error"
    },
    {
      "inputs": [],
      "name": "ERC1967NonPayable",
      "type": "error"
    },
    {
      "inputs": [],
      "name": "EnforcedPause",
      "type": "error"
    },
    {
      "inputs": [],
      "name": "ExpectedPause",
      "type": "error"
    },
    {
      "inputs": [],
      "name": "FailedInnerCall",
      "type": "error"
    },
    {
      "inputs": [],
      "name": "FileAlreadyAdded",
      "type": "error"
    },
    {
      "inputs": [],
      "name": "InvalidAttestator",
      "type": "error"
    },
    {
      "inputs": [],
      "name": "InvalidInitialization",
      "type": "error"
    },
    {
      "inputs": [],
      "name": "InvalidProof",
      "type": "error"
    },
    {
      "inputs": [],
      "name": "NotInitializing",
      "type": "error"
    },
    {
      "inputs": [
        {
          "internalType": "address",
          "name": "owner",
          "type": "address"
        }
      ],
      "name": "OwnableInvalidOwner",
      "type": "error"
    },
    {
      "inputs": [
        {
          "internalType": "address",
          "name": "account",
          "type": "address"
        }
      ],
      "name": "OwnableUnauthorizedAccount",
      "type": "error"
    },
    {
      "inputs": [],
      "name": "ReentrancyGuardReentrantCall",
      "type": "error"
    },
    {
      "inputs": [
        {
          "internalType": "address",
          "name": "token",
          "type": "address"
        }
      ],
      "name": "SafeERC20FailedOperation",
      "type": "error"
    },
    {
      "inputs": [],
      "name": "UUPSUnauthorizedCallContext",
      "type": "error"
    },
    {
      "inputs": [
        {
          "internalType": "bytes32",
          "name": "slot",
          "type": "bytes32"
        }
      ],
      "name": "UUPSUnsupportedProxiableUUID",
      "type": "error"
    },
    {
      "anonymous": false,
      "inputs": [
        {
          "indexed": true,
          "internalType": "uint256",
          "name": "fileId",
          "type": "uint256"
        }
      ],
      "name": "FileInvalidated",
      "type": "event"
    },
    {
      "anonymous": false,
      "inputs": [
        {
          "indexed": false,
          "internalType": "uint256",
          "name": "newFileRewardFactor",
          "type": "uint256"
        }
      ],
      "name": "FileRewardFactorUpdated",
      "type": "event"
    },
    {
      "anonymous": false,
      "inputs": [
        {
          "indexed": true,
          "internalType": "uint256",
          "name": "fileId",
          "type": "uint256"
        }
      ],
      "name": "FileValidated",
      "type": "event"
    },
    {
      "anonymous": false,
      "inputs": [
        {
          "indexed": false,
          "internalType": "uint64",
          "name": "version",
          "type": "uint64"
        }
      ],
      "name": "Initialized",
      "type": "event"
    },
    {
      "anonymous": false,
      "inputs": [
        {
          "indexed": false,
          "internalType": "string",
          "name": "newMasterKey",
          "type": "string"
        }
      ],
      "name": "MasterKeyUpdated",
      "type": "event"
    },
    {
      "anonymous": false,
      "inputs": [
        {
          "indexed": true,
          "internalType": "address",
          "name": "previousOwner",
          "type": "address"
        },
        {
          "indexed": true,
          "internalType": "address",
          "name": "newOwner",
          "type": "address"
        }
      ],
      "name": "OwnershipTransferStarted",
      "type": "event"
    },
    {
      "anonymous": false,
      "inputs": [
        {
          "indexed": true,
          "internalType": "address",
          "name": "previousOwner",
          "type": "address"
        },
        {
          "indexed": true,
          "internalType": "address",
          "name": "newOwner",
          "type": "address"
        }
      ],
      "name": "OwnershipTransferred",
      "type": "event"
    },
    {
      "anonymous": false,
      "inputs": [
        {
          "indexed": false,
          "internalType": "address",
          "name": "account",
          "type": "address"
        }
      ],
      "name": "Paused",
      "type": "event"
    },
    {
      "anonymous": false,
      "inputs": [
        {
          "indexed": false,
          "internalType": "string",
          "name": "newProofInstruction",
          "type": "string"
        }
      ],
      "name": "ProofInstructionUpdated",
      "type": "event"
    },
    {
      "anonymous": false,
      "inputs": [
        {
          "indexed": true,
          "internalType": "address",
          "name": "contributorAddress",
          "type": "address"
        },
        {
          "indexed": true,
          "internalType": "uint256",
          "name": "fileId",
          "type": "uint256"
        },
        {
          "indexed": true,
          "internalType": "uint256",
          "name": "proofIndex",
          "type": "uint256"
        },
        {
          "indexed": false,
          "internalType": "uint256",
          "name": "rewardAmount",
          "type": "uint256"
        }
      ],
      "name": "RewardRequested",
      "type": "event"
    },
    {
      "anonymous": false,
      "inputs": [
        {
          "indexed": false,
          "internalType": "address",
          "name": "account",
          "type": "address"
        }
      ],
      "name": "Unpaused",
      "type": "event"
    },
    {
      "anonymous": false,
      "inputs": [
        {
          "indexed": true,
          "internalType": "address",
          "name": "implementation",
          "type": "address"
        }
      ],
      "name": "Upgraded",
      "type": "event"
    },
    {
      "inputs": [],
      "name": "UPGRADE_INTERFACE_VERSION",
      "outputs": [
        {
          "internalType": "string",
          "name": "",
          "type": "string"
        }
      ],
      "stateMutability": "view",
      "type": "function"
    },
    {
      "inputs": [],
      "name": "acceptOwnership",
      "outputs": [],
      "stateMutability": "nonpayable",
      "type": "function"
    },
    {
      "inputs": [
        {
          "internalType": "uint256",
          "name": "contributorsRewardAmount",
          "type": "uint256"
        }
      ],
      "name": "addRewardsForContributors",
      "outputs": [],
      "stateMutability": "nonpayable",
      "type": "function"
    },
    {
      "inputs": [
        {
          "internalType": "address",
          "name": "contributorAddress",
          "type": "address"
        },
        {
          "internalType": "uint256",
          "name": "index",
          "type": "uint256"
        }
      ],
      "name": "contributorFiles",
      "outputs": [
        {
          "components": [
            {
              "internalType": "uint256",
              "name": "fileId",
              "type": "uint256"
            },
            {
              "internalType": "uint256",
              "name": "timestamp",
              "type": "uint256"
            },
            {
              "internalType": "uint256",
              "name": "proofIndex",
              "type": "uint256"
            },
            {
              "internalType": "uint256",
              "name": "rewardAmount",
              "type": "uint256"
            }
          ],
          "internalType": "struct IDataLiquidityPool.FileResponse",
          "name": "",
          "type": "tuple"
        }
      ],
      "stateMutability": "view",
      "type": "function"
    },
    {
      "inputs": [
        {
          "internalType": "address",
          "name": "contributorAddress",
          "type": "address"
        }
      ],
      "name": "contributorInfo",
      "outputs": [
        {
          "components": [
            {
              "internalType": "address",
              "name": "contributorAddress",
              "type": "address"
            },
            {
              "internalType": "uint256",
              "name": "filesListCount",
              "type": "uint256"
            }
          ],
          "internalType": "struct IDataLiquidityPool.ContributorInfoResponse",
          "name": "",
          "type": "tuple"
        }
      ],
      "stateMutability": "view",
      "type": "function"
    },
    {
      "inputs": [
        {
          "internalType": "uint256",
          "name": "index",
          "type": "uint256"
        }
      ],
      "name": "contributors",
      "outputs": [
        {
          "components": [
            {
              "internalType": "address",
              "name": "contributorAddress",
              "type": "address"
            },
            {
              "internalType": "uint256",
              "name": "filesListCount",
              "type": "uint256"
            }
          ],
          "internalType": "struct IDataLiquidityPool.ContributorInfoResponse",
          "name": "",
          "type": "tuple"
        }
      ],
      "stateMutability": "view",
      "type": "function"
    },
    {
      "inputs": [],
      "name": "contributorsCount",
      "outputs": [
        {
          "internalType": "uint256",
          "name": "",
          "type": "uint256"
        }
      ],
      "stateMutability": "view",
      "type": "function"
    },
    {
      "inputs": [],
      "name": "dataRegistry",
      "outputs": [
        {
          "internalType": "contract IDataRegistry",
          "name": "",
          "type": "address"
        }
      ],
      "stateMutability": "view",
      "type": "function"
    },
    {
      "inputs": [],
      "name": "fileRewardFactor",
      "outputs": [
        {
          "internalType": "uint256",
          "name": "",
          "type": "uint256"
        }
      ],
      "stateMutability": "view",
      "type": "function"
    },
    {
      "inputs": [
        {
          "internalType": "uint256",
          "name": "fileId",
          "type": "uint256"
        }
      ],
      "name": "files",
      "outputs": [
        {
          "components": [
            {
              "internalType": "uint256",
              "name": "fileId",
              "type": "uint256"
            },
            {
              "internalType": "uint256",
              "name": "timestamp",
              "type": "uint256"
            },
            {
              "internalType": "uint256",
              "name": "proofIndex",
              "type": "uint256"
            },
            {
              "internalType": "uint256",
              "name": "rewardAmount",
              "type": "uint256"
            }
          ],
          "internalType": "struct IDataLiquidityPool.FileResponse",
          "name": "",
          "type": "tuple"
        }
      ],
      "stateMutability": "view",
      "type": "function"
    },
    {
      "inputs": [
        {
          "internalType": "uint256",
          "name": "index",
          "type": "uint256"
        }
      ],
      "name": "filesListAt",
      "outputs": [
        {
          "internalType": "uint256",
          "name": "",
          "type": "uint256"
        }
      ],
      "stateMutability": "view",
      "type": "function"
    },
    {
      "inputs": [],
      "name": "filesListCount",
      "outputs": [
        {
          "internalType": "uint256",
          "name": "",
          "type": "uint256"
        }
      ],
      "stateMutability": "view",
      "type": "function"
    },
    {
      "inputs": [
        {
          "components": [
            {
              "internalType": "address",
              "name": "ownerAddress",
              "type": "address"
            },
            {
              "internalType": "address",
              "name": "tokenAddress",
              "type": "address"
            },
            {
              "internalType": "address",
              "name": "dataRegistryAddress",
              "type": "address"
            },
            {
              "internalType": "address",
              "name": "teePoolAddress",
              "type": "address"
            },
            {
              "internalType": "string",
              "name": "name",
              "type": "string"
            },
            {
              "internalType": "string",
              "name": "masterKey",
              "type": "string"
            },
            {
              "internalType": "string",
              "name": "proofInstruction",
              "type": "string"
            },
            {
              "internalType": "uint256",
              "name": "fileRewardFactor",
              "type": "uint256"
            }
          ],
          "internalType": "struct DataLiquidityPoolImplementation.InitParams",
          "name": "params",
          "type": "tuple"
        }
      ],
      "name": "initialize",
      "outputs": [],
      "stateMutability": "nonpayable",
      "type": "function"
    },
    {
      "inputs": [],
      "name": "masterKey",
      "outputs": [
        {
          "internalType": "string",
          "name": "",
          "type": "string"
        }
      ],
      "stateMutability": "view",
      "type": "function"
    },
    {
      "inputs": [],
      "name": "name",
      "outputs": [
        {
          "internalType": "string",
          "name": "",
          "type": "string"
        }
      ],
      "stateMutability": "view",
      "type": "function"
    },
    {
      "inputs": [],
      "name": "owner",
      "outputs": [
        {
          "internalType": "address",
          "name": "",
          "type": "address"
        }
      ],
      "stateMutability": "view",
      "type": "function"
    },
    {
      "inputs": [],
      "name": "pause",
      "outputs": [],
      "stateMutability": "nonpayable",
      "type": "function"
    },
    {
      "inputs": [],
      "name": "paused",
      "outputs": [
        {
          "internalType": "bool",
          "name": "",
          "type": "bool"
        }
      ],
      "stateMutability": "view",
      "type": "function"
    },
    {
      "inputs": [],
      "name": "pendingOwner",
      "outputs": [
        {
          "internalType": "address",
          "name": "",
          "type": "address"
        }
      ],
      "stateMutability": "view",
      "type": "function"
    },
    {
      "inputs": [],
      "name": "proofInstruction",
      "outputs": [
        {
          "internalType": "string",
          "name": "",
          "type": "string"
        }
      ],
      "stateMutability": "view",
      "type": "function"
    },
    {
      "inputs": [],
      "name": "proxiableUUID",
      "outputs": [
        {
          "internalType": "bytes32",
          "name": "",
          "type": "bytes32"
        }
      ],
      "stateMutability": "view",
      "type": "function"
    },
    {
      "inputs": [],
      "name": "renounceOwnership",
      "outputs": [],
      "stateMutability": "nonpayable",
      "type": "function"
    },
    {
      "inputs": [
        {
          "internalType": "uint256",
          "name": "fileId",
          "type": "uint256"
        },
        {
          "internalType": "uint256",
          "name": "proofIndex",
          "type": "uint256"
        }
      ],
      "name": "requestReward",
      "outputs": [],
      "stateMutability": "nonpayable",
      "type": "function"
    },
    {
      "inputs": [],
      "name": "teePool",
      "outputs": [
        {
          "internalType": "contract ITeePool",
          "name": "",
          "type": "address"
        }
      ],
      "stateMutability": "view",
      "type": "function"
    },
    {
      "inputs": [],
      "name": "token",
      "outputs": [
        {
          "internalType": "contract IERC20",
          "name": "",
          "type": "address"
        }
      ],
      "stateMutability": "view",
      "type": "function"
    },
    {
      "inputs": [],
      "name": "totalContributorsRewardAmount",
      "outputs": [
        {
          "internalType": "uint256",
          "name": "",
          "type": "uint256"
        }
      ],
      "stateMutability": "view",
      "type": "function"
    },
    {
      "inputs": [
        {
          "internalType": "address",
          "name": "newOwner",
          "type": "address"
        }
      ],
      "name": "transferOwnership",
      "outputs": [],
      "stateMutability": "nonpayable",
      "type": "function"
    },
    {
      "inputs": [],
      "name": "unpause",
      "outputs": [],
      "stateMutability": "nonpayable",
      "type": "function"
    },
    {
      "inputs": [
        {
          "internalType": "uint256",
          "name": "newFileRewardFactor",
          "type": "uint256"
        }
      ],
      "name": "updateFileRewardFactor",
      "outputs": [],
      "stateMutability": "nonpayable",
      "type": "function"
    },
    {
      "inputs": [
        {
          "internalType": "string",
          "name": "newProofInstruction",
          "type": "string"
        }
      ],
      "name": "updateMasterKey",
      "outputs": [],
      "stateMutability": "nonpayable",
      "type": "function"
    },
    {
      "inputs": [
        {
          "internalType": "string",
          "name": "newProofInstruction",
          "type": "string"
        }
      ],
      "name": "updateProofInstruction",
      "outputs": [],
      "stateMutability": "nonpayable",
      "type": "function"
    },
    {
      "inputs": [
        {
          "internalType": "address",
          "name": "newTeePool",
          "type": "address"
        }
      ],
      "name": "updateTeePool",
      "outputs": [],
      "stateMutability": "nonpayable",
      "type": "function"
    },
    {
      "inputs": [
        {
          "internalType": "address",
          "name": "newImplementation",
          "type": "address"
        },
        {
          "internalType": "bytes",
          "name": "data",
          "type": "bytes"
        }
      ],
      "name": "upgradeToAndCall",
      "outputs": [],
      "stateMutability": "payable",
      "type": "function"
    },
    {
      "inputs": [],
      "name": "version",
      "outputs": [
        {
          "internalType": "uint256",
          "name": "",
          "type": "uint256"
        }
      ],
      "stateMutability": "pure",
      "type": "function"
    }
  ],
  "transactionHash": "0x8163669612cbf88176a7e87a5a34b5e51795ea4aaea40a1c8cac323b8cdbde61",
  "args": [],
  "numDeployments": 1,
  "solcInputHash": "ef574755e905aff029c16b941849e86a",
  "bytecode": "0x60a0604052306080523480156200001557600080fd5b506200002062000026565b620000da565b7ff0c57e16840df040f15088dc2f81fe391c3923bec73e23a9662efc9c229c6a00805468010000000000000000900460ff1615620000775760405163f92ee8a960e01b815260040160405180910390fd5b80546001600160401b0390811614620000d75780546001600160401b0319166001600160401b0390811782556040519081527fc7f505b2f371ae2175ee4913f4499e1f2633a7b5936321eed1cdaeb6115181d29060200160405180910390a15b50565b60805161269c62000104600039600081816112d2015281816112fb01526114d9015261269c6000f3fe6080604052600436106101f95760003560e01c80637569b3d71161010d578063ab049ffd116100a0578063d503d4e41161006f578063d503d4e4146105af578063e30c3978146105cf578063f2fde38b146105e4578063f4c714b414610604578063fc0c546a1461062457600080fd5b8063ab049ffd146104ff578063ad3cb1cc14610515578063b3aa4e7b14610546578063c41d3b631461059957600080fd5b80638456cb59116100dc5780638456cb59146104885780638afe35b91461049d5780638da5cb5b146104b2578063a39c1d6b146104df57600080fd5b80637569b3d71461042857806379ba50971461043e5780637ba24aa5146104535780637ccf35a61461047357600080fd5b80634b545f3a1161019057806352d1902d1161015f57806352d1902d1461039a57806354fd4d50146103af5780635c975abb146103c357806362baff9f146103f3578063715018a61461041357600080fd5b80634b545f3a146103275780634f1ef286146103475780634f33f79d1461035a5780635062bc5a1461037a57600080fd5b80633b3cd378116101cc5780633b3cd378146102805780633cb5d100146102ae5780633f4ba83a146102f25780633f76c7cb1461030757600080fd5b806306fdde03146101fe578063084a09da146102295780631201c5471461023e5780631a8bcb1d14610260575b600080fd5b34801561020a57600080fd5b50610213610644565b6040516102209190611bc8565b60405180910390f35b34801561023557600080fd5b506102136106d2565b34801561024a57600080fd5b5061025e610259366004611bfb565b6106df565b005b34801561026c57600080fd5b5061025e61027b366004611bfb565b61072e565b34801561028c57600080fd5b506102a061029b366004611bfb565b610772565b604051908152602001610220565b3480156102ba57600080fd5b506102ce6102c9366004611bfb565b610785565b6040805182516001600160a01b031681526020928301519281019290925201610220565b3480156102fe57600080fd5b5061025e6107ba565b34801561031357600080fd5b5061025e610322366004611d71565b6107cc565b34801561033357600080fd5b506102ce610342366004611e77565b610988565b61025e610355366004611e94565b6109d7565b34801561036657600080fd5b5061025e610375366004611e77565b6109f6565b34801561038657600080fd5b5061025e610395366004611ef7565b610a20565b3480156103a657600080fd5b506102a0610e26565b3480156103bb57600080fd5b5060016102a0565b3480156103cf57600080fd5b506000805160206126278339815191525460ff166040519015158152602001610220565b3480156103ff57600080fd5b5061025e61040e366004611f19565b610e43565b34801561041f57600080fd5b5061025e610e96565b34801561043457600080fd5b506102a0600a5481565b34801561044a57600080fd5b5061025e610ea8565b34801561045f57600080fd5b5061025e61046e366004611f19565b610ef2565b34801561047f57600080fd5b506102a0610f39565b34801561049457600080fd5b5061025e610f4a565b3480156104a957600080fd5b50610213610f5a565b3480156104be57600080fd5b506104c7610f67565b6040516001600160a01b039091168152602001610220565b3480156104eb57600080fd5b506001546104c7906001600160a01b031681565b34801561050b57600080fd5b506102a060065481565b34801561052157600080fd5b50610213604051806040016040528060058152602001640352e302e360dc1b81525081565b34801561055257600080fd5b50610566610561366004611f8a565b610f9c565b60405161022091908151815260208083015190820152604080830151908201526060918201519181019190915260800190565b3480156105a557600080fd5b506102a060055481565b3480156105bb57600080fd5b50600d546104c7906001600160a01b031681565b3480156105db57600080fd5b506104c7610ff4565b3480156105f057600080fd5b5061025e6105ff366004611e77565b61101d565b34801561061057600080fd5b5061056661061f366004611bfb565b6110a2565b34801561063057600080fd5b506002546104c7906001600160a01b031681565b6000805461065190611fb6565b80601f016020809104026020016040519081016040528092919081815260200182805461067d90611fb6565b80156106ca5780601f1061069f576101008083540402835291602001916106ca565b820191906000526020600020905b8154815290600101906020018083116106ad57829003601f168201915b505050505081565b6004805461065190611fb6565b6106e761110c565b6002546106ff906001600160a01b0316333084611144565b80600560008282546107119190612006565b909155505060016000805160206126478339815191525550565b50565b6107366111c5565b60068190556040518181527f49713882dce7cebaf1e95b21d928f97374855c5adfabf73652b8230de06e4779906020015b60405180910390a150565b600061077f6008836111f7565b92915050565b60408051808201909152600080825260208201526000828152600b602052604090205461077f906001600160a01b0316610988565b6107c26111c5565b6107ca611203565b565b7ff0c57e16840df040f15088dc2f81fe391c3923bec73e23a9662efc9c229c6a008054600160401b810460ff1615906001600160401b03166000811580156108115750825b90506000826001600160401b0316600114801561082d5750303b155b90508115801561083b575080155b156108595760405163f92ee8a960e01b815260040160405180910390fd5b845467ffffffffffffffff19166001178555831561088357845460ff60401b1916600160401b1785555b61088b61125d565b61089361125d565b61089b611265565b6108a3611275565b60808601516000906108b59082612061565b506040860151600180546001600160a01b039283166001600160a01b0319918216179091556020880151600280549184169183169190911790556060880151600d805491909316911617905560a08601516003906109139082612061565b5060c08601516004906109269082612061565b5060e0860151600655855161093a90611285565b831561098057845460ff60401b19168555604051600181527fc7f505b2f371ae2175ee4913f4499e1f2633a7b5936321eed1cdaeb6115181d29060200160405180910390a15b505050505050565b60408051808201909152600080825260208201526040805180820182526001600160a01b0384168082526000908152600c602090815292902090918201906109cf906112bd565b905292915050565b6109df6112c7565b6109e88261136c565b6109f28282611374565b5050565b6109fe6111c5565b600d80546001600160a01b0319166001600160a01b0392909216919091179055565b610a28611436565b610a3061110c565b60015460405163dbda68db60e01b815260048101849052602481018390526000916001600160a01b03169063dbda68db90604401600060405180830381865afa158015610a81573d6000803e3d6000fd5b505050506040513d6000823e601f3d908101601f19168201604052610aa99190810190612170565b90506004604051610aba919061229e565b60405180910390208160200151608001518051906020012014610af0576040516309bde33960e01b815260040160405180910390fd5b6000838152600760205260409020600281015415610b2157604051631441154d60e31b815260040160405180910390fd5b600154604051633d31c52d60e21b8152600481018690526000916001600160a01b03169063f4c714b490602401600060405180830381865afa158015610b6b573d6000803e3d6000fd5b505050506040513d6000823e601f3d908101601f19168201604052610b939190810190612314565b6040808201516020808701518051818301518286015160608401516080909401519651979850600097610bce979395929491939192016123c0565b6040516020818303038152906040528051906020012090506000610c2d8560000151610c27847f19457468657265756d205369676e6564204d6573736167653a0a3332000000006000908152601c91909152603c902090565b90611467565b600d54604051630a7016f760e41b81526001600160a01b03808416600483015292935091169063a7016f7090602401602060405180830381865afa158015610c79573d6000803e3d6000fd5b505050506040513d601f19601f82011682018060405250810190610c9d919061242f565b610cba576040516348614b9f60e11b815260040160405180910390fd5b42845560018401869055602085015151600654670de0b6b3a764000091610ce091612451565b610cea9190612468565b6002850155610cfa600888611491565b506020808401516001600160a01b03166000908152600c90915260409020610d228189611491565b5060208401516002808701549054610d45926001600160a01b039091169161149d565b846002015460056000828254610d5b919061248a565b90915550610d6a9050816112bd565b600103610dbc57600a8054906000610d818361249d565b9091555050602084810151600a546000908152600b909252604090912080546001600160a01b0319166001600160a01b039092169190911790555b868885602001516001600160a01b03167fc79b2d4186d26cf06f3e1a252e47fb477392229c39da486f16d9285961fdd9fe8860020154604051610e0191815260200190565b60405180910390a45050505050506109f2600160008051602061264783398151915255565b6000610e306114ce565b5060008051602061260783398151915290565b610e4b6111c5565b6003610e588284836124b6565b507fcf6a9cc9de7d6a2f9488bac950d70cd0eff6bd12d21289198406960d6003de218282604051610e8a929190612576565b60405180910390a15050565b610e9e6111c5565b6107ca6000611285565b3380610eb2610ff4565b6001600160a01b031614610ee95760405163118cdaa760e01b81526001600160a01b03821660048201526024015b60405180910390fd5b61072b81611285565b610efa6111c5565b6004610f078284836124b6565b507fba416802d8f8c88a69872ea24a6897e9c3b8bdf72487c62ab999954782a877318282604051610e8a929190612576565b6000610f4560086112bd565b905090565b610f526111c5565b6107ca611517565b6003805461065190611fb6565b6000807f9016d09d72d40fdae2fd8ceac6b6234c7706214fd39c1cd1e609a0528c1993005b546001600160a01b031692915050565b610fc76040518060800160405280600081526020016000815260200160008152602001600081525090565b6001600160a01b0383166000908152600c60205260409020610fed9061061f90846111f7565b9392505050565b6000807f237e158222e3e6968b72b9db0d8043aacf074ad9f650f0d1606b4d82ee432c00610f8c565b6110256111c5565b7f237e158222e3e6968b72b9db0d8043aacf074ad9f650f0d1606b4d82ee432c0080546001600160a01b0319166001600160a01b0383169081178255611069610f67565b6001600160a01b03167f38d16b8cac22d99fc7c124b9cd0de2d3fa1faef420bfe791d8c362d765e2270060405160405180910390a35050565b6110cd6040518060800160405280600081526020016000815260200160008152602001600081525090565b50600081815260076020908152604091829020825160808101845293845280549184019190915260018101549183019190915260020154606082015290565b60008051602061264783398151915280546001190161113e57604051633ee5aeb560e01b815260040160405180910390fd5b60029055565b6040516001600160a01b0384811660248301528381166044830152606482018390526111ab9186918216906323b872dd906084015b604051602081830303815290604052915060e01b6020820180516001600160e01b038381831617835250505050611560565b50505050565b600160008051602061264783398151915255565b336111ce610f67565b6001600160a01b0316146107ca5760405163118cdaa760e01b8152336004820152602401610ee0565b6000610fed83836115c3565b61120b6115ed565b600080516020612627833981519152805460ff191681557f5db9ee0a495bf2e6ff9c91a7834c1ba4fdd244a5e8aa4e537bd38aeae4b073aa335b6040516001600160a01b039091168152602001610767565b6107ca61161d565b61126d61161d565b6107ca611666565b61127d61161d565b6107ca61166e565b7f237e158222e3e6968b72b9db0d8043aacf074ad9f650f0d1606b4d82ee432c0080546001600160a01b03191681556109f28261168f565b600061077f825490565b306001600160a01b037f000000000000000000000000000000000000000000000000000000000000000016148061134e57507f00000000000000000000000000000000000000000000000000000000000000006001600160a01b0316611342600080516020612607833981519152546001600160a01b031690565b6001600160a01b031614155b156107ca5760405163703e46dd60e11b815260040160405180910390fd5b61072b6111c5565b816001600160a01b03166352d1902d6040518163ffffffff1660e01b8152600401602060405180830381865afa9250505080156113ce575060408051601f3d908101601f191682019092526113cb918101906125a5565b60015b6113f657604051634c9c8ce360e01b81526001600160a01b0383166004820152602401610ee0565b600080516020612607833981519152811461142757604051632a87526960e21b815260048101829052602401610ee0565b6114318383611700565b505050565b6000805160206126278339815191525460ff16156107ca5760405163d93c066560e01b815260040160405180910390fd5b6000806000806114778686611756565b92509250925061148782826117a3565b5090949350505050565b6000610fed838361185c565b6040516001600160a01b0383811660248301526044820183905261143191859182169063a9059cbb90606401611179565b306001600160a01b037f000000000000000000000000000000000000000000000000000000000000000016146107ca5760405163703e46dd60e11b815260040160405180910390fd5b61151f611436565b600080516020612627833981519152805460ff191660011781557f62e78cea01bee320cd4e420270b5ea74000d11b0c9f74754ebdbfc544b05a25833611245565b60006115756001600160a01b038416836118ab565b9050805160001415801561159a575080806020019051810190611598919061242f565b155b1561143157604051635274afe760e01b81526001600160a01b0384166004820152602401610ee0565b60008260000182815481106115da576115da6125be565b9060005260206000200154905092915050565b6000805160206126278339815191525460ff166107ca57604051638dfc202b60e01b815260040160405180910390fd5b7ff0c57e16840df040f15088dc2f81fe391c3923bec73e23a9662efc9c229c6a0054600160401b900460ff166107ca57604051631afcd79f60e31b815260040160405180910390fd5b6111b161161d565b61167661161d565b600080516020612627833981519152805460ff19169055565b7f9016d09d72d40fdae2fd8ceac6b6234c7706214fd39c1cd1e609a0528c19930080546001600160a01b031981166001600160a01b03848116918217845560405192169182907f8be0079c531659141344cd1fd0a4f28419497f9722a3daafe3b4186f6b6457e090600090a3505050565b611709826118b9565b6040516001600160a01b038316907fbc7cd75a20ee27fd9adebab32041f755214dbc6bffa90cc0225b39da2e5c2d3b90600090a280511561174e57611431828261191e565b6109f2611994565b600080600083516041036117905760208401516040850151606086015160001a611782888285856119b3565b95509550955050505061179c565b50508151600091506002905b9250925092565b60008260038111156117b7576117b76125d4565b036117c0575050565b60018260038111156117d4576117d46125d4565b036117f25760405163f645eedf60e01b815260040160405180910390fd5b6002826003811115611806576118066125d4565b036118275760405163fce698f760e01b815260048101829052602401610ee0565b600382600381111561183b5761183b6125d4565b036109f2576040516335e2f38360e21b815260048101829052602401610ee0565b60008181526001830160205260408120546118a35750815460018181018455600084815260208082209093018490558454848252828601909352604090209190915561077f565b50600061077f565b6060610fed83836000611a82565b806001600160a01b03163b6000036118ef57604051634c9c8ce360e01b81526001600160a01b0382166004820152602401610ee0565b60008051602061260783398151915280546001600160a01b0319166001600160a01b0392909216919091179055565b6060600080846001600160a01b03168460405161193b91906125ea565b600060405180830381855af49150503d8060008114611976576040519150601f19603f3d011682016040523d82523d6000602084013e61197b565b606091505b509150915061198b858383611b1f565b95945050505050565b34156107ca5760405163b398979f60e01b815260040160405180910390fd5b600080807f7fffffffffffffffffffffffffffffff5d576e7357a4501ddfe92f46681b20a08411156119ee5750600091506003905082611a78565b604080516000808252602082018084528a905260ff891692820192909252606081018790526080810186905260019060a0016020604051602081039080840390855afa158015611a42573d6000803e3d6000fd5b5050604051601f1901519150506001600160a01b038116611a6e57506000925060019150829050611a78565b9250600091508190505b9450945094915050565b606081471015611aa75760405163cd78605960e01b8152306004820152602401610ee0565b600080856001600160a01b03168486604051611ac391906125ea565b60006040518083038185875af1925050503d8060008114611b00576040519150601f19603f3d011682016040523d82523d6000602084013e611b05565b606091505b5091509150611b15868383611b1f565b9695505050505050565b606082611b3457611b2f82611b7b565b610fed565b8151158015611b4b57506001600160a01b0384163b155b15611b7457604051639996b31560e01b81526001600160a01b0385166004820152602401610ee0565b5080610fed565b805115611b8b5780518082602001fd5b604051630a12f52160e11b815260040160405180910390fd5b60005b83811015611bbf578181015183820152602001611ba7565b50506000910152565b6020815260008251806020840152611be7816040850160208701611ba4565b601f01601f19169190910160400192915050565b600060208284031215611c0d57600080fd5b5035919050565b634e487b7160e01b600052604160045260246000fd5b60405161010081016001600160401b0381118282101715611c4d57611c4d611c14565b60405290565b604080519081016001600160401b0381118282101715611c4d57611c4d611c14565b60405160a081016001600160401b0381118282101715611c4d57611c4d611c14565b604051601f8201601f191681016001600160401b0381118282101715611cbf57611cbf611c14565b604052919050565b6001600160a01b038116811461072b57600080fd5b8035611ce781611cc7565b919050565b60006001600160401b03821115611d0557611d05611c14565b50601f01601f191660200190565b6000611d26611d2184611cec565b611c97565b9050828152838383011115611d3a57600080fd5b828260208301376000602084830101529392505050565b600082601f830112611d6257600080fd5b610fed83833560208501611d13565b600060208284031215611d8357600080fd5b81356001600160401b0380821115611d9a57600080fd5b908301906101008286031215611daf57600080fd5b611db7611c2a565b611dc083611cdc565b8152611dce60208401611cdc565b6020820152611ddf60408401611cdc565b6040820152611df060608401611cdc565b6060820152608083013582811115611e0757600080fd5b611e1387828601611d51565b60808301525060a083013582811115611e2b57600080fd5b611e3787828601611d51565b60a08301525060c083013582811115611e4f57600080fd5b611e5b87828601611d51565b60c08301525060e083013560e082015280935050505092915050565b600060208284031215611e8957600080fd5b8135610fed81611cc7565b60008060408385031215611ea757600080fd5b8235611eb281611cc7565b915060208301356001600160401b03811115611ecd57600080fd5b8301601f81018513611ede57600080fd5b611eed85823560208401611d13565b9150509250929050565b60008060408385031215611f0a57600080fd5b50508035926020909101359150565b60008060208385031215611f2c57600080fd5b82356001600160401b0380821115611f4357600080fd5b818501915085601f830112611f5757600080fd5b813581811115611f6657600080fd5b866020828501011115611f7857600080fd5b60209290920196919550909350505050565b60008060408385031215611f9d57600080fd5b8235611fa881611cc7565b946020939093013593505050565b600181811c90821680611fca57607f821691505b602082108103611fea57634e487b7160e01b600052602260045260246000fd5b50919050565b634e487b7160e01b600052601160045260246000fd5b8082018082111561077f5761077f611ff0565b601f821115611431576000816000526020600020601f850160051c810160208610156120425750805b601f850160051c820191505b818110156109805782815560010161204e565b81516001600160401b0381111561207a5761207a611c14565b61208e816120888454611fb6565b84612019565b602080601f8311600181146120c357600084156120ab5750858301515b600019600386901b1c1916600185901b178555610980565b600085815260208120601f198616915b828110156120f2578886015182559484019460019091019084016120d3565b50858210156121105787850151600019600388901b60f8161c191681555b5050505050600190811b01905550565b600061212e611d2184611cec565b905082815283838301111561214257600080fd5b610fed836020830184611ba4565b600082601f83011261216157600080fd5b610fed83835160208501612120565b6000602080838503121561218357600080fd5b82516001600160401b038082111561219a57600080fd5b90840190604082870312156121ae57600080fd5b6121b6611c53565b8251828111156121c557600080fd5b8301601f810188136121d657600080fd5b6121e4888251878401612120565b82525083830151828111156121f857600080fd5b929092019160a0838803121561220d57600080fd5b612215611c75565b83518152848401518582015260408401518381111561223357600080fd5b61223f89828701612150565b60408301525060608401518381111561225757600080fd5b61226389828701612150565b60608301525060808401518381111561227b57600080fd5b61228789828701612150565b608083015250938101939093525090949350505050565b60008083546122ac81611fb6565b600182811680156122c457600181146122d957612308565b60ff1984168752821515830287019450612308565b8760005260208060002060005b858110156122ff5781548a8201529084019082016122e6565b50505082870194505b50929695505050505050565b60006020828403121561232657600080fd5b81516001600160401b038082111561233d57600080fd5b908301906080828603121561235157600080fd5b60405160808101818110838211171561236c5761236c611c14565b60405282518152602083015161238181611cc7565b602082015260408301518281111561239857600080fd5b6123a487828601612150565b6040830152506060830151606082015280935050505092915050565b600087516123d2818460208c01611ba4565b808301905087815286602082015285516123f3816040840160208a01611ba4565b8551910190612409816040840160208901611ba4565b845191019061241f816040840160208801611ba4565b0160400198975050505050505050565b60006020828403121561244157600080fd5b81518015158114610fed57600080fd5b808202811582820484141761077f5761077f611ff0565b60008261248557634e487b7160e01b600052601260045260246000fd5b500490565b8181038181111561077f5761077f611ff0565b6000600182016124af576124af611ff0565b5060010190565b6001600160401b038311156124cd576124cd611c14565b6124e1836124db8354611fb6565b83612019565b6000601f84116001811461251557600085156124fd5750838201355b600019600387901b1c1916600186901b17835561256f565b600083815260209020601f19861690835b828110156125465786850135825560209485019460019092019101612526565b50868210156125635760001960f88860031b161c19848701351681555b505060018560011b0183555b5050505050565b60208152816020820152818360408301376000818301604090810191909152601f909201601f19160101919050565b6000602082840312156125b757600080fd5b5051919050565b634e487b7160e01b600052603260045260246000fd5b634e487b7160e01b600052602160045260246000fd5b600082516125fc818460208701611ba4565b919091019291505056fe360894a13ba1a3210667c828492db98dca3e2076cc3735a920a3ca505d382bbccd5ed15c6e187e77e9aee88184c21f4f2182ab5827cb3b7e07fbedcd63f033009b779b17422d0df92223018b32b4d1fa46e071723d6817e2486d003becc55f00a264697066735822122069daee915c552636f3b861cb084b0626b8d710dca228e558d5e52b62123e998364736f6c63430008180033",
  "devdoc": {
    "errors": {
      "AddressEmptyCode(address)": [
        {
          "details": "There's no code at `target` (it is not a contract)."
        }
      ],
      "AddressInsufficientBalance(address)": [
        {
          "details": "The ETH balance of the account is not enough to perform the operation."
        }
      ],
      "ECDSAInvalidSignature()": [
        {
          "details": "The signature derives the `address(0)`."
        }
      ],
      "ECDSAInvalidSignatureLength(uint256)": [
        {
          "details": "The signature has an invalid length."
        }
      ],
      "ECDSAInvalidSignatureS(bytes32)": [
        {
          "details": "The signature has an S value that is in the upper half order."
        }
      ],
      "ERC1967InvalidImplementation(address)": [
        {
          "details": "The `implementation` of the proxy is invalid."
        }
      ],
      "ERC1967NonPayable()": [
        {
          "details": "An upgrade function sees `msg.value > 0` that may be lost."
        }
      ],
      "EnforcedPause()": [
        {
          "details": "The operation failed because the contract is paused."
        }
      ],
      "ExpectedPause()": [
        {
          "details": "The operation failed because the contract is not paused."
        }
      ],
      "FailedInnerCall()": [
        {
          "details": "A call to an address target failed. The target may have reverted."
        }
      ],
      "InvalidInitialization()": [
        {
          "details": "The contract is already initialized."
        }
      ],
      "NotInitializing()": [
        {
          "details": "The contract is not initializing."
        }
      ],
      "OwnableInvalidOwner(address)": [
        {
          "details": "The owner is not a valid owner account. (eg. `address(0)`)"
        }
      ],
      "OwnableUnauthorizedAccount(address)": [
        {
          "details": "The caller account is not authorized to perform an operation."
        }
      ],
      "ReentrancyGuardReentrantCall()": [
        {
          "details": "Unauthorized reentrant call."
        }
      ],
      "SafeERC20FailedOperation(address)": [
        {
          "details": "An operation with an ERC20 token failed."
        }
      ],
      "UUPSUnauthorizedCallContext()": [
        {
          "details": "The call is from an unauthorized context."
        }
      ],
      "UUPSUnsupportedProxiableUUID(bytes32)": [
        {
          "details": "The storage `slot` is unsupported as a UUID."
        }
      ]
    },
    "events": {
      "FileInvalidated(uint256)": {
        "params": {
          "fileId": "file id"
        }
      },
      "FileRewardFactorUpdated(uint256)": {
        "params": {
          "newFileRewardFactor": "new file reward factor"
        }
      },
      "FileValidated(uint256)": {
        "params": {
          "fileId": "file id"
        }
      },
      "Initialized(uint64)": {
        "details": "Triggered when the contract has been initialized or reinitialized."
      },
      "MasterKeyUpdated(string)": {
        "params": {
          "newMasterKey": "new master key"
        }
      },
      "Paused(address)": {
        "details": "Emitted when the pause is triggered by `account`."
      },
      "ProofInstructionUpdated(string)": {
        "params": {
          "newProofInstruction": "new proof instruction"
        }
      },
      "RewardRequested(address,uint256,uint256,uint256)": {
        "params": {
          "contributorAddress": "owner of the file",
          "fileId": "file id from the registryData contract",
          "proofIndex": "proof index",
          "rewardAmount": "reward amount"
        }
      },
      "Unpaused(address)": {
        "details": "Emitted when the pause is lifted by `account`."
      },
      "Upgraded(address)": {
        "details": "Emitted when the implementation is upgraded."
      }
    },
    "kind": "dev",
    "methods": {
      "acceptOwnership()": {
        "details": "The new owner accepts the ownership transfer."
      },
      "constructor": {
        "custom:oz-upgrades-unsafe-allow": "constructor"
      },
      "contributorFiles(address,uint256)": {
        "params": {
          "contributorAddress": "address of the contributor",
          "index": "index of the file"
        },
        "returns": {
          "_0": "uint256                             file id"
        }
      },
      "contributorInfo(address)": {
        "params": {
          "contributorAddress": "address of the contributor"
        },
        "returns": {
          "_0": "ContributorInfoResponse             contributor information"
        }
      },
      "contributors(uint256)": {
        "params": {
          "index": "index of the contributor"
        },
        "returns": {
          "_0": "ContributorInfoResponse             contributor information"
        }
      },
      "files(uint256)": {
        "params": {
          "fileId": "file id"
        }
      },
      "filesListAt(uint256)": {
        "params": {
          "index": "index of the file"
        }
      },
      "initialize((address,address,address,address,string,string,string,uint256))": {
        "params": {
          "params": "initialization parameters"
        }
      },
      "owner()": {
        "details": "Returns the address of the current owner."
      },
      "pause()": {
        "details": "Pauses the contract"
      },
      "paused()": {
        "details": "Returns true if the contract is paused, and false otherwise."
      },
      "pendingOwner()": {
        "details": "Returns the address of the pending owner."
      },
      "proxiableUUID()": {
        "details": "Implementation of the ERC1822 {proxiableUUID} function. This returns the storage slot used by the implementation. It is used to validate the implementation's compatibility when performing an upgrade. IMPORTANT: A proxy pointing at a proxiable contract should not be considered proxiable itself, because this risks bricking a proxy that upgrades to it, by delegating to itself until out of gas. Thus it is critical that this function revert if invoked through a proxy. This is guaranteed by the `notDelegated` modifier."
      },
      "renounceOwnership()": {
        "details": "Leaves the contract without owner. It will not be possible to call `onlyOwner` functions. Can only be called by the current owner. NOTE: Renouncing ownership will leave the contract without an owner, thereby disabling any functionality that is only available to the owner."
      },
      "requestReward(uint256,uint256)": {
        "params": {
          "fileId": "file id from the registryData contract",
          "proofIndex": "proof index"
        }
      },
      "transferOwnership(address)": {
        "details": "Starts the ownership transfer of the contract to a new account. Replaces the pending transfer if there is one. Can only be called by the current owner."
      },
      "unpause()": {
        "details": "Unpauses the contract"
      },
      "updateFileRewardFactor(uint256)": {
        "params": {
          "newFileRewardFactor": "new file reward factor"
        }
      },
      "updateMasterKey(string)": {
        "params": {
          "newProofInstruction": "new proof instruction"
        }
      },
      "updateProofInstruction(string)": {
        "params": {
          "newProofInstruction": "new proof instruction"
        }
      },
      "updateTeePool(address)": {
        "params": {
          "newTeePool": "new tee pool"
        }
      },
      "upgradeToAndCall(address,bytes)": {
        "custom:oz-upgrades-unsafe-allow-reachable": "delegatecall",
        "details": "Upgrade the implementation of the proxy to `newImplementation`, and subsequently execute the function call encoded in `data`. Calls {_authorizeUpgrade}. Emits an {Upgraded} event."
      }
    },
    "version": 1
  },
  "userdoc": {
    "events": {
      "FileInvalidated(uint256)": {
        "notice": "Triggered when a file has been invalidated"
      },
      "FileRewardFactorUpdated(uint256)": {
        "notice": "Triggered when the fileRewardFactor has been updated"
      },
      "FileValidated(uint256)": {
        "notice": "Triggered when a file has been validated"
      },
      "MasterKeyUpdated(string)": {
        "notice": "Triggered when the masterKey has been updated"
      },
      "ProofInstructionUpdated(string)": {
        "notice": "Triggered when the proofInstruction has been updated"
      },
      "RewardRequested(address,uint256,uint256,uint256)": {
        "notice": "Triggered when a reward has been requested for a file"
      }
    },
    "kind": "user",
    "methods": {
      "addRewardsForContributors(uint256)": {
        "notice": "Adds rewards for contributors"
      },
      "contributorFiles(address,uint256)": {
        "notice": "Gets the contributor files"
      },
      "contributorInfo(address)": {
        "notice": "Gets the contributor information"
      },
      "contributors(uint256)": {
        "notice": "Gets the contributor information"
      },
      "files(uint256)": {
        "notice": "Gets the file information"
      },
      "filesListAt(uint256)": {
        "notice": "Gets the files list at index"
      },
      "filesListCount()": {
        "notice": "Gets the files list count"
      },
      "initialize((address,address,address,address,string,string,string,uint256))": {
        "notice": "Initialize the contract"
      },
      "requestReward(uint256,uint256)": {
        "notice": "Requests a reward for a file"
      },
      "updateFileRewardFactor(uint256)": {
        "notice": "Updates the fileRewardFactor"
      },
      "updateMasterKey(string)": {
        "notice": "Updates the masterKey"
      },
      "updateProofInstruction(string)": {
        "notice": "Updates the proofInstruction"
      },
      "updateTeePool(address)": {
        "notice": "Updates the teePool"
      },
      "version()": {
        "notice": "returns the version of the contract"
      }
    },
    "version": 1
  },
  "storageLayout": {
    "storage": [
      {
        "astId": 13577,
        "contract": "contracts/dlp/DataLiquidityPoolImplementation.sol:DataLiquidityPoolImplementation",
        "label": "name",
        "offset": 0,
        "slot": "0",
        "type": "t_string_storage"
      },
      {
        "astId": 13581,
        "contract": "contracts/dlp/DataLiquidityPoolImplementation.sol:DataLiquidityPoolImplementation",
        "label": "dataRegistry",
        "offset": 0,
        "slot": "1",
        "type": "t_contract(IDataRegistry)8516"
      },
      {
        "astId": 13585,
        "contract": "contracts/dlp/DataLiquidityPoolImplementation.sol:DataLiquidityPoolImplementation",
        "label": "token",
        "offset": 0,
        "slot": "2",
        "type": "t_contract(IERC20)1519"
      },
      {
        "astId": 13588,
        "contract": "contracts/dlp/DataLiquidityPoolImplementation.sol:DataLiquidityPoolImplementation",
        "label": "masterKey",
        "offset": 0,
        "slot": "3",
        "type": "t_string_storage"
      },
      {
        "astId": 13591,
        "contract": "contracts/dlp/DataLiquidityPoolImplementation.sol:DataLiquidityPoolImplementation",
        "label": "proofInstruction",
        "offset": 0,
        "slot": "4",
        "type": "t_string_storage"
      },
      {
        "astId": 13594,
        "contract": "contracts/dlp/DataLiquidityPoolImplementation.sol:DataLiquidityPoolImplementation",
        "label": "totalContributorsRewardAmount",
        "offset": 0,
        "slot": "5",
        "type": "t_uint256"
      },
      {
        "astId": 13597,
        "contract": "contracts/dlp/DataLiquidityPoolImplementation.sol:DataLiquidityPoolImplementation",
        "label": "fileRewardFactor",
        "offset": 0,
        "slot": "6",
        "type": "t_uint256"
      },
      {
        "astId": 13602,
        "contract": "contracts/dlp/DataLiquidityPoolImplementation.sol:DataLiquidityPoolImplementation",
        "label": "_files",
        "offset": 0,
        "slot": "7",
        "type": "t_mapping(t_uint256,t_struct(File)13637_storage)"
      },
      {
        "astId": 13605,
        "contract": "contracts/dlp/DataLiquidityPoolImplementation.sol:DataLiquidityPoolImplementation",
        "label": "_filesList",
        "offset": 0,
        "slot": "8",
        "type": "t_struct(UintSet)7854_storage"
      },
      {
        "astId": 13608,
        "contract": "contracts/dlp/DataLiquidityPoolImplementation.sol:DataLiquidityPoolImplementation",
        "label": "contributorsCount",
        "offset": 0,
        "slot": "10",
        "type": "t_uint256"
      },
      {
        "astId": 13612,
        "contract": "contracts/dlp/DataLiquidityPoolImplementation.sol:DataLiquidityPoolImplementation",
        "label": "_contributors",
        "offset": 0,
        "slot": "11",
        "type": "t_mapping(t_uint256,t_address)"
      },
      {
        "astId": 13617,
        "contract": "contracts/dlp/DataLiquidityPoolImplementation.sol:DataLiquidityPoolImplementation",
        "label": "_contributorInfo",
        "offset": 0,
        "slot": "12",
        "type": "t_mapping(t_address,t_struct(Contributor)13641_storage)"
      },
      {
        "astId": 13621,
        "contract": "contracts/dlp/DataLiquidityPoolImplementation.sol:DataLiquidityPoolImplementation",
        "label": "teePool",
        "offset": 0,
        "slot": "13",
        "type": "t_contract(ITeePool)12898"
      }
    ],
    "types": {
      "t_address": {
        "encoding": "inplace",
        "label": "address",
        "numberOfBytes": "20"
      },
      "t_array(t_bytes32)dyn_storage": {
        "base": "t_bytes32",
        "encoding": "dynamic_array",
        "label": "bytes32[]",
        "numberOfBytes": "32"
      },
      "t_bytes32": {
        "encoding": "inplace",
        "label": "bytes32",
        "numberOfBytes": "32"
      },
      "t_contract(IDataRegistry)8516": {
        "encoding": "inplace",
        "label": "contract IDataRegistry",
        "numberOfBytes": "20"
      },
      "t_contract(IERC20)1519": {
        "encoding": "inplace",
        "label": "contract IERC20",
        "numberOfBytes": "20"
      },
      "t_contract(ITeePool)12898": {
        "encoding": "inplace",
        "label": "contract ITeePool",
        "numberOfBytes": "20"
      },
      "t_mapping(t_address,t_struct(Contributor)13641_storage)": {
        "encoding": "mapping",
        "key": "t_address",
        "label": "mapping(address => struct IDataLiquidityPool.Contributor)",
        "numberOfBytes": "32",
        "value": "t_struct(Contributor)13641_storage"
      },
      "t_mapping(t_bytes32,t_uint256)": {
        "encoding": "mapping",
        "key": "t_bytes32",
        "label": "mapping(bytes32 => uint256)",
        "numberOfBytes": "32",
        "value": "t_uint256"
      },
      "t_mapping(t_uint256,t_address)": {
        "encoding": "mapping",
        "key": "t_uint256",
        "label": "mapping(uint256 => address)",
        "numberOfBytes": "32",
        "value": "t_address"
      },
      "t_mapping(t_uint256,t_struct(File)13637_storage)": {
        "encoding": "mapping",
        "key": "t_uint256",
        "label": "mapping(uint256 => struct IDataLiquidityPool.File)",
        "numberOfBytes": "32",
        "value": "t_struct(File)13637_storage"
      },
      "t_string_storage": {
        "encoding": "bytes",
        "label": "string",
        "numberOfBytes": "32"
      },
      "t_struct(Contributor)13641_storage": {
        "encoding": "inplace",
        "label": "struct IDataLiquidityPool.Contributor",
        "members": [
          {
            "astId": 13640,
            "contract": "contracts/dlp/DataLiquidityPoolImplementation.sol:DataLiquidityPoolImplementation",
            "label": "filesList",
            "offset": 0,
            "slot": "0",
            "type": "t_struct(UintSet)7854_storage"
          }
        ],
        "numberOfBytes": "64"
      },
      "t_struct(File)13637_storage": {
        "encoding": "inplace",
        "label": "struct IDataLiquidityPool.File",
        "members": [
          {
            "astId": 13632,
            "contract": "contracts/dlp/DataLiquidityPoolImplementation.sol:DataLiquidityPoolImplementation",
            "label": "timestamp",
            "offset": 0,
            "slot": "0",
            "type": "t_uint256"
          },
          {
            "astId": 13634,
            "contract": "contracts/dlp/DataLiquidityPoolImplementation.sol:DataLiquidityPoolImplementation",
            "label": "proofIndex",
            "offset": 0,
            "slot": "1",
            "type": "t_uint256"
          },
          {
            "astId": 13636,
            "contract": "contracts/dlp/DataLiquidityPoolImplementation.sol:DataLiquidityPoolImplementation",
            "label": "rewardAmount",
            "offset": 0,
            "slot": "2",
            "type": "t_uint256"
          }
        ],
        "numberOfBytes": "96"
      },
      "t_struct(Set)7382_storage": {
        "encoding": "inplace",
        "label": "struct EnumerableSet.Set",
        "members": [
          {
            "astId": 7377,
            "contract": "contracts/dlp/DataLiquidityPoolImplementation.sol:DataLiquidityPoolImplementation",
            "label": "_values",
            "offset": 0,
            "slot": "0",
            "type": "t_array(t_bytes32)dyn_storage"
          },
          {
            "astId": 7381,
            "contract": "contracts/dlp/DataLiquidityPoolImplementation.sol:DataLiquidityPoolImplementation",
            "label": "_positions",
            "offset": 0,
            "slot": "1",
            "type": "t_mapping(t_bytes32,t_uint256)"
          }
        ],
        "numberOfBytes": "64"
      },
      "t_struct(UintSet)7854_storage": {
        "encoding": "inplace",
        "label": "struct EnumerableSet.UintSet",
        "members": [
          {
            "astId": 7853,
            "contract": "contracts/dlp/DataLiquidityPoolImplementation.sol:DataLiquidityPoolImplementation",
            "label": "_inner",
            "offset": 0,
            "slot": "0",
            "type": "t_struct(Set)7382_storage"
          }
        ],
        "numberOfBytes": "64"
      },
      "t_uint256": {
        "encoding": "inplace",
        "label": "uint256",
        "numberOfBytes": "32"
      }
    }
  }
}