{
  "address": "0x6E828824c0308E225080c186662ff3fF951633f4",
  "abi": [
    {
      "inputs": [],
      "stateMutability": "nonpayable",
      "type": "constructor"
    },
    {
      "inputs": [],
      "name": "AccessControlBadConfirmation",
      "type": "error"
    },
    {
      "inputs": [
        {
          "internalType": "address",
          "name": "account",
          "type": "address"
        },
        {
          "internalType": "bytes32",
          "name": "neededRole",
          "type": "bytes32"
        }
      ],
      "name": "AccessControlUnauthorizedAccount",
      "type": "error"
    },
    {
      "inputs": [
        {
          "internalType": "address",
          "name": "target",
          "type": "address"
        }
      ],
      "name": "AddressEmptyCode",
      "type": "error"
    },
    {
      "inputs": [
        {
          "internalType": "uint256",
          "name": "instructionId",
          "type": "uint256"
        }
      ],
      "name": "ComputeInstructionNotFound",
      "type": "error"
    },
    {
      "inputs": [
        {
          "internalType": "address",
          "name": "implementation",
          "type": "address"
        }
      ],
      "name": "ERC1967InvalidImplementation",
      "type": "error"
    },
    {
      "inputs": [],
      "name": "ERC1967NonPayable",
      "type": "error"
    },
    {
      "inputs": [],
      "name": "EnforcedPause",
      "type": "error"
    },
    {
      "inputs": [],
      "name": "ExpectedPause",
      "type": "error"
    },
    {
      "inputs": [],
      "name": "FailedInnerCall",
      "type": "error"
    },
    {
      "inputs": [],
      "name": "InvalidInitialization",
      "type": "error"
    },
    {
      "inputs": [],
      "name": "NotDlpOwner",
      "type": "error"
    },
    {
      "inputs": [],
      "name": "NotInitializing",
      "type": "error"
    },
    {
      "inputs": [],
      "name": "UUPSUnauthorizedCallContext",
      "type": "error"
    },
    {
      "inputs": [
        {
          "internalType": "bytes32",
          "name": "slot",
          "type": "bytes32"
        }
      ],
      "name": "UUPSUnsupportedProxiableUUID",
      "type": "error"
    },
    {
      "anonymous": false,
      "inputs": [
        {
          "indexed": true,
          "internalType": "uint256",
          "name": "computeInstructionId",
          "type": "uint256"
        },
        {
          "indexed": true,
          "internalType": "address",
          "name": "owner",
          "type": "address"
        },
        {
          "indexed": false,
          "internalType": "string",
          "name": "computeInstructionUrl",
          "type": "string"
        },
        {
          "indexed": false,
          "internalType": "bytes32",
          "name": "computeInstructionHash",
          "type": "bytes32"
        }
      ],
      "name": "ComputeInstructionAdded",
      "type": "event"
    },
    {
      "anonymous": false,
      "inputs": [
        {
          "indexed": true,
          "internalType": "uint256",
          "name": "computeInstructionId",
          "type": "uint256"
        },
        {
          "indexed": true,
          "internalType": "uint256",
          "name": "dlpId",
          "type": "uint256"
        },
        {
          "indexed": false,
          "internalType": "bool",
          "name": "approved",
          "type": "bool"
        }
      ],
      "name": "ComputeInstructionUpdated",
      "type": "event"
    },
    {
      "anonymous": false,
      "inputs": [
        {
          "indexed": false,
          "internalType": "uint64",
          "name": "version",
          "type": "uint64"
        }
      ],
      "name": "Initialized",
      "type": "event"
    },
    {
      "anonymous": false,
      "inputs": [
        {
          "indexed": false,
          "internalType": "address",
          "name": "account",
          "type": "address"
        }
      ],
      "name": "Paused",
      "type": "event"
    },
    {
      "anonymous": false,
      "inputs": [
        {
          "indexed": true,
          "internalType": "bytes32",
          "name": "role",
          "type": "bytes32"
        },
        {
          "indexed": true,
          "internalType": "bytes32",
          "name": "previousAdminRole",
          "type": "bytes32"
        },
        {
          "indexed": true,
          "internalType": "bytes32",
          "name": "newAdminRole",
          "type": "bytes32"
        }
      ],
      "name": "RoleAdminChanged",
      "type": "event"
    },
    {
      "anonymous": false,
      "inputs": [
        {
          "indexed": true,
          "internalType": "bytes32",
          "name": "role",
          "type": "bytes32"
        },
        {
          "indexed": true,
          "internalType": "address",
          "name": "account",
          "type": "address"
        },
        {
          "indexed": true,
          "internalType": "address",
          "name": "sender",
          "type": "address"
        }
      ],
      "name": "RoleGranted",
      "type": "event"
    },
    {
      "anonymous": false,
      "inputs": [
        {
          "indexed": true,
          "internalType": "bytes32",
          "name": "role",
          "type": "bytes32"
        },
        {
          "indexed": true,
          "internalType": "address",
          "name": "account",
          "type": "address"
        },
        {
          "indexed": true,
          "internalType": "address",
          "name": "sender",
          "type": "address"
        }
      ],
      "name": "RoleRevoked",
      "type": "event"
    },
    {
      "anonymous": false,
      "inputs": [
        {
          "indexed": false,
          "internalType": "address",
          "name": "account",
          "type": "address"
        }
      ],
      "name": "Unpaused",
      "type": "event"
    },
    {
      "anonymous": false,
      "inputs": [
        {
          "indexed": true,
          "internalType": "address",
          "name": "implementation",
          "type": "address"
        }
      ],
      "name": "Upgraded",
      "type": "event"
    },
    {
      "inputs": [],
      "name": "DEFAULT_ADMIN_ROLE",
      "outputs": [
        {
          "internalType": "bytes32",
          "name": "",
          "type": "bytes32"
        }
      ],
      "stateMutability": "view",
      "type": "function"
    },
    {
      "inputs": [],
      "name": "MAINTAINER_ROLE",
      "outputs": [
        {
          "internalType": "bytes32",
          "name": "",
          "type": "bytes32"
        }
      ],
      "stateMutability": "view",
      "type": "function"
    },
    {
      "inputs": [],
      "name": "UPGRADE_INTERFACE_VERSION",
      "outputs": [
        {
          "internalType": "string",
          "name": "",
          "type": "string"
        }
      ],
      "stateMutability": "view",
      "type": "function"
    },
    {
      "inputs": [
        {
          "internalType": "bytes32",
          "name": "hash",
          "type": "bytes32"
        },
        {
          "internalType": "string",
          "name": "url",
          "type": "string"
        }
      ],
      "name": "addComputeInstruction",
      "outputs": [
        {
          "internalType": "uint256",
          "name": "computeInstructionId",
          "type": "uint256"
        }
      ],
      "stateMutability": "nonpayable",
      "type": "function"
    },
    {
      "inputs": [],
      "name": "dlpRegistry",
      "outputs": [
        {
          "internalType": "contract IDLPRegistry",
          "name": "",
          "type": "address"
        }
      ],
      "stateMutability": "view",
      "type": "function"
    },
    {
      "inputs": [
        {
          "internalType": "bytes32",
          "name": "role",
          "type": "bytes32"
        }
      ],
      "name": "getRoleAdmin",
      "outputs": [
        {
          "internalType": "bytes32",
          "name": "",
          "type": "bytes32"
        }
      ],
      "stateMutability": "view",
      "type": "function"
    },
    {
      "inputs": [
        {
          "internalType": "bytes32",
          "name": "role",
          "type": "bytes32"
        },
        {
          "internalType": "address",
          "name": "account",
          "type": "address"
        }
      ],
      "name": "grantRole",
      "outputs": [],
      "stateMutability": "nonpayable",
      "type": "function"
    },
    {
      "inputs": [
        {
          "internalType": "bytes32",
          "name": "role",
          "type": "bytes32"
        },
        {
          "internalType": "address",
          "name": "account",
          "type": "address"
        }
      ],
      "name": "hasRole",
      "outputs": [
        {
          "internalType": "bool",
          "name": "",
          "type": "bool"
        }
      ],
      "stateMutability": "view",
      "type": "function"
    },
    {
      "inputs": [
        {
          "internalType": "address",
          "name": "ownerAddress",
          "type": "address"
        },
        {
          "internalType": "address",
          "name": "initDlpRegistryAddress",
          "type": "address"
        }
      ],
      "name": "initialize",
      "outputs": [],
      "stateMutability": "nonpayable",
      "type": "function"
    },
    {
      "inputs": [
        {
          "internalType": "uint256",
          "name": "instructionId",
          "type": "uint256"
        }
      ],
      "name": "instructions",
      "outputs": [
        {
          "components": [
            {
              "internalType": "bytes32",
              "name": "hash",
              "type": "bytes32"
            },
            {
              "internalType": "address",
              "name": "owner",
              "type": "address"
            },
            {
              "internalType": "string",
              "name": "url",
              "type": "string"
            }
          ],
          "internalType": "struct IComputeInstructionRegistry.ComputeInstructionInfo",
          "name": "",
          "type": "tuple"
        }
      ],
      "stateMutability": "view",
      "type": "function"
    },
    {
      "inputs": [],
      "name": "instructionsCount",
      "outputs": [
        {
          "internalType": "uint256",
          "name": "",
          "type": "uint256"
        }
      ],
      "stateMutability": "view",
      "type": "function"
    },
    {
      "inputs": [
        {
          "internalType": "uint256",
          "name": "instructionId",
          "type": "uint256"
        },
        {
          "internalType": "uint256",
          "name": "dlpId",
          "type": "uint256"
        }
      ],
      "name": "isApproved",
      "outputs": [
        {
          "internalType": "bool",
          "name": "",
          "type": "bool"
        }
      ],
      "stateMutability": "view",
      "type": "function"
    },
    {
      "inputs": [
        {
          "internalType": "uint256",
          "name": "instructionId",
          "type": "uint256"
        }
      ],
      "name": "isValidInstructionId",
      "outputs": [
        {
          "internalType": "bool",
          "name": "",
          "type": "bool"
        }
      ],
      "stateMutability": "view",
      "type": "function"
    },
    {
      "inputs": [],
      "name": "pause",
      "outputs": [],
      "stateMutability": "nonpayable",
      "type": "function"
    },
    {
      "inputs": [],
      "name": "paused",
      "outputs": [
        {
          "internalType": "bool",
          "name": "",
          "type": "bool"
        }
      ],
      "stateMutability": "view",
      "type": "function"
    },
    {
      "inputs": [],
      "name": "proxiableUUID",
      "outputs": [
        {
          "internalType": "bytes32",
          "name": "",
          "type": "bytes32"
        }
      ],
      "stateMutability": "view",
      "type": "function"
    },
    {
      "inputs": [
        {
          "internalType": "bytes32",
          "name": "role",
          "type": "bytes32"
        },
        {
          "internalType": "address",
          "name": "callerConfirmation",
          "type": "address"
        }
      ],
      "name": "renounceRole",
      "outputs": [],
      "stateMutability": "nonpayable",
      "type": "function"
    },
    {
      "inputs": [
        {
          "internalType": "bytes32",
          "name": "role",
          "type": "bytes32"
        },
        {
          "internalType": "address",
          "name": "account",
          "type": "address"
        }
      ],
      "name": "revokeRole",
      "outputs": [],
      "stateMutability": "nonpayable",
      "type": "function"
    },
    {
      "inputs": [
        {
          "internalType": "bytes4",
          "name": "interfaceId",
          "type": "bytes4"
        }
      ],
      "name": "supportsInterface",
      "outputs": [
        {
          "internalType": "bool",
          "name": "",
          "type": "bool"
        }
      ],
      "stateMutability": "view",
      "type": "function"
    },
    {
      "inputs": [],
      "name": "unpause",
      "outputs": [],
      "stateMutability": "nonpayable",
      "type": "function"
    },
    {
      "inputs": [
        {
          "internalType": "uint256",
          "name": "instructionId",
          "type": "uint256"
        },
        {
          "internalType": "uint256",
          "name": "dlpId",
          "type": "uint256"
        },
        {
          "internalType": "bool",
          "name": "approved",
          "type": "bool"
        }
      ],
      "name": "updateComputeInstruction",
      "outputs": [],
      "stateMutability": "nonpayable",
      "type": "function"
    },
    {
      "inputs": [
        {
          "internalType": "address",
          "name": "newDlpRegistryAddress",
          "type": "address"
        }
      ],
      "name": "updateDlpRegistry",
      "outputs": [],
      "stateMutability": "nonpayable",
      "type": "function"
    },
    {
      "inputs": [
        {
          "internalType": "address",
          "name": "newImplementation",
          "type": "address"
        },
        {
          "internalType": "bytes",
          "name": "data",
          "type": "bytes"
        }
      ],
      "name": "upgradeToAndCall",
      "outputs": [],
      "stateMutability": "payable",
      "type": "function"
    },
    {
      "inputs": [],
      "name": "version",
      "outputs": [
        {
          "internalType": "uint256",
          "name": "",
          "type": "uint256"
        }
      ],
      "stateMutability": "pure",
      "type": "function"
    }
  ],
  "transactionHash": "0x84ee214f69e07a5da77e51ed4c7cdc7734cfd6eff775b3f55631384087ac5d72",
  "args": [],
  "numDeployments": 3,
  "solcInputHash": "d7e6582b03e2d9bc73307ab48fa5f5bf",
  "bytecode": "0x60a06040523060805234801561001457600080fd5b5061001d610022565b6100d4565b7ff0c57e16840df040f15088dc2f81fe391c3923bec73e23a9662efc9c229c6a00805468010000000000000000900460ff16156100725760405163f92ee8a960e01b815260040160405180910390fd5b80546001600160401b03908116146100d15780546001600160401b0319166001600160401b0390811782556040519081527fc7f505b2f371ae2175ee4913f4499e1f2633a7b5936321eed1cdaeb6115181d29060200160405180910390a15b50565b6080516119066100fd60003960008181610cef01528181610d180152610e5301526119066000f3fe60806040526004361061011b5760003560e01c806301ffc9a7146101205780631eb2454b14610155578063248a9ca314610177578063248e02a6146101a55780632f2ff15d146101c55780632f9e21e6146101e557806336568abe146102055780633f4ba83a14610225578063485cc9551461023a5780634f1ef2861461025a57806352d1902d1461026d57806354fd4d50146102825780635c975abb14610296578063752aac25146102ab57806379fd41f6146102d85780637eb97e88146102f85780638456cb591461032557806391d148541461033a578063a217fddf1461035a578063ad3cb1cc1461036f578063bf276511146103ad578063c9a0ede8146103ec578063d547741f14610402578063f874225414610422575b600080fd5b34801561012c57600080fd5b5061014061013b36600461117c565b610444565b60405190151581526020015b60405180910390f35b34801561016157600080fd5b506101756101703660046111bb565b61047b565b005b34801561018357600080fd5b506101976101923660046111d8565b6104b6565b60405190815260200161014c565b3480156101b157600080fd5b506101976101c03660046111f1565b6104d6565b3480156101d157600080fd5b506101756101e036600461126c565b61057b565b3480156101f157600080fd5b506101406102003660046111d8565b61059d565b34801561021157600080fd5b5061017561022036600461126c565b6105b2565b34801561023157600080fd5b506101756105ea565b34801561024657600080fd5b5061017561025536600461129c565b61060d565b610175610268366004611360565b61076f565b34801561027957600080fd5b5061019761078e565b34801561028e57600080fd5b506001610197565b3480156102a257600080fd5b506101406107ab565b3480156102b757600080fd5b506102cb6102c63660046111d8565b6107c0565b60405161014c9190611442565b3480156102e457600080fd5b506101756102f3366004611481565b6108a9565b34801561030457600080fd5b50600054610318906001600160a01b031681565b60405161014c91906114bf565b34801561033157600080fd5b50610175610a10565b34801561034657600080fd5b5061014061035536600461126c565b610a30565b34801561036657600080fd5b50610197600081565b34801561037b57600080fd5b506103a0604051806040016040528060058152602001640352e302e360dc1b81525081565b60405161014c91906114d3565b3480156103b957600080fd5b506101406103c83660046114e6565b60009182526002602090815260408084209284526003909201905290205460ff1690565b3480156103f857600080fd5b5061019760015481565b34801561040e57600080fd5b5061017561041d36600461126c565b610a66565b34801561042e57600080fd5b506101976000805160206118da83398151915281565b60006001600160e01b03198216637965db0b60e01b148061047557506301ffc9a760e01b6001600160e01b03198316145b92915050565b6000805160206118da83398151915261049381610a82565b50600080546001600160a01b0319166001600160a01b0392909216919091179055565b6000806104c1610a8c565b60009384526020525050604090206001015490565b60006104e0610ab0565b6001600081546104ef90611508565b918290555060008181526002602081905260409091208681556001810180546001600160a01b03191633179055919250810161052c8486836115b9565b50336001600160a01b0316827fbd2f369520a556322443e6986d9103d0bc2f27fe6de3a0987c418b5b95a4923386868960405161056b93929190611678565b60405180910390a3509392505050565b610584826104b6565b61058d81610a82565b6105978383610ad8565b50505050565b60008082118015610475575050600154101590565b6001600160a01b03811633146105db5760405163334bd91960e11b815260040160405180910390fd5b6105e58282610b79565b505050565b6000805160206118da83398151915261060281610a82565b61060a610bf1565b50565b6000610617610c48565b805490915060ff600160401b82041615906001600160401b031660008115801561063e5750825b90506000826001600160401b0316600114801561065a5750303b155b905081158015610668575080155b156106865760405163f92ee8a960e01b815260040160405180910390fd5b84546001600160401b031916600117855583156106af57845460ff60401b1916600160401b1785555b6106b7610c6c565b6106bf610c74565b6106c7610c6c565b600080546001600160a01b0319166001600160a01b0388161781556106fb906000805160206118da83398151915290610c84565b610706600088610ad8565b5061071f6000805160206118da83398151915288610ad8565b50831561076657845460ff60401b19168555604051600181527fc7f505b2f371ae2175ee4913f4499e1f2633a7b5936321eed1cdaeb6115181d29060200160405180910390a15b50505050505050565b610777610ce4565b61078082610d89565b61078a8282610d94565b5050565b6000610798610e48565b506000805160206118ba83398151915290565b6000806107b6610e91565b5460ff1692915050565b604080516060808201835260008083526020808401829052838501839052858252600280825291859020855193840186528054845260018101546001600160a01b031691840191909152908101805493949193918301916108209061152f565b80601f016020809104026020016040519081016040528092919081815260200182805461084c9061152f565b80156108995780601f1061086e57610100808354040283529160200191610899565b820191906000526020600020905b81548152906001019060200180831161087c57829003601f168201915b5050505050815250915050919050565b60005460405163ea83e47b60e01b815260048101849052839133916001600160a01b039091169063ea83e47b90602401600060405180830381865afa1580156108f6573d6000803e3d6000fd5b505050506040513d6000823e601f3d908101601f1916820160405261091e9190810190611715565b604001516001600160a01b03161461094957604051633387d70760e01b815260040160405180910390fd5b610951610ab0565b83158061095f575060015484115b1561098557604051630fd91fa760e31b8152600481018590526024015b60405180910390fd5b6000848152600260209081526040808320868452600381019092529091205460ff16151583151514610a09576000848152600382016020908152604091829020805460ff19168615159081179091559151918252859187917fd5593c4bcad9d8180499c9950bd809941c0e8a8fd9031a740964eab17aacd178910160405180910390a35b5050505050565b6000805160206118da833981519152610a2881610a82565b61060a610eb5565b600080610a3b610a8c565b6000948552602090815260408086206001600160a01b03959095168652939052505090205460ff1690565b610a6f826104b6565b610a7881610a82565b6105978383610b79565b61060a8133610efc565b7f02dd7bc7dec4dceedda775e58dd541e08a116c6c53815c0bd028192f7b62680090565b610ab86107ab565b15610ad65760405163d93c066560e01b815260040160405180910390fd5b565b600080610ae3610a8c565b9050610aef8484610a30565b610b6f576000848152602082815260408083206001600160a01b03871684529091529020805460ff19166001179055610b253390565b6001600160a01b0316836001600160a01b0316857f2f8788117e7eff1d82e926ec794901d17c78024a50270940304540a733656f0d60405160405180910390a46001915050610475565b6000915050610475565b600080610b84610a8c565b9050610b908484610a30565b15610b6f576000848152602082815260408083206001600160a01b0387168085529252808320805460ff1916905551339287917ff6391f5c32d9c69d2a47ea670b442974b53935d1edc7fd64eb21e047a839171b9190a46001915050610475565b610bf9610f35565b6000610c03610e91565b805460ff1916815590507f5db9ee0a495bf2e6ff9c91a7834c1ba4fdd244a5e8aa4e537bd38aeae4b073aa335b604051610c3d91906114bf565b60405180910390a150565b7ff0c57e16840df040f15088dc2f81fe391c3923bec73e23a9662efc9c229c6a0090565b610ad6610f5a565b610c7c610f5a565b610ad6610f7f565b6000610c8e610a8c565b90506000610c9b846104b6565b600085815260208490526040808220600101869055519192508491839187917fbd79b86ffe0ab8e8776151514217cd7cacd52c909f66475c3af44e129f0b00ff9190a450505050565b306001600160a01b037f0000000000000000000000000000000000000000000000000000000000000000161480610d6b57507f00000000000000000000000000000000000000000000000000000000000000006001600160a01b0316610d5f6000805160206118ba833981519152546001600160a01b031690565b6001600160a01b031614155b15610ad65760405163703e46dd60e11b815260040160405180910390fd5b600061078a81610a82565b816001600160a01b03166352d1902d6040518163ffffffff1660e01b8152600401602060405180830381865afa925050508015610dee575060408051601f3d908101601f19168201909252610deb91810190611884565b60015b610e0d5781604051634c9c8ce360e01b815260040161097c91906114bf565b6000805160206118ba8339815191528114610e3e57604051632a87526960e21b81526004810182905260240161097c565b6105e58383610f9c565b306001600160a01b037f00000000000000000000000000000000000000000000000000000000000000001614610ad65760405163703e46dd60e11b815260040160405180910390fd5b7fcd5ed15c6e187e77e9aee88184c21f4f2182ab5827cb3b7e07fbedcd63f0330090565b610ebd610ab0565b6000610ec7610e91565b805460ff1916600117815590507f62e78cea01bee320cd4e420270b5ea74000d11b0c9f74754ebdbfc544b05a258610c303390565b610f068282610a30565b61078a5760405163e2517d3f60e01b81526001600160a01b03821660048201526024810183905260440161097c565b610f3d6107ab565b610ad657604051638dfc202b60e01b815260040160405180910390fd5b610f62610ff2565b610ad657604051631afcd79f60e31b815260040160405180910390fd5b610f87610f5a565b6000610f91610e91565b805460ff1916905550565b610fa58261100c565b6040516001600160a01b038316907fbc7cd75a20ee27fd9adebab32041f755214dbc6bffa90cc0225b39da2e5c2d3b90600090a2805115610fea576105e58282611068565b61078a6110de565b6000610ffc610c48565b54600160401b900460ff16919050565b806001600160a01b03163b6000036110395780604051634c9c8ce360e01b815260040161097c91906114bf565b6000805160206118ba83398151915280546001600160a01b0319166001600160a01b0392909216919091179055565b6060600080846001600160a01b031684604051611085919061189d565b600060405180830381855af49150503d80600081146110c0576040519150601f19603f3d011682016040523d82523d6000602084013e6110c5565b606091505b50915091506110d58583836110fd565b95945050505050565b3415610ad65760405163b398979f60e01b815260040160405180910390fd5b6060826111125761110d82611153565b61114c565b815115801561112957506001600160a01b0384163b155b156111495783604051639996b31560e01b815260040161097c91906114bf565b50805b9392505050565b8051156111635780518082602001fd5b604051630a12f52160e11b815260040160405180910390fd5b60006020828403121561118e57600080fd5b81356001600160e01b03198116811461114c57600080fd5b6001600160a01b038116811461060a57600080fd5b6000602082840312156111cd57600080fd5b813561114c816111a6565b6000602082840312156111ea57600080fd5b5035919050565b60008060006040848603121561120657600080fd5b8335925060208401356001600160401b038082111561122457600080fd5b818601915086601f83011261123857600080fd5b81358181111561124757600080fd5b87602082850101111561125957600080fd5b6020830194508093505050509250925092565b6000806040838503121561127f57600080fd5b823591506020830135611291816111a6565b809150509250929050565b600080604083850312156112af57600080fd5b82356112ba816111a6565b91506020830135611291816111a6565b634e487b7160e01b600052604160045260246000fd5b6040516101c081016001600160401b0381118282101715611303576113036112ca565b60405290565b604051601f8201601f191681016001600160401b0381118282101715611331576113316112ca565b604052919050565b60006001600160401b03821115611352576113526112ca565b50601f01601f191660200190565b6000806040838503121561137357600080fd5b823561137e816111a6565b915060208301356001600160401b0381111561139957600080fd5b8301601f810185136113aa57600080fd5b80356113bd6113b882611339565b611309565b8181528660208385010111156113d257600080fd5b816020840160208301376000602083830101528093505050509250929050565b60005b8381101561140d5781810151838201526020016113f5565b50506000910152565b6000815180845261142e8160208601602086016113f2565b601f01601f19169290920160200192915050565b602081528151602082015260018060a01b036020830151166040820152600060408301516060808401526114796080840182611416565b949350505050565b60008060006060848603121561149657600080fd5b8335925060208401359150604084013580151581146114b457600080fd5b809150509250925092565b6001600160a01b0391909116815260200190565b60208152600061114c6020830184611416565b600080604083850312156114f957600080fd5b50508035926020909101359150565b60006001820161152857634e487b7160e01b600052601160045260246000fd5b5060010190565b600181811c9082168061154357607f821691505b60208210810361156357634e487b7160e01b600052602260045260246000fd5b50919050565b601f8211156105e5576000816000526020600020601f850160051c810160208610156115925750805b601f850160051c820191505b818110156115b15782815560010161159e565b505050505050565b6001600160401b038311156115d0576115d06112ca565b6115e4836115de835461152f565b83611569565b6000601f84116001811461161857600085156116005750838201355b600019600387901b1c1916600186901b178355610a09565b600083815260209020601f19861690835b828110156116495786850135825560209485019460019092019101611629565b50868210156116665760001960f88860031b161c19848701351681555b505060018560011b0183555050505050565b604081528260408201528284606083013760006060848301015260006060601f19601f8601168301019050826020830152949350505050565b80516116bc816111a6565b919050565b600082601f8301126116d257600080fd5b81516116e06113b882611339565b8181528460208386010111156116f557600080fd5b6114798260208301602087016113f2565b8051600481106116bc57600080fd5b60006020828403121561172757600080fd5b81516001600160401b038082111561173e57600080fd5b908301906101c0828603121561175357600080fd5b61175b6112e0565b8251815261176b602084016116b1565b602082015261177c604084016116b1565b604082015261178d606084016116b1565b606082015261179e608084016116b1565b608082015260a0830151828111156117b557600080fd5b6117c1878286016116c1565b60a08301525060c0830151828111156117d957600080fd5b6117e5878286016116c1565b60c08301525060e0830151828111156117fd57600080fd5b611809878286016116c1565b60e083015250610100808401518381111561182357600080fd5b61182f888287016116c1565b918301919091525061012083810151908201526101408084015190820152610160915061185d828401611706565b9181019190915261018082810151908201526101a091820151918101919091529392505050565b60006020828403121561189657600080fd5b5051919050565b600082516118af8184602087016113f2565b919091019291505056fe360894a13ba1a3210667c828492db98dca3e2076cc3735a920a3ca505d382bbc339759585899103d2ace64958e37e18ccb0504652c81d4a1b8aa80fe2126ab95a164736f6c6343000818000a",
  "devdoc": {
    "errors": {
      "AccessControlBadConfirmation()": [
        {
          "details": "The caller of a function is not the expected one. NOTE: Don't confuse with {AccessControlUnauthorizedAccount}."
        }
      ],
      "AccessControlUnauthorizedAccount(address,bytes32)": [
        {
          "details": "The `account` is missing a role."
        }
      ],
      "AddressEmptyCode(address)": [
        {
          "details": "There's no code at `target` (it is not a contract)."
        }
      ],
      "ERC1967InvalidImplementation(address)": [
        {
          "details": "The `implementation` of the proxy is invalid."
        }
      ],
      "ERC1967NonPayable()": [
        {
          "details": "An upgrade function sees `msg.value > 0` that may be lost."
        }
      ],
      "EnforcedPause()": [
        {
          "details": "The operation failed because the contract is paused."
        }
      ],
      "ExpectedPause()": [
        {
          "details": "The operation failed because the contract is not paused."
        }
      ],
      "FailedInnerCall()": [
        {
          "details": "A call to an address target failed. The target may have reverted."
        }
      ],
      "InvalidInitialization()": [
        {
          "details": "The contract is already initialized."
        }
      ],
      "NotInitializing()": [
        {
          "details": "The contract is not initializing."
        }
      ],
      "UUPSUnauthorizedCallContext()": [
        {
          "details": "The call is from an unauthorized context."
        }
      ],
      "UUPSUnsupportedProxiableUUID(bytes32)": [
        {
          "details": "The storage `slot` is unsupported as a UUID."
        }
      ]
    },
    "events": {
      "Initialized(uint64)": {
        "details": "Triggered when the contract has been initialized or reinitialized."
      },
      "Paused(address)": {
        "details": "Emitted when the pause is triggered by `account`."
      },
      "RoleAdminChanged(bytes32,bytes32,bytes32)": {
        "details": "Emitted when `newAdminRole` is set as ``role``'s admin role, replacing `previousAdminRole` `DEFAULT_ADMIN_ROLE` is the starting admin for all roles, despite {RoleAdminChanged} not being emitted signaling this."
      },
      "RoleGranted(bytes32,address,address)": {
        "details": "Emitted when `account` is granted `role`. `sender` is the account that originated the contract call, an admin role bearer except when using {AccessControl-_setupRole}."
      },
      "RoleRevoked(bytes32,address,address)": {
        "details": "Emitted when `account` is revoked `role`. `sender` is the account that originated the contract call:   - if using `revokeRole`, it is the admin role bearer   - if using `renounceRole`, it is the role bearer (i.e. `account`)"
      },
      "Unpaused(address)": {
        "details": "Emitted when the pause is lifted by `account`."
      },
      "Upgraded(address)": {
        "details": "Emitted when the implementation is upgraded."
      }
    },
    "kind": "dev",
    "methods": {
      "addComputeInstruction(bytes32,string)": {
        "params": {
          "hash": "The hash of the compute instruction",
          "url": "The URL of the compute instruction"
        },
        "returns": {
          "computeInstructionId": "The ID of the compute instruction"
        }
      },
      "constructor": {
        "custom:oz-upgrades-unsafe-allow": "constructor"
      },
      "getRoleAdmin(bytes32)": {
        "details": "Returns the admin role that controls `role`. See {grantRole} and {revokeRole}. To change a role's admin, use {_setRoleAdmin}."
      },
      "grantRole(bytes32,address)": {
        "details": "Grants `role` to `account`. If `account` had not been already granted `role`, emits a {RoleGranted} event. Requirements: - the caller must have ``role``'s admin role. May emit a {RoleGranted} event."
      },
      "hasRole(bytes32,address)": {
        "details": "Returns `true` if `account` has been granted `role`."
      },
      "initialize(address,address)": {
        "params": {
          "ownerAddress": "Address of the owner"
        }
      },
      "instructions(uint256)": {
        "params": {
          "instructionId": "The ID of the compute instruction"
        },
        "returns": {
          "_0": "The compute instruction info"
        }
      },
      "isApproved(uint256,uint256)": {
        "params": {
          "instructionId": "The ID of the compute instruction",
          "refinerId": "The ID of the refiner"
        },
        "returns": {
          "_0": "Whether the compute instruction has been approved against the refiner"
        }
      },
      "isValidInstructionId(uint256)": {
        "params": {
          "instructionId": "The ID of the compute instruction"
        },
        "returns": {
          "_0": "Whether the instruction ID is valid"
        }
      },
      "paused()": {
        "details": "Returns true if the contract is paused, and false otherwise."
      },
      "proxiableUUID()": {
        "details": "Implementation of the ERC1822 {proxiableUUID} function. This returns the storage slot used by the implementation. It is used to validate the implementation's compatibility when performing an upgrade. IMPORTANT: A proxy pointing at a proxiable contract should not be considered proxiable itself, because this risks bricking a proxy that upgrades to it, by delegating to itself until out of gas. Thus it is critical that this function revert if invoked through a proxy. This is guaranteed by the `notDelegated` modifier."
      },
      "renounceRole(bytes32,address)": {
        "details": "Revokes `role` from the calling account. Roles are often managed via {grantRole} and {revokeRole}: this function's purpose is to provide a mechanism for accounts to lose their privileges if they are compromised (such as when a trusted device is misplaced). If the calling account had been revoked `role`, emits a {RoleRevoked} event. Requirements: - the caller must be `callerConfirmation`. May emit a {RoleRevoked} event."
      },
      "revokeRole(bytes32,address)": {
        "details": "Revokes `role` from `account`. If `account` had been granted `role`, emits a {RoleRevoked} event. Requirements: - the caller must have ``role``'s admin role. May emit a {RoleRevoked} event."
      },
      "supportsInterface(bytes4)": {
        "details": "See {IERC165-supportsInterface}."
      },
      "updateComputeInstruction(uint256,uint256,bool)": {
        "params": {
          "approved": "Whether the compute instruction has been approved against the refiner",
          "dlpId": "The ID of the DLP",
          "instructionId": "The ID of the compute instruction"
        }
      },
      "updateDlpRegistry(address)": {
        "params": {
          "dlpRegistryAddress": "The address of the new DLPRegistry contract"
        }
      },
      "upgradeToAndCall(address,bytes)": {
        "custom:oz-upgrades-unsafe-allow-reachable": "delegatecall",
        "details": "Upgrade the implementation of the proxy to `newImplementation`, and subsequently execute the function call encoded in `data`. Calls {_authorizeUpgrade}. Emits an {Upgraded} event."
      }
    },
    "version": 1
  },
  "userdoc": {
    "kind": "user",
    "methods": {
      "addComputeInstruction(bytes32,string)": {
        "notice": "Adds a compute instruction to the registry"
      },
      "dlpRegistry()": {
        "notice": "Returns the DLPRegistry contract address."
      },
      "initialize(address,address)": {
        "notice": "Initializes the contract"
      },
      "instructions(uint256)": {
        "notice": "Returns the compute instruction for a given instruction ID"
      },
      "instructionsCount()": {
        "notice": "Returns the number of compute instructions in the contract"
      },
      "isApproved(uint256,uint256)": {
        "notice": "Returns the compute instruction's approval with the given ID"
      },
      "isValidInstructionId(uint256)": {
        "notice": "Checks if the instruction ID is valid"
      },
      "pause()": {
        "notice": "Pauses the contract"
      },
      "unpause()": {
        "notice": "Unpauses the contract"
      },
      "updateComputeInstruction(uint256,uint256,bool)": {
        "notice": "Updates the compute instruction's approval with the given ID"
      },
      "updateDlpRegistry(address)": {
        "notice": "Updates the DLPRegistry contract address."
      },
      "version()": {
        "notice": "Returns the version of the contract"
      }
    },
    "version": 1
  },
  "storageLayout": {
    "storage": [
      {
        "astId": 7974,
        "contract": "contracts/data/computeInstructionRegistry/ComputeInstructionRegistryImplementation.sol:ComputeInstructionRegistryImplementation",
        "label": "dlpRegistry",
        "offset": 0,
        "slot": "0",
        "type": "t_contract(IDLPRegistry)10176"
      },
      {
        "astId": 7977,
        "contract": "contracts/data/computeInstructionRegistry/ComputeInstructionRegistryImplementation.sol:ComputeInstructionRegistryImplementation",
        "label": "instructionsCount",
        "offset": 0,
        "slot": "1",
        "type": "t_uint256"
      },
      {
        "astId": 7982,
        "contract": "contracts/data/computeInstructionRegistry/ComputeInstructionRegistryImplementation.sol:ComputeInstructionRegistryImplementation",
        "label": "_instructions",
        "offset": 0,
        "slot": "2",
        "type": "t_mapping(t_uint256,t_struct(ComputeInstruction)7998_storage)"
      }
    ],
    "types": {
      "t_address": {
        "encoding": "inplace",
        "label": "address",
        "numberOfBytes": "20"
      },
      "t_bool": {
        "encoding": "inplace",
        "label": "bool",
        "numberOfBytes": "1"
      },
      "t_bytes32": {
        "encoding": "inplace",
        "label": "bytes32",
        "numberOfBytes": "32"
      },
      "t_contract(IDLPRegistry)10176": {
        "encoding": "inplace",
        "label": "contract IDLPRegistry",
        "numberOfBytes": "20"
      },
      "t_mapping(t_uint256,t_bool)": {
        "encoding": "mapping",
        "key": "t_uint256",
        "label": "mapping(uint256 => bool)",
        "numberOfBytes": "32",
        "value": "t_bool"
      },
      "t_mapping(t_uint256,t_struct(ComputeInstruction)7998_storage)": {
        "encoding": "mapping",
        "key": "t_uint256",
        "label": "mapping(uint256 => struct IComputeInstructionRegistry.ComputeInstruction)",
        "numberOfBytes": "32",
        "value": "t_struct(ComputeInstruction)7998_storage"
      },
      "t_string_storage": {
        "encoding": "bytes",
        "label": "string",
        "numberOfBytes": "32"
      },
      "t_struct(ComputeInstruction)7998_storage": {
        "encoding": "inplace",
        "label": "struct IComputeInstructionRegistry.ComputeInstruction",
        "members": [
          {
            "astId": 7989,
            "contract": "contracts/data/computeInstructionRegistry/ComputeInstructionRegistryImplementation.sol:ComputeInstructionRegistryImplementation",
            "label": "hash",
            "offset": 0,
            "slot": "0",
            "type": "t_bytes32"
          },
          {
            "astId": 7991,
            "contract": "contracts/data/computeInstructionRegistry/ComputeInstructionRegistryImplementation.sol:ComputeInstructionRegistryImplementation",
            "label": "owner",
            "offset": 0,
            "slot": "1",
            "type": "t_address"
          },
          {
            "astId": 7993,
            "contract": "contracts/data/computeInstructionRegistry/ComputeInstructionRegistryImplementation.sol:ComputeInstructionRegistryImplementation",
            "label": "url",
            "offset": 0,
            "slot": "2",
            "type": "t_string_storage"
          },
          {
            "astId": 7997,
            "contract": "contracts/data/computeInstructionRegistry/ComputeInstructionRegistryImplementation.sol:ComputeInstructionRegistryImplementation",
            "label": "dlpApprovals",
            "offset": 0,
            "slot": "3",
            "type": "t_mapping(t_uint256,t_bool)"
          }
        ],
        "numberOfBytes": "128"
      },
      "t_uint256": {
        "encoding": "inplace",
        "label": "uint256",
        "numberOfBytes": "32"
      }
    }
  }
}