{
  "address": "0xaEB7A36A9dB00cF56d2088ADD889E913D5a1A83b",
  "abi": [
    {
      "inputs": [],
      "stateMutability": "nonpayable",
      "type": "constructor"
    },
    {
      "inputs": [],
      "name": "AccessControlBadConfirmation",
      "type": "error"
    },
    {
      "inputs": [
        {
          "internalType": "address",
          "name": "account",
          "type": "address"
        },
        {
          "internalType": "bytes32",
          "name": "neededRole",
          "type": "bytes32"
        }
      ],
      "name": "AccessControlUnauthorizedAccount",
      "type": "error"
    },
    {
      "inputs": [
        {
          "internalType": "address",
          "name": "target",
          "type": "address"
        }
      ],
      "name": "AddressEmptyCode",
      "type": "error"
    },
    {
      "inputs": [
        {
          "internalType": "address",
          "name": "implementation",
          "type": "address"
        }
      ],
      "name": "ERC1967InvalidImplementation",
      "type": "error"
    },
    {
      "inputs": [],
      "name": "ERC1967NonPayable",
      "type": "error"
    },
    {
      "inputs": [],
      "name": "EnforcedPause",
      "type": "error"
    },
    {
      "inputs": [],
      "name": "ExpectedPause",
      "type": "error"
    },
    {
      "inputs": [],
      "name": "FailedInnerCall",
      "type": "error"
    },
    {
      "inputs": [],
      "name": "InvalidInitialization",
      "type": "error"
    },
    {
      "inputs": [],
      "name": "NotDlpOwner",
      "type": "error"
    },
    {
      "inputs": [],
      "name": "NotInitializing",
      "type": "error"
    },
    {
      "inputs": [],
      "name": "UUPSUnauthorizedCallContext",
      "type": "error"
    },
    {
      "inputs": [
        {
          "internalType": "bytes32",
          "name": "slot",
          "type": "bytes32"
        }
      ],
      "name": "UUPSUnsupportedProxiableUUID",
      "type": "error"
    },
    {
      "anonymous": false,
      "inputs": [
        {
          "indexed": false,
          "internalType": "uint64",
          "name": "version",
          "type": "uint64"
        }
      ],
      "name": "Initialized",
      "type": "event"
    },
    {
      "anonymous": false,
      "inputs": [
        {
          "indexed": false,
          "internalType": "address",
          "name": "account",
          "type": "address"
        }
      ],
      "name": "Paused",
      "type": "event"
    },
    {
      "anonymous": false,
      "inputs": [
        {
          "indexed": true,
          "internalType": "uint256",
          "name": "refinerId",
          "type": "uint256"
        },
        {
          "indexed": true,
          "internalType": "uint256",
          "name": "dlpId",
          "type": "uint256"
        },
        {
          "indexed": false,
          "internalType": "string",
          "name": "name",
          "type": "string"
        },
        {
          "indexed": false,
          "internalType": "string",
          "name": "schemaDefinitionUrl",
          "type": "string"
        },
        {
          "indexed": false,
          "internalType": "string",
          "name": "refinementInstructionUrl",
          "type": "string"
        }
      ],
      "name": "RefinerAdded",
      "type": "event"
    },
    {
      "anonymous": false,
      "inputs": [
        {
          "indexed": true,
          "internalType": "bytes32",
          "name": "role",
          "type": "bytes32"
        },
        {
          "indexed": true,
          "internalType": "bytes32",
          "name": "previousAdminRole",
          "type": "bytes32"
        },
        {
          "indexed": true,
          "internalType": "bytes32",
          "name": "newAdminRole",
          "type": "bytes32"
        }
      ],
      "name": "RoleAdminChanged",
      "type": "event"
    },
    {
      "anonymous": false,
      "inputs": [
        {
          "indexed": true,
          "internalType": "bytes32",
          "name": "role",
          "type": "bytes32"
        },
        {
          "indexed": true,
          "internalType": "address",
          "name": "account",
          "type": "address"
        },
        {
          "indexed": true,
          "internalType": "address",
          "name": "sender",
          "type": "address"
        }
      ],
      "name": "RoleGranted",
      "type": "event"
    },
    {
      "anonymous": false,
      "inputs": [
        {
          "indexed": true,
          "internalType": "bytes32",
          "name": "role",
          "type": "bytes32"
        },
        {
          "indexed": true,
          "internalType": "address",
          "name": "account",
          "type": "address"
        },
        {
          "indexed": true,
          "internalType": "address",
          "name": "sender",
          "type": "address"
        }
      ],
      "name": "RoleRevoked",
      "type": "event"
    },
    {
      "anonymous": false,
      "inputs": [
        {
          "indexed": false,
          "internalType": "address",
          "name": "account",
          "type": "address"
        }
      ],
      "name": "Unpaused",
      "type": "event"
    },
    {
      "anonymous": false,
      "inputs": [
        {
          "indexed": true,
          "internalType": "address",
          "name": "implementation",
          "type": "address"
        }
      ],
      "name": "Upgraded",
      "type": "event"
    },
    {
      "inputs": [],
      "name": "DEFAULT_ADMIN_ROLE",
      "outputs": [
        {
          "internalType": "bytes32",
          "name": "",
          "type": "bytes32"
        }
      ],
      "stateMutability": "view",
      "type": "function"
    },
    {
      "inputs": [],
      "name": "MAINTAINER_ROLE",
      "outputs": [
        {
          "internalType": "bytes32",
          "name": "",
          "type": "bytes32"
        }
      ],
      "stateMutability": "view",
      "type": "function"
    },
    {
      "inputs": [],
      "name": "UPGRADE_INTERFACE_VERSION",
      "outputs": [
        {
          "internalType": "string",
          "name": "",
          "type": "string"
        }
      ],
      "stateMutability": "view",
      "type": "function"
    },
    {
      "inputs": [
        {
          "internalType": "uint256",
          "name": "dlpId",
          "type": "uint256"
        },
        {
          "internalType": "address",
          "name": "refinementService",
          "type": "address"
        }
      ],
      "name": "addRefinementService",
      "outputs": [],
      "stateMutability": "nonpayable",
      "type": "function"
    },
    {
      "inputs": [
        {
          "internalType": "uint256",
          "name": "dlpId",
          "type": "uint256"
        },
        {
          "internalType": "string",
          "name": "name",
          "type": "string"
        },
        {
          "internalType": "string",
          "name": "schemaDefinitionUrl",
          "type": "string"
        },
        {
          "internalType": "string",
          "name": "refinementInstructionUrl",
          "type": "string"
        }
      ],
      "name": "addRefiner",
      "outputs": [
        {
          "internalType": "uint256",
          "name": "",
          "type": "uint256"
        }
      ],
      "stateMutability": "nonpayable",
      "type": "function"
    },
    {
      "inputs": [
        {
          "internalType": "uint256",
          "name": "dlpId",
          "type": "uint256"
        }
      ],
      "name": "dlpRefinementServices",
      "outputs": [
        {
          "internalType": "address[]",
          "name": "",
          "type": "address[]"
        }
      ],
      "stateMutability": "view",
      "type": "function"
    },
    {
      "inputs": [
        {
          "internalType": "uint256",
          "name": "dlpId",
          "type": "uint256"
        }
      ],
      "name": "dlpRefiners",
      "outputs": [
        {
          "internalType": "uint256[]",
          "name": "",
          "type": "uint256[]"
        }
      ],
      "stateMutability": "view",
      "type": "function"
    },
    {
      "inputs": [],
      "name": "dlpRegistry",
      "outputs": [
        {
          "internalType": "contract IDLPRegistry",
          "name": "",
          "type": "address"
        }
      ],
      "stateMutability": "view",
      "type": "function"
    },
    {
      "inputs": [
        {
          "internalType": "bytes32",
          "name": "role",
          "type": "bytes32"
        }
      ],
      "name": "getRoleAdmin",
      "outputs": [
        {
          "internalType": "bytes32",
          "name": "",
          "type": "bytes32"
        }
      ],
      "stateMutability": "view",
      "type": "function"
    },
    {
      "inputs": [
        {
          "internalType": "bytes32",
          "name": "role",
          "type": "bytes32"
        },
        {
          "internalType": "address",
          "name": "account",
          "type": "address"
        }
      ],
      "name": "grantRole",
      "outputs": [],
      "stateMutability": "nonpayable",
      "type": "function"
    },
    {
      "inputs": [
        {
          "internalType": "bytes32",
          "name": "role",
          "type": "bytes32"
        },
        {
          "internalType": "address",
          "name": "account",
          "type": "address"
        }
      ],
      "name": "hasRole",
      "outputs": [
        {
          "internalType": "bool",
          "name": "",
          "type": "bool"
        }
      ],
      "stateMutability": "view",
      "type": "function"
    },
    {
      "inputs": [
        {
          "internalType": "address",
          "name": "ownerAddress",
          "type": "address"
        },
        {
          "internalType": "address",
          "name": "initDlpRegistryAddress",
          "type": "address"
        }
      ],
      "name": "initialize",
      "outputs": [],
      "stateMutability": "nonpayable",
      "type": "function"
    },
    {
      "inputs": [
        {
          "internalType": "uint256",
          "name": "refinerId",
          "type": "uint256"
        },
        {
          "internalType": "address",
          "name": "refinementService",
          "type": "address"
        }
      ],
      "name": "isRefinementService",
      "outputs": [
        {
          "internalType": "bool",
          "name": "",
          "type": "bool"
        }
      ],
      "stateMutability": "view",
      "type": "function"
    },
    {
      "inputs": [],
      "name": "pause",
      "outputs": [],
      "stateMutability": "nonpayable",
      "type": "function"
    },
    {
      "inputs": [],
      "name": "paused",
      "outputs": [
        {
          "internalType": "bool",
          "name": "",
          "type": "bool"
        }
      ],
      "stateMutability": "view",
      "type": "function"
    },
    {
      "inputs": [],
      "name": "proxiableUUID",
      "outputs": [
        {
          "internalType": "bytes32",
          "name": "",
          "type": "bytes32"
        }
      ],
      "stateMutability": "view",
      "type": "function"
    },
    {
      "inputs": [
        {
          "internalType": "uint256",
          "name": "refinerId",
          "type": "uint256"
        }
      ],
      "name": "refiners",
      "outputs": [
        {
          "components": [
            {
              "internalType": "uint256",
              "name": "dlpId",
              "type": "uint256"
            },
            {
              "internalType": "address",
              "name": "owner",
              "type": "address"
            },
            {
              "internalType": "string",
              "name": "name",
              "type": "string"
            },
            {
              "internalType": "string",
              "name": "schemaDefinitionUrl",
              "type": "string"
            },
            {
              "internalType": "string",
              "name": "refinementInstructionUrl",
              "type": "string"
            }
          ],
          "internalType": "struct IDataRefinerRegistry.RefinerInfo",
          "name": "",
          "type": "tuple"
        }
      ],
      "stateMutability": "view",
      "type": "function"
    },
    {
      "inputs": [],
      "name": "refinersCount",
      "outputs": [
        {
          "internalType": "uint256",
          "name": "",
          "type": "uint256"
        }
      ],
      "stateMutability": "view",
      "type": "function"
    },
    {
      "inputs": [
        {
          "internalType": "uint256",
          "name": "dlpId",
          "type": "uint256"
        },
        {
          "internalType": "address",
          "name": "refinementService",
          "type": "address"
        }
      ],
      "name": "removeRefinementService",
      "outputs": [],
      "stateMutability": "nonpayable",
      "type": "function"
    },
    {
      "inputs": [
        {
          "internalType": "bytes32",
          "name": "role",
          "type": "bytes32"
        },
        {
          "internalType": "address",
          "name": "callerConfirmation",
          "type": "address"
        }
      ],
      "name": "renounceRole",
      "outputs": [],
      "stateMutability": "nonpayable",
      "type": "function"
    },
    {
      "inputs": [
        {
          "internalType": "bytes32",
          "name": "role",
          "type": "bytes32"
        },
        {
          "internalType": "address",
          "name": "account",
          "type": "address"
        }
      ],
      "name": "revokeRole",
      "outputs": [],
      "stateMutability": "nonpayable",
      "type": "function"
    },
    {
      "inputs": [
        {
          "internalType": "bytes4",
          "name": "interfaceId",
          "type": "bytes4"
        }
      ],
      "name": "supportsInterface",
      "outputs": [
        {
          "internalType": "bool",
          "name": "",
          "type": "bool"
        }
      ],
      "stateMutability": "view",
      "type": "function"
    },
    {
      "inputs": [],
      "name": "unpause",
      "outputs": [],
      "stateMutability": "nonpayable",
      "type": "function"
    },
    {
      "inputs": [
        {
          "internalType": "uint256",
          "name": "dlpId",
          "type": "uint256"
        }
      ],
      "name": "updateDlpRefinersOwner",
      "outputs": [],
      "stateMutability": "nonpayable",
      "type": "function"
    },
    {
      "inputs": [
        {
          "internalType": "address",
          "name": "newDlpRegistryAddress",
          "type": "address"
        }
      ],
      "name": "updateDlpRegistry",
      "outputs": [],
      "stateMutability": "nonpayable",
      "type": "function"
    },
    {
      "inputs": [
        {
          "internalType": "uint256",
          "name": "refinerId",
          "type": "uint256"
        }
      ],
      "name": "updateRefinerOwner",
      "outputs": [],
      "stateMutability": "nonpayable",
      "type": "function"
    },
    {
      "inputs": [
        {
          "internalType": "address",
          "name": "newImplementation",
          "type": "address"
        },
        {
          "internalType": "bytes",
          "name": "data",
          "type": "bytes"
        }
      ],
      "name": "upgradeToAndCall",
      "outputs": [],
      "stateMutability": "payable",
      "type": "function"
    },
    {
      "inputs": [],
      "name": "version",
      "outputs": [
        {
          "internalType": "uint256",
          "name": "",
          "type": "uint256"
        }
      ],
      "stateMutability": "pure",
      "type": "function"
    }
  ],
  "transactionHash": "0x575017148d16cb1ef14d60e81f9fa97bb1af63075e16713a47fce3599a91ba3d",
  "args": [],
  "numDeployments": 5,
  "solcInputHash": "d7e6582b03e2d9bc73307ab48fa5f5bf",
  "bytecode": "0x60a06040523060805234801561001457600080fd5b5061001d610022565b6100d4565b7ff0c57e16840df040f15088dc2f81fe391c3923bec73e23a9662efc9c229c6a00805468010000000000000000900460ff16156100725760405163f92ee8a960e01b815260040160405180910390fd5b80546001600160401b03908116146100d15780546001600160401b0319166001600160401b0390811782556040519081527fc7f505b2f371ae2175ee4913f4499e1f2633a7b5936321eed1cdaeb6115181d29060200160405180910390a15b50565b6080516121b5620000fe6000396000818161121d01528181611246015261138a01526121b56000f3fe6080604052600436106101475760003560e01c806301ffc9a71461014c5780630fa40d31146101815780631eb2454b146101a3578063248a9ca3146101c35780632f2ff15d146101f157806336568abe146102115780633f4ba83a14610231578063485cc955146102465780634f1ef2861461026657806352d1902d14610279578063546dbbe31461028e57806354fd4d50146102a45780635c975abb146102b85780637eb97e88146102cd5780638456cb59146102fa5780638b159a7c1461030f57806391d148541461033c5780639b996b001461035c578063a217fddf14610389578063ad3cb1cc1461039e578063baf1247d146103dc578063c29b2ad8146103fc578063caf9cca11461041c578063d547741f1461043c578063e0e5799e1461045c578063e4a9abbb14610489578063f1c7ac26146104a9578063f8742254146104c9575b600080fd5b34801561015857600080fd5b5061016c6101673660046118d9565b6104eb565b60405190151581526020015b60405180910390f35b34801561018d57600080fd5b506101a161019c366004611903565b610522565b005b3480156101af57600080fd5b506101a16101be366004611931565b610630565b3480156101cf57600080fd5b506101e36101de366004611903565b61066b565b604051908152602001610178565b3480156101fd57600080fd5b506101a161020c36600461194e565b61068b565b34801561021d57600080fd5b506101a161022c36600461194e565b6106ad565b34801561023d57600080fd5b506101a16106e5565b34801561025257600080fd5b506101a161026136600461197e565b610708565b6101a1610274366004611a42565b61086a565b34801561028557600080fd5b506101e3610889565b34801561029a57600080fd5b506101e360015481565b3480156102b057600080fd5b5060016101e3565b3480156102c457600080fd5b5061016c6108a6565b3480156102d957600080fd5b506000546102ed906001600160a01b031681565b6040516101789190611ad4565b34801561030657600080fd5b506101a16108bb565b34801561031b57600080fd5b5061032f61032a366004611903565b6108db565b6040516101789190611ae8565b34801561034857600080fd5b5061016c61035736600461194e565b6108f5565b34801561036857600080fd5b5061037c610377366004611903565b61092b565b6040516101789190611b85565b34801561039557600080fd5b506101e3600081565b3480156103aa57600080fd5b506103cf604051806040016040528060058152602001640352e302e360dc1b81525081565b6040516101789190611bf9565b3480156103e857600080fd5b506101a16103f736600461194e565b610b5c565b34801561040857600080fd5b506101a161041736600461194e565b610c1c565b34801561042857600080fd5b506101e3610437366004611c54565b610cdc565b34801561044857600080fd5b506101a161045736600461194e565b610e5e565b34801561046857600080fd5b5061047c610477366004611903565b610e7a565b6040516101789190611cf7565b34801561049557600080fd5b506101a16104a4366004611903565b610e94565b3480156104b557600080fd5b5061016c6104c436600461194e565b610f6e565b3480156104d557600080fd5b506101e360008051602061218983398151915281565b60006001600160e01b03198216637965db0b60e01b148061051c57506301ffc9a760e01b6001600160e01b03198316145b92915050565b60005460405163ea83e47b60e01b815260048101839052829133916001600160a01b039091169063ea83e47b90602401600060405180830381865afa15801561056f573d6000803e3d6000fd5b505050506040513d6000823e601f3d908101601f191682016040526105979190810190611d9b565b604001516001600160a01b0316146105c257604051633387d70760e01b815260040160405180910390fd5b6105ca610f9a565b6000828152600360205260408120906105e282610fc2565b905060005b818110156106295760006105fb8483610fcc565b6000908152600260205260409020600190810180546001600160a01b031916331790559190910190506105e7565b5050505050565b60008051602061218983398151915261064881610fd8565b50600080546001600160a01b0319166001600160a01b0392909216919091179055565b600080610676610fe2565b60009384526020525050604090206001015490565b6106948261066b565b61069d81610fd8565b6106a78383611006565b50505050565b6001600160a01b03811633146106d65760405163334bd91960e11b815260040160405180910390fd5b6106e082826110a7565b505050565b6000805160206121898339815191526106fd81610fd8565b61070561111f565b50565b6000610712611176565b805490915060ff600160401b82041615906001600160401b03166000811580156107395750825b90506000826001600160401b031660011480156107555750303b155b905081158015610763575080155b156107815760405163f92ee8a960e01b815260040160405180910390fd5b84546001600160401b031916600117855583156107aa57845460ff60401b1916600160401b1785555b6107b261119a565b6107ba6111a2565b6107c261119a565b600080546001600160a01b0319166001600160a01b0388161781556107f690600080516020612189833981519152906111b2565b610801600088611006565b5061081a60008051602061218983398151915288611006565b50831561086157845460ff60401b19168555604051600181527fc7f505b2f371ae2175ee4913f4499e1f2633a7b5936321eed1cdaeb6115181d29060200160405180910390a15b50505050505050565b610872611212565b61087b826112b7565b61088582826112c2565b5050565b600061089361137f565b5060008051602061216983398151915290565b6000806108b16113c8565b5460ff1692915050565b6000805160206121898339815191526108d381610fd8565b6107056113ec565b600081815260046020526040902060609061051c90611433565b600080610900610fe2565b6000948552602090815260408086206001600160a01b03959095168652939052505090205460ff1690565b6109666040518060a001604052806000815260200160006001600160a01b031681526020016060815260200160608152602001606081525090565b600082815260026020818152604092839020835160a0810185528154815260018201546001600160a01b031692810192909252918201805492939192918301916109af90611f0a565b80601f01602080910402602001604051908101604052809291908181526020018280546109db90611f0a565b8015610a285780601f106109fd57610100808354040283529160200191610a28565b820191906000526020600020905b815481529060010190602001808311610a0b57829003601f168201915b50505050508152602001826003018054610a4190611f0a565b80601f0160208091040260200160405190810160405280929190818152602001828054610a6d90611f0a565b8015610aba5780601f10610a8f57610100808354040283529160200191610aba565b820191906000526020600020905b815481529060010190602001808311610a9d57829003601f168201915b50505050508152602001826004018054610ad390611f0a565b80601f0160208091040260200160405190810160405280929190818152602001828054610aff90611f0a565b8015610b4c5780601f10610b2157610100808354040283529160200191610b4c565b820191906000526020600020905b815481529060010190602001808311610b2f57829003601f168201915b5050505050815250915050919050565b60005460405163ea83e47b60e01b815260048101849052839133916001600160a01b039091169063ea83e47b90602401600060405180830381865afa158015610ba9573d6000803e3d6000fd5b505050506040513d6000823e601f3d908101601f19168201604052610bd19190810190611d9b565b604001516001600160a01b031614610bfc57604051633387d70760e01b815260040160405180910390fd5b610c04610f9a565b60008381526004602052604090206106a79083611440565b60005460405163ea83e47b60e01b815260048101849052839133916001600160a01b039091169063ea83e47b90602401600060405180830381865afa158015610c69573d6000803e3d6000fd5b505050506040513d6000823e601f3d908101601f19168201604052610c919190810190611d9b565b604001516001600160a01b031614610cbc57604051633387d70760e01b815260040160405180910390fd5b610cc4610f9a565b60008381526004602052604090206106a79083611455565b6000805460405163ea83e47b60e01b8152600481018a9052899133916001600160a01b039091169063ea83e47b90602401600060405180830381865afa158015610d2a573d6000803e3d6000fd5b505050506040513d6000823e601f3d908101601f19168201604052610d529190810190611d9b565b604001516001600160a01b031614610d7d57604051633387d70760e01b815260040160405180910390fd5b610d85610f9a565b6000600160008154610d9690611f5a565b918290555060008181526002602081905260409091208c81556001810180546001600160a01b031916331790559192508101610dd38a8c83611fc3565b5060038101610de3888a83611fc3565b5060048101610df3868883611fc3565b505060008a8152600360205260409020610e0d908261146a565b5089817fe71fe273d5db4214912e31c7615ae7f2492c5725b5fab47f12f56172e1d999468b8b8b8b8b8b604051610e49969594939291906120ab565b60405180910390a39998505050505050505050565b610e678261066b565b610e7081610fd8565b6106a783836110a7565b600081815260036020526040902060609061051c90611433565b610e9c610f9a565b60008181526002602052604080822091548254915163ea83e47b60e01b8152600481019290925233916001600160a01b039091169063ea83e47b90602401600060405180830381865afa158015610ef7573d6000803e3d6000fd5b505050506040513d6000823e601f3d908101601f19168201604052610f1f9190810190611d9b565b604001516001600160a01b031614610f4a57604051633387d70760e01b815260040160405180910390fd5b50600090815260026020526040902060010180546001600160a01b03191633179055565b600082815260026020908152604080832054835260049091528120610f939083611476565b9392505050565b610fa26108a6565b15610fc05760405163d93c066560e01b815260040160405180910390fd5b565b600061051c825490565b6000610f93838361148b565b61070581336114b5565b7f02dd7bc7dec4dceedda775e58dd541e08a116c6c53815c0bd028192f7b62680090565b600080611011610fe2565b905061101d84846108f5565b61109d576000848152602082815260408083206001600160a01b03871684529091529020805460ff191660011790556110533390565b6001600160a01b0316836001600160a01b0316857f2f8788117e7eff1d82e926ec794901d17c78024a50270940304540a733656f0d60405160405180910390a4600191505061051c565b600091505061051c565b6000806110b2610fe2565b90506110be84846108f5565b1561109d576000848152602082815260408083206001600160a01b0387168085529252808320805460ff1916905551339287917ff6391f5c32d9c69d2a47ea670b442974b53935d1edc7fd64eb21e047a839171b9190a4600191505061051c565b6111276114ee565b60006111316113c8565b805460ff1916815590507f5db9ee0a495bf2e6ff9c91a7834c1ba4fdd244a5e8aa4e537bd38aeae4b073aa335b60405161116b9190611ad4565b60405180910390a150565b7ff0c57e16840df040f15088dc2f81fe391c3923bec73e23a9662efc9c229c6a0090565b610fc0611513565b6111aa611513565b610fc0611538565b60006111bc610fe2565b905060006111c98461066b565b600085815260208490526040808220600101869055519192508491839187917fbd79b86ffe0ab8e8776151514217cd7cacd52c909f66475c3af44e129f0b00ff9190a450505050565b306001600160a01b037f000000000000000000000000000000000000000000000000000000000000000016148061129957507f00000000000000000000000000000000000000000000000000000000000000006001600160a01b031661128d600080516020612169833981519152546001600160a01b031690565b6001600160a01b031614155b15610fc05760405163703e46dd60e11b815260040160405180910390fd5b600061088581610fd8565b816001600160a01b03166352d1902d6040518163ffffffff1660e01b8152600401602060405180830381865afa92505050801561131c575060408051601f3d908101601f19168201909252611319918101906120f4565b60015b6113445781604051634c9c8ce360e01b815260040161133b9190611ad4565b60405180910390fd5b600080516020612169833981519152811461137557604051632a87526960e21b81526004810182905260240161133b565b6106e08383611555565b306001600160a01b037f00000000000000000000000000000000000000000000000000000000000000001614610fc05760405163703e46dd60e11b815260040160405180910390fd5b7fcd5ed15c6e187e77e9aee88184c21f4f2182ab5827cb3b7e07fbedcd63f0330090565b6113f4610f9a565b60006113fe6113c8565b805460ff1916600117815590507f62e78cea01bee320cd4e420270b5ea74000d11b0c9f74754ebdbfc544b05a25861115e3390565b60606000610f93836115ab565b6000610f93836001600160a01b038416611607565b6000610f93836001600160a01b0384166116f0565b6000610f9383836116f0565b6000610f93836001600160a01b03841661173a565b60008260000182815481106114a2576114a261210d565b9060005260206000200154905092915050565b6114bf82826108f5565b6108855760405163e2517d3f60e01b81526001600160a01b03821660048201526024810183905260440161133b565b6114f66108a6565b610fc057604051638dfc202b60e01b815260040160405180910390fd5b61151b611752565b610fc057604051631afcd79f60e31b815260040160405180910390fd5b611540611513565b600061154a6113c8565b805460ff1916905550565b61155e8261176c565b6040516001600160a01b038316907fbc7cd75a20ee27fd9adebab32041f755214dbc6bffa90cc0225b39da2e5c2d3b90600090a28051156115a3576106e082826117c8565b61088561183e565b6060816000018054806020026020016040519081016040528092919081815260200182805480156115fb57602002820191906000526020600020905b8154815260200190600101908083116115e7575b50505050509050919050565b6000818152600183016020526040812054801561109d57600061162b600183612123565b855490915060009061163f90600190612123565b90508082146116a457600086600001828154811061165f5761165f61210d565b90600052602060002001549050808760000184815481106116825761168261210d565b6000918252602080832090910192909255918252600188019052604090208390555b85548690806116b5576116b5612136565b60019003818190600052602060002001600090559055856001016000868152602001908152602001600020600090556001935050505061051c565b60006116fc838361173a565b6117325750815460018181018455600084815260208082209093018490558454848252828601909352604090209190915561051c565b50600061051c565b60009081526001919091016020526040902054151590565b600061175c611176565b54600160401b900460ff16919050565b806001600160a01b03163b6000036117995780604051634c9c8ce360e01b815260040161133b9190611ad4565b60008051602061216983398151915280546001600160a01b0319166001600160a01b0392909216919091179055565b6060600080846001600160a01b0316846040516117e5919061214c565b600060405180830381855af49150503d8060008114611820576040519150601f19603f3d011682016040523d82523d6000602084013e611825565b606091505b509150915061183585838361185d565b95945050505050565b3415610fc05760405163b398979f60e01b815260040160405180910390fd5b6060826118725761186d826118b0565b610f93565b815115801561188957506001600160a01b0384163b155b156118a95783604051639996b31560e01b815260040161133b9190611ad4565b5092915050565b8051156118c05780518082602001fd5b604051630a12f52160e11b815260040160405180910390fd5b6000602082840312156118eb57600080fd5b81356001600160e01b031981168114610f9357600080fd5b60006020828403121561191557600080fd5b5035919050565b6001600160a01b038116811461070557600080fd5b60006020828403121561194357600080fd5b8135610f938161191c565b6000806040838503121561196157600080fd5b8235915060208301356119738161191c565b809150509250929050565b6000806040838503121561199157600080fd5b823561199c8161191c565b915060208301356119738161191c565b634e487b7160e01b600052604160045260246000fd5b6040516101c081016001600160401b03811182821017156119e5576119e56119ac565b60405290565b604051601f8201601f191681016001600160401b0381118282101715611a1357611a136119ac565b604052919050565b60006001600160401b03821115611a3457611a346119ac565b50601f01601f191660200190565b60008060408385031215611a5557600080fd5b8235611a608161191c565b915060208301356001600160401b03811115611a7b57600080fd5b8301601f81018513611a8c57600080fd5b8035611a9f611a9a82611a1b565b6119eb565b818152866020838501011115611ab457600080fd5b816020840160208301376000602083830101528093505050509250929050565b6001600160a01b0391909116815260200190565b6020808252825182820181905260009190848201906040850190845b81811015611b295783516001600160a01b031683529284019291840191600101611b04565b50909695505050505050565b60005b83811015611b50578181015183820152602001611b38565b50506000910152565b60008151808452611b71816020860160208601611b35565b601f01601f19169290920160200192915050565b602081528151602082015260018060a01b0360208301511660408201526000604083015160a06060840152611bbd60c0840182611b59565b90506060840151601f1980858403016080860152611bdb8383611b59565b925060808601519150808584030160a0860152506118358282611b59565b602081526000610f936020830184611b59565b60008083601f840112611c1e57600080fd5b5081356001600160401b03811115611c3557600080fd5b602083019150836020828501011115611c4d57600080fd5b9250929050565b60008060008060008060006080888a031215611c6f57600080fd5b8735965060208801356001600160401b0380821115611c8d57600080fd5b611c998b838c01611c0c565b909850965060408a0135915080821115611cb257600080fd5b611cbe8b838c01611c0c565b909650945060608a0135915080821115611cd757600080fd5b50611ce48a828b01611c0c565b989b979a50959850939692959293505050565b6020808252825182820181905260009190848201906040850190845b81811015611b2957835183529284019291840191600101611d13565b8051611d3a8161191c565b919050565b600082601f830112611d5057600080fd5b8151611d5e611a9a82611a1b565b818152846020838601011115611d7357600080fd5b611d84826020830160208701611b35565b949350505050565b805160048110611d3a57600080fd5b600060208284031215611dad57600080fd5b81516001600160401b0380821115611dc457600080fd5b908301906101c08286031215611dd957600080fd5b611de16119c2565b82518152611df160208401611d2f565b6020820152611e0260408401611d2f565b6040820152611e1360608401611d2f565b6060820152611e2460808401611d2f565b608082015260a083015182811115611e3b57600080fd5b611e4787828601611d3f565b60a08301525060c083015182811115611e5f57600080fd5b611e6b87828601611d3f565b60c08301525060e083015182811115611e8357600080fd5b611e8f87828601611d3f565b60e0830152506101008084015183811115611ea957600080fd5b611eb588828701611d3f565b9183019190915250610120838101519082015261014080840151908201526101609150611ee3828401611d8c565b9181019190915261018082810151908201526101a091820151918101919091529392505050565b600181811c90821680611f1e57607f821691505b602082108103611f3e57634e487b7160e01b600052602260045260246000fd5b50919050565b634e487b7160e01b600052601160045260246000fd5b600060018201611f6c57611f6c611f44565b5060010190565b601f8211156106e0576000816000526020600020601f850160051c81016020861015611f9c5750805b601f850160051c820191505b81811015611fbb57828155600101611fa8565b505050505050565b6001600160401b03831115611fda57611fda6119ac565b611fee83611fe88354611f0a565b83611f73565b6000601f841160018114612022576000851561200a5750838201355b600019600387901b1c1916600186901b178355610629565b600083815260209020601f19861690835b828110156120535786850135825560209485019460019092019101612033565b50868210156120705760001960f88860031b161c19848701351681555b505060018560011b0183555050505050565b81835281816020850137506000828201602090810191909152601f909101601f19169091010190565b6060815260006120bf60608301888a612082565b82810360208401526120d2818789612082565b905082810360408401526120e7818587612082565b9998505050505050505050565b60006020828403121561210657600080fd5b5051919050565b634e487b7160e01b600052603260045260246000fd5b8181038181111561051c5761051c611f44565b634e487b7160e01b600052603160045260246000fd5b6000825161215e818460208701611b35565b919091019291505056fe360894a13ba1a3210667c828492db98dca3e2076cc3735a920a3ca505d382bbc339759585899103d2ace64958e37e18ccb0504652c81d4a1b8aa80fe2126ab95a164736f6c6343000818000a",
  "devdoc": {
    "errors": {
      "AccessControlBadConfirmation()": [
        {
          "details": "The caller of a function is not the expected one. NOTE: Don't confuse with {AccessControlUnauthorizedAccount}."
        }
      ],
      "AccessControlUnauthorizedAccount(address,bytes32)": [
        {
          "details": "The `account` is missing a role."
        }
      ],
      "AddressEmptyCode(address)": [
        {
          "details": "There's no code at `target` (it is not a contract)."
        }
      ],
      "ERC1967InvalidImplementation(address)": [
        {
          "details": "The `implementation` of the proxy is invalid."
        }
      ],
      "ERC1967NonPayable()": [
        {
          "details": "An upgrade function sees `msg.value > 0` that may be lost."
        }
      ],
      "EnforcedPause()": [
        {
          "details": "The operation failed because the contract is paused."
        }
      ],
      "ExpectedPause()": [
        {
          "details": "The operation failed because the contract is not paused."
        }
      ],
      "FailedInnerCall()": [
        {
          "details": "A call to an address target failed. The target may have reverted."
        }
      ],
      "InvalidInitialization()": [
        {
          "details": "The contract is already initialized."
        }
      ],
      "NotInitializing()": [
        {
          "details": "The contract is not initializing."
        }
      ],
      "UUPSUnauthorizedCallContext()": [
        {
          "details": "The call is from an unauthorized context."
        }
      ],
      "UUPSUnsupportedProxiableUUID(bytes32)": [
        {
          "details": "The storage `slot` is unsupported as a UUID."
        }
      ]
    },
    "events": {
      "Initialized(uint64)": {
        "details": "Triggered when the contract has been initialized or reinitialized."
      },
      "Paused(address)": {
        "details": "Emitted when the pause is triggered by `account`."
      },
      "RoleAdminChanged(bytes32,bytes32,bytes32)": {
        "details": "Emitted when `newAdminRole` is set as ``role``'s admin role, replacing `previousAdminRole` `DEFAULT_ADMIN_ROLE` is the starting admin for all roles, despite {RoleAdminChanged} not being emitted signaling this."
      },
      "RoleGranted(bytes32,address,address)": {
        "details": "Emitted when `account` is granted `role`. `sender` is the account that originated the contract call, an admin role bearer except when using {AccessControl-_setupRole}."
      },
      "RoleRevoked(bytes32,address,address)": {
        "details": "Emitted when `account` is revoked `role`. `sender` is the account that originated the contract call:   - if using `revokeRole`, it is the admin role bearer   - if using `renounceRole`, it is the role bearer (i.e. `account`)"
      },
      "Unpaused(address)": {
        "details": "Emitted when the pause is lifted by `account`."
      },
      "Upgraded(address)": {
        "details": "Emitted when the implementation is upgraded."
      }
    },
    "kind": "dev",
    "methods": {
      "addRefiner(uint256,string,string,string)": {
        "params": {
          "dlpId": "The ID of the DLP.",
          "name": "The name of the refiner.",
          "refinementInstructionUrl": "The URL of the refinement Docker image.",
          "schemaDefinitionUrl": "The URL of the schema definition."
        },
        "returns": {
          "_0": "The ID of the refiner."
        }
      },
      "constructor": {
        "custom:oz-upgrades-unsafe-allow": "constructor"
      },
      "dlpRefiners(uint256)": {
        "params": {
          "dlpId": "The ID of the DLP."
        },
        "returns": {
          "_0": "An array of refiner IDs."
        }
      },
      "getRoleAdmin(bytes32)": {
        "details": "Returns the admin role that controls `role`. See {grantRole} and {revokeRole}. To change a role's admin, use {_setRoleAdmin}."
      },
      "grantRole(bytes32,address)": {
        "details": "Grants `role` to `account`. If `account` had not been already granted `role`, emits a {RoleGranted} event. Requirements: - the caller must have ``role``'s admin role. May emit a {RoleGranted} event."
      },
      "hasRole(bytes32,address)": {
        "details": "Returns `true` if `account` has been granted `role`."
      },
      "initialize(address,address)": {
        "params": {
          "ownerAddress": "Address of the owner"
        }
      },
      "paused()": {
        "details": "Returns true if the contract is paused, and false otherwise."
      },
      "proxiableUUID()": {
        "details": "Implementation of the ERC1822 {proxiableUUID} function. This returns the storage slot used by the implementation. It is used to validate the implementation's compatibility when performing an upgrade. IMPORTANT: A proxy pointing at a proxiable contract should not be considered proxiable itself, because this risks bricking a proxy that upgrades to it, by delegating to itself until out of gas. Thus it is critical that this function revert if invoked through a proxy. This is guaranteed by the `notDelegated` modifier."
      },
      "refiners(uint256)": {
        "params": {
          "refinerId": "The ID of the refiner."
        }
      },
      "renounceRole(bytes32,address)": {
        "details": "Revokes `role` from the calling account. Roles are often managed via {grantRole} and {revokeRole}: this function's purpose is to provide a mechanism for accounts to lose their privileges if they are compromised (such as when a trusted device is misplaced). If the calling account had been revoked `role`, emits a {RoleRevoked} event. Requirements: - the caller must be `callerConfirmation`. May emit a {RoleRevoked} event."
      },
      "revokeRole(bytes32,address)": {
        "details": "Revokes `role` from `account`. If `account` had been granted `role`, emits a {RoleRevoked} event. Requirements: - the caller must have ``role``'s admin role. May emit a {RoleRevoked} event."
      },
      "supportsInterface(bytes4)": {
        "details": "See {IERC165-supportsInterface}."
      },
      "updateDlpRefinersOwner(uint256)": {
        "details": "This function is called when the DLP owner changes.",
        "params": {
          "dlpId": "The ID of the DLP."
        }
      },
      "updateRefinerOwner(uint256)": {
        "params": {
          "refinerId": "The ID of the refiner."
        }
      },
      "upgradeToAndCall(address,bytes)": {
        "custom:oz-upgrades-unsafe-allow-reachable": "delegatecall",
        "details": "Upgrade the implementation of the proxy to `newImplementation`, and subsequently execute the function call encoded in `data`. Calls {_authorizeUpgrade}. Emits an {Upgraded} event."
      }
    },
    "version": 1
  },
  "userdoc": {
    "kind": "user",
    "methods": {
      "addRefiner(uint256,string,string,string)": {
        "notice": "Adds a refiner to the registry."
      },
      "dlpRefiners(uint256)": {
        "notice": "Returns the refiner IDs for a given DLP ID."
      },
      "dlpRegistry()": {
        "notice": "Returns the DLPRegistry contract address."
      },
      "initialize(address,address)": {
        "notice": "Initializes the contract"
      },
      "pause()": {
        "notice": "Pauses the contract."
      },
      "refiners(uint256)": {
        "notice": "Returns the refiner with the given ID."
      },
      "refinersCount()": {
        "notice": "Returns the number of refiners."
      },
      "unpause()": {
        "notice": "Unpauses the contract."
      },
      "updateDlpRefinersOwner(uint256)": {
        "notice": "Updates the owner of all refiners for a given DLP."
      },
      "updateDlpRegistry(address)": {
        "notice": "Updates the DLPRegistry contract address."
      },
      "updateRefinerOwner(uint256)": {
        "notice": "Updates the owner of a refiner."
      },
      "version()": {
        "notice": "Returns the version of the contract."
      }
    },
    "version": 1
  },
  "storageLayout": {
    "storage": [
      {
        "astId": 9004,
        "contract": "contracts/data/dataRefinerRegistry/DataRefinerRegistryImplementation.sol:DataRefinerRegistryImplementation",
        "label": "dlpRegistry",
        "offset": 0,
        "slot": "0",
        "type": "t_contract(IDLPRegistry)10176"
      },
      {
        "astId": 9007,
        "contract": "contracts/data/dataRefinerRegistry/DataRefinerRegistryImplementation.sol:DataRefinerRegistryImplementation",
        "label": "refinersCount",
        "offset": 0,
        "slot": "1",
        "type": "t_uint256"
      },
      {
        "astId": 9012,
        "contract": "contracts/data/dataRefinerRegistry/DataRefinerRegistryImplementation.sol:DataRefinerRegistryImplementation",
        "label": "_refiners",
        "offset": 0,
        "slot": "2",
        "type": "t_mapping(t_uint256,t_struct(Refiner)9040_storage)"
      },
      {
        "astId": 9017,
        "contract": "contracts/data/dataRefinerRegistry/DataRefinerRegistryImplementation.sol:DataRefinerRegistryImplementation",
        "label": "_dlpRefiners",
        "offset": 0,
        "slot": "3",
        "type": "t_mapping(t_uint256,t_struct(UintSet)5303_storage)"
      },
      {
        "astId": 9022,
        "contract": "contracts/data/dataRefinerRegistry/DataRefinerRegistryImplementation.sol:DataRefinerRegistryImplementation",
        "label": "_dlpRefinementServices",
        "offset": 0,
        "slot": "4",
        "type": "t_mapping(t_uint256,t_struct(AddressSet)5146_storage)"
      }
    ],
    "types": {
      "t_address": {
        "encoding": "inplace",
        "label": "address",
        "numberOfBytes": "20"
      },
      "t_array(t_bytes32)dyn_storage": {
        "base": "t_bytes32",
        "encoding": "dynamic_array",
        "label": "bytes32[]",
        "numberOfBytes": "32"
      },
      "t_bytes32": {
        "encoding": "inplace",
        "label": "bytes32",
        "numberOfBytes": "32"
      },
      "t_contract(IDLPRegistry)10176": {
        "encoding": "inplace",
        "label": "contract IDLPRegistry",
        "numberOfBytes": "20"
      },
      "t_mapping(t_bytes32,t_uint256)": {
        "encoding": "mapping",
        "key": "t_bytes32",
        "label": "mapping(bytes32 => uint256)",
        "numberOfBytes": "32",
        "value": "t_uint256"
      },
      "t_mapping(t_uint256,t_struct(AddressSet)5146_storage)": {
        "encoding": "mapping",
        "key": "t_uint256",
        "label": "mapping(uint256 => struct EnumerableSet.AddressSet)",
        "numberOfBytes": "32",
        "value": "t_struct(AddressSet)5146_storage"
      },
      "t_mapping(t_uint256,t_struct(Refiner)9040_storage)": {
        "encoding": "mapping",
        "key": "t_uint256",
        "label": "mapping(uint256 => struct IDataRefinerRegistry.Refiner)",
        "numberOfBytes": "32",
        "value": "t_struct(Refiner)9040_storage"
      },
      "t_mapping(t_uint256,t_struct(UintSet)5303_storage)": {
        "encoding": "mapping",
        "key": "t_uint256",
        "label": "mapping(uint256 => struct EnumerableSet.UintSet)",
        "numberOfBytes": "32",
        "value": "t_struct(UintSet)5303_storage"
      },
      "t_string_storage": {
        "encoding": "bytes",
        "label": "string",
        "numberOfBytes": "32"
      },
      "t_struct(AddressSet)5146_storage": {
        "encoding": "inplace",
        "label": "struct EnumerableSet.AddressSet",
        "members": [
          {
            "astId": 5145,
            "contract": "contracts/data/dataRefinerRegistry/DataRefinerRegistryImplementation.sol:DataRefinerRegistryImplementation",
            "label": "_inner",
            "offset": 0,
            "slot": "0",
            "type": "t_struct(Set)4831_storage"
          }
        ],
        "numberOfBytes": "64"
      },
      "t_struct(Refiner)9040_storage": {
        "encoding": "inplace",
        "label": "struct IDataRefinerRegistry.Refiner",
        "members": [
          {
            "astId": 9029,
            "contract": "contracts/data/dataRefinerRegistry/DataRefinerRegistryImplementation.sol:DataRefinerRegistryImplementation",
            "label": "dlpId",
            "offset": 0,
            "slot": "0",
            "type": "t_uint256"
          },
          {
            "astId": 9031,
            "contract": "contracts/data/dataRefinerRegistry/DataRefinerRegistryImplementation.sol:DataRefinerRegistryImplementation",
            "label": "owner",
            "offset": 0,
            "slot": "1",
            "type": "t_address"
          },
          {
            "astId": 9033,
            "contract": "contracts/data/dataRefinerRegistry/DataRefinerRegistryImplementation.sol:DataRefinerRegistryImplementation",
            "label": "name",
            "offset": 0,
            "slot": "2",
            "type": "t_string_storage"
          },
          {
            "astId": 9035,
            "contract": "contracts/data/dataRefinerRegistry/DataRefinerRegistryImplementation.sol:DataRefinerRegistryImplementation",
            "label": "schemaDefinitionUrl",
            "offset": 0,
            "slot": "3",
            "type": "t_string_storage"
          },
          {
            "astId": 9037,
            "contract": "contracts/data/dataRefinerRegistry/DataRefinerRegistryImplementation.sol:DataRefinerRegistryImplementation",
            "label": "refinementInstructionUrl",
            "offset": 0,
            "slot": "4",
            "type": "t_string_storage"
          },
          {
            "astId": 9039,
            "contract": "contracts/data/dataRefinerRegistry/DataRefinerRegistryImplementation.sol:DataRefinerRegistryImplementation",
            "label": "publicKey",
            "offset": 0,
            "slot": "5",
            "type": "t_string_storage"
          }
        ],
        "numberOfBytes": "192"
      },
      "t_struct(Set)4831_storage": {
        "encoding": "inplace",
        "label": "struct EnumerableSet.Set",
        "members": [
          {
            "astId": 4826,
            "contract": "contracts/data/dataRefinerRegistry/DataRefinerRegistryImplementation.sol:DataRefinerRegistryImplementation",
            "label": "_values",
            "offset": 0,
            "slot": "0",
            "type": "t_array(t_bytes32)dyn_storage"
          },
          {
            "astId": 4830,
            "contract": "contracts/data/dataRefinerRegistry/DataRefinerRegistryImplementation.sol:DataRefinerRegistryImplementation",
            "label": "_positions",
            "offset": 0,
            "slot": "1",
            "type": "t_mapping(t_bytes32,t_uint256)"
          }
        ],
        "numberOfBytes": "64"
      },
      "t_struct(UintSet)5303_storage": {
        "encoding": "inplace",
        "label": "struct EnumerableSet.UintSet",
        "members": [
          {
            "astId": 5302,
            "contract": "contracts/data/dataRefinerRegistry/DataRefinerRegistryImplementation.sol:DataRefinerRegistryImplementation",
            "label": "_inner",
            "offset": 0,
            "slot": "0",
            "type": "t_struct(Set)4831_storage"
          }
        ],
        "numberOfBytes": "64"
      },
      "t_uint256": {
        "encoding": "inplace",
        "label": "uint256",
        "numberOfBytes": "32"
      }
    }
  }
}