{
  "address": "0xb973E885dd9499afce7286978521f759654aDea0",
  "abi": [
    {
      "inputs": [],
      "stateMutability": "nonpayable",
      "type": "constructor"
    },
    {
      "inputs": [],
      "name": "AccessControlBadConfirmation",
      "type": "error"
    },
    {
      "inputs": [
        {
          "internalType": "address",
          "name": "account",
          "type": "address"
        },
        {
          "internalType": "bytes32",
          "name": "neededRole",
          "type": "bytes32"
        }
      ],
      "name": "AccessControlUnauthorizedAccount",
      "type": "error"
    },
    {
      "inputs": [
        {
          "internalType": "address",
          "name": "target",
          "type": "address"
        }
      ],
      "name": "AddressEmptyCode",
      "type": "error"
    },
    {
      "inputs": [
        {
          "internalType": "address",
          "name": "implementation",
          "type": "address"
        }
      ],
      "name": "ERC1967InvalidImplementation",
      "type": "error"
    },
    {
      "inputs": [],
      "name": "ERC1967NonPayable",
      "type": "error"
    },
    {
      "inputs": [],
      "name": "EnforcedPause",
      "type": "error"
    },
    {
      "inputs": [],
      "name": "ExpectedPause",
      "type": "error"
    },
    {
      "inputs": [],
      "name": "FailedInnerCall",
      "type": "error"
    },
    {
      "inputs": [],
      "name": "InvalidInitialization",
      "type": "error"
    },
    {
      "inputs": [],
      "name": "NotDlpOwner",
      "type": "error"
    },
    {
      "inputs": [],
      "name": "NotInitializing",
      "type": "error"
    },
    {
      "inputs": [],
      "name": "UUPSUnauthorizedCallContext",
      "type": "error"
    },
    {
      "inputs": [
        {
          "internalType": "bytes32",
          "name": "slot",
          "type": "bytes32"
        }
      ],
      "name": "UUPSUnsupportedProxiableUUID",
      "type": "error"
    },
    {
      "anonymous": false,
      "inputs": [
        {
          "indexed": false,
          "internalType": "uint64",
          "name": "version",
          "type": "uint64"
        }
      ],
      "name": "Initialized",
      "type": "event"
    },
    {
      "anonymous": false,
      "inputs": [
        {
          "indexed": false,
          "internalType": "address",
          "name": "account",
          "type": "address"
        }
      ],
      "name": "Paused",
      "type": "event"
    },
    {
      "anonymous": false,
      "inputs": [
        {
          "indexed": true,
          "internalType": "uint256",
          "name": "refinerId",
          "type": "uint256"
        },
        {
          "indexed": true,
          "internalType": "uint256",
          "name": "dlpId",
          "type": "uint256"
        },
        {
          "indexed": false,
          "internalType": "string",
          "name": "name",
          "type": "string"
        },
        {
          "indexed": false,
          "internalType": "string",
          "name": "schemaDefinitionUrl",
          "type": "string"
        },
        {
          "indexed": false,
          "internalType": "string",
          "name": "refinementInstructionUrl",
          "type": "string"
        }
      ],
      "name": "RefinerAdded",
      "type": "event"
    },
    {
      "anonymous": false,
      "inputs": [
        {
          "indexed": true,
          "internalType": "bytes32",
          "name": "role",
          "type": "bytes32"
        },
        {
          "indexed": true,
          "internalType": "bytes32",
          "name": "previousAdminRole",
          "type": "bytes32"
        },
        {
          "indexed": true,
          "internalType": "bytes32",
          "name": "newAdminRole",
          "type": "bytes32"
        }
      ],
      "name": "RoleAdminChanged",
      "type": "event"
    },
    {
      "anonymous": false,
      "inputs": [
        {
          "indexed": true,
          "internalType": "bytes32",
          "name": "role",
          "type": "bytes32"
        },
        {
          "indexed": true,
          "internalType": "address",
          "name": "account",
          "type": "address"
        },
        {
          "indexed": true,
          "internalType": "address",
          "name": "sender",
          "type": "address"
        }
      ],
      "name": "RoleGranted",
      "type": "event"
    },
    {
      "anonymous": false,
      "inputs": [
        {
          "indexed": true,
          "internalType": "bytes32",
          "name": "role",
          "type": "bytes32"
        },
        {
          "indexed": true,
          "internalType": "address",
          "name": "account",
          "type": "address"
        },
        {
          "indexed": true,
          "internalType": "address",
          "name": "sender",
          "type": "address"
        }
      ],
      "name": "RoleRevoked",
      "type": "event"
    },
    {
      "anonymous": false,
      "inputs": [
        {
          "indexed": false,
          "internalType": "address",
          "name": "account",
          "type": "address"
        }
      ],
      "name": "Unpaused",
      "type": "event"
    },
    {
      "anonymous": false,
      "inputs": [
        {
          "indexed": true,
          "internalType": "address",
          "name": "implementation",
          "type": "address"
        }
      ],
      "name": "Upgraded",
      "type": "event"
    },
    {
      "inputs": [],
      "name": "DEFAULT_ADMIN_ROLE",
      "outputs": [
        {
          "internalType": "bytes32",
          "name": "",
          "type": "bytes32"
        }
      ],
      "stateMutability": "view",
      "type": "function"
    },
    {
      "inputs": [],
      "name": "MAINTAINER_ROLE",
      "outputs": [
        {
          "internalType": "bytes32",
          "name": "",
          "type": "bytes32"
        }
      ],
      "stateMutability": "view",
      "type": "function"
    },
    {
      "inputs": [],
      "name": "UPGRADE_INTERFACE_VERSION",
      "outputs": [
        {
          "internalType": "string",
          "name": "",
          "type": "string"
        }
      ],
      "stateMutability": "view",
      "type": "function"
    },
    {
      "inputs": [
        {
          "internalType": "uint256",
          "name": "dlpId",
          "type": "uint256"
        },
        {
          "internalType": "string",
          "name": "name",
          "type": "string"
        },
        {
          "internalType": "string",
          "name": "schemaDefinitionUrl",
          "type": "string"
        },
        {
          "internalType": "string",
          "name": "refinementInstructionUrl",
          "type": "string"
        },
        {
          "internalType": "string",
          "name": "publicKey",
          "type": "string"
        }
      ],
      "name": "addRefiner",
      "outputs": [
        {
          "internalType": "uint256",
          "name": "",
          "type": "uint256"
        }
      ],
      "stateMutability": "nonpayable",
      "type": "function"
    },
    {
      "inputs": [
        {
          "internalType": "uint256",
          "name": "dlpId",
          "type": "uint256"
        }
      ],
      "name": "dlpRefiners",
      "outputs": [
        {
          "internalType": "uint256[]",
          "name": "",
          "type": "uint256[]"
        }
      ],
      "stateMutability": "view",
      "type": "function"
    },
    {
      "inputs": [],
      "name": "dlpRegistry",
      "outputs": [
        {
          "internalType": "contract IDLPRegistry",
          "name": "",
          "type": "address"
        }
      ],
      "stateMutability": "view",
      "type": "function"
    },
    {
      "inputs": [
        {
          "internalType": "bytes32",
          "name": "role",
          "type": "bytes32"
        }
      ],
      "name": "getRoleAdmin",
      "outputs": [
        {
          "internalType": "bytes32",
          "name": "",
          "type": "bytes32"
        }
      ],
      "stateMutability": "view",
      "type": "function"
    },
    {
      "inputs": [
        {
          "internalType": "bytes32",
          "name": "role",
          "type": "bytes32"
        },
        {
          "internalType": "address",
          "name": "account",
          "type": "address"
        }
      ],
      "name": "grantRole",
      "outputs": [],
      "stateMutability": "nonpayable",
      "type": "function"
    },
    {
      "inputs": [
        {
          "internalType": "bytes32",
          "name": "role",
          "type": "bytes32"
        },
        {
          "internalType": "address",
          "name": "account",
          "type": "address"
        }
      ],
      "name": "hasRole",
      "outputs": [
        {
          "internalType": "bool",
          "name": "",
          "type": "bool"
        }
      ],
      "stateMutability": "view",
      "type": "function"
    },
    {
      "inputs": [
        {
          "internalType": "address",
          "name": "ownerAddress",
          "type": "address"
        },
        {
          "internalType": "address",
          "name": "initDlpRegistryAddress",
          "type": "address"
        }
      ],
      "name": "initialize",
      "outputs": [],
      "stateMutability": "nonpayable",
      "type": "function"
    },
    {
      "inputs": [],
      "name": "pause",
      "outputs": [],
      "stateMutability": "nonpayable",
      "type": "function"
    },
    {
      "inputs": [],
      "name": "paused",
      "outputs": [
        {
          "internalType": "bool",
          "name": "",
          "type": "bool"
        }
      ],
      "stateMutability": "view",
      "type": "function"
    },
    {
      "inputs": [],
      "name": "proxiableUUID",
      "outputs": [
        {
          "internalType": "bytes32",
          "name": "",
          "type": "bytes32"
        }
      ],
      "stateMutability": "view",
      "type": "function"
    },
    {
      "inputs": [
        {
          "internalType": "uint256",
          "name": "refinerId",
          "type": "uint256"
        }
      ],
      "name": "refiners",
      "outputs": [
        {
          "components": [
            {
              "internalType": "uint256",
              "name": "dlpId",
              "type": "uint256"
            },
            {
              "internalType": "address",
              "name": "owner",
              "type": "address"
            },
            {
              "internalType": "string",
              "name": "name",
              "type": "string"
            },
            {
              "internalType": "string",
              "name": "schemaDefinitionUrl",
              "type": "string"
            },
            {
              "internalType": "string",
              "name": "refinementInstructionUrl",
              "type": "string"
            },
            {
              "internalType": "string",
              "name": "publicKey",
              "type": "string"
            }
          ],
          "internalType": "struct IDataRefinerRegistry.Refiner",
          "name": "",
          "type": "tuple"
        }
      ],
      "stateMutability": "view",
      "type": "function"
    },
    {
      "inputs": [],
      "name": "refinersCount",
      "outputs": [
        {
          "internalType": "uint256",
          "name": "",
          "type": "uint256"
        }
      ],
      "stateMutability": "view",
      "type": "function"
    },
    {
      "inputs": [
        {
          "internalType": "bytes32",
          "name": "role",
          "type": "bytes32"
        },
        {
          "internalType": "address",
          "name": "callerConfirmation",
          "type": "address"
        }
      ],
      "name": "renounceRole",
      "outputs": [],
      "stateMutability": "nonpayable",
      "type": "function"
    },
    {
      "inputs": [
        {
          "internalType": "bytes32",
          "name": "role",
          "type": "bytes32"
        },
        {
          "internalType": "address",
          "name": "account",
          "type": "address"
        }
      ],
      "name": "revokeRole",
      "outputs": [],
      "stateMutability": "nonpayable",
      "type": "function"
    },
    {
      "inputs": [
        {
          "internalType": "bytes4",
          "name": "interfaceId",
          "type": "bytes4"
        }
      ],
      "name": "supportsInterface",
      "outputs": [
        {
          "internalType": "bool",
          "name": "",
          "type": "bool"
        }
      ],
      "stateMutability": "view",
      "type": "function"
    },
    {
      "inputs": [],
      "name": "unpause",
      "outputs": [],
      "stateMutability": "nonpayable",
      "type": "function"
    },
    {
      "inputs": [
        {
          "internalType": "uint256",
          "name": "dlpId",
          "type": "uint256"
        }
      ],
      "name": "updateDlpRefinersOwner",
      "outputs": [],
      "stateMutability": "nonpayable",
      "type": "function"
    },
    {
      "inputs": [
        {
          "internalType": "address",
          "name": "newDlpRegistryAddress",
          "type": "address"
        }
      ],
      "name": "updateDlpRegistry",
      "outputs": [],
      "stateMutability": "nonpayable",
      "type": "function"
    },
    {
      "inputs": [
        {
          "internalType": "uint256",
          "name": "refinerId",
          "type": "uint256"
        }
      ],
      "name": "updateRefinerOwner",
      "outputs": [],
      "stateMutability": "nonpayable",
      "type": "function"
    },
    {
      "inputs": [
        {
          "internalType": "address",
          "name": "newImplementation",
          "type": "address"
        },
        {
          "internalType": "bytes",
          "name": "data",
          "type": "bytes"
        }
      ],
      "name": "upgradeToAndCall",
      "outputs": [],
      "stateMutability": "payable",
      "type": "function"
    },
    {
      "inputs": [],
      "name": "version",
      "outputs": [
        {
          "internalType": "uint256",
          "name": "",
          "type": "uint256"
        }
      ],
      "stateMutability": "pure",
      "type": "function"
    }
  ],
  "transactionHash": "0x04884b6476680ddd1ed067cad0151db0fa3a6e3b7c5e78d82416ff350db4711b",
  "args": [],
  "numDeployments": 1,
  "solcInputHash": "57e946644048818c3e534cbf3ed7fb8f",
  "bytecode": "0x60a06040523060805234801561001457600080fd5b5061001d610022565b6100d4565b7ff0c57e16840df040f15088dc2f81fe391c3923bec73e23a9662efc9c229c6a00805468010000000000000000900460ff16156100725760405163f92ee8a960e01b815260040160405180910390fd5b80546001600160401b03908116146100d15780546001600160401b0319166001600160401b0390811782556040519081527fc7f505b2f371ae2175ee4913f4499e1f2633a7b5936321eed1cdaeb6115181d29060200160405180910390a15b50565b608051611ec36100fd600039600081816110590152818161108201526111c60152611ec36000f3fe60806040526004361061011b5760003560e01c806301ffc9a7146101205780630fa40d31146101555780631eb2454b14610177578063248a9ca3146101975780632f2ff15d146101c557806336568abe146101e55780633f4ba83a14610205578063485cc9551461021a5780634bb01bbd1461023a5780634f1ef2861461025a57806352d1902d1461026d578063546dbbe31461028257806354fd4d50146102985780635c975abb146102ac5780637eb97e88146102c15780638456cb59146102ee57806391d14854146103035780639b996b0014610323578063a217fddf14610350578063ad3cb1cc14610365578063d547741f146103a3578063e0e5799e146103c3578063e4a9abbb146103f0578063f874225414610410575b600080fd5b34801561012c57600080fd5b5061014061013b3660046115ce565b610432565b60405190151581526020015b60405180910390f35b34801561016157600080fd5b506101756101703660046115f8565b610469565b005b34801561018357600080fd5b50610175610192366004611626565b610577565b3480156101a357600080fd5b506101b76101b23660046115f8565b6105b2565b60405190815260200161014c565b3480156101d157600080fd5b506101756101e0366004611643565b6105d2565b3480156101f157600080fd5b50610175610200366004611643565b6105f4565b34801561021157600080fd5b5061017561062c565b34801561022657600080fd5b50610175610235366004611673565b61064f565b34801561024657600080fd5b506101b76102553660046116e9565b6107b1565b61017561026836600461184e565b610945565b34801561027957600080fd5b506101b7610964565b34801561028e57600080fd5b506101b760015481565b3480156102a457600080fd5b5060016101b7565b3480156102b857600080fd5b50610140610981565b3480156102cd57600080fd5b506000546102e1906001600160a01b031681565b60405161014c91906118e0565b3480156102fa57600080fd5b50610175610996565b34801561030f57600080fd5b5061014061031e366004611643565b6109b6565b34801561032f57600080fd5b5061034361033e3660046115f8565b6109ec565b60405161014c9190611944565b34801561035c57600080fd5b506101b7600081565b34801561037157600080fd5b50610396604051806040016040528060058152602001640352e302e360dc1b81525081565b60405161014c91906119d5565b3480156103af57600080fd5b506101756103be366004611643565b610cb3565b3480156103cf57600080fd5b506103e36103de3660046115f8565b610ccf565b60405161014c91906119e8565b3480156103fc57600080fd5b5061017561040b3660046115f8565b610ce9565b34801561041c57600080fd5b506101b7600080516020611e6e83398151915281565b60006001600160e01b03198216637965db0b60e01b148061046357506301ffc9a760e01b6001600160e01b03198316145b92915050565b60005460405163ea83e47b60e01b815260048101839052829133916001600160a01b039091169063ea83e47b90602401600060405180830381865afa1580156104b6573d6000803e3d6000fd5b505050506040513d6000823e601f3d908101601f191682016040526104de9190810190611aa8565b604001516001600160a01b03161461050957604051633387d70760e01b815260040160405180910390fd5b610511610dc3565b60008281526003602052604081209061052982610deb565b905060005b818110156105705760006105428483610df5565b6000908152600260205260409020600190810180546001600160a01b0319163317905591909101905061052e565b5050505050565b600080516020611e6e83398151915261058f81610e08565b50600080546001600160a01b0319166001600160a01b0392909216919091179055565b6000806105bd610e12565b60009384526020525050604090206001015490565b6105db826105b2565b6105e481610e08565b6105ee8383610e36565b50505050565b6001600160a01b038116331461061d5760405163334bd91960e11b815260040160405180910390fd5b6106278282610ed7565b505050565b600080516020611e6e83398151915261064481610e08565b61064c610f4f565b50565b6000610659610fa6565b805490915060ff600160401b82041615906001600160401b03166000811580156106805750825b90506000826001600160401b0316600114801561069c5750303b155b9050811580156106aa575080155b156106c85760405163f92ee8a960e01b815260040160405180910390fd5b84546001600160401b031916600117855583156106f157845460ff60401b1916600160401b1785555b6106f9610fca565b610701610fd2565b610709610fca565b600080546001600160a01b0319166001600160a01b03881617815561073d90600080516020611e6e83398151915290610fe2565b610748600088610e36565b50610761600080516020611e6e83398151915288610e36565b5083156107a857845460ff60401b19168555604051600181527fc7f505b2f371ae2175ee4913f4499e1f2633a7b5936321eed1cdaeb6115181d29060200160405180910390a15b50505050505050565b6000805460405163ea83e47b60e01b8152600481018c90528b9133916001600160a01b039091169063ea83e47b90602401600060405180830381865afa1580156107ff573d6000803e3d6000fd5b505050506040513d6000823e601f3d908101601f191682016040526108279190810190611aa8565b604001516001600160a01b03161461085257604051633387d70760e01b815260040160405180910390fd5b61085a610dc3565b600060016000815461086b90611c20565b918290555060008181526002602081905260409091208e81556001810180546001600160a01b0319163317905591925081016108a88c8e83611cd1565b50600381016108b88a8c83611cd1565b50600481016108c8888a83611cd1565b50600581016108d8868883611cd1565b505060008c81526003602052604090206108f29082611042565b508b817fe71fe273d5db4214912e31c7615ae7f2492c5725b5fab47f12f56172e1d999468d8d8d8d8d8d60405161092e96959493929190611db9565b60405180910390a39b9a5050505050505050505050565b61094d61104e565b610956826110f3565b61096082826110fe565b5050565b600061096e6111bb565b50600080516020611e4e83398151915290565b60008061098c611204565b5460ff1692915050565b600080516020611e6e8339815191526109ae81610e08565b61064c611228565b6000806109c1610e12565b6000948552602090815260408086206001600160a01b03959095168652939052505090205460ff1690565b610a2e6040518060c001604052806000815260200160006001600160a01b03168152602001606081526020016060815260200160608152602001606081525090565b600082815260026020818152604092839020835160c0810185528154815260018201546001600160a01b03169281019290925291820180549193840191610a7490611c47565b80601f0160208091040260200160405190810160405280929190818152602001828054610aa090611c47565b8015610aed5780601f10610ac257610100808354040283529160200191610aed565b820191906000526020600020905b815481529060010190602001808311610ad057829003601f168201915b50505050508152602001600382018054610b0690611c47565b80601f0160208091040260200160405190810160405280929190818152602001828054610b3290611c47565b8015610b7f5780601f10610b5457610100808354040283529160200191610b7f565b820191906000526020600020905b815481529060010190602001808311610b6257829003601f168201915b50505050508152602001600482018054610b9890611c47565b80601f0160208091040260200160405190810160405280929190818152602001828054610bc490611c47565b8015610c115780601f10610be657610100808354040283529160200191610c11565b820191906000526020600020905b815481529060010190602001808311610bf457829003601f168201915b50505050508152602001600582018054610c2a90611c47565b80601f0160208091040260200160405190810160405280929190818152602001828054610c5690611c47565b8015610ca35780601f10610c7857610100808354040283529160200191610ca3565b820191906000526020600020905b815481529060010190602001808311610c8657829003601f168201915b5050505050815250509050919050565b610cbc826105b2565b610cc581610e08565b6105ee8383610ed7565b60008181526003602052604090206060906104639061126f565b610cf1610dc3565b60008181526002602052604080822091548254915163ea83e47b60e01b8152600481019290925233916001600160a01b039091169063ea83e47b90602401600060405180830381865afa158015610d4c573d6000803e3d6000fd5b505050506040513d6000823e601f3d908101601f19168201604052610d749190810190611aa8565b604001516001600160a01b031614610d9f57604051633387d70760e01b815260040160405180910390fd5b50600090815260026020526040902060010180546001600160a01b03191633179055565b610dcb610981565b15610de95760405163d93c066560e01b815260040160405180910390fd5b565b6000610463825490565b6000610e01838361127c565b9392505050565b61064c81336112a6565b7f02dd7bc7dec4dceedda775e58dd541e08a116c6c53815c0bd028192f7b62680090565b600080610e41610e12565b9050610e4d84846109b6565b610ecd576000848152602082815260408083206001600160a01b03871684529091529020805460ff19166001179055610e833390565b6001600160a01b0316836001600160a01b0316857f2f8788117e7eff1d82e926ec794901d17c78024a50270940304540a733656f0d60405160405180910390a46001915050610463565b6000915050610463565b600080610ee2610e12565b9050610eee84846109b6565b15610ecd576000848152602082815260408083206001600160a01b0387168085529252808320805460ff1916905551339287917ff6391f5c32d9c69d2a47ea670b442974b53935d1edc7fd64eb21e047a839171b9190a46001915050610463565b610f576112df565b6000610f61611204565b805460ff1916815590507f5db9ee0a495bf2e6ff9c91a7834c1ba4fdd244a5e8aa4e537bd38aeae4b073aa335b604051610f9b91906118e0565b60405180910390a150565b7ff0c57e16840df040f15088dc2f81fe391c3923bec73e23a9662efc9c229c6a0090565b610de9611304565b610fda611304565b610de9611329565b6000610fec610e12565b90506000610ff9846105b2565b600085815260208490526040808220600101869055519192508491839187917fbd79b86ffe0ab8e8776151514217cd7cacd52c909f66475c3af44e129f0b00ff9190a450505050565b6000610e018383611346565b306001600160a01b037f00000000000000000000000000000000000000000000000000000000000000001614806110d557507f00000000000000000000000000000000000000000000000000000000000000006001600160a01b03166110c9600080516020611e4e833981519152546001600160a01b031690565b6001600160a01b031614155b15610de95760405163703e46dd60e11b815260040160405180910390fd5b600061096081610e08565b816001600160a01b03166352d1902d6040518163ffffffff1660e01b8152600401602060405180830381865afa925050508015611158575060408051601f3d908101601f1916820190925261115591810190611e02565b60015b6111805781604051634c9c8ce360e01b815260040161117791906118e0565b60405180910390fd5b600080516020611e4e83398151915281146111b157604051632a87526960e21b815260048101829052602401611177565b6106278383611395565b306001600160a01b037f00000000000000000000000000000000000000000000000000000000000000001614610de95760405163703e46dd60e11b815260040160405180910390fd5b7fcd5ed15c6e187e77e9aee88184c21f4f2182ab5827cb3b7e07fbedcd63f0330090565b611230610dc3565b600061123a611204565b805460ff1916600117815590507f62e78cea01bee320cd4e420270b5ea74000d11b0c9f74754ebdbfc544b05a258610f8e3390565b60606000610e01836113eb565b600082600001828154811061129357611293611e1b565b9060005260206000200154905092915050565b6112b082826109b6565b6109605760405163e2517d3f60e01b81526001600160a01b038216600482015260248101839052604401611177565b6112e7610981565b610de957604051638dfc202b60e01b815260040160405180910390fd5b61130c611447565b610de957604051631afcd79f60e31b815260040160405180910390fd5b611331611304565b600061133b611204565b805460ff1916905550565b600081815260018301602052604081205461138d57508154600181810184556000848152602080822090930184905584548482528286019093526040902091909155610463565b506000610463565b61139e82611461565b6040516001600160a01b038316907fbc7cd75a20ee27fd9adebab32041f755214dbc6bffa90cc0225b39da2e5c2d3b90600090a28051156113e35761062782826114bd565b610960611533565b60608160000180548060200260200160405190810160405280929190818152602001828054801561143b57602002820191906000526020600020905b815481526020019060010190808311611427575b50505050509050919050565b6000611451610fa6565b54600160401b900460ff16919050565b806001600160a01b03163b60000361148e5780604051634c9c8ce360e01b815260040161117791906118e0565b600080516020611e4e83398151915280546001600160a01b0319166001600160a01b0392909216919091179055565b6060600080846001600160a01b0316846040516114da9190611e31565b600060405180830381855af49150503d8060008114611515576040519150601f19603f3d011682016040523d82523d6000602084013e61151a565b606091505b509150915061152a858383611552565b95945050505050565b3415610de95760405163b398979f60e01b815260040160405180910390fd5b60608261156757611562826115a5565b610e01565b815115801561157e57506001600160a01b0384163b155b1561159e5783604051639996b31560e01b815260040161117791906118e0565b5092915050565b8051156115b55780518082602001fd5b604051630a12f52160e11b815260040160405180910390fd5b6000602082840312156115e057600080fd5b81356001600160e01b031981168114610e0157600080fd5b60006020828403121561160a57600080fd5b5035919050565b6001600160a01b038116811461064c57600080fd5b60006020828403121561163857600080fd5b8135610e0181611611565b6000806040838503121561165657600080fd5b82359150602083013561166881611611565b809150509250929050565b6000806040838503121561168657600080fd5b823561169181611611565b9150602083013561166881611611565b60008083601f8401126116b357600080fd5b5081356001600160401b038111156116ca57600080fd5b6020830191508360208285010111156116e257600080fd5b9250929050565b600080600080600080600080600060a08a8c03121561170757600080fd5b8935985060208a01356001600160401b038082111561172557600080fd5b6117318d838e016116a1565b909a50985060408c013591508082111561174a57600080fd5b6117568d838e016116a1565b909850965060608c013591508082111561176f57600080fd5b61177b8d838e016116a1565b909650945060808c013591508082111561179457600080fd5b506117a18c828d016116a1565b915080935050809150509295985092959850929598565b634e487b7160e01b600052604160045260246000fd5b6040516101c081016001600160401b03811182821017156117f1576117f16117b8565b60405290565b604051601f8201601f191681016001600160401b038111828210171561181f5761181f6117b8565b604052919050565b60006001600160401b03821115611840576118406117b8565b50601f01601f191660200190565b6000806040838503121561186157600080fd5b823561186c81611611565b915060208301356001600160401b0381111561188757600080fd5b8301601f8101851361189857600080fd5b80356118ab6118a682611827565b6117f7565b8181528660208385010111156118c057600080fd5b816020840160208301376000602083830101528093505050509250929050565b6001600160a01b0391909116815260200190565b60005b8381101561190f5781810151838201526020016118f7565b50506000910152565b600081518084526119308160208601602086016118f4565b601f01601f19169290920160200192915050565b602081528151602082015260018060a01b0360208301511660408201526000604083015160c0606084015261197c60e0840182611918565b90506060840151601f198085840301608086015261199a8383611918565b925060808601519150808584030160a08601526119b78383611918565b925060a08601519150808584030160c08601525061152a8282611918565b602081526000610e016020830184611918565b6020808252825182820181905260009190848201906040850190845b81811015611a2057835183529284019291840191600101611a04565b50909695505050505050565b8051611a3781611611565b919050565b600082601f830112611a4d57600080fd5b8151611a5b6118a682611827565b818152846020838601011115611a7057600080fd5b611a818260208301602087016118f4565b949350505050565b805160048110611a3757600080fd5b80518015158114611a3757600080fd5b600060208284031215611aba57600080fd5b81516001600160401b0380821115611ad157600080fd5b908301906101c08286031215611ae657600080fd5b611aee6117ce565b82518152611afe60208401611a2c565b6020820152611b0f60408401611a2c565b6040820152611b2060608401611a2c565b6060820152611b3160808401611a2c565b608082015260a083015182811115611b4857600080fd5b611b5487828601611a3c565b60a08301525060c083015182811115611b6c57600080fd5b611b7887828601611a3c565b60c08301525060e083015182811115611b9057600080fd5b611b9c87828601611a3c565b60e0830152506101008084015183811115611bb657600080fd5b611bc288828701611a3c565b9183019190915250610120838101519082015261014080840151908201526101609150611bf0828401611a89565b82820152610180915081830151828201526101a09150611c11828401611a98565b91810191909152949350505050565b600060018201611c4057634e487b7160e01b600052601160045260246000fd5b5060010190565b600181811c90821680611c5b57607f821691505b602082108103611c7b57634e487b7160e01b600052602260045260246000fd5b50919050565b601f821115610627576000816000526020600020601f850160051c81016020861015611caa5750805b601f850160051c820191505b81811015611cc957828155600101611cb6565b505050505050565b6001600160401b03831115611ce857611ce86117b8565b611cfc83611cf68354611c47565b83611c81565b6000601f841160018114611d305760008515611d185750838201355b600019600387901b1c1916600186901b178355610570565b600083815260209020601f19861690835b82811015611d615786850135825560209485019460019092019101611d41565b5086821015611d7e5760001960f88860031b161c19848701351681555b505060018560011b0183555050505050565b81835281816020850137506000828201602090810191909152601f909101601f19169091010190565b606081526000611dcd60608301888a611d90565b8281036020840152611de0818789611d90565b90508281036040840152611df5818587611d90565b9998505050505050505050565b600060208284031215611e1457600080fd5b5051919050565b634e487b7160e01b600052603260045260246000fd5b60008251611e438184602087016118f4565b919091019291505056fe360894a13ba1a3210667c828492db98dca3e2076cc3735a920a3ca505d382bbc339759585899103d2ace64958e37e18ccb0504652c81d4a1b8aa80fe2126ab95a2646970667358221220d985b88aadff098d7d3c2aed00291c4137f4ac620c981feca29a5854d4fd8bd664736f6c63430008180033",
  "devdoc": {
    "errors": {
      "AccessControlBadConfirmation()": [
        {
          "details": "The caller of a function is not the expected one. NOTE: Don't confuse with {AccessControlUnauthorizedAccount}."
        }
      ],
      "AccessControlUnauthorizedAccount(address,bytes32)": [
        {
          "details": "The `account` is missing a role."
        }
      ],
      "AddressEmptyCode(address)": [
        {
          "details": "There's no code at `target` (it is not a contract)."
        }
      ],
      "ERC1967InvalidImplementation(address)": [
        {
          "details": "The `implementation` of the proxy is invalid."
        }
      ],
      "ERC1967NonPayable()": [
        {
          "details": "An upgrade function sees `msg.value > 0` that may be lost."
        }
      ],
      "EnforcedPause()": [
        {
          "details": "The operation failed because the contract is paused."
        }
      ],
      "ExpectedPause()": [
        {
          "details": "The operation failed because the contract is not paused."
        }
      ],
      "FailedInnerCall()": [
        {
          "details": "A call to an address target failed. The target may have reverted."
        }
      ],
      "InvalidInitialization()": [
        {
          "details": "The contract is already initialized."
        }
      ],
      "NotInitializing()": [
        {
          "details": "The contract is not initializing."
        }
      ],
      "UUPSUnauthorizedCallContext()": [
        {
          "details": "The call is from an unauthorized context."
        }
      ],
      "UUPSUnsupportedProxiableUUID(bytes32)": [
        {
          "details": "The storage `slot` is unsupported as a UUID."
        }
      ]
    },
    "events": {
      "Initialized(uint64)": {
        "details": "Triggered when the contract has been initialized or reinitialized."
      },
      "Paused(address)": {
        "details": "Emitted when the pause is triggered by `account`."
      },
      "RoleAdminChanged(bytes32,bytes32,bytes32)": {
        "details": "Emitted when `newAdminRole` is set as ``role``'s admin role, replacing `previousAdminRole` `DEFAULT_ADMIN_ROLE` is the starting admin for all roles, despite {RoleAdminChanged} not being emitted signaling this."
      },
      "RoleGranted(bytes32,address,address)": {
        "details": "Emitted when `account` is granted `role`. `sender` is the account that originated the contract call, an admin role bearer except when using {AccessControl-_setupRole}."
      },
      "RoleRevoked(bytes32,address,address)": {
        "details": "Emitted when `account` is revoked `role`. `sender` is the account that originated the contract call:   - if using `revokeRole`, it is the admin role bearer   - if using `renounceRole`, it is the role bearer (i.e. `account`)"
      },
      "Unpaused(address)": {
        "details": "Emitted when the pause is lifted by `account`."
      },
      "Upgraded(address)": {
        "details": "Emitted when the implementation is upgraded."
      }
    },
    "kind": "dev",
    "methods": {
      "addRefiner(uint256,string,string,string,string)": {
        "params": {
          "dlpId": "The ID of the DLP.",
          "name": "The name of the refiner.",
          "publicKey": "The public key to encrypt the refined encryption key (REK).",
          "refinementInstructionUrl": "The URL of the refinement Docker image.",
          "schemaDefinitionUrl": "The URL of the schema definition."
        },
        "returns": {
          "_0": "The ID of the refiner."
        }
      },
      "constructor": {
        "custom:oz-upgrades-unsafe-allow": "constructor"
      },
      "dlpRefiners(uint256)": {
        "params": {
          "dlpId": "The ID of the DLP."
        },
        "returns": {
          "_0": "An array of refiner IDs."
        }
      },
      "getRoleAdmin(bytes32)": {
        "details": "Returns the admin role that controls `role`. See {grantRole} and {revokeRole}. To change a role's admin, use {_setRoleAdmin}."
      },
      "grantRole(bytes32,address)": {
        "details": "Grants `role` to `account`. If `account` had not been already granted `role`, emits a {RoleGranted} event. Requirements: - the caller must have ``role``'s admin role. May emit a {RoleGranted} event."
      },
      "hasRole(bytes32,address)": {
        "details": "Returns `true` if `account` has been granted `role`."
      },
      "initialize(address,address)": {
        "params": {
          "ownerAddress": "Address of the owner"
        }
      },
      "paused()": {
        "details": "Returns true if the contract is paused, and false otherwise."
      },
      "proxiableUUID()": {
        "details": "Implementation of the ERC1822 {proxiableUUID} function. This returns the storage slot used by the implementation. It is used to validate the implementation's compatibility when performing an upgrade. IMPORTANT: A proxy pointing at a proxiable contract should not be considered proxiable itself, because this risks bricking a proxy that upgrades to it, by delegating to itself until out of gas. Thus it is critical that this function revert if invoked through a proxy. This is guaranteed by the `notDelegated` modifier."
      },
      "refiners(uint256)": {
        "params": {
          "refinerId": "The ID of the refiner."
        }
      },
      "renounceRole(bytes32,address)": {
        "details": "Revokes `role` from the calling account. Roles are often managed via {grantRole} and {revokeRole}: this function's purpose is to provide a mechanism for accounts to lose their privileges if they are compromised (such as when a trusted device is misplaced). If the calling account had been revoked `role`, emits a {RoleRevoked} event. Requirements: - the caller must be `callerConfirmation`. May emit a {RoleRevoked} event."
      },
      "revokeRole(bytes32,address)": {
        "details": "Revokes `role` from `account`. If `account` had been granted `role`, emits a {RoleRevoked} event. Requirements: - the caller must have ``role``'s admin role. May emit a {RoleRevoked} event."
      },
      "supportsInterface(bytes4)": {
        "details": "See {IERC165-supportsInterface}."
      },
      "updateDlpRefinersOwner(uint256)": {
        "details": "This function is called when the DLP owner changes.",
        "params": {
          "dlpId": "The ID of the DLP."
        }
      },
      "updateRefinerOwner(uint256)": {
        "params": {
          "refinerId": "The ID of the refiner."
        }
      },
      "upgradeToAndCall(address,bytes)": {
        "custom:oz-upgrades-unsafe-allow-reachable": "delegatecall",
        "details": "Upgrade the implementation of the proxy to `newImplementation`, and subsequently execute the function call encoded in `data`. Calls {_authorizeUpgrade}. Emits an {Upgraded} event."
      }
    },
    "version": 1
  },
  "userdoc": {
    "kind": "user",
    "methods": {
      "addRefiner(uint256,string,string,string,string)": {
        "notice": "Adds a refiner to the registry."
      },
      "dlpRefiners(uint256)": {
        "notice": "Returns the refiner IDs for a given DLP ID."
      },
      "dlpRegistry()": {
        "notice": "Returns the DLPRegistry contract address."
      },
      "initialize(address,address)": {
        "notice": "Initializes the contract"
      },
      "pause()": {
        "notice": "Pauses the contract."
      },
      "refiners(uint256)": {
        "notice": "Returns the refiner with the given ID."
      },
      "refinersCount()": {
        "notice": "Returns the number of refiners."
      },
      "unpause()": {
        "notice": "Unpauses the contract."
      },
      "updateDlpRefinersOwner(uint256)": {
        "notice": "Updates the owner of all refiners for a given DLP."
      },
      "updateDlpRegistry(address)": {
        "notice": "Updates the DLPRegistry contract address."
      },
      "updateRefinerOwner(uint256)": {
        "notice": "Updates the owner of a refiner."
      },
      "version()": {
        "notice": "Returns the version of the contract."
      }
    },
    "version": 1
  },
  "storageLayout": {
    "storage": [
      {
        "astId": 12677,
        "contract": "contracts/dataRefinerRegistry/DataRefinerRegistryImplementation.sol:DataRefinerRegistryImplementation",
        "label": "dlpRegistry",
        "offset": 0,
        "slot": "0",
        "type": "t_contract(IDLPRegistry)14752"
      },
      {
        "astId": 12680,
        "contract": "contracts/dataRefinerRegistry/DataRefinerRegistryImplementation.sol:DataRefinerRegistryImplementation",
        "label": "refinersCount",
        "offset": 0,
        "slot": "1",
        "type": "t_uint256"
      },
      {
        "astId": 12685,
        "contract": "contracts/dataRefinerRegistry/DataRefinerRegistryImplementation.sol:DataRefinerRegistryImplementation",
        "label": "_refiners",
        "offset": 0,
        "slot": "2",
        "type": "t_mapping(t_uint256,t_struct(Refiner)12708_storage)"
      },
      {
        "astId": 12690,
        "contract": "contracts/dataRefinerRegistry/DataRefinerRegistryImplementation.sol:DataRefinerRegistryImplementation",
        "label": "_dlpRefiners",
        "offset": 0,
        "slot": "3",
        "type": "t_mapping(t_uint256,t_struct(UintSet)7591_storage)"
      }
    ],
    "types": {
      "t_address": {
        "encoding": "inplace",
        "label": "address",
        "numberOfBytes": "20"
      },
      "t_array(t_bytes32)dyn_storage": {
        "base": "t_bytes32",
        "encoding": "dynamic_array",
        "label": "bytes32[]",
        "numberOfBytes": "32"
      },
      "t_bytes32": {
        "encoding": "inplace",
        "label": "bytes32",
        "numberOfBytes": "32"
      },
      "t_contract(IDLPRegistry)14752": {
        "encoding": "inplace",
        "label": "contract IDLPRegistry",
        "numberOfBytes": "20"
      },
      "t_mapping(t_bytes32,t_uint256)": {
        "encoding": "mapping",
        "key": "t_bytes32",
        "label": "mapping(bytes32 => uint256)",
        "numberOfBytes": "32",
        "value": "t_uint256"
      },
      "t_mapping(t_uint256,t_struct(Refiner)12708_storage)": {
        "encoding": "mapping",
        "key": "t_uint256",
        "label": "mapping(uint256 => struct IDataRefinerRegistry.Refiner)",
        "numberOfBytes": "32",
        "value": "t_struct(Refiner)12708_storage"
      },
      "t_mapping(t_uint256,t_struct(UintSet)7591_storage)": {
        "encoding": "mapping",
        "key": "t_uint256",
        "label": "mapping(uint256 => struct EnumerableSet.UintSet)",
        "numberOfBytes": "32",
        "value": "t_struct(UintSet)7591_storage"
      },
      "t_string_storage": {
        "encoding": "bytes",
        "label": "string",
        "numberOfBytes": "32"
      },
      "t_struct(Refiner)12708_storage": {
        "encoding": "inplace",
        "label": "struct IDataRefinerRegistry.Refiner",
        "members": [
          {
            "astId": 12697,
            "contract": "contracts/dataRefinerRegistry/DataRefinerRegistryImplementation.sol:DataRefinerRegistryImplementation",
            "label": "dlpId",
            "offset": 0,
            "slot": "0",
            "type": "t_uint256"
          },
          {
            "astId": 12699,
            "contract": "contracts/dataRefinerRegistry/DataRefinerRegistryImplementation.sol:DataRefinerRegistryImplementation",
            "label": "owner",
            "offset": 0,
            "slot": "1",
            "type": "t_address"
          },
          {
            "astId": 12701,
            "contract": "contracts/dataRefinerRegistry/DataRefinerRegistryImplementation.sol:DataRefinerRegistryImplementation",
            "label": "name",
            "offset": 0,
            "slot": "2",
            "type": "t_string_storage"
          },
          {
            "astId": 12703,
            "contract": "contracts/dataRefinerRegistry/DataRefinerRegistryImplementation.sol:DataRefinerRegistryImplementation",
            "label": "schemaDefinitionUrl",
            "offset": 0,
            "slot": "3",
            "type": "t_string_storage"
          },
          {
            "astId": 12705,
            "contract": "contracts/dataRefinerRegistry/DataRefinerRegistryImplementation.sol:DataRefinerRegistryImplementation",
            "label": "refinementInstructionUrl",
            "offset": 0,
            "slot": "4",
            "type": "t_string_storage"
          },
          {
            "astId": 12707,
            "contract": "contracts/dataRefinerRegistry/DataRefinerRegistryImplementation.sol:DataRefinerRegistryImplementation",
            "label": "publicKey",
            "offset": 0,
            "slot": "5",
            "type": "t_string_storage"
          }
        ],
        "numberOfBytes": "192"
      },
      "t_struct(Set)7119_storage": {
        "encoding": "inplace",
        "label": "struct EnumerableSet.Set",
        "members": [
          {
            "astId": 7114,
            "contract": "contracts/dataRefinerRegistry/DataRefinerRegistryImplementation.sol:DataRefinerRegistryImplementation",
            "label": "_values",
            "offset": 0,
            "slot": "0",
            "type": "t_array(t_bytes32)dyn_storage"
          },
          {
            "astId": 7118,
            "contract": "contracts/dataRefinerRegistry/DataRefinerRegistryImplementation.sol:DataRefinerRegistryImplementation",
            "label": "_positions",
            "offset": 0,
            "slot": "1",
            "type": "t_mapping(t_bytes32,t_uint256)"
          }
        ],
        "numberOfBytes": "64"
      },
      "t_struct(UintSet)7591_storage": {
        "encoding": "inplace",
        "label": "struct EnumerableSet.UintSet",
        "members": [
          {
            "astId": 7590,
            "contract": "contracts/dataRefinerRegistry/DataRefinerRegistryImplementation.sol:DataRefinerRegistryImplementation",
            "label": "_inner",
            "offset": 0,
            "slot": "0",
            "type": "t_struct(Set)7119_storage"
          }
        ],
        "numberOfBytes": "64"
      },
      "t_uint256": {
        "encoding": "inplace",
        "label": "uint256",
        "numberOfBytes": "32"
      }
    }
  }
}