{
  "address": "0x31E937b5F4B8EB806566Bbd34BF20a51D07849Da",
  "abi": [
    {
      "inputs": [],
      "stateMutability": "nonpayable",
      "type": "constructor"
    },
    {
      "inputs": [],
      "name": "AccessControlBadConfirmation",
      "type": "error"
    },
    {
      "inputs": [
        {
          "internalType": "address",
          "name": "account",
          "type": "address"
        },
        {
          "internalType": "bytes32",
          "name": "neededRole",
          "type": "bytes32"
        }
      ],
      "name": "AccessControlUnauthorizedAccount",
      "type": "error"
    },
    {
      "inputs": [
        {
          "internalType": "address",
          "name": "target",
          "type": "address"
        }
      ],
      "name": "AddressEmptyCode",
      "type": "error"
    },
    {
      "inputs": [
        {
          "internalType": "address",
          "name": "implementation",
          "type": "address"
        }
      ],
      "name": "ERC1967InvalidImplementation",
      "type": "error"
    },
    {
      "inputs": [],
      "name": "ERC1967NonPayable",
      "type": "error"
    },
    {
      "inputs": [],
      "name": "EnforcedPause",
      "type": "error"
    },
    {
      "inputs": [],
      "name": "ExpectedPause",
      "type": "error"
    },
    {
      "inputs": [],
      "name": "FailedInnerCall",
      "type": "error"
    },
    {
      "inputs": [],
      "name": "InvalidInitialization",
      "type": "error"
    },
    {
      "inputs": [],
      "name": "NotInitializing",
      "type": "error"
    },
    {
      "inputs": [],
      "name": "UUPSUnauthorizedCallContext",
      "type": "error"
    },
    {
      "inputs": [
        {
          "internalType": "bytes32",
          "name": "slot",
          "type": "bytes32"
        }
      ],
      "name": "UUPSUnsupportedProxiableUUID",
      "type": "error"
    },
    {
      "anonymous": false,
      "inputs": [
        {
          "indexed": true,
          "internalType": "uint256",
          "name": "epochId",
          "type": "uint256"
        },
        {
          "indexed": true,
          "internalType": "uint256",
          "name": "dlpId",
          "type": "uint256"
        },
        {
          "indexed": false,
          "internalType": "uint256",
          "name": "performanceRating",
          "type": "uint256"
        },
        {
          "indexed": false,
          "internalType": "uint256",
          "name": "tradingVolume",
          "type": "uint256"
        },
        {
          "indexed": false,
          "internalType": "uint256",
          "name": "uniqueContributors",
          "type": "uint256"
        },
        {
          "indexed": false,
          "internalType": "uint256",
          "name": "dataAccessFees",
          "type": "uint256"
        }
      ],
      "name": "EpochDlpPerformancesSaved",
      "type": "event"
    },
    {
      "anonymous": false,
      "inputs": [
        {
          "indexed": false,
          "internalType": "uint64",
          "name": "version",
          "type": "uint64"
        }
      ],
      "name": "Initialized",
      "type": "event"
    },
    {
      "anonymous": false,
      "inputs": [
        {
          "indexed": false,
          "internalType": "address",
          "name": "account",
          "type": "address"
        }
      ],
      "name": "Paused",
      "type": "event"
    },
    {
      "anonymous": false,
      "inputs": [
        {
          "indexed": true,
          "internalType": "bytes32",
          "name": "role",
          "type": "bytes32"
        },
        {
          "indexed": true,
          "internalType": "bytes32",
          "name": "previousAdminRole",
          "type": "bytes32"
        },
        {
          "indexed": true,
          "internalType": "bytes32",
          "name": "newAdminRole",
          "type": "bytes32"
        }
      ],
      "name": "RoleAdminChanged",
      "type": "event"
    },
    {
      "anonymous": false,
      "inputs": [
        {
          "indexed": true,
          "internalType": "bytes32",
          "name": "role",
          "type": "bytes32"
        },
        {
          "indexed": true,
          "internalType": "address",
          "name": "account",
          "type": "address"
        },
        {
          "indexed": true,
          "internalType": "address",
          "name": "sender",
          "type": "address"
        }
      ],
      "name": "RoleGranted",
      "type": "event"
    },
    {
      "anonymous": false,
      "inputs": [
        {
          "indexed": true,
          "internalType": "bytes32",
          "name": "role",
          "type": "bytes32"
        },
        {
          "indexed": true,
          "internalType": "address",
          "name": "account",
          "type": "address"
        },
        {
          "indexed": true,
          "internalType": "address",
          "name": "sender",
          "type": "address"
        }
      ],
      "name": "RoleRevoked",
      "type": "event"
    },
    {
      "anonymous": false,
      "inputs": [
        {
          "indexed": false,
          "internalType": "address",
          "name": "account",
          "type": "address"
        }
      ],
      "name": "Unpaused",
      "type": "event"
    },
    {
      "anonymous": false,
      "inputs": [
        {
          "indexed": true,
          "internalType": "address",
          "name": "implementation",
          "type": "address"
        }
      ],
      "name": "Upgraded",
      "type": "event"
    },
    {
      "inputs": [],
      "name": "DEFAULT_ADMIN_ROLE",
      "outputs": [
        {
          "internalType": "bytes32",
          "name": "",
          "type": "bytes32"
        }
      ],
      "stateMutability": "view",
      "type": "function"
    },
    {
      "inputs": [],
      "name": "MAINTAINER_ROLE",
      "outputs": [
        {
          "internalType": "bytes32",
          "name": "",
          "type": "bytes32"
        }
      ],
      "stateMutability": "view",
      "type": "function"
    },
    {
      "inputs": [],
      "name": "MANAGER_ROLE",
      "outputs": [
        {
          "internalType": "bytes32",
          "name": "",
          "type": "bytes32"
        }
      ],
      "stateMutability": "view",
      "type": "function"
    },
    {
      "inputs": [],
      "name": "UPGRADE_INTERFACE_VERSION",
      "outputs": [
        {
          "internalType": "string",
          "name": "",
          "type": "string"
        }
      ],
      "stateMutability": "view",
      "type": "function"
    },
    {
      "inputs": [],
      "name": "dlpRegistry",
      "outputs": [
        {
          "internalType": "contract IDLPRegistry",
          "name": "",
          "type": "address"
        }
      ],
      "stateMutability": "view",
      "type": "function"
    },
    {
      "inputs": [
        {
          "internalType": "uint256",
          "name": "epochId",
          "type": "uint256"
        },
        {
          "internalType": "uint256",
          "name": "dlpId",
          "type": "uint256"
        }
      ],
      "name": "epochDlpPerformances",
      "outputs": [
        {
          "components": [
            {
              "internalType": "uint256",
              "name": "totalScore",
              "type": "uint256"
            },
            {
              "internalType": "uint256",
              "name": "tradingVolume",
              "type": "uint256"
            },
            {
              "internalType": "uint256",
              "name": "uniqueContributors",
              "type": "uint256"
            },
            {
              "internalType": "uint256",
              "name": "dataAccessFees",
              "type": "uint256"
            }
          ],
          "internalType": "struct IDLPPerformance.EpochDlpPerformanceInfo",
          "name": "",
          "type": "tuple"
        }
      ],
      "stateMutability": "view",
      "type": "function"
    },
    {
      "inputs": [
        {
          "internalType": "bytes32",
          "name": "role",
          "type": "bytes32"
        }
      ],
      "name": "getRoleAdmin",
      "outputs": [
        {
          "internalType": "bytes32",
          "name": "",
          "type": "bytes32"
        }
      ],
      "stateMutability": "view",
      "type": "function"
    },
    {
      "inputs": [
        {
          "internalType": "bytes32",
          "name": "role",
          "type": "bytes32"
        },
        {
          "internalType": "address",
          "name": "account",
          "type": "address"
        }
      ],
      "name": "grantRole",
      "outputs": [],
      "stateMutability": "nonpayable",
      "type": "function"
    },
    {
      "inputs": [
        {
          "internalType": "bytes32",
          "name": "role",
          "type": "bytes32"
        },
        {
          "internalType": "address",
          "name": "account",
          "type": "address"
        }
      ],
      "name": "hasRole",
      "outputs": [
        {
          "internalType": "bool",
          "name": "",
          "type": "bool"
        }
      ],
      "stateMutability": "view",
      "type": "function"
    },
    {
      "inputs": [
        {
          "internalType": "address",
          "name": "ownerAddress",
          "type": "address"
        },
        {
          "internalType": "address",
          "name": "dlpRegistryAddress",
          "type": "address"
        }
      ],
      "name": "initialize",
      "outputs": [],
      "stateMutability": "nonpayable",
      "type": "function"
    },
    {
      "inputs": [],
      "name": "pause",
      "outputs": [],
      "stateMutability": "nonpayable",
      "type": "function"
    },
    {
      "inputs": [],
      "name": "paused",
      "outputs": [
        {
          "internalType": "bool",
          "name": "",
          "type": "bool"
        }
      ],
      "stateMutability": "view",
      "type": "function"
    },
    {
      "inputs": [],
      "name": "proxiableUUID",
      "outputs": [
        {
          "internalType": "bytes32",
          "name": "",
          "type": "bytes32"
        }
      ],
      "stateMutability": "view",
      "type": "function"
    },
    {
      "inputs": [
        {
          "internalType": "bytes32",
          "name": "role",
          "type": "bytes32"
        },
        {
          "internalType": "address",
          "name": "callerConfirmation",
          "type": "address"
        }
      ],
      "name": "renounceRole",
      "outputs": [],
      "stateMutability": "nonpayable",
      "type": "function"
    },
    {
      "inputs": [
        {
          "internalType": "bytes32",
          "name": "role",
          "type": "bytes32"
        },
        {
          "internalType": "address",
          "name": "account",
          "type": "address"
        }
      ],
      "name": "revokeRole",
      "outputs": [],
      "stateMutability": "nonpayable",
      "type": "function"
    },
    {
      "inputs": [
        {
          "internalType": "uint256",
          "name": "epochId",
          "type": "uint256"
        },
        {
          "components": [
            {
              "internalType": "uint256",
              "name": "dlpId",
              "type": "uint256"
            },
            {
              "internalType": "uint256",
              "name": "totalScore",
              "type": "uint256"
            },
            {
              "internalType": "uint256",
              "name": "tradingVolume",
              "type": "uint256"
            },
            {
              "internalType": "uint256",
              "name": "uniqueContributors",
              "type": "uint256"
            },
            {
              "internalType": "uint256",
              "name": "dataAccessFees",
              "type": "uint256"
            }
          ],
          "internalType": "struct IDLPPerformance.EpochDlpPerformanceInput[]",
          "name": "epochDlpPerformances",
          "type": "tuple[]"
        },
        {
          "internalType": "bool",
          "name": "finalScores",
          "type": "bool"
        }
      ],
      "name": "saveEpochPerformances",
      "outputs": [],
      "stateMutability": "nonpayable",
      "type": "function"
    },
    {
      "inputs": [
        {
          "internalType": "bytes4",
          "name": "interfaceId",
          "type": "bytes4"
        }
      ],
      "name": "supportsInterface",
      "outputs": [
        {
          "internalType": "bool",
          "name": "",
          "type": "bool"
        }
      ],
      "stateMutability": "view",
      "type": "function"
    },
    {
      "inputs": [],
      "name": "unpause",
      "outputs": [],
      "stateMutability": "nonpayable",
      "type": "function"
    },
    {
      "inputs": [
        {
          "internalType": "address",
          "name": "dlpRegistryAddress",
          "type": "address"
        }
      ],
      "name": "updateDlpRegistry",
      "outputs": [],
      "stateMutability": "nonpayable",
      "type": "function"
    },
    {
      "inputs": [
        {
          "internalType": "address",
          "name": "vanaEpochAddress",
          "type": "address"
        }
      ],
      "name": "updateVanaEpoch",
      "outputs": [],
      "stateMutability": "nonpayable",
      "type": "function"
    },
    {
      "inputs": [
        {
          "internalType": "address",
          "name": "newImplementation",
          "type": "address"
        },
        {
          "internalType": "bytes",
          "name": "data",
          "type": "bytes"
        }
      ],
      "name": "upgradeToAndCall",
      "outputs": [],
      "stateMutability": "payable",
      "type": "function"
    },
    {
      "inputs": [],
      "name": "vanaEpoch",
      "outputs": [
        {
          "internalType": "contract IVanaEpoch",
          "name": "",
          "type": "address"
        }
      ],
      "stateMutability": "view",
      "type": "function"
    },
    {
      "inputs": [],
      "name": "version",
      "outputs": [
        {
          "internalType": "uint256",
          "name": "",
          "type": "uint256"
        }
      ],
      "stateMutability": "pure",
      "type": "function"
    }
  ],
  "transactionHash": "0x200653496200ef370a4bf643c92ebc8514b4643491def84b499e6f2ee124f329",
  "args": [],
  "numDeployments": 2,
  "solcInputHash": "ea1c70a57263888101d7e476ad5f66ec",
  "bytecode": "0x60a06040523060805234801561001457600080fd5b5061001d610022565b6100d4565b7ff0c57e16840df040f15088dc2f81fe391c3923bec73e23a9662efc9c229c6a00805468010000000000000000900460ff16156100725760405163f92ee8a960e01b815260040160405180910390fd5b80546001600160401b03908116146100d15780546001600160401b0319166001600160401b0390811782556040519081527fc7f505b2f371ae2175ee4913f4499e1f2633a7b5936321eed1cdaeb6115181d29060200160405180910390a15b50565b6080516117726100fd60003960008181610dc901528181610df20152610f3601526117726000f3fe6080604052600436106101105760003560e01c8063016102301461011557806301ffc9a71461014b5780630cff21a61461017b5780631eb2454b146101ce578063248a9ca3146101f05780632f2ff15d1461021e57806336568abe1461023e5780633f4ba83a1461025e578063467bb54514610273578063485cc955146102935780634f1ef286146102b357806352d1902d146102c657806354fd4d50146102db57806357e04157146102ef5780635c975abb1461030f5780637eb97e88146103245780638456cb591461034457806391d1485414610359578063a217fddf14610379578063ad3cb1cc1461038e578063d547741f146103cc578063ec87621c146103ec578063f87422541461040e575b600080fd5b34801561012157600080fd5b50600154610135906001600160a01b031681565b6040516101429190611285565b60405180910390f35b34801561015757600080fd5b5061016b610166366004611299565b610430565b6040519015158152602001610142565b34801561018757600080fd5b5061019b6101963660046112c3565b610467565b60405161014291908151815260208083015190820152604080830151908201526060918201519181019190915260800190565b3480156101da57600080fd5b506101ee6101e9366004611301565b6104dd565b005b3480156101fc57600080fd5b5061021061020b36600461131c565b610518565b604051908152602001610142565b34801561022a57600080fd5b506101ee610239366004611335565b610538565b34801561024a57600080fd5b506101ee610259366004611335565b61055a565b34801561026a57600080fd5b506101ee610592565b34801561027f57600080fd5b506101ee61028e366004611301565b6105b5565b34801561029f57600080fd5b506101ee6102ae366004611361565b6105f0565b6101ee6102c13660046113d1565b610778565b3480156102d257600080fd5b50610210610797565b3480156102e757600080fd5b506001610210565b3480156102fb57600080fd5b506101ee61030a366004611488565b6107b4565b34801561031b57600080fd5b5061016b610afb565b34801561033057600080fd5b50600054610135906001600160a01b031681565b34801561035057600080fd5b506101ee610b10565b34801561036557600080fd5b5061016b610374366004611335565b610b30565b34801561038557600080fd5b50610210600081565b34801561039a57600080fd5b506103bf604051806040016040528060058152602001640352e302e360dc1b81525081565b604051610142919061153e565b3480156103d857600080fd5b506101ee6103e7366004611335565b610b66565b3480156103f857600080fd5b506102106000805160206116fd83398151915281565b34801561041a57600080fd5b5061021060008051602061171d83398151915281565b60006001600160e01b03198216637965db0b60e01b148061046157506301ffc9a760e01b6001600160e01b03198316145b92915050565b6104926040518060800160405280600081526020016000815260200160008152602001600081525090565b50600091825260026020818152604080852093855292815292829020825160808101845281548152600182015494810194909452908101549183019190915260030154606082015290565b60008051602061171d8339815191526104f581610b82565b50600080546001600160a01b0319166001600160a01b0392909216919091179055565b600080610523610b8c565b60009384526020525050604090206001015490565b61054182610518565b61054a81610b82565b6105548383610bb0565b50505050565b6001600160a01b03811633146105835760405163334bd91960e11b815260040160405180910390fd5b61058d8282610c51565b505050565b60008051602061171d8339815191526105aa81610b82565b6105b2610cc9565b50565b60008051602061171d8339815191526105cd81610b82565b50600180546001600160a01b0319166001600160a01b0392909216919091179055565b60006105fa610d20565b805490915060ff600160401b82041615906001600160401b03166000811580156106215750825b90506000826001600160401b0316600114801561063d5750303b155b90508115801561064b575080155b156106695760405163f92ee8a960e01b815260040160405180910390fd5b84546001600160401b0319166001178555831561069257845460ff60401b1916600160401b1785555b61069a610d44565b6106a2610d44565b6106aa610d4e565b600080546001600160a01b0319166001600160a01b0388161790556106eb6000805160206116fd83398151915260008051602061171d833981519152610d5e565b6106f6600088610bb0565b5061070f60008051602061171d83398151915288610bb0565b506107286000805160206116fd83398151915288610bb0565b50831561076f57845460ff60401b19168555604051600181527fc7f505b2f371ae2175ee4913f4499e1f2633a7b5936321eed1cdaeb6115181d29060200160405180910390a15b50505050505050565b610780610dbe565b61078982610e63565b6107938282610e6e565b5050565b60006107a1610f2b565b506000805160206116dd83398151915290565b6000805160206116fd8339815191526107cc81610b82565b6107d4610f74565b600160009054906101000a90046001600160a01b03166001600160a01b03166376bc98696040518163ffffffff1660e01b8152600401600060405180830381600087803b15801561082457600080fd5b505af1158015610838573d6000803e3d6000fd5b50506001546040516331ad879360e21b815260048101899052600093506001600160a01b03909116915063c6b61e4c90602401608060405180830381865afa158015610888573d6000803e3d6000fd5b505050506040513d601f19601f820116820180604052508101906108ac9190611571565b6040015190506000846001600160401b038111156108cc576108cc61138b565b60405190808252806020026020018201604052801561091157816020015b60408051808201909152600080825260208201528152602001906001900390816108ea5790505b50905060005b85811015610a8b5736878783818110610932576109326115e4565b905060a00201905060405180608001604052808260200135815260200182604001358152602001826060013581526020018260800135815250600260008b8152602001908152602001600020600001600083600001358152602001908152602001600020600082015181600001556020820151816001015560408201518160020155606082015181600301559050508060000135897f8451c0ff0f2076a5193daa9b1e6dff65e97d585d9365df60b8fe21772e70b6328360200135846040013585606001358660800135604051610a22949392919093845260208401929092526040830152606082015260800190565b60405180910390a3604051806040016040528082600001358152602001670de0b6b3a7640000868460200135610a5891906115fa565b610a62919061161f565b815250838381518110610a7757610a776115e4565b602090810291909101015250600101610917565b50600154604051630c8d7fef60e01b81526001600160a01b0390911690630c8d7fef90610ac0908a9085908990600401611641565b600060405180830381600087803b158015610ada57600080fd5b505af1158015610aee573d6000803e3d6000fd5b5050505050505050505050565b600080610b06610f9a565b5460ff1692915050565b60008051602061171d833981519152610b2881610b82565b6105b2610fbe565b600080610b3b610b8c565b6000948552602090815260408086206001600160a01b03959095168652939052505090205460ff1690565b610b6f82610518565b610b7881610b82565b6105548383610c51565b6105b28133611005565b7f02dd7bc7dec4dceedda775e58dd541e08a116c6c53815c0bd028192f7b62680090565b600080610bbb610b8c565b9050610bc78484610b30565b610c47576000848152602082815260408083206001600160a01b03871684529091529020805460ff19166001179055610bfd3390565b6001600160a01b0316836001600160a01b0316857f2f8788117e7eff1d82e926ec794901d17c78024a50270940304540a733656f0d60405160405180910390a46001915050610461565b6000915050610461565b600080610c5c610b8c565b9050610c688484610b30565b15610c47576000848152602082815260408083206001600160a01b0387168085529252808320805460ff1916905551339287917ff6391f5c32d9c69d2a47ea670b442974b53935d1edc7fd64eb21e047a839171b9190a46001915050610461565b610cd161103e565b6000610cdb610f9a565b805460ff1916815590507f5db9ee0a495bf2e6ff9c91a7834c1ba4fdd244a5e8aa4e537bd38aeae4b073aa335b604051610d159190611285565b60405180910390a150565b7ff0c57e16840df040f15088dc2f81fe391c3923bec73e23a9662efc9c229c6a0090565b610d4c611063565b565b610d56611063565b610d4c611088565b6000610d68610b8c565b90506000610d7584610518565b600085815260208490526040808220600101869055519192508491839187917fbd79b86ffe0ab8e8776151514217cd7cacd52c909f66475c3af44e129f0b00ff9190a450505050565b306001600160a01b037f0000000000000000000000000000000000000000000000000000000000000000161480610e4557507f00000000000000000000000000000000000000000000000000000000000000006001600160a01b0316610e396000805160206116dd833981519152546001600160a01b031690565b6001600160a01b031614155b15610d4c5760405163703e46dd60e11b815260040160405180910390fd5b600061079381610b82565b816001600160a01b03166352d1902d6040518163ffffffff1660e01b8152600401602060405180830381865afa925050508015610ec8575060408051601f3d908101601f19168201909252610ec5918101906116a7565b60015b610ef05781604051634c9c8ce360e01b8152600401610ee79190611285565b60405180910390fd5b6000805160206116dd8339815191528114610f2157604051632a87526960e21b815260048101829052602401610ee7565b61058d83836110a5565b306001600160a01b037f00000000000000000000000000000000000000000000000000000000000000001614610d4c5760405163703e46dd60e11b815260040160405180910390fd5b610f7c610afb565b15610d4c5760405163d93c066560e01b815260040160405180910390fd5b7fcd5ed15c6e187e77e9aee88184c21f4f2182ab5827cb3b7e07fbedcd63f0330090565b610fc6610f74565b6000610fd0610f9a565b805460ff1916600117815590507f62e78cea01bee320cd4e420270b5ea74000d11b0c9f74754ebdbfc544b05a258610d083390565b61100f8282610b30565b6107935760405163e2517d3f60e01b81526001600160a01b038216600482015260248101839052604401610ee7565b611046610afb565b610d4c57604051638dfc202b60e01b815260040160405180910390fd5b61106b6110fb565b610d4c57604051631afcd79f60e31b815260040160405180910390fd5b611090611063565b600061109a610f9a565b805460ff1916905550565b6110ae82611115565b6040516001600160a01b038316907fbc7cd75a20ee27fd9adebab32041f755214dbc6bffa90cc0225b39da2e5c2d3b90600090a28051156110f35761058d8282611171565b6107936111e7565b6000611105610d20565b54600160401b900460ff16919050565b806001600160a01b03163b6000036111425780604051634c9c8ce360e01b8152600401610ee79190611285565b6000805160206116dd83398151915280546001600160a01b0319166001600160a01b0392909216919091179055565b6060600080846001600160a01b03168460405161118e91906116c0565b600060405180830381855af49150503d80600081146111c9576040519150601f19603f3d011682016040523d82523d6000602084013e6111ce565b606091505b50915091506111de858383611206565b95945050505050565b3415610d4c5760405163b398979f60e01b815260040160405180910390fd5b60608261121b576112168261125c565b611255565b815115801561123257506001600160a01b0384163b155b156112525783604051639996b31560e01b8152600401610ee79190611285565b50805b9392505050565b80511561126c5780518082602001fd5b604051630a12f52160e11b815260040160405180910390fd5b6001600160a01b0391909116815260200190565b6000602082840312156112ab57600080fd5b81356001600160e01b03198116811461125557600080fd5b600080604083850312156112d657600080fd5b50508035926020909101359150565b80356001600160a01b03811681146112fc57600080fd5b919050565b60006020828403121561131357600080fd5b611255826112e5565b60006020828403121561132e57600080fd5b5035919050565b6000806040838503121561134857600080fd5b82359150611358602084016112e5565b90509250929050565b6000806040838503121561137457600080fd5b61137d836112e5565b9150611358602084016112e5565b634e487b7160e01b600052604160045260246000fd5b604051601f8201601f191681016001600160401b03811182821017156113c9576113c961138b565b604052919050565b600080604083850312156113e457600080fd5b6113ed836112e5565b915060208301356001600160401b0381111561140857600080fd5b8301601f8101851361141957600080fd5b80356001600160401b038111156114325761143261138b565b611445601f8201601f19166020016113a1565b81815286602083850101111561145a57600080fd5b816020840160208301376000602083830101528093505050509250929050565b80151581146105b257600080fd5b6000806000806060858703121561149e57600080fd5b8435935060208501356001600160401b038111156114bb57600080fd5b8501601f810187136114cc57600080fd5b80356001600160401b038111156114e257600080fd5b87602060a0830284010111156114f757600080fd5b60209190910193509150604085013561150f8161147a565b939692955090935050565b60005b8381101561153557818101518382015260200161151d565b50506000910152565b602081526000825180602084015261155d81604085016020870161151a565b601f01601f19169190910160400192915050565b6000608082840312801561158457600080fd5b50604051600090608081016001600160401b03811182821017156115aa576115aa61138b565b604090815284518252602080860151908301528481015190820152606084015191506115d58261147a565b60608101919091529392505050565b634e487b7160e01b600052603260045260246000fd5b808202811582820484141761046157634e487b7160e01b600052601160045260246000fd5b60008261163c57634e487b7160e01b600052601260045260246000fd5b500490565b6000606082018583526060602084015280855180835260808501915060208701925060005b81811015611690578351805184526020908101518185015290930192604090920191600101611666565b505080925050508215156040830152949350505050565b6000602082840312156116b957600080fd5b5051919050565b600082516116d281846020870161151a565b919091019291505056fe360894a13ba1a3210667c828492db98dca3e2076cc3735a920a3ca505d382bbc241ecf16d79d0f8dbfb92cbc07fe17840425976cf0667f022fe9877caa831b08339759585899103d2ace64958e37e18ccb0504652c81d4a1b8aa80fe2126ab95a26469706673582212208d679d626265064c8844653c7781d86ed413dbadd80d6f0ad061bd98ef3fb58c64736f6c634300081c0033",
  "devdoc": {
    "errors": {
      "AccessControlBadConfirmation()": [
        {
          "details": "The caller of a function is not the expected one. NOTE: Don't confuse with {AccessControlUnauthorizedAccount}."
        }
      ],
      "AccessControlUnauthorizedAccount(address,bytes32)": [
        {
          "details": "The `account` is missing a role."
        }
      ],
      "AddressEmptyCode(address)": [
        {
          "details": "There's no code at `target` (it is not a contract)."
        }
      ],
      "ERC1967InvalidImplementation(address)": [
        {
          "details": "The `implementation` of the proxy is invalid."
        }
      ],
      "ERC1967NonPayable()": [
        {
          "details": "An upgrade function sees `msg.value > 0` that may be lost."
        }
      ],
      "EnforcedPause()": [
        {
          "details": "The operation failed because the contract is paused."
        }
      ],
      "ExpectedPause()": [
        {
          "details": "The operation failed because the contract is not paused."
        }
      ],
      "FailedInnerCall()": [
        {
          "details": "A call to an address target failed. The target may have reverted."
        }
      ],
      "InvalidInitialization()": [
        {
          "details": "The contract is already initialized."
        }
      ],
      "NotInitializing()": [
        {
          "details": "The contract is not initializing."
        }
      ],
      "UUPSUnauthorizedCallContext()": [
        {
          "details": "The call is from an unauthorized context."
        }
      ],
      "UUPSUnsupportedProxiableUUID(bytes32)": [
        {
          "details": "The storage `slot` is unsupported as a UUID."
        }
      ]
    },
    "events": {
      "Initialized(uint64)": {
        "details": "Triggered when the contract has been initialized or reinitialized."
      },
      "Paused(address)": {
        "details": "Emitted when the pause is triggered by `account`."
      },
      "RoleAdminChanged(bytes32,bytes32,bytes32)": {
        "details": "Emitted when `newAdminRole` is set as ``role``'s admin role, replacing `previousAdminRole` `DEFAULT_ADMIN_ROLE` is the starting admin for all roles, despite {RoleAdminChanged} not being emitted signaling this."
      },
      "RoleGranted(bytes32,address,address)": {
        "details": "Emitted when `account` is granted `role`. `sender` is the account that originated the contract call, an admin role bearer except when using {AccessControl-_setupRole}."
      },
      "RoleRevoked(bytes32,address,address)": {
        "details": "Emitted when `account` is revoked `role`. `sender` is the account that originated the contract call:   - if using `revokeRole`, it is the admin role bearer   - if using `renounceRole`, it is the role bearer (i.e. `account`)"
      },
      "Unpaused(address)": {
        "details": "Emitted when the pause is lifted by `account`."
      },
      "Upgraded(address)": {
        "details": "Emitted when the implementation is upgraded."
      }
    },
    "kind": "dev",
    "methods": {
      "constructor": {
        "custom:oz-upgrades-unsafe-allow": "constructor"
      },
      "getRoleAdmin(bytes32)": {
        "details": "Returns the admin role that controls `role`. See {grantRole} and {revokeRole}. To change a role's admin, use {_setRoleAdmin}."
      },
      "grantRole(bytes32,address)": {
        "details": "Grants `role` to `account`. If `account` had not been already granted `role`, emits a {RoleGranted} event. Requirements: - the caller must have ``role``'s admin role. May emit a {RoleGranted} event."
      },
      "hasRole(bytes32,address)": {
        "details": "Returns `true` if `account` has been granted `role`."
      },
      "paused()": {
        "details": "Returns true if the contract is paused, and false otherwise."
      },
      "proxiableUUID()": {
        "details": "Implementation of the ERC1822 {proxiableUUID} function. This returns the storage slot used by the implementation. It is used to validate the implementation's compatibility when performing an upgrade. IMPORTANT: A proxy pointing at a proxiable contract should not be considered proxiable itself, because this risks bricking a proxy that upgrades to it, by delegating to itself until out of gas. Thus it is critical that this function revert if invoked through a proxy. This is guaranteed by the `notDelegated` modifier."
      },
      "renounceRole(bytes32,address)": {
        "details": "Revokes `role` from the calling account. Roles are often managed via {grantRole} and {revokeRole}: this function's purpose is to provide a mechanism for accounts to lose their privileges if they are compromised (such as when a trusted device is misplaced). If the calling account had been revoked `role`, emits a {RoleRevoked} event. Requirements: - the caller must be `callerConfirmation`. May emit a {RoleRevoked} event."
      },
      "revokeRole(bytes32,address)": {
        "details": "Revokes `role` from `account`. If `account` had been granted `role`, emits a {RoleRevoked} event. Requirements: - the caller must have ``role``'s admin role. May emit a {RoleRevoked} event."
      },
      "supportsInterface(bytes4)": {
        "details": "See {IERC165-supportsInterface}."
      },
      "upgradeToAndCall(address,bytes)": {
        "custom:oz-upgrades-unsafe-allow-reachable": "delegatecall",
        "details": "Upgrade the implementation of the proxy to `newImplementation`, and subsequently execute the function call encoded in `data`. Calls {_authorizeUpgrade}. Emits an {Upgraded} event."
      }
    },
    "version": 1
  },
  "userdoc": {
    "kind": "user",
    "methods": {},
    "version": 1
  },
  "storageLayout": {
    "storage": [
      {
        "astId": 12747,
        "contract": "contracts/dlpPerformance/DLPPerformanceImplementation.sol:DLPPerformanceImplementation",
        "label": "dlpRegistry",
        "offset": 0,
        "slot": "0",
        "type": "t_contract(IDLPRegistry)14501"
      },
      {
        "astId": 12751,
        "contract": "contracts/dlpPerformance/DLPPerformanceImplementation.sol:DLPPerformanceImplementation",
        "label": "vanaEpoch",
        "offset": 0,
        "slot": "1",
        "type": "t_contract(IVanaEpoch)19935"
      },
      {
        "astId": 12756,
        "contract": "contracts/dlpPerformance/DLPPerformanceImplementation.sol:DLPPerformanceImplementation",
        "label": "_epochPerformances",
        "offset": 0,
        "slot": "2",
        "type": "t_mapping(t_uint256,t_struct(EpochPerformance)12778_storage)"
      }
    ],
    "types": {
      "t_contract(IDLPRegistry)14501": {
        "encoding": "inplace",
        "label": "contract IDLPRegistry",
        "numberOfBytes": "20"
      },
      "t_contract(IVanaEpoch)19935": {
        "encoding": "inplace",
        "label": "contract IVanaEpoch",
        "numberOfBytes": "20"
      },
      "t_mapping(t_uint256,t_struct(EpochDlpPerformance)12772_storage)": {
        "encoding": "mapping",
        "key": "t_uint256",
        "label": "mapping(uint256 => struct IDLPPerformance.EpochDlpPerformance)",
        "numberOfBytes": "32",
        "value": "t_struct(EpochDlpPerformance)12772_storage"
      },
      "t_mapping(t_uint256,t_struct(EpochPerformance)12778_storage)": {
        "encoding": "mapping",
        "key": "t_uint256",
        "label": "mapping(uint256 => struct IDLPPerformance.EpochPerformance)",
        "numberOfBytes": "32",
        "value": "t_struct(EpochPerformance)12778_storage"
      },
      "t_struct(EpochDlpPerformance)12772_storage": {
        "encoding": "inplace",
        "label": "struct IDLPPerformance.EpochDlpPerformance",
        "members": [
          {
            "astId": 12765,
            "contract": "contracts/dlpPerformance/DLPPerformanceImplementation.sol:DLPPerformanceImplementation",
            "label": "totalScore",
            "offset": 0,
            "slot": "0",
            "type": "t_uint256"
          },
          {
            "astId": 12767,
            "contract": "contracts/dlpPerformance/DLPPerformanceImplementation.sol:DLPPerformanceImplementation",
            "label": "tradingVolume",
            "offset": 0,
            "slot": "1",
            "type": "t_uint256"
          },
          {
            "astId": 12769,
            "contract": "contracts/dlpPerformance/DLPPerformanceImplementation.sol:DLPPerformanceImplementation",
            "label": "uniqueContributors",
            "offset": 0,
            "slot": "2",
            "type": "t_uint256"
          },
          {
            "astId": 12771,
            "contract": "contracts/dlpPerformance/DLPPerformanceImplementation.sol:DLPPerformanceImplementation",
            "label": "dataAccessFees",
            "offset": 0,
            "slot": "3",
            "type": "t_uint256"
          }
        ],
        "numberOfBytes": "128"
      },
      "t_struct(EpochPerformance)12778_storage": {
        "encoding": "inplace",
        "label": "struct IDLPPerformance.EpochPerformance",
        "members": [
          {
            "astId": 12777,
            "contract": "contracts/dlpPerformance/DLPPerformanceImplementation.sol:DLPPerformanceImplementation",
            "label": "epochDlpPerformances",
            "offset": 0,
            "slot": "0",
            "type": "t_mapping(t_uint256,t_struct(EpochDlpPerformance)12772_storage)"
          }
        ],
        "numberOfBytes": "32"
      },
      "t_uint256": {
        "encoding": "inplace",
        "label": "uint256",
        "numberOfBytes": "32"
      }
    }
  }
}