{
  "address": "0x295f3c0086DF0E53aeF8643Ac137c65aea846aAa",
  "abi": [
    {
      "inputs": [],
      "stateMutability": "nonpayable",
      "type": "constructor"
    },
    {
      "inputs": [],
      "name": "AccessControlBadConfirmation",
      "type": "error"
    },
    {
      "inputs": [
        {
          "internalType": "address",
          "name": "account",
          "type": "address"
        },
        {
          "internalType": "bytes32",
          "name": "neededRole",
          "type": "bytes32"
        }
      ],
      "name": "AccessControlUnauthorizedAccount",
      "type": "error"
    },
    {
      "inputs": [
        {
          "internalType": "address",
          "name": "target",
          "type": "address"
        }
      ],
      "name": "AddressEmptyCode",
      "type": "error"
    },
    {
      "inputs": [],
      "name": "CheckpointUnorderedInsertion",
      "type": "error"
    },
    {
      "inputs": [
        {
          "internalType": "address",
          "name": "implementation",
          "type": "address"
        }
      ],
      "name": "ERC1967InvalidImplementation",
      "type": "error"
    },
    {
      "inputs": [],
      "name": "ERC1967NonPayable",
      "type": "error"
    },
    {
      "inputs": [],
      "name": "EnforcedPause",
      "type": "error"
    },
    {
      "inputs": [],
      "name": "EpochNotEnded",
      "type": "error"
    },
    {
      "inputs": [],
      "name": "ExpectedPause",
      "type": "error"
    },
    {
      "inputs": [],
      "name": "FailedInnerCall",
      "type": "error"
    },
    {
      "inputs": [],
      "name": "InvalidAddress",
      "type": "error"
    },
    {
      "inputs": [],
      "name": "InvalidDlpId",
      "type": "error"
    },
    {
      "inputs": [],
      "name": "InvalidDlpStatus",
      "type": "error"
    },
    {
      "inputs": [],
      "name": "InvalidInitialization",
      "type": "error"
    },
    {
      "inputs": [],
      "name": "InvalidParam",
      "type": "error"
    },
    {
      "inputs": [],
      "name": "InvalidStakeAmount",
      "type": "error"
    },
    {
      "inputs": [],
      "name": "InvalidStakersPercentage",
      "type": "error"
    },
    {
      "inputs": [],
      "name": "LastEpochMustBeFinalised",
      "type": "error"
    },
    {
      "inputs": [],
      "name": "NotCallableAnymore",
      "type": "error"
    },
    {
      "inputs": [],
      "name": "NotInitializing",
      "type": "error"
    },
    {
      "inputs": [],
      "name": "NotStakeOwner",
      "type": "error"
    },
    {
      "inputs": [],
      "name": "NothingToClaim",
      "type": "error"
    },
    {
      "inputs": [],
      "name": "ReentrancyGuardReentrantCall",
      "type": "error"
    },
    {
      "inputs": [],
      "name": "StakeActionPaused",
      "type": "error"
    },
    {
      "inputs": [],
      "name": "StakeAlreadyClosed",
      "type": "error"
    },
    {
      "inputs": [],
      "name": "StakeAlreadyWithdrawn",
      "type": "error"
    },
    {
      "inputs": [],
      "name": "StakeNotClosed",
      "type": "error"
    },
    {
      "inputs": [],
      "name": "StakeWithdrawalTooEarly",
      "type": "error"
    },
    {
      "inputs": [],
      "name": "TransferFailed",
      "type": "error"
    },
    {
      "inputs": [],
      "name": "UUPSUnauthorizedCallContext",
      "type": "error"
    },
    {
      "inputs": [
        {
          "internalType": "bytes32",
          "name": "slot",
          "type": "bytes32"
        }
      ],
      "name": "UUPSUnsupportedProxiableUUID",
      "type": "error"
    },
    {
      "anonymous": false,
      "inputs": [
        {
          "indexed": false,
          "internalType": "uint64",
          "name": "version",
          "type": "uint64"
        }
      ],
      "name": "Initialized",
      "type": "event"
    },
    {
      "anonymous": false,
      "inputs": [
        {
          "indexed": false,
          "internalType": "uint256",
          "name": "newMinStakeAmount",
          "type": "uint256"
        }
      ],
      "name": "MinStakeAmountUpdated",
      "type": "event"
    },
    {
      "anonymous": false,
      "inputs": [
        {
          "indexed": false,
          "internalType": "address",
          "name": "account",
          "type": "address"
        }
      ],
      "name": "Paused",
      "type": "event"
    },
    {
      "anonymous": false,
      "inputs": [
        {
          "indexed": false,
          "internalType": "uint256",
          "name": "newRewardClaimDelay",
          "type": "uint256"
        }
      ],
      "name": "RewardClaimDelayUpdated",
      "type": "event"
    },
    {
      "anonymous": false,
      "inputs": [
        {
          "indexed": true,
          "internalType": "uint256",
          "name": "stakeId",
          "type": "uint256"
        },
        {
          "indexed": false,
          "internalType": "uint256",
          "name": "amount",
          "type": "uint256"
        },
        {
          "indexed": false,
          "internalType": "uint256",
          "name": "entityId",
          "type": "uint256"
        }
      ],
      "name": "RewardMigratedToVanaPool",
      "type": "event"
    },
    {
      "anonymous": false,
      "inputs": [
        {
          "indexed": true,
          "internalType": "bytes32",
          "name": "role",
          "type": "bytes32"
        },
        {
          "indexed": true,
          "internalType": "bytes32",
          "name": "previousAdminRole",
          "type": "bytes32"
        },
        {
          "indexed": true,
          "internalType": "bytes32",
          "name": "newAdminRole",
          "type": "bytes32"
        }
      ],
      "name": "RoleAdminChanged",
      "type": "event"
    },
    {
      "anonymous": false,
      "inputs": [
        {
          "indexed": true,
          "internalType": "bytes32",
          "name": "role",
          "type": "bytes32"
        },
        {
          "indexed": true,
          "internalType": "address",
          "name": "account",
          "type": "address"
        },
        {
          "indexed": true,
          "internalType": "address",
          "name": "sender",
          "type": "address"
        }
      ],
      "name": "RoleGranted",
      "type": "event"
    },
    {
      "anonymous": false,
      "inputs": [
        {
          "indexed": true,
          "internalType": "bytes32",
          "name": "role",
          "type": "bytes32"
        },
        {
          "indexed": true,
          "internalType": "address",
          "name": "account",
          "type": "address"
        },
        {
          "indexed": true,
          "internalType": "address",
          "name": "sender",
          "type": "address"
        }
      ],
      "name": "RoleRevoked",
      "type": "event"
    },
    {
      "anonymous": false,
      "inputs": [
        {
          "indexed": true,
          "internalType": "uint256",
          "name": "stakeId",
          "type": "uint256"
        }
      ],
      "name": "StakeClosed",
      "type": "event"
    },
    {
      "anonymous": false,
      "inputs": [
        {
          "indexed": false,
          "internalType": "uint256",
          "name": "stakeId",
          "type": "uint256"
        },
        {
          "indexed": true,
          "internalType": "address",
          "name": "staker",
          "type": "address"
        },
        {
          "indexed": true,
          "internalType": "uint256",
          "name": "dlpId",
          "type": "uint256"
        },
        {
          "indexed": false,
          "internalType": "uint256",
          "name": "amount",
          "type": "uint256"
        }
      ],
      "name": "StakeCreated",
      "type": "event"
    },
    {
      "anonymous": false,
      "inputs": [
        {
          "indexed": false,
          "internalType": "uint256",
          "name": "oldStakeId",
          "type": "uint256"
        },
        {
          "indexed": false,
          "internalType": "uint256",
          "name": "newStakeId",
          "type": "uint256"
        },
        {
          "indexed": true,
          "internalType": "uint256",
          "name": "newDlpId",
          "type": "uint256"
        },
        {
          "indexed": false,
          "internalType": "uint256",
          "name": "newAmount",
          "type": "uint256"
        }
      ],
      "name": "StakeMigrated",
      "type": "event"
    },
    {
      "anonymous": false,
      "inputs": [
        {
          "indexed": true,
          "internalType": "uint256",
          "name": "stakeId",
          "type": "uint256"
        },
        {
          "indexed": false,
          "internalType": "uint256",
          "name": "amount",
          "type": "uint256"
        },
        {
          "indexed": false,
          "internalType": "uint256",
          "name": "entityId",
          "type": "uint256"
        }
      ],
      "name": "StakeMigratedToVanaPool",
      "type": "event"
    },
    {
      "anonymous": false,
      "inputs": [
        {
          "indexed": true,
          "internalType": "uint256",
          "name": "stakeId",
          "type": "uint256"
        },
        {
          "indexed": true,
          "internalType": "uint256",
          "name": "epochId",
          "type": "uint256"
        },
        {
          "indexed": false,
          "internalType": "uint256",
          "name": "amount",
          "type": "uint256"
        },
        {
          "indexed": false,
          "internalType": "bool",
          "name": "isFinal",
          "type": "bool"
        }
      ],
      "name": "StakeRewardClaimed",
      "type": "event"
    },
    {
      "anonymous": false,
      "inputs": [
        {
          "indexed": false,
          "internalType": "uint256",
          "name": "newStakeWithdrawalDelay",
          "type": "uint256"
        }
      ],
      "name": "StakeWithdrawalDelayUpdated",
      "type": "event"
    },
    {
      "anonymous": false,
      "inputs": [
        {
          "indexed": true,
          "internalType": "uint256",
          "name": "stakeId",
          "type": "uint256"
        }
      ],
      "name": "StakeWithdrawn",
      "type": "event"
    },
    {
      "anonymous": false,
      "inputs": [
        {
          "indexed": false,
          "internalType": "address",
          "name": "account",
          "type": "address"
        }
      ],
      "name": "Unpaused",
      "type": "event"
    },
    {
      "anonymous": false,
      "inputs": [
        {
          "indexed": true,
          "internalType": "address",
          "name": "implementation",
          "type": "address"
        }
      ],
      "name": "Upgraded",
      "type": "event"
    },
    {
      "inputs": [],
      "name": "DEFAULT_ADMIN_ROLE",
      "outputs": [
        {
          "internalType": "bytes32",
          "name": "",
          "type": "bytes32"
        }
      ],
      "stateMutability": "view",
      "type": "function"
    },
    {
      "inputs": [],
      "name": "MAINTAINER_ROLE",
      "outputs": [
        {
          "internalType": "bytes32",
          "name": "",
          "type": "bytes32"
        }
      ],
      "stateMutability": "view",
      "type": "function"
    },
    {
      "inputs": [],
      "name": "NEW_MULTIPLIER_EPOCH",
      "outputs": [
        {
          "internalType": "uint256",
          "name": "",
          "type": "uint256"
        }
      ],
      "stateMutability": "view",
      "type": "function"
    },
    {
      "inputs": [],
      "name": "UPGRADE_INTERFACE_VERSION",
      "outputs": [
        {
          "internalType": "string",
          "name": "",
          "type": "string"
        }
      ],
      "stateMutability": "view",
      "type": "function"
    },
    {
      "inputs": [
        {
          "internalType": "uint256",
          "name": "stakeId",
          "type": "uint256"
        }
      ],
      "name": "calculateStakeClaimableAmount",
      "outputs": [
        {
          "internalType": "uint256",
          "name": "",
          "type": "uint256"
        }
      ],
      "stateMutability": "nonpayable",
      "type": "function"
    },
    {
      "inputs": [
        {
          "internalType": "uint256",
          "name": "stakeAmount",
          "type": "uint256"
        },
        {
          "internalType": "uint256",
          "name": "stakeStartBlock",
          "type": "uint256"
        },
        {
          "internalType": "uint256",
          "name": "blockNumber",
          "type": "uint256"
        }
      ],
      "name": "calculateStakeScore",
      "outputs": [
        {
          "internalType": "uint256",
          "name": "",
          "type": "uint256"
        }
      ],
      "stateMutability": "view",
      "type": "function"
    },
    {
      "inputs": [
        {
          "internalType": "uint256",
          "name": "stakeId",
          "type": "uint256"
        },
        {
          "internalType": "uint256",
          "name": "lastEpochToClaim",
          "type": "uint256"
        }
      ],
      "name": "claimStakeRewardUntilEpoch",
      "outputs": [],
      "stateMutability": "nonpayable",
      "type": "function"
    },
    {
      "inputs": [
        {
          "internalType": "uint256[]",
          "name": "stakeIds",
          "type": "uint256[]"
        }
      ],
      "name": "claimStakesReward",
      "outputs": [],
      "stateMutability": "nonpayable",
      "type": "function"
    },
    {
      "inputs": [
        {
          "internalType": "uint256[]",
          "name": "stakeIds",
          "type": "uint256[]"
        }
      ],
      "name": "closeStakes",
      "outputs": [],
      "stateMutability": "nonpayable",
      "type": "function"
    },
    {
      "inputs": [
        {
          "internalType": "uint256",
          "name": "dlpId",
          "type": "uint256"
        }
      ],
      "name": "createStake",
      "outputs": [],
      "stateMutability": "payable",
      "type": "function"
    },
    {
      "inputs": [
        {
          "internalType": "uint256",
          "name": "dlpId",
          "type": "uint256"
        },
        {
          "internalType": "address",
          "name": "stakeOwner",
          "type": "address"
        }
      ],
      "name": "createStakeOnBehalf",
      "outputs": [],
      "stateMutability": "payable",
      "type": "function"
    },
    {
      "inputs": [],
      "name": "dlpRootCore",
      "outputs": [
        {
          "internalType": "contract IDLPRootCore",
          "name": "",
          "type": "address"
        }
      ],
      "stateMutability": "view",
      "type": "function"
    },
    {
      "inputs": [],
      "name": "dlpRootEpoch",
      "outputs": [
        {
          "internalType": "contract IDLPRootEpoch",
          "name": "",
          "type": "address"
        }
      ],
      "stateMutability": "view",
      "type": "function"
    },
    {
      "inputs": [],
      "name": "dlpRootMetrics",
      "outputs": [
        {
          "internalType": "contract IDLPRootMetrics",
          "name": "",
          "type": "address"
        }
      ],
      "stateMutability": "view",
      "type": "function"
    },
    {
      "inputs": [],
      "name": "dlpRootRewardsTreasury",
      "outputs": [
        {
          "internalType": "contract IDLPRootTreasury",
          "name": "",
          "type": "address"
        }
      ],
      "stateMutability": "view",
      "type": "function"
    },
    {
      "inputs": [],
      "name": "dlpRootStakesTreasury",
      "outputs": [
        {
          "internalType": "contract IDLPRootTreasury",
          "name": "",
          "type": "address"
        }
      ],
      "stateMutability": "view",
      "type": "function"
    },
    {
      "inputs": [
        {
          "internalType": "bytes32",
          "name": "role",
          "type": "bytes32"
        }
      ],
      "name": "getRoleAdmin",
      "outputs": [
        {
          "internalType": "bytes32",
          "name": "",
          "type": "bytes32"
        }
      ],
      "stateMutability": "view",
      "type": "function"
    },
    {
      "inputs": [
        {
          "internalType": "bytes32",
          "name": "role",
          "type": "bytes32"
        },
        {
          "internalType": "address",
          "name": "account",
          "type": "address"
        }
      ],
      "name": "grantRole",
      "outputs": [],
      "stateMutability": "nonpayable",
      "type": "function"
    },
    {
      "inputs": [
        {
          "internalType": "bytes32",
          "name": "role",
          "type": "bytes32"
        },
        {
          "internalType": "address",
          "name": "account",
          "type": "address"
        }
      ],
      "name": "hasRole",
      "outputs": [
        {
          "internalType": "bool",
          "name": "",
          "type": "bool"
        }
      ],
      "stateMutability": "view",
      "type": "function"
    },
    {
      "inputs": [
        {
          "internalType": "address",
          "name": "ownerAddress",
          "type": "address"
        }
      ],
      "name": "initialize",
      "outputs": [],
      "stateMutability": "nonpayable",
      "type": "function"
    },
    {
      "inputs": [
        {
          "internalType": "address",
          "name": "forwarder",
          "type": "address"
        }
      ],
      "name": "isTrustedForwarder",
      "outputs": [
        {
          "internalType": "bool",
          "name": "",
          "type": "bool"
        }
      ],
      "stateMutability": "view",
      "type": "function"
    },
    {
      "inputs": [
        {
          "internalType": "uint256",
          "name": "stakeId",
          "type": "uint256"
        },
        {
          "internalType": "uint256",
          "name": "entityId",
          "type": "uint256"
        }
      ],
      "name": "migrateRewardToVanaPool",
      "outputs": [],
      "stateMutability": "nonpayable",
      "type": "function"
    },
    {
      "inputs": [
        {
          "internalType": "uint256",
          "name": "stakeId",
          "type": "uint256"
        },
        {
          "internalType": "uint256",
          "name": "newDlpId",
          "type": "uint256"
        },
        {
          "internalType": "uint256",
          "name": "newAmount",
          "type": "uint256"
        }
      ],
      "name": "migrateStake",
      "outputs": [],
      "stateMutability": "nonpayable",
      "type": "function"
    },
    {
      "inputs": [
        {
          "internalType": "uint256",
          "name": "stakeId",
          "type": "uint256"
        },
        {
          "internalType": "uint256",
          "name": "entityId",
          "type": "uint256"
        }
      ],
      "name": "migrateStakeAndRewardToVanaPool",
      "outputs": [],
      "stateMutability": "nonpayable",
      "type": "function"
    },
    {
      "inputs": [
        {
          "internalType": "uint256",
          "name": "stakeId",
          "type": "uint256"
        },
        {
          "internalType": "uint256",
          "name": "entityId",
          "type": "uint256"
        }
      ],
      "name": "migrateStakeToVanaPool",
      "outputs": [],
      "stateMutability": "nonpayable",
      "type": "function"
    },
    {
      "inputs": [],
      "name": "minStakeAmount",
      "outputs": [
        {
          "internalType": "uint256",
          "name": "",
          "type": "uint256"
        }
      ],
      "stateMutability": "view",
      "type": "function"
    },
    {
      "inputs": [],
      "name": "pause",
      "outputs": [],
      "stateMutability": "nonpayable",
      "type": "function"
    },
    {
      "inputs": [],
      "name": "paused",
      "outputs": [
        {
          "internalType": "bool",
          "name": "",
          "type": "bool"
        }
      ],
      "stateMutability": "view",
      "type": "function"
    },
    {
      "inputs": [],
      "name": "proxiableUUID",
      "outputs": [
        {
          "internalType": "bytes32",
          "name": "",
          "type": "bytes32"
        }
      ],
      "stateMutability": "view",
      "type": "function"
    },
    {
      "inputs": [
        {
          "internalType": "bytes32",
          "name": "role",
          "type": "bytes32"
        },
        {
          "internalType": "address",
          "name": "callerConfirmation",
          "type": "address"
        }
      ],
      "name": "renounceRole",
      "outputs": [],
      "stateMutability": "nonpayable",
      "type": "function"
    },
    {
      "inputs": [
        {
          "internalType": "bytes32",
          "name": "role",
          "type": "bytes32"
        },
        {
          "internalType": "address",
          "name": "account",
          "type": "address"
        }
      ],
      "name": "revokeRole",
      "outputs": [],
      "stateMutability": "nonpayable",
      "type": "function"
    },
    {
      "inputs": [],
      "name": "rewardClaimDelay",
      "outputs": [
        {
          "internalType": "uint256",
          "name": "",
          "type": "uint256"
        }
      ],
      "stateMutability": "view",
      "type": "function"
    },
    {
      "inputs": [
        {
          "internalType": "uint256",
          "name": "stakeId",
          "type": "uint256"
        },
        {
          "internalType": "uint256",
          "name": "epochId",
          "type": "uint256"
        }
      ],
      "name": "stakeClaimedAmounts",
      "outputs": [
        {
          "internalType": "uint256",
          "name": "",
          "type": "uint256"
        }
      ],
      "stateMutability": "view",
      "type": "function"
    },
    {
      "inputs": [
        {
          "internalType": "uint256",
          "name": "stakeId",
          "type": "uint256"
        },
        {
          "internalType": "uint256",
          "name": "epochId",
          "type": "uint256"
        }
      ],
      "name": "stakeEpochReward",
      "outputs": [
        {
          "internalType": "uint256",
          "name": "",
          "type": "uint256"
        }
      ],
      "stateMutability": "view",
      "type": "function"
    },
    {
      "inputs": [],
      "name": "stakeWithdrawalDelay",
      "outputs": [
        {
          "internalType": "uint256",
          "name": "",
          "type": "uint256"
        }
      ],
      "stateMutability": "view",
      "type": "function"
    },
    {
      "inputs": [
        {
          "internalType": "address",
          "name": "stakerAddress",
          "type": "address"
        },
        {
          "internalType": "uint256",
          "name": "dlpId",
          "type": "uint256"
        }
      ],
      "name": "stakerDlpStakeAmount",
      "outputs": [
        {
          "internalType": "uint256",
          "name": "",
          "type": "uint256"
        }
      ],
      "stateMutability": "view",
      "type": "function"
    },
    {
      "inputs": [
        {
          "internalType": "address",
          "name": "staker",
          "type": "address"
        },
        {
          "internalType": "uint256",
          "name": "index",
          "type": "uint256"
        }
      ],
      "name": "stakerDlpsListAt",
      "outputs": [
        {
          "internalType": "uint256",
          "name": "",
          "type": "uint256"
        }
      ],
      "stateMutability": "view",
      "type": "function"
    },
    {
      "inputs": [
        {
          "internalType": "address",
          "name": "staker",
          "type": "address"
        }
      ],
      "name": "stakerDlpsListCount",
      "outputs": [
        {
          "internalType": "uint256",
          "name": "",
          "type": "uint256"
        }
      ],
      "stateMutability": "view",
      "type": "function"
    },
    {
      "inputs": [
        {
          "internalType": "address",
          "name": "staker",
          "type": "address"
        }
      ],
      "name": "stakerDlpsListValues",
      "outputs": [
        {
          "internalType": "uint256[]",
          "name": "",
          "type": "uint256[]"
        }
      ],
      "stateMutability": "view",
      "type": "function"
    },
    {
      "inputs": [
        {
          "internalType": "address",
          "name": "stakerAddress",
          "type": "address"
        },
        {
          "internalType": "uint256",
          "name": "index",
          "type": "uint256"
        }
      ],
      "name": "stakerStakesListAt",
      "outputs": [
        {
          "internalType": "uint256",
          "name": "",
          "type": "uint256"
        }
      ],
      "stateMutability": "view",
      "type": "function"
    },
    {
      "inputs": [
        {
          "internalType": "address",
          "name": "stakerAddress",
          "type": "address"
        }
      ],
      "name": "stakerStakesListCount",
      "outputs": [
        {
          "internalType": "uint256",
          "name": "",
          "type": "uint256"
        }
      ],
      "stateMutability": "view",
      "type": "function"
    },
    {
      "inputs": [
        {
          "internalType": "address",
          "name": "stakerAddress",
          "type": "address"
        }
      ],
      "name": "stakerStakesListValues",
      "outputs": [
        {
          "internalType": "uint256[]",
          "name": "",
          "type": "uint256[]"
        }
      ],
      "stateMutability": "view",
      "type": "function"
    },
    {
      "inputs": [
        {
          "internalType": "address",
          "name": "stakerAddress",
          "type": "address"
        }
      ],
      "name": "stakerTotalStakeAmount",
      "outputs": [
        {
          "internalType": "uint256",
          "name": "",
          "type": "uint256"
        }
      ],
      "stateMutability": "view",
      "type": "function"
    },
    {
      "inputs": [
        {
          "internalType": "uint256",
          "name": "index",
          "type": "uint256"
        }
      ],
      "name": "stakersListAt",
      "outputs": [
        {
          "internalType": "address",
          "name": "",
          "type": "address"
        }
      ],
      "stateMutability": "view",
      "type": "function"
    },
    {
      "inputs": [],
      "name": "stakersListCount",
      "outputs": [
        {
          "internalType": "uint256",
          "name": "",
          "type": "uint256"
        }
      ],
      "stateMutability": "view",
      "type": "function"
    },
    {
      "inputs": [
        {
          "internalType": "uint256",
          "name": "stakeId",
          "type": "uint256"
        }
      ],
      "name": "stakes",
      "outputs": [
        {
          "components": [
            {
              "internalType": "uint256",
              "name": "id",
              "type": "uint256"
            },
            {
              "internalType": "address",
              "name": "stakerAddress",
              "type": "address"
            },
            {
              "internalType": "uint256",
              "name": "dlpId",
              "type": "uint256"
            },
            {
              "internalType": "uint256",
              "name": "amount",
              "type": "uint256"
            },
            {
              "internalType": "uint256",
              "name": "startBlock",
              "type": "uint256"
            },
            {
              "internalType": "uint256",
              "name": "endBlock",
              "type": "uint256"
            },
            {
              "internalType": "bool",
              "name": "withdrawn",
              "type": "bool"
            },
            {
              "internalType": "uint256",
              "name": "lastClaimedEpochId",
              "type": "uint256"
            }
          ],
          "internalType": "struct IDLPRoot.StakeInfo",
          "name": "",
          "type": "tuple"
        }
      ],
      "stateMutability": "view",
      "type": "function"
    },
    {
      "inputs": [],
      "name": "stakesCount",
      "outputs": [
        {
          "internalType": "uint256",
          "name": "",
          "type": "uint256"
        }
      ],
      "stateMutability": "view",
      "type": "function"
    },
    {
      "inputs": [],
      "name": "stakingLastBlockNumber",
      "outputs": [
        {
          "internalType": "uint256",
          "name": "",
          "type": "uint256"
        }
      ],
      "stateMutability": "view",
      "type": "function"
    },
    {
      "inputs": [
        {
          "internalType": "bytes4",
          "name": "interfaceId",
          "type": "bytes4"
        }
      ],
      "name": "supportsInterface",
      "outputs": [
        {
          "internalType": "bool",
          "name": "",
          "type": "bool"
        }
      ],
      "stateMutability": "view",
      "type": "function"
    },
    {
      "inputs": [],
      "name": "trustedForwarder",
      "outputs": [
        {
          "internalType": "address",
          "name": "",
          "type": "address"
        }
      ],
      "stateMutability": "view",
      "type": "function"
    },
    {
      "inputs": [],
      "name": "unpause",
      "outputs": [],
      "stateMutability": "nonpayable",
      "type": "function"
    },
    {
      "inputs": [
        {
          "internalType": "address",
          "name": "newDlpRootCoreAddress",
          "type": "address"
        }
      ],
      "name": "updateDlpRootCore",
      "outputs": [],
      "stateMutability": "nonpayable",
      "type": "function"
    },
    {
      "inputs": [
        {
          "internalType": "address",
          "name": "newDlpRootEpochAddress",
          "type": "address"
        }
      ],
      "name": "updateDlpRootEpoch",
      "outputs": [],
      "stateMutability": "nonpayable",
      "type": "function"
    },
    {
      "inputs": [
        {
          "internalType": "address",
          "name": "newDlpRootMetricsAddress",
          "type": "address"
        }
      ],
      "name": "updateDlpRootMetrics",
      "outputs": [],
      "stateMutability": "nonpayable",
      "type": "function"
    },
    {
      "inputs": [
        {
          "internalType": "address",
          "name": "newDlpRootRewardsTreasuryAddress",
          "type": "address"
        }
      ],
      "name": "updateDlpRootRewardsTreasury",
      "outputs": [],
      "stateMutability": "nonpayable",
      "type": "function"
    },
    {
      "inputs": [
        {
          "internalType": "address",
          "name": "newDlpRootStakesTreasuryAddress",
          "type": "address"
        }
      ],
      "name": "updateDlpRootStakesTreasury",
      "outputs": [],
      "stateMutability": "nonpayable",
      "type": "function"
    },
    {
      "inputs": [
        {
          "internalType": "uint256",
          "name": "newMinStakeAmount",
          "type": "uint256"
        }
      ],
      "name": "updateMinStakeAmount",
      "outputs": [],
      "stateMutability": "nonpayable",
      "type": "function"
    },
    {
      "inputs": [
        {
          "internalType": "uint256",
          "name": "newRewardClaimDelay",
          "type": "uint256"
        }
      ],
      "name": "updateRewardClaimDelay",
      "outputs": [],
      "stateMutability": "nonpayable",
      "type": "function"
    },
    {
      "inputs": [
        {
          "internalType": "uint256",
          "name": "newStakingLastBlockNumber",
          "type": "uint256"
        }
      ],
      "name": "updateStakeLastBlockNumber",
      "outputs": [],
      "stateMutability": "nonpayable",
      "type": "function"
    },
    {
      "inputs": [
        {
          "internalType": "uint256",
          "name": "newStakeWithdrawalDelay",
          "type": "uint256"
        }
      ],
      "name": "updateStakeWithdrawalDelay",
      "outputs": [],
      "stateMutability": "nonpayable",
      "type": "function"
    },
    {
      "inputs": [
        {
          "internalType": "address",
          "name": "trustedForwarderAddress",
          "type": "address"
        }
      ],
      "name": "updateTrustedForwarder",
      "outputs": [],
      "stateMutability": "nonpayable",
      "type": "function"
    },
    {
      "inputs": [
        {
          "internalType": "address",
          "name": "newVanaPoolStakingAddress",
          "type": "address"
        }
      ],
      "name": "updateVanaPoolStaking",
      "outputs": [],
      "stateMutability": "nonpayable",
      "type": "function"
    },
    {
      "inputs": [
        {
          "internalType": "address",
          "name": "newImplementation",
          "type": "address"
        },
        {
          "internalType": "bytes",
          "name": "data",
          "type": "bytes"
        }
      ],
      "name": "upgradeToAndCall",
      "outputs": [],
      "stateMutability": "payable",
      "type": "function"
    },
    {
      "inputs": [],
      "name": "vanaPoolStaking",
      "outputs": [
        {
          "internalType": "contract IVanaPoolStaking",
          "name": "",
          "type": "address"
        }
      ],
      "stateMutability": "view",
      "type": "function"
    },
    {
      "inputs": [],
      "name": "version",
      "outputs": [
        {
          "internalType": "uint256",
          "name": "",
          "type": "uint256"
        }
      ],
      "stateMutability": "pure",
      "type": "function"
    },
    {
      "inputs": [
        {
          "internalType": "uint256[]",
          "name": "stakeIds",
          "type": "uint256[]"
        }
      ],
      "name": "withdrawStakes",
      "outputs": [],
      "stateMutability": "nonpayable",
      "type": "function"
    },
    {
      "stateMutability": "payable",
      "type": "receive"
    }
  ],
  "transactionHash": "0xf703209bbb0f3ee6e64ee8417a387484bf24e0fe38ca9e5fdb2324d84e675325",
  "args": [],
  "numDeployments": 12,
  "solcInputHash": "77ec1ac1bc03c26c4ac599b9845b003c",
  "bytecode": "0x60c0604052306080523480156200001557600080fd5b50600060a052620000256200002b565b620000df565b7ff0c57e16840df040f15088dc2f81fe391c3923bec73e23a9662efc9c229c6a00805468010000000000000000900460ff16156200007c5760405163f92ee8a960e01b815260040160405180910390fd5b80546001600160401b0390811614620000dc5780546001600160401b0319166001600160401b0390811782556040519081527fc7f505b2f371ae2175ee4913f4499e1f2633a7b5936321eed1cdaeb6115181d29060200160405180910390a15b50565b60805160a0516149596200011060003960005050600081816132c4015281816132ed015261343101526149596000f3fe6080604052600436106102ed5760003560e01c806301e22a69146102f957806301ffc9a71461031b57806307c4ec0f146103505780630fc779ae14610370578063151db1b9146103935780631bb2f452146103a85780631bf6ddae146103d55780631e6760d3146103e857806320930fa414610408578063248a9ca31461042857806324918d791461044857806325f6e987146104685780632f2ff15d1461048857806336568abe146104a85780633f4ba83a146104c857806346582583146104dd5780634c85c8d9146104f25780634f1ef2861461051257806352d1902d1461052557806354fd4d501461053a5780635690473e1461054e578063572b6c05146105955780635c975abb146105b55780635f5e4de7146105ca578063633e7e54146105ea57806363b8a87a1461060a57806364aad42314610620578063659ea4851461064057806368bd646a146106605780637217d22d146106805780637997d1b6146106ad5780637d40712c146106cd5780637da0a877146107095780637eb9b0c31461071e578063803d41d91461073e5780638456cb59146107775780638c31cd3e1461078c57806391d14854146107ac57806392b95db9146107cc57806397f2746c146107ec5780639889a3031461080c578063a217fddf1461082c578063ad3cb1cc14610841578063c4d66de81461087f578063c6ce301a1461089f578063d4e90b97146108bf578063d547741f146108d2578063d5a44f86146108f2578063d8060cd514610979578063db589c5b14610999578063dd8c017c146109b9578063e1d648d1146109d9578063e5331f17146109f9578063e6fe27c414610a0f578063e7ebaa6f14610a2f578063e837154514610a4f578063e983d10f14610a6f578063e98fa42b14610a8f578063ec5903f414610aaf578063ed2def1e14610ac4578063f188768414610ae4578063f874225414610afa578063f90b031114610b1c578063f9823b1314610b3c578063fb3b894614610b5c578063ff47cfb314610b7c57600080fd5b366102f457005b600080fd5b34801561030557600080fd5b50610319610314366004613fac565b610b9c565b005b34801561032757600080fd5b5061033b610336366004613fc9565b610bd7565b60405190151581526020015b60405180910390f35b34801561035c57600080fd5b5061031961036b366004613ff3565b610c0e565b34801561037c57600080fd5b50610385610e77565b604051908152602001610347565b34801561039f57600080fd5b50610385610e88565b3480156103b457600080fd5b50601e546103c8906001600160a01b031681565b6040516103479190614015565b6103196103e3366004614029565b610ea2565b3480156103f457600080fd5b50610319610403366004613ff3565b610f38565b34801561041457600080fd5b50601f546103c8906001600160a01b031681565b34801561043457600080fd5b50610385610443366004614029565b611066565b34801561045457600080fd5b506103196104633660046140f6565b611086565b34801561047457600080fd5b50610319610483366004613ff3565b611145565b34801561049457600080fd5b506103196104a3366004614180565b611583565b3480156104b457600080fd5b506103196104c3366004614180565b6115a5565b3480156104d457600080fd5b506103196115ed565b3480156104e957600080fd5b5061038561160d565b3480156104fe57600080fd5b5061038561050d3660046141b0565b611619565b610319610520366004614203565b611863565b34801561053157600080fd5b5061038561187e565b34801561054657600080fd5b506004610385565b34801561055a57600080fd5b50610385610569366004614290565b6001600160a01b0391909116600090815260166020908152604080832093835260029093019052205490565b3480156105a157600080fd5b5061033b6105b0366004613fac565b61189b565b3480156105c157600080fd5b5061033b6118c0565b3480156105d657600080fd5b506103c86105e5366004614029565b6118d5565b3480156105f657600080fd5b50610385610605366004614290565b6118e2565b34801561061657600080fd5b5061038560205481565b34801561062c57600080fd5b5061038561063b366004614290565b611904565b34801561064c57600080fd5b5061031961065b366004613fac565b611929565b34801561066c57600080fd5b506021546103c8906001600160a01b031681565b34801561068c57600080fd5b506106a061069b366004613fac565b611964565b60405161034791906142bc565b3480156106b957600080fd5b50601d546103c8906001600160a01b031681565b3480156106d957600080fd5b506103856106e8366004613ff3565b60009182526018602090815260408084209284526007909201905290205490565b34801561071557600080fd5b506103c8611988565b34801561072a57600080fd5b50610319610739366004613fac565b611997565b34801561074a57600080fd5b50610385610759366004613fac565b6001600160a01b031660009081526016602052604090206005015490565b34801561078357600080fd5b506103196119c5565b34801561079857600080fd5b506103856107a7366004614029565b6119e5565b3480156107b857600080fd5b5061033b6107c7366004614180565b611a75565b3480156107d857600080fd5b506106a06107e7366004613fac565b611aab565b3480156107f857600080fd5b50601b546103c8906001600160a01b031681565b34801561081857600080fd5b50601c546103c8906001600160a01b031681565b34801561083857600080fd5b50610385600081565b34801561084d57600080fd5b50610872604051806040016040528060058152602001640352e302e360dc1b81525081565b6040516103479190614324565b34801561088b57600080fd5b5061031961089a366004613fac565b611ad2565b3480156108ab57600080fd5b506103196108ba366004613ff3565b611bee565b6103196108cd366004614180565b611e49565b3480156108de57600080fd5b506103196108ed366004614180565b611ed5565b3480156108fe57600080fd5b5061091261090d366004614029565b611ef1565b6040516103479190815181526020808301516001600160a01b03169082015260408083015190820152606080830151908201526080808301519082015260a0808301519082015260c08083015115159082015260e091820151918101919091526101000190565b34801561098557600080fd5b50610319610994366004614029565b611fba565b3480156109a557600080fd5b506103196109b4366004613fac565b6120a6565b3480156109c557600080fd5b506103196109d43660046140f6565b6120e1565b3480156109e557600080fd5b506103196109f43660046140f6565b612212565b348015610a0557600080fd5b5061038560175481565b348015610a1b57600080fd5b50610319610a2a366004614029565b6122c8565b348015610a3b57600080fd5b50610385610a4a366004613fac565b61231d565b348015610a5b57600080fd5b50610385610a6a366004613fac565b61233e565b348015610a7b57600080fd5b50610319610a8a3660046141b0565b612362565b348015610a9b57600080fd5b50610319610aaa366004614029565b61238b565b348015610abb57600080fd5b50610385600381565b348015610ad057600080fd5b50610385610adf366004613ff3565b6123e0565b348015610af057600080fd5b5061038560035481565b348015610b0657600080fd5b5061038560008051602061490483398151915281565b348015610b2857600080fd5b50610319610b37366004613fac565b61257a565b348015610b4857600080fd5b50610319610b57366004613fac565b6125b5565b348015610b6857600080fd5b50610319610b77366004614029565b6125e3565b348015610b8857600080fd5b50610319610b97366004613fac565b612601565b600080516020614904833981519152610bb48161263c565b50601e80546001600160a01b0319166001600160a01b0392909216919091179055565b60006001600160e01b03198216637965db0b60e01b1480610c0857506301ffc9a760e01b6001600160e01b03198316145b92915050565b610c16612646565b610c1e61267c565b601f60009054906101000a90046001600160a01b03166001600160a01b03166376bc98696040518163ffffffff1660e01b8152600401600060405180830381600087803b158015610c6e57600080fd5b505af1158015610c82573d6000803e3d6000fd5b50505060008381526018602052604090209050610c9d6126a4565b81546001600160a01b03908116911614610cca5760405163335e79fb60e21b815260040160405180910390fd5b600581015460ff1615610cf05760405163190507cd60e21b815260040160405180910390fd5b600081600801548260020154610d06919061436d565b600283015460088401556004830154909150600003610d3057610d30610d2a6126a4565b856126ae565b60058201805460ff19166001179055601d5460405163117511c960e01b81526000916001600160a01b03169063117511c990610d729030908690600401614380565b6020604051808303816000875af1158015610d91573d6000803e3d6000fd5b505050506040513d601f19601f82011682018060405250810190610db591906143ae565b905080610dd5576040516312171d8360e31b815260040160405180910390fd5b6021548354604051631ba724c760e21b81526001600160a01b0392831692636e9c931c928692610e0e928a9216906000906004016143c9565b6000604051808303818588803b158015610e2757600080fd5b505af1158015610e3b573d6000803e3d6000fd5b5050505050846000805160206148c48339815191528386604051610e609291906143e8565b60405180910390a2505050610e736129f3565b5050565b6000610e836014612a04565b905090565b6000610e946008612a0e565b6001600160d01b0316905090565b610eaa612646565b610eb261267c565b601f60009054906101000a90046001600160a01b03166001600160a01b03166376bc98696040518163ffffffff1660e01b8152600401600060405180830381600087803b158015610f0257600080fd5b505af1158015610f16573d6000803e3d6000fd5b50505050610f2d610f256126a4565b823443612a55565b610f356129f3565b50565b610f40612646565b610f4861267c565b601f60009054906101000a90046001600160a01b03166001600160a01b03166376bc98696040518163ffffffff1660e01b8152600401600060405180830381600087803b158015610f9857600080fd5b505af1158015610fac573d6000803e3d6000fd5b505050506000601f60009054906101000a90046001600160a01b03166001600160a01b031663916e1c576040518163ffffffff1660e01b8152600401602060405180830381865afa158015611005573d6000803e3d6000fd5b505050506040513d601f19601f8201168201806040525081019061102991906143f6565b9050600061103860018361436d565b831061104e5761104960018361436d565b611050565b825b905061105c8482612fbc565b5050610e736129f3565b60008061107161309c565b60009384526020525050604090206001015490565b61108e612646565b61109661267c565b601f60009054906101000a90046001600160a01b03166001600160a01b03166376bc98696040518163ffffffff1660e01b8152600401600060405180830381600087803b1580156110e657600080fd5b505af11580156110fa573d6000803e3d6000fd5b5050505060005b815181101561113c576111346111156126a4565b8383815181106111275761112761440f565b60200260200101516126ae565b600101611101565b50610f356129f3565b61114d612646565b61115561267c565b601f60009054906101000a90046001600160a01b03166001600160a01b03166376bc98696040518163ffffffff1660e01b8152600401600060405180830381600087803b1580156111a557600080fd5b505af11580156111b9573d6000803e3d6000fd5b505050600083815260186020526040902090506111d46126a4565b81546001600160a01b039081169116146112015760405163335e79fb60e21b815260040160405180910390fd5b600581015460009060ff16151581036113935760008260080154836002015461122a919061436d565b6002840154600885015560048401549091506000036112545761125461124e6126a4565b866126ae565b601d5460405163117511c960e01b81526000916001600160a01b03169063117511c9906112879030908690600401614380565b6020604051808303816000875af11580156112a6573d6000803e3d6000fd5b505050506040513d601f19601f820116820180604052508101906112ca91906143ae565b9050806112ea576040516312171d8360e31b815260040160405180910390fd5b6021548454604051631ba724c760e21b81526001600160a01b0392831692636e9c931c928692611323928b9216906000906004016143c9565b6000604051808303818588803b15801561133c57600080fd5b505af1158015611350573d6000803e3d6000fd5b5050505050856000805160206148c483398151915283876040516113759291906143e8565b60405180910390a250505060058101805460ff191660019081179091555b6000611423856001601f60009054906101000a90046001600160a01b03166001600160a01b031663916e1c576040518163ffffffff1660e01b8152600401602060405180830381865afa1580156113ee573d6000803e3d6000fd5b505050506040513d601f19601f8201168201806040525081019061141291906143f6565b61141c919061436d565b60016130c0565b9050801561155a57601c5460405163117511c960e01b81526000916001600160a01b03169063117511c99061145e9030908690600401614380565b6020604051808303816000875af115801561147d573d6000803e3d6000fd5b505050506040513d601f19601f820116820180604052508101906114a191906143ae565b9050806114c1576040516312171d8360e31b815260040160405180910390fd5b6021548454604051631ba724c760e21b81526001600160a01b0392831692636e9c931c9286926114fa928b9216906000906004016143c9565b6000604051808303818588803b15801561151357600080fd5b505af1158015611527573d6000803e3d6000fd5b5050505050856000805160206148a4833981519152838760405161154c9291906143e8565b60405180910390a260019250505b81611578576040516312d37ee560e31b815260040160405180910390fd5b505050610e736129f3565b61158c82611066565b6115958161263c565b61159f838361311d565b50505050565b6115ad6126a4565b6001600160a01b0316816001600160a01b0316146115de5760405163334bd91960e11b815260040160405180910390fd5b6115e882826131c6565b505050565b6000805160206149048339815191526116058161263c565b610f3561325c565b6000610e946009612a0e565b600080601f60009054906101000a90046001600160a01b03166001600160a01b031663d7033ca06040518163ffffffff1660e01b8152600401602060405180830381865afa15801561166f573d6000803e3d6000fd5b505050506040513d601f19601f8201168201806040525081019061169391906143f6565b90506000816116a2868661436d565b6116ac9190614425565b601f549091506001600160a01b031663c6b61e4c6116cc6001600361436d565b6040518263ffffffff1660e01b81526004016116ea91815260200190565b600060405180830381865afa158015611707573d6000803e3d6000fd5b505050506040513d6000823e601f3d908101601f1916820160405261172f9190810190614447565b6020015185116117d457600182601f60009054906101000a90046001600160a01b03166001600160a01b031663572d356e6040518163ffffffff1660e01b8152600401602060405180830381865afa15801561178f573d6000803e3d6000fd5b505050506040513d601f19601f820116820180604052508101906117b391906143f6565b6117bd9190614425565b6117c7919061436d565b6117d19082614538565b90505b601b5460405163adf8252d60e01b815260048101839052612710916001600160a01b03169063adf8252d90602401602060405180830381865afa15801561181f573d6000803e3d6000fd5b505050506040513d601f19601f8201168201806040525081019061184391906143f6565b61184d908861454b565b6118579190614425565b925050505b9392505050565b61186b6132b9565b6118748261335e565b610e738282613369565b6000611888613426565b506000805160206148e483398151915290565b60006118a5611988565b6001600160a01b0316826001600160a01b0316149050919050565b6000806118cb61346f565b5460ff1692915050565b6000610c08601483613493565b6001600160a01b038216600090815260166020526040812061185c9083613493565b6001600160a01b038216600090815260166020526040812061185c9060030183613493565b6000805160206149048339815191526119418161263c565b50601b80546001600160a01b0319166001600160a01b0392909216919091179055565b6001600160a01b0381166000908152601660205260409020606090610c089061349f565b6000546001600160a01b031690565b60006119a28161263c565b50601d80546001600160a01b0319166001600160a01b0392909216919091179055565b6000805160206149048339815191526119dd8161263c565b610f356134ac565b6000610c08826001601f60009054906101000a90046001600160a01b03166001600160a01b031663916e1c576040518163ffffffff1660e01b8152600401602060405180830381865afa158015611a40573d6000803e3d6000fd5b505050506040513d601f19601f82011682018060405250810190611a6491906143f6565b611a6e919061436d565b60006130c0565b600080611a8061309c565b6000948552602090815260408086206001600160a01b03959095168652939052505090205460ff1690565b6001600160a01b0381166000908152601660205260409020606090610c089060030161349f565b6000611adc6134f4565b805490915060ff600160401b82041615906001600160401b0316600081158015611b035750825b90506000826001600160401b03166001148015611b1f5750303b155b905081158015611b2d575080155b15611b4b5760405163f92ee8a960e01b815260040160405180910390fd5b84546001600160401b03191660011785558315611b7457845460ff60401b1916600160401b1785555b611b7c613518565b611b84613518565b611b8c613520565b611b94613530565b611b9f60008761311d565b508315611be657845460ff60401b19168555604051600181527fc7f505b2f371ae2175ee4913f4499e1f2633a7b5936321eed1cdaeb6115181d29060200160405180910390a15b505050505050565b611bf6612646565b611bfe61267c565b601f60009054906101000a90046001600160a01b03166001600160a01b03166376bc98696040518163ffffffff1660e01b8152600401600060405180830381600087803b158015611c4e57600080fd5b505af1158015611c62573d6000803e3d6000fd5b50505060008381526018602052604090209050611c7d6126a4565b81546001600160a01b03908116911614611caa5760405163335e79fb60e21b815260040160405180910390fd5b6000611d05846001601f60009054906101000a90046001600160a01b03166001600160a01b031663916e1c576040518163ffffffff1660e01b8152600401602060405180830381865afa1580156113ee573d6000803e3d6000fd5b905080600003611d28576040516312d37ee560e31b815260040160405180910390fd5b601c5460405163117511c960e01b81526000916001600160a01b03169063117511c990611d5b9030908690600401614380565b6020604051808303816000875af1158015611d7a573d6000803e3d6000fd5b505050506040513d601f19601f82011682018060405250810190611d9e91906143ae565b905080611dbe576040516312171d8360e31b815260040160405180910390fd5b6021548354604051631ba724c760e21b81526001600160a01b0392831692636e9c931c928692611df7928a9216906000906004016143c9565b6000604051808303818588803b158015611e1057600080fd5b505af1158015611e24573d6000803e3d6000fd5b5050505050846000805160206148a48339815191528386604051610e609291906143e8565b611e51612646565b611e5961267c565b601f60009054906101000a90046001600160a01b03166001600160a01b03166376bc98696040518163ffffffff1660e01b8152600401600060405180830381600087803b158015611ea957600080fd5b505af1158015611ebd573d6000803e3d6000fd5b50505050611ecd81833443612a55565b610e736129f3565b611ede82611066565b611ee78161263c565b61159f83836131c6565b611f446040518061010001604052806000815260200160006001600160a01b0316815260200160008152602001600081526020016000815260200160008152602001600015158152602001600081525090565b5060008181526018602090815260409182902082516101008101845293845280546001600160a01b0316918401919091526001810154918301919091526002810154606083015260038101546080830152600481015460a0830152600581015460ff16151560c08301526006015460e082015290565b600080516020614904833981519152611fd28161263c565b601e60009054906101000a90046001600160a01b03166001600160a01b0316638e991ff36040518163ffffffff1660e01b8152600401602060405180830381865afa158015612025573d6000803e3d6000fd5b505050506040513d601f19601f8201168201806040525081019061204991906143f6565b82111561206957604051633494a40d60e21b815260040160405180910390fd5b60038290556040518281527f8448c02797b448f4946bc25b3bf925e5556d1df822c944da701c54bab8a3162f906020015b60405180910390a15050565b6000805160206149048339815191526120be8161263c565b50601f80546001600160a01b0319166001600160a01b0392909216919091179055565b6120e9612646565b6120f161267c565b601f60009054906101000a90046001600160a01b03166001600160a01b03166376bc98696040518163ffffffff1660e01b8152600401600060405180830381600087803b15801561214157600080fd5b505af1158015612155573d6000803e3d6000fd5b5050505060005b815181101561113c5761220a82828151811061217a5761217a61440f565b60200260200101516001601f60009054906101000a90046001600160a01b03166001600160a01b031663916e1c576040518163ffffffff1660e01b8152600401602060405180830381865afa1580156121d7573d6000803e3d6000fd5b505050506040513d601f19601f820116820180604052508101906121fb91906143f6565b612205919061436d565b612fbc565b60010161215c565b61221a612646565b61222261267c565b601f60009054906101000a90046001600160a01b03166001600160a01b03166376bc98696040518163ffffffff1660e01b8152600401600060405180830381600087803b15801561227257600080fd5b505af1158015612286573d6000803e3d6000fd5b5050505060005b815181101561113c576122c06122a16126a4565b8383815181106122b3576122b361440f565b6020026020010151613540565b60010161228d565b6000805160206149048339815191526122e08161263c565b6122eb600883613606565b50506040518281527f5f77bf3bb8edc470b5034e85a2d7123e6578eec3b9705c24d40d2e984d4f2a769060200161209a565b6001600160a01b0381166000908152601660205260408120610c0890612a04565b6001600160a01b0381166000908152601660205260408120610c0890600301612a04565b61236a612646565b61237261267c565b60405163d39a460360e01b815260040160405180910390fd5b6000805160206149048339815191526123a38161263c565b6123ae600983613606565b50506040518281527f4a675b4074075265c6da90abb559f75ec801d6e403d0dd6dde4bb38631929ede9060200161209a565b600082815260186020526040808220601f5491516331ad879360e21b815260048101859052909183916001600160a01b039091169063c6b61e4c90602401600060405180830381865afa15801561243b573d6000803e3d6000fd5b505050506040513d6000823e601f3d908101601f191682016040526124639190810190614447565b601f5460018401546040516359d3dced60e11b81529293506000926001600160a01b039092169163b3a7b9da9161249f918991906004016143e8565b60e060405180830381865afa1580156124bc573d6000803e3d6000fd5b505050506040513d601f19601f820116820180604052508101906124e09190614562565b90508415806124f157506080810151155b80612503575081602001518360030154115b80612524575060008360040154118015612524575082600401548260200151115b156125355760009350505050610c08565b600061254e846002015485600301548560200151611619565b90508160800151818360c00151612565919061454b565b61256f9190614425565b979650505050505050565b6000805160206149048339815191526125928161263c565b50600080546001600160a01b0319166001600160a01b0392909216919091179055565b60006125c08161263c565b50601c80546001600160a01b0319166001600160a01b0392909216919091179055565b6000805160206149048339815191526125fb8161263c565b50602055565b6000805160206149048339815191526126198161263c565b50602180546001600160a01b0319166001600160a01b0392909216919091179055565b610f35813361361f565b600061265061364a565b80549091506001190161267657604051633ee5aeb560e01b815260040160405180910390fd5b60029055565b6126846118c0565b156126a25760405163d93c066560e01b815260040160405180910390fd5b565b6000610e8361366e565b600081815260186020526040902080546001600160a01b038481169116146126e95760405163335e79fb60e21b815260040160405180910390fd5b60048101541561270c57604051638ccbf9a560e01b815260040160405180910390fd5b6001600160a01b03831660009081526016602090815260408083206002808601546001870154865290820190935290832080549193909161274e90849061436d565b9091555050600282015460058201805460009061276c90849061436d565b909155505043600480840191909155601f546040805163916e1c5760e01b815290516000936001600160a01b039093169263916e1c57928082019260209290918290030181865afa1580156127c5573d6000803e3d6000fd5b505050506040513d601f19601f820116820180604052508101906127e991906143f6565b601f546040516331ad879360e21b8152600481018390529192506000916001600160a01b039091169063c6b61e4c90602401600060405180830381865afa158015612838573d6000803e3d6000fd5b505050506040513d6000823e601f3d908101601f191682016040526128609190810190614447565b905060038210158015612877575080516003850154115b1561291557601b5460018501546002860154600387015460208501516001600160a01b039094169363610b701093879390926128b292611619565b88600201546128c1919061436d565b60006040518563ffffffff1660e01b81526004016128e294939291906145ea565b600060405180830381600087803b1580156128fc57600080fd5b505af1158015612910573d6000803e3d6000fd5b505050505b60405185907fc46bc112bb28b616434d6e89582a82bdc7cf9ef52a0b1228d20f5e5ccca7ec4690600090a2601e54600185015460028601546040516307f4823f60e31b81526001600160a01b0390931692633fa411f89261297a9290916004016143e8565b600060405180830381600087803b15801561299457600080fd5b505af11580156129a8573d6000803e3d6000fd5b505050506129b4610e88565b6000036129c4576129c4856136c0565b60018401546000908152600e6020526040902060028501546129e991600c01906137dc565b5050505050505050565b60006129fd61364a565b6001905550565b6000610c08825490565b80546000908015612a4c57612a3683612a2860018461436d565b600091825260209091200190565b54600160301b90046001600160d01b031661185c565b60009392505050565b602054431115612a78576040516370af45df60e11b815260040160405180910390fd5b6001600160a01b038416612a9f5760405163e6c4247b60e01b815260040160405180910390fd5b600354821015612ac257604051630103be3b60e21b815260040160405180910390fd5b601e5460405163ea83e47b60e01b8152600481018590526000916001600160a01b03169063ea83e47b90602401600060405180830381865afa158015612b0c573d6000803e3d6000fd5b505050506040513d6000823e601f3d908101601f19168201604052612b34919081019061466e565b905060008161014001516004811115612b4f57612b4f6147de565b1480612b71575060048161014001516004811115612b6f57612b6f6147de565b145b15612b8f57604051636e1ed6c560e11b815260040160405180910390fd5b601f546040805163916e1c5760e01b815290516000926001600160a01b03169163916e1c579160048083019260209291908290030181865afa158015612bd9573d6000803e3d6000fd5b505050506040513d601f19601f82011682018060405250810190612bfd91906143f6565b9050600060186000601760008154612c14906147f4565b918290555081526020810191909152604001600020600281018690556003810185905580546001600160a01b0319166001600160a01b03891617815560018082018890559091508211612c68576000612c73565b612c7360018361436d565b60068201556001600160a01b0387166000908152601660205260409020612c9a81886137ff565b50600087815260028201602052604081208054889290612cbb908490614538565b9091555050601754612cd19060038301906137ff565b5085816005016000828254612ce69190614538565b90915550612cf7905060148961380b565b50601f546040516331ad879360e21b8152600481018590526000916001600160a01b03169063c6b61e4c90602401600060405180830381865afa158015612d42573d6000803e3d6000fd5b505050506040513d6000823e601f3d908101601f19168201604052612d6a9190810190614447565b80519091508610801590612d7f575060038410155b15612e7557601b54601f546040516331ad879360e21b8152600481018790526001600160a01b039283169263610b70109288928d92612e17928e928e929091169063c6b61e4c90602401600060405180830381865afa158015612de6573d6000803e3d6000fd5b505050506040513d6000823e601f3d908101601f19168201604052612e0e9190810190614447565b60200151611619565b612e21908c61436d565b60016040518563ffffffff1660e01b8152600401612e4294939291906145ea565b600060405180830381600087803b158015612e5c57600080fd5b505af1158015612e70573d6000803e3d6000fd5b505050505b601d546040516000916001600160a01b03169034908381818185875af1925050503d8060008114612ec2576040519150601f19603f3d011682016040523d82523d6000602084013e612ec7565b606091505b5050905080612ee9576040516312171d8360e31b815260040160405180910390fd5b888a6001600160a01b03167ff234bd1a05f5a6f0b6af3f0c8bacad613635f0022e2ec2162717ef21a1591d6a6017548b604051612f279291906143e8565b60405180910390a3601e546040516302634bcf60e21b81526001600160a01b039091169063098d2f3c90612f61908c908c906004016143e8565b600060405180830381600087803b158015612f7b57600080fd5b505af1158015612f8f573d6000803e3d6000fd5b50505060008a8152600e60205260409020612fae9150600b01896137dc565b505050505050505050505050565b6000612fca838360016130c0565b905080600003612fed576040516312d37ee560e31b815260040160405180910390fd5b600083815260186020526040808220601c548154925163117511c960e01b81529193926001600160a01b039182169263117511c9926130329216908790600401614380565b6020604051808303816000875af1158015613051573d6000803e3d6000fd5b505050506040513d601f19601f8201168201806040525081019061307591906143ae565b905080613095576040516312171d8360e31b815260040160405180910390fd5b5050505050565b7f02dd7bc7dec4dceedda775e58dd541e08a116c6c53815c0bd028192f7b62680090565b60008381526018602052604081206006810154829081906130e2906001614538565b90505b858111613113576130f7878287613820565b6131019083614538565b915061310c816147f4565b90506130e5565b5095945050505050565b60008061312861309c565b90506131348484611a75565b6131b5576000848152602082815260408083206001600160a01b03871684529091529020805460ff1916600117905561316b6126a4565b6001600160a01b0316836001600160a01b0316857f2f8788117e7eff1d82e926ec794901d17c78024a50270940304540a733656f0d60405160405180910390a46001915050610c08565b6000915050610c08565b5092915050565b6000806131d161309c565b90506131dd8484611a75565b156131b5576000848152602082815260408083206001600160a01b03871684529091529020805460ff191690556132126126a4565b6001600160a01b0316836001600160a01b0316857ff6391f5c32d9c69d2a47ea670b442974b53935d1edc7fd64eb21e047a839171b60405160405180910390a46001915050610c08565b613264613ae1565b600061326e61346f565b805460ff1916815590507f5db9ee0a495bf2e6ff9c91a7834c1ba4fdd244a5e8aa4e537bd38aeae4b073aa6132a16126a4565b6040516132ae9190614015565b60405180910390a150565b306001600160a01b037f000000000000000000000000000000000000000000000000000000000000000016148061334057507f00000000000000000000000000000000000000000000000000000000000000006001600160a01b03166133346000805160206148e4833981519152546001600160a01b031690565b6001600160a01b031614155b156126a25760405163703e46dd60e11b815260040160405180910390fd5b6000610e738161263c565b816001600160a01b03166352d1902d6040518163ffffffff1660e01b8152600401602060405180830381865afa9250505080156133c3575060408051601f3d908101601f191682019092526133c0918101906143f6565b60015b6133eb5781604051634c9c8ce360e01b81526004016133e29190614015565b60405180910390fd5b6000805160206148e4833981519152811461341c57604051632a87526960e21b8152600481018290526024016133e2565b6115e88383613b06565b306001600160a01b037f000000000000000000000000000000000000000000000000000000000000000016146126a25760405163703e46dd60e11b815260040160405180910390fd5b7fcd5ed15c6e187e77e9aee88184c21f4f2182ab5827cb3b7e07fbedcd63f0330090565b600061185c8383613b5c565b6060600061185c83613b86565b6134b461267c565b60006134be61346f565b805460ff1916600117815590507f62e78cea01bee320cd4e420270b5ea74000d11b0c9f74754ebdbfc544b05a2586132a16126a4565b7ff0c57e16840df040f15088dc2f81fe391c3923bec73e23a9662efc9c229c6a0090565b6126a2613be2565b613528613be2565b6126a2613c07565b613538613be2565b6126a2613c0f565b600081815260186020526040902080546001600160a01b0384811691161461357b5760405163335e79fb60e21b815260040160405180910390fd5b600581015460ff16156135a15760405163190507cd60e21b815260040160405180910390fd5b80600401546000036135c6576040516372728c7960e11b815260040160405180910390fd5b436135cf610e88565b82600401546135de9190614538565b11156135fd57604051630fae9a4560e41b815260040160405180910390fd5b6115e8826136c0565b600080613614844385613c2c565b915091509250929050565b6136298282611a75565b610e7357808260405163e2517d3f60e01b81526004016133e2929190614380565b7f9b779b17422d0df92223018b32b4d1fa46e071723d6817e2486d003becc55f0090565b600036601461367c3361189b565b80156136885750808210155b156136b85760003661369a838561436d565b6136a592829061480d565b6136ae91614837565b60601c9250505090565b339250505090565b600081815260186020526040812060058101805460ff19166001179055600881015460028201549192916136f4919061436d565b11156137ad57601d548154600883015460028401546000936001600160a01b039081169363117511c99391169161372b919061436d565b6040518363ffffffff1660e01b8152600401613748929190614380565b6020604051808303816000875af1158015613767573d6000803e3d6000fd5b505050506040513d601f19601f8201168201806040525081019061378b91906143ae565b9050806137ab576040516312171d8360e31b815260040160405180910390fd5b505b60405182907fa78b9f12a7da0df7ced737c5f83d0c05723bb5f43aab37e233b862710414847290600090a25050565b60008061361443846137ed87612a0e565b6137f79190614867565b869190613c2c565b600061185c8383613c47565b600061185c836001600160a01b038416613c47565b600083815260186020526040812060068101548290613840906001614538565b9050600061384c61160d565b601f546040516331ad879360e21b8152600481018990529192506000916001600160a01b039091169063c6b61e4c90602401600060405180830381865afa15801561389b573d6000803e3d6000fd5b505050506040513d6000823e601f3d908101601f191682016040526138c39190810190614447565b601f5460018601546040516359d3dced60e11b81529293506000926001600160a01b039092169163b3a7b9da916138ff918c91906004016143e8565b60e060405180830381865afa15801561391c573d6000803e3d6000fd5b505050506040513d601f19601f820116820180604052508101906139409190614562565b905087158061395157506080810151155b80613963575081602001518560030154115b80613984575060008560040154118015613984575084600401548260200151115b156139975760009550505050505061185c565b60006139b0866002015487600301548560200151611619565b905060008260800151828460c001516139c9919061454b565b6139d39190614425565b905060008460200151436139e7919061436d565b9050600186158015906139f957508682105b15613a1a5786613a09838561454b565b613a139190614425565b9250600090505b60008c815260078a0160205260409020548311613a43576000995050505050505050505061185c565b60008c815260078a016020526040812054613a5e908561436d565b90508b15613ad05760008d815260078b01602052604090819020859055518d908f907f84f18304332c1d0bc90eba2ce6fc3556bcfabe9ccc37f7d9f66225b293f903bf90613aba90889087909182521515602082015260400190565b60405180910390a38115613ad05760068a018990555b9d9c50505050505050505050505050565b613ae96118c0565b6126a257604051638dfc202b60e01b815260040160405180910390fd5b613b0f82613c96565b6040516001600160a01b038316907fbc7cd75a20ee27fd9adebab32041f755214dbc6bffa90cc0225b39da2e5c2d3b90600090a2805115613b54576115e88282613cf2565b610e73613d68565b6000826000018281548110613b7357613b7361440f565b9060005260206000200154905092915050565b606081600001805480602002602001604051908101604052809291908181526020018280548015613bd657602002820191906000526020600020905b815481526020019060010190808311613bc2575b50505050509050919050565b613bea613d87565b6126a257604051631afcd79f60e31b815260040160405180910390fd5b6129f3613be2565b613c17613be2565b6000613c2161346f565b805460ff1916905550565b600080613c3a858585613da1565b915091505b935093915050565b6000818152600183016020526040812054613c8e57508154600181810184556000848152602080822090930184905584548482528286019093526040902091909155610c08565b506000610c08565b806001600160a01b03163b600003613cc35780604051634c9c8ce360e01b81526004016133e29190614015565b6000805160206148e483398151915280546001600160a01b0319166001600160a01b0392909216919091179055565b6060600080846001600160a01b031684604051613d0f9190614887565b600060405180830381855af49150503d8060008114613d4a576040519150601f19603f3d011682016040523d82523d6000602084013e613d4f565b606091505b5091509150613d5f858383613f1b565b95945050505050565b34156126a25760405163b398979f60e01b815260040160405180910390fd5b6000613d916134f4565b54600160401b900460ff16919050565b825460009081908015613ec0576000613dbf87612a2860018561436d565b60408051808201909152905465ffffffffffff808216808452600160301b9092046001600160d01b031660208401529192509087161015613e1357604051632520601d60e01b815260040160405180910390fd5b805165ffffffffffff808816911603613e5f5784613e3688612a2860018661436d565b80546001600160d01b0392909216600160301b0265ffffffffffff909216919091179055613eb0565b6040805180820190915265ffffffffffff80881682526001600160d01b0380881660208085019182528b54600181018d5560008d81529190912094519151909216600160301b029216919091179101555b602001519250839150613c3f9050565b50506040805180820190915265ffffffffffff80851682526001600160d01b0380851660208085019182528854600181018a5560008a815291822095519251909316600160301b029190931617920191909155905081613c3f565b606082613f3057613f2b82613f6e565b61185c565b8151158015613f4757506001600160a01b0384163b155b15613f675783604051639996b31560e01b81526004016133e29190614015565b508061185c565b805115613f7e5780518082602001fd5b604051630a12f52160e11b815260040160405180910390fd5b6001600160a01b0381168114610f3557600080fd5b600060208284031215613fbe57600080fd5b813561185c81613f97565b600060208284031215613fdb57600080fd5b81356001600160e01b03198116811461185c57600080fd5b6000806040838503121561400657600080fd5b50508035926020909101359150565b6001600160a01b0391909116815260200190565b60006020828403121561403b57600080fd5b5035919050565b634e487b7160e01b600052604160045260246000fd5b60405160a081016001600160401b038111828210171561407a5761407a614042565b60405290565b6040516101c081016001600160401b038111828210171561407a5761407a614042565b604051601f8201601f191681016001600160401b03811182821017156140cb576140cb614042565b604052919050565b60006001600160401b038211156140ec576140ec614042565b5060051b60200190565b6000602080838503121561410957600080fd5b82356001600160401b0381111561411f57600080fd5b8301601f8101851361413057600080fd5b803561414361413e826140d3565b6140a3565b81815260059190911b8201830190838101908783111561416257600080fd5b928401925b8284101561256f57833582529284019290840190614167565b6000806040838503121561419357600080fd5b8235915060208301356141a581613f97565b809150509250929050565b6000806000606084860312156141c557600080fd5b505081359360208301359350604090920135919050565b60006001600160401b038211156141f5576141f5614042565b50601f01601f191660200190565b6000806040838503121561421657600080fd5b823561422181613f97565b915060208301356001600160401b0381111561423c57600080fd5b8301601f8101851361424d57600080fd5b803561425b61413e826141dc565b81815286602083850101111561427057600080fd5b816020840160208301376000602083830101528093505050509250929050565b600080604083850312156142a357600080fd5b82356142ae81613f97565b946020939093013593505050565b6020808252825182820181905260009190848201906040850190845b818110156142f4578351835292840192918401916001016142d8565b50909695505050505050565b60005b8381101561431b578181015183820152602001614303565b50506000910152565b6020815260008251806020840152614343816040850160208701614300565b601f01601f19169190910160400192915050565b634e487b7160e01b600052601160045260246000fd5b81810381811115610c0857610c08614357565b6001600160a01b03929092168252602082015260400190565b805180151581146143a957600080fd5b919050565b6000602082840312156143c057600080fd5b61185c82614399565b9283526001600160a01b03919091166020830152604082015260600190565b918252602082015260400190565b60006020828403121561440857600080fd5b5051919050565b634e487b7160e01b600052603260045260246000fd5b60008261444257634e487b7160e01b600052601260045260246000fd5b500490565b6000602080838503121561445a57600080fd5b82516001600160401b038082111561447157600080fd5b9084019060a0828703121561448557600080fd5b61448d614058565b825181528383015184820152604083015160408201526144af60608401614399565b60608201526080830151828111156144c657600080fd5b80840193505086601f8401126144db57600080fd5b825191506144eb61413e836140d3565b82815260059290921b8301840191848101908884111561450a57600080fd5b938501935b838510156145285784518252938501939085019061450f565b6080830152509695505050505050565b80820180821115610c0857610c08614357565b8082028115828204841417610c0857610c08614357565b600060e0828403121561457457600080fd5b60405160e081016001600160401b038111828210171561459657614596614042565b604052825181526145a960208401614399565b602082015260408301516040820152606083015160608201526080830151608082015260a083015160a082015260c083015160c08201528091505092915050565b938452602084019290925260408301521515606082015260800190565b80516143a981613f97565b600082601f83011261462357600080fd5b815161463161413e826141dc565b81815284602083860101111561464657600080fd5b614657826020830160208701614300565b949350505050565b8051600581106143a957600080fd5b60006020828403121561468057600080fd5b81516001600160401b038082111561469757600080fd5b908301906101c082860312156146ac57600080fd5b6146b4614080565b825181526146c460208401614607565b60208201526146d560408401614607565b60408201526146e660608401614607565b60608201526080830151608082015260a083015160a082015260c08301518281111561471157600080fd5b61471d87828601614612565b60c08301525060e08301518281111561473557600080fd5b61474187828601614612565b60e083015250610100808401518381111561475b57600080fd5b61476788828701614612565b828401525050610120808401518381111561478157600080fd5b61478d88828701614612565b82840152505061014091506147a382840161465f565b91810191909152610160828101519082015261018080830151908201526101a0906147cf828401614399565b91810191909152949350505050565b634e487b7160e01b600052602160045260246000fd5b60006001820161480657614806614357565b5060010190565b6000808585111561481d57600080fd5b8386111561482a57600080fd5b5050820193919092039150565b6001600160601b0319813581811691601485101561485f5780818660140360031b1b83161692505b505092915050565b6001600160d01b038181168382160190808211156131bf576131bf614357565b60008251614899818460208701614300565b919091019291505056fe2d7d3382db8acb6440c62abdeb6a91b1136fedaebbf7e52ede418d921778b0d29ad543c59d5f19d7487d967f2c38da7421c0e9386626ecfc23d22e933bbcf378360894a13ba1a3210667c828492db98dca3e2076cc3735a920a3ca505d382bbc339759585899103d2ace64958e37e18ccb0504652c81d4a1b8aa80fe2126ab95a26469706673582212209df26de6308624b030a5202c903be51f2b9408117092403ca804f30c04a4a08b64736f6c63430008180033",
  "devdoc": {
    "errors": {
      "AccessControlBadConfirmation()": [
        {
          "details": "The caller of a function is not the expected one. NOTE: Don't confuse with {AccessControlUnauthorizedAccount}."
        }
      ],
      "AccessControlUnauthorizedAccount(address,bytes32)": [
        {
          "details": "The `account` is missing a role."
        }
      ],
      "AddressEmptyCode(address)": [
        {
          "details": "There's no code at `target` (it is not a contract)."
        }
      ],
      "CheckpointUnorderedInsertion()": [
        {
          "details": "A value was attempted to be inserted on a past checkpoint."
        }
      ],
      "ERC1967InvalidImplementation(address)": [
        {
          "details": "The `implementation` of the proxy is invalid."
        }
      ],
      "ERC1967NonPayable()": [
        {
          "details": "An upgrade function sees `msg.value > 0` that may be lost."
        }
      ],
      "EnforcedPause()": [
        {
          "details": "The operation failed because the contract is paused."
        }
      ],
      "ExpectedPause()": [
        {
          "details": "The operation failed because the contract is not paused."
        }
      ],
      "FailedInnerCall()": [
        {
          "details": "A call to an address target failed. The target may have reverted."
        }
      ],
      "InvalidInitialization()": [
        {
          "details": "The contract is already initialized."
        }
      ],
      "NotInitializing()": [
        {
          "details": "The contract is not initializing."
        }
      ],
      "ReentrancyGuardReentrantCall()": [
        {
          "details": "Unauthorized reentrant call."
        }
      ],
      "UUPSUnauthorizedCallContext()": [
        {
          "details": "The call is from an unauthorized context."
        }
      ],
      "UUPSUnsupportedProxiableUUID(bytes32)": [
        {
          "details": "The storage `slot` is unsupported as a UUID."
        }
      ]
    },
    "events": {
      "Initialized(uint64)": {
        "details": "Triggered when the contract has been initialized or reinitialized."
      },
      "Paused(address)": {
        "details": "Emitted when the pause is triggered by `account`."
      },
      "RoleAdminChanged(bytes32,bytes32,bytes32)": {
        "details": "Emitted when `newAdminRole` is set as ``role``'s admin role, replacing `previousAdminRole` `DEFAULT_ADMIN_ROLE` is the starting admin for all roles, despite {RoleAdminChanged} not being emitted signaling this."
      },
      "RoleGranted(bytes32,address,address)": {
        "details": "Emitted when `account` is granted `role`. `sender` is the account that originated the contract call, an admin role bearer except when using {AccessControl-_setupRole}."
      },
      "RoleRevoked(bytes32,address,address)": {
        "details": "Emitted when `account` is revoked `role`. `sender` is the account that originated the contract call:   - if using `revokeRole`, it is the admin role bearer   - if using `renounceRole`, it is the role bearer (i.e. `account`)"
      },
      "Unpaused(address)": {
        "details": "Emitted when the pause is lifted by `account`."
      },
      "Upgraded(address)": {
        "details": "Emitted when the implementation is upgraded."
      }
    },
    "kind": "dev",
    "methods": {
      "calculateStakeClaimableAmount(uint256)": {
        "details": "Takes into account stake duration, score, and reward distributionThis method is not marked as view because is using a method that modifies state to call it as a view, please using static call"
      },
      "constructor": {
        "custom:oz-upgrades-unsafe-allow": "constructor"
      },
      "getRoleAdmin(bytes32)": {
        "details": "Returns the admin role that controls `role`. See {grantRole} and {revokeRole}. To change a role's admin, use {_setRoleAdmin}."
      },
      "grantRole(bytes32,address)": {
        "details": "Grants `role` to `account`. If `account` had not been already granted `role`, emits a {RoleGranted} event. Requirements: - the caller must have ``role``'s admin role. May emit a {RoleGranted} event."
      },
      "hasRole(bytes32,address)": {
        "details": "Returns `true` if `account` has been granted `role`."
      },
      "isTrustedForwarder(address)": {
        "details": "Indicates whether any particular address is the trusted forwarder."
      },
      "paused()": {
        "details": "Returns true if the contract is paused, and false otherwise."
      },
      "proxiableUUID()": {
        "details": "Implementation of the ERC1822 {proxiableUUID} function. This returns the storage slot used by the implementation. It is used to validate the implementation's compatibility when performing an upgrade. IMPORTANT: A proxy pointing at a proxiable contract should not be considered proxiable itself, because this risks bricking a proxy that upgrades to it, by delegating to itself until out of gas. Thus it is critical that this function revert if invoked through a proxy. This is guaranteed by the `notDelegated` modifier."
      },
      "renounceRole(bytes32,address)": {
        "details": "Revokes `role` from the calling account. Roles are often managed via {grantRole} and {revokeRole}: this function's purpose is to provide a mechanism for accounts to lose their privileges if they are compromised (such as when a trusted device is misplaced). If the calling account had been revoked `role`, emits a {RoleRevoked} event. Requirements: - the caller must be `callerConfirmation`. May emit a {RoleRevoked} event."
      },
      "revokeRole(bytes32,address)": {
        "details": "Revokes `role` from `account`. If `account` had been granted `role`, emits a {RoleRevoked} event. Requirements: - the caller must have ``role``'s admin role. May emit a {RoleRevoked} event."
      },
      "supportsInterface(bytes4)": {
        "details": "See {IERC165-supportsInterface}."
      },
      "trustedForwarder()": {
        "details": "Returns the address of the trusted forwarder."
      },
      "upgradeToAndCall(address,bytes)": {
        "custom:oz-upgrades-unsafe-allow-reachable": "delegatecall",
        "details": "Upgrade the implementation of the proxy to `newImplementation`, and subsequently execute the function call encoded in `data`. Calls {_authorizeUpgrade}. Emits an {Upgraded} event."
      }
    },
    "version": 1
  },
  "userdoc": {
    "kind": "user",
    "methods": {
      "calculateStakeClaimableAmount(uint256)": {
        "notice": "Calculates claimable rewards for a stake"
      },
      "calculateStakeScore(uint256,uint256,uint256)": {
        "notice": "Calculates stake score based on amount and duration"
      },
      "claimStakeRewardUntilEpoch(uint256,uint256)": {
        "notice": "Claims rewards for a stake up to specified epoch"
      },
      "claimStakesReward(uint256[])": {
        "notice": "Claims rewards for multiple stakes"
      },
      "closeStakes(uint256[])": {
        "notice": "Closes multiple stakes"
      },
      "withdrawStakes(uint256[])": {
        "notice": "Withdraws multiple closed stakes"
      }
    },
    "version": 1
  },
  "storageLayout": {
    "storage": [
      {
        "astId": 7857,
        "contract": "contracts/root/DLPRootImplementation.sol:DLPRootImplementation",
        "label": "_trustedForwarder",
        "offset": 0,
        "slot": "0",
        "type": "t_address"
      },
      {
        "astId": 7859,
        "contract": "contracts/root/DLPRootImplementation.sol:DLPRootImplementation",
        "label": "eligibleDlpsLimit",
        "offset": 0,
        "slot": "1",
        "type": "t_uint256"
      },
      {
        "astId": 7861,
        "contract": "contracts/root/DLPRootImplementation.sol:DLPRootImplementation",
        "label": "epochDlpsLimit",
        "offset": 0,
        "slot": "2",
        "type": "t_uint256"
      },
      {
        "astId": 7864,
        "contract": "contracts/root/DLPRootImplementation.sol:DLPRootImplementation",
        "label": "minStakeAmount",
        "offset": 0,
        "slot": "3",
        "type": "t_uint256"
      },
      {
        "astId": 7866,
        "contract": "contracts/root/DLPRootImplementation.sol:DLPRootImplementation",
        "label": "minDlpStakersPercentage",
        "offset": 0,
        "slot": "4",
        "type": "t_uint256"
      },
      {
        "astId": 7868,
        "contract": "contracts/root/DLPRootImplementation.sol:DLPRootImplementation",
        "label": "minDlpRegistrationStake",
        "offset": 0,
        "slot": "5",
        "type": "t_uint256"
      },
      {
        "astId": 7870,
        "contract": "contracts/root/DLPRootImplementation.sol:DLPRootImplementation",
        "label": "dlpEligibilityThreshold",
        "offset": 0,
        "slot": "6",
        "type": "t_uint256"
      },
      {
        "astId": 7872,
        "contract": "contracts/root/DLPRootImplementation.sol:DLPRootImplementation",
        "label": "dlpSubEligibilityThreshold",
        "offset": 0,
        "slot": "7",
        "type": "t_uint256"
      },
      {
        "astId": 7875,
        "contract": "contracts/root/DLPRootImplementation.sol:DLPRootImplementation",
        "label": "_stakeWithdrawalDelayCheckpoints",
        "offset": 0,
        "slot": "8",
        "type": "t_struct(Trace208)3808_storage"
      },
      {
        "astId": 7878,
        "contract": "contracts/root/DLPRootImplementation.sol:DLPRootImplementation",
        "label": "_rewardClaimDelayCheckpoints",
        "offset": 0,
        "slot": "9",
        "type": "t_struct(Trace208)3808_storage"
      },
      {
        "astId": 7880,
        "contract": "contracts/root/DLPRootImplementation.sol:DLPRootImplementation",
        "label": "epochRewardAmount",
        "offset": 0,
        "slot": "10",
        "type": "t_uint256"
      },
      {
        "astId": 7882,
        "contract": "contracts/root/DLPRootImplementation.sol:DLPRootImplementation",
        "label": "epochSize",
        "offset": 0,
        "slot": "11",
        "type": "t_uint256"
      },
      {
        "astId": 7884,
        "contract": "contracts/root/DLPRootImplementation.sol:DLPRootImplementation",
        "label": "daySize",
        "offset": 0,
        "slot": "12",
        "type": "t_uint256"
      },
      {
        "astId": 7886,
        "contract": "contracts/root/DLPRootImplementation.sol:DLPRootImplementation",
        "label": "dlpsCount",
        "offset": 0,
        "slot": "13",
        "type": "t_uint256"
      },
      {
        "astId": 7891,
        "contract": "contracts/root/DLPRootImplementation.sol:DLPRootImplementation",
        "label": "_dlps",
        "offset": 0,
        "slot": "14",
        "type": "t_mapping(t_uint256,t_struct(Dlp)8323_storage)"
      },
      {
        "astId": 7895,
        "contract": "contracts/root/DLPRootImplementation.sol:DLPRootImplementation",
        "label": "dlpIds",
        "offset": 0,
        "slot": "15",
        "type": "t_mapping(t_address,t_uint256)"
      },
      {
        "astId": 7898,
        "contract": "contracts/root/DLPRootImplementation.sol:DLPRootImplementation",
        "label": "_eligibleDlpsList",
        "offset": 0,
        "slot": "16",
        "type": "t_struct(UintSet)5329_storage"
      },
      {
        "astId": 7900,
        "contract": "contracts/root/DLPRootImplementation.sol:DLPRootImplementation",
        "label": "epochsCount",
        "offset": 0,
        "slot": "18",
        "type": "t_uint256"
      },
      {
        "astId": 7905,
        "contract": "contracts/root/DLPRootImplementation.sol:DLPRootImplementation",
        "label": "_epochs",
        "offset": 0,
        "slot": "19",
        "type": "t_mapping(t_uint256,t_struct(Epoch)8349_storage)"
      },
      {
        "astId": 7908,
        "contract": "contracts/root/DLPRootImplementation.sol:DLPRootImplementation",
        "label": "_stakersList",
        "offset": 0,
        "slot": "20",
        "type": "t_struct(AddressSet)5172_storage"
      },
      {
        "astId": 7913,
        "contract": "contracts/root/DLPRootImplementation.sol:DLPRootImplementation",
        "label": "_stakers",
        "offset": 0,
        "slot": "22",
        "type": "t_mapping(t_address,t_struct(Staker)7998_storage)"
      },
      {
        "astId": 7916,
        "contract": "contracts/root/DLPRootImplementation.sol:DLPRootImplementation",
        "label": "stakesCount",
        "offset": 0,
        "slot": "23",
        "type": "t_uint256"
      },
      {
        "astId": 7921,
        "contract": "contracts/root/DLPRootImplementation.sol:DLPRootImplementation",
        "label": "_stakes",
        "offset": 0,
        "slot": "24",
        "type": "t_mapping(t_uint256,t_struct(Stake)7985_storage)"
      },
      {
        "astId": 7923,
        "contract": "contracts/root/DLPRootImplementation.sol:DLPRootImplementation",
        "label": "maxDlpStakersPercentage",
        "offset": 0,
        "slot": "25",
        "type": "t_uint256"
      },
      {
        "astId": 7927,
        "contract": "contracts/root/DLPRootImplementation.sol:DLPRootImplementation",
        "label": "dlpNameToId",
        "offset": 0,
        "slot": "26",
        "type": "t_mapping(t_string_memory_ptr,t_uint256)"
      },
      {
        "astId": 7931,
        "contract": "contracts/root/DLPRootImplementation.sol:DLPRootImplementation",
        "label": "dlpRootMetrics",
        "offset": 0,
        "slot": "27",
        "type": "t_contract(IDLPRootMetrics)9052"
      },
      {
        "astId": 7935,
        "contract": "contracts/root/DLPRootImplementation.sol:DLPRootImplementation",
        "label": "dlpRootRewardsTreasury",
        "offset": 0,
        "slot": "28",
        "type": "t_contract(IDLPRootTreasury)9082"
      },
      {
        "astId": 7939,
        "contract": "contracts/root/DLPRootImplementation.sol:DLPRootImplementation",
        "label": "dlpRootStakesTreasury",
        "offset": 0,
        "slot": "29",
        "type": "t_contract(IDLPRootTreasury)9082"
      },
      {
        "astId": 7943,
        "contract": "contracts/root/DLPRootImplementation.sol:DLPRootImplementation",
        "label": "dlpRootCore",
        "offset": 0,
        "slot": "30",
        "type": "t_contract(IDLPRootCore)8625"
      },
      {
        "astId": 7947,
        "contract": "contracts/root/DLPRootImplementation.sol:DLPRootImplementation",
        "label": "dlpRootEpoch",
        "offset": 0,
        "slot": "31",
        "type": "t_contract(IDLPRootEpoch)8830"
      },
      {
        "astId": 7949,
        "contract": "contracts/root/DLPRootImplementation.sol:DLPRootImplementation",
        "label": "stakingLastBlockNumber",
        "offset": 0,
        "slot": "32",
        "type": "t_uint256"
      },
      {
        "astId": 7952,
        "contract": "contracts/root/DLPRootImplementation.sol:DLPRootImplementation",
        "label": "vanaPoolStaking",
        "offset": 0,
        "slot": "33",
        "type": "t_contract(IVanaPoolStaking)11467"
      }
    ],
    "types": {
      "t_address": {
        "encoding": "inplace",
        "label": "address",
        "numberOfBytes": "20"
      },
      "t_address_payable": {
        "encoding": "inplace",
        "label": "address payable",
        "numberOfBytes": "20"
      },
      "t_array(t_bytes32)dyn_storage": {
        "base": "t_bytes32",
        "encoding": "dynamic_array",
        "label": "bytes32[]",
        "numberOfBytes": "32"
      },
      "t_array(t_struct(Checkpoint208)3813_storage)dyn_storage": {
        "base": "t_struct(Checkpoint208)3813_storage",
        "encoding": "dynamic_array",
        "label": "struct Checkpoints.Checkpoint208[]",
        "numberOfBytes": "32"
      },
      "t_bool": {
        "encoding": "inplace",
        "label": "bool",
        "numberOfBytes": "1"
      },
      "t_bytes32": {
        "encoding": "inplace",
        "label": "bytes32",
        "numberOfBytes": "32"
      },
      "t_contract(IDLPRootCore)8625": {
        "encoding": "inplace",
        "label": "contract IDLPRootCore",
        "numberOfBytes": "20"
      },
      "t_contract(IDLPRootEpoch)8830": {
        "encoding": "inplace",
        "label": "contract IDLPRootEpoch",
        "numberOfBytes": "20"
      },
      "t_contract(IDLPRootMetrics)9052": {
        "encoding": "inplace",
        "label": "contract IDLPRootMetrics",
        "numberOfBytes": "20"
      },
      "t_contract(IDLPRootTreasury)9082": {
        "encoding": "inplace",
        "label": "contract IDLPRootTreasury",
        "numberOfBytes": "20"
      },
      "t_contract(IVanaPoolStaking)11467": {
        "encoding": "inplace",
        "label": "contract IVanaPoolStaking",
        "numberOfBytes": "20"
      },
      "t_enum(DlpStatus)8284": {
        "encoding": "inplace",
        "label": "enum IDLPRootDeprecated.DlpStatus",
        "numberOfBytes": "1"
      },
      "t_mapping(t_address,t_struct(Staker)7998_storage)": {
        "encoding": "mapping",
        "key": "t_address",
        "label": "mapping(address => struct IDLPRoot.Staker)",
        "numberOfBytes": "32",
        "value": "t_struct(Staker)7998_storage"
      },
      "t_mapping(t_address,t_uint256)": {
        "encoding": "mapping",
        "key": "t_address",
        "label": "mapping(address => uint256)",
        "numberOfBytes": "32",
        "value": "t_uint256"
      },
      "t_mapping(t_bytes32,t_uint256)": {
        "encoding": "mapping",
        "key": "t_bytes32",
        "label": "mapping(bytes32 => uint256)",
        "numberOfBytes": "32",
        "value": "t_uint256"
      },
      "t_mapping(t_string_memory_ptr,t_uint256)": {
        "encoding": "mapping",
        "key": "t_string_memory_ptr",
        "label": "mapping(string => uint256)",
        "numberOfBytes": "32",
        "value": "t_uint256"
      },
      "t_mapping(t_uint256,t_struct(Dlp)8323_storage)": {
        "encoding": "mapping",
        "key": "t_uint256",
        "label": "mapping(uint256 => struct IDLPRootDeprecated.Dlp)",
        "numberOfBytes": "32",
        "value": "t_struct(Dlp)8323_storage"
      },
      "t_mapping(t_uint256,t_struct(Epoch)8349_storage)": {
        "encoding": "mapping",
        "key": "t_uint256",
        "label": "mapping(uint256 => struct IDLPRootDeprecated.Epoch)",
        "numberOfBytes": "32",
        "value": "t_struct(Epoch)8349_storage"
      },
      "t_mapping(t_uint256,t_struct(EpochDlp)8332_storage)": {
        "encoding": "mapping",
        "key": "t_uint256",
        "label": "mapping(uint256 => struct IDLPRootDeprecated.EpochDlp)",
        "numberOfBytes": "32",
        "value": "t_struct(EpochDlp)8332_storage"
      },
      "t_mapping(t_uint256,t_struct(Stake)7985_storage)": {
        "encoding": "mapping",
        "key": "t_uint256",
        "label": "mapping(uint256 => struct IDLPRoot.Stake)",
        "numberOfBytes": "32",
        "value": "t_struct(Stake)7985_storage"
      },
      "t_mapping(t_uint256,t_uint256)": {
        "encoding": "mapping",
        "key": "t_uint256",
        "label": "mapping(uint256 => uint256)",
        "numberOfBytes": "32",
        "value": "t_uint256"
      },
      "t_string_memory_ptr": {
        "encoding": "bytes",
        "label": "string",
        "numberOfBytes": "32"
      },
      "t_string_storage": {
        "encoding": "bytes",
        "label": "string",
        "numberOfBytes": "32"
      },
      "t_struct(AddressSet)5172_storage": {
        "encoding": "inplace",
        "label": "struct EnumerableSet.AddressSet",
        "members": [
          {
            "astId": 5171,
            "contract": "contracts/root/DLPRootImplementation.sol:DLPRootImplementation",
            "label": "_inner",
            "offset": 0,
            "slot": "0",
            "type": "t_struct(Set)4857_storage"
          }
        ],
        "numberOfBytes": "64"
      },
      "t_struct(Checkpoint208)3813_storage": {
        "encoding": "inplace",
        "label": "struct Checkpoints.Checkpoint208",
        "members": [
          {
            "astId": 3810,
            "contract": "contracts/root/DLPRootImplementation.sol:DLPRootImplementation",
            "label": "_key",
            "offset": 0,
            "slot": "0",
            "type": "t_uint48"
          },
          {
            "astId": 3812,
            "contract": "contracts/root/DLPRootImplementation.sol:DLPRootImplementation",
            "label": "_value",
            "offset": 6,
            "slot": "0",
            "type": "t_uint208"
          }
        ],
        "numberOfBytes": "32"
      },
      "t_struct(Dlp)8323_storage": {
        "encoding": "inplace",
        "label": "struct IDLPRootDeprecated.Dlp",
        "members": [
          {
            "astId": 8286,
            "contract": "contracts/root/DLPRootImplementation.sol:DLPRootImplementation",
            "label": "id",
            "offset": 0,
            "slot": "0",
            "type": "t_uint256"
          },
          {
            "astId": 8288,
            "contract": "contracts/root/DLPRootImplementation.sol:DLPRootImplementation",
            "label": "dlpAddress",
            "offset": 0,
            "slot": "1",
            "type": "t_address"
          },
          {
            "astId": 8290,
            "contract": "contracts/root/DLPRootImplementation.sol:DLPRootImplementation",
            "label": "ownerAddress",
            "offset": 0,
            "slot": "2",
            "type": "t_address"
          },
          {
            "astId": 8292,
            "contract": "contracts/root/DLPRootImplementation.sol:DLPRootImplementation",
            "label": "treasuryAddress",
            "offset": 0,
            "slot": "3",
            "type": "t_address_payable"
          },
          {
            "astId": 8295,
            "contract": "contracts/root/DLPRootImplementation.sol:DLPRootImplementation",
            "label": "stakersPercentageCheckpoints",
            "offset": 0,
            "slot": "4",
            "type": "t_struct(Trace208)3808_storage"
          },
          {
            "astId": 8297,
            "contract": "contracts/root/DLPRootImplementation.sol:DLPRootImplementation",
            "label": "name",
            "offset": 0,
            "slot": "5",
            "type": "t_string_storage"
          },
          {
            "astId": 8299,
            "contract": "contracts/root/DLPRootImplementation.sol:DLPRootImplementation",
            "label": "iconUrl",
            "offset": 0,
            "slot": "6",
            "type": "t_string_storage"
          },
          {
            "astId": 8301,
            "contract": "contracts/root/DLPRootImplementation.sol:DLPRootImplementation",
            "label": "website",
            "offset": 0,
            "slot": "7",
            "type": "t_string_storage"
          },
          {
            "astId": 8303,
            "contract": "contracts/root/DLPRootImplementation.sol:DLPRootImplementation",
            "label": "metadata",
            "offset": 0,
            "slot": "8",
            "type": "t_string_storage"
          },
          {
            "astId": 8306,
            "contract": "contracts/root/DLPRootImplementation.sol:DLPRootImplementation",
            "label": "status",
            "offset": 0,
            "slot": "9",
            "type": "t_enum(DlpStatus)8284"
          },
          {
            "astId": 8308,
            "contract": "contracts/root/DLPRootImplementation.sol:DLPRootImplementation",
            "label": "registrationBlockNumber",
            "offset": 0,
            "slot": "10",
            "type": "t_uint256"
          },
          {
            "astId": 8311,
            "contract": "contracts/root/DLPRootImplementation.sol:DLPRootImplementation",
            "label": "stakeAmountCheckpoints",
            "offset": 0,
            "slot": "11",
            "type": "t_struct(Trace208)3808_storage"
          },
          {
            "astId": 8314,
            "contract": "contracts/root/DLPRootImplementation.sol:DLPRootImplementation",
            "label": "unstakeAmountCheckpoints",
            "offset": 0,
            "slot": "12",
            "type": "t_struct(Trace208)3808_storage"
          },
          {
            "astId": 8316,
            "contract": "contracts/root/DLPRootImplementation.sol:DLPRootImplementation",
            "label": "epochIdsCount",
            "offset": 0,
            "slot": "13",
            "type": "t_uint256"
          },
          {
            "astId": 8320,
            "contract": "contracts/root/DLPRootImplementation.sol:DLPRootImplementation",
            "label": "epochIds",
            "offset": 0,
            "slot": "14",
            "type": "t_mapping(t_uint256,t_uint256)"
          },
          {
            "astId": 8322,
            "contract": "contracts/root/DLPRootImplementation.sol:DLPRootImplementation",
            "label": "isVerified",
            "offset": 0,
            "slot": "15",
            "type": "t_bool"
          }
        ],
        "numberOfBytes": "512"
      },
      "t_struct(Epoch)8349_storage": {
        "encoding": "inplace",
        "label": "struct IDLPRootDeprecated.Epoch",
        "members": [
          {
            "astId": 8334,
            "contract": "contracts/root/DLPRootImplementation.sol:DLPRootImplementation",
            "label": "startBlock",
            "offset": 0,
            "slot": "0",
            "type": "t_uint256"
          },
          {
            "astId": 8336,
            "contract": "contracts/root/DLPRootImplementation.sol:DLPRootImplementation",
            "label": "endBlock",
            "offset": 0,
            "slot": "1",
            "type": "t_uint256"
          },
          {
            "astId": 8338,
            "contract": "contracts/root/DLPRootImplementation.sol:DLPRootImplementation",
            "label": "rewardAmount",
            "offset": 0,
            "slot": "2",
            "type": "t_uint256"
          },
          {
            "astId": 8340,
            "contract": "contracts/root/DLPRootImplementation.sol:DLPRootImplementation",
            "label": "isFinalised",
            "offset": 0,
            "slot": "3",
            "type": "t_bool"
          },
          {
            "astId": 8343,
            "contract": "contracts/root/DLPRootImplementation.sol:DLPRootImplementation",
            "label": "dlpIds",
            "offset": 0,
            "slot": "4",
            "type": "t_struct(UintSet)5329_storage"
          },
          {
            "astId": 8348,
            "contract": "contracts/root/DLPRootImplementation.sol:DLPRootImplementation",
            "label": "dlps",
            "offset": 0,
            "slot": "6",
            "type": "t_mapping(t_uint256,t_struct(EpochDlp)8332_storage)"
          }
        ],
        "numberOfBytes": "224"
      },
      "t_struct(EpochDlp)8332_storage": {
        "encoding": "inplace",
        "label": "struct IDLPRootDeprecated.EpochDlp",
        "members": [
          {
            "astId": 8325,
            "contract": "contracts/root/DLPRootImplementation.sol:DLPRootImplementation",
            "label": "rewardAmount",
            "offset": 0,
            "slot": "0",
            "type": "t_uint256"
          },
          {
            "astId": 8327,
            "contract": "contracts/root/DLPRootImplementation.sol:DLPRootImplementation",
            "label": "stakersRewardAmount",
            "offset": 0,
            "slot": "1",
            "type": "t_uint256"
          },
          {
            "astId": 8329,
            "contract": "contracts/root/DLPRootImplementation.sol:DLPRootImplementation",
            "label": "totalStakesScore",
            "offset": 0,
            "slot": "2",
            "type": "t_uint256"
          },
          {
            "astId": 8331,
            "contract": "contracts/root/DLPRootImplementation.sol:DLPRootImplementation",
            "label": "rewardClaimed",
            "offset": 0,
            "slot": "3",
            "type": "t_bool"
          }
        ],
        "numberOfBytes": "128"
      },
      "t_struct(Set)4857_storage": {
        "encoding": "inplace",
        "label": "struct EnumerableSet.Set",
        "members": [
          {
            "astId": 4852,
            "contract": "contracts/root/DLPRootImplementation.sol:DLPRootImplementation",
            "label": "_values",
            "offset": 0,
            "slot": "0",
            "type": "t_array(t_bytes32)dyn_storage"
          },
          {
            "astId": 4856,
            "contract": "contracts/root/DLPRootImplementation.sol:DLPRootImplementation",
            "label": "_positions",
            "offset": 0,
            "slot": "1",
            "type": "t_mapping(t_bytes32,t_uint256)"
          }
        ],
        "numberOfBytes": "64"
      },
      "t_struct(Stake)7985_storage": {
        "encoding": "inplace",
        "label": "struct IDLPRoot.Stake",
        "members": [
          {
            "astId": 7966,
            "contract": "contracts/root/DLPRootImplementation.sol:DLPRootImplementation",
            "label": "stakerAddress",
            "offset": 0,
            "slot": "0",
            "type": "t_address"
          },
          {
            "astId": 7968,
            "contract": "contracts/root/DLPRootImplementation.sol:DLPRootImplementation",
            "label": "dlpId",
            "offset": 0,
            "slot": "1",
            "type": "t_uint256"
          },
          {
            "astId": 7970,
            "contract": "contracts/root/DLPRootImplementation.sol:DLPRootImplementation",
            "label": "amount",
            "offset": 0,
            "slot": "2",
            "type": "t_uint256"
          },
          {
            "astId": 7972,
            "contract": "contracts/root/DLPRootImplementation.sol:DLPRootImplementation",
            "label": "startBlock",
            "offset": 0,
            "slot": "3",
            "type": "t_uint256"
          },
          {
            "astId": 7974,
            "contract": "contracts/root/DLPRootImplementation.sol:DLPRootImplementation",
            "label": "endBlock",
            "offset": 0,
            "slot": "4",
            "type": "t_uint256"
          },
          {
            "astId": 7976,
            "contract": "contracts/root/DLPRootImplementation.sol:DLPRootImplementation",
            "label": "withdrawn",
            "offset": 0,
            "slot": "5",
            "type": "t_bool"
          },
          {
            "astId": 7978,
            "contract": "contracts/root/DLPRootImplementation.sol:DLPRootImplementation",
            "label": "lastClaimedIndexEpochId",
            "offset": 0,
            "slot": "6",
            "type": "t_uint256"
          },
          {
            "astId": 7982,
            "contract": "contracts/root/DLPRootImplementation.sol:DLPRootImplementation",
            "label": "claimedAmounts",
            "offset": 0,
            "slot": "7",
            "type": "t_mapping(t_uint256,t_uint256)"
          },
          {
            "astId": 7984,
            "contract": "contracts/root/DLPRootImplementation.sol:DLPRootImplementation",
            "label": "movedAmount",
            "offset": 0,
            "slot": "8",
            "type": "t_uint256"
          }
        ],
        "numberOfBytes": "288"
      },
      "t_struct(Staker)7998_storage": {
        "encoding": "inplace",
        "label": "struct IDLPRoot.Staker",
        "members": [
          {
            "astId": 7988,
            "contract": "contracts/root/DLPRootImplementation.sol:DLPRootImplementation",
            "label": "dlpIds",
            "offset": 0,
            "slot": "0",
            "type": "t_struct(UintSet)5329_storage"
          },
          {
            "astId": 7992,
            "contract": "contracts/root/DLPRootImplementation.sol:DLPRootImplementation",
            "label": "dlpStakeAmounts",
            "offset": 0,
            "slot": "2",
            "type": "t_mapping(t_uint256,t_uint256)"
          },
          {
            "astId": 7995,
            "contract": "contracts/root/DLPRootImplementation.sol:DLPRootImplementation",
            "label": "stakeIds",
            "offset": 0,
            "slot": "3",
            "type": "t_struct(UintSet)5329_storage"
          },
          {
            "astId": 7997,
            "contract": "contracts/root/DLPRootImplementation.sol:DLPRootImplementation",
            "label": "totalStakeAmount",
            "offset": 0,
            "slot": "5",
            "type": "t_uint256"
          }
        ],
        "numberOfBytes": "192"
      },
      "t_struct(Trace208)3808_storage": {
        "encoding": "inplace",
        "label": "struct Checkpoints.Trace208",
        "members": [
          {
            "astId": 3807,
            "contract": "contracts/root/DLPRootImplementation.sol:DLPRootImplementation",
            "label": "_checkpoints",
            "offset": 0,
            "slot": "0",
            "type": "t_array(t_struct(Checkpoint208)3813_storage)dyn_storage"
          }
        ],
        "numberOfBytes": "32"
      },
      "t_struct(UintSet)5329_storage": {
        "encoding": "inplace",
        "label": "struct EnumerableSet.UintSet",
        "members": [
          {
            "astId": 5328,
            "contract": "contracts/root/DLPRootImplementation.sol:DLPRootImplementation",
            "label": "_inner",
            "offset": 0,
            "slot": "0",
            "type": "t_struct(Set)4857_storage"
          }
        ],
        "numberOfBytes": "64"
      },
      "t_uint208": {
        "encoding": "inplace",
        "label": "uint208",
        "numberOfBytes": "26"
      },
      "t_uint256": {
        "encoding": "inplace",
        "label": "uint256",
        "numberOfBytes": "32"
      },
      "t_uint48": {
        "encoding": "inplace",
        "label": "uint48",
        "numberOfBytes": "6"
      }
    }
  }
}