{
  "address": "0x42455FbdC2B729f2e84765683B0b547b6941c2e9",
  "abi": [
    {
      "inputs": [],
      "stateMutability": "nonpayable",
      "type": "constructor"
    },
    {
      "inputs": [],
      "name": "AccessControlBadConfirmation",
      "type": "error"
    },
    {
      "inputs": [
        {
          "internalType": "address",
          "name": "account",
          "type": "address"
        },
        {
          "internalType": "bytes32",
          "name": "neededRole",
          "type": "bytes32"
        }
      ],
      "name": "AccessControlUnauthorizedAccount",
      "type": "error"
    },
    {
      "inputs": [
        {
          "internalType": "address",
          "name": "target",
          "type": "address"
        }
      ],
      "name": "AddressEmptyCode",
      "type": "error"
    },
    {
      "inputs": [],
      "name": "CheckpointUnorderedInsertion",
      "type": "error"
    },
    {
      "inputs": [],
      "name": "DlpAddressCannotBeChanged",
      "type": "error"
    },
    {
      "inputs": [
        {
          "internalType": "address",
          "name": "implementation",
          "type": "address"
        }
      ],
      "name": "ERC1967InvalidImplementation",
      "type": "error"
    },
    {
      "inputs": [],
      "name": "ERC1967NonPayable",
      "type": "error"
    },
    {
      "inputs": [],
      "name": "EnforcedPause",
      "type": "error"
    },
    {
      "inputs": [],
      "name": "EpochDlpScoreAlreadySaved",
      "type": "error"
    },
    {
      "inputs": [],
      "name": "EpochNotEnded",
      "type": "error"
    },
    {
      "inputs": [],
      "name": "EpochRewardsAlreadyDistributed",
      "type": "error"
    },
    {
      "inputs": [],
      "name": "ExpectedPause",
      "type": "error"
    },
    {
      "inputs": [],
      "name": "FailedInnerCall",
      "type": "error"
    },
    {
      "inputs": [],
      "name": "InvalidAddress",
      "type": "error"
    },
    {
      "inputs": [],
      "name": "InvalidDlpId",
      "type": "error"
    },
    {
      "inputs": [],
      "name": "InvalidDlpStatus",
      "type": "error"
    },
    {
      "inputs": [],
      "name": "InvalidInitialization",
      "type": "error"
    },
    {
      "inputs": [],
      "name": "InvalidName",
      "type": "error"
    },
    {
      "inputs": [],
      "name": "InvalidParam",
      "type": "error"
    },
    {
      "inputs": [],
      "name": "InvalidStakeAmount",
      "type": "error"
    },
    {
      "inputs": [],
      "name": "InvalidStakersPercentage",
      "type": "error"
    },
    {
      "inputs": [],
      "name": "LastEpochMustBeFinalised",
      "type": "error"
    },
    {
      "inputs": [],
      "name": "NotDlpOwner",
      "type": "error"
    },
    {
      "inputs": [],
      "name": "NotInitializing",
      "type": "error"
    },
    {
      "inputs": [],
      "name": "NotStakeOwner",
      "type": "error"
    },
    {
      "inputs": [],
      "name": "NothingToClaim",
      "type": "error"
    },
    {
      "inputs": [],
      "name": "ReentrancyGuardReentrantCall",
      "type": "error"
    },
    {
      "inputs": [],
      "name": "StakeAlreadyClosed",
      "type": "error"
    },
    {
      "inputs": [],
      "name": "StakeAlreadyWithdrawn",
      "type": "error"
    },
    {
      "inputs": [],
      "name": "StakeNotClosed",
      "type": "error"
    },
    {
      "inputs": [],
      "name": "StakeWithdrawalTooEarly",
      "type": "error"
    },
    {
      "inputs": [],
      "name": "TransferFailed",
      "type": "error"
    },
    {
      "inputs": [],
      "name": "UUPSUnauthorizedCallContext",
      "type": "error"
    },
    {
      "inputs": [
        {
          "internalType": "bytes32",
          "name": "slot",
          "type": "bytes32"
        }
      ],
      "name": "UUPSUnsupportedProxiableUUID",
      "type": "error"
    },
    {
      "anonymous": false,
      "inputs": [
        {
          "indexed": false,
          "internalType": "uint256",
          "name": "newDlpEligibilityThreshold",
          "type": "uint256"
        }
      ],
      "name": "DlpEligibilityThresholdUpdated",
      "type": "event"
    },
    {
      "anonymous": false,
      "inputs": [
        {
          "indexed": true,
          "internalType": "uint256",
          "name": "dlpId",
          "type": "uint256"
        },
        {
          "indexed": true,
          "internalType": "address",
          "name": "dlpAddress",
          "type": "address"
        },
        {
          "indexed": false,
          "internalType": "address",
          "name": "ownerAddress",
          "type": "address"
        },
        {
          "indexed": false,
          "internalType": "address",
          "name": "treasuryAddress",
          "type": "address"
        },
        {
          "indexed": false,
          "internalType": "uint256",
          "name": "stakersPercentage",
          "type": "uint256"
        },
        {
          "indexed": false,
          "internalType": "string",
          "name": "name",
          "type": "string"
        },
        {
          "indexed": false,
          "internalType": "string",
          "name": "iconUrl",
          "type": "string"
        },
        {
          "indexed": false,
          "internalType": "string",
          "name": "website",
          "type": "string"
        },
        {
          "indexed": false,
          "internalType": "string",
          "name": "metadata",
          "type": "string"
        }
      ],
      "name": "DlpRegistered",
      "type": "event"
    },
    {
      "anonymous": false,
      "inputs": [
        {
          "indexed": true,
          "internalType": "uint256",
          "name": "dlpId",
          "type": "uint256"
        },
        {
          "indexed": false,
          "internalType": "enum IDLPRootCore.DlpStatus",
          "name": "newStatus",
          "type": "uint8"
        }
      ],
      "name": "DlpStatusUpdated",
      "type": "event"
    },
    {
      "anonymous": false,
      "inputs": [
        {
          "indexed": false,
          "internalType": "uint256",
          "name": "newDlpSubEligibilityThreshold",
          "type": "uint256"
        }
      ],
      "name": "DlpSubEligibilityThresholdUpdated",
      "type": "event"
    },
    {
      "anonymous": false,
      "inputs": [
        {
          "indexed": true,
          "internalType": "uint256",
          "name": "dlpId",
          "type": "uint256"
        },
        {
          "indexed": true,
          "internalType": "address",
          "name": "dlpAddress",
          "type": "address"
        },
        {
          "indexed": false,
          "internalType": "address",
          "name": "ownerAddress",
          "type": "address"
        },
        {
          "indexed": false,
          "internalType": "address",
          "name": "treasuryAddress",
          "type": "address"
        },
        {
          "indexed": false,
          "internalType": "uint256",
          "name": "stakersPercentage",
          "type": "uint256"
        },
        {
          "indexed": false,
          "internalType": "string",
          "name": "name",
          "type": "string"
        },
        {
          "indexed": false,
          "internalType": "string",
          "name": "iconUrl",
          "type": "string"
        },
        {
          "indexed": false,
          "internalType": "string",
          "name": "website",
          "type": "string"
        },
        {
          "indexed": false,
          "internalType": "string",
          "name": "metadata",
          "type": "string"
        }
      ],
      "name": "DlpUpdated",
      "type": "event"
    },
    {
      "anonymous": false,
      "inputs": [
        {
          "indexed": true,
          "internalType": "uint256",
          "name": "dlpId",
          "type": "uint256"
        },
        {
          "indexed": false,
          "internalType": "bool",
          "name": "verified",
          "type": "bool"
        }
      ],
      "name": "DlpVerificationUpdated",
      "type": "event"
    },
    {
      "anonymous": false,
      "inputs": [
        {
          "indexed": false,
          "internalType": "uint64",
          "name": "version",
          "type": "uint64"
        }
      ],
      "name": "Initialized",
      "type": "event"
    },
    {
      "anonymous": false,
      "inputs": [
        {
          "indexed": false,
          "internalType": "uint256",
          "name": "newMaxDlpStakersPercentage",
          "type": "uint256"
        }
      ],
      "name": "MaxDlpStakersPercentageUpdated",
      "type": "event"
    },
    {
      "anonymous": false,
      "inputs": [
        {
          "indexed": false,
          "internalType": "uint256",
          "name": "newMinDlpRegistrationStake",
          "type": "uint256"
        }
      ],
      "name": "MinDlpRegistrationStakeUpdated",
      "type": "event"
    },
    {
      "anonymous": false,
      "inputs": [
        {
          "indexed": false,
          "internalType": "uint256",
          "name": "newMinDlpStakersPercentage",
          "type": "uint256"
        }
      ],
      "name": "MinDlpStakersPercentageUpdated",
      "type": "event"
    },
    {
      "anonymous": false,
      "inputs": [
        {
          "indexed": false,
          "internalType": "uint256",
          "name": "newMinStakeAmount",
          "type": "uint256"
        }
      ],
      "name": "MinStakeAmountUpdated",
      "type": "event"
    },
    {
      "anonymous": false,
      "inputs": [
        {
          "indexed": false,
          "internalType": "address",
          "name": "account",
          "type": "address"
        }
      ],
      "name": "Paused",
      "type": "event"
    },
    {
      "anonymous": false,
      "inputs": [
        {
          "indexed": true,
          "internalType": "bytes32",
          "name": "role",
          "type": "bytes32"
        },
        {
          "indexed": true,
          "internalType": "bytes32",
          "name": "previousAdminRole",
          "type": "bytes32"
        },
        {
          "indexed": true,
          "internalType": "bytes32",
          "name": "newAdminRole",
          "type": "bytes32"
        }
      ],
      "name": "RoleAdminChanged",
      "type": "event"
    },
    {
      "anonymous": false,
      "inputs": [
        {
          "indexed": true,
          "internalType": "bytes32",
          "name": "role",
          "type": "bytes32"
        },
        {
          "indexed": true,
          "internalType": "address",
          "name": "account",
          "type": "address"
        },
        {
          "indexed": true,
          "internalType": "address",
          "name": "sender",
          "type": "address"
        }
      ],
      "name": "RoleGranted",
      "type": "event"
    },
    {
      "anonymous": false,
      "inputs": [
        {
          "indexed": true,
          "internalType": "bytes32",
          "name": "role",
          "type": "bytes32"
        },
        {
          "indexed": true,
          "internalType": "address",
          "name": "account",
          "type": "address"
        },
        {
          "indexed": true,
          "internalType": "address",
          "name": "sender",
          "type": "address"
        }
      ],
      "name": "RoleRevoked",
      "type": "event"
    },
    {
      "anonymous": false,
      "inputs": [
        {
          "indexed": false,
          "internalType": "address",
          "name": "account",
          "type": "address"
        }
      ],
      "name": "Unpaused",
      "type": "event"
    },
    {
      "anonymous": false,
      "inputs": [
        {
          "indexed": true,
          "internalType": "address",
          "name": "implementation",
          "type": "address"
        }
      ],
      "name": "Upgraded",
      "type": "event"
    },
    {
      "inputs": [],
      "name": "DEFAULT_ADMIN_ROLE",
      "outputs": [
        {
          "internalType": "bytes32",
          "name": "",
          "type": "bytes32"
        }
      ],
      "stateMutability": "view",
      "type": "function"
    },
    {
      "inputs": [],
      "name": "DLP_ROOT_ROLE",
      "outputs": [
        {
          "internalType": "bytes32",
          "name": "",
          "type": "bytes32"
        }
      ],
      "stateMutability": "view",
      "type": "function"
    },
    {
      "inputs": [],
      "name": "MAINTAINER_ROLE",
      "outputs": [
        {
          "internalType": "bytes32",
          "name": "",
          "type": "bytes32"
        }
      ],
      "stateMutability": "view",
      "type": "function"
    },
    {
      "inputs": [],
      "name": "MANAGER_ROLE",
      "outputs": [
        {
          "internalType": "bytes32",
          "name": "",
          "type": "bytes32"
        }
      ],
      "stateMutability": "view",
      "type": "function"
    },
    {
      "inputs": [],
      "name": "NEW_MULTIPLIER_EPOCH",
      "outputs": [
        {
          "internalType": "uint256",
          "name": "",
          "type": "uint256"
        }
      ],
      "stateMutability": "view",
      "type": "function"
    },
    {
      "inputs": [],
      "name": "UPGRADE_INTERFACE_VERSION",
      "outputs": [
        {
          "internalType": "string",
          "name": "",
          "type": "string"
        }
      ],
      "stateMutability": "view",
      "type": "function"
    },
    {
      "inputs": [
        {
          "internalType": "uint256",
          "name": "dlpId",
          "type": "uint256"
        },
        {
          "internalType": "uint256",
          "name": "amount",
          "type": "uint256"
        }
      ],
      "name": "addDlpStake",
      "outputs": [],
      "stateMutability": "nonpayable",
      "type": "function"
    },
    {
      "inputs": [
        {
          "internalType": "uint256",
          "name": "dlpId",
          "type": "uint256"
        }
      ],
      "name": "deregisterDlp",
      "outputs": [],
      "stateMutability": "nonpayable",
      "type": "function"
    },
    {
      "inputs": [],
      "name": "dlpEligibilityThreshold",
      "outputs": [
        {
          "internalType": "uint256",
          "name": "",
          "type": "uint256"
        }
      ],
      "stateMutability": "view",
      "type": "function"
    },
    {
      "inputs": [
        {
          "internalType": "uint256",
          "name": "dlpId",
          "type": "uint256"
        },
        {
          "internalType": "uint256",
          "name": "epochId",
          "type": "uint256"
        }
      ],
      "name": "dlpEpochStakeAmount",
      "outputs": [
        {
          "internalType": "uint256",
          "name": "",
          "type": "uint256"
        }
      ],
      "stateMutability": "view",
      "type": "function"
    },
    {
      "inputs": [
        {
          "internalType": "address",
          "name": "dlpAddress",
          "type": "address"
        }
      ],
      "name": "dlpIds",
      "outputs": [
        {
          "internalType": "uint256",
          "name": "dlpId",
          "type": "uint256"
        }
      ],
      "stateMutability": "view",
      "type": "function"
    },
    {
      "inputs": [
        {
          "internalType": "string",
          "name": "dlpName",
          "type": "string"
        }
      ],
      "name": "dlpNameToId",
      "outputs": [
        {
          "internalType": "uint256",
          "name": "dlpId",
          "type": "uint256"
        }
      ],
      "stateMutability": "view",
      "type": "function"
    },
    {
      "inputs": [],
      "name": "dlpRoot",
      "outputs": [
        {
          "internalType": "contract IDLPRoot",
          "name": "",
          "type": "address"
        }
      ],
      "stateMutability": "view",
      "type": "function"
    },
    {
      "inputs": [],
      "name": "dlpSubEligibilityThreshold",
      "outputs": [
        {
          "internalType": "uint256",
          "name": "",
          "type": "uint256"
        }
      ],
      "stateMutability": "view",
      "type": "function"
    },
    {
      "inputs": [
        {
          "internalType": "uint256",
          "name": "dlpId",
          "type": "uint256"
        }
      ],
      "name": "dlps",
      "outputs": [
        {
          "components": [
            {
              "internalType": "uint256",
              "name": "id",
              "type": "uint256"
            },
            {
              "internalType": "address",
              "name": "dlpAddress",
              "type": "address"
            },
            {
              "internalType": "address",
              "name": "ownerAddress",
              "type": "address"
            },
            {
              "internalType": "address",
              "name": "treasuryAddress",
              "type": "address"
            },
            {
              "internalType": "uint256",
              "name": "stakersPercentage",
              "type": "uint256"
            },
            {
              "internalType": "uint256",
              "name": "stakersPercentageEpoch",
              "type": "uint256"
            },
            {
              "internalType": "string",
              "name": "name",
              "type": "string"
            },
            {
              "internalType": "string",
              "name": "iconUrl",
              "type": "string"
            },
            {
              "internalType": "string",
              "name": "website",
              "type": "string"
            },
            {
              "internalType": "string",
              "name": "metadata",
              "type": "string"
            },
            {
              "internalType": "enum IDLPRootCore.DlpStatus",
              "name": "status",
              "type": "uint8"
            },
            {
              "internalType": "uint256",
              "name": "registrationBlockNumber",
              "type": "uint256"
            },
            {
              "internalType": "uint256",
              "name": "stakeAmount",
              "type": "uint256"
            },
            {
              "internalType": "bool",
              "name": "isVerified",
              "type": "bool"
            }
          ],
          "internalType": "struct IDLPRootCore.DlpInfo",
          "name": "",
          "type": "tuple"
        }
      ],
      "stateMutability": "view",
      "type": "function"
    },
    {
      "inputs": [
        {
          "internalType": "address",
          "name": "dlpAddress",
          "type": "address"
        }
      ],
      "name": "dlpsByAddress",
      "outputs": [
        {
          "components": [
            {
              "internalType": "uint256",
              "name": "id",
              "type": "uint256"
            },
            {
              "internalType": "address",
              "name": "dlpAddress",
              "type": "address"
            },
            {
              "internalType": "address",
              "name": "ownerAddress",
              "type": "address"
            },
            {
              "internalType": "address",
              "name": "treasuryAddress",
              "type": "address"
            },
            {
              "internalType": "uint256",
              "name": "stakersPercentage",
              "type": "uint256"
            },
            {
              "internalType": "uint256",
              "name": "stakersPercentageEpoch",
              "type": "uint256"
            },
            {
              "internalType": "string",
              "name": "name",
              "type": "string"
            },
            {
              "internalType": "string",
              "name": "iconUrl",
              "type": "string"
            },
            {
              "internalType": "string",
              "name": "website",
              "type": "string"
            },
            {
              "internalType": "string",
              "name": "metadata",
              "type": "string"
            },
            {
              "internalType": "enum IDLPRootCore.DlpStatus",
              "name": "status",
              "type": "uint8"
            },
            {
              "internalType": "uint256",
              "name": "registrationBlockNumber",
              "type": "uint256"
            },
            {
              "internalType": "uint256",
              "name": "stakeAmount",
              "type": "uint256"
            },
            {
              "internalType": "bool",
              "name": "isVerified",
              "type": "bool"
            }
          ],
          "internalType": "struct IDLPRootCore.DlpInfo",
          "name": "",
          "type": "tuple"
        }
      ],
      "stateMutability": "view",
      "type": "function"
    },
    {
      "inputs": [
        {
          "internalType": "string",
          "name": "dlpName",
          "type": "string"
        }
      ],
      "name": "dlpsByName",
      "outputs": [
        {
          "components": [
            {
              "internalType": "uint256",
              "name": "id",
              "type": "uint256"
            },
            {
              "internalType": "address",
              "name": "dlpAddress",
              "type": "address"
            },
            {
              "internalType": "address",
              "name": "ownerAddress",
              "type": "address"
            },
            {
              "internalType": "address",
              "name": "treasuryAddress",
              "type": "address"
            },
            {
              "internalType": "uint256",
              "name": "stakersPercentage",
              "type": "uint256"
            },
            {
              "internalType": "uint256",
              "name": "stakersPercentageEpoch",
              "type": "uint256"
            },
            {
              "internalType": "string",
              "name": "name",
              "type": "string"
            },
            {
              "internalType": "string",
              "name": "iconUrl",
              "type": "string"
            },
            {
              "internalType": "string",
              "name": "website",
              "type": "string"
            },
            {
              "internalType": "string",
              "name": "metadata",
              "type": "string"
            },
            {
              "internalType": "enum IDLPRootCore.DlpStatus",
              "name": "status",
              "type": "uint8"
            },
            {
              "internalType": "uint256",
              "name": "registrationBlockNumber",
              "type": "uint256"
            },
            {
              "internalType": "uint256",
              "name": "stakeAmount",
              "type": "uint256"
            },
            {
              "internalType": "bool",
              "name": "isVerified",
              "type": "bool"
            }
          ],
          "internalType": "struct IDLPRootCore.DlpInfo",
          "name": "",
          "type": "tuple"
        }
      ],
      "stateMutability": "view",
      "type": "function"
    },
    {
      "inputs": [],
      "name": "dlpsCount",
      "outputs": [
        {
          "internalType": "uint256",
          "name": "",
          "type": "uint256"
        }
      ],
      "stateMutability": "view",
      "type": "function"
    },
    {
      "inputs": [],
      "name": "eligibleDlpsLimit",
      "outputs": [
        {
          "internalType": "uint256",
          "name": "",
          "type": "uint256"
        }
      ],
      "stateMutability": "view",
      "type": "function"
    },
    {
      "inputs": [
        {
          "internalType": "uint256",
          "name": "index",
          "type": "uint256"
        }
      ],
      "name": "eligibleDlpsListAt",
      "outputs": [
        {
          "internalType": "uint256",
          "name": "",
          "type": "uint256"
        }
      ],
      "stateMutability": "view",
      "type": "function"
    },
    {
      "inputs": [],
      "name": "eligibleDlpsListCount",
      "outputs": [
        {
          "internalType": "uint256",
          "name": "",
          "type": "uint256"
        }
      ],
      "stateMutability": "view",
      "type": "function"
    },
    {
      "inputs": [],
      "name": "eligibleDlpsListValues",
      "outputs": [
        {
          "internalType": "uint256[]",
          "name": "",
          "type": "uint256[]"
        }
      ],
      "stateMutability": "view",
      "type": "function"
    },
    {
      "inputs": [
        {
          "internalType": "bytes32",
          "name": "role",
          "type": "bytes32"
        }
      ],
      "name": "getRoleAdmin",
      "outputs": [
        {
          "internalType": "bytes32",
          "name": "",
          "type": "bytes32"
        }
      ],
      "stateMutability": "view",
      "type": "function"
    },
    {
      "inputs": [
        {
          "internalType": "bytes32",
          "name": "role",
          "type": "bytes32"
        },
        {
          "internalType": "address",
          "name": "account",
          "type": "address"
        }
      ],
      "name": "grantRole",
      "outputs": [],
      "stateMutability": "nonpayable",
      "type": "function"
    },
    {
      "inputs": [
        {
          "internalType": "bytes32",
          "name": "role",
          "type": "bytes32"
        },
        {
          "internalType": "address",
          "name": "account",
          "type": "address"
        }
      ],
      "name": "hasRole",
      "outputs": [
        {
          "internalType": "bool",
          "name": "",
          "type": "bool"
        }
      ],
      "stateMutability": "view",
      "type": "function"
    },
    {
      "inputs": [
        {
          "internalType": "address",
          "name": "ownerAddress",
          "type": "address"
        },
        {
          "internalType": "address",
          "name": "dlpRootAddress",
          "type": "address"
        }
      ],
      "name": "initialize",
      "outputs": [],
      "stateMutability": "nonpayable",
      "type": "function"
    },
    {
      "inputs": [],
      "name": "maxDlpStakersPercentage",
      "outputs": [
        {
          "internalType": "uint256",
          "name": "",
          "type": "uint256"
        }
      ],
      "stateMutability": "view",
      "type": "function"
    },
    {
      "inputs": [
        {
          "internalType": "uint256",
          "name": "startDlpId",
          "type": "uint256"
        },
        {
          "internalType": "uint256",
          "name": "endDlpId",
          "type": "uint256"
        }
      ],
      "name": "migrateDlpData",
      "outputs": [],
      "stateMutability": "nonpayable",
      "type": "function"
    },
    {
      "inputs": [
        {
          "internalType": "uint256",
          "name": "startDlpId",
          "type": "uint256"
        },
        {
          "internalType": "uint256",
          "name": "endDlpId",
          "type": "uint256"
        }
      ],
      "name": "migrateLastEpochDlpStakeData",
      "outputs": [],
      "stateMutability": "nonpayable",
      "type": "function"
    },
    {
      "inputs": [],
      "name": "migrateParametersData",
      "outputs": [],
      "stateMutability": "nonpayable",
      "type": "function"
    },
    {
      "inputs": [],
      "name": "minDlpRegistrationStake",
      "outputs": [
        {
          "internalType": "uint256",
          "name": "",
          "type": "uint256"
        }
      ],
      "stateMutability": "view",
      "type": "function"
    },
    {
      "inputs": [],
      "name": "minDlpStakersPercentage",
      "outputs": [
        {
          "internalType": "uint256",
          "name": "",
          "type": "uint256"
        }
      ],
      "stateMutability": "view",
      "type": "function"
    },
    {
      "inputs": [],
      "name": "pause",
      "outputs": [],
      "stateMutability": "nonpayable",
      "type": "function"
    },
    {
      "inputs": [],
      "name": "paused",
      "outputs": [
        {
          "internalType": "bool",
          "name": "",
          "type": "bool"
        }
      ],
      "stateMutability": "view",
      "type": "function"
    },
    {
      "inputs": [],
      "name": "proxiableUUID",
      "outputs": [
        {
          "internalType": "bytes32",
          "name": "",
          "type": "bytes32"
        }
      ],
      "stateMutability": "view",
      "type": "function"
    },
    {
      "inputs": [
        {
          "components": [
            {
              "internalType": "address",
              "name": "dlpAddress",
              "type": "address"
            },
            {
              "internalType": "address",
              "name": "ownerAddress",
              "type": "address"
            },
            {
              "internalType": "address payable",
              "name": "treasuryAddress",
              "type": "address"
            },
            {
              "internalType": "uint256",
              "name": "stakersPercentage",
              "type": "uint256"
            },
            {
              "internalType": "string",
              "name": "name",
              "type": "string"
            },
            {
              "internalType": "string",
              "name": "iconUrl",
              "type": "string"
            },
            {
              "internalType": "string",
              "name": "website",
              "type": "string"
            },
            {
              "internalType": "string",
              "name": "metadata",
              "type": "string"
            }
          ],
          "internalType": "struct IDLPRootCore.DlpRegistration",
          "name": "registrationInfo",
          "type": "tuple"
        }
      ],
      "name": "registerDlp",
      "outputs": [],
      "stateMutability": "payable",
      "type": "function"
    },
    {
      "inputs": [
        {
          "internalType": "uint256",
          "name": "dlpId",
          "type": "uint256"
        },
        {
          "internalType": "uint256",
          "name": "amount",
          "type": "uint256"
        }
      ],
      "name": "removeDlpStake",
      "outputs": [],
      "stateMutability": "nonpayable",
      "type": "function"
    },
    {
      "inputs": [
        {
          "internalType": "bytes32",
          "name": "role",
          "type": "bytes32"
        },
        {
          "internalType": "address",
          "name": "callerConfirmation",
          "type": "address"
        }
      ],
      "name": "renounceRole",
      "outputs": [],
      "stateMutability": "nonpayable",
      "type": "function"
    },
    {
      "inputs": [
        {
          "internalType": "bytes32",
          "name": "role",
          "type": "bytes32"
        },
        {
          "internalType": "address",
          "name": "account",
          "type": "address"
        }
      ],
      "name": "revokeRole",
      "outputs": [],
      "stateMutability": "nonpayable",
      "type": "function"
    },
    {
      "inputs": [
        {
          "internalType": "bytes4",
          "name": "interfaceId",
          "type": "bytes4"
        }
      ],
      "name": "supportsInterface",
      "outputs": [
        {
          "internalType": "bool",
          "name": "",
          "type": "bool"
        }
      ],
      "stateMutability": "view",
      "type": "function"
    },
    {
      "inputs": [],
      "name": "unpause",
      "outputs": [],
      "stateMutability": "nonpayable",
      "type": "function"
    },
    {
      "inputs": [
        {
          "internalType": "uint256",
          "name": "dlpId",
          "type": "uint256"
        },
        {
          "components": [
            {
              "internalType": "address",
              "name": "dlpAddress",
              "type": "address"
            },
            {
              "internalType": "address",
              "name": "ownerAddress",
              "type": "address"
            },
            {
              "internalType": "address payable",
              "name": "treasuryAddress",
              "type": "address"
            },
            {
              "internalType": "uint256",
              "name": "stakersPercentage",
              "type": "uint256"
            },
            {
              "internalType": "string",
              "name": "name",
              "type": "string"
            },
            {
              "internalType": "string",
              "name": "iconUrl",
              "type": "string"
            },
            {
              "internalType": "string",
              "name": "website",
              "type": "string"
            },
            {
              "internalType": "string",
              "name": "metadata",
              "type": "string"
            }
          ],
          "internalType": "struct IDLPRootCore.DlpRegistration",
          "name": "dlpUpdateInfo",
          "type": "tuple"
        }
      ],
      "name": "updateDlp",
      "outputs": [],
      "stateMutability": "nonpayable",
      "type": "function"
    },
    {
      "inputs": [
        {
          "internalType": "uint256",
          "name": "newDlpSubEligibilityThreshold",
          "type": "uint256"
        },
        {
          "internalType": "uint256",
          "name": "newDlpEligibilityThreshold",
          "type": "uint256"
        }
      ],
      "name": "updateDlpEligibilityThresholds",
      "outputs": [],
      "stateMutability": "nonpayable",
      "type": "function"
    },
    {
      "inputs": [
        {
          "internalType": "address",
          "name": "newDlpRootAddress",
          "type": "address"
        }
      ],
      "name": "updateDlpRoot",
      "outputs": [],
      "stateMutability": "nonpayable",
      "type": "function"
    },
    {
      "inputs": [
        {
          "internalType": "uint256",
          "name": "newMinDlpStakersPercentage",
          "type": "uint256"
        },
        {
          "internalType": "uint256",
          "name": "newMaxDlpStakersPercentage",
          "type": "uint256"
        }
      ],
      "name": "updateDlpStakersPercentages",
      "outputs": [],
      "stateMutability": "nonpayable",
      "type": "function"
    },
    {
      "inputs": [
        {
          "internalType": "uint256",
          "name": "dlpId",
          "type": "uint256"
        },
        {
          "internalType": "bool",
          "name": "isVerified",
          "type": "bool"
        }
      ],
      "name": "updateDlpVerification",
      "outputs": [],
      "stateMutability": "nonpayable",
      "type": "function"
    },
    {
      "inputs": [
        {
          "internalType": "uint256",
          "name": "newMinDlpRegistrationStake",
          "type": "uint256"
        }
      ],
      "name": "updateMinDlpRegistrationStake",
      "outputs": [],
      "stateMutability": "nonpayable",
      "type": "function"
    },
    {
      "inputs": [
        {
          "internalType": "address",
          "name": "newImplementation",
          "type": "address"
        },
        {
          "internalType": "bytes",
          "name": "data",
          "type": "bytes"
        }
      ],
      "name": "upgradeToAndCall",
      "outputs": [],
      "stateMutability": "payable",
      "type": "function"
    },
    {
      "inputs": [],
      "name": "version",
      "outputs": [
        {
          "internalType": "uint256",
          "name": "",
          "type": "uint256"
        }
      ],
      "stateMutability": "pure",
      "type": "function"
    }
  ],
  "transactionHash": "0xe594569f0381fb622c613d15bcc916231fe0a37be7527bc35b19dd6176c026ee",
  "args": [],
  "numDeployments": 3,
  "solcInputHash": "1f3018f734273939cf39145cdecb8e9a",
  "bytecode": "0x60a0604052306080523480156200001557600080fd5b506200002062000026565b620000da565b7ff0c57e16840df040f15088dc2f81fe391c3923bec73e23a9662efc9c229c6a00805468010000000000000000900460ff1615620000775760405163f92ee8a960e01b815260040160405180910390fd5b80546001600160401b0390811614620000d75780546001600160401b0319166001600160401b0390811782556040519081527fc7f505b2f371ae2175ee4913f4499e1f2633a7b5936321eed1cdaeb6115181d29060200160405180910390a15b50565b608051614d0262000104600039600081816132f10152818161331a015261345e0152614d026000f3fe60806040526004361061022e5760003560e01c806301159c701461023357806301ffc9a714610255578063028f31f31461028a57806303a229f6146102ae57806305c1c3f4146102d057806307e0cd17146102e3578063098d2f3c146102f95780632393526f1461031957806324404fa714610339578063248a9ca3146103665780632cc90df7146103865780632f2ff15d146103a657806336568abe146103c65780633f4ba83a146103e65780633fa411f8146103fb578063439b37561461041b578063485cc955146104485780634f1ef2861461046857806352d1902d1461047b57806354fd4d50146104905780635c975abb146104a45780635d342e98146104b95780635ec47f7d146104ce57806368ed41ed146104ee5780636d3527111461050457806372c9acdc1461051957806373801a881461052f578063776ddebc1461054f5780638456cb59146105875780638e991ff31461059c578063901d97f6146105b257806391d14854146105d25780639dc6fe5a146105f25780639e8e6717146106125780639f80210414610628578063a217fddf14610648578063ad3cb1cc1461065d578063b4fcea1d1461069b578063c06020b0146106bb578063cdf2003e146106e8578063d210ecd4146106fe578063d25f33e51461071e578063d547741f14610740578063ddadf36914610760578063e5c8307d14610780578063ea83e47b146107a0578063ec5903f4146107c0578063ec87621c146107d5578063f8742254146107f7575b600080fd5b34801561023f57600080fd5b5061025361024e366004613cc6565b610819565b005b34801561026157600080fd5b50610275610270366004613ce3565b610854565b60405190151581526020015b60405180910390f35b34801561029657600080fd5b506102a060025481565b604051908152602001610281565b3480156102ba57600080fd5b506102c361088b565b6040516102819190613d0d565b6102536102de366004613d6a565b61089c565b3480156102ef57600080fd5b506102a060065481565b34801561030557600080fd5b50610253610314366004613da6565b61091a565b34801561032557600080fd5b506102a0610334366004613dc8565b610b97565b34801561034557600080fd5b50600054610359906001600160a01b031681565b6040516102819190613de1565b34801561037257600080fd5b506102a0610381366004613dc8565b610ba4565b34801561039257600080fd5b506102536103a1366004613da6565b610bc4565b3480156103b257600080fd5b506102536103c1366004613df5565b610d04565b3480156103d257600080fd5b506102536103e1366004613df5565b610d20565b3480156103f257600080fd5b50610253610d58565b34801561040757600080fd5b50610253610416366004613da6565b610d78565b34801561042757600080fd5b5061043b610436366004613cc6565b61104d565b6040516102819190613eba565b34801561045457600080fd5b50610253610463366004613fd3565b611077565b6102536104763660046140f7565b6111f9565b34801561048757600080fd5b506102a0611218565b34801561049c57600080fd5b5060016102a0565b3480156104b057600080fd5b50610275611235565b3480156104c557600080fd5b5061025361124a565b3480156104da57600080fd5b506102536104e9366004613da6565b611478565b3480156104fa57600080fd5b506102a060075481565b34801561051057600080fd5b506102a0611751565b34801561052557600080fd5b506102a060035481565b34801561053b57600080fd5b5061025361054a366004614168565b61175d565b34801561055b57600080fd5b506102a061056a36600461418d565b8051602081830181018051600a8252928201919093012091525481565b34801561059357600080fd5b506102536118e3565b3480156105a857600080fd5b506102a060045481565b3480156105be57600080fd5b506102536105cd366004613dc8565b611903565b3480156105de57600080fd5b506102756105ed366004613df5565b6119ef565b3480156105fe57600080fd5b5061043b61060d3660046141d5565b611a25565b34801561061e57600080fd5b506102a060015481565b34801561063457600080fd5b50610253610643366004613da6565b611a5d565b34801561065457600080fd5b506102a0600081565b34801561066957600080fd5b5061068e604051806040016040528060058152602001640352e302e360dc1b81525081565b6040516102819190614246565b3480156106a757600080fd5b506102536106b6366004613dc8565b611b0b565b3480156106c757600080fd5b506102a06106d6366004613cc6565b60096020526000908152604090205481565b3480156106f457600080fd5b506102a060055481565b34801561070a57600080fd5b50610253610719366004613da6565b611d88565b34801561072a57600080fd5b506102a0600080516020614c6d83398151915281565b34801561074c57600080fd5b5061025361075b366004613df5565b612124565b34801561076c57600080fd5b5061025361077b366004614259565b612140565b34801561078c57600080fd5b506102a061079b366004613da6565b612652565b3480156107ac57600080fd5b5061043b6107bb366004613dc8565b61267d565b3480156107cc57600080fd5b506102a0600381565b3480156107e157600080fd5b506102a0600080516020614c4d83398151915281565b34801561080357600080fd5b506102a0600080516020614cad83398151915281565b600080516020614cad83398151915261083181612a38565b50600080546001600160a01b0319166001600160a01b0392909216919091179055565b60006001600160e01b03198216637965db0b60e01b148061088557506301ffc9a760e01b6001600160e01b03198316145b92915050565b6060610897600b612a42565b905090565b6108a4612a4f565b6108ac612a77565b6108b4612aad565b6001600160a01b03166376bc98696040518163ffffffff1660e01b8152600401600060405180830381600087803b1580156108ee57600080fd5b505af1158015610902573d6000803e3d6000fd5b5050505061090f81612b25565b61091761302a565b50565b600080516020614c6d83398151915261093281612a38565b60008381526008602052604090206109b6600b820161094f612aad565b6001600160a01b031663916e1c576040518163ffffffff1660e01b8152600401602060405180830381865afa15801561098c573d6000803e3d6000fd5b505050506040513d601f19601f820116820180604052508101906109b09190614295565b8561303b565b5050600c81015460ff168015610a0657506001600982015460ff1660048111156109e2576109e2613e82565b1480610a0657506003600982015460ff166004811115610a0457610a04613e82565b145b8015610a285750600554610a1c82600b0161306b565b6001600160d01b031610155b15610b9157610a38600b856130b2565b5060098101805460ff191660021790556000610a52612aad565b6001600160a01b031663916e1c576040518163ffffffff1660e01b8152600401602060405180830381865afa158015610a8f573d6000803e3d6000fd5b505050506040513d601f19601f82011682018060405250810190610ab39190614295565b9050600181118015610b4a5750610ac8612aad565b6001600160a01b031663c6b61e4c610ae16001846142c4565b6040518263ffffffff1660e01b8152600401610aff91815260200190565b600060405180830381865afa158015610b1c573d6000803e3d6000fd5b505050506040513d6000823e601f3d908101601f19168201604052610b449190810190614366565b60600151155b15610b6857604051630a5564fb60e41b815260040160405180910390fd5b84600080516020614c8d8339815191526002604051610b879190614403565b60405180910390a2505b50505050565b6000610885600b836130be565b600080610baf6130ca565b60009384526020525050604090206001015490565b600080516020614c4d833981519152610bdc81612a38565b600080546040805163916e1c5760e01b815290516001600160a01b039092169291839163916e1c579160048083019260209291908290030181865afa158015610c29573d6000803e3d6000fd5b505050506040513d601f19601f82011682018060405250810190610c4d9190614295565b9050845b848111610cfc576000818152600860205260408082209051630ab9444d60e21b815260048101849052602481018590529091906001600160a01b03861690632ae511349060440160e060405180830381865afa158015610cb5573d6000803e3d6000fd5b505050506040513d601f19601f82011682018060405250810190610cd99190614411565b9050610ced82600b018583600001516130ee565b50508260010192505050610c51565b505050505050565b610d0d82610ba4565b610d1681612a38565b610b9183836130fc565b6001600160a01b0381163314610d495760405163334bd91960e11b815260040160405180910390fd5b610d5382826131a4565b505050565b600080516020614cad833981519152610d7081612a38565b61091761321c565b600080516020614c6d833981519152610d9081612a38565b6000838152600860205260409020610e14600b8201610dad612aad565b6001600160a01b031663916e1c576040518163ffffffff1660e01b8152600401602060405180830381865afa158015610dea573d6000803e3d6000fd5b505050506040513d601f19601f82011682018060405250810190610e0e9190614295565b85613273565b50506000610e2482600b0161306b565b6001600160d01b0316905060065481108015610e7a57506003600983015460ff166004811115610e5657610e56613e82565b1480610e7a57506002600983015460ff166004811115610e7857610e78613e82565b145b15610fe75760098201805460ff19166001179055610e99600b8661328e565b506000610ea4612aad565b6001600160a01b031663916e1c576040518163ffffffff1660e01b8152600401602060405180830381865afa158015610ee1573d6000803e3d6000fd5b505050506040513d601f19601f82011682018060405250810190610f059190614295565b9050600181118015610f9c5750610f1a612aad565b6001600160a01b031663c6b61e4c610f336001846142c4565b6040518263ffffffff1660e01b8152600401610f5191815260200190565b600060405180830381865afa158015610f6e573d6000803e3d6000fd5b505050506040513d6000823e601f3d908101601f19168201604052610f969190810190614366565b60600151155b15610fba57604051630a5564fb60e41b815260040160405180910390fd5b85600080516020614c8d8339815191526001604051610fd99190614403565b60405180910390a250611046565b6005548110801561101057506002600983015460ff16600481111561100e5761100e613e82565b145b156110465760098201805460ff191660039081179091556040518691600080516020614c8d83398151915291610b879190614403565b5050505050565b611055613c14565b6001600160a01b0382166000908152600960205260409020546108859061267d565b600061108161329a565b805490915060ff600160401b82041615906001600160401b03166000811580156110a85750825b90506000826001600160401b031660011480156110c45750303b155b9050811580156110d2575080155b156110f05760405163f92ee8a960e01b815260040160405180910390fd5b84546001600160401b0319166001178555831561111957845460ff60401b1916600160401b1785555b6111216132be565b6111296132be565b6111316132c6565b6111396132d6565b600080546001600160a01b0319166001600160a01b03881617815561115e90886130fc565b50611177600080516020614cad833981519152886130fc565b50611190600080516020614c4d833981519152886130fc565b506111a9600080516020614c6d833981519152876130fc565b5083156111f057845460ff60401b19168555604051600181527fc7f505b2f371ae2175ee4913f4499e1f2633a7b5936321eed1cdaeb6115181d29060200160405180910390a15b50505050505050565b6112016132e6565b61120a8261338b565b6112148282613396565b5050565b6000611222613453565b50600080516020614c2d83398151915290565b60008061124061349c565b5460ff1692915050565b600080516020614c4d83398151915261126281612a38565b6000546040805163028f31f360e01b815290516001600160a01b0390921691829163028f31f39160048083019260209291908290030181865afa1580156112ad573d6000803e3d6000fd5b505050506040513d601f19601f820116820180604052508101906112d19190614295565b600281905550806001600160a01b03166372c9acdc6040518163ffffffff1660e01b8152600401602060405180830381865afa158015611315573d6000803e3d6000fd5b505050506040513d601f19601f820116820180604052508101906113399190614295565b600381905550806001600160a01b0316638e991ff36040518163ffffffff1660e01b8152600401602060405180830381865afa15801561137d573d6000803e3d6000fd5b505050506040513d601f19601f820116820180604052508101906113a19190614295565b600481905550806001600160a01b031663cdf2003e6040518163ffffffff1660e01b8152600401602060405180830381865afa1580156113e5573d6000803e3d6000fd5b505050506040513d601f19601f820116820180604052508101906114099190614295565b600581905550806001600160a01b03166307e0cd176040518163ffffffff1660e01b8152600401602060405180830381865afa15801561144d573d6000803e3d6000fd5b505050506040513d601f19601f820116820180604052508101906114719190614295565b6006555050565b600080516020614cad83398151915261149081612a38565b662386f26fc100008310806114a457508183115b156114c257604051633494a40d60e21b815260040160405180910390fd5b600283905560038290556040518381527fcf130ebf0154d300b5d8c2c20f243f2e34a4dbbd54ddd70492f35f89f5c72e009060200160405180910390a16040518281527f597ef447da3fcf95d1df392ba918a66ae2de15f4b5f47371c336b4e99a57008f9060200160405180910390a160075460015b8181116110465760008181526008602052604090206004600982015460ff16600481111561156857611568613e82565b1461174857600061157b8260040161306b565b6001600160d01b0316905086811015611668576116048260040161159d612aad565b6001600160a01b031663916e1c576040518163ffffffff1660e01b8152600401602060405180830381865afa1580156115da573d6000803e3d6000fd5b505050506040513d601f19601f820116820180604052508101906115fe9190614295565b896130ee565b50506001820154600283015460038401546040516001600160a01b03938416938793600080516020614c0d8339815191529361165b939183169216908d9060058a019060068b019060078c019060088d0190614556565b60405180910390a3611746565b85811115611746576116e68260040161167f612aad565b6001600160a01b031663916e1c576040518163ffffffff1660e01b8152600401602060405180830381865afa1580156116bc573d6000803e3d6000fd5b505050506040513d601f19601f820116820180604052508101906116e09190614295565b886130ee565b50506001820154600283015460038401546040516001600160a01b03938416938793600080516020614c0d8339815191529361173d939183169216908c9060058a019060068b019060078c019060088d0190614556565b60405180910390a35b505b50600101611538565b6000610897600b6134c0565b600080516020614cad83398151915261177581612a38565b6000838152600860205260408120600c8101805460ff191685151517905590600982015460ff1660048111156117ad576117ad613e82565b14806117d157506004600982015460ff1660048111156117cf576117cf613e82565b145b156117ef57604051636e1ed6c560e11b815260040160405180910390fd5b837fe11c4b38855d86735092f8c7e790a86765bacd0fe47618b41eb0c5142aea69c884604051611823911515815260200190565b60405180910390a260055461183a82600b0161306b565b6001600160d01b031610610b9157821561189857611859600b856130b2565b5060098101805460ff191660029081179091556040518591600080516020614c8d8339815191529161188b9190614403565b60405180910390a2610b91565b6118a3600b8561328e565b5060098101805460ff191660019081179091556040518591600080516020614c8d833981519152916118d59190614403565b60405180910390a250505050565b600080516020614cad8339815191526118fb81612a38565b6109176134ca565b600080516020614cad83398151915261191b81612a38565b60005460408051633c621da160e21b8152905184926001600160a01b03169163f18876849160048083019260209291908290030181865afa158015611964573d6000803e3d6000fd5b505050506040513d601f19601f820116820180604052508101906119889190614295565b1180611995575060065482115b156119b357604051633494a40d60e21b815260040160405180910390fd5b60048290556040518281527ff2a6752ea06dfdf93ef2d0ac5db269e4d58636cd56f160ed0c96e0a0a272362a9060200160405180910390a15050565b6000806119fa6130ca565b6000948552602090815260408086206001600160a01b03959095168652939052505090205460ff1690565b611a2d613c14565b611a56600a8484604051611a429291906145d1565b90815260200160405180910390205461267d565b9392505050565b600080516020614cad833981519152611a7581612a38565b81831115611a9657604051633494a40d60e21b815260040160405180910390fd5b600683905560058290556040518381527f5486872ddb5ca216cd9cb1f6e2e232e468aa32e312fbccba2ffb5edc831cfb2c9060200160405180910390a16040518281527f97eca98512abc502b3bb1ef19702bf7eb53a988b87fd250138fbbfd1b62782c99060200160405180910390a1505050565b611b13612a4f565b611b1b612a77565b60008181526008602052604090206002015481906001600160a01b03163314611b5757604051633387d70760e01b815260040160405180910390fd5b611b5f612aad565b6001600160a01b03166376bc98696040518163ffffffff1660e01b8152600401600060405180830381600087803b158015611b9957600080fd5b505af1158015611bad573d6000803e3d6000fd5b50505060008381526008602052604081209150600982015460ff166004811115611bd957611bd9613e82565b1480611bfd57506004600982015460ff166004811115611bfb57611bfb613e82565b145b15611c1b57604051636e1ed6c560e11b815260040160405180910390fd5b60098101805460ff19166004179055611c35600b8461328e565b506000611c40612aad565b6001600160a01b031663916e1c576040518163ffffffff1660e01b8152600401602060405180830381865afa158015611c7d573d6000803e3d6000fd5b505050506040513d601f19601f82011682018060405250810190611ca19190614295565b9050600181118015611d385750611cb6612aad565b6001600160a01b031663c6b61e4c611ccf6001846142c4565b6040518263ffffffff1660e01b8152600401611ced91815260200190565b600060405180830381865afa158015611d0a573d6000803e3d6000fd5b505050506040513d6000823e601f3d908101601f19168201604052611d329190810190614366565b60600151155b15611d5657604051630a5564fb60e41b815260040160405180910390fd5b83600080516020614c8d8339815191526004604051611d759190614403565b60405180910390a250505061091761302a565b600080516020614c4d833981519152611da081612a38565b600080546040805163916e1c5760e01b815290516001600160a01b039092169291839163916e1c579160048083019260209291908290030181865afa158015611ded573d6000803e3d6000fd5b505050506040513d601f19601f82011682018060405250810190611e119190614295565b9050845b848111610cfc5760405163ea83e47b60e01b8152600481018290526000906001600160a01b0385169063ea83e47b90602401600060405180830381865afa158015611e64573d6000803e3d6000fd5b505050506040513d6000823e601f3d908101601f19168201604052611e8c9190810190614640565b60008381526008602090815260409182902083518155908301516001820180546001600160a01b03199081166001600160a01b0393841617909155928401516002830180548516918316919091179055606084015160038301805490941691161790915560c0820151919250906005820190611f08908261482f565b5060e08201516006820190611f1d908261482f565b506101008201516007820190611f33908261482f565b506101208201516008820190611f49908261482f565b508161014001516004811115611f6157611f61613e82565b6004811115611f7257611f72613e82565b60098201805460ff19166001836004811115611f9057611f90613e82565b0217905550610160820151600a8201556101c0820151600c8201805460ff191691151591909117905560005b84811161206c57604051630ab9444d60e21b815260048101859052602481018290526000906001600160a01b03881690632ae511349060440160e060405180830381865afa158015612012573d6000803e3d6000fd5b505050506040513d601f19601f820116820180604052508101906120369190614411565b905061204a836004018383606001516130ee565b505061205e83600b018383600001516130ee565b505081600101915050611fbc565b506020808301516001600160a01b03166000908152600990915260409081902084905560c083015190518491600a916120a591906148e8565b90815260405190819003602001902055600282610140015160048111156120ce576120ce613e82565b60048111156120df576120df613e82565b60048111156120f0576120f0613e82565b0361210257612100600b846130b2565b505b6007805490600061211283614904565b91905055508260010192505050611e15565b61212d82610ba4565b61213681612a38565b610b9183836131a4565b612148612a4f565b612150612a77565b60008281526008602052604090206002015482906001600160a01b0316331461218c57604051633387d70760e01b815260040160405180910390fd5b612194612aad565b6001600160a01b03166376bc98696040518163ffffffff1660e01b8152600401600060405180830381600087803b1580156121ce57600080fd5b505af11580156121e2573d6000803e3d6000fd5b50600092506121fa9150506040840160208501613cc6565b6001600160a01b031614806122275750600061221c6060840160408501613cc6565b6001600160a01b0316145b156122455760405163e6c4247b60e01b815260040160405180910390fd5b6002548260600135108061225e57506003548260600135115b1561227c5760405163d1be20e560e01b815260040160405180910390fd5b60008381526008602090815260409091209061229a90840184613cc6565b60018201546001600160a01b039081169116146122ca57604051630cd0dd4360e11b815260040160405180910390fd5b6122da6040840160208501613cc6565b6002820180546001600160a01b0319166001600160a01b039290921691909117905561230c6060840160408501613cc6565b6003820180546001600160a01b0319166001600160a01b0392909216919091179055606083013561233f6004830161306b565b6001600160d01b0316146123ca576123c78160040161235c612aad565b6001600160a01b031663916e1c576040518163ffffffff1660e01b8152600401602060405180830381865afa158015612399573d6000803e3d6000fd5b505050506040513d601f19601f820116820180604052508101906123bd9190614295565b85606001356130ee565b50505b806005016040516123db9190614990565b6040519081900390206123f1608085018561499c565b6040516123ff9291906145d1565b60405180910390201461250057600a61241b608085018561499c565b6040516124299291906145d1565b908152602001604051809103902054600014158061248e575061248c612452608085018561499c565b8080601f01602080910402602001604051908101604052809392919081815260200183838082843760009201919091525061351192505050565b155b156124ac5760405163430f13b360e01b815260040160405180910390fd5b6000600a826005016040516124c19190614990565b9081526040519081900360200190205583600a6124e1608086018661499c565b6040516124ef9291906145d1565b908152604051908190036020019020555b61250d608084018461499c565b600583019161251d9190836149e9565b5061252b60a084018461499c565b600683019161253b9190836149e9565b5061254960c084018461499c565b60078301916125599190836149e9565b5061256760e084018461499c565b60088301916125779190836149e9565b50836009600061258a6020870187613cc6565b6001600160a01b03168152602080820192909252604001600020919091556125b490840184613cc6565b6001600160a01b031684600080516020614c0d8339815191526125dd6040870160208801613cc6565b6125ed6060880160408901613cc6565b60608801356125ff60808a018a61499c565b61260c60a08c018c61499c565b61261960c08e018e61499c565b8e8060e00190612629919061499c565b6040516126409b9a99989796959493929190614acb565b60405180910390a3505061121461302a565b600082815260086020526040812061266d90600b018361356d565b6001600160d01b03169392505050565b612685613c14565b60008281526008602052604081209061269c612aad565b6001600160a01b031663916e1c576040518163ffffffff1660e01b8152600401602060405180830381865afa1580156126d9573d6000803e3d6000fd5b505050506040513d601f19601f820116820180604052508101906126fd9190614295565b604080516101c0810182528454815260018501546001600160a01b0390811660208301526002860154811692820192909252600385015490911660608201529091506080810161274f6004850161306b565b6001600160d01b031681526020016127846000841161276f57600061277a565b61277a6001856142c4565b600486019061356d565b6001600160d01b031681526020018360050180546127a1906144a5565b80601f01602080910402602001604051908101604052809291908181526020018280546127cd906144a5565b801561281a5780601f106127ef5761010080835404028352916020019161281a565b820191906000526020600020905b8154815290600101906020018083116127fd57829003601f168201915b50505050508152602001836006018054612833906144a5565b80601f016020809104026020016040519081016040528092919081815260200182805461285f906144a5565b80156128ac5780601f10612881576101008083540402835291602001916128ac565b820191906000526020600020905b81548152906001019060200180831161288f57829003601f168201915b505050505081526020018360070180546128c5906144a5565b80601f01602080910402602001604051908101604052809291908181526020018280546128f1906144a5565b801561293e5780601f106129135761010080835404028352916020019161293e565b820191906000526020600020905b81548152906001019060200180831161292157829003601f168201915b50505050508152602001836008018054612957906144a5565b80601f0160208091040260200160405190810160405280929190818152602001828054612983906144a5565b80156129d05780601f106129a5576101008083540402835291602001916129d0565b820191906000526020600020905b8154815290600101906020018083116129b357829003601f168201915b5050509183525050600984015460209091019060ff1660048111156129f7576129f7613e82565b815260200183600a01548152602001612a1284600b0161306b565b6001600160d01b03168152600c9093015460ff1615156020909301929092525092915050565b61091781336135b8565b60606000611a56836135f1565b612a57611235565b15612a755760405163d93c066560e01b815260040160405180910390fd5b565b6000612a8161364d565b805490915060011901612aa757604051633ee5aeb560e01b815260040160405180910390fd5b60029055565b60008060009054906101000a90046001600160a01b03166001600160a01b03166320930fa46040518163ffffffff1660e01b8152600401602060405180830381865afa158015612b01573d6000803e3d6000fd5b505050506040513d601f19601f820116820180604052508101906108979190614b4e565b6000612b376040830160208401613cc6565b6001600160a01b03161480612b6457506000612b596060830160408401613cc6565b6001600160a01b0316145b15612b825760405163e6c4247b60e01b815260040160405180910390fd5b60096000612b936020840184613cc6565b6001600160a01b0316815260208101919091526040016000205415612bcb57604051636e1ed6c560e11b815260040160405180910390fd5b600a612bda608083018361499c565b604051612be89291906145d1565b9081526020016040518091039020546000141580612c135750612c11612452608083018361499c565b155b15612c315760405163430f13b360e01b815260040160405180910390fd5b60025481606001351080612c4a57506003548160600135115b15612c685760405163d1be20e560e01b815260040160405180910390fd5b600454341015612c8b57604051630103be3b60e21b815260040160405180910390fd5b6000600760008154612c9c90614904565b91829055506000818152600860205260408120919250612cba612aad565b6001600160a01b031663916e1c576040518163ffffffff1660e01b8152600401602060405180830381865afa158015612cf7573d6000803e3d6000fd5b505050506040513d601f19601f82011682018060405250810190612d1b9190614295565b8383559050612d2d6020850185613cc6565b6001830180546001600160a01b0319166001600160a01b0392909216919091179055612d5f6040850160208601613cc6565b6002830180546001600160a01b0319166001600160a01b0392909216919091179055612d916060850160408601613cc6565b6003830180546001600160a01b0319166001600160a01b0392909216919091179055612ddb6004830182612dc6576000612dd1565b612dd16001846142c4565b86606001356130ee565b50612deb9050608085018561499c565b6005840191612dfb9190836149e9565b50612e0960a085018561499c565b6006840191612e199190836149e9565b50612e2760c085018561499c565b6007840191612e379190836149e9565b50612e4560e085018561499c565b6008840191612e559190836149e9565b5043600a8301556009808301805460ff1916600117905583906000612e7d6020880188613cc6565b6001600160a01b0316815260208101919091526040016000205582600a612ea7608087018761499c565b604051612eb59291906145d1565b9081526040516020918190038201902091909155612ed590850185613cc6565b6001600160a01b0316837fb7474aa65f72ae77dbf02c6bd0a0d85749e7101f97fc94d524af373e832dc06a612f106040880160208901613cc6565b612f206060890160408a01613cc6565b6060890135612f3260808b018b61499c565b612f3f60a08d018d61499c565b612f4c60c08f018f61499c565b8f8060e00190612f5c919061499c565b604051612f739b9a99989796959493929190614acb565b60405180910390a382600080516020614c8d8339815191526001604051612f9a9190614403565b60405180910390a26000546001600160a01b031663d4e90b973485612fc56040890160208a01613cc6565b6040516001600160e01b031960e086901b16815260048101929092526001600160a01b031660248201526044016000604051808303818588803b15801561300b57600080fd5b505af115801561301f573d6000803e3d6000fd5b505050505050505050565b600061303461364d565b6001905550565b60008061305e848461304c8861306b565b6130569190614b6b565b879190613671565b915091505b935093915050565b805460009080156130a957613093836130856001846142c4565b600091825260209091200190565b54600160301b90046001600160d01b0316611a56565b60009392505050565b6000611a56838361367f565b6000611a5683836136ce565b7f02dd7bc7dec4dceedda775e58dd541e08a116c6c53815c0bd028192f7b62680090565b60008061305e858585613671565b6000806131076130ca565b905061311384846119ef565b613193576000848152602082815260408083206001600160a01b03871684529091529020805460ff191660011790556131493390565b6001600160a01b0316836001600160a01b0316857f2f8788117e7eff1d82e926ec794901d17c78024a50270940304540a733656f0d60405160405180910390a46001915050610885565b6000915050610885565b5092915050565b6000806131af6130ca565b90506131bb84846119ef565b15613193576000848152602082815260408083206001600160a01b0387168085529252808320805460ff1916905551339287917ff6391f5c32d9c69d2a47ea670b442974b53935d1edc7fd64eb21e047a839171b9190a46001915050610885565b6132246136f8565b600061322e61349c565b805460ff1916815590507f5db9ee0a495bf2e6ff9c91a7834c1ba4fdd244a5e8aa4e537bd38aeae4b073aa335b6040516132689190613de1565b60405180910390a150565b60008061305e84846132848861306b565b6130569190614b8b565b6000611a56838361371d565b7ff0c57e16840df040f15088dc2f81fe391c3923bec73e23a9662efc9c229c6a0090565b612a75613806565b6132ce613806565b612a7561382b565b6132de613806565b612a75613833565b306001600160a01b037f000000000000000000000000000000000000000000000000000000000000000016148061336d57507f00000000000000000000000000000000000000000000000000000000000000006001600160a01b0316613361600080516020614c2d833981519152546001600160a01b031690565b6001600160a01b031614155b15612a755760405163703e46dd60e11b815260040160405180910390fd5b600061121481612a38565b816001600160a01b03166352d1902d6040518163ffffffff1660e01b8152600401602060405180830381865afa9250505080156133f0575060408051601f3d908101601f191682019092526133ed91810190614295565b60015b6134185781604051634c9c8ce360e01b815260040161340f9190613de1565b60405180910390fd5b600080516020614c2d833981519152811461344957604051632a87526960e21b81526004810182905260240161340f565b610d538383613850565b306001600160a01b037f00000000000000000000000000000000000000000000000000000000000000001614612a755760405163703e46dd60e11b815260040160405180910390fd5b7fcd5ed15c6e187e77e9aee88184c21f4f2182ab5827cb3b7e07fbedcd63f0330090565b6000610885825490565b6134d2612a4f565b60006134dc61349c565b805460ff1916600117815590507f62e78cea01bee320cd4e420270b5ea74000d11b0c9f74754ebdbfc544b05a25861325b3390565b60008181805b82518110156135625782818151811061353257613532614bab565b6020910101516001600160f81b031916600160fd1b1461355a578161355681614904565b9250505b600101613517565b506003109392505050565b81546000908161357f858583856138a6565b905080156135ac57613596856130856001846142c4565b54600160301b90046001600160d01b03166135af565b60005b95945050505050565b6135c282826119ef565b6112145760405163e2517d3f60e01b81526001600160a01b03821660048201526024810183905260440161340f565b60608160000180548060200260200160405190810160405280929190818152602001828054801561364157602002820191906000526020600020905b81548152602001906001019080831161362d575b50505050509050919050565b7f9b779b17422d0df92223018b32b4d1fa46e071723d6817e2486d003becc55f0090565b60008061305e858585613908565b60008181526001830160205260408120546136c657508154600181810184556000848152602080822090930184905584548482528286019093526040902091909155610885565b506000610885565b60008260000182815481106136e5576136e5614bab565b9060005260206000200154905092915050565b613700611235565b612a7557604051638dfc202b60e01b815260040160405180910390fd5b600081815260018301602052604081205480156131935760006137416001836142c4565b8554909150600090613755906001906142c4565b90508082146137ba57600086600001828154811061377557613775614bab565b906000526020600020015490508087600001848154811061379857613798614bab565b6000918252602080832090910192909255918252600188019052604090208390555b85548690806137cb576137cb614bc1565b600190038181906000526020600020016000905590558560010160008681526020019081526020016000206000905560019350505050610885565b61380e613a82565b612a7557604051631afcd79f60e31b815260040160405180910390fd5b61302a613806565b61383b613806565b600061384561349c565b805460ff1916905550565b61385982613a9c565b6040516001600160a01b038316907fbc7cd75a20ee27fd9adebab32041f755214dbc6bffa90cc0225b39da2e5c2d3b90600090a280511561389e57610d538282613af8565b611214613b65565b60005b818310156139005760006138bd8484613b84565b60008781526020902090915065ffffffffffff86169082015465ffffffffffff1611156138ec578092506138fa565b6138f7816001614bd7565b93505b506138a9565b509392505050565b825460009081908015613a27576000613926876130856001856142c4565b60408051808201909152905465ffffffffffff808216808452600160301b9092046001600160d01b03166020840152919250908716101561397a57604051632520601d60e01b815260040160405180910390fd5b805165ffffffffffff8088169116036139c6578461399d886130856001866142c4565b80546001600160d01b0392909216600160301b0265ffffffffffff909216919091179055613a17565b6040805180820190915265ffffffffffff80881682526001600160d01b0380881660208085019182528b54600181018d5560008d81529190912094519151909216600160301b029216919091179101555b6020015192508391506130639050565b50506040805180820190915265ffffffffffff80851682526001600160d01b0380851660208085019182528854600181018a5560008a815291822095519251909316600160301b029190931617920191909155905081613063565b6000613a8c61329a565b54600160401b900460ff16919050565b806001600160a01b03163b600003613ac95780604051634c9c8ce360e01b815260040161340f9190613de1565b600080516020614c2d83398151915280546001600160a01b0319166001600160a01b0392909216919091179055565b6060600080846001600160a01b031684604051613b1591906148e8565b600060405180830381855af49150503d8060008114613b50576040519150601f19603f3d011682016040523d82523d6000602084013e613b55565b606091505b50915091506135af858383613b9f565b3415612a755760405163b398979f60e01b815260040160405180910390fd5b6000613b936002848418614bea565b611a5690848416614bd7565b606082613bb457613baf82613beb565b611a56565b8151158015613bcb57506001600160a01b0384163b155b1561319d5783604051639996b31560e01b815260040161340f9190613de1565b805115613bfb5780518082602001fd5b604051630a12f52160e11b815260040160405180910390fd5b604051806101c001604052806000815260200160006001600160a01b0316815260200160006001600160a01b0316815260200160006001600160a01b0316815260200160008152602001600081526020016060815260200160608152602001606081526020016060815260200160006004811115613c9457613c94613e82565b815260200160008152602001600081526020016000151581525090565b6001600160a01b038116811461091757600080fd5b600060208284031215613cd857600080fd5b8135611a5681613cb1565b600060208284031215613cf557600080fd5b81356001600160e01b031981168114611a5657600080fd5b6020808252825182820181905260009190848201906040850190845b81811015613d4557835183529284019291840191600101613d29565b50909695505050505050565b60006101008284031215613d6457600080fd5b50919050565b600060208284031215613d7c57600080fd5b81356001600160401b03811115613d9257600080fd5b613d9e84828501613d51565b949350505050565b60008060408385031215613db957600080fd5b50508035926020909101359150565b600060208284031215613dda57600080fd5b5035919050565b6001600160a01b0391909116815260200190565b60008060408385031215613e0857600080fd5b823591506020830135613e1a81613cb1565b809150509250929050565b6001600160a01b03169052565b60005b83811015613e4d578181015183820152602001613e35565b50506000910152565b60008151808452613e6e816020860160208601613e32565b601f01601f19169290920160200192915050565b634e487b7160e01b600052602160045260246000fd5b60058110613eb657634e487b7160e01b600052602160045260246000fd5b9052565b602081528151602082015260006020830151613ed96040840182613e25565b506040830151613eec6060840182613e25565b506060830151613eff6080840182613e25565b50608083015160a083015260a083015160c083015260c08301516101c08060e0850152613f306101e0850183613e56565b915060e0850151601f19610100818786030181880152613f508584613e56565b945080880151925050610120818786030181880152613f6f8584613e56565b945080880151925050610140818786030181880152613f8e8584613e56565b94508088015192505050610160613fa781870183613e98565b860151610180868101919091528601516101a08087019190915290950151151593019290925250919050565b60008060408385031215613fe657600080fd5b8235613ff181613cb1565b91506020830135613e1a81613cb1565b634e487b7160e01b600052604160045260246000fd5b60405160a081016001600160401b038111828210171561403957614039614001565b60405290565b6040516101e081016001600160401b038111828210171561403957614039614001565b604051601f8201601f191681016001600160401b038111828210171561408a5761408a614001565b604052919050565b60006001600160401b038211156140ab576140ab614001565b50601f01601f191660200190565b60006140cc6140c784614092565b614062565b90508281528383830111156140e057600080fd5b828260208301376000602084830101529392505050565b6000806040838503121561410a57600080fd5b823561411581613cb1565b915060208301356001600160401b0381111561413057600080fd5b8301601f8101851361414157600080fd5b614150858235602084016140b9565b9150509250929050565b801515811461091757600080fd5b6000806040838503121561417b57600080fd5b823591506020830135613e1a8161415a565b60006020828403121561419f57600080fd5b81356001600160401b038111156141b557600080fd5b8201601f810184136141c657600080fd5b613d9e848235602084016140b9565b600080602083850312156141e857600080fd5b82356001600160401b03808211156141ff57600080fd5b818501915085601f83011261421357600080fd5b81358181111561422257600080fd5b86602082850101111561423457600080fd5b60209290920196919550909350505050565b602081526000611a566020830184613e56565b6000806040838503121561426c57600080fd5b8235915060208301356001600160401b0381111561428957600080fd5b61415085828601613d51565b6000602082840312156142a757600080fd5b5051919050565b634e487b7160e01b600052601160045260246000fd5b81810381811115610885576108856142ae565b80516142e28161415a565b919050565b600082601f8301126142f857600080fd5b815160206001600160401b0382111561431357614313614001565b8160051b614322828201614062565b928352848101820192828101908785111561433c57600080fd5b83870192505b8483101561435b57825182529183019190830190614342565b979650505050505050565b60006020828403121561437857600080fd5b81516001600160401b038082111561438f57600080fd5b9083019060a082860312156143a357600080fd5b6143ab614017565b82518152602083015160208201526040830151604082015260608301516143d18161415a565b60608201526080830151828111156143e857600080fd5b6143f4878286016142e7565b60808301525095945050505050565b602081016108858284613e98565b600060e0828403121561442357600080fd5b60405160e081016001600160401b038111828210171561444557614445614001565b60405282518152602083015161445a8161415a565b8060208301525060408301516040820152606083015160608201526080830151608082015260a083015161448d8161415a565b60a082015260c0928301519281019290925250919050565b600181811c908216806144b957607f821691505b602082108103613d6457634e487b7160e01b600052602260045260246000fd5b600081546144e6816144a5565b808552602060018381168015614503576001811461451d5761454b565b60ff1985168884015283151560051b88018301955061454b565b866000528260002060005b858110156145435781548a8201860152908301908401614528565b890184019650505b505050505092915050565b6001600160a01b038881168252871660208201526040810186905260e060608201819052600090614589908301876144d9565b828103608084015261459b81876144d9565b905082810360a08401526145af81866144d9565b905082810360c08401526145c381856144d9565b9a9950505050505050505050565b8183823760009101908152919050565b80516142e281613cb1565b600082601f8301126145fd57600080fd5b815161460b6140c782614092565b81815284602083860101111561462057600080fd5b613d9e826020830160208701613e32565b8051600581106142e257600080fd5b60006020828403121561465257600080fd5b81516001600160401b038082111561466957600080fd5b908301906101e0828603121561467e57600080fd5b61468661403f565b82518152614696602084016145e1565b60208201526146a7604084016145e1565b60408201526146b8606084016145e1565b60608201526080830151608082015260a083015160a082015260c0830151828111156146e357600080fd5b6146ef878286016145ec565b60c08301525060e08301518281111561470757600080fd5b614713878286016145ec565b60e083015250610100808401518381111561472d57600080fd5b614739888287016145ec565b828401525050610120808401518381111561475357600080fd5b61475f888287016145ec565b828401525050610140614773818501614631565b90820152610160838101519082015261018080840151908201526101a080840151838111156147a157600080fd5b6147ad888287016142e7565b8284015250506101c091506147c38284016142d7565b91810191909152949350505050565b601f821115610d53576000816000526020600020601f850160051c810160208610156147fb5750805b601f850160051c820191505b81811015610cfc57828155600101614807565b600019600383901b1c191660019190911b1790565b81516001600160401b0381111561484857614848614001565b61485c8161485684546144a5565b846147d2565b602080601f83116001811461488b57600084156148795750858301515b614883858261481a565b865550610cfc565b600085815260208120601f198616915b828110156148ba5788860151825594840194600190910190840161489b565b50858210156148d85787850151600019600388901b60f8161c191681555b5050505050600190811b01905550565b600082516148fa818460208701613e32565b9190910192915050565b600060018201614916576149166142ae565b5060010190565b6000815461492a816144a5565b60018281168015614942576001811461495757614986565b60ff1984168752821515830287019450614986565b8560005260208060002060005b8581101561497d5781548a820152908401908201614964565b50505082870194505b5050505092915050565b6000611a56828461491d565b6000808335601e198436030181126149b357600080fd5b8301803591506001600160401b038211156149cd57600080fd5b6020019150368190038213156149e257600080fd5b9250929050565b6001600160401b03831115614a0057614a00614001565b614a1483614a0e83546144a5565b836147d2565b6000601f841160018114614a425760008515614a305750838201355b614a3a868261481a565b845550611046565b600083815260209020601f19861690835b82811015614a735786850135825560209485019460019092019101614a53565b5086821015614a905760001960f88860031b161c19848701351681555b505060018560011b0183555050505050565b81835281816020850137506000828201602090810191909152601f909101601f19169091010190565b6001600160a01b038c811682528b166020820152604081018a905260e060608201819052600090614aff9083018a8c614aa2565b8281036080840152614b1281898b614aa2565b905082810360a0840152614b27818789614aa2565b905082810360c0840152614b3c818587614aa2565b9e9d5050505050505050505050505050565b600060208284031215614b6057600080fd5b8151611a5681613cb1565b6001600160d01b0381811683821601908082111561319d5761319d6142ae565b6001600160d01b0382811682821603908082111561319d5761319d6142ae565b634e487b7160e01b600052603260045260246000fd5b634e487b7160e01b600052603160045260246000fd5b80820180821115610885576108856142ae565b600082614c0757634e487b7160e01b600052601260045260246000fd5b50049056fedfb704f30cb8b5a69562201718d3bdfd1299983f120f8ff3932b295bfa15aede360894a13ba1a3210667c828492db98dca3e2076cc3735a920a3ca505d382bbc241ecf16d79d0f8dbfb92cbc07fe17840425976cf0667f022fe9877caa831b087a1532a7a87f7aacbb5e1d89fc13c95143d976fa27740467ab52d352a319ec6b77c6570970c38bcbef0f4075021f00b93c11bf5ecdb11f0a03db50dcbf584ad8339759585899103d2ace64958e37e18ccb0504652c81d4a1b8aa80fe2126ab95a2646970667358221220118c4b2713edf9515e8e0eb6bbe3b86ebc36d3eed6444f3696d16724a7f09f7764736f6c63430008180033",
  "devdoc": {
    "errors": {
      "AccessControlBadConfirmation()": [
        {
          "details": "The caller of a function is not the expected one. NOTE: Don't confuse with {AccessControlUnauthorizedAccount}."
        }
      ],
      "AccessControlUnauthorizedAccount(address,bytes32)": [
        {
          "details": "The `account` is missing a role."
        }
      ],
      "AddressEmptyCode(address)": [
        {
          "details": "There's no code at `target` (it is not a contract)."
        }
      ],
      "CheckpointUnorderedInsertion()": [
        {
          "details": "A value was attempted to be inserted on a past checkpoint."
        }
      ],
      "ERC1967InvalidImplementation(address)": [
        {
          "details": "The `implementation` of the proxy is invalid."
        }
      ],
      "ERC1967NonPayable()": [
        {
          "details": "An upgrade function sees `msg.value > 0` that may be lost."
        }
      ],
      "EnforcedPause()": [
        {
          "details": "The operation failed because the contract is paused."
        }
      ],
      "ExpectedPause()": [
        {
          "details": "The operation failed because the contract is not paused."
        }
      ],
      "FailedInnerCall()": [
        {
          "details": "A call to an address target failed. The target may have reverted."
        }
      ],
      "InvalidInitialization()": [
        {
          "details": "The contract is already initialized."
        }
      ],
      "NotInitializing()": [
        {
          "details": "The contract is not initializing."
        }
      ],
      "ReentrancyGuardReentrantCall()": [
        {
          "details": "Unauthorized reentrant call."
        }
      ],
      "UUPSUnauthorizedCallContext()": [
        {
          "details": "The call is from an unauthorized context."
        }
      ],
      "UUPSUnsupportedProxiableUUID(bytes32)": [
        {
          "details": "The storage `slot` is unsupported as a UUID."
        }
      ]
    },
    "events": {
      "Initialized(uint64)": {
        "details": "Triggered when the contract has been initialized or reinitialized."
      },
      "Paused(address)": {
        "details": "Emitted when the pause is triggered by `account`."
      },
      "RoleAdminChanged(bytes32,bytes32,bytes32)": {
        "details": "Emitted when `newAdminRole` is set as ``role``'s admin role, replacing `previousAdminRole` `DEFAULT_ADMIN_ROLE` is the starting admin for all roles, despite {RoleAdminChanged} not being emitted signaling this."
      },
      "RoleGranted(bytes32,address,address)": {
        "details": "Emitted when `account` is granted `role`. `sender` is the account that originated the contract call, an admin role bearer except when using {AccessControl-_setupRole}."
      },
      "RoleRevoked(bytes32,address,address)": {
        "details": "Emitted when `account` is revoked `role`. `sender` is the account that originated the contract call:   - if using `revokeRole`, it is the admin role bearer   - if using `renounceRole`, it is the role bearer (i.e. `account`)"
      },
      "Unpaused(address)": {
        "details": "Emitted when the pause is lifted by `account`."
      },
      "Upgraded(address)": {
        "details": "Emitted when the implementation is upgraded."
      }
    },
    "kind": "dev",
    "methods": {
      "constructor": {
        "custom:oz-upgrades-unsafe-allow": "constructor"
      },
      "deregisterDlp(uint256)": {
        "details": "Only owner can deregister, must be in valid status"
      },
      "getRoleAdmin(bytes32)": {
        "details": "Returns the admin role that controls `role`. See {grantRole} and {revokeRole}. To change a role's admin, use {_setRoleAdmin}."
      },
      "grantRole(bytes32,address)": {
        "details": "Grants `role` to `account`. If `account` had not been already granted `role`, emits a {RoleGranted} event. Requirements: - the caller must have ``role``'s admin role. May emit a {RoleGranted} event."
      },
      "hasRole(bytes32,address)": {
        "details": "Returns `true` if `account` has been granted `role`."
      },
      "paused()": {
        "details": "Returns true if the contract is paused, and false otherwise."
      },
      "proxiableUUID()": {
        "details": "Implementation of the ERC1822 {proxiableUUID} function. This returns the storage slot used by the implementation. It is used to validate the implementation's compatibility when performing an upgrade. IMPORTANT: A proxy pointing at a proxiable contract should not be considered proxiable itself, because this risks bricking a proxy that upgrades to it, by delegating to itself until out of gas. Thus it is critical that this function revert if invoked through a proxy. This is guaranteed by the `notDelegated` modifier."
      },
      "renounceRole(bytes32,address)": {
        "details": "Revokes `role` from the calling account. Roles are often managed via {grantRole} and {revokeRole}: this function's purpose is to provide a mechanism for accounts to lose their privileges if they are compromised (such as when a trusted device is misplaced). If the calling account had been revoked `role`, emits a {RoleRevoked} event. Requirements: - the caller must be `callerConfirmation`. May emit a {RoleRevoked} event."
      },
      "revokeRole(bytes32,address)": {
        "details": "Revokes `role` from `account`. If `account` had been granted `role`, emits a {RoleRevoked} event. Requirements: - the caller must have ``role``'s admin role. May emit a {RoleRevoked} event."
      },
      "supportsInterface(bytes4)": {
        "details": "See {IERC165-supportsInterface}."
      },
      "updateDlp(uint256,(address,address,address,uint256,string,string,string,string))": {
        "details": "Only DLP owner can update"
      },
      "upgradeToAndCall(address,bytes)": {
        "custom:oz-upgrades-unsafe-allow-reachable": "delegatecall",
        "details": "Upgrade the implementation of the proxy to `newImplementation`, and subsequently execute the function call encoded in `data`. Calls {_authorizeUpgrade}. Emits an {Upgraded} event."
      }
    },
    "version": 1
  },
  "userdoc": {
    "kind": "user",
    "methods": {
      "deregisterDlp(uint256)": {
        "notice": "Deregisters a DLP"
      },
      "dlps(uint256)": {
        "notice": "Gets DLP information including current stake and status"
      },
      "registerDlp((address,address,address,uint256,string,string,string,string))": {
        "notice": "Registers a new DLP with initial stake"
      },
      "updateDlp(uint256,(address,address,address,uint256,string,string,string,string))": {
        "notice": "Updates DLP information"
      },
      "updateDlpEligibilityThresholds(uint256,uint256)": {
        "notice": "Updates eligibility thresholds"
      }
    },
    "version": 1
  },
  "storageLayout": {
    "storage": [
      {
        "astId": 16050,
        "contract": "contracts/rootCore/DLPRootCoreImplementation.sol:DLPRootCoreImplementation",
        "label": "dlpRoot",
        "offset": 0,
        "slot": "0",
        "type": "t_contract(IDLPRoot)13218"
      },
      {
        "astId": 16053,
        "contract": "contracts/rootCore/DLPRootCoreImplementation.sol:DLPRootCoreImplementation",
        "label": "eligibleDlpsLimit",
        "offset": 0,
        "slot": "1",
        "type": "t_uint256"
      },
      {
        "astId": 16056,
        "contract": "contracts/rootCore/DLPRootCoreImplementation.sol:DLPRootCoreImplementation",
        "label": "minDlpStakersPercentage",
        "offset": 0,
        "slot": "2",
        "type": "t_uint256"
      },
      {
        "astId": 16059,
        "contract": "contracts/rootCore/DLPRootCoreImplementation.sol:DLPRootCoreImplementation",
        "label": "maxDlpStakersPercentage",
        "offset": 0,
        "slot": "3",
        "type": "t_uint256"
      },
      {
        "astId": 16062,
        "contract": "contracts/rootCore/DLPRootCoreImplementation.sol:DLPRootCoreImplementation",
        "label": "minDlpRegistrationStake",
        "offset": 0,
        "slot": "4",
        "type": "t_uint256"
      },
      {
        "astId": 16065,
        "contract": "contracts/rootCore/DLPRootCoreImplementation.sol:DLPRootCoreImplementation",
        "label": "dlpEligibilityThreshold",
        "offset": 0,
        "slot": "5",
        "type": "t_uint256"
      },
      {
        "astId": 16068,
        "contract": "contracts/rootCore/DLPRootCoreImplementation.sol:DLPRootCoreImplementation",
        "label": "dlpSubEligibilityThreshold",
        "offset": 0,
        "slot": "6",
        "type": "t_uint256"
      },
      {
        "astId": 16071,
        "contract": "contracts/rootCore/DLPRootCoreImplementation.sol:DLPRootCoreImplementation",
        "label": "dlpsCount",
        "offset": 0,
        "slot": "7",
        "type": "t_uint256"
      },
      {
        "astId": 16076,
        "contract": "contracts/rootCore/DLPRootCoreImplementation.sol:DLPRootCoreImplementation",
        "label": "_dlps",
        "offset": 0,
        "slot": "8",
        "type": "t_mapping(t_uint256,t_struct(Dlp)16136_storage)"
      },
      {
        "astId": 16081,
        "contract": "contracts/rootCore/DLPRootCoreImplementation.sol:DLPRootCoreImplementation",
        "label": "dlpIds",
        "offset": 0,
        "slot": "9",
        "type": "t_mapping(t_address,t_uint256)"
      },
      {
        "astId": 16086,
        "contract": "contracts/rootCore/DLPRootCoreImplementation.sol:DLPRootCoreImplementation",
        "label": "dlpNameToId",
        "offset": 0,
        "slot": "10",
        "type": "t_mapping(t_string_memory_ptr,t_uint256)"
      },
      {
        "astId": 16089,
        "contract": "contracts/rootCore/DLPRootCoreImplementation.sol:DLPRootCoreImplementation",
        "label": "_eligibleDlpsList",
        "offset": 0,
        "slot": "11",
        "type": "t_struct(UintSet)10298_storage"
      }
    ],
    "types": {
      "t_address": {
        "encoding": "inplace",
        "label": "address",
        "numberOfBytes": "20"
      },
      "t_address_payable": {
        "encoding": "inplace",
        "label": "address payable",
        "numberOfBytes": "20"
      },
      "t_array(t_bytes32)dyn_storage": {
        "base": "t_bytes32",
        "encoding": "dynamic_array",
        "label": "bytes32[]",
        "numberOfBytes": "32"
      },
      "t_array(t_struct(Checkpoint208)8782_storage)dyn_storage": {
        "base": "t_struct(Checkpoint208)8782_storage",
        "encoding": "dynamic_array",
        "label": "struct Checkpoints.Checkpoint208[]",
        "numberOfBytes": "32"
      },
      "t_bool": {
        "encoding": "inplace",
        "label": "bool",
        "numberOfBytes": "1"
      },
      "t_bytes32": {
        "encoding": "inplace",
        "label": "bytes32",
        "numberOfBytes": "32"
      },
      "t_contract(IDLPRoot)13218": {
        "encoding": "inplace",
        "label": "contract IDLPRoot",
        "numberOfBytes": "20"
      },
      "t_enum(DlpStatus)16106": {
        "encoding": "inplace",
        "label": "enum IDLPRootCore.DlpStatus",
        "numberOfBytes": "1"
      },
      "t_mapping(t_address,t_uint256)": {
        "encoding": "mapping",
        "key": "t_address",
        "label": "mapping(address => uint256)",
        "numberOfBytes": "32",
        "value": "t_uint256"
      },
      "t_mapping(t_bytes32,t_uint256)": {
        "encoding": "mapping",
        "key": "t_bytes32",
        "label": "mapping(bytes32 => uint256)",
        "numberOfBytes": "32",
        "value": "t_uint256"
      },
      "t_mapping(t_string_memory_ptr,t_uint256)": {
        "encoding": "mapping",
        "key": "t_string_memory_ptr",
        "label": "mapping(string => uint256)",
        "numberOfBytes": "32",
        "value": "t_uint256"
      },
      "t_mapping(t_uint256,t_struct(Dlp)16136_storage)": {
        "encoding": "mapping",
        "key": "t_uint256",
        "label": "mapping(uint256 => struct IDLPRootCore.Dlp)",
        "numberOfBytes": "32",
        "value": "t_struct(Dlp)16136_storage"
      },
      "t_string_memory_ptr": {
        "encoding": "bytes",
        "label": "string",
        "numberOfBytes": "32"
      },
      "t_string_storage": {
        "encoding": "bytes",
        "label": "string",
        "numberOfBytes": "32"
      },
      "t_struct(Checkpoint208)8782_storage": {
        "encoding": "inplace",
        "label": "struct Checkpoints.Checkpoint208",
        "members": [
          {
            "astId": 8779,
            "contract": "contracts/rootCore/DLPRootCoreImplementation.sol:DLPRootCoreImplementation",
            "label": "_key",
            "offset": 0,
            "slot": "0",
            "type": "t_uint48"
          },
          {
            "astId": 8781,
            "contract": "contracts/rootCore/DLPRootCoreImplementation.sol:DLPRootCoreImplementation",
            "label": "_value",
            "offset": 6,
            "slot": "0",
            "type": "t_uint208"
          }
        ],
        "numberOfBytes": "32"
      },
      "t_struct(Dlp)16136_storage": {
        "encoding": "inplace",
        "label": "struct IDLPRootCore.Dlp",
        "members": [
          {
            "astId": 16108,
            "contract": "contracts/rootCore/DLPRootCoreImplementation.sol:DLPRootCoreImplementation",
            "label": "id",
            "offset": 0,
            "slot": "0",
            "type": "t_uint256"
          },
          {
            "astId": 16110,
            "contract": "contracts/rootCore/DLPRootCoreImplementation.sol:DLPRootCoreImplementation",
            "label": "dlpAddress",
            "offset": 0,
            "slot": "1",
            "type": "t_address"
          },
          {
            "astId": 16112,
            "contract": "contracts/rootCore/DLPRootCoreImplementation.sol:DLPRootCoreImplementation",
            "label": "ownerAddress",
            "offset": 0,
            "slot": "2",
            "type": "t_address"
          },
          {
            "astId": 16114,
            "contract": "contracts/rootCore/DLPRootCoreImplementation.sol:DLPRootCoreImplementation",
            "label": "treasuryAddress",
            "offset": 0,
            "slot": "3",
            "type": "t_address_payable"
          },
          {
            "astId": 16117,
            "contract": "contracts/rootCore/DLPRootCoreImplementation.sol:DLPRootCoreImplementation",
            "label": "stakersPercentageCheckpoints",
            "offset": 0,
            "slot": "4",
            "type": "t_struct(Trace208)8777_storage"
          },
          {
            "astId": 16119,
            "contract": "contracts/rootCore/DLPRootCoreImplementation.sol:DLPRootCoreImplementation",
            "label": "name",
            "offset": 0,
            "slot": "5",
            "type": "t_string_storage"
          },
          {
            "astId": 16121,
            "contract": "contracts/rootCore/DLPRootCoreImplementation.sol:DLPRootCoreImplementation",
            "label": "iconUrl",
            "offset": 0,
            "slot": "6",
            "type": "t_string_storage"
          },
          {
            "astId": 16123,
            "contract": "contracts/rootCore/DLPRootCoreImplementation.sol:DLPRootCoreImplementation",
            "label": "website",
            "offset": 0,
            "slot": "7",
            "type": "t_string_storage"
          },
          {
            "astId": 16125,
            "contract": "contracts/rootCore/DLPRootCoreImplementation.sol:DLPRootCoreImplementation",
            "label": "metadata",
            "offset": 0,
            "slot": "8",
            "type": "t_string_storage"
          },
          {
            "astId": 16128,
            "contract": "contracts/rootCore/DLPRootCoreImplementation.sol:DLPRootCoreImplementation",
            "label": "status",
            "offset": 0,
            "slot": "9",
            "type": "t_enum(DlpStatus)16106"
          },
          {
            "astId": 16130,
            "contract": "contracts/rootCore/DLPRootCoreImplementation.sol:DLPRootCoreImplementation",
            "label": "registrationBlockNumber",
            "offset": 0,
            "slot": "10",
            "type": "t_uint256"
          },
          {
            "astId": 16133,
            "contract": "contracts/rootCore/DLPRootCoreImplementation.sol:DLPRootCoreImplementation",
            "label": "stakeAmountCheckpoints",
            "offset": 0,
            "slot": "11",
            "type": "t_struct(Trace208)8777_storage"
          },
          {
            "astId": 16135,
            "contract": "contracts/rootCore/DLPRootCoreImplementation.sol:DLPRootCoreImplementation",
            "label": "isVerified",
            "offset": 0,
            "slot": "12",
            "type": "t_bool"
          }
        ],
        "numberOfBytes": "416"
      },
      "t_struct(Set)9826_storage": {
        "encoding": "inplace",
        "label": "struct EnumerableSet.Set",
        "members": [
          {
            "astId": 9821,
            "contract": "contracts/rootCore/DLPRootCoreImplementation.sol:DLPRootCoreImplementation",
            "label": "_values",
            "offset": 0,
            "slot": "0",
            "type": "t_array(t_bytes32)dyn_storage"
          },
          {
            "astId": 9825,
            "contract": "contracts/rootCore/DLPRootCoreImplementation.sol:DLPRootCoreImplementation",
            "label": "_positions",
            "offset": 0,
            "slot": "1",
            "type": "t_mapping(t_bytes32,t_uint256)"
          }
        ],
        "numberOfBytes": "64"
      },
      "t_struct(Trace208)8777_storage": {
        "encoding": "inplace",
        "label": "struct Checkpoints.Trace208",
        "members": [
          {
            "astId": 8776,
            "contract": "contracts/rootCore/DLPRootCoreImplementation.sol:DLPRootCoreImplementation",
            "label": "_checkpoints",
            "offset": 0,
            "slot": "0",
            "type": "t_array(t_struct(Checkpoint208)8782_storage)dyn_storage"
          }
        ],
        "numberOfBytes": "32"
      },
      "t_struct(UintSet)10298_storage": {
        "encoding": "inplace",
        "label": "struct EnumerableSet.UintSet",
        "members": [
          {
            "astId": 10297,
            "contract": "contracts/rootCore/DLPRootCoreImplementation.sol:DLPRootCoreImplementation",
            "label": "_inner",
            "offset": 0,
            "slot": "0",
            "type": "t_struct(Set)9826_storage"
          }
        ],
        "numberOfBytes": "64"
      },
      "t_uint208": {
        "encoding": "inplace",
        "label": "uint208",
        "numberOfBytes": "26"
      },
      "t_uint256": {
        "encoding": "inplace",
        "label": "uint256",
        "numberOfBytes": "32"
      },
      "t_uint48": {
        "encoding": "inplace",
        "label": "uint48",
        "numberOfBytes": "6"
      }
    }
  }
}