{
  "address": "0xb06FE5d21d9178775eBf410854Ff3fDD6E494AeE",
  "abi": [
    {
      "inputs": [],
      "stateMutability": "nonpayable",
      "type": "constructor"
    },
    {
      "inputs": [],
      "name": "AccessControlBadConfirmation",
      "type": "error"
    },
    {
      "inputs": [
        {
          "internalType": "address",
          "name": "account",
          "type": "address"
        },
        {
          "internalType": "bytes32",
          "name": "neededRole",
          "type": "bytes32"
        }
      ],
      "name": "AccessControlUnauthorizedAccount",
      "type": "error"
    },
    {
      "inputs": [
        {
          "internalType": "address",
          "name": "target",
          "type": "address"
        }
      ],
      "name": "AddressEmptyCode",
      "type": "error"
    },
    {
      "inputs": [],
      "name": "AllEligibleDlpsMustHavePerformanceRatings",
      "type": "error"
    },
    {
      "inputs": [
        {
          "internalType": "uint256",
          "name": "dlpId",
          "type": "uint256"
        }
      ],
      "name": "DlpMustBeEligibleAndVerified",
      "type": "error"
    },
    {
      "inputs": [
        {
          "internalType": "address",
          "name": "implementation",
          "type": "address"
        }
      ],
      "name": "ERC1967InvalidImplementation",
      "type": "error"
    },
    {
      "inputs": [],
      "name": "ERC1967NonPayable",
      "type": "error"
    },
    {
      "inputs": [],
      "name": "EnforcedPause",
      "type": "error"
    },
    {
      "inputs": [],
      "name": "EpochAlreadyFinalised",
      "type": "error"
    },
    {
      "inputs": [],
      "name": "EpochNotEndedYet",
      "type": "error"
    },
    {
      "inputs": [],
      "name": "EpochRewardsAlreadyDistributed",
      "type": "error"
    },
    {
      "inputs": [],
      "name": "ExpectedPause",
      "type": "error"
    },
    {
      "inputs": [],
      "name": "FailedInnerCall",
      "type": "error"
    },
    {
      "inputs": [],
      "name": "InvalidEpoch",
      "type": "error"
    },
    {
      "inputs": [],
      "name": "InvalidFoundationWalletAddress",
      "type": "error"
    },
    {
      "inputs": [],
      "name": "InvalidInitialization",
      "type": "error"
    },
    {
      "inputs": [],
      "name": "InvalidPerformanceRating",
      "type": "error"
    },
    {
      "inputs": [],
      "name": "InvalidRatingPercentages",
      "type": "error"
    },
    {
      "inputs": [],
      "name": "NotInitializing",
      "type": "error"
    },
    {
      "inputs": [],
      "name": "UUPSUnauthorizedCallContext",
      "type": "error"
    },
    {
      "inputs": [
        {
          "internalType": "bytes32",
          "name": "slot",
          "type": "bytes32"
        }
      ],
      "name": "UUPSUnsupportedProxiableUUID",
      "type": "error"
    },
    {
      "anonymous": false,
      "inputs": [
        {
          "indexed": true,
          "internalType": "uint256",
          "name": "epochId",
          "type": "uint256"
        },
        {
          "indexed": true,
          "internalType": "uint256",
          "name": "dlpId",
          "type": "uint256"
        },
        {
          "indexed": false,
          "internalType": "uint256",
          "name": "performanceRating",
          "type": "uint256"
        }
      ],
      "name": "DlpEpochPerformanceRatingSaved",
      "type": "event"
    },
    {
      "anonymous": false,
      "inputs": [
        {
          "indexed": true,
          "internalType": "uint256",
          "name": "epochId",
          "type": "uint256"
        }
      ],
      "name": "EpochFinalised",
      "type": "event"
    },
    {
      "anonymous": false,
      "inputs": [
        {
          "indexed": true,
          "internalType": "uint256",
          "name": "epochId",
          "type": "uint256"
        },
        {
          "indexed": false,
          "internalType": "uint256",
          "name": "totalPerformanceRating",
          "type": "uint256"
        },
        {
          "indexed": false,
          "internalType": "bool",
          "name": "isFinalized",
          "type": "bool"
        }
      ],
      "name": "EpochPerformanceRatingsSaved",
      "type": "event"
    },
    {
      "anonymous": false,
      "inputs": [
        {
          "indexed": false,
          "internalType": "uint64",
          "name": "version",
          "type": "uint64"
        }
      ],
      "name": "Initialized",
      "type": "event"
    },
    {
      "anonymous": false,
      "inputs": [
        {
          "indexed": false,
          "internalType": "address",
          "name": "account",
          "type": "address"
        }
      ],
      "name": "Paused",
      "type": "event"
    },
    {
      "anonymous": false,
      "inputs": [
        {
          "indexed": false,
          "internalType": "enum IDLPRootMetrics.RatingType",
          "name": "ratingType",
          "type": "uint8"
        },
        {
          "indexed": false,
          "internalType": "uint256",
          "name": "percentage",
          "type": "uint256"
        }
      ],
      "name": "RatingPercentagesUpdated",
      "type": "event"
    },
    {
      "anonymous": false,
      "inputs": [
        {
          "indexed": true,
          "internalType": "bytes32",
          "name": "role",
          "type": "bytes32"
        },
        {
          "indexed": true,
          "internalType": "bytes32",
          "name": "previousAdminRole",
          "type": "bytes32"
        },
        {
          "indexed": true,
          "internalType": "bytes32",
          "name": "newAdminRole",
          "type": "bytes32"
        }
      ],
      "name": "RoleAdminChanged",
      "type": "event"
    },
    {
      "anonymous": false,
      "inputs": [
        {
          "indexed": true,
          "internalType": "bytes32",
          "name": "role",
          "type": "bytes32"
        },
        {
          "indexed": true,
          "internalType": "address",
          "name": "account",
          "type": "address"
        },
        {
          "indexed": true,
          "internalType": "address",
          "name": "sender",
          "type": "address"
        }
      ],
      "name": "RoleGranted",
      "type": "event"
    },
    {
      "anonymous": false,
      "inputs": [
        {
          "indexed": true,
          "internalType": "bytes32",
          "name": "role",
          "type": "bytes32"
        },
        {
          "indexed": true,
          "internalType": "address",
          "name": "account",
          "type": "address"
        },
        {
          "indexed": true,
          "internalType": "address",
          "name": "sender",
          "type": "address"
        }
      ],
      "name": "RoleRevoked",
      "type": "event"
    },
    {
      "anonymous": false,
      "inputs": [
        {
          "indexed": false,
          "internalType": "address",
          "name": "account",
          "type": "address"
        }
      ],
      "name": "Unpaused",
      "type": "event"
    },
    {
      "anonymous": false,
      "inputs": [
        {
          "indexed": true,
          "internalType": "address",
          "name": "implementation",
          "type": "address"
        }
      ],
      "name": "Upgraded",
      "type": "event"
    },
    {
      "inputs": [],
      "name": "DEFAULT_ADMIN_ROLE",
      "outputs": [
        {
          "internalType": "bytes32",
          "name": "",
          "type": "bytes32"
        }
      ],
      "stateMutability": "view",
      "type": "function"
    },
    {
      "inputs": [],
      "name": "DLP_ROOT_ROLE",
      "outputs": [
        {
          "internalType": "bytes32",
          "name": "",
          "type": "bytes32"
        }
      ],
      "stateMutability": "view",
      "type": "function"
    },
    {
      "inputs": [],
      "name": "MAINTAINER_ROLE",
      "outputs": [
        {
          "internalType": "bytes32",
          "name": "",
          "type": "bytes32"
        }
      ],
      "stateMutability": "view",
      "type": "function"
    },
    {
      "inputs": [],
      "name": "MANAGER_ROLE",
      "outputs": [
        {
          "internalType": "bytes32",
          "name": "",
          "type": "bytes32"
        }
      ],
      "stateMutability": "view",
      "type": "function"
    },
    {
      "inputs": [],
      "name": "UPGRADE_INTERFACE_VERSION",
      "outputs": [
        {
          "internalType": "string",
          "name": "",
          "type": "string"
        }
      ],
      "stateMutability": "view",
      "type": "function"
    },
    {
      "inputs": [
        {
          "internalType": "uint256",
          "name": "dlpId",
          "type": "uint256"
        },
        {
          "internalType": "uint256",
          "name": "epochId",
          "type": "uint256"
        },
        {
          "internalType": "uint256",
          "name": "totalDlpsStakeAmount",
          "type": "uint256"
        },
        {
          "internalType": "uint256",
          "name": "totalDlpsPerformanceRating",
          "type": "uint256"
        },
        {
          "internalType": "uint256[]",
          "name": "customRatingPercentages",
          "type": "uint256[]"
        }
      ],
      "name": "calculateDlpRating",
      "outputs": [
        {
          "internalType": "uint256",
          "name": "",
          "type": "uint256"
        }
      ],
      "stateMutability": "view",
      "type": "function"
    },
    {
      "inputs": [],
      "name": "dlpRoot",
      "outputs": [
        {
          "internalType": "contract IDLPRoot",
          "name": "",
          "type": "address"
        }
      ],
      "stateMutability": "view",
      "type": "function"
    },
    {
      "inputs": [
        {
          "internalType": "uint256",
          "name": "epochId",
          "type": "uint256"
        },
        {
          "internalType": "uint256",
          "name": "dlpId",
          "type": "uint256"
        }
      ],
      "name": "epochDlps",
      "outputs": [
        {
          "components": [
            {
              "internalType": "uint256",
              "name": "performanceRating",
              "type": "uint256"
            },
            {
              "internalType": "uint256",
              "name": "stakeAmountAdjustment",
              "type": "uint256"
            }
          ],
          "internalType": "struct IDLPRootMetrics.EpochDlpInfo",
          "name": "",
          "type": "tuple"
        }
      ],
      "stateMutability": "view",
      "type": "function"
    },
    {
      "inputs": [
        {
          "internalType": "uint256",
          "name": "epochId",
          "type": "uint256"
        }
      ],
      "name": "epochs",
      "outputs": [
        {
          "components": [
            {
              "internalType": "uint256",
              "name": "totalPerformanceRating",
              "type": "uint256"
            },
            {
              "internalType": "bool",
              "name": "finalized",
              "type": "bool"
            }
          ],
          "internalType": "struct IDLPRootMetrics.EpochInfo",
          "name": "",
          "type": "tuple"
        }
      ],
      "stateMutability": "view",
      "type": "function"
    },
    {
      "inputs": [
        {
          "internalType": "uint256[]",
          "name": "dlpIds",
          "type": "uint256[]"
        }
      ],
      "name": "estimatedDlpRewardPercentages",
      "outputs": [
        {
          "components": [
            {
              "internalType": "uint256",
              "name": "dlpId",
              "type": "uint256"
            },
            {
              "internalType": "uint256",
              "name": "APY",
              "type": "uint256"
            },
            {
              "internalType": "uint256",
              "name": "EPY",
              "type": "uint256"
            }
          ],
          "internalType": "struct IDLPRootMetrics.DlpRewardApy[]",
          "name": "",
          "type": "tuple[]"
        }
      ],
      "stateMutability": "view",
      "type": "function"
    },
    {
      "inputs": [
        {
          "internalType": "uint256[]",
          "name": "dlpIds",
          "type": "uint256[]"
        },
        {
          "internalType": "uint256[]",
          "name": "customRatingPercentages",
          "type": "uint256[]"
        }
      ],
      "name": "estimatedDlpRewardPercentagesCustomized",
      "outputs": [
        {
          "components": [
            {
              "internalType": "uint256",
              "name": "dlpId",
              "type": "uint256"
            },
            {
              "internalType": "uint256",
              "name": "APY",
              "type": "uint256"
            },
            {
              "internalType": "uint256",
              "name": "EPY",
              "type": "uint256"
            }
          ],
          "internalType": "struct IDLPRootMetrics.DlpRewardApy[]",
          "name": "",
          "type": "tuple[]"
        }
      ],
      "stateMutability": "view",
      "type": "function"
    },
    {
      "inputs": [
        {
          "internalType": "uint256",
          "name": "epochId",
          "type": "uint256"
        }
      ],
      "name": "finalizeEpoch",
      "outputs": [],
      "stateMutability": "nonpayable",
      "type": "function"
    },
    {
      "inputs": [],
      "name": "foundationWalletAddress",
      "outputs": [
        {
          "internalType": "address payable",
          "name": "",
          "type": "address"
        }
      ],
      "stateMutability": "view",
      "type": "function"
    },
    {
      "inputs": [
        {
          "internalType": "uint256",
          "name": "daysStaked",
          "type": "uint256"
        }
      ],
      "name": "getMultiplier",
      "outputs": [
        {
          "internalType": "uint256",
          "name": "",
          "type": "uint256"
        }
      ],
      "stateMutability": "pure",
      "type": "function"
    },
    {
      "inputs": [
        {
          "internalType": "bytes32",
          "name": "role",
          "type": "bytes32"
        }
      ],
      "name": "getRoleAdmin",
      "outputs": [
        {
          "internalType": "bytes32",
          "name": "",
          "type": "bytes32"
        }
      ],
      "stateMutability": "view",
      "type": "function"
    },
    {
      "inputs": [
        {
          "internalType": "bytes32",
          "name": "role",
          "type": "bytes32"
        },
        {
          "internalType": "address",
          "name": "account",
          "type": "address"
        }
      ],
      "name": "grantRole",
      "outputs": [],
      "stateMutability": "nonpayable",
      "type": "function"
    },
    {
      "inputs": [
        {
          "internalType": "bytes32",
          "name": "role",
          "type": "bytes32"
        },
        {
          "internalType": "address",
          "name": "account",
          "type": "address"
        }
      ],
      "name": "hasRole",
      "outputs": [
        {
          "internalType": "bool",
          "name": "",
          "type": "bool"
        }
      ],
      "stateMutability": "view",
      "type": "function"
    },
    {
      "inputs": [
        {
          "internalType": "address",
          "name": "ownerAddress",
          "type": "address"
        },
        {
          "internalType": "address",
          "name": "dlpRootAddress",
          "type": "address"
        },
        {
          "internalType": "uint256",
          "name": "stakeRatingPercentage",
          "type": "uint256"
        },
        {
          "internalType": "uint256",
          "name": "performanceRatingPercentage",
          "type": "uint256"
        }
      ],
      "name": "initialize",
      "outputs": [],
      "stateMutability": "nonpayable",
      "type": "function"
    },
    {
      "inputs": [],
      "name": "pause",
      "outputs": [],
      "stateMutability": "nonpayable",
      "type": "function"
    },
    {
      "inputs": [],
      "name": "paused",
      "outputs": [
        {
          "internalType": "bool",
          "name": "",
          "type": "bool"
        }
      ],
      "stateMutability": "view",
      "type": "function"
    },
    {
      "inputs": [],
      "name": "proxiableUUID",
      "outputs": [
        {
          "internalType": "bytes32",
          "name": "",
          "type": "bytes32"
        }
      ],
      "stateMutability": "view",
      "type": "function"
    },
    {
      "inputs": [
        {
          "internalType": "enum IDLPRootMetrics.RatingType",
          "name": "ratingType",
          "type": "uint8"
        }
      ],
      "name": "ratingPercentages",
      "outputs": [
        {
          "internalType": "uint256",
          "name": "percentage",
          "type": "uint256"
        }
      ],
      "stateMutability": "view",
      "type": "function"
    },
    {
      "inputs": [
        {
          "internalType": "bytes32",
          "name": "role",
          "type": "bytes32"
        },
        {
          "internalType": "address",
          "name": "callerConfirmation",
          "type": "address"
        }
      ],
      "name": "renounceRole",
      "outputs": [],
      "stateMutability": "nonpayable",
      "type": "function"
    },
    {
      "inputs": [
        {
          "internalType": "bytes32",
          "name": "role",
          "type": "bytes32"
        },
        {
          "internalType": "address",
          "name": "account",
          "type": "address"
        }
      ],
      "name": "revokeRole",
      "outputs": [],
      "stateMutability": "nonpayable",
      "type": "function"
    },
    {
      "inputs": [
        {
          "internalType": "uint256",
          "name": "epochId",
          "type": "uint256"
        },
        {
          "components": [
            {
              "internalType": "uint256",
              "name": "dlpId",
              "type": "uint256"
            },
            {
              "internalType": "uint256",
              "name": "performanceRating",
              "type": "uint256"
            }
          ],
          "internalType": "struct IDLPRootMetrics.DlpPerformanceRating[]",
          "name": "dlpPerformanceRatings",
          "type": "tuple[]"
        }
      ],
      "name": "saveEpochPerformanceRatings",
      "outputs": [],
      "stateMutability": "nonpayable",
      "type": "function"
    },
    {
      "inputs": [
        {
          "internalType": "bytes4",
          "name": "interfaceId",
          "type": "bytes4"
        }
      ],
      "name": "supportsInterface",
      "outputs": [
        {
          "internalType": "bool",
          "name": "",
          "type": "bool"
        }
      ],
      "stateMutability": "view",
      "type": "function"
    },
    {
      "inputs": [
        {
          "internalType": "uint256",
          "name": "numberOfDlps",
          "type": "uint256"
        }
      ],
      "name": "topDlpIds",
      "outputs": [
        {
          "internalType": "uint256[]",
          "name": "",
          "type": "uint256[]"
        }
      ],
      "stateMutability": "view",
      "type": "function"
    },
    {
      "inputs": [
        {
          "internalType": "uint256",
          "name": "numberOfDlps",
          "type": "uint256"
        }
      ],
      "name": "topDlps",
      "outputs": [
        {
          "components": [
            {
              "internalType": "uint256",
              "name": "dlpId",
              "type": "uint256"
            },
            {
              "internalType": "uint256",
              "name": "rating",
              "type": "uint256"
            }
          ],
          "internalType": "struct IDLPRootMetrics.DlpRating[]",
          "name": "",
          "type": "tuple[]"
        }
      ],
      "stateMutability": "view",
      "type": "function"
    },
    {
      "inputs": [
        {
          "internalType": "uint256",
          "name": "epochId",
          "type": "uint256"
        },
        {
          "internalType": "uint256",
          "name": "numberOfDlps",
          "type": "uint256"
        },
        {
          "internalType": "uint256[]",
          "name": "dlpIds",
          "type": "uint256[]"
        },
        {
          "internalType": "uint256[]",
          "name": "customRatingPercentages",
          "type": "uint256[]"
        }
      ],
      "name": "topDlpsCustomized",
      "outputs": [
        {
          "components": [
            {
              "internalType": "uint256",
              "name": "dlpId",
              "type": "uint256"
            },
            {
              "internalType": "uint256",
              "name": "rating",
              "type": "uint256"
            }
          ],
          "internalType": "struct IDLPRootMetrics.DlpRating[]",
          "name": "",
          "type": "tuple[]"
        }
      ],
      "stateMutability": "view",
      "type": "function"
    },
    {
      "inputs": [],
      "name": "unpause",
      "outputs": [],
      "stateMutability": "nonpayable",
      "type": "function"
    },
    {
      "inputs": [
        {
          "internalType": "address",
          "name": "dlpRootAddress",
          "type": "address"
        }
      ],
      "name": "updateDlpRoot",
      "outputs": [],
      "stateMutability": "nonpayable",
      "type": "function"
    },
    {
      "inputs": [
        {
          "internalType": "uint256",
          "name": "epochId",
          "type": "uint256"
        },
        {
          "internalType": "uint256",
          "name": "dlpId",
          "type": "uint256"
        },
        {
          "internalType": "uint256",
          "name": "adjustment",
          "type": "uint256"
        },
        {
          "internalType": "bool",
          "name": "isAddition",
          "type": "bool"
        }
      ],
      "name": "updateEpochDlpStakeAmountAdjustment",
      "outputs": [],
      "stateMutability": "nonpayable",
      "type": "function"
    },
    {
      "inputs": [
        {
          "internalType": "address payable",
          "name": "foundationWalletAddress",
          "type": "address"
        }
      ],
      "name": "updateFoundationWalletAddress",
      "outputs": [],
      "stateMutability": "nonpayable",
      "type": "function"
    },
    {
      "inputs": [
        {
          "internalType": "uint256",
          "name": "stakeRatingPercentage",
          "type": "uint256"
        },
        {
          "internalType": "uint256",
          "name": "performanceRatingPercentage",
          "type": "uint256"
        }
      ],
      "name": "updateRatingPercentages",
      "outputs": [],
      "stateMutability": "nonpayable",
      "type": "function"
    },
    {
      "inputs": [
        {
          "internalType": "address",
          "name": "newImplementation",
          "type": "address"
        },
        {
          "internalType": "bytes",
          "name": "data",
          "type": "bytes"
        }
      ],
      "name": "upgradeToAndCall",
      "outputs": [],
      "stateMutability": "payable",
      "type": "function"
    },
    {
      "inputs": [],
      "name": "version",
      "outputs": [
        {
          "internalType": "uint256",
          "name": "",
          "type": "uint256"
        }
      ],
      "stateMutability": "pure",
      "type": "function"
    }
  ],
  "transactionHash": "0xf874dc7027158646d1801b206682b7f98b1322a9f3d5613a3d741deaf16e12d0",
  "args": [],
  "numDeployments": 12,
  "solcInputHash": "1f3018f734273939cf39145cdecb8e9a",
  "bytecode": "0x60c0604052306080523480156200001557600080fd5b506200002062000026565b620000da565b7ff0c57e16840df040f15088dc2f81fe391c3923bec73e23a9662efc9c229c6a00805468010000000000000000900460ff1615620000775760405163f92ee8a960e01b815260040160405180910390fd5b80546001600160401b0390811614620000d75780546001600160401b0319166001600160401b0390811782556040519081527fc7f505b2f371ae2175ee4913f4499e1f2633a7b5936321eed1cdaeb6115181d29060200160405180910390a15b50565b60805160a05161443c6200010b6000396000505060008181612d4901528181612d720152612eb8015261443c6000f3fe60806040526004361061019f5760003560e01c806301159c70146101a457806301ffc9a7146101c657806324404fa7146101fb578063248a9ca3146102285780632f2ff15d1461025657806336568abe1461027657806339a67b77146102965780633a40519d146102c35780633c026aed146102f05780633f4ba83a146103105780634bbaf86b146103255780634f1ef2861461034557806352d1902d1461035857806354fd4d501461036d5780635c975abb14610381578063610b7010146103965780636d51fa9d146103b65780638456cb59146103d65780638d8c658f146103eb57806391d1485414610418578063986bce2c146104385780639b812098146104585780639e0e7d2a146104855780639e1006bb146104a5578063a217fddf146104c5578063a59850ce146104da578063ad3cb1cc146104ef578063adf8252d1461052d578063b3a7b9da1461054d578063c6b61e4c146105be578063d25f33e5146105fb578063d547741f1461061d578063e4e3cbd51461063d578063eb990c591461065d578063ec87621c1461067d578063f87422541461069f575b600080fd5b3480156101b057600080fd5b506101c46101bf366004613917565b6106c1565b005b3480156101d257600080fd5b506101e66101e1366004613934565b6106fc565b60405190151581526020015b60405180910390f35b34801561020757600080fd5b5060015461021b906001600160a01b031681565b6040516101f2919061395e565b34801561023457600080fd5b50610248610243366004613972565b610733565b6040519081526020016101f2565b34801561026257600080fd5b506101c461027136600461398b565b610753565b34801561028257600080fd5b506101c461029136600461398b565b610775565b3480156102a257600080fd5b506102b66102b1366004613add565b6107ad565b6040516101f29190613b59565b3480156102cf57600080fd5b506102e36102de366004613972565b610949565b6040516101f29190613ba7565b3480156102fc57600080fd5b5061024861030b366004613bf1565b610b2a565b34801561031c57600080fd5b506101c4610b67565b34801561033157600080fd5b506101c4610340366004613917565b610b8a565b6101c4610353366004613c54565b610bc5565b34801561036457600080fd5b50610248610be4565b34801561037957600080fd5b506001610248565b34801561038d57600080fd5b506101e6610c01565b3480156103a257600080fd5b506101c46103b1366004613d09565b610c16565b3480156103c257600080fd5b506102b66103d1366004613d4a565b610ca8565b3480156103e257600080fd5b506101c4610cc5565b3480156103f757600080fd5b5061040b610406366004613972565b610ce5565b6040516101f29190613d7e565b34801561042457600080fd5b506101e661043336600461398b565b610d8b565b34801561044457600080fd5b506101c4610453366004613972565b610dc1565b34801561046457600080fd5b50610248610473366004613db6565b60036020526000908152604090205481565b34801561049157600080fd5b506101c46104a0366004613dd7565b611102565b3480156104b157600080fd5b506102e36104c0366004613e97565b61131e565b3480156104d157600080fd5b50610248600081565b3480156104e657600080fd5b5061021b611612565b3480156104fb57600080fd5b50610520604051806040016040528060058152602001640352e302e360dc1b81525081565b6040516101f29190613f31565b34801561053957600080fd5b50610248610548366004613972565b61164e565b34801561055957600080fd5b506105b1610568366004613f64565b6040805180820182526000808252602091820181905282518084018452948152600280835283822085835201808352928120805486529390529081526001909101549082015290565b6040516101f29190613f86565b3480156105ca57600080fd5b506105de6105d9366004613972565b611971565b6040805182518152602092830151151592810192909252016101f2565b34801561060757600080fd5b5061024860008051602061438783398151915281565b34801561062957600080fd5b506101c461063836600461398b565b611a92565b34801561064957600080fd5b506101c4610658366004613f64565b611aae565b34801561066957600080fd5b506101c4610678366004613f9d565b611ad0565b34801561068957600080fd5b5061024860008051602061436783398151915281565b3480156106ab57600080fd5b506102486000805160206143e783398151915281565b6000805160206143e78339815191526106d981611c7d565b50600180546001600160a01b0319166001600160a01b0392909216919091179055565b60006001600160e01b03198216637965db0b60e01b148061072d57506301ffc9a760e01b6001600160e01b03198316145b92915050565b60008061073e611c87565b60009384526020525050604090206001015490565b61075c82610733565b61076581611c7d565b61076f8383611cab565b50505050565b6001600160a01b038116331461079e5760405163334bd91960e11b815260040160405180910390fd5b6107a88282611d4c565b505050565b60606000610892600160009054906101000a90046001600160a01b03166001600160a01b03166320930fa46040518163ffffffff1660e01b8152600401602060405180830381865afa158015610807573d6000803e3d6000fd5b505050506040513d601f19601f8201168201806040525081019061082b9190613fe3565b6001600160a01b031663916e1c576040518163ffffffff1660e01b8152600401602060405180830381865afa158015610868573d6000803e3d6000fd5b505050506040513d601f19601f8201168201806040525081019061088c9190614000565b84611dc4565b9050600084516001600160401b038111156108af576108af6139bb565b6040519080825280602002602001820160405280156108e857816020015b6108d56138b2565b8152602001906001900390816108cd5790505b50905060005b85518110156109405761091b86828151811061090c5761090c614019565b60200260200101518487612403565b82828151811061092d5761092d614019565b60209081029190910101526001016108ee565b50949350505050565b606061072d600160009054906101000a90046001600160a01b03166001600160a01b03166320930fa46040518163ffffffff1660e01b8152600401602060405180830381865afa1580156109a1573d6000803e3d6000fd5b505050506040513d601f19601f820116820180604052508101906109c59190613fe3565b6001600160a01b031663916e1c576040518163ffffffff1660e01b8152600401602060405180830381865afa158015610a02573d6000803e3d6000fd5b505050506040513d601f19601f82011682018060405250810190610a269190614000565b60015460408051630dd97a2960e11b8152905186926001600160a01b031691631bb2f4529160048083019260209291908290030181865afa158015610a6f573d6000803e3d6000fd5b505050506040513d601f19601f82011682018060405250810190610a939190613fe3565b6001600160a01b03166303a229f66040518163ffffffff1660e01b8152600401600060405180830381865afa158015610ad0573d6000803e3d6000fd5b505050506040513d6000823e601f3d908101601f19168201604052610af8919081019061408e565b60005b604051908082528060200260200182016040528015610b24578160200160208202803683370190505b5061131e565b6000610b5d610b398787612a98565b60008781526002602081815260408084208c85529092019052902054868686612b99565b9695505050505050565b6000805160206143e7833981519152610b7f81611c7d565b610b87612ce7565b50565b6000805160206143e7833981519152610ba281611c7d565b50600480546001600160a01b0319166001600160a01b0392909216919091179055565b610bcd612d3e565b610bd682612de5565b610be08282612df0565b5050565b6000610bee612ead565b5060008051602061434783398151915290565b600080610c0c612ef6565b5460ff1692915050565b600080516020614387833981519152610c2e81611c7d565b8115610c6d576000858152600260208181526040808420888552909201905281206001018054859290610c629084906140d8565b90915550610ca19050565b6000858152600260208181526040808420888552909201905281206001018054859290610c9b9084906140eb565b90915550505b5050505050565b60408051600081526020810190915260609061072d9083906107ad565b6000805160206143e7833981519152610cdd81611c7d565b610b87612f1a565b60606000610cf283610949565b80519091506000816001600160401b03811115610d1157610d116139bb565b604051908082528060200260200182016040528015610d3a578160200160208202803683370190505b50905060005b8281101561094057838181518110610d5a57610d5a614019565b602002602001015160000151828281518110610d7857610d78614019565b6020908102919091010152600101610d40565b600080610d96611c87565b6000948552602090815260408086206001600160a01b03959095168652939052505090205460ff1690565b600080516020614367833981519152610dd981611c7d565b610de1612f61565b600160009054906101000a90046001600160a01b03166001600160a01b03166320930fa46040518163ffffffff1660e01b8152600401602060405180830381865afa158015610e34573d6000803e3d6000fd5b505050506040513d601f19601f82011682018060405250810190610e589190613fe3565b6001600160a01b031663c6b61e4c836040518263ffffffff1660e01b8152600401610e8591815260200190565b600060405180830381865afa158015610ea2573d6000803e3d6000fd5b505050506040513d6000823e601f3d908101601f19168201604052610eca91908101906140fe565b6060015115610eec57604051630c2c2e0360e11b815260040160405180910390fd5b60015460408051630824c3e960e21b815290516000926001600160a01b0316916320930fa49160048083019260209291908290030181865afa158015610f36573d6000803e3d6000fd5b505050506040513d601f19601f82011682018060405250810190610f5a9190613fe3565b6001600160a01b031663c6b61e4c846040518263ffffffff1660e01b8152600401610f8791815260200190565b600060405180830381865afa158015610fa4573d6000803e3d6000fd5b505050506040513d6000823e601f3d908101601f19168201604052610fcc91908101906140fe565b905043816020015110610ff2576040516307cffebb60e01b815260040160405180910390fd5b60405183907f0867904ff22a2f7066c4e7f4f482ef661324499e28f2f99ced6b09c4a542384090600090a26107a883600160009054906101000a90046001600160a01b03166001600160a01b0316631bb2f4526040518163ffffffff1660e01b8152600401602060405180830381865afa158015611074573d6000803e3d6000fd5b505050506040513d601f19601f820116820180604052508101906110989190613fe3565b6001600160a01b03166303a229f66040518163ffffffff1660e01b8152600401600060405180830381865afa1580156110d5573d6000803e3d6000fd5b505050506040513d6000823e601f3d908101601f191682016040526110fd919081019061408e565b612f87565b60008051602061436783398151915261111a81611c7d565b611122612f61565b6000838152600260209081526040918290206001548351630824c3e960e21b8152935191936001600160a01b03909116926320930fa4926004808401938290030181865afa158015611178573d6000803e3d6000fd5b505050506040513d601f19601f8201168201806040525081019061119c9190613fe3565b6001600160a01b031663c6b61e4c856040518263ffffffff1660e01b81526004016111c991815260200190565b600060405180830381865afa1580156111e6573d6000803e3d6000fd5b505050506040513d6000823e601f3d908101601f1916820160405261120e91908101906140fe565b606001511561123057604051630c2c2e0360e11b815260040160405180910390fd5b82516000805b828110156112d757600086828151811061125257611252614019565b60209081029190910181015180820180518251600090815260028a01909452604090932092909255905190915061128990846140d8565b92508060000151887f14e080a7cc9c18aa303764d388372bee4d6b2dc6e2bc3cbe8a3d98c4c2072b4383602001516040516112c691815260200190565b60405180910390a350600101611236565b50808355604080518281526000602082015287917f93f86f9bc6bd89602512fcde5fe72737b3dc03783e87688e4d755449d6643bb3910160405180910390a2505050505050565b606060008060005b85518110156113b75761135286828151811061134457611344614019565b602002602001015189612a98565b61135c90846140d8565b925060026000898152602001908152602001600020600201600087838151811061138857611388614019565b6020026020010151815260200190815260200160002060000154826113ad91906140d8565b9150600101611326565b5084518087106113c757806113c9565b865b96506000876001600160401b038111156113e5576113e56139bb565b60405190808252806020026020018201604052801561142a57816020015b60408051808201909152600080825260208201528152602001906001900390816114035790505b5090508760000361144057935061160a92505050565b60005b8281101561160357600088828151811061145f5761145f614019565b602002602001015190506000611478828d89898d610b2a565b90508a60005b8c8110156115095785818151811061149857611498614019565b6020026020010151602001518311806114f457508581815181106114be576114be614019565b602002602001015160200151831480156114f457508581815181106114e5576114e5614019565b60200260200101516000015184105b1561150157809150611509565b60010161147e565b508b8110156115f557600061151f60018e6140eb565b90505b818111156115c157856115366001836140eb565b8151811061154657611546614019565b60200260200101516000015186828151811061156457611564614019565b6020908102919091010151528561157c6001836140eb565b8151811061158c5761158c614019565b6020026020010151602001518682815181106115aa576115aa614019565b602090810291909101810151015260001901611522565b506040518060400160405280848152602001838152508582815181106115e9576115e9614019565b60200260200101819052505b836001019350505050611443565b5093505050505b949350505050565b6004546000906001600160a01b031661163e57604051630d9c747960e41b815260040160405180910390fd5b506004546001600160a01b031690565b600060528211156116625750617530919050565b60408051610a60810182526101dc81526103b8602082015261059491810191909152610770606082015261094c6080820152610b2960a0820152610d0560c0820152610ee160e08201526110bd61010082015261129961012082015261147661014082015261165261016082015261182e610180820152611a0a6101a0820152611be66101c0820152611dc36101e0820152611f9f61020082015261217b6102208201526123576102408201526125336102608201526127106102808201526127d86102a08201526129046102c08201526129cc6102e0820152612af8610300820152612bc0610320820152612c88610340820152612db4610360820152612e7c610380820152612f446103a08201526130706103c08201526131386103e082015261326461040082015261332c6104208201526133f46104408201526135206104608201526135e86104808201526136b06104a08201526137dc6104c08201526138a46104e08201526139d0610500820152613a98610520820152613cf0610540820152613f486105608201526141a06105808201526143f86105a08201526146506105c08201526148a86105e0820152614b00610600820152614d58610620820152614fb06106408201526152086106608201526153fc6106808201526156546106a08201526158ac6106c0820152615b046106e0820152615d5c610700820152615fb461072082015261620c6107408201526164646107608201526166bc6107808201526169146107a0820152616b6c6107c0820152616bd06107e0820152616c34610800820152616cfc610820820152616d60610840820152616dc4610860820152616e28610880820152616e8c6108a0820152616f546108c0820152616fb86108e082015261701c6109008201526170806109208201526170e46109408201526171486109608201526172106109808201526172746109a08201526172d86109c082015261733c6109e08201526173a0610a00820152617468610a208201526174cc610a4082015280836053811061196157611961614019565b602002015161ffff169392505050565b604080518082019091526000808252602082015260008281526002602090815260409182902082518084018452815481526001548451630824c3e960e21b8152945192949193848101936001600160a01b03909216926320930fa492600480830193928290030181865afa1580156119ed573d6000803e3d6000fd5b505050506040513d601f19601f82011682018060405250810190611a119190613fe3565b6001600160a01b031663c6b61e4c866040518263ffffffff1660e01b8152600401611a3e91815260200190565b600060405180830381865afa158015611a5b573d6000803e3d6000fd5b505050506040513d6000823e601f3d908101601f19168201604052611a8391908101906140fe565b60600151151590529392505050565b611a9b82610733565b611aa481611c7d565b61076f8383611d4c565b6000805160206143e7833981519152611ac681611c7d565b6107a883836134e5565b6000611ada613599565b805490915060ff600160401b82041615906001600160401b0316600081158015611b015750825b90506000826001600160401b03166001148015611b1d5750303b155b905081158015611b2b575080155b15611b495760405163f92ee8a960e01b815260040160405180910390fd5b84546001600160401b03191660011785558315611b7257845460ff60401b1916600160401b1785555b611b7a6135bd565b611b826135bd565b611b8a6135c5565b600180546001600160a01b0319166001600160a01b038a16179055611baf87876134e5565b611bc86000805160206143e783398151915260006135d5565b611bee6000805160206143678339815191526000805160206143e78339815191526135d5565b611bf960008a611cab565b50611c126000805160206143e78339815191528a611cab565b50611c2b6000805160206143678339815191528a611cab565b508315611c7257845460ff60401b19168555604051600181527fc7f505b2f371ae2175ee4913f4499e1f2633a7b5936321eed1cdaeb6115181d29060200160405180910390a15b505050505050505050565b610b878133613635565b7f02dd7bc7dec4dceedda775e58dd541e08a116c6c53815c0bd028192f7b62680090565b600080611cb6611c87565b9050611cc28484610d8b565b611d42576000848152602082815260408083206001600160a01b03871684529091529020805460ff19166001179055611cf83390565b6001600160a01b0316836001600160a01b0316857f2f8788117e7eff1d82e926ec794901d17c78024a50270940304540a733656f0d60405160405180910390a4600191505061072d565b600091505061072d565b600080611d57611c87565b9050611d638484610d8b565b15611d42576000848152602082815260408083206001600160a01b0387168085529252808320805460ff1916905551339287917ff6391f5c32d9c69d2a47ea670b442974b53935d1edc7fd64eb21e047a839171b9190a4600191505061072d565b611dcc6138d3565b6000611f8c84600160009054906101000a90046001600160a01b03166001600160a01b03166320930fa46040518163ffffffff1660e01b8152600401602060405180830381865afa158015611e25573d6000803e3d6000fd5b505050506040513d601f19601f82011682018060405250810190611e499190613fe3565b6001600160a01b031663c53036f46040518163ffffffff1660e01b8152600401602060405180830381865afa158015611e86573d6000803e3d6000fd5b505050506040513d601f19601f82011682018060405250810190611eaa9190614000565b600160009054906101000a90046001600160a01b03166001600160a01b0316631bb2f4526040518163ffffffff1660e01b8152600401602060405180830381865afa158015611efd573d6000803e3d6000fd5b505050506040513d601f19601f82011682018060405250810190611f219190613fe3565b6001600160a01b03166303a229f66040518163ffffffff1660e01b8152600401600060405180830381865afa158015611f5e573d6000803e3d6000fd5b505050506040513d6000823e601f3d908101601f19168201604052611f86919081019061408e565b8661131e565b90506000611f986138d3565b600083516001600160401b03811115611fb357611fb36139bb565b604051908082528060200260200182016040528015611fdc578160200160208202803683370190505b509050600084516001600160401b03811115611ffa57611ffa6139bb565b604051908082528060200260200182016040528015612023578160200160208202803683370190505b509050600085516001600160401b03811115612041576120416139bb565b60405190808252806020026020018201604052801561206a578160200160208202803683370190505b509050600094505b855185101561232457600160009054906101000a90046001600160a01b03166001600160a01b0316631bb2f4526040518163ffffffff1660e01b8152600401602060405180830381865afa1580156120ce573d6000803e3d6000fd5b505050506040513d601f19601f820116820180604052508101906120f29190613fe3565b6001600160a01b031663e5c8307d87878151811061211257612112614019565b6020026020010151600001518b6040518363ffffffff1660e01b815260040161213c92919061419b565b602060405180830381865afa158015612159573d6000803e3d6000fd5b505050506040513d601f19601f8201168201806040525081019061217d9190614000565b82868151811061218f5761218f614019565b602002602001018181525050600260008a815260200190815260200160002060020160008787815181106121c5576121c5614019565b6020026020010151600001518152602001908152602001600020600101548286815181106121f5576121f5614019565b602002602001015161220791906140eb565b83868151811061221957612219614019565b602002602001018181525050600260008a8152602001908152602001600020600201600087878151811061224f5761224f614019565b60200260200101516000015181526020019081526020016000206000015481868151811061227f5761227f614019565b60200260200101818152505082858151811061229d5761229d614019565b6020026020010151846020018181516122b691906140d8565b90525081518290869081106122cd576122cd614019565b6020026020010151846000018181516122e691906140d8565b90525080518190869081106122fd576122fd614019565b60200260200101518460800181815161231691906140d8565b905250600190940193612072565b600094505b85518510156123f65761237983868151811061234757612347614019565b602002602001015182878151811061236157612361614019565b6020026020010151866020015187608001518c612b99565b8460600181815161238a91906140d8565b90525081516123d7908390879081106123a5576123a5614019565b60200260200101518287815181106123bf576123bf614019565b6020026020010151866000015187608001518c612b99565b846040018181516123e891906140d8565b905250600190940193612329565b5091979650505050505050565b61240b6138b2565b60015460408051630824c3e960e21b815290516000926001600160a01b0316916320930fa49160048083019260209291908290030181865afa158015612455573d6000803e3d6000fd5b505050506040513d601f19601f820116820180604052508101906124799190613fe3565b6001600160a01b031663132c58e96040518163ffffffff1660e01b8152600401602060405180830381865afa1580156124b6573d6000803e3d6000fd5b505050506040513d601f19601f820116820180604052508101906124da9190614000565b90506000600160009054906101000a90046001600160a01b03166001600160a01b03166320930fa46040518163ffffffff1660e01b8152600401602060405180830381865afa158015612531573d6000803e3d6000fd5b505050506040513d601f19601f820116820180604052508101906125559190613fe3565b6001600160a01b031663916e1c576040518163ffffffff1660e01b8152600401602060405180830381865afa158015612592573d6000803e3d6000fd5b505050506040513d601f19601f820116820180604052508101906125b69190614000565b90506000600160009054906101000a90046001600160a01b03166001600160a01b0316631bb2f4526040518163ffffffff1660e01b8152600401602060405180830381865afa15801561260d573d6000803e3d6000fd5b505050506040513d601f19601f820116820180604052508101906126319190613fe3565b6001600160a01b031663e5c8307d88846040518363ffffffff1660e01b815260040161265e92919061419b565b602060405180830381865afa15801561267b573d6000803e3d6000fd5b505050506040513d601f19601f8201168201806040525081019061269f9190614000565b60008381526002602081815260408084208c85529092019052812060010154919250906126cc90836140eb565b90506000876060015185612715846002600089815260200190815260200160002060020160008e8152602001908152602001600020600001548c602001518d608001518d612b99565b61271f91906141a9565b61272991906141c0565b9050600088604001518661277286600260008a815260200190815260200160002060020160008f8152602001908152602001600020600001548d600001518e608001518e612b99565b61277c91906141a9565b61278691906141c0565b90506000600160009054906101000a90046001600160a01b03166001600160a01b03166320930fa46040518163ffffffff1660e01b8152600401602060405180830381865afa1580156127dd573d6000803e3d6000fd5b505050506040513d601f19601f820116820180604052508101906128019190613fe3565b6001600160a01b031663b3a7b9da878d6040518363ffffffff1660e01b815260040161282e92919061419b565b60e060405180830381865afa15801561284b573d6000803e3d6000fd5b505050506040513d601f19601f8201168201806040525081019061286f91906141e2565b60600151905060405180606001604052808c8152602001600160009054906101000a90046001600160a01b03166001600160a01b03166320930fa46040518163ffffffff1660e01b8152600401602060405180830381865afa1580156128d9573d6000803e3d6000fd5b505050506040513d601f19601f820116820180604052508101906128fd9190613fe3565b6001600160a01b031663572d356e6040518163ffffffff1660e01b8152600401602060405180830381865afa15801561293a573d6000803e3d6000fd5b505050506040513d601f19601f8201168201806040525081019061295e9190614000565b600160009054906101000a90046001600160a01b03166001600160a01b03166320930fa46040518163ffffffff1660e01b8152600401602060405180830381865afa1580156129b1573d6000803e3d6000fd5b505050506040513d601f19601f820116820180604052508101906129d59190613fe3565b6001600160a01b031663d7033ca06040518163ffffffff1660e01b8152600401602060405180830381865afa158015612a12573d6000803e3d6000fd5b505050506040513d601f19601f82011682018060405250810190612a369190614000565b88612a4187876141a9565b612a4b91906141c0565b612a579061016d6141a9565b612a6191906141a9565b612a6b91906141c0565b815260200185612a7b86856141a9565b612a8591906141c0565b90529750505050505050505b9392505050565b6000818152600260208181526040808420868552909201815281832060019081015490548351630824c3e960e21b8152935191936001600160a01b03909116926320930fa4926004808401938290030181865afa158015612afd573d6000803e3d6000fd5b505050506040513d601f19601f82011682018060405250810190612b219190613fe3565b6001600160a01b0316632420e68884866040518363ffffffff1660e01b8152600401612b4e92919061419b565b602060405180830381865afa158015612b6b573d6000803e3d6000fd5b505050506040513d601f19601f82011682018060405250810190612b8f9190614000565b612a9191906140eb565b60008060008511612bab576000612bc8565b84612bbe88670de0b6b3a76400006141a9565b612bc891906141c0565b90506000808511612bda576000612bf7565b84612bed88670de0b6b3a76400006141a9565b612bf791906141c0565b90506000808551600203612c545785600081518110612c1857612c18614019565b6020026020010151915085600180811115612c3557612c3561426e565b81518110612c4557612c45614019565b60200260200101519050612ca7565b8551600003612c8e57505060036020526000805160206143c783398151915254600160005260008051602061432783398151915254612ca7565b60405163b5c0c3e160e01b815260040160405180910390fd5b68056bc75e2d63100000612cbb84836141a9565b612cc586856141a9565b612ccf91906140d8565b612cd991906141c0565b9a9950505050505050505050565b612cef61366e565b6000612cf9612ef6565b805460ff1916815590507f5db9ee0a495bf2e6ff9c91a7834c1ba4fdd244a5e8aa4e537bd38aeae4b073aa335b604051612d33919061395e565b60405180910390a150565b306001600160a01b037f0000000000000000000000000000000000000000000000000000000000000000161480612dc557507f00000000000000000000000000000000000000000000000000000000000000006001600160a01b0316612db9600080516020614347833981519152546001600160a01b031690565b6001600160a01b031614155b15612de35760405163703e46dd60e11b815260040160405180910390fd5b565b6000610be081611c7d565b816001600160a01b03166352d1902d6040518163ffffffff1660e01b8152600401602060405180830381865afa925050508015612e4a575060408051601f3d908101601f19168201909252612e4791810190614000565b60015b612e725781604051634c9c8ce360e01b8152600401612e69919061395e565b60405180910390fd5b6000805160206143478339815191528114612ea357604051632a87526960e21b815260048101829052602401612e69565b6107a88383613693565b306001600160a01b037f00000000000000000000000000000000000000000000000000000000000000001614612de35760405163703e46dd60e11b815260040160405180910390fd5b7fcd5ed15c6e187e77e9aee88184c21f4f2182ab5827cb3b7e07fbedcd63f0330090565b612f22612f61565b6000612f2c612ef6565b805460ff1916600117815590507f62e78cea01bee320cd4e420270b5ea74000d11b0c9f74754ebdbfc544b05a258612d263390565b612f69610c01565b15612de35760405163d93c066560e01b815260040160405180910390fd5b60015460408051630824c3e960e21b815290516000926001600160a01b0316916320930fa49160048083019260209291908290030181865afa158015612fd1573d6000803e3d6000fd5b505050506040513d601f19601f82011682018060405250810190612ff59190613fe3565b6001600160a01b031663c6b61e4c846040518263ffffffff1660e01b815260040161302291815260200190565b600060405180830381865afa15801561303f573d6000803e3d6000fd5b505050506040513d6000823e601f3d908101601f1916820160405261306791908101906140fe565b6060810151909150151560010361309157604051634b5e16a360e01b815260040160405180910390fd5b600061317784600160009054906101000a90046001600160a01b03166001600160a01b03166320930fa46040518163ffffffff1660e01b8152600401602060405180830381865afa1580156130ea573d6000803e3d6000fd5b505050506040513d601f19601f8201168201806040525081019061310e9190613fe3565b6001600160a01b031663c53036f46040518163ffffffff1660e01b8152600401602060405180830381865afa15801561314b573d6000803e3d6000fd5b505050506040513d601f19601f8201168201806040525081019061316f9190614000565b856000610afb565b905060008060005b83518110156131bb5783818151811061319a5761319a614019565b602002602001015160200151836131b191906140d8565b925060010161317f565b50825160009081816001600160401b038111156131da576131da6139bb565b60405190808252806020026020018201604052801561322f57816020015b61321c60405180606001604052806000815260200160008152602001600081525090565b8152602001906001900390816131f85790505b509050600080600095505b838610156134025787868151811061325457613254614019565b6020026020010151600001519450600087116132715760006132a9565b86896040015189888151811061328957613289614019565b60200260200101516020015161329f91906141a9565b6132a991906141c0565b915068056bc75e2d63100000600160009054906101000a90046001600160a01b03166001600160a01b03166320930fa46040518163ffffffff1660e01b8152600401602060405180830381865afa158015613308573d6000803e3d6000fd5b505050506040513d601f19601f8201168201806040525081019061332c9190613fe3565b6001600160a01b031663b3a7b9da8d886040518363ffffffff1660e01b815260040161335992919061419b565b60e060405180830381865afa158015613376573d6000803e3d6000fd5b505050506040513d601f19601f8201168201806040525081019061339a91906141e2565b606001516133a890846141a9565b6133b291906141c0565b9050604051806060016040528086815260200182846133d191906140eb565b8152602001828152508387815181106133ec576133ec614019565b602002602001018190525085600101955061323a565b600160009054906101000a90046001600160a01b03166001600160a01b03166320930fa46040518163ffffffff1660e01b8152600401602060405180830381865afa158015613455573d6000803e3d6000fd5b505050506040513d601f19601f820116820180604052508101906134799190613fe3565b6001600160a01b031663cd0081a78c856040518363ffffffff1660e01b81526004016134a6929190614284565b600060405180830381600087803b1580156134c057600080fd5b505af11580156134d4573d6000803e3d6000fd5b505050505050505050505050505050565b6134ef81836140d8565b68056bc75e2d63100000146135175760405163b5c0c3e160e01b815260040160405180910390fd5b60036020526000805160206143c7833981519152829055600160008190526000805160206143278339815191528290556040516000805160206143a7833981519152916135659184906142de565b60405180910390a16000805160206143a783398151915260008360405161358d9291906142de565b60405180910390a15050565b7ff0c57e16840df040f15088dc2f81fe391c3923bec73e23a9662efc9c229c6a0090565b612de36136e9565b6135cd6136e9565b612de361370e565b60006135df611c87565b905060006135ec84610733565b600085815260208490526040808220600101869055519192508491839187917fbd79b86ffe0ab8e8776151514217cd7cacd52c909f66475c3af44e129f0b00ff9190a450505050565b61363f8282610d8b565b610be05760405163e2517d3f60e01b81526001600160a01b038216600482015260248101839052604401612e69565b613676610c01565b612de357604051638dfc202b60e01b815260040160405180910390fd5b61369c8261372b565b6040516001600160a01b038316907fbc7cd75a20ee27fd9adebab32041f755214dbc6bffa90cc0225b39da2e5c2d3b90600090a28051156136e1576107a88282613787565b610be06137fd565b6136f161381c565b612de357604051631afcd79f60e31b815260040160405180910390fd5b6137166136e9565b6000613720612ef6565b805460ff1916905550565b806001600160a01b03163b6000036137585780604051634c9c8ce360e01b8152600401612e69919061395e565b60008051602061434783398151915280546001600160a01b0319166001600160a01b0392909216919091179055565b6060600080846001600160a01b0316846040516137a4919061430a565b600060405180830381855af49150503d80600081146137df576040519150601f19603f3d011682016040523d82523d6000602084013e6137e4565b606091505b50915091506137f4858383613836565b95945050505050565b3415612de35760405163b398979f60e01b815260040160405180910390fd5b6000613826613599565b54600160401b900460ff16919050565b60608261384b5761384682613889565b612a91565b815115801561386257506001600160a01b0384163b155b156138825783604051639996b31560e01b8152600401612e69919061395e565b5080612a91565b8051156138995780518082602001fd5b604051630a12f52160e11b815260040160405180910390fd5b60405180606001604052806000815260200160008152602001600081525090565b6040518060a0016040528060008152602001600081526020016000815260200160008152602001600081525090565b6001600160a01b0381168114610b8757600080fd5b60006020828403121561392957600080fd5b8135612a9181613902565b60006020828403121561394657600080fd5b81356001600160e01b031981168114612a9157600080fd5b6001600160a01b0391909116815260200190565b60006020828403121561398457600080fd5b5035919050565b6000806040838503121561399e57600080fd5b8235915060208301356139b081613902565b809150509250929050565b634e487b7160e01b600052604160045260246000fd5b604080519081016001600160401b03811182821017156139f3576139f36139bb565b60405290565b60405160a081016001600160401b03811182821017156139f3576139f36139bb565b604051601f8201601f191681016001600160401b0381118282101715613a4357613a436139bb565b604052919050565b60006001600160401b03821115613a6457613a646139bb565b5060051b60200190565b600082601f830112613a7f57600080fd5b81356020613a94613a8f83613a4b565b613a1b565b8083825260208201915060208460051b870101935086841115613ab657600080fd5b602086015b84811015613ad25780358352918301918301613abb565b509695505050505050565b60008060408385031215613af057600080fd5b82356001600160401b0380821115613b0757600080fd5b613b1386838701613a6e565b93506020850135915080821115613b2957600080fd5b50613b3685828601613a6e565b9150509250929050565b8051825260208082015190830152604090810151910152565b6020808252825182820181905260009190848201906040850190845b81811015613b9b57613b88838551613b40565b9284019260609290920191600101613b75565b50909695505050505050565b602080825282518282018190526000919060409081850190868401855b828110156123f657613be184835180518252602090810151910152565b9284019290850190600101613bc4565b600080600080600060a08688031215613c0957600080fd5b8535945060208601359350604086013592506060860135915060808601356001600160401b03811115613c3b57600080fd5b613c4788828901613a6e565b9150509295509295909350565b60008060408385031215613c6757600080fd5b8235613c7281613902565b91506020838101356001600160401b0380821115613c8f57600080fd5b818601915086601f830112613ca357600080fd5b813581811115613cb557613cb56139bb565b613cc7601f8201601f19168501613a1b565b91508082528784828501011115613cdd57600080fd5b80848401858401376000848284010152508093505050509250929050565b8015158114610b8757600080fd5b60008060008060808587031215613d1f57600080fd5b8435935060208501359250604085013591506060850135613d3f81613cfb565b939692955090935050565b600060208284031215613d5c57600080fd5b81356001600160401b03811115613d7257600080fd5b61160a84828501613a6e565b6020808252825182820181905260009190848201906040850190845b81811015613b9b57835183529284019291840191600101613d9a565b600060208284031215613dc857600080fd5b813560028110612a9157600080fd5b6000806040808486031215613deb57600080fd5b833592506020808501356001600160401b03811115613e0957600080fd5b8501601f81018713613e1a57600080fd5b8035613e28613a8f82613a4b565b81815260069190911b82018301908381019089831115613e4757600080fd5b928401925b82841015613e875785848b031215613e645760008081fd5b613e6c6139d1565b84358152858501358682015282529285019290840190613e4c565b8096505050505050509250929050565b60008060008060808587031215613ead57600080fd5b843593506020850135925060408501356001600160401b0380821115613ed257600080fd5b613ede88838901613a6e565b93506060870135915080821115613ef457600080fd5b50613f0187828801613a6e565b91505092959194509250565b60005b83811015613f28578181015183820152602001613f10565b50506000910152565b6020815260008251806020840152613f50816040850160208701613f0d565b601f01601f19169190910160400192915050565b60008060408385031215613f7757600080fd5b50508035926020909101359150565b81518152602080830151908201526040810161072d565b60008060008060808587031215613fb357600080fd5b8435613fbe81613902565b93506020850135613fce81613902565b93969395505050506040820135916060013590565b600060208284031215613ff557600080fd5b8151612a9181613902565b60006020828403121561401257600080fd5b5051919050565b634e487b7160e01b600052603260045260246000fd5b600082601f83011261404057600080fd5b81516020614050613a8f83613a4b565b8083825260208201915060208460051b87010193508684111561407257600080fd5b602086015b84811015613ad25780518352918301918301614077565b6000602082840312156140a057600080fd5b81516001600160401b038111156140b657600080fd5b61160a8482850161402f565b634e487b7160e01b600052601160045260246000fd5b8082018082111561072d5761072d6140c2565b8181038181111561072d5761072d6140c2565b60006020828403121561411057600080fd5b81516001600160401b038082111561412757600080fd5b9083019060a0828603121561413b57600080fd5b6141436139f9565b825181526020830151602082015260408301516040820152606083015161416981613cfb565b606082015260808301518281111561418057600080fd5b61418c8782860161402f565b60808301525095945050505050565b918252602082015260400190565b808202811582820484141761072d5761072d6140c2565b6000826141dd57634e487b7160e01b600052601260045260246000fd5b500490565b600060e082840312156141f457600080fd5b60405160e081016001600160401b0381118282101715614216576142166139bb565b60405282518152602083015161422b81613cfb565b8060208301525060408301516040820152606083015160608201526080830151608082015260a083015160a082015260c083015160c08201528091505092915050565b634e487b7160e01b600052602160045260246000fd5b600060408201848352602060406020850152818551808452606093506060860191506020870160005b828110156142d0576142c0848351613b40565b92850192908401906001016142ad565b509198975050505050505050565b604081016002841061430057634e487b7160e01b600052602160045260246000fd5b9281526020015290565b6000825161431c818460208701613f0d565b919091019291505056fea15bc60c955c405d20d9149c709e2460f1c2d9a497496a7f46004d1772c3054c360894a13ba1a3210667c828492db98dca3e2076cc3735a920a3ca505d382bbc241ecf16d79d0f8dbfb92cbc07fe17840425976cf0667f022fe9877caa831b087a1532a7a87f7aacbb5e1d89fc13c95143d976fa27740467ab52d352a319ec6bef783485acfab8a5c4973c0e812a2b69d85355a7456c94fe3e779bc85017f2fe3617319a054d772f909f7c479a2cebe5066e836a939412e32403c99029b92eff339759585899103d2ace64958e37e18ccb0504652c81d4a1b8aa80fe2126ab95a264697066735822122062ca2cc50904b99ff943fe533355f028e1d279305cc4d2c4558f5f3f8161bb0c64736f6c63430008180033",
  "devdoc": {
    "errors": {
      "AccessControlBadConfirmation()": [
        {
          "details": "The caller of a function is not the expected one. NOTE: Don't confuse with {AccessControlUnauthorizedAccount}."
        }
      ],
      "AccessControlUnauthorizedAccount(address,bytes32)": [
        {
          "details": "The `account` is missing a role."
        }
      ],
      "AddressEmptyCode(address)": [
        {
          "details": "There's no code at `target` (it is not a contract)."
        }
      ],
      "ERC1967InvalidImplementation(address)": [
        {
          "details": "The `implementation` of the proxy is invalid."
        }
      ],
      "ERC1967NonPayable()": [
        {
          "details": "An upgrade function sees `msg.value > 0` that may be lost."
        }
      ],
      "EnforcedPause()": [
        {
          "details": "The operation failed because the contract is paused."
        }
      ],
      "ExpectedPause()": [
        {
          "details": "The operation failed because the contract is not paused."
        }
      ],
      "FailedInnerCall()": [
        {
          "details": "A call to an address target failed. The target may have reverted."
        }
      ],
      "InvalidInitialization()": [
        {
          "details": "The contract is already initialized."
        }
      ],
      "NotInitializing()": [
        {
          "details": "The contract is not initializing."
        }
      ],
      "UUPSUnauthorizedCallContext()": [
        {
          "details": "The call is from an unauthorized context."
        }
      ],
      "UUPSUnsupportedProxiableUUID(bytes32)": [
        {
          "details": "The storage `slot` is unsupported as a UUID."
        }
      ]
    },
    "events": {
      "Initialized(uint64)": {
        "details": "Triggered when the contract has been initialized or reinitialized."
      },
      "Paused(address)": {
        "details": "Emitted when the pause is triggered by `account`."
      },
      "RoleAdminChanged(bytes32,bytes32,bytes32)": {
        "details": "Emitted when `newAdminRole` is set as ``role``'s admin role, replacing `previousAdminRole` `DEFAULT_ADMIN_ROLE` is the starting admin for all roles, despite {RoleAdminChanged} not being emitted signaling this."
      },
      "RoleGranted(bytes32,address,address)": {
        "details": "Emitted when `account` is granted `role`. `sender` is the account that originated the contract call, an admin role bearer except when using {AccessControl-_setupRole}."
      },
      "RoleRevoked(bytes32,address,address)": {
        "details": "Emitted when `account` is revoked `role`. `sender` is the account that originated the contract call:   - if using `revokeRole`, it is the admin role bearer   - if using `renounceRole`, it is the role bearer (i.e. `account`)"
      },
      "Unpaused(address)": {
        "details": "Emitted when the pause is lifted by `account`."
      },
      "Upgraded(address)": {
        "details": "Emitted when the implementation is upgraded."
      }
    },
    "kind": "dev",
    "methods": {
      "constructor": {
        "custom:oz-upgrades-unsafe-allow": "constructor"
      },
      "estimatedDlpRewardPercentagesCustomized(uint256[],uint256[])": {
        "details": "Calculates based on ratings and current epoch parameters"
      },
      "finalizeEpoch(uint256)": {
        "params": {
          "epochId": "The epoch ID to save performanceRatings for"
        }
      },
      "getRoleAdmin(bytes32)": {
        "details": "Returns the admin role that controls `role`. See {grantRole} and {revokeRole}. To change a role's admin, use {_setRoleAdmin}."
      },
      "grantRole(bytes32,address)": {
        "details": "Grants `role` to `account`. If `account` had not been already granted `role`, emits a {RoleGranted} event. Requirements: - the caller must have ``role``'s admin role. May emit a {RoleGranted} event."
      },
      "hasRole(bytes32,address)": {
        "details": "Returns `true` if `account` has been granted `role`."
      },
      "paused()": {
        "details": "Returns true if the contract is paused, and false otherwise."
      },
      "proxiableUUID()": {
        "details": "Implementation of the ERC1822 {proxiableUUID} function. This returns the storage slot used by the implementation. It is used to validate the implementation's compatibility when performing an upgrade. IMPORTANT: A proxy pointing at a proxiable contract should not be considered proxiable itself, because this risks bricking a proxy that upgrades to it, by delegating to itself until out of gas. Thus it is critical that this function revert if invoked through a proxy. This is guaranteed by the `notDelegated` modifier."
      },
      "renounceRole(bytes32,address)": {
        "details": "Revokes `role` from the calling account. Roles are often managed via {grantRole} and {revokeRole}: this function's purpose is to provide a mechanism for accounts to lose their privileges if they are compromised (such as when a trusted device is misplaced). If the calling account had been revoked `role`, emits a {RoleRevoked} event. Requirements: - the caller must be `callerConfirmation`. May emit a {RoleRevoked} event."
      },
      "revokeRole(bytes32,address)": {
        "details": "Revokes `role` from `account`. If `account` had been granted `role`, emits a {RoleRevoked} event. Requirements: - the caller must have ``role``'s admin role. May emit a {RoleRevoked} event."
      },
      "saveEpochPerformanceRatings(uint256,(uint256,uint256)[])": {
        "params": {
          "dlpPerformanceRatings": "Array of DLP performanceRatings to save",
          "epochId": "The epoch ID to save performanceRatings for"
        }
      },
      "supportsInterface(bytes4)": {
        "details": "See {IERC165-supportsInterface}."
      },
      "topDlpsCustomized(uint256,uint256,uint256[],uint256[])": {
        "details": "Uses insertion sort to maintain ordered list"
      },
      "upgradeToAndCall(address,bytes)": {
        "custom:oz-upgrades-unsafe-allow-reachable": "delegatecall",
        "details": "Upgrade the implementation of the proxy to `newImplementation`, and subsequently execute the function call encoded in `data`. Calls {_authorizeUpgrade}. Emits an {Upgraded} event."
      }
    },
    "version": 1
  },
  "userdoc": {
    "kind": "user",
    "methods": {
      "estimatedDlpRewardPercentagesCustomized(uint256[],uint256[])": {
        "notice": "Estimates reward percentages for given DLPs"
      },
      "finalizeEpoch(uint256)": {
        "notice": "Saves or updates epoch performanceRatings for DLPs"
      },
      "getMultiplier(uint256)": {
        "notice": "Returns stake score multiplier based number of days staked"
      },
      "saveEpochPerformanceRatings(uint256,(uint256,uint256)[])": {
        "notice": "Saves or updates epoch performanceRatings for DLPs"
      },
      "topDlpsCustomized(uint256,uint256,uint256[],uint256[])": {
        "notice": "Gets top DLP IDs by rating (performanceRating + stakeRating)"
      }
    },
    "version": 1
  },
  "storageLayout": {
    "storage": [
      {
        "astId": 19565,
        "contract": "contracts/rootMetrics/DLPRootMetricsImplementation.sol:DLPRootMetricsImplementation",
        "label": "_trustedForwarder",
        "offset": 0,
        "slot": "0",
        "type": "t_address"
      },
      {
        "astId": 19569,
        "contract": "contracts/rootMetrics/DLPRootMetricsImplementation.sol:DLPRootMetricsImplementation",
        "label": "dlpRoot",
        "offset": 0,
        "slot": "1",
        "type": "t_contract(IDLPRoot)13218"
      },
      {
        "astId": 19574,
        "contract": "contracts/rootMetrics/DLPRootMetricsImplementation.sol:DLPRootMetricsImplementation",
        "label": "_epochs",
        "offset": 0,
        "slot": "2",
        "type": "t_mapping(t_uint256,t_struct(Epoch)19614_storage)"
      },
      {
        "astId": 19580,
        "contract": "contracts/rootMetrics/DLPRootMetricsImplementation.sol:DLPRootMetricsImplementation",
        "label": "ratingPercentages",
        "offset": 0,
        "slot": "3",
        "type": "t_mapping(t_enum(RatingType)19599,t_uint256)"
      },
      {
        "astId": 19582,
        "contract": "contracts/rootMetrics/DLPRootMetricsImplementation.sol:DLPRootMetricsImplementation",
        "label": "_foundationWalletAddress",
        "offset": 0,
        "slot": "4",
        "type": "t_address_payable"
      }
    ],
    "types": {
      "t_address": {
        "encoding": "inplace",
        "label": "address",
        "numberOfBytes": "20"
      },
      "t_address_payable": {
        "encoding": "inplace",
        "label": "address payable",
        "numberOfBytes": "20"
      },
      "t_bool": {
        "encoding": "inplace",
        "label": "bool",
        "numberOfBytes": "1"
      },
      "t_contract(IDLPRoot)13218": {
        "encoding": "inplace",
        "label": "contract IDLPRoot",
        "numberOfBytes": "20"
      },
      "t_enum(RatingType)19599": {
        "encoding": "inplace",
        "label": "enum IDLPRootMetrics.RatingType",
        "numberOfBytes": "1"
      },
      "t_mapping(t_enum(RatingType)19599,t_uint256)": {
        "encoding": "mapping",
        "key": "t_enum(RatingType)19599",
        "label": "mapping(enum IDLPRootMetrics.RatingType => uint256)",
        "numberOfBytes": "32",
        "value": "t_uint256"
      },
      "t_mapping(t_uint256,t_struct(Epoch)19614_storage)": {
        "encoding": "mapping",
        "key": "t_uint256",
        "label": "mapping(uint256 => struct IDLPRootMetrics.Epoch)",
        "numberOfBytes": "32",
        "value": "t_struct(Epoch)19614_storage"
      },
      "t_mapping(t_uint256,t_struct(EpochDlp)19604_storage)": {
        "encoding": "mapping",
        "key": "t_uint256",
        "label": "mapping(uint256 => struct IDLPRootMetrics.EpochDlp)",
        "numberOfBytes": "32",
        "value": "t_struct(EpochDlp)19604_storage"
      },
      "t_struct(Epoch)19614_storage": {
        "encoding": "inplace",
        "label": "struct IDLPRootMetrics.Epoch",
        "members": [
          {
            "astId": 19606,
            "contract": "contracts/rootMetrics/DLPRootMetricsImplementation.sol:DLPRootMetricsImplementation",
            "label": "totalPerformanceRating",
            "offset": 0,
            "slot": "0",
            "type": "t_uint256"
          },
          {
            "astId": 19608,
            "contract": "contracts/rootMetrics/DLPRootMetricsImplementation.sol:DLPRootMetricsImplementation",
            "label": "finalized",
            "offset": 0,
            "slot": "1",
            "type": "t_bool"
          },
          {
            "astId": 19613,
            "contract": "contracts/rootMetrics/DLPRootMetricsImplementation.sol:DLPRootMetricsImplementation",
            "label": "dlps",
            "offset": 0,
            "slot": "2",
            "type": "t_mapping(t_uint256,t_struct(EpochDlp)19604_storage)"
          }
        ],
        "numberOfBytes": "96"
      },
      "t_struct(EpochDlp)19604_storage": {
        "encoding": "inplace",
        "label": "struct IDLPRootMetrics.EpochDlp",
        "members": [
          {
            "astId": 19601,
            "contract": "contracts/rootMetrics/DLPRootMetricsImplementation.sol:DLPRootMetricsImplementation",
            "label": "performanceRating",
            "offset": 0,
            "slot": "0",
            "type": "t_uint256"
          },
          {
            "astId": 19603,
            "contract": "contracts/rootMetrics/DLPRootMetricsImplementation.sol:DLPRootMetricsImplementation",
            "label": "stakeAmountAdjustment",
            "offset": 0,
            "slot": "1",
            "type": "t_uint256"
          }
        ],
        "numberOfBytes": "64"
      },
      "t_uint256": {
        "encoding": "inplace",
        "label": "uint256",
        "numberOfBytes": "32"
      }
    }
  }
}