{
  "address": "0x8EF0338bdC535DedeF52e09A0061a56736f03fd4",
  "abi": [
    {
      "inputs": [],
      "stateMutability": "nonpayable",
      "type": "constructor"
    },
    {
      "inputs": [],
      "name": "AccessControlBadConfirmation",
      "type": "error"
    },
    {
      "inputs": [
        {
          "internalType": "address",
          "name": "account",
          "type": "address"
        },
        {
          "internalType": "bytes32",
          "name": "neededRole",
          "type": "bytes32"
        }
      ],
      "name": "AccessControlUnauthorizedAccount",
      "type": "error"
    },
    {
      "inputs": [
        {
          "internalType": "address",
          "name": "target",
          "type": "address"
        }
      ],
      "name": "AddressEmptyCode",
      "type": "error"
    },
    {
      "inputs": [
        {
          "internalType": "address",
          "name": "account",
          "type": "address"
        }
      ],
      "name": "AddressInsufficientBalance",
      "type": "error"
    },
    {
      "inputs": [],
      "name": "ColumnNameUnexpected",
      "type": "error"
    },
    {
      "inputs": [],
      "name": "DlpNotFound",
      "type": "error"
    },
    {
      "inputs": [
        {
          "internalType": "address",
          "name": "implementation",
          "type": "address"
        }
      ],
      "name": "ERC1967InvalidImplementation",
      "type": "error"
    },
    {
      "inputs": [],
      "name": "ERC1967NonPayable",
      "type": "error"
    },
    {
      "inputs": [],
      "name": "EnforcedPause",
      "type": "error"
    },
    {
      "inputs": [],
      "name": "ExpectedPause",
      "type": "error"
    },
    {
      "inputs": [],
      "name": "FailedInnerCall",
      "type": "error"
    },
    {
      "inputs": [],
      "name": "InvalidDlpPaymentPercentage",
      "type": "error"
    },
    {
      "inputs": [],
      "name": "InvalidDlpTreasuryAddress",
      "type": "error"
    },
    {
      "inputs": [],
      "name": "InvalidInitialization",
      "type": "error"
    },
    {
      "inputs": [],
      "name": "NotDlpOwner",
      "type": "error"
    },
    {
      "inputs": [],
      "name": "NotInitializing",
      "type": "error"
    },
    {
      "inputs": [],
      "name": "NotRefinerOwner",
      "type": "error"
    },
    {
      "inputs": [],
      "name": "PaymentNotReceived",
      "type": "error"
    },
    {
      "inputs": [],
      "name": "PermissionNotFound",
      "type": "error"
    },
    {
      "inputs": [],
      "name": "ReentrancyGuardReentrantCall",
      "type": "error"
    },
    {
      "inputs": [],
      "name": "RefinerNotFound",
      "type": "error"
    },
    {
      "inputs": [
        {
          "internalType": "address",
          "name": "token",
          "type": "address"
        }
      ],
      "name": "SafeERC20FailedOperation",
      "type": "error"
    },
    {
      "inputs": [],
      "name": "UUPSUnauthorizedCallContext",
      "type": "error"
    },
    {
      "inputs": [
        {
          "internalType": "bytes32",
          "name": "slot",
          "type": "bytes32"
        }
      ],
      "name": "UUPSUnsupportedProxiableUUID",
      "type": "error"
    },
    {
      "inputs": [],
      "name": "ZeroAddress",
      "type": "error"
    },
    {
      "anonymous": false,
      "inputs": [
        {
          "indexed": true,
          "internalType": "uint256",
          "name": "dlpId",
          "type": "uint256"
        },
        {
          "indexed": true,
          "internalType": "address",
          "name": "dlpTreasuryAddress",
          "type": "address"
        },
        {
          "indexed": true,
          "internalType": "address",
          "name": "token",
          "type": "address"
        },
        {
          "indexed": false,
          "internalType": "uint256",
          "name": "amount",
          "type": "uint256"
        }
      ],
      "name": "DlpPaymentClaimed",
      "type": "event"
    },
    {
      "anonymous": false,
      "inputs": [
        {
          "indexed": false,
          "internalType": "uint64",
          "name": "version",
          "type": "uint64"
        }
      ],
      "name": "Initialized",
      "type": "event"
    },
    {
      "anonymous": false,
      "inputs": [
        {
          "indexed": false,
          "internalType": "address",
          "name": "account",
          "type": "address"
        }
      ],
      "name": "Paused",
      "type": "event"
    },
    {
      "anonymous": false,
      "inputs": [
        {
          "indexed": true,
          "internalType": "address",
          "name": "token",
          "type": "address"
        },
        {
          "indexed": false,
          "internalType": "uint256",
          "name": "amount",
          "type": "uint256"
        },
        {
          "indexed": false,
          "internalType": "uint256",
          "name": "jobId",
          "type": "uint256"
        },
        {
          "indexed": false,
          "internalType": "uint256",
          "name": "refinerId",
          "type": "uint256"
        }
      ],
      "name": "PaymentReceived",
      "type": "event"
    },
    {
      "anonymous": false,
      "inputs": [
        {
          "indexed": true,
          "internalType": "uint256",
          "name": "permissionId",
          "type": "uint256"
        },
        {
          "indexed": true,
          "internalType": "address",
          "name": "grantee",
          "type": "address"
        },
        {
          "indexed": true,
          "internalType": "uint256",
          "name": "refinerId",
          "type": "uint256"
        },
        {
          "indexed": false,
          "internalType": "string",
          "name": "tableName",
          "type": "string"
        },
        {
          "indexed": false,
          "internalType": "string",
          "name": "columnName",
          "type": "string"
        },
        {
          "indexed": false,
          "internalType": "address",
          "name": "tokenAddress",
          "type": "address"
        },
        {
          "indexed": false,
          "internalType": "uint256",
          "name": "price",
          "type": "uint256"
        }
      ],
      "name": "PermissionAdded",
      "type": "event"
    },
    {
      "anonymous": false,
      "inputs": [
        {
          "indexed": true,
          "internalType": "uint256",
          "name": "permissionId",
          "type": "uint256"
        },
        {
          "indexed": false,
          "internalType": "bool",
          "name": "approved",
          "type": "bool"
        }
      ],
      "name": "PermissionApprovalUpdated",
      "type": "event"
    },
    {
      "anonymous": false,
      "inputs": [
        {
          "indexed": true,
          "internalType": "bytes32",
          "name": "role",
          "type": "bytes32"
        },
        {
          "indexed": true,
          "internalType": "bytes32",
          "name": "previousAdminRole",
          "type": "bytes32"
        },
        {
          "indexed": true,
          "internalType": "bytes32",
          "name": "newAdminRole",
          "type": "bytes32"
        }
      ],
      "name": "RoleAdminChanged",
      "type": "event"
    },
    {
      "anonymous": false,
      "inputs": [
        {
          "indexed": true,
          "internalType": "bytes32",
          "name": "role",
          "type": "bytes32"
        },
        {
          "indexed": true,
          "internalType": "address",
          "name": "account",
          "type": "address"
        },
        {
          "indexed": true,
          "internalType": "address",
          "name": "sender",
          "type": "address"
        }
      ],
      "name": "RoleGranted",
      "type": "event"
    },
    {
      "anonymous": false,
      "inputs": [
        {
          "indexed": true,
          "internalType": "bytes32",
          "name": "role",
          "type": "bytes32"
        },
        {
          "indexed": true,
          "internalType": "address",
          "name": "account",
          "type": "address"
        },
        {
          "indexed": true,
          "internalType": "address",
          "name": "sender",
          "type": "address"
        }
      ],
      "name": "RoleRevoked",
      "type": "event"
    },
    {
      "anonymous": false,
      "inputs": [
        {
          "indexed": false,
          "internalType": "address",
          "name": "account",
          "type": "address"
        }
      ],
      "name": "Unpaused",
      "type": "event"
    },
    {
      "anonymous": false,
      "inputs": [
        {
          "indexed": true,
          "internalType": "address",
          "name": "implementation",
          "type": "address"
        }
      ],
      "name": "Upgraded",
      "type": "event"
    },
    {
      "inputs": [],
      "name": "DEFAULT_ADMIN_ROLE",
      "outputs": [
        {
          "internalType": "bytes32",
          "name": "",
          "type": "bytes32"
        }
      ],
      "stateMutability": "view",
      "type": "function"
    },
    {
      "inputs": [],
      "name": "MAINTAINER_ROLE",
      "outputs": [
        {
          "internalType": "bytes32",
          "name": "",
          "type": "bytes32"
        }
      ],
      "stateMutability": "view",
      "type": "function"
    },
    {
      "inputs": [],
      "name": "ONE_HUNDRED_PERCENT",
      "outputs": [
        {
          "internalType": "uint256",
          "name": "",
          "type": "uint256"
        }
      ],
      "stateMutability": "view",
      "type": "function"
    },
    {
      "inputs": [],
      "name": "QUERY_ENGINE_ROLE",
      "outputs": [
        {
          "internalType": "bytes32",
          "name": "",
          "type": "bytes32"
        }
      ],
      "stateMutability": "view",
      "type": "function"
    },
    {
      "inputs": [],
      "name": "UPGRADE_INTERFACE_VERSION",
      "outputs": [
        {
          "internalType": "string",
          "name": "",
          "type": "string"
        }
      ],
      "stateMutability": "view",
      "type": "function"
    },
    {
      "inputs": [],
      "name": "VANA",
      "outputs": [
        {
          "internalType": "address",
          "name": "",
          "type": "address"
        }
      ],
      "stateMutability": "view",
      "type": "function"
    },
    {
      "inputs": [
        {
          "internalType": "uint256",
          "name": "refinerId",
          "type": "uint256"
        },
        {
          "internalType": "string",
          "name": "tableName",
          "type": "string"
        },
        {
          "internalType": "string",
          "name": "columnName",
          "type": "string"
        },
        {
          "internalType": "address",
          "name": "tokenAddress",
          "type": "address"
        },
        {
          "internalType": "uint256",
          "name": "price",
          "type": "uint256"
        }
      ],
      "name": "addGenericPermission",
      "outputs": [
        {
          "internalType": "uint256",
          "name": "permissionId",
          "type": "uint256"
        }
      ],
      "stateMutability": "nonpayable",
      "type": "function"
    },
    {
      "inputs": [
        {
          "internalType": "address",
          "name": "grantee",
          "type": "address"
        },
        {
          "internalType": "uint256",
          "name": "refinerId",
          "type": "uint256"
        },
        {
          "internalType": "string",
          "name": "tableName",
          "type": "string"
        },
        {
          "internalType": "string",
          "name": "columnName",
          "type": "string"
        },
        {
          "internalType": "address",
          "name": "tokenAddress",
          "type": "address"
        },
        {
          "internalType": "uint256",
          "name": "price",
          "type": "uint256"
        }
      ],
      "name": "addPermission",
      "outputs": [
        {
          "internalType": "uint256",
          "name": "permissionId",
          "type": "uint256"
        }
      ],
      "stateMutability": "nonpayable",
      "type": "function"
    },
    {
      "inputs": [
        {
          "internalType": "uint256",
          "name": "dlpId",
          "type": "uint256"
        },
        {
          "internalType": "address",
          "name": "token",
          "type": "address"
        }
      ],
      "name": "balanceOf",
      "outputs": [
        {
          "internalType": "uint256",
          "name": "",
          "type": "uint256"
        }
      ],
      "stateMutability": "view",
      "type": "function"
    },
    {
      "inputs": [
        {
          "internalType": "uint256",
          "name": "dlpId",
          "type": "uint256"
        },
        {
          "internalType": "address",
          "name": "token",
          "type": "address"
        }
      ],
      "name": "claimDlpPayment",
      "outputs": [],
      "stateMutability": "nonpayable",
      "type": "function"
    },
    {
      "inputs": [],
      "name": "computeEngine",
      "outputs": [
        {
          "internalType": "contract IComputeEngine",
          "name": "",
          "type": "address"
        }
      ],
      "stateMutability": "view",
      "type": "function"
    },
    {
      "inputs": [],
      "name": "dlpPaymentPercentage",
      "outputs": [
        {
          "internalType": "uint256",
          "name": "",
          "type": "uint256"
        }
      ],
      "stateMutability": "view",
      "type": "function"
    },
    {
      "inputs": [
        {
          "internalType": "uint256",
          "name": "dlpId",
          "type": "uint256"
        }
      ],
      "name": "dlpPubKeys",
      "outputs": [
        {
          "internalType": "string",
          "name": "pubKey",
          "type": "string"
        }
      ],
      "stateMutability": "view",
      "type": "function"
    },
    {
      "inputs": [
        {
          "internalType": "uint256",
          "name": "refinerId",
          "type": "uint256"
        },
        {
          "internalType": "address",
          "name": "grantee",
          "type": "address"
        }
      ],
      "name": "getPermissions",
      "outputs": [
        {
          "components": [
            {
              "internalType": "uint256",
              "name": "permissionId",
              "type": "uint256"
            },
            {
              "internalType": "address",
              "name": "grantee",
              "type": "address"
            },
            {
              "internalType": "bool",
              "name": "approved",
              "type": "bool"
            },
            {
              "internalType": "uint256",
              "name": "refinerId",
              "type": "uint256"
            },
            {
              "internalType": "string",
              "name": "tableName",
              "type": "string"
            },
            {
              "internalType": "string",
              "name": "columnName",
              "type": "string"
            },
            {
              "internalType": "uint256",
              "name": "price",
              "type": "uint256"
            },
            {
              "internalType": "address",
              "name": "tokenAddress",
              "type": "address"
            }
          ],
          "internalType": "struct IQueryEngine.PermissionInfo[]",
          "name": "",
          "type": "tuple[]"
        }
      ],
      "stateMutability": "view",
      "type": "function"
    },
    {
      "inputs": [
        {
          "internalType": "bytes32",
          "name": "role",
          "type": "bytes32"
        }
      ],
      "name": "getRoleAdmin",
      "outputs": [
        {
          "internalType": "bytes32",
          "name": "",
          "type": "bytes32"
        }
      ],
      "stateMutability": "view",
      "type": "function"
    },
    {
      "inputs": [
        {
          "internalType": "bytes32",
          "name": "role",
          "type": "bytes32"
        },
        {
          "internalType": "address",
          "name": "account",
          "type": "address"
        }
      ],
      "name": "grantRole",
      "outputs": [],
      "stateMutability": "nonpayable",
      "type": "function"
    },
    {
      "inputs": [
        {
          "internalType": "bytes32",
          "name": "role",
          "type": "bytes32"
        },
        {
          "internalType": "address",
          "name": "account",
          "type": "address"
        }
      ],
      "name": "hasRole",
      "outputs": [
        {
          "internalType": "bool",
          "name": "",
          "type": "bool"
        }
      ],
      "stateMutability": "view",
      "type": "function"
    },
    {
      "inputs": [
        {
          "internalType": "address",
          "name": "ownerAddress",
          "type": "address"
        },
        {
          "internalType": "address",
          "name": "initRefinerRegistryAddress",
          "type": "address"
        },
        {
          "internalType": "contract DataAccessTreasuryProxyFactory",
          "name": "initDataAccessTreasuryFactory",
          "type": "address"
        }
      ],
      "name": "initialize",
      "outputs": [],
      "stateMutability": "nonpayable",
      "type": "function"
    },
    {
      "inputs": [],
      "name": "pause",
      "outputs": [],
      "stateMutability": "nonpayable",
      "type": "function"
    },
    {
      "inputs": [],
      "name": "paused",
      "outputs": [
        {
          "internalType": "bool",
          "name": "",
          "type": "bool"
        }
      ],
      "stateMutability": "view",
      "type": "function"
    },
    {
      "inputs": [
        {
          "internalType": "uint256",
          "name": "permissionId",
          "type": "uint256"
        }
      ],
      "name": "permissions",
      "outputs": [
        {
          "components": [
            {
              "internalType": "address",
              "name": "grantee",
              "type": "address"
            },
            {
              "internalType": "bool",
              "name": "approved",
              "type": "bool"
            },
            {
              "internalType": "uint256",
              "name": "refinerId",
              "type": "uint256"
            },
            {
              "internalType": "string",
              "name": "tableName",
              "type": "string"
            },
            {
              "internalType": "string",
              "name": "columnName",
              "type": "string"
            },
            {
              "internalType": "uint256",
              "name": "price",
              "type": "uint256"
            },
            {
              "internalType": "address",
              "name": "tokenAddress",
              "type": "address"
            }
          ],
          "internalType": "struct IQueryEngine.Permission",
          "name": "",
          "type": "tuple"
        }
      ],
      "stateMutability": "view",
      "type": "function"
    },
    {
      "inputs": [],
      "name": "permissionsCount",
      "outputs": [
        {
          "internalType": "uint256",
          "name": "",
          "type": "uint256"
        }
      ],
      "stateMutability": "view",
      "type": "function"
    },
    {
      "inputs": [],
      "name": "proxiableUUID",
      "outputs": [
        {
          "internalType": "bytes32",
          "name": "",
          "type": "bytes32"
        }
      ],
      "stateMutability": "view",
      "type": "function"
    },
    {
      "inputs": [],
      "name": "queryEngineTreasury",
      "outputs": [
        {
          "internalType": "contract IDataAccessTreasury",
          "name": "",
          "type": "address"
        }
      ],
      "stateMutability": "view",
      "type": "function"
    },
    {
      "inputs": [],
      "name": "refinerRegistry",
      "outputs": [
        {
          "internalType": "contract IDataRefinerRegistry",
          "name": "",
          "type": "address"
        }
      ],
      "stateMutability": "view",
      "type": "function"
    },
    {
      "inputs": [
        {
          "internalType": "bytes32",
          "name": "role",
          "type": "bytes32"
        },
        {
          "internalType": "address",
          "name": "callerConfirmation",
          "type": "address"
        }
      ],
      "name": "renounceRole",
      "outputs": [],
      "stateMutability": "nonpayable",
      "type": "function"
    },
    {
      "inputs": [
        {
          "internalType": "address",
          "name": "token",
          "type": "address"
        },
        {
          "internalType": "uint256",
          "name": "amount",
          "type": "uint256"
        },
        {
          "internalType": "bytes",
          "name": "metadata",
          "type": "bytes"
        }
      ],
      "name": "requestPayment",
      "outputs": [],
      "stateMutability": "nonpayable",
      "type": "function"
    },
    {
      "inputs": [
        {
          "internalType": "address",
          "name": "token",
          "type": "address"
        },
        {
          "internalType": "uint256",
          "name": "amount",
          "type": "uint256"
        },
        {
          "internalType": "uint256",
          "name": "jobId",
          "type": "uint256"
        },
        {
          "internalType": "uint256",
          "name": "refinerId",
          "type": "uint256"
        }
      ],
      "name": "requestPaymentInToken",
      "outputs": [],
      "stateMutability": "nonpayable",
      "type": "function"
    },
    {
      "inputs": [
        {
          "internalType": "uint256",
          "name": "amount",
          "type": "uint256"
        },
        {
          "internalType": "uint256",
          "name": "jobId",
          "type": "uint256"
        },
        {
          "internalType": "uint256",
          "name": "refinerId",
          "type": "uint256"
        }
      ],
      "name": "requestPaymentInVana",
      "outputs": [],
      "stateMutability": "nonpayable",
      "type": "function"
    },
    {
      "inputs": [
        {
          "internalType": "bytes32",
          "name": "role",
          "type": "bytes32"
        },
        {
          "internalType": "address",
          "name": "account",
          "type": "address"
        }
      ],
      "name": "revokeRole",
      "outputs": [],
      "stateMutability": "nonpayable",
      "type": "function"
    },
    {
      "inputs": [
        {
          "internalType": "bytes4",
          "name": "interfaceId",
          "type": "bytes4"
        }
      ],
      "name": "supportsInterface",
      "outputs": [
        {
          "internalType": "bool",
          "name": "",
          "type": "bool"
        }
      ],
      "stateMutability": "view",
      "type": "function"
    },
    {
      "inputs": [],
      "name": "unpause",
      "outputs": [],
      "stateMutability": "nonpayable",
      "type": "function"
    },
    {
      "inputs": [
        {
          "internalType": "address",
          "name": "newComputeEngineAddress",
          "type": "address"
        }
      ],
      "name": "updateComputeEngine",
      "outputs": [],
      "stateMutability": "nonpayable",
      "type": "function"
    },
    {
      "inputs": [
        {
          "internalType": "uint256",
          "name": "newDlpPaymentPercentage",
          "type": "uint256"
        }
      ],
      "name": "updateDlpPaymentPercentage",
      "outputs": [],
      "stateMutability": "nonpayable",
      "type": "function"
    },
    {
      "inputs": [
        {
          "internalType": "uint256",
          "name": "dlpId",
          "type": "uint256"
        },
        {
          "internalType": "string",
          "name": "pubKey",
          "type": "string"
        }
      ],
      "name": "updateDlpPubKey",
      "outputs": [],
      "stateMutability": "nonpayable",
      "type": "function"
    },
    {
      "inputs": [
        {
          "internalType": "uint256",
          "name": "permissionId",
          "type": "uint256"
        },
        {
          "internalType": "bool",
          "name": "approved",
          "type": "bool"
        }
      ],
      "name": "updatePermissionApproval",
      "outputs": [],
      "stateMutability": "nonpayable",
      "type": "function"
    },
    {
      "inputs": [
        {
          "internalType": "contract IDataAccessTreasury",
          "name": "newQueryEngineTreasury",
          "type": "address"
        }
      ],
      "name": "updateQueryEngineTreasury",
      "outputs": [],
      "stateMutability": "nonpayable",
      "type": "function"
    },
    {
      "inputs": [
        {
          "internalType": "address",
          "name": "newRefinerRegistryAddress",
          "type": "address"
        }
      ],
      "name": "updateRefinerRegistry",
      "outputs": [],
      "stateMutability": "nonpayable",
      "type": "function"
    },
    {
      "inputs": [
        {
          "internalType": "address",
          "name": "newVanaTreasury",
          "type": "address"
        }
      ],
      "name": "updateVanaTreasury",
      "outputs": [],
      "stateMutability": "nonpayable",
      "type": "function"
    },
    {
      "inputs": [
        {
          "internalType": "address",
          "name": "newImplementation",
          "type": "address"
        },
        {
          "internalType": "bytes",
          "name": "data",
          "type": "bytes"
        }
      ],
      "name": "upgradeToAndCall",
      "outputs": [],
      "stateMutability": "payable",
      "type": "function"
    },
    {
      "inputs": [],
      "name": "vanaTreasury",
      "outputs": [
        {
          "internalType": "address",
          "name": "",
          "type": "address"
        }
      ],
      "stateMutability": "view",
      "type": "function"
    },
    {
      "inputs": [],
      "name": "version",
      "outputs": [
        {
          "internalType": "uint256",
          "name": "",
          "type": "uint256"
        }
      ],
      "stateMutability": "pure",
      "type": "function"
    },
    {
      "stateMutability": "payable",
      "type": "receive"
    }
  ],
  "transactionHash": "0xda85a8e05665c512f7d5f23ab7fadae0f0b2dbfa1b62b70b3d956db041931cfb",
  "args": [],
  "numDeployments": 4,
  "solcInputHash": "d7e6582b03e2d9bc73307ab48fa5f5bf",
  "bytecode": "0x60a0604052306080523480156200001557600080fd5b506200002062000026565b620000da565b7ff0c57e16840df040f15088dc2f81fe391c3923bec73e23a9662efc9c229c6a00805468010000000000000000900460ff1615620000775760405163f92ee8a960e01b815260040160405180910390fd5b80546001600160401b0390811614620000d75780546001600160401b0319166001600160401b0390811782556040519081527fc7f505b2f371ae2175ee4913f4499e1f2633a7b5936321eed1cdaeb6115181d29060200160405180910390a15b50565b60805161392162000104600039600081816122e10152818161230a015261245001526139216000f3fe6080604052600436106101e55760003560e01c806301ffc9a7146101f157806307268de2146102265780631b2d0e1a14610248578063248a9ca3146102765780632f2ff15d1461029657806336568abe146102b65780633656eec2146102d657806337b07aec146103195780633f4ba83a14610339578063443eea4c1461034e57806344fd3939146103645780634913162d146103865780634f1ef286146103b35780634f7dbbc9146103c657806352d1902d146103e857806354fd4d50146103fd578063558128801461041157806358886dba146104315780635a706bbf1461045e5780635c975abb1461047e5780637097b1231461049357806374389ae0146104b357806377cdb07a146104c95780637da6dabf146104e957806381f858b5146105095780638456cb59146105295780638fe455021461053e57806391d148541461056b5780639430ca511461058b578063a217fddf146105ab578063a67815e1146105c0578063ad3cb1cc146105e0578063c0c53b8b14610611578063ccba025b14610631578063d20bec0714610651578063d547741f14610671578063da54153014610691578063dc87c5a0146106b1578063dd0081c7146106d1578063ecd346fe146106ee578063f07a8a261461070e578063f87422541461072e57600080fd5b366101ec57005b600080fd5b3480156101fd57600080fd5b5061021161020c366004612bd4565b610750565b60405190151581526020015b60405180910390f35b34801561023257600080fd5b50610246610241366004612bfe565b610787565b005b34801561025457600080fd5b50610268610263366004612c87565b6107e4565b60405190815260200161021d565b34801561028257600080fd5b50610268610291366004612d1d565b610803565b3480156102a257600080fd5b506102466102b1366004612d36565b610823565b3480156102c257600080fd5b506102466102d1366004612d36565b610845565b3480156102e257600080fd5b506102686102f1366004612d36565b60009182526006602090815260408084206001600160a01b0393909316845291905290205490565b34801561032557600080fd5b50610246610334366004612d1d565b610878565b34801561034557600080fd5b506102466108c0565b34801561035a57600080fd5b5061026860005481565b34801561037057600080fd5b50610379600081565b60405161021d9190612d66565b34801561039257600080fd5b506103a66103a1366004612d36565b6108e3565b60405161021d9190612dca565b6102466103c1366004612fc2565b610e43565b3480156103d257600080fd5b506102686000805160206138b583398151915281565b3480156103f457600080fd5b50610268610e62565b34801561040957600080fd5b506001610268565b34801561041d57600080fd5b50600254610379906001600160a01b031681565b34801561043d57600080fd5b5061045161044c366004612d1d565b610e7f565b60405161021d9190613011565b34801561046a57600080fd5b506102466104793660046130a6565b61104e565b34801561048a57600080fd5b506102116111f3565b34801561049f57600080fd5b50600454610379906001600160a01b031681565b3480156104bf57600080fd5b5061026860055481565b3480156104d557600080fd5b506102466104e43660046130cb565b611208565b3480156104f557600080fd5b50610268610504366004613106565b61125f565b34801561051557600080fd5b506102466105243660046131ae565b61127e565b34801561053557600080fd5b506102466112b2565b34801561054a57600080fd5b5061055e610559366004612d1d565b6112d2565b60405161021d9190613206565b34801561057757600080fd5b50610211610586366004612d36565b61136c565b34801561059757600080fd5b50600354610379906001600160a01b031681565b3480156105b757600080fd5b50610268600081565b3480156105cc57600080fd5b506102466105db366004613219565b6113a2565b3480156105ec57600080fd5b5061055e604051806040016040528060058152602001640352e302e360dc1b81525081565b34801561061d57600080fd5b5061024661062c366004613236565b6113dd565b34801561063d57600080fd5b50600154610379906001600160a01b031681565b34801561065d57600080fd5b5061024661066c366004613219565b6116a4565b34801561067d57600080fd5b5061024661068c366004612d36565b611706565b34801561069d57600080fd5b506102466106ac366004613219565b611722565b3480156106bd57600080fd5b506102466106cc366004612d36565b61175d565b3480156106dd57600080fd5b5061026868056bc75e2d6310000081565b3480156106fa57600080fd5b50610246610709366004613219565b611986565b34801561071a57600080fd5b50610246610729366004613281565b6119e8565b34801561073a57600080fd5b506102686000805160206138f583398151915281565b60006001600160e01b03198216637965db0b60e01b148061078157506301ffc9a760e01b6001600160e01b03198316145b92915050565b61078f611b2f565b6000805160206138b58339815191526107a781611b65565b604080516020810185905280820184905281518082038301815260609091019091526107d560008683611b6f565b50506107df611f21565b505050565b60006107f7600089898989898989611f32565b98975050505050505050565b60008061080e612125565b60009384526020525050604090206001015490565b61082c82610803565b61083581611b65565b61083f8383612149565b50505050565b6001600160a01b038116331461086e5760405163334bd91960e11b815260040160405180910390fd5b6107df82826121ea565b6000805160206138f583398151915261089081611b65565b68056bc75e2d631000008211156108ba57604051636863da2160e11b815260040160405180910390fd5b50600555565b6000805160206138f58339815191526108d881611b65565b6108e0612262565b50565b60008281526008602090815260408083206001600160a01b0385168452909152808220828052908220606092610918826122b9565b905060006001600160a01b03861661093157600061093a565b61093a846122b9565b9050600061094882846132e2565b90506000816001600160401b0381111561096457610964612eb4565b6040519080825280602002602001820160405280156109f157816020015b6109de6040518061010001604052806000815260200160006001600160a01b031681526020016000151581526020016000815260200160608152602001606081526020016000815260200160006001600160a01b031681525090565b8152602001906001900390816109825790505b5090506000805b85811015610bd4576000610a0c88836122c3565b60008181526007602090815260409182902082516101008101845284815281546001600160a01b03811693820193909352600160a01b90920460ff1615159282019290925260018201546060820152600282018054939450919290916080830191610a76906132f5565b80601f0160208091040260200160405190810160405280929190818152602001828054610aa2906132f5565b8015610aef5780601f10610ac457610100808354040283529160200191610aef565b820191906000526020600020905b815481529060010190602001808311610ad257829003601f168201915b50505050508152602001826003018054610b08906132f5565b80601f0160208091040260200160405190810160405280929190818152602001828054610b34906132f5565b8015610b815780601f10610b5657610100808354040283529160200191610b81565b820191906000526020600020905b815481529060010190602001808311610b6457829003601f168201915b50505091835250506004830154602082015260058301546001600160a01b03166040909101528551869086908110610bbb57610bbb61332f565b60209081029190910101525050600191820191016109f8565b5060005b84811015610e34576000610bec89836122c3565b6000818152600760209081526040808320815160e08101835281546001600160a01b0381168252600160a01b900460ff16151593810193909352600181015491830191909152600281018054949550929391929091606084019190610c50906132f5565b80601f0160208091040260200160405190810160405280929190818152602001828054610c7c906132f5565b8015610cc95780601f10610c9e57610100808354040283529160200191610cc9565b820191906000526020600020905b815481529060010190602001808311610cac57829003601f168201915b50505050508152602001600382018054610ce2906132f5565b80601f0160208091040260200160405190810160405280929190818152602001828054610d0e906132f5565b8015610d5b5780601f10610d3057610100808354040283529160200191610d5b565b820191906000526020600020905b815481529060010190602001808311610d3e57829003601f168201915b50505050508152602001600482015481526020016005820160009054906101000a90046001600160a01b03166001600160a01b03166001600160a01b031681525050905060405180610100016040528083815260200182600001516001600160a01b031681526020018260200151151581526020018260400151815260200182606001518152602001826080015181526020018260a0015181526020018260c001516001600160a01b0316815250858581518110610e1b57610e1b61332f565b6020908102919091010152505060019182019101610bd8565b50909998505050505050505050565b610e4b6122d6565b610e548261237d565b610e5e8282612388565b5050565b6000610e6c612445565b506000805160206138d583398151915290565b6040805160e0810182526000808252602082018190529181018290526060808201819052608082015260a0810182905260c0810191909152600082815260076020908152604091829020825160e08101845281546001600160a01b0381168252600160a01b900460ff16151592810192909252600181015492820192909252600282018054919291606084019190610f16906132f5565b80601f0160208091040260200160405190810160405280929190818152602001828054610f42906132f5565b8015610f8f5780601f10610f6457610100808354040283529160200191610f8f565b820191906000526020600020905b815481529060010190602001808311610f7257829003601f168201915b50505050508152602001600382018054610fa8906132f5565b80601f0160208091040260200160405190810160405280929190818152602001828054610fd4906132f5565b80156110215780601f10610ff657610100808354040283529160200191611021565b820191906000526020600020905b81548152906001019060200180831161100457829003601f168201915b5050509183525050600482015460208201526005909101546001600160a01b031660409091015292915050565b81158061105c575060005482115b1561107a5760405163d8455a1360e01b815260040160405180910390fd5b6000828152600760205260409081902060018082015490549251629b996b60e81b8152600481018290529192909133916001600160a01b031690639b996b0090602401600060405180830381865afa1580156110da573d6000803e3d6000fd5b505050506040513d6000823e601f3d908101601f1916820160405261110291908101906133a2565b602001516001600160a01b03161461112d57604051635928b05160e01b815260040160405180910390fd5b8154831515600160a01b90910460ff1615150361114a5750505050565b815483158015600160a01b0260ff60a01b1983168117855560008481526008602090815260408083206001600160a01b039485169490961693909317825293909352909120906111a45761119e818661248e565b506111b0565b6111ae818661249a565b505b847f5915e09309d8c49870559891647e368d0ab0e6d94a0ce7f3c9f39470ccbe03d2856040516111e4911515815260200190565b60405180910390a25050505050565b6000806111fe6124a6565b5460ff1692915050565b611210611b2f565b6000805160206138b583398151915261122881611b65565b60408051602081018590528082018490528151808203830181526060909101909152611255868683611b6f565b505061083f611f21565b60006112718989898989898989611f32565b9998505050505050505050565b611286611b2f565b6000805160206138b583398151915261129e81611b65565b6112a9848484611b6f565b506107df611f21565b6000805160206138f58339815191526112ca81611b65565b6108e06124ca565b600960205260009081526040902080546112eb906132f5565b80601f0160208091040260200160405190810160405280929190818152602001828054611317906132f5565b80156113645780601f1061133957610100808354040283529160200191611364565b820191906000526020600020905b81548152906001019060200180831161134757829003601f168201915b505050505081565b600080611377612125565b6000948552602090815260408086206001600160a01b03959095168652939052505090205460ff1690565b6000805160206138f58339815191526113ba81611b65565b50600180546001600160a01b0319166001600160a01b0392909216919091179055565b60006113e7612511565b805490915060ff600160401b82041615906001600160401b031660008115801561140e5750825b90506000826001600160401b0316600114801561142a5750303b155b905081158015611438575080155b156114565760405163f92ee8a960e01b815260040160405180910390fd5b84546001600160401b0319166001178555831561147f57845460ff60401b1916600160401b1785555b611487612535565b61148f61253d565b611497612535565b61149f61254d565b86600160006101000a8154816001600160a01b0302191690836001600160a01b031602179055506000866001600160a01b0316635c60da1b6040518163ffffffff1660e01b8152600401602060405180830381865afa158015611506573d6000803e3d6000fd5b505050506040513d601f19601f8201168201806040525081019061152a9190613471565b604080516001600160a01b038c811660248301523060448084019190915283518084039091018152606490920183526020820180516001600160e01b031663485cc95560e01b179052915163342dd2b560e21b8152929350600092918a169163d0b74ad49161159b91600401613206565b6020604051808303816000875af11580156115ba573d6000803e3d6000fd5b505050506040513d601f19601f820116820180604052508101906115de9190613471565b600480546001600160a01b0319166001600160a01b03831617905590506116146000805160206138f5833981519152600061255d565b61162d6000805160206138b5833981519152600061255d565b61163860008b612149565b506116516000805160206138f58339815191528b612149565b505050831561169a57845460ff60401b19168555604051600181527fc7f505b2f371ae2175ee4913f4499e1f2633a7b5936321eed1cdaeb6115181d29060200160405180910390a15b5050505050505050565b6000805160206138f58339815191526116bc81611b65565b6001600160a01b0382166116e35760405163d92e233d60e01b815260040160405180910390fd5b50600480546001600160a01b0319166001600160a01b0392909216919091179055565b61170f82610803565b61171881611b65565b61083f83836121ea565b6000805160206138f583398151915261173a81611b65565b50600280546001600160a01b0319166001600160a01b0392909216919091179055565b611765611b2f565b61176d6125bd565b60015460408051630fd72fd160e31b815290516000926001600160a01b031691637eb97e889160048083019260209291908290030181865afa1580156117b7573d6000803e3d6000fd5b505050506040513d601f19601f820116820180604052508101906117db9190613471565b6001600160a01b031663ea83e47b846040518263ffffffff1660e01b815260040161180891815260200190565b600060405180830381865afa158015611825573d6000803e3d6000fd5b505050506040513d6000823e601f3d908101601f1916820160405261184d919081019061349d565b60408101519091506001600160a01b0316331461187d57604051633387d70760e01b815260040160405180910390fd5b60808101516001600160a01b0381166118a9576040516348ef0b9160e01b815260040160405180910390fd5b60008481526006602090815260408083206001600160a01b038781168086529184528285208054959055915184815290929185169188917f27acf0dfa49783328b0f6b3cf96a7301f7a1eac9ab08791912c0d55616327e85910160405180910390a4600480546040516317d5759960e31b81526001600160a01b038581169382019390935286831660248201526044810184905291169063beabacc890606401600060405180830381600087803b15801561196357600080fd5b505af1158015611977573d6000803e3d6000fd5b50505050505050610e5e611f21565b6000805160206138f583398151915261199e81611b65565b6001600160a01b0382166119c55760405163d92e233d60e01b815260040160405180910390fd5b50600380546001600160a01b0319166001600160a01b0392909216919091179055565b6000805160206138f5833981519152611a0081611b65565b60015460408051630fd72fd160e31b815290516000926001600160a01b031691637eb97e889160048083019260209291908290030181865afa158015611a4a573d6000803e3d6000fd5b505050506040513d601f19601f82011682018060405250810190611a6e9190613471565b6001600160a01b031663ea83e47b866040518263ffffffff1660e01b8152600401611a9b91815260200190565b600060405180830381865afa158015611ab8573d6000803e3d6000fd5b505050506040513d6000823e601f3d908101601f19168201604052611ae0919081019061349d565b60208101519091506001600160a01b0316611b0e57604051632a93ef0560e21b815260040160405180910390fd5b6000858152600960205260409020611b27848683613654565b505050505050565b6000611b396125e3565b805490915060011901611b5f57604051633ee5aeb560e01b815260040160405180910390fd5b60029055565b6108e08133612607565b60008082806020019051810190611b869190613714565b600154604051629b996b60e81b8152600481018390529294509092506000916001600160a01b0390911690639b996b0090602401600060405180830381865afa158015611bd7573d6000803e3d6000fd5b505050506040513d6000823e601f3d908101601f19168201604052611bff91908101906133a2565b5190506000819003611c2457604051633b3dc9c760e21b815260040160405180910390fd5b6001600160a01b03861615600081611ca8576040516370a0823160e01b81526001600160a01b038916906370a0823190611c62903090600401612d66565b602060405180830381865afa158015611c7f573d6000803e3d6000fd5b505050506040513d601f19601f82011682018060405250810190611ca39190613738565b611caa565b475b60025460408051602081018990528082018790528151808203830181526060820192839052631d21294b60e01b9092529293506001600160a01b0390911691631d21294b91611cff918c918c91606401613751565b600060405180830381600087803b158015611d1957600080fd5b505af1158015611d2d573d6000803e3d6000fd5b50505050600082611daa576040516370a0823160e01b81526001600160a01b038a16906370a0823190611d64903090600401612d66565b602060405180830381865afa158015611d81573d6000803e3d6000fd5b505050506040513d601f19601f82011682018060405250810190611da59190613738565b611dac565b475b90506000611dba8383613778565b905088811015611ddd576040516389b0d69960e01b815260040160405180910390fd5b60408051828152602081018990529081018790526001600160a01b038b16907f750e6bbedd4312ada35caa75e07fc0b85f1a6fc9c675e6962aef8469187110979060600160405180910390a2600068056bc75e2d631000006005548b611e43919061378b565b611e4d91906137a2565b90506000611e5b8284613778565b90508515611e9457600454611e79906001600160a01b031683612632565b600354611e8f906001600160a01b031682612632565b611ec8565b600454611eae906001600160a01b038e81169116846126c9565b600354611ec8906001600160a01b038e81169116836126c9565b816006600089815260200190815260200160002060008e6001600160a01b03166001600160a01b031681526020019081526020016000206000828254611f0e91906132e2565b9091555050505050505050505050505050565b6000611f2b6125e3565b6001905550565b600154604051629b996b60e81b815260048101899052600091899133916001600160a01b031690639b996b0090602401600060405180830381865afa158015611f7f573d6000803e3d6000fd5b505050506040513d6000823e601f3d908101601f19168201604052611fa791908101906133a2565b602001516001600160a01b031614611fd257604051635928b05160e01b815260040160405180910390fd5b611fda6125bd565b86158015611fe757508415155b156120055760405163152b922f60e21b815260040160405180910390fd5b6000808154612013906137c4565b9182905550600081815260076020526040902080546001600160a01b0319166001600160a01b038d16178155600181018b905590925060028101612058898b83613654565b5060038101612068878983613654565b50805460ff60a01b1916600160a01b1781556005810180546001600160a01b038088166001600160a01b0319909216919091179091556004820185905560008b8152600860209081526040808320938f168352929052206120c9908461248e565b50898b6001600160a01b0316847fd1f92903a241da12e7ad59502ea174e18036a4a8ae63a8779660577dc47c9e678c8c8c8c8c8c60405161210f96959493929190613806565b60405180910390a4505098975050505050505050565b7f02dd7bc7dec4dceedda775e58dd541e08a116c6c53815c0bd028192f7b62680090565b600080612154612125565b9050612160848461136c565b6121e0576000848152602082815260408083206001600160a01b03871684529091529020805460ff191660011790556121963390565b6001600160a01b0316836001600160a01b0316857f2f8788117e7eff1d82e926ec794901d17c78024a50270940304540a733656f0d60405160405180910390a46001915050610781565b6000915050610781565b6000806121f5612125565b9050612201848461136c565b156121e0576000848152602082815260408083206001600160a01b0387168085529252808320805460ff1916905551339287917ff6391f5c32d9c69d2a47ea670b442974b53935d1edc7fd64eb21e047a839171b9190a46001915050610781565b61226a612721565b60006122746124a6565b805460ff1916815590507f5db9ee0a495bf2e6ff9c91a7834c1ba4fdd244a5e8aa4e537bd38aeae4b073aa335b6040516122ae9190612d66565b60405180910390a150565b6000610781825490565b60006122cf8383612746565b9392505050565b306001600160a01b037f000000000000000000000000000000000000000000000000000000000000000016148061235d57507f00000000000000000000000000000000000000000000000000000000000000006001600160a01b03166123516000805160206138d5833981519152546001600160a01b031690565b6001600160a01b031614155b1561237b5760405163703e46dd60e11b815260040160405180910390fd5b565b6000610e5e81611b65565b816001600160a01b03166352d1902d6040518163ffffffff1660e01b8152600401602060405180830381865afa9250505080156123e2575060408051601f3d908101601f191682019092526123df91810190613738565b60015b61240a5781604051634c9c8ce360e01b81526004016124019190612d66565b60405180910390fd5b6000805160206138d5833981519152811461243b57604051632a87526960e21b815260048101829052602401612401565b6107df8383612770565b306001600160a01b037f0000000000000000000000000000000000000000000000000000000000000000161461237b5760405163703e46dd60e11b815260040160405180910390fd5b60006122cf83836127c6565b60006122cf8383612815565b7fcd5ed15c6e187e77e9aee88184c21f4f2182ab5827cb3b7e07fbedcd63f0330090565b6124d26125bd565b60006124dc6124a6565b805460ff1916600117815590507f62e78cea01bee320cd4e420270b5ea74000d11b0c9f74754ebdbfc544b05a2586122a13390565b7ff0c57e16840df040f15088dc2f81fe391c3923bec73e23a9662efc9c229c6a0090565b61237b6128fe565b6125456128fe565b61237b612923565b6125556128fe565b61237b612940565b6000612567612125565b9050600061257484610803565b600085815260208490526040808220600101869055519192508491839187917fbd79b86ffe0ab8e8776151514217cd7cacd52c909f66475c3af44e129f0b00ff9190a450505050565b6125c56111f3565b1561237b5760405163d93c066560e01b815260040160405180910390fd5b7f9b779b17422d0df92223018b32b4d1fa46e071723d6817e2486d003becc55f0090565b612611828261136c565b610e5e57808260405163e2517d3f60e01b815260040161240192919061384c565b80471015612655573060405163cd78605960e01b81526004016124019190612d66565b6000826001600160a01b03168260405160006040518083038185875af1925050503d80600081146126a2576040519150601f19603f3d011682016040523d82523d6000602084013e6126a7565b606091505b50509050806107df57604051630a12f52160e11b815260040160405180910390fd5b6107df83846001600160a01b031663a9059cbb85856040516024016126ef92919061384c565b604051602081830303815290604052915060e01b6020820180516001600160e01b038381831617835250505050612948565b6127296111f3565b61237b57604051638dfc202b60e01b815260040160405180910390fd5b600082600001828154811061275d5761275d61332f565b9060005260206000200154905092915050565b612779826129a2565b6040516001600160a01b038316907fbc7cd75a20ee27fd9adebab32041f755214dbc6bffa90cc0225b39da2e5c2d3b90600090a28051156127be576107df82826129fe565b610e5e612a74565b600081815260018301602052604081205461280d57508154600181810184556000848152602080822090930184905584548482528286019093526040902091909155610781565b506000610781565b600081815260018301602052604081205480156121e0576000612839600183613778565b855490915060009061284d90600190613778565b90508082146128b257600086600001828154811061286d5761286d61332f565b90600052602060002001549050808760000184815481106128905761289061332f565b6000918252602080832090910192909255918252600188019052604090208390555b85548690806128c3576128c3613865565b600190038181906000526020600020016000905590558560010160008681526020019081526020016000206000905560019350505050610781565b612906612a93565b61237b57604051631afcd79f60e31b815260040160405180910390fd5b61292b6128fe565b60006129356124a6565b805460ff1916905550565b611f216128fe565b600061295d6001600160a01b03841683612aad565b90508051600014158015612982575080806020019051810190612980919061387b565b155b156107df5782604051635274afe760e01b81526004016124019190612d66565b806001600160a01b03163b6000036129cf5780604051634c9c8ce360e01b81526004016124019190612d66565b6000805160206138d583398151915280546001600160a01b0319166001600160a01b0392909216919091179055565b6060600080846001600160a01b031684604051612a1b9190613898565b600060405180830381855af49150503d8060008114612a56576040519150601f19603f3d011682016040523d82523d6000602084013e612a5b565b606091505b5091509150612a6b858383612abb565b95945050505050565b341561237b5760405163b398979f60e01b815260040160405180910390fd5b6000612a9d612511565b54600160401b900460ff16919050565b60606122cf83836000612b0e565b606082612ad057612acb82612bab565b6122cf565b8151158015612ae757506001600160a01b0384163b155b15612b075783604051639996b31560e01b81526004016124019190612d66565b5092915050565b606081471015612b33573060405163cd78605960e01b81526004016124019190612d66565b600080856001600160a01b03168486604051612b4f9190613898565b60006040518083038185875af1925050503d8060008114612b8c576040519150601f19603f3d011682016040523d82523d6000602084013e612b91565b606091505b5091509150612ba1868383612abb565b9695505050505050565b805115612bbb5780518082602001fd5b604051630a12f52160e11b815260040160405180910390fd5b600060208284031215612be657600080fd5b81356001600160e01b0319811681146122cf57600080fd5b600080600060608486031215612c1357600080fd5b505081359360208301359350604090920135919050565b60008083601f840112612c3c57600080fd5b5081356001600160401b03811115612c5357600080fd5b602083019150836020828501011115612c6b57600080fd5b9250929050565b6001600160a01b03811681146108e057600080fd5b600080600080600080600060a0888a031215612ca257600080fd5b8735965060208801356001600160401b0380821115612cc057600080fd5b612ccc8b838c01612c2a565b909850965060408a0135915080821115612ce557600080fd5b50612cf28a828b01612c2a565b9095509350506060880135612d0681612c72565b809250506080880135905092959891949750929550565b600060208284031215612d2f57600080fd5b5035919050565b60008060408385031215612d4957600080fd5b823591506020830135612d5b81612c72565b809150509250929050565b6001600160a01b0391909116815260200190565b60005b83811015612d95578181015183820152602001612d7d565b50506000910152565b60008151808452612db6816020860160208601612d7a565b601f01601f19169290920160200192915050565b600060208083018184528085518083526040925060408601915060408160051b87010184880160005b83811015612ea657888303603f19018552815180518452878101516001600160a01b03168885015286810151151587850152606080820151908501526080808201516101008287018190529190612e4c83880182612d9e565b9250505060a08083015186830382880152612e678382612d9e565b9250505060c080830151818701525060e0808301519250612e92818701846001600160a01b03169052565b509588019593505090860190600101612df3565b509098975050505050505050565b634e487b7160e01b600052604160045260246000fd5b60405160a081016001600160401b0381118282101715612eec57612eec612eb4565b60405290565b6040516101c081016001600160401b0381118282101715612eec57612eec612eb4565b604051601f8201601f191681016001600160401b0381118282101715612f3d57612f3d612eb4565b604052919050565b60006001600160401b03821115612f5e57612f5e612eb4565b50601f01601f191660200190565b600082601f830112612f7d57600080fd5b8135612f90612f8b82612f45565b612f15565b818152846020838601011115612fa557600080fd5b816020850160208301376000918101602001919091529392505050565b60008060408385031215612fd557600080fd5b8235612fe081612c72565b915060208301356001600160401b03811115612ffb57600080fd5b61300785828601612f6c565b9150509250929050565b60208152600060018060a01b0380845116602084015260208401511515604084015260408401516060840152606084015160e06080850152613057610100850182612d9e565b90506080850151601f198583030160a08601526130748282612d9e565b91505060a085015160c08501528160c08601511660e0850152809250505092915050565b80151581146108e057600080fd5b600080604083850312156130b957600080fd5b823591506020830135612d5b81613098565b600080600080608085870312156130e157600080fd5b84356130ec81612c72565b966020860135965060408601359560600135945092505050565b60008060008060008060008060c0898b03121561312257600080fd5b883561312d81612c72565b97506020890135965060408901356001600160401b038082111561315057600080fd5b61315c8c838d01612c2a565b909850965060608b013591508082111561317557600080fd5b506131828b828c01612c2a565b909550935050608089013561319681612c72565b8092505060a089013590509295985092959890939650565b6000806000606084860312156131c357600080fd5b83356131ce81612c72565b92506020840135915060408401356001600160401b038111156131f057600080fd5b6131fc86828701612f6c565b9150509250925092565b6020815260006122cf6020830184612d9e565b60006020828403121561322b57600080fd5b81356122cf81612c72565b60008060006060848603121561324b57600080fd5b833561325681612c72565b9250602084013561326681612c72565b9150604084013561327681612c72565b809150509250925092565b60008060006040848603121561329657600080fd5b8335925060208401356001600160401b038111156132b357600080fd5b6132bf86828701612c2a565b9497909650939450505050565b634e487b7160e01b600052601160045260246000fd5b80820180821115610781576107816132cc565b600181811c9082168061330957607f821691505b60208210810361332957634e487b7160e01b600052602260045260246000fd5b50919050565b634e487b7160e01b600052603260045260246000fd5b805161335081612c72565b919050565b600082601f83011261336657600080fd5b8151613374612f8b82612f45565b81815284602083860101111561338957600080fd5b61339a826020830160208701612d7a565b949350505050565b6000602082840312156133b457600080fd5b81516001600160401b03808211156133cb57600080fd5b9083019060a082860312156133df57600080fd5b6133e7612eca565b825181526133f760208401613345565b602082015260408301518281111561340e57600080fd5b61341a87828601613355565b60408301525060608301518281111561343257600080fd5b61343e87828601613355565b60608301525060808301518281111561345657600080fd5b61346287828601613355565b60808301525095945050505050565b60006020828403121561348357600080fd5b81516122cf81612c72565b80516004811061335057600080fd5b6000602082840312156134af57600080fd5b81516001600160401b03808211156134c657600080fd5b908301906101c082860312156134db57600080fd5b6134e3612ef2565b825181526134f360208401613345565b602082015261350460408401613345565b604082015261351560608401613345565b606082015261352660808401613345565b608082015260a08301518281111561353d57600080fd5b61354987828601613355565b60a08301525060c08301518281111561356157600080fd5b61356d87828601613355565b60c08301525060e08301518281111561358557600080fd5b61359187828601613355565b60e08301525061010080840151838111156135ab57600080fd5b6135b788828701613355565b91830191909152506101208381015190820152610140808401519082015261016091506135e582840161348e565b9181019190915261018082810151908201526101a091820151918101919091529392505050565b601f8211156107df576000816000526020600020601f850160051c810160208610156136355750805b601f850160051c820191505b81811015611b2757828155600101613641565b6001600160401b0383111561366b5761366b612eb4565b61367f8361367983546132f5565b8361360c565b6000601f8411600181146136b3576000851561369b5750838201355b600019600387901b1c1916600186901b17835561370d565b600083815260209020601f19861690835b828110156136e457868501358255602094850194600190920191016136c4565b50868210156137015760001960f88860031b161c19848701351681555b505060018560011b0183555b5050505050565b6000806040838503121561372757600080fd5b505080516020909101519092909150565b60006020828403121561374a57600080fd5b5051919050565b60018060a01b0384168152826020820152606060408201526000612a6b6060830184612d9e565b81810381811115610781576107816132cc565b8082028115828204841417610781576107816132cc565b6000826137bf57634e487b7160e01b600052601260045260246000fd5b500490565b6000600182016137d6576137d66132cc565b5060010190565b81835281816020850137506000828201602090810191909152601f909101601f19169091010190565b60808152600061381a60808301888a6137dd565b828103602084015261382d8187896137dd565b6001600160a01b03959095166040840152505060600152949350505050565b6001600160a01b03929092168252602082015260400190565b634e487b7160e01b600052603160045260246000fd5b60006020828403121561388d57600080fd5b81516122cf81613098565b600082516138aa818460208701612d7a565b919091019291505056feb9e5f95c6dada363e2630ce6d56786e03062e6f55811f34277ead98d3cb08b44360894a13ba1a3210667c828492db98dca3e2076cc3735a920a3ca505d382bbc339759585899103d2ace64958e37e18ccb0504652c81d4a1b8aa80fe2126ab95a164736f6c6343000818000a",
  "devdoc": {
    "errors": {
      "AccessControlBadConfirmation()": [
        {
          "details": "The caller of a function is not the expected one. NOTE: Don't confuse with {AccessControlUnauthorizedAccount}."
        }
      ],
      "AccessControlUnauthorizedAccount(address,bytes32)": [
        {
          "details": "The `account` is missing a role."
        }
      ],
      "AddressEmptyCode(address)": [
        {
          "details": "There's no code at `target` (it is not a contract)."
        }
      ],
      "AddressInsufficientBalance(address)": [
        {
          "details": "The ETH balance of the account is not enough to perform the operation."
        }
      ],
      "ERC1967InvalidImplementation(address)": [
        {
          "details": "The `implementation` of the proxy is invalid."
        }
      ],
      "ERC1967NonPayable()": [
        {
          "details": "An upgrade function sees `msg.value > 0` that may be lost."
        }
      ],
      "EnforcedPause()": [
        {
          "details": "The operation failed because the contract is paused."
        }
      ],
      "ExpectedPause()": [
        {
          "details": "The operation failed because the contract is not paused."
        }
      ],
      "FailedInnerCall()": [
        {
          "details": "A call to an address target failed. The target may have reverted."
        }
      ],
      "InvalidInitialization()": [
        {
          "details": "The contract is already initialized."
        }
      ],
      "NotInitializing()": [
        {
          "details": "The contract is not initializing."
        }
      ],
      "ReentrancyGuardReentrantCall()": [
        {
          "details": "Unauthorized reentrant call."
        }
      ],
      "SafeERC20FailedOperation(address)": [
        {
          "details": "An operation with an ERC20 token failed."
        }
      ],
      "UUPSUnauthorizedCallContext()": [
        {
          "details": "The call is from an unauthorized context."
        }
      ],
      "UUPSUnsupportedProxiableUUID(bytes32)": [
        {
          "details": "The storage `slot` is unsupported as a UUID."
        }
      ]
    },
    "events": {
      "Initialized(uint64)": {
        "details": "Triggered when the contract has been initialized or reinitialized."
      },
      "Paused(address)": {
        "details": "Emitted when the pause is triggered by `account`."
      },
      "RoleAdminChanged(bytes32,bytes32,bytes32)": {
        "details": "Emitted when `newAdminRole` is set as ``role``'s admin role, replacing `previousAdminRole` `DEFAULT_ADMIN_ROLE` is the starting admin for all roles, despite {RoleAdminChanged} not being emitted signaling this."
      },
      "RoleGranted(bytes32,address,address)": {
        "details": "Emitted when `account` is granted `role`. `sender` is the account that originated the contract call, an admin role bearer except when using {AccessControl-_setupRole}."
      },
      "RoleRevoked(bytes32,address,address)": {
        "details": "Emitted when `account` is revoked `role`. `sender` is the account that originated the contract call:   - if using `revokeRole`, it is the admin role bearer   - if using `renounceRole`, it is the role bearer (i.e. `account`)"
      },
      "Unpaused(address)": {
        "details": "Emitted when the pause is lifted by `account`."
      },
      "Upgraded(address)": {
        "details": "Emitted when the implementation is upgraded."
      }
    },
    "kind": "dev",
    "methods": {
      "addGenericPermission(uint256,string,string,address,uint256)": {
        "params": {
          "columnName": "The name of the column",
          "price": "The price of data access under the permission",
          "refinerId": "The id of the refiner",
          "tableName": "The name of the table",
          "tokenAddress": "The address of the token used for payment"
        },
        "returns": {
          "permissionId": "The id of the permission"
        }
      },
      "addPermission(address,uint256,string,string,address,uint256)": {
        "params": {
          "columnName": "The name of the column",
          "grantee": "The address of the grantee",
          "price": "The price of data access under the permission",
          "refinerId": "The id of the refiner",
          "tableName": "The name of the table",
          "tokenAddress": "The address of the token used for payment"
        },
        "returns": {
          "permissionId": "The id of the permission"
        }
      },
      "constructor": {
        "custom:oz-upgrades-unsafe-allow": "constructor"
      },
      "getPermissions(uint256,address)": {
        "params": {
          "grantee": "The address of the grantee",
          "refinerId": "The id of the refiner"
        },
        "returns": {
          "_0": "permissions The permissions"
        }
      },
      "getRoleAdmin(bytes32)": {
        "details": "Returns the admin role that controls `role`. See {grantRole} and {revokeRole}. To change a role's admin, use {_setRoleAdmin}."
      },
      "grantRole(bytes32,address)": {
        "details": "Grants `role` to `account`. If `account` had not been already granted `role`, emits a {RoleGranted} event. Requirements: - the caller must have ``role``'s admin role. May emit a {RoleGranted} event."
      },
      "hasRole(bytes32,address)": {
        "details": "Returns `true` if `account` has been granted `role`."
      },
      "initialize(address,address,address)": {
        "params": {
          "ownerAddress": "Address of the owner"
        }
      },
      "paused()": {
        "details": "Returns true if the contract is paused, and false otherwise."
      },
      "permissions(uint256)": {
        "params": {
          "permissionId": "The id of the permission"
        },
        "returns": {
          "_0": "permission The permission"
        }
      },
      "proxiableUUID()": {
        "details": "Implementation of the ERC1822 {proxiableUUID} function. This returns the storage slot used by the implementation. It is used to validate the implementation's compatibility when performing an upgrade. IMPORTANT: A proxy pointing at a proxiable contract should not be considered proxiable itself, because this risks bricking a proxy that upgrades to it, by delegating to itself until out of gas. Thus it is critical that this function revert if invoked through a proxy. This is guaranteed by the `notDelegated` modifier."
      },
      "renounceRole(bytes32,address)": {
        "details": "Revokes `role` from the calling account. Roles are often managed via {grantRole} and {revokeRole}: this function's purpose is to provide a mechanism for accounts to lose their privileges if they are compromised (such as when a trusted device is misplaced). If the calling account had been revoked `role`, emits a {RoleRevoked} event. Requirements: - the caller must be `callerConfirmation`. May emit a {RoleRevoked} event."
      },
      "revokeRole(bytes32,address)": {
        "details": "Revokes `role` from `account`. If `account` had been granted `role`, emits a {RoleRevoked} event. Requirements: - the caller must have ``role``'s admin role. May emit a {RoleRevoked} event."
      },
      "supportsInterface(bytes4)": {
        "details": "See {IERC165-supportsInterface}."
      },
      "updatePermissionApproval(uint256,bool)": {
        "params": {
          "approved": "The new approval status",
          "permissionId": "The id of the permission"
        }
      },
      "upgradeToAndCall(address,bytes)": {
        "custom:oz-upgrades-unsafe-allow-reachable": "delegatecall",
        "details": "Upgrade the implementation of the proxy to `newImplementation`, and subsequently execute the function call encoded in `data`. Calls {_authorizeUpgrade}. Emits an {Upgraded} event."
      }
    },
    "version": 1
  },
  "userdoc": {
    "kind": "user",
    "methods": {
      "addGenericPermission(uint256,string,string,address,uint256)": {
        "notice": "Adds a generic permission that is granted to everyone"
      },
      "addPermission(address,uint256,string,string,address,uint256)": {
        "notice": "Adds a permission to the contract"
      },
      "dlpPaymentPercentage()": {
        "notice": "The percentage of the payment that goes to the DLP, in 1e18"
      },
      "getPermissions(uint256,address)": {
        "notice": "Returns the permissions for a grantee against a refiner"
      },
      "initialize(address,address,address)": {
        "notice": "Initializes the contract"
      },
      "pause()": {
        "notice": "Pauses the contract"
      },
      "permissions(uint256)": {
        "notice": "Returns the permission for a given permission id"
      },
      "permissionsCount()": {
        "notice": "Returns the number of permissions in the contract"
      },
      "queryEngineTreasury()": {
        "notice": "The address of the treasury that holds the payment"
      },
      "refinerRegistry()": {
        "notice": "Returns the refiner registry address"
      },
      "unpause()": {
        "notice": "Unpauses the contract"
      },
      "updatePermissionApproval(uint256,bool)": {
        "notice": "Updates the approval status of a permission"
      },
      "vanaTreasury()": {
        "notice": "The address of the VANA treasury that receives (1 - dlpPaymentPercentage) of the payment"
      },
      "version()": {
        "notice": "Returns the version of the contract"
      }
    },
    "version": 1
  },
  "storageLayout": {
    "storage": [
      {
        "astId": 12100,
        "contract": "contracts/data/queryEngine/QueryEngineImplementation.sol:QueryEngineImplementation",
        "label": "permissionsCount",
        "offset": 0,
        "slot": "0",
        "type": "t_uint256"
      },
      {
        "astId": 12104,
        "contract": "contracts/data/queryEngine/QueryEngineImplementation.sol:QueryEngineImplementation",
        "label": "refinerRegistry",
        "offset": 0,
        "slot": "1",
        "type": "t_contract(IDataRefinerRegistry)9160"
      },
      {
        "astId": 12108,
        "contract": "contracts/data/queryEngine/QueryEngineImplementation.sol:QueryEngineImplementation",
        "label": "computeEngine",
        "offset": 0,
        "slot": "2",
        "type": "t_contract(IComputeEngine)7194"
      },
      {
        "astId": 12112,
        "contract": "contracts/data/queryEngine/QueryEngineImplementation.sol:QueryEngineImplementation",
        "label": "vanaTreasury",
        "offset": 0,
        "slot": "3",
        "type": "t_address"
      },
      {
        "astId": 12117,
        "contract": "contracts/data/queryEngine/QueryEngineImplementation.sol:QueryEngineImplementation",
        "label": "queryEngineTreasury",
        "offset": 0,
        "slot": "4",
        "type": "t_contract(IDataAccessTreasury)8516"
      },
      {
        "astId": 12121,
        "contract": "contracts/data/queryEngine/QueryEngineImplementation.sol:QueryEngineImplementation",
        "label": "dlpPaymentPercentage",
        "offset": 0,
        "slot": "5",
        "type": "t_uint256"
      },
      {
        "astId": 12127,
        "contract": "contracts/data/queryEngine/QueryEngineImplementation.sol:QueryEngineImplementation",
        "label": "_dlpPayments",
        "offset": 0,
        "slot": "6",
        "type": "t_mapping(t_uint256,t_mapping(t_address,t_uint256))"
      },
      {
        "astId": 12133,
        "contract": "contracts/data/queryEngine/QueryEngineImplementation.sol:QueryEngineImplementation",
        "label": "_permissions",
        "offset": 0,
        "slot": "7",
        "type": "t_mapping(t_uint256,t_struct(Permission)11917_storage)"
      },
      {
        "astId": 12140,
        "contract": "contracts/data/queryEngine/QueryEngineImplementation.sol:QueryEngineImplementation",
        "label": "_approvedPermissions",
        "offset": 0,
        "slot": "8",
        "type": "t_mapping(t_uint256,t_mapping(t_address,t_struct(UintSet)5303_storage))"
      },
      {
        "astId": 12145,
        "contract": "contracts/data/queryEngine/QueryEngineImplementation.sol:QueryEngineImplementation",
        "label": "dlpPubKeys",
        "offset": 0,
        "slot": "9",
        "type": "t_mapping(t_uint256,t_string_storage)"
      }
    ],
    "types": {
      "t_address": {
        "encoding": "inplace",
        "label": "address",
        "numberOfBytes": "20"
      },
      "t_array(t_bytes32)dyn_storage": {
        "base": "t_bytes32",
        "encoding": "dynamic_array",
        "label": "bytes32[]",
        "numberOfBytes": "32"
      },
      "t_bool": {
        "encoding": "inplace",
        "label": "bool",
        "numberOfBytes": "1"
      },
      "t_bytes32": {
        "encoding": "inplace",
        "label": "bytes32",
        "numberOfBytes": "32"
      },
      "t_contract(IComputeEngine)7194": {
        "encoding": "inplace",
        "label": "contract IComputeEngine",
        "numberOfBytes": "20"
      },
      "t_contract(IDataAccessTreasury)8516": {
        "encoding": "inplace",
        "label": "contract IDataAccessTreasury",
        "numberOfBytes": "20"
      },
      "t_contract(IDataRefinerRegistry)9160": {
        "encoding": "inplace",
        "label": "contract IDataRefinerRegistry",
        "numberOfBytes": "20"
      },
      "t_mapping(t_address,t_struct(UintSet)5303_storage)": {
        "encoding": "mapping",
        "key": "t_address",
        "label": "mapping(address => struct EnumerableSet.UintSet)",
        "numberOfBytes": "32",
        "value": "t_struct(UintSet)5303_storage"
      },
      "t_mapping(t_address,t_uint256)": {
        "encoding": "mapping",
        "key": "t_address",
        "label": "mapping(address => uint256)",
        "numberOfBytes": "32",
        "value": "t_uint256"
      },
      "t_mapping(t_bytes32,t_uint256)": {
        "encoding": "mapping",
        "key": "t_bytes32",
        "label": "mapping(bytes32 => uint256)",
        "numberOfBytes": "32",
        "value": "t_uint256"
      },
      "t_mapping(t_uint256,t_mapping(t_address,t_struct(UintSet)5303_storage))": {
        "encoding": "mapping",
        "key": "t_uint256",
        "label": "mapping(uint256 => mapping(address => struct EnumerableSet.UintSet))",
        "numberOfBytes": "32",
        "value": "t_mapping(t_address,t_struct(UintSet)5303_storage)"
      },
      "t_mapping(t_uint256,t_mapping(t_address,t_uint256))": {
        "encoding": "mapping",
        "key": "t_uint256",
        "label": "mapping(uint256 => mapping(address => uint256))",
        "numberOfBytes": "32",
        "value": "t_mapping(t_address,t_uint256)"
      },
      "t_mapping(t_uint256,t_string_storage)": {
        "encoding": "mapping",
        "key": "t_uint256",
        "label": "mapping(uint256 => string)",
        "numberOfBytes": "32",
        "value": "t_string_storage"
      },
      "t_mapping(t_uint256,t_struct(Permission)11917_storage)": {
        "encoding": "mapping",
        "key": "t_uint256",
        "label": "mapping(uint256 => struct IQueryEngine.Permission)",
        "numberOfBytes": "32",
        "value": "t_struct(Permission)11917_storage"
      },
      "t_string_storage": {
        "encoding": "bytes",
        "label": "string",
        "numberOfBytes": "32"
      },
      "t_struct(Permission)11917_storage": {
        "encoding": "inplace",
        "label": "struct IQueryEngine.Permission",
        "members": [
          {
            "astId": 11904,
            "contract": "contracts/data/queryEngine/QueryEngineImplementation.sol:QueryEngineImplementation",
            "label": "grantee",
            "offset": 0,
            "slot": "0",
            "type": "t_address"
          },
          {
            "astId": 11906,
            "contract": "contracts/data/queryEngine/QueryEngineImplementation.sol:QueryEngineImplementation",
            "label": "approved",
            "offset": 20,
            "slot": "0",
            "type": "t_bool"
          },
          {
            "astId": 11908,
            "contract": "contracts/data/queryEngine/QueryEngineImplementation.sol:QueryEngineImplementation",
            "label": "refinerId",
            "offset": 0,
            "slot": "1",
            "type": "t_uint256"
          },
          {
            "astId": 11910,
            "contract": "contracts/data/queryEngine/QueryEngineImplementation.sol:QueryEngineImplementation",
            "label": "tableName",
            "offset": 0,
            "slot": "2",
            "type": "t_string_storage"
          },
          {
            "astId": 11912,
            "contract": "contracts/data/queryEngine/QueryEngineImplementation.sol:QueryEngineImplementation",
            "label": "columnName",
            "offset": 0,
            "slot": "3",
            "type": "t_string_storage"
          },
          {
            "astId": 11914,
            "contract": "contracts/data/queryEngine/QueryEngineImplementation.sol:QueryEngineImplementation",
            "label": "price",
            "offset": 0,
            "slot": "4",
            "type": "t_uint256"
          },
          {
            "astId": 11916,
            "contract": "contracts/data/queryEngine/QueryEngineImplementation.sol:QueryEngineImplementation",
            "label": "tokenAddress",
            "offset": 0,
            "slot": "5",
            "type": "t_address"
          }
        ],
        "numberOfBytes": "192"
      },
      "t_struct(Set)4831_storage": {
        "encoding": "inplace",
        "label": "struct EnumerableSet.Set",
        "members": [
          {
            "astId": 4826,
            "contract": "contracts/data/queryEngine/QueryEngineImplementation.sol:QueryEngineImplementation",
            "label": "_values",
            "offset": 0,
            "slot": "0",
            "type": "t_array(t_bytes32)dyn_storage"
          },
          {
            "astId": 4830,
            "contract": "contracts/data/queryEngine/QueryEngineImplementation.sol:QueryEngineImplementation",
            "label": "_positions",
            "offset": 0,
            "slot": "1",
            "type": "t_mapping(t_bytes32,t_uint256)"
          }
        ],
        "numberOfBytes": "64"
      },
      "t_struct(UintSet)5303_storage": {
        "encoding": "inplace",
        "label": "struct EnumerableSet.UintSet",
        "members": [
          {
            "astId": 5302,
            "contract": "contracts/data/queryEngine/QueryEngineImplementation.sol:QueryEngineImplementation",
            "label": "_inner",
            "offset": 0,
            "slot": "0",
            "type": "t_struct(Set)4831_storage"
          }
        ],
        "numberOfBytes": "64"
      },
      "t_uint256": {
        "encoding": "inplace",
        "label": "uint256",
        "numberOfBytes": "32"
      }
    }
  }
}