{
  "address": "0x4d3F0093F32917dAA4607718Df849b9d9DDc4f78",
  "abi": [
    {
      "inputs": [],
      "stateMutability": "nonpayable",
      "type": "constructor"
    },
    {
      "inputs": [],
      "name": "AccessControlBadConfirmation",
      "type": "error"
    },
    {
      "inputs": [
        {
          "internalType": "address",
          "name": "account",
          "type": "address"
        },
        {
          "internalType": "bytes32",
          "name": "neededRole",
          "type": "bytes32"
        }
      ],
      "name": "AccessControlUnauthorizedAccount",
      "type": "error"
    },
    {
      "inputs": [
        {
          "internalType": "address",
          "name": "target",
          "type": "address"
        }
      ],
      "name": "AddressEmptyCode",
      "type": "error"
    },
    {
      "inputs": [],
      "name": "CancelDelayNotPassed",
      "type": "error"
    },
    {
      "inputs": [
        {
          "internalType": "address",
          "name": "implementation",
          "type": "address"
        }
      ],
      "name": "ERC1967InvalidImplementation",
      "type": "error"
    },
    {
      "inputs": [],
      "name": "ERC1967NonPayable",
      "type": "error"
    },
    {
      "inputs": [],
      "name": "EnforcedPause",
      "type": "error"
    },
    {
      "inputs": [],
      "name": "ExpectedPause",
      "type": "error"
    },
    {
      "inputs": [],
      "name": "FailedInnerCall",
      "type": "error"
    },
    {
      "inputs": [],
      "name": "InsufficientFee",
      "type": "error"
    },
    {
      "inputs": [],
      "name": "InvalidInitialization",
      "type": "error"
    },
    {
      "inputs": [],
      "name": "InvalidJobStatus",
      "type": "error"
    },
    {
      "inputs": [],
      "name": "InvalidJobTee",
      "type": "error"
    },
    {
      "inputs": [],
      "name": "JobCompleted",
      "type": "error"
    },
    {
      "inputs": [],
      "name": "NoActiveTee",
      "type": "error"
    },
    {
      "inputs": [],
      "name": "NotInitializing",
      "type": "error"
    },
    {
      "inputs": [],
      "name": "NotJobOwner",
      "type": "error"
    },
    {
      "inputs": [],
      "name": "NothingToClaim",
      "type": "error"
    },
    {
      "inputs": [],
      "name": "ReentrancyGuardReentrantCall",
      "type": "error"
    },
    {
      "inputs": [],
      "name": "TeeAlreadyAdded",
      "type": "error"
    },
    {
      "inputs": [],
      "name": "TeeNotActive",
      "type": "error"
    },
    {
      "inputs": [],
      "name": "TransferFailed",
      "type": "error"
    },
    {
      "inputs": [],
      "name": "UUPSUnauthorizedCallContext",
      "type": "error"
    },
    {
      "inputs": [
        {
          "internalType": "bytes32",
          "name": "slot",
          "type": "bytes32"
        }
      ],
      "name": "UUPSUnsupportedProxiableUUID",
      "type": "error"
    },
    {
      "anonymous": false,
      "inputs": [
        {
          "indexed": true,
          "internalType": "address",
          "name": "teeAddress",
          "type": "address"
        },
        {
          "indexed": false,
          "internalType": "uint256",
          "name": "amount",
          "type": "uint256"
        }
      ],
      "name": "Claimed",
      "type": "event"
    },
    {
      "anonymous": false,
      "inputs": [
        {
          "indexed": false,
          "internalType": "uint64",
          "name": "version",
          "type": "uint64"
        }
      ],
      "name": "Initialized",
      "type": "event"
    },
    {
      "anonymous": false,
      "inputs": [
        {
          "indexed": true,
          "internalType": "uint256",
          "name": "jobId",
          "type": "uint256"
        }
      ],
      "name": "JobCanceled",
      "type": "event"
    },
    {
      "anonymous": false,
      "inputs": [
        {
          "indexed": true,
          "internalType": "uint256",
          "name": "jobId",
          "type": "uint256"
        },
        {
          "indexed": true,
          "internalType": "uint256",
          "name": "fileId",
          "type": "uint256"
        },
        {
          "indexed": false,
          "internalType": "address",
          "name": "teeAddress",
          "type": "address"
        },
        {
          "indexed": false,
          "internalType": "uint256",
          "name": "bidAmount",
          "type": "uint256"
        }
      ],
      "name": "JobSubmitted",
      "type": "event"
    },
    {
      "anonymous": false,
      "inputs": [
        {
          "indexed": false,
          "internalType": "address",
          "name": "account",
          "type": "address"
        }
      ],
      "name": "Paused",
      "type": "event"
    },
    {
      "anonymous": false,
      "inputs": [
        {
          "indexed": true,
          "internalType": "address",
          "name": "attestator",
          "type": "address"
        },
        {
          "indexed": true,
          "internalType": "uint256",
          "name": "jobId",
          "type": "uint256"
        },
        {
          "indexed": true,
          "internalType": "uint256",
          "name": "fileId",
          "type": "uint256"
        }
      ],
      "name": "ProofAdded",
      "type": "event"
    },
    {
      "anonymous": false,
      "inputs": [
        {
          "indexed": true,
          "internalType": "bytes32",
          "name": "role",
          "type": "bytes32"
        },
        {
          "indexed": true,
          "internalType": "bytes32",
          "name": "previousAdminRole",
          "type": "bytes32"
        },
        {
          "indexed": true,
          "internalType": "bytes32",
          "name": "newAdminRole",
          "type": "bytes32"
        }
      ],
      "name": "RoleAdminChanged",
      "type": "event"
    },
    {
      "anonymous": false,
      "inputs": [
        {
          "indexed": true,
          "internalType": "bytes32",
          "name": "role",
          "type": "bytes32"
        },
        {
          "indexed": true,
          "internalType": "address",
          "name": "account",
          "type": "address"
        },
        {
          "indexed": true,
          "internalType": "address",
          "name": "sender",
          "type": "address"
        }
      ],
      "name": "RoleGranted",
      "type": "event"
    },
    {
      "anonymous": false,
      "inputs": [
        {
          "indexed": true,
          "internalType": "bytes32",
          "name": "role",
          "type": "bytes32"
        },
        {
          "indexed": true,
          "internalType": "address",
          "name": "account",
          "type": "address"
        },
        {
          "indexed": true,
          "internalType": "address",
          "name": "sender",
          "type": "address"
        }
      ],
      "name": "RoleRevoked",
      "type": "event"
    },
    {
      "anonymous": false,
      "inputs": [
        {
          "indexed": true,
          "internalType": "address",
          "name": "teeAddress",
          "type": "address"
        }
      ],
      "name": "TeeAdded",
      "type": "event"
    },
    {
      "anonymous": false,
      "inputs": [
        {
          "indexed": true,
          "internalType": "address",
          "name": "teeAddress",
          "type": "address"
        }
      ],
      "name": "TeeRemoved",
      "type": "event"
    },
    {
      "anonymous": false,
      "inputs": [
        {
          "indexed": false,
          "internalType": "address",
          "name": "account",
          "type": "address"
        }
      ],
      "name": "Unpaused",
      "type": "event"
    },
    {
      "anonymous": false,
      "inputs": [
        {
          "indexed": true,
          "internalType": "address",
          "name": "implementation",
          "type": "address"
        }
      ],
      "name": "Upgraded",
      "type": "event"
    },
    {
      "inputs": [],
      "name": "DEFAULT_ADMIN_ROLE",
      "outputs": [
        {
          "internalType": "bytes32",
          "name": "",
          "type": "bytes32"
        }
      ],
      "stateMutability": "view",
      "type": "function"
    },
    {
      "inputs": [],
      "name": "MAINTAINER_ROLE",
      "outputs": [
        {
          "internalType": "bytes32",
          "name": "",
          "type": "bytes32"
        }
      ],
      "stateMutability": "view",
      "type": "function"
    },
    {
      "inputs": [],
      "name": "UPGRADE_INTERFACE_VERSION",
      "outputs": [
        {
          "internalType": "string",
          "name": "",
          "type": "string"
        }
      ],
      "stateMutability": "view",
      "type": "function"
    },
    {
      "inputs": [],
      "name": "activeTeeList",
      "outputs": [
        {
          "internalType": "address[]",
          "name": "",
          "type": "address[]"
        }
      ],
      "stateMutability": "view",
      "type": "function"
    },
    {
      "inputs": [
        {
          "internalType": "uint256",
          "name": "index",
          "type": "uint256"
        }
      ],
      "name": "activeTeeListAt",
      "outputs": [
        {
          "components": [
            {
              "internalType": "address",
              "name": "teeAddress",
              "type": "address"
            },
            {
              "internalType": "string",
              "name": "url",
              "type": "string"
            },
            {
              "internalType": "enum ITeePool.TeeStatus",
              "name": "status",
              "type": "uint8"
            },
            {
              "internalType": "uint256",
              "name": "amount",
              "type": "uint256"
            },
            {
              "internalType": "uint256",
              "name": "withdrawnAmount",
              "type": "uint256"
            },
            {
              "internalType": "uint256",
              "name": "jobsCount",
              "type": "uint256"
            },
            {
              "internalType": "string",
              "name": "publicKey",
              "type": "string"
            }
          ],
          "internalType": "struct ITeePool.TeeInfo",
          "name": "",
          "type": "tuple"
        }
      ],
      "stateMutability": "view",
      "type": "function"
    },
    {
      "inputs": [],
      "name": "activeTeesCount",
      "outputs": [
        {
          "internalType": "uint256",
          "name": "",
          "type": "uint256"
        }
      ],
      "stateMutability": "view",
      "type": "function"
    },
    {
      "inputs": [
        {
          "internalType": "uint256",
          "name": "jobId",
          "type": "uint256"
        },
        {
          "components": [
            {
              "internalType": "bytes",
              "name": "signature",
              "type": "bytes"
            },
            {
              "components": [
                {
                  "internalType": "uint256",
                  "name": "score",
                  "type": "uint256"
                },
                {
                  "internalType": "uint256",
                  "name": "dlpId",
                  "type": "uint256"
                },
                {
                  "internalType": "string",
                  "name": "metadata",
                  "type": "string"
                },
                {
                  "internalType": "string",
                  "name": "proofUrl",
                  "type": "string"
                },
                {
                  "internalType": "string",
                  "name": "instruction",
                  "type": "string"
                }
              ],
              "internalType": "struct IDataRegistry.ProofData",
              "name": "data",
              "type": "tuple"
            }
          ],
          "internalType": "struct IDataRegistry.Proof",
          "name": "proof",
          "type": "tuple"
        }
      ],
      "name": "addProof",
      "outputs": [],
      "stateMutability": "nonpayable",
      "type": "function"
    },
    {
      "inputs": [
        {
          "internalType": "address",
          "name": "teeAddress",
          "type": "address"
        },
        {
          "internalType": "string",
          "name": "url",
          "type": "string"
        },
        {
          "internalType": "string",
          "name": "publicKey",
          "type": "string"
        }
      ],
      "name": "addTee",
      "outputs": [],
      "stateMutability": "nonpayable",
      "type": "function"
    },
    {
      "inputs": [],
      "name": "cancelDelay",
      "outputs": [
        {
          "internalType": "uint256",
          "name": "",
          "type": "uint256"
        }
      ],
      "stateMutability": "view",
      "type": "function"
    },
    {
      "inputs": [
        {
          "internalType": "uint256",
          "name": "jobId",
          "type": "uint256"
        }
      ],
      "name": "cancelJob",
      "outputs": [],
      "stateMutability": "nonpayable",
      "type": "function"
    },
    {
      "inputs": [],
      "name": "claim",
      "outputs": [],
      "stateMutability": "nonpayable",
      "type": "function"
    },
    {
      "inputs": [],
      "name": "dataRegistry",
      "outputs": [
        {
          "internalType": "contract IDataRegistry",
          "name": "",
          "type": "address"
        }
      ],
      "stateMutability": "view",
      "type": "function"
    },
    {
      "inputs": [
        {
          "internalType": "uint256",
          "name": "fileId",
          "type": "uint256"
        }
      ],
      "name": "fileJobIds",
      "outputs": [
        {
          "internalType": "uint256[]",
          "name": "",
          "type": "uint256[]"
        }
      ],
      "stateMutability": "view",
      "type": "function"
    },
    {
      "inputs": [
        {
          "internalType": "bytes32",
          "name": "role",
          "type": "bytes32"
        }
      ],
      "name": "getRoleAdmin",
      "outputs": [
        {
          "internalType": "bytes32",
          "name": "",
          "type": "bytes32"
        }
      ],
      "stateMutability": "view",
      "type": "function"
    },
    {
      "inputs": [
        {
          "internalType": "bytes32",
          "name": "role",
          "type": "bytes32"
        },
        {
          "internalType": "address",
          "name": "account",
          "type": "address"
        }
      ],
      "name": "grantRole",
      "outputs": [],
      "stateMutability": "nonpayable",
      "type": "function"
    },
    {
      "inputs": [
        {
          "internalType": "bytes32",
          "name": "role",
          "type": "bytes32"
        },
        {
          "internalType": "address",
          "name": "account",
          "type": "address"
        }
      ],
      "name": "hasRole",
      "outputs": [
        {
          "internalType": "bool",
          "name": "",
          "type": "bool"
        }
      ],
      "stateMutability": "view",
      "type": "function"
    },
    {
      "inputs": [
        {
          "internalType": "address",
          "name": "trustedForwarderAddress",
          "type": "address"
        },
        {
          "internalType": "address",
          "name": "ownerAddress",
          "type": "address"
        },
        {
          "internalType": "address",
          "name": "dataRegistryAddress",
          "type": "address"
        },
        {
          "internalType": "uint256",
          "name": "initialCancelDelay",
          "type": "uint256"
        }
      ],
      "name": "initialize",
      "outputs": [],
      "stateMutability": "nonpayable",
      "type": "function"
    },
    {
      "inputs": [
        {
          "internalType": "address",
          "name": "teeAddress",
          "type": "address"
        }
      ],
      "name": "isTee",
      "outputs": [
        {
          "internalType": "bool",
          "name": "",
          "type": "bool"
        }
      ],
      "stateMutability": "view",
      "type": "function"
    },
    {
      "inputs": [
        {
          "internalType": "address",
          "name": "forwarder",
          "type": "address"
        }
      ],
      "name": "isTrustedForwarder",
      "outputs": [
        {
          "internalType": "bool",
          "name": "",
          "type": "bool"
        }
      ],
      "stateMutability": "view",
      "type": "function"
    },
    {
      "inputs": [
        {
          "internalType": "uint256",
          "name": "jobId",
          "type": "uint256"
        }
      ],
      "name": "jobs",
      "outputs": [
        {
          "components": [
            {
              "internalType": "uint256",
              "name": "fileId",
              "type": "uint256"
            },
            {
              "internalType": "uint256",
              "name": "bidAmount",
              "type": "uint256"
            },
            {
              "internalType": "enum ITeePool.JobStatus",
              "name": "status",
              "type": "uint8"
            },
            {
              "internalType": "uint256",
              "name": "addedTimestamp",
              "type": "uint256"
            },
            {
              "internalType": "address",
              "name": "ownerAddress",
              "type": "address"
            },
            {
              "internalType": "address",
              "name": "teeAddress",
              "type": "address"
            }
          ],
          "internalType": "struct ITeePool.Job",
          "name": "",
          "type": "tuple"
        }
      ],
      "stateMutability": "view",
      "type": "function"
    },
    {
      "inputs": [],
      "name": "jobsCount",
      "outputs": [
        {
          "internalType": "uint256",
          "name": "",
          "type": "uint256"
        }
      ],
      "stateMutability": "view",
      "type": "function"
    },
    {
      "inputs": [
        {
          "internalType": "bytes[]",
          "name": "data",
          "type": "bytes[]"
        }
      ],
      "name": "multicall",
      "outputs": [
        {
          "internalType": "bytes[]",
          "name": "results",
          "type": "bytes[]"
        }
      ],
      "stateMutability": "nonpayable",
      "type": "function"
    },
    {
      "inputs": [],
      "name": "pause",
      "outputs": [],
      "stateMutability": "nonpayable",
      "type": "function"
    },
    {
      "inputs": [],
      "name": "paused",
      "outputs": [
        {
          "internalType": "bool",
          "name": "",
          "type": "bool"
        }
      ],
      "stateMutability": "view",
      "type": "function"
    },
    {
      "inputs": [],
      "name": "proxiableUUID",
      "outputs": [
        {
          "internalType": "bytes32",
          "name": "",
          "type": "bytes32"
        }
      ],
      "stateMutability": "view",
      "type": "function"
    },
    {
      "inputs": [
        {
          "internalType": "address",
          "name": "teeAddress",
          "type": "address"
        }
      ],
      "name": "removeTee",
      "outputs": [],
      "stateMutability": "nonpayable",
      "type": "function"
    },
    {
      "inputs": [
        {
          "internalType": "bytes32",
          "name": "role",
          "type": "bytes32"
        },
        {
          "internalType": "address",
          "name": "callerConfirmation",
          "type": "address"
        }
      ],
      "name": "renounceRole",
      "outputs": [],
      "stateMutability": "nonpayable",
      "type": "function"
    },
    {
      "inputs": [
        {
          "internalType": "uint256",
          "name": "fileId",
          "type": "uint256"
        }
      ],
      "name": "requestContributionProof",
      "outputs": [],
      "stateMutability": "payable",
      "type": "function"
    },
    {
      "inputs": [
        {
          "internalType": "bytes32",
          "name": "role",
          "type": "bytes32"
        },
        {
          "internalType": "address",
          "name": "account",
          "type": "address"
        }
      ],
      "name": "revokeRole",
      "outputs": [],
      "stateMutability": "nonpayable",
      "type": "function"
    },
    {
      "inputs": [
        {
          "internalType": "uint256",
          "name": "fileId",
          "type": "uint256"
        }
      ],
      "name": "submitJob",
      "outputs": [],
      "stateMutability": "payable",
      "type": "function"
    },
    {
      "inputs": [
        {
          "internalType": "bytes4",
          "name": "interfaceId",
          "type": "bytes4"
        }
      ],
      "name": "supportsInterface",
      "outputs": [
        {
          "internalType": "bool",
          "name": "",
          "type": "bool"
        }
      ],
      "stateMutability": "view",
      "type": "function"
    },
    {
      "inputs": [],
      "name": "teeFee",
      "outputs": [
        {
          "internalType": "uint256",
          "name": "",
          "type": "uint256"
        }
      ],
      "stateMutability": "view",
      "type": "function"
    },
    {
      "inputs": [
        {
          "internalType": "address",
          "name": "teeAddress",
          "type": "address"
        },
        {
          "internalType": "uint256",
          "name": "start",
          "type": "uint256"
        },
        {
          "internalType": "uint256",
          "name": "limit",
          "type": "uint256"
        }
      ],
      "name": "teeJobIdsPaginated",
      "outputs": [
        {
          "internalType": "uint256[]",
          "name": "",
          "type": "uint256[]"
        }
      ],
      "stateMutability": "view",
      "type": "function"
    },
    {
      "inputs": [],
      "name": "teeList",
      "outputs": [
        {
          "internalType": "address[]",
          "name": "",
          "type": "address[]"
        }
      ],
      "stateMutability": "view",
      "type": "function"
    },
    {
      "inputs": [
        {
          "internalType": "uint256",
          "name": "index",
          "type": "uint256"
        }
      ],
      "name": "teeListAt",
      "outputs": [
        {
          "components": [
            {
              "internalType": "address",
              "name": "teeAddress",
              "type": "address"
            },
            {
              "internalType": "string",
              "name": "url",
              "type": "string"
            },
            {
              "internalType": "enum ITeePool.TeeStatus",
              "name": "status",
              "type": "uint8"
            },
            {
              "internalType": "uint256",
              "name": "amount",
              "type": "uint256"
            },
            {
              "internalType": "uint256",
              "name": "withdrawnAmount",
              "type": "uint256"
            },
            {
              "internalType": "uint256",
              "name": "jobsCount",
              "type": "uint256"
            },
            {
              "internalType": "string",
              "name": "publicKey",
              "type": "string"
            }
          ],
          "internalType": "struct ITeePool.TeeInfo",
          "name": "",
          "type": "tuple"
        }
      ],
      "stateMutability": "view",
      "type": "function"
    },
    {
      "inputs": [
        {
          "internalType": "address",
          "name": "teeAddress",
          "type": "address"
        }
      ],
      "name": "tees",
      "outputs": [
        {
          "components": [
            {
              "internalType": "address",
              "name": "teeAddress",
              "type": "address"
            },
            {
              "internalType": "string",
              "name": "url",
              "type": "string"
            },
            {
              "internalType": "enum ITeePool.TeeStatus",
              "name": "status",
              "type": "uint8"
            },
            {
              "internalType": "uint256",
              "name": "amount",
              "type": "uint256"
            },
            {
              "internalType": "uint256",
              "name": "withdrawnAmount",
              "type": "uint256"
            },
            {
              "internalType": "uint256",
              "name": "jobsCount",
              "type": "uint256"
            },
            {
              "internalType": "string",
              "name": "publicKey",
              "type": "string"
            }
          ],
          "internalType": "struct ITeePool.TeeInfo",
          "name": "",
          "type": "tuple"
        }
      ],
      "stateMutability": "view",
      "type": "function"
    },
    {
      "inputs": [],
      "name": "teesCount",
      "outputs": [
        {
          "internalType": "uint256",
          "name": "",
          "type": "uint256"
        }
      ],
      "stateMutability": "view",
      "type": "function"
    },
    {
      "inputs": [],
      "name": "trustedForwarder",
      "outputs": [
        {
          "internalType": "address",
          "name": "",
          "type": "address"
        }
      ],
      "stateMutability": "view",
      "type": "function"
    },
    {
      "inputs": [],
      "name": "unpause",
      "outputs": [],
      "stateMutability": "nonpayable",
      "type": "function"
    },
    {
      "inputs": [
        {
          "internalType": "uint256",
          "name": "newCancelDelay",
          "type": "uint256"
        }
      ],
      "name": "updateCancelDelay",
      "outputs": [],
      "stateMutability": "nonpayable",
      "type": "function"
    },
    {
      "inputs": [
        {
          "internalType": "contract IDataRegistry",
          "name": "newDataRegistry",
          "type": "address"
        }
      ],
      "name": "updateDataRegistry",
      "outputs": [],
      "stateMutability": "nonpayable",
      "type": "function"
    },
    {
      "inputs": [
        {
          "internalType": "uint256",
          "name": "newTeeFee",
          "type": "uint256"
        }
      ],
      "name": "updateTeeFee",
      "outputs": [],
      "stateMutability": "nonpayable",
      "type": "function"
    },
    {
      "inputs": [
        {
          "internalType": "address",
          "name": "trustedForwarderAddress",
          "type": "address"
        }
      ],
      "name": "updateTrustedForwarder",
      "outputs": [],
      "stateMutability": "nonpayable",
      "type": "function"
    },
    {
      "inputs": [
        {
          "internalType": "address",
          "name": "newImplementation",
          "type": "address"
        },
        {
          "internalType": "bytes",
          "name": "data",
          "type": "bytes"
        }
      ],
      "name": "upgradeToAndCall",
      "outputs": [],
      "stateMutability": "payable",
      "type": "function"
    },
    {
      "inputs": [],
      "name": "version",
      "outputs": [
        {
          "internalType": "uint256",
          "name": "",
          "type": "uint256"
        }
      ],
      "stateMutability": "pure",
      "type": "function"
    }
  ],
  "transactionHash": "0x39640904c4c41206b1c034c04e5a0cda3d8fbcb7394f34cc7c51a81c4cdf55d5",
  "args": [],
  "numDeployments": 4,
  "solcInputHash": "825730942df3a624c057713ffce4c8f5",
  "bytecode": "0x60c0604052306080523480156200001557600080fd5b50600060a052620000256200002b565b620000df565b7ff0c57e16840df040f15088dc2f81fe391c3923bec73e23a9662efc9c229c6a00805468010000000000000000900460ff16156200007c5760405163f92ee8a960e01b815260040160405180910390fd5b80546001600160401b0390811614620000dc5780546001600160401b0319166001600160401b0390811782556040519081527fc7f505b2f371ae2175ee4913f4499e1f2633a7b5936321eed1cdaeb6115181d29060200160405180910390a15b50565b60805160a051612ffe620001106000396000505060008181611c8a01528181611cb30152611df70152612ffe6000f3fe6080604052600436106102025760003560e01c806301ffc9a7146102075780630e2a14a31461023c57806310f3cd301461025e578063180aedf3146102805780631dffa3dc146102ad578063248a9ca3146102cd578063288fffac146102fb5780632f2ff15d1461031b57806336568abe1461033b5780633f4ba83a1461035b5780634c0eb9c9146103705780634e71d92d1461039d5780634f1ef286146103b257806352d1902d146103c557806354fd4d50146103da578063572b6c05146103ee578063576d6d4d1461040e5780635b818d361461042e5780635c975abb14610443578063638a0f091461045857806369e8de561461046e57806373c883961461048e5780637da0a877146104bb5780638456cb59146104dd5780638acfae94146104f257806391d1485414610512578063961884aa146105325780639f1b7a3c14610552578063a217fddf14610572578063a39c1d6b14610587578063a7016f70146105a7578063ac9650d8146105c7578063ad3cb1cc146105f4578063c26045f714610632578063ca45a28814610652578063cf756fdf14610672578063d2ef73d914610692578063d402919f146106a5578063d547741f146106ba578063d5fbcf42146106da578063e7aa0194146106f0578063eb07b9c614610703578063f5d548d814610718578063f87422541461072e578063f90b031114610750575b600080fd5b34801561021357600080fd5b506102276102223660046124c6565b610770565b60405190151581526020015b60405180910390f35b34801561024857600080fd5b5061025c610257366004612505565b6107a7565b005b34801561026a57600080fd5b506102736107e2565b6040516102339190612522565b34801561028c57600080fd5b506102a061029b36600461256f565b6107f3565b604051610233919061259e565b3480156102b957600080fd5b5061025c6102c836600461256f565b61088c565b3480156102d957600080fd5b506102ed6102e836600461256f565b610a3d565b604051908152602001610233565b34801561030757600080fd5b5061025c610316366004612505565b610a5d565b34801561032757600080fd5b5061025c6103363660046125ff565b610b04565b34801561034757600080fd5b5061025c6103563660046125ff565b610b26565b34801561036757600080fd5b5061025c610b6e565b34801561037c57600080fd5b5061039061038b36600461256f565b610b8e565b604051610233919061262f565b3480156103a957600080fd5b5061025c610ba8565b61025c6103c0366004612753565b610d7b565b3480156103d157600080fd5b506102ed610d9a565b3480156103e657600080fd5b5060016102ed565b3480156103fa57600080fd5b50610227610409366004612505565b610db7565b34801561041a57600080fd5b5061025c61042936600461256f565b610ddc565b34801561043a57600080fd5b50610273610dfa565b34801561044f57600080fd5b50610227610e06565b34801561046457600080fd5b506102ed600a5481565b34801561047a57600080fd5b5061025c61048936600461256f565b610e1b565b34801561049a57600080fd5b506104ae6104a936600461256f565b610e39565b60405161023391906127f2565b3480156104c757600080fd5b506104d0610e4f565b6040516102339190612878565b3480156104e957600080fd5b5061025c610e5e565b3480156104fe57600080fd5b5061025c61050d3660046128d4565b610e7e565b34801561051e57600080fd5b5061022761052d3660046125ff565b610f6c565b34801561053e57600080fd5b506104ae61054d366004612505565b610fa2565b34801561055e57600080fd5b5061039061056d366004612956565b6111a1565b34801561057e57600080fd5b506102ed600081565b34801561059357600080fd5b506001546104d0906001600160a01b031681565b3480156105b357600080fd5b506102276105c2366004612505565b6112b0565b3480156105d357600080fd5b506105e76105e236600461298b565b6112e8565b60405161023391906129ff565b34801561060057600080fd5b50610625604051806040016040528060058152602001640352e302e360dc1b81525081565b6040516102339190612a63565b34801561063e57600080fd5b5061025c61064d366004612a76565b611446565b34801561065e57600080fd5b506104ae61066d36600461256f565b61165c565b34801561067e57600080fd5b5061025c61068d366004612b9c565b611672565b61025c6106a036600461256f565b6117f4565b3480156106b157600080fd5b506102ed61197b565b3480156106c657600080fd5b5061025c6106d53660046125ff565b611987565b3480156106e657600080fd5b506102ed60025481565b61025c6106fe36600461256f565b6119a3565b34801561070f57600080fd5b506102ed6119b4565b34801561072457600080fd5b506102ed60095481565b34801561073a57600080fd5b506102ed600080516020612fa983398151915281565b34801561075c57600080fd5b5061025c61076b366004612505565b6119c0565b60006001600160e01b03198216637965db0b60e01b14806107a157506301ffc9a760e01b6001600160e01b03198316145b92915050565b600080516020612fa98339815191526107bf816119fb565b50600180546001600160a01b0319166001600160a01b0392909216919091179055565b60606107ee6006611a0c565b905090565b6107fb612442565b600082815260036020818152604092839020835160c081018552815481526001820154928101929092526002810154919390929084019160ff169081111561084557610845612588565b600381111561085657610856612588565b81526003820154602082015260048201546001600160a01b03908116604083015260059092015490911660609091015292915050565b610894611a19565b61089c611a4f565b60008181526003602052604090206108b2611a75565b60048201546001600160a01b039081169116146108e257604051639015f92360e01b815260040160405180910390fd5b6001600282015460ff1660038111156108fd576108fd612588565b1461091b5760405163b969563b60e01b815260040160405180910390fd5b42600a54826003015461092e9190612c03565b111561094d57604051634b40143d60e01b815260040160405180910390fd5b60028101805460ff1916600317905560058101546001600160a01b031660009081526008602052604090206109859060040183611a7f565b506000610990611a75565b6001600160a01b0316826001015460405160006040518083038185875af1925050503d80600081146109de576040519150601f19603f3d011682016040523d82523d6000602084013e6109e3565b606091505b5050905080610a05576040516312171d8360e31b815260040160405180910390fd5b60405183907f68a66a704ceacc38da3f12c63779e47866d9d72e875ec5d43237777adc666d6590600090a25050610a3a611a8b565b50565b600080610a48611a9c565b60009384526020525050604090206001015490565b600080516020612fa9833981519152610a75816119fb565b610a80600683611ac0565b610a9d576040516310eddccd60e01b815260040160405180910390fd5b6001600160a01b0382166000908152600860205260409020805460ff19166002179055610acb600683611ad5565b506040516001600160a01b038316907f18a003b29a5d1b1d6f0603956003fdc00a42ea8db3825c24a6bf532d5bae0bdf90600090a25050565b610b0d82610a3d565b610b16816119fb565b610b208383611aea565b50505050565b610b2e611a75565b6001600160a01b0316816001600160a01b031614610b5f5760405163334bd91960e11b815260040160405180910390fd5b610b698282611b8c565b505050565b600080516020612fa9833981519152610b86816119fb565b610a3a611c22565b6000818152600b602052604090206060906107a190611a0c565b610bb0611a19565b610bb8611a4f565b600060086000610bc6611a75565b6001600160a01b03166001600160a01b031681526020019081526020016000206003015460086000610bf6611a75565b6001600160a01b03166001600160a01b0316815260200190815260200160002060020154610c249190612c16565b905080600003610c47576040516312d37ee560e31b815260040160405180910390fd5b60086000610c53611a75565b6001600160a01b03166001600160a01b031681526020019081526020016000206002015460086000610c83611a75565b6001600160a01b03166001600160a01b03168152602001908152602001600020600301819055506000610cb4611a75565b6001600160a01b03168260405160006040518083038185875af1925050503d8060008114610cfe576040519150601f19603f3d011682016040523d82523d6000602084013e610d03565b606091505b5050905080610d25576040516312171d8360e31b815260040160405180910390fd5b610d2d611a75565b6001600160a01b03167fd8138f8a3f377c5259ca548e70e4c2de94f129f5a11036a15b69513cba2b426a83604051610d6791815260200190565b60405180910390a25050610d79611a8b565b565b610d83611c7f565b610d8c82611d24565b610d968282611d2f565b5050565b6000610da4611dec565b50600080516020612f8983398151915290565b6000610dc1610e4f565b6001600160a01b0316826001600160a01b0316149050919050565b600080516020612fa9833981519152610df4816119fb565b50600a55565b60606107ee6004611a0c565b600080610e11611e35565b5460ff1692915050565b600080516020612fa9833981519152610e33816119fb565b50600955565b610e41612489565b6107a161054d600484611e59565b6000546001600160a01b031690565b600080516020612fa9833981519152610e76816119fb565b610a3a611e65565b600080516020612fa9833981519152610e96816119fb565b610ea1600687611ac0565b15610ebf57604051637668d56b60e01b815260040160405180910390fd5b610eca600487611ead565b50610ed6600687611ead565b506001600160a01b0386166000908152600860205260409020805460ff19166001908117825501610f08858783612cb3565b506001600160a01b0386166000908152600860205260409020600601610f2f838583612cb3565b506040516001600160a01b038716907fcc7ab74a9b11b56487e4c7356320d0be894972f6132884ccd04e04baa284fb7990600090a2505050505050565b600080610f77611a9c565b6000948552602090815260408086206001600160a01b03959095168652939052505090205460ff1690565b610faa612489565b6040805160e0810182526001600160a01b03841680825260009081526008602090815292902060010180549192830191610fe390612c29565b80601f016020809104026020016040519081016040528092919081815260200182805461100f90612c29565b801561105c5780601f106110315761010080835404028352916020019161105c565b820191906000526020600020905b81548152906001019060200180831161103f57829003601f168201915b50505091835250506001600160a01b03841660009081526008602090815260409091205491019060ff16600281111561109757611097612588565b81526001600160a01b03841660008181526008602081815260408084206002810154838801526003810154918701919091529390925290526060909101906110e190600401611ec2565b815260200160086000856001600160a01b03166001600160a01b03168152602001908152602001600020600601805461111990612c29565b80601f016020809104026020016040519081016040528092919081815260200182805461114590612c29565b80156111925780601f1061116757610100808354040283529160200191611192565b820191906000526020600020905b81548152906001019060200180831161117557829003601f168201915b50505050508152509050919050565b6001600160a01b03831660009081526008602052604081206060916004909101906111cb82611ec2565b90508085106111ec57505060408051600081526020810190915290506112a9565b6000816111f98688612c03565b1161120d576112088587612c03565b61120f565b815b9050600061121d8783612c16565b6001600160401b0381111561123457611234612667565b60405190808252806020026020018201604052801561125d578160200160208202803683370190505b509050865b828110156112a2576112748582611e59565b8261127f8a84612c16565b8151811061128f5761128f612d73565b6020908102919091010152600101611262565b5093505050505b9392505050565b600060016001600160a01b03831660009081526008602052604090205460ff1660028111156112e1576112e1612588565b1492915050565b606060006112f4611a75565b6001600160a01b0316336001600160a01b03161461135f5760003661131a601482612c16565b611325928290612d89565b8080601f01602080910402602001604051908101604052809392919081815260200183838082843760009201919091525061136f92505050565b6040805160008152602081019091525b9050826001600160401b0381111561138957611389612667565b6040519080825280602002602001820160405280156113bc57816020015b60608152602001906001900390816113a75790505b50915060005b8381101561143e57611419308686848181106113e0576113e0612d73565b90506020028101906113f29190612db3565b8560405160200161140593929190612df9565b604051602081830303815290604052611ecc565b83828151811061142b5761142b612d73565b60209081029190910101526001016113c2565b505092915050565b600160086000611454611a75565b6001600160a01b0316815260208101919091526040016000205460ff16600281111561148257611482612588565b146114a0576040516310eddccd60e01b815260040160405180910390fd5b6114a8611a4f565b60008281526003602052604090206001600282015460ff1660038111156114d1576114d1612588565b146114ef5760405163b969563b60e01b815260040160405180910390fd5b6114f7611a75565b60058201546001600160a01b039081169116146115275760405163d1e62b8560e01b815260040160405180910390fd5b600154815460405163c26045f760e01b81526001600160a01b039092169163c26045f791611559918690600401612e20565b600060405180830381600087803b15801561157357600080fd5b505af1158015611587573d6000803e3d6000fd5b5050505080600101546008600061159c611a75565b6001600160a01b03166001600160a01b0316815260200190815260200160002060020160008282546115ce9190612c03565b90915550611606905083600860006115e4611a75565b6001600160a01b03168152602081019190915260400160002060040190611a7f565b506002818101805460ff19169091179055805483611622611a75565b6001600160a01b03167f41eb9d6336d189fb4bf444a6b5056628c51aa4405c87f7389a107686e805726360405160405180910390a4505050565b611664612489565b6107a161054d600684611e59565b600061167c611f42565b805490915060ff600160401b82041615906001600160401b03166000811580156116a35750825b90506000826001600160401b031660011480156116bf5750303b155b9050811580156116cd575080155b156116eb5760405163f92ee8a960e01b815260040160405180910390fd5b84546001600160401b0319166001178555831561171457845460ff60401b1916600160401b1785555b61171c611f66565b611724611f66565b61172c611f6e565b611734611f7e565b600080546001600160a01b03808c166001600160a01b031992831617835560018054918b1691909216179055600a87905561177e90600080516020612fa983398151915290611f8e565b611789600089611aea565b506117a2600080516020612fa983398151915289611aea565b5083156117e957845460ff60401b19168555604051600181527fc7f505b2f371ae2175ee4913f4499e1f2633a7b5936321eed1cdaeb6115181d29060200160405180910390a15b505050505050505050565b6117fc611a4f565b60095434101561181e5760405162976f7560e21b815260040160405180910390fd5b6118286006611ec2565b600003611848576040516329ed7f2760e01b815260040160405180910390fd5b600060026000815461185990612ebb565b91829055509050600061188461054d6118726006611ec2565b61187c9085612ed4565b600690611e59565b5160008381526003602081905260409091208581553460018201554291015590506118ad611a75565b60008381526003602090815260408083206004810180546001600160a01b03199081166001600160a01b039788161790915560028201805460ff191660011790556005909101805490911694861694909417909355858252600b9052206119149083611fee565b506001600160a01b038116600090815260086020526040902061193a9060040183611fee565b5082827f489e923ac6ba31ef19d89736ac6998000e3fe5b1d1f26174a2c12e02393aa67e833460405161196e929190612ef6565b60405180910390a3505050565b60006107ee6006611ec2565b61199082610a3d565b611999816119fb565b610b208383611b8c565b6119ab611a4f565b610a3a816117f4565b60006107ee6004611ec2565b600080516020612fa98339815191526119d8816119fb565b50600080546001600160a01b0319166001600160a01b0392909216919091179055565b610a3a81611a07611a75565b611ffa565b606060006112a983612025565b6000611a23612081565b805490915060011901611a4957604051633ee5aeb560e01b815260040160405180910390fd5b60029055565b611a57610e06565b15610d795760405163d93c066560e01b815260040160405180910390fd5b60006107ee6120a5565b60006112a983836120f7565b6000611a95612081565b6001905550565b7f02dd7bc7dec4dceedda775e58dd541e08a116c6c53815c0bd028192f7b62680090565b60006112a9836001600160a01b0384166121e0565b60006112a9836001600160a01b0384166120f7565b600080611af5611a9c565b9050611b018484610f6c565b611b82576000848152602082815260408083206001600160a01b03871684529091529020805460ff19166001179055611b38611a75565b6001600160a01b0316836001600160a01b0316857f2f8788117e7eff1d82e926ec794901d17c78024a50270940304540a733656f0d60405160405180910390a460019150506107a1565b60009150506107a1565b600080611b97611a9c565b9050611ba38484610f6c565b15611b82576000848152602082815260408083206001600160a01b03871684529091529020805460ff19169055611bd8611a75565b6001600160a01b0316836001600160a01b0316857ff6391f5c32d9c69d2a47ea670b442974b53935d1edc7fd64eb21e047a839171b60405160405180910390a460019150506107a1565b611c2a6121f8565b6000611c34611e35565b805460ff1916815590507f5db9ee0a495bf2e6ff9c91a7834c1ba4fdd244a5e8aa4e537bd38aeae4b073aa611c67611a75565b604051611c749190612878565b60405180910390a150565b306001600160a01b037f0000000000000000000000000000000000000000000000000000000000000000161480611d0657507f00000000000000000000000000000000000000000000000000000000000000006001600160a01b0316611cfa600080516020612f89833981519152546001600160a01b031690565b6001600160a01b031614155b15610d795760405163703e46dd60e11b815260040160405180910390fd5b6000610d96816119fb565b816001600160a01b03166352d1902d6040518163ffffffff1660e01b8152600401602060405180830381865afa925050508015611d89575060408051601f3d908101601f19168201909252611d8691810190612f0f565b60015b611db15781604051634c9c8ce360e01b8152600401611da89190612878565b60405180910390fd5b600080516020612f898339815191528114611de257604051632a87526960e21b815260048101829052602401611da8565b610b69838361221d565b306001600160a01b037f00000000000000000000000000000000000000000000000000000000000000001614610d795760405163703e46dd60e11b815260040160405180910390fd5b7fcd5ed15c6e187e77e9aee88184c21f4f2182ab5827cb3b7e07fbedcd63f0330090565b60006112a98383612273565b611e6d611a4f565b6000611e77611e35565b805460ff1916600117815590507f62e78cea01bee320cd4e420270b5ea74000d11b0c9f74754ebdbfc544b05a258611c67611a75565b60006112a9836001600160a01b03841661229d565b60006107a1825490565b6060600080846001600160a01b031684604051611ee99190612f28565b600060405180830381855af49150503d8060008114611f24576040519150601f19603f3d011682016040523d82523d6000602084013e611f29565b606091505b5091509150611f398583836122e7565b95945050505050565b7ff0c57e16840df040f15088dc2f81fe391c3923bec73e23a9662efc9c229c6a0090565b610d7961233a565b611f7661233a565b610d7961235f565b611f8661233a565b610d7961237c565b6000611f98611a9c565b90506000611fa584610a3d565b600085815260208490526040808220600101869055519192508491839187917fbd79b86ffe0ab8e8776151514217cd7cacd52c909f66475c3af44e129f0b00ff9190a450505050565b60006112a9838361229d565b6120048282610f6c565b610d9657808260405163e2517d3f60e01b8152600401611da8929190612ef6565b60608160000180548060200260200160405190810160405280929190818152602001828054801561207557602002820191906000526020600020905b815481526020019060010190808311612061575b50505050509050919050565b7f9b779b17422d0df92223018b32b4d1fa46e071723d6817e2486d003becc55f0090565b60003660146120b333610db7565b80156120bf5750808210155b156120ef576000366120d18385612c16565b6120dc928290612d89565b6120e591612f44565b60601c9250505090565b339250505090565b60008181526001830160205260408120548015611b8257600061211b600183612c16565b855490915060009061212f90600190612c16565b905080821461219457600086600001828154811061214f5761214f612d73565b906000526020600020015490508087600001848154811061217257612172612d73565b6000918252602080832090910192909255918252600188019052604090208390555b85548690806121a5576121a5612f72565b6001900381819060005260206000200160009055905585600101600086815260200190815260200160002060009055600193505050506107a1565b60009081526001919091016020526040902054151590565b612200610e06565b610d7957604051638dfc202b60e01b815260040160405180910390fd5b61222682612384565b6040516001600160a01b038316907fbc7cd75a20ee27fd9adebab32041f755214dbc6bffa90cc0225b39da2e5c2d3b90600090a280511561226b57610b698282611ecc565b610d966123e0565b600082600001828154811061228a5761228a612d73565b9060005260206000200154905092915050565b60006122a983836121e0565b6122df575081546001818101845560008481526020808220909301849055845484825282860190935260409020919091556107a1565b5060006107a1565b6060826122fc576122f7826123ff565b6112a9565b815115801561231357506001600160a01b0384163b155b156123335783604051639996b31560e01b8152600401611da89190612878565b50806112a9565b612342612428565b610d7957604051631afcd79f60e31b815260040160405180910390fd5b61236761233a565b6000612371611e35565b805460ff1916905550565b611a8b61233a565b806001600160a01b03163b6000036123b15780604051634c9c8ce360e01b8152600401611da89190612878565b600080516020612f8983398151915280546001600160a01b0319166001600160a01b0392909216919091179055565b3415610d795760405163b398979f60e01b815260040160405180910390fd5b80511561240f5780518082602001fd5b604051630a12f52160e11b815260040160405180910390fd5b6000612432611f42565b54600160401b900460ff16919050565b6040518060c0016040528060008152602001600081526020016000600381111561246e5761246e612588565b81526000602082018190526040820181905260609091015290565b6040805160e08101825260008082526060602083015290918201908152602001600081526020016000815260200160008152602001606081525090565b6000602082840312156124d857600080fd5b81356001600160e01b0319811681146112a957600080fd5b6001600160a01b0381168114610a3a57600080fd5b60006020828403121561251757600080fd5b81356112a9816124f0565b6020808252825182820181905260009190848201906040850190845b818110156125635783516001600160a01b03168352928401929184019160010161253e565b50909695505050505050565b60006020828403121561258157600080fd5b5035919050565b634e487b7160e01b600052602160045260246000fd5b8151815260208083015190820152604082015160c0820190600481106125c6576125c6612588565b6040830152606083810151908301526080808401516001600160a01b039081169184019190915260a09384015116929091019190915290565b6000806040838503121561261257600080fd5b823591506020830135612624816124f0565b809150509250929050565b6020808252825182820181905260009190848201906040850190845b818110156125635783518352928401929184019160010161264b565b634e487b7160e01b600052604160045260246000fd5b604080519081016001600160401b038111828210171561269f5761269f612667565b60405290565b60405160a081016001600160401b038111828210171561269f5761269f612667565b600082601f8301126126d857600080fd5b81356001600160401b03808211156126f2576126f2612667565b604051601f8301601f19908116603f0116810190828211818310171561271a5761271a612667565b8160405283815286602085880101111561273357600080fd5b836020870160208301376000602085830101528094505050505092915050565b6000806040838503121561276657600080fd5b8235612771816124f0565b915060208301356001600160401b0381111561278c57600080fd5b612798858286016126c7565b9150509250929050565b60005b838110156127bd5781810151838201526020016127a5565b50506000910152565b600081518084526127de8160208601602086016127a2565b601f01601f19169290920160200192915050565b602080825282516001600160a01b03168282015282015160e060408301526000906128216101008401826127c6565b905060408401516003811061283857612838612588565b8060608501525060608401516080840152608084015160a084015260a084015160c084015260c0840151601f198483030160e0850152611f3982826127c6565b6001600160a01b0391909116815260200190565b60008083601f84011261289e57600080fd5b5081356001600160401b038111156128b557600080fd5b6020830191508360208285010111156128cd57600080fd5b9250929050565b6000806000806000606086880312156128ec57600080fd5b85356128f7816124f0565b945060208601356001600160401b038082111561291357600080fd5b61291f89838a0161288c565b9096509450604088013591508082111561293857600080fd5b506129458882890161288c565b969995985093965092949392505050565b60008060006060848603121561296b57600080fd5b8335612976816124f0565b95602085013595506040909401359392505050565b6000806020838503121561299e57600080fd5b82356001600160401b03808211156129b557600080fd5b818501915085601f8301126129c957600080fd5b8135818111156129d857600080fd5b8660208260051b85010111156129ed57600080fd5b60209290920196919550909350505050565b600060208083016020845280855180835260408601915060408160051b87010192506020870160005b82811015612a5657603f19888603018452612a448583516127c6565b94509285019290850190600101612a28565b5092979650505050505050565b6020815260006112a960208301846127c6565b60008060408385031215612a8957600080fd5b8235915060208301356001600160401b0380821115612aa757600080fd5b9084019060408287031215612abb57600080fd5b612ac361267d565b823582811115612ad257600080fd5b612ade888286016126c7565b825250602083013582811115612af357600080fd5b929092019160a08388031215612b0857600080fd5b612b106126a5565b8335815260208401356020820152604084013583811115612b3057600080fd5b612b3c898287016126c7565b604083015250606084013583811115612b5457600080fd5b612b60898287016126c7565b606083015250608084013583811115612b7857600080fd5b612b84898287016126c7565b60808301525060208201529396939550929350505050565b60008060008060808587031215612bb257600080fd5b8435612bbd816124f0565b93506020850135612bcd816124f0565b92506040850135612bdd816124f0565b9396929550929360600135925050565b634e487b7160e01b600052601160045260246000fd5b808201808211156107a1576107a1612bed565b818103818111156107a1576107a1612bed565b600181811c90821680612c3d57607f821691505b602082108103612c5d57634e487b7160e01b600052602260045260246000fd5b50919050565b601f821115610b69576000816000526020600020601f850160051c81016020861015612c8c5750805b601f850160051c820191505b81811015612cab57828155600101612c98565b505050505050565b6001600160401b03831115612cca57612cca612667565b612cde83612cd88354612c29565b83612c63565b6000601f841160018114612d125760008515612cfa5750838201355b600019600387901b1c1916600186901b178355612d6c565b600083815260209020601f19861690835b82811015612d435786850135825560209485019460019092019101612d23565b5086821015612d605760001960f88860031b161c19848701351681555b505060018560011b0183555b5050505050565b634e487b7160e01b600052603260045260246000fd5b60008085851115612d9957600080fd5b83861115612da657600080fd5b5050820193919092039150565b6000808335601e19843603018112612dca57600080fd5b8301803591506001600160401b03821115612de457600080fd5b6020019150368190038213156128cd57600080fd5b828482376000838201600081528351612e168183602088016127a2565b0195945050505050565b8281526040602082015260008251604080840152612e4160808401826127c6565b90506020840151603f198483030160608501528051825260208101516020830152604081015160a06040840152612e7b60a08401826127c6565b905060608201518382036060850152612e9482826127c6565b915050608082015191508281036080840152612eb081836127c6565b979650505050505050565b600060018201612ecd57612ecd612bed565b5060010190565b600082612ef157634e487b7160e01b600052601260045260246000fd5b500690565b6001600160a01b03929092168252602082015260400190565b600060208284031215612f2157600080fd5b5051919050565b60008251612f3a8184602087016127a2565b9190910192915050565b6001600160601b0319813581811691601485101561143e5760149490940360031b84901b1690921692915050565b634e487b7160e01b600052603160045260246000fdfe360894a13ba1a3210667c828492db98dca3e2076cc3735a920a3ca505d382bbc339759585899103d2ace64958e37e18ccb0504652c81d4a1b8aa80fe2126ab95a2646970667358221220922387d5b829b4db6842bbf9af57d293da13ad0ac487e71813e0a2e1177f6e0964736f6c63430008180033",
  "devdoc": {
    "errors": {
      "AccessControlBadConfirmation()": [
        {
          "details": "The caller of a function is not the expected one. NOTE: Don't confuse with {AccessControlUnauthorizedAccount}."
        }
      ],
      "AccessControlUnauthorizedAccount(address,bytes32)": [
        {
          "details": "The `account` is missing a role."
        }
      ],
      "AddressEmptyCode(address)": [
        {
          "details": "There's no code at `target` (it is not a contract)."
        }
      ],
      "ERC1967InvalidImplementation(address)": [
        {
          "details": "The `implementation` of the proxy is invalid."
        }
      ],
      "ERC1967NonPayable()": [
        {
          "details": "An upgrade function sees `msg.value > 0` that may be lost."
        }
      ],
      "EnforcedPause()": [
        {
          "details": "The operation failed because the contract is paused."
        }
      ],
      "ExpectedPause()": [
        {
          "details": "The operation failed because the contract is not paused."
        }
      ],
      "FailedInnerCall()": [
        {
          "details": "A call to an address target failed. The target may have reverted."
        }
      ],
      "InvalidInitialization()": [
        {
          "details": "The contract is already initialized."
        }
      ],
      "NotInitializing()": [
        {
          "details": "The contract is not initializing."
        }
      ],
      "ReentrancyGuardReentrantCall()": [
        {
          "details": "Unauthorized reentrant call."
        }
      ],
      "UUPSUnauthorizedCallContext()": [
        {
          "details": "The call is from an unauthorized context."
        }
      ],
      "UUPSUnsupportedProxiableUUID(bytes32)": [
        {
          "details": "The storage `slot` is unsupported as a UUID."
        }
      ]
    },
    "events": {
      "Claimed(address,uint256)": {
        "params": {
          "amount": "amount claimed",
          "teeAddress": "address of the tee"
        }
      },
      "Initialized(uint64)": {
        "details": "Triggered when the contract has been initialized or reinitialized."
      },
      "JobCanceled(uint256)": {
        "params": {
          "jobId": "id of the job"
        }
      },
      "JobSubmitted(uint256,uint256,address,uint256)": {
        "params": {
          "bidAmount": "bid amount",
          "fileId": "id of the file",
          "jobId": "id of the job",
          "teeAddress": "address of the tee"
        }
      },
      "Paused(address)": {
        "details": "Emitted when the pause is triggered by `account`."
      },
      "ProofAdded(address,uint256,uint256)": {
        "params": {
          "attestator": "address of the attestator",
          "fileId": "id of the file",
          "jobId": "id of the job"
        }
      },
      "RoleAdminChanged(bytes32,bytes32,bytes32)": {
        "details": "Emitted when `newAdminRole` is set as ``role``'s admin role, replacing `previousAdminRole` `DEFAULT_ADMIN_ROLE` is the starting admin for all roles, despite {RoleAdminChanged} not being emitted signaling this."
      },
      "RoleGranted(bytes32,address,address)": {
        "details": "Emitted when `account` is granted `role`. `sender` is the account that originated the contract call, an admin role bearer except when using {AccessControl-_setupRole}."
      },
      "RoleRevoked(bytes32,address,address)": {
        "details": "Emitted when `account` is revoked `role`. `sender` is the account that originated the contract call:   - if using `revokeRole`, it is the admin role bearer   - if using `renounceRole`, it is the role bearer (i.e. `account`)"
      },
      "TeeAdded(address)": {
        "params": {
          "teeAddress": "address of the tee"
        }
      },
      "TeeRemoved(address)": {
        "params": {
          "teeAddress": "address of the tee"
        }
      },
      "Unpaused(address)": {
        "details": "Emitted when the pause is lifted by `account`."
      },
      "Upgraded(address)": {
        "details": "Emitted when the implementation is upgraded."
      }
    },
    "kind": "dev",
    "methods": {
      "activeTeeListAt(uint256)": {
        "params": {
          "index": "index of the tee"
        },
        "returns": {
          "_0": "TeeDetails                       details of the tee"
        }
      },
      "addProof(uint256,(bytes,(uint256,uint256,string,string,string)))": {
        "params": {
          "jobId": "id of the job",
          "proof": "proof for the file"
        }
      },
      "addTee(address,string,string)": {
        "params": {
          "publicKey": "public key of the tee",
          "teeAddress": "address of the tee",
          "url": "url of the tee"
        }
      },
      "cancelJob(uint256)": {
        "params": {
          "jobId": "id of the job"
        }
      },
      "constructor": {
        "custom:oz-upgrades-unsafe-allow": "constructor"
      },
      "getRoleAdmin(bytes32)": {
        "details": "Returns the admin role that controls `role`. See {grantRole} and {revokeRole}. To change a role's admin, use {_setRoleAdmin}."
      },
      "grantRole(bytes32,address)": {
        "details": "Grants `role` to `account`. If `account` had not been already granted `role`, emits a {RoleGranted} event. Requirements: - the caller must have ``role``'s admin role. May emit a {RoleGranted} event."
      },
      "hasRole(bytes32,address)": {
        "details": "Returns `true` if `account` has been granted `role`."
      },
      "initialize(address,address,address,uint256)": {
        "params": {
          "dataRegistryAddress": "address of the data registry contract",
          "initialCancelDelay": "initial cancel delay",
          "ownerAddress": "address of the owner",
          "trustedForwarderAddress": "address of the trusted forwarder"
        }
      },
      "isTrustedForwarder(address)": {
        "details": "Indicates whether any particular address is the trusted forwarder."
      },
      "jobs(uint256)": {
        "params": {
          "jobId": "id of the job"
        },
        "returns": {
          "_0": "Job                              details of the job"
        }
      },
      "multicall(bytes[])": {
        "custom:oz-upgrades-unsafe-allow-reachable": "delegatecall",
        "details": "Receives and executes a batch of function calls on this contract."
      },
      "pause()": {
        "details": "Pauses the contract"
      },
      "paused()": {
        "details": "Returns true if the contract is paused, and false otherwise."
      },
      "proxiableUUID()": {
        "details": "Implementation of the ERC1822 {proxiableUUID} function. This returns the storage slot used by the implementation. It is used to validate the implementation's compatibility when performing an upgrade. IMPORTANT: A proxy pointing at a proxiable contract should not be considered proxiable itself, because this risks bricking a proxy that upgrades to it, by delegating to itself until out of gas. Thus it is critical that this function revert if invoked through a proxy. This is guaranteed by the `notDelegated` modifier."
      },
      "removeTee(address)": {
        "params": {
          "teeAddress": "address of the tee"
        }
      },
      "renounceRole(bytes32,address)": {
        "details": "Revokes `role` from the calling account. Roles are often managed via {grantRole} and {revokeRole}: this function's purpose is to provide a mechanism for accounts to lose their privileges if they are compromised (such as when a trusted device is misplaced). If the calling account had been revoked `role`, emits a {RoleRevoked} event. Requirements: - the caller must be `callerConfirmation`. May emit a {RoleRevoked} event."
      },
      "requestContributionProof(uint256)": {
        "params": {
          "fileId": "id of the file"
        }
      },
      "revokeRole(bytes32,address)": {
        "details": "Revokes `role` from `account`. If `account` had been granted `role`, emits a {RoleRevoked} event. Requirements: - the caller must have ``role``'s admin role. May emit a {RoleRevoked} event."
      },
      "submitJob(uint256)": {
        "params": {
          "fileId": "id of the file"
        }
      },
      "supportsInterface(bytes4)": {
        "details": "See {IERC165-supportsInterface}."
      },
      "teeJobIdsPaginated(address,uint256,uint256)": {
        "params": {
          "limit": "limit",
          "start": "start index",
          "teeAddress": "address of the tee"
        },
        "returns": {
          "_0": "uint256[]                        list of job ids"
        }
      },
      "teeListAt(uint256)": {
        "params": {
          "index": "index of the tee"
        },
        "returns": {
          "_0": "TeeDetails                       details of the tee"
        }
      },
      "tees(address)": {
        "params": {
          "teeAddress": "address of the tee"
        },
        "returns": {
          "_0": "TeeDetails                       details of the tee"
        }
      },
      "trustedForwarder()": {
        "details": "Returns the address of the trusted forwarder."
      },
      "unpause()": {
        "details": "Unpauses the contract"
      },
      "updateCancelDelay(uint256)": {
        "params": {
          "newCancelDelay": "new cancel delay"
        }
      },
      "updateDataRegistry(address)": {
        "params": {
          "newDataRegistry": "new file registry"
        }
      },
      "updateTeeFee(uint256)": {
        "params": {
          "newTeeFee": "new fee"
        }
      },
      "updateTrustedForwarder(address)": {
        "params": {
          "trustedForwarderAddress": "address of the trusted forwarder"
        }
      },
      "upgradeToAndCall(address,bytes)": {
        "custom:oz-upgrades-unsafe-allow-reachable": "delegatecall",
        "details": "Upgrade the implementation of the proxy to `newImplementation`, and subsequently execute the function call encoded in `data`. Calls {_authorizeUpgrade}. Emits an {Upgraded} event."
      }
    },
    "version": 1
  },
  "userdoc": {
    "events": {
      "Claimed(address,uint256)": {
        "notice": "Triggered when a claim has been made"
      },
      "JobCanceled(uint256)": {
        "notice": "Triggered when a job has been cancelled"
      },
      "JobSubmitted(uint256,uint256,address,uint256)": {
        "notice": "Triggered when a job has been submitted"
      },
      "ProofAdded(address,uint256,uint256)": {
        "notice": "Triggered when a proof has been added"
      },
      "TeeAdded(address)": {
        "notice": "Triggered when a tee has been added"
      },
      "TeeRemoved(address)": {
        "notice": "Triggered when a tee has been removed"
      }
    },
    "kind": "user",
    "methods": {
      "activeTeeList()": {
        "notice": "Returns the list of active tees"
      },
      "activeTeeListAt(uint256)": {
        "notice": "Returns the details of the active tee at the given index"
      },
      "activeTeesCount()": {
        "notice": "Returns the number of active tees"
      },
      "addProof(uint256,(bytes,(uint256,uint256,string,string,string)))": {
        "notice": "Adds a proof to the file"
      },
      "addTee(address,string,string)": {
        "notice": "Adds a tee to the pool"
      },
      "cancelJob(uint256)": {
        "notice": "Cancels a contribution proof request"
      },
      "claim()": {
        "notice": "method used by tees for claiming their rewards"
      },
      "fileJobIds(uint256)": {
        "notice": "Returns a list of job ids for the given file"
      },
      "initialize(address,address,address,uint256)": {
        "notice": "Initialize the contract"
      },
      "jobs(uint256)": {
        "notice": "Returns the details of the job"
      },
      "removeTee(address)": {
        "notice": "Removes a tee from the pool"
      },
      "requestContributionProof(uint256)": {
        "notice": "Adds a contribution proof request"
      },
      "submitJob(uint256)": {
        "notice": "Submits a contribution proof request"
      },
      "teeJobIdsPaginated(address,uint256,uint256)": {
        "notice": "Returns a paginated list of jobs for the given tee"
      },
      "teeList()": {
        "notice": "Returns the list of tees"
      },
      "teeListAt(uint256)": {
        "notice": "Returns the details of the tee at the given index"
      },
      "tees(address)": {
        "notice": "Returns the details of the tee"
      },
      "teesCount()": {
        "notice": "Returns the number of tees"
      },
      "updateCancelDelay(uint256)": {
        "notice": "Updates the cancel delay"
      },
      "updateDataRegistry(address)": {
        "notice": "Updates the file registry"
      },
      "updateTeeFee(uint256)": {
        "notice": "Updates the tee fee"
      },
      "updateTrustedForwarder(address)": {
        "notice": "Update the trusted forwarder"
      },
      "version()": {
        "notice": "Returns the version of the contract"
      }
    },
    "version": 1
  },
  "storageLayout": {
    "storage": [
      {
        "astId": 35229,
        "contract": "contracts/teePool/TeePoolImplementation.sol:TeePoolImplementation",
        "label": "_trustedForwarder",
        "offset": 0,
        "slot": "0",
        "type": "t_address"
      },
      {
        "astId": 35233,
        "contract": "contracts/teePool/TeePoolImplementation.sol:TeePoolImplementation",
        "label": "dataRegistry",
        "offset": 0,
        "slot": "1",
        "type": "t_contract(IDataRegistry)12206"
      },
      {
        "astId": 35236,
        "contract": "contracts/teePool/TeePoolImplementation.sol:TeePoolImplementation",
        "label": "jobsCount",
        "offset": 0,
        "slot": "2",
        "type": "t_uint256"
      },
      {
        "astId": 35241,
        "contract": "contracts/teePool/TeePoolImplementation.sol:TeePoolImplementation",
        "label": "_jobs",
        "offset": 0,
        "slot": "3",
        "type": "t_mapping(t_uint256,t_struct(Job)35023_storage)"
      },
      {
        "astId": 35244,
        "contract": "contracts/teePool/TeePoolImplementation.sol:TeePoolImplementation",
        "label": "_teeList",
        "offset": 0,
        "slot": "4",
        "type": "t_struct(AddressSet)10940_storage"
      },
      {
        "astId": 35247,
        "contract": "contracts/teePool/TeePoolImplementation.sol:TeePoolImplementation",
        "label": "_activeTeeList",
        "offset": 0,
        "slot": "6",
        "type": "t_struct(AddressSet)10940_storage"
      },
      {
        "astId": 35252,
        "contract": "contracts/teePool/TeePoolImplementation.sol:TeePoolImplementation",
        "label": "_tees",
        "offset": 0,
        "slot": "8",
        "type": "t_mapping(t_address,t_struct(Tee)35038_storage)"
      },
      {
        "astId": 35255,
        "contract": "contracts/teePool/TeePoolImplementation.sol:TeePoolImplementation",
        "label": "teeFee",
        "offset": 0,
        "slot": "9",
        "type": "t_uint256"
      },
      {
        "astId": 35258,
        "contract": "contracts/teePool/TeePoolImplementation.sol:TeePoolImplementation",
        "label": "cancelDelay",
        "offset": 0,
        "slot": "10",
        "type": "t_uint256"
      },
      {
        "astId": 35263,
        "contract": "contracts/teePool/TeePoolImplementation.sol:TeePoolImplementation",
        "label": "_fileJobsIds",
        "offset": 0,
        "slot": "11",
        "type": "t_mapping(t_uint256,t_struct(UintSet)11097_storage)"
      }
    ],
    "types": {
      "t_address": {
        "encoding": "inplace",
        "label": "address",
        "numberOfBytes": "20"
      },
      "t_array(t_bytes32)dyn_storage": {
        "base": "t_bytes32",
        "encoding": "dynamic_array",
        "label": "bytes32[]",
        "numberOfBytes": "32"
      },
      "t_bytes32": {
        "encoding": "inplace",
        "label": "bytes32",
        "numberOfBytes": "32"
      },
      "t_contract(IDataRegistry)12206": {
        "encoding": "inplace",
        "label": "contract IDataRegistry",
        "numberOfBytes": "20"
      },
      "t_enum(JobStatus)35009": {
        "encoding": "inplace",
        "label": "enum ITeePool.JobStatus",
        "numberOfBytes": "1"
      },
      "t_enum(TeeStatus)35004": {
        "encoding": "inplace",
        "label": "enum ITeePool.TeeStatus",
        "numberOfBytes": "1"
      },
      "t_mapping(t_address,t_struct(Tee)35038_storage)": {
        "encoding": "mapping",
        "key": "t_address",
        "label": "mapping(address => struct ITeePool.Tee)",
        "numberOfBytes": "32",
        "value": "t_struct(Tee)35038_storage"
      },
      "t_mapping(t_bytes32,t_uint256)": {
        "encoding": "mapping",
        "key": "t_bytes32",
        "label": "mapping(bytes32 => uint256)",
        "numberOfBytes": "32",
        "value": "t_uint256"
      },
      "t_mapping(t_uint256,t_struct(Job)35023_storage)": {
        "encoding": "mapping",
        "key": "t_uint256",
        "label": "mapping(uint256 => struct ITeePool.Job)",
        "numberOfBytes": "32",
        "value": "t_struct(Job)35023_storage"
      },
      "t_mapping(t_uint256,t_struct(UintSet)11097_storage)": {
        "encoding": "mapping",
        "key": "t_uint256",
        "label": "mapping(uint256 => struct EnumerableSet.UintSet)",
        "numberOfBytes": "32",
        "value": "t_struct(UintSet)11097_storage"
      },
      "t_string_storage": {
        "encoding": "bytes",
        "label": "string",
        "numberOfBytes": "32"
      },
      "t_struct(AddressSet)10940_storage": {
        "encoding": "inplace",
        "label": "struct EnumerableSet.AddressSet",
        "members": [
          {
            "astId": 10939,
            "contract": "contracts/teePool/TeePoolImplementation.sol:TeePoolImplementation",
            "label": "_inner",
            "offset": 0,
            "slot": "0",
            "type": "t_struct(Set)10625_storage"
          }
        ],
        "numberOfBytes": "64"
      },
      "t_struct(Job)35023_storage": {
        "encoding": "inplace",
        "label": "struct ITeePool.Job",
        "members": [
          {
            "astId": 35011,
            "contract": "contracts/teePool/TeePoolImplementation.sol:TeePoolImplementation",
            "label": "fileId",
            "offset": 0,
            "slot": "0",
            "type": "t_uint256"
          },
          {
            "astId": 35013,
            "contract": "contracts/teePool/TeePoolImplementation.sol:TeePoolImplementation",
            "label": "bidAmount",
            "offset": 0,
            "slot": "1",
            "type": "t_uint256"
          },
          {
            "astId": 35016,
            "contract": "contracts/teePool/TeePoolImplementation.sol:TeePoolImplementation",
            "label": "status",
            "offset": 0,
            "slot": "2",
            "type": "t_enum(JobStatus)35009"
          },
          {
            "astId": 35018,
            "contract": "contracts/teePool/TeePoolImplementation.sol:TeePoolImplementation",
            "label": "addedTimestamp",
            "offset": 0,
            "slot": "3",
            "type": "t_uint256"
          },
          {
            "astId": 35020,
            "contract": "contracts/teePool/TeePoolImplementation.sol:TeePoolImplementation",
            "label": "ownerAddress",
            "offset": 0,
            "slot": "4",
            "type": "t_address"
          },
          {
            "astId": 35022,
            "contract": "contracts/teePool/TeePoolImplementation.sol:TeePoolImplementation",
            "label": "teeAddress",
            "offset": 0,
            "slot": "5",
            "type": "t_address"
          }
        ],
        "numberOfBytes": "192"
      },
      "t_struct(Set)10625_storage": {
        "encoding": "inplace",
        "label": "struct EnumerableSet.Set",
        "members": [
          {
            "astId": 10620,
            "contract": "contracts/teePool/TeePoolImplementation.sol:TeePoolImplementation",
            "label": "_values",
            "offset": 0,
            "slot": "0",
            "type": "t_array(t_bytes32)dyn_storage"
          },
          {
            "astId": 10624,
            "contract": "contracts/teePool/TeePoolImplementation.sol:TeePoolImplementation",
            "label": "_positions",
            "offset": 0,
            "slot": "1",
            "type": "t_mapping(t_bytes32,t_uint256)"
          }
        ],
        "numberOfBytes": "64"
      },
      "t_struct(Tee)35038_storage": {
        "encoding": "inplace",
        "label": "struct ITeePool.Tee",
        "members": [
          {
            "astId": 35026,
            "contract": "contracts/teePool/TeePoolImplementation.sol:TeePoolImplementation",
            "label": "status",
            "offset": 0,
            "slot": "0",
            "type": "t_enum(TeeStatus)35004"
          },
          {
            "astId": 35028,
            "contract": "contracts/teePool/TeePoolImplementation.sol:TeePoolImplementation",
            "label": "url",
            "offset": 0,
            "slot": "1",
            "type": "t_string_storage"
          },
          {
            "astId": 35030,
            "contract": "contracts/teePool/TeePoolImplementation.sol:TeePoolImplementation",
            "label": "amount",
            "offset": 0,
            "slot": "2",
            "type": "t_uint256"
          },
          {
            "astId": 35032,
            "contract": "contracts/teePool/TeePoolImplementation.sol:TeePoolImplementation",
            "label": "withdrawnAmount",
            "offset": 0,
            "slot": "3",
            "type": "t_uint256"
          },
          {
            "astId": 35035,
            "contract": "contracts/teePool/TeePoolImplementation.sol:TeePoolImplementation",
            "label": "jobIdsList",
            "offset": 0,
            "slot": "4",
            "type": "t_struct(UintSet)11097_storage"
          },
          {
            "astId": 35037,
            "contract": "contracts/teePool/TeePoolImplementation.sol:TeePoolImplementation",
            "label": "publicKey",
            "offset": 0,
            "slot": "6",
            "type": "t_string_storage"
          }
        ],
        "numberOfBytes": "224"
      },
      "t_struct(UintSet)11097_storage": {
        "encoding": "inplace",
        "label": "struct EnumerableSet.UintSet",
        "members": [
          {
            "astId": 11096,
            "contract": "contracts/teePool/TeePoolImplementation.sol:TeePoolImplementation",
            "label": "_inner",
            "offset": 0,
            "slot": "0",
            "type": "t_struct(Set)10625_storage"
          }
        ],
        "numberOfBytes": "64"
      },
      "t_uint256": {
        "encoding": "inplace",
        "label": "uint256",
        "numberOfBytes": "32"
      }
    }
  }
}