{
  "address": "0x45869CeFA87bfEA07a6cB817687D6C64334c0032",
  "abi": [
    {
      "inputs": [],
      "stateMutability": "nonpayable",
      "type": "constructor"
    },
    {
      "inputs": [],
      "name": "AccessControlBadConfirmation",
      "type": "error"
    },
    {
      "inputs": [
        {
          "internalType": "address",
          "name": "account",
          "type": "address"
        },
        {
          "internalType": "bytes32",
          "name": "neededRole",
          "type": "bytes32"
        }
      ],
      "name": "AccessControlUnauthorizedAccount",
      "type": "error"
    },
    {
      "inputs": [
        {
          "internalType": "address",
          "name": "target",
          "type": "address"
        }
      ],
      "name": "AddressEmptyCode",
      "type": "error"
    },
    {
      "inputs": [],
      "name": "CannotRemoveRegistrationStake",
      "type": "error"
    },
    {
      "inputs": [
        {
          "internalType": "address",
          "name": "implementation",
          "type": "address"
        }
      ],
      "name": "ERC1967InvalidImplementation",
      "type": "error"
    },
    {
      "inputs": [],
      "name": "ERC1967NonPayable",
      "type": "error"
    },
    {
      "inputs": [],
      "name": "EnforcedPause",
      "type": "error"
    },
    {
      "inputs": [],
      "name": "EntityNotActive",
      "type": "error"
    },
    {
      "inputs": [],
      "name": "EntityNotFound",
      "type": "error"
    },
    {
      "inputs": [],
      "name": "ExpectedPause",
      "type": "error"
    },
    {
      "inputs": [],
      "name": "FailedInnerCall",
      "type": "error"
    },
    {
      "inputs": [],
      "name": "InsufficientShares",
      "type": "error"
    },
    {
      "inputs": [],
      "name": "InsufficientStakeAmount",
      "type": "error"
    },
    {
      "inputs": [],
      "name": "InvalidAddress",
      "type": "error"
    },
    {
      "inputs": [],
      "name": "InvalidAmount",
      "type": "error"
    },
    {
      "inputs": [],
      "name": "InvalidEntity",
      "type": "error"
    },
    {
      "inputs": [],
      "name": "InvalidInitialization",
      "type": "error"
    },
    {
      "inputs": [],
      "name": "InvalidRecipient",
      "type": "error"
    },
    {
      "inputs": [],
      "name": "InvalidSlippage",
      "type": "error"
    },
    {
      "inputs": [],
      "name": "NotAuthorized",
      "type": "error"
    },
    {
      "inputs": [],
      "name": "NotEntityOwner",
      "type": "error"
    },
    {
      "inputs": [],
      "name": "NotInitializing",
      "type": "error"
    },
    {
      "inputs": [],
      "name": "ReentrancyGuardReentrantCall",
      "type": "error"
    },
    {
      "inputs": [],
      "name": "TransferFailed",
      "type": "error"
    },
    {
      "inputs": [],
      "name": "UUPSUnauthorizedCallContext",
      "type": "error"
    },
    {
      "inputs": [
        {
          "internalType": "bytes32",
          "name": "slot",
          "type": "bytes32"
        }
      ],
      "name": "UUPSUnsupportedProxiableUUID",
      "type": "error"
    },
    {
      "anonymous": false,
      "inputs": [
        {
          "indexed": true,
          "internalType": "uint256",
          "name": "entityId",
          "type": "uint256"
        },
        {
          "indexed": true,
          "internalType": "address",
          "name": "ownerAddress",
          "type": "address"
        }
      ],
      "name": "EntityStakeRegistered",
      "type": "event"
    },
    {
      "anonymous": false,
      "inputs": [
        {
          "indexed": false,
          "internalType": "uint64",
          "name": "version",
          "type": "uint64"
        }
      ],
      "name": "Initialized",
      "type": "event"
    },
    {
      "anonymous": false,
      "inputs": [
        {
          "indexed": false,
          "internalType": "uint256",
          "name": "newMinStake",
          "type": "uint256"
        }
      ],
      "name": "MinStakeUpdated",
      "type": "event"
    },
    {
      "anonymous": false,
      "inputs": [
        {
          "indexed": false,
          "internalType": "address",
          "name": "account",
          "type": "address"
        }
      ],
      "name": "Paused",
      "type": "event"
    },
    {
      "anonymous": false,
      "inputs": [
        {
          "indexed": true,
          "internalType": "bytes32",
          "name": "role",
          "type": "bytes32"
        },
        {
          "indexed": true,
          "internalType": "bytes32",
          "name": "previousAdminRole",
          "type": "bytes32"
        },
        {
          "indexed": true,
          "internalType": "bytes32",
          "name": "newAdminRole",
          "type": "bytes32"
        }
      ],
      "name": "RoleAdminChanged",
      "type": "event"
    },
    {
      "anonymous": false,
      "inputs": [
        {
          "indexed": true,
          "internalType": "bytes32",
          "name": "role",
          "type": "bytes32"
        },
        {
          "indexed": true,
          "internalType": "address",
          "name": "account",
          "type": "address"
        },
        {
          "indexed": true,
          "internalType": "address",
          "name": "sender",
          "type": "address"
        }
      ],
      "name": "RoleGranted",
      "type": "event"
    },
    {
      "anonymous": false,
      "inputs": [
        {
          "indexed": true,
          "internalType": "bytes32",
          "name": "role",
          "type": "bytes32"
        },
        {
          "indexed": true,
          "internalType": "address",
          "name": "account",
          "type": "address"
        },
        {
          "indexed": true,
          "internalType": "address",
          "name": "sender",
          "type": "address"
        }
      ],
      "name": "RoleRevoked",
      "type": "event"
    },
    {
      "anonymous": false,
      "inputs": [
        {
          "indexed": true,
          "internalType": "uint256",
          "name": "entityId",
          "type": "uint256"
        },
        {
          "indexed": true,
          "internalType": "address",
          "name": "staker",
          "type": "address"
        },
        {
          "indexed": false,
          "internalType": "uint256",
          "name": "amount",
          "type": "uint256"
        },
        {
          "indexed": false,
          "internalType": "uint256",
          "name": "sharesIssued",
          "type": "uint256"
        }
      ],
      "name": "Staked",
      "type": "event"
    },
    {
      "anonymous": false,
      "inputs": [
        {
          "indexed": false,
          "internalType": "address",
          "name": "account",
          "type": "address"
        }
      ],
      "name": "Unpaused",
      "type": "event"
    },
    {
      "anonymous": false,
      "inputs": [
        {
          "indexed": true,
          "internalType": "uint256",
          "name": "entityId",
          "type": "uint256"
        },
        {
          "indexed": true,
          "internalType": "address",
          "name": "staker",
          "type": "address"
        },
        {
          "indexed": false,
          "internalType": "uint256",
          "name": "amount",
          "type": "uint256"
        },
        {
          "indexed": false,
          "internalType": "uint256",
          "name": "sharesBurned",
          "type": "uint256"
        }
      ],
      "name": "Unstaked",
      "type": "event"
    },
    {
      "anonymous": false,
      "inputs": [
        {
          "indexed": true,
          "internalType": "address",
          "name": "implementation",
          "type": "address"
        }
      ],
      "name": "Upgraded",
      "type": "event"
    },
    {
      "inputs": [],
      "name": "DEFAULT_ADMIN_ROLE",
      "outputs": [
        {
          "internalType": "bytes32",
          "name": "",
          "type": "bytes32"
        }
      ],
      "stateMutability": "view",
      "type": "function"
    },
    {
      "inputs": [],
      "name": "MAINTAINER_ROLE",
      "outputs": [
        {
          "internalType": "bytes32",
          "name": "",
          "type": "bytes32"
        }
      ],
      "stateMutability": "view",
      "type": "function"
    },
    {
      "inputs": [],
      "name": "UPGRADE_INTERFACE_VERSION",
      "outputs": [
        {
          "internalType": "string",
          "name": "",
          "type": "string"
        }
      ],
      "stateMutability": "view",
      "type": "function"
    },
    {
      "inputs": [],
      "name": "VANA_POOL_ENTITY_ROLE",
      "outputs": [
        {
          "internalType": "bytes32",
          "name": "",
          "type": "bytes32"
        }
      ],
      "stateMutability": "view",
      "type": "function"
    },
    {
      "inputs": [
        {
          "internalType": "uint256",
          "name": "index",
          "type": "uint256"
        }
      ],
      "name": "activeStakersListAt",
      "outputs": [
        {
          "internalType": "address",
          "name": "",
          "type": "address"
        }
      ],
      "stateMutability": "view",
      "type": "function"
    },
    {
      "inputs": [],
      "name": "activeStakersListCount",
      "outputs": [
        {
          "internalType": "uint256",
          "name": "",
          "type": "uint256"
        }
      ],
      "stateMutability": "view",
      "type": "function"
    },
    {
      "inputs": [
        {
          "internalType": "uint256",
          "name": "from",
          "type": "uint256"
        },
        {
          "internalType": "uint256",
          "name": "to",
          "type": "uint256"
        }
      ],
      "name": "activeStakersListValues",
      "outputs": [
        {
          "internalType": "address[]",
          "name": "",
          "type": "address[]"
        }
      ],
      "stateMutability": "view",
      "type": "function"
    },
    {
      "inputs": [
        {
          "internalType": "bytes32",
          "name": "role",
          "type": "bytes32"
        }
      ],
      "name": "getRoleAdmin",
      "outputs": [
        {
          "internalType": "bytes32",
          "name": "",
          "type": "bytes32"
        }
      ],
      "stateMutability": "view",
      "type": "function"
    },
    {
      "inputs": [
        {
          "internalType": "bytes32",
          "name": "role",
          "type": "bytes32"
        },
        {
          "internalType": "address",
          "name": "account",
          "type": "address"
        }
      ],
      "name": "grantRole",
      "outputs": [],
      "stateMutability": "nonpayable",
      "type": "function"
    },
    {
      "inputs": [
        {
          "internalType": "bytes32",
          "name": "role",
          "type": "bytes32"
        },
        {
          "internalType": "address",
          "name": "account",
          "type": "address"
        }
      ],
      "name": "hasRole",
      "outputs": [
        {
          "internalType": "bool",
          "name": "",
          "type": "bool"
        }
      ],
      "stateMutability": "view",
      "type": "function"
    },
    {
      "inputs": [
        {
          "internalType": "uint256",
          "name": "index",
          "type": "uint256"
        }
      ],
      "name": "inactiveStakersListAt",
      "outputs": [
        {
          "internalType": "address",
          "name": "",
          "type": "address"
        }
      ],
      "stateMutability": "view",
      "type": "function"
    },
    {
      "inputs": [],
      "name": "inactiveStakersListCount",
      "outputs": [
        {
          "internalType": "uint256",
          "name": "",
          "type": "uint256"
        }
      ],
      "stateMutability": "view",
      "type": "function"
    },
    {
      "inputs": [
        {
          "internalType": "uint256",
          "name": "from",
          "type": "uint256"
        },
        {
          "internalType": "uint256",
          "name": "to",
          "type": "uint256"
        }
      ],
      "name": "inactiveStakersListValues",
      "outputs": [
        {
          "internalType": "address[]",
          "name": "",
          "type": "address[]"
        }
      ],
      "stateMutability": "view",
      "type": "function"
    },
    {
      "inputs": [
        {
          "internalType": "address",
          "name": "trustedForwarderAddress",
          "type": "address"
        },
        {
          "internalType": "address",
          "name": "ownerAddress",
          "type": "address"
        },
        {
          "internalType": "uint256",
          "name": "initialMinStake",
          "type": "uint256"
        }
      ],
      "name": "initialize",
      "outputs": [],
      "stateMutability": "nonpayable",
      "type": "function"
    },
    {
      "inputs": [
        {
          "internalType": "address",
          "name": "forwarder",
          "type": "address"
        }
      ],
      "name": "isTrustedForwarder",
      "outputs": [
        {
          "internalType": "bool",
          "name": "",
          "type": "bool"
        }
      ],
      "stateMutability": "view",
      "type": "function"
    },
    {
      "inputs": [],
      "name": "minStakeAmount",
      "outputs": [
        {
          "internalType": "uint256",
          "name": "",
          "type": "uint256"
        }
      ],
      "stateMutability": "view",
      "type": "function"
    },
    {
      "inputs": [
        {
          "internalType": "bytes[]",
          "name": "data",
          "type": "bytes[]"
        }
      ],
      "name": "multicall",
      "outputs": [
        {
          "internalType": "bytes[]",
          "name": "results",
          "type": "bytes[]"
        }
      ],
      "stateMutability": "nonpayable",
      "type": "function"
    },
    {
      "inputs": [],
      "name": "pause",
      "outputs": [],
      "stateMutability": "nonpayable",
      "type": "function"
    },
    {
      "inputs": [],
      "name": "paused",
      "outputs": [
        {
          "internalType": "bool",
          "name": "",
          "type": "bool"
        }
      ],
      "stateMutability": "view",
      "type": "function"
    },
    {
      "inputs": [],
      "name": "proxiableUUID",
      "outputs": [
        {
          "internalType": "bytes32",
          "name": "",
          "type": "bytes32"
        }
      ],
      "stateMutability": "view",
      "type": "function"
    },
    {
      "inputs": [
        {
          "internalType": "uint256",
          "name": "entityId",
          "type": "uint256"
        },
        {
          "internalType": "address",
          "name": "ownerAddress",
          "type": "address"
        },
        {
          "internalType": "uint256",
          "name": "registrationStake",
          "type": "uint256"
        }
      ],
      "name": "registerEntityStake",
      "outputs": [],
      "stateMutability": "nonpayable",
      "type": "function"
    },
    {
      "inputs": [
        {
          "internalType": "bytes32",
          "name": "role",
          "type": "bytes32"
        },
        {
          "internalType": "address",
          "name": "callerConfirmation",
          "type": "address"
        }
      ],
      "name": "renounceRole",
      "outputs": [],
      "stateMutability": "nonpayable",
      "type": "function"
    },
    {
      "inputs": [
        {
          "internalType": "bytes32",
          "name": "role",
          "type": "bytes32"
        },
        {
          "internalType": "address",
          "name": "account",
          "type": "address"
        }
      ],
      "name": "revokeRole",
      "outputs": [],
      "stateMutability": "nonpayable",
      "type": "function"
    },
    {
      "inputs": [
        {
          "internalType": "uint256",
          "name": "entityId",
          "type": "uint256"
        },
        {
          "internalType": "address",
          "name": "recipient",
          "type": "address"
        },
        {
          "internalType": "uint256",
          "name": "shareAmountMin",
          "type": "uint256"
        }
      ],
      "name": "stake",
      "outputs": [],
      "stateMutability": "payable",
      "type": "function"
    },
    {
      "inputs": [
        {
          "internalType": "address",
          "name": "staker",
          "type": "address"
        },
        {
          "internalType": "uint256",
          "name": "entityId",
          "type": "uint256"
        }
      ],
      "name": "stakerEntities",
      "outputs": [
        {
          "components": [
            {
              "internalType": "uint256",
              "name": "shares",
              "type": "uint256"
            }
          ],
          "internalType": "struct IVanaPoolStaking.StakerEntity",
          "name": "",
          "type": "tuple"
        }
      ],
      "stateMutability": "view",
      "type": "function"
    },
    {
      "inputs": [
        {
          "internalType": "bytes4",
          "name": "interfaceId",
          "type": "bytes4"
        }
      ],
      "name": "supportsInterface",
      "outputs": [
        {
          "internalType": "bool",
          "name": "",
          "type": "bool"
        }
      ],
      "stateMutability": "view",
      "type": "function"
    },
    {
      "inputs": [],
      "name": "trustedForwarder",
      "outputs": [
        {
          "internalType": "address",
          "name": "",
          "type": "address"
        }
      ],
      "stateMutability": "view",
      "type": "function"
    },
    {
      "inputs": [],
      "name": "unpause",
      "outputs": [],
      "stateMutability": "nonpayable",
      "type": "function"
    },
    {
      "inputs": [
        {
          "internalType": "uint256",
          "name": "entityId",
          "type": "uint256"
        },
        {
          "internalType": "uint256",
          "name": "shareAmount",
          "type": "uint256"
        },
        {
          "internalType": "uint256",
          "name": "vanaAmountMin",
          "type": "uint256"
        }
      ],
      "name": "unstake",
      "outputs": [],
      "stateMutability": "nonpayable",
      "type": "function"
    },
    {
      "inputs": [
        {
          "internalType": "uint256",
          "name": "newMinStake",
          "type": "uint256"
        }
      ],
      "name": "updateMinStakeAmount",
      "outputs": [],
      "stateMutability": "nonpayable",
      "type": "function"
    },
    {
      "inputs": [
        {
          "internalType": "address",
          "name": "trustedForwarderAddress",
          "type": "address"
        }
      ],
      "name": "updateTrustedForwarder",
      "outputs": [],
      "stateMutability": "nonpayable",
      "type": "function"
    },
    {
      "inputs": [
        {
          "internalType": "address",
          "name": "newVanaPoolEntityAddress",
          "type": "address"
        }
      ],
      "name": "updateVanaPoolEntity",
      "outputs": [],
      "stateMutability": "nonpayable",
      "type": "function"
    },
    {
      "inputs": [
        {
          "internalType": "address",
          "name": "newVanaPoolTreasuryAddress",
          "type": "address"
        }
      ],
      "name": "updateVanaPoolTreasury",
      "outputs": [],
      "stateMutability": "nonpayable",
      "type": "function"
    },
    {
      "inputs": [
        {
          "internalType": "address",
          "name": "newImplementation",
          "type": "address"
        },
        {
          "internalType": "bytes",
          "name": "data",
          "type": "bytes"
        }
      ],
      "name": "upgradeToAndCall",
      "outputs": [],
      "stateMutability": "payable",
      "type": "function"
    },
    {
      "inputs": [],
      "name": "vanaPoolEntity",
      "outputs": [
        {
          "internalType": "contract IVanaPoolEntity",
          "name": "",
          "type": "address"
        }
      ],
      "stateMutability": "view",
      "type": "function"
    },
    {
      "inputs": [],
      "name": "vanaPoolTreasury",
      "outputs": [
        {
          "internalType": "contract IVanaPoolTreasury",
          "name": "",
          "type": "address"
        }
      ],
      "stateMutability": "view",
      "type": "function"
    },
    {
      "inputs": [],
      "name": "version",
      "outputs": [
        {
          "internalType": "uint256",
          "name": "",
          "type": "uint256"
        }
      ],
      "stateMutability": "pure",
      "type": "function"
    }
  ],
  "transactionHash": "0x97dc8c995a2ab458b7ecb8f11ef837eb64b20ca61cef7715d41a99296cd81a70",
  "args": [],
  "numDeployments": 5,
  "solcInputHash": "f5f8770f322809b5277da5e801e95845",
  "bytecode": "0x60c0604052306080523480156200001557600080fd5b50600060a052620000256200002b565b620000df565b7ff0c57e16840df040f15088dc2f81fe391c3923bec73e23a9662efc9c229c6a00805468010000000000000000900460ff16156200007c5760405163f92ee8a960e01b815260040160405180910390fd5b80546001600160401b0390811614620000dc5780546001600160401b0319166001600160401b0390811782556040519081527fc7f505b2f371ae2175ee4913f4499e1f2633a7b5936321eed1cdaeb6115181d29060200160405180910390a15b50565b60805160a0516128b16200011060003960005050600081816117ae015281816117d7015261191b01526128b16000f3fe6080604052600436106101aa5760003560e01c806301ffc9a7146101af5780631794bb3c146101e4578063248a9ca3146102065780632ac3bde9146102345780632f2ff15d1461024957806335a8977c1461026957806336568abe146102965780633f4ba83a146102b657806349b5df08146102cb5780634f1ef286146102ed57806352d1902d1461030057806354fd4d5014610315578063572b6c05146103295780635a762513146103495780635c82aa67146103695780635c975abb146103895780636e9c931c1461039e5780637da0a877146103b15780638456cb59146103c6578063899ac34f146103db57806389de1184146103fb57806391d14854146104105780639828ce861461043057806399a9ec8614610450578063a217fddf146104b6578063ac9650d8146104cb578063ad3cb1cc146104f8578063bd97b37514610536578063c9a56cee14610556578063d547741f14610583578063d8060cd5146105a3578063e7a6b784146105c3578063f1887684146105e3578063f6dcf74c146105f9578063f874225414610619578063f90b03111461063b578063ff037e8e1461065b575b600080fd5b3480156101bb57600080fd5b506101cf6101ca36600461204a565b61067b565b60405190151581526020015b60405180910390f35b3480156101f057600080fd5b506102046101ff366004612089565b6106b2565b005b34801561021257600080fd5b506102266102213660046120ca565b61082a565b6040519081526020016101db565b34801561024057600080fd5b5061022661084a565b34801561025557600080fd5b506102046102643660046120e3565b61085b565b34801561027557600080fd5b50600154610289906001600160a01b031681565b6040516101db9190612113565b3480156102a257600080fd5b506102046102b13660046120e3565b61087d565b3480156102c257600080fd5b506102046108c5565b3480156102d757600080fd5b5061022660008051602061285c83398151915281565b6102046102fb3660046121bd565b6108e8565b34801561030c57600080fd5b50610226610907565b34801561032157600080fd5b506001610226565b34801561033557600080fd5b506101cf61034436600461224f565b610924565b34801561035557600080fd5b506102896103643660046120ca565b610949565b34801561037557600080fd5b506102896103843660046120ca565b610956565b34801561039557600080fd5b506101cf610963565b6102046103ac36600461226c565b610978565b3480156103bd57600080fd5b50610289610c48565b3480156103d257600080fd5b50610204610c57565b3480156103e757600080fd5b506102046103f636600461224f565b610c77565b34801561040757600080fd5b50610226610cf3565b34801561041c57600080fd5b506101cf61042b3660046120e3565b610cff565b34801561043c57600080fd5b5061020461044b36600461226c565b610d35565b34801561045c57600080fd5b506104a761046b366004612293565b6040805160208082018352600091829052825180820184526001600160a01b039590951682526006815282822093825292909252902054815290565b604051905181526020016101db565b3480156104c257600080fd5b50610226600081565b3480156104d757600080fd5b506104eb6104e63660046122bf565b610dc9565b6040516101db9190612383565b34801561050457600080fd5b50610529604051806040016040528060058152602001640352e302e360dc1b81525081565b6040516101db91906123e7565b34801561054257600080fd5b506102046105513660046123fa565b610f27565b34801561056257600080fd5b50610576610571366004612426565b611227565b6040516101db9190612448565b34801561058f57600080fd5b5061020461059e3660046120e3565b6112eb565b3480156105af57600080fd5b506102046105be3660046120ca565b611307565b3480156105cf57600080fd5b50600254610289906001600160a01b031681565b3480156105ef57600080fd5b5061022660035481565b34801561060557600080fd5b50610576610614366004612426565b61135b565b34801561062557600080fd5b5061022660008051602061283c83398151915281565b34801561064757600080fd5b5061020461065636600461224f565b611416565b34801561066757600080fd5b5061020461067636600461224f565b611451565b60006001600160e01b03198216637965db0b60e01b14806106ac57506301ffc9a760e01b6001600160e01b03198316145b92915050565b60006106bc61151e565b805490915060ff600160401b82041615906001600160401b03166000811580156106e35750825b90506000826001600160401b031660011480156106ff5750303b155b90508115801561070d575080155b1561072b5760405163f92ee8a960e01b815260040160405180910390fd5b84546001600160401b0319166001178555831561075457845460ff60401b1916600160401b1785555b61075c611542565b610764611542565b61076c61154c565b61077461155c565b61077c611542565b600080546001600160a01b0319166001600160a01b038a1617815560038790556107b59060008051602061283c8339815191529061156c565b6107c06000886115cc565b506107d960008051602061283c833981519152886115cc565b50831561082057845460ff60401b19168555604051600181527fc7f505b2f371ae2175ee4913f4499e1f2633a7b5936321eed1cdaeb6115181d29060200160405180910390a15b5050505050505050565b60008061083561166e565b60009384526020525050604090206001015490565b60006108566004611692565b905090565b6108648261082a565b61086d8161169c565b61087783836115cc565b50505050565b6108856116a6565b6001600160a01b0316816001600160a01b0316146108b65760405163334bd91960e11b815260040160405180910390fd5b6108c082826116b0565b505050565b60008051602061283c8339815191526108dd8161169c565b6108e5611746565b50565b6108f06117a3565b6108f982611848565b6109038282611853565b5050565b6000610911611910565b5060008051602061281c83398151915290565b600061092e610c48565b6001600160a01b0316826001600160a01b0316149050919050565b60006106ac600783611959565b60006106ac600483611959565b60008061096e61196c565b5460ff1692915050565b610980611990565b6109886119c6565b610991836119ec565b6109ae576040516305d06f5560e51b815260040160405180910390fd5b346001600160a01b0383166109d657604051634e46966960e11b815260040160405180910390fd5b60015460405163e6ef675b60e01b8152600481018690526001600160a01b039091169063e6ef675b90602401600060405180830381600087803b158015610a1c57600080fd5b505af1158015610a30573d6000803e3d6000fd5b50506001546040516350d211cd60e11b815260048101889052600093506001600160a01b03909116915063a1a4239a90602401602060405180830381865afa158015610a80573d6000803e3d6000fd5b505050506040513d601f19601f82011682018060405250810190610aa49190612495565b90506000670de0b6b3a7640000610abb84846124c4565b610ac591906124db565b905083811015610ae85760405163334ee9a160e01b815260040160405180910390fd5b6001600160a01b038516600090815260066020908152604080832089845290915281208054839290610b1b9084906124fd565b90915550610b2a905085611a84565b60018054604051636f11853360e11b81526001600160a01b039091169163de230a6691610b5f918a9186918991600401612510565b600060405180830381600087803b158015610b7957600080fd5b505af1158015610b8d573d6000803e3d6000fd5b5050600254604051600093506001600160a01b03909116915085908381818185875af1925050503d8060008114610be0576040519150601f19603f3d011682016040523d82523d6000602084013e610be5565b606091505b5050905080610c07576040516312171d8360e31b815260040160405180910390fd5b60408051858152602081018490526001600160a01b0388169189916000805160206127fc83398151915291015b60405180910390a3505050506108c0611a9b565b6000546001600160a01b031690565b60008051602061283c833981519152610c6f8161169c565b6108e5611aac565b60008051602061283c833981519152610c8f8161169c565b6001600160a01b0382161580610cb257506002546001600160a01b038381169116145b15610cd05760405163e6c4247b60e01b815260040160405180910390fd5b50600280546001600160a01b0319166001600160a01b0392909216919091179055565b60006108566007611692565b600080610d0a61166e565b6000948552602090815260408086206001600160a01b03959095168652939052505090205460ff1690565b610d3d611990565b610d456119c6565b60008051602061285c833981519152610d5d8161169c565b6001600160a01b03831660009081526006602090815260408083208784529091529020829055610d8c83611a84565b60408051838152602081018490526001600160a01b0385169186916000805160206127fc833981519152910160405180910390a3506108c0611a9b565b60606000610dd56116a6565b6001600160a01b0316336001600160a01b031614610e4057600036610dfb60148261252d565b610e06928290612540565b8080601f016020809104026020016040519081016040528093929190818152602001838380828437600092019190915250610e5092505050565b6040805160008152602081019091525b9050826001600160401b03811115610e6a57610e6a612127565b604051908082528060200260200182016040528015610e9d57816020015b6060815260200190600190039081610e885790505b50915060005b83811015610f1f57610efa30868684818110610ec157610ec161256a565b9050602002810190610ed39190612580565b85604051602001610ee6939291906125cd565b604051602081830303815290604052611af4565b838281518110610f0c57610f0c61256a565b6020908102919091010152600101610ea3565b505092915050565b610f2f611990565b610f376119c6565b600060066000610f456116a6565b6001600160a01b0316815260208082019290925260409081016000908120878252909252902080549091501580610f7a575082155b15610f985760405163162908e360e11b815260040160405180910390fd5b60015460405163e6ef675b60e01b8152600481018690526001600160a01b039091169063e6ef675b90602401600060405180830381600087803b158015610fde57600080fd5b505af1158015610ff2573d6000803e3d6000fd5b5050600154604051633428229b60e21b815260048101889052600093506001600160a01b03909116915063d0a08a6c90602401602060405180830381865afa158015611042573d6000803e3d6000fd5b505050506040513d601f19601f820116820180604052508101906110669190612495565b90506000670de0b6b3a764000061107d83876124c4565b61108791906124db565b9050838110156110aa5760405163334ee9a160e01b815260040160405180910390fd5b848360000160008282546110be919061252d565b909155506110d490506110cf6116a6565b611b6a565b600154604051636f11853360e11b81526001600160a01b039091169063de230a669061110b90899089908690600090600401612510565b600060405180830381600087803b15801561112557600080fd5b505af1158015611139573d6000803e3d6000fd5b5050600254600092506001600160a01b0316905063117511c961115a6116a6565b846040518363ffffffff1660e01b81526004016111789291906125f4565b6020604051808303816000875af1158015611197573d6000803e3d6000fd5b505050506040513d601f19601f820116820180604052508101906111bb919061260d565b9050806111db576040516312171d8360e31b815260040160405180910390fd5b6111e36116a6565b6001600160a01b0316877fffdaf13b1d96bfc2213355f353f84c19493e0681eb0df26f83d862acd266750a8489604051610c34929190918252602082015260400190565b606060006112356007611692565b905080831115611243578092505b600061124f858561252d565b6001600160401b0381111561126657611266612127565b60405190808252806020026020018201604052801561128f578160200160208202803683370190505b509050845b848110156112e2576112a7600782611959565b826112b2888461252d565b815181106112c2576112c261256a565b6001600160a01b0390921660209283029190910190910152600101611294565b50949350505050565b6112f48261082a565b6112fd8161169c565b61087783836116b0565b60008051602061283c83398151915261131f8161169c565b60038290556040518281527f47ab46f2c8d4258304a2f5551c1cbdb6981be49631365d1ba7191288a73f39ef9060200160405180910390a15050565b606060006113696004611692565b905080831115611377578092505b6000611383858561252d565b6001600160401b0381111561139a5761139a612127565b6040519080825280602002602001820160405280156113c3578160200160208202803683370190505b509050845b848110156112e2576113db600482611959565b826113e6888461252d565b815181106113f6576113f661256a565b6001600160a01b03909216602092830291909101909101526001016113c8565b60008051602061283c83398151915261142e8161169c565b50600080546001600160a01b0319166001600160a01b0392909216919091179055565b60008051602061283c8339815191526114698161169c565b6001600160a01b038216158061148c57506001546001600160a01b038381169116145b156114aa5760405163e6c4247b60e01b815260040160405180910390fd5b6001546001600160a01b0316156114e2576001546114e09060008051602061285c833981519152906001600160a01b03166116b0565b505b6114fa60008051602061285c833981519152836115cc565b5050600180546001600160a01b0319166001600160a01b0392909216919091179055565b7ff0c57e16840df040f15088dc2f81fe391c3923bec73e23a9662efc9c229c6a0090565b61154a611c47565b565b611554611c47565b61154a611c6c565b611564611c47565b61154a611c89565b600061157661166e565b905060006115838461082a565b600085815260208490526040808220600101869055519192508491839187917fbd79b86ffe0ab8e8776151514217cd7cacd52c909f66475c3af44e129f0b00ff9190a450505050565b6000806115d761166e565b90506115e38484610cff565b611664576000848152602082815260408083206001600160a01b03871684529091529020805460ff1916600117905561161a6116a6565b6001600160a01b0316836001600160a01b0316857f2f8788117e7eff1d82e926ec794901d17c78024a50270940304540a733656f0d60405160405180910390a460019150506106ac565b60009150506106ac565b7f02dd7bc7dec4dceedda775e58dd541e08a116c6c53815c0bd028192f7b62680090565b60006106ac825490565b6108e58133611c91565b6000610856611cbc565b6000806116bb61166e565b90506116c78484610cff565b15611664576000848152602082815260408083206001600160a01b03871684529091529020805460ff191690556116fc6116a6565b6001600160a01b0316836001600160a01b0316857ff6391f5c32d9c69d2a47ea670b442974b53935d1edc7fd64eb21e047a839171b60405160405180910390a460019150506106ac565b61174e611d0e565b600061175861196c565b805460ff1916815590507f5db9ee0a495bf2e6ff9c91a7834c1ba4fdd244a5e8aa4e537bd38aeae4b073aa61178b6116a6565b6040516117989190612113565b60405180910390a150565b306001600160a01b037f000000000000000000000000000000000000000000000000000000000000000016148061182a57507f00000000000000000000000000000000000000000000000000000000000000006001600160a01b031661181e60008051602061281c833981519152546001600160a01b031690565b6001600160a01b031614155b1561154a5760405163703e46dd60e11b815260040160405180910390fd5b60006109038161169c565b816001600160a01b03166352d1902d6040518163ffffffff1660e01b8152600401602060405180830381865afa9250505080156118ad575060408051601f3d908101601f191682019092526118aa91810190612495565b60015b6118d55781604051634c9c8ce360e01b81526004016118cc9190612113565b60405180910390fd5b60008051602061281c833981519152811461190657604051632a87526960e21b8152600481018290526024016118cc565b6108c08383611d33565b306001600160a01b037f0000000000000000000000000000000000000000000000000000000000000000161461154a5760405163703e46dd60e11b815260040160405180910390fd5b60006119658383611d89565b9392505050565b7fcd5ed15c6e187e77e9aee88184c21f4f2182ab5827cb3b7e07fbedcd63f0330090565b600061199a611db3565b8054909150600119016119c057604051633ee5aeb560e01b815260040160405180910390fd5b60029055565b6119ce610963565b1561154a5760405163d93c066560e01b815260040160405180910390fd5b600154604051636331883b60e01b81526004810183905260009182916001600160a01b0390911690636331883b90602401600060405180830381865afa158015611a3a573d6000803e3d6000fd5b505050506040513d6000823e601f3d908101601f19168201604052611a62919081019061269b565b9050600181604001516002811115611a7c57611a7c61276c565b149392505050565b611a8f600482611dd7565b50610903600782611dec565b6000611aa5611db3565b6001905550565b611ab46119c6565b6000611abe61196c565b805460ff1916600117815590507f62e78cea01bee320cd4e420270b5ea74000d11b0c9f74754ebdbfc544b05a25861178b6116a6565b6060600080846001600160a01b031684604051611b119190612782565b600060405180830381855af49150503d8060008114611b4c576040519150601f19603f3d011682016040523d82523d6000602084013e611b51565b606091505b5091509150611b61858383611e01565b95945050505050565b6001546040805163c04f712f60e01b815290516000926001600160a01b03169163c04f712f9160048083019260209291908290030181865afa158015611bb4573d6000803e3d6000fd5b505050506040513d601f19601f82011682018060405250810190611bd89190612495565b9050600060015b828111611c2a576001600160a01b038416600090815260066020908152604080832084845290915290205415611c185760019150611c2a565b80611c228161279e565b915050611bdf565b50806108c057611c3b600484611dec565b50610877600784611dd7565b611c4f611e54565b61154a57604051631afcd79f60e31b815260040160405180910390fd5b611c74611c47565b6000611c7e61196c565b805460ff1916905550565b611a9b611c47565b611c9b8282610cff565b61090357808260405163e2517d3f60e01b81526004016118cc9291906125f4565b6000366014611cca33610924565b8015611cd65750808210155b15611d0657600036611ce8838561252d565b611cf3928290612540565b611cfc916127b7565b60601c9250505090565b339250505090565b611d16610963565b61154a57604051638dfc202b60e01b815260040160405180910390fd5b611d3c82611e6e565b6040516001600160a01b038316907fbc7cd75a20ee27fd9adebab32041f755214dbc6bffa90cc0225b39da2e5c2d3b90600090a2805115611d81576108c08282611af4565b610903611eca565b6000826000018281548110611da057611da061256a565b9060005260206000200154905092915050565b7f9b779b17422d0df92223018b32b4d1fa46e071723d6817e2486d003becc55f0090565b6000611965836001600160a01b038416611ee9565b6000611965836001600160a01b038416611f38565b606082611e1657611e1182612021565b611965565b8151158015611e2d57506001600160a01b0384163b155b15611e4d5783604051639996b31560e01b81526004016118cc9190612113565b5092915050565b6000611e5e61151e565b54600160401b900460ff16919050565b806001600160a01b03163b600003611e9b5780604051634c9c8ce360e01b81526004016118cc9190612113565b60008051602061281c83398151915280546001600160a01b0319166001600160a01b0392909216919091179055565b341561154a5760405163b398979f60e01b815260040160405180910390fd5b6000818152600183016020526040812054611f30575081546001818101845560008481526020808220909301849055845484825282860190935260409020919091556106ac565b5060006106ac565b60008181526001830160205260408120548015611664576000611f5c60018361252d565b8554909150600090611f709060019061252d565b9050808214611fd5576000866000018281548110611f9057611f9061256a565b9060005260206000200154905080876000018481548110611fb357611fb361256a565b6000918252602080832090910192909255918252600188019052604090208390555b8554869080611fe657611fe66127e5565b6001900381819060005260206000200160009055905585600101600086815260200190815260200160002060009055600193505050506106ac565b8051156120315780518082602001fd5b604051630a12f52160e11b815260040160405180910390fd5b60006020828403121561205c57600080fd5b81356001600160e01b03198116811461196557600080fd5b6001600160a01b03811681146108e557600080fd5b60008060006060848603121561209e57600080fd5b83356120a981612074565b925060208401356120b981612074565b929592945050506040919091013590565b6000602082840312156120dc57600080fd5b5035919050565b600080604083850312156120f657600080fd5b82359150602083013561210881612074565b809150509250929050565b6001600160a01b0391909116815260200190565b634e487b7160e01b600052604160045260246000fd5b60405161012081016001600160401b038111828210171561216057612160612127565b60405290565b604051601f8201601f191681016001600160401b038111828210171561218e5761218e612127565b604052919050565b60006001600160401b038211156121af576121af612127565b50601f01601f191660200190565b600080604083850312156121d057600080fd5b82356121db81612074565b915060208301356001600160401b038111156121f657600080fd5b8301601f8101851361220757600080fd5b803561221a61221582612196565b612166565b81815286602083850101111561222f57600080fd5b816020840160208301376000602083830101528093505050509250929050565b60006020828403121561226157600080fd5b813561196581612074565b60008060006060848603121561228157600080fd5b8335925060208401356120b981612074565b600080604083850312156122a657600080fd5b82356122b181612074565b946020939093013593505050565b600080602083850312156122d257600080fd5b82356001600160401b03808211156122e957600080fd5b818501915085601f8301126122fd57600080fd5b81358181111561230c57600080fd5b8660208260051b850101111561232157600080fd5b60209290920196919550909350505050565b60005b8381101561234e578181015183820152602001612336565b50506000910152565b6000815180845261236f816020860160208601612333565b601f01601f19169290920160200192915050565b600060208083016020845280855180835260408601915060408160051b87010192506020870160005b828110156123da57603f198886030184526123c8858351612357565b945092850192908501906001016123ac565b5092979650505050505050565b6020815260006119656020830184612357565b60008060006060848603121561240f57600080fd5b505081359360208301359350604090920135919050565b6000806040838503121561243957600080fd5b50508035926020909101359150565b6020808252825182820181905260009190848201906040850190845b818110156124895783516001600160a01b031683529284019291840191600101612464565b50909695505050505050565b6000602082840312156124a757600080fd5b5051919050565b634e487b7160e01b600052601160045260246000fd5b80820281158282048414176106ac576106ac6124ae565b6000826124f857634e487b7160e01b600052601260045260246000fd5b500490565b808201808211156106ac576106ac6124ae565b938452602084019290925260408301521515606082015260800190565b818103818111156106ac576106ac6124ae565b6000808585111561255057600080fd5b8386111561255d57600080fd5b5050820193919092039150565b634e487b7160e01b600052603260045260246000fd5b6000808335601e1984360301811261259757600080fd5b8301803591506001600160401b038211156125b157600080fd5b6020019150368190038213156125c657600080fd5b9250929050565b8284823760008382016000815283516125ea818360208801612333565b0195945050505050565b6001600160a01b03929092168252602082015260400190565b60006020828403121561261f57600080fd5b8151801515811461196557600080fd5b805161263a81612074565b919050565b80516003811061263a57600080fd5b600082601f83011261265f57600080fd5b815161266d61221582612196565b81815284602083860101111561268257600080fd5b612693826020830160208701612333565b949350505050565b6000602082840312156126ad57600080fd5b81516001600160401b03808211156126c457600080fd5b9083019061012082860312156126d957600080fd5b6126e161213d565b825181526126f16020840161262f565b60208201526127026040840161263f565b604082015260608301518281111561271957600080fd5b6127258782860161264e565b6060830152506080830151608082015260a083015160a082015260c083015160c082015260e083015160e08201526101009150818301518282015280935050505092915050565b634e487b7160e01b600052602160045260246000fd5b60008251612794818460208701612333565b9190910192915050565b6000600182016127b0576127b06124ae565b5060010190565b6001600160601b03198135818116916014851015610f1f5760149490940360031b84901b1690921692915050565b634e487b7160e01b600052603160045260246000fdfe17700ceb1658b18206f427c1578048e87504106b14ec69e9b4586d9a95174a32360894a13ba1a3210667c828492db98dca3e2076cc3735a920a3ca505d382bbc339759585899103d2ace64958e37e18ccb0504652c81d4a1b8aa80fe2126ab959fe32e53aa9381b7f44f013dfd62f90c179e5510d76d4c813325c4b6b3f2d973a2646970667358221220322a572b15bca277a3049759ca8781fd08f9f4aa79ac7522441a7add4e5324e864736f6c63430008180033",
  "devdoc": {
    "errors": {
      "AccessControlBadConfirmation()": [
        {
          "details": "The caller of a function is not the expected one. NOTE: Don't confuse with {AccessControlUnauthorizedAccount}."
        }
      ],
      "AccessControlUnauthorizedAccount(address,bytes32)": [
        {
          "details": "The `account` is missing a role."
        }
      ],
      "AddressEmptyCode(address)": [
        {
          "details": "There's no code at `target` (it is not a contract)."
        }
      ],
      "ERC1967InvalidImplementation(address)": [
        {
          "details": "The `implementation` of the proxy is invalid."
        }
      ],
      "ERC1967NonPayable()": [
        {
          "details": "An upgrade function sees `msg.value > 0` that may be lost."
        }
      ],
      "EnforcedPause()": [
        {
          "details": "The operation failed because the contract is paused."
        }
      ],
      "ExpectedPause()": [
        {
          "details": "The operation failed because the contract is not paused."
        }
      ],
      "FailedInnerCall()": [
        {
          "details": "A call to an address target failed. The target may have reverted."
        }
      ],
      "InvalidInitialization()": [
        {
          "details": "The contract is already initialized."
        }
      ],
      "NotInitializing()": [
        {
          "details": "The contract is not initializing."
        }
      ],
      "ReentrancyGuardReentrantCall()": [
        {
          "details": "Unauthorized reentrant call."
        }
      ],
      "UUPSUnauthorizedCallContext()": [
        {
          "details": "The call is from an unauthorized context."
        }
      ],
      "UUPSUnsupportedProxiableUUID(bytes32)": [
        {
          "details": "The storage `slot` is unsupported as a UUID."
        }
      ]
    },
    "events": {
      "EntityStakeRegistered(uint256,address)": {
        "params": {
          "entityId": "ID of the entity",
          "ownerAddress": "address of the owner"
        }
      },
      "Initialized(uint64)": {
        "details": "Triggered when the contract has been initialized or reinitialized."
      },
      "MinStakeUpdated(uint256)": {
        "params": {
          "newMinStake": "new minimum stake amount"
        }
      },
      "Paused(address)": {
        "details": "Emitted when the pause is triggered by `account`."
      },
      "RoleAdminChanged(bytes32,bytes32,bytes32)": {
        "details": "Emitted when `newAdminRole` is set as ``role``'s admin role, replacing `previousAdminRole` `DEFAULT_ADMIN_ROLE` is the starting admin for all roles, despite {RoleAdminChanged} not being emitted signaling this."
      },
      "RoleGranted(bytes32,address,address)": {
        "details": "Emitted when `account` is granted `role`. `sender` is the account that originated the contract call, an admin role bearer except when using {AccessControl-_setupRole}."
      },
      "RoleRevoked(bytes32,address,address)": {
        "details": "Emitted when `account` is revoked `role`. `sender` is the account that originated the contract call:   - if using `revokeRole`, it is the admin role bearer   - if using `renounceRole`, it is the role bearer (i.e. `account`)"
      },
      "Staked(uint256,address,uint256,uint256)": {
        "params": {
          "amount": "amount staked",
          "entityId": "ID of the entity",
          "sharesIssued": "shares issued",
          "staker": "address of the staker"
        }
      },
      "Unpaused(address)": {
        "details": "Emitted when the pause is lifted by `account`."
      },
      "Unstaked(uint256,address,uint256,uint256)": {
        "params": {
          "amount": "amount unstaked",
          "entityId": "ID of the entity",
          "sharesBurned": "shares burned",
          "staker": "address of the staker"
        }
      },
      "Upgraded(address)": {
        "details": "Emitted when the implementation is upgraded."
      }
    },
    "kind": "dev",
    "methods": {
      "constructor": {
        "custom:oz-upgrades-unsafe-allow": "constructor"
      },
      "getRoleAdmin(bytes32)": {
        "details": "Returns the admin role that controls `role`. See {grantRole} and {revokeRole}. To change a role's admin, use {_setRoleAdmin}."
      },
      "grantRole(bytes32,address)": {
        "details": "Grants `role` to `account`. If `account` had not been already granted `role`, emits a {RoleGranted} event. Requirements: - the caller must have ``role``'s admin role. May emit a {RoleGranted} event."
      },
      "hasRole(bytes32,address)": {
        "details": "Returns `true` if `account` has been granted `role`."
      },
      "initialize(address,address,uint256)": {
        "params": {
          "initialMinStake": "initial minimum stake amount (in wei)",
          "ownerAddress": "address of the owner",
          "trustedForwarderAddress": "address of the trusted forwarder"
        }
      },
      "isTrustedForwarder(address)": {
        "details": "Indicates whether any particular address is the trusted forwarder."
      },
      "multicall(bytes[])": {
        "custom:oz-upgrades-unsafe-allow-reachable": "delegatecall",
        "details": "Receives and executes a batch of function calls on this contract."
      },
      "pause()": {
        "details": "Pauses the contract"
      },
      "paused()": {
        "details": "Returns true if the contract is paused, and false otherwise."
      },
      "proxiableUUID()": {
        "details": "Implementation of the ERC1822 {proxiableUUID} function. This returns the storage slot used by the implementation. It is used to validate the implementation's compatibility when performing an upgrade. IMPORTANT: A proxy pointing at a proxiable contract should not be considered proxiable itself, because this risks bricking a proxy that upgrades to it, by delegating to itself until out of gas. Thus it is critical that this function revert if invoked through a proxy. This is guaranteed by the `notDelegated` modifier."
      },
      "registerEntityStake(uint256,address,uint256)": {
        "params": {
          "entityId": "ID of the entity",
          "ownerAddress": "Address of the entity owner"
        }
      },
      "renounceRole(bytes32,address)": {
        "details": "Revokes `role` from the calling account. Roles are often managed via {grantRole} and {revokeRole}: this function's purpose is to provide a mechanism for accounts to lose their privileges if they are compromised (such as when a trusted device is misplaced). If the calling account had been revoked `role`, emits a {RoleRevoked} event. Requirements: - the caller must be `callerConfirmation`. May emit a {RoleRevoked} event."
      },
      "revokeRole(bytes32,address)": {
        "details": "Revokes `role` from `account`. If `account` had been granted `role`, emits a {RoleRevoked} event. Requirements: - the caller must have ``role``'s admin role. May emit a {RoleRevoked} event."
      },
      "stake(uint256,address,uint256)": {
        "params": {
          "entityId": "ID of the entity to stake into",
          "recipient": "Address of the recipient who will receive the stake",
          "shareAmountMin": "Minimum amount of share to receive"
        }
      },
      "stakerEntities(address,uint256)": {
        "params": {
          "entityId": "ID of the entity",
          "staker": "address of the staker"
        },
        "returns": {
          "_0": "uint256                         shares owned by staker in the entity"
        }
      },
      "supportsInterface(bytes4)": {
        "details": "See {IERC165-supportsInterface}."
      },
      "trustedForwarder()": {
        "details": "Returns the address of the trusted forwarder."
      },
      "unpause()": {
        "details": "Unpauses the contract"
      },
      "unstake(uint256,uint256,uint256)": {
        "params": {
          "entityId": "ID of the entity to unstake from",
          "shareAmount": "shareAmount to unstake",
          "vanaAmountMin": "minimum amount of VANA to receive"
        }
      },
      "updateMinStakeAmount(uint256)": {
        "params": {
          "newMinStake": "new minimum stake amount in wei"
        }
      },
      "updateTrustedForwarder(address)": {
        "params": {
          "trustedForwarderAddress": "address of the trusted forwarder"
        }
      },
      "updateVanaPoolEntity(address)": {
        "params": {
          "newVanaPoolEntityAddress": "new VanaPoolEntity contract address"
        }
      },
      "updateVanaPoolTreasury(address)": {
        "params": {
          "newVanaPoolTreasuryAddress": "new VanaPoolTreasury contract address"
        }
      },
      "upgradeToAndCall(address,bytes)": {
        "custom:oz-upgrades-unsafe-allow-reachable": "delegatecall",
        "details": "Upgrade the implementation of the proxy to `newImplementation`, and subsequently execute the function call encoded in `data`. Calls {_authorizeUpgrade}. Emits an {Upgraded} event."
      }
    },
    "version": 1
  },
  "userdoc": {
    "events": {
      "EntityStakeRegistered(uint256,address)": {
        "notice": "Triggered when an entity stake is registered"
      },
      "MinStakeUpdated(uint256)": {
        "notice": "Triggered when minimum stake amount is updated"
      },
      "Staked(uint256,address,uint256,uint256)": {
        "notice": "Triggered when a user stakes VANA to an entity"
      },
      "Unstaked(uint256,address,uint256,uint256)": {
        "notice": "Triggered when a user unstakes VANA from an entity"
      }
    },
    "kind": "user",
    "methods": {
      "initialize(address,address,uint256)": {
        "notice": "Initialize the contract"
      },
      "registerEntityStake(uint256,address,uint256)": {
        "notice": "Register stake for a new entity (called by VanaPoolEntity contract)"
      },
      "stake(uint256,address,uint256)": {
        "notice": "Stake VANA into a specific entity and allocate it to a recipient"
      },
      "stakerEntities(address,uint256)": {
        "notice": "Returns staker info for a specific entity"
      },
      "unstake(uint256,uint256,uint256)": {
        "notice": "Unstake VANA from a specific entity"
      },
      "updateMinStakeAmount(uint256)": {
        "notice": "Updates the minimum stake amount"
      },
      "updateTrustedForwarder(address)": {
        "notice": "Update the trusted forwarder"
      },
      "updateVanaPoolEntity(address)": {
        "notice": "Update the VanaPoolEntity contract address"
      },
      "updateVanaPoolTreasury(address)": {
        "notice": "Update the VanaPoolTreasury contract"
      },
      "version()": {
        "notice": "Returns the version of the contract"
      }
    },
    "version": 1
  },
  "storageLayout": {
    "storage": [
      {
        "astId": 4158,
        "contract": "contracts/vanaPoolStaking/VanaPoolStakingImplementation.sol:VanaPoolStakingImplementation",
        "label": "_trustedForwarder",
        "offset": 0,
        "slot": "0",
        "type": "t_address"
      },
      {
        "astId": 4162,
        "contract": "contracts/vanaPoolStaking/VanaPoolStakingImplementation.sol:VanaPoolStakingImplementation",
        "label": "vanaPoolEntity",
        "offset": 0,
        "slot": "1",
        "type": "t_contract(IVanaPoolEntity)3031"
      },
      {
        "astId": 4166,
        "contract": "contracts/vanaPoolStaking/VanaPoolStakingImplementation.sol:VanaPoolStakingImplementation",
        "label": "vanaPoolTreasury",
        "offset": 0,
        "slot": "2",
        "type": "t_contract(IVanaPoolTreasury)4208"
      },
      {
        "astId": 4169,
        "contract": "contracts/vanaPoolStaking/VanaPoolStakingImplementation.sol:VanaPoolStakingImplementation",
        "label": "minStakeAmount",
        "offset": 0,
        "slot": "3",
        "type": "t_uint256"
      },
      {
        "astId": 4172,
        "contract": "contracts/vanaPoolStaking/VanaPoolStakingImplementation.sol:VanaPoolStakingImplementation",
        "label": "_activeStakersList",
        "offset": 0,
        "slot": "4",
        "type": "t_struct(AddressSet)2546_storage"
      },
      {
        "astId": 4177,
        "contract": "contracts/vanaPoolStaking/VanaPoolStakingImplementation.sol:VanaPoolStakingImplementation",
        "label": "_stakers",
        "offset": 0,
        "slot": "6",
        "type": "t_mapping(t_address,t_struct(Staker)4024_storage)"
      },
      {
        "astId": 4180,
        "contract": "contracts/vanaPoolStaking/VanaPoolStakingImplementation.sol:VanaPoolStakingImplementation",
        "label": "_inactiveStakersList",
        "offset": 0,
        "slot": "7",
        "type": "t_struct(AddressSet)2546_storage"
      }
    ],
    "types": {
      "t_address": {
        "encoding": "inplace",
        "label": "address",
        "numberOfBytes": "20"
      },
      "t_array(t_bytes32)dyn_storage": {
        "base": "t_bytes32",
        "encoding": "dynamic_array",
        "label": "bytes32[]",
        "numberOfBytes": "32"
      },
      "t_bytes32": {
        "encoding": "inplace",
        "label": "bytes32",
        "numberOfBytes": "32"
      },
      "t_contract(IVanaPoolEntity)3031": {
        "encoding": "inplace",
        "label": "contract IVanaPoolEntity",
        "numberOfBytes": "20"
      },
      "t_contract(IVanaPoolTreasury)4208": {
        "encoding": "inplace",
        "label": "contract IVanaPoolTreasury",
        "numberOfBytes": "20"
      },
      "t_mapping(t_address,t_struct(Staker)4024_storage)": {
        "encoding": "mapping",
        "key": "t_address",
        "label": "mapping(address => struct IVanaPoolStaking.Staker)",
        "numberOfBytes": "32",
        "value": "t_struct(Staker)4024_storage"
      },
      "t_mapping(t_bytes32,t_uint256)": {
        "encoding": "mapping",
        "key": "t_bytes32",
        "label": "mapping(bytes32 => uint256)",
        "numberOfBytes": "32",
        "value": "t_uint256"
      },
      "t_mapping(t_uint256,t_struct(StakerEntity)4018_storage)": {
        "encoding": "mapping",
        "key": "t_uint256",
        "label": "mapping(uint256 => struct IVanaPoolStaking.StakerEntity)",
        "numberOfBytes": "32",
        "value": "t_struct(StakerEntity)4018_storage"
      },
      "t_struct(AddressSet)2546_storage": {
        "encoding": "inplace",
        "label": "struct EnumerableSet.AddressSet",
        "members": [
          {
            "astId": 2545,
            "contract": "contracts/vanaPoolStaking/VanaPoolStakingImplementation.sol:VanaPoolStakingImplementation",
            "label": "_inner",
            "offset": 0,
            "slot": "0",
            "type": "t_struct(Set)2231_storage"
          }
        ],
        "numberOfBytes": "64"
      },
      "t_struct(Set)2231_storage": {
        "encoding": "inplace",
        "label": "struct EnumerableSet.Set",
        "members": [
          {
            "astId": 2226,
            "contract": "contracts/vanaPoolStaking/VanaPoolStakingImplementation.sol:VanaPoolStakingImplementation",
            "label": "_values",
            "offset": 0,
            "slot": "0",
            "type": "t_array(t_bytes32)dyn_storage"
          },
          {
            "astId": 2230,
            "contract": "contracts/vanaPoolStaking/VanaPoolStakingImplementation.sol:VanaPoolStakingImplementation",
            "label": "_positions",
            "offset": 0,
            "slot": "1",
            "type": "t_mapping(t_bytes32,t_uint256)"
          }
        ],
        "numberOfBytes": "64"
      },
      "t_struct(Staker)4024_storage": {
        "encoding": "inplace",
        "label": "struct IVanaPoolStaking.Staker",
        "members": [
          {
            "astId": 4023,
            "contract": "contracts/vanaPoolStaking/VanaPoolStakingImplementation.sol:VanaPoolStakingImplementation",
            "label": "entities",
            "offset": 0,
            "slot": "0",
            "type": "t_mapping(t_uint256,t_struct(StakerEntity)4018_storage)"
          }
        ],
        "numberOfBytes": "32"
      },
      "t_struct(StakerEntity)4018_storage": {
        "encoding": "inplace",
        "label": "struct IVanaPoolStaking.StakerEntity",
        "members": [
          {
            "astId": 4017,
            "contract": "contracts/vanaPoolStaking/VanaPoolStakingImplementation.sol:VanaPoolStakingImplementation",
            "label": "shares",
            "offset": 0,
            "slot": "0",
            "type": "t_uint256"
          }
        ],
        "numberOfBytes": "32"
      },
      "t_uint256": {
        "encoding": "inplace",
        "label": "uint256",
        "numberOfBytes": "32"
      }
    }
  }
}