{
  "address": "0x150E238c35537715Ec92D551FCE03b756b4bEAf9",
  "abi": [
    {
      "inputs": [],
      "stateMutability": "nonpayable",
      "type": "constructor"
    },
    {
      "inputs": [],
      "name": "AccessControlBadConfirmation",
      "type": "error"
    },
    {
      "inputs": [
        {
          "internalType": "address",
          "name": "account",
          "type": "address"
        },
        {
          "internalType": "bytes32",
          "name": "neededRole",
          "type": "bytes32"
        }
      ],
      "name": "AccessControlUnauthorizedAccount",
      "type": "error"
    },
    {
      "inputs": [
        {
          "internalType": "address",
          "name": "target",
          "type": "address"
        }
      ],
      "name": "AddressEmptyCode",
      "type": "error"
    },
    {
      "inputs": [
        {
          "internalType": "address",
          "name": "implementation",
          "type": "address"
        }
      ],
      "name": "ERC1967InvalidImplementation",
      "type": "error"
    },
    {
      "inputs": [],
      "name": "ERC1967NonPayable",
      "type": "error"
    },
    {
      "inputs": [],
      "name": "EnforcedPause",
      "type": "error"
    },
    {
      "inputs": [],
      "name": "EntityNameAlreadyExists",
      "type": "error"
    },
    {
      "inputs": [],
      "name": "ExpectedPause",
      "type": "error"
    },
    {
      "inputs": [],
      "name": "FailedInnerCall",
      "type": "error"
    },
    {
      "inputs": [],
      "name": "InvalidAddress",
      "type": "error"
    },
    {
      "inputs": [],
      "name": "InvalidEntityId",
      "type": "error"
    },
    {
      "inputs": [],
      "name": "InvalidEntityStatus",
      "type": "error"
    },
    {
      "inputs": [],
      "name": "InvalidInitialization",
      "type": "error"
    },
    {
      "inputs": [],
      "name": "InvalidName",
      "type": "error"
    },
    {
      "inputs": [],
      "name": "InvalidParam",
      "type": "error"
    },
    {
      "inputs": [],
      "name": "InvalidRegistrationStake",
      "type": "error"
    },
    {
      "inputs": [],
      "name": "NameTooShort",
      "type": "error"
    },
    {
      "inputs": [],
      "name": "NotAuthorized",
      "type": "error"
    },
    {
      "inputs": [],
      "name": "NotEntityOwner",
      "type": "error"
    },
    {
      "inputs": [],
      "name": "NotInitializing",
      "type": "error"
    },
    {
      "inputs": [],
      "name": "ReentrancyGuardReentrantCall",
      "type": "error"
    },
    {
      "inputs": [],
      "name": "StakersStillPresent",
      "type": "error"
    },
    {
      "inputs": [],
      "name": "TransferFailed",
      "type": "error"
    },
    {
      "inputs": [],
      "name": "UUPSUnauthorizedCallContext",
      "type": "error"
    },
    {
      "inputs": [
        {
          "internalType": "bytes32",
          "name": "slot",
          "type": "bytes32"
        }
      ],
      "name": "UUPSUnsupportedProxiableUUID",
      "type": "error"
    },
    {
      "anonymous": false,
      "inputs": [
        {
          "indexed": true,
          "internalType": "uint256",
          "name": "entityId",
          "type": "uint256"
        },
        {
          "indexed": false,
          "internalType": "address",
          "name": "ownerAddress",
          "type": "address"
        },
        {
          "indexed": false,
          "internalType": "string",
          "name": "name",
          "type": "string"
        },
        {
          "indexed": false,
          "internalType": "uint256",
          "name": "maxAPY",
          "type": "uint256"
        }
      ],
      "name": "EntityCreated",
      "type": "event"
    },
    {
      "anonymous": false,
      "inputs": [
        {
          "indexed": true,
          "internalType": "uint256",
          "name": "entityId",
          "type": "uint256"
        },
        {
          "indexed": false,
          "internalType": "uint256",
          "name": "newMaxAPY",
          "type": "uint256"
        }
      ],
      "name": "EntityMaxAPYUpdated",
      "type": "event"
    },
    {
      "anonymous": false,
      "inputs": [
        {
          "indexed": true,
          "internalType": "uint256",
          "name": "entityId",
          "type": "uint256"
        },
        {
          "indexed": false,
          "internalType": "enum IVanaPoolEntity.EntityStatus",
          "name": "newStatus",
          "type": "uint8"
        }
      ],
      "name": "EntityStatusUpdated",
      "type": "event"
    },
    {
      "anonymous": false,
      "inputs": [
        {
          "indexed": true,
          "internalType": "uint256",
          "name": "entityId",
          "type": "uint256"
        },
        {
          "indexed": false,
          "internalType": "address",
          "name": "ownerAddress",
          "type": "address"
        },
        {
          "indexed": false,
          "internalType": "string",
          "name": "name",
          "type": "string"
        }
      ],
      "name": "EntityUpdated",
      "type": "event"
    },
    {
      "anonymous": false,
      "inputs": [
        {
          "indexed": false,
          "internalType": "uint64",
          "name": "version",
          "type": "uint64"
        }
      ],
      "name": "Initialized",
      "type": "event"
    },
    {
      "anonymous": false,
      "inputs": [
        {
          "indexed": false,
          "internalType": "address",
          "name": "account",
          "type": "address"
        }
      ],
      "name": "Paused",
      "type": "event"
    },
    {
      "anonymous": false,
      "inputs": [
        {
          "indexed": true,
          "internalType": "uint256",
          "name": "entityId",
          "type": "uint256"
        },
        {
          "indexed": false,
          "internalType": "uint256",
          "name": "amount",
          "type": "uint256"
        }
      ],
      "name": "RewardsAdded",
      "type": "event"
    },
    {
      "anonymous": false,
      "inputs": [
        {
          "indexed": true,
          "internalType": "uint256",
          "name": "entityId",
          "type": "uint256"
        },
        {
          "indexed": false,
          "internalType": "uint256",
          "name": "distributedAmount",
          "type": "uint256"
        }
      ],
      "name": "RewardsProcessed",
      "type": "event"
    },
    {
      "anonymous": false,
      "inputs": [
        {
          "indexed": true,
          "internalType": "bytes32",
          "name": "role",
          "type": "bytes32"
        },
        {
          "indexed": true,
          "internalType": "bytes32",
          "name": "previousAdminRole",
          "type": "bytes32"
        },
        {
          "indexed": true,
          "internalType": "bytes32",
          "name": "newAdminRole",
          "type": "bytes32"
        }
      ],
      "name": "RoleAdminChanged",
      "type": "event"
    },
    {
      "anonymous": false,
      "inputs": [
        {
          "indexed": true,
          "internalType": "bytes32",
          "name": "role",
          "type": "bytes32"
        },
        {
          "indexed": true,
          "internalType": "address",
          "name": "account",
          "type": "address"
        },
        {
          "indexed": true,
          "internalType": "address",
          "name": "sender",
          "type": "address"
        }
      ],
      "name": "RoleGranted",
      "type": "event"
    },
    {
      "anonymous": false,
      "inputs": [
        {
          "indexed": true,
          "internalType": "bytes32",
          "name": "role",
          "type": "bytes32"
        },
        {
          "indexed": true,
          "internalType": "address",
          "name": "account",
          "type": "address"
        },
        {
          "indexed": true,
          "internalType": "address",
          "name": "sender",
          "type": "address"
        }
      ],
      "name": "RoleRevoked",
      "type": "event"
    },
    {
      "anonymous": false,
      "inputs": [
        {
          "indexed": false,
          "internalType": "address",
          "name": "account",
          "type": "address"
        }
      ],
      "name": "Unpaused",
      "type": "event"
    },
    {
      "anonymous": false,
      "inputs": [
        {
          "indexed": true,
          "internalType": "address",
          "name": "implementation",
          "type": "address"
        }
      ],
      "name": "Upgraded",
      "type": "event"
    },
    {
      "inputs": [],
      "name": "DEFAULT_ADMIN_ROLE",
      "outputs": [
        {
          "internalType": "bytes32",
          "name": "",
          "type": "bytes32"
        }
      ],
      "stateMutability": "view",
      "type": "function"
    },
    {
      "inputs": [],
      "name": "MAINTAINER_ROLE",
      "outputs": [
        {
          "internalType": "bytes32",
          "name": "",
          "type": "bytes32"
        }
      ],
      "stateMutability": "view",
      "type": "function"
    },
    {
      "inputs": [],
      "name": "UPGRADE_INTERFACE_VERSION",
      "outputs": [
        {
          "internalType": "string",
          "name": "",
          "type": "string"
        }
      ],
      "stateMutability": "view",
      "type": "function"
    },
    {
      "inputs": [],
      "name": "VANA_POOL_ROLE",
      "outputs": [
        {
          "internalType": "bytes32",
          "name": "",
          "type": "bytes32"
        }
      ],
      "stateMutability": "view",
      "type": "function"
    },
    {
      "inputs": [],
      "name": "activeEntitiesValues",
      "outputs": [
        {
          "internalType": "uint256[]",
          "name": "",
          "type": "uint256[]"
        }
      ],
      "stateMutability": "view",
      "type": "function"
    },
    {
      "inputs": [
        {
          "internalType": "uint256",
          "name": "entityId",
          "type": "uint256"
        }
      ],
      "name": "addRewards",
      "outputs": [],
      "stateMutability": "payable",
      "type": "function"
    },
    {
      "inputs": [
        {
          "internalType": "uint256",
          "name": "entityId",
          "type": "uint256"
        }
      ],
      "name": "calculateContinuousAPYByEntity",
      "outputs": [
        {
          "internalType": "uint256",
          "name": "",
          "type": "uint256"
        }
      ],
      "stateMutability": "view",
      "type": "function"
    },
    {
      "inputs": [
        {
          "internalType": "uint256",
          "name": "exponent",
          "type": "uint256"
        }
      ],
      "name": "calculateExponential",
      "outputs": [
        {
          "internalType": "uint256",
          "name": "r",
          "type": "uint256"
        }
      ],
      "stateMutability": "pure",
      "type": "function"
    },
    {
      "inputs": [
        {
          "internalType": "uint256",
          "name": "principal",
          "type": "uint256"
        },
        {
          "internalType": "uint256",
          "name": "apy",
          "type": "uint256"
        },
        {
          "internalType": "uint256",
          "name": "time",
          "type": "uint256"
        }
      ],
      "name": "calculateYield",
      "outputs": [
        {
          "internalType": "uint256",
          "name": "",
          "type": "uint256"
        }
      ],
      "stateMutability": "pure",
      "type": "function"
    },
    {
      "inputs": [
        {
          "components": [
            {
              "internalType": "address",
              "name": "ownerAddress",
              "type": "address"
            },
            {
              "internalType": "string",
              "name": "name",
              "type": "string"
            }
          ],
          "internalType": "struct IVanaPoolEntity.EntityRegistrationInfo",
          "name": "entityRegistrationInfo",
          "type": "tuple"
        }
      ],
      "name": "createEntity",
      "outputs": [],
      "stateMutability": "payable",
      "type": "function"
    },
    {
      "inputs": [
        {
          "internalType": "uint256",
          "name": "entityId",
          "type": "uint256"
        }
      ],
      "name": "entities",
      "outputs": [
        {
          "components": [
            {
              "internalType": "uint256",
              "name": "entityId",
              "type": "uint256"
            },
            {
              "internalType": "address",
              "name": "ownerAddress",
              "type": "address"
            },
            {
              "internalType": "enum IVanaPoolEntity.EntityStatus",
              "name": "status",
              "type": "uint8"
            },
            {
              "internalType": "string",
              "name": "name",
              "type": "string"
            },
            {
              "internalType": "uint256",
              "name": "maxAPY",
              "type": "uint256"
            },
            {
              "internalType": "uint256",
              "name": "lockedRewardPool",
              "type": "uint256"
            },
            {
              "internalType": "uint256",
              "name": "activeRewardPool",
              "type": "uint256"
            },
            {
              "internalType": "uint256",
              "name": "totalShares",
              "type": "uint256"
            },
            {
              "internalType": "uint256",
              "name": "lastUpdateTimestamp",
              "type": "uint256"
            }
          ],
          "internalType": "struct IVanaPoolEntity.EntityInfo",
          "name": "",
          "type": "tuple"
        }
      ],
      "stateMutability": "view",
      "type": "function"
    },
    {
      "inputs": [],
      "name": "entitiesCount",
      "outputs": [
        {
          "internalType": "uint256",
          "name": "",
          "type": "uint256"
        }
      ],
      "stateMutability": "view",
      "type": "function"
    },
    {
      "inputs": [
        {
          "internalType": "string",
          "name": "entityName",
          "type": "string"
        }
      ],
      "name": "entityByName",
      "outputs": [
        {
          "components": [
            {
              "internalType": "uint256",
              "name": "entityId",
              "type": "uint256"
            },
            {
              "internalType": "address",
              "name": "ownerAddress",
              "type": "address"
            },
            {
              "internalType": "enum IVanaPoolEntity.EntityStatus",
              "name": "status",
              "type": "uint8"
            },
            {
              "internalType": "string",
              "name": "name",
              "type": "string"
            },
            {
              "internalType": "uint256",
              "name": "maxAPY",
              "type": "uint256"
            },
            {
              "internalType": "uint256",
              "name": "lockedRewardPool",
              "type": "uint256"
            },
            {
              "internalType": "uint256",
              "name": "activeRewardPool",
              "type": "uint256"
            },
            {
              "internalType": "uint256",
              "name": "totalShares",
              "type": "uint256"
            },
            {
              "internalType": "uint256",
              "name": "lastUpdateTimestamp",
              "type": "uint256"
            }
          ],
          "internalType": "struct IVanaPoolEntity.EntityInfo",
          "name": "",
          "type": "tuple"
        }
      ],
      "stateMutability": "view",
      "type": "function"
    },
    {
      "inputs": [
        {
          "internalType": "string",
          "name": "entityName",
          "type": "string"
        }
      ],
      "name": "entityNameToId",
      "outputs": [
        {
          "internalType": "uint256",
          "name": "entityId",
          "type": "uint256"
        }
      ],
      "stateMutability": "view",
      "type": "function"
    },
    {
      "inputs": [
        {
          "internalType": "uint256",
          "name": "entityId",
          "type": "uint256"
        }
      ],
      "name": "entityShareToVana",
      "outputs": [
        {
          "internalType": "uint256",
          "name": "",
          "type": "uint256"
        }
      ],
      "stateMutability": "view",
      "type": "function"
    },
    {
      "inputs": [
        {
          "internalType": "bytes32",
          "name": "role",
          "type": "bytes32"
        }
      ],
      "name": "getRoleAdmin",
      "outputs": [
        {
          "internalType": "bytes32",
          "name": "",
          "type": "bytes32"
        }
      ],
      "stateMutability": "view",
      "type": "function"
    },
    {
      "inputs": [
        {
          "internalType": "bytes32",
          "name": "role",
          "type": "bytes32"
        },
        {
          "internalType": "address",
          "name": "account",
          "type": "address"
        }
      ],
      "name": "grantRole",
      "outputs": [],
      "stateMutability": "nonpayable",
      "type": "function"
    },
    {
      "inputs": [
        {
          "internalType": "bytes32",
          "name": "role",
          "type": "bytes32"
        },
        {
          "internalType": "address",
          "name": "account",
          "type": "address"
        }
      ],
      "name": "hasRole",
      "outputs": [
        {
          "internalType": "bool",
          "name": "",
          "type": "bool"
        }
      ],
      "stateMutability": "view",
      "type": "function"
    },
    {
      "inputs": [
        {
          "internalType": "address",
          "name": "ownerAddress",
          "type": "address"
        },
        {
          "internalType": "address",
          "name": "vanaPoolStakingAddress",
          "type": "address"
        },
        {
          "internalType": "uint256",
          "name": "initialMinRegistrationStake",
          "type": "uint256"
        },
        {
          "internalType": "uint256",
          "name": "initialMaxAPYDefault",
          "type": "uint256"
        }
      ],
      "name": "initialize",
      "outputs": [],
      "stateMutability": "nonpayable",
      "type": "function"
    },
    {
      "inputs": [],
      "name": "maxAPYDefault",
      "outputs": [
        {
          "internalType": "uint256",
          "name": "",
          "type": "uint256"
        }
      ],
      "stateMutability": "view",
      "type": "function"
    },
    {
      "inputs": [],
      "name": "minRegistrationStake",
      "outputs": [
        {
          "internalType": "uint256",
          "name": "",
          "type": "uint256"
        }
      ],
      "stateMutability": "view",
      "type": "function"
    },
    {
      "inputs": [],
      "name": "pause",
      "outputs": [],
      "stateMutability": "nonpayable",
      "type": "function"
    },
    {
      "inputs": [],
      "name": "paused",
      "outputs": [
        {
          "internalType": "bool",
          "name": "",
          "type": "bool"
        }
      ],
      "stateMutability": "view",
      "type": "function"
    },
    {
      "inputs": [
        {
          "internalType": "uint256",
          "name": "entityId",
          "type": "uint256"
        }
      ],
      "name": "processRewards",
      "outputs": [],
      "stateMutability": "nonpayable",
      "type": "function"
    },
    {
      "inputs": [],
      "name": "proxiableUUID",
      "outputs": [
        {
          "internalType": "bytes32",
          "name": "",
          "type": "bytes32"
        }
      ],
      "stateMutability": "view",
      "type": "function"
    },
    {
      "inputs": [
        {
          "internalType": "bytes32",
          "name": "role",
          "type": "bytes32"
        },
        {
          "internalType": "address",
          "name": "callerConfirmation",
          "type": "address"
        }
      ],
      "name": "renounceRole",
      "outputs": [],
      "stateMutability": "nonpayable",
      "type": "function"
    },
    {
      "inputs": [
        {
          "internalType": "bytes32",
          "name": "role",
          "type": "bytes32"
        },
        {
          "internalType": "address",
          "name": "account",
          "type": "address"
        }
      ],
      "name": "revokeRole",
      "outputs": [],
      "stateMutability": "nonpayable",
      "type": "function"
    },
    {
      "inputs": [
        {
          "internalType": "bytes4",
          "name": "interfaceId",
          "type": "bytes4"
        }
      ],
      "name": "supportsInterface",
      "outputs": [
        {
          "internalType": "bool",
          "name": "",
          "type": "bool"
        }
      ],
      "stateMutability": "view",
      "type": "function"
    },
    {
      "inputs": [],
      "name": "unpause",
      "outputs": [],
      "stateMutability": "nonpayable",
      "type": "function"
    },
    {
      "inputs": [
        {
          "internalType": "uint256",
          "name": "entityId",
          "type": "uint256"
        },
        {
          "components": [
            {
              "internalType": "address",
              "name": "ownerAddress",
              "type": "address"
            },
            {
              "internalType": "string",
              "name": "name",
              "type": "string"
            }
          ],
          "internalType": "struct IVanaPoolEntity.EntityRegistrationInfo",
          "name": "entityRegistrationInfo",
          "type": "tuple"
        }
      ],
      "name": "updateEntity",
      "outputs": [],
      "stateMutability": "nonpayable",
      "type": "function"
    },
    {
      "inputs": [
        {
          "internalType": "uint256",
          "name": "entityId",
          "type": "uint256"
        },
        {
          "internalType": "uint256",
          "name": "newMaxAPY",
          "type": "uint256"
        }
      ],
      "name": "updateEntityMaxAPY",
      "outputs": [],
      "stateMutability": "nonpayable",
      "type": "function"
    },
    {
      "inputs": [
        {
          "internalType": "uint256",
          "name": "entityId",
          "type": "uint256"
        },
        {
          "internalType": "uint256",
          "name": "shares",
          "type": "uint256"
        },
        {
          "internalType": "uint256",
          "name": "amount",
          "type": "uint256"
        },
        {
          "internalType": "bool",
          "name": "isStake",
          "type": "bool"
        }
      ],
      "name": "updateEntityPool",
      "outputs": [],
      "stateMutability": "nonpayable",
      "type": "function"
    },
    {
      "inputs": [
        {
          "internalType": "uint256",
          "name": "newMinRegistrationStake",
          "type": "uint256"
        }
      ],
      "name": "updateMinRegistrationStake",
      "outputs": [],
      "stateMutability": "nonpayable",
      "type": "function"
    },
    {
      "inputs": [
        {
          "internalType": "address",
          "name": "newVanaPoolStakingAddress",
          "type": "address"
        }
      ],
      "name": "updateVanaPool",
      "outputs": [],
      "stateMutability": "nonpayable",
      "type": "function"
    },
    {
      "inputs": [
        {
          "internalType": "address",
          "name": "newImplementation",
          "type": "address"
        },
        {
          "internalType": "bytes",
          "name": "data",
          "type": "bytes"
        }
      ],
      "name": "upgradeToAndCall",
      "outputs": [],
      "stateMutability": "payable",
      "type": "function"
    },
    {
      "inputs": [],
      "name": "vanaPoolStaking",
      "outputs": [
        {
          "internalType": "contract IVanaPoolStaking",
          "name": "",
          "type": "address"
        }
      ],
      "stateMutability": "view",
      "type": "function"
    },
    {
      "inputs": [
        {
          "internalType": "uint256",
          "name": "entityId",
          "type": "uint256"
        }
      ],
      "name": "vanaToEntityShare",
      "outputs": [
        {
          "internalType": "uint256",
          "name": "",
          "type": "uint256"
        }
      ],
      "stateMutability": "view",
      "type": "function"
    },
    {
      "inputs": [],
      "name": "version",
      "outputs": [
        {
          "internalType": "uint256",
          "name": "",
          "type": "uint256"
        }
      ],
      "stateMutability": "pure",
      "type": "function"
    }
  ],
  "transactionHash": "0xf0ab7c1296333c1fcd6e4bb452b9fb92040d8509f27cd1c60284bc53147251e0",
  "args": [],
  "numDeployments": 2,
  "solcInputHash": "77ec1ac1bc03c26c4ac599b9845b003c",
  "bytecode": "0x60a0604052306080523480156200001557600080fd5b506200002062000026565b620000da565b7ff0c57e16840df040f15088dc2f81fe391c3923bec73e23a9662efc9c229c6a00805468010000000000000000900460ff1615620000775760405163f92ee8a960e01b815260040160405180910390fd5b80546001600160401b0390811614620000d75780546001600160401b0319166001600160401b0390811782556040519081527fc7f505b2f371ae2175ee4913f4499e1f2633a7b5936321eed1cdaeb6115181d29060200160405180910390a15b50565b608051612b286200010460003960008181611c1701528181611c400152611d7b0152612b286000f3fe6080604052600436106101b55760003560e01c806301ffc9a7146101ba578063035c2481146101ef5780630d6c032b1461021157806320f66e4f14610257578063221a5c1b146102775780632319b25614610297578063248a9ca3146102b75780632f2ff15d146102d757806336568abe146102f75780633f4ba83a14610317578063449de32c1461032c5780634f1ef2861461034c57806352d1902d1461035f57806354d3d52a1461037457806354fd4d501461039457806356a46902146103a85780635c975abb146103ca57806361f927a1146103df5780636331883b1461040157806368bd646a1461042e5780638456cb591461045b57806391d1485414610470578063a1a4239a14610490578063a217fddf146104b0578063ad3cb1cc146104c5578063b29c41da14610503578063bd02925214610523578063beceed3914610539578063c04f712f1461054c578063cf7beec314610562578063d0a08a6c14610575578063d547741f14610595578063d55b1981146105b5578063dccca299146105d5578063de230a66146105eb578063e6ef675b1461060b578063eb990c591461062b578063f87422541461064b575b600080fd5b3480156101c657600080fd5b506101da6101d5366004612229565b61066d565b60405190151581526020015b60405180910390f35b3480156101fb57600080fd5b5061020f61020a36600461226b565b6106a4565b005b34801561021d57600080fd5b5061024961022c36600461233c565b805160208183018101805160058252928201919093012091525481565b6040519081526020016101e6565b34801561026357600080fd5b5061020f610272366004612384565b610955565b34801561028357600080fd5b50610249610292366004612384565b610973565b3480156102a357600080fd5b506102496102b236600461239d565b610b24565b3480156102c357600080fd5b506102496102d2366004612384565b610b92565b3480156102e357600080fd5b5061020f6102f23660046123de565b610bb2565b34801561030357600080fd5b5061020f6103123660046123de565b610bd4565b34801561032357600080fd5b5061020f610c0c565b34801561033857600080fd5b5061020f61034736600461240e565b610c2f565b61020f61035a366004612430565b610cde565b34801561036b57600080fd5b50610249610cf9565b34801561038057600080fd5b5061020f61038f366004612489565b610d16565b3480156103a057600080fd5b506001610249565b3480156103b457600080fd5b506103bd610db7565b6040516101e691906124a6565b3480156103d657600080fd5b506101da610dc8565b3480156103eb57600080fd5b50610249600080516020612ab383398151915281565b34801561040d57600080fd5b5061042161041c366004612384565b610ddd565b6040516101e69190612572565b34801561043a57600080fd5b5060005461044e906001600160a01b031681565b6040516101e6919061260b565b34801561046757600080fd5b5061020f610f08565b34801561047c57600080fd5b506101da61048b3660046123de565b610f28565b34801561049c57600080fd5b506102496104ab366004612384565b610f5e565b3480156104bc57600080fd5b50610249600081565b3480156104d157600080fd5b506104f6604051806040016040528060058152602001640352e302e360dc1b81525081565b6040516101e6919061261f565b34801561050f57600080fd5b5061024961051e366004612384565b610faa565b34801561052f57600080fd5b5061024960035481565b61020f610547366004612384565b610ffe565b34801561055857600080fd5b5061024960015481565b61020f610570366004612632565b6111aa565b34801561058157600080fd5b50610249610590366004612384565b611576565b3480156105a157600080fd5b5061020f6105b03660046123de565b6115b7565b3480156105c157600080fd5b506104216105d036600461233c565b6115d3565b3480156105e157600080fd5b5061024960025481565b3480156105f757600080fd5b5061020f610606366004612666565b611607565b34801561061757600080fd5b5061020f610626366004612384565b611724565b34801561063757600080fd5b5061020f6106463660046126ac565b61182e565b34801561065757600080fd5b50610249600080516020612ad383398151915281565b60006001600160e01b03198216637965db0b60e01b148061069e57506301ffc9a760e01b6001600160e01b03198316145b92915050565b6106ac6119a3565b6106b46119cb565b60008281526004602052604090205482906001600160a01b031633146106ed5760405163fef2862960e01b815260040160405180910390fd5b60006106fc6020840184612489565b6001600160a01b0316036107235760405163e6c4247b60e01b815260040160405180910390fd5b600083815260046020526040902060018154600160a01b900460ff166002811115610750576107506124ea565b1461076e5760405163ad0d278b60e01b815260040160405180910390fd5b8060010160405161077f9190612799565b60405190819003902061079560208501856127a5565b6040516107a39291906127f2565b6040518091039020146108cc5760056107bf60208501856127a5565b6040516107cd9291906127f2565b908152602001604051809103902054600014158061083257506108306107f660208501856127a5565b8080601f016020809104026020016040519081016040528093929190818152602001838380828437600092019190915250611a0192505050565b155b156108505760405163430f13b360e01b815260040160405180910390fd5b60006005826001016040516108659190612799565b90815260200160405180910390208190555083600584806020019061088a91906127a5565b6040516108989291906127f2565b9081526020016040518091039020819055508280602001906108ba91906127a5565b60018301916108ca91908361284a565b505b6108d96020840184612489565b81546001600160a01b0319166001600160a01b0391909116178155837fc18055339d3481a334f2bf553f5687d28178158490c8ad81a86a4ab03adc34706109236020860186612489565b61093060208701876127a5565b60405161093f93929190612933565b60405180910390a25050610951611a5d565b5050565b600080516020612ad383398151915261096d81611a6e565b50600255565b600081680248ce36a70cb26b3e1981136109905750600092915050565b680755bf798b4a1bf1e581126109dc5760405162461bcd60e51b815260206004820152600c60248201526b4558505f4f564552464c4f5760a01b60448201526064015b60405180910390fd5b6503782dace9d9604e82901b059050600060606bb17217f7d1cf79abc9e3b39883821b056001605f1b01901d6bb17217f7d1cf79abc9e3b39881029092036c240c330e9fb2d9cbaf0fd5aafb1981018102606090811d6d0277594991cfc85f6e2461837cd9018202811d6d1a521255e34f6a5061b25ef1c9c319018202811d6db1bbb201f443cf962f1a1d3db4a5018202811d6e02c72388d9f74f51a9331fed693f1419018202811d6e05180bb14799ab47a8a8cb2a527d57016d02d16720577bd19bf614176fe9ea6c10fe68e7fd37d0007b713f765084018402831d9081019084016d01d3967ed30fc4f89c02bab5708119010290911d6e0587f503bb6ea29d25fcb740196450019091026d360d7aeea093263ecc6e0ecb291760621b010574029d9dc38563c32e5c2f6dc192ee70ef65f9978af30260c3929092039190911c9392505050565b600080610b3260648561296e565b905060006301e13380610b458584612990565b610b4f919061296e565b90506000610b5c82610973565b9050670de0b6b3a7640000610b7181836129a7565b610b7b9089612990565b610b85919061296e565b93505050505b9392505050565b600080610b9d611a78565b60009384526020525050604090206001015490565b610bbb82610b92565b610bc481611a6e565b610bce8383611a9c565b50505050565b6001600160a01b0381163314610bfd5760405163334bd91960e11b815260040160405180910390fd5b610c078282611b3d565b505050565b600080516020612ad3833981519152610c2481611a6e565b610c2c611bb5565b50565b600080516020612ad3833981519152610c4781611a6e565b600083815260046020526040902060018154600160a01b900460ff166002811115610c7457610c746124ea565b14610c925760405163ad0d278b60e01b815260040160405180910390fd5b610c9b84611724565b6002810183905560405183815284907f66f9a9bffa3173cfd88573ba6e37b71c50501deae5c916c376815859973f7e47906020015b60405180910390a250505050565b610ce6611c0c565b610cef82611cb1565b6109518282611cbc565b6000610d03611d70565b50600080516020612a9383398151915290565b600080516020612ad3833981519152610d2e81611a6e565b6001600160a01b038216610d555760405163e6c4247b60e01b815260040160405180910390fd5b600054610d7a90600080516020612ab3833981519152906001600160a01b0316611b3d565b50610d93600080516020612ab383398151915283611a9c565b5050600080546001600160a01b0319166001600160a01b0392909216919091179055565b6060610dc36006611db9565b905090565b600080610dd3611dc6565b5460ff1692915050565b610de56121dd565b60008281526004602090815260409182902082516101208101845285815281546001600160a01b038116938201939093529092909190820190600160a01b900460ff166002811115610e3957610e396124ea565b8152602001826001018054610e4d906126f2565b80601f0160208091040260200160405190810160405280929190818152602001828054610e79906126f2565b8015610ec65780601f10610e9b57610100808354040283529160200191610ec6565b820191906000526020600020905b815481529060010190602001808311610ea957829003601f168201915b50505050508152602001826002015481526020018260030154815260200182600401548152602001826005015481526020018260060154815250915050919050565b600080516020612ad3833981519152610f2081611a6e565b610c2c611dea565b600080610f33611a78565b6000948552602090815260408086206001600160a01b03959095168652939052505090205460ff1690565b6000818152600460208190526040822090810154610f8457670de0b6b3a7640000610b8b565b60048101546005820154610fa090670de0b6b3a7640000612990565b610b8b919061296e565b6000818152600460205260408120600201548190610fca9060649061296e565b90506000610fd782610973565b9050610feb670de0b6b3a7640000826129a7565b610ff6906064612990565b949350505050565b6110066119a3565b600081815260046020526040902060018154600160a01b900460ff166002811115611033576110336124ea565b146110515760405163ad0d278b60e01b815260040160405180910390fd5b3460000361107257604051633494a40d60e21b815260040160405180910390fd5b3481600301600082825461108691906129ba565b909155505060008054604080516339e9ade160e21b815290516001600160a01b039092169163e7a6b784916004808201926020929091908290030181865afa1580156110d6573d6000803e3d6000fd5b505050506040513d601f19601f820116820180604052508101906110fa91906129cd565b6001600160a01b03163460405160006040518083038185875af1925050503d8060008114611144576040519150601f19603f3d011682016040523d82523d6000602084013e611149565b606091505b505090508061116b576040516312171d8360e31b815260040160405180910390fd5b827f40df43107e8b4d467127964bd3c966687c0a6a39aaede970755397fd09535e983460405161119d91815260200190565b60405180910390a2505050565b6111b26119a3565b6111ba6119cb565b600080516020612ad38339815191526111d281611a6e565b60006111e16020840184612489565b6001600160a01b0316036112085760405163e6c4247b60e01b815260040160405180910390fd5b600561121760208401846127a5565b6040516112259291906127f2565b9081526020016040518091039020546000141580611250575061124e6107f660208401846127a5565b155b1561126e5760405163430f13b360e01b815260040160405180910390fd5b6002543414611290576040516307e5667760e31b815260040160405180910390fd5b600034905060006001600081546112a6906129ea565b918290555060008181526004602090815260409091209192506112cb90860186612489565b81546001600160a01b0319166001600160a01b03919091161781556112f360208601866127a5565b600183019161130391908361284a565b50805460ff60a01b1916600160a01b178155600354600282015542600682015581600561133360208801886127a5565b6040516113419291906127f2565b9081526040519081900360200190205561135c600683611e31565b5060058101839055600481018390556000546001600160a01b0316639828ce868361138a6020890189612489565b6040516001600160e01b031960e085901b16815260048101929092526001600160a01b0316602482015260448101869052606401600060405180830381600087803b1580156113d857600080fd5b505af11580156113ec573d6000803e3d6000fd5b5050505060008060009054906101000a90046001600160a01b03166001600160a01b031663e7a6b7846040518163ffffffff1660e01b8152600401602060405180830381865afa158015611444573d6000803e3d6000fd5b505050506040513d601f19601f8201168201806040525081019061146891906129cd565b6001600160a01b03168460405160006040518083038185875af1925050503d80600081146114b2576040519150601f19603f3d011682016040523d82523d6000602084013e6114b7565b606091505b50509050806114d9576040516312171d8360e31b815260040160405180910390fd5b827fd568f486da04b49b70afcf7b829e7f9e8963338430f4e4befd65129fdc993bf56115086020890189612489565b61151560208a018a6127a5565b6003546040516115289493929190612a03565b60405180910390a2827fa7ab1230134c09caa1e7d69e394e58c9774afb4c08d4a13209d3a74a72e0e39460016040516115619190612a39565b60405180910390a25050505050610c2c611a5d565b6000818152600460205260408120600581015461159b57670de0b6b3a7640000610b8b565b60058101546004820154610fa090670de0b6b3a7640000612990565b6115c082610b92565b6115c981611a6e565b610bce8383611b3d565b6115db6121dd565b60006005836040516115ed9190612a47565b9081526020016040518091039020549050610b8b81610ddd565b61160f6119a3565b600080516020612ab383398151915261162781611a6e565b61163f600080516020612ab383398151915233610f28565b61165c5760405163ea8e4eb560e01b815260040160405180910390fd5b600085815260046020526040902060018154600160a01b900460ff166002811115611689576116896124ea565b146116a75760405163ad0d278b60e01b815260040160405180910390fd5b82156116e757848160050160008282546116c191906129ba565b92505081905550838160040160008282546116dc91906129ba565b9091555061171c9050565b848160050160008282546116fb91906129a7565b925050819055508381600401600082825461171691906129a7565b90915550505b505050505050565b61172c6119a3565b600081815260046020526040902060018154600160a01b900460ff166002811115611759576117596124ea565b146117775760405163ad0d278b60e01b815260040160405180910390fd5b600081600601544261178991906129a7565b90508060000361179857505050565b60006117ad8360040154846002015484610b24565b905082600301548111156117c2575060038201545b808360030160008282546117d691906129a7565b92505081905550808360040160008282546117f191906129ba565b909155505042600684015560405181815284907f1bace2b9ccc89d67d840a89b412ec371627fdba942715a6226aec894c66f4ad290602001610cd0565b6000611838611e3d565b805490915060ff600160401b82041615906001600160401b031660008115801561185f5750825b90506000826001600160401b0316600114801561187b5750303b155b905081158015611889575080155b156118a75760405163f92ee8a960e01b815260040160405180910390fd5b84546001600160401b031916600117855583156118d057845460ff60401b1916600160401b1785555b6118d8611e61565b6118e0611e61565b6118e8611e69565b6118f0611e79565b600080546001600160a01b0319166001600160a01b038a161781556002889055600387905561191f908a611a9c565b50611938600080516020612ad38339815191528a611a9c565b50611951600080516020612ab383398151915289611a9c565b50831561199857845460ff60401b19168555604051600181527fc7f505b2f371ae2175ee4913f4499e1f2633a7b5936321eed1cdaeb6115181d29060200160405180910390a15b505050505050505050565b6119ab610dc8565b156119c95760405163d93c066560e01b815260040160405180910390fd5b565b60006119d5611e89565b8054909150600119016119fb57604051633ee5aeb560e01b815260040160405180910390fd5b60029055565b60008181805b8251811015611a5257828181518110611a2257611a22612a63565b6020910101516001600160f81b031916600160fd1b14611a4a5781611a46816129ea565b9250505b600101611a07565b506003109392505050565b6000611a67611e89565b6001905550565b610c2c8133611ead565b7f02dd7bc7dec4dceedda775e58dd541e08a116c6c53815c0bd028192f7b62680090565b600080611aa7611a78565b9050611ab38484610f28565b611b33576000848152602082815260408083206001600160a01b03871684529091529020805460ff19166001179055611ae93390565b6001600160a01b0316836001600160a01b0316857f2f8788117e7eff1d82e926ec794901d17c78024a50270940304540a733656f0d60405160405180910390a4600191505061069e565b600091505061069e565b600080611b48611a78565b9050611b548484610f28565b15611b33576000848152602082815260408083206001600160a01b0387168085529252808320805460ff1916905551339287917ff6391f5c32d9c69d2a47ea670b442974b53935d1edc7fd64eb21e047a839171b9190a4600191505061069e565b611bbd611ee6565b6000611bc7611dc6565b805460ff1916815590507f5db9ee0a495bf2e6ff9c91a7834c1ba4fdd244a5e8aa4e537bd38aeae4b073aa335b604051611c01919061260b565b60405180910390a150565b306001600160a01b037f0000000000000000000000000000000000000000000000000000000000000000161480611c9357507f00000000000000000000000000000000000000000000000000000000000000006001600160a01b0316611c87600080516020612a93833981519152546001600160a01b031690565b6001600160a01b031614155b156119c95760405163703e46dd60e11b815260040160405180910390fd5b600061095181611a6e565b816001600160a01b03166352d1902d6040518163ffffffff1660e01b8152600401602060405180830381865afa925050508015611d16575060408051601f3d908101601f19168201909252611d1391810190612a79565b60015b611d355781604051634c9c8ce360e01b81526004016109d3919061260b565b600080516020612a938339815191528114611d6657604051632a87526960e21b8152600481018290526024016109d3565b610c078383611f0b565b306001600160a01b037f000000000000000000000000000000000000000000000000000000000000000016146119c95760405163703e46dd60e11b815260040160405180910390fd5b60606000610b8b83611f61565b7fcd5ed15c6e187e77e9aee88184c21f4f2182ab5827cb3b7e07fbedcd63f0330090565b611df26119a3565b6000611dfc611dc6565b805460ff1916600117815590507f62e78cea01bee320cd4e420270b5ea74000d11b0c9f74754ebdbfc544b05a258611bf43390565b6000610b8b8383611fbd565b7ff0c57e16840df040f15088dc2f81fe391c3923bec73e23a9662efc9c229c6a0090565b6119c961200c565b611e7161200c565b6119c9612031565b611e8161200c565b6119c9612039565b7f9b779b17422d0df92223018b32b4d1fa46e071723d6817e2486d003becc55f0090565b611eb78282610f28565b6109515760405163e2517d3f60e01b81526001600160a01b0382166004820152602481018390526044016109d3565b611eee610dc8565b6119c957604051638dfc202b60e01b815260040160405180910390fd5b611f1482612056565b6040516001600160a01b038316907fbc7cd75a20ee27fd9adebab32041f755214dbc6bffa90cc0225b39da2e5c2d3b90600090a2805115611f5957610c0782826120b2565b610951612128565b606081600001805480602002602001604051908101604052809291908181526020018280548015611fb157602002820191906000526020600020905b815481526020019060010190808311611f9d575b50505050509050919050565b60008181526001830160205260408120546120045750815460018181018455600084815260208082209093018490558454848252828601909352604090209190915561069e565b50600061069e565b612014612147565b6119c957604051631afcd79f60e31b815260040160405180910390fd5b611a5d61200c565b61204161200c565b600061204b611dc6565b805460ff1916905550565b806001600160a01b03163b6000036120835780604051634c9c8ce360e01b81526004016109d3919061260b565b600080516020612a9383398151915280546001600160a01b0319166001600160a01b0392909216919091179055565b6060600080846001600160a01b0316846040516120cf9190612a47565b600060405180830381855af49150503d806000811461210a576040519150601f19603f3d011682016040523d82523d6000602084013e61210f565b606091505b509150915061211f858383612161565b95945050505050565b34156119c95760405163b398979f60e01b815260040160405180910390fd5b6000612151611e3d565b54600160401b900460ff16919050565b60608261217657612171826121b4565b610b8b565b815115801561218d57506001600160a01b0384163b155b156121ad5783604051639996b31560e01b81526004016109d3919061260b565b5080610b8b565b8051156121c45780518082602001fd5b604051630a12f52160e11b815260040160405180910390fd5b6040805161012081018252600080825260208201819052909182019081526020016060815260200160008152602001600081526020016000815260200160008152602001600081525090565b60006020828403121561223b57600080fd5b81356001600160e01b031981168114610b8b57600080fd5b60006040828403121561226557600080fd5b50919050565b6000806040838503121561227e57600080fd5b8235915060208301356001600160401b0381111561229b57600080fd5b6122a785828601612253565b9150509250929050565b634e487b7160e01b600052604160045260246000fd5b60006001600160401b03808411156122e1576122e16122b1565b604051601f8501601f19908116603f01168101908282118183101715612309576123096122b1565b8160405280935085815286868601111561232257600080fd5b858560208301376000602087830101525050509392505050565b60006020828403121561234e57600080fd5b81356001600160401b0381111561236457600080fd5b8201601f8101841361237557600080fd5b610ff6848235602084016122c7565b60006020828403121561239657600080fd5b5035919050565b6000806000606084860312156123b257600080fd5b505081359360208301359350604090920135919050565b6001600160a01b0381168114610c2c57600080fd5b600080604083850312156123f157600080fd5b823591506020830135612403816123c9565b809150509250929050565b6000806040838503121561242157600080fd5b50508035926020909101359150565b6000806040838503121561244357600080fd5b823561244e816123c9565b915060208301356001600160401b0381111561246957600080fd5b8301601f8101851361247a57600080fd5b6122a7858235602084016122c7565b60006020828403121561249b57600080fd5b8135610b8b816123c9565b6020808252825182820181905260009190848201906040850190845b818110156124de578351835292840192918401916001016124c2565b50909695505050505050565b634e487b7160e01b600052602160045260246000fd5b6003811061251e57634e487b7160e01b600052602160045260246000fd5b9052565b60005b8381101561253d578181015183820152602001612525565b50506000910152565b6000815180845261255e816020860160208601612522565b601f01601f19169290920160200192915050565b60208152815160208201526000602083015161259960408401826001600160a01b03169052565b5060408301516125ac6060840182612500565b5060608301516101208060808501526125c9610140850183612546565b9150608085015160a085015260a085015160c085015260c085015160e085015260e0850151610100818187015280870151838701525050508091505092915050565b6001600160a01b0391909116815260200190565b602081526000610b8b6020830184612546565b60006020828403121561264457600080fd5b81356001600160401b0381111561265a57600080fd5b610ff684828501612253565b6000806000806080858703121561267c57600080fd5b843593506020850135925060408501359150606085013580151581146126a157600080fd5b939692955090935050565b600080600080608085870312156126c257600080fd5b84356126cd816123c9565b935060208501356126dd816123c9565b93969395505050506040820135916060013590565b600181811c9082168061270657607f821691505b60208210810361226557634e487b7160e01b600052602260045260246000fd5b60008154612733816126f2565b6001828116801561274b57600181146127605761278f565b60ff198416875282151583028701945061278f565b8560005260208060002060005b858110156127865781548a82015290840190820161276d565b50505082870194505b5050505092915050565b6000610b8b8284612726565b6000808335601e198436030181126127bc57600080fd5b8301803591506001600160401b038211156127d657600080fd5b6020019150368190038213156127eb57600080fd5b9250929050565b8183823760009101908152919050565b601f821115610c07576000816000526020600020601f850160051c8101602086101561282b5750805b601f850160051c820191505b8181101561171c57828155600101612837565b6001600160401b03831115612861576128616122b1565b6128758361286f83546126f2565b83612802565b6000601f8411600181146128a957600085156128915750838201355b600019600387901b1c1916600186901b178355612903565b600083815260209020601f19861690835b828110156128da57868501358255602094850194600190920191016128ba565b50868210156128f75760001960f88860031b161c19848701351681555b505060018560011b0183555b5050505050565b81835281816020850137506000828201602090810191909152601f909101601f19169091010190565b6001600160a01b038416815260406020820181905260009061211f908301848661290a565b634e487b7160e01b600052601160045260246000fd5b60008261298b57634e487b7160e01b600052601260045260246000fd5b500490565b808202811582820484141761069e5761069e612958565b8181038181111561069e5761069e612958565b8082018082111561069e5761069e612958565b6000602082840312156129df57600080fd5b8151610b8b816123c9565b6000600182016129fc576129fc612958565b5060010190565b6001600160a01b0385168152606060208201819052600090612a28908301858761290a565b905082604083015295945050505050565b6020810161069e8284612500565b60008251612a59818460208701612522565b9190910192915050565b634e487b7160e01b600052603260045260246000fd5b600060208284031215612a8b57600080fd5b505191905056fe360894a13ba1a3210667c828492db98dca3e2076cc3735a920a3ca505d382bbc6148e2a0228967e62cb0646b289b47d74a00aeee1b1387e9d6aa956c8edcf065339759585899103d2ace64958e37e18ccb0504652c81d4a1b8aa80fe2126ab95a2646970667358221220702d2422b51c9401b5709776507db1ac9cd0b22fe8435d80f5257d4a9bf72b9164736f6c63430008180033",
  "devdoc": {
    "errors": {
      "AccessControlBadConfirmation()": [
        {
          "details": "The caller of a function is not the expected one. NOTE: Don't confuse with {AccessControlUnauthorizedAccount}."
        }
      ],
      "AccessControlUnauthorizedAccount(address,bytes32)": [
        {
          "details": "The `account` is missing a role."
        }
      ],
      "AddressEmptyCode(address)": [
        {
          "details": "There's no code at `target` (it is not a contract)."
        }
      ],
      "ERC1967InvalidImplementation(address)": [
        {
          "details": "The `implementation` of the proxy is invalid."
        }
      ],
      "ERC1967NonPayable()": [
        {
          "details": "An upgrade function sees `msg.value > 0` that may be lost."
        }
      ],
      "EnforcedPause()": [
        {
          "details": "The operation failed because the contract is paused."
        }
      ],
      "ExpectedPause()": [
        {
          "details": "The operation failed because the contract is not paused."
        }
      ],
      "FailedInnerCall()": [
        {
          "details": "A call to an address target failed. The target may have reverted."
        }
      ],
      "InvalidInitialization()": [
        {
          "details": "The contract is already initialized."
        }
      ],
      "NotInitializing()": [
        {
          "details": "The contract is not initializing."
        }
      ],
      "ReentrancyGuardReentrantCall()": [
        {
          "details": "Unauthorized reentrant call."
        }
      ],
      "UUPSUnauthorizedCallContext()": [
        {
          "details": "The call is from an unauthorized context."
        }
      ],
      "UUPSUnsupportedProxiableUUID(bytes32)": [
        {
          "details": "The storage `slot` is unsupported as a UUID."
        }
      ]
    },
    "events": {
      "Initialized(uint64)": {
        "details": "Triggered when the contract has been initialized or reinitialized."
      },
      "Paused(address)": {
        "details": "Emitted when the pause is triggered by `account`."
      },
      "RoleAdminChanged(bytes32,bytes32,bytes32)": {
        "details": "Emitted when `newAdminRole` is set as ``role``'s admin role, replacing `previousAdminRole` `DEFAULT_ADMIN_ROLE` is the starting admin for all roles, despite {RoleAdminChanged} not being emitted signaling this."
      },
      "RoleGranted(bytes32,address,address)": {
        "details": "Emitted when `account` is granted `role`. `sender` is the account that originated the contract call, an admin role bearer except when using {AccessControl-_setupRole}."
      },
      "RoleRevoked(bytes32,address,address)": {
        "details": "Emitted when `account` is revoked `role`. `sender` is the account that originated the contract call:   - if using `revokeRole`, it is the admin role bearer   - if using `renounceRole`, it is the role bearer (i.e. `account`)"
      },
      "Unpaused(address)": {
        "details": "Emitted when the pause is lifted by `account`."
      },
      "Upgraded(address)": {
        "details": "Emitted when the implementation is upgraded."
      }
    },
    "kind": "dev",
    "methods": {
      "activeEntitiesValues()": {
        "returns": {
          "_0": "uint256[] Array of active entity IDs"
        }
      },
      "addRewards(uint256)": {
        "params": {
          "entityId": "The entity ID to add rewards to"
        }
      },
      "calculateContinuousAPYByEntity(uint256)": {
        "details": "Calculates continuously compounded APY for an entity",
        "params": {
          "entityId": "The entity ID"
        },
        "returns": {
          "_0": "The compounded APY"
        }
      },
      "calculateExponential(uint256)": {
        "details": "Approximates e^x using Pad approximation This function is a copy of wadExp from  solmate/utils/SignedWadMath.sol",
        "params": {
          "exponent": "The exponent multiplied by 1e18"
        },
        "returns": {
          "r": " = e^x multiplied by 1e18"
        }
      },
      "calculateYield(uint256,uint256,uint256)": {
        "details": "Calculates continuously compounded APY",
        "params": {
          "apy": "The annual interest rate where 6% = 6e18",
          "principal": "The initial amount",
          "time": "Time in seconds for which the interest is calculated"
        },
        "returns": {
          "_0": "The final amount after applying continuous compounding"
        }
      },
      "constructor": {
        "custom:oz-upgrades-unsafe-allow": "constructor"
      },
      "createEntity((address,string))": {
        "params": {
          "entityRegistrationInfo": "The entity registration information"
        }
      },
      "entities(uint256)": {
        "params": {
          "entityId": "The ID of the entity"
        },
        "returns": {
          "_0": "Entity information"
        }
      },
      "entityByName(string)": {
        "params": {
          "entityName": "The name of the entity"
        },
        "returns": {
          "_0": "Entity information"
        }
      },
      "entityShareToVana(uint256)": {
        "params": {
          "entityId": "ID of the entity"
        },
        "returns": {
          "_0": "uint256                          corresponding VANA value"
        }
      },
      "getRoleAdmin(bytes32)": {
        "details": "Returns the admin role that controls `role`. See {grantRole} and {revokeRole}. To change a role's admin, use {_setRoleAdmin}."
      },
      "grantRole(bytes32,address)": {
        "details": "Grants `role` to `account`. If `account` had not been already granted `role`, emits a {RoleGranted} event. Requirements: - the caller must have ``role``'s admin role. May emit a {RoleGranted} event."
      },
      "hasRole(bytes32,address)": {
        "details": "Returns `true` if `account` has been granted `role`."
      },
      "initialize(address,address,uint256,uint256)": {
        "params": {
          "ownerAddress": "The admin address",
          "vanaPoolStakingAddress": "The address of the VanaPoolStaking contract"
        }
      },
      "paused()": {
        "details": "Returns true if the contract is paused, and false otherwise."
      },
      "processRewards(uint256)": {
        "params": {
          "entityId": "The entity ID to process rewards for"
        }
      },
      "proxiableUUID()": {
        "details": "Implementation of the ERC1822 {proxiableUUID} function. This returns the storage slot used by the implementation. It is used to validate the implementation's compatibility when performing an upgrade. IMPORTANT: A proxy pointing at a proxiable contract should not be considered proxiable itself, because this risks bricking a proxy that upgrades to it, by delegating to itself until out of gas. Thus it is critical that this function revert if invoked through a proxy. This is guaranteed by the `notDelegated` modifier."
      },
      "renounceRole(bytes32,address)": {
        "details": "Revokes `role` from the calling account. Roles are often managed via {grantRole} and {revokeRole}: this function's purpose is to provide a mechanism for accounts to lose their privileges if they are compromised (such as when a trusted device is misplaced). If the calling account had been revoked `role`, emits a {RoleRevoked} event. Requirements: - the caller must be `callerConfirmation`. May emit a {RoleRevoked} event."
      },
      "revokeRole(bytes32,address)": {
        "details": "Revokes `role` from `account`. If `account` had been granted `role`, emits a {RoleRevoked} event. Requirements: - the caller must have ``role``'s admin role. May emit a {RoleRevoked} event."
      },
      "supportsInterface(bytes4)": {
        "details": "See {IERC165-supportsInterface}."
      },
      "updateEntity(uint256,(address,string))": {
        "params": {
          "entityId": "The ID of the entity",
          "entityRegistrationInfo": "The updated entity information"
        }
      },
      "updateEntityMaxAPY(uint256,uint256)": {
        "params": {
          "entityId": "The entity ID",
          "newMaxAPY": "The new max APY in basis points (1% = 100)"
        }
      },
      "updateEntityPool(uint256,uint256,uint256,bool)": {
        "params": {
          "amount": "The amount of VANA to add or remove",
          "entityId": "The entity ID",
          "isStake": "True if staking, false if unstaking",
          "shares": "The amount of shares to add or remove"
        }
      },
      "updateMinRegistrationStake(uint256)": {
        "params": {
          "newMinRegistrationStake": "The new minimum registration stake"
        }
      },
      "updateVanaPool(address)": {
        "params": {
          "newVanaPoolStakingAddress": "The new VanaPoolStaking contract address"
        }
      },
      "upgradeToAndCall(address,bytes)": {
        "custom:oz-upgrades-unsafe-allow-reachable": "delegatecall",
        "details": "Upgrade the implementation of the proxy to `newImplementation`, and subsequently execute the function call encoded in `data`. Calls {_authorizeUpgrade}. Emits an {Upgraded} event."
      },
      "vanaToEntityShare(uint256)": {
        "params": {
          "entityId": "ID of the entity"
        },
        "returns": {
          "_0": "uint256                          corresponding shares amount"
        }
      }
    },
    "version": 1
  },
  "userdoc": {
    "kind": "user",
    "methods": {
      "activeEntitiesValues()": {
        "notice": "Get all active entities"
      },
      "addRewards(uint256)": {
        "notice": "Add rewards to an entity's locked reward pool"
      },
      "createEntity((address,string))": {
        "notice": "Creates a new entity"
      },
      "entities(uint256)": {
        "notice": "Gets entity information"
      },
      "entityByName(string)": {
        "notice": "Gets entity information by name"
      },
      "entityShareToVana(uint256)": {
        "notice": "Convert share to VANA for a specific entity"
      },
      "initialize(address,address,uint256,uint256)": {
        "notice": "Initializes the contract"
      },
      "pause()": {
        "notice": "Pauses the contract"
      },
      "processRewards(uint256)": {
        "notice": "Process rewards for an entity"
      },
      "unpause()": {
        "notice": "Unpauses the contract"
      },
      "updateEntity(uint256,(address,string))": {
        "notice": "Updates an entity"
      },
      "updateEntityMaxAPY(uint256,uint256)": {
        "notice": "Update an entity's max APY"
      },
      "updateEntityPool(uint256,uint256,uint256,bool)": {
        "notice": "Update entity stake information - can only be called by VanaPoolStaking"
      },
      "updateMinRegistrationStake(uint256)": {
        "notice": "Updates the minimum registration stake"
      },
      "updateVanaPool(address)": {
        "notice": "Updates the VanaPoolStaking contract address"
      },
      "vanaToEntityShare(uint256)": {
        "notice": "Convert VANA to shares for a specific entity"
      },
      "version()": {
        "notice": "Returns the version of the contract"
      }
    },
    "version": 1
  },
  "storageLayout": {
    "storage": [
      {
        "astId": 10603,
        "contract": "contracts/vanaPoolEntity/VanaPoolEntityImplementation.sol:VanaPoolEntityImplementation",
        "label": "vanaPoolStaking",
        "offset": 0,
        "slot": "0",
        "type": "t_contract(IVanaPoolStaking)11467"
      },
      {
        "astId": 10606,
        "contract": "contracts/vanaPoolEntity/VanaPoolEntityImplementation.sol:VanaPoolEntityImplementation",
        "label": "entitiesCount",
        "offset": 0,
        "slot": "1",
        "type": "t_uint256"
      },
      {
        "astId": 10609,
        "contract": "contracts/vanaPoolEntity/VanaPoolEntityImplementation.sol:VanaPoolEntityImplementation",
        "label": "minRegistrationStake",
        "offset": 0,
        "slot": "2",
        "type": "t_uint256"
      },
      {
        "astId": 10612,
        "contract": "contracts/vanaPoolEntity/VanaPoolEntityImplementation.sol:VanaPoolEntityImplementation",
        "label": "maxAPYDefault",
        "offset": 0,
        "slot": "3",
        "type": "t_uint256"
      },
      {
        "astId": 10617,
        "contract": "contracts/vanaPoolEntity/VanaPoolEntityImplementation.sol:VanaPoolEntityImplementation",
        "label": "_entities",
        "offset": 0,
        "slot": "4",
        "type": "t_mapping(t_uint256,t_struct(Entity)10422_storage)"
      },
      {
        "astId": 10622,
        "contract": "contracts/vanaPoolEntity/VanaPoolEntityImplementation.sol:VanaPoolEntityImplementation",
        "label": "entityNameToId",
        "offset": 0,
        "slot": "5",
        "type": "t_mapping(t_string_memory_ptr,t_uint256)"
      },
      {
        "astId": 10625,
        "contract": "contracts/vanaPoolEntity/VanaPoolEntityImplementation.sol:VanaPoolEntityImplementation",
        "label": "_activeEntityIds",
        "offset": 0,
        "slot": "6",
        "type": "t_struct(UintSet)5329_storage"
      }
    ],
    "types": {
      "t_address": {
        "encoding": "inplace",
        "label": "address",
        "numberOfBytes": "20"
      },
      "t_array(t_bytes32)dyn_storage": {
        "base": "t_bytes32",
        "encoding": "dynamic_array",
        "label": "bytes32[]",
        "numberOfBytes": "32"
      },
      "t_bytes32": {
        "encoding": "inplace",
        "label": "bytes32",
        "numberOfBytes": "32"
      },
      "t_contract(IVanaPoolStaking)11467": {
        "encoding": "inplace",
        "label": "contract IVanaPoolStaking",
        "numberOfBytes": "20"
      },
      "t_enum(EntityStatus)10404": {
        "encoding": "inplace",
        "label": "enum IVanaPoolEntity.EntityStatus",
        "numberOfBytes": "1"
      },
      "t_mapping(t_bytes32,t_uint256)": {
        "encoding": "mapping",
        "key": "t_bytes32",
        "label": "mapping(bytes32 => uint256)",
        "numberOfBytes": "32",
        "value": "t_uint256"
      },
      "t_mapping(t_string_memory_ptr,t_uint256)": {
        "encoding": "mapping",
        "key": "t_string_memory_ptr",
        "label": "mapping(string => uint256)",
        "numberOfBytes": "32",
        "value": "t_uint256"
      },
      "t_mapping(t_uint256,t_struct(Entity)10422_storage)": {
        "encoding": "mapping",
        "key": "t_uint256",
        "label": "mapping(uint256 => struct IVanaPoolEntity.Entity)",
        "numberOfBytes": "32",
        "value": "t_struct(Entity)10422_storage"
      },
      "t_string_memory_ptr": {
        "encoding": "bytes",
        "label": "string",
        "numberOfBytes": "32"
      },
      "t_string_storage": {
        "encoding": "bytes",
        "label": "string",
        "numberOfBytes": "32"
      },
      "t_struct(Entity)10422_storage": {
        "encoding": "inplace",
        "label": "struct IVanaPoolEntity.Entity",
        "members": [
          {
            "astId": 10406,
            "contract": "contracts/vanaPoolEntity/VanaPoolEntityImplementation.sol:VanaPoolEntityImplementation",
            "label": "ownerAddress",
            "offset": 0,
            "slot": "0",
            "type": "t_address"
          },
          {
            "astId": 10409,
            "contract": "contracts/vanaPoolEntity/VanaPoolEntityImplementation.sol:VanaPoolEntityImplementation",
            "label": "status",
            "offset": 20,
            "slot": "0",
            "type": "t_enum(EntityStatus)10404"
          },
          {
            "astId": 10411,
            "contract": "contracts/vanaPoolEntity/VanaPoolEntityImplementation.sol:VanaPoolEntityImplementation",
            "label": "name",
            "offset": 0,
            "slot": "1",
            "type": "t_string_storage"
          },
          {
            "astId": 10413,
            "contract": "contracts/vanaPoolEntity/VanaPoolEntityImplementation.sol:VanaPoolEntityImplementation",
            "label": "maxAPY",
            "offset": 0,
            "slot": "2",
            "type": "t_uint256"
          },
          {
            "astId": 10415,
            "contract": "contracts/vanaPoolEntity/VanaPoolEntityImplementation.sol:VanaPoolEntityImplementation",
            "label": "lockedRewardPool",
            "offset": 0,
            "slot": "3",
            "type": "t_uint256"
          },
          {
            "astId": 10417,
            "contract": "contracts/vanaPoolEntity/VanaPoolEntityImplementation.sol:VanaPoolEntityImplementation",
            "label": "activeRewardPool",
            "offset": 0,
            "slot": "4",
            "type": "t_uint256"
          },
          {
            "astId": 10419,
            "contract": "contracts/vanaPoolEntity/VanaPoolEntityImplementation.sol:VanaPoolEntityImplementation",
            "label": "totalShares",
            "offset": 0,
            "slot": "5",
            "type": "t_uint256"
          },
          {
            "astId": 10421,
            "contract": "contracts/vanaPoolEntity/VanaPoolEntityImplementation.sol:VanaPoolEntityImplementation",
            "label": "lastUpdateTimestamp",
            "offset": 0,
            "slot": "6",
            "type": "t_uint256"
          }
        ],
        "numberOfBytes": "224"
      },
      "t_struct(Set)4857_storage": {
        "encoding": "inplace",
        "label": "struct EnumerableSet.Set",
        "members": [
          {
            "astId": 4852,
            "contract": "contracts/vanaPoolEntity/VanaPoolEntityImplementation.sol:VanaPoolEntityImplementation",
            "label": "_values",
            "offset": 0,
            "slot": "0",
            "type": "t_array(t_bytes32)dyn_storage"
          },
          {
            "astId": 4856,
            "contract": "contracts/vanaPoolEntity/VanaPoolEntityImplementation.sol:VanaPoolEntityImplementation",
            "label": "_positions",
            "offset": 0,
            "slot": "1",
            "type": "t_mapping(t_bytes32,t_uint256)"
          }
        ],
        "numberOfBytes": "64"
      },
      "t_struct(UintSet)5329_storage": {
        "encoding": "inplace",
        "label": "struct EnumerableSet.UintSet",
        "members": [
          {
            "astId": 5328,
            "contract": "contracts/vanaPoolEntity/VanaPoolEntityImplementation.sol:VanaPoolEntityImplementation",
            "label": "_inner",
            "offset": 0,
            "slot": "0",
            "type": "t_struct(Set)4857_storage"
          }
        ],
        "numberOfBytes": "64"
      },
      "t_uint256": {
        "encoding": "inplace",
        "label": "uint256",
        "numberOfBytes": "32"
      }
    }
  }
}