{
  "address": "0x544D739feb412Ce244EA0CA2331f4939F1939578",
  "abi": [
    {
      "inputs": [],
      "stateMutability": "nonpayable",
      "type": "constructor"
    },
    {
      "inputs": [],
      "name": "AccessControlBadConfirmation",
      "type": "error"
    },
    {
      "inputs": [
        {
          "internalType": "address",
          "name": "account",
          "type": "address"
        },
        {
          "internalType": "bytes32",
          "name": "neededRole",
          "type": "bytes32"
        }
      ],
      "name": "AccessControlUnauthorizedAccount",
      "type": "error"
    },
    {
      "inputs": [
        {
          "internalType": "address",
          "name": "target",
          "type": "address"
        }
      ],
      "name": "AddressEmptyCode",
      "type": "error"
    },
    {
      "inputs": [
        {
          "internalType": "address",
          "name": "implementation",
          "type": "address"
        }
      ],
      "name": "ERC1967InvalidImplementation",
      "type": "error"
    },
    {
      "inputs": [],
      "name": "ERC1967NonPayable",
      "type": "error"
    },
    {
      "inputs": [],
      "name": "EnforcedPause",
      "type": "error"
    },
    {
      "inputs": [],
      "name": "EpochAlreadyFinalized",
      "type": "error"
    },
    {
      "inputs": [],
      "name": "EpochNotEnded",
      "type": "error"
    },
    {
      "inputs": [],
      "name": "EpochRewardExceeded",
      "type": "error"
    },
    {
      "inputs": [],
      "name": "EpochRewardNotDistributed",
      "type": "error"
    },
    {
      "inputs": [],
      "name": "ExpectedPause",
      "type": "error"
    },
    {
      "inputs": [],
      "name": "FailedInnerCall",
      "type": "error"
    },
    {
      "inputs": [],
      "name": "InvalidEpoch",
      "type": "error"
    },
    {
      "inputs": [],
      "name": "InvalidInitialization",
      "type": "error"
    },
    {
      "inputs": [],
      "name": "NotInitializing",
      "type": "error"
    },
    {
      "inputs": [],
      "name": "ReentrancyGuardReentrantCall",
      "type": "error"
    },
    {
      "inputs": [],
      "name": "UUPSUnauthorizedCallContext",
      "type": "error"
    },
    {
      "inputs": [
        {
          "internalType": "bytes32",
          "name": "slot",
          "type": "bytes32"
        }
      ],
      "name": "UUPSUnsupportedProxiableUUID",
      "type": "error"
    },
    {
      "anonymous": false,
      "inputs": [
        {
          "indexed": false,
          "internalType": "uint256",
          "name": "epochId",
          "type": "uint256"
        },
        {
          "indexed": false,
          "internalType": "uint256",
          "name": "startBlock",
          "type": "uint256"
        },
        {
          "indexed": false,
          "internalType": "uint256",
          "name": "endBlock",
          "type": "uint256"
        },
        {
          "indexed": false,
          "internalType": "uint256",
          "name": "rewardAmount",
          "type": "uint256"
        }
      ],
      "name": "EpochCreated",
      "type": "event"
    },
    {
      "anonymous": false,
      "inputs": [
        {
          "indexed": false,
          "internalType": "uint256",
          "name": "newDaySize",
          "type": "uint256"
        }
      ],
      "name": "EpochDayUpdated",
      "type": "event"
    },
    {
      "anonymous": false,
      "inputs": [
        {
          "indexed": false,
          "internalType": "uint256",
          "name": "epochId",
          "type": "uint256"
        },
        {
          "indexed": false,
          "internalType": "uint256",
          "name": "dlpId",
          "type": "uint256"
        },
        {
          "indexed": false,
          "internalType": "uint256",
          "name": "rewardAmount",
          "type": "uint256"
        }
      ],
      "name": "EpochDlpRewardAdded",
      "type": "event"
    },
    {
      "anonymous": false,
      "inputs": [
        {
          "indexed": false,
          "internalType": "uint256",
          "name": "epochId",
          "type": "uint256"
        }
      ],
      "name": "EpochFinalized",
      "type": "event"
    },
    {
      "anonymous": false,
      "inputs": [
        {
          "indexed": false,
          "internalType": "uint256",
          "name": "newEpochRewardAmount",
          "type": "uint256"
        }
      ],
      "name": "EpochRewardAmountUpdated",
      "type": "event"
    },
    {
      "anonymous": false,
      "inputs": [
        {
          "indexed": false,
          "internalType": "uint256",
          "name": "newEpochSize",
          "type": "uint256"
        }
      ],
      "name": "EpochSizeUpdated",
      "type": "event"
    },
    {
      "anonymous": false,
      "inputs": [
        {
          "indexed": false,
          "internalType": "uint256",
          "name": "epochId",
          "type": "uint256"
        },
        {
          "indexed": false,
          "internalType": "uint256",
          "name": "startBlock",
          "type": "uint256"
        },
        {
          "indexed": false,
          "internalType": "uint256",
          "name": "endBlock",
          "type": "uint256"
        },
        {
          "indexed": false,
          "internalType": "uint256",
          "name": "rewardAmount",
          "type": "uint256"
        }
      ],
      "name": "EpochUpdated",
      "type": "event"
    },
    {
      "anonymous": false,
      "inputs": [
        {
          "indexed": false,
          "internalType": "uint64",
          "name": "version",
          "type": "uint64"
        }
      ],
      "name": "Initialized",
      "type": "event"
    },
    {
      "anonymous": false,
      "inputs": [
        {
          "indexed": false,
          "internalType": "address",
          "name": "account",
          "type": "address"
        }
      ],
      "name": "Paused",
      "type": "event"
    },
    {
      "anonymous": false,
      "inputs": [
        {
          "indexed": true,
          "internalType": "bytes32",
          "name": "role",
          "type": "bytes32"
        },
        {
          "indexed": true,
          "internalType": "bytes32",
          "name": "previousAdminRole",
          "type": "bytes32"
        },
        {
          "indexed": true,
          "internalType": "bytes32",
          "name": "newAdminRole",
          "type": "bytes32"
        }
      ],
      "name": "RoleAdminChanged",
      "type": "event"
    },
    {
      "anonymous": false,
      "inputs": [
        {
          "indexed": true,
          "internalType": "bytes32",
          "name": "role",
          "type": "bytes32"
        },
        {
          "indexed": true,
          "internalType": "address",
          "name": "account",
          "type": "address"
        },
        {
          "indexed": true,
          "internalType": "address",
          "name": "sender",
          "type": "address"
        }
      ],
      "name": "RoleGranted",
      "type": "event"
    },
    {
      "anonymous": false,
      "inputs": [
        {
          "indexed": true,
          "internalType": "bytes32",
          "name": "role",
          "type": "bytes32"
        },
        {
          "indexed": true,
          "internalType": "address",
          "name": "account",
          "type": "address"
        },
        {
          "indexed": true,
          "internalType": "address",
          "name": "sender",
          "type": "address"
        }
      ],
      "name": "RoleRevoked",
      "type": "event"
    },
    {
      "anonymous": false,
      "inputs": [
        {
          "indexed": false,
          "internalType": "address",
          "name": "account",
          "type": "address"
        }
      ],
      "name": "Unpaused",
      "type": "event"
    },
    {
      "anonymous": false,
      "inputs": [
        {
          "indexed": true,
          "internalType": "address",
          "name": "implementation",
          "type": "address"
        }
      ],
      "name": "Upgraded",
      "type": "event"
    },
    {
      "inputs": [],
      "name": "DEFAULT_ADMIN_ROLE",
      "outputs": [
        {
          "internalType": "bytes32",
          "name": "",
          "type": "bytes32"
        }
      ],
      "stateMutability": "view",
      "type": "function"
    },
    {
      "inputs": [],
      "name": "DLP_PERFORMANCE_ROLE",
      "outputs": [
        {
          "internalType": "bytes32",
          "name": "",
          "type": "bytes32"
        }
      ],
      "stateMutability": "view",
      "type": "function"
    },
    {
      "inputs": [],
      "name": "MAINTAINER_ROLE",
      "outputs": [
        {
          "internalType": "bytes32",
          "name": "",
          "type": "bytes32"
        }
      ],
      "stateMutability": "view",
      "type": "function"
    },
    {
      "inputs": [],
      "name": "UPGRADE_INTERFACE_VERSION",
      "outputs": [
        {
          "internalType": "string",
          "name": "",
          "type": "string"
        }
      ],
      "stateMutability": "view",
      "type": "function"
    },
    {
      "inputs": [],
      "name": "createEpochs",
      "outputs": [],
      "stateMutability": "nonpayable",
      "type": "function"
    },
    {
      "inputs": [
        {
          "internalType": "uint256",
          "name": "blockNumber",
          "type": "uint256"
        }
      ],
      "name": "createEpochsUntilBlockNumber",
      "outputs": [],
      "stateMutability": "nonpayable",
      "type": "function"
    },
    {
      "inputs": [],
      "name": "daySize",
      "outputs": [
        {
          "internalType": "uint256",
          "name": "",
          "type": "uint256"
        }
      ],
      "stateMutability": "view",
      "type": "function"
    },
    {
      "inputs": [],
      "name": "dlpPerformance",
      "outputs": [
        {
          "internalType": "contract IDLPPerformance",
          "name": "",
          "type": "address"
        }
      ],
      "stateMutability": "view",
      "type": "function"
    },
    {
      "inputs": [],
      "name": "dlpRegistry",
      "outputs": [
        {
          "internalType": "contract IDLPRegistry",
          "name": "",
          "type": "address"
        }
      ],
      "stateMutability": "view",
      "type": "function"
    },
    {
      "inputs": [
        {
          "internalType": "uint256",
          "name": "epochId",
          "type": "uint256"
        }
      ],
      "name": "epochDlpIds",
      "outputs": [
        {
          "internalType": "uint256[]",
          "name": "",
          "type": "uint256[]"
        }
      ],
      "stateMutability": "view",
      "type": "function"
    },
    {
      "inputs": [
        {
          "internalType": "uint256",
          "name": "epochId",
          "type": "uint256"
        },
        {
          "internalType": "uint256",
          "name": "dlpId",
          "type": "uint256"
        }
      ],
      "name": "epochDlps",
      "outputs": [
        {
          "components": [
            {
              "internalType": "bool",
              "name": "isTopDlp",
              "type": "bool"
            },
            {
              "internalType": "uint256",
              "name": "rewardAmount",
              "type": "uint256"
            }
          ],
          "internalType": "struct IVanaEpoch.EpochDlpInfo",
          "name": "",
          "type": "tuple"
        }
      ],
      "stateMutability": "view",
      "type": "function"
    },
    {
      "inputs": [],
      "name": "epochRewardAmount",
      "outputs": [
        {
          "internalType": "uint256",
          "name": "",
          "type": "uint256"
        }
      ],
      "stateMutability": "view",
      "type": "function"
    },
    {
      "inputs": [],
      "name": "epochSize",
      "outputs": [
        {
          "internalType": "uint256",
          "name": "",
          "type": "uint256"
        }
      ],
      "stateMutability": "view",
      "type": "function"
    },
    {
      "inputs": [
        {
          "internalType": "uint256",
          "name": "epochId",
          "type": "uint256"
        }
      ],
      "name": "epochs",
      "outputs": [
        {
          "components": [
            {
              "internalType": "uint256",
              "name": "startBlock",
              "type": "uint256"
            },
            {
              "internalType": "uint256",
              "name": "endBlock",
              "type": "uint256"
            },
            {
              "internalType": "uint256",
              "name": "rewardAmount",
              "type": "uint256"
            },
            {
              "internalType": "bool",
              "name": "isFinalized",
              "type": "bool"
            }
          ],
          "internalType": "struct IVanaEpoch.EpochInfo",
          "name": "",
          "type": "tuple"
        }
      ],
      "stateMutability": "view",
      "type": "function"
    },
    {
      "inputs": [],
      "name": "epochsCount",
      "outputs": [
        {
          "internalType": "uint256",
          "name": "",
          "type": "uint256"
        }
      ],
      "stateMutability": "view",
      "type": "function"
    },
    {
      "inputs": [
        {
          "internalType": "uint256",
          "name": "epochId",
          "type": "uint256"
        }
      ],
      "name": "forceFinalizedEpoch",
      "outputs": [],
      "stateMutability": "nonpayable",
      "type": "function"
    },
    {
      "inputs": [
        {
          "internalType": "bytes32",
          "name": "role",
          "type": "bytes32"
        }
      ],
      "name": "getRoleAdmin",
      "outputs": [
        {
          "internalType": "bytes32",
          "name": "",
          "type": "bytes32"
        }
      ],
      "stateMutability": "view",
      "type": "function"
    },
    {
      "inputs": [
        {
          "internalType": "bytes32",
          "name": "role",
          "type": "bytes32"
        },
        {
          "internalType": "address",
          "name": "account",
          "type": "address"
        }
      ],
      "name": "grantRole",
      "outputs": [],
      "stateMutability": "nonpayable",
      "type": "function"
    },
    {
      "inputs": [
        {
          "internalType": "bytes32",
          "name": "role",
          "type": "bytes32"
        },
        {
          "internalType": "address",
          "name": "account",
          "type": "address"
        }
      ],
      "name": "hasRole",
      "outputs": [
        {
          "internalType": "bool",
          "name": "",
          "type": "bool"
        }
      ],
      "stateMutability": "view",
      "type": "function"
    },
    {
      "inputs": [
        {
          "components": [
            {
              "internalType": "address",
              "name": "ownerAddress",
              "type": "address"
            },
            {
              "internalType": "address",
              "name": "dlpRegistryAddress",
              "type": "address"
            },
            {
              "internalType": "uint256",
              "name": "daySize",
              "type": "uint256"
            },
            {
              "internalType": "uint256",
              "name": "epochSize",
              "type": "uint256"
            },
            {
              "internalType": "uint256",
              "name": "epochRewardAmount",
              "type": "uint256"
            }
          ],
          "internalType": "struct VanaEpochImplementation.InitializeParams",
          "name": "params",
          "type": "tuple"
        }
      ],
      "name": "initialize",
      "outputs": [],
      "stateMutability": "nonpayable",
      "type": "function"
    },
    {
      "inputs": [],
      "name": "pause",
      "outputs": [],
      "stateMutability": "nonpayable",
      "type": "function"
    },
    {
      "inputs": [],
      "name": "paused",
      "outputs": [
        {
          "internalType": "bool",
          "name": "",
          "type": "bool"
        }
      ],
      "stateMutability": "view",
      "type": "function"
    },
    {
      "inputs": [],
      "name": "proxiableUUID",
      "outputs": [
        {
          "internalType": "bytes32",
          "name": "",
          "type": "bytes32"
        }
      ],
      "stateMutability": "view",
      "type": "function"
    },
    {
      "inputs": [
        {
          "internalType": "bytes32",
          "name": "role",
          "type": "bytes32"
        },
        {
          "internalType": "address",
          "name": "callerConfirmation",
          "type": "address"
        }
      ],
      "name": "renounceRole",
      "outputs": [],
      "stateMutability": "nonpayable",
      "type": "function"
    },
    {
      "inputs": [
        {
          "internalType": "bytes32",
          "name": "role",
          "type": "bytes32"
        },
        {
          "internalType": "address",
          "name": "account",
          "type": "address"
        }
      ],
      "name": "revokeRole",
      "outputs": [],
      "stateMutability": "nonpayable",
      "type": "function"
    },
    {
      "inputs": [
        {
          "internalType": "uint256",
          "name": "epochId",
          "type": "uint256"
        },
        {
          "components": [
            {
              "internalType": "uint256",
              "name": "dlpId",
              "type": "uint256"
            },
            {
              "internalType": "uint256",
              "name": "rewardAmount",
              "type": "uint256"
            }
          ],
          "internalType": "struct IVanaEpoch.Rewards[]",
          "name": "dlpRewards",
          "type": "tuple[]"
        },
        {
          "internalType": "bool",
          "name": "finalScores",
          "type": "bool"
        }
      ],
      "name": "saveEpochDlpRewards",
      "outputs": [],
      "stateMutability": "nonpayable",
      "type": "function"
    },
    {
      "inputs": [
        {
          "internalType": "bytes4",
          "name": "interfaceId",
          "type": "bytes4"
        }
      ],
      "name": "supportsInterface",
      "outputs": [
        {
          "internalType": "bool",
          "name": "",
          "type": "bool"
        }
      ],
      "stateMutability": "view",
      "type": "function"
    },
    {
      "inputs": [],
      "name": "unpause",
      "outputs": [],
      "stateMutability": "nonpayable",
      "type": "function"
    },
    {
      "inputs": [
        {
          "internalType": "uint256",
          "name": "newDaySize",
          "type": "uint256"
        }
      ],
      "name": "updateDaySize",
      "outputs": [],
      "stateMutability": "nonpayable",
      "type": "function"
    },
    {
      "inputs": [
        {
          "internalType": "address",
          "name": "dlpPerformanceAddress",
          "type": "address"
        }
      ],
      "name": "updateDlpPerformance",
      "outputs": [],
      "stateMutability": "nonpayable",
      "type": "function"
    },
    {
      "inputs": [
        {
          "internalType": "address",
          "name": "dlpRegistryAddress",
          "type": "address"
        }
      ],
      "name": "updateDlpRegistry",
      "outputs": [],
      "stateMutability": "nonpayable",
      "type": "function"
    },
    {
      "inputs": [
        {
          "internalType": "uint256",
          "name": "epochId",
          "type": "uint256"
        },
        {
          "internalType": "uint256",
          "name": "startBlock",
          "type": "uint256"
        },
        {
          "internalType": "uint256",
          "name": "endBlock",
          "type": "uint256"
        },
        {
          "internalType": "uint256",
          "name": "rewardAmount",
          "type": "uint256"
        },
        {
          "components": [
            {
              "internalType": "uint256",
              "name": "dlpId",
              "type": "uint256"
            },
            {
              "internalType": "uint256",
              "name": "rewardAmount",
              "type": "uint256"
            }
          ],
          "internalType": "struct IVanaEpoch.Rewards[]",
          "name": "dlpRewards",
          "type": "tuple[]"
        },
        {
          "internalType": "bool",
          "name": "isFinalized",
          "type": "bool"
        }
      ],
      "name": "updateEpoch",
      "outputs": [],
      "stateMutability": "nonpayable",
      "type": "function"
    },
    {
      "inputs": [
        {
          "internalType": "uint256",
          "name": "newEpochRewardAmount",
          "type": "uint256"
        }
      ],
      "name": "updateEpochRewardAmount",
      "outputs": [],
      "stateMutability": "nonpayable",
      "type": "function"
    },
    {
      "inputs": [
        {
          "internalType": "uint256",
          "name": "newEpochSizeInDays",
          "type": "uint256"
        }
      ],
      "name": "updateEpochSize",
      "outputs": [],
      "stateMutability": "nonpayable",
      "type": "function"
    },
    {
      "inputs": [
        {
          "internalType": "uint256",
          "name": "newEpochsCount",
          "type": "uint256"
        }
      ],
      "name": "updateEpochsCount",
      "outputs": [],
      "stateMutability": "nonpayable",
      "type": "function"
    },
    {
      "inputs": [
        {
          "internalType": "address",
          "name": "newImplementation",
          "type": "address"
        },
        {
          "internalType": "bytes",
          "name": "data",
          "type": "bytes"
        }
      ],
      "name": "upgradeToAndCall",
      "outputs": [],
      "stateMutability": "payable",
      "type": "function"
    },
    {
      "inputs": [],
      "name": "version",
      "outputs": [
        {
          "internalType": "uint256",
          "name": "",
          "type": "uint256"
        }
      ],
      "stateMutability": "pure",
      "type": "function"
    }
  ],
  "transactionHash": "0x526335f7e4e8aaa75a31724cabdc194a5571c2cc23d5aebeab445b4858e26848",
  "args": [],
  "numDeployments": 7,
  "solcInputHash": "c43edec27e8e7da6f9815800e6d8a943",
  "bytecode": "0x60a06040523060805234801561001457600080fd5b5061001d610022565b6100d4565b7ff0c57e16840df040f15088dc2f81fe391c3923bec73e23a9662efc9c229c6a00805468010000000000000000900460ff16156100725760405163f92ee8a960e01b815260040160405180910390fd5b80546001600160401b03908116146100d15780546001600160401b0319166001600160401b0390811782556040519081527fc7f505b2f371ae2175ee4913f4499e1f2633a7b5936321eed1cdaeb6115181d29060200160405180910390a15b50565b6080516120f16100fd600039600081816114260152818161144f015261159301526120f16000f3fe6080604052600436106101aa5760003560e01c806301ffc9a7146101af5780630accc171146101e45780630c8d7fef14610206578063132c58e9146102265780631d94fcc91461024a5780631eb2454b1461026a578063248a9ca31461028a5780632f2ff15d146102aa578063354ffd99146102ca57806336568abe146102f75780633f4ba83a146103175780634a998a6f1461032c5780634f1ef2861461034e57806352d1902d1461036157806354fd4d5014610376578063572d356e1461038a5780635c975abb146103a05780635e84f856146103b55780636b289f5b146103d557806376bc9869146103f557806377d3205a1461040a5780637eb97e881461042a578063806daf2e1461044a5780638456cb591461046a578063916e1c571461047f57806391d1485414610495578063a217fddf146104b5578063ad3cb1cc146104ca578063b3a7b9da14610508578063c6b61e4c14610545578063d4e018721461059a578063d547741f146105ba578063d7033ca0146105da578063db8b3f3e146105f0578063eaeb2ec814610610578063f7e4ca1114610630578063f87422541461065d575b600080fd5b3480156101bb57600080fd5b506101cf6101ca366004611b1b565b61067f565b60405190151581526020015b60405180910390f35b3480156101f057600080fd5b506102046101ff366004611b45565b6106b6565b005b34801561021257600080fd5b50610204610221366004611bbe565b61075c565b34801561023257600080fd5b5061023c60015481565b6040519081526020016101db565b34801561025657600080fd5b50610204610265366004611b45565b6109d4565b34801561027657600080fd5b50610204610285366004611c32565b6109f2565b34801561029657600080fd5b5061023c6102a5366004611b45565b610a2d565b3480156102b657600080fd5b506102046102c5366004611c4d565b610a4d565b3480156102d657600080fd5b506006546102ea906001600160a01b031681565b6040516101db9190611c79565b34801561030357600080fd5b50610204610312366004611c4d565b610a69565b34801561032357600080fd5b50610204610aa1565b34801561033857600080fd5b5061023c60008051602061205c83398151915281565b61020461035c366004611cd3565b610ac1565b34801561036d57600080fd5b5061023c610ae0565b34801561038257600080fd5b50600161023c565b34801561039657600080fd5b5061023c60035481565b3480156103ac57600080fd5b506101cf610afd565b3480156103c157600080fd5b506102046103d0366004611c32565b610b12565b3480156103e157600080fd5b506102046103f0366004611b45565b610b87565b34801561040157600080fd5b50610204610bcf565b34801561041657600080fd5b50610204610425366004611d7c565b610bf2565b34801561043657600080fd5b506000546102ea906001600160a01b031681565b34801561045657600080fd5b50610204610465366004611b45565b610d68565b34801561047657600080fd5b50610204610db5565b34801561048b57600080fd5b5061023c60045481565b3480156104a157600080fd5b506101cf6104b0366004611c4d565b610dd5565b3480156104c157600080fd5b5061023c600081565b3480156104d657600080fd5b506104fb604051806040016040528060058152602001640352e302e360dc1b81525081565b6040516101db9190611e21565b34801561051457600080fd5b50610528610523366004611e54565b610e0b565b6040805182511515815260209283015192810192909252016101db565b34801561055157600080fd5b50610565610560366004611b45565b610e74565b6040516101db919081518152602080830151908201526040808301519082015260609182015115159181019190915260800190565b3480156105a657600080fd5b506102046105b5366004611b45565b610eec565b3480156105c657600080fd5b506102046105d5366004611c4d565b610f2c565b3480156105e657600080fd5b5061023c60025481565b3480156105fc57600080fd5b5061020461060b366004611e76565b610f48565b34801561061c57600080fd5b5061020461062b366004611b45565b6110bb565b34801561063c57600080fd5b5061065061064b366004611b45565b6110e9565b6040516101db9190611ef0565b34801561066957600080fd5b5061023c60008051602061209c83398151915281565b60006001600160e01b03198216637965db0b60e01b14806106b057506301ffc9a760e01b6001600160e01b03198316145b92915050565b6106be611106565b6106c661113c565b60008051602061209c8339815191526106de81611162565b6106e74361116c565b60045482106107095760405163756b785760e01b815260040160405180910390fd5b6000828152600560205260409081902060038101805460ff19166001179055905160008051602061207c833981519152906107479085815260200190565b60405180910390a15050610759611241565b50565b610764611106565b61076c61113c565b60008051602061205c83398151915261078481611162565b6004548511156107a75760405163d5b25b6360e01b815260040160405180910390fd5b600454851480156107b55750815b156107d35760405163756b785760e01b815260040160405180910390fd5b6000858152600560205260409020600381015460ff161561080757604051630cd9898f60e21b815260040160405180910390fd5b60005b848110156108db57600086868381811061082657610826611f33565b905060400201600001359050600087878481811061084657610846611f33565b905060400201602001359050600081111561086e576108686004850183611252565b5061087d565b61087b6004850183611265565b505b600082815260068501602090815260409182902083905581518b81529081018490529081018290527e6f116e3a415d0686b00188d9246501538369f01af1dc43bdf86fbed48c89f59060600160405180910390a1505060010161080a565b506000805b6108ec83600401611271565b81101561095057600683016000610906600486018461127b565b81526020810191909152604001600020546109219083611f5f565b915082600201548211156109485760405163d4f6240160e01b815260040160405180910390fd5b6001016108e0565b5083156109c357633b9aca00826002015461096b9190611f72565b81101561098b5760405163390a49e960e21b815260040160405180910390fd5b60038201805460ff1916600117905560405160008051602061207c833981519152906109ba9089815260200190565b60405180910390a15b5050506109ce611241565b50505050565b60008051602061209c8339815191526109ec81611162565b50600455565b60008051602061209c833981519152610a0a81611162565b50600080546001600160a01b0319166001600160a01b0392909216919091179055565b600080610a38611287565b60009384526020525050604090206001015490565b610a5682610a2d565b610a5f81611162565b6109ce83836112ab565b6001600160a01b0381163314610a925760405163334bd91960e11b815260040160405180910390fd5b610a9c828261134c565b505050565b60008051602061209c833981519152610ab981611162565b6107596113c4565b610ac961141b565b610ad2826114c0565b610adc82826114cb565b5050565b6000610aea611588565b5060008051602061201c83398151915290565b600080610b086115d1565b5460ff1692915050565b60008051602061209c833981519152610b2a81611162565b600654610b4f9060008051602061205c833981519152906001600160a01b031661134c565b50600680546001600160a01b0319166001600160a01b038416908117909155610a9c9060008051602061205c833981519152906112ab565b6000610b9281611162565b60018290556040518281527f2fe8cb48ce95af273ee232223c3a0fbda25a65208753e99801ce508751f2b7fb906020015b60405180910390a15050565b610bd7611106565b610bdf61113c565b610be84361116c565b610bf0611241565b565b6000610bfc6115f5565b805490915060ff600160401b82041615906001600160401b0316600081158015610c235750825b90506000826001600160401b03166001148015610c3f5750303b155b905081158015610c4d575080155b15610c6b5760405163f92ee8a960e01b815260040160405180910390fd5b84546001600160401b03191660011785558315610c9457845460ff60401b1916600160401b1785555b610c9c611619565b610ca4611619565b610cac611621565b610cb4611631565b6020860151600080546001600160a01b0319166001600160a01b039092169190911781556040870151600255606087015160035560808701516001558651610cfc91906112ab565b50610d1960008051602061209c83398151915287600001516112ab565b508315610d6057845460ff60401b19168555604051600181527fc7f505b2f371ae2175ee4913f4499e1f2633a7b5936321eed1cdaeb6115181d29060200160405180910390a15b505050505050565b60008051602061209c833981519152610d8081611162565b60028290556040518281527f63792737c309757efad02dff578bab5f702acaba5d648620b286dd83beccb59990602001610bc3565b60008051602061209c833981519152610dcd81611162565b610759611641565b600080610de0611287565b6000948552602090815260408086206001600160a01b03959095168652939052505090205460ff1690565b604080518082019091526000808252602082015260008381526005602090815260408083208584526006810183529281902081519283018252548252805180820190915280610e5d6004850187611688565b151581529151602090920191909152949350505050565b610ea160405180608001604052806000815260200160008152602001600081526020016000151581525090565b506040805160808101825260008381526005602081815284832080548552600181015482860152600281015495850195909552949091529092526003015460ff161515606082015290565b6000610ef781611162565b60038290556040518281527f3cd59cf395448ba3bfd2541dcb31ccd800b9e303281df0888a62ae5d5f673f5890602001610bc3565b610f3582610a2d565b610f3e81611162565b6109ce838361134c565b60008051602061209c833981519152610f6081611162565b60008881526005602052604081208054909190151580610f835750600182015415155b80610f915750600282015415155b898355600183018990556002830188905560038301805460ff1916861515179055905060005b8581101561102a576000878783818110610fd357610fd3611f33565b60400291909101359150610fec90506004850182611252565b50878783818110610fff57610fff611f33565b6000938452600687016020908152604094859020919094029290920190920135905550600101610fb7565b508015611073577fad1edd3d37e0441e7e8ecebd40bf47260c0d005f2bbb99692ccfcb2fa37b38838a8a8a8a6040516110669493929190611f85565b60405180910390a16110af565b8960045410156110835760048a90555b60008051602061203c8339815191528a8a8a8a6040516110a69493929190611f85565b60405180910390a15b50505050505050505050565b6110c3611106565b6110cb61113c565b6110e14382106110db574361116c565b8161116c565b610759611241565b60008181526005602052604090206060906106b090600401611694565b60006111106116a1565b80549091506001190161113657604051633ee5aeb560e01b815260040160405180910390fd5b60029055565b611144610afd565b15610bf05760405163d93c066560e01b815260040160405180910390fd5b61075981336116c5565b6004546000908152600560205260409020600181015443101561118d575050565b8181600101541015610adc576000600560006004600081546111ae90611fa0565b91905081905581526020019081526020016000209050816001015460016111d59190611f5f565b81556002546003546001916111e991611fb9565b82546111f59190611f5f565b6111ff9190611f72565b60018083018290555460028301819055600454835460405160008051602061203c83398151915294611232949091611f85565b60405180910390a1905061118d565b600061124b6116a1565b6001905550565b600061125e83836116fe565b9392505050565b600061125e8383611748565b60006106b0825490565b600061125e8383611831565b7f02dd7bc7dec4dceedda775e58dd541e08a116c6c53815c0bd028192f7b62680090565b6000806112b6611287565b90506112c28484610dd5565b611342576000848152602082815260408083206001600160a01b03871684529091529020805460ff191660011790556112f83390565b6001600160a01b0316836001600160a01b0316857f2f8788117e7eff1d82e926ec794901d17c78024a50270940304540a733656f0d60405160405180910390a460019150506106b0565b60009150506106b0565b600080611357611287565b90506113638484610dd5565b15611342576000848152602082815260408083206001600160a01b0387168085529252808320805460ff1916905551339287917ff6391f5c32d9c69d2a47ea670b442974b53935d1edc7fd64eb21e047a839171b9190a460019150506106b0565b6113cc61185b565b60006113d66115d1565b805460ff1916815590507f5db9ee0a495bf2e6ff9c91a7834c1ba4fdd244a5e8aa4e537bd38aeae4b073aa335b6040516114109190611c79565b60405180910390a150565b306001600160a01b037f00000000000000000000000000000000000000000000000000000000000000001614806114a257507f00000000000000000000000000000000000000000000000000000000000000006001600160a01b031661149660008051602061201c833981519152546001600160a01b031690565b6001600160a01b031614155b15610bf05760405163703e46dd60e11b815260040160405180910390fd5b6000610adc81611162565b816001600160a01b03166352d1902d6040518163ffffffff1660e01b8152600401602060405180830381865afa925050508015611525575060408051601f3d908101601f1916820190925261152291810190611fd0565b60015b61154d5781604051634c9c8ce360e01b81526004016115449190611c79565b60405180910390fd5b60008051602061201c833981519152811461157e57604051632a87526960e21b815260048101829052602401611544565b610a9c8383611880565b306001600160a01b037f00000000000000000000000000000000000000000000000000000000000000001614610bf05760405163703e46dd60e11b815260040160405180910390fd5b7fcd5ed15c6e187e77e9aee88184c21f4f2182ab5827cb3b7e07fbedcd63f0330090565b7ff0c57e16840df040f15088dc2f81fe391c3923bec73e23a9662efc9c229c6a0090565b610bf06118d6565b6116296118d6565b610bf06118fb565b6116396118d6565b610bf0611903565b61164961113c565b60006116536115d1565b805460ff1916600117815590507f62e78cea01bee320cd4e420270b5ea74000d11b0c9f74754ebdbfc544b05a2586114033390565b600061125e8383611920565b6060600061125e83611938565b7f9b779b17422d0df92223018b32b4d1fa46e071723d6817e2486d003becc55f0090565b6116cf8282610dd5565b610adc5760405163e2517d3f60e01b81526001600160a01b038216600482015260248101839052604401611544565b600061170a8383611920565b611740575081546001818101845560008481526020808220909301849055845484825282860190935260409020919091556106b0565b5060006106b0565b6000818152600183016020526040812054801561134257600061176c600183611f72565b855490915060009061178090600190611f72565b90508082146117e55760008660000182815481106117a0576117a0611f33565b90600052602060002001549050808760000184815481106117c3576117c3611f33565b6000918252602080832090910192909255918252600188019052604090208390555b85548690806117f6576117f6611fe9565b6001900381819060005260206000200160009055905585600101600086815260200190815260200160002060009055600193505050506106b0565b600082600001828154811061184857611848611f33565b9060005260206000200154905092915050565b611863610afd565b610bf057604051638dfc202b60e01b815260040160405180910390fd5b61188982611994565b6040516001600160a01b038316907fbc7cd75a20ee27fd9adebab32041f755214dbc6bffa90cc0225b39da2e5c2d3b90600090a28051156118ce57610a9c82826119f0565b610adc611a66565b6118de611a85565b610bf057604051631afcd79f60e31b815260040160405180910390fd5b6112416118d6565b61190b6118d6565b60006119156115d1565b805460ff1916905550565b60009081526001919091016020526040902054151590565b60608160000180548060200260200160405190810160405280929190818152602001828054801561198857602002820191906000526020600020905b815481526020019060010190808311611974575b50505050509050919050565b806001600160a01b03163b6000036119c15780604051634c9c8ce360e01b81526004016115449190611c79565b60008051602061201c83398151915280546001600160a01b0319166001600160a01b0392909216919091179055565b6060600080846001600160a01b031684604051611a0d9190611fff565b600060405180830381855af49150503d8060008114611a48576040519150601f19603f3d011682016040523d82523d6000602084013e611a4d565b606091505b5091509150611a5d858383611a9f565b95945050505050565b3415610bf05760405163b398979f60e01b815260040160405180910390fd5b6000611a8f6115f5565b54600160401b900460ff16919050565b606082611ab457611aaf82611af2565b61125e565b8151158015611acb57506001600160a01b0384163b155b15611aeb5783604051639996b31560e01b81526004016115449190611c79565b5092915050565b805115611b025780518082602001fd5b604051630a12f52160e11b815260040160405180910390fd5b600060208284031215611b2d57600080fd5b81356001600160e01b03198116811461125e57600080fd5b600060208284031215611b5757600080fd5b5035919050565b60008083601f840112611b7057600080fd5b5081356001600160401b03811115611b8757600080fd5b6020830191508360208260061b8501011115611ba257600080fd5b9250929050565b80358015158114611bb957600080fd5b919050565b60008060008060608587031215611bd457600080fd5b8435935060208501356001600160401b03811115611bf157600080fd5b611bfd87828801611b5e565b9094509250611c10905060408601611ba9565b905092959194509250565b80356001600160a01b0381168114611bb957600080fd5b600060208284031215611c4457600080fd5b61125e82611c1b565b60008060408385031215611c6057600080fd5b82359150611c7060208401611c1b565b90509250929050565b6001600160a01b0391909116815260200190565b634e487b7160e01b600052604160045260246000fd5b604051601f8201601f191681016001600160401b0381118282101715611ccb57611ccb611c8d565b604052919050565b60008060408385031215611ce657600080fd5b611cef83611c1b565b915060208301356001600160401b03811115611d0a57600080fd5b8301601f81018513611d1b57600080fd5b80356001600160401b03811115611d3457611d34611c8d565b611d47601f8201601f1916602001611ca3565b818152866020838501011115611d5c57600080fd5b816020840160208301376000602083830101528093505050509250929050565b600060a0828403128015611d8f57600080fd5b5060405160009060a081016001600160401b0381118282101715611db557611db5611c8d565b604052611dc184611c1b565b8152611dcf60208501611c1b565b6020820152604084810135908201526060808501359082015260809384013593810193909352509092915050565b60005b83811015611e18578181015183820152602001611e00565b50506000910152565b6020815260008251806020840152611e40816040850160208701611dfd565b601f01601f19169190910160400192915050565b60008060408385031215611e6757600080fd5b50508035926020909101359150565b600080600080600080600060c0888a031215611e9157600080fd5b8735965060208801359550604088013594506060880135935060808801356001600160401b03811115611ec357600080fd5b611ecf8a828b01611b5e565b9094509250611ee2905060a08901611ba9565b905092959891949750929550565b602080825282518282018190526000918401906040840190835b81811015611f28578351835260209384019390920191600101611f0a565b509095945050505050565b634e487b7160e01b600052603260045260246000fd5b634e487b7160e01b600052601160045260246000fd5b808201808211156106b0576106b0611f49565b818103818111156106b0576106b0611f49565b93845260208401929092526040830152606082015260800190565b600060018201611fb257611fb2611f49565b5060010190565b80820281158282048414176106b0576106b0611f49565b600060208284031215611fe257600080fd5b5051919050565b634e487b7160e01b600052603160045260246000fd5b60008251612011818460208701611dfd565b919091019291505056fe360894a13ba1a3210667c828492db98dca3e2076cc3735a920a3ca505d382bbc017b1c583db0d753e82f5a7f7b94f64603f7e401eb2c40271a8edce1431cf09e0e4b5abdbacc88ea82f7039d0cc2b0185da78d8fe1d85531edfebd57d65707d58fc0db93d562284b2140b5ba84181e6d8649504e729013e6a8c704ffb08d04b9339759585899103d2ace64958e37e18ccb0504652c81d4a1b8aa80fe2126ab95a26469706673582212207de268044f6bf201cdc6adcccb295271954bdce74c4a1c2f0acf3c1483f4b4a564736f6c634300081c0033",
  "devdoc": {
    "errors": {
      "AccessControlBadConfirmation()": [
        {
          "details": "The caller of a function is not the expected one. NOTE: Don't confuse with {AccessControlUnauthorizedAccount}."
        }
      ],
      "AccessControlUnauthorizedAccount(address,bytes32)": [
        {
          "details": "The `account` is missing a role."
        }
      ],
      "AddressEmptyCode(address)": [
        {
          "details": "There's no code at `target` (it is not a contract)."
        }
      ],
      "ERC1967InvalidImplementation(address)": [
        {
          "details": "The `implementation` of the proxy is invalid."
        }
      ],
      "ERC1967NonPayable()": [
        {
          "details": "An upgrade function sees `msg.value > 0` that may be lost."
        }
      ],
      "EnforcedPause()": [
        {
          "details": "The operation failed because the contract is paused."
        }
      ],
      "ExpectedPause()": [
        {
          "details": "The operation failed because the contract is not paused."
        }
      ],
      "FailedInnerCall()": [
        {
          "details": "A call to an address target failed. The target may have reverted."
        }
      ],
      "InvalidInitialization()": [
        {
          "details": "The contract is already initialized."
        }
      ],
      "NotInitializing()": [
        {
          "details": "The contract is not initializing."
        }
      ],
      "ReentrancyGuardReentrantCall()": [
        {
          "details": "Unauthorized reentrant call."
        }
      ],
      "UUPSUnauthorizedCallContext()": [
        {
          "details": "The call is from an unauthorized context."
        }
      ],
      "UUPSUnsupportedProxiableUUID(bytes32)": [
        {
          "details": "The storage `slot` is unsupported as a UUID."
        }
      ]
    },
    "events": {
      "Initialized(uint64)": {
        "details": "Triggered when the contract has been initialized or reinitialized."
      },
      "Paused(address)": {
        "details": "Emitted when the pause is triggered by `account`."
      },
      "RoleAdminChanged(bytes32,bytes32,bytes32)": {
        "details": "Emitted when `newAdminRole` is set as ``role``'s admin role, replacing `previousAdminRole` `DEFAULT_ADMIN_ROLE` is the starting admin for all roles, despite {RoleAdminChanged} not being emitted signaling this."
      },
      "RoleGranted(bytes32,address,address)": {
        "details": "Emitted when `account` is granted `role`. `sender` is the account that originated the contract call, an admin role bearer except when using {AccessControl-_setupRole}."
      },
      "RoleRevoked(bytes32,address,address)": {
        "details": "Emitted when `account` is revoked `role`. `sender` is the account that originated the contract call:   - if using `revokeRole`, it is the admin role bearer   - if using `renounceRole`, it is the role bearer (i.e. `account`)"
      },
      "Unpaused(address)": {
        "details": "Emitted when the pause is lifted by `account`."
      },
      "Upgraded(address)": {
        "details": "Emitted when the implementation is upgraded."
      }
    },
    "kind": "dev",
    "methods": {
      "constructor": {
        "custom:oz-upgrades-unsafe-allow": "constructor"
      },
      "getRoleAdmin(bytes32)": {
        "details": "Returns the admin role that controls `role`. See {grantRole} and {revokeRole}. To change a role's admin, use {_setRoleAdmin}."
      },
      "grantRole(bytes32,address)": {
        "details": "Grants `role` to `account`. If `account` had not been already granted `role`, emits a {RoleGranted} event. Requirements: - the caller must have ``role``'s admin role. May emit a {RoleGranted} event."
      },
      "hasRole(bytes32,address)": {
        "details": "Returns `true` if `account` has been granted `role`."
      },
      "paused()": {
        "details": "Returns true if the contract is paused, and false otherwise."
      },
      "proxiableUUID()": {
        "details": "Implementation of the ERC1822 {proxiableUUID} function. This returns the storage slot used by the implementation. It is used to validate the implementation's compatibility when performing an upgrade. IMPORTANT: A proxy pointing at a proxiable contract should not be considered proxiable itself, because this risks bricking a proxy that upgrades to it, by delegating to itself until out of gas. Thus it is critical that this function revert if invoked through a proxy. This is guaranteed by the `notDelegated` modifier."
      },
      "renounceRole(bytes32,address)": {
        "details": "Revokes `role` from the calling account. Roles are often managed via {grantRole} and {revokeRole}: this function's purpose is to provide a mechanism for accounts to lose their privileges if they are compromised (such as when a trusted device is misplaced). If the calling account had been revoked `role`, emits a {RoleRevoked} event. Requirements: - the caller must be `callerConfirmation`. May emit a {RoleRevoked} event."
      },
      "revokeRole(bytes32,address)": {
        "details": "Revokes `role` from `account`. If `account` had been granted `role`, emits a {RoleRevoked} event. Requirements: - the caller must have ``role``'s admin role. May emit a {RoleRevoked} event."
      },
      "supportsInterface(bytes4)": {
        "details": "See {IERC165-supportsInterface}."
      },
      "upgradeToAndCall(address,bytes)": {
        "custom:oz-upgrades-unsafe-allow-reachable": "delegatecall",
        "details": "Upgrade the implementation of the proxy to `newImplementation`, and subsequently execute the function call encoded in `data`. Calls {_authorizeUpgrade}. Emits an {Upgraded} event."
      }
    },
    "version": 1
  },
  "userdoc": {
    "kind": "user",
    "methods": {
      "createEpochs()": {
        "notice": "Creates epochs up to current block"
      },
      "createEpochsUntilBlockNumber(uint256)": {
        "notice": "Creates epochs up to specified block"
      }
    },
    "version": 1
  },
  "storageLayout": {
    "storage": [
      {
        "astId": 6646,
        "contract": "contracts/vanaEpoch/VanaEpochImplementation.sol:VanaEpochImplementation",
        "label": "dlpRegistry",
        "offset": 0,
        "slot": "0",
        "type": "t_contract(IDLPRegistry)5544"
      },
      {
        "astId": 6649,
        "contract": "contracts/vanaEpoch/VanaEpochImplementation.sol:VanaEpochImplementation",
        "label": "epochRewardAmount",
        "offset": 0,
        "slot": "1",
        "type": "t_uint256"
      },
      {
        "astId": 6652,
        "contract": "contracts/vanaEpoch/VanaEpochImplementation.sol:VanaEpochImplementation",
        "label": "daySize",
        "offset": 0,
        "slot": "2",
        "type": "t_uint256"
      },
      {
        "astId": 6655,
        "contract": "contracts/vanaEpoch/VanaEpochImplementation.sol:VanaEpochImplementation",
        "label": "epochSize",
        "offset": 0,
        "slot": "3",
        "type": "t_uint256"
      },
      {
        "astId": 6658,
        "contract": "contracts/vanaEpoch/VanaEpochImplementation.sol:VanaEpochImplementation",
        "label": "epochsCount",
        "offset": 0,
        "slot": "4",
        "type": "t_uint256"
      },
      {
        "astId": 6663,
        "contract": "contracts/vanaEpoch/VanaEpochImplementation.sol:VanaEpochImplementation",
        "label": "_epochs",
        "offset": 0,
        "slot": "5",
        "type": "t_mapping(t_uint256,t_struct(Epoch)6482_storage)"
      },
      {
        "astId": 6667,
        "contract": "contracts/vanaEpoch/VanaEpochImplementation.sol:VanaEpochImplementation",
        "label": "dlpPerformance",
        "offset": 0,
        "slot": "6",
        "type": "t_contract(IDLPPerformance)5305"
      }
    ],
    "types": {
      "t_array(t_bytes32)dyn_storage": {
        "base": "t_bytes32",
        "encoding": "dynamic_array",
        "label": "bytes32[]",
        "numberOfBytes": "32"
      },
      "t_bool": {
        "encoding": "inplace",
        "label": "bool",
        "numberOfBytes": "1"
      },
      "t_bytes32": {
        "encoding": "inplace",
        "label": "bytes32",
        "numberOfBytes": "32"
      },
      "t_contract(IDLPPerformance)5305": {
        "encoding": "inplace",
        "label": "contract IDLPPerformance",
        "numberOfBytes": "20"
      },
      "t_contract(IDLPRegistry)5544": {
        "encoding": "inplace",
        "label": "contract IDLPRegistry",
        "numberOfBytes": "20"
      },
      "t_mapping(t_bytes32,t_uint256)": {
        "encoding": "mapping",
        "key": "t_bytes32",
        "label": "mapping(bytes32 => uint256)",
        "numberOfBytes": "32",
        "value": "t_uint256"
      },
      "t_mapping(t_uint256,t_struct(Epoch)6482_storage)": {
        "encoding": "mapping",
        "key": "t_uint256",
        "label": "mapping(uint256 => struct IVanaEpoch.Epoch)",
        "numberOfBytes": "32",
        "value": "t_struct(Epoch)6482_storage"
      },
      "t_mapping(t_uint256,t_struct(EpochDlp)6465_storage)": {
        "encoding": "mapping",
        "key": "t_uint256",
        "label": "mapping(uint256 => struct IVanaEpoch.EpochDlp)",
        "numberOfBytes": "32",
        "value": "t_struct(EpochDlp)6465_storage"
      },
      "t_struct(Epoch)6482_storage": {
        "encoding": "inplace",
        "label": "struct IVanaEpoch.Epoch",
        "members": [
          {
            "astId": 6467,
            "contract": "contracts/vanaEpoch/VanaEpochImplementation.sol:VanaEpochImplementation",
            "label": "startBlock",
            "offset": 0,
            "slot": "0",
            "type": "t_uint256"
          },
          {
            "astId": 6469,
            "contract": "contracts/vanaEpoch/VanaEpochImplementation.sol:VanaEpochImplementation",
            "label": "endBlock",
            "offset": 0,
            "slot": "1",
            "type": "t_uint256"
          },
          {
            "astId": 6471,
            "contract": "contracts/vanaEpoch/VanaEpochImplementation.sol:VanaEpochImplementation",
            "label": "rewardAmount",
            "offset": 0,
            "slot": "2",
            "type": "t_uint256"
          },
          {
            "astId": 6473,
            "contract": "contracts/vanaEpoch/VanaEpochImplementation.sol:VanaEpochImplementation",
            "label": "isFinalized",
            "offset": 0,
            "slot": "3",
            "type": "t_bool"
          },
          {
            "astId": 6476,
            "contract": "contracts/vanaEpoch/VanaEpochImplementation.sol:VanaEpochImplementation",
            "label": "dlpIds",
            "offset": 0,
            "slot": "4",
            "type": "t_struct(UintSet)5079_storage"
          },
          {
            "astId": 6481,
            "contract": "contracts/vanaEpoch/VanaEpochImplementation.sol:VanaEpochImplementation",
            "label": "dlps",
            "offset": 0,
            "slot": "6",
            "type": "t_mapping(t_uint256,t_struct(EpochDlp)6465_storage)"
          }
        ],
        "numberOfBytes": "224"
      },
      "t_struct(EpochDlp)6465_storage": {
        "encoding": "inplace",
        "label": "struct IVanaEpoch.EpochDlp",
        "members": [
          {
            "astId": 6464,
            "contract": "contracts/vanaEpoch/VanaEpochImplementation.sol:VanaEpochImplementation",
            "label": "rewardAmount",
            "offset": 0,
            "slot": "0",
            "type": "t_uint256"
          }
        ],
        "numberOfBytes": "32"
      },
      "t_struct(Set)4607_storage": {
        "encoding": "inplace",
        "label": "struct EnumerableSet.Set",
        "members": [
          {
            "astId": 4602,
            "contract": "contracts/vanaEpoch/VanaEpochImplementation.sol:VanaEpochImplementation",
            "label": "_values",
            "offset": 0,
            "slot": "0",
            "type": "t_array(t_bytes32)dyn_storage"
          },
          {
            "astId": 4606,
            "contract": "contracts/vanaEpoch/VanaEpochImplementation.sol:VanaEpochImplementation",
            "label": "_positions",
            "offset": 0,
            "slot": "1",
            "type": "t_mapping(t_bytes32,t_uint256)"
          }
        ],
        "numberOfBytes": "64"
      },
      "t_struct(UintSet)5079_storage": {
        "encoding": "inplace",
        "label": "struct EnumerableSet.UintSet",
        "members": [
          {
            "astId": 5078,
            "contract": "contracts/vanaEpoch/VanaEpochImplementation.sol:VanaEpochImplementation",
            "label": "_inner",
            "offset": 0,
            "slot": "0",
            "type": "t_struct(Set)4607_storage"
          }
        ],
        "numberOfBytes": "64"
      },
      "t_uint256": {
        "encoding": "inplace",
        "label": "uint256",
        "numberOfBytes": "32"
      }
    }
  }
}