{
  "address": "0x6Afeb9e8A15Bc3a8677e8c5C1A06eD1E8114D7a2",
  "abi": [
    {
      "inputs": [],
      "stateMutability": "nonpayable",
      "type": "constructor"
    },
    {
      "inputs": [],
      "name": "AccessControlBadConfirmation",
      "type": "error"
    },
    {
      "inputs": [
        {
          "internalType": "address",
          "name": "account",
          "type": "address"
        },
        {
          "internalType": "bytes32",
          "name": "neededRole",
          "type": "bytes32"
        }
      ],
      "name": "AccessControlUnauthorizedAccount",
      "type": "error"
    },
    {
      "inputs": [
        {
          "internalType": "address",
          "name": "target",
          "type": "address"
        }
      ],
      "name": "AddressEmptyCode",
      "type": "error"
    },
    {
      "inputs": [
        {
          "internalType": "address",
          "name": "implementation",
          "type": "address"
        }
      ],
      "name": "ERC1967InvalidImplementation",
      "type": "error"
    },
    {
      "inputs": [],
      "name": "ERC1967NonPayable",
      "type": "error"
    },
    {
      "inputs": [],
      "name": "EnforcedPause",
      "type": "error"
    },
    {
      "inputs": [],
      "name": "ExpectedPause",
      "type": "error"
    },
    {
      "inputs": [],
      "name": "FailedInnerCall",
      "type": "error"
    },
    {
      "inputs": [],
      "name": "InvalidInitialization",
      "type": "error"
    },
    {
      "inputs": [],
      "name": "NotInitializing",
      "type": "error"
    },
    {
      "inputs": [],
      "name": "UUPSUnauthorizedCallContext",
      "type": "error"
    },
    {
      "inputs": [
        {
          "internalType": "bytes32",
          "name": "slot",
          "type": "bytes32"
        }
      ],
      "name": "UUPSUnsupportedProxiableUUID",
      "type": "error"
    },
    {
      "anonymous": false,
      "inputs": [
        {
          "indexed": false,
          "internalType": "uint64",
          "name": "version",
          "type": "uint64"
        }
      ],
      "name": "Initialized",
      "type": "event"
    },
    {
      "anonymous": false,
      "inputs": [
        {
          "indexed": false,
          "internalType": "address",
          "name": "account",
          "type": "address"
        }
      ],
      "name": "Paused",
      "type": "event"
    },
    {
      "anonymous": false,
      "inputs": [
        {
          "indexed": true,
          "internalType": "bytes32",
          "name": "role",
          "type": "bytes32"
        },
        {
          "indexed": true,
          "internalType": "bytes32",
          "name": "previousAdminRole",
          "type": "bytes32"
        },
        {
          "indexed": true,
          "internalType": "bytes32",
          "name": "newAdminRole",
          "type": "bytes32"
        }
      ],
      "name": "RoleAdminChanged",
      "type": "event"
    },
    {
      "anonymous": false,
      "inputs": [
        {
          "indexed": true,
          "internalType": "bytes32",
          "name": "role",
          "type": "bytes32"
        },
        {
          "indexed": true,
          "internalType": "address",
          "name": "account",
          "type": "address"
        },
        {
          "indexed": true,
          "internalType": "address",
          "name": "sender",
          "type": "address"
        }
      ],
      "name": "RoleGranted",
      "type": "event"
    },
    {
      "anonymous": false,
      "inputs": [
        {
          "indexed": true,
          "internalType": "bytes32",
          "name": "role",
          "type": "bytes32"
        },
        {
          "indexed": true,
          "internalType": "address",
          "name": "account",
          "type": "address"
        },
        {
          "indexed": true,
          "internalType": "address",
          "name": "sender",
          "type": "address"
        }
      ],
      "name": "RoleRevoked",
      "type": "event"
    },
    {
      "anonymous": false,
      "inputs": [
        {
          "indexed": false,
          "internalType": "address",
          "name": "account",
          "type": "address"
        }
      ],
      "name": "Unpaused",
      "type": "event"
    },
    {
      "anonymous": false,
      "inputs": [
        {
          "indexed": true,
          "internalType": "address",
          "name": "implementation",
          "type": "address"
        }
      ],
      "name": "Upgraded",
      "type": "event"
    },
    {
      "inputs": [],
      "name": "DEFAULT_ADMIN_ROLE",
      "outputs": [
        {
          "internalType": "bytes32",
          "name": "",
          "type": "bytes32"
        }
      ],
      "stateMutability": "view",
      "type": "function"
    },
    {
      "inputs": [],
      "name": "UPGRADE_INTERFACE_VERSION",
      "outputs": [
        {
          "internalType": "string",
          "name": "",
          "type": "string"
        }
      ],
      "stateMutability": "view",
      "type": "function"
    },
    {
      "inputs": [
        {
          "internalType": "bytes32",
          "name": "role",
          "type": "bytes32"
        }
      ],
      "name": "getRoleAdmin",
      "outputs": [
        {
          "internalType": "bytes32",
          "name": "",
          "type": "bytes32"
        }
      ],
      "stateMutability": "view",
      "type": "function"
    },
    {
      "inputs": [
        {
          "internalType": "bytes32",
          "name": "role",
          "type": "bytes32"
        },
        {
          "internalType": "address",
          "name": "account",
          "type": "address"
        }
      ],
      "name": "grantRole",
      "outputs": [],
      "stateMutability": "nonpayable",
      "type": "function"
    },
    {
      "inputs": [
        {
          "internalType": "bytes32",
          "name": "role",
          "type": "bytes32"
        },
        {
          "internalType": "address",
          "name": "account",
          "type": "address"
        }
      ],
      "name": "hasRole",
      "outputs": [
        {
          "internalType": "bool",
          "name": "",
          "type": "bool"
        }
      ],
      "stateMutability": "view",
      "type": "function"
    },
    {
      "inputs": [
        {
          "internalType": "address",
          "name": "ownerAddress",
          "type": "address"
        },
        {
          "internalType": "address",
          "name": "vanaPoolAddress",
          "type": "address"
        }
      ],
      "name": "initialize",
      "outputs": [],
      "stateMutability": "nonpayable",
      "type": "function"
    },
    {
      "inputs": [],
      "name": "pause",
      "outputs": [],
      "stateMutability": "nonpayable",
      "type": "function"
    },
    {
      "inputs": [],
      "name": "paused",
      "outputs": [
        {
          "internalType": "bool",
          "name": "",
          "type": "bool"
        }
      ],
      "stateMutability": "view",
      "type": "function"
    },
    {
      "inputs": [],
      "name": "proxiableUUID",
      "outputs": [
        {
          "internalType": "bytes32",
          "name": "",
          "type": "bytes32"
        }
      ],
      "stateMutability": "view",
      "type": "function"
    },
    {
      "inputs": [
        {
          "internalType": "bytes32",
          "name": "role",
          "type": "bytes32"
        },
        {
          "internalType": "address",
          "name": "callerConfirmation",
          "type": "address"
        }
      ],
      "name": "renounceRole",
      "outputs": [],
      "stateMutability": "nonpayable",
      "type": "function"
    },
    {
      "inputs": [
        {
          "internalType": "bytes32",
          "name": "role",
          "type": "bytes32"
        },
        {
          "internalType": "address",
          "name": "account",
          "type": "address"
        }
      ],
      "name": "revokeRole",
      "outputs": [],
      "stateMutability": "nonpayable",
      "type": "function"
    },
    {
      "inputs": [
        {
          "internalType": "bytes4",
          "name": "interfaceId",
          "type": "bytes4"
        }
      ],
      "name": "supportsInterface",
      "outputs": [
        {
          "internalType": "bool",
          "name": "",
          "type": "bool"
        }
      ],
      "stateMutability": "view",
      "type": "function"
    },
    {
      "inputs": [
        {
          "internalType": "address payable",
          "name": "to",
          "type": "address"
        },
        {
          "internalType": "uint256",
          "name": "value",
          "type": "uint256"
        }
      ],
      "name": "transferVana",
      "outputs": [
        {
          "internalType": "bool",
          "name": "",
          "type": "bool"
        }
      ],
      "stateMutability": "nonpayable",
      "type": "function"
    },
    {
      "inputs": [],
      "name": "unpause",
      "outputs": [],
      "stateMutability": "nonpayable",
      "type": "function"
    },
    {
      "inputs": [
        {
          "internalType": "address",
          "name": "vanaPoolAddress",
          "type": "address"
        }
      ],
      "name": "updateVanaPool",
      "outputs": [],
      "stateMutability": "nonpayable",
      "type": "function"
    },
    {
      "inputs": [
        {
          "internalType": "address",
          "name": "newImplementation",
          "type": "address"
        },
        {
          "internalType": "bytes",
          "name": "data",
          "type": "bytes"
        }
      ],
      "name": "upgradeToAndCall",
      "outputs": [],
      "stateMutability": "payable",
      "type": "function"
    },
    {
      "inputs": [],
      "name": "vanaPool",
      "outputs": [
        {
          "internalType": "address",
          "name": "",
          "type": "address"
        }
      ],
      "stateMutability": "view",
      "type": "function"
    },
    {
      "inputs": [],
      "name": "version",
      "outputs": [
        {
          "internalType": "uint256",
          "name": "",
          "type": "uint256"
        }
      ],
      "stateMutability": "pure",
      "type": "function"
    },
    {
      "stateMutability": "payable",
      "type": "receive"
    }
  ],
  "transactionHash": "0xb15ca497997514e4f3e704f386176074ee883571822fc4363a22ebe80133a914",
  "args": [],
  "numDeployments": 1,
  "solcInputHash": "79668c1c3a900abb0d433ef6aefbf97a",
  "bytecode": "0x60a06040523060805234801561001457600080fd5b5061001d610022565b6100d4565b7ff0c57e16840df040f15088dc2f81fe391c3923bec73e23a9662efc9c229c6a00805468010000000000000000900460ff16156100725760405163f92ee8a960e01b815260040160405180910390fd5b80546001600160401b03908116146100d15780546001600160401b0319166001600160401b0390811782556040519081527fc7f505b2f371ae2175ee4913f4499e1f2633a7b5936321eed1cdaeb6115181d29060200160405180910390a15b50565b60805161100d6100fd600039600081816108a9015281816108d20152610a16015261100d6000f3fe6080604052600436106100dd5760003560e01c806301ffc9a7146100e9578063117511c91461011e578063248a9ca31461013e5780632f2ff15d1461016c57806336568abe1461018e5780633f4ba83a146101ae578063485cc955146101c35780634f1ef286146101e357806352d1902d146101f657806354d3d52a1461020b57806354fd4d501461022b5780635c975abb1461023f5780635fbfb5db146102545780638456cb591461028157806391d1485414610296578063a217fddf146102b6578063ad3cb1cc146102cb578063d547741f1461030957600080fd5b366100e457005b600080fd5b3480156100f557600080fd5b50610109610104366004610d3f565b610329565b60405190151581526020015b60405180910390f35b34801561012a57600080fd5b50610109610139366004610d7e565b610360565b34801561014a57600080fd5b5061015e610159366004610daa565b6103d3565b604051908152602001610115565b34801561017857600080fd5b5061018c610187366004610dc3565b6103f3565b005b34801561019a57600080fd5b5061018c6101a9366004610dc3565b610415565b3480156101ba57600080fd5b5061018c61044d565b3480156101cf57600080fd5b5061018c6101de366004610df3565b610463565b61018c6101f1366004610e37565b61059e565b34801561020257600080fd5b5061015e6105bd565b34801561021757600080fd5b5061018c610226366004610efa565b6105da565b34801561023757600080fd5b50600161015e565b34801561024b57600080fd5b50610109610622565b34801561026057600080fd5b50600054610274906001600160a01b031681565b6040516101159190610f17565b34801561028d57600080fd5b5061018c610637565b3480156102a257600080fd5b506101096102b1366004610dc3565b61064a565b3480156102c257600080fd5b5061015e600081565b3480156102d757600080fd5b506102fc604051806040016040528060058152602001640352e302e360dc1b81525081565b6040516101159190610f4f565b34801561031557600080fd5b5061018c610324366004610dc3565b610680565b60006001600160e01b03198216637965db0b60e01b148061035a57506301ffc9a760e01b6001600160e01b03198316145b92915050565b600061036a61069c565b6000610375816106c4565b6000846001600160a01b03168460405160006040518083038185875af1925050503d80600081146103c2576040519150601f19603f3d011682016040523d82523d6000602084013e6103c7565b606091505b50909695505050505050565b6000806103de6106ce565b60009384526020525050604090206001015490565b6103fc826103d3565b610405816106c4565b61040f83836106f2565b50505050565b6001600160a01b038116331461043e5760405163334bd91960e11b815260040160405180910390fd5b6104488282610793565b505050565b6000610458816106c4565b61046061080b565b50565b600061046d610862565b805490915060ff600160401b82041615906001600160401b03166000811580156104945750825b90506000826001600160401b031660011480156104b05750303b155b9050811580156104be575080155b156104dc5760405163f92ee8a960e01b815260040160405180910390fd5b84546001600160401b0319166001178555831561050557845460ff60401b1916600160401b1785555b61050d610886565b610515610886565b61051d61088e565b600080546001600160a01b0319166001600160a01b03881617815561054290886106f2565b5061054e6000876106f2565b50831561059557845460ff60401b19168555604051600181527fc7f505b2f371ae2175ee4913f4499e1f2633a7b5936321eed1cdaeb6115181d29060200160405180910390a15b50505050505050565b6105a661089e565b6105af82610943565b6105b9828261094e565b5050565b60006105c7610a0b565b50600080516020610fb883398151915290565b60006105e5816106c4565b600080546105fc91906001600160a01b0316610793565b50600080546001600160a01b0319166001600160a01b03841617815561044890836106f2565b60008061062d610a54565b5460ff1692915050565b6000610642816106c4565b610460610a78565b6000806106556106ce565b6000948552602090815260408086206001600160a01b03959095168652939052505090205460ff1690565b610689826103d3565b610692816106c4565b61040f8383610793565b6106a4610622565b156106c25760405163d93c066560e01b815260040160405180910390fd5b565b6104608133610abf565b7f02dd7bc7dec4dceedda775e58dd541e08a116c6c53815c0bd028192f7b62680090565b6000806106fd6106ce565b9050610709848461064a565b610789576000848152602082815260408083206001600160a01b03871684529091529020805460ff1916600117905561073f3390565b6001600160a01b0316836001600160a01b0316857f2f8788117e7eff1d82e926ec794901d17c78024a50270940304540a733656f0d60405160405180910390a4600191505061035a565b600091505061035a565b60008061079e6106ce565b90506107aa848461064a565b15610789576000848152602082815260408083206001600160a01b0387168085529252808320805460ff1916905551339287917ff6391f5c32d9c69d2a47ea670b442974b53935d1edc7fd64eb21e047a839171b9190a4600191505061035a565b610813610af8565b600061081d610a54565b805460ff1916815590507f5db9ee0a495bf2e6ff9c91a7834c1ba4fdd244a5e8aa4e537bd38aeae4b073aa335b6040516108579190610f17565b60405180910390a150565b7ff0c57e16840df040f15088dc2f81fe391c3923bec73e23a9662efc9c229c6a0090565b6106c2610b1d565b610896610b1d565b6106c2610b42565b306001600160a01b037f000000000000000000000000000000000000000000000000000000000000000016148061092557507f00000000000000000000000000000000000000000000000000000000000000006001600160a01b0316610919600080516020610fb8833981519152546001600160a01b031690565b6001600160a01b031614155b156106c25760405163703e46dd60e11b815260040160405180910390fd5b60006105b9816106c4565b816001600160a01b03166352d1902d6040518163ffffffff1660e01b8152600401602060405180830381865afa9250505080156109a8575060408051601f3d908101601f191682019092526109a591810190610f82565b60015b6109d05781604051634c9c8ce360e01b81526004016109c79190610f17565b60405180910390fd5b600080516020610fb88339815191528114610a0157604051632a87526960e21b8152600481018290526024016109c7565b6104488383610b5f565b306001600160a01b037f000000000000000000000000000000000000000000000000000000000000000016146106c25760405163703e46dd60e11b815260040160405180910390fd5b7fcd5ed15c6e187e77e9aee88184c21f4f2182ab5827cb3b7e07fbedcd63f0330090565b610a8061069c565b6000610a8a610a54565b805460ff1916600117815590507f62e78cea01bee320cd4e420270b5ea74000d11b0c9f74754ebdbfc544b05a25861084a3390565b610ac9828261064a565b6105b95760405163e2517d3f60e01b81526001600160a01b0382166004820152602481018390526044016109c7565b610b00610622565b6106c257604051638dfc202b60e01b815260040160405180910390fd5b610b25610bb5565b6106c257604051631afcd79f60e31b815260040160405180910390fd5b610b4a610b1d565b6000610b54610a54565b805460ff1916905550565b610b6882610bcf565b6040516001600160a01b038316907fbc7cd75a20ee27fd9adebab32041f755214dbc6bffa90cc0225b39da2e5c2d3b90600090a2805115610bad576104488282610c2b565b6105b9610ca1565b6000610bbf610862565b54600160401b900460ff16919050565b806001600160a01b03163b600003610bfc5780604051634c9c8ce360e01b81526004016109c79190610f17565b600080516020610fb883398151915280546001600160a01b0319166001600160a01b0392909216919091179055565b6060600080846001600160a01b031684604051610c489190610f9b565b600060405180830381855af49150503d8060008114610c83576040519150601f19603f3d011682016040523d82523d6000602084013e610c88565b606091505b5091509150610c98858383610cc0565b95945050505050565b34156106c25760405163b398979f60e01b815260040160405180910390fd5b606082610cd557610cd082610d16565b610d0f565b8151158015610cec57506001600160a01b0384163b155b15610d0c5783604051639996b31560e01b81526004016109c79190610f17565b50805b9392505050565b805115610d265780518082602001fd5b604051630a12f52160e11b815260040160405180910390fd5b600060208284031215610d5157600080fd5b81356001600160e01b031981168114610d0f57600080fd5b6001600160a01b038116811461046057600080fd5b60008060408385031215610d9157600080fd5b8235610d9c81610d69565b946020939093013593505050565b600060208284031215610dbc57600080fd5b5035919050565b60008060408385031215610dd657600080fd5b823591506020830135610de881610d69565b809150509250929050565b60008060408385031215610e0657600080fd5b8235610e1181610d69565b91506020830135610de881610d69565b634e487b7160e01b600052604160045260246000fd5b60008060408385031215610e4a57600080fd5b8235610e5581610d69565b915060208301356001600160401b0380821115610e7157600080fd5b818501915085601f830112610e8557600080fd5b813581811115610e9757610e97610e21565b604051601f8201601f19908116603f01168101908382118183101715610ebf57610ebf610e21565b81604052828152886020848701011115610ed857600080fd5b8260208601602083013760006020848301015280955050505050509250929050565b600060208284031215610f0c57600080fd5b8135610d0f81610d69565b6001600160a01b0391909116815260200190565b60005b83811015610f46578181015183820152602001610f2e565b50506000910152565b6020815260008251806020840152610f6e816040850160208701610f2b565b601f01601f19169190910160400192915050565b600060208284031215610f9457600080fd5b5051919050565b60008251610fad818460208701610f2b565b919091019291505056fe360894a13ba1a3210667c828492db98dca3e2076cc3735a920a3ca505d382bbca26469706673582212205c3e0b08e08018532bada643484514bf7b8ee10d336a849a06e1c061c10b371064736f6c63430008180033",
  "devdoc": {
    "errors": {
      "AccessControlBadConfirmation()": [
        {
          "details": "The caller of a function is not the expected one. NOTE: Don't confuse with {AccessControlUnauthorizedAccount}."
        }
      ],
      "AccessControlUnauthorizedAccount(address,bytes32)": [
        {
          "details": "The `account` is missing a role."
        }
      ],
      "AddressEmptyCode(address)": [
        {
          "details": "There's no code at `target` (it is not a contract)."
        }
      ],
      "ERC1967InvalidImplementation(address)": [
        {
          "details": "The `implementation` of the proxy is invalid."
        }
      ],
      "ERC1967NonPayable()": [
        {
          "details": "An upgrade function sees `msg.value > 0` that may be lost."
        }
      ],
      "EnforcedPause()": [
        {
          "details": "The operation failed because the contract is paused."
        }
      ],
      "ExpectedPause()": [
        {
          "details": "The operation failed because the contract is not paused."
        }
      ],
      "FailedInnerCall()": [
        {
          "details": "A call to an address target failed. The target may have reverted."
        }
      ],
      "InvalidInitialization()": [
        {
          "details": "The contract is already initialized."
        }
      ],
      "NotInitializing()": [
        {
          "details": "The contract is not initializing."
        }
      ],
      "UUPSUnauthorizedCallContext()": [
        {
          "details": "The call is from an unauthorized context."
        }
      ],
      "UUPSUnsupportedProxiableUUID(bytes32)": [
        {
          "details": "The storage `slot` is unsupported as a UUID."
        }
      ]
    },
    "events": {
      "Initialized(uint64)": {
        "details": "Triggered when the contract has been initialized or reinitialized."
      },
      "Paused(address)": {
        "details": "Emitted when the pause is triggered by `account`."
      },
      "RoleAdminChanged(bytes32,bytes32,bytes32)": {
        "details": "Emitted when `newAdminRole` is set as ``role``'s admin role, replacing `previousAdminRole` `DEFAULT_ADMIN_ROLE` is the starting admin for all roles, despite {RoleAdminChanged} not being emitted signaling this."
      },
      "RoleGranted(bytes32,address,address)": {
        "details": "Emitted when `account` is granted `role`. `sender` is the account that originated the contract call, an admin role bearer except when using {AccessControl-_setupRole}."
      },
      "RoleRevoked(bytes32,address,address)": {
        "details": "Emitted when `account` is revoked `role`. `sender` is the account that originated the contract call:   - if using `revokeRole`, it is the admin role bearer   - if using `renounceRole`, it is the role bearer (i.e. `account`)"
      },
      "Unpaused(address)": {
        "details": "Emitted when the pause is lifted by `account`."
      },
      "Upgraded(address)": {
        "details": "Emitted when the implementation is upgraded."
      }
    },
    "kind": "dev",
    "methods": {
      "constructor": {
        "custom:oz-upgrades-unsafe-allow": "constructor"
      },
      "getRoleAdmin(bytes32)": {
        "details": "Returns the admin role that controls `role`. See {grantRole} and {revokeRole}. To change a role's admin, use {_setRoleAdmin}."
      },
      "grantRole(bytes32,address)": {
        "details": "Grants `role` to `account`. If `account` had not been already granted `role`, emits a {RoleGranted} event. Requirements: - the caller must have ``role``'s admin role. May emit a {RoleGranted} event."
      },
      "hasRole(bytes32,address)": {
        "details": "Returns `true` if `account` has been granted `role`."
      },
      "paused()": {
        "details": "Returns true if the contract is paused, and false otherwise."
      },
      "proxiableUUID()": {
        "details": "Implementation of the ERC1822 {proxiableUUID} function. This returns the storage slot used by the implementation. It is used to validate the implementation's compatibility when performing an upgrade. IMPORTANT: A proxy pointing at a proxiable contract should not be considered proxiable itself, because this risks bricking a proxy that upgrades to it, by delegating to itself until out of gas. Thus it is critical that this function revert if invoked through a proxy. This is guaranteed by the `notDelegated` modifier."
      },
      "renounceRole(bytes32,address)": {
        "details": "Revokes `role` from the calling account. Roles are often managed via {grantRole} and {revokeRole}: this function's purpose is to provide a mechanism for accounts to lose their privileges if they are compromised (such as when a trusted device is misplaced). If the calling account had been revoked `role`, emits a {RoleRevoked} event. Requirements: - the caller must be `callerConfirmation`. May emit a {RoleRevoked} event."
      },
      "revokeRole(bytes32,address)": {
        "details": "Revokes `role` from `account`. If `account` had been granted `role`, emits a {RoleRevoked} event. Requirements: - the caller must have ``role``'s admin role. May emit a {RoleRevoked} event."
      },
      "supportsInterface(bytes4)": {
        "details": "See {IERC165-supportsInterface}."
      },
      "upgradeToAndCall(address,bytes)": {
        "custom:oz-upgrades-unsafe-allow-reachable": "delegatecall",
        "details": "Upgrade the implementation of the proxy to `newImplementation`, and subsequently execute the function call encoded in `data`. Calls {_authorizeUpgrade}. Emits an {Upgraded} event."
      }
    },
    "version": 1
  },
  "userdoc": {
    "kind": "user",
    "methods": {},
    "version": 1
  },
  "storageLayout": {
    "storage": [
      {
        "astId": 5377,
        "contract": "contracts/vanaPoolTreasury/VanaPoolTreasuryImplementation.sol:VanaPoolTreasuryImplementation",
        "label": "vanaPool",
        "offset": 0,
        "slot": "0",
        "type": "t_address"
      }
    ],
    "types": {
      "t_address": {
        "encoding": "inplace",
        "label": "address",
        "numberOfBytes": "20"
      }
    }
  }
}