{
  "address": "0x5331b40a2F7F91B09B1a19797EaBEbDB6b18a8D0",
  "abi": [
    {
      "inputs": [],
      "stateMutability": "nonpayable",
      "type": "constructor"
    },
    {
      "inputs": [],
      "name": "AccessControlBadConfirmation",
      "type": "error"
    },
    {
      "inputs": [
        {
          "internalType": "address",
          "name": "account",
          "type": "address"
        },
        {
          "internalType": "bytes32",
          "name": "neededRole",
          "type": "bytes32"
        }
      ],
      "name": "AccessControlUnauthorizedAccount",
      "type": "error"
    },
    {
      "inputs": [
        {
          "internalType": "address",
          "name": "target",
          "type": "address"
        }
      ],
      "name": "AddressEmptyCode",
      "type": "error"
    },
    {
      "inputs": [],
      "name": "ComputeEngineNotSet",
      "type": "error"
    },
    {
      "inputs": [
        {
          "internalType": "address",
          "name": "implementation",
          "type": "address"
        }
      ],
      "name": "ERC1967InvalidImplementation",
      "type": "error"
    },
    {
      "inputs": [],
      "name": "ERC1967NonPayable",
      "type": "error"
    },
    {
      "inputs": [],
      "name": "EnforcedPause",
      "type": "error"
    },
    {
      "inputs": [],
      "name": "ExpectedPause",
      "type": "error"
    },
    {
      "inputs": [],
      "name": "FailedInnerCall",
      "type": "error"
    },
    {
      "inputs": [],
      "name": "InvalidInitialization",
      "type": "error"
    },
    {
      "inputs": [],
      "name": "InvalidTeePoolParams",
      "type": "error"
    },
    {
      "inputs": [],
      "name": "InvalidTimeout",
      "type": "error"
    },
    {
      "inputs": [],
      "name": "NotInitializing",
      "type": "error"
    },
    {
      "inputs": [],
      "name": "TeePoolAlreadyCreated",
      "type": "error"
    },
    {
      "inputs": [],
      "name": "UUPSUnauthorizedCallContext",
      "type": "error"
    },
    {
      "inputs": [
        {
          "internalType": "bytes32",
          "name": "slot",
          "type": "bytes32"
        }
      ],
      "name": "UUPSUnsupportedProxiableUUID",
      "type": "error"
    },
    {
      "anonymous": false,
      "inputs": [
        {
          "indexed": false,
          "internalType": "uint64",
          "name": "version",
          "type": "uint64"
        }
      ],
      "name": "Initialized",
      "type": "event"
    },
    {
      "anonymous": false,
      "inputs": [
        {
          "indexed": false,
          "internalType": "address",
          "name": "account",
          "type": "address"
        }
      ],
      "name": "Paused",
      "type": "event"
    },
    {
      "anonymous": false,
      "inputs": [
        {
          "indexed": true,
          "internalType": "bytes32",
          "name": "role",
          "type": "bytes32"
        },
        {
          "indexed": true,
          "internalType": "bytes32",
          "name": "previousAdminRole",
          "type": "bytes32"
        },
        {
          "indexed": true,
          "internalType": "bytes32",
          "name": "newAdminRole",
          "type": "bytes32"
        }
      ],
      "name": "RoleAdminChanged",
      "type": "event"
    },
    {
      "anonymous": false,
      "inputs": [
        {
          "indexed": true,
          "internalType": "bytes32",
          "name": "role",
          "type": "bytes32"
        },
        {
          "indexed": true,
          "internalType": "address",
          "name": "account",
          "type": "address"
        },
        {
          "indexed": true,
          "internalType": "address",
          "name": "sender",
          "type": "address"
        }
      ],
      "name": "RoleGranted",
      "type": "event"
    },
    {
      "anonymous": false,
      "inputs": [
        {
          "indexed": true,
          "internalType": "bytes32",
          "name": "role",
          "type": "bytes32"
        },
        {
          "indexed": true,
          "internalType": "address",
          "name": "account",
          "type": "address"
        },
        {
          "indexed": true,
          "internalType": "address",
          "name": "sender",
          "type": "address"
        }
      ],
      "name": "RoleRevoked",
      "type": "event"
    },
    {
      "anonymous": false,
      "inputs": [
        {
          "indexed": true,
          "internalType": "address",
          "name": "teePoolAddress",
          "type": "address"
        },
        {
          "indexed": false,
          "internalType": "enum IComputeEngineTeePool.TeePoolType",
          "name": "teePoolType",
          "type": "uint8"
        },
        {
          "indexed": false,
          "internalType": "enum IComputeEngineTeePool.HardwareType",
          "name": "hardwareType",
          "type": "uint8"
        },
        {
          "indexed": false,
          "internalType": "uint80",
          "name": "maxTimeout",
          "type": "uint80"
        }
      ],
      "name": "TeePoolCreated",
      "type": "event"
    },
    {
      "anonymous": false,
      "inputs": [
        {
          "indexed": false,
          "internalType": "address",
          "name": "account",
          "type": "address"
        }
      ],
      "name": "Unpaused",
      "type": "event"
    },
    {
      "anonymous": false,
      "inputs": [
        {
          "indexed": true,
          "internalType": "address",
          "name": "implementation",
          "type": "address"
        }
      ],
      "name": "Upgraded",
      "type": "event"
    },
    {
      "inputs": [],
      "name": "DEDICATED_TIMEOUT",
      "outputs": [
        {
          "internalType": "uint80",
          "name": "",
          "type": "uint80"
        }
      ],
      "stateMutability": "view",
      "type": "function"
    },
    {
      "inputs": [],
      "name": "DEFAULT_ADMIN_ROLE",
      "outputs": [
        {
          "internalType": "bytes32",
          "name": "",
          "type": "bytes32"
        }
      ],
      "stateMutability": "view",
      "type": "function"
    },
    {
      "inputs": [],
      "name": "MAINTAINER_ROLE",
      "outputs": [
        {
          "internalType": "bytes32",
          "name": "",
          "type": "bytes32"
        }
      ],
      "stateMutability": "view",
      "type": "function"
    },
    {
      "inputs": [],
      "name": "UPGRADE_INTERFACE_VERSION",
      "outputs": [
        {
          "internalType": "string",
          "name": "",
          "type": "string"
        }
      ],
      "stateMutability": "view",
      "type": "function"
    },
    {
      "inputs": [],
      "name": "computeEngine",
      "outputs": [
        {
          "internalType": "address",
          "name": "",
          "type": "address"
        }
      ],
      "stateMutability": "view",
      "type": "function"
    },
    {
      "inputs": [
        {
          "internalType": "enum IComputeEngineTeePool.TeePoolType",
          "name": "teePoolType",
          "type": "uint8"
        },
        {
          "internalType": "enum IComputeEngineTeePool.HardwareType",
          "name": "hardwareType",
          "type": "uint8"
        }
      ],
      "name": "createTeePool",
      "outputs": [
        {
          "internalType": "address",
          "name": "",
          "type": "address"
        }
      ],
      "stateMutability": "nonpayable",
      "type": "function"
    },
    {
      "inputs": [],
      "name": "ephemeralTimeout",
      "outputs": [
        {
          "internalType": "uint80",
          "name": "",
          "type": "uint80"
        }
      ],
      "stateMutability": "view",
      "type": "function"
    },
    {
      "inputs": [
        {
          "internalType": "bytes32",
          "name": "role",
          "type": "bytes32"
        }
      ],
      "name": "getRoleAdmin",
      "outputs": [
        {
          "internalType": "bytes32",
          "name": "",
          "type": "bytes32"
        }
      ],
      "stateMutability": "view",
      "type": "function"
    },
    {
      "inputs": [
        {
          "internalType": "uint80",
          "name": "maxTimeout",
          "type": "uint80"
        },
        {
          "internalType": "bool",
          "name": "gpuRequired",
          "type": "bool"
        }
      ],
      "name": "getTeePoolAddress",
      "outputs": [
        {
          "internalType": "contract IComputeEngineTeePool",
          "name": "",
          "type": "address"
        }
      ],
      "stateMutability": "view",
      "type": "function"
    },
    {
      "inputs": [
        {
          "internalType": "bytes32",
          "name": "role",
          "type": "bytes32"
        },
        {
          "internalType": "address",
          "name": "account",
          "type": "address"
        }
      ],
      "name": "grantRole",
      "outputs": [],
      "stateMutability": "nonpayable",
      "type": "function"
    },
    {
      "inputs": [
        {
          "internalType": "bytes32",
          "name": "role",
          "type": "bytes32"
        },
        {
          "internalType": "address",
          "name": "account",
          "type": "address"
        }
      ],
      "name": "hasRole",
      "outputs": [
        {
          "internalType": "bool",
          "name": "",
          "type": "bool"
        }
      ],
      "stateMutability": "view",
      "type": "function"
    },
    {
      "inputs": [
        {
          "internalType": "address",
          "name": "ownerAddress",
          "type": "address"
        },
        {
          "internalType": "contract ComputeEngineTeePoolProxyFactory",
          "name": "initTeePoolProxyFactory",
          "type": "address"
        },
        {
          "internalType": "uint80",
          "name": "initEphemeralTimeout",
          "type": "uint80"
        },
        {
          "internalType": "uint80",
          "name": "initPersistentTimeout",
          "type": "uint80"
        }
      ],
      "name": "initialize",
      "outputs": [],
      "stateMutability": "nonpayable",
      "type": "function"
    },
    {
      "inputs": [],
      "name": "pause",
      "outputs": [],
      "stateMutability": "nonpayable",
      "type": "function"
    },
    {
      "inputs": [],
      "name": "paused",
      "outputs": [
        {
          "internalType": "bool",
          "name": "",
          "type": "bool"
        }
      ],
      "stateMutability": "view",
      "type": "function"
    },
    {
      "inputs": [],
      "name": "persistentTimeout",
      "outputs": [
        {
          "internalType": "uint80",
          "name": "",
          "type": "uint80"
        }
      ],
      "stateMutability": "view",
      "type": "function"
    },
    {
      "inputs": [],
      "name": "proxiableUUID",
      "outputs": [
        {
          "internalType": "bytes32",
          "name": "",
          "type": "bytes32"
        }
      ],
      "stateMutability": "view",
      "type": "function"
    },
    {
      "inputs": [
        {
          "internalType": "bytes32",
          "name": "role",
          "type": "bytes32"
        },
        {
          "internalType": "address",
          "name": "callerConfirmation",
          "type": "address"
        }
      ],
      "name": "renounceRole",
      "outputs": [],
      "stateMutability": "nonpayable",
      "type": "function"
    },
    {
      "inputs": [
        {
          "internalType": "bytes32",
          "name": "role",
          "type": "bytes32"
        },
        {
          "internalType": "address",
          "name": "account",
          "type": "address"
        }
      ],
      "name": "revokeRole",
      "outputs": [],
      "stateMutability": "nonpayable",
      "type": "function"
    },
    {
      "inputs": [
        {
          "internalType": "bytes4",
          "name": "interfaceId",
          "type": "bytes4"
        }
      ],
      "name": "supportsInterface",
      "outputs": [
        {
          "internalType": "bool",
          "name": "",
          "type": "bool"
        }
      ],
      "stateMutability": "view",
      "type": "function"
    },
    {
      "inputs": [],
      "name": "teePoolProxyFactory",
      "outputs": [
        {
          "internalType": "contract ComputeEngineTeePoolProxyFactory",
          "name": "",
          "type": "address"
        }
      ],
      "stateMutability": "view",
      "type": "function"
    },
    {
      "inputs": [
        {
          "internalType": "enum IComputeEngineTeePool.TeePoolType",
          "name": "teePoolType",
          "type": "uint8"
        },
        {
          "internalType": "enum IComputeEngineTeePool.HardwareType",
          "name": "hardwareType",
          "type": "uint8"
        }
      ],
      "name": "teePools",
      "outputs": [
        {
          "internalType": "contract IComputeEngineTeePool",
          "name": "",
          "type": "address"
        }
      ],
      "stateMutability": "view",
      "type": "function"
    },
    {
      "inputs": [],
      "name": "unpause",
      "outputs": [],
      "stateMutability": "nonpayable",
      "type": "function"
    },
    {
      "inputs": [
        {
          "internalType": "address",
          "name": "newComputeEngine",
          "type": "address"
        }
      ],
      "name": "updateComputeEngine",
      "outputs": [],
      "stateMutability": "nonpayable",
      "type": "function"
    },
    {
      "inputs": [
        {
          "internalType": "uint80",
          "name": "timeout",
          "type": "uint80"
        }
      ],
      "name": "updateEphemeralTimeout",
      "outputs": [],
      "stateMutability": "nonpayable",
      "type": "function"
    },
    {
      "inputs": [
        {
          "internalType": "uint80",
          "name": "timeout",
          "type": "uint80"
        }
      ],
      "name": "updatePersistentTimeout",
      "outputs": [],
      "stateMutability": "nonpayable",
      "type": "function"
    },
    {
      "inputs": [
        {
          "internalType": "contract ComputeEngineTeePoolProxyFactory",
          "name": "newTeePoolProxyFactory",
          "type": "address"
        }
      ],
      "name": "updateTeePoolProxyFactory",
      "outputs": [],
      "stateMutability": "nonpayable",
      "type": "function"
    },
    {
      "inputs": [
        {
          "internalType": "address",
          "name": "newImplementation",
          "type": "address"
        },
        {
          "internalType": "bytes",
          "name": "data",
          "type": "bytes"
        }
      ],
      "name": "upgradeToAndCall",
      "outputs": [],
      "stateMutability": "payable",
      "type": "function"
    },
    {
      "inputs": [],
      "name": "version",
      "outputs": [
        {
          "internalType": "uint256",
          "name": "",
          "type": "uint256"
        }
      ],
      "stateMutability": "pure",
      "type": "function"
    }
  ],
  "transactionHash": "0x223d10bd495a1ffc11e17f5e9fb51358e55faec072178d459224ccde679ec51b",
  "args": [],
  "numDeployments": 3,
  "solcInputHash": "c5549831c06c979c2138779e7f1fbe93",
  "bytecode": "0x60a06040523060805234801561001457600080fd5b5061001d610022565b6100d4565b7ff0c57e16840df040f15088dc2f81fe391c3923bec73e23a9662efc9c229c6a00805468010000000000000000900460ff16156100725760405163f92ee8a960e01b815260040160405180910390fd5b80546001600160401b03908116146100d15780546001600160401b0319166001600160401b0390811782556040519081527fc7f505b2f371ae2175ee4913f4499e1f2633a7b5936321eed1cdaeb6115181d29060200160405180910390a15b50565b608051611aca6100fd600039600081816110150152818161103e01526111840152611aca6000f3fe6080604052600436106101475760003560e01c806301ffc9a71461014c5780630395ae9b1461018157806312bbf15e146101ae578063248a9ca3146101d05780632f2ff15d146101fe57806331f28f481461021e57806336568abe1461023e5780633f4ba83a1461025e5780634f1ef2861461027357806352d1902d1461028657806354fd4d501461029b57806355812880146102af5780635c975abb146102cf57806370779316146102e45780637a1fe13f1461030c5780638456cb591461032c5780638922984a1461034157806391d1485414610361578063a217fddf14610381578063a539eccf14610396578063a58785dc146103b6578063ad3cb1cc146103d6578063c281658714610414578063d547741f1461043b578063da5415301461045b578063dfc811411461047b578063f87422541461049b578063f9acefd1146104bd575b600080fd5b34801561015857600080fd5b5061016c610167366004611603565b6104dd565b60405190151581526020015b60405180910390f35b34801561018d57600080fd5b506101a161019c366004611649565b610514565b6040516101789190611685565b3480156101ba57600080fd5b506101ce6101c9366004611699565b610548565b005b3480156101dc57600080fd5b506101f06101eb3660046116b4565b6106c4565b604051908152602001610178565b34801561020a57600080fd5b506101ce6102193660046116e2565b6106e4565b34801561022a57600080fd5b506101ce610239366004611699565b610700565b34801561024a57600080fd5b506101ce6102593660046116e2565b610809565b34801561026a57600080fd5b506101ce610841565b6101ce61028136600461171d565b610864565b34801561029257600080fd5b506101f0610883565b3480156102a757600080fd5b5060016101f0565b3480156102bb57600080fd5b506002546101a1906001600160a01b031681565b3480156102db57600080fd5b5061016c6108a0565b3480156102f057600080fd5b506102ff6001600160501b0381565b60405161017891906117e0565b34801561031857600080fd5b506001546101a1906001600160a01b031681565b34801561033857600080fd5b506101ce6108b5565b34801561034d57600080fd5b506101ce61035c3660046117f4565b6108d5565b34801561036d57600080fd5b5061016c61037c3660046116e2565b610a62565b34801561038d57600080fd5b506101f0600081565b3480156103a257600080fd5b506101a16103b136600461184c565b610a98565b3480156103c257600080fd5b506101ce6103d1366004611882565b610ac9565b3480156103e257600080fd5b50610407604051806040016040528060058152602001640352e302e360dc1b81525081565b60405161017891906118ef565b34801561042057600080fd5b506000546102ff90600160501b90046001600160501b031681565b34801561044757600080fd5b506101ce6104563660046116e2565b610b04565b34801561046757600080fd5b506101ce610476366004611882565b610b20565b34801561048757600080fd5b506000546102ff906001600160501b031681565b3480156104a757600080fd5b506101f0600080516020611a7583398151915281565b3480156104c957600080fd5b506101a16104d836600461184c565b610b5b565b60006001600160e01b03198216637965db0b60e01b148061050e57506301ffc9a760e01b6001600160e01b03198316145b92915050565b60008082610523576001610526565b60025b9050600061053385610e20565b905061053f8183610a98565b95945050505050565b600080516020611a7583398151915261056081610e6c565b6000546001600160501b03600160501b909104811690831610158061058c57506001600160501b038216155b156105aa57604051631ffb86f160e21b815260040160405180910390fd5b600080546001600160501b0319166001600160501b0384161781556105d0600180610a98565b90506001600160a01b0381161561064057604051638afb01ed60e01b81526001600160a01b03821690638afb01ed9061060d9086906004016117e0565b600060405180830381600087803b15801561062757600080fd5b505af115801561063b573d6000803e3d6000fd5b505050505b600061064e60016002610a98565b90506001600160a01b038116156106be57604051638afb01ed60e01b81526001600160a01b03821690638afb01ed9061068b9087906004016117e0565b600060405180830381600087803b1580156106a557600080fd5b505af11580156106b9573d6000803e3d6000fd5b505050505b50505050565b6000806106cf610e76565b60009384526020525050604090206001015490565b6106ed826106c4565b6106f681610e6c565b6106be8383610e9a565b600080516020611a7583398151915261071881610e6c565b6000546001600160501b0390811690831611158061073e57506001600160501b03828116145b1561075c57604051631ffb86f160e21b815260040160405180910390fd5b60008054600160501b600160a01b031916600160501b6001600160501b0385160217815561078c60026001610a98565b90506001600160a01b038116156107fc57604051638afb01ed60e01b81526001600160a01b03821690638afb01ed906107c99086906004016117e0565b600060405180830381600087803b1580156107e357600080fd5b505af11580156107f7573d6000803e3d6000fd5b505050505b600061064e600280610a98565b6001600160a01b03811633146108325760405163334bd91960e11b815260040160405180910390fd5b61083c8282610f3b565b505050565b600080516020611a7583398151915261085981610e6c565b610861610fb3565b50565b61086c61100a565b610875826110b1565b61087f82826110bc565b5050565b600061088d611179565b50600080516020611a5583398151915290565b6000806108ab6111c2565b5460ff1692915050565b600080516020611a758339815191526108cd81610e6c565b6108616111e6565b60006108df61122d565b805490915060ff600160401b82041615906001600160401b03166000811580156109065750825b90506000826001600160401b031660011480156109225750303b155b905081158015610930575080155b1561094e5760405163f92ee8a960e01b815260040160405180910390fd5b84546001600160401b0319166001178555831561097757845460ff60401b1916600160401b1785555b61097f611251565b610987611259565b61098f611251565b600180546001600160a01b038a166001600160a01b031991821617909155600080546001600160501b03898116600160501b0291909316928a16929092179190911781556109ec90600080516020611a7583398151915290611269565b6109f760008a610e9a565b50610a10600080516020611a758339815191528a610e9a565b508315610a5757845460ff60401b19168555604051600181527fc7f505b2f371ae2175ee4913f4499e1f2633a7b5936321eed1cdaeb6115181d29060200160405180910390a15b505050505050505050565b600080610a6d610e76565b6000948552602090815260408086206001600160a01b03959095168652939052505090205460ff1690565b600060036000610aa885856112c9565b81526020810191909152604001600020546001600160a01b03169392505050565b600080516020611a75833981519152610ae181610e6c565b50600180546001600160a01b0319166001600160a01b0392909216919091179055565b610b0d826106c4565b610b1681610e6c565b6106be8383610f3b565b600080516020611a75833981519152610b3881610e6c565b50600280546001600160a01b0319166001600160a01b0392909216919091179055565b6000600080516020611a75833981519152610b7581610e6c565b6002546001600160a01b0316610b9e576040516365487e9760e01b815260040160405180910390fd5b6000846003811115610bb257610bb2611902565b1480610bcf57506000836002811115610bcd57610bcd611902565b145b15610bed5760405163f6a5dc9360e01b815260040160405180910390fd5b6000610bf985856112c9565b6000818152600360205260409020549091506001600160a01b031615610c325760405163502a835f60e01b815260040160405180910390fd5b6000610c3d866112fc565b90506000600160009054906101000a90046001600160a01b03166001600160a01b0316635c60da1b6040518163ffffffff1660e01b8152600401602060405180830381865afa158015610c94573d6000803e3d6000fd5b505050506040513d601f19601f82011682018060405250810190610cb89190611918565b90506000600160009054906101000a90046001600160a01b03166001600160a01b031663d0b74ad4836001600160a01b031663bab8ff1533600260009054906101000a90046001600160a01b0316308e8e8b604051602401610d1f96959493929190611959565b60408051808303601f1901815291815260208201805160e094851b6001600160e01b03909116179052519184901b6001600160e01b0319168252610d679250906004016118ef565b6020604051808303816000875af1158015610d86573d6000803e3d6000fd5b505050506040513d601f19601f82011682018060405250810190610daa9190611918565b6000858152600360205260409081902080546001600160a01b0319166001600160a01b0384169081179091559051919250907f6e9a31e4ed93c34170e003b277082616b8f4a4a01545ed414c9dcef3564766c190610e0d908b908b9088906119af565b60405180910390a2979650505050505050565b600080546001600160501b039081169083161115610e64576000546001600160501b03600160501b90910481169083161115610e5d57600361050e565b600261050e565b600192915050565b6108618133611366565b7f02dd7bc7dec4dceedda775e58dd541e08a116c6c53815c0bd028192f7b62680090565b600080610ea5610e76565b9050610eb18484610a62565b610f31576000848152602082815260408083206001600160a01b03871684529091529020805460ff19166001179055610ee73390565b6001600160a01b0316836001600160a01b0316857f2f8788117e7eff1d82e926ec794901d17c78024a50270940304540a733656f0d60405160405180910390a4600191505061050e565b600091505061050e565b600080610f46610e76565b9050610f528484610a62565b15610f31576000848152602082815260408083206001600160a01b0387168085529252808320805460ff1916905551339287917ff6391f5c32d9c69d2a47ea670b442974b53935d1edc7fd64eb21e047a839171b9190a4600191505061050e565b610fbb61139f565b6000610fc56111c2565b805460ff1916815590507f5db9ee0a495bf2e6ff9c91a7834c1ba4fdd244a5e8aa4e537bd38aeae4b073aa335b604051610fff9190611685565b60405180910390a150565b306001600160a01b037f000000000000000000000000000000000000000000000000000000000000000016148061109157507f00000000000000000000000000000000000000000000000000000000000000006001600160a01b0316611085600080516020611a55833981519152546001600160a01b031690565b6001600160a01b031614155b156110af5760405163703e46dd60e11b815260040160405180910390fd5b565b600061087f81610e6c565b816001600160a01b03166352d1902d6040518163ffffffff1660e01b8152600401602060405180830381865afa925050508015611116575060408051601f3d908101601f19168201909252611113918101906119e3565b60015b61113e5781604051634c9c8ce360e01b81526004016111359190611685565b60405180910390fd5b600080516020611a55833981519152811461116f57604051632a87526960e21b815260048101829052602401611135565b61083c83836113c4565b306001600160a01b037f000000000000000000000000000000000000000000000000000000000000000016146110af5760405163703e46dd60e11b815260040160405180910390fd5b7fcd5ed15c6e187e77e9aee88184c21f4f2182ab5827cb3b7e07fbedcd63f0330090565b6111ee61141a565b60006111f86111c2565b805460ff1916600117815590507f62e78cea01bee320cd4e420270b5ea74000d11b0c9f74754ebdbfc544b05a258610ff23390565b7ff0c57e16840df040f15088dc2f81fe391c3923bec73e23a9662efc9c229c6a0090565b6110af611440565b611261611440565b6110af611465565b6000611273610e76565b90506000611280846106c4565b600085815260208490526040808220600101869055519192508491839187917fbd79b86ffe0ab8e8776151514217cd7cacd52c909f66475c3af44e129f0b00ff9190a450505050565b600082826040516020016112de9291906119fc565b60405160208183030381529060405280519060200120905092915050565b6000600182600381111561131257611312611902565b1461135557600282600381111561132b5761132b611902565b1461133d576001600160501b0361050e565b600054600160501b90046001600160501b031661050e565b50506000546001600160501b031690565b6113708282610a62565b61087f5760405163e2517d3f60e01b81526001600160a01b038216600482015260248101839052604401611135565b6113a76108a0565b6110af57604051638dfc202b60e01b815260040160405180910390fd5b6113cd82611482565b6040516001600160a01b038316907fbc7cd75a20ee27fd9adebab32041f755214dbc6bffa90cc0225b39da2e5c2d3b90600090a28051156114125761083c82826114de565b61087f61154b565b6114226108a0565b156110af5760405163d93c066560e01b815260040160405180910390fd5b61144861156a565b6110af57604051631afcd79f60e31b815260040160405180910390fd5b61146d611440565b60006114776111c2565b805460ff1916905550565b806001600160a01b03163b6000036114af5780604051634c9c8ce360e01b81526004016111359190611685565b600080516020611a5583398151915280546001600160a01b0319166001600160a01b0392909216919091179055565b6060600080846001600160a01b0316846040516114fb9190611a38565b600060405180830381855af49150503d8060008114611536576040519150601f19603f3d011682016040523d82523d6000602084013e61153b565b606091505b509150915061053f858383611584565b34156110af5760405163b398979f60e01b815260040160405180910390fd5b600061157461122d565b54600160401b900460ff16919050565b60608261159957611594826115da565b6115d3565b81511580156115b057506001600160a01b0384163b155b156115d05783604051639996b31560e01b81526004016111359190611685565b50805b9392505050565b8051156115ea5780518082602001fd5b604051630a12f52160e11b815260040160405180910390fd5b60006020828403121561161557600080fd5b81356001600160e01b0319811681146115d357600080fd5b80356001600160501b038116811461164457600080fd5b919050565b6000806040838503121561165c57600080fd5b6116658361162d565b91506020830135801515811461167a57600080fd5b809150509250929050565b6001600160a01b0391909116815260200190565b6000602082840312156116ab57600080fd5b6115d38261162d565b6000602082840312156116c657600080fd5b5035919050565b6001600160a01b038116811461086157600080fd5b600080604083850312156116f557600080fd5b82359150602083013561167a816116cd565b634e487b7160e01b600052604160045260246000fd5b6000806040838503121561173057600080fd5b823561173b816116cd565b915060208301356001600160401b038082111561175757600080fd5b818501915085601f83011261176b57600080fd5b81358181111561177d5761177d611707565b604051601f8201601f19908116603f011681019083821181831017156117a5576117a5611707565b816040528281528860208487010111156117be57600080fd5b8260208601602083013760006020848301015280955050505050509250929050565b6001600160501b0391909116815260200190565b6000806000806080858703121561180a57600080fd5b8435611815816116cd565b93506020850135611825816116cd565b92506118336040860161162d565b91506118416060860161162d565b905092959194509250565b6000806040838503121561185f57600080fd5b82356004811061186e57600080fd5b915060208301356003811061167a57600080fd5b60006020828403121561189457600080fd5b81356115d3816116cd565b60005b838110156118ba5781810151838201526020016118a2565b50506000910152565b600081518084526118db81602086016020860161189f565b601f01601f19169290920160200192915050565b6020815260006115d360208301846118c3565b634e487b7160e01b600052602160045260246000fd5b60006020828403121561192a57600080fd5b81516115d3816116cd565b6004811061194557611945611902565b9052565b6003811061194557611945611902565b6001600160a01b03878116825286811660208301528516604082015260c081016119866060830186611935565b6119936080830185611949565b6001600160501b039290921660a0919091015295945050505050565b606081016119bd8286611935565b6119ca6020830185611949565b6001600160501b03929092166040919091015292915050565b6000602082840312156119f557600080fd5b5051919050565b600060048410611a0e57611a0e611902565b8360f81b825260038310611a2457611a24611902565b5060f89190911b6001820152600201919050565b60008251611a4a81846020870161189f565b919091019291505056fe360894a13ba1a3210667c828492db98dca3e2076cc3735a920a3ca505d382bbc339759585899103d2ace64958e37e18ccb0504652c81d4a1b8aa80fe2126ab95a26469706673582212202951dff4ded792f26d5f55a57f42c85749ef309e80b68257f4dd039462cfce4e64736f6c63430008180033",
  "devdoc": {
    "errors": {
      "AccessControlBadConfirmation()": [
        {
          "details": "The caller of a function is not the expected one. NOTE: Don't confuse with {AccessControlUnauthorizedAccount}."
        }
      ],
      "AccessControlUnauthorizedAccount(address,bytes32)": [
        {
          "details": "The `account` is missing a role."
        }
      ],
      "AddressEmptyCode(address)": [
        {
          "details": "There's no code at `target` (it is not a contract)."
        }
      ],
      "ERC1967InvalidImplementation(address)": [
        {
          "details": "The `implementation` of the proxy is invalid."
        }
      ],
      "ERC1967NonPayable()": [
        {
          "details": "An upgrade function sees `msg.value > 0` that may be lost."
        }
      ],
      "EnforcedPause()": [
        {
          "details": "The operation failed because the contract is paused."
        }
      ],
      "ExpectedPause()": [
        {
          "details": "The operation failed because the contract is not paused."
        }
      ],
      "FailedInnerCall()": [
        {
          "details": "A call to an address target failed. The target may have reverted."
        }
      ],
      "InvalidInitialization()": [
        {
          "details": "The contract is already initialized."
        }
      ],
      "NotInitializing()": [
        {
          "details": "The contract is not initializing."
        }
      ],
      "UUPSUnauthorizedCallContext()": [
        {
          "details": "The call is from an unauthorized context."
        }
      ],
      "UUPSUnsupportedProxiableUUID(bytes32)": [
        {
          "details": "The storage `slot` is unsupported as a UUID."
        }
      ]
    },
    "events": {
      "Initialized(uint64)": {
        "details": "Triggered when the contract has been initialized or reinitialized."
      },
      "Paused(address)": {
        "details": "Emitted when the pause is triggered by `account`."
      },
      "RoleAdminChanged(bytes32,bytes32,bytes32)": {
        "details": "Emitted when `newAdminRole` is set as ``role``'s admin role, replacing `previousAdminRole` `DEFAULT_ADMIN_ROLE` is the starting admin for all roles, despite {RoleAdminChanged} not being emitted signaling this."
      },
      "RoleGranted(bytes32,address,address)": {
        "details": "Emitted when `account` is granted `role`. `sender` is the account that originated the contract call, an admin role bearer except when using {AccessControl-_setupRole}."
      },
      "RoleRevoked(bytes32,address,address)": {
        "details": "Emitted when `account` is revoked `role`. `sender` is the account that originated the contract call:   - if using `revokeRole`, it is the admin role bearer   - if using `renounceRole`, it is the role bearer (i.e. `account`)"
      },
      "Unpaused(address)": {
        "details": "Emitted when the pause is lifted by `account`."
      },
      "Upgraded(address)": {
        "details": "Emitted when the implementation is upgraded."
      }
    },
    "kind": "dev",
    "methods": {
      "constructor": {
        "custom:oz-upgrades-unsafe-allow": "constructor"
      },
      "getRoleAdmin(bytes32)": {
        "details": "Returns the admin role that controls `role`. See {grantRole} and {revokeRole}. To change a role's admin, use {_setRoleAdmin}."
      },
      "grantRole(bytes32,address)": {
        "details": "Grants `role` to `account`. If `account` had not been already granted `role`, emits a {RoleGranted} event. Requirements: - the caller must have ``role``'s admin role. May emit a {RoleGranted} event."
      },
      "hasRole(bytes32,address)": {
        "details": "Returns `true` if `account` has been granted `role`."
      },
      "initialize(address,address,uint80,uint80)": {
        "params": {
          "ownerAddress": "Address of the owner"
        }
      },
      "paused()": {
        "details": "Returns true if the contract is paused, and false otherwise."
      },
      "proxiableUUID()": {
        "details": "Implementation of the ERC1822 {proxiableUUID} function. This returns the storage slot used by the implementation. It is used to validate the implementation's compatibility when performing an upgrade. IMPORTANT: A proxy pointing at a proxiable contract should not be considered proxiable itself, because this risks bricking a proxy that upgrades to it, by delegating to itself until out of gas. Thus it is critical that this function revert if invoked through a proxy. This is guaranteed by the `notDelegated` modifier."
      },
      "renounceRole(bytes32,address)": {
        "details": "Revokes `role` from the calling account. Roles are often managed via {grantRole} and {revokeRole}: this function's purpose is to provide a mechanism for accounts to lose their privileges if they are compromised (such as when a trusted device is misplaced). If the calling account had been revoked `role`, emits a {RoleRevoked} event. Requirements: - the caller must be `callerConfirmation`. May emit a {RoleRevoked} event."
      },
      "revokeRole(bytes32,address)": {
        "details": "Revokes `role` from `account`. If `account` had been granted `role`, emits a {RoleRevoked} event. Requirements: - the caller must have ``role``'s admin role. May emit a {RoleRevoked} event."
      },
      "supportsInterface(bytes4)": {
        "details": "See {IERC165-supportsInterface}."
      },
      "upgradeToAndCall(address,bytes)": {
        "custom:oz-upgrades-unsafe-allow-reachable": "delegatecall",
        "details": "Upgrade the implementation of the proxy to `newImplementation`, and subsequently execute the function call encoded in `data`. Calls {_authorizeUpgrade}. Emits an {Upgraded} event."
      },
      "version()": {
        "returns": {
          "_0": "The version of the contract"
        }
      }
    },
    "version": 1
  },
  "userdoc": {
    "kind": "user",
    "methods": {
      "initialize(address,address,uint80,uint80)": {
        "notice": "Initializes the contract"
      },
      "pause()": {
        "notice": "Pauses the contract"
      },
      "unpause()": {
        "notice": "Unpauses the contract"
      },
      "version()": {
        "notice": "Returns the version of the contract"
      }
    },
    "version": 1
  },
  "storageLayout": {
    "storage": [
      {
        "astId": 9392,
        "contract": "contracts/computeEngineTeePoolFactory/ComputeEngineTeePoolFactoryImplementation.sol:ComputeEngineTeePoolFactoryImplementation",
        "label": "ephemeralTimeout",
        "offset": 0,
        "slot": "0",
        "type": "t_uint80"
      },
      {
        "astId": 9395,
        "contract": "contracts/computeEngineTeePoolFactory/ComputeEngineTeePoolFactoryImplementation.sol:ComputeEngineTeePoolFactoryImplementation",
        "label": "persistentTimeout",
        "offset": 10,
        "slot": "0",
        "type": "t_uint80"
      },
      {
        "astId": 9399,
        "contract": "contracts/computeEngineTeePoolFactory/ComputeEngineTeePoolFactoryImplementation.sol:ComputeEngineTeePoolFactoryImplementation",
        "label": "teePoolProxyFactory",
        "offset": 0,
        "slot": "1",
        "type": "t_contract(ComputeEngineTeePoolProxyFactory)8527"
      },
      {
        "astId": 9402,
        "contract": "contracts/computeEngineTeePoolFactory/ComputeEngineTeePoolFactoryImplementation.sol:ComputeEngineTeePoolFactoryImplementation",
        "label": "computeEngine",
        "offset": 0,
        "slot": "2",
        "type": "t_address"
      },
      {
        "astId": 9407,
        "contract": "contracts/computeEngineTeePoolFactory/ComputeEngineTeePoolFactoryImplementation.sol:ComputeEngineTeePoolFactoryImplementation",
        "label": "_teePools",
        "offset": 0,
        "slot": "3",
        "type": "t_mapping(t_bytes32,t_contract(IComputeEngineTeePool)8688)"
      }
    ],
    "types": {
      "t_address": {
        "encoding": "inplace",
        "label": "address",
        "numberOfBytes": "20"
      },
      "t_bytes32": {
        "encoding": "inplace",
        "label": "bytes32",
        "numberOfBytes": "32"
      },
      "t_contract(ComputeEngineTeePoolProxyFactory)8527": {
        "encoding": "inplace",
        "label": "contract ComputeEngineTeePoolProxyFactory",
        "numberOfBytes": "20"
      },
      "t_contract(IComputeEngineTeePool)8688": {
        "encoding": "inplace",
        "label": "contract IComputeEngineTeePool",
        "numberOfBytes": "20"
      },
      "t_mapping(t_bytes32,t_contract(IComputeEngineTeePool)8688)": {
        "encoding": "mapping",
        "key": "t_bytes32",
        "label": "mapping(bytes32 => contract IComputeEngineTeePool)",
        "numberOfBytes": "32",
        "value": "t_contract(IComputeEngineTeePool)8688"
      },
      "t_uint80": {
        "encoding": "inplace",
        "label": "uint80",
        "numberOfBytes": "10"
      }
    }
  }
}