{
  "address": "0x3615CF3a8A4A6298a62260Bf1227d933326c43Fe",
  "abi": [
    {
      "inputs": [],
      "stateMutability": "nonpayable",
      "type": "constructor"
    },
    {
      "inputs": [],
      "name": "AccessControlBadConfirmation",
      "type": "error"
    },
    {
      "inputs": [
        {
          "internalType": "address",
          "name": "account",
          "type": "address"
        },
        {
          "internalType": "bytes32",
          "name": "neededRole",
          "type": "bytes32"
        }
      ],
      "name": "AccessControlUnauthorizedAccount",
      "type": "error"
    },
    {
      "inputs": [],
      "name": "EnforcedPause",
      "type": "error"
    },
    {
      "inputs": [],
      "name": "ExpectedPause",
      "type": "error"
    },
    {
      "inputs": [],
      "name": "HWRequirementNotMet",
      "type": "error"
    },
    {
      "inputs": [],
      "name": "InvalidInitialization",
      "type": "error"
    },
    {
      "inputs": [],
      "name": "MaxTimeoutExceeded",
      "type": "error"
    },
    {
      "inputs": [
        {
          "internalType": "address",
          "name": "teePoolAddress",
          "type": "address"
        }
      ],
      "name": "NoActiveTee",
      "type": "error"
    },
    {
      "inputs": [],
      "name": "NotComputeEngine",
      "type": "error"
    },
    {
      "inputs": [],
      "name": "NotInitializing",
      "type": "error"
    },
    {
      "inputs": [],
      "name": "NotTeePoolFactory",
      "type": "error"
    },
    {
      "inputs": [],
      "name": "TeeAlreadyAdded",
      "type": "error"
    },
    {
      "inputs": [
        {
          "internalType": "address",
          "name": "teeAddress",
          "type": "address"
        }
      ],
      "name": "TeeNotActive",
      "type": "error"
    },
    {
      "anonymous": false,
      "inputs": [
        {
          "indexed": false,
          "internalType": "enum IComputeEngineTeePool.HardwareType",
          "name": "newHardwareType",
          "type": "uint8"
        }
      ],
      "name": "HardwareTypeUpdated",
      "type": "event"
    },
    {
      "anonymous": false,
      "inputs": [
        {
          "indexed": false,
          "internalType": "uint64",
          "name": "version",
          "type": "uint64"
        }
      ],
      "name": "Initialized",
      "type": "event"
    },
    {
      "anonymous": false,
      "inputs": [
        {
          "indexed": true,
          "internalType": "uint256",
          "name": "jobId",
          "type": "uint256"
        }
      ],
      "name": "JobRemoved",
      "type": "event"
    },
    {
      "anonymous": false,
      "inputs": [
        {
          "indexed": true,
          "internalType": "uint256",
          "name": "jobId",
          "type": "uint256"
        },
        {
          "indexed": false,
          "internalType": "address",
          "name": "teeAddress",
          "type": "address"
        }
      ],
      "name": "JobSubmitted",
      "type": "event"
    },
    {
      "anonymous": false,
      "inputs": [
        {
          "indexed": false,
          "internalType": "address",
          "name": "account",
          "type": "address"
        }
      ],
      "name": "Paused",
      "type": "event"
    },
    {
      "anonymous": false,
      "inputs": [
        {
          "indexed": true,
          "internalType": "bytes32",
          "name": "role",
          "type": "bytes32"
        },
        {
          "indexed": true,
          "internalType": "bytes32",
          "name": "previousAdminRole",
          "type": "bytes32"
        },
        {
          "indexed": true,
          "internalType": "bytes32",
          "name": "newAdminRole",
          "type": "bytes32"
        }
      ],
      "name": "RoleAdminChanged",
      "type": "event"
    },
    {
      "anonymous": false,
      "inputs": [
        {
          "indexed": true,
          "internalType": "bytes32",
          "name": "role",
          "type": "bytes32"
        },
        {
          "indexed": true,
          "internalType": "address",
          "name": "account",
          "type": "address"
        },
        {
          "indexed": true,
          "internalType": "address",
          "name": "sender",
          "type": "address"
        }
      ],
      "name": "RoleGranted",
      "type": "event"
    },
    {
      "anonymous": false,
      "inputs": [
        {
          "indexed": true,
          "internalType": "bytes32",
          "name": "role",
          "type": "bytes32"
        },
        {
          "indexed": true,
          "internalType": "address",
          "name": "account",
          "type": "address"
        },
        {
          "indexed": true,
          "internalType": "address",
          "name": "sender",
          "type": "address"
        }
      ],
      "name": "RoleRevoked",
      "type": "event"
    },
    {
      "anonymous": false,
      "inputs": [
        {
          "indexed": true,
          "internalType": "address",
          "name": "teeAddress",
          "type": "address"
        },
        {
          "indexed": false,
          "internalType": "string",
          "name": "url",
          "type": "string"
        },
        {
          "indexed": false,
          "internalType": "string",
          "name": "publicKey",
          "type": "string"
        }
      ],
      "name": "TeeAdded",
      "type": "event"
    },
    {
      "anonymous": false,
      "inputs": [
        {
          "indexed": false,
          "internalType": "enum IComputeEngineTeePool.TeePoolType",
          "name": "newTeePoolType",
          "type": "uint8"
        }
      ],
      "name": "TeePoolTypeUpdated",
      "type": "event"
    },
    {
      "anonymous": false,
      "inputs": [
        {
          "indexed": true,
          "internalType": "address",
          "name": "teeAddress",
          "type": "address"
        }
      ],
      "name": "TeeRemoved",
      "type": "event"
    },
    {
      "anonymous": false,
      "inputs": [
        {
          "indexed": false,
          "internalType": "address",
          "name": "account",
          "type": "address"
        }
      ],
      "name": "Unpaused",
      "type": "event"
    },
    {
      "inputs": [],
      "name": "DEFAULT_ADMIN_ROLE",
      "outputs": [
        {
          "internalType": "bytes32",
          "name": "",
          "type": "bytes32"
        }
      ],
      "stateMutability": "view",
      "type": "function"
    },
    {
      "inputs": [],
      "name": "MAINTAINER_ROLE",
      "outputs": [
        {
          "internalType": "bytes32",
          "name": "",
          "type": "bytes32"
        }
      ],
      "stateMutability": "view",
      "type": "function"
    },
    {
      "inputs": [],
      "name": "activeTeeList",
      "outputs": [
        {
          "internalType": "address[]",
          "name": "",
          "type": "address[]"
        }
      ],
      "stateMutability": "view",
      "type": "function"
    },
    {
      "inputs": [
        {
          "internalType": "uint256",
          "name": "index",
          "type": "uint256"
        }
      ],
      "name": "activeTeeListAt",
      "outputs": [
        {
          "components": [
            {
              "internalType": "address",
              "name": "teeAddress",
              "type": "address"
            },
            {
              "internalType": "string",
              "name": "url",
              "type": "string"
            },
            {
              "internalType": "enum IComputeEngineTeePool.TeeStatus",
              "name": "status",
              "type": "uint8"
            },
            {
              "internalType": "uint256",
              "name": "jobsCount",
              "type": "uint256"
            },
            {
              "internalType": "string",
              "name": "publicKey",
              "type": "string"
            }
          ],
          "internalType": "struct IComputeEngineTeePool.TeeInfo",
          "name": "",
          "type": "tuple"
        }
      ],
      "stateMutability": "view",
      "type": "function"
    },
    {
      "inputs": [],
      "name": "activeTeesCount",
      "outputs": [
        {
          "internalType": "uint256",
          "name": "",
          "type": "uint256"
        }
      ],
      "stateMutability": "view",
      "type": "function"
    },
    {
      "inputs": [
        {
          "internalType": "address",
          "name": "teeAddress",
          "type": "address"
        },
        {
          "internalType": "bytes",
          "name": "params",
          "type": "bytes"
        }
      ],
      "name": "addTee",
      "outputs": [],
      "stateMutability": "nonpayable",
      "type": "function"
    },
    {
      "inputs": [],
      "name": "computeEngine",
      "outputs": [
        {
          "internalType": "address",
          "name": "",
          "type": "address"
        }
      ],
      "stateMutability": "view",
      "type": "function"
    },
    {
      "inputs": [
        {
          "internalType": "bytes32",
          "name": "role",
          "type": "bytes32"
        }
      ],
      "name": "getRoleAdmin",
      "outputs": [
        {
          "internalType": "bytes32",
          "name": "",
          "type": "bytes32"
        }
      ],
      "stateMutability": "view",
      "type": "function"
    },
    {
      "inputs": [
        {
          "internalType": "bytes32",
          "name": "role",
          "type": "bytes32"
        },
        {
          "internalType": "address",
          "name": "account",
          "type": "address"
        }
      ],
      "name": "grantRole",
      "outputs": [],
      "stateMutability": "nonpayable",
      "type": "function"
    },
    {
      "inputs": [],
      "name": "hardwareType",
      "outputs": [
        {
          "internalType": "enum IComputeEngineTeePool.HardwareType",
          "name": "",
          "type": "uint8"
        }
      ],
      "stateMutability": "view",
      "type": "function"
    },
    {
      "inputs": [
        {
          "internalType": "bytes32",
          "name": "role",
          "type": "bytes32"
        },
        {
          "internalType": "address",
          "name": "account",
          "type": "address"
        }
      ],
      "name": "hasRole",
      "outputs": [
        {
          "internalType": "bool",
          "name": "",
          "type": "bool"
        }
      ],
      "stateMutability": "view",
      "type": "function"
    },
    {
      "inputs": [
        {
          "internalType": "address",
          "name": "ownerAddress",
          "type": "address"
        },
        {
          "internalType": "address",
          "name": "initComputeEngine",
          "type": "address"
        },
        {
          "internalType": "enum IComputeEngineTeePool.TeePoolType",
          "name": "initTeePoolType",
          "type": "uint8"
        },
        {
          "internalType": "enum IComputeEngineTeePool.HardwareType",
          "name": "initHardwareType",
          "type": "uint8"
        },
        {
          "internalType": "uint80",
          "name": "initMaxTimeout",
          "type": "uint80"
        }
      ],
      "name": "initialize",
      "outputs": [],
      "stateMutability": "nonpayable",
      "type": "function"
    },
    {
      "inputs": [
        {
          "internalType": "address",
          "name": "teeAddress",
          "type": "address"
        }
      ],
      "name": "isTee",
      "outputs": [
        {
          "internalType": "bool",
          "name": "",
          "type": "bool"
        }
      ],
      "stateMutability": "view",
      "type": "function"
    },
    {
      "inputs": [],
      "name": "maxTimeout",
      "outputs": [
        {
          "internalType": "uint80",
          "name": "",
          "type": "uint80"
        }
      ],
      "stateMutability": "view",
      "type": "function"
    },
    {
      "inputs": [],
      "name": "pause",
      "outputs": [],
      "stateMutability": "nonpayable",
      "type": "function"
    },
    {
      "inputs": [],
      "name": "paused",
      "outputs": [
        {
          "internalType": "bool",
          "name": "",
          "type": "bool"
        }
      ],
      "stateMutability": "view",
      "type": "function"
    },
    {
      "inputs": [
        {
          "internalType": "uint256",
          "name": "jobId",
          "type": "uint256"
        }
      ],
      "name": "removeJob",
      "outputs": [],
      "stateMutability": "nonpayable",
      "type": "function"
    },
    {
      "inputs": [
        {
          "internalType": "address",
          "name": "teeAddress",
          "type": "address"
        }
      ],
      "name": "removeTee",
      "outputs": [],
      "stateMutability": "nonpayable",
      "type": "function"
    },
    {
      "inputs": [
        {
          "internalType": "bytes32",
          "name": "role",
          "type": "bytes32"
        },
        {
          "internalType": "address",
          "name": "callerConfirmation",
          "type": "address"
        }
      ],
      "name": "renounceRole",
      "outputs": [],
      "stateMutability": "nonpayable",
      "type": "function"
    },
    {
      "inputs": [
        {
          "internalType": "bytes32",
          "name": "role",
          "type": "bytes32"
        },
        {
          "internalType": "address",
          "name": "account",
          "type": "address"
        }
      ],
      "name": "revokeRole",
      "outputs": [],
      "stateMutability": "nonpayable",
      "type": "function"
    },
    {
      "inputs": [
        {
          "internalType": "bytes",
          "name": "params",
          "type": "bytes"
        }
      ],
      "name": "submitJob",
      "outputs": [
        {
          "internalType": "address",
          "name": "",
          "type": "address"
        },
        {
          "internalType": "bytes",
          "name": "",
          "type": "bytes"
        }
      ],
      "stateMutability": "nonpayable",
      "type": "function"
    },
    {
      "inputs": [
        {
          "internalType": "bytes4",
          "name": "interfaceId",
          "type": "bytes4"
        }
      ],
      "name": "supportsInterface",
      "outputs": [
        {
          "internalType": "bool",
          "name": "",
          "type": "bool"
        }
      ],
      "stateMutability": "view",
      "type": "function"
    },
    {
      "inputs": [],
      "name": "teeList",
      "outputs": [
        {
          "internalType": "address[]",
          "name": "",
          "type": "address[]"
        }
      ],
      "stateMutability": "view",
      "type": "function"
    },
    {
      "inputs": [
        {
          "internalType": "uint256",
          "name": "index",
          "type": "uint256"
        }
      ],
      "name": "teeListAt",
      "outputs": [
        {
          "components": [
            {
              "internalType": "address",
              "name": "teeAddress",
              "type": "address"
            },
            {
              "internalType": "string",
              "name": "url",
              "type": "string"
            },
            {
              "internalType": "enum IComputeEngineTeePool.TeeStatus",
              "name": "status",
              "type": "uint8"
            },
            {
              "internalType": "uint256",
              "name": "jobsCount",
              "type": "uint256"
            },
            {
              "internalType": "string",
              "name": "publicKey",
              "type": "string"
            }
          ],
          "internalType": "struct IComputeEngineTeePool.TeeInfo",
          "name": "",
          "type": "tuple"
        }
      ],
      "stateMutability": "view",
      "type": "function"
    },
    {
      "inputs": [],
      "name": "teePoolFactory",
      "outputs": [
        {
          "internalType": "address",
          "name": "",
          "type": "address"
        }
      ],
      "stateMutability": "view",
      "type": "function"
    },
    {
      "inputs": [],
      "name": "teePoolType",
      "outputs": [
        {
          "internalType": "enum IComputeEngineTeePool.TeePoolType",
          "name": "",
          "type": "uint8"
        }
      ],
      "stateMutability": "view",
      "type": "function"
    },
    {
      "inputs": [
        {
          "internalType": "address",
          "name": "teeAddress",
          "type": "address"
        }
      ],
      "name": "tees",
      "outputs": [
        {
          "components": [
            {
              "internalType": "address",
              "name": "teeAddress",
              "type": "address"
            },
            {
              "internalType": "string",
              "name": "url",
              "type": "string"
            },
            {
              "internalType": "enum IComputeEngineTeePool.TeeStatus",
              "name": "status",
              "type": "uint8"
            },
            {
              "internalType": "uint256",
              "name": "jobsCount",
              "type": "uint256"
            },
            {
              "internalType": "string",
              "name": "publicKey",
              "type": "string"
            }
          ],
          "internalType": "struct IComputeEngineTeePool.TeeInfo",
          "name": "",
          "type": "tuple"
        }
      ],
      "stateMutability": "view",
      "type": "function"
    },
    {
      "inputs": [],
      "name": "teesCount",
      "outputs": [
        {
          "internalType": "uint256",
          "name": "",
          "type": "uint256"
        }
      ],
      "stateMutability": "view",
      "type": "function"
    },
    {
      "inputs": [],
      "name": "unpause",
      "outputs": [],
      "stateMutability": "nonpayable",
      "type": "function"
    },
    {
      "inputs": [
        {
          "internalType": "address",
          "name": "newComputeEngine",
          "type": "address"
        }
      ],
      "name": "updateComputeEngine",
      "outputs": [],
      "stateMutability": "nonpayable",
      "type": "function"
    },
    {
      "inputs": [
        {
          "internalType": "uint80",
          "name": "newMaxTimeout",
          "type": "uint80"
        }
      ],
      "name": "updateMaxTimeout",
      "outputs": [],
      "stateMutability": "nonpayable",
      "type": "function"
    },
    {
      "inputs": [
        {
          "internalType": "address",
          "name": "newTeePoolFactory",
          "type": "address"
        }
      ],
      "name": "updateTeePoolFactory",
      "outputs": [],
      "stateMutability": "nonpayable",
      "type": "function"
    },
    {
      "inputs": [],
      "name": "version",
      "outputs": [
        {
          "internalType": "uint256",
          "name": "",
          "type": "uint256"
        }
      ],
      "stateMutability": "pure",
      "type": "function"
    }
  ],
  "transactionHash": "0xa9e7676c1dfce512c84979b7a64c79053cb1655bc7079a8349ed410df4f2c9fa",
  "args": [],
  "numDeployments": 1,
  "solcInputHash": "8ed094972a966fa9855323d7fc4d263f",
  "bytecode": "0x608060405234801561001057600080fd5b5061001961001e565b6100d0565b7ff0c57e16840df040f15088dc2f81fe391c3923bec73e23a9662efc9c229c6a00805468010000000000000000900460ff161561006e5760405163f92ee8a960e01b815260040160405180910390fd5b80546001600160401b03908116146100cd5780546001600160401b0319166001600160401b0390811782556040519081527fc7f505b2f371ae2175ee4913f4499e1f2633a7b5936321eed1cdaeb6115181d29060200160405180910390a15b50565b611d42806100df6000396000f3fe608060405234801561001057600080fd5b506004361061018b5760003560e01c806301ffc9a71461019057806310f3cd30146101b8578063248a9ca3146101cd578063288fffac146101ee5780632a830749146102035780632f2ff15d1461021657806336568abe146102295780633f4ba83a1461023c5780634007f7741461024457806354fd4d5014610263578063558128801461026a5780635b818d36146102915780635c975abb146102995780636608e9d2146102a157806368b85aa5146102c257806373c88396146102f35780638456cb5914610313578063897388941461031b5780638afb01ed1461033557806391d1485414610348578063961884aa1461035b5780639b489fb81461036e5780639cb29cbd14610381578063a217fddf14610394578063a7016f701461039c578063abe4a66c146103af578063ca45a288146103c2578063d402919f146103d5578063d547741f146103dd578063da541530146103f0578063e21e860314610403578063eb07b9c614610416578063f87422541461041e575b600080fd5b6101a361019e3660046115df565b610433565b60405190151581526020015b60405180910390f35b6101c061046a565b6040516101af9190611609565b6101e06101db366004611656565b61047b565b6040519081526020016101af565b6102016101fc366004611684565b61049b565b005b6102016102113660046116e2565b610550565b610201610224366004611736565b61064c565b610201610237366004611736565b61066e565b6102016106a6565b60005461025690610100900460ff1681565b6040516101af919061178c565b60016101e0565b60005461028490600160601b90046001600160a01b031681565b6040516101af919061179f565b6101c06106c9565b6101a36106d5565b6102b46102af3660046117b3565b6106ea565b6040516101af92919061183a565b6000546102db906201000090046001600160501b031681565b6040516001600160501b0390911681526020016101af565b610306610301366004611656565b6109de565b6040516101af9190611866565b6102016109f4565b6000546103289060ff1681565b6040516101af91906118d9565b610201610343366004611909565b610a14565b6101a3610356366004611736565b610a69565b610306610369366004611684565b610a9f565b61020161037c366004611684565b610c2e565b61020161038f366004611656565b610c69565b6101e0600081565b6101a36103aa366004611684565b610d33565b6102016103bd366004611924565b610d6e565b6103066103d0366004611656565b610f48565b6101e0610f5e565b6102016103eb366004611736565b610f6a565b6102016103fe366004611684565b610f86565b600854610284906001600160a01b031681565b6101e0610fc7565b6101e0600080516020611ced83398151915281565b60006001600160e01b03198216637965db0b60e01b148061046457506301ffc9a760e01b6001600160e01b03198316145b92915050565b60606104766003610fd3565b905090565b600080610486610fe7565b60009384526020525050604090206001015490565b600080516020611ced8339815191526104b38161100b565b6104be600383611015565b6104e6578160405163335abe6160e21b81526004016104dd919061179f565b60405180910390fd5b6001600160a01b0382166000908152600560205260409020600101805460ff1916600217905561051760038361102a565b506040516001600160a01b038316907f18a003b29a5d1b1d6f0603956003fdc00a42ea8db3825c24a6bf532d5bae0bdf90600090a25050565b600080516020611ced8339815191526105688161100b565b610573600385611015565b1561059157604051637668d56b60e01b815260040160405180910390fd5b61059c60018561103f565b506105a860038561103f565b506000806105b884860186611a3b565b6001600160a01b03881660009081526005602052604090209193509150806105e08482611b28565b506001818101805460ff19169091179055600481016105ff8382611b28565b50866001600160a01b03167f33b65b0a9a715aea3bbcf1e054d4012e3752f2a4a98447c61b14be6fa587df5d848460405161063b929190611be7565b60405180910390a250505050505050565b6106558261047b565b61065e8161100b565b6106688383611054565b50505050565b6001600160a01b03811633146106975760405163334bd91960e11b815260040160405180910390fd5b6106a182826110f5565b505050565b600080516020611ced8339815191526106be8161100b565b6106c661116d565b50565b60606104766001610fd3565b6000806106e06111c4565b5460ff1692915050565b60008054606090600160601b90046001600160a01b031633146107205760405163b7ebf4b360e01b815260040160405180910390fd5b6107286111e8565b6107326003611210565b60000361079057600063f255781760e01b30604051602401610754919061179f565b60408051601f198184030181529190526020810180516001600160e01b03166001600160e01b03199093169290921790915290925090506109d7565b60008080806107a187890189611c0c565b93509350935093508180156107d257506002600054610100900460ff1660028111156107cf576107cf611766565b14155b156108105750506040805160048152602481019091526020810180516001600160e01b03166320dfb0bf60e11b1790526000945092506109d7915050565b6000546001600160501b0362010000909104811690841611156108665750506040805160048152602481019091526020810180516001600160e01b0316631b1e414b60e01b1790526000945092506109d7915050565b6000600360005460ff16600381111561088157610881611766565b146108b3576108ab6103696108966003611210565b6006546108a39190611c62565b60039061121a565b51905061091f565b6108bc82610d33565b61091c57600063cd6af98460e01b836040516024016108db919061179f565b604051602081830303815290604052906001600160e01b0319166020820180516001600160e01b0383818316178352505050509650965050505050506109d7565b50805b6001600160a01b03811660009081526005602052604090206109449060020186611226565b50600085815260076020526040812080546001600160a01b0319166001600160a01b038416179055600680546001929061097f908490611c9a565b92505081905550847ff1d26b191b1bee9baaf9392419d2859b11482d15e585cb16aa6e73cdc83fba32826040516109b6919061179f565b60405180910390a26040805160008152602081019091529096509450505050505b9250929050565b6109e66115b0565b61046461036960018461121a565b600080516020611ced833981519152610a0c8161100b565b6106c6611232565b6008546001600160a01b03163314610a3f57604051636e10c66960e01b815260040160405180910390fd5b600080546001600160501b03909216620100000262010000600160601b0319909216919091179055565b600080610a74610fe7565b6000948552602090815260408086206001600160a01b03959095168652939052505090205460ff1690565b610aa76115b0565b6001600160a01b038216600081815260056020908152604091829020825160a081019093529282528254908201908390610ae090611a9e565b80601f0160208091040260200160405190810160405280929190818152602001828054610b0c90611a9e565b8015610b595780601f10610b2e57610100808354040283529160200191610b59565b820191906000526020600020905b815481529060010190602001808311610b3c57829003601f168201915b5050509183525050600183015460209091019060ff166002811115610b8057610b80611766565b8152602001610b9183600201611210565b8152602001826004018054610ba590611a9e565b80601f0160208091040260200160405190810160405280929190818152602001828054610bd190611a9e565b8015610c1e5780601f10610bf357610100808354040283529160200191610c1e565b820191906000526020600020905b815481529060010190602001808311610c0157829003601f168201915b5050505050815250915050919050565b600080516020611ced833981519152610c468161100b565b50600880546001600160a01b0319166001600160a01b0392909216919091179055565b600054600160601b90046001600160a01b03163314610c9b5760405163b7ebf4b360e01b815260040160405180910390fd5b610ca36111e8565b6000818152600760205260409020546001600160a01b031680610cc4575050565b600082815260076020908152604080832080546001600160a01b03191690556001600160a01b038416835260059091529020610d039060020183611279565b5060405182907f6daba074dba7f6e2f5fd289e20080bf7047e96329b083fc1dab326fbefd762bb90600090a25050565b600060016001600160a01b03831660009081526005602052604090206001015460ff166002811115610d6757610d67611766565b1492915050565b6000610d78611285565b805490915060ff600160401b82041615906001600160401b0316600081158015610d9f5750825b90506000826001600160401b03166001148015610dbb5750303b155b905081158015610dc9575080155b15610de75760405163f92ee8a960e01b815260040160405180910390fd5b84546001600160401b03191660011785558315610e1057845460ff60401b1916600160401b1785555b610e186112a9565b610e206112b9565b600080546001600160601b038116600160601b6001600160a01b038d160290811783558a9291610100600160601b031660ff19909116176001836003811115610e6b57610e6b611766565b02179055506000805488919061ff001916610100836002811115610e9157610e91611766565b02179055506000805462010000600160601b031916620100006001600160501b03891602178155610ed190600080516020611ced833981519152906112c1565b610edc60008b611054565b50610ef5600080516020611ced8339815191528b611054565b508315610f3c57845460ff60401b19168555604051600181527fc7f505b2f371ae2175ee4913f4499e1f2633a7b5936321eed1cdaeb6115181d29060200160405180910390a15b50505050505050505050565b610f506115b0565b61046461036960038461121a565b60006104766003611210565b610f738261047b565b610f7c8161100b565b61066883836110f5565b600080516020611ced833981519152610f9e8161100b565b50600080546001600160a01b03909216600160601b026001600160601b03909216919091179055565b60006104766001611210565b60606000610fe083611321565b9392505050565b7f02dd7bc7dec4dceedda775e58dd541e08a116c6c53815c0bd028192f7b62680090565b6106c6813361137d565b6000610fe0836001600160a01b0384166113ba565b6000610fe0836001600160a01b0384166113d2565b6000610fe0836001600160a01b0384166114bb565b60008061105f610fe7565b905061106b8484610a69565b6110eb576000848152602082815260408083206001600160a01b03871684529091529020805460ff191660011790556110a13390565b6001600160a01b0316836001600160a01b0316857f2f8788117e7eff1d82e926ec794901d17c78024a50270940304540a733656f0d60405160405180910390a46001915050610464565b6000915050610464565b600080611100610fe7565b905061110c8484610a69565b156110eb576000848152602082815260408083206001600160a01b0387168085529252808320805460ff1916905551339287917ff6391f5c32d9c69d2a47ea670b442974b53935d1edc7fd64eb21e047a839171b9190a46001915050610464565b611175611505565b600061117f6111c4565b805460ff1916815590507f5db9ee0a495bf2e6ff9c91a7834c1ba4fdd244a5e8aa4e537bd38aeae4b073aa335b6040516111b9919061179f565b60405180910390a150565b7fcd5ed15c6e187e77e9aee88184c21f4f2182ab5827cb3b7e07fbedcd63f0330090565b6111f06106d5565b1561120e5760405163d93c066560e01b815260040160405180910390fd5b565b6000610464825490565b6000610fe0838361152a565b6000610fe083836114bb565b61123a6111e8565b60006112446111c4565b805460ff1916600117815590507f62e78cea01bee320cd4e420270b5ea74000d11b0c9f74754ebdbfc544b05a2586111ac3390565b6000610fe083836113d2565b7ff0c57e16840df040f15088dc2f81fe391c3923bec73e23a9662efc9c229c6a0090565b6112b1611554565b61120e611579565b61120e611554565b60006112cb610fe7565b905060006112d88461047b565b600085815260208490526040808220600101869055519192508491839187917fbd79b86ffe0ab8e8776151514217cd7cacd52c909f66475c3af44e129f0b00ff9190a450505050565b60608160000180548060200260200160405190810160405280929190818152602001828054801561137157602002820191906000526020600020905b81548152602001906001019080831161135d575b50505050509050919050565b6113878282610a69565b6113b65760405163e2517d3f60e01b81526001600160a01b0382166004820152602481018390526044016104dd565b5050565b60009081526001919091016020526040902054151590565b600081815260018301602052604081205480156110eb5760006113f6600183611cad565b855490915060009061140a90600190611cad565b905080821461146f57600086600001828154811061142a5761142a611cc0565b906000526020600020015490508087600001848154811061144d5761144d611cc0565b6000918252602080832090910192909255918252600188019052604090208390555b855486908061148057611480611cd6565b600190038181906000526020600020016000905590558560010160008681526020019081526020016000206000905560019350505050610464565b60006114c783836113ba565b6114fd57508154600181810184556000848152602080822090930184905584548482528286019093526040902091909155610464565b506000610464565b61150d6106d5565b61120e57604051638dfc202b60e01b815260040160405180910390fd5b600082600001828154811061154157611541611cc0565b9060005260206000200154905092915050565b61155c611596565b61120e57604051631afcd79f60e31b815260040160405180910390fd5b611581611554565b600061158b6111c4565b805460ff1916905550565b60006115a0611285565b54600160401b900460ff16919050565b6040805160a0810182526000808252606060208301529091820190815260200160008152602001606081525090565b6000602082840312156115f157600080fd5b81356001600160e01b031981168114610fe057600080fd5b6020808252825182820181905260009190848201906040850190845b8181101561164a5783516001600160a01b031683529284019291840191600101611625565b50909695505050505050565b60006020828403121561166857600080fd5b5035919050565b6001600160a01b03811681146106c657600080fd5b60006020828403121561169657600080fd5b8135610fe08161166f565b60008083601f8401126116b357600080fd5b5081356001600160401b038111156116ca57600080fd5b6020830191508360208285010111156109d757600080fd5b6000806000604084860312156116f757600080fd5b83356117028161166f565b925060208401356001600160401b0381111561171d57600080fd5b611729868287016116a1565b9497909650939450505050565b6000806040838503121561174957600080fd5b82359150602083013561175b8161166f565b809150509250929050565b634e487b7160e01b600052602160045260246000fd5b600381106106c6576106c6611766565b602081016117998361177c565b91905290565b6001600160a01b0391909116815260200190565b600080602083850312156117c657600080fd5b82356001600160401b038111156117dc57600080fd5b6117e8858286016116a1565b90969095509350505050565b6000815180845260005b8181101561181a576020818501810151868301820152016117fe565b506000602082860101526020601f19601f83011685010191505092915050565b6001600160a01b038316815260406020820181905260009061185e908301846117f4565b949350505050565b602080825282516001600160a01b03168282015282015160a0604083015260009061189460c08401826117f4565b905060408401516118a48161177c565b80606085015250606084015160808401526080840151601f198483030160a08501526118d082826117f4565b95945050505050565b602081016004831061179957611799611766565b80356001600160501b038116811461190457600080fd5b919050565b60006020828403121561191b57600080fd5b610fe0826118ed565b600080600080600060a0868803121561193c57600080fd5b85356119478161166f565b945060208601356119578161166f565b935060408601356004811061196b57600080fd5b925060608601356003811061197f57600080fd5b915061198d608087016118ed565b90509295509295909350565b634e487b7160e01b600052604160045260246000fd5b600082601f8301126119c057600080fd5b81356001600160401b03808211156119da576119da611999565b604051601f8301601f19908116603f01168101908282118183101715611a0257611a02611999565b81604052838152866020858801011115611a1b57600080fd5b836020870160208301376000602085830101528094505050505092915050565b60008060408385031215611a4e57600080fd5b82356001600160401b0380821115611a6557600080fd5b611a71868387016119af565b93506020850135915080821115611a8757600080fd5b50611a94858286016119af565b9150509250929050565b600181811c90821680611ab257607f821691505b602082108103611ad257634e487b7160e01b600052602260045260246000fd5b50919050565b601f8211156106a1576000816000526020600020601f850160051c81016020861015611b015750805b601f850160051c820191505b81811015611b2057828155600101611b0d565b505050505050565b81516001600160401b03811115611b4157611b41611999565b611b5581611b4f8454611a9e565b84611ad8565b602080601f831160018114611b8a5760008415611b725750858301515b600019600386901b1c1916600185901b178555611b20565b600085815260208120601f198616915b82811015611bb957888601518255948401946001909101908401611b9a565b5085821015611bd75787850151600019600388901b60f8161c191681555b5050505050600190811b01905550565b604081526000611bfa60408301856117f4565b82810360208401526118d081856117f4565b60008060008060808587031215611c2257600080fd5b84359350611c32602086016118ed565b925060408501358015158114611c4757600080fd5b91506060850135611c578161166f565b939692955090935050565b600082611c7f57634e487b7160e01b600052601260045260246000fd5b500690565b634e487b7160e01b600052601160045260246000fd5b8082018082111561046457610464611c84565b8181038181111561046457610464611c84565b634e487b7160e01b600052603260045260246000fd5b634e487b7160e01b600052603160045260246000fdfe339759585899103d2ace64958e37e18ccb0504652c81d4a1b8aa80fe2126ab95a2646970667358221220dfc34ec4cd7269e3c480e25865f9dbdfa17ef4cda55737c8e66b5730b569929c64736f6c63430008180033",
  "devdoc": {
    "errors": {
      "AccessControlBadConfirmation()": [
        {
          "details": "The caller of a function is not the expected one. NOTE: Don't confuse with {AccessControlUnauthorizedAccount}."
        }
      ],
      "AccessControlUnauthorizedAccount(address,bytes32)": [
        {
          "details": "The `account` is missing a role."
        }
      ],
      "EnforcedPause()": [
        {
          "details": "The operation failed because the contract is paused."
        }
      ],
      "ExpectedPause()": [
        {
          "details": "The operation failed because the contract is not paused."
        }
      ],
      "InvalidInitialization()": [
        {
          "details": "The contract is already initialized."
        }
      ],
      "NotInitializing()": [
        {
          "details": "The contract is not initializing."
        }
      ]
    },
    "events": {
      "Initialized(uint64)": {
        "details": "Triggered when the contract has been initialized or reinitialized."
      },
      "Paused(address)": {
        "details": "Emitted when the pause is triggered by `account`."
      },
      "RoleAdminChanged(bytes32,bytes32,bytes32)": {
        "details": "Emitted when `newAdminRole` is set as ``role``'s admin role, replacing `previousAdminRole` `DEFAULT_ADMIN_ROLE` is the starting admin for all roles, despite {RoleAdminChanged} not being emitted signaling this."
      },
      "RoleGranted(bytes32,address,address)": {
        "details": "Emitted when `account` is granted `role`. `sender` is the account that originated the contract call, an admin role bearer except when using {AccessControl-_setupRole}."
      },
      "RoleRevoked(bytes32,address,address)": {
        "details": "Emitted when `account` is revoked `role`. `sender` is the account that originated the contract call:   - if using `revokeRole`, it is the admin role bearer   - if using `renounceRole`, it is the role bearer (i.e. `account`)"
      },
      "Unpaused(address)": {
        "details": "Emitted when the pause is lifted by `account`."
      }
    },
    "kind": "dev",
    "methods": {
      "activeTeeList()": {
        "returns": {
          "_0": "The list of active Tee addresses"
        }
      },
      "activeTeeListAt(uint256)": {
        "params": {
          "index": "The index of the active Tee"
        },
        "returns": {
          "_0": "The Tee info"
        }
      },
      "activeTeesCount()": {
        "returns": {
          "_0": "The number of active Tees"
        }
      },
      "addTee(address,bytes)": {
        "params": {
          "params": "The parameters for the Tee",
          "teeAddress": "The address of the Tee"
        }
      },
      "constructor": {
        "custom:oz-upgrades-unsafe-allow": "constructor"
      },
      "getRoleAdmin(bytes32)": {
        "details": "Returns the admin role that controls `role`. See {grantRole} and {revokeRole}. To change a role's admin, use {_setRoleAdmin}."
      },
      "grantRole(bytes32,address)": {
        "details": "Grants `role` to `account`. If `account` had not been already granted `role`, emits a {RoleGranted} event. Requirements: - the caller must have ``role``'s admin role. May emit a {RoleGranted} event."
      },
      "hasRole(bytes32,address)": {
        "details": "Returns `true` if `account` has been granted `role`."
      },
      "initialize(address,address,uint8,uint8,uint80)": {
        "params": {
          "ownerAddress": "Address of the owner"
        }
      },
      "isTee(address)": {
        "params": {
          "teeAddress": "The address to check"
        },
        "returns": {
          "_0": "True if the address is a Tee, false otherwise"
        }
      },
      "paused()": {
        "details": "Returns true if the contract is paused, and false otherwise."
      },
      "removeJob(uint256)": {
        "details": "Only the ComputeEngine contract can remove jobs from their TeePool.",
        "params": {
          "jobId": "The ID of the job to remove"
        }
      },
      "removeTee(address)": {
        "params": {
          "teeAddress": "The address of the Tee"
        }
      },
      "renounceRole(bytes32,address)": {
        "details": "Revokes `role` from the calling account. Roles are often managed via {grantRole} and {revokeRole}: this function's purpose is to provide a mechanism for accounts to lose their privileges if they are compromised (such as when a trusted device is misplaced). If the calling account had been revoked `role`, emits a {RoleRevoked} event. Requirements: - the caller must be `callerConfirmation`. May emit a {RoleRevoked} event."
      },
      "revokeRole(bytes32,address)": {
        "details": "Revokes `role` from `account`. If `account` had been granted `role`, emits a {RoleRevoked} event. Requirements: - the caller must have ``role``'s admin role. May emit a {RoleRevoked} event."
      },
      "submitJob(bytes)": {
        "details": "Only the ComputeEngine contract can submit jobs to its TeePool.",
        "params": {
          "params": "The parameters for the job"
        },
        "returns": {
          "_0": "The address of the Tee assigned to the job"
        }
      },
      "supportsInterface(bytes4)": {
        "details": "See {IERC165-supportsInterface}."
      },
      "teeList()": {
        "returns": {
          "_0": "The list of Tee addresses"
        }
      },
      "teeListAt(uint256)": {
        "params": {
          "index": "The index of the Tee"
        },
        "returns": {
          "_0": "The Tee info"
        }
      },
      "tees(address)": {
        "params": {
          "teeAddress": "The address of the Tee"
        },
        "returns": {
          "_0": "The Tee info"
        }
      },
      "teesCount()": {
        "returns": {
          "_0": "The number of Tees"
        }
      },
      "updateComputeEngine(address)": {
        "params": {
          "computeEngineAddress": "The new ComputeEngine contract address"
        }
      },
      "updateMaxTimeout(uint80)": {
        "params": {
          "maxTimeout": "The new maximum timeout for a job"
        }
      },
      "version()": {
        "returns": {
          "_0": "The version of the contract"
        }
      }
    },
    "version": 1
  },
  "userdoc": {
    "kind": "user",
    "methods": {
      "activeTeeList()": {
        "notice": "Returns the list of active Tee addresses"
      },
      "activeTeeListAt(uint256)": {
        "notice": "Returns the Tee info for the active Tee at the given index"
      },
      "activeTeesCount()": {
        "notice": "Returns the number of active Tees"
      },
      "addTee(address,bytes)": {
        "notice": "Adds a Tee to the pool"
      },
      "computeEngine()": {
        "notice": "Returns the ComputeEngine contract address"
      },
      "hardwareType()": {
        "notice": "Returns the hardware type of the Tee pool"
      },
      "initialize(address,address,uint8,uint8,uint80)": {
        "notice": "Initializes the contract"
      },
      "isTee(address)": {
        "notice": "Checks if the given address is a Tee"
      },
      "maxTimeout()": {
        "notice": "Returns the maximum timeout for a job"
      },
      "pause()": {
        "notice": "Pauses the contract"
      },
      "removeJob(uint256)": {
        "notice": "Removes a job in the pool"
      },
      "removeTee(address)": {
        "notice": "Removes a Tee from the pool"
      },
      "submitJob(bytes)": {
        "notice": "Submits a job to the pool"
      },
      "teeList()": {
        "notice": "Returns the list of Tee addresses"
      },
      "teeListAt(uint256)": {
        "notice": "Returns the Tee info for the Tee at the given index"
      },
      "tees(address)": {
        "notice": "Returns the Tee info for the given address"
      },
      "teesCount()": {
        "notice": "Returns the number of Tees"
      },
      "unpause()": {
        "notice": "Unpauses the contract"
      },
      "updateComputeEngine(address)": {
        "notice": "Updates the ComputeEngine contract address"
      },
      "updateMaxTimeout(uint80)": {
        "notice": "Updates the maximum timeout for a job"
      },
      "version()": {
        "notice": "Returns the version of the contract"
      }
    },
    "version": 1
  },
  "storageLayout": {
    "storage": [
      {
        "astId": 8778,
        "contract": "contracts/computeEngineTeePool/ComputeEngineTeePoolImplementation.sol:ComputeEngineTeePoolImplementation",
        "label": "teePoolType",
        "offset": 0,
        "slot": "0",
        "type": "t_enum(TeePoolType)8821"
      },
      {
        "astId": 8782,
        "contract": "contracts/computeEngineTeePool/ComputeEngineTeePoolImplementation.sol:ComputeEngineTeePoolImplementation",
        "label": "hardwareType",
        "offset": 1,
        "slot": "0",
        "type": "t_enum(HardwareType)8825"
      },
      {
        "astId": 8785,
        "contract": "contracts/computeEngineTeePool/ComputeEngineTeePoolImplementation.sol:ComputeEngineTeePoolImplementation",
        "label": "maxTimeout",
        "offset": 2,
        "slot": "0",
        "type": "t_uint80"
      },
      {
        "astId": 8788,
        "contract": "contracts/computeEngineTeePool/ComputeEngineTeePoolImplementation.sol:ComputeEngineTeePoolImplementation",
        "label": "computeEngine",
        "offset": 12,
        "slot": "0",
        "type": "t_address"
      },
      {
        "astId": 8791,
        "contract": "contracts/computeEngineTeePool/ComputeEngineTeePoolImplementation.sol:ComputeEngineTeePoolImplementation",
        "label": "_teeList",
        "offset": 0,
        "slot": "1",
        "type": "t_struct(AddressSet)5936_storage"
      },
      {
        "astId": 8794,
        "contract": "contracts/computeEngineTeePool/ComputeEngineTeePoolImplementation.sol:ComputeEngineTeePoolImplementation",
        "label": "_activeTeeList",
        "offset": 0,
        "slot": "3",
        "type": "t_struct(AddressSet)5936_storage"
      },
      {
        "astId": 8799,
        "contract": "contracts/computeEngineTeePool/ComputeEngineTeePoolImplementation.sol:ComputeEngineTeePoolImplementation",
        "label": "_tees",
        "offset": 0,
        "slot": "5",
        "type": "t_mapping(t_address,t_struct(Tee)8840_storage)"
      },
      {
        "astId": 8801,
        "contract": "contracts/computeEngineTeePool/ComputeEngineTeePoolImplementation.sol:ComputeEngineTeePoolImplementation",
        "label": "_jobsCount",
        "offset": 0,
        "slot": "6",
        "type": "t_uint256"
      },
      {
        "astId": 8806,
        "contract": "contracts/computeEngineTeePool/ComputeEngineTeePoolImplementation.sol:ComputeEngineTeePoolImplementation",
        "label": "_jobTee",
        "offset": 0,
        "slot": "7",
        "type": "t_mapping(t_uint256,t_address)"
      },
      {
        "astId": 8809,
        "contract": "contracts/computeEngineTeePool/ComputeEngineTeePoolImplementation.sol:ComputeEngineTeePoolImplementation",
        "label": "teePoolFactory",
        "offset": 0,
        "slot": "8",
        "type": "t_address"
      }
    ],
    "types": {
      "t_address": {
        "encoding": "inplace",
        "label": "address",
        "numberOfBytes": "20"
      },
      "t_array(t_bytes32)dyn_storage": {
        "base": "t_bytes32",
        "encoding": "dynamic_array",
        "label": "bytes32[]",
        "numberOfBytes": "32"
      },
      "t_bytes32": {
        "encoding": "inplace",
        "label": "bytes32",
        "numberOfBytes": "32"
      },
      "t_enum(HardwareType)8825": {
        "encoding": "inplace",
        "label": "enum IComputeEngineTeePool.HardwareType",
        "numberOfBytes": "1"
      },
      "t_enum(TeePoolType)8821": {
        "encoding": "inplace",
        "label": "enum IComputeEngineTeePool.TeePoolType",
        "numberOfBytes": "1"
      },
      "t_enum(TeeStatus)8829": {
        "encoding": "inplace",
        "label": "enum IComputeEngineTeePool.TeeStatus",
        "numberOfBytes": "1"
      },
      "t_mapping(t_address,t_struct(Tee)8840_storage)": {
        "encoding": "mapping",
        "key": "t_address",
        "label": "mapping(address => struct IComputeEngineTeePool.Tee)",
        "numberOfBytes": "32",
        "value": "t_struct(Tee)8840_storage"
      },
      "t_mapping(t_bytes32,t_uint256)": {
        "encoding": "mapping",
        "key": "t_bytes32",
        "label": "mapping(bytes32 => uint256)",
        "numberOfBytes": "32",
        "value": "t_uint256"
      },
      "t_mapping(t_uint256,t_address)": {
        "encoding": "mapping",
        "key": "t_uint256",
        "label": "mapping(uint256 => address)",
        "numberOfBytes": "32",
        "value": "t_address"
      },
      "t_string_storage": {
        "encoding": "bytes",
        "label": "string",
        "numberOfBytes": "32"
      },
      "t_struct(AddressSet)5936_storage": {
        "encoding": "inplace",
        "label": "struct EnumerableSet.AddressSet",
        "members": [
          {
            "astId": 5935,
            "contract": "contracts/computeEngineTeePool/ComputeEngineTeePoolImplementation.sol:ComputeEngineTeePoolImplementation",
            "label": "_inner",
            "offset": 0,
            "slot": "0",
            "type": "t_struct(Set)5621_storage"
          }
        ],
        "numberOfBytes": "64"
      },
      "t_struct(Set)5621_storage": {
        "encoding": "inplace",
        "label": "struct EnumerableSet.Set",
        "members": [
          {
            "astId": 5616,
            "contract": "contracts/computeEngineTeePool/ComputeEngineTeePoolImplementation.sol:ComputeEngineTeePoolImplementation",
            "label": "_values",
            "offset": 0,
            "slot": "0",
            "type": "t_array(t_bytes32)dyn_storage"
          },
          {
            "astId": 5620,
            "contract": "contracts/computeEngineTeePool/ComputeEngineTeePoolImplementation.sol:ComputeEngineTeePoolImplementation",
            "label": "_positions",
            "offset": 0,
            "slot": "1",
            "type": "t_mapping(t_bytes32,t_uint256)"
          }
        ],
        "numberOfBytes": "64"
      },
      "t_struct(Tee)8840_storage": {
        "encoding": "inplace",
        "label": "struct IComputeEngineTeePool.Tee",
        "members": [
          {
            "astId": 8831,
            "contract": "contracts/computeEngineTeePool/ComputeEngineTeePoolImplementation.sol:ComputeEngineTeePoolImplementation",
            "label": "url",
            "offset": 0,
            "slot": "0",
            "type": "t_string_storage"
          },
          {
            "astId": 8834,
            "contract": "contracts/computeEngineTeePool/ComputeEngineTeePoolImplementation.sol:ComputeEngineTeePoolImplementation",
            "label": "status",
            "offset": 0,
            "slot": "1",
            "type": "t_enum(TeeStatus)8829"
          },
          {
            "astId": 8837,
            "contract": "contracts/computeEngineTeePool/ComputeEngineTeePoolImplementation.sol:ComputeEngineTeePoolImplementation",
            "label": "jobIdsList",
            "offset": 0,
            "slot": "2",
            "type": "t_struct(UintSet)6093_storage"
          },
          {
            "astId": 8839,
            "contract": "contracts/computeEngineTeePool/ComputeEngineTeePoolImplementation.sol:ComputeEngineTeePoolImplementation",
            "label": "publicKey",
            "offset": 0,
            "slot": "4",
            "type": "t_string_storage"
          }
        ],
        "numberOfBytes": "160"
      },
      "t_struct(UintSet)6093_storage": {
        "encoding": "inplace",
        "label": "struct EnumerableSet.UintSet",
        "members": [
          {
            "astId": 6092,
            "contract": "contracts/computeEngineTeePool/ComputeEngineTeePoolImplementation.sol:ComputeEngineTeePoolImplementation",
            "label": "_inner",
            "offset": 0,
            "slot": "0",
            "type": "t_struct(Set)5621_storage"
          }
        ],
        "numberOfBytes": "64"
      },
      "t_uint256": {
        "encoding": "inplace",
        "label": "uint256",
        "numberOfBytes": "32"
      },
      "t_uint80": {
        "encoding": "inplace",
        "label": "uint80",
        "numberOfBytes": "10"
      }
    }
  }
}