{
  "address": "0x77cEC056B5961ecc370005d1E4fc8Fe4b90A1596",
  "abi": [
    {
      "inputs": [
        {
          "internalType": "address",
          "name": "_implementation",
          "type": "address"
        },
        {
          "internalType": "address",
          "name": "_owner",
          "type": "address"
        }
      ],
      "stateMutability": "nonpayable",
      "type": "constructor"
    },
    {
      "inputs": [
        {
          "internalType": "address",
          "name": "implementation",
          "type": "address"
        }
      ],
      "name": "BeaconInvalidImplementation",
      "type": "error"
    },
    {
      "inputs": [
        {
          "internalType": "address",
          "name": "owner",
          "type": "address"
        }
      ],
      "name": "OwnableInvalidOwner",
      "type": "error"
    },
    {
      "inputs": [
        {
          "internalType": "address",
          "name": "account",
          "type": "address"
        }
      ],
      "name": "OwnableUnauthorizedAccount",
      "type": "error"
    },
    {
      "anonymous": false,
      "inputs": [
        {
          "indexed": true,
          "internalType": "address",
          "name": "previousOwner",
          "type": "address"
        },
        {
          "indexed": true,
          "internalType": "address",
          "name": "newOwner",
          "type": "address"
        }
      ],
      "name": "OwnershipTransferred",
      "type": "event"
    },
    {
      "anonymous": false,
      "inputs": [
        {
          "indexed": true,
          "internalType": "address",
          "name": "implementation",
          "type": "address"
        }
      ],
      "name": "Upgraded",
      "type": "event"
    },
    {
      "inputs": [],
      "name": "SALT",
      "outputs": [
        {
          "internalType": "bytes32",
          "name": "",
          "type": "bytes32"
        }
      ],
      "stateMutability": "view",
      "type": "function"
    },
    {
      "inputs": [
        {
          "internalType": "bytes",
          "name": "data",
          "type": "bytes"
        }
      ],
      "name": "createBeaconProxy",
      "outputs": [
        {
          "internalType": "address",
          "name": "",
          "type": "address"
        }
      ],
      "stateMutability": "nonpayable",
      "type": "function"
    },
    {
      "inputs": [
        {
          "internalType": "bytes",
          "name": "data",
          "type": "bytes"
        }
      ],
      "name": "getProxyAddress",
      "outputs": [
        {
          "internalType": "address",
          "name": "",
          "type": "address"
        }
      ],
      "stateMutability": "view",
      "type": "function"
    },
    {
      "inputs": [],
      "name": "implementation",
      "outputs": [
        {
          "internalType": "address",
          "name": "",
          "type": "address"
        }
      ],
      "stateMutability": "view",
      "type": "function"
    },
    {
      "inputs": [],
      "name": "owner",
      "outputs": [
        {
          "internalType": "address",
          "name": "",
          "type": "address"
        }
      ],
      "stateMutability": "view",
      "type": "function"
    },
    {
      "inputs": [],
      "name": "renounceOwnership",
      "outputs": [],
      "stateMutability": "nonpayable",
      "type": "function"
    },
    {
      "inputs": [
        {
          "internalType": "address",
          "name": "newOwner",
          "type": "address"
        }
      ],
      "name": "transferOwnership",
      "outputs": [],
      "stateMutability": "nonpayable",
      "type": "function"
    },
    {
      "inputs": [
        {
          "internalType": "address",
          "name": "newImplementation",
          "type": "address"
        }
      ],
      "name": "upgradeTo",
      "outputs": [],
      "stateMutability": "nonpayable",
      "type": "function"
    }
  ],
  "transactionHash": "0x6fdaf3f63d65f32dcd59711aefe6e76542a7fba2e912e355140ae26bd3b4239b",
  "args": [
    "0x556F588434C649369c70EbccCa241Ad510c78e71",
    "0x2AC93684679a5bdA03C6160def908CdB8D46792f"
  ],
  "numDeployments": 2,
  "solcInputHash": "52cc8791363349b5a03abc0d1bf7e31d",
  "bytecode": "0x608060405234801561001057600080fd5b50604051610d85380380610d8583398101604081905261002f91610164565b8181806001600160a01b038116610065576000604051631e4fbdf760e01b815260040161005c9190610197565b60405180910390fd5b61006e81610081565b50610078826100d1565b505050506101ab565b600080546001600160a01b038381166001600160a01b0319831681178455604051919092169283917f8be0079c531659141344cd1fd0a4f28419497f9722a3daafe3b4186f6b6457e09190a35050565b806001600160a01b03163b6000036100fe578060405163211eb15960e21b815260040161005c9190610197565b600180546001600160a01b0319166001600160a01b0383169081179091556040517fbc7cd75a20ee27fd9adebab32041f755214dbc6bffa90cc0225b39da2e5c2d3b90600090a250565b80516001600160a01b038116811461015f57600080fd5b919050565b6000806040838503121561017757600080fd5b61018083610148565b915061018e60208401610148565b90509250929050565b6001600160a01b0391909116815260200190565b610bcb806101ba6000396000f3fe60806040523480156200001157600080fd5b5060043610620000825760003560e01c80633659cfe614620000875780635c60da1b14620000a0578063715018a614620000c55780638da5cb5b14620000cf578063ba9a91a514620000d9578063c016c13714620000ff578063d0b74ad41462000116578063f2fde38b146200012d575b600080fd5b6200009e6200009836600462000406565b62000144565b005b6001546001600160a01b03165b604051620000bc919062000438565b60405180910390f35b6200009e6200015c565b620000ad62000174565b620000f060008051602062000b7683398151915281565b604051908152602001620000bc565b620000ad6200011036600462000462565b62000183565b620000ad6200012736600462000462565b62000253565b6200009e6200013e36600462000406565b620002ac565b6200014e620002f7565b62000159816200032e565b50565b62000166620002f7565b620001726000620003a8565b565b6000546001600160a01b031690565b600080604051806020016200019890620003f8565b601f1982820381018352601f909101166040819052620001bf903090869060200162000542565b60408051601f1981840301815290829052620001df929160200162000586565b60408051808303601f1901815282825280516020918201206001600160f81b0319828501523060601b6001600160601b031916602185015260008051602062000b76833981519152603585015260558085019190915282518085039091018152607590930190915281519101209392505050565b60008060008051602062000b7683398151915230846040516200027690620003f8565b6200028392919062000542565b8190604051809103906000f5905080158015620002a4573d6000803e3d6000fd5b509392505050565b620002b6620002f7565b6001600160a01b038116620002ec576000604051631e4fbdf760e01b8152600401620002e3919062000438565b60405180910390fd5b6200015981620003a8565b336200030262000174565b6001600160a01b03161462000172573360405163118cdaa760e01b8152600401620002e3919062000438565b806001600160a01b03163b6000036200035e578060405163211eb15960e21b8152600401620002e3919062000438565b600180546001600160a01b0319166001600160a01b0383169081179091556040517fbc7cd75a20ee27fd9adebab32041f755214dbc6bffa90cc0225b39da2e5c2d3b90600090a250565b600080546001600160a01b038381166001600160a01b0319831681178455604051919092169283917f8be0079c531659141344cd1fd0a4f28419497f9722a3daafe3b4186f6b6457e09190a35050565b6105bc80620005ba83390190565b6000602082840312156200041957600080fd5b81356001600160a01b03811681146200043157600080fd5b9392505050565b6001600160a01b0391909116815260200190565b634e487b7160e01b600052604160045260246000fd5b6000602082840312156200047557600080fd5b81356001600160401b03808211156200048d57600080fd5b818401915084601f830112620004a257600080fd5b813581811115620004b757620004b76200044c565b604051601f8201601f19908116603f01168101908382118183101715620004e257620004e26200044c565b81604052828152876020848701011115620004fc57600080fd5b826020860160208301376000928101602001929092525095945050505050565b60005b83811015620005395781810151838201526020016200051f565b50506000910152565b60018060a01b03831681526040602082015260008251806040840152620005718160608501602087016200051c565b601f01601f1916919091016060019392505050565b600083516200059a8184602088016200051c565b835190830190620005b08183602088016200051c565b0194935050505056fe60a06040526040516105bc3803806105bc83398101604081905261002291610370565b61002c828261003e565b506001600160a01b031660805261047b565b610047826100fe565b6040516001600160a01b038316907f1cf3b03a6cf19fa2baba4df148e9dcabedea7f8a5c07840e207e5c089be95d3e90600090a28051156100f2576100ed826001600160a01b0316635c60da1b6040518163ffffffff1660e01b8152600401602060405180830381865afa1580156100c3573d6000803e3d6000fd5b505050506040513d601f19601f820116820180604052508101906100e79190610430565b82610203565b505050565b6100fa61027a565b5050565b806001600160a01b03163b6000036101345780604051631933b43b60e21b815260040161012b919061044b565b60405180910390fd5b807fa3f0ad74e5423aebfd80d3ef4346578335a9a72aeaee59ff6cb3582b35133d5080546001600160a01b0319166001600160a01b0392831617905560408051635c60da1b60e01b81529051600092841691635c60da1b9160048083019260209291908290030181865afa1580156101b0573d6000803e3d6000fd5b505050506040513d601f19601f820116820180604052508101906101d49190610430565b9050806001600160a01b03163b6000036100fa5780604051634c9c8ce360e01b815260040161012b919061044b565b6060600080846001600160a01b031684604051610220919061045f565b600060405180830381855af49150503d806000811461025b576040519150601f19603f3d011682016040523d82523d6000602084013e610260565b606091505b50909250905061027185838361029b565b95945050505050565b34156102995760405163b398979f60e01b815260040160405180910390fd5b565b6060826102b0576102ab826102f1565b6102ea565b81511580156102c757506001600160a01b0384163b155b156102e75783604051639996b31560e01b815260040161012b919061044b565b50805b9392505050565b8051156103015780518082602001fd5b604051630a12f52160e11b815260040160405180910390fd5b80516001600160a01b038116811461033157600080fd5b919050565b634e487b7160e01b600052604160045260246000fd5b60005b8381101561036757818101518382015260200161034f565b50506000910152565b6000806040838503121561038357600080fd5b61038c8361031a565b60208401519092506001600160401b03808211156103a957600080fd5b818501915085601f8301126103bd57600080fd5b8151818111156103cf576103cf610336565b604051601f8201601f19908116603f011681019083821181831017156103f7576103f7610336565b8160405282815288602084870101111561041057600080fd5b61042183602083016020880161034c565b80955050505050509250929050565b60006020828403121561044257600080fd5b6102ea8261031a565b6001600160a01b0391909116815260200190565b6000825161047181846020870161034c565b9190910192915050565b6080516101276104956000396000601e01526101276000f3fe6080604052600a600c565b005b60186014601a565b60a0565b565b60007f00000000000000000000000000000000000000000000000000000000000000006001600160a01b0316635c60da1b6040518163ffffffff1660e01b8152600401602060405180830381865afa1580156079573d6000803e3d6000fd5b505050506040513d601f19601f82011682018060405250810190609b919060c3565b905090565b3660008037600080366000845af43d6000803e80801560be573d6000f35b3d6000fd5b60006020828403121560d457600080fd5b81516001600160a01b038116811460ea57600080fd5b939250505056fea26469706673582212202b7261101f89420e4183723a39687c96dfa916c7322019c684989a3c79a1fc4f64736f6c63430008180033c8f9caa69eb5e89b1a54c0e3af0f2be29cdb3002c5a2caaac9eb51c4571b8383a264697066735822122070e2ac2a016ed841ae9601eb297ca2a2989fad2c8c3678831025b023b21bda2664736f6c63430008180033",
  "devdoc": {
    "errors": {
      "BeaconInvalidImplementation(address)": [
        {
          "details": "The `implementation` of the beacon is invalid."
        }
      ],
      "OwnableInvalidOwner(address)": [
        {
          "details": "The owner is not a valid owner account. (eg. `address(0)`)"
        }
      ],
      "OwnableUnauthorizedAccount(address)": [
        {
          "details": "The caller account is not authorized to perform an operation."
        }
      ]
    },
    "events": {
      "Upgraded(address)": {
        "details": "Emitted when the implementation returned by the beacon is changed."
      }
    },
    "kind": "dev",
    "methods": {
      "implementation()": {
        "details": "Returns the current implementation address."
      },
      "owner()": {
        "details": "Returns the address of the current owner."
      },
      "renounceOwnership()": {
        "details": "Leaves the contract without owner. It will not be possible to call `onlyOwner` functions. Can only be called by the current owner. NOTE: Renouncing ownership will leave the contract without an owner, thereby disabling any functionality that is only available to the owner."
      },
      "transferOwnership(address)": {
        "details": "Transfers ownership of the contract to a new account (`newOwner`). Can only be called by the current owner."
      },
      "upgradeTo(address)": {
        "details": "Upgrades the beacon to a new implementation. Emits an {Upgraded} event. Requirements: - msg.sender must be the owner of the contract. - `newImplementation` must be a contract."
      }
    },
    "version": 1
  },
  "userdoc": {
    "kind": "user",
    "methods": {},
    "version": 1
  },
  "storageLayout": {
    "storage": [
      {
        "astId": 1281,
        "contract": "contracts/computeEngineTeePool/ComputeEngineTeePoolBeaconProxy.sol:ComputeEngineTeePoolFactoryBeacon",
        "label": "_owner",
        "offset": 0,
        "slot": "0",
        "type": "t_address"
      },
      {
        "astId": 1888,
        "contract": "contracts/computeEngineTeePool/ComputeEngineTeePoolBeaconProxy.sol:ComputeEngineTeePoolFactoryBeacon",
        "label": "_implementation",
        "offset": 0,
        "slot": "1",
        "type": "t_address"
      }
    ],
    "types": {
      "t_address": {
        "encoding": "inplace",
        "label": "address",
        "numberOfBytes": "20"
      }
    }
  }
}