{
  "address": "0x4De06d962878C2B0b3F9F4DEb99F426eeF028A48",
  "abi": [
    {
      "inputs": [],
      "stateMutability": "nonpayable",
      "type": "constructor"
    },
    {
      "inputs": [],
      "name": "AccessControlBadConfirmation",
      "type": "error"
    },
    {
      "inputs": [
        {
          "internalType": "address",
          "name": "account",
          "type": "address"
        },
        {
          "internalType": "bytes32",
          "name": "neededRole",
          "type": "bytes32"
        }
      ],
      "name": "AccessControlUnauthorizedAccount",
      "type": "error"
    },
    {
      "inputs": [
        {
          "internalType": "address",
          "name": "target",
          "type": "address"
        }
      ],
      "name": "AddressEmptyCode",
      "type": "error"
    },
    {
      "inputs": [
        {
          "internalType": "address",
          "name": "implementation",
          "type": "address"
        }
      ],
      "name": "ERC1967InvalidImplementation",
      "type": "error"
    },
    {
      "inputs": [],
      "name": "ERC1967NonPayable",
      "type": "error"
    },
    {
      "inputs": [],
      "name": "EnforcedPause",
      "type": "error"
    },
    {
      "inputs": [],
      "name": "ExpectedPause",
      "type": "error"
    },
    {
      "inputs": [],
      "name": "FailedInnerCall",
      "type": "error"
    },
    {
      "inputs": [],
      "name": "FileNotFound",
      "type": "error"
    },
    {
      "inputs": [],
      "name": "FileUrlAlreadyUsed",
      "type": "error"
    },
    {
      "inputs": [],
      "name": "InvalidInitialization",
      "type": "error"
    },
    {
      "inputs": [],
      "name": "InvalidUrl",
      "type": "error"
    },
    {
      "inputs": [],
      "name": "NoPermission",
      "type": "error"
    },
    {
      "inputs": [],
      "name": "NotFileOwner",
      "type": "error"
    },
    {
      "inputs": [],
      "name": "NotInitializing",
      "type": "error"
    },
    {
      "inputs": [],
      "name": "RefinementAlreadyAdded",
      "type": "error"
    },
    {
      "inputs": [],
      "name": "UUPSUnauthorizedCallContext",
      "type": "error"
    },
    {
      "inputs": [
        {
          "internalType": "bytes32",
          "name": "slot",
          "type": "bytes32"
        }
      ],
      "name": "UUPSUnsupportedProxiableUUID",
      "type": "error"
    },
    {
      "anonymous": false,
      "inputs": [
        {
          "indexed": true,
          "internalType": "uint256",
          "name": "fileId",
          "type": "uint256"
        },
        {
          "indexed": true,
          "internalType": "address",
          "name": "ownerAddress",
          "type": "address"
        },
        {
          "indexed": false,
          "internalType": "string",
          "name": "url",
          "type": "string"
        }
      ],
      "name": "FileAdded",
      "type": "event"
    },
    {
      "anonymous": false,
      "inputs": [
        {
          "indexed": false,
          "internalType": "uint64",
          "name": "version",
          "type": "uint64"
        }
      ],
      "name": "Initialized",
      "type": "event"
    },
    {
      "anonymous": false,
      "inputs": [
        {
          "indexed": false,
          "internalType": "address",
          "name": "account",
          "type": "address"
        }
      ],
      "name": "Paused",
      "type": "event"
    },
    {
      "anonymous": false,
      "inputs": [
        {
          "indexed": true,
          "internalType": "uint256",
          "name": "fileId",
          "type": "uint256"
        },
        {
          "indexed": true,
          "internalType": "address",
          "name": "account",
          "type": "address"
        }
      ],
      "name": "PermissionGranted",
      "type": "event"
    },
    {
      "anonymous": false,
      "inputs": [
        {
          "indexed": true,
          "internalType": "uint256",
          "name": "fileId",
          "type": "uint256"
        },
        {
          "indexed": true,
          "internalType": "address",
          "name": "ownerAddress",
          "type": "address"
        },
        {
          "indexed": false,
          "internalType": "uint256",
          "name": "proofIndex",
          "type": "uint256"
        },
        {
          "indexed": true,
          "internalType": "uint256",
          "name": "dlpId",
          "type": "uint256"
        },
        {
          "indexed": false,
          "internalType": "uint256",
          "name": "score",
          "type": "uint256"
        },
        {
          "indexed": false,
          "internalType": "string",
          "name": "proofUrl",
          "type": "string"
        }
      ],
      "name": "ProofAdded",
      "type": "event"
    },
    {
      "anonymous": false,
      "inputs": [
        {
          "indexed": true,
          "internalType": "uint256",
          "name": "fileId",
          "type": "uint256"
        },
        {
          "indexed": true,
          "internalType": "uint256",
          "name": "refinerId",
          "type": "uint256"
        },
        {
          "indexed": false,
          "internalType": "string",
          "name": "url",
          "type": "string"
        }
      ],
      "name": "RefinementAdded",
      "type": "event"
    },
    {
      "anonymous": false,
      "inputs": [
        {
          "indexed": true,
          "internalType": "bytes32",
          "name": "role",
          "type": "bytes32"
        },
        {
          "indexed": true,
          "internalType": "bytes32",
          "name": "previousAdminRole",
          "type": "bytes32"
        },
        {
          "indexed": true,
          "internalType": "bytes32",
          "name": "newAdminRole",
          "type": "bytes32"
        }
      ],
      "name": "RoleAdminChanged",
      "type": "event"
    },
    {
      "anonymous": false,
      "inputs": [
        {
          "indexed": true,
          "internalType": "bytes32",
          "name": "role",
          "type": "bytes32"
        },
        {
          "indexed": true,
          "internalType": "address",
          "name": "account",
          "type": "address"
        },
        {
          "indexed": true,
          "internalType": "address",
          "name": "sender",
          "type": "address"
        }
      ],
      "name": "RoleGranted",
      "type": "event"
    },
    {
      "anonymous": false,
      "inputs": [
        {
          "indexed": true,
          "internalType": "bytes32",
          "name": "role",
          "type": "bytes32"
        },
        {
          "indexed": true,
          "internalType": "address",
          "name": "account",
          "type": "address"
        },
        {
          "indexed": true,
          "internalType": "address",
          "name": "sender",
          "type": "address"
        }
      ],
      "name": "RoleRevoked",
      "type": "event"
    },
    {
      "anonymous": false,
      "inputs": [
        {
          "indexed": false,
          "internalType": "address",
          "name": "account",
          "type": "address"
        }
      ],
      "name": "Unpaused",
      "type": "event"
    },
    {
      "anonymous": false,
      "inputs": [
        {
          "indexed": true,
          "internalType": "address",
          "name": "implementation",
          "type": "address"
        }
      ],
      "name": "Upgraded",
      "type": "event"
    },
    {
      "inputs": [],
      "name": "DEFAULT_ADMIN_ROLE",
      "outputs": [
        {
          "internalType": "bytes32",
          "name": "",
          "type": "bytes32"
        }
      ],
      "stateMutability": "view",
      "type": "function"
    },
    {
      "inputs": [],
      "name": "MAINTAINER_ROLE",
      "outputs": [
        {
          "internalType": "bytes32",
          "name": "",
          "type": "bytes32"
        }
      ],
      "stateMutability": "view",
      "type": "function"
    },
    {
      "inputs": [],
      "name": "REFINEMENT_SERVICE_ROLE",
      "outputs": [
        {
          "internalType": "bytes32",
          "name": "",
          "type": "bytes32"
        }
      ],
      "stateMutability": "view",
      "type": "function"
    },
    {
      "inputs": [],
      "name": "UPGRADE_INTERFACE_VERSION",
      "outputs": [
        {
          "internalType": "string",
          "name": "",
          "type": "string"
        }
      ],
      "stateMutability": "view",
      "type": "function"
    },
    {
      "inputs": [
        {
          "internalType": "string",
          "name": "url",
          "type": "string"
        }
      ],
      "name": "addFile",
      "outputs": [
        {
          "internalType": "uint256",
          "name": "",
          "type": "uint256"
        }
      ],
      "stateMutability": "nonpayable",
      "type": "function"
    },
    {
      "inputs": [
        {
          "internalType": "uint256",
          "name": "fileId",
          "type": "uint256"
        },
        {
          "internalType": "address",
          "name": "account",
          "type": "address"
        },
        {
          "internalType": "string",
          "name": "key",
          "type": "string"
        }
      ],
      "name": "addFilePermission",
      "outputs": [],
      "stateMutability": "nonpayable",
      "type": "function"
    },
    {
      "inputs": [
        {
          "internalType": "string",
          "name": "url",
          "type": "string"
        },
        {
          "internalType": "address",
          "name": "ownerAddress",
          "type": "address"
        },
        {
          "components": [
            {
              "internalType": "address",
              "name": "account",
              "type": "address"
            },
            {
              "internalType": "string",
              "name": "key",
              "type": "string"
            }
          ],
          "internalType": "struct IDataRegistry.Permission[]",
          "name": "permissions",
          "type": "tuple[]"
        }
      ],
      "name": "addFileWithPermissions",
      "outputs": [
        {
          "internalType": "uint256",
          "name": "",
          "type": "uint256"
        }
      ],
      "stateMutability": "nonpayable",
      "type": "function"
    },
    {
      "inputs": [
        {
          "internalType": "uint256",
          "name": "fileId",
          "type": "uint256"
        },
        {
          "components": [
            {
              "internalType": "bytes",
              "name": "signature",
              "type": "bytes"
            },
            {
              "components": [
                {
                  "internalType": "uint256",
                  "name": "score",
                  "type": "uint256"
                },
                {
                  "internalType": "uint256",
                  "name": "dlpId",
                  "type": "uint256"
                },
                {
                  "internalType": "string",
                  "name": "metadata",
                  "type": "string"
                },
                {
                  "internalType": "string",
                  "name": "proofUrl",
                  "type": "string"
                },
                {
                  "internalType": "string",
                  "name": "instruction",
                  "type": "string"
                }
              ],
              "internalType": "struct IDataRegistry.ProofData",
              "name": "data",
              "type": "tuple"
            }
          ],
          "internalType": "struct IDataRegistry.Proof",
          "name": "proof",
          "type": "tuple"
        }
      ],
      "name": "addProof",
      "outputs": [],
      "stateMutability": "nonpayable",
      "type": "function"
    },
    {
      "inputs": [
        {
          "internalType": "uint256",
          "name": "fileId",
          "type": "uint256"
        },
        {
          "internalType": "uint256",
          "name": "refinerId",
          "type": "uint256"
        },
        {
          "internalType": "string",
          "name": "url",
          "type": "string"
        },
        {
          "internalType": "address",
          "name": "account",
          "type": "address"
        },
        {
          "internalType": "string",
          "name": "key",
          "type": "string"
        }
      ],
      "name": "addRefinementWithPermission",
      "outputs": [],
      "stateMutability": "nonpayable",
      "type": "function"
    },
    {
      "inputs": [
        {
          "internalType": "string",
          "name": "url",
          "type": "string"
        }
      ],
      "name": "fileIdByUrl",
      "outputs": [
        {
          "internalType": "uint256",
          "name": "",
          "type": "uint256"
        }
      ],
      "stateMutability": "view",
      "type": "function"
    },
    {
      "inputs": [
        {
          "internalType": "uint256",
          "name": "fileId",
          "type": "uint256"
        },
        {
          "internalType": "address",
          "name": "account",
          "type": "address"
        }
      ],
      "name": "filePermissions",
      "outputs": [
        {
          "internalType": "string",
          "name": "",
          "type": "string"
        }
      ],
      "stateMutability": "view",
      "type": "function"
    },
    {
      "inputs": [
        {
          "internalType": "uint256",
          "name": "fileId",
          "type": "uint256"
        },
        {
          "internalType": "uint256",
          "name": "index",
          "type": "uint256"
        }
      ],
      "name": "fileProofs",
      "outputs": [
        {
          "components": [
            {
              "internalType": "bytes",
              "name": "signature",
              "type": "bytes"
            },
            {
              "components": [
                {
                  "internalType": "uint256",
                  "name": "score",
                  "type": "uint256"
                },
                {
                  "internalType": "uint256",
                  "name": "dlpId",
                  "type": "uint256"
                },
                {
                  "internalType": "string",
                  "name": "metadata",
                  "type": "string"
                },
                {
                  "internalType": "string",
                  "name": "proofUrl",
                  "type": "string"
                },
                {
                  "internalType": "string",
                  "name": "instruction",
                  "type": "string"
                }
              ],
              "internalType": "struct IDataRegistry.ProofData",
              "name": "data",
              "type": "tuple"
            }
          ],
          "internalType": "struct IDataRegistry.Proof",
          "name": "",
          "type": "tuple"
        }
      ],
      "stateMutability": "view",
      "type": "function"
    },
    {
      "inputs": [
        {
          "internalType": "uint256",
          "name": "fileId",
          "type": "uint256"
        },
        {
          "internalType": "uint256",
          "name": "refinerId",
          "type": "uint256"
        }
      ],
      "name": "fileRefinements",
      "outputs": [
        {
          "internalType": "string",
          "name": "",
          "type": "string"
        }
      ],
      "stateMutability": "view",
      "type": "function"
    },
    {
      "inputs": [
        {
          "internalType": "uint256",
          "name": "fileId",
          "type": "uint256"
        }
      ],
      "name": "files",
      "outputs": [
        {
          "components": [
            {
              "internalType": "uint256",
              "name": "id",
              "type": "uint256"
            },
            {
              "internalType": "address",
              "name": "ownerAddress",
              "type": "address"
            },
            {
              "internalType": "string",
              "name": "url",
              "type": "string"
            },
            {
              "internalType": "uint256",
              "name": "addedAtBlock",
              "type": "uint256"
            }
          ],
          "internalType": "struct IDataRegistry.FileResponse",
          "name": "",
          "type": "tuple"
        }
      ],
      "stateMutability": "view",
      "type": "function"
    },
    {
      "inputs": [],
      "name": "filesCount",
      "outputs": [
        {
          "internalType": "uint256",
          "name": "",
          "type": "uint256"
        }
      ],
      "stateMutability": "view",
      "type": "function"
    },
    {
      "inputs": [
        {
          "internalType": "bytes32",
          "name": "role",
          "type": "bytes32"
        }
      ],
      "name": "getRoleAdmin",
      "outputs": [
        {
          "internalType": "bytes32",
          "name": "",
          "type": "bytes32"
        }
      ],
      "stateMutability": "view",
      "type": "function"
    },
    {
      "inputs": [
        {
          "internalType": "bytes32",
          "name": "role",
          "type": "bytes32"
        },
        {
          "internalType": "address",
          "name": "account",
          "type": "address"
        }
      ],
      "name": "grantRole",
      "outputs": [],
      "stateMutability": "nonpayable",
      "type": "function"
    },
    {
      "inputs": [
        {
          "internalType": "bytes32",
          "name": "role",
          "type": "bytes32"
        },
        {
          "internalType": "address",
          "name": "account",
          "type": "address"
        }
      ],
      "name": "hasRole",
      "outputs": [
        {
          "internalType": "bool",
          "name": "",
          "type": "bool"
        }
      ],
      "stateMutability": "view",
      "type": "function"
    },
    {
      "inputs": [
        {
          "internalType": "address",
          "name": "trustedForwarderAddress",
          "type": "address"
        },
        {
          "internalType": "address",
          "name": "ownerAddress",
          "type": "address"
        }
      ],
      "name": "initialize",
      "outputs": [],
      "stateMutability": "nonpayable",
      "type": "function"
    },
    {
      "inputs": [
        {
          "internalType": "address",
          "name": "forwarder",
          "type": "address"
        }
      ],
      "name": "isTrustedForwarder",
      "outputs": [
        {
          "internalType": "bool",
          "name": "",
          "type": "bool"
        }
      ],
      "stateMutability": "view",
      "type": "function"
    },
    {
      "inputs": [
        {
          "internalType": "bytes[]",
          "name": "data",
          "type": "bytes[]"
        }
      ],
      "name": "multicall",
      "outputs": [
        {
          "internalType": "bytes[]",
          "name": "results",
          "type": "bytes[]"
        }
      ],
      "stateMutability": "nonpayable",
      "type": "function"
    },
    {
      "inputs": [],
      "name": "pause",
      "outputs": [],
      "stateMutability": "nonpayable",
      "type": "function"
    },
    {
      "inputs": [],
      "name": "paused",
      "outputs": [
        {
          "internalType": "bool",
          "name": "",
          "type": "bool"
        }
      ],
      "stateMutability": "view",
      "type": "function"
    },
    {
      "inputs": [],
      "name": "proxiableUUID",
      "outputs": [
        {
          "internalType": "bytes32",
          "name": "",
          "type": "bytes32"
        }
      ],
      "stateMutability": "view",
      "type": "function"
    },
    {
      "inputs": [
        {
          "internalType": "bytes32",
          "name": "role",
          "type": "bytes32"
        },
        {
          "internalType": "address",
          "name": "callerConfirmation",
          "type": "address"
        }
      ],
      "name": "renounceRole",
      "outputs": [],
      "stateMutability": "nonpayable",
      "type": "function"
    },
    {
      "inputs": [
        {
          "internalType": "bytes32",
          "name": "role",
          "type": "bytes32"
        },
        {
          "internalType": "address",
          "name": "account",
          "type": "address"
        }
      ],
      "name": "revokeRole",
      "outputs": [],
      "stateMutability": "nonpayable",
      "type": "function"
    },
    {
      "inputs": [
        {
          "internalType": "bytes32",
          "name": "role",
          "type": "bytes32"
        },
        {
          "internalType": "bytes32",
          "name": "adminRole",
          "type": "bytes32"
        }
      ],
      "name": "setRoleAdmin",
      "outputs": [],
      "stateMutability": "nonpayable",
      "type": "function"
    },
    {
      "inputs": [
        {
          "internalType": "bytes4",
          "name": "interfaceId",
          "type": "bytes4"
        }
      ],
      "name": "supportsInterface",
      "outputs": [
        {
          "internalType": "bool",
          "name": "",
          "type": "bool"
        }
      ],
      "stateMutability": "view",
      "type": "function"
    },
    {
      "inputs": [],
      "name": "trustedForwarder",
      "outputs": [
        {
          "internalType": "address",
          "name": "",
          "type": "address"
        }
      ],
      "stateMutability": "view",
      "type": "function"
    },
    {
      "inputs": [],
      "name": "unpause",
      "outputs": [],
      "stateMutability": "nonpayable",
      "type": "function"
    },
    {
      "inputs": [
        {
          "internalType": "address",
          "name": "trustedForwarderAddress",
          "type": "address"
        }
      ],
      "name": "updateTrustedForwarder",
      "outputs": [],
      "stateMutability": "nonpayable",
      "type": "function"
    },
    {
      "inputs": [
        {
          "internalType": "address",
          "name": "newImplementation",
          "type": "address"
        },
        {
          "internalType": "bytes",
          "name": "data",
          "type": "bytes"
        }
      ],
      "name": "upgradeToAndCall",
      "outputs": [],
      "stateMutability": "payable",
      "type": "function"
    },
    {
      "inputs": [],
      "name": "version",
      "outputs": [
        {
          "internalType": "uint256",
          "name": "",
          "type": "uint256"
        }
      ],
      "stateMutability": "pure",
      "type": "function"
    }
  ],
  "transactionHash": "0x354144237d6ba016df094d5f7d49cec85d8e05541efb9e3d54db6b1f7142b728",
  "args": [],
  "numDeployments": 8,
  "solcInputHash": "07e4903440e457f92e9cb119f915b614",
  "bytecode": "0x60c0604052306080523480156200001557600080fd5b50600060a052620000256200002b565b620000df565b7ff0c57e16840df040f15088dc2f81fe391c3923bec73e23a9662efc9c229c6a00805468010000000000000000900460ff16156200007c5760405163f92ee8a960e01b815260040160405180910390fd5b80546001600160401b0390811614620000dc5780546001600160401b0319166001600160401b0390811782556040519081527fc7f505b2f371ae2175ee4913f4499e1f2633a7b5936321eed1cdaeb6115181d29060200160405180910390a15b50565b60805160a0516129f96200011060003960005050600081816116ae015281816116d7015261181b01526129f96000f3fe60806040526004361061017e5760003560e01c806301ffc9a7146101835780630fbb708b146101b85780631e4e0091146101e5578063248a9ca3146102075780632f2ff15d1461023557806336568abe146102555780633f4ba83a14610275578063485cc9551461028a5780634f1ef286146102aa57806352d1902d146102bd57806354fd4d50146102d2578063572b6c05146102e65780635c975abb1461030657806360f1c43a1461031b5780637da0a8771461033b5780638456cb591461035d57806391d14854146103725780639c648f1c14610392578063a217fddf146103b2578063ac9650d8146103c7578063ad3cb1cc146103f4578063afbfc15614610425578063c26045f714610445578063d547741f14610465578063dbda68db14610485578063dfb5e9ba146104b2578063e7f1cbff146104c8578063eb9b9b64146104ea578063f4c714b41461050a578063f4fb9e4714610537578063f75cf86714610557578063f874225414610577578063f90b031114610599575b600080fd5b34801561018f57600080fd5b506101a361019e366004611d56565b6105b9565b60405190151581526020015b60405180910390f35b3480156101c457600080fd5b506101d86101d3366004611d80565b6105f0565b6040516101af9190611df2565b3480156101f157600080fd5b50610205610200366004611d80565b6106a1565b005b34801561021357600080fd5b50610227610222366004611e05565b6106bb565b6040519081526020016101af565b34801561024157600080fd5b50610205610250366004611e35565b6106db565b34801561026157600080fd5b50610205610270366004611e35565b6106fd565b34801561028157600080fd5b50610205610740565b34801561029657600080fd5b506102056102a5366004611e61565b610763565b6102056102b8366004611f8a565b6108c5565b3480156102c957600080fd5b506102276108e4565b3480156102de57600080fd5b506002610227565b3480156102f257600080fd5b506101a3610301366004611fd7565b610901565b34801561031257600080fd5b506101a3610926565b34801561032757600080fd5b506101d8610336366004611e35565b61093b565b34801561034757600080fd5b5061035061096f565b6040516101af9190611ff2565b34801561036957600080fd5b5061020561097e565b34801561037e57600080fd5b506101a361038d366004611e35565b61099e565b34801561039e57600080fd5b506102056103ad36600461204e565b6109d4565b3480156103be57600080fd5b50610227600081565b3480156103d357600080fd5b506103e76103e23660046120e4565b610b9d565b6040516101af9190612158565b34801561040057600080fd5b506101d8604051806040016040528060058152602001640352e302e360dc1b81525081565b34801561043157600080fd5b506102276104403660046121bc565b610cfb565b34801561045157600080fd5b506102056104603660046122f6565b610df5565b34801561047157600080fd5b50610205610480366004611e35565b610f23565b34801561049157600080fd5b506104a56104a0366004611d80565b610f3f565b6040516101af919061241c565b3480156104be57600080fd5b5061022760015481565b3480156104d457600080fd5b5061022760008051602061294483398151915281565b3480156104f657600080fd5b506102276105053660046124b1565b6111e3565b34801561051657600080fd5b5061052a610525366004611e05565b611203565b6040516101af91906124ed565b34801561054357600080fd5b506102276105523660046124b1565b61130d565b34801561056357600080fd5b5061020561057236600461253b565b611350565b34801561058357600080fd5b506102276000805160206129a483398151915281565b3480156105a557600080fd5b506102056105b4366004611fd7565b6113f8565b60006001600160e01b03198216637965db0b60e01b14806105ea57506301ffc9a760e01b6001600160e01b03198316145b92915050565b6000828152600260209081526040808320848452600601909152902080546060919061061b90612591565b80601f016020809104026020016040519081016040528092919081815260200182805461064790612591565b80156106945780601f1061066957610100808354040283529160200191610694565b820191906000526020600020905b81548152906001019060200180831161067757829003601f168201915b5050505050905092915050565b60006106ac81611433565b6106b6838361143d565b505050565b6000806106c661149d565b60009384526020525050604090206001015490565b6106e4826106bb565b6106ed81611433565b6106f783836114c1565b50505050565b610705611563565b6001600160a01b0316816001600160a01b0316146107365760405163334bd91960e11b815260040160405180910390fd5b6106b68282611572565b6000805160206129a483398151915261075881611433565b610760611608565b50565b600061076d611665565b805490915060ff600160401b82041615906001600160401b03166000811580156107945750825b90506000826001600160401b031660011480156107b05750303b155b9050811580156107be575080155b156107dc5760405163f92ee8a960e01b815260040160405180910390fd5b84546001600160401b0319166001178555831561080557845460ff60401b1916600160401b1785555b61080d611689565b610815611689565b61081d611693565b600080546001600160a01b0319166001600160a01b038916178155610851906000805160206129a48339815191529061143d565b61085c6000876114c1565b506108756000805160206129a4833981519152876114c1565b5083156108bc57845460ff60401b19168555604051600181527fc7f505b2f371ae2175ee4913f4499e1f2633a7b5936321eed1cdaeb6115181d29060200160405180910390a15b50505050505050565b6108cd6116a3565b6108d682611748565b6108e08282611753565b5050565b60006108ee611810565b5060008051602061296483398151915290565b600061090b61096f565b6001600160a01b0316826001600160a01b0316149050919050565b600080610931611859565b5460ff1692915050565b60008281526002602090815260408083206001600160a01b0385168452600501909152902080546060919061061b90612591565b6000546001600160a01b031690565b6000805160206129a483398151915261099681611433565b61076061187d565b6000806109a961149d565b6000948552602090815260408086206001600160a01b03959095168652939052505090205460ff1690565b6109dc6118c5565b6109f46000805160206129448339815191523361099e565b158015610a0f5750610a0d87610a08611563565b6118eb565b155b15610a2d57604051639d7b369d60e01b815260040160405180910390fd5b600154871180610a3b575086155b15610a5957604051633b4835d960e21b815260040160405180910390fd5b600087815260026020526040812090859003610a885760405163e7bc872f60e01b815260040160405180910390fd5b600087815260068201602052604090208054610aa390612591565b159050610ac3576040516330b79c8360e11b815260040160405180910390fd5b60008781526006820160205260409020610ade868883612630565b5086887f2ce2df96b3f88dc893c7d10d38553c8f1abbcf5e25a0c5b13030f5d85d4b1f088888604051610b129291906126ea565b60405180910390a36001600160a01b038416600090815260058201602052604090208054610b3f90612591565b9050600003610b93576001600160a01b03841660009081526005820160205260409020610b6d838583612630565b506040516001600160a01b03851690899060008051602061298483398151915290600090a35b5050505050505050565b60606000610ba9611563565b6001600160a01b0316336001600160a01b031614610c1457600036610bcf60148261272f565b610bda928290612742565b8080601f016020809104026020016040519081016040528093929190818152602001838380828437600092019190915250610c2492505050565b6040805160008152602081019091525b9050826001600160401b03811115610c3e57610c3e611e8b565b604051908082528060200260200182016040528015610c7157816020015b6060815260200190600190039081610c5c5790505b50915060005b83811015610cf357610cce30868684818110610c9557610c9561276c565b9050602002810190610ca79190612782565b85604051602001610cba939291906127c8565b604051602081830303815290604052611925565b838281518110610ce057610ce061276c565b6020908102919091010152600101610c77565b505092915050565b6000610d056118c5565b6000610d11858561199b565b905060005b8351811015610dea57838181518110610d3157610d3161276c565b602002602001015160200151600260008481526020019081526020016000206005016000868481518110610d6757610d6761276c565b6020026020010151600001516001600160a01b03166001600160a01b031681526020019081526020016000209081610d9f91906127ef565b50838181518110610db257610db261276c565b6020026020010151600001516001600160a01b03168260008051602061298483398151915260405160405180910390a3600101610d16565b5090505b9392505050565b610dfd6118c5565b600082815260026020526040812060030180548290610e1b906128a8565b918290555060008481526002602090815260408083208484526004019091529020835191925083918190610e4f90826127ef565b5060208201518160010160008201518160000155602082015181600101556040820151816002019081610e8291906127ef565b5060608201516003820190610e9790826127ef565b5060808201516004820190610eac90826127ef565b5050506020808501805182015160008881526002909352604092839020549151805160609091015193519195506001600160a01b03909216935087927fef448dca1e95226d5af380d5817c753c86946ef53cffb238e5fbe889230565c792610f16928892906128c1565b60405180910390a4505050565b610f2c826106bb565b610f3581611433565b6106f78383611572565b610f47611d0d565b6000838152600260209081526040808320858452600401909152908190208151808301909252805482908290610f7c90612591565b80601f0160208091040260200160405190810160405280929190818152602001828054610fa890612591565b8015610ff55780601f10610fca57610100808354040283529160200191610ff5565b820191906000526020600020905b815481529060010190602001808311610fd857829003601f168201915b50505050508152602001600182016040518060a0016040529081600082015481526020016001820154815260200160028201805461103290612591565b80601f016020809104026020016040519081016040528092919081815260200182805461105e90612591565b80156110ab5780601f10611080576101008083540402835291602001916110ab565b820191906000526020600020905b81548152906001019060200180831161108e57829003601f168201915b505050505081526020016003820180546110c490612591565b80601f01602080910402602001604051908101604052809291908181526020018280546110f090612591565b801561113d5780601f106111125761010080835404028352916020019161113d565b820191906000526020600020905b81548152906001019060200180831161112057829003601f168201915b5050505050815260200160048201805461115690612591565b80601f016020809104026020016040519081016040528092919081815260200182805461118290612591565b80156111cf5780601f106111a4576101008083540402835291602001916111cf565b820191906000526020600020905b8154815290600101906020018083116111b257829003601f168201915b505050919092525050509052509392505050565b60006111ed6118c5565b6105ea826111f9611563565b61199b565b919050565b61123760405180608001604052806000815260200160006001600160a01b0316815260200160608152602001600081525090565b600082815260026020908152604091829020825160808101845285815281546001600160a01b031692810192909252600181018054919383019161127a90612591565b80601f01602080910402602001604051908101604052809291908181526020018280546112a690612591565b80156112f35780601f106112c8576101008083540402835291602001916112f3565b820191906000526020600020905b8154815290600101906020018083116112d657829003601f168201915b505050505081526020018260020154815250915050919050565b6000600360008360405160200161132491906128e0565b604051602081830303815290604052805190602001208152602001908152602001600020549050919050565b6113586118c5565b6000838152600260205260409020546001600160a01b0316611378611563565b6001600160a01b03161461139f5760405163abea322960e01b815260040160405180910390fd5b60008381526002602090815260408083206001600160a01b038616845260050190915290206113ce82826127ef565b506040516001600160a01b03831690849060008051602061298483398151915290600090a3505050565b6000805160206129a483398151915261141081611433565b50600080546001600160a01b0319166001600160a01b0392909216919091179055565b6107608133611ab4565b600061144761149d565b90506000611454846106bb565b600085815260208490526040808220600101869055519192508491839187917fbd79b86ffe0ab8e8776151514217cd7cacd52c909f66475c3af44e129f0b00ff9190a450505050565b7f02dd7bc7dec4dceedda775e58dd541e08a116c6c53815c0bd028192f7b62680090565b6000806114cc61149d565b90506114d8848461099e565b611559576000848152602082815260408083206001600160a01b03871684529091529020805460ff1916600117905561150f611563565b6001600160a01b0316836001600160a01b0316857f2f8788117e7eff1d82e926ec794901d17c78024a50270940304540a733656f0d60405160405180910390a460019150506105ea565b60009150506105ea565b600061156d611aed565b905090565b60008061157d61149d565b9050611589848461099e565b15611559576000848152602082815260408083206001600160a01b03871684529091529020805460ff191690556115be611563565b6001600160a01b0316836001600160a01b0316857ff6391f5c32d9c69d2a47ea670b442974b53935d1edc7fd64eb21e047a839171b60405160405180910390a460019150506105ea565b611610611b3f565b600061161a611859565b805460ff1916815590507f5db9ee0a495bf2e6ff9c91a7834c1ba4fdd244a5e8aa4e537bd38aeae4b073aa61164d611563565b60405161165a9190611ff2565b60405180910390a150565b7ff0c57e16840df040f15088dc2f81fe391c3923bec73e23a9662efc9c229c6a0090565b611691611b64565b565b61169b611b64565b611691611b89565b306001600160a01b037f000000000000000000000000000000000000000000000000000000000000000016148061172a57507f00000000000000000000000000000000000000000000000000000000000000006001600160a01b031661171e600080516020612964833981519152546001600160a01b031690565b6001600160a01b031614155b156116915760405163703e46dd60e11b815260040160405180910390fd5b60006108e081611433565b816001600160a01b03166352d1902d6040518163ffffffff1660e01b8152600401602060405180830381865afa9250505080156117ad575060408051601f3d908101601f191682019092526117aa918101906128fc565b60015b6117d55781604051634c9c8ce360e01b81526004016117cc9190611ff2565b60405180910390fd5b600080516020612964833981519152811461180657604051632a87526960e21b8152600481018290526024016117cc565b6106b68383611ba6565b306001600160a01b037f000000000000000000000000000000000000000000000000000000000000000016146116915760405163703e46dd60e11b815260040160405180910390fd5b7fcd5ed15c6e187e77e9aee88184c21f4f2182ab5827cb3b7e07fbedcd63f0330090565b6118856118c5565b600061188f611859565b805460ff1916600117815590507f62e78cea01bee320cd4e420270b5ea74000d11b0c9f74754ebdbfc544b05a25861164d611563565b6118cd610926565b156116915760405163d93c066560e01b815260040160405180910390fd5b60008281526002602090815260408083206001600160a01b03851684526005019091528120805461191b90612591565b1515949350505050565b6060600080846001600160a01b03168460405161194291906128e0565b600060405180830381855af49150503d806000811461197d576040519150601f19603f3d011682016040523d82523d6000602084013e611982565b606091505b5091509150611992858383611bfc565b95945050505050565b6000806001600081546119ad906128a8565b91905081905590506000846040516020016119c891906128e0565b60408051601f1981840301815291815281516020928301206000818152600390935291205490915015611a0e57604051638611445560e01b815260040160405180910390fd5b600082815260026020526040902080546001600160a01b0319166001600160a01b038616178155600101611a4286826127ef565b506000828152600260208181526040808420439301929092558383526003905290819020839055516001600160a01b0385169083907f2980b13036c0d9df6b71ea9e9c09536efd24d7dd1868e29aa730f0c3fbd1a0dc90611aa4908990611df2565b60405180910390a3509392505050565b611abe828261099e565b6108e05760405163e2517d3f60e01b81526001600160a01b0382166004820152602481018390526044016117cc565b6000366014611afb33610901565b8015611b075750808210155b15611b3757600036611b19838561272f565b611b24928290612742565b611b2d91612915565b60601c9250505090565b339250505090565b611b47610926565b61169157604051638dfc202b60e01b815260040160405180910390fd5b611b6c611c4f565b61169157604051631afcd79f60e31b815260040160405180910390fd5b611b91611b64565b6000611b9b611859565b805460ff1916905550565b611baf82611c69565b6040516001600160a01b038316907fbc7cd75a20ee27fd9adebab32041f755214dbc6bffa90cc0225b39da2e5c2d3b90600090a2805115611bf4576106b68282611925565b6108e0611cc5565b606082611c1157611c0c82611ce4565b610dee565b8151158015611c2857506001600160a01b0384163b155b15611c485783604051639996b31560e01b81526004016117cc9190611ff2565b5080610dee565b6000611c59611665565b54600160401b900460ff16919050565b806001600160a01b03163b600003611c965780604051634c9c8ce360e01b81526004016117cc9190611ff2565b60008051602061296483398151915280546001600160a01b0319166001600160a01b0392909216919091179055565b34156116915760405163b398979f60e01b815260040160405180910390fd5b805115611cf45780518082602001fd5b604051630a12f52160e11b815260040160405180910390fd5b604051806040016040528060608152602001611d516040518060a0016040528060008152602001600081526020016060815260200160608152602001606081525090565b905290565b600060208284031215611d6857600080fd5b81356001600160e01b031981168114610dee57600080fd5b60008060408385031215611d9357600080fd5b50508035926020909101359150565b60005b83811015611dbd578181015183820152602001611da5565b50506000910152565b60008151808452611dde816020860160208601611da2565b601f01601f19169290920160200192915050565b602081526000610dee6020830184611dc6565b600060208284031215611e1757600080fd5b5035919050565b80356001600160a01b03811681146111fe57600080fd5b60008060408385031215611e4857600080fd5b82359150611e5860208401611e1e565b90509250929050565b60008060408385031215611e7457600080fd5b611e7d83611e1e565b9150611e5860208401611e1e565b634e487b7160e01b600052604160045260246000fd5b604080519081016001600160401b0381118282101715611ec357611ec3611e8b565b60405290565b60405160a081016001600160401b0381118282101715611ec357611ec3611e8b565b604051601f8201601f191681016001600160401b0381118282101715611f1357611f13611e8b565b604052919050565b600082601f830112611f2c57600080fd5b81356001600160401b03811115611f4557611f45611e8b565b611f58601f8201601f1916602001611eeb565b818152846020838601011115611f6d57600080fd5b816020850160208301376000918101602001919091529392505050565b60008060408385031215611f9d57600080fd5b611fa683611e1e565b915060208301356001600160401b03811115611fc157600080fd5b611fcd85828601611f1b565b9150509250929050565b600060208284031215611fe957600080fd5b610dee82611e1e565b6001600160a01b0391909116815260200190565b60008083601f84011261201857600080fd5b5081356001600160401b0381111561202f57600080fd5b60208301915083602082850101111561204757600080fd5b9250929050565b600080600080600080600060a0888a03121561206957600080fd5b873596506020880135955060408801356001600160401b038082111561208e57600080fd5b61209a8b838c01612006565b90975095508591506120ae60608b01611e1e565b945060808a01359150808211156120c457600080fd5b506120d18a828b01612006565b989b979a50959850939692959293505050565b600080602083850312156120f757600080fd5b82356001600160401b038082111561210e57600080fd5b818501915085601f83011261212257600080fd5b81358181111561213157600080fd5b8660208260051b850101111561214657600080fd5b60209290920196919550909350505050565b600060208083016020845280855180835260408601915060408160051b87010192506020870160005b828110156121af57603f1988860301845261219d858351611dc6565b94509285019290850190600101612181565b5092979650505050505050565b6000806000606084860312156121d157600080fd5b83356001600160401b03808211156121e857600080fd5b6121f487838801611f1b565b945060209150612205828701611e1e565b935060408601358181111561221957600080fd5b8601601f8101881361222a57600080fd5b80358281111561223c5761223c611e8b565b8060051b61224b858201611eeb565b918252828101850191858101908b84111561226557600080fd5b86850192505b838310156122e5578235868111156122835760008081fd5b85016040818e03601f1901121561229a5760008081fd5b6122a2611ea1565b6122ad898301611e1e565b81526040820135888111156122c25760008081fd5b6122d08f8b83860101611f1b565b828b015250835250918601919086019061226b565b809750505050505050509250925092565b6000806040838503121561230957600080fd5b8235915060208301356001600160401b038082111561232757600080fd5b908401906040828703121561233b57600080fd5b612343611ea1565b82358281111561235257600080fd5b61235e88828601611f1b565b82525060208301358281111561237357600080fd5b929092019160a0838803121561238857600080fd5b612390611ec9565b83358152602084013560208201526040840135838111156123b057600080fd5b6123bc89828701611f1b565b6040830152506060840135838111156123d457600080fd5b6123e089828701611f1b565b6060830152506080840135838111156123f857600080fd5b61240489828701611f1b565b60808301525060208201529396939550929350505050565b6020815260008251604060208401526124386060840182611dc6565b90506020840151601f198483030160408501528051825260208101516020830152604081015160a0604084015261247260a0840182611dc6565b90506060820151838203606085015261248b8282611dc6565b9150506080820151915082810360808401526124a78183611dc6565b9695505050505050565b6000602082840312156124c357600080fd5b81356001600160401b038111156124d957600080fd5b6124e584828501611f1b565b949350505050565b602081528151602082015260018060a01b036020830151166040820152600060408301516080606084015261252560a0840182611dc6565b9050606084015160808401528091505092915050565b60008060006060848603121561255057600080fd5b8335925061256060208501611e1e565b915060408401356001600160401b0381111561257b57600080fd5b61258786828701611f1b565b9150509250925092565b600181811c908216806125a557607f821691505b6020821081036125c557634e487b7160e01b600052602260045260246000fd5b50919050565b601f8211156106b6576000816000526020600020601f850160051c810160208610156125f45750805b601f850160051c820191505b8181101561261357828155600101612600565b505050505050565b600019600383901b1c191660019190911b1790565b6001600160401b0383111561264757612647611e8b565b61265b836126558354612591565b836125cb565b6000601f84116001811461268957600085156126775750838201355b612681868261261b565b8455506126e3565b600083815260209020601f19861690835b828110156126ba578685013582556020948501946001909201910161269a565b50868210156126d75760001960f88860031b161c19848701351681555b505060018560011b0183555b5050505050565b60208152816020820152818360408301376000818301604090810191909152601f909201601f19160101919050565b634e487b7160e01b600052601160045260246000fd5b818103818111156105ea576105ea612719565b6000808585111561275257600080fd5b8386111561275f57600080fd5b5050820193919092039150565b634e487b7160e01b600052603260045260246000fd5b6000808335601e1984360301811261279957600080fd5b8301803591506001600160401b038211156127b357600080fd5b60200191503681900382131561204757600080fd5b8284823760008382016000815283516127e5818360208801611da2565b0195945050505050565b81516001600160401b0381111561280857612808611e8b565b61281c816128168454612591565b846125cb565b602080601f83116001811461284b57600084156128395750858301515b612843858261261b565b865550612613565b600085815260208120601f198616915b8281101561287a5788860151825594840194600190910190840161285b565b50858210156128985787850151600019600388901b60f8161c191681555b5050505050600190811b01905550565b6000600182016128ba576128ba612719565b5060010190565b8381528260208201526060604082015260006119926060830184611dc6565b600082516128f2818460208701611da2565b9190910192915050565b60006020828403121561290e57600080fd5b5051919050565b6001600160601b03198135818116916014851015610cf35760149490940360031b84901b169092169291505056feecd89b8856fbf65c0a9c0bd4d30ba1d9567c74f1058aeb759285f6bbc6578271360894a13ba1a3210667c828492db98dca3e2076cc3735a920a3ca505d382bbc6e0403ef2b13328247bf9260ad8dd9c18fb5a18b95ea25de817ca991da05929b339759585899103d2ace64958e37e18ccb0504652c81d4a1b8aa80fe2126ab95a2646970667358221220d0987c64200d9e9e1ad7955e2ec272c859b489e3447202c5ff47449d5fdc3a6064736f6c63430008180033",
  "devdoc": {
    "errors": {
      "AccessControlBadConfirmation()": [
        {
          "details": "The caller of a function is not the expected one. NOTE: Don't confuse with {AccessControlUnauthorizedAccount}."
        }
      ],
      "AccessControlUnauthorizedAccount(address,bytes32)": [
        {
          "details": "The `account` is missing a role."
        }
      ],
      "AddressEmptyCode(address)": [
        {
          "details": "There's no code at `target` (it is not a contract)."
        }
      ],
      "ERC1967InvalidImplementation(address)": [
        {
          "details": "The `implementation` of the proxy is invalid."
        }
      ],
      "ERC1967NonPayable()": [
        {
          "details": "An upgrade function sees `msg.value > 0` that may be lost."
        }
      ],
      "EnforcedPause()": [
        {
          "details": "The operation failed because the contract is paused."
        }
      ],
      "ExpectedPause()": [
        {
          "details": "The operation failed because the contract is not paused."
        }
      ],
      "FailedInnerCall()": [
        {
          "details": "A call to an address target failed. The target may have reverted."
        }
      ],
      "InvalidInitialization()": [
        {
          "details": "The contract is already initialized."
        }
      ],
      "NotInitializing()": [
        {
          "details": "The contract is not initializing."
        }
      ],
      "UUPSUnauthorizedCallContext()": [
        {
          "details": "The call is from an unauthorized context."
        }
      ],
      "UUPSUnsupportedProxiableUUID(bytes32)": [
        {
          "details": "The storage `slot` is unsupported as a UUID."
        }
      ]
    },
    "events": {
      "FileAdded(uint256,address,string)": {
        "params": {
          "fileId": "id of the file",
          "ownerAddress": "address of the owner",
          "url": "url of the file"
        }
      },
      "Initialized(uint64)": {
        "details": "Triggered when the contract has been initialized or reinitialized."
      },
      "Paused(address)": {
        "details": "Emitted when the pause is triggered by `account`."
      },
      "PermissionGranted(uint256,address)": {
        "params": {
          "account": "address of the account",
          "fileId": "id of the file"
        }
      },
      "ProofAdded(uint256,address,uint256,uint256,uint256,string)": {
        "params": {
          "dlpId": "id of the DLP",
          "fileId": "id of the file",
          "ownerAddress": "file owner address",
          "proofIndex": "index of the proof",
          "proofUrl": "url of the proof",
          "score": "score of the proof"
        }
      },
      "RefinementAdded(uint256,uint256,string)": {
        "params": {
          "fileId": "id of the file",
          "refinerId": "id of the refiner",
          "url": "url of the refinement"
        }
      },
      "RoleAdminChanged(bytes32,bytes32,bytes32)": {
        "details": "Emitted when `newAdminRole` is set as ``role``'s admin role, replacing `previousAdminRole` `DEFAULT_ADMIN_ROLE` is the starting admin for all roles, despite {RoleAdminChanged} not being emitted signaling this."
      },
      "RoleGranted(bytes32,address,address)": {
        "details": "Emitted when `account` is granted `role`. `sender` is the account that originated the contract call, an admin role bearer except when using {AccessControl-_setupRole}."
      },
      "RoleRevoked(bytes32,address,address)": {
        "details": "Emitted when `account` is revoked `role`. `sender` is the account that originated the contract call:   - if using `revokeRole`, it is the admin role bearer   - if using `renounceRole`, it is the role bearer (i.e. `account`)"
      },
      "Unpaused(address)": {
        "details": "Emitted when the pause is lifted by `account`."
      },
      "Upgraded(address)": {
        "details": "Emitted when the implementation is upgraded."
      }
    },
    "kind": "dev",
    "methods": {
      "addFile(string)": {
        "params": {
          "url": "url of the file"
        },
        "returns": {
          "_0": "uint256                          id of the file"
        }
      },
      "addFilePermission(uint256,address,string)": {
        "params": {
          "account": "address of the account",
          "fileId": "id of the file",
          "key": "encryption key for the account"
        }
      },
      "addFileWithPermissions(string,address,(address,string)[])": {
        "params": {
          "ownerAddress": "address of the owner",
          "permissions": "permissions for the file",
          "url": "url of the file"
        },
        "returns": {
          "_0": "uint256                          id of the file"
        }
      },
      "addProof(uint256,(bytes,(uint256,uint256,string,string,string)))": {
        "params": {
          "fileId": "id of the file",
          "proof": "proof for the file"
        }
      },
      "addRefinementWithPermission(uint256,uint256,string,address,string)": {
        "params": {
          "account": "The account to add the permission for.",
          "fileId": "The ID of the file to add the refinement to.",
          "key": "The encryption key for the account.",
          "refinerId": "The ID of the refiner.",
          "url": "The URL of the refinement against the refiner."
        }
      },
      "constructor": {
        "custom:oz-upgrades-unsafe-allow": "constructor"
      },
      "fileIdByUrl(string)": {
        "params": {
          "url": "The URL to look up"
        },
        "returns": {
          "_0": "fileId The ID of the file (0 if not found)"
        }
      },
      "filePermissions(uint256,address)": {
        "params": {
          "account": "address of the account",
          "fileId": "id of the file"
        },
        "returns": {
          "_0": "string                           key for the account"
        }
      },
      "fileProofs(uint256,uint256)": {
        "params": {
          "fileId": "id of the file",
          "index": "index of the proof"
        },
        "returns": {
          "_0": "Proof                            proof of the file"
        }
      },
      "fileRefinements(uint256,uint256)": {
        "params": {
          "fileId": "The ID of the file to get the refinement for.",
          "refinerId": "The ID of the refiner."
        },
        "returns": {
          "_0": "The URL of the refinement against the refiner."
        }
      },
      "files(uint256)": {
        "params": {
          "fileId": "id of the file"
        },
        "returns": {
          "_0": "FileResponse                     information about the file"
        }
      },
      "getRoleAdmin(bytes32)": {
        "details": "Returns the admin role that controls `role`. See {grantRole} and {revokeRole}. To change a role's admin, use {_setRoleAdmin}."
      },
      "grantRole(bytes32,address)": {
        "details": "Grants `role` to `account`. If `account` had not been already granted `role`, emits a {RoleGranted} event. Requirements: - the caller must have ``role``'s admin role. May emit a {RoleGranted} event."
      },
      "hasRole(bytes32,address)": {
        "details": "Returns `true` if `account` has been granted `role`."
      },
      "initialize(address,address)": {
        "params": {
          "ownerAddress": "address of the owner"
        }
      },
      "isTrustedForwarder(address)": {
        "details": "Indicates whether any particular address is the trusted forwarder."
      },
      "multicall(bytes[])": {
        "custom:oz-upgrades-unsafe-allow-reachable": "delegatecall",
        "details": "Receives and executes a batch of function calls on this contract."
      },
      "pause()": {
        "details": "Pauses the contract"
      },
      "paused()": {
        "details": "Returns true if the contract is paused, and false otherwise."
      },
      "proxiableUUID()": {
        "details": "Implementation of the ERC1822 {proxiableUUID} function. This returns the storage slot used by the implementation. It is used to validate the implementation's compatibility when performing an upgrade. IMPORTANT: A proxy pointing at a proxiable contract should not be considered proxiable itself, because this risks bricking a proxy that upgrades to it, by delegating to itself until out of gas. Thus it is critical that this function revert if invoked through a proxy. This is guaranteed by the `notDelegated` modifier."
      },
      "renounceRole(bytes32,address)": {
        "details": "Revokes `role` from the calling account. Roles are often managed via {grantRole} and {revokeRole}: this function's purpose is to provide a mechanism for accounts to lose their privileges if they are compromised (such as when a trusted device is misplaced). If the calling account had been revoked `role`, emits a {RoleRevoked} event. Requirements: - the caller must be `callerConfirmation`. May emit a {RoleRevoked} event."
      },
      "revokeRole(bytes32,address)": {
        "details": "Revokes `role` from `account`. If `account` had been granted `role`, emits a {RoleRevoked} event. Requirements: - the caller must have ``role``'s admin role. May emit a {RoleRevoked} event."
      },
      "supportsInterface(bytes4)": {
        "details": "See {IERC165-supportsInterface}."
      },
      "trustedForwarder()": {
        "details": "Returns the address of the trusted forwarder."
      },
      "unpause()": {
        "details": "Unpauses the contract"
      },
      "updateTrustedForwarder(address)": {
        "params": {
          "trustedForwarderAddress": "address of the trusted forwarder"
        }
      },
      "upgradeToAndCall(address,bytes)": {
        "custom:oz-upgrades-unsafe-allow-reachable": "delegatecall",
        "details": "Upgrade the implementation of the proxy to `newImplementation`, and subsequently execute the function call encoded in `data`. Calls {_authorizeUpgrade}. Emits an {Upgraded} event."
      }
    },
    "version": 1
  },
  "userdoc": {
    "events": {
      "FileAdded(uint256,address,string)": {
        "notice": "Triggered when a file has been added"
      },
      "PermissionGranted(uint256,address)": {
        "notice": "Triggered when user has authorized an account to access the file"
      },
      "ProofAdded(uint256,address,uint256,uint256,uint256,string)": {
        "notice": "Triggered when user has added an proof to the file"
      },
      "RefinementAdded(uint256,uint256,string)": {
        "notice": "Triggered when user has added a refinement to the file"
      }
    },
    "kind": "user",
    "methods": {
      "addFile(string)": {
        "notice": "Adds a file to the registry"
      },
      "addFilePermission(uint256,address,string)": {
        "notice": "Adds permissions for accounts to access the file"
      },
      "addFileWithPermissions(string,address,(address,string)[])": {
        "notice": "Adds a file to the registry with permissions"
      },
      "addProof(uint256,(bytes,(uint256,uint256,string,string,string)))": {
        "notice": "Adds an proof to the file"
      },
      "addRefinementWithPermission(uint256,uint256,string,address,string)": {
        "notice": "Adds a refinement to a file with the given fileId."
      },
      "fileIdByUrl(string)": {
        "notice": "Get fileId by URL"
      },
      "filePermissions(uint256,address)": {
        "notice": "Returns permissions for the file"
      },
      "fileProofs(uint256,uint256)": {
        "notice": "Returns the proof of the file"
      },
      "fileRefinements(uint256,uint256)": {
        "notice": "Returns the refinement URL of fileId against the refiner refinerId."
      },
      "files(uint256)": {
        "notice": "Returns information about the file"
      },
      "initialize(address,address)": {
        "notice": "Initialize the contract"
      },
      "updateTrustedForwarder(address)": {
        "notice": "Update the trusted forwarder"
      },
      "version()": {
        "notice": "Returns the version of the contract"
      }
    },
    "version": 1
  },
  "storageLayout": {
    "storage": [
      {
        "astId": 2861,
        "contract": "contracts/dataRegistry/DataRegistryImplementation.sol:DataRegistryImplementation",
        "label": "_trustedForwarder",
        "offset": 0,
        "slot": "0",
        "type": "t_address"
      },
      {
        "astId": 2864,
        "contract": "contracts/dataRegistry/DataRegistryImplementation.sol:DataRegistryImplementation",
        "label": "filesCount",
        "offset": 0,
        "slot": "1",
        "type": "t_uint256"
      },
      {
        "astId": 2869,
        "contract": "contracts/dataRegistry/DataRegistryImplementation.sol:DataRegistryImplementation",
        "label": "_files",
        "offset": 0,
        "slot": "2",
        "type": "t_mapping(t_uint256,t_struct(File)2916_storage)"
      },
      {
        "astId": 2873,
        "contract": "contracts/dataRegistry/DataRegistryImplementation.sol:DataRegistryImplementation",
        "label": "_urlHashToFileId",
        "offset": 0,
        "slot": "3",
        "type": "t_mapping(t_bytes32,t_uint256)"
      }
    ],
    "types": {
      "t_address": {
        "encoding": "inplace",
        "label": "address",
        "numberOfBytes": "20"
      },
      "t_bytes32": {
        "encoding": "inplace",
        "label": "bytes32",
        "numberOfBytes": "32"
      },
      "t_bytes_storage": {
        "encoding": "bytes",
        "label": "bytes",
        "numberOfBytes": "32"
      },
      "t_mapping(t_address,t_string_storage)": {
        "encoding": "mapping",
        "key": "t_address",
        "label": "mapping(address => string)",
        "numberOfBytes": "32",
        "value": "t_string_storage"
      },
      "t_mapping(t_bytes32,t_uint256)": {
        "encoding": "mapping",
        "key": "t_bytes32",
        "label": "mapping(bytes32 => uint256)",
        "numberOfBytes": "32",
        "value": "t_uint256"
      },
      "t_mapping(t_uint256,t_string_storage)": {
        "encoding": "mapping",
        "key": "t_uint256",
        "label": "mapping(uint256 => string)",
        "numberOfBytes": "32",
        "value": "t_string_storage"
      },
      "t_mapping(t_uint256,t_struct(File)2916_storage)": {
        "encoding": "mapping",
        "key": "t_uint256",
        "label": "mapping(uint256 => struct IDataRegistry.File)",
        "numberOfBytes": "32",
        "value": "t_struct(File)2916_storage"
      },
      "t_mapping(t_uint256,t_struct(Proof)2893_storage)": {
        "encoding": "mapping",
        "key": "t_uint256",
        "label": "mapping(uint256 => struct IDataRegistry.Proof)",
        "numberOfBytes": "32",
        "value": "t_struct(Proof)2893_storage"
      },
      "t_string_storage": {
        "encoding": "bytes",
        "label": "string",
        "numberOfBytes": "32"
      },
      "t_struct(File)2916_storage": {
        "encoding": "inplace",
        "label": "struct IDataRegistry.File",
        "members": [
          {
            "astId": 2895,
            "contract": "contracts/dataRegistry/DataRegistryImplementation.sol:DataRegistryImplementation",
            "label": "ownerAddress",
            "offset": 0,
            "slot": "0",
            "type": "t_address"
          },
          {
            "astId": 2897,
            "contract": "contracts/dataRegistry/DataRegistryImplementation.sol:DataRegistryImplementation",
            "label": "url",
            "offset": 0,
            "slot": "1",
            "type": "t_string_storage"
          },
          {
            "astId": 2899,
            "contract": "contracts/dataRegistry/DataRegistryImplementation.sol:DataRegistryImplementation",
            "label": "addedAtBlock",
            "offset": 0,
            "slot": "2",
            "type": "t_uint256"
          },
          {
            "astId": 2901,
            "contract": "contracts/dataRegistry/DataRegistryImplementation.sol:DataRegistryImplementation",
            "label": "proofsCount",
            "offset": 0,
            "slot": "3",
            "type": "t_uint256"
          },
          {
            "astId": 2906,
            "contract": "contracts/dataRegistry/DataRegistryImplementation.sol:DataRegistryImplementation",
            "label": "proofs",
            "offset": 0,
            "slot": "4",
            "type": "t_mapping(t_uint256,t_struct(Proof)2893_storage)"
          },
          {
            "astId": 2910,
            "contract": "contracts/dataRegistry/DataRegistryImplementation.sol:DataRegistryImplementation",
            "label": "permissions",
            "offset": 0,
            "slot": "5",
            "type": "t_mapping(t_address,t_string_storage)"
          },
          {
            "astId": 2915,
            "contract": "contracts/dataRegistry/DataRegistryImplementation.sol:DataRegistryImplementation",
            "label": "refinements",
            "offset": 0,
            "slot": "6",
            "type": "t_mapping(t_uint256,t_string_storage)"
          }
        ],
        "numberOfBytes": "224"
      },
      "t_struct(Proof)2893_storage": {
        "encoding": "inplace",
        "label": "struct IDataRegistry.Proof",
        "members": [
          {
            "astId": 2889,
            "contract": "contracts/dataRegistry/DataRegistryImplementation.sol:DataRegistryImplementation",
            "label": "signature",
            "offset": 0,
            "slot": "0",
            "type": "t_bytes_storage"
          },
          {
            "astId": 2892,
            "contract": "contracts/dataRegistry/DataRegistryImplementation.sol:DataRegistryImplementation",
            "label": "data",
            "offset": 0,
            "slot": "1",
            "type": "t_struct(ProofData)2887_storage"
          }
        ],
        "numberOfBytes": "192"
      },
      "t_struct(ProofData)2887_storage": {
        "encoding": "inplace",
        "label": "struct IDataRegistry.ProofData",
        "members": [
          {
            "astId": 2878,
            "contract": "contracts/dataRegistry/DataRegistryImplementation.sol:DataRegistryImplementation",
            "label": "score",
            "offset": 0,
            "slot": "0",
            "type": "t_uint256"
          },
          {
            "astId": 2880,
            "contract": "contracts/dataRegistry/DataRegistryImplementation.sol:DataRegistryImplementation",
            "label": "dlpId",
            "offset": 0,
            "slot": "1",
            "type": "t_uint256"
          },
          {
            "astId": 2882,
            "contract": "contracts/dataRegistry/DataRegistryImplementation.sol:DataRegistryImplementation",
            "label": "metadata",
            "offset": 0,
            "slot": "2",
            "type": "t_string_storage"
          },
          {
            "astId": 2884,
            "contract": "contracts/dataRegistry/DataRegistryImplementation.sol:DataRegistryImplementation",
            "label": "proofUrl",
            "offset": 0,
            "slot": "3",
            "type": "t_string_storage"
          },
          {
            "astId": 2886,
            "contract": "contracts/dataRegistry/DataRegistryImplementation.sol:DataRegistryImplementation",
            "label": "instruction",
            "offset": 0,
            "slot": "4",
            "type": "t_string_storage"
          }
        ],
        "numberOfBytes": "160"
      },
      "t_uint256": {
        "encoding": "inplace",
        "label": "uint256",
        "numberOfBytes": "32"
      }
    }
  }
}