{
  "address": "0xB7FC3792d1CfE8376eEd42582110EeD707Fc19e3",
  "abi": [
    {
      "inputs": [],
      "stateMutability": "nonpayable",
      "type": "constructor"
    },
    {
      "inputs": [],
      "name": "AccessControlBadConfirmation",
      "type": "error"
    },
    {
      "inputs": [
        {
          "internalType": "address",
          "name": "account",
          "type": "address"
        },
        {
          "internalType": "bytes32",
          "name": "neededRole",
          "type": "bytes32"
        }
      ],
      "name": "AccessControlUnauthorizedAccount",
      "type": "error"
    },
    {
      "inputs": [
        {
          "internalType": "address",
          "name": "target",
          "type": "address"
        }
      ],
      "name": "AddressEmptyCode",
      "type": "error"
    },
    {
      "inputs": [
        {
          "internalType": "address",
          "name": "account",
          "type": "address"
        }
      ],
      "name": "AddressInsufficientBalance",
      "type": "error"
    },
    {
      "inputs": [],
      "name": "EnforcedPause",
      "type": "error"
    },
    {
      "inputs": [],
      "name": "ExpectedPause",
      "type": "error"
    },
    {
      "inputs": [],
      "name": "FailedInnerCall",
      "type": "error"
    },
    {
      "inputs": [],
      "name": "InvalidInitialization",
      "type": "error"
    },
    {
      "inputs": [],
      "name": "NotInitializing",
      "type": "error"
    },
    {
      "inputs": [],
      "name": "ReentrancyGuardReentrantCall",
      "type": "error"
    },
    {
      "inputs": [
        {
          "internalType": "address",
          "name": "token",
          "type": "address"
        }
      ],
      "name": "SafeERC20FailedOperation",
      "type": "error"
    },
    {
      "anonymous": false,
      "inputs": [
        {
          "indexed": false,
          "internalType": "uint64",
          "name": "version",
          "type": "uint64"
        }
      ],
      "name": "Initialized",
      "type": "event"
    },
    {
      "anonymous": false,
      "inputs": [
        {
          "indexed": false,
          "internalType": "address",
          "name": "account",
          "type": "address"
        }
      ],
      "name": "Paused",
      "type": "event"
    },
    {
      "anonymous": false,
      "inputs": [
        {
          "indexed": true,
          "internalType": "bytes32",
          "name": "role",
          "type": "bytes32"
        },
        {
          "indexed": true,
          "internalType": "bytes32",
          "name": "previousAdminRole",
          "type": "bytes32"
        },
        {
          "indexed": true,
          "internalType": "bytes32",
          "name": "newAdminRole",
          "type": "bytes32"
        }
      ],
      "name": "RoleAdminChanged",
      "type": "event"
    },
    {
      "anonymous": false,
      "inputs": [
        {
          "indexed": true,
          "internalType": "bytes32",
          "name": "role",
          "type": "bytes32"
        },
        {
          "indexed": true,
          "internalType": "address",
          "name": "account",
          "type": "address"
        },
        {
          "indexed": true,
          "internalType": "address",
          "name": "sender",
          "type": "address"
        }
      ],
      "name": "RoleGranted",
      "type": "event"
    },
    {
      "anonymous": false,
      "inputs": [
        {
          "indexed": true,
          "internalType": "bytes32",
          "name": "role",
          "type": "bytes32"
        },
        {
          "indexed": true,
          "internalType": "address",
          "name": "account",
          "type": "address"
        },
        {
          "indexed": true,
          "internalType": "address",
          "name": "sender",
          "type": "address"
        }
      ],
      "name": "RoleRevoked",
      "type": "event"
    },
    {
      "anonymous": false,
      "inputs": [
        {
          "indexed": true,
          "internalType": "address",
          "name": "to",
          "type": "address"
        },
        {
          "indexed": true,
          "internalType": "address",
          "name": "token",
          "type": "address"
        },
        {
          "indexed": false,
          "internalType": "uint256",
          "name": "amount",
          "type": "uint256"
        }
      ],
      "name": "Transfer",
      "type": "event"
    },
    {
      "anonymous": false,
      "inputs": [
        {
          "indexed": false,
          "internalType": "address",
          "name": "account",
          "type": "address"
        }
      ],
      "name": "Unpaused",
      "type": "event"
    },
    {
      "inputs": [],
      "name": "DEFAULT_ADMIN_ROLE",
      "outputs": [
        {
          "internalType": "bytes32",
          "name": "",
          "type": "bytes32"
        }
      ],
      "stateMutability": "view",
      "type": "function"
    },
    {
      "inputs": [],
      "name": "VANA",
      "outputs": [
        {
          "internalType": "address",
          "name": "",
          "type": "address"
        }
      ],
      "stateMutability": "view",
      "type": "function"
    },
    {
      "inputs": [],
      "name": "custodian",
      "outputs": [
        {
          "internalType": "address",
          "name": "",
          "type": "address"
        }
      ],
      "stateMutability": "view",
      "type": "function"
    },
    {
      "inputs": [
        {
          "internalType": "bytes32",
          "name": "role",
          "type": "bytes32"
        }
      ],
      "name": "getRoleAdmin",
      "outputs": [
        {
          "internalType": "bytes32",
          "name": "",
          "type": "bytes32"
        }
      ],
      "stateMutability": "view",
      "type": "function"
    },
    {
      "inputs": [
        {
          "internalType": "bytes32",
          "name": "role",
          "type": "bytes32"
        },
        {
          "internalType": "address",
          "name": "account",
          "type": "address"
        }
      ],
      "name": "grantRole",
      "outputs": [],
      "stateMutability": "nonpayable",
      "type": "function"
    },
    {
      "inputs": [
        {
          "internalType": "bytes32",
          "name": "role",
          "type": "bytes32"
        },
        {
          "internalType": "address",
          "name": "account",
          "type": "address"
        }
      ],
      "name": "hasRole",
      "outputs": [
        {
          "internalType": "bool",
          "name": "",
          "type": "bool"
        }
      ],
      "stateMutability": "view",
      "type": "function"
    },
    {
      "inputs": [
        {
          "internalType": "address",
          "name": "ownerAddress",
          "type": "address"
        },
        {
          "internalType": "address",
          "name": "initCustodian",
          "type": "address"
        }
      ],
      "name": "initialize",
      "outputs": [],
      "stateMutability": "nonpayable",
      "type": "function"
    },
    {
      "inputs": [],
      "name": "pause",
      "outputs": [],
      "stateMutability": "nonpayable",
      "type": "function"
    },
    {
      "inputs": [],
      "name": "paused",
      "outputs": [
        {
          "internalType": "bool",
          "name": "",
          "type": "bool"
        }
      ],
      "stateMutability": "view",
      "type": "function"
    },
    {
      "inputs": [
        {
          "internalType": "bytes32",
          "name": "role",
          "type": "bytes32"
        },
        {
          "internalType": "address",
          "name": "callerConfirmation",
          "type": "address"
        }
      ],
      "name": "renounceRole",
      "outputs": [],
      "stateMutability": "nonpayable",
      "type": "function"
    },
    {
      "inputs": [
        {
          "internalType": "bytes32",
          "name": "role",
          "type": "bytes32"
        },
        {
          "internalType": "address",
          "name": "account",
          "type": "address"
        }
      ],
      "name": "revokeRole",
      "outputs": [],
      "stateMutability": "nonpayable",
      "type": "function"
    },
    {
      "inputs": [
        {
          "internalType": "bytes4",
          "name": "interfaceId",
          "type": "bytes4"
        }
      ],
      "name": "supportsInterface",
      "outputs": [
        {
          "internalType": "bool",
          "name": "",
          "type": "bool"
        }
      ],
      "stateMutability": "view",
      "type": "function"
    },
    {
      "inputs": [
        {
          "internalType": "address",
          "name": "to",
          "type": "address"
        },
        {
          "internalType": "address",
          "name": "token",
          "type": "address"
        },
        {
          "internalType": "uint256",
          "name": "amount",
          "type": "uint256"
        }
      ],
      "name": "transfer",
      "outputs": [],
      "stateMutability": "nonpayable",
      "type": "function"
    },
    {
      "inputs": [],
      "name": "unpause",
      "outputs": [],
      "stateMutability": "nonpayable",
      "type": "function"
    },
    {
      "inputs": [
        {
          "internalType": "address",
          "name": "newCustodian",
          "type": "address"
        }
      ],
      "name": "updateCustodian",
      "outputs": [],
      "stateMutability": "nonpayable",
      "type": "function"
    },
    {
      "inputs": [],
      "name": "version",
      "outputs": [
        {
          "internalType": "uint256",
          "name": "",
          "type": "uint256"
        }
      ],
      "stateMutability": "pure",
      "type": "function"
    },
    {
      "stateMutability": "payable",
      "type": "receive"
    }
  ],
  "transactionHash": "0x57236f4208f1805de89197ecbef3c26647e481f647a0aa69fa48501fe4e2f89e",
  "args": [],
  "numDeployments": 1,
  "solcInputHash": "496783b5c86929a704f9f98453d6203b",
  "bytecode": "0x608060405234801561001057600080fd5b5061001961001e565b6100d0565b7ff0c57e16840df040f15088dc2f81fe391c3923bec73e23a9662efc9c229c6a00805468010000000000000000900460ff161561006e5760405163f92ee8a960e01b815260040160405180910390fd5b80546001600160401b03908116146100cd5780546001600160401b0319166001600160401b0390811782556040519081527fc7f505b2f371ae2175ee4913f4499e1f2633a7b5936321eed1cdaeb6115181d29060200160405180910390a15b50565b610e11806100df6000396000f3fe6080604052600436106100c75760003560e01c806301ffc9a7146100d3578063248a9ca3146101085780632f2ff15d1461013657806336568abe14610158578063375b74c3146101785780633f4ba83a146101a557806344fd3939146101ba578063485cc955146101cf578063510c82b3146101ef57806354fd4d501461020f5780635c975abb146102235780638456cb591461023857806391d148541461024d578063a217fddf1461026d578063beabacc814610282578063d547741f146102a257600080fd5b366100ce57005b600080fd5b3480156100df57600080fd5b506100f36100ee366004610c51565b6102c2565b60405190151581526020015b60405180910390f35b34801561011457600080fd5b50610128610123366004610c7b565b6102f9565b6040519081526020016100ff565b34801561014257600080fd5b50610156610151366004610cb0565b610319565b005b34801561016457600080fd5b50610156610173366004610cb0565b61033b565b34801561018457600080fd5b50600054610198906001600160a01b031681565b6040516100ff9190610cdc565b3480156101b157600080fd5b50610156610373565b3480156101c657600080fd5b50610198600081565b3480156101db57600080fd5b506101566101ea366004610cf0565b610389565b3480156101fb57600080fd5b5061015661020a366004610d1a565b6104c4565b34801561021b57600080fd5b506001610128565b34801561022f57600080fd5b506100f361050c565b34801561024457600080fd5b50610156610521565b34801561025957600080fd5b506100f3610268366004610cb0565b610534565b34801561027957600080fd5b50610128600081565b34801561028e57600080fd5b5061015661029d366004610d35565b61056a565b3480156102ae57600080fd5b506101566102bd366004610cb0565b610615565b60006001600160e01b03198216637965db0b60e01b14806102f357506301ffc9a760e01b6001600160e01b03198316145b92915050565b600080610304610631565b60009384526020525050604090206001015490565b610322826102f9565b61032b81610655565b610335838361065f565b50505050565b6001600160a01b03811633146103645760405163334bd91960e11b815260040160405180910390fd5b61036e8282610700565b505050565b600061037e81610655565b610386610778565b50565b60006103936107cf565b805490915060ff600160401b82041615906001600160401b03166000811580156103ba5750825b90506000826001600160401b031660011480156103d65750303b155b9050811580156103e4575080155b156104025760405163f92ee8a960e01b815260040160405180910390fd5b84546001600160401b0319166001178555831561042b57845460ff60401b1916600160401b1785555b6104336107f3565b61043b610805565b61044361080d565b600080546001600160a01b0319166001600160a01b038816178155610468908861065f565b5061047460008761065f565b5083156104bb57845460ff60401b19168555604051600181527fc7f505b2f371ae2175ee4913f4499e1f2633a7b5936321eed1cdaeb6115181d29060200160405180910390a15b50505050505050565b60006104cf81610655565b600080546104e691906001600160a01b0316610700565b50600080546001600160a01b0319166001600160a01b03841617815561036e908361065f565b60008061051761081d565b5460ff1692915050565b600061052c81610655565b610386610841565b60008061053f610631565b6000948552602090815260408086206001600160a01b03959095168652939052505090205460ff1690565b610572610888565b61057a6108be565b600061058581610655565b6001600160a01b0383166105ab576105a66001600160a01b038516836108e4565b6105bf565b6105bf6001600160a01b0384168584610984565b826001600160a01b0316846001600160a01b03167fddf252ad1be2c89b69c2b068fc378daa952ba7f163c4a11628f55a4df523b3ef8460405161060491815260200190565b60405180910390a35061036e6109dc565b61061e826102f9565b61062781610655565b6103358383610700565b7f02dd7bc7dec4dceedda775e58dd541e08a116c6c53815c0bd028192f7b62680090565b61038681336109ed565b60008061066a610631565b90506106768484610534565b6106f6576000848152602082815260408083206001600160a01b03871684529091529020805460ff191660011790556106ac3390565b6001600160a01b0316836001600160a01b0316857f2f8788117e7eff1d82e926ec794901d17c78024a50270940304540a733656f0d60405160405180910390a460019150506102f3565b60009150506102f3565b60008061070b610631565b90506107178484610534565b156106f6576000848152602082815260408083206001600160a01b0387168085529252808320805460ff1916905551339287917ff6391f5c32d9c69d2a47ea670b442974b53935d1edc7fd64eb21e047a839171b9190a460019150506102f3565b610780610a1c565b600061078a61081d565b805460ff1916815590507f5db9ee0a495bf2e6ff9c91a7834c1ba4fdd244a5e8aa4e537bd38aeae4b073aa335b6040516107c49190610cdc565b60405180910390a150565b7ff0c57e16840df040f15088dc2f81fe391c3923bec73e23a9662efc9c229c6a0090565b6107fb610a41565b610803610a66565b565b610803610a41565b610815610a41565b610803610a83565b7fcd5ed15c6e187e77e9aee88184c21f4f2182ab5827cb3b7e07fbedcd63f0330090565b6108496108be565b600061085361081d565b805460ff1916600117815590507f62e78cea01bee320cd4e420270b5ea74000d11b0c9f74754ebdbfc544b05a2586107b73390565b6000610892610a8b565b8054909150600119016108b857604051633ee5aeb560e01b815260040160405180910390fd5b60029055565b6108c661050c565b156108035760405163d93c066560e01b815260040160405180910390fd5b80471015610910573060405163cd78605960e01b81526004016109079190610cdc565b60405180910390fd5b6000826001600160a01b03168260405160006040518083038185875af1925050503d806000811461095d576040519150601f19603f3d011682016040523d82523d6000602084013e610962565b606091505b505090508061036e57604051630a12f52160e11b815260040160405180910390fd5b61036e83846001600160a01b031663a9059cbb85856040516024016109aa929190610d71565b604051602081830303815290604052915060e01b6020820180516001600160e01b038381831617835250505050610aaf565b60006109e6610a8b565b6001905550565b6109f78282610534565b610a1857808260405163e2517d3f60e01b8152600401610907929190610d71565b5050565b610a2461050c565b61080357604051638dfc202b60e01b815260040160405180910390fd5b610a49610b09565b61080357604051631afcd79f60e31b815260040160405180910390fd5b610a6e610a41565b6000610a7861081d565b805460ff1916905550565b6109dc610a41565b7f9b779b17422d0df92223018b32b4d1fa46e071723d6817e2486d003becc55f0090565b6000610ac46001600160a01b03841683610b23565b90508051600014158015610ae9575080806020019051810190610ae79190610d8a565b155b1561036e5782604051635274afe760e01b81526004016109079190610cdc565b6000610b136107cf565b54600160401b900460ff16919050565b6060610b3183836000610b38565b9392505050565b606081471015610b5d573060405163cd78605960e01b81526004016109079190610cdc565b600080856001600160a01b03168486604051610b799190610dac565b60006040518083038185875af1925050503d8060008114610bb6576040519150601f19603f3d011682016040523d82523d6000602084013e610bbb565b606091505b5091509150610bcb868383610bd5565b9695505050505050565b606082610bea57610be582610c28565b610b31565b8151158015610c0157506001600160a01b0384163b155b15610c215783604051639996b31560e01b81526004016109079190610cdc565b5080610b31565b805115610c385780518082602001fd5b604051630a12f52160e11b815260040160405180910390fd5b600060208284031215610c6357600080fd5b81356001600160e01b031981168114610b3157600080fd5b600060208284031215610c8d57600080fd5b5035919050565b80356001600160a01b0381168114610cab57600080fd5b919050565b60008060408385031215610cc357600080fd5b82359150610cd360208401610c94565b90509250929050565b6001600160a01b0391909116815260200190565b60008060408385031215610d0357600080fd5b610d0c83610c94565b9150610cd360208401610c94565b600060208284031215610d2c57600080fd5b610b3182610c94565b600080600060608486031215610d4a57600080fd5b610d5384610c94565b9250610d6160208501610c94565b9150604084013590509250925092565b6001600160a01b03929092168252602082015260400190565b600060208284031215610d9c57600080fd5b81518015158114610b3157600080fd5b6000825160005b81811015610dcd5760208186018101518583015201610db3565b50600092019182525091905056fea2646970667358221220e1d88f5031f1e2cd519c327a8aea3391c980a8256414c30b4812b4c2ba72f49a64736f6c63430008180033",
  "devdoc": {
    "errors": {
      "AccessControlBadConfirmation()": [
        {
          "details": "The caller of a function is not the expected one. NOTE: Don't confuse with {AccessControlUnauthorizedAccount}."
        }
      ],
      "AccessControlUnauthorizedAccount(address,bytes32)": [
        {
          "details": "The `account` is missing a role."
        }
      ],
      "AddressEmptyCode(address)": [
        {
          "details": "There's no code at `target` (it is not a contract)."
        }
      ],
      "AddressInsufficientBalance(address)": [
        {
          "details": "The ETH balance of the account is not enough to perform the operation."
        }
      ],
      "EnforcedPause()": [
        {
          "details": "The operation failed because the contract is paused."
        }
      ],
      "ExpectedPause()": [
        {
          "details": "The operation failed because the contract is not paused."
        }
      ],
      "FailedInnerCall()": [
        {
          "details": "A call to an address target failed. The target may have reverted."
        }
      ],
      "InvalidInitialization()": [
        {
          "details": "The contract is already initialized."
        }
      ],
      "NotInitializing()": [
        {
          "details": "The contract is not initializing."
        }
      ],
      "ReentrancyGuardReentrantCall()": [
        {
          "details": "Unauthorized reentrant call."
        }
      ],
      "SafeERC20FailedOperation(address)": [
        {
          "details": "An operation with an ERC20 token failed."
        }
      ]
    },
    "events": {
      "Initialized(uint64)": {
        "details": "Triggered when the contract has been initialized or reinitialized."
      },
      "Paused(address)": {
        "details": "Emitted when the pause is triggered by `account`."
      },
      "RoleAdminChanged(bytes32,bytes32,bytes32)": {
        "details": "Emitted when `newAdminRole` is set as ``role``'s admin role, replacing `previousAdminRole` `DEFAULT_ADMIN_ROLE` is the starting admin for all roles, despite {RoleAdminChanged} not being emitted signaling this."
      },
      "RoleGranted(bytes32,address,address)": {
        "details": "Emitted when `account` is granted `role`. `sender` is the account that originated the contract call, an admin role bearer except when using {AccessControl-_setupRole}."
      },
      "RoleRevoked(bytes32,address,address)": {
        "details": "Emitted when `account` is revoked `role`. `sender` is the account that originated the contract call:   - if using `revokeRole`, it is the admin role bearer   - if using `renounceRole`, it is the role bearer (i.e. `account`)"
      },
      "Unpaused(address)": {
        "details": "Emitted when the pause is lifted by `account`."
      }
    },
    "kind": "dev",
    "methods": {
      "constructor": {
        "custom:oz-upgrades-unsafe-allow": "constructor"
      },
      "getRoleAdmin(bytes32)": {
        "details": "Returns the admin role that controls `role`. See {grantRole} and {revokeRole}. To change a role's admin, use {_setRoleAdmin}."
      },
      "grantRole(bytes32,address)": {
        "details": "Grants `role` to `account`. If `account` had not been already granted `role`, emits a {RoleGranted} event. Requirements: - the caller must have ``role``'s admin role. May emit a {RoleGranted} event."
      },
      "hasRole(bytes32,address)": {
        "details": "Returns `true` if `account` has been granted `role`."
      },
      "initialize(address,address)": {
        "params": {
          "ownerAddress": "Address of the owner"
        }
      },
      "paused()": {
        "details": "Returns true if the contract is paused, and false otherwise."
      },
      "renounceRole(bytes32,address)": {
        "details": "Revokes `role` from the calling account. Roles are often managed via {grantRole} and {revokeRole}: this function's purpose is to provide a mechanism for accounts to lose their privileges if they are compromised (such as when a trusted device is misplaced). If the calling account had been revoked `role`, emits a {RoleRevoked} event. Requirements: - the caller must be `callerConfirmation`. May emit a {RoleRevoked} event."
      },
      "revokeRole(bytes32,address)": {
        "details": "Revokes `role` from `account`. If `account` had been granted `role`, emits a {RoleRevoked} event. Requirements: - the caller must have ``role``'s admin role. May emit a {RoleRevoked} event."
      },
      "supportsInterface(bytes4)": {
        "details": "See {IERC165-supportsInterface}."
      },
      "transfer(address,address,uint256)": {
        "params": {
          "amount": "The amount of tokens to transfer",
          "to": "The address to transfer the token to",
          "token": "The token to transfer"
        }
      },
      "version()": {
        "returns": {
          "_0": "The version of the contract"
        }
      }
    },
    "version": 1
  },
  "userdoc": {
    "kind": "user",
    "methods": {
      "initialize(address,address)": {
        "notice": "Initializes the contract"
      },
      "pause()": {
        "notice": "Pauses the contract"
      },
      "transfer(address,address,uint256)": {
        "notice": "Transfers a token to the given address"
      },
      "unpause()": {
        "notice": "Unpauses the contract"
      },
      "version()": {
        "notice": "Returns the version of the contract"
      }
    },
    "version": 1
  },
  "storageLayout": {
    "storage": [
      {
        "astId": 16056,
        "contract": "contracts/dataAccessTreasury/DataAccessTreasuryImplementation.sol:DataAccessTreasuryImplementation",
        "label": "custodian",
        "offset": 0,
        "slot": "0",
        "type": "t_address"
      }
    ],
    "types": {
      "t_address": {
        "encoding": "inplace",
        "label": "address",
        "numberOfBytes": "20"
      }
    }
  }
}