{
  "address": "0x065813b8DC9E81324652e333E1Bb9BE29131613b",
  "abi": [
    {
      "inputs": [],
      "stateMutability": "nonpayable",
      "type": "constructor"
    },
    {
      "inputs": [],
      "name": "AccessControlBadConfirmation",
      "type": "error"
    },
    {
      "inputs": [
        {
          "internalType": "address",
          "name": "account",
          "type": "address"
        },
        {
          "internalType": "bytes32",
          "name": "neededRole",
          "type": "bytes32"
        }
      ],
      "name": "AccessControlUnauthorizedAccount",
      "type": "error"
    },
    {
      "inputs": [
        {
          "internalType": "address",
          "name": "target",
          "type": "address"
        }
      ],
      "name": "AddressEmptyCode",
      "type": "error"
    },
    {
      "inputs": [],
      "name": "DlpAddressCannotBeChanged",
      "type": "error"
    },
    {
      "inputs": [],
      "name": "DlpLpTokenIdNotSet",
      "type": "error"
    },
    {
      "inputs": [],
      "name": "DlpTokenNotSet",
      "type": "error"
    },
    {
      "inputs": [
        {
          "internalType": "address",
          "name": "implementation",
          "type": "address"
        }
      ],
      "name": "ERC1967InvalidImplementation",
      "type": "error"
    },
    {
      "inputs": [],
      "name": "ERC1967NonPayable",
      "type": "error"
    },
    {
      "inputs": [],
      "name": "EnforcedPause",
      "type": "error"
    },
    {
      "inputs": [],
      "name": "ExpectedPause",
      "type": "error"
    },
    {
      "inputs": [],
      "name": "FailedInnerCall",
      "type": "error"
    },
    {
      "inputs": [],
      "name": "InvalidAddress",
      "type": "error"
    },
    {
      "inputs": [],
      "name": "InvalidDepositAmount",
      "type": "error"
    },
    {
      "inputs": [],
      "name": "InvalidDlpStatus",
      "type": "error"
    },
    {
      "inputs": [],
      "name": "InvalidDlpVerification",
      "type": "error"
    },
    {
      "inputs": [],
      "name": "InvalidInitialization",
      "type": "error"
    },
    {
      "inputs": [],
      "name": "InvalidLpTokenId",
      "type": "error"
    },
    {
      "inputs": [],
      "name": "InvalidName",
      "type": "error"
    },
    {
      "inputs": [],
      "name": "InvalidTokenAddress",
      "type": "error"
    },
    {
      "inputs": [],
      "name": "LastEpochMustBeFinalized",
      "type": "error"
    },
    {
      "inputs": [],
      "name": "NotDlpOwner",
      "type": "error"
    },
    {
      "inputs": [],
      "name": "NotInitializing",
      "type": "error"
    },
    {
      "inputs": [],
      "name": "ReentrancyGuardReentrantCall",
      "type": "error"
    },
    {
      "inputs": [],
      "name": "TransferFailed",
      "type": "error"
    },
    {
      "inputs": [],
      "name": "UUPSUnauthorizedCallContext",
      "type": "error"
    },
    {
      "inputs": [
        {
          "internalType": "bytes32",
          "name": "slot",
          "type": "bytes32"
        }
      ],
      "name": "UUPSUnsupportedProxiableUUID",
      "type": "error"
    },
    {
      "anonymous": false,
      "inputs": [
        {
          "indexed": true,
          "internalType": "uint256",
          "name": "dlpId",
          "type": "uint256"
        },
        {
          "indexed": false,
          "internalType": "uint256",
          "name": "lpTokenId",
          "type": "uint256"
        }
      ],
      "name": "DlpLpTokenIdUpdated",
      "type": "event"
    },
    {
      "anonymous": false,
      "inputs": [
        {
          "indexed": true,
          "internalType": "uint256",
          "name": "dlpId",
          "type": "uint256"
        },
        {
          "indexed": true,
          "internalType": "address",
          "name": "dlpAddress",
          "type": "address"
        },
        {
          "indexed": false,
          "internalType": "address",
          "name": "ownerAddress",
          "type": "address"
        },
        {
          "indexed": false,
          "internalType": "address",
          "name": "treasuryAddress",
          "type": "address"
        },
        {
          "indexed": false,
          "internalType": "string",
          "name": "name",
          "type": "string"
        },
        {
          "indexed": false,
          "internalType": "string",
          "name": "iconUrl",
          "type": "string"
        },
        {
          "indexed": false,
          "internalType": "string",
          "name": "website",
          "type": "string"
        },
        {
          "indexed": false,
          "internalType": "string",
          "name": "metadata",
          "type": "string"
        }
      ],
      "name": "DlpRegistered",
      "type": "event"
    },
    {
      "anonymous": false,
      "inputs": [
        {
          "indexed": false,
          "internalType": "uint256",
          "name": "newDlpRegistrationDepositAmount",
          "type": "uint256"
        }
      ],
      "name": "DlpRegistrationDepositAmountUpdated",
      "type": "event"
    },
    {
      "anonymous": false,
      "inputs": [
        {
          "indexed": true,
          "internalType": "uint256",
          "name": "dlpId",
          "type": "uint256"
        },
        {
          "indexed": false,
          "internalType": "enum IDLPRegistry.DlpStatus",
          "name": "newStatus",
          "type": "uint8"
        }
      ],
      "name": "DlpStatusUpdated",
      "type": "event"
    },
    {
      "anonymous": false,
      "inputs": [
        {
          "indexed": true,
          "internalType": "uint256",
          "name": "dlpId",
          "type": "uint256"
        },
        {
          "indexed": false,
          "internalType": "address",
          "name": "tokenAddress",
          "type": "address"
        }
      ],
      "name": "DlpTokenUpdated",
      "type": "event"
    },
    {
      "anonymous": false,
      "inputs": [
        {
          "indexed": true,
          "internalType": "uint256",
          "name": "dlpId",
          "type": "uint256"
        },
        {
          "indexed": true,
          "internalType": "address",
          "name": "dlpAddress",
          "type": "address"
        },
        {
          "indexed": false,
          "internalType": "address",
          "name": "ownerAddress",
          "type": "address"
        },
        {
          "indexed": false,
          "internalType": "address",
          "name": "treasuryAddress",
          "type": "address"
        },
        {
          "indexed": false,
          "internalType": "string",
          "name": "name",
          "type": "string"
        },
        {
          "indexed": false,
          "internalType": "string",
          "name": "iconUrl",
          "type": "string"
        },
        {
          "indexed": false,
          "internalType": "string",
          "name": "website",
          "type": "string"
        },
        {
          "indexed": false,
          "internalType": "string",
          "name": "metadata",
          "type": "string"
        }
      ],
      "name": "DlpUpdated",
      "type": "event"
    },
    {
      "anonymous": false,
      "inputs": [
        {
          "indexed": true,
          "internalType": "uint256",
          "name": "dlpId",
          "type": "uint256"
        },
        {
          "indexed": false,
          "internalType": "bool",
          "name": "verified",
          "type": "bool"
        }
      ],
      "name": "DlpVerificationUpdated",
      "type": "event"
    },
    {
      "anonymous": false,
      "inputs": [
        {
          "indexed": false,
          "internalType": "uint64",
          "name": "version",
          "type": "uint64"
        }
      ],
      "name": "Initialized",
      "type": "event"
    },
    {
      "anonymous": false,
      "inputs": [
        {
          "indexed": false,
          "internalType": "address",
          "name": "account",
          "type": "address"
        }
      ],
      "name": "Paused",
      "type": "event"
    },
    {
      "anonymous": false,
      "inputs": [
        {
          "indexed": true,
          "internalType": "bytes32",
          "name": "role",
          "type": "bytes32"
        },
        {
          "indexed": true,
          "internalType": "bytes32",
          "name": "previousAdminRole",
          "type": "bytes32"
        },
        {
          "indexed": true,
          "internalType": "bytes32",
          "name": "newAdminRole",
          "type": "bytes32"
        }
      ],
      "name": "RoleAdminChanged",
      "type": "event"
    },
    {
      "anonymous": false,
      "inputs": [
        {
          "indexed": true,
          "internalType": "bytes32",
          "name": "role",
          "type": "bytes32"
        },
        {
          "indexed": true,
          "internalType": "address",
          "name": "account",
          "type": "address"
        },
        {
          "indexed": true,
          "internalType": "address",
          "name": "sender",
          "type": "address"
        }
      ],
      "name": "RoleGranted",
      "type": "event"
    },
    {
      "anonymous": false,
      "inputs": [
        {
          "indexed": true,
          "internalType": "bytes32",
          "name": "role",
          "type": "bytes32"
        },
        {
          "indexed": true,
          "internalType": "address",
          "name": "account",
          "type": "address"
        },
        {
          "indexed": true,
          "internalType": "address",
          "name": "sender",
          "type": "address"
        }
      ],
      "name": "RoleRevoked",
      "type": "event"
    },
    {
      "anonymous": false,
      "inputs": [
        {
          "indexed": false,
          "internalType": "address",
          "name": "account",
          "type": "address"
        }
      ],
      "name": "Unpaused",
      "type": "event"
    },
    {
      "anonymous": false,
      "inputs": [
        {
          "indexed": true,
          "internalType": "address",
          "name": "implementation",
          "type": "address"
        }
      ],
      "name": "Upgraded",
      "type": "event"
    },
    {
      "inputs": [],
      "name": "DEFAULT_ADMIN_ROLE",
      "outputs": [
        {
          "internalType": "bytes32",
          "name": "",
          "type": "bytes32"
        }
      ],
      "stateMutability": "view",
      "type": "function"
    },
    {
      "inputs": [],
      "name": "MAINTAINER_ROLE",
      "outputs": [
        {
          "internalType": "bytes32",
          "name": "",
          "type": "bytes32"
        }
      ],
      "stateMutability": "view",
      "type": "function"
    },
    {
      "inputs": [],
      "name": "UPGRADE_INTERFACE_VERSION",
      "outputs": [
        {
          "internalType": "string",
          "name": "",
          "type": "string"
        }
      ],
      "stateMutability": "view",
      "type": "function"
    },
    {
      "inputs": [
        {
          "internalType": "uint256",
          "name": "dlpId",
          "type": "uint256"
        }
      ],
      "name": "deregisterDlp",
      "outputs": [],
      "stateMutability": "nonpayable",
      "type": "function"
    },
    {
      "inputs": [
        {
          "internalType": "address",
          "name": "dlpAddress",
          "type": "address"
        }
      ],
      "name": "dlpIds",
      "outputs": [
        {
          "internalType": "uint256",
          "name": "dlpId",
          "type": "uint256"
        }
      ],
      "stateMutability": "view",
      "type": "function"
    },
    {
      "inputs": [
        {
          "internalType": "string",
          "name": "dlpName",
          "type": "string"
        }
      ],
      "name": "dlpNameToId",
      "outputs": [
        {
          "internalType": "uint256",
          "name": "dlpId",
          "type": "uint256"
        }
      ],
      "stateMutability": "view",
      "type": "function"
    },
    {
      "inputs": [],
      "name": "dlpRegistrationDepositAmount",
      "outputs": [
        {
          "internalType": "uint256",
          "name": "",
          "type": "uint256"
        }
      ],
      "stateMutability": "view",
      "type": "function"
    },
    {
      "inputs": [
        {
          "internalType": "uint256",
          "name": "dlpId",
          "type": "uint256"
        }
      ],
      "name": "dlps",
      "outputs": [
        {
          "components": [
            {
              "internalType": "uint256",
              "name": "id",
              "type": "uint256"
            },
            {
              "internalType": "address",
              "name": "dlpAddress",
              "type": "address"
            },
            {
              "internalType": "address",
              "name": "ownerAddress",
              "type": "address"
            },
            {
              "internalType": "address",
              "name": "tokenAddress",
              "type": "address"
            },
            {
              "internalType": "address",
              "name": "treasuryAddress",
              "type": "address"
            },
            {
              "internalType": "string",
              "name": "name",
              "type": "string"
            },
            {
              "internalType": "string",
              "name": "iconUrl",
              "type": "string"
            },
            {
              "internalType": "string",
              "name": "website",
              "type": "string"
            },
            {
              "internalType": "string",
              "name": "metadata",
              "type": "string"
            },
            {
              "internalType": "uint256",
              "name": "registrationBlockNumber",
              "type": "uint256"
            },
            {
              "internalType": "uint256",
              "name": "depositAmount",
              "type": "uint256"
            },
            {
              "internalType": "enum IDLPRegistry.DlpStatus",
              "name": "status",
              "type": "uint8"
            },
            {
              "internalType": "uint256",
              "name": "lpTokenId",
              "type": "uint256"
            },
            {
              "internalType": "bool",
              "name": "isVerified",
              "type": "bool"
            }
          ],
          "internalType": "struct IDLPRegistry.DlpInfo",
          "name": "",
          "type": "tuple"
        }
      ],
      "stateMutability": "view",
      "type": "function"
    },
    {
      "inputs": [
        {
          "internalType": "address",
          "name": "dlpAddress",
          "type": "address"
        }
      ],
      "name": "dlpsByAddress",
      "outputs": [
        {
          "components": [
            {
              "internalType": "uint256",
              "name": "id",
              "type": "uint256"
            },
            {
              "internalType": "address",
              "name": "dlpAddress",
              "type": "address"
            },
            {
              "internalType": "address",
              "name": "ownerAddress",
              "type": "address"
            },
            {
              "internalType": "address",
              "name": "tokenAddress",
              "type": "address"
            },
            {
              "internalType": "address",
              "name": "treasuryAddress",
              "type": "address"
            },
            {
              "internalType": "string",
              "name": "name",
              "type": "string"
            },
            {
              "internalType": "string",
              "name": "iconUrl",
              "type": "string"
            },
            {
              "internalType": "string",
              "name": "website",
              "type": "string"
            },
            {
              "internalType": "string",
              "name": "metadata",
              "type": "string"
            },
            {
              "internalType": "uint256",
              "name": "registrationBlockNumber",
              "type": "uint256"
            },
            {
              "internalType": "uint256",
              "name": "depositAmount",
              "type": "uint256"
            },
            {
              "internalType": "enum IDLPRegistry.DlpStatus",
              "name": "status",
              "type": "uint8"
            },
            {
              "internalType": "uint256",
              "name": "lpTokenId",
              "type": "uint256"
            },
            {
              "internalType": "bool",
              "name": "isVerified",
              "type": "bool"
            }
          ],
          "internalType": "struct IDLPRegistry.DlpInfo",
          "name": "",
          "type": "tuple"
        }
      ],
      "stateMutability": "view",
      "type": "function"
    },
    {
      "inputs": [
        {
          "internalType": "string",
          "name": "dlpName",
          "type": "string"
        }
      ],
      "name": "dlpsByName",
      "outputs": [
        {
          "components": [
            {
              "internalType": "uint256",
              "name": "id",
              "type": "uint256"
            },
            {
              "internalType": "address",
              "name": "dlpAddress",
              "type": "address"
            },
            {
              "internalType": "address",
              "name": "ownerAddress",
              "type": "address"
            },
            {
              "internalType": "address",
              "name": "tokenAddress",
              "type": "address"
            },
            {
              "internalType": "address",
              "name": "treasuryAddress",
              "type": "address"
            },
            {
              "internalType": "string",
              "name": "name",
              "type": "string"
            },
            {
              "internalType": "string",
              "name": "iconUrl",
              "type": "string"
            },
            {
              "internalType": "string",
              "name": "website",
              "type": "string"
            },
            {
              "internalType": "string",
              "name": "metadata",
              "type": "string"
            },
            {
              "internalType": "uint256",
              "name": "registrationBlockNumber",
              "type": "uint256"
            },
            {
              "internalType": "uint256",
              "name": "depositAmount",
              "type": "uint256"
            },
            {
              "internalType": "enum IDLPRegistry.DlpStatus",
              "name": "status",
              "type": "uint8"
            },
            {
              "internalType": "uint256",
              "name": "lpTokenId",
              "type": "uint256"
            },
            {
              "internalType": "bool",
              "name": "isVerified",
              "type": "bool"
            }
          ],
          "internalType": "struct IDLPRegistry.DlpInfo",
          "name": "",
          "type": "tuple"
        }
      ],
      "stateMutability": "view",
      "type": "function"
    },
    {
      "inputs": [],
      "name": "dlpsCount",
      "outputs": [
        {
          "internalType": "uint256",
          "name": "",
          "type": "uint256"
        }
      ],
      "stateMutability": "view",
      "type": "function"
    },
    {
      "inputs": [
        {
          "internalType": "uint256",
          "name": "index",
          "type": "uint256"
        }
      ],
      "name": "eligibleDlpsListAt",
      "outputs": [
        {
          "internalType": "uint256",
          "name": "",
          "type": "uint256"
        }
      ],
      "stateMutability": "view",
      "type": "function"
    },
    {
      "inputs": [],
      "name": "eligibleDlpsListCount",
      "outputs": [
        {
          "internalType": "uint256",
          "name": "",
          "type": "uint256"
        }
      ],
      "stateMutability": "view",
      "type": "function"
    },
    {
      "inputs": [],
      "name": "eligibleDlpsListValues",
      "outputs": [
        {
          "internalType": "uint256[]",
          "name": "",
          "type": "uint256[]"
        }
      ],
      "stateMutability": "view",
      "type": "function"
    },
    {
      "inputs": [
        {
          "internalType": "bytes32",
          "name": "role",
          "type": "bytes32"
        }
      ],
      "name": "getRoleAdmin",
      "outputs": [
        {
          "internalType": "bytes32",
          "name": "",
          "type": "bytes32"
        }
      ],
      "stateMutability": "view",
      "type": "function"
    },
    {
      "inputs": [
        {
          "internalType": "bytes32",
          "name": "role",
          "type": "bytes32"
        },
        {
          "internalType": "address",
          "name": "account",
          "type": "address"
        }
      ],
      "name": "grantRole",
      "outputs": [],
      "stateMutability": "nonpayable",
      "type": "function"
    },
    {
      "inputs": [
        {
          "internalType": "bytes32",
          "name": "role",
          "type": "bytes32"
        },
        {
          "internalType": "address",
          "name": "account",
          "type": "address"
        }
      ],
      "name": "hasRole",
      "outputs": [
        {
          "internalType": "bool",
          "name": "",
          "type": "bool"
        }
      ],
      "stateMutability": "view",
      "type": "function"
    },
    {
      "inputs": [
        {
          "internalType": "address",
          "name": "ownerAddress",
          "type": "address"
        }
      ],
      "name": "initialize",
      "outputs": [],
      "stateMutability": "nonpayable",
      "type": "function"
    },
    {
      "inputs": [
        {
          "internalType": "address",
          "name": "dlpRootCoreAddress",
          "type": "address"
        },
        {
          "internalType": "uint256",
          "name": "startDlpId",
          "type": "uint256"
        },
        {
          "internalType": "uint256",
          "name": "endDlpId",
          "type": "uint256"
        }
      ],
      "name": "migrateDlpData",
      "outputs": [],
      "stateMutability": "nonpayable",
      "type": "function"
    },
    {
      "inputs": [],
      "name": "pause",
      "outputs": [],
      "stateMutability": "nonpayable",
      "type": "function"
    },
    {
      "inputs": [],
      "name": "paused",
      "outputs": [
        {
          "internalType": "bool",
          "name": "",
          "type": "bool"
        }
      ],
      "stateMutability": "view",
      "type": "function"
    },
    {
      "inputs": [],
      "name": "proxiableUUID",
      "outputs": [
        {
          "internalType": "bytes32",
          "name": "",
          "type": "bytes32"
        }
      ],
      "stateMutability": "view",
      "type": "function"
    },
    {
      "inputs": [
        {
          "components": [
            {
              "internalType": "address",
              "name": "dlpAddress",
              "type": "address"
            },
            {
              "internalType": "address",
              "name": "ownerAddress",
              "type": "address"
            },
            {
              "internalType": "address payable",
              "name": "treasuryAddress",
              "type": "address"
            },
            {
              "internalType": "string",
              "name": "name",
              "type": "string"
            },
            {
              "internalType": "string",
              "name": "iconUrl",
              "type": "string"
            },
            {
              "internalType": "string",
              "name": "website",
              "type": "string"
            },
            {
              "internalType": "string",
              "name": "metadata",
              "type": "string"
            }
          ],
          "internalType": "struct IDLPRegistry.DlpRegistration",
          "name": "registrationInfo",
          "type": "tuple"
        }
      ],
      "name": "registerDlp",
      "outputs": [],
      "stateMutability": "payable",
      "type": "function"
    },
    {
      "inputs": [
        {
          "internalType": "bytes32",
          "name": "role",
          "type": "bytes32"
        },
        {
          "internalType": "address",
          "name": "callerConfirmation",
          "type": "address"
        }
      ],
      "name": "renounceRole",
      "outputs": [],
      "stateMutability": "nonpayable",
      "type": "function"
    },
    {
      "inputs": [
        {
          "internalType": "bytes32",
          "name": "role",
          "type": "bytes32"
        },
        {
          "internalType": "address",
          "name": "account",
          "type": "address"
        }
      ],
      "name": "revokeRole",
      "outputs": [],
      "stateMutability": "nonpayable",
      "type": "function"
    },
    {
      "inputs": [
        {
          "internalType": "bytes4",
          "name": "interfaceId",
          "type": "bytes4"
        }
      ],
      "name": "supportsInterface",
      "outputs": [
        {
          "internalType": "bool",
          "name": "",
          "type": "bool"
        }
      ],
      "stateMutability": "view",
      "type": "function"
    },
    {
      "inputs": [],
      "name": "treasury",
      "outputs": [
        {
          "internalType": "contract ITreasury",
          "name": "",
          "type": "address"
        }
      ],
      "stateMutability": "view",
      "type": "function"
    },
    {
      "inputs": [],
      "name": "unpause",
      "outputs": [],
      "stateMutability": "nonpayable",
      "type": "function"
    },
    {
      "inputs": [
        {
          "internalType": "uint256",
          "name": "dlpId",
          "type": "uint256"
        },
        {
          "components": [
            {
              "internalType": "address",
              "name": "dlpAddress",
              "type": "address"
            },
            {
              "internalType": "address",
              "name": "ownerAddress",
              "type": "address"
            },
            {
              "internalType": "address payable",
              "name": "treasuryAddress",
              "type": "address"
            },
            {
              "internalType": "string",
              "name": "name",
              "type": "string"
            },
            {
              "internalType": "string",
              "name": "iconUrl",
              "type": "string"
            },
            {
              "internalType": "string",
              "name": "website",
              "type": "string"
            },
            {
              "internalType": "string",
              "name": "metadata",
              "type": "string"
            }
          ],
          "internalType": "struct IDLPRegistry.DlpRegistration",
          "name": "dlpUpdateInfo",
          "type": "tuple"
        }
      ],
      "name": "updateDlp",
      "outputs": [],
      "stateMutability": "nonpayable",
      "type": "function"
    },
    {
      "inputs": [
        {
          "internalType": "uint256",
          "name": "newDlpRegistrationDepositAmount",
          "type": "uint256"
        }
      ],
      "name": "updateDlpRegistrationDepositAmount",
      "outputs": [],
      "stateMutability": "nonpayable",
      "type": "function"
    },
    {
      "inputs": [
        {
          "internalType": "uint256",
          "name": "dlpId",
          "type": "uint256"
        },
        {
          "internalType": "address",
          "name": "tokenAddress",
          "type": "address"
        },
        {
          "internalType": "uint256",
          "name": "lpTokenId",
          "type": "uint256"
        }
      ],
      "name": "updateDlpToken",
      "outputs": [],
      "stateMutability": "nonpayable",
      "type": "function"
    },
    {
      "inputs": [
        {
          "internalType": "uint256",
          "name": "dlpId",
          "type": "uint256"
        },
        {
          "internalType": "address",
          "name": "tokenAddress",
          "type": "address"
        },
        {
          "internalType": "uint256",
          "name": "lpTokenId",
          "type": "uint256"
        },
        {
          "internalType": "bool",
          "name": "isVerify",
          "type": "bool"
        }
      ],
      "name": "updateDlpTokenAndVerification",
      "outputs": [],
      "stateMutability": "nonpayable",
      "type": "function"
    },
    {
      "inputs": [
        {
          "internalType": "uint256",
          "name": "dlpId",
          "type": "uint256"
        },
        {
          "internalType": "bool",
          "name": "isVerify",
          "type": "bool"
        }
      ],
      "name": "updateDlpVerification",
      "outputs": [],
      "stateMutability": "nonpayable",
      "type": "function"
    },
    {
      "inputs": [
        {
          "internalType": "address",
          "name": "treasuryAddress",
          "type": "address"
        }
      ],
      "name": "updateTreasury",
      "outputs": [],
      "stateMutability": "nonpayable",
      "type": "function"
    },
    {
      "inputs": [
        {
          "internalType": "address",
          "name": "vanaEpochAddress",
          "type": "address"
        }
      ],
      "name": "updateVanaEpoch",
      "outputs": [],
      "stateMutability": "nonpayable",
      "type": "function"
    },
    {
      "inputs": [
        {
          "internalType": "address",
          "name": "newImplementation",
          "type": "address"
        },
        {
          "internalType": "bytes",
          "name": "data",
          "type": "bytes"
        }
      ],
      "name": "upgradeToAndCall",
      "outputs": [],
      "stateMutability": "payable",
      "type": "function"
    },
    {
      "inputs": [],
      "name": "vanaEpoch",
      "outputs": [
        {
          "internalType": "contract IVanaEpoch",
          "name": "",
          "type": "address"
        }
      ],
      "stateMutability": "view",
      "type": "function"
    },
    {
      "inputs": [],
      "name": "version",
      "outputs": [
        {
          "internalType": "uint256",
          "name": "",
          "type": "uint256"
        }
      ],
      "stateMutability": "pure",
      "type": "function"
    }
  ],
  "transactionHash": "0x58c6729a05f3fb5a366105cd74af93a17da24c0eaea844b65e081ef0b2b33b25",
  "args": [],
  "numDeployments": 5,
  "solcInputHash": "ea1c70a57263888101d7e476ad5f66ec",
  "bytecode": "0x60a06040523060805234801561001457600080fd5b5061001d610022565b6100d4565b7ff0c57e16840df040f15088dc2f81fe391c3923bec73e23a9662efc9c229c6a00805468010000000000000000900460ff16156100725760405163f92ee8a960e01b815260040160405180910390fd5b80546001600160401b03908116146100d15780546001600160401b0319166001600160401b0390811782556040519081527fc7f505b2f371ae2175ee4913f4499e1f2633a7b5936321eed1cdaeb6115181d29060200160405180910390a15b50565b6080516138546100fd60003960008181611d9301528181611dbc0152611f0201526138546000f3fe6080604052600436106101b55760003560e01c806301610230146101ba57806301ffc9a7146101f057806303a229f61461022057806311687e44146102425780632393526f14610264578063248a9ca3146102925780632963d5c5146102b25780632f2ff15d146102c857806336568abe146102e85780633f4ba83a14610308578063439b37561461031d578063467bb5451461034a5780634f1ef2861461036a57806352d1902d1461037d57806354fd4d50146103925780635c975abb146103a65780635ef04331146103bb57806361d027b3146103db57806368ed41ed146103fb5780636d3527111461041157806372eb30d61461042657806373801a8814610446578063776ddebc146104665780637f51bb1f1461049e5780638456cb59146104be57806391d14854146104d35780639d4def70146104f35780639dc6fe5a14610506578063a217fddf14610526578063ad3cb1cc1461053b578063b4fcea1d14610579578063b89ac73b14610599578063c06020b0146105b9578063c40e30b2146105e6578063c4d66de814610606578063d547741f14610626578063ea83e47b14610646578063f874225414610666575b600080fd5b3480156101c657600080fd5b506000546101da906001600160a01b031681565b6040516101e791906129fe565b60405180910390f35b3480156101fc57600080fd5b5061021061020b366004612a12565b610688565b60405190151581526020016101e7565b34801561022c57600080fd5b506102356106bf565b6040516101e79190612a3c565b34801561024e57600080fd5b5061026261025d366004612a94565b6106d0565b005b34801561027057600080fd5b5061028461027f366004612acc565b61077b565b6040519081526020016101e7565b34801561029e57600080fd5b506102846102ad366004612acc565b610788565b3480156102be57600080fd5b5061028460025481565b3480156102d457600080fd5b506102626102e3366004612ae5565b6107a8565b3480156102f457600080fd5b50610262610303366004612ae5565b6107ca565b34801561031457600080fd5b50610262610802565b34801561032957600080fd5b5061033d610338366004612b15565b610825565b6040516101e79190612bc7565b34801561035657600080fd5b50610262610365366004612b15565b61084f565b610262610378366004612dc4565b61088a565b34801561038957600080fd5b506102846108a9565b34801561039e57600080fd5b506001610284565b3480156103b257600080fd5b506102106108c6565b3480156103c757600080fd5b506102626103d6366004612e27565b6108db565b3480156103e757600080fd5b506001546101da906001600160a01b031681565b34801561040757600080fd5b5061028460035481565b34801561041d57600080fd5b50610284610b0e565b34801561043257600080fd5b50610262610441366004612e6a565b610b1a565b34801561045257600080fd5b50610262610461366004612eb4565b610bf8565b34801561047257600080fd5b50610284610481366004612ed9565b805160208183018101805160068252928201919093012091525481565b3480156104aa57600080fd5b506102626104b9366004612b15565b610c5f565b3480156104ca57600080fd5b50610262610c9a565b3480156104df57600080fd5b506102106104ee366004612ae5565b610cba565b610262610501366004612f41565b610cf0565b34801561051257600080fd5b5061033d610521366004612f75565b610d6a565b34801561053257600080fd5b50610284600081565b34801561054757600080fd5b5061056c604051806040016040528060058152602001640352e302e360dc1b81525081565b6040516101e79190612fe7565b34801561058557600080fd5b50610262610594366004612acc565b610da2565b3480156105a557600080fd5b506102626105b4366004612acc565b611022565b3480156105c557600080fd5b506102846105d4366004612b15565b60056020526000908152604090205481565b3480156105f257600080fd5b50610262610601366004612ffa565b611076565b34801561061257600080fd5b50610262610621366004612b15565b6114bd565b34801561063257600080fd5b50610262610641366004612ae5565b6115f1565b34801561065257600080fd5b5061033d610661366004612acc565b61160d565b34801561067257600080fd5b506102846000805160206137df83398151915281565b60006001600160e01b03198216637965db0b60e01b14806106b957506301ffc9a760e01b6001600160e01b03198316145b92915050565b60606106cb6007611917565b905090565b6000805160206137df8339815191526106e881611924565b600084815260046020526040908190206003810180546001600160a01b0319166001600160a01b038716179055600c81018490559051859060008051602061373f8339815191529061073b9087906129fe565b60405180910390a28460008051602061375f8339815191528460405161076391815260200190565b60405180910390a26107748161192e565b5050505050565b60006106b9600783611be8565b600080610793611bf4565b60009384526020525050604090206001015490565b6107b182610788565b6107ba81611924565b6107c48383611c18565b50505050565b6001600160a01b03811633146107f35760405163334bd91960e11b815260040160405180910390fd5b6107fd8282611cb9565b505050565b6000805160206137df83398151915261081a81611924565b610822611d31565b50565b61082d61295a565b6001600160a01b0382166000908152600560205260409020546106b99061160d565b6000805160206137df83398151915261086781611924565b50600080546001600160a01b0319166001600160a01b0392909216919091179055565b610892611d88565b61089b82611e2f565b6108a58282611e3a565b5050565b60006108b3611ef7565b5060008051602061377f83398151915290565b6000806108d1611f40565b5460ff1692915050565b6000805160206137df8339815191526108f381611924565b83835b838111610b065760405163ea83e47b60e01b8152600481018290526000906001600160a01b0384169063ea83e47b90602401600060405180830381865afa158015610945573d6000803e3d6000fd5b505050506040513d6000823e601f3d908101601f1916820160405261096d91908101906130a5565b60008381526004602081815260409283902084518155908401516001820180546001600160a01b03199081166001600160a01b03938416179091559385015160028301805486169183169190911790556060850151928201805490941692169190911790915560c08201519192509060058201906109eb90826132b7565b5060e08201516006820190610a0090826132b7565b506101008201516007820190610a1690826132b7565b506101208201516008820190610a2c90826132b7565b50600b8101805460ff1916600117905561016082015160098201556020808301516001600160a01b03166000908152600590915260409081902084905560c083015190518491600691610a7f919061336f565b90815260200160405180910390208190555081602001516001600160a01b0316836000805160206137ff833981519152846040015185606001518660c001518760e00151886101000151896101200151604051610ae19695949392919061338b565b60405180910390a3600360008154610af890613414565b9091555050506001016108f6565b505050505050565b60006106cb6007611f64565b6000805160206137df833981519152610b3281611924565b600085815260046020526040908190206003810180546001600160a01b0319166001600160a01b038816179055600c8101859055600d8101805460ff19168515151790559051869060008051602061373f83398151915290610b959088906129fe565b60405180910390a28560008051602061375f83398151915285604051610bbd91815260200190565b60405180910390a2856000805160206137bf83398151915284604051610be7911515815260200190565b60405180910390a2610b068161192e565b6000805160206137df833981519152610c1081611924565b600083815260046020908152604091829020600d8101805460ff191686151590811790915592519283529185916000805160206137bf833981519152910160405180910390a26107c48161192e565b6000805160206137df833981519152610c7781611924565b50600180546001600160a01b0319166001600160a01b0392909216919091179055565b6000805160206137df833981519152610cb281611924565b610822611f6e565b600080610cc5611bf4565b6000948552602090815260408086206001600160a01b03959095168652939052505090205460ff1690565b610cf8611fb5565b610d00611fdb565b60008054604080516376bc986960e01b815290516001600160a01b03909216926376bc98699260048084019382900301818387803b158015610d4157600080fd5b505af1158015610d55573d6000803e3d6000fd5b50505050610d6281612011565b610822612422565b610d7261295a565b610d9b60068484604051610d8792919061342d565b90815260200160405180910390205461160d565b9392505050565b610daa611fb5565b610db2611fdb565b60008181526004602052604090206002015481906001600160a01b03163314610dee57604051633387d70760e01b815260040160405180910390fd5b60008054604080516376bc986960e01b815290516001600160a01b03909216926376bc98699260048084019382900301818387803b158015610e2f57600080fd5b505af1158015610e43573d6000803e3d6000fd5b5050505060008060009054906101000a90046001600160a01b03166001600160a01b031663916e1c576040518163ffffffff1660e01b8152600401602060405180830381865afa158015610e9b573d6000803e3d6000fd5b505050506040513d601f19601f82011682018060405250810190610ebf919061343d565b9050600181118015610f4d57506000546001600160a01b031663c6b61e4c610ee8600184613456565b6040518263ffffffff1660e01b8152600401610f0691815260200190565b608060405180830381865afa158015610f23573d6000803e3d6000fd5b505050506040513d601f19601f82011682018060405250810190610f479190613469565b60600151155b15610f6b576040516319f9228360e01b815260040160405180910390fd5b600083815260046020526040812090600b82015460ff166003811115610f9357610f93612b8f565b1480610fb757506003600b82015460ff166003811115610fb557610fb5612b8f565b145b15610fd557604051636e1ed6c560e11b815260040160405180910390fd5b600b8101805460ff19166003179055610fef600785612433565b508360008051602061379f833981519152600360405161100f91906134dc565b60405180910390a2505050610822612422565b6000805160206137df83398151915261103a81611924565b60028290556040518281527fe082917d1df24c089c98cea7cf69a4e75e16c9832994eae12359ac6dc8f050cd9060200160405180910390a15050565b61107e611fb5565b611086611fdb565b60008281526004602052604090206002015482906001600160a01b031633146110c257604051633387d70760e01b815260040160405180910390fd5b60008054604080516376bc986960e01b815290516001600160a01b03909216926376bc98699260048084019382900301818387803b15801561110357600080fd5b505af1158015611117573d6000803e3d6000fd5b506000925061112f9150506040840160208501612b15565b6001600160a01b0316148061115c575060006111516060840160408501612b15565b6001600160a01b0316145b1561117a5760405163e6c4247b60e01b815260040160405180910390fd5b60008381526004602090815260409091209061119890840184612b15565b60018201546001600160a01b039081169116146111c857604051630cd0dd4360e11b815260040160405180910390fd5b6111d86040840160208501612b15565b6002820180546001600160a01b0319166001600160a01b039290921691909117905561120a6060840160408501612b15565b6004820180546001600160a01b0319166001600160a01b039290921691909117905560405161123d90600583019061355c565b6040519081900390206112536060850185613568565b60405161126192919061342d565b60405180910390201461136257600661127d6060850185613568565b60405161128b92919061342d565b90815260200160405180910390205460001415806112f057506112ee6112b46060850185613568565b8080601f01602080910402602001604051908101604052809392919081815260200183838082843760009201919091525061243f92505050565b155b1561130e5760405163430f13b360e01b815260040160405180910390fd5b6000600682600501604051611323919061355c565b908152604051908190036020019020558360066113436060860186613568565b60405161135192919061342d565b908152604051908190036020019020555b61136f6060840184613568565b600583019161137f9190836135b5565b5061138d6080840184613568565b600683019161139d9190836135b5565b506113ab60a0840184613568565b60078301916113bb9190836135b5565b506113c960c0840184613568565b60088301916113d99190836135b5565b5083600560006113ec6020870187612b15565b6001600160a01b031681526020808201929092526040016000209190915561141690840184612b15565b6001600160a01b0316847f722508f612f32b765b27ca15934c5c89806cdecd1ecd4b83631a9d12d15ddac36114516040870160208801612b15565b6114616060880160408901612b15565b61146e6060890189613568565b61147b60808b018b613568565b61148860a08d018d613568565b61149560c08f018f613568565b6040516114ab9a99989796959493929190613697565b60405180910390a350506108a5612422565b60006114c761249b565b805490915060ff600160401b82041615906001600160401b03166000811580156114ee5750825b90506000826001600160401b0316600114801561150a5750303b155b905081158015611518575080155b156115365760405163f92ee8a960e01b815260040160405180910390fd5b84546001600160401b0319166001178555831561155f57845460ff60401b1916600160401b1785555b6115676124bf565b61156f6124bf565b6115776124c7565b61157f6124d7565b61158a600087611c18565b506115a36000805160206137df83398151915287611c18565b508315610b0657845460ff60401b19168555604051600181527fc7f505b2f371ae2175ee4913f4499e1f2633a7b5936321eed1cdaeb6115181d29060200160405180910390a1505050505050565b6115fa82610788565b61160381611924565b6107c48383611cb9565b61161561295a565b60008281526004602081815260409283902083516101c0810185528154815260018201546001600160a01b039081169382019390935260028201548316948101949094526003810154821660608501529182015416608083015260058101805491929160a08301919061168790613227565b80601f01602080910402602001604051908101604052809291908181526020018280546116b390613227565b80156117005780601f106116d557610100808354040283529160200191611700565b820191906000526020600020905b8154815290600101906020018083116116e357829003601f168201915b5050505050815260200182600601805461171990613227565b80601f016020809104026020016040519081016040528092919081815260200182805461174590613227565b80156117925780601f1061176757610100808354040283529160200191611792565b820191906000526020600020905b81548152906001019060200180831161177557829003601f168201915b505050505081526020018260070180546117ab90613227565b80601f01602080910402602001604051908101604052809291908181526020018280546117d790613227565b80156118245780601f106117f957610100808354040283529160200191611824565b820191906000526020600020905b81548152906001019060200180831161180757829003601f168201915b5050505050815260200182600801805461183d90613227565b80601f016020809104026020016040519081016040528092919081815260200182805461186990613227565b80156118b65780601f1061188b576101008083540402835291602001916118b6565b820191906000526020600020905b81548152906001019060200180831161189957829003601f168201915b505050918352505060098301546020820152600a8301546040820152600b83015460609091019060ff1660038111156118f1576118f1612b8f565b8152600c8301546020820152600d9092015460ff16151560409092019190915292915050565b60606000610d9b836124e7565b6108228133612543565b60008054604080516376bc986960e01b815290516001600160a01b03909216926376bc98699260048084019382900301818387803b15801561196f57600080fd5b505af1158015611983573d6000803e3d6000fd5b50505050600b81015460ff1660008160038111156119a3576119a3612b8f565b14806119c0575060038160038111156119be576119be612b8f565b145b156119c9575050565b8060018260038111156119de576119de612b8f565b1480156119ee5750600c83015415155b8015611a06575060038301546001600160a01b031615155b8015611a165750600d83015460ff165b15611a3357508154600290611a2d9060079061257c565b50611a47565b508154600190611a4590600790612433565b505b816003811115611a5957611a59612b8f565b816003811115611a6b57611a6b612b8f565b146107fd5760008060009054906101000a90046001600160a01b03166001600160a01b031663916e1c576040518163ffffffff1660e01b8152600401602060405180830381865afa158015611ac4573d6000803e3d6000fd5b505050506040513d601f19601f82011682018060405250810190611ae8919061343d565b9050600181118015611b7657506000546001600160a01b031663c6b61e4c611b11600184613456565b6040518263ffffffff1660e01b8152600401611b2f91815260200190565b608060405180830381865afa158015611b4c573d6000803e3d6000fd5b505050506040513d601f19601f82011682018060405250810190611b709190613469565b60600151155b15611b94576040516319f9228360e01b815260040160405180910390fd5b600b8401805483919060ff19166001836003811115611bb557611bb5612b8f565b0217905550835460405160008051602061379f83398151915290611bda9085906134dc565b60405180910390a250505050565b6000610d9b8383612588565b7f02dd7bc7dec4dceedda775e58dd541e08a116c6c53815c0bd028192f7b62680090565b600080611c23611bf4565b9050611c2f8484610cba565b611caf576000848152602082815260408083206001600160a01b03871684529091529020805460ff19166001179055611c653390565b6001600160a01b0316836001600160a01b0316857f2f8788117e7eff1d82e926ec794901d17c78024a50270940304540a733656f0d60405160405180910390a460019150506106b9565b60009150506106b9565b600080611cc4611bf4565b9050611cd08484610cba565b15611caf576000848152602082815260408083206001600160a01b0387168085529252808320805460ff1916905551339287917ff6391f5c32d9c69d2a47ea670b442974b53935d1edc7fd64eb21e047a839171b9190a460019150506106b9565b611d396125b2565b6000611d43611f40565b805460ff1916815590507f5db9ee0a495bf2e6ff9c91a7834c1ba4fdd244a5e8aa4e537bd38aeae4b073aa335b604051611d7d91906129fe565b60405180910390a150565b306001600160a01b037f0000000000000000000000000000000000000000000000000000000000000000161480611e0f57507f00000000000000000000000000000000000000000000000000000000000000006001600160a01b0316611e0360008051602061377f833981519152546001600160a01b031690565b6001600160a01b031614155b15611e2d5760405163703e46dd60e11b815260040160405180910390fd5b565b60006108a581611924565b816001600160a01b03166352d1902d6040518163ffffffff1660e01b8152600401602060405180830381865afa925050508015611e94575060408051601f3d908101601f19168201909252611e919181019061343d565b60015b611ebc5781604051634c9c8ce360e01b8152600401611eb391906129fe565b60405180910390fd5b60008051602061377f8339815191528114611eed57604051632a87526960e21b815260048101829052602401611eb3565b6107fd83836125d7565b306001600160a01b037f00000000000000000000000000000000000000000000000000000000000000001614611e2d5760405163703e46dd60e11b815260040160405180910390fd5b7fcd5ed15c6e187e77e9aee88184c21f4f2182ab5827cb3b7e07fbedcd63f0330090565b60006106b9825490565b611f76611fb5565b6000611f80611f40565b805460ff1916600117815590507f62e78cea01bee320cd4e420270b5ea74000d11b0c9f74754ebdbfc544b05a258611d703390565b611fbd6108c6565b15611e2d5760405163d93c066560e01b815260040160405180910390fd5b6000611fe561262d565b80549091506001190161200b57604051633ee5aeb560e01b815260040160405180910390fd5b60029055565b60006120236040830160208401612b15565b6001600160a01b03161480612050575060006120456060830160408401612b15565b6001600160a01b0316145b1561206e5760405163e6c4247b60e01b815260040160405180910390fd5b6005600061207f6020840184612b15565b6001600160a01b03168152602081019190915260400160002054156120b757604051636e1ed6c560e11b815260040160405180910390fd5b60066120c66060830183613568565b6040516120d492919061342d565b90815260200160405180910390205460001415806120ff57506120fd6112b46060830183613568565b155b1561211d5760405163430f13b360e01b815260040160405180910390fd5b6002543410156121405760405163fe9ba5cd60e01b815260040160405180910390fd5b600060036000815461215190613414565b9182905550600081815260046020908152604090912082815591925061217990840184612b15565b6001820180546001600160a01b0319166001600160a01b03929092169190911790556121ab6040840160208501612b15565b6002820180546001600160a01b0319166001600160a01b03929092169190911790556121dd6060840160408501612b15565b6004820180546001600160a01b0319166001600160a01b039290921691909117905561220c6060840184613568565b600583019161221c9190836135b5565b5061222a6080840184613568565b600683019161223a9190836135b5565b5061224860a0840184613568565b60078301916122589190836135b5565b5061226660c0840184613568565b60088301916122769190836135b5565b5043600982015534600a820155600b8101805460ff1916600117905581600560006122a46020870187612b15565b6001600160a01b031681526020810191909152604001600020558160066122ce6060860186613568565b6040516122dc92919061342d565b90815260405160209181900382019020919091556122fc90840184612b15565b6001600160a01b0316826000805160206137ff8339815191526123256040870160208801612b15565b6123356060880160408901612b15565b6123426060890189613568565b61234f60808b018b613568565b61235c60a08d018d613568565b61236960c08f018f613568565b60405161237f9a99989796959493929190613697565b60405180910390a38160008051602061379f83398151915260016040516123a691906134dc565b60405180910390a26001546040516000916001600160a01b03169034908381818185875af1925050503d80600081146123fb576040519150601f19603f3d011682016040523d82523d6000602084013e612400565b606091505b50509050806107c4576040516312171d8360e31b815260040160405180910390fd5b600061242c61262d565b6001905550565b6000610d9b8383612651565b60008181805b82518110156124905782818151811061246057612460613712565b6020910101516001600160f81b031916600160fd1b14612488578161248481613414565b9250505b600101612445565b506003109392505050565b7ff0c57e16840df040f15088dc2f81fe391c3923bec73e23a9662efc9c229c6a0090565b611e2d61273a565b6124cf61273a565b611e2d61275f565b6124df61273a565b611e2d612767565b60608160000180548060200260200160405190810160405280929190818152602001828054801561253757602002820191906000526020600020905b815481526020019060010190808311612523575b50505050509050919050565b61254d8282610cba565b6108a55760405163e2517d3f60e01b81526001600160a01b038216600482015260248101839052604401611eb3565b6000610d9b8383612784565b600082600001828154811061259f5761259f613712565b9060005260206000200154905092915050565b6125ba6108c6565b611e2d57604051638dfc202b60e01b815260040160405180910390fd5b6125e0826127d3565b6040516001600160a01b038316907fbc7cd75a20ee27fd9adebab32041f755214dbc6bffa90cc0225b39da2e5c2d3b90600090a2805115612625576107fd828261282f565b6108a56128a5565b7f9b779b17422d0df92223018b32b4d1fa46e071723d6817e2486d003becc55f0090565b60008181526001830160205260408120548015611caf576000612675600183613456565b855490915060009061268990600190613456565b90508082146126ee5760008660000182815481106126a9576126a9613712565b90600052602060002001549050808760000184815481106126cc576126cc613712565b6000918252602080832090910192909255918252600188019052604090208390555b85548690806126ff576126ff613728565b6001900381819060005260206000200160009055905585600101600086815260200190815260200160002060009055600193505050506106b9565b6127426128c4565b611e2d57604051631afcd79f60e31b815260040160405180910390fd5b61242261273a565b61276f61273a565b6000612779611f40565b805460ff1916905550565b60008181526001830160205260408120546127cb575081546001818101845560008481526020808220909301849055845484825282860190935260409020919091556106b9565b5060006106b9565b806001600160a01b03163b6000036128005780604051634c9c8ce360e01b8152600401611eb391906129fe565b60008051602061377f83398151915280546001600160a01b0319166001600160a01b0392909216919091179055565b6060600080846001600160a01b03168460405161284c919061336f565b600060405180830381855af49150503d8060008114612887576040519150601f19603f3d011682016040523d82523d6000602084013e61288c565b606091505b509150915061289c8583836128de565b95945050505050565b3415611e2d5760405163b398979f60e01b815260040160405180910390fd5b60006128ce61249b565b54600160401b900460ff16919050565b6060826128f3576128ee82612931565b610d9b565b815115801561290a57506001600160a01b0384163b155b1561292a5783604051639996b31560e01b8152600401611eb391906129fe565b5092915050565b8051156129415780518082602001fd5b604051630a12f52160e11b815260040160405180910390fd5b604051806101c001604052806000815260200160006001600160a01b0316815260200160006001600160a01b0316815260200160006001600160a01b0316815260200160006001600160a01b03168152602001606081526020016060815260200160608152602001606081526020016000815260200160008152602001600060038111156129ea576129ea612b8f565b815260006020820181905260409091015290565b6001600160a01b0391909116815260200190565b600060208284031215612a2457600080fd5b81356001600160e01b031981168114610d9b57600080fd5b602080825282518282018190526000918401906040840190835b81811015612a74578351835260209384019390920191600101612a56565b509095945050505050565b6001600160a01b038116811461082257600080fd5b600080600060608486031215612aa957600080fd5b833592506020840135612abb81612a7f565b929592945050506040919091013590565b600060208284031215612ade57600080fd5b5035919050565b60008060408385031215612af857600080fd5b823591506020830135612b0a81612a7f565b809150509250929050565b600060208284031215612b2757600080fd5b8135610d9b81612a7f565b6001600160a01b03169052565b60005b83811015612b5a578181015183820152602001612b42565b50506000910152565b60008151808452612b7b816020860160208601612b3f565b601f01601f19169290920160200192915050565b634e487b7160e01b600052602160045260246000fd5b60048110612bc357634e487b7160e01b600052602160045260246000fd5b9052565b602081528151602082015260006020830151612be66040840182612b32565b506040830151612bf96060840182612b32565b506060830151612c0c6080840182612b32565b506080830151612c1f60a0840182612b32565b5060a08301516101c060c0840152612c3b6101e0840182612b63565b905060c0840151601f198483030160e0850152612c588282612b63565b91505060e0840151601f1984830301610100850152612c778282612b63565b915050610100840151601f1984830301610120850152612c978282612b63565b915050610120840151610140840152610140840151610160840152610160840151612cc6610180850182612ba5565b506101808401516101a08401526101a0840151612ce86101c085018215159052565b509392505050565b634e487b7160e01b600052604160045260246000fd5b6040516101c081016001600160401b0381118282101715612d2957612d29612cf0565b60405290565b604051601f8201601f191681016001600160401b0381118282101715612d5757612d57612cf0565b604052919050565b60006001600160401b03821115612d7857612d78612cf0565b50601f01601f191660200190565b6000612d99612d9484612d5f565b612d2f565b9050828152838383011115612dad57600080fd5b828260208301376000602084830101529392505050565b60008060408385031215612dd757600080fd5b8235612de281612a7f565b915060208301356001600160401b03811115612dfd57600080fd5b8301601f81018513612e0e57600080fd5b612e1d85823560208401612d86565b9150509250929050565b600080600060608486031215612e3c57600080fd5b8335612e4781612a7f565b95602085013595506040909401359392505050565b801515811461082257600080fd5b60008060008060808587031215612e8057600080fd5b843593506020850135612e9281612a7f565b9250604085013591506060850135612ea981612e5c565b939692955090935050565b60008060408385031215612ec757600080fd5b823591506020830135612b0a81612e5c565b600060208284031215612eeb57600080fd5b81356001600160401b03811115612f0157600080fd5b8201601f81018413612f1257600080fd5b612f2184823560208401612d86565b949350505050565b600060e08284031215612f3b57600080fd5b50919050565b600060208284031215612f5357600080fd5b81356001600160401b03811115612f6957600080fd5b612f2184828501612f29565b60008060208385031215612f8857600080fd5b82356001600160401b03811115612f9e57600080fd5b8301601f81018513612faf57600080fd5b80356001600160401b03811115612fc557600080fd5b856020828401011115612fd757600080fd5b6020919091019590945092505050565b602081526000610d9b6020830184612b63565b6000806040838503121561300d57600080fd5b8235915060208301356001600160401b0381111561302a57600080fd5b612e1d85828601612f29565b805161304181612a7f565b919050565b600082601f83011261305757600080fd5b8151613065612d9482612d5f565b81815284602083860101111561307a57600080fd5b612f21826020830160208701612b3f565b80516005811061304157600080fd5b805161304181612e5c565b6000602082840312156130b757600080fd5b81516001600160401b038111156130cd57600080fd5b82016101c081850312156130e057600080fd5b6130e8612d06565b815181526130f860208301613036565b602082015261310960408301613036565b604082015261311a60608301613036565b60608201526080828101519082015260a0808301519082015260c08201516001600160401b0381111561314c57600080fd5b61315886828501613046565b60c08301525060e08201516001600160401b0381111561317757600080fd5b61318386828501613046565b60e0830152506101008201516001600160401b038111156131a357600080fd5b6131af86828501613046565b610100830152506101208201516001600160401b038111156131d057600080fd5b6131dc86828501613046565b610120830152506131f0610140830161308b565b610140820152610160828101519082015261018080830151908201526132196101a0830161309a565b6101a0820152949350505050565b600181811c9082168061323b57607f821691505b602082108103612f3b57634e487b7160e01b600052602260045260246000fd5b601f8211156107fd57806000526020600020601f840160051c810160208510156132825750805b601f840160051c820191505b81811015610774576000815560010161328e565b600019600383901b1c191660019190911b1790565b81516001600160401b038111156132d0576132d0612cf0565b6132e4816132de8454613227565b8461325b565b6020601f82116001811461331257600083156133005750848201515b61330a84826132a2565b855550610774565b600084815260208120601f198516915b828110156133425787850151825560209485019460019092019101613322565b50848210156133605786840151600019600387901b60f8161c191681555b50505050600190811b01905550565b60008251613381818460208701612b3f565b9190910192915050565b6001600160a01b0387811682528616602082015260c0604082018190526000906133b790830187612b63565b82810360608401526133c98187612b63565b905082810360808401526133dd8186612b63565b905082810360a08401526133f18185612b63565b9998505050505050505050565b634e487b7160e01b600052601160045260246000fd5b600060018201613426576134266133fe565b5060010190565b8183823760009101908152919050565b60006020828403121561344f57600080fd5b5051919050565b818103818111156106b9576106b96133fe565b6000608082840312801561347c57600080fd5b50604051600090608081016001600160401b03811182821017156134a2576134a2612cf0565b604090815284518252602080860151908301528481015190820152606084015191506134cd82612e5c565b60608101919091529392505050565b602081016106b98284612ba5565b600081546134f781613227565b60018216801561350e576001811461352357613553565b60ff1983168652811515820286019350613553565b84600052602060002060005b8381101561354b5781548882015260019091019060200161352f565b505081860193505b50505092915050565b6000610d9b82846134ea565b6000808335601e1984360301811261357f57600080fd5b8301803591506001600160401b0382111561359957600080fd5b6020019150368190038213156135ae57600080fd5b9250929050565b6001600160401b038311156135cc576135cc612cf0565b6135e0836135da8354613227565b8361325b565b6000601f84116001811461360e57600085156135fc5750838201355b61360686826132a2565b845550610774565b600083815260209020601f19861690835b8281101561363f578685013582556020948501946001909201910161361f565b508682101561365c5760001960f88860031b161c19848701351681555b505060018560011b0183555050505050565b81835281816020850137506000828201602090810191909152601f909101601f19169091010190565b6001600160a01b038b811682528a16602082015260c0604082018190526000906136c49083018a8c61366e565b82810360608401526136d781898b61366e565b905082810360808401526136ec81878961366e565b905082810360a084015261370181858761366e565b9d9c50505050505050505050505050565b634e487b7160e01b600052603260045260246000fd5b634e487b7160e01b600052603160045260246000fdfe3f2c2e74f8183acb3a3ecca3d7993216d3026a732399784c4143f5f4b631e56a6501ba8882f36c4ef484e985502dbdeddd70c71882c427b897f7976de450cbea360894a13ba1a3210667c828492db98dca3e2076cc3735a920a3ca505d382bbc77c6570970c38bcbef0f4075021f00b93c11bf5ecdb11f0a03db50dcbf584ad8e11c4b38855d86735092f8c7e790a86765bacd0fe47618b41eb0c5142aea69c8339759585899103d2ace64958e37e18ccb0504652c81d4a1b8aa80fe2126ab9581fcb2f447f377b0f52d7c0ba6265f7369561e352e3279ac76480983f81f319ca26469706673582212203cb7ebe16cd65a4e0be0b07f54b3e256d590450eafe384bfd51a771792fbb83c64736f6c634300081c0033",
  "devdoc": {
    "errors": {
      "AccessControlBadConfirmation()": [
        {
          "details": "The caller of a function is not the expected one. NOTE: Don't confuse with {AccessControlUnauthorizedAccount}."
        }
      ],
      "AccessControlUnauthorizedAccount(address,bytes32)": [
        {
          "details": "The `account` is missing a role."
        }
      ],
      "AddressEmptyCode(address)": [
        {
          "details": "There's no code at `target` (it is not a contract)."
        }
      ],
      "ERC1967InvalidImplementation(address)": [
        {
          "details": "The `implementation` of the proxy is invalid."
        }
      ],
      "ERC1967NonPayable()": [
        {
          "details": "An upgrade function sees `msg.value > 0` that may be lost."
        }
      ],
      "EnforcedPause()": [
        {
          "details": "The operation failed because the contract is paused."
        }
      ],
      "ExpectedPause()": [
        {
          "details": "The operation failed because the contract is not paused."
        }
      ],
      "FailedInnerCall()": [
        {
          "details": "A call to an address target failed. The target may have reverted."
        }
      ],
      "InvalidInitialization()": [
        {
          "details": "The contract is already initialized."
        }
      ],
      "NotInitializing()": [
        {
          "details": "The contract is not initializing."
        }
      ],
      "ReentrancyGuardReentrantCall()": [
        {
          "details": "Unauthorized reentrant call."
        }
      ],
      "UUPSUnauthorizedCallContext()": [
        {
          "details": "The call is from an unauthorized context."
        }
      ],
      "UUPSUnsupportedProxiableUUID(bytes32)": [
        {
          "details": "The storage `slot` is unsupported as a UUID."
        }
      ]
    },
    "events": {
      "Initialized(uint64)": {
        "details": "Triggered when the contract has been initialized or reinitialized."
      },
      "Paused(address)": {
        "details": "Emitted when the pause is triggered by `account`."
      },
      "RoleAdminChanged(bytes32,bytes32,bytes32)": {
        "details": "Emitted when `newAdminRole` is set as ``role``'s admin role, replacing `previousAdminRole` `DEFAULT_ADMIN_ROLE` is the starting admin for all roles, despite {RoleAdminChanged} not being emitted signaling this."
      },
      "RoleGranted(bytes32,address,address)": {
        "details": "Emitted when `account` is granted `role`. `sender` is the account that originated the contract call, an admin role bearer except when using {AccessControl-_setupRole}."
      },
      "RoleRevoked(bytes32,address,address)": {
        "details": "Emitted when `account` is revoked `role`. `sender` is the account that originated the contract call:   - if using `revokeRole`, it is the admin role bearer   - if using `renounceRole`, it is the role bearer (i.e. `account`)"
      },
      "Unpaused(address)": {
        "details": "Emitted when the pause is lifted by `account`."
      },
      "Upgraded(address)": {
        "details": "Emitted when the implementation is upgraded."
      }
    },
    "kind": "dev",
    "methods": {
      "constructor": {
        "custom:oz-upgrades-unsafe-allow": "constructor"
      },
      "getRoleAdmin(bytes32)": {
        "details": "Returns the admin role that controls `role`. See {grantRole} and {revokeRole}. To change a role's admin, use {_setRoleAdmin}."
      },
      "grantRole(bytes32,address)": {
        "details": "Grants `role` to `account`. If `account` had not been already granted `role`, emits a {RoleGranted} event. Requirements: - the caller must have ``role``'s admin role. May emit a {RoleGranted} event."
      },
      "hasRole(bytes32,address)": {
        "details": "Returns `true` if `account` has been granted `role`."
      },
      "paused()": {
        "details": "Returns true if the contract is paused, and false otherwise."
      },
      "proxiableUUID()": {
        "details": "Implementation of the ERC1822 {proxiableUUID} function. This returns the storage slot used by the implementation. It is used to validate the implementation's compatibility when performing an upgrade. IMPORTANT: A proxy pointing at a proxiable contract should not be considered proxiable itself, because this risks bricking a proxy that upgrades to it, by delegating to itself until out of gas. Thus it is critical that this function revert if invoked through a proxy. This is guaranteed by the `notDelegated` modifier."
      },
      "renounceRole(bytes32,address)": {
        "details": "Revokes `role` from the calling account. Roles are often managed via {grantRole} and {revokeRole}: this function's purpose is to provide a mechanism for accounts to lose their privileges if they are compromised (such as when a trusted device is misplaced). If the calling account had been revoked `role`, emits a {RoleRevoked} event. Requirements: - the caller must be `callerConfirmation`. May emit a {RoleRevoked} event."
      },
      "revokeRole(bytes32,address)": {
        "details": "Revokes `role` from `account`. If `account` had been granted `role`, emits a {RoleRevoked} event. Requirements: - the caller must have ``role``'s admin role. May emit a {RoleRevoked} event."
      },
      "supportsInterface(bytes4)": {
        "details": "See {IERC165-supportsInterface}."
      },
      "updateDlp(uint256,(address,address,address,string,string,string,string))": {
        "details": "Only DLP owner can update"
      },
      "upgradeToAndCall(address,bytes)": {
        "custom:oz-upgrades-unsafe-allow-reachable": "delegatecall",
        "details": "Upgrade the implementation of the proxy to `newImplementation`, and subsequently execute the function call encoded in `data`. Calls {_authorizeUpgrade}. Emits an {Upgraded} event."
      }
    },
    "version": 1
  },
  "userdoc": {
    "kind": "user",
    "methods": {
      "updateDlp(uint256,(address,address,address,string,string,string,string))": {
        "notice": "Updates DLP information"
      }
    },
    "version": 1
  },
  "storageLayout": {
    "storage": [
      {
        "astId": 14233,
        "contract": "contracts/dlpRegistry/DLPRegistryImplementation.sol:DLPRegistryImplementation",
        "label": "vanaEpoch",
        "offset": 0,
        "slot": "0",
        "type": "t_contract(IVanaEpoch)19935"
      },
      {
        "astId": 14237,
        "contract": "contracts/dlpRegistry/DLPRegistryImplementation.sol:DLPRegistryImplementation",
        "label": "treasury",
        "offset": 0,
        "slot": "1",
        "type": "t_contract(ITreasury)18847"
      },
      {
        "astId": 14240,
        "contract": "contracts/dlpRegistry/DLPRegistryImplementation.sol:DLPRegistryImplementation",
        "label": "dlpRegistrationDepositAmount",
        "offset": 0,
        "slot": "2",
        "type": "t_uint256"
      },
      {
        "astId": 14243,
        "contract": "contracts/dlpRegistry/DLPRegistryImplementation.sol:DLPRegistryImplementation",
        "label": "dlpsCount",
        "offset": 0,
        "slot": "3",
        "type": "t_uint256"
      },
      {
        "astId": 14248,
        "contract": "contracts/dlpRegistry/DLPRegistryImplementation.sol:DLPRegistryImplementation",
        "label": "_dlps",
        "offset": 0,
        "slot": "4",
        "type": "t_mapping(t_uint256,t_struct(Dlp)14305_storage)"
      },
      {
        "astId": 14253,
        "contract": "contracts/dlpRegistry/DLPRegistryImplementation.sol:DLPRegistryImplementation",
        "label": "dlpIds",
        "offset": 0,
        "slot": "5",
        "type": "t_mapping(t_address,t_uint256)"
      },
      {
        "astId": 14258,
        "contract": "contracts/dlpRegistry/DLPRegistryImplementation.sol:DLPRegistryImplementation",
        "label": "dlpNameToId",
        "offset": 0,
        "slot": "6",
        "type": "t_mapping(t_string_memory_ptr,t_uint256)"
      },
      {
        "astId": 14261,
        "contract": "contracts/dlpRegistry/DLPRegistryImplementation.sol:DLPRegistryImplementation",
        "label": "_eligibleDlpsList",
        "offset": 0,
        "slot": "7",
        "type": "t_struct(UintSet)10692_storage"
      }
    ],
    "types": {
      "t_address": {
        "encoding": "inplace",
        "label": "address",
        "numberOfBytes": "20"
      },
      "t_address_payable": {
        "encoding": "inplace",
        "label": "address payable",
        "numberOfBytes": "20"
      },
      "t_array(t_bytes32)dyn_storage": {
        "base": "t_bytes32",
        "encoding": "dynamic_array",
        "label": "bytes32[]",
        "numberOfBytes": "32"
      },
      "t_bool": {
        "encoding": "inplace",
        "label": "bool",
        "numberOfBytes": "1"
      },
      "t_bytes32": {
        "encoding": "inplace",
        "label": "bytes32",
        "numberOfBytes": "32"
      },
      "t_contract(ITreasury)18847": {
        "encoding": "inplace",
        "label": "contract ITreasury",
        "numberOfBytes": "20"
      },
      "t_contract(IVanaEpoch)19935": {
        "encoding": "inplace",
        "label": "contract IVanaEpoch",
        "numberOfBytes": "20"
      },
      "t_enum(DlpStatus)14275": {
        "encoding": "inplace",
        "label": "enum IDLPRegistry.DlpStatus",
        "numberOfBytes": "1"
      },
      "t_mapping(t_address,t_uint256)": {
        "encoding": "mapping",
        "key": "t_address",
        "label": "mapping(address => uint256)",
        "numberOfBytes": "32",
        "value": "t_uint256"
      },
      "t_mapping(t_bytes32,t_uint256)": {
        "encoding": "mapping",
        "key": "t_bytes32",
        "label": "mapping(bytes32 => uint256)",
        "numberOfBytes": "32",
        "value": "t_uint256"
      },
      "t_mapping(t_string_memory_ptr,t_uint256)": {
        "encoding": "mapping",
        "key": "t_string_memory_ptr",
        "label": "mapping(string => uint256)",
        "numberOfBytes": "32",
        "value": "t_uint256"
      },
      "t_mapping(t_uint256,t_struct(Dlp)14305_storage)": {
        "encoding": "mapping",
        "key": "t_uint256",
        "label": "mapping(uint256 => struct IDLPRegistry.Dlp)",
        "numberOfBytes": "32",
        "value": "t_struct(Dlp)14305_storage"
      },
      "t_string_memory_ptr": {
        "encoding": "bytes",
        "label": "string",
        "numberOfBytes": "32"
      },
      "t_string_storage": {
        "encoding": "bytes",
        "label": "string",
        "numberOfBytes": "32"
      },
      "t_struct(Dlp)14305_storage": {
        "encoding": "inplace",
        "label": "struct IDLPRegistry.Dlp",
        "members": [
          {
            "astId": 14277,
            "contract": "contracts/dlpRegistry/DLPRegistryImplementation.sol:DLPRegistryImplementation",
            "label": "id",
            "offset": 0,
            "slot": "0",
            "type": "t_uint256"
          },
          {
            "astId": 14279,
            "contract": "contracts/dlpRegistry/DLPRegistryImplementation.sol:DLPRegistryImplementation",
            "label": "dlpAddress",
            "offset": 0,
            "slot": "1",
            "type": "t_address"
          },
          {
            "astId": 14281,
            "contract": "contracts/dlpRegistry/DLPRegistryImplementation.sol:DLPRegistryImplementation",
            "label": "ownerAddress",
            "offset": 0,
            "slot": "2",
            "type": "t_address"
          },
          {
            "astId": 14283,
            "contract": "contracts/dlpRegistry/DLPRegistryImplementation.sol:DLPRegistryImplementation",
            "label": "tokenAddress",
            "offset": 0,
            "slot": "3",
            "type": "t_address"
          },
          {
            "astId": 14285,
            "contract": "contracts/dlpRegistry/DLPRegistryImplementation.sol:DLPRegistryImplementation",
            "label": "treasuryAddress",
            "offset": 0,
            "slot": "4",
            "type": "t_address_payable"
          },
          {
            "astId": 14287,
            "contract": "contracts/dlpRegistry/DLPRegistryImplementation.sol:DLPRegistryImplementation",
            "label": "name",
            "offset": 0,
            "slot": "5",
            "type": "t_string_storage"
          },
          {
            "astId": 14289,
            "contract": "contracts/dlpRegistry/DLPRegistryImplementation.sol:DLPRegistryImplementation",
            "label": "iconUrl",
            "offset": 0,
            "slot": "6",
            "type": "t_string_storage"
          },
          {
            "astId": 14291,
            "contract": "contracts/dlpRegistry/DLPRegistryImplementation.sol:DLPRegistryImplementation",
            "label": "website",
            "offset": 0,
            "slot": "7",
            "type": "t_string_storage"
          },
          {
            "astId": 14293,
            "contract": "contracts/dlpRegistry/DLPRegistryImplementation.sol:DLPRegistryImplementation",
            "label": "metadata",
            "offset": 0,
            "slot": "8",
            "type": "t_string_storage"
          },
          {
            "astId": 14295,
            "contract": "contracts/dlpRegistry/DLPRegistryImplementation.sol:DLPRegistryImplementation",
            "label": "registrationBlockNumber",
            "offset": 0,
            "slot": "9",
            "type": "t_uint256"
          },
          {
            "astId": 14297,
            "contract": "contracts/dlpRegistry/DLPRegistryImplementation.sol:DLPRegistryImplementation",
            "label": "depositAmount",
            "offset": 0,
            "slot": "10",
            "type": "t_uint256"
          },
          {
            "astId": 14300,
            "contract": "contracts/dlpRegistry/DLPRegistryImplementation.sol:DLPRegistryImplementation",
            "label": "status",
            "offset": 0,
            "slot": "11",
            "type": "t_enum(DlpStatus)14275"
          },
          {
            "astId": 14302,
            "contract": "contracts/dlpRegistry/DLPRegistryImplementation.sol:DLPRegistryImplementation",
            "label": "lpTokenId",
            "offset": 0,
            "slot": "12",
            "type": "t_uint256"
          },
          {
            "astId": 14304,
            "contract": "contracts/dlpRegistry/DLPRegistryImplementation.sol:DLPRegistryImplementation",
            "label": "isVerified",
            "offset": 0,
            "slot": "13",
            "type": "t_bool"
          }
        ],
        "numberOfBytes": "448"
      },
      "t_struct(Set)10220_storage": {
        "encoding": "inplace",
        "label": "struct EnumerableSet.Set",
        "members": [
          {
            "astId": 10215,
            "contract": "contracts/dlpRegistry/DLPRegistryImplementation.sol:DLPRegistryImplementation",
            "label": "_values",
            "offset": 0,
            "slot": "0",
            "type": "t_array(t_bytes32)dyn_storage"
          },
          {
            "astId": 10219,
            "contract": "contracts/dlpRegistry/DLPRegistryImplementation.sol:DLPRegistryImplementation",
            "label": "_positions",
            "offset": 0,
            "slot": "1",
            "type": "t_mapping(t_bytes32,t_uint256)"
          }
        ],
        "numberOfBytes": "64"
      },
      "t_struct(UintSet)10692_storage": {
        "encoding": "inplace",
        "label": "struct EnumerableSet.UintSet",
        "members": [
          {
            "astId": 10691,
            "contract": "contracts/dlpRegistry/DLPRegistryImplementation.sol:DLPRegistryImplementation",
            "label": "_inner",
            "offset": 0,
            "slot": "0",
            "type": "t_struct(Set)10220_storage"
          }
        ],
        "numberOfBytes": "64"
      },
      "t_uint256": {
        "encoding": "inplace",
        "label": "uint256",
        "numberOfBytes": "32"
      }
    }
  }
}