{
  "address": "0xAEa3CBDf1405b5C4A3A410621445202c5b421e26",
  "abi": [
    {
      "inputs": [],
      "stateMutability": "nonpayable",
      "type": "constructor"
    },
    {
      "inputs": [],
      "name": "AccessControlBadConfirmation",
      "type": "error"
    },
    {
      "inputs": [
        {
          "internalType": "address",
          "name": "account",
          "type": "address"
        },
        {
          "internalType": "bytes32",
          "name": "neededRole",
          "type": "bytes32"
        }
      ],
      "name": "AccessControlUnauthorizedAccount",
      "type": "error"
    },
    {
      "inputs": [
        {
          "internalType": "address",
          "name": "target",
          "type": "address"
        }
      ],
      "name": "AddressEmptyCode",
      "type": "error"
    },
    {
      "inputs": [],
      "name": "AllEligibleDlpsMustHavePerformanceRatings",
      "type": "error"
    },
    {
      "inputs": [
        {
          "internalType": "uint256",
          "name": "dlpId",
          "type": "uint256"
        }
      ],
      "name": "DlpMustBeEligibleAndVerified",
      "type": "error"
    },
    {
      "inputs": [
        {
          "internalType": "address",
          "name": "implementation",
          "type": "address"
        }
      ],
      "name": "ERC1967InvalidImplementation",
      "type": "error"
    },
    {
      "inputs": [],
      "name": "ERC1967NonPayable",
      "type": "error"
    },
    {
      "inputs": [],
      "name": "EnforcedPause",
      "type": "error"
    },
    {
      "inputs": [],
      "name": "EpochAlreadyFinalised",
      "type": "error"
    },
    {
      "inputs": [],
      "name": "EpochNotEndedYet",
      "type": "error"
    },
    {
      "inputs": [],
      "name": "EpochRewardsAlreadyDistributed",
      "type": "error"
    },
    {
      "inputs": [],
      "name": "ExpectedPause",
      "type": "error"
    },
    {
      "inputs": [],
      "name": "FailedInnerCall",
      "type": "error"
    },
    {
      "inputs": [],
      "name": "InvalidEpoch",
      "type": "error"
    },
    {
      "inputs": [],
      "name": "InvalidFoundationWalletAddress",
      "type": "error"
    },
    {
      "inputs": [],
      "name": "InvalidInitialization",
      "type": "error"
    },
    {
      "inputs": [],
      "name": "InvalidPerformanceRating",
      "type": "error"
    },
    {
      "inputs": [],
      "name": "InvalidRatingPercentages",
      "type": "error"
    },
    {
      "inputs": [],
      "name": "NotInitializing",
      "type": "error"
    },
    {
      "inputs": [],
      "name": "UUPSUnauthorizedCallContext",
      "type": "error"
    },
    {
      "inputs": [
        {
          "internalType": "bytes32",
          "name": "slot",
          "type": "bytes32"
        }
      ],
      "name": "UUPSUnsupportedProxiableUUID",
      "type": "error"
    },
    {
      "anonymous": false,
      "inputs": [
        {
          "indexed": true,
          "internalType": "uint256",
          "name": "epochId",
          "type": "uint256"
        },
        {
          "indexed": true,
          "internalType": "uint256",
          "name": "dlpId",
          "type": "uint256"
        },
        {
          "indexed": false,
          "internalType": "uint256",
          "name": "performanceRating",
          "type": "uint256"
        }
      ],
      "name": "DlpEpochPerformanceRatingSaved",
      "type": "event"
    },
    {
      "anonymous": false,
      "inputs": [
        {
          "indexed": true,
          "internalType": "uint256",
          "name": "epochId",
          "type": "uint256"
        }
      ],
      "name": "EpochFinalised",
      "type": "event"
    },
    {
      "anonymous": false,
      "inputs": [
        {
          "indexed": true,
          "internalType": "uint256",
          "name": "epochId",
          "type": "uint256"
        },
        {
          "indexed": false,
          "internalType": "uint256",
          "name": "totalPerformanceRating",
          "type": "uint256"
        },
        {
          "indexed": false,
          "internalType": "bool",
          "name": "isFinalized",
          "type": "bool"
        }
      ],
      "name": "EpochPerformanceRatingsSaved",
      "type": "event"
    },
    {
      "anonymous": false,
      "inputs": [
        {
          "indexed": false,
          "internalType": "uint64",
          "name": "version",
          "type": "uint64"
        }
      ],
      "name": "Initialized",
      "type": "event"
    },
    {
      "anonymous": false,
      "inputs": [
        {
          "indexed": false,
          "internalType": "address",
          "name": "account",
          "type": "address"
        }
      ],
      "name": "Paused",
      "type": "event"
    },
    {
      "anonymous": false,
      "inputs": [
        {
          "indexed": false,
          "internalType": "enum IDLPRootMetrics.RatingType",
          "name": "ratingType",
          "type": "uint8"
        },
        {
          "indexed": false,
          "internalType": "uint256",
          "name": "percentage",
          "type": "uint256"
        }
      ],
      "name": "RatingPercentagesUpdated",
      "type": "event"
    },
    {
      "anonymous": false,
      "inputs": [
        {
          "indexed": true,
          "internalType": "bytes32",
          "name": "role",
          "type": "bytes32"
        },
        {
          "indexed": true,
          "internalType": "bytes32",
          "name": "previousAdminRole",
          "type": "bytes32"
        },
        {
          "indexed": true,
          "internalType": "bytes32",
          "name": "newAdminRole",
          "type": "bytes32"
        }
      ],
      "name": "RoleAdminChanged",
      "type": "event"
    },
    {
      "anonymous": false,
      "inputs": [
        {
          "indexed": true,
          "internalType": "bytes32",
          "name": "role",
          "type": "bytes32"
        },
        {
          "indexed": true,
          "internalType": "address",
          "name": "account",
          "type": "address"
        },
        {
          "indexed": true,
          "internalType": "address",
          "name": "sender",
          "type": "address"
        }
      ],
      "name": "RoleGranted",
      "type": "event"
    },
    {
      "anonymous": false,
      "inputs": [
        {
          "indexed": true,
          "internalType": "bytes32",
          "name": "role",
          "type": "bytes32"
        },
        {
          "indexed": true,
          "internalType": "address",
          "name": "account",
          "type": "address"
        },
        {
          "indexed": true,
          "internalType": "address",
          "name": "sender",
          "type": "address"
        }
      ],
      "name": "RoleRevoked",
      "type": "event"
    },
    {
      "anonymous": false,
      "inputs": [
        {
          "indexed": false,
          "internalType": "address",
          "name": "account",
          "type": "address"
        }
      ],
      "name": "Unpaused",
      "type": "event"
    },
    {
      "anonymous": false,
      "inputs": [
        {
          "indexed": true,
          "internalType": "address",
          "name": "implementation",
          "type": "address"
        }
      ],
      "name": "Upgraded",
      "type": "event"
    },
    {
      "inputs": [],
      "name": "DEFAULT_ADMIN_ROLE",
      "outputs": [
        {
          "internalType": "bytes32",
          "name": "",
          "type": "bytes32"
        }
      ],
      "stateMutability": "view",
      "type": "function"
    },
    {
      "inputs": [],
      "name": "DLP_ROOT_ROLE",
      "outputs": [
        {
          "internalType": "bytes32",
          "name": "",
          "type": "bytes32"
        }
      ],
      "stateMutability": "view",
      "type": "function"
    },
    {
      "inputs": [],
      "name": "MAINTAINER_ROLE",
      "outputs": [
        {
          "internalType": "bytes32",
          "name": "",
          "type": "bytes32"
        }
      ],
      "stateMutability": "view",
      "type": "function"
    },
    {
      "inputs": [],
      "name": "MANAGER_ROLE",
      "outputs": [
        {
          "internalType": "bytes32",
          "name": "",
          "type": "bytes32"
        }
      ],
      "stateMutability": "view",
      "type": "function"
    },
    {
      "inputs": [],
      "name": "UPGRADE_INTERFACE_VERSION",
      "outputs": [
        {
          "internalType": "string",
          "name": "",
          "type": "string"
        }
      ],
      "stateMutability": "view",
      "type": "function"
    },
    {
      "inputs": [
        {
          "internalType": "uint256",
          "name": "dlpId",
          "type": "uint256"
        },
        {
          "internalType": "uint256",
          "name": "epochId",
          "type": "uint256"
        },
        {
          "internalType": "uint256",
          "name": "totalDlpsStakeAmount",
          "type": "uint256"
        },
        {
          "internalType": "uint256",
          "name": "totalDlpsPerformanceRating",
          "type": "uint256"
        },
        {
          "internalType": "uint256[]",
          "name": "customRatingPercentages",
          "type": "uint256[]"
        }
      ],
      "name": "calculateDlpRating",
      "outputs": [
        {
          "internalType": "uint256",
          "name": "",
          "type": "uint256"
        }
      ],
      "stateMutability": "view",
      "type": "function"
    },
    {
      "inputs": [],
      "name": "dlpRoot",
      "outputs": [
        {
          "internalType": "contract IDLPRoot",
          "name": "",
          "type": "address"
        }
      ],
      "stateMutability": "view",
      "type": "function"
    },
    {
      "inputs": [
        {
          "internalType": "uint256",
          "name": "epochId",
          "type": "uint256"
        },
        {
          "internalType": "uint256",
          "name": "dlpId",
          "type": "uint256"
        }
      ],
      "name": "epochDlps",
      "outputs": [
        {
          "components": [
            {
              "internalType": "uint256",
              "name": "performanceRating",
              "type": "uint256"
            },
            {
              "internalType": "uint256",
              "name": "stakeAmountAdjustment",
              "type": "uint256"
            }
          ],
          "internalType": "struct IDLPRootMetrics.EpochDlpInfo",
          "name": "",
          "type": "tuple"
        }
      ],
      "stateMutability": "view",
      "type": "function"
    },
    {
      "inputs": [
        {
          "internalType": "uint256",
          "name": "epochId",
          "type": "uint256"
        }
      ],
      "name": "epochs",
      "outputs": [
        {
          "components": [
            {
              "internalType": "uint256",
              "name": "totalPerformanceRating",
              "type": "uint256"
            },
            {
              "internalType": "bool",
              "name": "finalized",
              "type": "bool"
            }
          ],
          "internalType": "struct IDLPRootMetrics.EpochInfo",
          "name": "",
          "type": "tuple"
        }
      ],
      "stateMutability": "view",
      "type": "function"
    },
    {
      "inputs": [
        {
          "internalType": "uint256[]",
          "name": "dlpIds",
          "type": "uint256[]"
        }
      ],
      "name": "estimatedDlpRewardPercentages",
      "outputs": [
        {
          "components": [
            {
              "internalType": "uint256",
              "name": "dlpId",
              "type": "uint256"
            },
            {
              "internalType": "uint256",
              "name": "APY",
              "type": "uint256"
            },
            {
              "internalType": "uint256",
              "name": "EPY",
              "type": "uint256"
            }
          ],
          "internalType": "struct IDLPRootMetrics.DlpRewardApy[]",
          "name": "",
          "type": "tuple[]"
        }
      ],
      "stateMutability": "view",
      "type": "function"
    },
    {
      "inputs": [
        {
          "internalType": "uint256[]",
          "name": "dlpIds",
          "type": "uint256[]"
        },
        {
          "internalType": "uint256[]",
          "name": "customRatingPercentages",
          "type": "uint256[]"
        }
      ],
      "name": "estimatedDlpRewardPercentagesCustomized",
      "outputs": [
        {
          "components": [
            {
              "internalType": "uint256",
              "name": "dlpId",
              "type": "uint256"
            },
            {
              "internalType": "uint256",
              "name": "APY",
              "type": "uint256"
            },
            {
              "internalType": "uint256",
              "name": "EPY",
              "type": "uint256"
            }
          ],
          "internalType": "struct IDLPRootMetrics.DlpRewardApy[]",
          "name": "",
          "type": "tuple[]"
        }
      ],
      "stateMutability": "view",
      "type": "function"
    },
    {
      "inputs": [
        {
          "internalType": "uint256",
          "name": "epochId",
          "type": "uint256"
        }
      ],
      "name": "finalizeEpoch",
      "outputs": [],
      "stateMutability": "nonpayable",
      "type": "function"
    },
    {
      "inputs": [
        {
          "internalType": "uint256",
          "name": "epochIdStart",
          "type": "uint256"
        },
        {
          "internalType": "uint256",
          "name": "epochIdEnd",
          "type": "uint256"
        }
      ],
      "name": "finalizeEpochs",
      "outputs": [],
      "stateMutability": "nonpayable",
      "type": "function"
    },
    {
      "inputs": [],
      "name": "foundationWalletAddress",
      "outputs": [
        {
          "internalType": "address payable",
          "name": "",
          "type": "address"
        }
      ],
      "stateMutability": "view",
      "type": "function"
    },
    {
      "inputs": [
        {
          "internalType": "uint256",
          "name": "daysStaked",
          "type": "uint256"
        }
      ],
      "name": "getMultiplier",
      "outputs": [
        {
          "internalType": "uint256",
          "name": "",
          "type": "uint256"
        }
      ],
      "stateMutability": "pure",
      "type": "function"
    },
    {
      "inputs": [
        {
          "internalType": "bytes32",
          "name": "role",
          "type": "bytes32"
        }
      ],
      "name": "getRoleAdmin",
      "outputs": [
        {
          "internalType": "bytes32",
          "name": "",
          "type": "bytes32"
        }
      ],
      "stateMutability": "view",
      "type": "function"
    },
    {
      "inputs": [
        {
          "internalType": "bytes32",
          "name": "role",
          "type": "bytes32"
        },
        {
          "internalType": "address",
          "name": "account",
          "type": "address"
        }
      ],
      "name": "grantRole",
      "outputs": [],
      "stateMutability": "nonpayable",
      "type": "function"
    },
    {
      "inputs": [
        {
          "internalType": "bytes32",
          "name": "role",
          "type": "bytes32"
        },
        {
          "internalType": "address",
          "name": "account",
          "type": "address"
        }
      ],
      "name": "hasRole",
      "outputs": [
        {
          "internalType": "bool",
          "name": "",
          "type": "bool"
        }
      ],
      "stateMutability": "view",
      "type": "function"
    },
    {
      "inputs": [
        {
          "internalType": "address",
          "name": "ownerAddress",
          "type": "address"
        },
        {
          "internalType": "address",
          "name": "dlpRootAddress",
          "type": "address"
        },
        {
          "internalType": "uint256",
          "name": "stakeRatingPercentage",
          "type": "uint256"
        },
        {
          "internalType": "uint256",
          "name": "performanceRatingPercentage",
          "type": "uint256"
        }
      ],
      "name": "initialize",
      "outputs": [],
      "stateMutability": "nonpayable",
      "type": "function"
    },
    {
      "inputs": [],
      "name": "pause",
      "outputs": [],
      "stateMutability": "nonpayable",
      "type": "function"
    },
    {
      "inputs": [],
      "name": "paused",
      "outputs": [
        {
          "internalType": "bool",
          "name": "",
          "type": "bool"
        }
      ],
      "stateMutability": "view",
      "type": "function"
    },
    {
      "inputs": [],
      "name": "proxiableUUID",
      "outputs": [
        {
          "internalType": "bytes32",
          "name": "",
          "type": "bytes32"
        }
      ],
      "stateMutability": "view",
      "type": "function"
    },
    {
      "inputs": [
        {
          "internalType": "enum IDLPRootMetrics.RatingType",
          "name": "ratingType",
          "type": "uint8"
        }
      ],
      "name": "ratingPercentages",
      "outputs": [
        {
          "internalType": "uint256",
          "name": "percentage",
          "type": "uint256"
        }
      ],
      "stateMutability": "view",
      "type": "function"
    },
    {
      "inputs": [
        {
          "internalType": "bytes32",
          "name": "role",
          "type": "bytes32"
        },
        {
          "internalType": "address",
          "name": "callerConfirmation",
          "type": "address"
        }
      ],
      "name": "renounceRole",
      "outputs": [],
      "stateMutability": "nonpayable",
      "type": "function"
    },
    {
      "inputs": [
        {
          "internalType": "bytes32",
          "name": "role",
          "type": "bytes32"
        },
        {
          "internalType": "address",
          "name": "account",
          "type": "address"
        }
      ],
      "name": "revokeRole",
      "outputs": [],
      "stateMutability": "nonpayable",
      "type": "function"
    },
    {
      "inputs": [
        {
          "internalType": "uint256",
          "name": "epochId",
          "type": "uint256"
        },
        {
          "components": [
            {
              "internalType": "uint256",
              "name": "dlpId",
              "type": "uint256"
            },
            {
              "internalType": "uint256",
              "name": "performanceRating",
              "type": "uint256"
            }
          ],
          "internalType": "struct IDLPRootMetrics.DlpPerformanceRating[]",
          "name": "dlpPerformanceRatings",
          "type": "tuple[]"
        }
      ],
      "name": "saveEpochPerformanceRatings",
      "outputs": [],
      "stateMutability": "nonpayable",
      "type": "function"
    },
    {
      "inputs": [
        {
          "internalType": "bytes4",
          "name": "interfaceId",
          "type": "bytes4"
        }
      ],
      "name": "supportsInterface",
      "outputs": [
        {
          "internalType": "bool",
          "name": "",
          "type": "bool"
        }
      ],
      "stateMutability": "view",
      "type": "function"
    },
    {
      "inputs": [
        {
          "internalType": "uint256",
          "name": "numberOfDlps",
          "type": "uint256"
        }
      ],
      "name": "topDlpIds",
      "outputs": [
        {
          "internalType": "uint256[]",
          "name": "",
          "type": "uint256[]"
        }
      ],
      "stateMutability": "view",
      "type": "function"
    },
    {
      "inputs": [
        {
          "internalType": "uint256",
          "name": "numberOfDlps",
          "type": "uint256"
        }
      ],
      "name": "topDlps",
      "outputs": [
        {
          "components": [
            {
              "internalType": "uint256",
              "name": "dlpId",
              "type": "uint256"
            },
            {
              "internalType": "uint256",
              "name": "rating",
              "type": "uint256"
            }
          ],
          "internalType": "struct IDLPRootMetrics.DlpRating[]",
          "name": "",
          "type": "tuple[]"
        }
      ],
      "stateMutability": "view",
      "type": "function"
    },
    {
      "inputs": [
        {
          "internalType": "uint256",
          "name": "epochId",
          "type": "uint256"
        },
        {
          "internalType": "uint256",
          "name": "numberOfDlps",
          "type": "uint256"
        },
        {
          "internalType": "uint256[]",
          "name": "dlpIds",
          "type": "uint256[]"
        },
        {
          "internalType": "uint256[]",
          "name": "customRatingPercentages",
          "type": "uint256[]"
        }
      ],
      "name": "topDlpsCustomized",
      "outputs": [
        {
          "components": [
            {
              "internalType": "uint256",
              "name": "dlpId",
              "type": "uint256"
            },
            {
              "internalType": "uint256",
              "name": "rating",
              "type": "uint256"
            }
          ],
          "internalType": "struct IDLPRootMetrics.DlpRating[]",
          "name": "",
          "type": "tuple[]"
        }
      ],
      "stateMutability": "view",
      "type": "function"
    },
    {
      "inputs": [],
      "name": "unpause",
      "outputs": [],
      "stateMutability": "nonpayable",
      "type": "function"
    },
    {
      "inputs": [
        {
          "internalType": "address",
          "name": "dlpRootAddress",
          "type": "address"
        }
      ],
      "name": "updateDlpRoot",
      "outputs": [],
      "stateMutability": "nonpayable",
      "type": "function"
    },
    {
      "inputs": [
        {
          "internalType": "uint256",
          "name": "epochId",
          "type": "uint256"
        },
        {
          "internalType": "uint256",
          "name": "dlpId",
          "type": "uint256"
        },
        {
          "internalType": "uint256",
          "name": "adjustment",
          "type": "uint256"
        },
        {
          "internalType": "bool",
          "name": "isAddition",
          "type": "bool"
        }
      ],
      "name": "updateEpochDlpStakeAmountAdjustment",
      "outputs": [],
      "stateMutability": "nonpayable",
      "type": "function"
    },
    {
      "inputs": [
        {
          "internalType": "address payable",
          "name": "foundationWalletAddress",
          "type": "address"
        }
      ],
      "name": "updateFoundationWalletAddress",
      "outputs": [],
      "stateMutability": "nonpayable",
      "type": "function"
    },
    {
      "inputs": [
        {
          "internalType": "uint256",
          "name": "stakeRatingPercentage",
          "type": "uint256"
        },
        {
          "internalType": "uint256",
          "name": "performanceRatingPercentage",
          "type": "uint256"
        }
      ],
      "name": "updateRatingPercentages",
      "outputs": [],
      "stateMutability": "nonpayable",
      "type": "function"
    },
    {
      "inputs": [
        {
          "internalType": "address",
          "name": "newImplementation",
          "type": "address"
        },
        {
          "internalType": "bytes",
          "name": "data",
          "type": "bytes"
        }
      ],
      "name": "upgradeToAndCall",
      "outputs": [],
      "stateMutability": "payable",
      "type": "function"
    },
    {
      "inputs": [],
      "name": "version",
      "outputs": [
        {
          "internalType": "uint256",
          "name": "",
          "type": "uint256"
        }
      ],
      "stateMutability": "pure",
      "type": "function"
    }
  ],
  "transactionHash": "0x758ab6adda3087cf11b5c89887faa23cec88c5b9e29d66c4ccff966603f6227d",
  "args": [],
  "numDeployments": 5,
  "solcInputHash": "c5277db4856ee4a0c6b3cb90ee11c519",
  "bytecode": "0x60c0604052306080523480156200001557600080fd5b506200002062000026565b620000da565b7ff0c57e16840df040f15088dc2f81fe391c3923bec73e23a9662efc9c229c6a00805468010000000000000000900460ff1615620000775760405163f92ee8a960e01b815260040160405180910390fd5b80546001600160401b0390811614620000d75780546001600160401b0319166001600160401b0390811782556040519081527fc7f505b2f371ae2175ee4913f4499e1f2633a7b5936321eed1cdaeb6115181d29060200160405180910390a15b50565b60805160a0516144a16200010b6000396000505060008181612dae01528181612dd70152612f1d01526144a16000f3fe6080604052600436106101aa5760003560e01c806301159c70146101af57806301ffc9a7146101d157806324404fa714610206578063248a9ca3146102335780632f2ff15d1461026157806336568abe1461028157806339a67b77146102a15780633a40519d146102ce5780633c026aed146102fb5780633f4ba83a1461031b5780634bbaf86b146103305780634f1ef2861461035057806352d1902d1461036357806354fd4d50146103785780635c975abb1461038c578063610b7010146103a15780636d51fa9d146103c15780638456cb59146103e15780638d8c658f146103f657806391d1485414610423578063986bce2c146104435780639b812098146104635780639e0e7d2a146104905780639e1006bb146104b0578063a217fddf146104d0578063a59850ce146104e5578063a6e89da6146104fa578063ad3cb1cc1461051a578063adf8252d14610558578063b3a7b9da14610578578063c6b61e4c146105e9578063d25f33e514610626578063d547741f14610648578063e4e3cbd514610668578063eb990c5914610688578063ec87621c146106a8578063f8742254146106ca575b600080fd5b3480156101bb57600080fd5b506101cf6101ca36600461397c565b6106ec565b005b3480156101dd57600080fd5b506101f16101ec366004613999565b610727565b60405190151581526020015b60405180910390f35b34801561021257600080fd5b50600154610226906001600160a01b031681565b6040516101fd91906139c3565b34801561023f57600080fd5b5061025361024e3660046139d7565b61075e565b6040519081526020016101fd565b34801561026d57600080fd5b506101cf61027c3660046139f0565b61077e565b34801561028d57600080fd5b506101cf61029c3660046139f0565b6107a0565b3480156102ad57600080fd5b506102c16102bc366004613b42565b6107d8565b6040516101fd9190613bbe565b3480156102da57600080fd5b506102ee6102e93660046139d7565b610974565b6040516101fd9190613c0c565b34801561030757600080fd5b50610253610316366004613c56565b610b55565b34801561032757600080fd5b506101cf610b92565b34801561033c57600080fd5b506101cf61034b36600461397c565b610bb5565b6101cf61035e366004613cb9565b610bf0565b34801561036f57600080fd5b50610253610c0f565b34801561038457600080fd5b506001610253565b34801561039857600080fd5b506101f1610c2c565b3480156103ad57600080fd5b506101cf6103bc366004613d6e565b610c41565b3480156103cd57600080fd5b506102c16103dc366004613daf565b610cd3565b3480156103ed57600080fd5b506101cf610cf0565b34801561040257600080fd5b506104166104113660046139d7565b610d10565b6040516101fd9190613de3565b34801561042f57600080fd5b506101f161043e3660046139f0565b610db6565b34801561044f57600080fd5b506101cf61045e3660046139d7565b610dec565b34801561046f57600080fd5b5061025361047e366004613e1b565b60036020526000908152604090205481565b34801561049c57600080fd5b506101cf6104ab366004613e3c565b61112d565b3480156104bc57600080fd5b506102ee6104cb366004613efc565b611349565b3480156104dc57600080fd5b50610253600081565b3480156104f157600080fd5b5061022661163d565b34801561050657600080fd5b506101cf610515366004613f72565b611679565b34801561052657600080fd5b5061054b604051806040016040528060058152602001640352e302e360dc1b81525081565b6040516101fd9190613fb8565b34801561056457600080fd5b506102536105733660046139d7565b6116b3565b34801561058457600080fd5b506105dc610593366004613f72565b6040805180820182526000808252602091820181905282518084018452948152600280835283822085835201808352928120805486529390529081526001909101549082015290565b6040516101fd9190613feb565b3480156105f557600080fd5b506106096106043660046139d7565b6119d6565b6040805182518152602092830151151592810192909252016101fd565b34801561063257600080fd5b506102536000805160206143ec83398151915281565b34801561065457600080fd5b506101cf6106633660046139f0565b611af7565b34801561067457600080fd5b506101cf610683366004613f72565b611b13565b34801561069457600080fd5b506101cf6106a3366004614002565b611b35565b3480156106b457600080fd5b506102536000805160206143cc83398151915281565b3480156106d657600080fd5b5061025360008051602061444c83398151915281565b60008051602061444c83398151915261070481611ce2565b50600180546001600160a01b0319166001600160a01b0392909216919091179055565b60006001600160e01b03198216637965db0b60e01b148061075857506301ffc9a760e01b6001600160e01b03198316145b92915050565b600080610769611cec565b60009384526020525050604090206001015490565b6107878261075e565b61079081611ce2565b61079a8383611d10565b50505050565b6001600160a01b03811633146107c95760405163334bd91960e11b815260040160405180910390fd5b6107d38282611db1565b505050565b606060006108bd600160009054906101000a90046001600160a01b03166001600160a01b03166320930fa46040518163ffffffff1660e01b8152600401602060405180830381865afa158015610832573d6000803e3d6000fd5b505050506040513d601f19601f820116820180604052508101906108569190614048565b6001600160a01b031663916e1c576040518163ffffffff1660e01b8152600401602060405180830381865afa158015610893573d6000803e3d6000fd5b505050506040513d601f19601f820116820180604052508101906108b79190614065565b84611e29565b9050600084516001600160401b038111156108da576108da613a20565b60405190808252806020026020018201604052801561091357816020015b610900613917565b8152602001906001900390816108f85790505b50905060005b855181101561096b576109468682815181106109375761093761407e565b60200260200101518487612468565b8282815181106109585761095861407e565b6020908102919091010152600101610919565b50949350505050565b6060610758600160009054906101000a90046001600160a01b03166001600160a01b03166320930fa46040518163ffffffff1660e01b8152600401602060405180830381865afa1580156109cc573d6000803e3d6000fd5b505050506040513d601f19601f820116820180604052508101906109f09190614048565b6001600160a01b031663916e1c576040518163ffffffff1660e01b8152600401602060405180830381865afa158015610a2d573d6000803e3d6000fd5b505050506040513d601f19601f82011682018060405250810190610a519190614065565b60015460408051630dd97a2960e11b8152905186926001600160a01b031691631bb2f4529160048083019260209291908290030181865afa158015610a9a573d6000803e3d6000fd5b505050506040513d601f19601f82011682018060405250810190610abe9190614048565b6001600160a01b03166303a229f66040518163ffffffff1660e01b8152600401600060405180830381865afa158015610afb573d6000803e3d6000fd5b505050506040513d6000823e601f3d908101601f19168201604052610b2391908101906140f3565b60005b604051908082528060200260200182016040528015610b4f578160200160208202803683370190505b50611349565b6000610b88610b648787612afd565b60008781526002602081815260408084208c85529092019052902054868686612bfe565b9695505050505050565b60008051602061444c833981519152610baa81611ce2565b610bb2612d4c565b50565b60008051602061444c833981519152610bcd81611ce2565b50600480546001600160a01b0319166001600160a01b0392909216919091179055565b610bf8612da3565b610c0182612e4a565b610c0b8282612e55565b5050565b6000610c19612f12565b506000805160206143ac83398151915290565b600080610c37612f5b565b5460ff1692915050565b6000805160206143ec833981519152610c5981611ce2565b8115610c98576000858152600260208181526040808420888552909201905281206001018054859290610c8d90849061413d565b90915550610ccc9050565b6000858152600260208181526040808420888552909201905281206001018054859290610cc6908490614150565b90915550505b5050505050565b6040805160008152602081019091526060906107589083906107d8565b60008051602061444c833981519152610d0881611ce2565b610bb2612f7f565b60606000610d1d83610974565b80519091506000816001600160401b03811115610d3c57610d3c613a20565b604051908082528060200260200182016040528015610d65578160200160208202803683370190505b50905060005b8281101561096b57838181518110610d8557610d8561407e565b602002602001015160000151828281518110610da357610da361407e565b6020908102919091010152600101610d6b565b600080610dc1611cec565b6000948552602090815260408086206001600160a01b03959095168652939052505090205460ff1690565b6000805160206143cc833981519152610e0481611ce2565b610e0c612fc6565b600160009054906101000a90046001600160a01b03166001600160a01b03166320930fa46040518163ffffffff1660e01b8152600401602060405180830381865afa158015610e5f573d6000803e3d6000fd5b505050506040513d601f19601f82011682018060405250810190610e839190614048565b6001600160a01b031663c6b61e4c836040518263ffffffff1660e01b8152600401610eb091815260200190565b600060405180830381865afa158015610ecd573d6000803e3d6000fd5b505050506040513d6000823e601f3d908101601f19168201604052610ef59190810190614163565b6060015115610f1757604051630c2c2e0360e11b815260040160405180910390fd5b60015460408051630824c3e960e21b815290516000926001600160a01b0316916320930fa49160048083019260209291908290030181865afa158015610f61573d6000803e3d6000fd5b505050506040513d601f19601f82011682018060405250810190610f859190614048565b6001600160a01b031663c6b61e4c846040518263ffffffff1660e01b8152600401610fb291815260200190565b600060405180830381865afa158015610fcf573d6000803e3d6000fd5b505050506040513d6000823e601f3d908101601f19168201604052610ff79190810190614163565b90504381602001511061101d576040516307cffebb60e01b815260040160405180910390fd5b60405183907f0867904ff22a2f7066c4e7f4f482ef661324499e28f2f99ced6b09c4a542384090600090a26107d383600160009054906101000a90046001600160a01b03166001600160a01b0316631bb2f4526040518163ffffffff1660e01b8152600401602060405180830381865afa15801561109f573d6000803e3d6000fd5b505050506040513d601f19601f820116820180604052508101906110c39190614048565b6001600160a01b03166303a229f66040518163ffffffff1660e01b8152600401600060405180830381865afa158015611100573d6000803e3d6000fd5b505050506040513d6000823e601f3d908101601f1916820160405261112891908101906140f3565b612fec565b6000805160206143cc83398151915261114581611ce2565b61114d612fc6565b6000838152600260209081526040918290206001548351630824c3e960e21b8152935191936001600160a01b03909116926320930fa4926004808401938290030181865afa1580156111a3573d6000803e3d6000fd5b505050506040513d601f19601f820116820180604052508101906111c79190614048565b6001600160a01b031663c6b61e4c856040518263ffffffff1660e01b81526004016111f491815260200190565b600060405180830381865afa158015611211573d6000803e3d6000fd5b505050506040513d6000823e601f3d908101601f191682016040526112399190810190614163565b606001511561125b57604051630c2c2e0360e11b815260040160405180910390fd5b82516000805b8281101561130257600086828151811061127d5761127d61407e565b60209081029190910181015180820180518251600090815260028a0190945260409093209290925590519091506112b4908461413d565b92508060000151887f14e080a7cc9c18aa303764d388372bee4d6b2dc6e2bc3cbe8a3d98c4c2072b4383602001516040516112f191815260200190565b60405180910390a350600101611261565b50808355604080518281526000602082015287917f93f86f9bc6bd89602512fcde5fe72737b3dc03783e87688e4d755449d6643bb3910160405180910390a2505050505050565b606060008060005b85518110156113e25761137d86828151811061136f5761136f61407e565b602002602001015189612afd565b611387908461413d565b92506002600089815260200190815260200160002060020160008783815181106113b3576113b361407e565b6020026020010151815260200190815260200160002060000154826113d8919061413d565b9150600101611351565b5084518087106113f257806113f4565b865b96506000876001600160401b0381111561141057611410613a20565b60405190808252806020026020018201604052801561145557816020015b604080518082019091526000808252602082015281526020019060019003908161142e5790505b5090508760000361146b57935061163592505050565b60005b8281101561162e57600088828151811061148a5761148a61407e565b6020026020010151905060006114a3828d89898d610b55565b90508a60005b8c811015611534578581815181106114c3576114c361407e565b60200260200101516020015183118061151f57508581815181106114e9576114e961407e565b6020026020010151602001518314801561151f57508581815181106115105761151061407e565b60200260200101516000015184105b1561152c57809150611534565b6001016114a9565b508b81101561162057600061154a60018e614150565b90505b818111156115ec5785611561600183614150565b815181106115715761157161407e565b60200260200101516000015186828151811061158f5761158f61407e565b602090810291909101015152856115a7600183614150565b815181106115b7576115b761407e565b6020026020010151602001518682815181106115d5576115d561407e565b60209081029190910181015101526000190161154d565b506040518060400160405280848152602001838152508582815181106116145761161461407e565b60200260200101819052505b83600101935050505061146e565b5093505050505b949350505050565b6004546000906001600160a01b031661166957604051630d9c747960e41b815260040160405180910390fd5b506004546001600160a01b031690565b6000805160206143cc83398151915261169181611ce2565b611699612fc6565b825b82811161079a576116ab81610dec565b60010161169b565b600060528211156116c75750617530919050565b60408051610a60810182526101dc81526103b8602082015261059491810191909152610770606082015261094c6080820152610b2960a0820152610d0560c0820152610ee160e08201526110bd61010082015261129961012082015261147661014082015261165261016082015261182e610180820152611a0a6101a0820152611be66101c0820152611dc36101e0820152611f9f61020082015261217b6102208201526123576102408201526125336102608201526127106102808201526127d86102a08201526129046102c08201526129cc6102e0820152612af8610300820152612bc0610320820152612c88610340820152612db4610360820152612e7c610380820152612f446103a08201526130706103c08201526131386103e082015261326461040082015261332c6104208201526133f46104408201526135206104608201526135e86104808201526136b06104a08201526137dc6104c08201526138a46104e08201526139d0610500820152613a98610520820152613cf0610540820152613f486105608201526141a06105808201526143f86105a08201526146506105c08201526148a86105e0820152614b00610600820152614d58610620820152614fb06106408201526152086106608201526153fc6106808201526156546106a08201526158ac6106c0820152615b046106e0820152615d5c610700820152615fb461072082015261620c6107408201526164646107608201526166bc6107808201526169146107a0820152616b6c6107c0820152616bd06107e0820152616c34610800820152616cfc610820820152616d60610840820152616dc4610860820152616e28610880820152616e8c6108a0820152616f546108c0820152616fb86108e082015261701c6109008201526170806109208201526170e46109408201526171486109608201526172106109808201526172746109a08201526172d86109c082015261733c6109e08201526173a0610a00820152617468610a208201526174cc610a408201528083605381106119c6576119c661407e565b602002015161ffff169392505050565b604080518082019091526000808252602082015260008281526002602090815260409182902082518084018452815481526001548451630824c3e960e21b8152945192949193848101936001600160a01b03909216926320930fa492600480830193928290030181865afa158015611a52573d6000803e3d6000fd5b505050506040513d601f19601f82011682018060405250810190611a769190614048565b6001600160a01b031663c6b61e4c866040518263ffffffff1660e01b8152600401611aa391815260200190565b600060405180830381865afa158015611ac0573d6000803e3d6000fd5b505050506040513d6000823e601f3d908101601f19168201604052611ae89190810190614163565b60600151151590529392505050565b611b008261075e565b611b0981611ce2565b61079a8383611db1565b60008051602061444c833981519152611b2b81611ce2565b6107d3838361354a565b6000611b3f6135fe565b805490915060ff600160401b82041615906001600160401b0316600081158015611b665750825b90506000826001600160401b03166001148015611b825750303b155b905081158015611b90575080155b15611bae5760405163f92ee8a960e01b815260040160405180910390fd5b84546001600160401b03191660011785558315611bd757845460ff60401b1916600160401b1785555b611bdf613622565b611be7613622565b611bef61362a565b600180546001600160a01b0319166001600160a01b038a16179055611c14878761354a565b611c2d60008051602061444c833981519152600061363a565b611c536000805160206143cc83398151915260008051602061444c83398151915261363a565b611c5e60008a611d10565b50611c7760008051602061444c8339815191528a611d10565b50611c906000805160206143cc8339815191528a611d10565b508315611cd757845460ff60401b19168555604051600181527fc7f505b2f371ae2175ee4913f4499e1f2633a7b5936321eed1cdaeb6115181d29060200160405180910390a15b505050505050505050565b610bb2813361369a565b7f02dd7bc7dec4dceedda775e58dd541e08a116c6c53815c0bd028192f7b62680090565b600080611d1b611cec565b9050611d278484610db6565b611da7576000848152602082815260408083206001600160a01b03871684529091529020805460ff19166001179055611d5d3390565b6001600160a01b0316836001600160a01b0316857f2f8788117e7eff1d82e926ec794901d17c78024a50270940304540a733656f0d60405160405180910390a46001915050610758565b6000915050610758565b600080611dbc611cec565b9050611dc88484610db6565b15611da7576000848152602082815260408083206001600160a01b0387168085529252808320805460ff1916905551339287917ff6391f5c32d9c69d2a47ea670b442974b53935d1edc7fd64eb21e047a839171b9190a46001915050610758565b611e31613938565b6000611ff184600160009054906101000a90046001600160a01b03166001600160a01b03166320930fa46040518163ffffffff1660e01b8152600401602060405180830381865afa158015611e8a573d6000803e3d6000fd5b505050506040513d601f19601f82011682018060405250810190611eae9190614048565b6001600160a01b031663c53036f46040518163ffffffff1660e01b8152600401602060405180830381865afa158015611eeb573d6000803e3d6000fd5b505050506040513d601f19601f82011682018060405250810190611f0f9190614065565b600160009054906101000a90046001600160a01b03166001600160a01b0316631bb2f4526040518163ffffffff1660e01b8152600401602060405180830381865afa158015611f62573d6000803e3d6000fd5b505050506040513d601f19601f82011682018060405250810190611f869190614048565b6001600160a01b03166303a229f66040518163ffffffff1660e01b8152600401600060405180830381865afa158015611fc3573d6000803e3d6000fd5b505050506040513d6000823e601f3d908101601f19168201604052611feb91908101906140f3565b86611349565b90506000611ffd613938565b600083516001600160401b0381111561201857612018613a20565b604051908082528060200260200182016040528015612041578160200160208202803683370190505b509050600084516001600160401b0381111561205f5761205f613a20565b604051908082528060200260200182016040528015612088578160200160208202803683370190505b509050600085516001600160401b038111156120a6576120a6613a20565b6040519080825280602002602001820160405280156120cf578160200160208202803683370190505b509050600094505b855185101561238957600160009054906101000a90046001600160a01b03166001600160a01b0316631bb2f4526040518163ffffffff1660e01b8152600401602060405180830381865afa158015612133573d6000803e3d6000fd5b505050506040513d601f19601f820116820180604052508101906121579190614048565b6001600160a01b031663e5c8307d8787815181106121775761217761407e565b6020026020010151600001518b6040518363ffffffff1660e01b81526004016121a1929190614200565b602060405180830381865afa1580156121be573d6000803e3d6000fd5b505050506040513d601f19601f820116820180604052508101906121e29190614065565b8286815181106121f4576121f461407e565b602002602001018181525050600260008a8152602001908152602001600020600201600087878151811061222a5761222a61407e565b60200260200101516000015181526020019081526020016000206001015482868151811061225a5761225a61407e565b602002602001015161226c9190614150565b83868151811061227e5761227e61407e565b602002602001018181525050600260008a815260200190815260200160002060020160008787815181106122b4576122b461407e565b6020026020010151600001518152602001908152602001600020600001548186815181106122e4576122e461407e565b6020026020010181815250508285815181106123025761230261407e565b60200260200101518460200181815161231b919061413d565b90525081518290869081106123325761233261407e565b60200260200101518460000181815161234b919061413d565b90525080518190869081106123625761236261407e565b60200260200101518460800181815161237b919061413d565b9052506001909401936120d7565b600094505b855185101561245b576123de8386815181106123ac576123ac61407e565b60200260200101518287815181106123c6576123c661407e565b6020026020010151866020015187608001518c612bfe565b846060018181516123ef919061413d565b905250815161243c9083908790811061240a5761240a61407e565b60200260200101518287815181106124245761242461407e565b6020026020010151866000015187608001518c612bfe565b8460400181815161244d919061413d565b90525060019094019361238e565b5091979650505050505050565b612470613917565b60015460408051630824c3e960e21b815290516000926001600160a01b0316916320930fa49160048083019260209291908290030181865afa1580156124ba573d6000803e3d6000fd5b505050506040513d601f19601f820116820180604052508101906124de9190614048565b6001600160a01b031663132c58e96040518163ffffffff1660e01b8152600401602060405180830381865afa15801561251b573d6000803e3d6000fd5b505050506040513d601f19601f8201168201806040525081019061253f9190614065565b90506000600160009054906101000a90046001600160a01b03166001600160a01b03166320930fa46040518163ffffffff1660e01b8152600401602060405180830381865afa158015612596573d6000803e3d6000fd5b505050506040513d601f19601f820116820180604052508101906125ba9190614048565b6001600160a01b031663916e1c576040518163ffffffff1660e01b8152600401602060405180830381865afa1580156125f7573d6000803e3d6000fd5b505050506040513d601f19601f8201168201806040525081019061261b9190614065565b90506000600160009054906101000a90046001600160a01b03166001600160a01b0316631bb2f4526040518163ffffffff1660e01b8152600401602060405180830381865afa158015612672573d6000803e3d6000fd5b505050506040513d601f19601f820116820180604052508101906126969190614048565b6001600160a01b031663e5c8307d88846040518363ffffffff1660e01b81526004016126c3929190614200565b602060405180830381865afa1580156126e0573d6000803e3d6000fd5b505050506040513d601f19601f820116820180604052508101906127049190614065565b60008381526002602081815260408084208c85529092019052812060010154919250906127319083614150565b9050600087606001518561277a846002600089815260200190815260200160002060020160008e8152602001908152602001600020600001548c602001518d608001518d612bfe565b612784919061420e565b61278e9190614225565b905060008860400151866127d786600260008a815260200190815260200160002060020160008f8152602001908152602001600020600001548d600001518e608001518e612bfe565b6127e1919061420e565b6127eb9190614225565b90506000600160009054906101000a90046001600160a01b03166001600160a01b03166320930fa46040518163ffffffff1660e01b8152600401602060405180830381865afa158015612842573d6000803e3d6000fd5b505050506040513d601f19601f820116820180604052508101906128669190614048565b6001600160a01b031663b3a7b9da878d6040518363ffffffff1660e01b8152600401612893929190614200565b60e060405180830381865afa1580156128b0573d6000803e3d6000fd5b505050506040513d601f19601f820116820180604052508101906128d49190614247565b60600151905060405180606001604052808c8152602001600160009054906101000a90046001600160a01b03166001600160a01b03166320930fa46040518163ffffffff1660e01b8152600401602060405180830381865afa15801561293e573d6000803e3d6000fd5b505050506040513d601f19601f820116820180604052508101906129629190614048565b6001600160a01b031663572d356e6040518163ffffffff1660e01b8152600401602060405180830381865afa15801561299f573d6000803e3d6000fd5b505050506040513d601f19601f820116820180604052508101906129c39190614065565b600160009054906101000a90046001600160a01b03166001600160a01b03166320930fa46040518163ffffffff1660e01b8152600401602060405180830381865afa158015612a16573d6000803e3d6000fd5b505050506040513d601f19601f82011682018060405250810190612a3a9190614048565b6001600160a01b031663d7033ca06040518163ffffffff1660e01b8152600401602060405180830381865afa158015612a77573d6000803e3d6000fd5b505050506040513d601f19601f82011682018060405250810190612a9b9190614065565b88612aa6878761420e565b612ab09190614225565b612abc9061016d61420e565b612ac6919061420e565b612ad09190614225565b815260200185612ae0868561420e565b612aea9190614225565b90529750505050505050505b9392505050565b6000818152600260208181526040808420868552909201815281832060019081015490548351630824c3e960e21b8152935191936001600160a01b03909116926320930fa4926004808401938290030181865afa158015612b62573d6000803e3d6000fd5b505050506040513d601f19601f82011682018060405250810190612b869190614048565b6001600160a01b0316632420e68884866040518363ffffffff1660e01b8152600401612bb3929190614200565b602060405180830381865afa158015612bd0573d6000803e3d6000fd5b505050506040513d601f19601f82011682018060405250810190612bf49190614065565b612af69190614150565b60008060008511612c10576000612c2d565b84612c2388670de0b6b3a764000061420e565b612c2d9190614225565b90506000808511612c3f576000612c5c565b84612c5288670de0b6b3a764000061420e565b612c5c9190614225565b90506000808551600203612cb95785600081518110612c7d57612c7d61407e565b6020026020010151915085600180811115612c9a57612c9a6142d3565b81518110612caa57612caa61407e565b60200260200101519050612d0c565b8551600003612cf3575050600360205260008051602061442c83398151915254600160005260008051602061438c83398151915254612d0c565b60405163b5c0c3e160e01b815260040160405180910390fd5b68056bc75e2d63100000612d20848361420e565b612d2a868561420e565b612d34919061413d565b612d3e9190614225565b9a9950505050505050505050565b612d546136d3565b6000612d5e612f5b565b805460ff1916815590507f5db9ee0a495bf2e6ff9c91a7834c1ba4fdd244a5e8aa4e537bd38aeae4b073aa335b604051612d9891906139c3565b60405180910390a150565b306001600160a01b037f0000000000000000000000000000000000000000000000000000000000000000161480612e2a57507f00000000000000000000000000000000000000000000000000000000000000006001600160a01b0316612e1e6000805160206143ac833981519152546001600160a01b031690565b6001600160a01b031614155b15612e485760405163703e46dd60e11b815260040160405180910390fd5b565b6000610c0b81611ce2565b816001600160a01b03166352d1902d6040518163ffffffff1660e01b8152600401602060405180830381865afa925050508015612eaf575060408051601f3d908101601f19168201909252612eac91810190614065565b60015b612ed75781604051634c9c8ce360e01b8152600401612ece91906139c3565b60405180910390fd5b6000805160206143ac8339815191528114612f0857604051632a87526960e21b815260048101829052602401612ece565b6107d383836136f8565b306001600160a01b037f00000000000000000000000000000000000000000000000000000000000000001614612e485760405163703e46dd60e11b815260040160405180910390fd5b7fcd5ed15c6e187e77e9aee88184c21f4f2182ab5827cb3b7e07fbedcd63f0330090565b612f87612fc6565b6000612f91612f5b565b805460ff1916600117815590507f62e78cea01bee320cd4e420270b5ea74000d11b0c9f74754ebdbfc544b05a258612d8b3390565b612fce610c2c565b15612e485760405163d93c066560e01b815260040160405180910390fd5b60015460408051630824c3e960e21b815290516000926001600160a01b0316916320930fa49160048083019260209291908290030181865afa158015613036573d6000803e3d6000fd5b505050506040513d601f19601f8201168201806040525081019061305a9190614048565b6001600160a01b031663c6b61e4c846040518263ffffffff1660e01b815260040161308791815260200190565b600060405180830381865afa1580156130a4573d6000803e3d6000fd5b505050506040513d6000823e601f3d908101601f191682016040526130cc9190810190614163565b606081015190915015156001036130f657604051634b5e16a360e01b815260040160405180910390fd5b60006131dc84600160009054906101000a90046001600160a01b03166001600160a01b03166320930fa46040518163ffffffff1660e01b8152600401602060405180830381865afa15801561314f573d6000803e3d6000fd5b505050506040513d601f19601f820116820180604052508101906131739190614048565b6001600160a01b031663c53036f46040518163ffffffff1660e01b8152600401602060405180830381865afa1580156131b0573d6000803e3d6000fd5b505050506040513d601f19601f820116820180604052508101906131d49190614065565b856000610b26565b905060008060005b8351811015613220578381815181106131ff576131ff61407e565b60200260200101516020015183613216919061413d565b92506001016131e4565b50825160009081816001600160401b0381111561323f5761323f613a20565b60405190808252806020026020018201604052801561329457816020015b61328160405180606001604052806000815260200160008152602001600081525090565b81526020019060019003908161325d5790505b509050600080600095505b83861015613467578786815181106132b9576132b961407e565b6020026020010151600001519450600087116132d657600061330e565b8689604001518988815181106132ee576132ee61407e565b602002602001015160200151613304919061420e565b61330e9190614225565b915068056bc75e2d63100000600160009054906101000a90046001600160a01b03166001600160a01b03166320930fa46040518163ffffffff1660e01b8152600401602060405180830381865afa15801561336d573d6000803e3d6000fd5b505050506040513d601f19601f820116820180604052508101906133919190614048565b6001600160a01b031663b3a7b9da8d886040518363ffffffff1660e01b81526004016133be929190614200565b60e060405180830381865afa1580156133db573d6000803e3d6000fd5b505050506040513d601f19601f820116820180604052508101906133ff9190614247565b6060015161340d908461420e565b6134179190614225565b9050604051806060016040528086815260200182846134369190614150565b8152602001828152508387815181106134515761345161407e565b602002602001018190525085600101955061329f565b600160009054906101000a90046001600160a01b03166001600160a01b03166320930fa46040518163ffffffff1660e01b8152600401602060405180830381865afa1580156134ba573d6000803e3d6000fd5b505050506040513d601f19601f820116820180604052508101906134de9190614048565b6001600160a01b031663cd0081a78c856040518363ffffffff1660e01b815260040161350b9291906142e9565b600060405180830381600087803b15801561352557600080fd5b505af1158015613539573d6000803e3d6000fd5b505050505050505050505050505050565b613554818361413d565b68056bc75e2d631000001461357c5760405163b5c0c3e160e01b815260040160405180910390fd5b600360205260008051602061442c8339815191528290556001600081905260008051602061438c83398151915282905560405160008051602061440c833981519152916135ca918490614343565b60405180910390a160008051602061440c8339815191526000836040516135f2929190614343565b60405180910390a15050565b7ff0c57e16840df040f15088dc2f81fe391c3923bec73e23a9662efc9c229c6a0090565b612e4861374e565b61363261374e565b612e48613773565b6000613644611cec565b905060006136518461075e565b600085815260208490526040808220600101869055519192508491839187917fbd79b86ffe0ab8e8776151514217cd7cacd52c909f66475c3af44e129f0b00ff9190a450505050565b6136a48282610db6565b610c0b5760405163e2517d3f60e01b81526001600160a01b038216600482015260248101839052604401612ece565b6136db610c2c565b612e4857604051638dfc202b60e01b815260040160405180910390fd5b61370182613790565b6040516001600160a01b038316907fbc7cd75a20ee27fd9adebab32041f755214dbc6bffa90cc0225b39da2e5c2d3b90600090a2805115613746576107d382826137ec565b610c0b613862565b613756613881565b612e4857604051631afcd79f60e31b815260040160405180910390fd5b61377b61374e565b6000613785612f5b565b805460ff1916905550565b806001600160a01b03163b6000036137bd5780604051634c9c8ce360e01b8152600401612ece91906139c3565b6000805160206143ac83398151915280546001600160a01b0319166001600160a01b0392909216919091179055565b6060600080846001600160a01b031684604051613809919061436f565b600060405180830381855af49150503d8060008114613844576040519150601f19603f3d011682016040523d82523d6000602084013e613849565b606091505b509150915061385985838361389b565b95945050505050565b3415612e485760405163b398979f60e01b815260040160405180910390fd5b600061388b6135fe565b54600160401b900460ff16919050565b6060826138b0576138ab826138ee565b612af6565b81511580156138c757506001600160a01b0384163b155b156138e75783604051639996b31560e01b8152600401612ece91906139c3565b5080612af6565b8051156138fe5780518082602001fd5b604051630a12f52160e11b815260040160405180910390fd5b60405180606001604052806000815260200160008152602001600081525090565b6040518060a0016040528060008152602001600081526020016000815260200160008152602001600081525090565b6001600160a01b0381168114610bb257600080fd5b60006020828403121561398e57600080fd5b8135612af681613967565b6000602082840312156139ab57600080fd5b81356001600160e01b031981168114612af657600080fd5b6001600160a01b0391909116815260200190565b6000602082840312156139e957600080fd5b5035919050565b60008060408385031215613a0357600080fd5b823591506020830135613a1581613967565b809150509250929050565b634e487b7160e01b600052604160045260246000fd5b604080519081016001600160401b0381118282101715613a5857613a58613a20565b60405290565b60405160a081016001600160401b0381118282101715613a5857613a58613a20565b604051601f8201601f191681016001600160401b0381118282101715613aa857613aa8613a20565b604052919050565b60006001600160401b03821115613ac957613ac9613a20565b5060051b60200190565b600082601f830112613ae457600080fd5b81356020613af9613af483613ab0565b613a80565b8083825260208201915060208460051b870101935086841115613b1b57600080fd5b602086015b84811015613b375780358352918301918301613b20565b509695505050505050565b60008060408385031215613b5557600080fd5b82356001600160401b0380821115613b6c57600080fd5b613b7886838701613ad3565b93506020850135915080821115613b8e57600080fd5b50613b9b85828601613ad3565b9150509250929050565b8051825260208082015190830152604090810151910152565b6020808252825182820181905260009190848201906040850190845b81811015613c0057613bed838551613ba5565b9284019260609290920191600101613bda565b50909695505050505050565b602080825282518282018190526000919060409081850190868401855b8281101561245b57613c4684835180518252602090810151910152565b9284019290850190600101613c29565b600080600080600060a08688031215613c6e57600080fd5b8535945060208601359350604086013592506060860135915060808601356001600160401b03811115613ca057600080fd5b613cac88828901613ad3565b9150509295509295909350565b60008060408385031215613ccc57600080fd5b8235613cd781613967565b91506020838101356001600160401b0380821115613cf457600080fd5b818601915086601f830112613d0857600080fd5b813581811115613d1a57613d1a613a20565b613d2c601f8201601f19168501613a80565b91508082528784828501011115613d4257600080fd5b80848401858401376000848284010152508093505050509250929050565b8015158114610bb257600080fd5b60008060008060808587031215613d8457600080fd5b8435935060208501359250604085013591506060850135613da481613d60565b939692955090935050565b600060208284031215613dc157600080fd5b81356001600160401b03811115613dd757600080fd5b61163584828501613ad3565b6020808252825182820181905260009190848201906040850190845b81811015613c0057835183529284019291840191600101613dff565b600060208284031215613e2d57600080fd5b813560028110612af657600080fd5b6000806040808486031215613e5057600080fd5b833592506020808501356001600160401b03811115613e6e57600080fd5b8501601f81018713613e7f57600080fd5b8035613e8d613af482613ab0565b81815260069190911b82018301908381019089831115613eac57600080fd5b928401925b82841015613eec5785848b031215613ec95760008081fd5b613ed1613a36565b84358152858501358682015282529285019290840190613eb1565b8096505050505050509250929050565b60008060008060808587031215613f1257600080fd5b843593506020850135925060408501356001600160401b0380821115613f3757600080fd5b613f4388838901613ad3565b93506060870135915080821115613f5957600080fd5b50613f6687828801613ad3565b91505092959194509250565b60008060408385031215613f8557600080fd5b50508035926020909101359150565b60005b83811015613faf578181015183820152602001613f97565b50506000910152565b6020815260008251806020840152613fd7816040850160208701613f94565b601f01601f19169190910160400192915050565b815181526020808301519082015260408101610758565b6000806000806080858703121561401857600080fd5b843561402381613967565b9350602085013561403381613967565b93969395505050506040820135916060013590565b60006020828403121561405a57600080fd5b8151612af681613967565b60006020828403121561407757600080fd5b5051919050565b634e487b7160e01b600052603260045260246000fd5b600082601f8301126140a557600080fd5b815160206140b5613af483613ab0565b8083825260208201915060208460051b8701019350868411156140d757600080fd5b602086015b84811015613b3757805183529183019183016140dc565b60006020828403121561410557600080fd5b81516001600160401b0381111561411b57600080fd5b61163584828501614094565b634e487b7160e01b600052601160045260246000fd5b8082018082111561075857610758614127565b8181038181111561075857610758614127565b60006020828403121561417557600080fd5b81516001600160401b038082111561418c57600080fd5b9083019060a082860312156141a057600080fd5b6141a8613a5e565b82518152602083015160208201526040830151604082015260608301516141ce81613d60565b60608201526080830151828111156141e557600080fd5b6141f187828601614094565b60808301525095945050505050565b918252602082015260400190565b808202811582820484141761075857610758614127565b60008261424257634e487b7160e01b600052601260045260246000fd5b500490565b600060e0828403121561425957600080fd5b60405160e081016001600160401b038111828210171561427b5761427b613a20565b60405282518152602083015161429081613d60565b8060208301525060408301516040820152606083015160608201526080830151608082015260a083015160a082015260c083015160c08201528091505092915050565b634e487b7160e01b600052602160045260246000fd5b600060408201848352602060406020850152818551808452606093506060860191506020870160005b8281101561433557614325848351613ba5565b9285019290840190600101614312565b509198975050505050505050565b604081016002841061436557634e487b7160e01b600052602160045260246000fd5b9281526020015290565b60008251614381818460208701613f94565b919091019291505056fea15bc60c955c405d20d9149c709e2460f1c2d9a497496a7f46004d1772c3054c360894a13ba1a3210667c828492db98dca3e2076cc3735a920a3ca505d382bbc241ecf16d79d0f8dbfb92cbc07fe17840425976cf0667f022fe9877caa831b087a1532a7a87f7aacbb5e1d89fc13c95143d976fa27740467ab52d352a319ec6bef783485acfab8a5c4973c0e812a2b69d85355a7456c94fe3e779bc85017f2fe3617319a054d772f909f7c479a2cebe5066e836a939412e32403c99029b92eff339759585899103d2ace64958e37e18ccb0504652c81d4a1b8aa80fe2126ab95a26469706673582212201d3786352f515c554340f1a5c9730b73558bbfcf2d81fa002cce08ce404fcbfb64736f6c63430008180033",
  "devdoc": {
    "errors": {
      "AccessControlBadConfirmation()": [
        {
          "details": "The caller of a function is not the expected one. NOTE: Don't confuse with {AccessControlUnauthorizedAccount}."
        }
      ],
      "AccessControlUnauthorizedAccount(address,bytes32)": [
        {
          "details": "The `account` is missing a role."
        }
      ],
      "AddressEmptyCode(address)": [
        {
          "details": "There's no code at `target` (it is not a contract)."
        }
      ],
      "ERC1967InvalidImplementation(address)": [
        {
          "details": "The `implementation` of the proxy is invalid."
        }
      ],
      "ERC1967NonPayable()": [
        {
          "details": "An upgrade function sees `msg.value > 0` that may be lost."
        }
      ],
      "EnforcedPause()": [
        {
          "details": "The operation failed because the contract is paused."
        }
      ],
      "ExpectedPause()": [
        {
          "details": "The operation failed because the contract is not paused."
        }
      ],
      "FailedInnerCall()": [
        {
          "details": "A call to an address target failed. The target may have reverted."
        }
      ],
      "InvalidInitialization()": [
        {
          "details": "The contract is already initialized."
        }
      ],
      "NotInitializing()": [
        {
          "details": "The contract is not initializing."
        }
      ],
      "UUPSUnauthorizedCallContext()": [
        {
          "details": "The call is from an unauthorized context."
        }
      ],
      "UUPSUnsupportedProxiableUUID(bytes32)": [
        {
          "details": "The storage `slot` is unsupported as a UUID."
        }
      ]
    },
    "events": {
      "Initialized(uint64)": {
        "details": "Triggered when the contract has been initialized or reinitialized."
      },
      "Paused(address)": {
        "details": "Emitted when the pause is triggered by `account`."
      },
      "RoleAdminChanged(bytes32,bytes32,bytes32)": {
        "details": "Emitted when `newAdminRole` is set as ``role``'s admin role, replacing `previousAdminRole` `DEFAULT_ADMIN_ROLE` is the starting admin for all roles, despite {RoleAdminChanged} not being emitted signaling this."
      },
      "RoleGranted(bytes32,address,address)": {
        "details": "Emitted when `account` is granted `role`. `sender` is the account that originated the contract call, an admin role bearer except when using {AccessControl-_setupRole}."
      },
      "RoleRevoked(bytes32,address,address)": {
        "details": "Emitted when `account` is revoked `role`. `sender` is the account that originated the contract call:   - if using `revokeRole`, it is the admin role bearer   - if using `renounceRole`, it is the role bearer (i.e. `account`)"
      },
      "Unpaused(address)": {
        "details": "Emitted when the pause is lifted by `account`."
      },
      "Upgraded(address)": {
        "details": "Emitted when the implementation is upgraded."
      }
    },
    "kind": "dev",
    "methods": {
      "constructor": {
        "custom:oz-upgrades-unsafe-allow": "constructor"
      },
      "estimatedDlpRewardPercentagesCustomized(uint256[],uint256[])": {
        "details": "Calculates based on ratings and current epoch parameters"
      },
      "finalizeEpoch(uint256)": {
        "params": {
          "epochId": "The epoch ID to save performanceRatings for"
        }
      },
      "getRoleAdmin(bytes32)": {
        "details": "Returns the admin role that controls `role`. See {grantRole} and {revokeRole}. To change a role's admin, use {_setRoleAdmin}."
      },
      "grantRole(bytes32,address)": {
        "details": "Grants `role` to `account`. If `account` had not been already granted `role`, emits a {RoleGranted} event. Requirements: - the caller must have ``role``'s admin role. May emit a {RoleGranted} event."
      },
      "hasRole(bytes32,address)": {
        "details": "Returns `true` if `account` has been granted `role`."
      },
      "paused()": {
        "details": "Returns true if the contract is paused, and false otherwise."
      },
      "proxiableUUID()": {
        "details": "Implementation of the ERC1822 {proxiableUUID} function. This returns the storage slot used by the implementation. It is used to validate the implementation's compatibility when performing an upgrade. IMPORTANT: A proxy pointing at a proxiable contract should not be considered proxiable itself, because this risks bricking a proxy that upgrades to it, by delegating to itself until out of gas. Thus it is critical that this function revert if invoked through a proxy. This is guaranteed by the `notDelegated` modifier."
      },
      "renounceRole(bytes32,address)": {
        "details": "Revokes `role` from the calling account. Roles are often managed via {grantRole} and {revokeRole}: this function's purpose is to provide a mechanism for accounts to lose their privileges if they are compromised (such as when a trusted device is misplaced). If the calling account had been revoked `role`, emits a {RoleRevoked} event. Requirements: - the caller must be `callerConfirmation`. May emit a {RoleRevoked} event."
      },
      "revokeRole(bytes32,address)": {
        "details": "Revokes `role` from `account`. If `account` had been granted `role`, emits a {RoleRevoked} event. Requirements: - the caller must have ``role``'s admin role. May emit a {RoleRevoked} event."
      },
      "saveEpochPerformanceRatings(uint256,(uint256,uint256)[])": {
        "params": {
          "dlpPerformanceRatings": "Array of DLP performanceRatings to save",
          "epochId": "The epoch ID to save performanceRatings for"
        }
      },
      "supportsInterface(bytes4)": {
        "details": "See {IERC165-supportsInterface}."
      },
      "topDlpsCustomized(uint256,uint256,uint256[],uint256[])": {
        "details": "Uses insertion sort to maintain ordered list"
      },
      "upgradeToAndCall(address,bytes)": {
        "custom:oz-upgrades-unsafe-allow-reachable": "delegatecall",
        "details": "Upgrade the implementation of the proxy to `newImplementation`, and subsequently execute the function call encoded in `data`. Calls {_authorizeUpgrade}. Emits an {Upgraded} event."
      }
    },
    "version": 1
  },
  "userdoc": {
    "kind": "user",
    "methods": {
      "estimatedDlpRewardPercentagesCustomized(uint256[],uint256[])": {
        "notice": "Estimates reward percentages for given DLPs"
      },
      "finalizeEpoch(uint256)": {
        "notice": "Saves or updates epoch performanceRatings for DLPs"
      },
      "getMultiplier(uint256)": {
        "notice": "Returns stake score multiplier based number of days staked"
      },
      "saveEpochPerformanceRatings(uint256,(uint256,uint256)[])": {
        "notice": "Saves or updates epoch performanceRatings for DLPs"
      },
      "topDlpsCustomized(uint256,uint256,uint256[],uint256[])": {
        "notice": "Gets top DLP IDs by rating (performanceRating + stakeRating)"
      }
    },
    "version": 1
  },
  "storageLayout": {
    "storage": [
      {
        "astId": 7756,
        "contract": "contracts/rootMetrics/DLPRootMetricsImplementation.sol:DLPRootMetricsImplementation",
        "label": "_trustedForwarder",
        "offset": 0,
        "slot": "0",
        "type": "t_address"
      },
      {
        "astId": 7760,
        "contract": "contracts/rootMetrics/DLPRootMetricsImplementation.sol:DLPRootMetricsImplementation",
        "label": "dlpRoot",
        "offset": 0,
        "slot": "1",
        "type": "t_contract(IDLPRoot)5438"
      },
      {
        "astId": 7765,
        "contract": "contracts/rootMetrics/DLPRootMetricsImplementation.sol:DLPRootMetricsImplementation",
        "label": "_epochs",
        "offset": 0,
        "slot": "2",
        "type": "t_mapping(t_uint256,t_struct(Epoch)7805_storage)"
      },
      {
        "astId": 7771,
        "contract": "contracts/rootMetrics/DLPRootMetricsImplementation.sol:DLPRootMetricsImplementation",
        "label": "ratingPercentages",
        "offset": 0,
        "slot": "3",
        "type": "t_mapping(t_enum(RatingType)7790,t_uint256)"
      },
      {
        "astId": 7773,
        "contract": "contracts/rootMetrics/DLPRootMetricsImplementation.sol:DLPRootMetricsImplementation",
        "label": "_foundationWalletAddress",
        "offset": 0,
        "slot": "4",
        "type": "t_address_payable"
      }
    ],
    "types": {
      "t_address": {
        "encoding": "inplace",
        "label": "address",
        "numberOfBytes": "20"
      },
      "t_address_payable": {
        "encoding": "inplace",
        "label": "address payable",
        "numberOfBytes": "20"
      },
      "t_bool": {
        "encoding": "inplace",
        "label": "bool",
        "numberOfBytes": "1"
      },
      "t_contract(IDLPRoot)5438": {
        "encoding": "inplace",
        "label": "contract IDLPRoot",
        "numberOfBytes": "20"
      },
      "t_enum(RatingType)7790": {
        "encoding": "inplace",
        "label": "enum IDLPRootMetrics.RatingType",
        "numberOfBytes": "1"
      },
      "t_mapping(t_enum(RatingType)7790,t_uint256)": {
        "encoding": "mapping",
        "key": "t_enum(RatingType)7790",
        "label": "mapping(enum IDLPRootMetrics.RatingType => uint256)",
        "numberOfBytes": "32",
        "value": "t_uint256"
      },
      "t_mapping(t_uint256,t_struct(Epoch)7805_storage)": {
        "encoding": "mapping",
        "key": "t_uint256",
        "label": "mapping(uint256 => struct IDLPRootMetrics.Epoch)",
        "numberOfBytes": "32",
        "value": "t_struct(Epoch)7805_storage"
      },
      "t_mapping(t_uint256,t_struct(EpochDlp)7795_storage)": {
        "encoding": "mapping",
        "key": "t_uint256",
        "label": "mapping(uint256 => struct IDLPRootMetrics.EpochDlp)",
        "numberOfBytes": "32",
        "value": "t_struct(EpochDlp)7795_storage"
      },
      "t_struct(Epoch)7805_storage": {
        "encoding": "inplace",
        "label": "struct IDLPRootMetrics.Epoch",
        "members": [
          {
            "astId": 7797,
            "contract": "contracts/rootMetrics/DLPRootMetricsImplementation.sol:DLPRootMetricsImplementation",
            "label": "totalPerformanceRating",
            "offset": 0,
            "slot": "0",
            "type": "t_uint256"
          },
          {
            "astId": 7799,
            "contract": "contracts/rootMetrics/DLPRootMetricsImplementation.sol:DLPRootMetricsImplementation",
            "label": "finalized",
            "offset": 0,
            "slot": "1",
            "type": "t_bool"
          },
          {
            "astId": 7804,
            "contract": "contracts/rootMetrics/DLPRootMetricsImplementation.sol:DLPRootMetricsImplementation",
            "label": "dlps",
            "offset": 0,
            "slot": "2",
            "type": "t_mapping(t_uint256,t_struct(EpochDlp)7795_storage)"
          }
        ],
        "numberOfBytes": "96"
      },
      "t_struct(EpochDlp)7795_storage": {
        "encoding": "inplace",
        "label": "struct IDLPRootMetrics.EpochDlp",
        "members": [
          {
            "astId": 7792,
            "contract": "contracts/rootMetrics/DLPRootMetricsImplementation.sol:DLPRootMetricsImplementation",
            "label": "performanceRating",
            "offset": 0,
            "slot": "0",
            "type": "t_uint256"
          },
          {
            "astId": 7794,
            "contract": "contracts/rootMetrics/DLPRootMetricsImplementation.sol:DLPRootMetricsImplementation",
            "label": "stakeAmountAdjustment",
            "offset": 0,
            "slot": "1",
            "type": "t_uint256"
          }
        ],
        "numberOfBytes": "64"
      },
      "t_uint256": {
        "encoding": "inplace",
        "label": "uint256",
        "numberOfBytes": "32"
      }
    }
  }
}