{
  "address": "0xB6D87132dB26735569CBF6c0503589A6eADd81C7",
  "abi": [
    {
      "inputs": [],
      "stateMutability": "nonpayable",
      "type": "constructor"
    },
    {
      "inputs": [],
      "name": "AccessControlBadConfirmation",
      "type": "error"
    },
    {
      "inputs": [
        {
          "internalType": "address",
          "name": "account",
          "type": "address"
        },
        {
          "internalType": "bytes32",
          "name": "neededRole",
          "type": "bytes32"
        }
      ],
      "name": "AccessControlUnauthorizedAccount",
      "type": "error"
    },
    {
      "inputs": [
        {
          "internalType": "address",
          "name": "target",
          "type": "address"
        }
      ],
      "name": "AddressEmptyCode",
      "type": "error"
    },
    {
      "inputs": [],
      "name": "DlpAddressCannotBeChanged",
      "type": "error"
    },
    {
      "inputs": [
        {
          "internalType": "address",
          "name": "implementation",
          "type": "address"
        }
      ],
      "name": "ERC1967InvalidImplementation",
      "type": "error"
    },
    {
      "inputs": [],
      "name": "ERC1967NonPayable",
      "type": "error"
    },
    {
      "inputs": [],
      "name": "EnforcedPause",
      "type": "error"
    },
    {
      "inputs": [],
      "name": "EpochDlpScoreAlreadySaved",
      "type": "error"
    },
    {
      "inputs": [],
      "name": "EpochNotEnded",
      "type": "error"
    },
    {
      "inputs": [],
      "name": "EpochRewardsAlreadyDistributed",
      "type": "error"
    },
    {
      "inputs": [],
      "name": "ExpectedPause",
      "type": "error"
    },
    {
      "inputs": [],
      "name": "FailedInnerCall",
      "type": "error"
    },
    {
      "inputs": [],
      "name": "InvalidAddress",
      "type": "error"
    },
    {
      "inputs": [],
      "name": "InvalidDlpId",
      "type": "error"
    },
    {
      "inputs": [],
      "name": "InvalidDlpStatus",
      "type": "error"
    },
    {
      "inputs": [],
      "name": "InvalidInitialization",
      "type": "error"
    },
    {
      "inputs": [],
      "name": "InvalidName",
      "type": "error"
    },
    {
      "inputs": [],
      "name": "InvalidParam",
      "type": "error"
    },
    {
      "inputs": [],
      "name": "InvalidStakeAmount",
      "type": "error"
    },
    {
      "inputs": [],
      "name": "InvalidStakersPercentage",
      "type": "error"
    },
    {
      "inputs": [],
      "name": "LastEpochMustBeFinalised",
      "type": "error"
    },
    {
      "inputs": [],
      "name": "NotDlpOwner",
      "type": "error"
    },
    {
      "inputs": [],
      "name": "NotInitializing",
      "type": "error"
    },
    {
      "inputs": [],
      "name": "NotStakeOwner",
      "type": "error"
    },
    {
      "inputs": [],
      "name": "NothingToClaim",
      "type": "error"
    },
    {
      "inputs": [],
      "name": "ReentrancyGuardReentrantCall",
      "type": "error"
    },
    {
      "inputs": [],
      "name": "StakeAlreadyClosed",
      "type": "error"
    },
    {
      "inputs": [],
      "name": "StakeAlreadyWithdrawn",
      "type": "error"
    },
    {
      "inputs": [],
      "name": "StakeNotClosed",
      "type": "error"
    },
    {
      "inputs": [],
      "name": "StakeWithdrawalTooEarly",
      "type": "error"
    },
    {
      "inputs": [],
      "name": "TransferFailed",
      "type": "error"
    },
    {
      "inputs": [],
      "name": "UUPSUnauthorizedCallContext",
      "type": "error"
    },
    {
      "inputs": [
        {
          "internalType": "bytes32",
          "name": "slot",
          "type": "bytes32"
        }
      ],
      "name": "UUPSUnsupportedProxiableUUID",
      "type": "error"
    },
    {
      "anonymous": false,
      "inputs": [
        {
          "indexed": true,
          "internalType": "uint256",
          "name": "dlpId",
          "type": "uint256"
        },
        {
          "indexed": true,
          "internalType": "uint256",
          "name": "epochId",
          "type": "uint256"
        },
        {
          "indexed": false,
          "internalType": "uint256",
          "name": "ownerRewardAmount",
          "type": "uint256"
        },
        {
          "indexed": false,
          "internalType": "uint256",
          "name": "stakersRewardAmount",
          "type": "uint256"
        }
      ],
      "name": "DlpRewardClaimed",
      "type": "event"
    },
    {
      "anonymous": false,
      "inputs": [
        {
          "indexed": false,
          "internalType": "uint256",
          "name": "epochId",
          "type": "uint256"
        },
        {
          "indexed": false,
          "internalType": "uint256",
          "name": "startBlock",
          "type": "uint256"
        },
        {
          "indexed": false,
          "internalType": "uint256",
          "name": "endBlock",
          "type": "uint256"
        },
        {
          "indexed": false,
          "internalType": "uint256",
          "name": "rewardAmount",
          "type": "uint256"
        }
      ],
      "name": "EpochCreated",
      "type": "event"
    },
    {
      "anonymous": false,
      "inputs": [
        {
          "indexed": true,
          "internalType": "uint256",
          "name": "epochId",
          "type": "uint256"
        },
        {
          "indexed": true,
          "internalType": "uint256",
          "name": "dlpId",
          "type": "uint256"
        },
        {
          "indexed": false,
          "internalType": "uint256",
          "name": "totalStakesScore",
          "type": "uint256"
        }
      ],
      "name": "EpochDlpScoreSaved",
      "type": "event"
    },
    {
      "anonymous": false,
      "inputs": [
        {
          "indexed": false,
          "internalType": "uint256",
          "name": "newEpochDlpsLimit",
          "type": "uint256"
        }
      ],
      "name": "EpochDlpsLimitUpdated",
      "type": "event"
    },
    {
      "anonymous": false,
      "inputs": [
        {
          "indexed": false,
          "internalType": "uint256",
          "name": "epochId",
          "type": "uint256"
        },
        {
          "indexed": false,
          "internalType": "uint256",
          "name": "startBlock",
          "type": "uint256"
        },
        {
          "indexed": false,
          "internalType": "uint256",
          "name": "endBlock",
          "type": "uint256"
        },
        {
          "indexed": false,
          "internalType": "uint256",
          "name": "rewardAmount",
          "type": "uint256"
        }
      ],
      "name": "EpochOverridden",
      "type": "event"
    },
    {
      "anonymous": false,
      "inputs": [
        {
          "indexed": false,
          "internalType": "uint256",
          "name": "newEpochRewardAmount",
          "type": "uint256"
        }
      ],
      "name": "EpochRewardAmountUpdated",
      "type": "event"
    },
    {
      "anonymous": false,
      "inputs": [
        {
          "indexed": false,
          "internalType": "uint256",
          "name": "newEpochSize",
          "type": "uint256"
        }
      ],
      "name": "EpochSizeUpdated",
      "type": "event"
    },
    {
      "anonymous": false,
      "inputs": [
        {
          "indexed": false,
          "internalType": "uint64",
          "name": "version",
          "type": "uint64"
        }
      ],
      "name": "Initialized",
      "type": "event"
    },
    {
      "anonymous": false,
      "inputs": [
        {
          "indexed": false,
          "internalType": "address",
          "name": "account",
          "type": "address"
        }
      ],
      "name": "Paused",
      "type": "event"
    },
    {
      "anonymous": false,
      "inputs": [
        {
          "indexed": true,
          "internalType": "bytes32",
          "name": "role",
          "type": "bytes32"
        },
        {
          "indexed": true,
          "internalType": "bytes32",
          "name": "previousAdminRole",
          "type": "bytes32"
        },
        {
          "indexed": true,
          "internalType": "bytes32",
          "name": "newAdminRole",
          "type": "bytes32"
        }
      ],
      "name": "RoleAdminChanged",
      "type": "event"
    },
    {
      "anonymous": false,
      "inputs": [
        {
          "indexed": true,
          "internalType": "bytes32",
          "name": "role",
          "type": "bytes32"
        },
        {
          "indexed": true,
          "internalType": "address",
          "name": "account",
          "type": "address"
        },
        {
          "indexed": true,
          "internalType": "address",
          "name": "sender",
          "type": "address"
        }
      ],
      "name": "RoleGranted",
      "type": "event"
    },
    {
      "anonymous": false,
      "inputs": [
        {
          "indexed": true,
          "internalType": "bytes32",
          "name": "role",
          "type": "bytes32"
        },
        {
          "indexed": true,
          "internalType": "address",
          "name": "account",
          "type": "address"
        },
        {
          "indexed": true,
          "internalType": "address",
          "name": "sender",
          "type": "address"
        }
      ],
      "name": "RoleRevoked",
      "type": "event"
    },
    {
      "anonymous": false,
      "inputs": [
        {
          "indexed": false,
          "internalType": "address",
          "name": "account",
          "type": "address"
        }
      ],
      "name": "Unpaused",
      "type": "event"
    },
    {
      "anonymous": false,
      "inputs": [
        {
          "indexed": true,
          "internalType": "address",
          "name": "implementation",
          "type": "address"
        }
      ],
      "name": "Upgraded",
      "type": "event"
    },
    {
      "inputs": [],
      "name": "DEFAULT_ADMIN_ROLE",
      "outputs": [
        {
          "internalType": "bytes32",
          "name": "",
          "type": "bytes32"
        }
      ],
      "stateMutability": "view",
      "type": "function"
    },
    {
      "inputs": [],
      "name": "DLP_ROOT_METRICS_ROLE",
      "outputs": [
        {
          "internalType": "bytes32",
          "name": "",
          "type": "bytes32"
        }
      ],
      "stateMutability": "view",
      "type": "function"
    },
    {
      "inputs": [],
      "name": "MAINTAINER_ROLE",
      "outputs": [
        {
          "internalType": "bytes32",
          "name": "",
          "type": "bytes32"
        }
      ],
      "stateMutability": "view",
      "type": "function"
    },
    {
      "inputs": [],
      "name": "MANAGER_ROLE",
      "outputs": [
        {
          "internalType": "bytes32",
          "name": "",
          "type": "bytes32"
        }
      ],
      "stateMutability": "view",
      "type": "function"
    },
    {
      "inputs": [],
      "name": "UPGRADE_INTERFACE_VERSION",
      "outputs": [
        {
          "internalType": "string",
          "name": "",
          "type": "string"
        }
      ],
      "stateMutability": "view",
      "type": "function"
    },
    {
      "inputs": [],
      "name": "createEpochs",
      "outputs": [],
      "stateMutability": "nonpayable",
      "type": "function"
    },
    {
      "inputs": [
        {
          "internalType": "uint256",
          "name": "blockNumber",
          "type": "uint256"
        }
      ],
      "name": "createEpochsUntilBlockNumber",
      "outputs": [],
      "stateMutability": "nonpayable",
      "type": "function"
    },
    {
      "inputs": [],
      "name": "daySize",
      "outputs": [
        {
          "internalType": "uint256",
          "name": "",
          "type": "uint256"
        }
      ],
      "stateMutability": "view",
      "type": "function"
    },
    {
      "inputs": [
        {
          "internalType": "uint256",
          "name": "epochId",
          "type": "uint256"
        },
        {
          "components": [
            {
              "internalType": "uint256",
              "name": "dlpId",
              "type": "uint256"
            },
            {
              "internalType": "uint256",
              "name": "ownerRewardAmount",
              "type": "uint256"
            },
            {
              "internalType": "uint256",
              "name": "stakersRewardAmount",
              "type": "uint256"
            }
          ],
          "internalType": "struct IDLPRootEpoch.EpochDlpReward[]",
          "name": "epochDlpRewards",
          "type": "tuple[]"
        }
      ],
      "name": "distributeEpochRewards",
      "outputs": [],
      "stateMutability": "nonpayable",
      "type": "function"
    },
    {
      "inputs": [],
      "name": "dlpRoot",
      "outputs": [
        {
          "internalType": "contract IDLPRoot",
          "name": "",
          "type": "address"
        }
      ],
      "stateMutability": "view",
      "type": "function"
    },
    {
      "inputs": [
        {
          "internalType": "uint256",
          "name": "epochId",
          "type": "uint256"
        },
        {
          "internalType": "uint256",
          "name": "dlpId",
          "type": "uint256"
        }
      ],
      "name": "epochDlpStakeAmount",
      "outputs": [
        {
          "internalType": "uint256",
          "name": "",
          "type": "uint256"
        }
      ],
      "stateMutability": "view",
      "type": "function"
    },
    {
      "inputs": [
        {
          "internalType": "uint256",
          "name": "epochId",
          "type": "uint256"
        },
        {
          "internalType": "uint256",
          "name": "dlpId",
          "type": "uint256"
        }
      ],
      "name": "epochDlps",
      "outputs": [
        {
          "components": [
            {
              "internalType": "uint256",
              "name": "stakeAmount",
              "type": "uint256"
            },
            {
              "internalType": "bool",
              "name": "isTopDlp",
              "type": "bool"
            },
            {
              "internalType": "uint256",
              "name": "ownerRewardAmount",
              "type": "uint256"
            },
            {
              "internalType": "uint256",
              "name": "stakersPercentage",
              "type": "uint256"
            },
            {
              "internalType": "uint256",
              "name": "totalStakesScore",
              "type": "uint256"
            },
            {
              "internalType": "uint256",
              "name": "rewardClaimed",
              "type": "uint256"
            },
            {
              "internalType": "uint256",
              "name": "stakersRewardAmount",
              "type": "uint256"
            }
          ],
          "internalType": "struct IDLPRootEpoch.EpochDlpInfo",
          "name": "",
          "type": "tuple"
        }
      ],
      "stateMutability": "view",
      "type": "function"
    },
    {
      "inputs": [],
      "name": "epochDlpsLimit",
      "outputs": [
        {
          "internalType": "uint256",
          "name": "",
          "type": "uint256"
        }
      ],
      "stateMutability": "view",
      "type": "function"
    },
    {
      "inputs": [],
      "name": "epochRewardAmount",
      "outputs": [
        {
          "internalType": "uint256",
          "name": "",
          "type": "uint256"
        }
      ],
      "stateMutability": "view",
      "type": "function"
    },
    {
      "inputs": [],
      "name": "epochSize",
      "outputs": [
        {
          "internalType": "uint256",
          "name": "",
          "type": "uint256"
        }
      ],
      "stateMutability": "view",
      "type": "function"
    },
    {
      "inputs": [
        {
          "internalType": "uint256",
          "name": "epochId",
          "type": "uint256"
        }
      ],
      "name": "epochs",
      "outputs": [
        {
          "components": [
            {
              "internalType": "uint256",
              "name": "startBlock",
              "type": "uint256"
            },
            {
              "internalType": "uint256",
              "name": "endBlock",
              "type": "uint256"
            },
            {
              "internalType": "uint256",
              "name": "rewardAmount",
              "type": "uint256"
            },
            {
              "internalType": "bool",
              "name": "isFinalised",
              "type": "bool"
            },
            {
              "internalType": "uint256[]",
              "name": "dlpIds",
              "type": "uint256[]"
            }
          ],
          "internalType": "struct IDLPRootEpoch.EpochInfo",
          "name": "",
          "type": "tuple"
        }
      ],
      "stateMutability": "view",
      "type": "function"
    },
    {
      "inputs": [],
      "name": "epochsCount",
      "outputs": [
        {
          "internalType": "uint256",
          "name": "",
          "type": "uint256"
        }
      ],
      "stateMutability": "view",
      "type": "function"
    },
    {
      "inputs": [
        {
          "internalType": "bytes32",
          "name": "role",
          "type": "bytes32"
        }
      ],
      "name": "getRoleAdmin",
      "outputs": [
        {
          "internalType": "bytes32",
          "name": "",
          "type": "bytes32"
        }
      ],
      "stateMutability": "view",
      "type": "function"
    },
    {
      "inputs": [
        {
          "internalType": "bytes32",
          "name": "role",
          "type": "bytes32"
        },
        {
          "internalType": "address",
          "name": "account",
          "type": "address"
        }
      ],
      "name": "grantRole",
      "outputs": [],
      "stateMutability": "nonpayable",
      "type": "function"
    },
    {
      "inputs": [
        {
          "internalType": "bytes32",
          "name": "role",
          "type": "bytes32"
        },
        {
          "internalType": "address",
          "name": "account",
          "type": "address"
        }
      ],
      "name": "hasRole",
      "outputs": [
        {
          "internalType": "bool",
          "name": "",
          "type": "bool"
        }
      ],
      "stateMutability": "view",
      "type": "function"
    },
    {
      "inputs": [
        {
          "internalType": "address",
          "name": "ownerAddress",
          "type": "address"
        },
        {
          "internalType": "address",
          "name": "dlpRootAddress",
          "type": "address"
        },
        {
          "internalType": "uint256",
          "name": "daySizeInBlocks",
          "type": "uint256"
        }
      ],
      "name": "initialize",
      "outputs": [],
      "stateMutability": "nonpayable",
      "type": "function"
    },
    {
      "inputs": [
        {
          "internalType": "uint256",
          "name": "epochIdStart",
          "type": "uint256"
        },
        {
          "internalType": "uint256",
          "name": "epochIdEnd",
          "type": "uint256"
        }
      ],
      "name": "migrateEpochData",
      "outputs": [],
      "stateMutability": "nonpayable",
      "type": "function"
    },
    {
      "inputs": [],
      "name": "migrateParametersData",
      "outputs": [],
      "stateMutability": "nonpayable",
      "type": "function"
    },
    {
      "inputs": [
        {
          "internalType": "uint256",
          "name": "epochId",
          "type": "uint256"
        },
        {
          "internalType": "uint256",
          "name": "startBlock",
          "type": "uint256"
        },
        {
          "internalType": "uint256",
          "name": "endBlock",
          "type": "uint256"
        },
        {
          "internalType": "uint256",
          "name": "rewardAmount",
          "type": "uint256"
        }
      ],
      "name": "overrideEpoch",
      "outputs": [],
      "stateMutability": "nonpayable",
      "type": "function"
    },
    {
      "inputs": [
        {
          "components": [
            {
              "internalType": "uint256",
              "name": "epochId",
              "type": "uint256"
            },
            {
              "internalType": "uint256",
              "name": "dlpId",
              "type": "uint256"
            },
            {
              "internalType": "uint256",
              "name": "totalStakesScore",
              "type": "uint256"
            }
          ],
          "internalType": "struct IDLPRootEpoch.EpochDlpsTotalStakesScore",
          "name": "stakeScore",
          "type": "tuple"
        }
      ],
      "name": "overrideEpochDlpsTotalStakesScore",
      "outputs": [],
      "stateMutability": "nonpayable",
      "type": "function"
    },
    {
      "inputs": [],
      "name": "pause",
      "outputs": [],
      "stateMutability": "nonpayable",
      "type": "function"
    },
    {
      "inputs": [],
      "name": "paused",
      "outputs": [
        {
          "internalType": "bool",
          "name": "",
          "type": "bool"
        }
      ],
      "stateMutability": "view",
      "type": "function"
    },
    {
      "inputs": [],
      "name": "proxiableUUID",
      "outputs": [
        {
          "internalType": "bytes32",
          "name": "",
          "type": "bytes32"
        }
      ],
      "stateMutability": "view",
      "type": "function"
    },
    {
      "inputs": [
        {
          "internalType": "bytes32",
          "name": "role",
          "type": "bytes32"
        },
        {
          "internalType": "address",
          "name": "callerConfirmation",
          "type": "address"
        }
      ],
      "name": "renounceRole",
      "outputs": [],
      "stateMutability": "nonpayable",
      "type": "function"
    },
    {
      "inputs": [
        {
          "internalType": "bytes32",
          "name": "role",
          "type": "bytes32"
        },
        {
          "internalType": "address",
          "name": "account",
          "type": "address"
        }
      ],
      "name": "revokeRole",
      "outputs": [],
      "stateMutability": "nonpayable",
      "type": "function"
    },
    {
      "inputs": [
        {
          "components": [
            {
              "internalType": "uint256",
              "name": "epochId",
              "type": "uint256"
            },
            {
              "internalType": "uint256",
              "name": "dlpId",
              "type": "uint256"
            },
            {
              "internalType": "uint256",
              "name": "totalStakesScore",
              "type": "uint256"
            }
          ],
          "internalType": "struct IDLPRootEpoch.EpochDlpsTotalStakesScore[]",
          "name": "stakeScore",
          "type": "tuple[]"
        }
      ],
      "name": "saveEpochDlpsTotalStakesScore",
      "outputs": [],
      "stateMutability": "nonpayable",
      "type": "function"
    },
    {
      "inputs": [
        {
          "internalType": "uint256",
          "name": "epochIdStart",
          "type": "uint256"
        },
        {
          "internalType": "uint256",
          "name": "epochIdEnd",
          "type": "uint256"
        }
      ],
      "name": "saveEpochDlpsTotalStakesScoreForce",
      "outputs": [],
      "stateMutability": "nonpayable",
      "type": "function"
    },
    {
      "inputs": [
        {
          "internalType": "bytes4",
          "name": "interfaceId",
          "type": "bytes4"
        }
      ],
      "name": "supportsInterface",
      "outputs": [
        {
          "internalType": "bool",
          "name": "",
          "type": "bool"
        }
      ],
      "stateMutability": "view",
      "type": "function"
    },
    {
      "inputs": [],
      "name": "unpause",
      "outputs": [],
      "stateMutability": "nonpayable",
      "type": "function"
    },
    {
      "inputs": [
        {
          "internalType": "address",
          "name": "newDlpRootAddress",
          "type": "address"
        }
      ],
      "name": "updateDlpRoot",
      "outputs": [],
      "stateMutability": "nonpayable",
      "type": "function"
    },
    {
      "inputs": [
        {
          "internalType": "uint256",
          "name": "newEpochDlpsLimit",
          "type": "uint256"
        }
      ],
      "name": "updateEpochDlpsLimit",
      "outputs": [],
      "stateMutability": "nonpayable",
      "type": "function"
    },
    {
      "inputs": [
        {
          "internalType": "uint256",
          "name": "newEpochRewardAmount",
          "type": "uint256"
        }
      ],
      "name": "updateEpochRewardAmount",
      "outputs": [],
      "stateMutability": "nonpayable",
      "type": "function"
    },
    {
      "inputs": [
        {
          "internalType": "uint256",
          "name": "newEpochSize",
          "type": "uint256"
        }
      ],
      "name": "updateEpochSize",
      "outputs": [],
      "stateMutability": "nonpayable",
      "type": "function"
    },
    {
      "inputs": [
        {
          "internalType": "address",
          "name": "newImplementation",
          "type": "address"
        },
        {
          "internalType": "bytes",
          "name": "data",
          "type": "bytes"
        }
      ],
      "name": "upgradeToAndCall",
      "outputs": [],
      "stateMutability": "payable",
      "type": "function"
    },
    {
      "inputs": [],
      "name": "version",
      "outputs": [
        {
          "internalType": "uint256",
          "name": "",
          "type": "uint256"
        }
      ],
      "stateMutability": "pure",
      "type": "function"
    }
  ],
  "transactionHash": "0x8249be78e498eeaba299103454e4acc8c0d3e32b5efbf1fa5555943b5ee515da",
  "args": [],
  "numDeployments": 4,
  "solcInputHash": "9d22052bd5f129c1019c3dd476a7756e",
  "bytecode": "0x60a0604052306080523480156200001557600080fd5b506200002062000026565b620000da565b7ff0c57e16840df040f15088dc2f81fe391c3923bec73e23a9662efc9c229c6a00805468010000000000000000900460ff1615620000775760405163f92ee8a960e01b815260040160405180910390fd5b80546001600160401b0390811614620000d75780546001600160401b0319166001600160401b0390811782556040519081527fc7f505b2f371ae2175ee4913f4499e1f2633a7b5936321eed1cdaeb6115181d29060200160405180910390a15b50565b6080516130346200010460003960008181611eff01528181611f28015261206c01526130346000f3fe6080604052600436106101cb5760003560e01c806301159c70146101d057806301ffc9a7146101f2578063132c58e9146102275780631794bb3c1461024b5780631db40d051461026b5780631eb69d3e1461028b5780632420e688146102ab57806324404fa7146102cb578063248a9ca3146102f85780632f2ff15d14610318578063319fe36b1461033857806336568abe146103585780633f4ba83a146103785780634f1ef2861461038d5780635266aa90146103a057806352d1902d146103c257806354fd4d50146103d7578063572d356e146103eb5780635c975abb146104015780635d342e98146104165780636b289f5b1461042b57806376bc98691461044b5780638456cb5914610460578063916e1c571461047557806391d148541461048b578063a217fddf146104ab578063aa374898146104c0578063ad3cb1cc146104e0578063b3a7b9da1461051e578063b8ba985c14610596578063c53036f4146105b6578063c6b61e4c146105cc578063cd0081a7146105f9578063d4e0187214610619578063d547741f14610639578063d7033ca014610659578063e7de50411461066f578063eaeb2ec81461068f578063ec87621c146106af578063f8742254146106d1575b600080fd5b3480156101dc57600080fd5b506101f06101eb3660046125e4565b6106f3565b005b3480156101fe57600080fd5b5061021261020d366004612601565b61072e565b60405190151581526020015b60405180910390f35b34801561023357600080fd5b5061023d60025481565b60405190815260200161021e565b34801561025757600080fd5b506101f061026636600461262b565b610765565b34801561027757600080fd5b506101f061028636600461266c565b6108d4565b34801561029757600080fd5b506101f06102a636600461266c565b610947565b3480156102b757600080fd5b5061023d6102c636600461266c565b610bcb565b3480156102d757600080fd5b506000546102eb906001600160a01b031681565b60405161021e919061268e565b34801561030457600080fd5b5061023d6103133660046126a2565b610cb8565b34801561032457600080fd5b506101f06103333660046126bb565b610cd8565b34801561034457600080fd5b506101f06103533660046127d7565b610cf4565b34801561036457600080fd5b506101f06103733660046126bb565b610ea9565b34801561038457600080fd5b506101f0610ee1565b6101f061039b36600461281a565b610f04565b3480156103ac57600080fd5b5061023d600080516020612fbf83398151915281565b3480156103ce57600080fd5b5061023d610f23565b3480156103e357600080fd5b50600161023d565b3480156103f757600080fd5b5061023d60035481565b34801561040d57600080fd5b50610212610f40565b34801561042257600080fd5b506101f0610f55565b34801561043757600080fd5b506101f06104463660046126a2565b611183565b34801561045757600080fd5b506101f06111cb565b34801561046c57600080fd5b506101f06111ee565b34801561048157600080fd5b5061023d60055481565b34801561049757600080fd5b506102126104a63660046126bb565b61120e565b3480156104b757600080fd5b5061023d600081565b3480156104cc57600080fd5b506101f06104db3660046126a2565b611244565b3480156104ec57600080fd5b50610511604051806040016040528060058152602001640352e302e360dc1b81525081565b60405161021e91906128d0565b34801561052a57600080fd5b5061053e61053936600461266c565b611291565b60405161021e9190600060e0820190508251825260208301511515602083015260408301516040830152606083015160608301526080830151608083015260a083015160a083015260c083015160c083015292915050565b3480156105a257600080fd5b506101f06105b1366004612903565b61152f565b3480156105c257600080fd5b5061023d60015481565b3480156105d857600080fd5b506105ec6105e73660046126a2565b6115ad565b60405161021e9190612935565b34801561060557600080fd5b506101f0610614366004612a2e565b611642565b34801561062557600080fd5b506101f06106343660046126a2565b6119ab565b34801561064557600080fd5b506101f06106543660046126bb565b6119eb565b34801561066557600080fd5b5061023d60045481565b34801561067b57600080fd5b506101f061068a366004612a88565b611a07565b34801561069b57600080fd5b506101f06106aa3660046126a2565b611cd0565b3480156106bb57600080fd5b5061023d600080516020612f9f83398151915281565b3480156106dd57600080fd5b5061023d600080516020612fdf83398151915281565b600080516020612fdf83398151915261070b81611cfe565b50600080546001600160a01b0319166001600160a01b0392909216919091179055565b60006001600160e01b03198216637965db0b60e01b148061075f57506301ffc9a760e01b6001600160e01b03198316145b92915050565b600061076f611d08565b805490915060ff600160401b82041615906001600160401b03166000811580156107965750825b90506000826001600160401b031660011480156107b25750303b155b9050811580156107c0575080155b156107de5760405163f92ee8a960e01b815260040160405180910390fd5b84546001600160401b0319166001178555831561080757845460ff60401b1916600160401b1785555b61080f611d2c565b610817611d2c565b61081f611d34565b610827611d44565b600080546001600160a01b0319166001600160a01b03891617815560048790556108519089611d54565b5061086a600080516020612fdf83398151915289611d54565b50610883600080516020612f9f83398151915289611d54565b5083156108ca57845460ff60401b19168555604051600181527fc7f505b2f371ae2175ee4913f4499e1f2633a7b5936321eed1cdaeb6115181d29060200160405180910390a15b5050505050505050565b600080516020612f9f8339815191526108ec81611cfe565b825b828111610941576000818152600660208181526040808420600180865293019091528083206003845292206992bd903a3edcf0ea25a0600293840155694e429c461fba32b85c20920191909155016108ee565b50505050565b600080516020612f9f83398151915261095f81611cfe565b60008054604080516368ed41ed60e01b815290516001600160a01b03909216929183916368ed41ed9160048083019260209291908290030181865afa1580156109ac573d6000803e3d6000fd5b505050506040513d601f19601f820116820180604052508101906109d09190612ad8565b9050845b848111610bc35760008181526006602052604080822090516331ad879360e21b8152600481018490529091906001600160a01b0386169063c6b61e4c90602401600060405180830381865afa158015610a31573d6000803e3d6000fd5b505050506040513d6000823e601f3d908101601f19168201604052610a599190810190612b06565b805183556020810151600184015560408101516002840155606081015160038401805460ff19169115159190911790556080810151519091506000905b80821015610add57610ad183608001518381518110610ab757610ab7612bf7565b602002602001015185600401611df590919063ffffffff16565b50816001019150610a96565b600191505b858211610bb457604051630ab9444d60e21b815260048101839052602481018690526000906001600160a01b03891690632ae511349060440160e060405180830381865afa158015610b38573d6000803e3d6000fd5b505050506040513d601f19601f82011682018060405250810190610b5c9190612c0d565b60008481526006870160205260409081902090820151815560c082015160018201556080820151600282015560a082015191925090610b9c576000610ba2565b81604001515b60039091015550600190910190610ae2565b846001019450505050506109d4565b505050505050565b60008060009054906101000a90046001600160a01b03166001600160a01b0316631bb2f4526040518163ffffffff1660e01b8152600401602060405180830381865afa158015610c1f573d6000803e3d6000fd5b505050506040513d601f19601f82011682018060405250810190610c439190612c9c565b6001600160a01b031663e5c8307d83856040518363ffffffff1660e01b8152600401610c70929190612cb9565b602060405180830381865afa158015610c8d573d6000803e3d6000fd5b505050506040513d601f19601f82011682018060405250810190610cb19190612ad8565b9392505050565b600080610cc3611e01565b60009384526020525050604090206001015490565b610ce182610cb8565b610cea81611cfe565b6109418383611d54565b600080516020612fdf833981519152610d0c81611cfe565b8151600090815260066020908152604080832083548251630dd97a2960e11b815292519194936001600160a01b0390911692631bb2f45292600480830193928290030181865afa158015610d64573d6000803e3d6000fd5b505050506040513d601f19601f82011682018060405250810190610d889190612c9c565b6001600160a01b031663ea83e47b85602001516040518263ffffffff1660e01b8152600401610db991815260200190565b600060405180830381865afa158015610dd6573d6000803e3d6000fd5b505050506040513d6000823e601f3d908101601f19168201604052610dfe9190810190612d2e565b60208101519091506001600160a01b0316610e2c576040516306358e4f60e11b815260040160405180910390fd5b4382600101541180610e3d57508154155b15610e5b5760405163756b785760e01b815260040160405180910390fd5b6040848101805160208088018051600090815260068801835285902060020192909255905187519251935193845292600080516020612f5f833981519152910160405180910390a350505050565b6001600160a01b0381163314610ed25760405163334bd91960e11b815260040160405180910390fd5b610edc8282611e25565b505050565b600080516020612fdf833981519152610ef981611cfe565b610f01611e9d565b50565b610f0c611ef4565b610f1582611f99565b610f1f8282611fa4565b5050565b6000610f2d612061565b50600080516020612f7f83398151915290565b600080610f4b6120aa565b5460ff1692915050565b600080516020612f9f833981519152610f6d81611cfe565b6000546040805163314c0dbd60e21b815290516001600160a01b0390921691829163c53036f49160048083019260209291908290030181865afa158015610fb8573d6000803e3d6000fd5b505050506040513d601f19601f82011682018060405250810190610fdc9190612ad8565b600181905550806001600160a01b031663132c58e96040518163ffffffff1660e01b8152600401602060405180830381865afa158015611020573d6000803e3d6000fd5b505050506040513d601f19601f820116820180604052508101906110449190612ad8565b600281905550806001600160a01b031663572d356e6040518163ffffffff1660e01b8152600401602060405180830381865afa158015611088573d6000803e3d6000fd5b505050506040513d601f19601f820116820180604052508101906110ac9190612ad8565b600381905550806001600160a01b031663d7033ca06040518163ffffffff1660e01b8152600401602060405180830381865afa1580156110f0573d6000803e3d6000fd5b505050506040513d601f19601f820116820180604052508101906111149190612ad8565b600481905550806001600160a01b031663916e1c576040518163ffffffff1660e01b8152600401602060405180830381865afa158015611158573d6000803e3d6000fd5b505050506040513d601f19601f8201168201806040525081019061117c9190612ad8565b6005555050565b600061118e81611cfe565b60028290556040518281527f2fe8cb48ce95af273ee232223c3a0fbda25a65208753e99801ce508751f2b7fb906020015b60405180910390a15050565b6111d36120ce565b6111db612104565b6111e44361212a565b6111ec612205565b565b600080516020612fdf83398151915261120681611cfe565b610f01612216565b600080611219611e01565b6000948552602090815260408086206001600160a01b03959095168652939052505090205460ff1690565b600080516020612fdf83398151915261125c81611cfe565b60018290556040518281527f8c3ee37d01ee5f42c88d7ff11c34795aa06e1e65f21e3813d00e101f3c3d614f906020016111bf565b6112d36040518060e001604052806000815260200160001515815260200160008152602001600081526020016000815260200160008152602001600081525090565b60008381526006602081815260408084208685529283018252808420815160808101835281548152600182015481850152600282015481840152600390910154606082015284548251630dd97a2960e11b815292519495919491936001600160a01b0390911692631bb2f45292600480830193928290030181865afa158015611360573d6000803e3d6000fd5b505050506040513d601f19601f820116820180604052508101906113849190612c9c565b6001600160a01b031663ea83e47b866040518263ffffffff1660e01b81526004016113b191815260200190565b600060405180830381865afa1580156113ce573d6000803e3d6000fd5b505050506040513d6000823e601f3d908101601f191682016040526113f69190810190612d2e565b6040805160e08101808352600054630dd97a2960e11b90915291519293509182916001600160a01b031690631bb2f4529060e4808501916020918187030181865afa158015611449573d6000803e3d6000fd5b505050506040513d601f19601f8201168201806040525081019061146d9190612c9c565b6001600160a01b031663e5c8307d888a6040518363ffffffff1660e01b815260040161149a929190612cb9565b602060405180830381865afa1580156114b7573d6000803e3d6000fd5b505050506040513d601f19601f820116820180604052508101906114db9190612ad8565b81526020016114ed600486018861225d565b15158152602001836000015181526020018260a00151815260200183604001518152602001836060015181526020018360200151815250935050505092915050565b600080516020612fdf83398151915261154781611cfe565b60008581526006602052604090819020858155600181018590556002810184905590517f89e436b630f34f576d2e93decf8eb2e517099f1d0cecf50b785442eb6b4702cb9061159d908890889088908890612e9e565b60405180910390a1505050505050565b6115e16040518060a00160405280600081526020016000815260200160008152602001600015158152602001606081525090565b6040805160a08101825260008481526006602081815284832080548552600181015482860152600281015495850195909552600385015460ff161515606085015291869052905290608082019061163a90600401612269565b905292915050565b600080516020612fbf83398151915261165a81611cfe565b600083815260066020526040812060038101805460ff191660011790558351909190819081905b808410156108ca5786848151811061169b5761169b612bf7565b60209081029190910101515192506116b66004860184611df5565b506000838152600686016020526040902087519092508790859081106116de576116de612bf7565b602002602001015160200151826000018190555086848151811061170457611704612bf7565b602002602001015160400151826001018190555060008060009054906101000a90046001600160a01b03166001600160a01b0316639889a3036040518163ffffffff1660e01b8152600401602060405180830381865afa15801561176c573d6000803e3d6000fd5b505050506040513d601f19601f820116820180604052508101906117909190612c9c565b6001600160a01b031663117511c960008054906101000a90046001600160a01b03166001600160a01b03166397f2746c6040518163ffffffff1660e01b8152600401602060405180830381865afa1580156117ef573d6000803e3d6000fd5b505050506040513d601f19601f820116820180604052508101906118139190612c9c565b6001600160a01b031663a59850ce6040518163ffffffff1660e01b8152600401602060405180830381865afa158015611850573d6000803e3d6000fd5b505050506040513d601f19601f820116820180604052508101906118749190612c9c565b8a888151811061188657611886612bf7565b6020026020010151602001516040518363ffffffff1660e01b81526004016118af929190612eb9565b6020604051808303816000875af11580156118ce573d6000803e3d6000fd5b505050506040513d601f19601f820116820180604052508101906118f29190612ed2565b9050801561199f5787858151811061190c5761190c612bf7565b602002602001015160200151836003018190555088847fdca1e9e232cea851fef9f1dd12c75fd4ddbbfe8a7a6d724d80d4615b58b3a9bc8a888151811061195557611955612bf7565b6020026020010151602001518b898151811061197357611973612bf7565b602002602001015160400151604051611996929190918252602082015260400190565b60405180910390a35b84600101945050611681565b60006119b681611cfe565b60038290556040518281527f3cd59cf395448ba3bfd2541dcb31ccd800b9e303281df0888a62ae5d5f673f58906020016111bf565b6119f482610cb8565b6119fd81611cfe565b6109418383611e25565b600080516020612f9f833981519152611a1f81611cfe565b60005b8251811015610edc57600060066000858481518110611a4357611a43612bf7565b602002602001015160000151815260200190815260200160002090506000816006016000868581518110611a7957611a79612bf7565b6020026020010151602001518152602001908152602001600020905060008060009054906101000a90046001600160a01b03166001600160a01b0316631bb2f4526040518163ffffffff1660e01b8152600401602060405180830381865afa158015611ae9573d6000803e3d6000fd5b505050506040513d601f19601f82011682018060405250810190611b0d9190612c9c565b6001600160a01b031663ea83e47b878681518110611b2d57611b2d612bf7565b6020026020010151602001516040518263ffffffff1660e01b8152600401611b5791815260200190565b600060405180830381865afa158015611b74573d6000803e3d6000fd5b505050506040513d6000823e601f3d908101601f19168201604052611b9c9190810190612d2e565b60208101519091506001600160a01b0316611bca576040516306358e4f60e11b815260040160405180910390fd5b4383600101541180611bdb57508254155b15611bf95760405163756b785760e01b815260040160405180910390fd5b600282015415611c1c57604051634d40249960e01b815260040160405180910390fd5b858481518110611c2e57611c2e612bf7565b6020026020010151604001518260020181905550858481518110611c5457611c54612bf7565b602002602001015160200151868581518110611c7257611c72612bf7565b602002602001015160000151600080516020612f5f833981519152888781518110611c9f57611c9f612bf7565b602002602001015160400151604051611cba91815260200190565b60405180910390a3836001019350505050611a22565b611cd86120ce565b611ce0612104565b611cf6438210611cf0574361212a565b8161212a565b610f01612205565b610f018133612276565b7ff0c57e16840df040f15088dc2f81fe391c3923bec73e23a9662efc9c229c6a0090565b6111ec6122a1565b611d3c6122a1565b6111ec6122c6565b611d4c6122a1565b6111ec6122ce565b600080611d5f611e01565b9050611d6b848461120e565b611deb576000848152602082815260408083206001600160a01b03871684529091529020805460ff19166001179055611da13390565b6001600160a01b0316836001600160a01b0316857f2f8788117e7eff1d82e926ec794901d17c78024a50270940304540a733656f0d60405160405180910390a4600191505061075f565b600091505061075f565b6000610cb183836122eb565b7f02dd7bc7dec4dceedda775e58dd541e08a116c6c53815c0bd028192f7b62680090565b600080611e30611e01565b9050611e3c848461120e565b15611deb576000848152602082815260408083206001600160a01b0387168085529252808320805460ff1916905551339287917ff6391f5c32d9c69d2a47ea670b442974b53935d1edc7fd64eb21e047a839171b9190a4600191505061075f565b611ea5612335565b6000611eaf6120aa565b805460ff1916815590507f5db9ee0a495bf2e6ff9c91a7834c1ba4fdd244a5e8aa4e537bd38aeae4b073aa335b604051611ee9919061268e565b60405180910390a150565b306001600160a01b037f0000000000000000000000000000000000000000000000000000000000000000161480611f7b57507f00000000000000000000000000000000000000000000000000000000000000006001600160a01b0316611f6f600080516020612f7f833981519152546001600160a01b031690565b6001600160a01b031614155b156111ec5760405163703e46dd60e11b815260040160405180910390fd5b6000610f1f81611cfe565b816001600160a01b03166352d1902d6040518163ffffffff1660e01b8152600401602060405180830381865afa925050508015611ffe575060408051601f3d908101601f19168201909252611ffb91810190612ad8565b60015b6120265781604051634c9c8ce360e01b815260040161201d919061268e565b60405180910390fd5b600080516020612f7f833981519152811461205757604051632a87526960e21b81526004810182905260240161201d565b610edc838361235a565b306001600160a01b037f000000000000000000000000000000000000000000000000000000000000000016146111ec5760405163703e46dd60e11b815260040160405180910390fd5b7fcd5ed15c6e187e77e9aee88184c21f4f2182ab5827cb3b7e07fbedcd63f0330090565b60006120d86123b0565b8054909150600119016120fe57604051633ee5aeb560e01b815260040160405180910390fd5b60029055565b61210c610f40565b156111ec5760405163d93c066560e01b815260040160405180910390fd5b6005546000908152600660205260409020600181015443101561214b575050565b8181600101541015610f1f5760006006600060056000815461216c90612f03565b91905081905581526020019081526020016000209050816001015460016121939190612f1c565b8082556003546001916121a69190612f1c565b6121b09190612f2f565b600182018190556002805490830181905560055483546040517f017b1c583db0d753e82f5a7f7b94f64603f7e401eb2c40271a8edce1431cf09e946121f6949091612e9e565b60405180910390a1905061214b565b600061220f6123b0565b6001905550565b61221e612104565b60006122286120aa565b805460ff1916600117815590507f62e78cea01bee320cd4e420270b5ea74000d11b0c9f74754ebdbfc544b05a258611edc3390565b6000610cb183836123d4565b60606000610cb1836123ec565b612280828261120e565b610f1f57808260405163e2517d3f60e01b815260040161201d929190612eb9565b6122a9612448565b6111ec57604051631afcd79f60e31b815260040160405180910390fd5b6122056122a1565b6122d66122a1565b60006122e06120aa565b805460ff1916905550565b60006122f783836123d4565b61232d5750815460018181018455600084815260208082209093018490558454848252828601909352604090209190915561075f565b50600061075f565b61233d610f40565b6111ec57604051638dfc202b60e01b815260040160405180910390fd5b61236382612462565b6040516001600160a01b038316907fbc7cd75a20ee27fd9adebab32041f755214dbc6bffa90cc0225b39da2e5c2d3b90600090a28051156123a857610edc82826124be565b610f1f612534565b7f9b779b17422d0df92223018b32b4d1fa46e071723d6817e2486d003becc55f0090565b60009081526001919091016020526040902054151590565b60608160000180548060200260200160405190810160405280929190818152602001828054801561243c57602002820191906000526020600020905b815481526020019060010190808311612428575b50505050509050919050565b6000612452611d08565b54600160401b900460ff16919050565b806001600160a01b03163b60000361248f5780604051634c9c8ce360e01b815260040161201d919061268e565b600080516020612f7f83398151915280546001600160a01b0319166001600160a01b0392909216919091179055565b6060600080846001600160a01b0316846040516124db9190612f42565b600060405180830381855af49150503d8060008114612516576040519150601f19603f3d011682016040523d82523d6000602084013e61251b565b606091505b509150915061252b858383612553565b95945050505050565b34156111ec5760405163b398979f60e01b815260040160405180910390fd5b60608261256857612563826125a6565b610cb1565b815115801561257f57506001600160a01b0384163b155b1561259f5783604051639996b31560e01b815260040161201d919061268e565b5092915050565b8051156125b65780518082602001fd5b604051630a12f52160e11b815260040160405180910390fd5b6001600160a01b0381168114610f0157600080fd5b6000602082840312156125f657600080fd5b8135610cb1816125cf565b60006020828403121561261357600080fd5b81356001600160e01b031981168114610cb157600080fd5b60008060006060848603121561264057600080fd5b833561264b816125cf565b9250602084013561265b816125cf565b929592945050506040919091013590565b6000806040838503121561267f57600080fd5b50508035926020909101359150565b6001600160a01b0391909116815260200190565b6000602082840312156126b457600080fd5b5035919050565b600080604083850312156126ce57600080fd5b8235915060208301356126e0816125cf565b809150509250929050565b634e487b7160e01b600052604160045260246000fd5b60405160a081016001600160401b0381118282101715612723576127236126eb565b60405290565b6040516101c081016001600160401b0381118282101715612723576127236126eb565b604051601f8201601f191681016001600160401b0381118282101715612774576127746126eb565b604052919050565b60006060828403121561278e57600080fd5b604051606081016001600160401b03811182821017156127b0576127b06126eb565b80604052508091508235815260208301356020820152604083013560408201525092915050565b6000606082840312156127e957600080fd5b610cb1838361277c565b60006001600160401b0382111561280c5761280c6126eb565b50601f01601f191660200190565b6000806040838503121561282d57600080fd5b8235612838816125cf565b915060208301356001600160401b0381111561285357600080fd5b8301601f8101851361286457600080fd5b8035612877612872826127f3565b61274c565b81815286602083850101111561288c57600080fd5b816020840160208301376000602083830101528093505050509250929050565b60005b838110156128c75781810151838201526020016128af565b50506000910152565b60208152600082518060208401526128ef8160408501602087016128ac565b601f01601f19169190910160400192915050565b6000806000806080858703121561291957600080fd5b5050823594602084013594506040840135936060013592509050565b6000602080835260c0830184518285015281850151604085015260408501516060850152606085015115156080850152608085015160a08086015281815180845260e0870191508483019350600092505b808310156129a65783518252928401926001929092019190840190612986565b509695505050505050565b60006001600160401b038211156129ca576129ca6126eb565b5060051b60200190565b60006129e2612872846129b1565b83815290506020808201906060808602850187811115612a0157600080fd5b855b81811015612a2257612a15898261277c565b8552938301938201612a03565b50505050509392505050565b60008060408385031215612a4157600080fd5b8235915060208301356001600160401b03811115612a5e57600080fd5b8301601f81018513612a6f57600080fd5b612a7e858235602084016129d4565b9150509250929050565b600060208284031215612a9a57600080fd5b81356001600160401b03811115612ab057600080fd5b8201601f81018413612ac157600080fd5b612ad0848235602084016129d4565b949350505050565b600060208284031215612aea57600080fd5b5051919050565b80518015158114612b0157600080fd5b919050565b60006020808385031215612b1957600080fd5b82516001600160401b0380821115612b3057600080fd5b9084019060a08287031215612b4457600080fd5b612b4c612701565b82518152838301518482015260408301516040820152612b6e60608401612af1565b6060820152608083015182811115612b8557600080fd5b80840193505086601f840112612b9a57600080fd5b82519150612baa612872836129b1565b82815260059290921b83018401918481019088841115612bc957600080fd5b938501935b83851015612be757845182529385019390850190612bce565b6080830152509695505050505050565b634e487b7160e01b600052603260045260246000fd5b600060e08284031215612c1f57600080fd5b60405160e081016001600160401b0381118282101715612c4157612c416126eb565b60405282518152612c5460208401612af1565b6020820152604083015160408201526060830151606082015260808301516080820152612c8360a08401612af1565b60a082015260c083015160c08201528091505092915050565b600060208284031215612cae57600080fd5b8151610cb1816125cf565b91825265ffffffffffff16602082015260400190565b8051612b01816125cf565b600082601f830112612ceb57600080fd5b8151612cf9612872826127f3565b818152846020838601011115612d0e57600080fd5b612ad08260208301602087016128ac565b805160058110612b0157600080fd5b600060208284031215612d4057600080fd5b81516001600160401b0380821115612d5757600080fd5b908301906101c08286031215612d6c57600080fd5b612d74612729565b82518152612d8460208401612ccf565b6020820152612d9560408401612ccf565b6040820152612da660608401612ccf565b60608201526080830151608082015260a083015160a082015260c083015182811115612dd157600080fd5b612ddd87828601612cda565b60c08301525060e083015182811115612df557600080fd5b612e0187828601612cda565b60e0830152506101008084015183811115612e1b57600080fd5b612e2788828701612cda565b8284015250506101208084015183811115612e4157600080fd5b612e4d88828701612cda565b8284015250506101409150612e63828401612d1f565b91810191909152610160828101519082015261018080830151908201526101a090612e8f828401612af1565b91810191909152949350505050565b93845260208401929092526040830152606082015260800190565b6001600160a01b03929092168252602082015260400190565b600060208284031215612ee457600080fd5b610cb182612af1565b634e487b7160e01b600052601160045260246000fd5b600060018201612f1557612f15612eed565b5060010190565b8082018082111561075f5761075f612eed565b8181038181111561075f5761075f612eed565b60008251612f548184602087016128ac565b919091019291505056fe948d378fa4c68569d2ecf922375e8845e879b43a1b882cc2b3aece8b76982f84360894a13ba1a3210667c828492db98dca3e2076cc3735a920a3ca505d382bbc241ecf16d79d0f8dbfb92cbc07fe17840425976cf0667f022fe9877caa831b08dd3964e50534514b3adc5c2d0d2c4a8426863ff4376360d48539e1f11b5b822f339759585899103d2ace64958e37e18ccb0504652c81d4a1b8aa80fe2126ab95a2646970667358221220f5060e37005f5d00689fb0223f1e1d29b42f39df6229a40765eff90d0189342664736f6c63430008180033",
  "devdoc": {
    "errors": {
      "AccessControlBadConfirmation()": [
        {
          "details": "The caller of a function is not the expected one. NOTE: Don't confuse with {AccessControlUnauthorizedAccount}."
        }
      ],
      "AccessControlUnauthorizedAccount(address,bytes32)": [
        {
          "details": "The `account` is missing a role."
        }
      ],
      "AddressEmptyCode(address)": [
        {
          "details": "There's no code at `target` (it is not a contract)."
        }
      ],
      "ERC1967InvalidImplementation(address)": [
        {
          "details": "The `implementation` of the proxy is invalid."
        }
      ],
      "ERC1967NonPayable()": [
        {
          "details": "An upgrade function sees `msg.value > 0` that may be lost."
        }
      ],
      "EnforcedPause()": [
        {
          "details": "The operation failed because the contract is paused."
        }
      ],
      "ExpectedPause()": [
        {
          "details": "The operation failed because the contract is not paused."
        }
      ],
      "FailedInnerCall()": [
        {
          "details": "A call to an address target failed. The target may have reverted."
        }
      ],
      "InvalidInitialization()": [
        {
          "details": "The contract is already initialized."
        }
      ],
      "NotInitializing()": [
        {
          "details": "The contract is not initializing."
        }
      ],
      "ReentrancyGuardReentrantCall()": [
        {
          "details": "Unauthorized reentrant call."
        }
      ],
      "UUPSUnauthorizedCallContext()": [
        {
          "details": "The call is from an unauthorized context."
        }
      ],
      "UUPSUnsupportedProxiableUUID(bytes32)": [
        {
          "details": "The storage `slot` is unsupported as a UUID."
        }
      ]
    },
    "events": {
      "Initialized(uint64)": {
        "details": "Triggered when the contract has been initialized or reinitialized."
      },
      "Paused(address)": {
        "details": "Emitted when the pause is triggered by `account`."
      },
      "RoleAdminChanged(bytes32,bytes32,bytes32)": {
        "details": "Emitted when `newAdminRole` is set as ``role``'s admin role, replacing `previousAdminRole` `DEFAULT_ADMIN_ROLE` is the starting admin for all roles, despite {RoleAdminChanged} not being emitted signaling this."
      },
      "RoleGranted(bytes32,address,address)": {
        "details": "Emitted when `account` is granted `role`. `sender` is the account that originated the contract call, an admin role bearer except when using {AccessControl-_setupRole}."
      },
      "RoleRevoked(bytes32,address,address)": {
        "details": "Emitted when `account` is revoked `role`. `sender` is the account that originated the contract call:   - if using `revokeRole`, it is the admin role bearer   - if using `renounceRole`, it is the role bearer (i.e. `account`)"
      },
      "Unpaused(address)": {
        "details": "Emitted when the pause is lifted by `account`."
      },
      "Upgraded(address)": {
        "details": "Emitted when the implementation is upgraded."
      }
    },
    "kind": "dev",
    "methods": {
      "constructor": {
        "custom:oz-upgrades-unsafe-allow": "constructor"
      },
      "getRoleAdmin(bytes32)": {
        "details": "Returns the admin role that controls `role`. See {grantRole} and {revokeRole}. To change a role's admin, use {_setRoleAdmin}."
      },
      "grantRole(bytes32,address)": {
        "details": "Grants `role` to `account`. If `account` had not been already granted `role`, emits a {RoleGranted} event. Requirements: - the caller must have ``role``'s admin role. May emit a {RoleGranted} event."
      },
      "hasRole(bytes32,address)": {
        "details": "Returns `true` if `account` has been granted `role`."
      },
      "paused()": {
        "details": "Returns true if the contract is paused, and false otherwise."
      },
      "proxiableUUID()": {
        "details": "Implementation of the ERC1822 {proxiableUUID} function. This returns the storage slot used by the implementation. It is used to validate the implementation's compatibility when performing an upgrade. IMPORTANT: A proxy pointing at a proxiable contract should not be considered proxiable itself, because this risks bricking a proxy that upgrades to it, by delegating to itself until out of gas. Thus it is critical that this function revert if invoked through a proxy. This is guaranteed by the `notDelegated` modifier."
      },
      "renounceRole(bytes32,address)": {
        "details": "Revokes `role` from the calling account. Roles are often managed via {grantRole} and {revokeRole}: this function's purpose is to provide a mechanism for accounts to lose their privileges if they are compromised (such as when a trusted device is misplaced). If the calling account had been revoked `role`, emits a {RoleRevoked} event. Requirements: - the caller must be `callerConfirmation`. May emit a {RoleRevoked} event."
      },
      "revokeRole(bytes32,address)": {
        "details": "Revokes `role` from `account`. If `account` had been granted `role`, emits a {RoleRevoked} event. Requirements: - the caller must have ``role``'s admin role. May emit a {RoleRevoked} event."
      },
      "supportsInterface(bytes4)": {
        "details": "See {IERC165-supportsInterface}."
      },
      "upgradeToAndCall(address,bytes)": {
        "custom:oz-upgrades-unsafe-allow-reachable": "delegatecall",
        "details": "Upgrade the implementation of the proxy to `newImplementation`, and subsequently execute the function call encoded in `data`. Calls {_authorizeUpgrade}. Emits an {Upgraded} event."
      }
    },
    "version": 1
  },
  "userdoc": {
    "kind": "user",
    "methods": {
      "createEpochs()": {
        "notice": "Creates epochs up to current block"
      },
      "createEpochsUntilBlockNumber(uint256)": {
        "notice": "Creates epochs up to specified block"
      },
      "overrideEpochDlpsTotalStakesScore((uint256,uint256,uint256))": {
        "notice": "Overrides stake scores for DLPs in past epochs"
      },
      "saveEpochDlpsTotalStakesScore((uint256,uint256,uint256)[])": {
        "notice": "Updates stake scores for DLPs in past epochs"
      },
      "saveEpochDlpsTotalStakesScoreForce(uint256,uint256)": {
        "notice": "Updates stake scores for DLPs in past epochs"
      }
    },
    "version": 1
  },
  "storageLayout": {
    "storage": [
      {
        "astId": 7742,
        "contract": "contracts/rootEpoch/DLPRootEpochImplementation.sol:DLPRootEpochImplementation",
        "label": "dlpRoot",
        "offset": 0,
        "slot": "0",
        "type": "t_contract(IDLPRoot)5530"
      },
      {
        "astId": 7745,
        "contract": "contracts/rootEpoch/DLPRootEpochImplementation.sol:DLPRootEpochImplementation",
        "label": "epochDlpsLimit",
        "offset": 0,
        "slot": "1",
        "type": "t_uint256"
      },
      {
        "astId": 7748,
        "contract": "contracts/rootEpoch/DLPRootEpochImplementation.sol:DLPRootEpochImplementation",
        "label": "epochRewardAmount",
        "offset": 0,
        "slot": "2",
        "type": "t_uint256"
      },
      {
        "astId": 7751,
        "contract": "contracts/rootEpoch/DLPRootEpochImplementation.sol:DLPRootEpochImplementation",
        "label": "epochSize",
        "offset": 0,
        "slot": "3",
        "type": "t_uint256"
      },
      {
        "astId": 7754,
        "contract": "contracts/rootEpoch/DLPRootEpochImplementation.sol:DLPRootEpochImplementation",
        "label": "daySize",
        "offset": 0,
        "slot": "4",
        "type": "t_uint256"
      },
      {
        "astId": 7757,
        "contract": "contracts/rootEpoch/DLPRootEpochImplementation.sol:DLPRootEpochImplementation",
        "label": "epochsCount",
        "offset": 0,
        "slot": "5",
        "type": "t_uint256"
      },
      {
        "astId": 7762,
        "contract": "contracts/rootEpoch/DLPRootEpochImplementation.sol:DLPRootEpochImplementation",
        "label": "_epochs",
        "offset": 0,
        "slot": "6",
        "type": "t_mapping(t_uint256,t_struct(Epoch)7796_storage)"
      }
    ],
    "types": {
      "t_array(t_bytes32)dyn_storage": {
        "base": "t_bytes32",
        "encoding": "dynamic_array",
        "label": "bytes32[]",
        "numberOfBytes": "32"
      },
      "t_bool": {
        "encoding": "inplace",
        "label": "bool",
        "numberOfBytes": "1"
      },
      "t_bytes32": {
        "encoding": "inplace",
        "label": "bytes32",
        "numberOfBytes": "32"
      },
      "t_contract(IDLPRoot)5530": {
        "encoding": "inplace",
        "label": "contract IDLPRoot",
        "numberOfBytes": "20"
      },
      "t_mapping(t_bytes32,t_uint256)": {
        "encoding": "mapping",
        "key": "t_bytes32",
        "label": "mapping(bytes32 => uint256)",
        "numberOfBytes": "32",
        "value": "t_uint256"
      },
      "t_mapping(t_uint256,t_struct(Epoch)7796_storage)": {
        "encoding": "mapping",
        "key": "t_uint256",
        "label": "mapping(uint256 => struct IDLPRootEpoch.Epoch)",
        "numberOfBytes": "32",
        "value": "t_struct(Epoch)7796_storage"
      },
      "t_mapping(t_uint256,t_struct(EpochDlp)7779_storage)": {
        "encoding": "mapping",
        "key": "t_uint256",
        "label": "mapping(uint256 => struct IDLPRootEpoch.EpochDlp)",
        "numberOfBytes": "32",
        "value": "t_struct(EpochDlp)7779_storage"
      },
      "t_struct(Epoch)7796_storage": {
        "encoding": "inplace",
        "label": "struct IDLPRootEpoch.Epoch",
        "members": [
          {
            "astId": 7781,
            "contract": "contracts/rootEpoch/DLPRootEpochImplementation.sol:DLPRootEpochImplementation",
            "label": "startBlock",
            "offset": 0,
            "slot": "0",
            "type": "t_uint256"
          },
          {
            "astId": 7783,
            "contract": "contracts/rootEpoch/DLPRootEpochImplementation.sol:DLPRootEpochImplementation",
            "label": "endBlock",
            "offset": 0,
            "slot": "1",
            "type": "t_uint256"
          },
          {
            "astId": 7785,
            "contract": "contracts/rootEpoch/DLPRootEpochImplementation.sol:DLPRootEpochImplementation",
            "label": "rewardAmount",
            "offset": 0,
            "slot": "2",
            "type": "t_uint256"
          },
          {
            "astId": 7787,
            "contract": "contracts/rootEpoch/DLPRootEpochImplementation.sol:DLPRootEpochImplementation",
            "label": "isFinalised",
            "offset": 0,
            "slot": "3",
            "type": "t_bool"
          },
          {
            "astId": 7790,
            "contract": "contracts/rootEpoch/DLPRootEpochImplementation.sol:DLPRootEpochImplementation",
            "label": "dlpIds",
            "offset": 0,
            "slot": "4",
            "type": "t_struct(UintSet)5079_storage"
          },
          {
            "astId": 7795,
            "contract": "contracts/rootEpoch/DLPRootEpochImplementation.sol:DLPRootEpochImplementation",
            "label": "dlps",
            "offset": 0,
            "slot": "6",
            "type": "t_mapping(t_uint256,t_struct(EpochDlp)7779_storage)"
          }
        ],
        "numberOfBytes": "224"
      },
      "t_struct(EpochDlp)7779_storage": {
        "encoding": "inplace",
        "label": "struct IDLPRootEpoch.EpochDlp",
        "members": [
          {
            "astId": 7772,
            "contract": "contracts/rootEpoch/DLPRootEpochImplementation.sol:DLPRootEpochImplementation",
            "label": "ownerRewardAmount",
            "offset": 0,
            "slot": "0",
            "type": "t_uint256"
          },
          {
            "astId": 7774,
            "contract": "contracts/rootEpoch/DLPRootEpochImplementation.sol:DLPRootEpochImplementation",
            "label": "stakersRewardAmount",
            "offset": 0,
            "slot": "1",
            "type": "t_uint256"
          },
          {
            "astId": 7776,
            "contract": "contracts/rootEpoch/DLPRootEpochImplementation.sol:DLPRootEpochImplementation",
            "label": "totalStakesScore",
            "offset": 0,
            "slot": "2",
            "type": "t_uint256"
          },
          {
            "astId": 7778,
            "contract": "contracts/rootEpoch/DLPRootEpochImplementation.sol:DLPRootEpochImplementation",
            "label": "rewardClaimed",
            "offset": 0,
            "slot": "3",
            "type": "t_uint256"
          }
        ],
        "numberOfBytes": "128"
      },
      "t_struct(Set)4607_storage": {
        "encoding": "inplace",
        "label": "struct EnumerableSet.Set",
        "members": [
          {
            "astId": 4602,
            "contract": "contracts/rootEpoch/DLPRootEpochImplementation.sol:DLPRootEpochImplementation",
            "label": "_values",
            "offset": 0,
            "slot": "0",
            "type": "t_array(t_bytes32)dyn_storage"
          },
          {
            "astId": 4606,
            "contract": "contracts/rootEpoch/DLPRootEpochImplementation.sol:DLPRootEpochImplementation",
            "label": "_positions",
            "offset": 0,
            "slot": "1",
            "type": "t_mapping(t_bytes32,t_uint256)"
          }
        ],
        "numberOfBytes": "64"
      },
      "t_struct(UintSet)5079_storage": {
        "encoding": "inplace",
        "label": "struct EnumerableSet.UintSet",
        "members": [
          {
            "astId": 5078,
            "contract": "contracts/rootEpoch/DLPRootEpochImplementation.sol:DLPRootEpochImplementation",
            "label": "_inner",
            "offset": 0,
            "slot": "0",
            "type": "t_struct(Set)4607_storage"
          }
        ],
        "numberOfBytes": "64"
      },
      "t_uint256": {
        "encoding": "inplace",
        "label": "uint256",
        "numberOfBytes": "32"
      }
    }
  }
}