{
  "address": "0x7a1715aF4F5709BcF372C0C26d7C59E6d55E64f0",
  "abi": [
    {
      "inputs": [],
      "stateMutability": "nonpayable",
      "type": "constructor"
    },
    {
      "inputs": [],
      "name": "AccessControlBadConfirmation",
      "type": "error"
    },
    {
      "inputs": [
        {
          "internalType": "address",
          "name": "account",
          "type": "address"
        },
        {
          "internalType": "bytes32",
          "name": "neededRole",
          "type": "bytes32"
        }
      ],
      "name": "AccessControlUnauthorizedAccount",
      "type": "error"
    },
    {
      "inputs": [
        {
          "internalType": "address",
          "name": "target",
          "type": "address"
        }
      ],
      "name": "AddressEmptyCode",
      "type": "error"
    },
    {
      "inputs": [
        {
          "internalType": "address",
          "name": "implementation",
          "type": "address"
        }
      ],
      "name": "ERC1967InvalidImplementation",
      "type": "error"
    },
    {
      "inputs": [],
      "name": "ERC1967NonPayable",
      "type": "error"
    },
    {
      "inputs": [],
      "name": "EnforcedPause",
      "type": "error"
    },
    {
      "inputs": [],
      "name": "EpochNotFinalized",
      "type": "error"
    },
    {
      "inputs": [],
      "name": "ExpectedPause",
      "type": "error"
    },
    {
      "inputs": [],
      "name": "FailedInnerCall",
      "type": "error"
    },
    {
      "inputs": [],
      "name": "InvalidInitialization",
      "type": "error"
    },
    {
      "inputs": [],
      "name": "NotInitializing",
      "type": "error"
    },
    {
      "inputs": [
        {
          "internalType": "uint256",
          "name": "dlpId",
          "type": "uint256"
        }
      ],
      "name": "NothingToDistribute",
      "type": "error"
    },
    {
      "inputs": [],
      "name": "UUPSUnauthorizedCallContext",
      "type": "error"
    },
    {
      "inputs": [
        {
          "internalType": "bytes32",
          "name": "slot",
          "type": "bytes32"
        }
      ],
      "name": "UUPSUnsupportedProxiableUUID",
      "type": "error"
    },
    {
      "anonymous": false,
      "inputs": [
        {
          "indexed": true,
          "internalType": "uint256",
          "name": "epochId",
          "type": "uint256"
        },
        {
          "indexed": true,
          "internalType": "uint256",
          "name": "dlpId",
          "type": "uint256"
        },
        {
          "indexed": true,
          "internalType": "uint256",
          "name": "trancheId",
          "type": "uint256"
        },
        {
          "indexed": false,
          "internalType": "uint256",
          "name": "trancheAmount",
          "type": "uint256"
        },
        {
          "indexed": false,
          "internalType": "uint256",
          "name": "tokenRewardAmount",
          "type": "uint256"
        },
        {
          "indexed": false,
          "internalType": "uint256",
          "name": "spareToken",
          "type": "uint256"
        },
        {
          "indexed": false,
          "internalType": "uint256",
          "name": "spareVana",
          "type": "uint256"
        },
        {
          "indexed": false,
          "internalType": "uint256",
          "name": "usedVanaAmount",
          "type": "uint256"
        }
      ],
      "name": "EpochDlpRewardDistributed",
      "type": "event"
    },
    {
      "anonymous": false,
      "inputs": [
        {
          "indexed": false,
          "internalType": "uint64",
          "name": "version",
          "type": "uint64"
        }
      ],
      "name": "Initialized",
      "type": "event"
    },
    {
      "anonymous": false,
      "inputs": [
        {
          "indexed": false,
          "internalType": "address",
          "name": "account",
          "type": "address"
        }
      ],
      "name": "Paused",
      "type": "event"
    },
    {
      "anonymous": false,
      "inputs": [
        {
          "indexed": true,
          "internalType": "bytes32",
          "name": "role",
          "type": "bytes32"
        },
        {
          "indexed": true,
          "internalType": "bytes32",
          "name": "previousAdminRole",
          "type": "bytes32"
        },
        {
          "indexed": true,
          "internalType": "bytes32",
          "name": "newAdminRole",
          "type": "bytes32"
        }
      ],
      "name": "RoleAdminChanged",
      "type": "event"
    },
    {
      "anonymous": false,
      "inputs": [
        {
          "indexed": true,
          "internalType": "bytes32",
          "name": "role",
          "type": "bytes32"
        },
        {
          "indexed": true,
          "internalType": "address",
          "name": "account",
          "type": "address"
        },
        {
          "indexed": true,
          "internalType": "address",
          "name": "sender",
          "type": "address"
        }
      ],
      "name": "RoleGranted",
      "type": "event"
    },
    {
      "anonymous": false,
      "inputs": [
        {
          "indexed": true,
          "internalType": "bytes32",
          "name": "role",
          "type": "bytes32"
        },
        {
          "indexed": true,
          "internalType": "address",
          "name": "account",
          "type": "address"
        },
        {
          "indexed": true,
          "internalType": "address",
          "name": "sender",
          "type": "address"
        }
      ],
      "name": "RoleRevoked",
      "type": "event"
    },
    {
      "anonymous": false,
      "inputs": [
        {
          "indexed": false,
          "internalType": "address",
          "name": "account",
          "type": "address"
        }
      ],
      "name": "Unpaused",
      "type": "event"
    },
    {
      "anonymous": false,
      "inputs": [
        {
          "indexed": true,
          "internalType": "address",
          "name": "implementation",
          "type": "address"
        }
      ],
      "name": "Upgraded",
      "type": "event"
    },
    {
      "inputs": [],
      "name": "DEFAULT_ADMIN_ROLE",
      "outputs": [
        {
          "internalType": "bytes32",
          "name": "",
          "type": "bytes32"
        }
      ],
      "stateMutability": "view",
      "type": "function"
    },
    {
      "inputs": [],
      "name": "MAINTAINER_ROLE",
      "outputs": [
        {
          "internalType": "bytes32",
          "name": "",
          "type": "bytes32"
        }
      ],
      "stateMutability": "view",
      "type": "function"
    },
    {
      "inputs": [],
      "name": "REWARD_DEPLOYER_ROLE",
      "outputs": [
        {
          "internalType": "bytes32",
          "name": "",
          "type": "bytes32"
        }
      ],
      "stateMutability": "view",
      "type": "function"
    },
    {
      "inputs": [],
      "name": "UPGRADE_INTERFACE_VERSION",
      "outputs": [
        {
          "internalType": "string",
          "name": "",
          "type": "string"
        }
      ],
      "stateMutability": "view",
      "type": "function"
    },
    {
      "inputs": [
        {
          "internalType": "uint256",
          "name": "epochId",
          "type": "uint256"
        },
        {
          "internalType": "uint256[]",
          "name": "dlpIds",
          "type": "uint256[]"
        }
      ],
      "name": "distributeRewards",
      "outputs": [],
      "stateMutability": "nonpayable",
      "type": "function"
    },
    {
      "inputs": [],
      "name": "dlpRegistry",
      "outputs": [
        {
          "internalType": "contract IDLPRegistry",
          "name": "",
          "type": "address"
        }
      ],
      "stateMutability": "view",
      "type": "function"
    },
    {
      "inputs": [],
      "name": "dlpRewardSwap",
      "outputs": [
        {
          "internalType": "contract IDLPRewardSwap",
          "name": "",
          "type": "address"
        }
      ],
      "stateMutability": "view",
      "type": "function"
    },
    {
      "inputs": [
        {
          "internalType": "uint256",
          "name": "epochId",
          "type": "uint256"
        },
        {
          "internalType": "uint256",
          "name": "dlpId",
          "type": "uint256"
        }
      ],
      "name": "epochDlpDistributedRewards",
      "outputs": [
        {
          "components": [
            {
              "internalType": "uint256",
              "name": "amount",
              "type": "uint256"
            },
            {
              "internalType": "uint256",
              "name": "blockNumber",
              "type": "uint256"
            },
            {
              "internalType": "uint256",
              "name": "tokenRewardAmount",
              "type": "uint256"
            },
            {
              "internalType": "uint256",
              "name": "spareToken",
              "type": "uint256"
            },
            {
              "internalType": "uint256",
              "name": "spareVana",
              "type": "uint256"
            },
            {
              "internalType": "uint256",
              "name": "usedVanaAmount",
              "type": "uint256"
            }
          ],
          "internalType": "struct IDLPRewardDeployer.DistributedReward[]",
          "name": "",
          "type": "tuple[]"
        }
      ],
      "stateMutability": "view",
      "type": "function"
    },
    {
      "inputs": [
        {
          "internalType": "bytes32",
          "name": "role",
          "type": "bytes32"
        }
      ],
      "name": "getRoleAdmin",
      "outputs": [
        {
          "internalType": "bytes32",
          "name": "",
          "type": "bytes32"
        }
      ],
      "stateMutability": "view",
      "type": "function"
    },
    {
      "inputs": [
        {
          "internalType": "bytes32",
          "name": "role",
          "type": "bytes32"
        },
        {
          "internalType": "address",
          "name": "account",
          "type": "address"
        }
      ],
      "name": "grantRole",
      "outputs": [],
      "stateMutability": "nonpayable",
      "type": "function"
    },
    {
      "inputs": [
        {
          "internalType": "bytes32",
          "name": "role",
          "type": "bytes32"
        },
        {
          "internalType": "address",
          "name": "account",
          "type": "address"
        }
      ],
      "name": "hasRole",
      "outputs": [
        {
          "internalType": "bool",
          "name": "",
          "type": "bool"
        }
      ],
      "stateMutability": "view",
      "type": "function"
    },
    {
      "inputs": [
        {
          "internalType": "address",
          "name": "ownerAddress",
          "type": "address"
        },
        {
          "internalType": "address",
          "name": "dlpRegistryAddress",
          "type": "address"
        },
        {
          "internalType": "address",
          "name": "vanaEpochAddress",
          "type": "address"
        },
        {
          "internalType": "address",
          "name": "dlpRewardSwapAddress",
          "type": "address"
        },
        {
          "internalType": "uint256",
          "name": "newNumberOfTranches",
          "type": "uint256"
        },
        {
          "internalType": "uint256",
          "name": "newRewardPercentage",
          "type": "uint256"
        },
        {
          "internalType": "uint256",
          "name": "newMaximumSlippagePercentage",
          "type": "uint256"
        }
      ],
      "name": "initialize",
      "outputs": [],
      "stateMutability": "nonpayable",
      "type": "function"
    },
    {
      "inputs": [],
      "name": "maximumSlippagePercentage",
      "outputs": [
        {
          "internalType": "uint256",
          "name": "",
          "type": "uint256"
        }
      ],
      "stateMutability": "view",
      "type": "function"
    },
    {
      "inputs": [
        {
          "internalType": "uint256",
          "name": "epochIdStart",
          "type": "uint256"
        },
        {
          "internalType": "uint256",
          "name": "epochIdEnd",
          "type": "uint256"
        }
      ],
      "name": "migrateEpochRewards",
      "outputs": [],
      "stateMutability": "nonpayable",
      "type": "function"
    },
    {
      "inputs": [],
      "name": "numberOfTranches",
      "outputs": [
        {
          "internalType": "uint256",
          "name": "",
          "type": "uint256"
        }
      ],
      "stateMutability": "view",
      "type": "function"
    },
    {
      "inputs": [],
      "name": "pause",
      "outputs": [],
      "stateMutability": "nonpayable",
      "type": "function"
    },
    {
      "inputs": [],
      "name": "paused",
      "outputs": [
        {
          "internalType": "bool",
          "name": "",
          "type": "bool"
        }
      ],
      "stateMutability": "view",
      "type": "function"
    },
    {
      "inputs": [],
      "name": "proxiableUUID",
      "outputs": [
        {
          "internalType": "bytes32",
          "name": "",
          "type": "bytes32"
        }
      ],
      "stateMutability": "view",
      "type": "function"
    },
    {
      "inputs": [
        {
          "internalType": "bytes32",
          "name": "role",
          "type": "bytes32"
        },
        {
          "internalType": "address",
          "name": "callerConfirmation",
          "type": "address"
        }
      ],
      "name": "renounceRole",
      "outputs": [],
      "stateMutability": "nonpayable",
      "type": "function"
    },
    {
      "inputs": [
        {
          "internalType": "bytes32",
          "name": "role",
          "type": "bytes32"
        },
        {
          "internalType": "address",
          "name": "account",
          "type": "address"
        }
      ],
      "name": "revokeRole",
      "outputs": [],
      "stateMutability": "nonpayable",
      "type": "function"
    },
    {
      "inputs": [],
      "name": "rewardPercentage",
      "outputs": [
        {
          "internalType": "uint256",
          "name": "",
          "type": "uint256"
        }
      ],
      "stateMutability": "view",
      "type": "function"
    },
    {
      "inputs": [
        {
          "internalType": "bytes4",
          "name": "interfaceId",
          "type": "bytes4"
        }
      ],
      "name": "supportsInterface",
      "outputs": [
        {
          "internalType": "bool",
          "name": "",
          "type": "bool"
        }
      ],
      "stateMutability": "view",
      "type": "function"
    },
    {
      "inputs": [],
      "name": "treasury",
      "outputs": [
        {
          "internalType": "contract ITreasury",
          "name": "",
          "type": "address"
        }
      ],
      "stateMutability": "view",
      "type": "function"
    },
    {
      "inputs": [],
      "name": "unpause",
      "outputs": [],
      "stateMutability": "nonpayable",
      "type": "function"
    },
    {
      "inputs": [
        {
          "internalType": "address",
          "name": "dlpRegistryAddress",
          "type": "address"
        }
      ],
      "name": "updateDlpRegistry",
      "outputs": [],
      "stateMutability": "nonpayable",
      "type": "function"
    },
    {
      "inputs": [
        {
          "internalType": "address",
          "name": "dlpRewardSwapAddress",
          "type": "address"
        }
      ],
      "name": "updateDlpRewardSwap",
      "outputs": [],
      "stateMutability": "nonpayable",
      "type": "function"
    },
    {
      "inputs": [
        {
          "internalType": "uint256",
          "name": "newMaximumSlippagePercentage",
          "type": "uint256"
        }
      ],
      "name": "updateMaximumSlippagePercentage",
      "outputs": [],
      "stateMutability": "nonpayable",
      "type": "function"
    },
    {
      "inputs": [
        {
          "internalType": "uint256",
          "name": "newRewardPercentage",
          "type": "uint256"
        }
      ],
      "name": "updateRewardPercentage",
      "outputs": [],
      "stateMutability": "nonpayable",
      "type": "function"
    },
    {
      "inputs": [
        {
          "internalType": "address",
          "name": "treasuryAddress",
          "type": "address"
        }
      ],
      "name": "updateTreasury",
      "outputs": [],
      "stateMutability": "nonpayable",
      "type": "function"
    },
    {
      "inputs": [
        {
          "internalType": "address",
          "name": "vanaEpochAddress",
          "type": "address"
        }
      ],
      "name": "updateVanaEpoch",
      "outputs": [],
      "stateMutability": "nonpayable",
      "type": "function"
    },
    {
      "inputs": [
        {
          "internalType": "address",
          "name": "newImplementation",
          "type": "address"
        },
        {
          "internalType": "bytes",
          "name": "data",
          "type": "bytes"
        }
      ],
      "name": "upgradeToAndCall",
      "outputs": [],
      "stateMutability": "payable",
      "type": "function"
    },
    {
      "inputs": [],
      "name": "vanaEpoch",
      "outputs": [
        {
          "internalType": "contract IVanaEpoch",
          "name": "",
          "type": "address"
        }
      ],
      "stateMutability": "view",
      "type": "function"
    },
    {
      "inputs": [],
      "name": "version",
      "outputs": [
        {
          "internalType": "uint256",
          "name": "",
          "type": "uint256"
        }
      ],
      "stateMutability": "pure",
      "type": "function"
    },
    {
      "stateMutability": "payable",
      "type": "receive"
    }
  ],
  "transactionHash": "0xf206575216d2630906e09a6f98c2c8288e0f30babee16490e0a372c4e6818d0f",
  "args": [],
  "numDeployments": 3,
  "solcInputHash": "5b3d4e3d468b29d83bc40ca576ba8d91",
  "bytecode": "0x60a06040523060805234801561001457600080fd5b5061001d610022565b6100d4565b7ff0c57e16840df040f15088dc2f81fe391c3923bec73e23a9662efc9c229c6a00805468010000000000000000900460ff16156100725760405163f92ee8a960e01b815260040160405180910390fd5b80546001600160401b03908116146100d15780546001600160401b0319166001600160401b0390811782556040519081527fc7f505b2f371ae2175ee4913f4499e1f2633a7b5936321eed1cdaeb6115181d29060200160405180910390a15b50565b6080516122736100fd600039600081816114b8015281816114e1015261161e01526122736000f3fe6080604052600436106101825760003560e01c8063016102301461018e57806301ffc9a7146101c45780630ed4f7af146101f45780631320e045146102245780631eb2454b14610246578063248a9ca3146102665780632f2ff15d1461028657806331b8fa20146102a657806336568abe146102bc5780633f4ba83a146102dc578063467bb545146102f15780634f1ef2861461031157806352d1902d1461032457806352d472eb1461033957806354fd4d501461034f5780635c975abb14610363578063615544cd1461037857806361d027b3146103a55780637eb97e88146103c55780637f51bb1f146103e55780638456cb591461040557806391d148541461041a57806397609f111461043a578063a217fddf14610450578063a4f209b014610465578063ad3cb1cc14610485578063c00b9185146104c3578063d547741f146104e3578063e77fc7a414610503578063ea01835314610523578063f312825214610543578063f874225414610563578063f897b6e61461058557600080fd5b3661018957005b600080fd5b34801561019a57600080fd5b506001546101ae906001600160a01b031681565b6040516101bb9190611a09565b60405180910390f35b3480156101d057600080fd5b506101e46101df366004611a1d565b6105a5565b60405190151581526020016101bb565b34801561020057600080fd5b506102166000805160206121de83398151915281565b6040519081526020016101bb565b34801561023057600080fd5b5061024461023f366004611a5c565b6105dc565b005b34801561025257600080fd5b50610244610261366004611a5c565b610617565b34801561027257600080fd5b50610216610281366004611a79565b610652565b34801561029257600080fd5b506102446102a1366004611a92565b610672565b3480156102b257600080fd5b5061021660045481565b3480156102c857600080fd5b506102446102d7366004611a92565b610694565b3480156102e857600080fd5b506102446106cc565b3480156102fd57600080fd5b5061024461030c366004611a5c565b6106ef565b61024461031f366004611b58565b61072a565b34801561033057600080fd5b50610216610749565b34801561034557600080fd5b5061021660055481565b34801561035b57600080fd5b506001610216565b34801561036f57600080fd5b506101e4610766565b34801561038457600080fd5b50610398610393366004611bea565b61077b565b6040516101bb9190611c0c565b3480156103b157600080fd5b506003546101ae906001600160a01b031681565b3480156103d157600080fd5b506000546101ae906001600160a01b031681565b3480156103f157600080fd5b50610244610400366004611a5c565b6108c4565b34801561041157600080fd5b506102446108ff565b34801561042657600080fd5b506101e4610435366004611a92565b61091f565b34801561044657600080fd5b5061021660065481565b34801561045c57600080fd5b50610216600081565b34801561047157600080fd5b50610244610480366004611a79565b610955565b34801561049157600080fd5b506104b6604051806040016040528060058152602001640352e302e360dc1b81525081565b6040516101bb9190611cad565b3480156104cf57600080fd5b506002546101ae906001600160a01b031681565b3480156104ef57600080fd5b506102446104fe366004611a92565b610973565b34801561050f57600080fd5b5061024461051e366004611ce0565b61098f565b34801561052f57600080fd5b5061024461053e366004611bea565b610b4d565b34801561054f57600080fd5b5061024461055e366004611d57565b610dee565b34801561056f57600080fd5b5061021660008051602061221e83398151915281565b34801561059157600080fd5b506102446105a0366004611a79565b6112f1565b60006001600160e01b03198216637965db0b60e01b14806105d657506301ffc9a760e01b6001600160e01b03198316145b92915050565b60008051602061221e8339815191526105f48161130f565b50600280546001600160a01b0319166001600160a01b0392909216919091179055565b60008051602061221e83398151915261062f8161130f565b50600080546001600160a01b0319166001600160a01b0392909216919091179055565b60008061065d611319565b60009384526020525050604090206001015490565b61067b82610652565b6106848161130f565b61068e838361133d565b50505050565b6001600160a01b03811633146106bd5760405163334bd91960e11b815260040160405180910390fd5b6106c782826113de565b505050565b60008051602061221e8339815191526106e48161130f565b6106ec611456565b50565b60008051602061221e8339815191526107078161130f565b50600180546001600160a01b0319166001600160a01b0392909216919091179055565b6107326114ad565b61073b82611554565b610745828261155f565b5050565b6000610753611613565b506000805160206121be83398151915290565b60008061077161165c565b5460ff1692915050565b600082815260076020908152604080832084845290915281206001810154606092906001600160401b038111156107b4576107b4611ac2565b60405190808252806020026020018201604052801561081e57816020015b61080b6040518060c001604052806000815260200160008152602001600081526020016000815260200160008152602001600081525090565b8152602001906001900390816107d25790505b50905060005b82600101548110156108bb57600283016000610841836001611dec565b81526020019081526020016000206040518060c001604052908160008201548152602001600182015481526020016002820154815260200160038201548152602001600482015481526020016005820154815250508282815181106108a8576108a8611dff565b6020908102919091010152600101610824565b50949350505050565b60008051602061221e8339815191526108dc8161130f565b50600380546001600160a01b0319166001600160a01b0392909216919091179055565b60008051602061221e8339815191526109178161130f565b6106ec611680565b60008061092a611319565b6000948552602090815260408086206001600160a01b03959095168652939052505090205460ff1690565b60008051602061221e83398151915261096d8161130f565b50600555565b61097c82610652565b6109858161130f565b61068e83836113de565b60006109996116c7565b805490915060ff600160401b82041615906001600160401b03166000811580156109c05750825b90506000826001600160401b031660011480156109dc5750303b155b9050811580156109ea575080155b15610a085760405163f92ee8a960e01b815260040160405180910390fd5b84546001600160401b03191660011785558315610a3157845460ff60401b1916600160401b1785555b610a396116eb565b610a416116eb565b610a496116f3565b600080546001600160a01b03808e166001600160a01b031992831617909255600180548d841690831617905560028054928c1692909116919091179055600488905560058790556006869055610abb6000805160206121de83398151915260008051602061221e833981519152611703565b610ac660008d61133d565b50610adf60008051602061221e8339815191528d61133d565b50610af86000805160206121de8339815191528d61133d565b508315610b3f57845460ff60401b19168555604051600181527fc7f505b2f371ae2175ee4913f4499e1f2633a7b5936321eed1cdaeb6115181d29060200160405180910390a15b505050505050505050505050565b60008051602061221e833981519152610b658161130f565b60008060009054906101000a90046001600160a01b03166001600160a01b03166368ed41ed6040518163ffffffff1660e01b8152600401602060405180830381865afa158015610bb9573d6000803e3d6000fd5b505050506040513d601f19601f82011682018060405250810190610bdd9190611e15565b9050835b838111610de75760015b828111610dde576001546040516359d3dced60e11b815260048101849052602481018390526000916001600160a01b03169063b3a7b9da906044016040805180830381865afa158015610c42573d6000803e3d6000fd5b505050506040513d601f19601f82011682018060405250810190610c669190611e43565b6020015190508015610dd5576000838152600760209081526040808320858452909152812060018101805491929091610c9e90611e9a565b909155506040805160c08101825283815260015491516331ad879360e21b815260048101879052909160208301916001600160a01b039091169063c6b61e4c90602401608060405180830381865afa158015610cfe573d6000803e3d6000fd5b505050506040513d601f19601f82011682018060405250810190610d229190611eb3565b602001518152602001600081526020016000815260200160008152602001600081525081600201600083600101548152602001908152602001600020600082015181600001556020820151816001015560408201518160020155606082015181600301556080820151816004015560a08201518160050155905050806001015483856000805160206121fe83398151915285600080600089604051610dcb959493929190611f24565b60405180910390a4505b50600101610beb565b50600101610be1565b5050505050565b6000805160206121de833981519152610e068161130f565b610e0e611763565b6001546040516331ad879360e21b8152600481018690526000916001600160a01b03169063c6b61e4c90602401608060405180830381865afa158015610e58573d6000803e3d6000fd5b505050506040513d601f19601f82011682018060405250810190610e7c9190611eb3565b90508060600151610ea057604051638cf7570760e01b815260040160405180910390fd5b60005b838110156112e957600080546001600160a01b031663ea83e47b878785818110610ecf57610ecf611dff565b905060200201356040518263ffffffff1660e01b8152600401610ef491815260200190565b600060405180830381865afa158015610f11573d6000803e3d6000fd5b505050506040513d6000823e601f3d908101601f19168201604052610f399190810190611fae565b6001549091506000906001600160a01b031663b3a7b9da89898987818110610f6357610f63611dff565b905060200201356040518363ffffffff1660e01b8152600401610f90929190918252602082015260400190565b6040805180830381865afa158015610fac573d6000803e3d6000fd5b505050506040513d601f19601f82011682018060405250810190610fd09190611e43565b60008981526007602052604081209192509081898987818110610ff557610ff5611dff565b905060200201358152602001908152602001600020905081602001518160000154106110595787878581811061102d5761102d611dff565b90506020020135604051631661551760e31b815260040161105091815260200190565b60405180910390fd5b6000816001015460045461106d9190612136565b8254602085015161107e9190612136565b6110889190612149565b9050816001016000815461109b90611e9a565b909155506003546040516317d5759960e31b815230600482015260006024820152604481018390526001600160a01b039091169063beabacc890606401600060405180830381600087803b1580156110f257600080fd5b505af1158015611106573d6000803e3d6000fd5b50506002546040805160a0810182526101808901518152600554602082019081526006548284019081526080808c01516001600160a01b0390811660608601908152600354821692860192835295516325656a6360e01b8152945160048601529251602485015290516044840152925181166064830152915182166084820152600094508493508392839216906325656a6390879060a40160806040518083038185885af11580156111bc573d6000803e3d6000fd5b50505050506040513d601f19601f820116820180604052508101906111e1919061216b565b9350935093509350848660000160008282546111fd9190611dec565b925050819055506040518060c001604052808681526020014381526020018581526020018481526020018381526020018281525086600201600088600101548152602001908152602001600020600082015181600001556020820151816001015560408201518160020155606082015181600301556080820151816004015560a0820151816005015590505085600101548d8d8b8181106112a0576112a0611dff565b905060200201358f6000805160206121fe83398151915288888888886040516112cd959493929190611f24565b60405180910390a4505060019096019550610ea3945050505050565b505050505050565b60008051602061221e8339815191526113098161130f565b50600655565b6106ec8133611789565b7f02dd7bc7dec4dceedda775e58dd541e08a116c6c53815c0bd028192f7b62680090565b600080611348611319565b9050611354848461091f565b6113d4576000848152602082815260408083206001600160a01b03871684529091529020805460ff1916600117905561138a3390565b6001600160a01b0316836001600160a01b0316857f2f8788117e7eff1d82e926ec794901d17c78024a50270940304540a733656f0d60405160405180910390a460019150506105d6565b60009150506105d6565b6000806113e9611319565b90506113f5848461091f565b156113d4576000848152602082815260408083206001600160a01b0387168085529252808320805460ff1916905551339287917ff6391f5c32d9c69d2a47ea670b442974b53935d1edc7fd64eb21e047a839171b9190a460019150506105d6565b61145e6117c2565b600061146861165c565b805460ff1916815590507f5db9ee0a495bf2e6ff9c91a7834c1ba4fdd244a5e8aa4e537bd38aeae4b073aa335b6040516114a29190611a09565b60405180910390a150565b306001600160a01b037f000000000000000000000000000000000000000000000000000000000000000016148061153457507f00000000000000000000000000000000000000000000000000000000000000006001600160a01b03166115286000805160206121be833981519152546001600160a01b031690565b6001600160a01b031614155b156115525760405163703e46dd60e11b815260040160405180910390fd5b565b60006107458161130f565b816001600160a01b03166352d1902d6040518163ffffffff1660e01b8152600401602060405180830381865afa9250505080156115b9575060408051601f3d908101601f191682019092526115b691810190611e15565b60015b6115d85781604051634c9c8ce360e01b81526004016110509190611a09565b6000805160206121be833981519152811461160957604051632a87526960e21b815260048101829052602401611050565b6106c783836117e7565b306001600160a01b037f000000000000000000000000000000000000000000000000000000000000000016146115525760405163703e46dd60e11b815260040160405180910390fd5b7fcd5ed15c6e187e77e9aee88184c21f4f2182ab5827cb3b7e07fbedcd63f0330090565b611688611763565b600061169261165c565b805460ff1916600117815590507f62e78cea01bee320cd4e420270b5ea74000d11b0c9f74754ebdbfc544b05a2586114953390565b7ff0c57e16840df040f15088dc2f81fe391c3923bec73e23a9662efc9c229c6a0090565b61155261183d565b6116fb61183d565b611552611862565b600061170d611319565b9050600061171a84610652565b600085815260208490526040808220600101869055519192508491839187917fbd79b86ffe0ab8e8776151514217cd7cacd52c909f66475c3af44e129f0b00ff9190a450505050565b61176b610766565b156115525760405163d93c066560e01b815260040160405180910390fd5b611793828261091f565b6107455760405163e2517d3f60e01b81526001600160a01b038216600482015260248101839052604401611050565b6117ca610766565b61155257604051638dfc202b60e01b815260040160405180910390fd5b6117f08261187f565b6040516001600160a01b038316907fbc7cd75a20ee27fd9adebab32041f755214dbc6bffa90cc0225b39da2e5c2d3b90600090a2805115611835576106c782826118db565b610745611951565b611845611970565b61155257604051631afcd79f60e31b815260040160405180910390fd5b61186a61183d565b600061187461165c565b805460ff1916905550565b806001600160a01b03163b6000036118ac5780604051634c9c8ce360e01b81526004016110509190611a09565b6000805160206121be83398151915280546001600160a01b0319166001600160a01b0392909216919091179055565b6060600080846001600160a01b0316846040516118f891906121a1565b600060405180830381855af49150503d8060008114611933576040519150601f19603f3d011682016040523d82523d6000602084013e611938565b606091505b509150915061194885838361198a565b95945050505050565b34156115525760405163b398979f60e01b815260040160405180910390fd5b600061197a6116c7565b54600160401b900460ff16919050565b60608261199f5761199a826119e0565b6119d9565b81511580156119b657506001600160a01b0384163b155b156119d65783604051639996b31560e01b81526004016110509190611a09565b50805b9392505050565b8051156119f05780518082602001fd5b604051630a12f52160e11b815260040160405180910390fd5b6001600160a01b0391909116815260200190565b600060208284031215611a2f57600080fd5b81356001600160e01b0319811681146119d957600080fd5b6001600160a01b03811681146106ec57600080fd5b600060208284031215611a6e57600080fd5b81356119d981611a47565b600060208284031215611a8b57600080fd5b5035919050565b60008060408385031215611aa557600080fd5b823591506020830135611ab781611a47565b809150509250929050565b634e487b7160e01b600052604160045260246000fd5b6040516101c081016001600160401b0381118282101715611afb57611afb611ac2565b60405290565b604051601f8201601f191681016001600160401b0381118282101715611b2957611b29611ac2565b604052919050565b60006001600160401b03821115611b4a57611b4a611ac2565b50601f01601f191660200190565b60008060408385031215611b6b57600080fd5b8235611b7681611a47565b915060208301356001600160401b03811115611b9157600080fd5b8301601f81018513611ba257600080fd5b8035611bb5611bb082611b31565b611b01565b818152866020838501011115611bca57600080fd5b816020840160208301376000602083830101528093505050509250929050565b60008060408385031215611bfd57600080fd5b50508035926020909101359150565b602080825282518282018190526000918401906040840190835b81811015611c7e578351805184526020810151602085015260408101516040850152606081015160608501526080810151608085015260a081015160a08501525060c083019250602084019350600181019050611c26565b509095945050505050565b60005b83811015611ca4578181015183820152602001611c8c565b50506000910152565b6020815260008251806020840152611ccc816040850160208701611c89565b601f01601f19169190910160400192915050565b600080600080600080600060e0888a031215611cfb57600080fd5b8735611d0681611a47565b96506020880135611d1681611a47565b95506040880135611d2681611a47565b94506060880135611d3681611a47565b9699959850939660808101359560a0820135955060c0909101359350915050565b600080600060408486031215611d6c57600080fd5b8335925060208401356001600160401b03811115611d8957600080fd5b8401601f81018613611d9a57600080fd5b80356001600160401b03811115611db057600080fd5b8660208260051b8401011115611dc557600080fd5b939660209190910195509293505050565b634e487b7160e01b600052601160045260246000fd5b808201808211156105d6576105d6611dd6565b634e487b7160e01b600052603260045260246000fd5b600060208284031215611e2757600080fd5b5051919050565b80518015158114611e3e57600080fd5b919050565b60006040828403128015611e5657600080fd5b50604080519081016001600160401b0381118282101715611e7957611e79611ac2565b604052611e8583611e2e565b81526020928301519281019290925250919050565b600060018201611eac57611eac611dd6565b5060010190565b60006080828403128015611ec657600080fd5b50604051600090608081016001600160401b0381118282101715611eec57611eec611ac2565b60409081528451825260208086015190830152848101519082018190529150611f1760608501611e2e565b6060820152949350505050565b948552602085019390935260408401919091526060830152608082015260a00190565b8051611e3e81611a47565b600082601f830112611f6357600080fd5b8151611f71611bb082611b31565b818152846020838601011115611f8657600080fd5b611f97826020830160208701611c89565b949350505050565b805160048110611e3e57600080fd5b600060208284031215611fc057600080fd5b81516001600160401b03811115611fd657600080fd5b82016101c08185031215611fe957600080fd5b611ff1611ad8565b8151815261200160208301611f47565b602082015261201260408301611f47565b604082015261202360608301611f47565b606082015261203460808301611f47565b608082015260a08201516001600160401b0381111561205257600080fd5b61205e86828501611f52565b60a08301525060c08201516001600160401b0381111561207d57600080fd5b61208986828501611f52565b60c08301525060e08201516001600160401b038111156120a857600080fd5b6120b486828501611f52565b60e0830152506101008201516001600160401b038111156120d457600080fd5b6120e086828501611f52565b610100830152506101208281015190820152610140808301519082015261210a6101608301611f9f565b61016082015261018082810151908201526121286101a08301611e2e565b6101a0820152949350505050565b818103818111156105d6576105d6611dd6565b60008261216657634e487b7160e01b600052601260045260246000fd5b500490565b6000806000806080858703121561218157600080fd5b505082516020840151604085015160609095015191969095509092509050565b600082516121b3818460208701611c89565b919091019291505056fe360894a13ba1a3210667c828492db98dca3e2076cc3735a920a3ca505d382bbca6a58b7000e06d310ae8356dd1243f1bd51b1bcb09ee649fba545558a75abf8d872cb0aacd34968c9f40170e4e29f6edb40dd473cd4a4662992a32f09bb54724339759585899103d2ace64958e37e18ccb0504652c81d4a1b8aa80fe2126ab95a2646970667358221220f9b3f46d049e1edc7299ad06bc2bfeab9ccc661015e452274ac61ff6773515c564736f6c634300081c0033",
  "devdoc": {
    "errors": {
      "AccessControlBadConfirmation()": [
        {
          "details": "The caller of a function is not the expected one. NOTE: Don't confuse with {AccessControlUnauthorizedAccount}."
        }
      ],
      "AccessControlUnauthorizedAccount(address,bytes32)": [
        {
          "details": "The `account` is missing a role."
        }
      ],
      "AddressEmptyCode(address)": [
        {
          "details": "There's no code at `target` (it is not a contract)."
        }
      ],
      "ERC1967InvalidImplementation(address)": [
        {
          "details": "The `implementation` of the proxy is invalid."
        }
      ],
      "ERC1967NonPayable()": [
        {
          "details": "An upgrade function sees `msg.value > 0` that may be lost."
        }
      ],
      "EnforcedPause()": [
        {
          "details": "The operation failed because the contract is paused."
        }
      ],
      "ExpectedPause()": [
        {
          "details": "The operation failed because the contract is not paused."
        }
      ],
      "FailedInnerCall()": [
        {
          "details": "A call to an address target failed. The target may have reverted."
        }
      ],
      "InvalidInitialization()": [
        {
          "details": "The contract is already initialized."
        }
      ],
      "NotInitializing()": [
        {
          "details": "The contract is not initializing."
        }
      ],
      "UUPSUnauthorizedCallContext()": [
        {
          "details": "The call is from an unauthorized context."
        }
      ],
      "UUPSUnsupportedProxiableUUID(bytes32)": [
        {
          "details": "The storage `slot` is unsupported as a UUID."
        }
      ]
    },
    "events": {
      "Initialized(uint64)": {
        "details": "Triggered when the contract has been initialized or reinitialized."
      },
      "Paused(address)": {
        "details": "Emitted when the pause is triggered by `account`."
      },
      "RoleAdminChanged(bytes32,bytes32,bytes32)": {
        "details": "Emitted when `newAdminRole` is set as ``role``'s admin role, replacing `previousAdminRole` `DEFAULT_ADMIN_ROLE` is the starting admin for all roles, despite {RoleAdminChanged} not being emitted signaling this."
      },
      "RoleGranted(bytes32,address,address)": {
        "details": "Emitted when `account` is granted `role`. `sender` is the account that originated the contract call, an admin role bearer except when using {AccessControl-_setupRole}."
      },
      "RoleRevoked(bytes32,address,address)": {
        "details": "Emitted when `account` is revoked `role`. `sender` is the account that originated the contract call:   - if using `revokeRole`, it is the admin role bearer   - if using `renounceRole`, it is the role bearer (i.e. `account`)"
      },
      "Unpaused(address)": {
        "details": "Emitted when the pause is lifted by `account`."
      },
      "Upgraded(address)": {
        "details": "Emitted when the implementation is upgraded."
      }
    },
    "kind": "dev",
    "methods": {
      "constructor": {
        "custom:oz-upgrades-unsafe-allow": "constructor"
      },
      "getRoleAdmin(bytes32)": {
        "details": "Returns the admin role that controls `role`. See {grantRole} and {revokeRole}. To change a role's admin, use {_setRoleAdmin}."
      },
      "grantRole(bytes32,address)": {
        "details": "Grants `role` to `account`. If `account` had not been already granted `role`, emits a {RoleGranted} event. Requirements: - the caller must have ``role``'s admin role. May emit a {RoleGranted} event."
      },
      "hasRole(bytes32,address)": {
        "details": "Returns `true` if `account` has been granted `role`."
      },
      "paused()": {
        "details": "Returns true if the contract is paused, and false otherwise."
      },
      "proxiableUUID()": {
        "details": "Implementation of the ERC1822 {proxiableUUID} function. This returns the storage slot used by the implementation. It is used to validate the implementation's compatibility when performing an upgrade. IMPORTANT: A proxy pointing at a proxiable contract should not be considered proxiable itself, because this risks bricking a proxy that upgrades to it, by delegating to itself until out of gas. Thus it is critical that this function revert if invoked through a proxy. This is guaranteed by the `notDelegated` modifier."
      },
      "renounceRole(bytes32,address)": {
        "details": "Revokes `role` from the calling account. Roles are often managed via {grantRole} and {revokeRole}: this function's purpose is to provide a mechanism for accounts to lose their privileges if they are compromised (such as when a trusted device is misplaced). If the calling account had been revoked `role`, emits a {RoleRevoked} event. Requirements: - the caller must be `callerConfirmation`. May emit a {RoleRevoked} event."
      },
      "revokeRole(bytes32,address)": {
        "details": "Revokes `role` from `account`. If `account` had been granted `role`, emits a {RoleRevoked} event. Requirements: - the caller must have ``role``'s admin role. May emit a {RoleRevoked} event."
      },
      "supportsInterface(bytes4)": {
        "details": "See {IERC165-supportsInterface}."
      },
      "upgradeToAndCall(address,bytes)": {
        "custom:oz-upgrades-unsafe-allow-reachable": "delegatecall",
        "details": "Upgrade the implementation of the proxy to `newImplementation`, and subsequently execute the function call encoded in `data`. Calls {_authorizeUpgrade}. Emits an {Upgraded} event."
      }
    },
    "version": 1
  },
  "userdoc": {
    "kind": "user",
    "methods": {},
    "version": 1
  },
  "storageLayout": {
    "storage": [
      {
        "astId": 7069,
        "contract": "contracts/dlpRewardDeployer/DLPRewardDeployerImplementation.sol:DLPRewardDeployerImplementation",
        "label": "dlpRegistry",
        "offset": 0,
        "slot": "0",
        "type": "t_contract(IDLPRegistry)6430"
      },
      {
        "astId": 7073,
        "contract": "contracts/dlpRewardDeployer/DLPRewardDeployerImplementation.sol:DLPRewardDeployerImplementation",
        "label": "vanaEpoch",
        "offset": 0,
        "slot": "1",
        "type": "t_contract(IVanaEpoch)9076"
      },
      {
        "astId": 7077,
        "contract": "contracts/dlpRewardDeployer/DLPRewardDeployerImplementation.sol:DLPRewardDeployerImplementation",
        "label": "dlpRewardSwap",
        "offset": 0,
        "slot": "2",
        "type": "t_contract(IDLPRewardSwap)7454"
      },
      {
        "astId": 7081,
        "contract": "contracts/dlpRewardDeployer/DLPRewardDeployerImplementation.sol:DLPRewardDeployerImplementation",
        "label": "treasury",
        "offset": 0,
        "slot": "3",
        "type": "t_contract(ITreasury)7874"
      },
      {
        "astId": 7084,
        "contract": "contracts/dlpRewardDeployer/DLPRewardDeployerImplementation.sol:DLPRewardDeployerImplementation",
        "label": "numberOfTranches",
        "offset": 0,
        "slot": "4",
        "type": "t_uint256"
      },
      {
        "astId": 7087,
        "contract": "contracts/dlpRewardDeployer/DLPRewardDeployerImplementation.sol:DLPRewardDeployerImplementation",
        "label": "rewardPercentage",
        "offset": 0,
        "slot": "5",
        "type": "t_uint256"
      },
      {
        "astId": 7090,
        "contract": "contracts/dlpRewardDeployer/DLPRewardDeployerImplementation.sol:DLPRewardDeployerImplementation",
        "label": "maximumSlippagePercentage",
        "offset": 0,
        "slot": "6",
        "type": "t_uint256"
      },
      {
        "astId": 7095,
        "contract": "contracts/dlpRewardDeployer/DLPRewardDeployerImplementation.sol:DLPRewardDeployerImplementation",
        "label": "_epochRewards",
        "offset": 0,
        "slot": "7",
        "type": "t_mapping(t_uint256,t_struct(EpochReward)7135_storage)"
      }
    ],
    "types": {
      "t_contract(IDLPRegistry)6430": {
        "encoding": "inplace",
        "label": "contract IDLPRegistry",
        "numberOfBytes": "20"
      },
      "t_contract(IDLPRewardSwap)7454": {
        "encoding": "inplace",
        "label": "contract IDLPRewardSwap",
        "numberOfBytes": "20"
      },
      "t_contract(ITreasury)7874": {
        "encoding": "inplace",
        "label": "contract ITreasury",
        "numberOfBytes": "20"
      },
      "t_contract(IVanaEpoch)9076": {
        "encoding": "inplace",
        "label": "contract IVanaEpoch",
        "numberOfBytes": "20"
      },
      "t_mapping(t_uint256,t_struct(DistributedReward)7119_storage)": {
        "encoding": "mapping",
        "key": "t_uint256",
        "label": "mapping(uint256 => struct IDLPRewardDeployer.DistributedReward)",
        "numberOfBytes": "32",
        "value": "t_struct(DistributedReward)7119_storage"
      },
      "t_mapping(t_uint256,t_struct(EpochDlpReward)7129_storage)": {
        "encoding": "mapping",
        "key": "t_uint256",
        "label": "mapping(uint256 => struct IDLPRewardDeployer.EpochDlpReward)",
        "numberOfBytes": "32",
        "value": "t_struct(EpochDlpReward)7129_storage"
      },
      "t_mapping(t_uint256,t_struct(EpochReward)7135_storage)": {
        "encoding": "mapping",
        "key": "t_uint256",
        "label": "mapping(uint256 => struct IDLPRewardDeployer.EpochReward)",
        "numberOfBytes": "32",
        "value": "t_struct(EpochReward)7135_storage"
      },
      "t_struct(DistributedReward)7119_storage": {
        "encoding": "inplace",
        "label": "struct IDLPRewardDeployer.DistributedReward",
        "members": [
          {
            "astId": 7108,
            "contract": "contracts/dlpRewardDeployer/DLPRewardDeployerImplementation.sol:DLPRewardDeployerImplementation",
            "label": "amount",
            "offset": 0,
            "slot": "0",
            "type": "t_uint256"
          },
          {
            "astId": 7110,
            "contract": "contracts/dlpRewardDeployer/DLPRewardDeployerImplementation.sol:DLPRewardDeployerImplementation",
            "label": "blockNumber",
            "offset": 0,
            "slot": "1",
            "type": "t_uint256"
          },
          {
            "astId": 7112,
            "contract": "contracts/dlpRewardDeployer/DLPRewardDeployerImplementation.sol:DLPRewardDeployerImplementation",
            "label": "tokenRewardAmount",
            "offset": 0,
            "slot": "2",
            "type": "t_uint256"
          },
          {
            "astId": 7114,
            "contract": "contracts/dlpRewardDeployer/DLPRewardDeployerImplementation.sol:DLPRewardDeployerImplementation",
            "label": "spareToken",
            "offset": 0,
            "slot": "3",
            "type": "t_uint256"
          },
          {
            "astId": 7116,
            "contract": "contracts/dlpRewardDeployer/DLPRewardDeployerImplementation.sol:DLPRewardDeployerImplementation",
            "label": "spareVana",
            "offset": 0,
            "slot": "4",
            "type": "t_uint256"
          },
          {
            "astId": 7118,
            "contract": "contracts/dlpRewardDeployer/DLPRewardDeployerImplementation.sol:DLPRewardDeployerImplementation",
            "label": "usedVanaAmount",
            "offset": 0,
            "slot": "5",
            "type": "t_uint256"
          }
        ],
        "numberOfBytes": "192"
      },
      "t_struct(EpochDlpReward)7129_storage": {
        "encoding": "inplace",
        "label": "struct IDLPRewardDeployer.EpochDlpReward",
        "members": [
          {
            "astId": 7121,
            "contract": "contracts/dlpRewardDeployer/DLPRewardDeployerImplementation.sol:DLPRewardDeployerImplementation",
            "label": "totalDistributedAmount",
            "offset": 0,
            "slot": "0",
            "type": "t_uint256"
          },
          {
            "astId": 7123,
            "contract": "contracts/dlpRewardDeployer/DLPRewardDeployerImplementation.sol:DLPRewardDeployerImplementation",
            "label": "tranchesCount",
            "offset": 0,
            "slot": "1",
            "type": "t_uint256"
          },
          {
            "astId": 7128,
            "contract": "contracts/dlpRewardDeployer/DLPRewardDeployerImplementation.sol:DLPRewardDeployerImplementation",
            "label": "distributedRewards",
            "offset": 0,
            "slot": "2",
            "type": "t_mapping(t_uint256,t_struct(DistributedReward)7119_storage)"
          }
        ],
        "numberOfBytes": "96"
      },
      "t_struct(EpochReward)7135_storage": {
        "encoding": "inplace",
        "label": "struct IDLPRewardDeployer.EpochReward",
        "members": [
          {
            "astId": 7134,
            "contract": "contracts/dlpRewardDeployer/DLPRewardDeployerImplementation.sol:DLPRewardDeployerImplementation",
            "label": "epochDlpRewards",
            "offset": 0,
            "slot": "0",
            "type": "t_mapping(t_uint256,t_struct(EpochDlpReward)7129_storage)"
          }
        ],
        "numberOfBytes": "32"
      },
      "t_uint256": {
        "encoding": "inplace",
        "label": "uint256",
        "numberOfBytes": "32"
      }
    }
  }
}