{
  "address": "0x783Be793d6FD4407985BB0831fc6d342ce4E03EF",
  "abi": [
    {
      "inputs": [],
      "stateMutability": "nonpayable",
      "type": "constructor"
    },
    {
      "inputs": [
        {
          "internalType": "address",
          "name": "target",
          "type": "address"
        }
      ],
      "name": "AddressEmptyCode",
      "type": "error"
    },
    {
      "inputs": [
        {
          "internalType": "address",
          "name": "account",
          "type": "address"
        }
      ],
      "name": "AddressInsufficientBalance",
      "type": "error"
    },
    {
      "inputs": [
        {
          "internalType": "address",
          "name": "implementation",
          "type": "address"
        }
      ],
      "name": "ERC1967InvalidImplementation",
      "type": "error"
    },
    {
      "inputs": [],
      "name": "ERC1967NonPayable",
      "type": "error"
    },
    {
      "inputs": [],
      "name": "FailedInnerCall",
      "type": "error"
    },
    {
      "inputs": [],
      "name": "InvalidAllowance",
      "type": "error"
    },
    {
      "inputs": [],
      "name": "InvalidAmount",
      "type": "error"
    },
    {
      "inputs": [],
      "name": "InvalidInitialization",
      "type": "error"
    },
    {
      "inputs": [],
      "name": "LengthMismatch",
      "type": "error"
    },
    {
      "inputs": [],
      "name": "NotInitializing",
      "type": "error"
    },
    {
      "inputs": [
        {
          "internalType": "address",
          "name": "owner",
          "type": "address"
        }
      ],
      "name": "OwnableInvalidOwner",
      "type": "error"
    },
    {
      "inputs": [
        {
          "internalType": "address",
          "name": "account",
          "type": "address"
        }
      ],
      "name": "OwnableUnauthorizedAccount",
      "type": "error"
    },
    {
      "inputs": [],
      "name": "ReentrancyGuardReentrantCall",
      "type": "error"
    },
    {
      "inputs": [
        {
          "internalType": "address",
          "name": "token",
          "type": "address"
        }
      ],
      "name": "SafeERC20FailedOperation",
      "type": "error"
    },
    {
      "inputs": [],
      "name": "UUPSUnauthorizedCallContext",
      "type": "error"
    },
    {
      "inputs": [
        {
          "internalType": "bytes32",
          "name": "slot",
          "type": "bytes32"
        }
      ],
      "name": "UUPSUnsupportedProxiableUUID",
      "type": "error"
    },
    {
      "anonymous": false,
      "inputs": [
        {
          "indexed": false,
          "internalType": "uint64",
          "name": "version",
          "type": "uint64"
        }
      ],
      "name": "Initialized",
      "type": "event"
    },
    {
      "anonymous": false,
      "inputs": [
        {
          "indexed": true,
          "internalType": "address",
          "name": "previousOwner",
          "type": "address"
        },
        {
          "indexed": true,
          "internalType": "address",
          "name": "newOwner",
          "type": "address"
        }
      ],
      "name": "OwnershipTransferStarted",
      "type": "event"
    },
    {
      "anonymous": false,
      "inputs": [
        {
          "indexed": true,
          "internalType": "address",
          "name": "previousOwner",
          "type": "address"
        },
        {
          "indexed": true,
          "internalType": "address",
          "name": "newOwner",
          "type": "address"
        }
      ],
      "name": "OwnershipTransferred",
      "type": "event"
    },
    {
      "anonymous": false,
      "inputs": [
        {
          "indexed": true,
          "internalType": "address",
          "name": "implementation",
          "type": "address"
        }
      ],
      "name": "Upgraded",
      "type": "event"
    },
    {
      "inputs": [],
      "name": "UPGRADE_INTERFACE_VERSION",
      "outputs": [
        {
          "internalType": "string",
          "name": "",
          "type": "string"
        }
      ],
      "stateMutability": "view",
      "type": "function"
    },
    {
      "inputs": [],
      "name": "acceptOwnership",
      "outputs": [],
      "stateMutability": "nonpayable",
      "type": "function"
    },
    {
      "inputs": [
        {
          "internalType": "address",
          "name": "ownerAddress",
          "type": "address"
        }
      ],
      "name": "initialize",
      "outputs": [],
      "stateMutability": "nonpayable",
      "type": "function"
    },
    {
      "inputs": [
        {
          "internalType": "contract IERC20",
          "name": "token",
          "type": "address"
        },
        {
          "internalType": "uint256",
          "name": "amount",
          "type": "uint256"
        },
        {
          "internalType": "address[]",
          "name": "recipients",
          "type": "address[]"
        }
      ],
      "name": "multisendToken",
      "outputs": [],
      "stateMutability": "nonpayable",
      "type": "function"
    },
    {
      "inputs": [
        {
          "internalType": "contract IERC20",
          "name": "token",
          "type": "address"
        },
        {
          "internalType": "uint256[]",
          "name": "amounts",
          "type": "uint256[]"
        },
        {
          "internalType": "address payable[]",
          "name": "recipients",
          "type": "address[]"
        }
      ],
      "name": "multisendTokenWithDifferentAmounts",
      "outputs": [],
      "stateMutability": "nonpayable",
      "type": "function"
    },
    {
      "inputs": [
        {
          "internalType": "uint256",
          "name": "amount",
          "type": "uint256"
        },
        {
          "internalType": "address payable[]",
          "name": "recipients",
          "type": "address[]"
        }
      ],
      "name": "multisendVana",
      "outputs": [],
      "stateMutability": "payable",
      "type": "function"
    },
    {
      "inputs": [
        {
          "internalType": "uint256[]",
          "name": "amounts",
          "type": "uint256[]"
        },
        {
          "internalType": "address payable[]",
          "name": "recipients",
          "type": "address[]"
        }
      ],
      "name": "multisendVanaWithDifferentAmounts",
      "outputs": [],
      "stateMutability": "payable",
      "type": "function"
    },
    {
      "inputs": [],
      "name": "owner",
      "outputs": [
        {
          "internalType": "address",
          "name": "",
          "type": "address"
        }
      ],
      "stateMutability": "view",
      "type": "function"
    },
    {
      "inputs": [],
      "name": "pendingOwner",
      "outputs": [
        {
          "internalType": "address",
          "name": "",
          "type": "address"
        }
      ],
      "stateMutability": "view",
      "type": "function"
    },
    {
      "inputs": [],
      "name": "proxiableUUID",
      "outputs": [
        {
          "internalType": "bytes32",
          "name": "",
          "type": "bytes32"
        }
      ],
      "stateMutability": "view",
      "type": "function"
    },
    {
      "inputs": [],
      "name": "renounceOwnership",
      "outputs": [],
      "stateMutability": "nonpayable",
      "type": "function"
    },
    {
      "inputs": [
        {
          "internalType": "address",
          "name": "newOwner",
          "type": "address"
        }
      ],
      "name": "transferOwnership",
      "outputs": [],
      "stateMutability": "nonpayable",
      "type": "function"
    },
    {
      "inputs": [
        {
          "internalType": "address",
          "name": "newImplementation",
          "type": "address"
        },
        {
          "internalType": "bytes",
          "name": "data",
          "type": "bytes"
        }
      ],
      "name": "upgradeToAndCall",
      "outputs": [],
      "stateMutability": "payable",
      "type": "function"
    }
  ],
  "transactionHash": "0x003ece4321cca9c973e8f1c4e40aa158150dd08d37c0785611d77a2a8a132023",
  "args": [],
  "numDeployments": 3,
  "solcInputHash": "08920422dfb44f66f5fff5cd6b4f367a",
  "bytecode": "0x60a06040523060805234801561001457600080fd5b5061001d610022565b6100d4565b7ff0c57e16840df040f15088dc2f81fe391c3923bec73e23a9662efc9c229c6a00805468010000000000000000900460ff16156100725760405163f92ee8a960e01b815260040160405180910390fd5b80546001600160401b03908116146100d15780546001600160401b0319166001600160401b0390811782556040519081527fc7f505b2f371ae2175ee4913f4499e1f2633a7b5936321eed1cdaeb6115181d29060200160405180910390a15b50565b6080516114446100fd600039600081816108fb015281816109240152610ab601526114446000f3fe6080604052600436106100a25760003560e01c80631b310310146100a75780634f1ef286146100bc57806352437e0c146100cf57806352d1902d146100ef578063715018a61461011757806379b9add01461012c57806379ba50971461013f5780638da5cb5b1461015457806398035f4b14610176578063ad3cb1cc14610196578063c4d66de8146101d4578063e30c3978146101f4578063f2fde38b14610209575b600080fd5b6100ba6100b5366004610fb0565b610229565b005b6100ba6100ca366004611076565b610369565b3480156100db57600080fd5b506100ba6100ea36600461111d565b610388565b3480156100fb57600080fd5b50610104610436565b6040519081526020015b60405180910390f35b34801561012357600080fd5b506100ba610453565b6100ba61013a36600461119f565b610467565b34801561014b57600080fd5b506100ba610537565b34801561016057600080fd5b5061016961057f565b60405161010e91906111ea565b34801561018257600080fd5b506100ba6101913660046111fe565b61059a565b3480156101a257600080fd5b506101c7604051806040016040528060058152602001640352e302e360dc1b81525081565b60405161010e91906112f1565b3480156101e057600080fd5b506100ba6101ef366004611324565b61071c565b34801561020057600080fd5b5061016961082d565b34801561021557600080fd5b506100ba610224366004611324565b610838565b6102316108a9565b80838114610255576040516001621398b960e31b0319815260040160405180910390fd5b3460005b828110156103235786868281811061027357610273611341565b9050602002013582610285919061136d565b915084848281811061029957610299611341565b90506020020160208101906102ae9190611324565b6001600160a01b03168787838181106102c9576102c9611341565b9050602002013560405160006040518083038185875af1925050503d8060008114610310576040519150601f19603f3d011682016040523d82523d6000602084013e610315565b606091505b505050806001019050610259565b50801561035957604051339082156108fc029083906000818181858888f19350505050158015610357573d6000803e3d6000fd5b505b50506103636108df565b50505050565b6103716108f0565b61037a82610995565b610384828261099d565b5050565b6103906108a9565b808381146103b4576040516001621398b960e31b0319815260040160405180910390fd5b60005b818110156104255761041d338585848181106103d5576103d5611341565b90506020020160208101906103ea9190611324565b8888858181106103fc576103fc611341565b905060200201358a6001600160a01b0316610a51909392919063ffffffff16565b6001016103b7565b505061042f6108df565b5050505050565b6000610440610aab565b506000805160206113ef83398151915290565b61045b610af4565b6104656000610b26565b565b61046f6108a9565b8061047a8185611380565b34146104995760405163162908e360e11b815260040160405180910390fd5b60005b81811015610528578383828181106104b6576104b6611341565b90506020020160208101906104cb9190611324565b6001600160a01b03168560405160006040518083038185875af1925050503d8060008114610515576040519150601f19603f3d011682016040523d82523d6000602084013e61051a565b606091505b50505080600101905061049c565b50506105326108df565b505050565b338061054161082d565b6001600160a01b031614610573578060405163118cdaa760e01b815260040161056a91906111ea565b60405180910390fd5b61057c81610b26565b50565b60008061058a610b49565b546001600160a01b031692915050565b6105a26108a9565b80516105ae8184611380565b6040516370a0823160e01b81526001600160a01b038616906370a08231906105da9033906004016111ea565b602060405180830381865afa1580156105f7573d6000803e3d6000fd5b505050506040513d601f19601f8201168201806040525081019061061b9190611397565b101561063a5760405163162908e360e11b815260040160405180910390fd5b6106448184611380565b604051636eb1769f60e11b81523360048201523060248201526001600160a01b0386169063dd62ed3e90604401602060405180830381865afa15801561068e573d6000803e3d6000fd5b505050506040513d601f19601f820116820180604052508101906106b29190611397565b146106d0576040516365ba6fc360e01b815260040160405180910390fd5b60005b8181101561052857610714338483815181106106f1576106f1611341565b602002602001015186886001600160a01b0316610a51909392919063ffffffff16565b6001016106d3565b6000610726610b6d565b805490915060ff600160401b82041615906001600160401b031660008115801561074d5750825b90506000826001600160401b031660011480156107695750303b155b905081158015610777575080155b156107955760405163f92ee8a960e01b815260040160405180910390fd5b84546001600160401b031916600117855583156107be57845460ff60401b1916600160401b1785555b6107c6610b91565b6107ce610b91565b6107d6610b99565b6107df86610b26565b831561082557845460ff60401b19168555604051600181527fc7f505b2f371ae2175ee4913f4499e1f2633a7b5936321eed1cdaeb6115181d29060200160405180910390a15b505050505050565b60008061058a610ba9565b610840610af4565b600061084a610ba9565b80546001600160a01b0319166001600160a01b038416908117825590915061087061057f565b6001600160a01b03167f38d16b8cac22d99fc7c124b9cd0de2d3fa1faef420bfe791d8c362d765e2270060405160405180910390a35050565b60006108b3610bcd565b8054909150600119016108d957604051633ee5aeb560e01b815260040160405180910390fd5b60029055565b60006108e9610bcd565b6001905550565b306001600160a01b037f000000000000000000000000000000000000000000000000000000000000000016148061097757507f00000000000000000000000000000000000000000000000000000000000000006001600160a01b031661096b6000805160206113ef833981519152546001600160a01b031690565b6001600160a01b031614155b156104655760405163703e46dd60e11b815260040160405180910390fd5b61057c610af4565b816001600160a01b03166352d1902d6040518163ffffffff1660e01b8152600401602060405180830381865afa9250505080156109f7575060408051601f3d908101601f191682019092526109f491810190611397565b60015b610a165781604051634c9c8ce360e01b815260040161056a91906111ea565b6000805160206113ef8339815191528114610a4757604051632a87526960e21b81526004810182905260240161056a565b6105328383610bf1565b604080516001600160a01b0385811660248301528416604482015260648082018490528251808303909101815260849091019091526020810180516001600160e01b03166323b872dd60e01b179052610363908590610c47565b306001600160a01b037f000000000000000000000000000000000000000000000000000000000000000016146104655760405163703e46dd60e11b815260040160405180910390fd5b33610afd61057f565b6001600160a01b031614610465573360405163118cdaa760e01b815260040161056a91906111ea565b6000610b30610ba9565b80546001600160a01b0319168155905061038482610ca1565b7f9016d09d72d40fdae2fd8ceac6b6234c7706214fd39c1cd1e609a0528c19930090565b7ff0c57e16840df040f15088dc2f81fe391c3923bec73e23a9662efc9c229c6a0090565b610465610cfd565b610ba1610cfd565b610465610d22565b7f237e158222e3e6968b72b9db0d8043aacf074ad9f650f0d1606b4d82ee432c0090565b7f9b779b17422d0df92223018b32b4d1fa46e071723d6817e2486d003becc55f0090565b610bfa82610d2a565b6040516001600160a01b038316907fbc7cd75a20ee27fd9adebab32041f755214dbc6bffa90cc0225b39da2e5c2d3b90600090a2805115610c3f576105328282610d86565b610384610dfe565b6000610c5c6001600160a01b03841683610e1d565b90508051600014158015610c81575080806020019051810190610c7f91906113b0565b155b156105325782604051635274afe760e01b815260040161056a91906111ea565b6000610cab610b49565b80546001600160a01b038481166001600160a01b031983168117845560405193945091169182907f8be0079c531659141344cd1fd0a4f28419497f9722a3daafe3b4186f6b6457e090600090a3505050565b610d05610e32565b61046557604051631afcd79f60e31b815260040160405180910390fd5b6108df610cfd565b806001600160a01b03163b600003610d575780604051634c9c8ce360e01b815260040161056a91906111ea565b6000805160206113ef83398151915280546001600160a01b0319166001600160a01b0392909216919091179055565b6060600080846001600160a01b031684604051610da391906113d2565b600060405180830381855af49150503d8060008114610dde576040519150601f19603f3d011682016040523d82523d6000602084013e610de3565b606091505b5091509150610df3858383610e4c565b925050505b92915050565b34156104655760405163b398979f60e01b815260040160405180910390fd5b6060610e2b83836000610e9f565b9392505050565b6000610e3c610b6d565b54600160401b900460ff16919050565b606082610e6157610e5c82610f3c565b610e2b565b8151158015610e7857506001600160a01b0384163b155b15610e985783604051639996b31560e01b815260040161056a91906111ea565b5092915050565b606081471015610ec4573060405163cd78605960e01b815260040161056a91906111ea565b600080856001600160a01b03168486604051610ee091906113d2565b60006040518083038185875af1925050503d8060008114610f1d576040519150601f19603f3d011682016040523d82523d6000602084013e610f22565b606091505b5091509150610f32868383610e4c565b9695505050505050565b805115610f4c5780518082602001fd5b604051630a12f52160e11b815260040160405180910390fd5b60008083601f840112610f7757600080fd5b5081356001600160401b03811115610f8e57600080fd5b6020830191508360208260051b8501011115610fa957600080fd5b9250929050565b60008060008060408587031215610fc657600080fd5b84356001600160401b0380821115610fdd57600080fd5b610fe988838901610f65565b9096509450602087013591508082111561100257600080fd5b5061100f87828801610f65565b95989497509550505050565b6001600160a01b038116811461057c57600080fd5b634e487b7160e01b600052604160045260246000fd5b604051601f8201601f191681016001600160401b038111828210171561106e5761106e611030565b604052919050565b6000806040838503121561108957600080fd5b82356110948161101b565b91506020838101356001600160401b03808211156110b157600080fd5b818601915086601f8301126110c557600080fd5b8135818111156110d7576110d7611030565b6110e9601f8201601f19168501611046565b915080825287848285010111156110ff57600080fd5b80848401858401376000848284010152508093505050509250929050565b60008060008060006060868803121561113557600080fd5b85356111408161101b565b945060208601356001600160401b038082111561115c57600080fd5b61116889838a01610f65565b9096509450604088013591508082111561118157600080fd5b5061118e88828901610f65565b969995985093965092949392505050565b6000806000604084860312156111b457600080fd5b8335925060208401356001600160401b038111156111d157600080fd5b6111dd86828701610f65565b9497909650939450505050565b6001600160a01b0391909116815260200190565b60008060006060848603121561121357600080fd5b833561121e8161101b565b9250602084810135925060408501356001600160401b038082111561124257600080fd5b818701915087601f83011261125657600080fd5b81358181111561126857611268611030565b8060051b9150611279848301611046565b818152918301840191848101908a84111561129357600080fd5b938501935b838510156112bd57843592506112ad8361101b565b8282529385019390850190611298565b8096505050505050509250925092565b60005b838110156112e85781810151838201526020016112d0565b50506000910152565b60208152600082518060208401526113108160408501602087016112cd565b601f01601f19169190910160400192915050565b60006020828403121561133657600080fd5b8135610e2b8161101b565b634e487b7160e01b600052603260045260246000fd5b634e487b7160e01b600052601160045260246000fd5b81810381811115610df857610df8611357565b8082028115828204841417610df857610df8611357565b6000602082840312156113a957600080fd5b5051919050565b6000602082840312156113c257600080fd5b81518015158114610e2b57600080fd5b600082516113e48184602087016112cd565b919091019291505056fe360894a13ba1a3210667c828492db98dca3e2076cc3735a920a3ca505d382bbca2646970667358221220867d16f1080e7c50f6a8a997d22a50dfc158571a24b2e6331700f857b850b4e664736f6c63430008180033",
  "devdoc": {
    "errors": {
      "AddressEmptyCode(address)": [
        {
          "details": "There's no code at `target` (it is not a contract)."
        }
      ],
      "AddressInsufficientBalance(address)": [
        {
          "details": "The ETH balance of the account is not enough to perform the operation."
        }
      ],
      "ERC1967InvalidImplementation(address)": [
        {
          "details": "The `implementation` of the proxy is invalid."
        }
      ],
      "ERC1967NonPayable()": [
        {
          "details": "An upgrade function sees `msg.value > 0` that may be lost."
        }
      ],
      "FailedInnerCall()": [
        {
          "details": "A call to an address target failed. The target may have reverted."
        }
      ],
      "InvalidInitialization()": [
        {
          "details": "The contract is already initialized."
        }
      ],
      "NotInitializing()": [
        {
          "details": "The contract is not initializing."
        }
      ],
      "OwnableInvalidOwner(address)": [
        {
          "details": "The owner is not a valid owner account. (eg. `address(0)`)"
        }
      ],
      "OwnableUnauthorizedAccount(address)": [
        {
          "details": "The caller account is not authorized to perform an operation."
        }
      ],
      "ReentrancyGuardReentrantCall()": [
        {
          "details": "Unauthorized reentrant call."
        }
      ],
      "SafeERC20FailedOperation(address)": [
        {
          "details": "An operation with an ERC20 token failed."
        }
      ],
      "UUPSUnauthorizedCallContext()": [
        {
          "details": "The call is from an unauthorized context."
        }
      ],
      "UUPSUnsupportedProxiableUUID(bytes32)": [
        {
          "details": "The storage `slot` is unsupported as a UUID."
        }
      ]
    },
    "events": {
      "Initialized(uint64)": {
        "details": "Triggered when the contract has been initialized or reinitialized."
      },
      "Upgraded(address)": {
        "details": "Emitted when the implementation is upgraded."
      }
    },
    "kind": "dev",
    "methods": {
      "acceptOwnership()": {
        "details": "The new owner accepts the ownership transfer."
      },
      "constructor": {
        "custom:oz-upgrades-unsafe-allow": "constructor"
      },
      "initialize(address)": {
        "params": {
          "ownerAddress": "Address of the owner"
        }
      },
      "owner()": {
        "details": "Returns the address of the current owner."
      },
      "pendingOwner()": {
        "details": "Returns the address of the pending owner."
      },
      "proxiableUUID()": {
        "details": "Implementation of the ERC1822 {proxiableUUID} function. This returns the storage slot used by the implementation. It is used to validate the implementation's compatibility when performing an upgrade. IMPORTANT: A proxy pointing at a proxiable contract should not be considered proxiable itself, because this risks bricking a proxy that upgrades to it, by delegating to itself until out of gas. Thus it is critical that this function revert if invoked through a proxy. This is guaranteed by the `notDelegated` modifier."
      },
      "renounceOwnership()": {
        "details": "Leaves the contract without owner. It will not be possible to call `onlyOwner` functions. Can only be called by the current owner. NOTE: Renouncing ownership will leave the contract without an owner, thereby disabling any functionality that is only available to the owner."
      },
      "transferOwnership(address)": {
        "details": "Starts the ownership transfer of the contract to a new account. Replaces the pending transfer if there is one. Can only be called by the current owner."
      },
      "upgradeToAndCall(address,bytes)": {
        "custom:oz-upgrades-unsafe-allow-reachable": "delegatecall",
        "details": "Upgrade the implementation of the proxy to `newImplementation`, and subsequently execute the function call encoded in `data`. Calls {_authorizeUpgrade}. Emits an {Upgraded} event."
      }
    },
    "version": 1
  },
  "userdoc": {
    "kind": "user",
    "methods": {
      "initialize(address)": {
        "notice": "Used to initialize a new Faucet contract"
      }
    },
    "version": 1
  },
  "storageLayout": {
    "storage": [],
    "types": null
  }
}