{
  "address": "0xa87e3D42461F3572E260734F2963b23F61Acd00d",
  "abi": [
    {
      "inputs": [],
      "stateMutability": "nonpayable",
      "type": "constructor"
    },
    {
      "inputs": [],
      "name": "AccessControlBadConfirmation",
      "type": "error"
    },
    {
      "inputs": [
        {
          "internalType": "address",
          "name": "account",
          "type": "address"
        },
        {
          "internalType": "bytes32",
          "name": "neededRole",
          "type": "bytes32"
        }
      ],
      "name": "AccessControlUnauthorizedAccount",
      "type": "error"
    },
    {
      "inputs": [
        {
          "internalType": "address",
          "name": "target",
          "type": "address"
        }
      ],
      "name": "AddressEmptyCode",
      "type": "error"
    },
    {
      "inputs": [
        {
          "internalType": "address",
          "name": "account",
          "type": "address"
        }
      ],
      "name": "AddressInsufficientBalance",
      "type": "error"
    },
    {
      "inputs": [],
      "name": "ColumnNameUnexpected",
      "type": "error"
    },
    {
      "inputs": [],
      "name": "DlpNotFound",
      "type": "error"
    },
    {
      "inputs": [
        {
          "internalType": "address",
          "name": "implementation",
          "type": "address"
        }
      ],
      "name": "ERC1967InvalidImplementation",
      "type": "error"
    },
    {
      "inputs": [],
      "name": "ERC1967NonPayable",
      "type": "error"
    },
    {
      "inputs": [],
      "name": "EnforcedPause",
      "type": "error"
    },
    {
      "inputs": [],
      "name": "ExpectedPause",
      "type": "error"
    },
    {
      "inputs": [],
      "name": "FailedInnerCall",
      "type": "error"
    },
    {
      "inputs": [],
      "name": "InvalidDlpPaymentPercentage",
      "type": "error"
    },
    {
      "inputs": [],
      "name": "InvalidDlpTreasuryAddress",
      "type": "error"
    },
    {
      "inputs": [],
      "name": "InvalidInitialization",
      "type": "error"
    },
    {
      "inputs": [],
      "name": "NotDlpOwner",
      "type": "error"
    },
    {
      "inputs": [],
      "name": "NotInitializing",
      "type": "error"
    },
    {
      "inputs": [],
      "name": "NotRefinerOwner",
      "type": "error"
    },
    {
      "inputs": [],
      "name": "PaymentNotReceived",
      "type": "error"
    },
    {
      "inputs": [],
      "name": "PermissionNotFound",
      "type": "error"
    },
    {
      "inputs": [],
      "name": "ReentrancyGuardReentrantCall",
      "type": "error"
    },
    {
      "inputs": [],
      "name": "RefinerNotFound",
      "type": "error"
    },
    {
      "inputs": [
        {
          "internalType": "address",
          "name": "token",
          "type": "address"
        }
      ],
      "name": "SafeERC20FailedOperation",
      "type": "error"
    },
    {
      "inputs": [],
      "name": "UUPSUnauthorizedCallContext",
      "type": "error"
    },
    {
      "inputs": [
        {
          "internalType": "bytes32",
          "name": "slot",
          "type": "bytes32"
        }
      ],
      "name": "UUPSUnsupportedProxiableUUID",
      "type": "error"
    },
    {
      "inputs": [],
      "name": "ZeroAddress",
      "type": "error"
    },
    {
      "anonymous": false,
      "inputs": [
        {
          "indexed": true,
          "internalType": "uint256",
          "name": "dlpId",
          "type": "uint256"
        },
        {
          "indexed": true,
          "internalType": "address",
          "name": "dlpTreasuryAddress",
          "type": "address"
        },
        {
          "indexed": true,
          "internalType": "address",
          "name": "token",
          "type": "address"
        },
        {
          "indexed": false,
          "internalType": "uint256",
          "name": "amount",
          "type": "uint256"
        }
      ],
      "name": "DlpPaymentClaimed",
      "type": "event"
    },
    {
      "anonymous": false,
      "inputs": [
        {
          "indexed": false,
          "internalType": "uint64",
          "name": "version",
          "type": "uint64"
        }
      ],
      "name": "Initialized",
      "type": "event"
    },
    {
      "anonymous": false,
      "inputs": [
        {
          "indexed": false,
          "internalType": "address",
          "name": "account",
          "type": "address"
        }
      ],
      "name": "Paused",
      "type": "event"
    },
    {
      "anonymous": false,
      "inputs": [
        {
          "indexed": true,
          "internalType": "address",
          "name": "token",
          "type": "address"
        },
        {
          "indexed": false,
          "internalType": "uint256",
          "name": "amount",
          "type": "uint256"
        },
        {
          "indexed": false,
          "internalType": "uint256",
          "name": "jobId",
          "type": "uint256"
        },
        {
          "indexed": false,
          "internalType": "uint256",
          "name": "refinerId",
          "type": "uint256"
        }
      ],
      "name": "PaymentReceived",
      "type": "event"
    },
    {
      "anonymous": false,
      "inputs": [
        {
          "indexed": true,
          "internalType": "uint256",
          "name": "permissionId",
          "type": "uint256"
        },
        {
          "indexed": true,
          "internalType": "address",
          "name": "grantee",
          "type": "address"
        },
        {
          "indexed": true,
          "internalType": "uint256",
          "name": "refinerId",
          "type": "uint256"
        },
        {
          "indexed": false,
          "internalType": "string",
          "name": "tableName",
          "type": "string"
        },
        {
          "indexed": false,
          "internalType": "string",
          "name": "columnName",
          "type": "string"
        },
        {
          "indexed": false,
          "internalType": "uint256",
          "name": "price",
          "type": "uint256"
        }
      ],
      "name": "PermissionAdded",
      "type": "event"
    },
    {
      "anonymous": false,
      "inputs": [
        {
          "indexed": true,
          "internalType": "uint256",
          "name": "permissionId",
          "type": "uint256"
        },
        {
          "indexed": false,
          "internalType": "bool",
          "name": "approved",
          "type": "bool"
        }
      ],
      "name": "PermissionApprovalUpdated",
      "type": "event"
    },
    {
      "anonymous": false,
      "inputs": [
        {
          "indexed": true,
          "internalType": "bytes32",
          "name": "role",
          "type": "bytes32"
        },
        {
          "indexed": true,
          "internalType": "bytes32",
          "name": "previousAdminRole",
          "type": "bytes32"
        },
        {
          "indexed": true,
          "internalType": "bytes32",
          "name": "newAdminRole",
          "type": "bytes32"
        }
      ],
      "name": "RoleAdminChanged",
      "type": "event"
    },
    {
      "anonymous": false,
      "inputs": [
        {
          "indexed": true,
          "internalType": "bytes32",
          "name": "role",
          "type": "bytes32"
        },
        {
          "indexed": true,
          "internalType": "address",
          "name": "account",
          "type": "address"
        },
        {
          "indexed": true,
          "internalType": "address",
          "name": "sender",
          "type": "address"
        }
      ],
      "name": "RoleGranted",
      "type": "event"
    },
    {
      "anonymous": false,
      "inputs": [
        {
          "indexed": true,
          "internalType": "bytes32",
          "name": "role",
          "type": "bytes32"
        },
        {
          "indexed": true,
          "internalType": "address",
          "name": "account",
          "type": "address"
        },
        {
          "indexed": true,
          "internalType": "address",
          "name": "sender",
          "type": "address"
        }
      ],
      "name": "RoleRevoked",
      "type": "event"
    },
    {
      "anonymous": false,
      "inputs": [
        {
          "indexed": false,
          "internalType": "address",
          "name": "account",
          "type": "address"
        }
      ],
      "name": "Unpaused",
      "type": "event"
    },
    {
      "anonymous": false,
      "inputs": [
        {
          "indexed": true,
          "internalType": "address",
          "name": "implementation",
          "type": "address"
        }
      ],
      "name": "Upgraded",
      "type": "event"
    },
    {
      "inputs": [],
      "name": "DEFAULT_ADMIN_ROLE",
      "outputs": [
        {
          "internalType": "bytes32",
          "name": "",
          "type": "bytes32"
        }
      ],
      "stateMutability": "view",
      "type": "function"
    },
    {
      "inputs": [],
      "name": "MAINTAINER_ROLE",
      "outputs": [
        {
          "internalType": "bytes32",
          "name": "",
          "type": "bytes32"
        }
      ],
      "stateMutability": "view",
      "type": "function"
    },
    {
      "inputs": [],
      "name": "ONE_HUNDRED_PERCENT",
      "outputs": [
        {
          "internalType": "uint256",
          "name": "",
          "type": "uint256"
        }
      ],
      "stateMutability": "view",
      "type": "function"
    },
    {
      "inputs": [],
      "name": "QUERY_ENGINE_ROLE",
      "outputs": [
        {
          "internalType": "bytes32",
          "name": "",
          "type": "bytes32"
        }
      ],
      "stateMutability": "view",
      "type": "function"
    },
    {
      "inputs": [],
      "name": "UPGRADE_INTERFACE_VERSION",
      "outputs": [
        {
          "internalType": "string",
          "name": "",
          "type": "string"
        }
      ],
      "stateMutability": "view",
      "type": "function"
    },
    {
      "inputs": [],
      "name": "VANA",
      "outputs": [
        {
          "internalType": "address",
          "name": "",
          "type": "address"
        }
      ],
      "stateMutability": "view",
      "type": "function"
    },
    {
      "inputs": [
        {
          "internalType": "uint256",
          "name": "refinerId",
          "type": "uint256"
        },
        {
          "internalType": "string",
          "name": "tableName",
          "type": "string"
        },
        {
          "internalType": "string",
          "name": "columnName",
          "type": "string"
        },
        {
          "internalType": "uint256",
          "name": "price",
          "type": "uint256"
        }
      ],
      "name": "addGenericPermission",
      "outputs": [
        {
          "internalType": "uint256",
          "name": "permissionId",
          "type": "uint256"
        }
      ],
      "stateMutability": "nonpayable",
      "type": "function"
    },
    {
      "inputs": [
        {
          "internalType": "address",
          "name": "grantee",
          "type": "address"
        },
        {
          "internalType": "uint256",
          "name": "refinerId",
          "type": "uint256"
        },
        {
          "internalType": "string",
          "name": "tableName",
          "type": "string"
        },
        {
          "internalType": "string",
          "name": "columnName",
          "type": "string"
        },
        {
          "internalType": "uint256",
          "name": "price",
          "type": "uint256"
        }
      ],
      "name": "addPermission",
      "outputs": [
        {
          "internalType": "uint256",
          "name": "permissionId",
          "type": "uint256"
        }
      ],
      "stateMutability": "nonpayable",
      "type": "function"
    },
    {
      "inputs": [
        {
          "internalType": "uint256",
          "name": "dlpId",
          "type": "uint256"
        },
        {
          "internalType": "address",
          "name": "token",
          "type": "address"
        }
      ],
      "name": "balanceOf",
      "outputs": [
        {
          "internalType": "uint256",
          "name": "",
          "type": "uint256"
        }
      ],
      "stateMutability": "view",
      "type": "function"
    },
    {
      "inputs": [
        {
          "internalType": "uint256",
          "name": "dlpId",
          "type": "uint256"
        },
        {
          "internalType": "address",
          "name": "token",
          "type": "address"
        }
      ],
      "name": "claimDlpPayment",
      "outputs": [],
      "stateMutability": "nonpayable",
      "type": "function"
    },
    {
      "inputs": [],
      "name": "computeEngine",
      "outputs": [
        {
          "internalType": "contract IComputeEngine",
          "name": "",
          "type": "address"
        }
      ],
      "stateMutability": "view",
      "type": "function"
    },
    {
      "inputs": [],
      "name": "dlpPaymentPercentage",
      "outputs": [
        {
          "internalType": "uint256",
          "name": "",
          "type": "uint256"
        }
      ],
      "stateMutability": "view",
      "type": "function"
    },
    {
      "inputs": [
        {
          "internalType": "uint256",
          "name": "dlpId",
          "type": "uint256"
        }
      ],
      "name": "dlpPubKeys",
      "outputs": [
        {
          "internalType": "string",
          "name": "pubKey",
          "type": "string"
        }
      ],
      "stateMutability": "view",
      "type": "function"
    },
    {
      "inputs": [
        {
          "internalType": "uint256",
          "name": "refinerId",
          "type": "uint256"
        },
        {
          "internalType": "address",
          "name": "grantee",
          "type": "address"
        }
      ],
      "name": "getPermissions",
      "outputs": [
        {
          "components": [
            {
              "internalType": "uint256",
              "name": "permissionId",
              "type": "uint256"
            },
            {
              "internalType": "address",
              "name": "grantee",
              "type": "address"
            },
            {
              "internalType": "bool",
              "name": "approved",
              "type": "bool"
            },
            {
              "internalType": "uint256",
              "name": "refinerId",
              "type": "uint256"
            },
            {
              "internalType": "string",
              "name": "tableName",
              "type": "string"
            },
            {
              "internalType": "string",
              "name": "columnName",
              "type": "string"
            },
            {
              "internalType": "uint256",
              "name": "price",
              "type": "uint256"
            }
          ],
          "internalType": "struct IQueryEngine.PermissionInfo[]",
          "name": "",
          "type": "tuple[]"
        }
      ],
      "stateMutability": "view",
      "type": "function"
    },
    {
      "inputs": [
        {
          "internalType": "bytes32",
          "name": "role",
          "type": "bytes32"
        }
      ],
      "name": "getRoleAdmin",
      "outputs": [
        {
          "internalType": "bytes32",
          "name": "",
          "type": "bytes32"
        }
      ],
      "stateMutability": "view",
      "type": "function"
    },
    {
      "inputs": [
        {
          "internalType": "bytes32",
          "name": "role",
          "type": "bytes32"
        },
        {
          "internalType": "address",
          "name": "account",
          "type": "address"
        }
      ],
      "name": "grantRole",
      "outputs": [],
      "stateMutability": "nonpayable",
      "type": "function"
    },
    {
      "inputs": [
        {
          "internalType": "bytes32",
          "name": "role",
          "type": "bytes32"
        },
        {
          "internalType": "address",
          "name": "account",
          "type": "address"
        }
      ],
      "name": "hasRole",
      "outputs": [
        {
          "internalType": "bool",
          "name": "",
          "type": "bool"
        }
      ],
      "stateMutability": "view",
      "type": "function"
    },
    {
      "inputs": [
        {
          "internalType": "address",
          "name": "ownerAddress",
          "type": "address"
        },
        {
          "internalType": "address",
          "name": "initRefinerRegistryAddress",
          "type": "address"
        },
        {
          "internalType": "contract DataAccessTreasuryProxyFactory",
          "name": "initDataAccessTreasuryFactory",
          "type": "address"
        }
      ],
      "name": "initialize",
      "outputs": [],
      "stateMutability": "nonpayable",
      "type": "function"
    },
    {
      "inputs": [],
      "name": "pause",
      "outputs": [],
      "stateMutability": "nonpayable",
      "type": "function"
    },
    {
      "inputs": [],
      "name": "paused",
      "outputs": [
        {
          "internalType": "bool",
          "name": "",
          "type": "bool"
        }
      ],
      "stateMutability": "view",
      "type": "function"
    },
    {
      "inputs": [
        {
          "internalType": "uint256",
          "name": "permissionId",
          "type": "uint256"
        }
      ],
      "name": "permissions",
      "outputs": [
        {
          "components": [
            {
              "internalType": "address",
              "name": "grantee",
              "type": "address"
            },
            {
              "internalType": "bool",
              "name": "approved",
              "type": "bool"
            },
            {
              "internalType": "uint256",
              "name": "refinerId",
              "type": "uint256"
            },
            {
              "internalType": "string",
              "name": "tableName",
              "type": "string"
            },
            {
              "internalType": "string",
              "name": "columnName",
              "type": "string"
            },
            {
              "internalType": "uint256",
              "name": "price",
              "type": "uint256"
            }
          ],
          "internalType": "struct IQueryEngine.Permission",
          "name": "",
          "type": "tuple"
        }
      ],
      "stateMutability": "view",
      "type": "function"
    },
    {
      "inputs": [],
      "name": "permissionsCount",
      "outputs": [
        {
          "internalType": "uint256",
          "name": "",
          "type": "uint256"
        }
      ],
      "stateMutability": "view",
      "type": "function"
    },
    {
      "inputs": [],
      "name": "proxiableUUID",
      "outputs": [
        {
          "internalType": "bytes32",
          "name": "",
          "type": "bytes32"
        }
      ],
      "stateMutability": "view",
      "type": "function"
    },
    {
      "inputs": [],
      "name": "queryEngineTreasury",
      "outputs": [
        {
          "internalType": "contract IDataAccessTreasury",
          "name": "",
          "type": "address"
        }
      ],
      "stateMutability": "view",
      "type": "function"
    },
    {
      "inputs": [],
      "name": "refinerRegistry",
      "outputs": [
        {
          "internalType": "contract IDataRefinerRegistry",
          "name": "",
          "type": "address"
        }
      ],
      "stateMutability": "view",
      "type": "function"
    },
    {
      "inputs": [
        {
          "internalType": "bytes32",
          "name": "role",
          "type": "bytes32"
        },
        {
          "internalType": "address",
          "name": "callerConfirmation",
          "type": "address"
        }
      ],
      "name": "renounceRole",
      "outputs": [],
      "stateMutability": "nonpayable",
      "type": "function"
    },
    {
      "inputs": [
        {
          "internalType": "address",
          "name": "token",
          "type": "address"
        },
        {
          "internalType": "uint256",
          "name": "amount",
          "type": "uint256"
        },
        {
          "internalType": "bytes",
          "name": "metadata",
          "type": "bytes"
        }
      ],
      "name": "requestPayment",
      "outputs": [],
      "stateMutability": "nonpayable",
      "type": "function"
    },
    {
      "inputs": [
        {
          "internalType": "uint256",
          "name": "amount",
          "type": "uint256"
        },
        {
          "internalType": "uint256",
          "name": "jobId",
          "type": "uint256"
        },
        {
          "internalType": "uint256",
          "name": "refinerId",
          "type": "uint256"
        }
      ],
      "name": "requestPaymentInVana",
      "outputs": [],
      "stateMutability": "nonpayable",
      "type": "function"
    },
    {
      "inputs": [
        {
          "internalType": "bytes32",
          "name": "role",
          "type": "bytes32"
        },
        {
          "internalType": "address",
          "name": "account",
          "type": "address"
        }
      ],
      "name": "revokeRole",
      "outputs": [],
      "stateMutability": "nonpayable",
      "type": "function"
    },
    {
      "inputs": [
        {
          "internalType": "bytes4",
          "name": "interfaceId",
          "type": "bytes4"
        }
      ],
      "name": "supportsInterface",
      "outputs": [
        {
          "internalType": "bool",
          "name": "",
          "type": "bool"
        }
      ],
      "stateMutability": "view",
      "type": "function"
    },
    {
      "inputs": [],
      "name": "unpause",
      "outputs": [],
      "stateMutability": "nonpayable",
      "type": "function"
    },
    {
      "inputs": [
        {
          "internalType": "address",
          "name": "newComputeEngineAddress",
          "type": "address"
        }
      ],
      "name": "updateComputeEngine",
      "outputs": [],
      "stateMutability": "nonpayable",
      "type": "function"
    },
    {
      "inputs": [
        {
          "internalType": "uint256",
          "name": "newDlpPaymentPercentage",
          "type": "uint256"
        }
      ],
      "name": "updateDlpPaymentPercentage",
      "outputs": [],
      "stateMutability": "nonpayable",
      "type": "function"
    },
    {
      "inputs": [
        {
          "internalType": "uint256",
          "name": "dlpId",
          "type": "uint256"
        },
        {
          "internalType": "string",
          "name": "pubKey",
          "type": "string"
        }
      ],
      "name": "updateDlpPubKey",
      "outputs": [],
      "stateMutability": "nonpayable",
      "type": "function"
    },
    {
      "inputs": [
        {
          "internalType": "uint256",
          "name": "permissionId",
          "type": "uint256"
        },
        {
          "internalType": "bool",
          "name": "approved",
          "type": "bool"
        }
      ],
      "name": "updatePermissionApproval",
      "outputs": [],
      "stateMutability": "nonpayable",
      "type": "function"
    },
    {
      "inputs": [
        {
          "internalType": "contract IDataAccessTreasury",
          "name": "newQueryEngineTreasury",
          "type": "address"
        }
      ],
      "name": "updateQueryEngineTreasury",
      "outputs": [],
      "stateMutability": "nonpayable",
      "type": "function"
    },
    {
      "inputs": [
        {
          "internalType": "address",
          "name": "newRefinerRegistryAddress",
          "type": "address"
        }
      ],
      "name": "updateRefinerRegistry",
      "outputs": [],
      "stateMutability": "nonpayable",
      "type": "function"
    },
    {
      "inputs": [
        {
          "internalType": "address",
          "name": "newVanaTreasury",
          "type": "address"
        }
      ],
      "name": "updateVanaTreasury",
      "outputs": [],
      "stateMutability": "nonpayable",
      "type": "function"
    },
    {
      "inputs": [
        {
          "internalType": "address",
          "name": "newImplementation",
          "type": "address"
        },
        {
          "internalType": "bytes",
          "name": "data",
          "type": "bytes"
        }
      ],
      "name": "upgradeToAndCall",
      "outputs": [],
      "stateMutability": "payable",
      "type": "function"
    },
    {
      "inputs": [],
      "name": "vanaTreasury",
      "outputs": [
        {
          "internalType": "address",
          "name": "",
          "type": "address"
        }
      ],
      "stateMutability": "view",
      "type": "function"
    },
    {
      "inputs": [],
      "name": "version",
      "outputs": [
        {
          "internalType": "uint256",
          "name": "",
          "type": "uint256"
        }
      ],
      "stateMutability": "pure",
      "type": "function"
    },
    {
      "stateMutability": "payable",
      "type": "receive"
    }
  ],
  "transactionHash": "0xa29ad55cbda956a1ae443c3193e12b7595a065d66a79a8a51b2855095e276eff",
  "args": [],
  "numDeployments": 4,
  "solcInputHash": "57e946644048818c3e534cbf3ed7fb8f",
  "bytecode": "0x60a0604052306080523480156200001557600080fd5b506200002062000026565b620000da565b7ff0c57e16840df040f15088dc2f81fe391c3923bec73e23a9662efc9c229c6a00805468010000000000000000900460ff1615620000775760405163f92ee8a960e01b815260040160405180910390fd5b80546001600160401b0390811614620000d75780546001600160401b0319166001600160401b0390811782556040519081527fc7f505b2f371ae2175ee4913f4499e1f2633a7b5936321eed1cdaeb6115181d29060200160405180910390a15b50565b6080516137ce62000104600039600081816121ca015281816121f3015261233901526137ce6000f3fe6080604052600436106101da5760003560e01c806301ffc9a7146101e657806307268de21461021b578063248a9ca31461023d5780632f18a1a01461026b5780632f2ff15d1461028b57806336568abe146102ab5780633656eec2146102cb57806337b07aec1461030e5780633f4ba83a1461032e578063443eea4c1461034357806344fd3939146103595780634913162d1461037b5780634f1ef286146103a85780634f7dbbc9146103bb57806352d1902d146103dd57806354fd4d50146103f2578063558128801461040657806358886dba146104265780635a706bbf146104535780635c975abb146104735780637097b1231461048857806374389ae0146104a857806381f858b5146104be57806382b282dd146104de5780638456cb59146104fe5780638fe455021461051357806391d14854146105405780639430ca5114610560578063a217fddf14610580578063a67815e114610595578063ad3cb1cc146105b5578063c0c53b8b146105e6578063ccba025b14610606578063d20bec0714610626578063d547741f14610646578063da54153014610666578063dc87c5a014610686578063dd0081c7146106a6578063ecd346fe146106c3578063f07a8a26146106e3578063f87422541461070357600080fd5b366101e157005b600080fd5b3480156101f257600080fd5b50610206610201366004612abd565b610725565b60405190151581526020015b60405180910390f35b34801561022757600080fd5b5061023b610236366004612ae7565b61075c565b005b34801561024957600080fd5b5061025d610258366004612b13565b6107b9565b604051908152602001610212565b34801561027757600080fd5b5061025d610286366004612b89565b6107d9565b34801561029757600080fd5b5061023b6102a6366004612c1d565b6107f6565b3480156102b757600080fd5b5061023b6102c6366004612c1d565b610818565b3480156102d757600080fd5b5061025d6102e6366004612c1d565b60009182526006602090815260408084206001600160a01b0393909316845291905290205490565b34801561031a57600080fd5b5061023b610329366004612b13565b61084b565b34801561033a57600080fd5b5061023b610893565b34801561034f57600080fd5b5061025d60005481565b34801561036557600080fd5b5061036e600081565b6040516102129190612c4d565b34801561038757600080fd5b5061039b610396366004612c1d565b6108b6565b6040516102129190612cb1565b61023b6103b6366004612e8b565b610dab565b3480156103c757600080fd5b5061025d60008051602061373983398151915281565b3480156103e957600080fd5b5061025d610dca565b3480156103fe57600080fd5b50600161025d565b34801561041257600080fd5b5060025461036e906001600160a01b031681565b34801561043257600080fd5b50610446610441366004612b13565b610de7565b6040516102129190612eda565b34801561045f57600080fd5b5061023b61046e366004612f60565b610faf565b34801561047f57600080fd5b50610206611154565b34801561049457600080fd5b5060045461036e906001600160a01b031681565b3480156104b457600080fd5b5061025d60055481565b3480156104ca57600080fd5b5061023b6104d9366004612f85565b611169565b3480156104ea57600080fd5b5061025d6104f9366004612fdd565b61119d565b34801561050a57600080fd5b5061023b6111ba565b34801561051f57600080fd5b5061053361052e366004612b13565b6111da565b604051610212919061305e565b34801561054c57600080fd5b5061020661055b366004612c1d565b611274565b34801561056c57600080fd5b5060035461036e906001600160a01b031681565b34801561058c57600080fd5b5061025d600081565b3480156105a157600080fd5b5061023b6105b0366004613071565b6112aa565b3480156105c157600080fd5b50610533604051806040016040528060058152602001640352e302e360dc1b81525081565b3480156105f257600080fd5b5061023b61060136600461308e565b6112e5565b34801561061257600080fd5b5060015461036e906001600160a01b031681565b34801561063257600080fd5b5061023b610641366004613071565b6115ac565b34801561065257600080fd5b5061023b610661366004612c1d565b61160e565b34801561067257600080fd5b5061023b610681366004613071565b61162a565b34801561069257600080fd5b5061023b6106a1366004612c1d565b611665565b3480156106b257600080fd5b5061025d68056bc75e2d6310000081565b3480156106cf57600080fd5b5061023b6106de366004613071565b61188e565b3480156106ef57600080fd5b5061023b6106fe3660046130d9565b6118f0565b34801561070f57600080fd5b5061025d60008051602061377983398151915281565b60006001600160e01b03198216637965db0b60e01b148061075657506301ffc9a760e01b6001600160e01b03198316145b92915050565b610764611a37565b60008051602061373983398151915261077c81611a6d565b604080516020810185905280820184905281518082038301815260609091019091526107aa60008683611a77565b50506107b4611e29565b505050565b6000806107c4611e3a565b60009384526020525050604090206001015490565b60006107ea88888888888888611e5e565b98975050505050505050565b6107ff826107b9565b61080881611a6d565b6108128383612032565b50505050565b6001600160a01b03811633146108415760405163334bd91960e11b815260040160405180910390fd5b6107b482826120d3565b60008051602061377983398151915261086381611a6d565b68056bc75e2d6310000082111561088d57604051636863da2160e11b815260040160405180910390fd5b50600555565b6000805160206137798339815191526108ab81611a6d565b6108b361214b565b50565b60008281526008602090815260408083206001600160a01b03851684529091528082208280529082206060926108eb826121a2565b905060006001600160a01b03861661090457600061090d565b61090d846121a2565b9050600061091b828461313a565b90506000816001600160401b0381111561093757610937612d7d565b6040519080825280602002602001820160405280156109b357816020015b6109a06040518060e001604052806000815260200160006001600160a01b03168152602001600015158152602001600081526020016060815260200160608152602001600081525090565b8152602001906001900390816109555790505b5090506000805b85811015610b7f5760006109ce88836121ac565b600081815260076020908152604091829020825160e08101845284815281546001600160a01b03811693820193909352600160a01b90920460ff1615159282019290925260018201546060820152600282018054939450919290916080830191610a379061314d565b80601f0160208091040260200160405190810160405280929190818152602001828054610a639061314d565b8015610ab05780601f10610a8557610100808354040283529160200191610ab0565b820191906000526020600020905b815481529060010190602001808311610a9357829003601f168201915b50505050508152602001826003018054610ac99061314d565b80601f0160208091040260200160405190810160405280929190818152602001828054610af59061314d565b8015610b425780601f10610b1757610100808354040283529160200191610b42565b820191906000526020600020905b815481529060010190602001808311610b2557829003601f168201915b505050505081526020018260040154815250858581518110610b6657610b66613187565b60209081029190910101525050600191820191016109ba565b5060005b84811015610d9c576000610b9789836121ac565b6000818152600760209081526040808320815160c08101835281546001600160a01b0381168252600160a01b900460ff16151593810193909352600181015491830191909152600281018054949550929391929091606084019190610bfb9061314d565b80601f0160208091040260200160405190810160405280929190818152602001828054610c279061314d565b8015610c745780601f10610c4957610100808354040283529160200191610c74565b820191906000526020600020905b815481529060010190602001808311610c5757829003601f168201915b50505050508152602001600382018054610c8d9061314d565b80601f0160208091040260200160405190810160405280929190818152602001828054610cb99061314d565b8015610d065780601f10610cdb57610100808354040283529160200191610d06565b820191906000526020600020905b815481529060010190602001808311610ce957829003601f168201915b5050505050815260200160048201548152505090506040518060e0016040528083815260200182600001516001600160a01b031681526020018260200151151581526020018260400151815260200182606001518152602001826080015181526020018260a00151815250858581518110610d8357610d83613187565b6020908102919091010152505060019182019101610b83565b50909998505050505050505050565b610db36121bf565b610dbc82612266565b610dc68282612271565b5050565b6000610dd461232e565b5060008051602061375983398151915290565b610e2b6040518060c0016040528060006001600160a01b03168152602001600015158152602001600081526020016060815260200160608152602001600081525090565b600082815260076020908152604091829020825160c08101845281546001600160a01b0381168252600160a01b900460ff16151592810192909252600181015492820192909252600282018054919291606084019190610e8a9061314d565b80601f0160208091040260200160405190810160405280929190818152602001828054610eb69061314d565b8015610f035780601f10610ed857610100808354040283529160200191610f03565b820191906000526020600020905b815481529060010190602001808311610ee657829003601f168201915b50505050508152602001600382018054610f1c9061314d565b80601f0160208091040260200160405190810160405280929190818152602001828054610f489061314d565b8015610f955780601f10610f6a57610100808354040283529160200191610f95565b820191906000526020600020905b815481529060010190602001808311610f7857829003601f168201915b505050505081526020016004820154815250509050919050565b811580610fbd575060005482115b15610fdb5760405163d8455a1360e01b815260040160405180910390fd5b6000828152600760205260409081902060018082015490549251629b996b60e81b8152600481018290529192909133916001600160a01b031690639b996b0090602401600060405180830381865afa15801561103b573d6000803e3d6000fd5b505050506040513d6000823e601f3d908101601f1916820160405261106391908101906131fa565b602001516001600160a01b03161461108e57604051635928b05160e01b815260040160405180910390fd5b8154831515600160a01b90910460ff161515036110ab5750505050565b815483158015600160a01b0260ff60a01b1983168117855560008481526008602090815260408083206001600160a01b03948516949096169390931782529390935290912090611105576110ff8186612377565b50611111565b61110f8186612383565b505b847f5915e09309d8c49870559891647e368d0ab0e6d94a0ce7f3c9f39470ccbe03d285604051611145911515815260200190565b60405180910390a25050505050565b60008061115f61238f565b5460ff1692915050565b611171611a37565b60008051602061373983398151915261118981611a6d565b611194848484611a77565b506107b4611e29565b60006111af6000888888888888611e5e565b979650505050505050565b6000805160206137798339815191526111d281611a6d565b6108b36123b3565b600960205260009081526040902080546111f39061314d565b80601f016020809104026020016040519081016040528092919081815260200182805461121f9061314d565b801561126c5780601f106112415761010080835404028352916020019161126c565b820191906000526020600020905b81548152906001019060200180831161124f57829003601f168201915b505050505081565b60008061127f611e3a565b6000948552602090815260408086206001600160a01b03959095168652939052505090205460ff1690565b6000805160206137798339815191526112c281611a6d565b50600180546001600160a01b0319166001600160a01b0392909216919091179055565b60006112ef6123fa565b805490915060ff600160401b82041615906001600160401b03166000811580156113165750825b90506000826001600160401b031660011480156113325750303b155b905081158015611340575080155b1561135e5760405163f92ee8a960e01b815260040160405180910390fd5b84546001600160401b0319166001178555831561138757845460ff60401b1916600160401b1785555b61138f61241e565b611397612426565b61139f61241e565b6113a7612436565b86600160006101000a8154816001600160a01b0302191690836001600160a01b031602179055506000866001600160a01b0316635c60da1b6040518163ffffffff1660e01b8152600401602060405180830381865afa15801561140e573d6000803e3d6000fd5b505050506040513d601f19601f8201168201806040525081019061143291906132ed565b604080516001600160a01b038c811660248301523060448084019190915283518084039091018152606490920183526020820180516001600160e01b031663485cc95560e01b179052915163342dd2b560e21b8152929350600092918a169163d0b74ad4916114a39160040161305e565b6020604051808303816000875af11580156114c2573d6000803e3d6000fd5b505050506040513d601f19601f820116820180604052508101906114e691906132ed565b600480546001600160a01b0319166001600160a01b038316179055905061151c6000805160206137798339815191526000612446565b6115356000805160206137398339815191526000612446565b61154060008b612032565b506115596000805160206137798339815191528b612032565b50505083156115a257845460ff60401b19168555604051600181527fc7f505b2f371ae2175ee4913f4499e1f2633a7b5936321eed1cdaeb6115181d29060200160405180910390a15b5050505050505050565b6000805160206137798339815191526115c481611a6d565b6001600160a01b0382166115eb5760405163d92e233d60e01b815260040160405180910390fd5b50600480546001600160a01b0319166001600160a01b0392909216919091179055565b611617826107b9565b61162081611a6d565b61081283836120d3565b60008051602061377983398151915261164281611a6d565b50600280546001600160a01b0319166001600160a01b0392909216919091179055565b61166d611a37565b6116756124a6565b60015460408051630fd72fd160e31b815290516000926001600160a01b031691637eb97e889160048083019260209291908290030181865afa1580156116bf573d6000803e3d6000fd5b505050506040513d601f19601f820116820180604052508101906116e391906132ed565b6001600160a01b031663ea83e47b846040518263ffffffff1660e01b815260040161171091815260200190565b600060405180830381865afa15801561172d573d6000803e3d6000fd5b505050506040513d6000823e601f3d908101601f191682016040526117559190810190613324565b60408101519091506001600160a01b0316331461178557604051633387d70760e01b815260040160405180910390fd5b60808101516001600160a01b0381166117b1576040516348ef0b9160e01b815260040160405180910390fd5b60008481526006602090815260408083206001600160a01b038781168086529184528285208054959055915184815290929185169188917f27acf0dfa49783328b0f6b3cf96a7301f7a1eac9ab08791912c0d55616327e85910160405180910390a4600480546040516317d5759960e31b81526001600160a01b038581169382019390935286831660248201526044810184905291169063beabacc890606401600060405180830381600087803b15801561186b57600080fd5b505af115801561187f573d6000803e3d6000fd5b50505050505050610dc6611e29565b6000805160206137798339815191526118a681611a6d565b6001600160a01b0382166118cd5760405163d92e233d60e01b815260040160405180910390fd5b50600380546001600160a01b0319166001600160a01b0392909216919091179055565b60008051602061377983398151915261190881611a6d565b60015460408051630fd72fd160e31b815290516000926001600160a01b031691637eb97e889160048083019260209291908290030181865afa158015611952573d6000803e3d6000fd5b505050506040513d601f19601f8201168201806040525081019061197691906132ed565b6001600160a01b031663ea83e47b866040518263ffffffff1660e01b81526004016119a391815260200190565b600060405180830381865afa1580156119c0573d6000803e3d6000fd5b505050506040513d6000823e601f3d908101601f191682016040526119e89190810190613324565b60208101519091506001600160a01b0316611a1657604051632a93ef0560e21b815260040160405180910390fd5b6000858152600960205260409020611a2f8486836134e4565b505050505050565b6000611a416124cc565b805490915060011901611a6757604051633ee5aeb560e01b815260040160405180910390fd5b60029055565b6108b381336124f0565b60008082806020019051810190611a8e91906135a4565b600154604051629b996b60e81b8152600481018390529294509092506000916001600160a01b0390911690639b996b0090602401600060405180830381865afa158015611adf573d6000803e3d6000fd5b505050506040513d6000823e601f3d908101601f19168201604052611b0791908101906131fa565b5190506000819003611b2c57604051633b3dc9c760e21b815260040160405180910390fd5b6001600160a01b03861615600081611bb0576040516370a0823160e01b81526001600160a01b038916906370a0823190611b6a903090600401612c4d565b602060405180830381865afa158015611b87573d6000803e3d6000fd5b505050506040513d601f19601f82011682018060405250810190611bab91906135c8565b611bb2565b475b60025460408051602081018990528082018790528151808203830181526060820192839052631d21294b60e01b9092529293506001600160a01b0390911691631d21294b91611c07918c918c916064016135e1565b600060405180830381600087803b158015611c2157600080fd5b505af1158015611c35573d6000803e3d6000fd5b50505050600082611cb2576040516370a0823160e01b81526001600160a01b038a16906370a0823190611c6c903090600401612c4d565b602060405180830381865afa158015611c89573d6000803e3d6000fd5b505050506040513d601f19601f82011682018060405250810190611cad91906135c8565b611cb4565b475b90506000611cc28383613608565b905088811015611ce5576040516389b0d69960e01b815260040160405180910390fd5b60408051828152602081018990529081018790526001600160a01b038b16907f750e6bbedd4312ada35caa75e07fc0b85f1a6fc9c675e6962aef8469187110979060600160405180910390a2600068056bc75e2d631000006005548b611d4b919061361b565b611d559190613632565b90506000611d638284613608565b90508515611d9c57600454611d81906001600160a01b03168361251b565b600354611d97906001600160a01b03168261251b565b611dd0565b600454611db6906001600160a01b038e81169116846125b2565b600354611dd0906001600160a01b038e81169116836125b2565b816006600089815260200190815260200160002060008e6001600160a01b03166001600160a01b031681526020019081526020016000206000828254611e16919061313a565b9091555050505050505050505050505050565b6000611e336124cc565b6001905550565b7f02dd7bc7dec4dceedda775e58dd541e08a116c6c53815c0bd028192f7b62680090565b600154604051629b996b60e81b815260048101889052600091889133916001600160a01b031690639b996b0090602401600060405180830381865afa158015611eab573d6000803e3d6000fd5b505050506040513d6000823e601f3d908101601f19168201604052611ed391908101906131fa565b602001516001600160a01b031614611efe57604051635928b05160e01b815260040160405180910390fd5b611f066124a6565b85158015611f1357508315155b15611f315760405163152b922f60e21b815260040160405180910390fd5b6000808154611f3f90613654565b9182905550600081815260076020526040902080546001600160a01b0319166001600160a01b038c16178155600181018a905590925060028101611f84888a836134e4565b5060038101611f948688836134e4565b50805460ff60a01b1916600160a01b1781556004810184905560008981526008602090815260408083206001600160a01b038e1684529091529020611fd99084612377565b50888a6001600160a01b0316847f99443cc6ba7d5add8a9dff68a4c61f3fb29776f3b4e71a526d5e95087db053b78b8b8b8b8b60405161201d959493929190613696565b60405180910390a45050979650505050505050565b60008061203d611e3a565b90506120498484611274565b6120c9576000848152602082815260408083206001600160a01b03871684529091529020805460ff1916600117905561207f3390565b6001600160a01b0316836001600160a01b0316857f2f8788117e7eff1d82e926ec794901d17c78024a50270940304540a733656f0d60405160405180910390a46001915050610756565b6000915050610756565b6000806120de611e3a565b90506120ea8484611274565b156120c9576000848152602082815260408083206001600160a01b0387168085529252808320805460ff1916905551339287917ff6391f5c32d9c69d2a47ea670b442974b53935d1edc7fd64eb21e047a839171b9190a46001915050610756565b61215361260a565b600061215d61238f565b805460ff1916815590507f5db9ee0a495bf2e6ff9c91a7834c1ba4fdd244a5e8aa4e537bd38aeae4b073aa335b6040516121979190612c4d565b60405180910390a150565b6000610756825490565b60006121b8838361262f565b9392505050565b306001600160a01b037f000000000000000000000000000000000000000000000000000000000000000016148061224657507f00000000000000000000000000000000000000000000000000000000000000006001600160a01b031661223a600080516020613759833981519152546001600160a01b031690565b6001600160a01b031614155b156122645760405163703e46dd60e11b815260040160405180910390fd5b565b6000610dc681611a6d565b816001600160a01b03166352d1902d6040518163ffffffff1660e01b8152600401602060405180830381865afa9250505080156122cb575060408051601f3d908101601f191682019092526122c8918101906135c8565b60015b6122f35781604051634c9c8ce360e01b81526004016122ea9190612c4d565b60405180910390fd5b600080516020613759833981519152811461232457604051632a87526960e21b8152600481018290526024016122ea565b6107b48383612659565b306001600160a01b037f000000000000000000000000000000000000000000000000000000000000000016146122645760405163703e46dd60e11b815260040160405180910390fd5b60006121b883836126af565b60006121b883836126fe565b7fcd5ed15c6e187e77e9aee88184c21f4f2182ab5827cb3b7e07fbedcd63f0330090565b6123bb6124a6565b60006123c561238f565b805460ff1916600117815590507f62e78cea01bee320cd4e420270b5ea74000d11b0c9f74754ebdbfc544b05a25861218a3390565b7ff0c57e16840df040f15088dc2f81fe391c3923bec73e23a9662efc9c229c6a0090565b6122646127e7565b61242e6127e7565b61226461280c565b61243e6127e7565b612264612829565b6000612450611e3a565b9050600061245d846107b9565b600085815260208490526040808220600101869055519192508491839187917fbd79b86ffe0ab8e8776151514217cd7cacd52c909f66475c3af44e129f0b00ff9190a450505050565b6124ae611154565b156122645760405163d93c066560e01b815260040160405180910390fd5b7f9b779b17422d0df92223018b32b4d1fa46e071723d6817e2486d003becc55f0090565b6124fa8282611274565b610dc657808260405163e2517d3f60e01b81526004016122ea9291906136d0565b8047101561253e573060405163cd78605960e01b81526004016122ea9190612c4d565b6000826001600160a01b03168260405160006040518083038185875af1925050503d806000811461258b576040519150601f19603f3d011682016040523d82523d6000602084013e612590565b606091505b50509050806107b457604051630a12f52160e11b815260040160405180910390fd5b6107b483846001600160a01b031663a9059cbb85856040516024016125d89291906136d0565b604051602081830303815290604052915060e01b6020820180516001600160e01b038381831617835250505050612831565b612612611154565b61226457604051638dfc202b60e01b815260040160405180910390fd5b600082600001828154811061264657612646613187565b9060005260206000200154905092915050565b6126628261288b565b6040516001600160a01b038316907fbc7cd75a20ee27fd9adebab32041f755214dbc6bffa90cc0225b39da2e5c2d3b90600090a28051156126a7576107b482826128e7565b610dc661295d565b60008181526001830160205260408120546126f657508154600181810184556000848152602080822090930184905584548482528286019093526040902091909155610756565b506000610756565b600081815260018301602052604081205480156120c9576000612722600183613608565b855490915060009061273690600190613608565b905080821461279b57600086600001828154811061275657612756613187565b906000526020600020015490508087600001848154811061277957612779613187565b6000918252602080832090910192909255918252600188019052604090208390555b85548690806127ac576127ac6136e9565b600190038181906000526020600020016000905590558560010160008681526020019081526020016000206000905560019350505050610756565b6127ef61297c565b61226457604051631afcd79f60e31b815260040160405180910390fd5b6128146127e7565b600061281e61238f565b805460ff1916905550565b611e296127e7565b60006128466001600160a01b03841683612996565b9050805160001415801561286b57508080602001905181019061286991906136ff565b155b156107b45782604051635274afe760e01b81526004016122ea9190612c4d565b806001600160a01b03163b6000036128b85780604051634c9c8ce360e01b81526004016122ea9190612c4d565b60008051602061375983398151915280546001600160a01b0319166001600160a01b0392909216919091179055565b6060600080846001600160a01b031684604051612904919061371c565b600060405180830381855af49150503d806000811461293f576040519150601f19603f3d011682016040523d82523d6000602084013e612944565b606091505b50915091506129548583836129a4565b95945050505050565b34156122645760405163b398979f60e01b815260040160405180910390fd5b60006129866123fa565b54600160401b900460ff16919050565b60606121b8838360006129f7565b6060826129b9576129b482612a94565b6121b8565b81511580156129d057506001600160a01b0384163b155b156129f05783604051639996b31560e01b81526004016122ea9190612c4d565b5092915050565b606081471015612a1c573060405163cd78605960e01b81526004016122ea9190612c4d565b600080856001600160a01b03168486604051612a38919061371c565b60006040518083038185875af1925050503d8060008114612a75576040519150601f19603f3d011682016040523d82523d6000602084013e612a7a565b606091505b5091509150612a8a8683836129a4565b9695505050505050565b805115612aa45780518082602001fd5b604051630a12f52160e11b815260040160405180910390fd5b600060208284031215612acf57600080fd5b81356001600160e01b0319811681146121b857600080fd5b600080600060608486031215612afc57600080fd5b505081359360208301359350604090920135919050565b600060208284031215612b2557600080fd5b5035919050565b6001600160a01b03811681146108b357600080fd5b60008083601f840112612b5357600080fd5b5081356001600160401b03811115612b6a57600080fd5b602083019150836020828501011115612b8257600080fd5b9250929050565b600080600080600080600060a0888a031215612ba457600080fd5b8735612baf81612b2c565b96506020880135955060408801356001600160401b0380821115612bd257600080fd5b612bde8b838c01612b41565b909750955060608a0135915080821115612bf757600080fd5b50612c048a828b01612b41565b989b979a50959894979596608090950135949350505050565b60008060408385031215612c3057600080fd5b823591506020830135612c4281612b2c565b809150509250929050565b6001600160a01b0391909116815260200190565b60005b83811015612c7c578181015183820152602001612c64565b50506000910152565b60008151808452612c9d816020860160208601612c61565b601f01601f19169290920160200192915050565b600060208083018184528085518083526040925060408601915060408160051b87010184880160005b83811015612d6f57888303603f19018552815180518452878101516001600160a01b031688850152868101511515878501526060808201519085015260808082015160e08287018190529190612d3283880182612c85565b9250505060a08083015186830382880152612d4d8382612c85565b60c0948501519790940196909652505094870194925090860190600101612cda565b509098975050505050505050565b634e487b7160e01b600052604160045260246000fd5b60405160c081016001600160401b0381118282101715612db557612db5612d7d565b60405290565b6040516101c081016001600160401b0381118282101715612db557612db5612d7d565b604051601f8201601f191681016001600160401b0381118282101715612e0657612e06612d7d565b604052919050565b60006001600160401b03821115612e2757612e27612d7d565b50601f01601f191660200190565b600082601f830112612e4657600080fd5b8135612e59612e5482612e0e565b612dde565b818152846020838601011115612e6e57600080fd5b816020850160208301376000918101602001919091529392505050565b60008060408385031215612e9e57600080fd5b8235612ea981612b2c565b915060208301356001600160401b03811115612ec457600080fd5b612ed085828601612e35565b9150509250929050565b6020815260018060a01b038251166020820152602082015115156040820152604082015160608201526000606083015160c06080840152612f1e60e0840182612c85565b90506080840151601f198483030160a0850152612f3b8282612c85565b91505060a084015160c08401528091505092915050565b80151581146108b357600080fd5b60008060408385031215612f7357600080fd5b823591506020830135612c4281612f52565b600080600060608486031215612f9a57600080fd5b8335612fa581612b2c565b92506020840135915060408401356001600160401b03811115612fc757600080fd5b612fd386828701612e35565b9150509250925092565b60008060008060008060808789031215612ff657600080fd5b8635955060208701356001600160401b038082111561301457600080fd5b6130208a838b01612b41565b9097509550604089013591508082111561303957600080fd5b5061304689828a01612b41565b979a9699509497949695606090950135949350505050565b6020815260006121b86020830184612c85565b60006020828403121561308357600080fd5b81356121b881612b2c565b6000806000606084860312156130a357600080fd5b83356130ae81612b2c565b925060208401356130be81612b2c565b915060408401356130ce81612b2c565b809150509250925092565b6000806000604084860312156130ee57600080fd5b8335925060208401356001600160401b0381111561310b57600080fd5b61311786828701612b41565b9497909650939450505050565b634e487b7160e01b600052601160045260246000fd5b8082018082111561075657610756613124565b600181811c9082168061316157607f821691505b60208210810361318157634e487b7160e01b600052602260045260246000fd5b50919050565b634e487b7160e01b600052603260045260246000fd5b80516131a881612b2c565b919050565b600082601f8301126131be57600080fd5b81516131cc612e5482612e0e565b8181528460208386010111156131e157600080fd5b6131f2826020830160208701612c61565b949350505050565b60006020828403121561320c57600080fd5b81516001600160401b038082111561322357600080fd5b9083019060c0828603121561323757600080fd5b61323f612d93565b8251815261324f6020840161319d565b602082015260408301518281111561326657600080fd5b613272878286016131ad565b60408301525060608301518281111561328a57600080fd5b613296878286016131ad565b6060830152506080830151828111156132ae57600080fd5b6132ba878286016131ad565b60808301525060a0830151828111156132d257600080fd5b6132de878286016131ad565b60a08301525095945050505050565b6000602082840312156132ff57600080fd5b81516121b881612b2c565b8051600481106131a857600080fd5b80516131a881612f52565b60006020828403121561333657600080fd5b81516001600160401b038082111561334d57600080fd5b908301906101c0828603121561336257600080fd5b61336a612dbb565b8251815261337a6020840161319d565b602082015261338b6040840161319d565b604082015261339c6060840161319d565b60608201526133ad6080840161319d565b608082015260a0830151828111156133c457600080fd5b6133d0878286016131ad565b60a08301525060c0830151828111156133e857600080fd5b6133f4878286016131ad565b60c08301525060e08301518281111561340c57600080fd5b613418878286016131ad565b60e083015250610100808401518381111561343257600080fd5b61343e888287016131ad565b918301919091525061012083810151908201526101408084015190820152610160915061346c82840161330a565b82820152610180915081830151828201526101a0915061348d828401613319565b91810191909152949350505050565b601f8211156107b4576000816000526020600020601f850160051c810160208610156134c55750805b601f850160051c820191505b81811015611a2f578281556001016134d1565b6001600160401b038311156134fb576134fb612d7d565b61350f83613509835461314d565b8361349c565b6000601f841160018114613543576000851561352b5750838201355b600019600387901b1c1916600186901b17835561359d565b600083815260209020601f19861690835b828110156135745786850135825560209485019460019092019101613554565b50868210156135915760001960f88860031b161c19848701351681555b505060018560011b0183555b5050505050565b600080604083850312156135b757600080fd5b505080516020909101519092909150565b6000602082840312156135da57600080fd5b5051919050565b60018060a01b03841681528260208201526060604082015260006129546060830184612c85565b8181038181111561075657610756613124565b808202811582820484141761075657610756613124565b60008261364f57634e487b7160e01b600052601260045260246000fd5b500490565b60006001820161366657613666613124565b5060010190565b81835281816020850137506000828201602090810191909152601f909101601f19169091010190565b6060815260006136aa60608301878961366d565b82810360208401526136bd81868861366d565b9150508260408301529695505050505050565b6001600160a01b03929092168252602082015260400190565b634e487b7160e01b600052603160045260246000fd5b60006020828403121561371157600080fd5b81516121b881612f52565b6000825161372e818460208701612c61565b919091019291505056feb9e5f95c6dada363e2630ce6d56786e03062e6f55811f34277ead98d3cb08b44360894a13ba1a3210667c828492db98dca3e2076cc3735a920a3ca505d382bbc339759585899103d2ace64958e37e18ccb0504652c81d4a1b8aa80fe2126ab95a264697066735822122014befbc7c1c70721f4766e1cb537b7bab3b67bdd4d257f4febcf8b72c824f45464736f6c63430008180033",
  "devdoc": {
    "errors": {
      "AccessControlBadConfirmation()": [
        {
          "details": "The caller of a function is not the expected one. NOTE: Don't confuse with {AccessControlUnauthorizedAccount}."
        }
      ],
      "AccessControlUnauthorizedAccount(address,bytes32)": [
        {
          "details": "The `account` is missing a role."
        }
      ],
      "AddressEmptyCode(address)": [
        {
          "details": "There's no code at `target` (it is not a contract)."
        }
      ],
      "AddressInsufficientBalance(address)": [
        {
          "details": "The ETH balance of the account is not enough to perform the operation."
        }
      ],
      "ERC1967InvalidImplementation(address)": [
        {
          "details": "The `implementation` of the proxy is invalid."
        }
      ],
      "ERC1967NonPayable()": [
        {
          "details": "An upgrade function sees `msg.value > 0` that may be lost."
        }
      ],
      "EnforcedPause()": [
        {
          "details": "The operation failed because the contract is paused."
        }
      ],
      "ExpectedPause()": [
        {
          "details": "The operation failed because the contract is not paused."
        }
      ],
      "FailedInnerCall()": [
        {
          "details": "A call to an address target failed. The target may have reverted."
        }
      ],
      "InvalidInitialization()": [
        {
          "details": "The contract is already initialized."
        }
      ],
      "NotInitializing()": [
        {
          "details": "The contract is not initializing."
        }
      ],
      "ReentrancyGuardReentrantCall()": [
        {
          "details": "Unauthorized reentrant call."
        }
      ],
      "SafeERC20FailedOperation(address)": [
        {
          "details": "An operation with an ERC20 token failed."
        }
      ],
      "UUPSUnauthorizedCallContext()": [
        {
          "details": "The call is from an unauthorized context."
        }
      ],
      "UUPSUnsupportedProxiableUUID(bytes32)": [
        {
          "details": "The storage `slot` is unsupported as a UUID."
        }
      ]
    },
    "events": {
      "Initialized(uint64)": {
        "details": "Triggered when the contract has been initialized or reinitialized."
      },
      "Paused(address)": {
        "details": "Emitted when the pause is triggered by `account`."
      },
      "RoleAdminChanged(bytes32,bytes32,bytes32)": {
        "details": "Emitted when `newAdminRole` is set as ``role``'s admin role, replacing `previousAdminRole` `DEFAULT_ADMIN_ROLE` is the starting admin for all roles, despite {RoleAdminChanged} not being emitted signaling this."
      },
      "RoleGranted(bytes32,address,address)": {
        "details": "Emitted when `account` is granted `role`. `sender` is the account that originated the contract call, an admin role bearer except when using {AccessControl-_setupRole}."
      },
      "RoleRevoked(bytes32,address,address)": {
        "details": "Emitted when `account` is revoked `role`. `sender` is the account that originated the contract call:   - if using `revokeRole`, it is the admin role bearer   - if using `renounceRole`, it is the role bearer (i.e. `account`)"
      },
      "Unpaused(address)": {
        "details": "Emitted when the pause is lifted by `account`."
      },
      "Upgraded(address)": {
        "details": "Emitted when the implementation is upgraded."
      }
    },
    "kind": "dev",
    "methods": {
      "addGenericPermission(uint256,string,string,uint256)": {
        "params": {
          "columnName": "The name of the column",
          "price": "The price of data access under the permission",
          "refinerId": "The id of the refiner",
          "tableName": "The name of the table"
        },
        "returns": {
          "permissionId": "The id of the permission"
        }
      },
      "addPermission(address,uint256,string,string,uint256)": {
        "params": {
          "columnName": "The name of the column",
          "grantee": "The address of the grantee",
          "price": "The price of data access under the permission",
          "refinerId": "The id of the refiner",
          "tableName": "The name of the table"
        },
        "returns": {
          "permissionId": "The id of the permission"
        }
      },
      "constructor": {
        "custom:oz-upgrades-unsafe-allow": "constructor"
      },
      "getPermissions(uint256,address)": {
        "params": {
          "grantee": "The address of the grantee",
          "refinerId": "The id of the refiner"
        },
        "returns": {
          "_0": "permissions The permissions"
        }
      },
      "getRoleAdmin(bytes32)": {
        "details": "Returns the admin role that controls `role`. See {grantRole} and {revokeRole}. To change a role's admin, use {_setRoleAdmin}."
      },
      "grantRole(bytes32,address)": {
        "details": "Grants `role` to `account`. If `account` had not been already granted `role`, emits a {RoleGranted} event. Requirements: - the caller must have ``role``'s admin role. May emit a {RoleGranted} event."
      },
      "hasRole(bytes32,address)": {
        "details": "Returns `true` if `account` has been granted `role`."
      },
      "initialize(address,address,address)": {
        "params": {
          "ownerAddress": "Address of the owner"
        }
      },
      "paused()": {
        "details": "Returns true if the contract is paused, and false otherwise."
      },
      "permissions(uint256)": {
        "params": {
          "permissionId": "The id of the permission"
        },
        "returns": {
          "_0": "permission The permission"
        }
      },
      "proxiableUUID()": {
        "details": "Implementation of the ERC1822 {proxiableUUID} function. This returns the storage slot used by the implementation. It is used to validate the implementation's compatibility when performing an upgrade. IMPORTANT: A proxy pointing at a proxiable contract should not be considered proxiable itself, because this risks bricking a proxy that upgrades to it, by delegating to itself until out of gas. Thus it is critical that this function revert if invoked through a proxy. This is guaranteed by the `notDelegated` modifier."
      },
      "renounceRole(bytes32,address)": {
        "details": "Revokes `role` from the calling account. Roles are often managed via {grantRole} and {revokeRole}: this function's purpose is to provide a mechanism for accounts to lose their privileges if they are compromised (such as when a trusted device is misplaced). If the calling account had been revoked `role`, emits a {RoleRevoked} event. Requirements: - the caller must be `callerConfirmation`. May emit a {RoleRevoked} event."
      },
      "revokeRole(bytes32,address)": {
        "details": "Revokes `role` from `account`. If `account` had been granted `role`, emits a {RoleRevoked} event. Requirements: - the caller must have ``role``'s admin role. May emit a {RoleRevoked} event."
      },
      "supportsInterface(bytes4)": {
        "details": "See {IERC165-supportsInterface}."
      },
      "updatePermissionApproval(uint256,bool)": {
        "params": {
          "approved": "The new approval status",
          "permissionId": "The id of the permission"
        }
      },
      "upgradeToAndCall(address,bytes)": {
        "custom:oz-upgrades-unsafe-allow-reachable": "delegatecall",
        "details": "Upgrade the implementation of the proxy to `newImplementation`, and subsequently execute the function call encoded in `data`. Calls {_authorizeUpgrade}. Emits an {Upgraded} event."
      }
    },
    "version": 1
  },
  "userdoc": {
    "kind": "user",
    "methods": {
      "addGenericPermission(uint256,string,string,uint256)": {
        "notice": "Adds a generic permission that is granted to everyone"
      },
      "addPermission(address,uint256,string,string,uint256)": {
        "notice": "Adds a permission to the contract"
      },
      "dlpPaymentPercentage()": {
        "notice": "The percentage of the payment that goes to the DLP, in 1e18"
      },
      "getPermissions(uint256,address)": {
        "notice": "Returns the permissions for a grantee against a refiner"
      },
      "initialize(address,address,address)": {
        "notice": "Initializes the contract"
      },
      "pause()": {
        "notice": "Pauses the contract"
      },
      "permissions(uint256)": {
        "notice": "Returns the permission for a given permission id"
      },
      "permissionsCount()": {
        "notice": "Returns the number of permissions in the contract"
      },
      "queryEngineTreasury()": {
        "notice": "The address of the treasury that holds the payment"
      },
      "refinerRegistry()": {
        "notice": "Returns the refiner registry address"
      },
      "unpause()": {
        "notice": "Unpauses the contract"
      },
      "updatePermissionApproval(uint256,bool)": {
        "notice": "Updates the approval status of a permission"
      },
      "vanaTreasury()": {
        "notice": "The address of the VANA treasury that receives (1 - dlpPaymentPercentage) of the payment"
      },
      "version()": {
        "notice": "Returns the version of the contract"
      }
    },
    "version": 1
  },
  "storageLayout": {
    "storage": [
      {
        "astId": 16851,
        "contract": "contracts/queryEngine/QueryEngineImplementation.sol:QueryEngineImplementation",
        "label": "permissionsCount",
        "offset": 0,
        "slot": "0",
        "type": "t_uint256"
      },
      {
        "astId": 16855,
        "contract": "contracts/queryEngine/QueryEngineImplementation.sol:QueryEngineImplementation",
        "label": "refinerRegistry",
        "offset": 0,
        "slot": "1",
        "type": "t_contract(IDataRefinerRegistry)12788"
      },
      {
        "astId": 16859,
        "contract": "contracts/queryEngine/QueryEngineImplementation.sol:QueryEngineImplementation",
        "label": "computeEngine",
        "offset": 0,
        "slot": "2",
        "type": "t_contract(IComputeEngine)9500"
      },
      {
        "astId": 16863,
        "contract": "contracts/queryEngine/QueryEngineImplementation.sol:QueryEngineImplementation",
        "label": "vanaTreasury",
        "offset": 0,
        "slot": "3",
        "type": "t_address"
      },
      {
        "astId": 16868,
        "contract": "contracts/queryEngine/QueryEngineImplementation.sol:QueryEngineImplementation",
        "label": "queryEngineTreasury",
        "offset": 0,
        "slot": "4",
        "type": "t_contract(IDataAccessTreasury)12262"
      },
      {
        "astId": 16872,
        "contract": "contracts/queryEngine/QueryEngineImplementation.sol:QueryEngineImplementation",
        "label": "dlpPaymentPercentage",
        "offset": 0,
        "slot": "5",
        "type": "t_uint256"
      },
      {
        "astId": 16878,
        "contract": "contracts/queryEngine/QueryEngineImplementation.sol:QueryEngineImplementation",
        "label": "_dlpPayments",
        "offset": 0,
        "slot": "6",
        "type": "t_mapping(t_uint256,t_mapping(t_address,t_uint256))"
      },
      {
        "astId": 16884,
        "contract": "contracts/queryEngine/QueryEngineImplementation.sol:QueryEngineImplementation",
        "label": "_permissions",
        "offset": 0,
        "slot": "7",
        "type": "t_mapping(t_uint256,t_struct(Permission)16674_storage)"
      },
      {
        "astId": 16891,
        "contract": "contracts/queryEngine/QueryEngineImplementation.sol:QueryEngineImplementation",
        "label": "_approvedPermissions",
        "offset": 0,
        "slot": "8",
        "type": "t_mapping(t_uint256,t_mapping(t_address,t_struct(UintSet)7591_storage))"
      },
      {
        "astId": 16896,
        "contract": "contracts/queryEngine/QueryEngineImplementation.sol:QueryEngineImplementation",
        "label": "dlpPubKeys",
        "offset": 0,
        "slot": "9",
        "type": "t_mapping(t_uint256,t_string_storage)"
      }
    ],
    "types": {
      "t_address": {
        "encoding": "inplace",
        "label": "address",
        "numberOfBytes": "20"
      },
      "t_array(t_bytes32)dyn_storage": {
        "base": "t_bytes32",
        "encoding": "dynamic_array",
        "label": "bytes32[]",
        "numberOfBytes": "32"
      },
      "t_bool": {
        "encoding": "inplace",
        "label": "bool",
        "numberOfBytes": "1"
      },
      "t_bytes32": {
        "encoding": "inplace",
        "label": "bytes32",
        "numberOfBytes": "32"
      },
      "t_contract(IComputeEngine)9500": {
        "encoding": "inplace",
        "label": "contract IComputeEngine",
        "numberOfBytes": "20"
      },
      "t_contract(IDataAccessTreasury)12262": {
        "encoding": "inplace",
        "label": "contract IDataAccessTreasury",
        "numberOfBytes": "20"
      },
      "t_contract(IDataRefinerRegistry)12788": {
        "encoding": "inplace",
        "label": "contract IDataRefinerRegistry",
        "numberOfBytes": "20"
      },
      "t_mapping(t_address,t_struct(UintSet)7591_storage)": {
        "encoding": "mapping",
        "key": "t_address",
        "label": "mapping(address => struct EnumerableSet.UintSet)",
        "numberOfBytes": "32",
        "value": "t_struct(UintSet)7591_storage"
      },
      "t_mapping(t_address,t_uint256)": {
        "encoding": "mapping",
        "key": "t_address",
        "label": "mapping(address => uint256)",
        "numberOfBytes": "32",
        "value": "t_uint256"
      },
      "t_mapping(t_bytes32,t_uint256)": {
        "encoding": "mapping",
        "key": "t_bytes32",
        "label": "mapping(bytes32 => uint256)",
        "numberOfBytes": "32",
        "value": "t_uint256"
      },
      "t_mapping(t_uint256,t_mapping(t_address,t_struct(UintSet)7591_storage))": {
        "encoding": "mapping",
        "key": "t_uint256",
        "label": "mapping(uint256 => mapping(address => struct EnumerableSet.UintSet))",
        "numberOfBytes": "32",
        "value": "t_mapping(t_address,t_struct(UintSet)7591_storage)"
      },
      "t_mapping(t_uint256,t_mapping(t_address,t_uint256))": {
        "encoding": "mapping",
        "key": "t_uint256",
        "label": "mapping(uint256 => mapping(address => uint256))",
        "numberOfBytes": "32",
        "value": "t_mapping(t_address,t_uint256)"
      },
      "t_mapping(t_uint256,t_string_storage)": {
        "encoding": "mapping",
        "key": "t_uint256",
        "label": "mapping(uint256 => string)",
        "numberOfBytes": "32",
        "value": "t_string_storage"
      },
      "t_mapping(t_uint256,t_struct(Permission)16674_storage)": {
        "encoding": "mapping",
        "key": "t_uint256",
        "label": "mapping(uint256 => struct IQueryEngine.Permission)",
        "numberOfBytes": "32",
        "value": "t_struct(Permission)16674_storage"
      },
      "t_string_storage": {
        "encoding": "bytes",
        "label": "string",
        "numberOfBytes": "32"
      },
      "t_struct(Permission)16674_storage": {
        "encoding": "inplace",
        "label": "struct IQueryEngine.Permission",
        "members": [
          {
            "astId": 16663,
            "contract": "contracts/queryEngine/QueryEngineImplementation.sol:QueryEngineImplementation",
            "label": "grantee",
            "offset": 0,
            "slot": "0",
            "type": "t_address"
          },
          {
            "astId": 16665,
            "contract": "contracts/queryEngine/QueryEngineImplementation.sol:QueryEngineImplementation",
            "label": "approved",
            "offset": 20,
            "slot": "0",
            "type": "t_bool"
          },
          {
            "astId": 16667,
            "contract": "contracts/queryEngine/QueryEngineImplementation.sol:QueryEngineImplementation",
            "label": "refinerId",
            "offset": 0,
            "slot": "1",
            "type": "t_uint256"
          },
          {
            "astId": 16669,
            "contract": "contracts/queryEngine/QueryEngineImplementation.sol:QueryEngineImplementation",
            "label": "tableName",
            "offset": 0,
            "slot": "2",
            "type": "t_string_storage"
          },
          {
            "astId": 16671,
            "contract": "contracts/queryEngine/QueryEngineImplementation.sol:QueryEngineImplementation",
            "label": "columnName",
            "offset": 0,
            "slot": "3",
            "type": "t_string_storage"
          },
          {
            "astId": 16673,
            "contract": "contracts/queryEngine/QueryEngineImplementation.sol:QueryEngineImplementation",
            "label": "price",
            "offset": 0,
            "slot": "4",
            "type": "t_uint256"
          }
        ],
        "numberOfBytes": "160"
      },
      "t_struct(Set)7119_storage": {
        "encoding": "inplace",
        "label": "struct EnumerableSet.Set",
        "members": [
          {
            "astId": 7114,
            "contract": "contracts/queryEngine/QueryEngineImplementation.sol:QueryEngineImplementation",
            "label": "_values",
            "offset": 0,
            "slot": "0",
            "type": "t_array(t_bytes32)dyn_storage"
          },
          {
            "astId": 7118,
            "contract": "contracts/queryEngine/QueryEngineImplementation.sol:QueryEngineImplementation",
            "label": "_positions",
            "offset": 0,
            "slot": "1",
            "type": "t_mapping(t_bytes32,t_uint256)"
          }
        ],
        "numberOfBytes": "64"
      },
      "t_struct(UintSet)7591_storage": {
        "encoding": "inplace",
        "label": "struct EnumerableSet.UintSet",
        "members": [
          {
            "astId": 7590,
            "contract": "contracts/queryEngine/QueryEngineImplementation.sol:QueryEngineImplementation",
            "label": "_inner",
            "offset": 0,
            "slot": "0",
            "type": "t_struct(Set)7119_storage"
          }
        ],
        "numberOfBytes": "64"
      },
      "t_uint256": {
        "encoding": "inplace",
        "label": "uint256",
        "numberOfBytes": "32"
      }
    }
  }
}