{
  "address": "0x97753371B6005B3b6bEca100c902d74929A7d44b",
  "abi": [
    {
      "inputs": [],
      "stateMutability": "nonpayable",
      "type": "constructor"
    },
    {
      "inputs": [],
      "name": "AccessControlBadConfirmation",
      "type": "error"
    },
    {
      "inputs": [
        {
          "internalType": "address",
          "name": "account",
          "type": "address"
        },
        {
          "internalType": "bytes32",
          "name": "neededRole",
          "type": "bytes32"
        }
      ],
      "name": "AccessControlUnauthorizedAccount",
      "type": "error"
    },
    {
      "inputs": [
        {
          "internalType": "address",
          "name": "target",
          "type": "address"
        }
      ],
      "name": "AddressEmptyCode",
      "type": "error"
    },
    {
      "inputs": [
        {
          "internalType": "address",
          "name": "account",
          "type": "address"
        }
      ],
      "name": "AddressInsufficientBalance",
      "type": "error"
    },
    {
      "inputs": [
        {
          "internalType": "address",
          "name": "implementation",
          "type": "address"
        }
      ],
      "name": "ERC1967InvalidImplementation",
      "type": "error"
    },
    {
      "inputs": [],
      "name": "ERC1967NonPayable",
      "type": "error"
    },
    {
      "inputs": [],
      "name": "FailedInnerCall",
      "type": "error"
    },
    {
      "inputs": [],
      "name": "InvalidInitialization",
      "type": "error"
    },
    {
      "inputs": [],
      "name": "MathOverflowedMulDiv",
      "type": "error"
    },
    {
      "inputs": [],
      "name": "NotInitializing",
      "type": "error"
    },
    {
      "inputs": [],
      "name": "R",
      "type": "error"
    },
    {
      "inputs": [
        {
          "internalType": "uint8",
          "name": "bits",
          "type": "uint8"
        },
        {
          "internalType": "uint256",
          "name": "value",
          "type": "uint256"
        }
      ],
      "name": "SafeCastOverflowedUintDowncast",
      "type": "error"
    },
    {
      "inputs": [
        {
          "internalType": "uint256",
          "name": "value",
          "type": "uint256"
        }
      ],
      "name": "SafeCastOverflowedUintToInt",
      "type": "error"
    },
    {
      "inputs": [
        {
          "internalType": "address",
          "name": "token",
          "type": "address"
        }
      ],
      "name": "SafeERC20FailedOperation",
      "type": "error"
    },
    {
      "inputs": [],
      "name": "SwapHelper__InvalidAmountIn",
      "type": "error"
    },
    {
      "inputs": [],
      "name": "SwapHelper__InvalidSlippagePercentage",
      "type": "error"
    },
    {
      "inputs": [],
      "name": "SwapHelper__ZeroAddress",
      "type": "error"
    },
    {
      "inputs": [],
      "name": "T",
      "type": "error"
    },
    {
      "inputs": [],
      "name": "UUPSUnauthorizedCallContext",
      "type": "error"
    },
    {
      "inputs": [
        {
          "internalType": "bytes32",
          "name": "slot",
          "type": "bytes32"
        }
      ],
      "name": "UUPSUnsupportedProxiableUUID",
      "type": "error"
    },
    {
      "inputs": [],
      "name": "Uniswap__AS",
      "type": "error"
    },
    {
      "inputs": [],
      "name": "Uniswap__SPL",
      "type": "error"
    },
    {
      "anonymous": false,
      "inputs": [
        {
          "indexed": false,
          "internalType": "uint64",
          "name": "version",
          "type": "uint64"
        }
      ],
      "name": "Initialized",
      "type": "event"
    },
    {
      "anonymous": false,
      "inputs": [
        {
          "indexed": true,
          "internalType": "bytes32",
          "name": "role",
          "type": "bytes32"
        },
        {
          "indexed": true,
          "internalType": "bytes32",
          "name": "previousAdminRole",
          "type": "bytes32"
        },
        {
          "indexed": true,
          "internalType": "bytes32",
          "name": "newAdminRole",
          "type": "bytes32"
        }
      ],
      "name": "RoleAdminChanged",
      "type": "event"
    },
    {
      "anonymous": false,
      "inputs": [
        {
          "indexed": true,
          "internalType": "bytes32",
          "name": "role",
          "type": "bytes32"
        },
        {
          "indexed": true,
          "internalType": "address",
          "name": "account",
          "type": "address"
        },
        {
          "indexed": true,
          "internalType": "address",
          "name": "sender",
          "type": "address"
        }
      ],
      "name": "RoleGranted",
      "type": "event"
    },
    {
      "anonymous": false,
      "inputs": [
        {
          "indexed": true,
          "internalType": "bytes32",
          "name": "role",
          "type": "bytes32"
        },
        {
          "indexed": true,
          "internalType": "address",
          "name": "account",
          "type": "address"
        },
        {
          "indexed": true,
          "internalType": "address",
          "name": "sender",
          "type": "address"
        }
      ],
      "name": "RoleRevoked",
      "type": "event"
    },
    {
      "anonymous": false,
      "inputs": [
        {
          "indexed": true,
          "internalType": "address",
          "name": "sender",
          "type": "address"
        },
        {
          "indexed": true,
          "internalType": "address",
          "name": "recipient",
          "type": "address"
        },
        {
          "indexed": true,
          "internalType": "address",
          "name": "tokenIn",
          "type": "address"
        },
        {
          "indexed": false,
          "internalType": "uint256",
          "name": "amountIn",
          "type": "uint256"
        },
        {
          "indexed": false,
          "internalType": "address",
          "name": "tokenOut",
          "type": "address"
        },
        {
          "indexed": false,
          "internalType": "uint256",
          "name": "amountOut",
          "type": "uint256"
        }
      ],
      "name": "Swap",
      "type": "event"
    },
    {
      "anonymous": false,
      "inputs": [
        {
          "indexed": true,
          "internalType": "address",
          "name": "implementation",
          "type": "address"
        }
      ],
      "name": "Upgraded",
      "type": "event"
    },
    {
      "inputs": [],
      "name": "DEFAULT_ADMIN_ROLE",
      "outputs": [
        {
          "internalType": "bytes32",
          "name": "",
          "type": "bytes32"
        }
      ],
      "stateMutability": "view",
      "type": "function"
    },
    {
      "inputs": [],
      "name": "MAINTAINER_ROLE",
      "outputs": [
        {
          "internalType": "bytes32",
          "name": "",
          "type": "bytes32"
        }
      ],
      "stateMutability": "view",
      "type": "function"
    },
    {
      "inputs": [],
      "name": "ONE_HUNDRED_PERCENT",
      "outputs": [
        {
          "internalType": "uint256",
          "name": "",
          "type": "uint256"
        }
      ],
      "stateMutability": "view",
      "type": "function"
    },
    {
      "inputs": [],
      "name": "UPGRADE_INTERFACE_VERSION",
      "outputs": [
        {
          "internalType": "string",
          "name": "",
          "type": "string"
        }
      ],
      "stateMutability": "view",
      "type": "function"
    },
    {
      "inputs": [],
      "name": "VANA",
      "outputs": [
        {
          "internalType": "address",
          "name": "",
          "type": "address"
        }
      ],
      "stateMutability": "view",
      "type": "function"
    },
    {
      "inputs": [],
      "name": "WVANA",
      "outputs": [
        {
          "internalType": "contract IWVANA",
          "name": "",
          "type": "address"
        }
      ],
      "stateMutability": "view",
      "type": "function"
    },
    {
      "inputs": [
        {
          "components": [
            {
              "internalType": "address",
              "name": "tokenIn",
              "type": "address"
            },
            {
              "internalType": "address",
              "name": "tokenOut",
              "type": "address"
            },
            {
              "internalType": "uint24",
              "name": "fee",
              "type": "uint24"
            },
            {
              "internalType": "address",
              "name": "recipient",
              "type": "address"
            },
            {
              "internalType": "uint256",
              "name": "amountIn",
              "type": "uint256"
            },
            {
              "internalType": "uint256",
              "name": "amountOutMinimum",
              "type": "uint256"
            }
          ],
          "internalType": "struct ISwapHelper.ExactInputSingleParams",
          "name": "params",
          "type": "tuple"
        }
      ],
      "name": "exactInputSingle",
      "outputs": [
        {
          "internalType": "uint256",
          "name": "amountOut",
          "type": "uint256"
        }
      ],
      "stateMutability": "payable",
      "type": "function"
    },
    {
      "inputs": [
        {
          "internalType": "address",
          "name": "tokenA",
          "type": "address"
        },
        {
          "internalType": "address",
          "name": "tokenB",
          "type": "address"
        },
        {
          "internalType": "uint24",
          "name": "fee",
          "type": "uint24"
        }
      ],
      "name": "getPool",
      "outputs": [
        {
          "internalType": "contract IUniswapV3Pool",
          "name": "",
          "type": "address"
        }
      ],
      "stateMutability": "view",
      "type": "function"
    },
    {
      "inputs": [
        {
          "internalType": "bytes32",
          "name": "role",
          "type": "bytes32"
        }
      ],
      "name": "getRoleAdmin",
      "outputs": [
        {
          "internalType": "bytes32",
          "name": "",
          "type": "bytes32"
        }
      ],
      "stateMutability": "view",
      "type": "function"
    },
    {
      "inputs": [
        {
          "internalType": "bytes32",
          "name": "role",
          "type": "bytes32"
        },
        {
          "internalType": "address",
          "name": "account",
          "type": "address"
        }
      ],
      "name": "grantRole",
      "outputs": [],
      "stateMutability": "nonpayable",
      "type": "function"
    },
    {
      "inputs": [
        {
          "internalType": "bytes32",
          "name": "role",
          "type": "bytes32"
        },
        {
          "internalType": "address",
          "name": "account",
          "type": "address"
        }
      ],
      "name": "hasRole",
      "outputs": [
        {
          "internalType": "bool",
          "name": "",
          "type": "bool"
        }
      ],
      "stateMutability": "view",
      "type": "function"
    },
    {
      "inputs": [
        {
          "internalType": "address",
          "name": "ownerAddress",
          "type": "address"
        },
        {
          "internalType": "address",
          "name": "initUniswapV3Router",
          "type": "address"
        },
        {
          "internalType": "contract IQuoterV2",
          "name": "initUniswapV3Quoter",
          "type": "address"
        }
      ],
      "name": "initialize",
      "outputs": [],
      "stateMutability": "nonpayable",
      "type": "function"
    },
    {
      "inputs": [],
      "name": "proxiableUUID",
      "outputs": [
        {
          "internalType": "bytes32",
          "name": "",
          "type": "bytes32"
        }
      ],
      "stateMutability": "view",
      "type": "function"
    },
    {
      "inputs": [
        {
          "components": [
            {
              "internalType": "address",
              "name": "tokenIn",
              "type": "address"
            },
            {
              "internalType": "address",
              "name": "tokenOut",
              "type": "address"
            },
            {
              "internalType": "uint24",
              "name": "fee",
              "type": "uint24"
            },
            {
              "internalType": "uint256",
              "name": "amountIn",
              "type": "uint256"
            }
          ],
          "internalType": "struct ISwapHelper.QuoteExactInputSingleParams",
          "name": "params",
          "type": "tuple"
        }
      ],
      "name": "quoteExactInputSingle",
      "outputs": [
        {
          "internalType": "uint256",
          "name": "amountOut",
          "type": "uint256"
        }
      ],
      "stateMutability": "nonpayable",
      "type": "function"
    },
    {
      "inputs": [
        {
          "components": [
            {
              "internalType": "address",
              "name": "tokenIn",
              "type": "address"
            },
            {
              "internalType": "address",
              "name": "tokenOut",
              "type": "address"
            },
            {
              "internalType": "uint24",
              "name": "fee",
              "type": "uint24"
            },
            {
              "internalType": "uint256",
              "name": "amountIn",
              "type": "uint256"
            },
            {
              "internalType": "uint160",
              "name": "sqrtPriceX96",
              "type": "uint160"
            },
            {
              "internalType": "uint128",
              "name": "liquidity",
              "type": "uint128"
            },
            {
              "internalType": "uint256",
              "name": "maximumSlippagePercentage",
              "type": "uint256"
            }
          ],
          "internalType": "struct ISwapHelper.QuoteSlippageExactInputSingleParams",
          "name": "params",
          "type": "tuple"
        }
      ],
      "name": "quoteSlippageExactInputSingle",
      "outputs": [
        {
          "components": [
            {
              "internalType": "int256",
              "name": "amount0Delta",
              "type": "int256"
            },
            {
              "internalType": "int256",
              "name": "amount1Delta",
              "type": "int256"
            },
            {
              "internalType": "uint256",
              "name": "amountToPay",
              "type": "uint256"
            },
            {
              "internalType": "uint256",
              "name": "amountReceived",
              "type": "uint256"
            },
            {
              "internalType": "uint160",
              "name": "sqrtPriceX96After",
              "type": "uint160"
            },
            {
              "internalType": "uint160",
              "name": "sqrtPriceLimitX96",
              "type": "uint160"
            }
          ],
          "internalType": "struct ISwapHelper.Quote",
          "name": "quote",
          "type": "tuple"
        }
      ],
      "stateMutability": "view",
      "type": "function"
    },
    {
      "inputs": [
        {
          "internalType": "bytes32",
          "name": "role",
          "type": "bytes32"
        },
        {
          "internalType": "address",
          "name": "callerConfirmation",
          "type": "address"
        }
      ],
      "name": "renounceRole",
      "outputs": [],
      "stateMutability": "nonpayable",
      "type": "function"
    },
    {
      "inputs": [
        {
          "internalType": "bytes32",
          "name": "role",
          "type": "bytes32"
        },
        {
          "internalType": "address",
          "name": "account",
          "type": "address"
        }
      ],
      "name": "revokeRole",
      "outputs": [],
      "stateMutability": "nonpayable",
      "type": "function"
    },
    {
      "inputs": [
        {
          "internalType": "contract IUniswapV3Pool",
          "name": "pool",
          "type": "address"
        },
        {
          "internalType": "bool",
          "name": "zeroForOne",
          "type": "bool"
        },
        {
          "internalType": "int256",
          "name": "amountSpecified",
          "type": "int256"
        },
        {
          "internalType": "uint160",
          "name": "sqrtPriceLimitX96",
          "type": "uint160"
        },
        {
          "components": [
            {
              "internalType": "uint160",
              "name": "sqrtPriceX96",
              "type": "uint160"
            },
            {
              "internalType": "int24",
              "name": "tick",
              "type": "int24"
            },
            {
              "internalType": "uint128",
              "name": "liquidity",
              "type": "uint128"
            }
          ],
          "internalType": "struct SwapHelperImplementation.Slot0",
          "name": "slot0Start",
          "type": "tuple"
        }
      ],
      "name": "simulateSwap",
      "outputs": [
        {
          "components": [
            {
              "internalType": "int256",
              "name": "amount0Delta",
              "type": "int256"
            },
            {
              "internalType": "int256",
              "name": "amount1Delta",
              "type": "int256"
            },
            {
              "internalType": "uint256",
              "name": "amountToPay",
              "type": "uint256"
            },
            {
              "internalType": "uint256",
              "name": "amountReceived",
              "type": "uint256"
            },
            {
              "internalType": "uint160",
              "name": "sqrtPriceX96After",
              "type": "uint160"
            },
            {
              "internalType": "uint160",
              "name": "sqrtPriceLimitX96",
              "type": "uint160"
            }
          ],
          "internalType": "struct ISwapHelper.Quote",
          "name": "quote",
          "type": "tuple"
        }
      ],
      "stateMutability": "view",
      "type": "function"
    },
    {
      "inputs": [
        {
          "components": [
            {
              "internalType": "address",
              "name": "tokenIn",
              "type": "address"
            },
            {
              "internalType": "address",
              "name": "tokenOut",
              "type": "address"
            },
            {
              "internalType": "uint24",
              "name": "fee",
              "type": "uint24"
            },
            {
              "internalType": "address",
              "name": "recipient",
              "type": "address"
            },
            {
              "internalType": "uint256",
              "name": "amountIn",
              "type": "uint256"
            },
            {
              "internalType": "uint256",
              "name": "maximumSlippagePercentage",
              "type": "uint256"
            }
          ],
          "internalType": "struct ISwapHelper.SlippageSwapParams",
          "name": "params",
          "type": "tuple"
        }
      ],
      "name": "slippageExactInputSingle",
      "outputs": [
        {
          "internalType": "uint256",
          "name": "amountInUsed",
          "type": "uint256"
        },
        {
          "internalType": "uint256",
          "name": "amountOut",
          "type": "uint256"
        }
      ],
      "stateMutability": "payable",
      "type": "function"
    },
    {
      "inputs": [
        {
          "internalType": "bytes4",
          "name": "interfaceId",
          "type": "bytes4"
        }
      ],
      "name": "supportsInterface",
      "outputs": [
        {
          "internalType": "bool",
          "name": "",
          "type": "bool"
        }
      ],
      "stateMutability": "view",
      "type": "function"
    },
    {
      "inputs": [],
      "name": "uniswapV3Quoter",
      "outputs": [
        {
          "internalType": "contract IQuoterV2",
          "name": "",
          "type": "address"
        }
      ],
      "stateMutability": "view",
      "type": "function"
    },
    {
      "inputs": [],
      "name": "uniswapV3Router",
      "outputs": [
        {
          "internalType": "address",
          "name": "",
          "type": "address"
        }
      ],
      "stateMutability": "view",
      "type": "function"
    },
    {
      "inputs": [
        {
          "internalType": "contract IQuoterV2",
          "name": "newUniswapV3Quoter",
          "type": "address"
        }
      ],
      "name": "updateUniswapV3Quoter",
      "outputs": [],
      "stateMutability": "nonpayable",
      "type": "function"
    },
    {
      "inputs": [
        {
          "internalType": "address",
          "name": "newUniswapV3Router",
          "type": "address"
        }
      ],
      "name": "updateUniswapV3Router",
      "outputs": [],
      "stateMutability": "nonpayable",
      "type": "function"
    },
    {
      "inputs": [
        {
          "internalType": "address",
          "name": "newImplementation",
          "type": "address"
        },
        {
          "internalType": "bytes",
          "name": "data",
          "type": "bytes"
        }
      ],
      "name": "upgradeToAndCall",
      "outputs": [],
      "stateMutability": "payable",
      "type": "function"
    },
    {
      "inputs": [],
      "name": "version",
      "outputs": [
        {
          "internalType": "uint256",
          "name": "",
          "type": "uint256"
        }
      ],
      "stateMutability": "pure",
      "type": "function"
    },
    {
      "stateMutability": "payable",
      "type": "receive"
    }
  ],
  "transactionHash": "0xbd0e94fdd8d2012706b2165f9090553cf0c432c9ee260d77ee258a416894a984",
  "args": [],
  "numDeployments": 3,
  "solcInputHash": "d33b1ecb5bd69944cc340e7bb9944d1d",
  "bytecode": "0x60a080604052346100ea57306080527ff0c57e16840df040f15088dc2f81fe391c3923bec73e23a9662efc9c229c6a005460ff8160401c166100d9576002600160401b03196001600160401b03821601610073575b60405161467a90816100f0823960805181818161171e01526117ee0152f35b6001600160401b0319166001600160401b039081177ff0c57e16840df040f15088dc2f81fe391c3923bec73e23a9662efc9c229c6a005581527fc7f505b2f371ae2175ee4913f4499e1f2633a7b5936321eed1cdaeb6115181d290602090a13880610054565b63f92ee8a960e01b60005260046000fd5b600080fdfe608080604052600436101561001d575b50361561001b57600080fd5b005b600090813560e01c90816301ffc9a714611d25575080630cfeab2414611c7d578063107b405114611b025780631698ee8214611ac1578063248a9ca314611a9a5780632c76d7a614611a715780632f2ff15d14611a3f57806336568abe146119fa57806344fd3939146112e35780634d20d0f8146119d15780634f1ef2861461177357806352d1902d1461170b57806354fd4d50146116ef5780635843b0fa14611646578063598acd67146115ef5780636240e8c71461137c57806377bd66b51461135557806391d14854146112ff578063a217fddf146112e3578063ad3cb1cc14611269578063b5a11fca14610b60578063c0c53b8b14610888578063d547741f1461084d578063dd0081c714610829578063e5139d151461016f5763f87422540361000f573461016c578060031936011261016c5760206040516000805160206146258339815191528152f35b80fd5b5060c036600319011261016c5760405161018881611ddc565b610190611e35565b815261019a611e4b565b91602082019283526101aa611e61565b91604081019283526101ba611d7a565b60608201818152608435608084015260a43560a084019081529095909490916001600160a01b03161561081a5782516001600160a01b031691826107d657608084015134036107c75784546001600160a01b0316803b156107c3578560049160405192838092630d0e30db60e41b825234905af180156107b85790869161079f575b50505b516001600160a01b0316928261078e5784546001600160a01b0316915b846107875785546001600160a01b0316915b856107765730975b60018060a01b036001541660808301518980604051926102ba846102ac602082019363095ea7b360e01b855288602484016142c0565b03601f198101865285611e12565b835190826001600160a01b038c165af16102d26142db565b8161073b575b5080610728575b156106d1575b50506040516370a0823160e01b8152306004820152926020846024816001600160a01b038a165afa9384156106c65790899291839561068f575b505162ffffff1699608084015191516040519061033b82611df7565b600160a01b60019003891682526020820193600160a01b6001900389168552604083019d8e526060830193600160a01b600190031684526080830190815260a083019182528560c0840152600160a01b6001900360015416936040519e8f966304e45aaf60e01b8852600160a01b600190038651166004890152600160a01b6001900390511660248801525162ffffff166044870152600160a01b6001900390511660648601525160848501525160a4840152600160a01b600190039060c001511660c4830152815a9360e492602095f1978815610684578798610650575b506040516370a0823160e01b81523060048201526020816024816001600160a01b0389165afa90811561064557889161060d575b5061045b90608093613319565b8951604080518381526001600160a01b0396871660208201529081018b905291948681169291169033906000805160206145e583398151915290606090a401519081811061053a575b50505050156104b9575b602082604051908152f35b80546001600160a01b0316803b1561053657818091602460405180948193632e1a7d4d60e01b83528860048401525af1801561052b57610516575b50509051602091906105109082906001600160a01b031661430b565b386104ae565b610521828092611e12565b61016c57806104f4565b6040513d84823e3d90fd5b5080fd5b61054391613319565b916105c4575082546001600160a01b0316803b156105c057838091602460405180948193632e1a7d4d60e01b83528760048401525af180156105b55790849161059c575b5050610593903361430b565b388080806104a4565b816105a691611e12565b6105b1578238610587565b8280fd5b6040513d86823e3d90fd5b8380fd5b6105ec906105fa6106089360405193849163a9059cbb60e01b602084015233602484016142c0565b03601f198101845283611e12565b6001600160a01b031661447e565b610593565b90506020813d60201161063d575b8161062860209383611e12565b810103126106385751608061044e565b600080fd5b3d915061061b565b6040513d8a823e3d90fd5b9097506020813d60201161067c575b8161066c60209383611e12565b810103126106385751963861041a565b3d915061065f565b6040513d89823e3d90fd5b925093506020823d6020116106be575b816106ac60209383611e12565b8101031261063857889151933861031f565b3d915061069f565b6040513d8b823e3d90fd5b610712610721926040519063095ea7b360e01b602083015260248201528b604482015260448152610703606482611e12565b6001600160a01b03891661447e565b6001600160a01b03871661447e565b38806102e5565b506001600160a01b0387163b15156102df565b8051801592508215610750575b5050386102d8565b819250906020918101031261077257602061076b9101611f5e565b3880610748565b8a80fd5b88516001600160a01b031697610276565b849161026e565b80516001600160a01b03169161025c565b816107a991611e12565b6107b457843861023c565b8480fd5b6040513d88823e3d90fd5b8580fd5b63362aad4f60e01b8552600485fd5b6108156080850151604051906323b872dd60e01b602083015233602483015230604483015260648201526064815261080f608482611e12565b8461447e565b61023f565b633753a87b60e21b8452600484fd5b503461016c578060031936011261016c57602060405168056bc75e2d631000008152f35b503461016c57604036600319011261016c5761088460043561086d611e4b565b9061087f61087a82613229565b6139e9565b613bcc565b5080f35b503461016c57606036600319011261016c576108a2611e35565b6108aa611e4b565b906044356001600160a01b03811691908290036105c05760008051602061460583398151915254604081901c60ff161593906001600160401b03811680159081610b58575b6001149081610b4e575b159081610b45575b50610b36576001600160401b031981166001176000805160206146058339815191525584610b0d575b5061093361435c565b61093b61435c565b6001600160a01b03821615610afe576001600160a01b03169182610a66575b610a09925060018060a01b0319600254161760025560008051602061462583398151915284526000805160206145c583398151915260205283600160408220015460008051602061462583398151915282526000805160206145c58339815191526020528160016040822001556000805160206146258339815191527fbd79b86ffe0ab8e8776151514217cd7cacd52c909f66475c3af44e129f0b00ff8380a4610a0381613a33565b50613aaf565b50610a115780f35b60ff60401b196000805160206146058339815191525416600080516020614605833981519152557fc7f505b2f371ae2175ee4913f4499e1f2633a7b5936321eed1cdaeb6115181d2602060405160018152a180f35b600180546001600160a01b031916841790556040516312a9293f60e21b815292602090849060049082905afa8015610af357610a09938691610ac4575b5085546001600160a01b0319166001600160a01b039190911617855561095a565b610ae6915060203d602011610aec575b610ade8183611e12565b810190613071565b38610aa3565b503d610ad4565b6040513d87823e3d90fd5b633753a87b60e21b8552600485fd5b6001600160481b0319166001600160401b0117600080516020614605833981519152553861092a565b63f92ee8a960e01b8652600486fd5b90501538610901565b303b1591506108f9565b8691506108ef565b5060c036600319011261016c576001600160a01b03610b7d613033565b1661125a5780546004906001600160a01b03165b6001600160a01b03610ba1613049565b1661124c5782546001600160a01b0316905b60e06001600160a01b03610bcf610bc861305f565b8585613090565b1660405194858092633850c7bd851b82525afa9081156105b557610c0c938592611215575b5060a435926001600160a01b03908116911610613c6c565b610c14613033565b90610c1d613049565b92610c2661305f565b6064356001600160a01b03811695919491908681036105c0575060405191610c4d83611ddc565b60018060a01b03168252602082019060018060a01b0316815262ffffff6040830195168552606082019586526080820193608435855260a083019484865260018060a01b0388511615610afe5783516001600160a01b03168015939084156111d85750815134036111c95785546001600160a01b0316803b156111c5578660049160405192838092630d0e30db60e41b825234905af18015610684576111b1575b505b516001600160a01b03169687159484156111a1575085546001600160a01b0316975b851561119b575085546001600160a01b0316965b851561118a5730985b60018060a01b03169360018060a01b03600154168451898060405192610d6b846102ac602082019363095ea7b360e01b855288602484016142c0565b835190828b5af1610d7a6142db565b81611153575b5080611149575b15611104575b50506040516370a0823160e01b815230600482015292602084602481895afa9384156106c657908993929184956110cd575b505162ffffff16908551925160405193610dd885611df7565b888552602085019d8e9d600160a01b60019003169e8f9052604086019485526060860190600160a01b600190031681526080860191825260a0860192835260c0860193600160a01b60019003168452600160a01b6001900360015416946040519e8f976304e45aaf60e01b8952600160a01b600190039051166004890152600160a01b6001900390511660248801525162ffffff166044870152600160a01b6001900390511660648601525160848501525160a4840152600160a01b6001900390511660c4830152815a9360e492602095f19687156107b8578697611099575b506040516370a0823160e01b8152306004820152602081602481875afa908115610684579084918891611062575b50610ef19192613319565b9760018060a01b038a511690604051908a825260208201528860408201526000805160206145e583398151915260603392a45186818110610fb8575b50505050610f46575b6040838382519182526020820152f35b80546001600160a01b0316803b1561053657818091602460405180948193632e1a7d4d60e01b83528860048401525af1801561052b57610fa3575b5050915160409290610f9d9082906001600160a01b031661430b565b38610f36565b610fae828092611e12565b61016c5780610f81565b610fc191613319565b9115611030575082546001600160a01b0316803b156105c057838091602460405180948193632e1a7d4d60e01b83528760048401525af180156105b55790849161101b575b5050611012903361430b565b38808086610f2d565b8161102591611e12565b6105b1578238611006565b6105ec9061105861105d9360405193849163a9059cbb60e01b602084015233602484016142c0565b61447e565b611012565b9150506020813d602011611091575b8161107e60209383611e12565b8101031261063857518390610ef1610ee6565b3d9150611071565b9096506020813d6020116110c5575b816110b560209383611e12565b8101031261063857519538610eb8565b3d91506110a8565b935093506020833d6020116110fc575b816110ea60209383611e12565b81010312610638578892519338610dbf565b3d91506110dd565b61113c611142926040519063095ea7b360e01b602083015260248201528b604482015260448152611136606482611e12565b8861447e565b8661447e565b3880610d8d565b50863b1515610d87565b8051801592508215611168575b505038610d80565b81925090602091810103126107725760206111839101611f5e565b3880611160565b89516001600160a01b031698610d2f565b96610d26565b516001600160a01b031697610d12565b866111be91979297611e12565b9438610cee565b8680fd5b63362aad4f60e01b8652600486fd5b61121090835190604051916323b872dd60e01b6020840152336024840152306044840152606483015260648252611058608483611e12565b610cf0565b61123891925060e03d60e011611245575b6112308183611e12565b810190613259565b5050505050509038610bf4565b503d611226565b611254613049565b90610bb3565b6004611264613033565b610b91565b503461016c578060031936011261016c5760408051916112898284611e12565b60058352640352e302e360dc1b6020840152815192839160208352815191826020850152815b8381106112cc575050828201840152601f01601f19168101030190f35b6020828201810151888301880152879550016112af565b503461016c578060031936011261016c57602090604051908152f35b503461016c57604036600319011261016c5760ff6040602092611320611e4b565b60043582526000805160206145c583398151915285528282206001600160a01b03909116825284522054604051911615158152f35b503461016c578060031936011261016c57546040516001600160a01b039091168152602090f35b503461016c5760e036600319011261016c57611396611e8e565b506001600160a01b036113a7613033565b166115e25780546001600160a01b03165b6001600160a01b036113c8613049565b166115d15781546001600160a01b0316906113fc905b6001600160a01b0383811690821610926113f661305f565b91613090565b60a4356001600160801b0381169291908381036107b4579215611560575b6084356001600160a01b03811694908581036105365794156114f1575b6114ed6114998585856114878a61144d81613705565b946040519561145b87611d90565b6001600160a01b038316875260020b60208701526001600160801b0316604086015260c4359084613c6c565b916114936064356136e0565b91611fb1565b6040519182918291909160a060c082019380518352602081015160208401526040810151604084015260608101516060840152600180831b03608082015116608084015281600180821b0391015116910152565b0390f35b604051633850c7bd60e01b815290945060e0816004816001600160a01b0386165afa908115610af35761149994939291611487916114ed979161153b575b50955050909192611437565b611554915060e03d60e011611245576112308183611e12565b5050505050503861152f565b604051630d34328160e11b81529092506020816004816001600160a01b0387165afa9081156105b5578491611597575b509161141a565b90506020813d6020116115c9575b816115b260209383611e12565b810103126105c0576115c390611f25565b38611590565b3d91506115a5565b6113fc6115dc613049565b916113de565b6115ea613033565b6113b8565b503461016c57602036600319011261016c57611609611e35565b61161161399b565b6001600160a01b0316801561163757600280546001600160a01b03191691909117905580f35b633753a87b60e21b8252600482fd5b503461016c57602036600319011261016c57611660611e35565b61166861399b565b6001600160a01b0316801561163757600180546001600160a01b031916821790556040516312a9293f60e21b815290602090829060049082905afa90811561052b5782916116d0575b5081546001600160a01b0319166001600160a01b039190911617815580f35b6116e9915060203d602011610aec57610ade8183611e12565b386116b1565b503461016c578060031936011261016c57602060405160018152f35b503461016c578060031936011261016c577f00000000000000000000000000000000000000000000000000000000000000006001600160a01b031630036117645760206040516000805160206145a58339815191528152f35b63703e46dd60e11b8152600490fd5b50604036600319011261016c57611788611e35565b602435906001600160401b0382116105b157366023830112156105b157816004013590836117b583611e73565b936117c36040519586611e12565b838552602085019336602482840101116105b157806024602093018637850101526001600160a01b037f0000000000000000000000000000000000000000000000000000000000000000163081149081156119ae575b5061199f578380526000805160206145c58339815191526020908152604080862033875290915284205460ff1615611987576040516352d1902d60e01b81526001600160a01b0382169390602081600481885afa869181611953575b5061188e57634c9c8ce360e01b86526004859052602486fd5b93846000805160206145a58339815191528796036119415750823b1561192f576000805160206145a583398151915280546001600160a01b031916821790558491907fbc7cd75a20ee27fd9adebab32041f755214dbc6bffa90cc0225b39da2e5c2d3b8380a2805115611914576108849382915190845af461190e6142db565b916144f4565b50505050346119205780f35b63b398979f60e01b8152600490fd5b634c9c8ce360e01b8552600452602484fd5b632a87526960e21b8652600452602485fd5b9091506020813d60201161197f575b8161196f60209383611e12565b810103126111c557519038611875565b3d9150611962565b63e2517d3f60e01b8452336004526024849052604484fd5b63703e46dd60e11b8452600484fd5b6000805160206145a5833981519152546001600160a01b03161415905038611819565b503461016c578060031936011261016c576002546040516001600160a01b039091168152602090f35b503461016c57604036600319011261016c57611a14611e4b565b336001600160a01b03821603611a305761088490600435613bcc565b63334bd91960e11b8252600482fd5b503461016c57604036600319011261016c57610884600435611a5f611e4b565b90611a6c61087a82613229565b613b35565b503461016c578060031936011261016c576001546040516001600160a01b039091168152602090f35b503461016c57602036600319011261016c576020611ab9600435613229565b604051908152f35b503461016c57606036600319011261016c576020611af0611ae0611e35565b611ae8611e4b565b6113f6611e61565b6040516001600160a01b039091168152f35b503461016c57608036600319011261016c576001600160a01b03611b24613033565b16611c705780546001600160a01b03165b6001600160a01b03611b45613049565b16611c615781546080906001600160a01b03165b6002546001600160a01b03169260a49085611b7261305f565b9560405192611b8084611dc1565b6001600160a01b0390811684529485166020840190815260648035604080870191825262ffffff9a8b16606088019081528a88018781529151636352813560e11b815297518a166004890152935189166024880152905160448701529151909816978401979097529551909316608482015293849283915af190811561052b578291611c1157602082604051908152f35b90506080813d608011611c59575b81611c2c60809383611e12565b810103126105365760209150611c526040825192611c4b858201611f39565b5001611f4d565b50386104ae565b3d9150611c1f565b6080611c6b613049565b611b59565b611c78613033565b611b35565b503461016c5760e036600319011261016c576004356001600160a01b0381168103610536576024359081151582036105b157611cb7611d7a565b9160603660831901126105c05760405193611cd185611d90565b6084356001600160a01b038116810361053657855260a4358060020b810361053657602086015260c435906001600160801b038216820361016c576114ed6114998787878787604085015260443591611fb1565b9050346105365760203660031901126105365760043563ffffffff60e01b81168091036105b15760209250637965db0b60e01b8114908115611d69575b5015158152f35b6301ffc9a760e01b14905038611d62565b606435906001600160a01b038216820361063857565b606081019081106001600160401b03821117611dab57604052565b634e487b7160e01b600052604160045260246000fd5b60a081019081106001600160401b03821117611dab57604052565b60c081019081106001600160401b03821117611dab57604052565b60e081019081106001600160401b03821117611dab57604052565b601f909101601f19168101906001600160401b03821190821017611dab57604052565b600435906001600160a01b038216820361063857565b602435906001600160a01b038216820361063857565b6044359062ffffff8216820361063857565b6001600160401b038111611dab57601f01601f191660200190565b60405190611e9b82611ddc565b600060a0838281528260208201528260408201528260608201528260808201520152565b51908160020b820361063857565b91909160008382019384129112908015821691151617611ee957565b634e487b7160e01b600052601160045260246000fd5b91908201809211611ee957565b81810392916000138015828513169184121617611ee957565b51906001600160801b038216820361063857565b51906001600160a01b038216820361063857565b519063ffffffff8216820361063857565b5190811515820361063857565b600f0b60016001607f1b03198114611ee95760000390565b600291820b910b0390627fffff198212627fffff831317611ee957565b600160ff1b8114611ee95760000390565b9092949194611fbe611e8e565b508515613022576001600160a01b03811661301c57508215613002576401000276a45b915b84516001600160a01b031615612f15575b8315612ed75784516001600160a01b039081169084169081109081612ec8575b505b15612eb75760405163ddca3f4360e01b8152956020876004816001600160a01b0387165afa96871561262757600097612e75575b506040516334324e9f60e21b8152936020856004816001600160a01b0388165afa94851561262757600095612e39575b5060018060a01b0387511692602088015160020b97604060018060801b0391015116604051946120a986611dc1565b8486526000602087015260408601526060850198895260808501525b8351151580612e1f575b15612d77576040516120e081611df7565b6000815260006020820152600060408201526000606082015260006080820152600060a0820152600060c082015260018060a01b036040860151168152885160020b60008860020b15612d6357627fffff19821460028a900b6000191416612c3f578860020b8205918181129081612d50575b50612d34575b8915612a9e5750600160ff82161b600019810190808211611ee95761217d91611eff565b60405163299ce14b60e11b8152600283900b60081d60010b60048201526020816024816001600160a01b038d165afa90811561262757600091612a6d575b5016801580159291908a81612a51575081600091610638578b92600160801b811015612a42575b50600160401b811015612a27575b600160201b811015612a0c575b620100008110156129f1575b6101008110156129d6575b60108110156129bb575b60048110156129a0575b60021115612987575b8260ff61224661225093826122559716613326565b1660020b90611f83565b61333a565b905b1515604083015260020b60208201819052620d89e71981121561296a5750620d89e71960208201525b60208101516001600160a01b039061229a9060020b613371565b166060820181905260408601516001600160a01b0316908915612959576001600160a01b03851681105b156129545750835b608087015187516001600160801b0390911691906000908181128f83808361283257505062ffffff61230491620f4240031683613e8c565b926001600160a01b038516871061282157612320868887613d90565b935b848110612787575084955b6001600160a01b0387811698908716808a1496908210612730578680612728575b15612717575b97889680612710575b15612701575050505b935b81806126f5575b6126e9575b811591156126d5575b50156126b657035b60c085015260a084015260808301526040860152600084131561265f576123c76123c06123bb608084015160c085015190611eff565b6136e0565b8651611f0c565b855260208501516123db60a08301516136e0565b9060006123e88383611f0c565b92121590821315036106385760208601525b604085015160608201516001600160a01b03918216911681036126335750604081015161245b575b602090881561245157015160020b60001901627fffff8113627fffff19821217611ee9575b60020b88526120c5565b015160020b612447565b602081015160405163f30dba9360e01b815260029190910b600482015290610100826024816001600160a01b038b165afa80156126275789926000916125a0575b50809261258e575b5060808601516001600160801b0316916000600f82900b1215612538576001600160801b03906124d390611f6b565b168203916001600160801b038311611ee9576001600160801b038316101561250e576020915b6001600160801b031660808701529050612422565b60405162461bcd60e51b81526020600482015260026024820152614c5360f01b6044820152606490fd5b6001600160801b03908116830192908311611ee9576001600160801b03831610612564576020916124f9565b60405162461bcd60e51b81526020600482015260026024820152614c4160f01b6044820152606490fd5b612599919250611f6b565b90386124a4565b90919250610100813d821161261f575b816125be6101009383611e12565b81010312610536576125cf81611f25565b5060208101519182600f0b830361016c5760808201518060060b0361016c57509061261860e08361260460a08e979601611f39565b5061261160c08201611f4d565b5001611f5e565b503861249c565b3d91506125b0565b6040513d6000823e3d90fd5b90516001600160a01b0316810361264b575b506120c5565b61265490613705565b60020b885238612645565b61267661266f60a08301516136e0565b8651611ecd565b855260208501516126936123bb608084015160c085015190611eff565b9060006126a08383611ecd565b92121590821215036106385760208601526123fa565b50506126d08d62ffffff8082620f4240031691168461406b565b612385565b6001600160a01b031686141590503861237d565b93508160000393612374565b5082600003851161236f565b61270b9350613df0565b612366565b508461235d565b5061272382828a613d90565b612354565b50841561234e565b909790868061277f575b1561276e575b97889680612767575b15612758575050505b93612368565b6127629350613d32565b612752565b5084612749565b5061277a82828a613e2a565b612740565b50841561273a565b8715610638578615610638576000906001600160a01b03871689106127b8576127b2915087896143fa565b9561232d565b6127f0906001600160a01b038111612808576127e1906001600160801b038a169060601b613351565b6001600160a01b038a16611eff565b6001600160a01b0381169190820361016c57506127b2565b61281c906001600160801b038a1690613f52565b6127e1565b61282c868689613e2a565b93612322565b90945090506001600160a01b038516871061294357612852868887613df0565b905b83810382116128655750849561232d565b871561016c57861561016c57836001600160a01b038716891061293257506001600160a01b03848203116128d6576001600160801b03871684820360601b818104919006151501905b6001600160a01b03891682101561016c57506001600160a01b0388811691909103169561232d565b6001600160801b0387166128f181600160601b878503613fe3565b90801561291e57600160601b8684030961290c575b906128ae565b60001981101561053657600101612906565b634e487b7160e01b83526012600452602483fd5b61293e9103878961438a565b6127b2565b61294e868689613d32565b90612854565b6122cc565b6001600160a01b03851681116122c4565b620d89e880911361297c575b50612280565b602082015238612976565b6001915060ff16019060ff8211611ee957908990612231565b600260ff928316810193501c908211611ee9578a9190612228565b600460ff928316810193501c908211611ee9578a919061221e565b600860ff928316810193501c908211611ee9578a9190612214565b601060ff928316810193501c908211611ee9578a9190612209565b602060ff928316810193501c908211611ee9578a91906121fd565b604060ff928316810193501c908211611ee9578a91906121f0565b91505060801c608090386121e2565b9150506122508260ff612a68941660020b90611f83565b612255565b906020823d8211612a96575b81612a8660209383611e12565b8101031261016c575051386121bb565b3d9150612a79565b612aa7826132e0565b600160ff82161b9182600019810111612c3f5760405163299ce14b60e11b8152600283900b60081d60010b60048201529291906020846024816001600160a01b038f165afa938415612d27578194612cf4575b5060001983011984161580159590939084612cb957612b18906132e0565b946000198201198116946105b15760ff9160001981011982166001600160801b031615612ca957505050607f5b6001600160401b03841615612c9f5760ff603f1991160160ff8111612c53575b63ffffffff841615612c955760ff601f1991160160ff8111612c53575b61ffff841615612c8b5760ff600f1991160160ff8111612c53575b60ff841615612c815760ff60071991160160ff8111612c53575b600f841615612c775760ff60031991160160ff8111612c53575b8c6003851615612c67575060ff60011991160160ff8111612c53579060018d949392935b16612c22575b509260ff612c126122509382612c1c971690613326565b1660020b906132fb565b90612257565b90925060ff91821660001901918211612c3f57508a9160ff612bfb565b634e487b7160e01b81526011600452602490fd5b634e487b7160e01b82526011600452602482fd5b936001906002949392941c612bf5565b9260041c92612bd1565b9260081c92612bb7565b9260101c92612b9d565b9260201c92612b82565b9260401c92612b65565b60001901191660801c9350612b45565b91945050612cc89192506132e0565b9160ff808316810311612c3f5750612250612cef9260ff808d941681031660020b906132fb565b612c1c565b9093506020813d8211612d1f575b81612d0f60209383611e12565b810103126105c057519238612afa565b3d9150612d02565b50604051903d90823e3d90fd5b90627fffff198160020b14612c535760020b6000190190612159565b90508960020b900760020b151538612153565b634e487b7160e01b81526012600452602490fd5b9750949350915093506000811382151514600014612e07578351612d9a91611f0c565b926020810151915b15612df657612db082611fa0565b8490915b604060018060a01b03910151169260405195612dcf87611ddc565b865260208601526040850152606084015260808301526001600160a01b031660a082015290565b612dff84611fa0565b829091612db4565b92612e19602082015194825190611f0c565b91612da2565b5060408401516001600160a01b03838116911614156120cf565b90946020823d602011612e6d575b81612e5460209383611e12565b8101031261016c5750612e6690611ebf565b933861207a565b3d9150612e47565b6020979197813d602011612eaf575b81612e9160209383611e12565b8101031261053657519062ffffff8216820361016c5750953861204a565b3d9150612e84565b6331f644ed60e01b60005260046000fd5b6401000276a391501138612014565b84516001600160a01b039081169084169081119081612ef7575b50612016565b73fffd8963efd1fc6a506488495d951d5263988d2691501038612ef1565b9350612f1f6132c1565b604051633850c7bd60e01b81526001600160a01b03831660e082600481845afa90811561262757600492602092600091600091612fdc575b5060020b858401526001600160a01b03168452604051630d34328160e11b815292839182905afa90811561262757600091612fa2575b506001600160801b0316604082015293611ff4565b90506020813d602011612fd4575b81612fbd60209383611e12565b8101031261063857612fce90611f25565b38612f8d565b3d9150612fb0565b9050612ff7915060e03d60e011611245576112308183611e12565b505050505038612f57565b73fffd8963efd1fc6a506488495d951d5263988d25611fe1565b91611fe3565b6380c2d5b360e01b60005260046000fd5b6004356001600160a01b03811681036106385790565b6024356001600160a01b03811681036106385790565b60443562ffffff811681036106385790565b9081602091031261063857516001600160a01b03811681036106385790565b600492906001600160a01b03811661322357506000546001600160a01b0316915b6001600160a01b03811661321d57506000546001600160a01b0316915b60015460405163c45a015560e01b81529460209186919082906001600160a01b03165afa938415612627576000946131fc575b50828161310c6132c1565b506001600160a01b03828116908216116131f0575b505060409062ffffff82519161313683611d90565b6001600160a01b0390811680845295166020830181905293169101819052818310156106385760405191602083019384526040830152606082015260608152613180608082611e12565b5190209060405191602083019160ff60f81b835260018060601b03199060601b16602184015260358301527fe34f199b19b2b4f47f68442619d555527d244f78a3297ea89325f843f87b8b546055830152605582526131e0607583611e12565b905190206001600160a01b031690565b93509050604038613121565b61321691945060203d602011610aec57610ade8183611e12565b9238613101565b916130ce565b916130b1565b6000526000805160206145c583398151915260205260016040600020015490565b519061ffff8216820361063857565b908160e09103126106385761326d81611f39565b9161327a60208301611ebf565b916132876040820161324a565b916132946060830161324a565b916132a16080820161324a565b9160a082015160ff811681036106385760c06132be919301611f5e565b90565b604051906132ce82611d90565b60006040838281528260208201520152565b60020b60010190627fffff8213627fffff19831217611ee957565b9060020b9060020b0190627fffff198212627fffff831317611ee957565b91908203918211611ee957565b9060ff8091169116039060ff8211611ee957565b9060020b9060020b02908160020b918203611ee957565b811561335b570490565b634e487b7160e01b600052601260045260246000fd5b60020b60008112156136da5780600003905b620d89e882116136c95760018216156136bf576ffffcb933bd6fad37aa2d162d1a5940015b6001600160881b031691600281166136a3575b60048116613687575b6008811661366b575b6010811661364f575b60208116613633575b60408116613617575b608081166135fb575b61010081166135df575b61020081166135c3575b61040081166135a7575b610800811661358b575b611000811661356f575b6120008116613553575b6140008116613537575b618000811661351b575b6201000081166134ff575b6202000081166134e4575b6204000081166134c9575b62080000166134b0575b6000126134a1575b63ffffffff8116613499576000905b60201c60ff91909116016001600160a01b031690565b600190613483565b801561335b5760001904613474565b6b048a170391f7dc42444e8fa290910260801c9061346c565b6d2216e584f5fa1ea926041bedfe9890920260801c91613462565b916e5d6af8dedb81196699c329225ee6040260801c91613457565b916f09aa508b5b7a84e1c677de54f3e99bc90260801c9161344c565b916f31be135f97d08fd981231505542fcfa60260801c91613441565b916f70d869a156d2a1b890bb3df62baf32f70260801c91613437565b916fa9f746462d870fdf8a65dc1f90e061e50260801c9161342d565b916fd097f3bdfd2022b8845ad8f792aa58250260801c91613423565b916fe7159475a2c29b7443b29c7fa6e889d90260801c91613419565b916ff3392b0822b70005940c7a398e4b70f30260801c9161340f565b916ff987a7253ac413176f2b074cf7815e540260801c91613405565b916ffcbe86c7900a88aedcffc83b479aa3a40260801c916133fb565b916ffe5dee046a99a2a811c461f1969c30530260801c916133f1565b916fff2ea16466c96a3843ec78b326b528610260801c916133e8565b916fff973b41fa98c081472e6896dfb254c00260801c916133df565b916fffcb9843d60f6159c9db58835c9266440260801c916133d6565b916fffe5caca7e10e4e61c3624eaa0941cd00260801c916133cd565b916ffff2e50f5f656932ef12357cf3c7fdcc0260801c916133c4565b916ffff97272373d413259a46990580e213a0260801c916133bb565b600160801b6133a8565b6315e4079d60e11b60005260046000fd5b80613383565b6001600160ff1b0381116136f15790565b63123baf0360e11b60005260045260246000fd5b6001600160a01b038116906401000276a38210158061397e575b1561396d57693627a301d71055774c8590600160201b600160c01b039060201b168060018060801b03811160071b90811c60018060401b03811160061b90811c63ffffffff811160051b90811c61ffff811160041b90811c9060ff821160031b91821c92600f841160021b93841c94600160038711811b96871c11961717171717171790608082101560001461396357607e1982011c5b800280607f1c8160ff1c1c800280607f1c8160ff1c1c800280607f1c8160ff1c1c800280607f1c8160ff1c1c800280607f1c8160ff1c1c800280607f1c8160ff1c1c80029081607f1c8260ff1c1c80029283607f1c8460ff1c1c80029485607f1c8660ff1c1c80029687607f1c8860ff1c1c80029889607f1c8a60ff1c1c80029a8b607f1c8c60ff1c1c80029c8d80607f1c9060ff1c1c600160321b90800260cd1c169d600160331b9060cc1c169c600160341b9060cb1c169b600160351b9060ca1c169a600160361b9060c91c1699600160371b9060c81c1698600160381b9060c71c1697600160391b9060c61c16966001603a1b9060c51c16956001603b1b9060c41c16946001603c1b9060c31c16936001603d1b9060c21c16926001603e1b9060c11c16916001603f1b9060c01c1690607f190160401b1717171717171717171717171717026fdb2df09e81959a81455e260799a0632f6f028f6481ab7f045a5af012a19d003aa919820160801d60020b910160801d60020b918282146000146139435750905090565b6001600160a01b0361395484613371565b161161395e575090565b905090565b81607f031b6137b6565b6324c070df60e11b60005260046000fd5b5073fffd8963efd1fc6a506488495d951d5263988d26821061371f565b336000908152600080516020614565833981519152602052604090205460ff16156139c257565b63e2517d3f60e01b6000523360045260008051602061462583398151915260245260446000fd5b60008181526000805160206145c58339815191526020908152604080832033845290915290205460ff1615613a1b5750565b63e2517d3f60e01b6000523360045260245260446000fd5b6001600160a01b0381166000908152600080516020614585833981519152602052604090205460ff16613aa9576001600160a01b0316600081815260008051602061458583398151915260205260408120805460ff191660011790553391906000805160206145458339815191528180a4600190565b50600090565b6001600160a01b0381166000908152600080516020614565833981519152602052604090205460ff16613aa9576001600160a01b0316600081815260008051602061456583398151915260205260408120805460ff19166001179055339190600080516020614625833981519152906000805160206145458339815191529080a4600190565b60008181526000805160206145c5833981519152602090815260408083206001600160a01b038616845290915290205460ff16613bc55760008181526000805160206145c5833981519152602090815260408083206001600160a01b0395909516808452949091528120805460ff19166001179055339291906000805160206145458339815191529080a4600190565b5050600090565b60008181526000805160206145c5833981519152602090815260408083206001600160a01b038616845290915290205460ff1615613bc55760008181526000805160206145c5833981519152602090815260408083206001600160a01b0395909516808452949091528120805460ff19169055339291907ff6391f5c32d9c69d2a47ea670b442974b53935d1edc7fd64eb21e047a839171b9080a4600190565b91909168056bc75e2d631000008211613d215715613cf65768056bc75e2d63100000039068056bc75e2d631000008211611ee957613cb4613caf613cc393614098565b614184565b906001600160a01b0316614135565b6001600160a01b038111613cdd576001600160a01b031690565b6306dfcc6560e41b60005260a060045260245260446000fd5b68056bc75e2d6310000001908168056bc75e2d6310000011611ee957613cb4613caf613cc393614098565b63107ccea760e21b60005260046000fd5b906001600160a01b0380821690831611613d8a575b6001600160a01b038216918215610638576132be93613d85926001600160a01b0380821693909103169060601b600160601b600160e01b0316613fe3565b613351565b90613d47565b6001600160a01b0382811690821611613dea575b6001600160a01b03811692831561063857613dde926001600160a01b0380821693909103169060601b600160601b600160e01b031661406b565b90808206151591040190565b90613da4565b6132be9291906001600160a01b0380831690821611613e24575b90036001600160a01b0316906001600160801b0316613f03565b90613e0a565b906001600160a01b0380821690831611613e86575b036001600160a01b0316906000906001600160801b0316613e65600160601b8483613fe3565b92600160601b9109613e75575090565b60001982101561016c575060010190565b90613e3f565b9091906000906000198482099084810292838084109303928084039314613ef55782620f4240111561016c57507fde8f6cefed634549b62c77574f722e1ac57e23f24d8fd5cb790fb65668c261399394620f4240910990828211900360fa1b910360061c170290565b505050620f42409192500490565b600091906000198282099180820293848085109403938085039414613f4857600160601b84101561016c5750600160601b910990828211900360a01b910360601c1790565b5050505060601c90565b600019600160601b8209918160601b91828085109403938085039414613fd65783821115610638578190600160601b9009818060000316809204600281600302188082026002030280820260020302808202600203028082026002030280820260020302809102600203029360018380600003040190848311900302920304170290565b5080925015610638570490565b91600019828409928281029283808610950394808603951461405d578483111561063857829109818060000316809204600281600302188082026002030280820260020302808202600203028082026002030280820260020302809102600203029360018380600003040190848311900302920304170290565b505080925015610638570490565b929190614079828286613fe3565b93821561335b570961408757565b906000198110156106385760010190565b9060c082901b6000600019600160c01b850990828083109203918083039214614123578168056bc75e2d631000001115614114575068056bc75e2d631000007f2fdf29ec6a12d6f7bf48d6861d4b553283e011b18b576460d489e3a9addec2d19394600160c01b900990828211900360ec1b910360141c170290565b63227bc15360e01b8152600490fd5b505068056bc75e2d6310000090049150565b600090828102926000198183099284808510940393808503941461417957600160601b8410156141145750600160601b910990828211900360a01b910360601c1790565b925050505060601c90565b8015613aa9576142536001826000908460801c806142b4575b508060401c806142a7575b508060201c8061429a575b508060101c8061428d575b508060081c80614280575b508060041c80614273575b508060021c80614266575b50821c61425f575b811c1b6141f48184613351565b0160011c6142028184613351565b0160011c6142108184613351565b0160011c61421e8184613351565b0160011c61422c8184613351565b0160011c61423a8184613351565b0160011c6142488184613351565b0160011c8092613351565b8082101561395e575090565b81016141e7565b60029150910190386141df565b60049150910190386141d4565b60089150910190386141c9565b60109150910190386141be565b60209150910190386141b3565b60409150910190386141a8565b9150506080903861419d565b6001600160a01b039091168152602081019190915260400190565b3d15614306573d906142ec82611e73565b916142fa6040519384611e12565b82523d6000602084013e565b606090565b814710614347576000918291829182916001600160a01b03165af161432e6142db565b501561433657565b630a12f52160e11b60005260046000fd5b63cd78605960e01b6000523060045260246000fd5b60ff6000805160206146058339815191525460401c161561437957565b631afcd79f60e31b60005260046000fd5b9082156143f4576001600160a01b039091168281029260609290921b600160601b600160e01b03169181906143bf9085613351565b14806143eb575b15610638576143d79282039161406b565b6001600160a01b0381169081036106385790565b508282116143c6565b50905090565b919081156144795760601b600160601b600160e01b0316916001600160a01b0316908082028261442a8383613351565b14614457575b5061443e6144439284613351565b611eff565b80820491061515016001600160a01b031690565b8301838110614430576001600160a01b03936144759391925061406b565b1690565b505090565b6000806144a79260018060a01b03169360208151910182865af16144a06142db565b90836144f4565b80519081151591826144d1575b50506144bd5750565b635274afe760e01b60005260045260246000fd5b81925090602091810103126106385760206144ec9101611f5e565b1538806144b4565b90614509575080511561433657805190602001fd5b8151158061453b575b61451a575090565b639996b31560e01b60009081526001600160a01b0391909116600452602490fd5b50803b1561451256fe2f8788117e7eff1d82e926ec794901d17c78024a50270940304540a733656f0daddc3d4c084f57c5cf32364b1ec8bfe37ef7025c438343cdee471594955c845cb7db2dd08fcb62d0c9e08c51941cae53c267786a0b75803fb7960902fc8ef97d360894a13ba1a3210667c828492db98dca3e2076cc3735a920a3ca505d382bbc02dd7bc7dec4dceedda775e58dd541e08a116c6c53815c0bd028192f7b6268006ac6c02c73a1841cb185dff1fe5282ff4499ce709efd387f7fc6de10a5124320f0c57e16840df040f15088dc2f81fe391c3923bec73e23a9662efc9c229c6a00339759585899103d2ace64958e37e18ccb0504652c81d4a1b8aa80fe2126ab95a26469706673582212204ecfa616316bf842f5267d7c468c32b14c75226cba3ab08a16e2bf5bba9f1e8d64736f6c634300081a0033",
  "devdoc": {
    "errors": {
      "AccessControlBadConfirmation()": [
        {
          "details": "The caller of a function is not the expected one. NOTE: Don't confuse with {AccessControlUnauthorizedAccount}."
        }
      ],
      "AccessControlUnauthorizedAccount(address,bytes32)": [
        {
          "details": "The `account` is missing a role."
        }
      ],
      "AddressEmptyCode(address)": [
        {
          "details": "There's no code at `target` (it is not a contract)."
        }
      ],
      "AddressInsufficientBalance(address)": [
        {
          "details": "The ETH balance of the account is not enough to perform the operation."
        }
      ],
      "ERC1967InvalidImplementation(address)": [
        {
          "details": "The `implementation` of the proxy is invalid."
        }
      ],
      "ERC1967NonPayable()": [
        {
          "details": "An upgrade function sees `msg.value > 0` that may be lost."
        }
      ],
      "FailedInnerCall()": [
        {
          "details": "A call to an address target failed. The target may have reverted."
        }
      ],
      "InvalidInitialization()": [
        {
          "details": "The contract is already initialized."
        }
      ],
      "MathOverflowedMulDiv()": [
        {
          "details": "Muldiv operation overflow."
        }
      ],
      "NotInitializing()": [
        {
          "details": "The contract is not initializing."
        }
      ],
      "SafeCastOverflowedUintDowncast(uint8,uint256)": [
        {
          "details": "Value doesn't fit in an uint of `bits` size."
        }
      ],
      "SafeCastOverflowedUintToInt(uint256)": [
        {
          "details": "An uint value doesn't fit in an int of `bits` size."
        }
      ],
      "SafeERC20FailedOperation(address)": [
        {
          "details": "An operation with an ERC20 token failed."
        }
      ],
      "UUPSUnauthorizedCallContext()": [
        {
          "details": "The call is from an unauthorized context."
        }
      ],
      "UUPSUnsupportedProxiableUUID(bytes32)": [
        {
          "details": "The storage `slot` is unsupported as a UUID."
        }
      ]
    },
    "events": {
      "Initialized(uint64)": {
        "details": "Triggered when the contract has been initialized or reinitialized."
      },
      "RoleAdminChanged(bytes32,bytes32,bytes32)": {
        "details": "Emitted when `newAdminRole` is set as ``role``'s admin role, replacing `previousAdminRole` `DEFAULT_ADMIN_ROLE` is the starting admin for all roles, despite {RoleAdminChanged} not being emitted signaling this."
      },
      "RoleGranted(bytes32,address,address)": {
        "details": "Emitted when `account` is granted `role`. `sender` is the account that originated the contract call, an admin role bearer except when using {AccessControl-_setupRole}."
      },
      "RoleRevoked(bytes32,address,address)": {
        "details": "Emitted when `account` is revoked `role`. `sender` is the account that originated the contract call:   - if using `revokeRole`, it is the admin role bearer   - if using `renounceRole`, it is the role bearer (i.e. `account`)"
      },
      "Upgraded(address)": {
        "details": "Emitted when the implementation is upgraded."
      }
    },
    "kind": "dev",
    "methods": {
      "constructor": {
        "custom:oz-upgrades-unsafe-allow": "constructor"
      },
      "exactInputSingle((address,address,uint24,address,uint256,uint256))": {
        "params": {
          "params": "The parameters for the swap."
        },
        "returns": {
          "amountOut": "The amount of tokenOut received from the swap."
        }
      },
      "getRoleAdmin(bytes32)": {
        "details": "Returns the admin role that controls `role`. See {grantRole} and {revokeRole}. To change a role's admin, use {_setRoleAdmin}."
      },
      "grantRole(bytes32,address)": {
        "details": "Grants `role` to `account`. If `account` had not been already granted `role`, emits a {RoleGranted} event. Requirements: - the caller must have ``role``'s admin role. May emit a {RoleGranted} event."
      },
      "hasRole(bytes32,address)": {
        "details": "Returns `true` if `account` has been granted `role`."
      },
      "proxiableUUID()": {
        "details": "Implementation of the ERC1822 {proxiableUUID} function. This returns the storage slot used by the implementation. It is used to validate the implementation's compatibility when performing an upgrade. IMPORTANT: A proxy pointing at a proxiable contract should not be considered proxiable itself, because this risks bricking a proxy that upgrades to it, by delegating to itself until out of gas. Thus it is critical that this function revert if invoked through a proxy. This is guaranteed by the `notDelegated` modifier."
      },
      "quoteExactInputSingle((address,address,uint24,uint256))": {
        "params": {
          "params": "The parameters for the quote."
        },
        "returns": {
          "amountOut": "The amount of tokenOut received from the swap."
        }
      },
      "quoteSlippageExactInputSingle((address,address,uint24,uint256,uint160,uint128,uint256))": {
        "params": {
          "params": "The parameters for the quote."
        },
        "returns": {
          "quote": "The quote object containing the amounts and price after the swap."
        }
      },
      "renounceRole(bytes32,address)": {
        "details": "Revokes `role` from the calling account. Roles are often managed via {grantRole} and {revokeRole}: this function's purpose is to provide a mechanism for accounts to lose their privileges if they are compromised (such as when a trusted device is misplaced). If the calling account had been revoked `role`, emits a {RoleRevoked} event. Requirements: - the caller must be `callerConfirmation`. May emit a {RoleRevoked} event."
      },
      "revokeRole(bytes32,address)": {
        "details": "Revokes `role` from `account`. If `account` had been granted `role`, emits a {RoleRevoked} event. Requirements: - the caller must have ``role``'s admin role. May emit a {RoleRevoked} event."
      },
      "slippageExactInputSingle((address,address,uint24,address,uint256,uint256))": {
        "params": {
          "params": "The parameters for the swap."
        },
        "returns": {
          "amountInUsed": "The amount of tokenIn used for the swap.",
          "amountOut": "The amount of tokenOut received from the swap."
        }
      },
      "supportsInterface(bytes4)": {
        "details": "See {IERC165-supportsInterface}."
      },
      "upgradeToAndCall(address,bytes)": {
        "custom:oz-upgrades-unsafe-allow-reachable": "delegatecall",
        "details": "Upgrade the implementation of the proxy to `newImplementation`, and subsequently execute the function call encoded in `data`. Calls {_authorizeUpgrade}. Emits an {Upgraded} event."
      }
    },
    "version": 1
  },
  "userdoc": {
    "kind": "user",
    "methods": {
      "WVANA()": {
        "notice": "The address of the WVANA contract"
      },
      "exactInputSingle((address,address,uint24,address,uint256,uint256))": {
        "notice": "Swaps `amountIn` of `tokenIn` for as much as possible of `tokenOut`. Similar to Uniswap V3's `exactInputSingle`."
      },
      "initialize(address,address,address)": {
        "notice": "Initializes the contract"
      },
      "quoteExactInputSingle((address,address,uint24,uint256))": {
        "notice": "Returns the `amountOut` received for a given exact `amountIn` for a swap of a single pool."
      },
      "quoteSlippageExactInputSingle((address,address,uint24,uint256,uint160,uint128,uint256))": {
        "notice": "Returns the as much as possible `amountInUsed` and `amountOut` while maintaining a maximum price slippage."
      },
      "slippageExactInputSingle((address,address,uint24,address,uint256,uint256))": {
        "notice": "Swaps as much as possible of `amountIn` while maintaining a maximum price slippage."
      },
      "uniswapV3Quoter()": {
        "notice": "The address of the Uniswap V3 quoter"
      },
      "uniswapV3Router()": {
        "notice": "The address of the Uniswap V3 router"
      }
    },
    "version": 1
  },
  "storageLayout": {
    "storage": [
      {
        "astId": 10824,
        "contract": "contracts/swapHelper/SwapHelperImplementation.sol:SwapHelperImplementation",
        "label": "WVANA",
        "offset": 0,
        "slot": "0",
        "type": "t_contract(IWVANA)10813"
      },
      {
        "astId": 10828,
        "contract": "contracts/swapHelper/SwapHelperImplementation.sol:SwapHelperImplementation",
        "label": "uniswapV3Router",
        "offset": 0,
        "slot": "1",
        "type": "t_address"
      },
      {
        "astId": 10833,
        "contract": "contracts/swapHelper/SwapHelperImplementation.sol:SwapHelperImplementation",
        "label": "uniswapV3Quoter",
        "offset": 0,
        "slot": "2",
        "type": "t_contract(IQuoterV2)6661"
      }
    ],
    "types": {
      "t_address": {
        "encoding": "inplace",
        "label": "address",
        "numberOfBytes": "20"
      },
      "t_contract(IQuoterV2)6661": {
        "encoding": "inplace",
        "label": "contract IQuoterV2",
        "numberOfBytes": "20"
      },
      "t_contract(IWVANA)10813": {
        "encoding": "inplace",
        "label": "contract IWVANA",
        "numberOfBytes": "20"
      }
    }
  }
}