{
  "address": "0xbf341660A0960A16892c365f386f246840648370",
  "abi": [
    {
      "inputs": [],
      "stateMutability": "nonpayable",
      "type": "constructor"
    },
    {
      "inputs": [],
      "name": "AccessControlBadConfirmation",
      "type": "error"
    },
    {
      "inputs": [
        {
          "internalType": "address",
          "name": "account",
          "type": "address"
        },
        {
          "internalType": "bytes32",
          "name": "neededRole",
          "type": "bytes32"
        }
      ],
      "name": "AccessControlUnauthorizedAccount",
      "type": "error"
    },
    {
      "inputs": [
        {
          "internalType": "address",
          "name": "target",
          "type": "address"
        }
      ],
      "name": "AddressEmptyCode",
      "type": "error"
    },
    {
      "inputs": [
        {
          "internalType": "address",
          "name": "account",
          "type": "address"
        }
      ],
      "name": "AddressInsufficientBalance",
      "type": "error"
    },
    {
      "inputs": [
        {
          "internalType": "address",
          "name": "implementation",
          "type": "address"
        }
      ],
      "name": "ERC1967InvalidImplementation",
      "type": "error"
    },
    {
      "inputs": [],
      "name": "ERC1967NonPayable",
      "type": "error"
    },
    {
      "inputs": [],
      "name": "EnforcedPause",
      "type": "error"
    },
    {
      "inputs": [],
      "name": "ExpectedPause",
      "type": "error"
    },
    {
      "inputs": [],
      "name": "FailedInnerCall",
      "type": "error"
    },
    {
      "inputs": [],
      "name": "InvalidInitialization",
      "type": "error"
    },
    {
      "inputs": [],
      "name": "NotInitializing",
      "type": "error"
    },
    {
      "inputs": [],
      "name": "ReentrancyGuardReentrantCall",
      "type": "error"
    },
    {
      "inputs": [
        {
          "internalType": "address",
          "name": "token",
          "type": "address"
        }
      ],
      "name": "SafeERC20FailedOperation",
      "type": "error"
    },
    {
      "inputs": [],
      "name": "UUPSUnauthorizedCallContext",
      "type": "error"
    },
    {
      "inputs": [
        {
          "internalType": "bytes32",
          "name": "slot",
          "type": "bytes32"
        }
      ],
      "name": "UUPSUnsupportedProxiableUUID",
      "type": "error"
    },
    {
      "inputs": [],
      "name": "ZeroAddress",
      "type": "error"
    },
    {
      "inputs": [],
      "name": "ZeroAmount",
      "type": "error"
    },
    {
      "anonymous": false,
      "inputs": [
        {
          "indexed": false,
          "internalType": "uint64",
          "name": "version",
          "type": "uint64"
        }
      ],
      "name": "Initialized",
      "type": "event"
    },
    {
      "anonymous": false,
      "inputs": [
        {
          "indexed": false,
          "internalType": "address",
          "name": "account",
          "type": "address"
        }
      ],
      "name": "Paused",
      "type": "event"
    },
    {
      "anonymous": false,
      "inputs": [
        {
          "indexed": true,
          "internalType": "bytes32",
          "name": "role",
          "type": "bytes32"
        },
        {
          "indexed": true,
          "internalType": "bytes32",
          "name": "previousAdminRole",
          "type": "bytes32"
        },
        {
          "indexed": true,
          "internalType": "bytes32",
          "name": "newAdminRole",
          "type": "bytes32"
        }
      ],
      "name": "RoleAdminChanged",
      "type": "event"
    },
    {
      "anonymous": false,
      "inputs": [
        {
          "indexed": true,
          "internalType": "bytes32",
          "name": "role",
          "type": "bytes32"
        },
        {
          "indexed": true,
          "internalType": "address",
          "name": "account",
          "type": "address"
        },
        {
          "indexed": true,
          "internalType": "address",
          "name": "sender",
          "type": "address"
        }
      ],
      "name": "RoleGranted",
      "type": "event"
    },
    {
      "anonymous": false,
      "inputs": [
        {
          "indexed": true,
          "internalType": "bytes32",
          "name": "role",
          "type": "bytes32"
        },
        {
          "indexed": true,
          "internalType": "address",
          "name": "account",
          "type": "address"
        },
        {
          "indexed": true,
          "internalType": "address",
          "name": "sender",
          "type": "address"
        }
      ],
      "name": "RoleRevoked",
      "type": "event"
    },
    {
      "anonymous": false,
      "inputs": [
        {
          "indexed": true,
          "internalType": "address",
          "name": "to",
          "type": "address"
        },
        {
          "indexed": true,
          "internalType": "address",
          "name": "token",
          "type": "address"
        },
        {
          "indexed": false,
          "internalType": "uint256",
          "name": "amount",
          "type": "uint256"
        }
      ],
      "name": "Transfer",
      "type": "event"
    },
    {
      "anonymous": false,
      "inputs": [
        {
          "indexed": false,
          "internalType": "address",
          "name": "account",
          "type": "address"
        }
      ],
      "name": "Unpaused",
      "type": "event"
    },
    {
      "anonymous": false,
      "inputs": [
        {
          "indexed": true,
          "internalType": "address",
          "name": "implementation",
          "type": "address"
        }
      ],
      "name": "Upgraded",
      "type": "event"
    },
    {
      "inputs": [],
      "name": "CUSTODIAN_ROLE",
      "outputs": [
        {
          "internalType": "bytes32",
          "name": "",
          "type": "bytes32"
        }
      ],
      "stateMutability": "view",
      "type": "function"
    },
    {
      "inputs": [],
      "name": "DEFAULT_ADMIN_ROLE",
      "outputs": [
        {
          "internalType": "bytes32",
          "name": "",
          "type": "bytes32"
        }
      ],
      "stateMutability": "view",
      "type": "function"
    },
    {
      "inputs": [],
      "name": "UPGRADE_INTERFACE_VERSION",
      "outputs": [
        {
          "internalType": "string",
          "name": "",
          "type": "string"
        }
      ],
      "stateMutability": "view",
      "type": "function"
    },
    {
      "inputs": [],
      "name": "VANA",
      "outputs": [
        {
          "internalType": "address",
          "name": "",
          "type": "address"
        }
      ],
      "stateMutability": "view",
      "type": "function"
    },
    {
      "inputs": [],
      "name": "custodian",
      "outputs": [
        {
          "internalType": "address",
          "name": "",
          "type": "address"
        }
      ],
      "stateMutability": "view",
      "type": "function"
    },
    {
      "inputs": [
        {
          "internalType": "bytes32",
          "name": "role",
          "type": "bytes32"
        }
      ],
      "name": "getRoleAdmin",
      "outputs": [
        {
          "internalType": "bytes32",
          "name": "",
          "type": "bytes32"
        }
      ],
      "stateMutability": "view",
      "type": "function"
    },
    {
      "inputs": [
        {
          "internalType": "bytes32",
          "name": "role",
          "type": "bytes32"
        },
        {
          "internalType": "address",
          "name": "account",
          "type": "address"
        }
      ],
      "name": "grantRole",
      "outputs": [],
      "stateMutability": "nonpayable",
      "type": "function"
    },
    {
      "inputs": [
        {
          "internalType": "bytes32",
          "name": "role",
          "type": "bytes32"
        },
        {
          "internalType": "address",
          "name": "account",
          "type": "address"
        }
      ],
      "name": "hasRole",
      "outputs": [
        {
          "internalType": "bool",
          "name": "",
          "type": "bool"
        }
      ],
      "stateMutability": "view",
      "type": "function"
    },
    {
      "inputs": [
        {
          "internalType": "address",
          "name": "ownerAddress",
          "type": "address"
        },
        {
          "internalType": "address",
          "name": "initCustodian",
          "type": "address"
        }
      ],
      "name": "initialize",
      "outputs": [],
      "stateMutability": "nonpayable",
      "type": "function"
    },
    {
      "inputs": [],
      "name": "pause",
      "outputs": [],
      "stateMutability": "nonpayable",
      "type": "function"
    },
    {
      "inputs": [],
      "name": "paused",
      "outputs": [
        {
          "internalType": "bool",
          "name": "",
          "type": "bool"
        }
      ],
      "stateMutability": "view",
      "type": "function"
    },
    {
      "inputs": [],
      "name": "proxiableUUID",
      "outputs": [
        {
          "internalType": "bytes32",
          "name": "",
          "type": "bytes32"
        }
      ],
      "stateMutability": "view",
      "type": "function"
    },
    {
      "inputs": [
        {
          "internalType": "bytes32",
          "name": "role",
          "type": "bytes32"
        },
        {
          "internalType": "address",
          "name": "callerConfirmation",
          "type": "address"
        }
      ],
      "name": "renounceRole",
      "outputs": [],
      "stateMutability": "nonpayable",
      "type": "function"
    },
    {
      "inputs": [
        {
          "internalType": "bytes32",
          "name": "role",
          "type": "bytes32"
        },
        {
          "internalType": "address",
          "name": "account",
          "type": "address"
        }
      ],
      "name": "revokeRole",
      "outputs": [],
      "stateMutability": "nonpayable",
      "type": "function"
    },
    {
      "inputs": [
        {
          "internalType": "bytes4",
          "name": "interfaceId",
          "type": "bytes4"
        }
      ],
      "name": "supportsInterface",
      "outputs": [
        {
          "internalType": "bool",
          "name": "",
          "type": "bool"
        }
      ],
      "stateMutability": "view",
      "type": "function"
    },
    {
      "inputs": [
        {
          "internalType": "address",
          "name": "to",
          "type": "address"
        },
        {
          "internalType": "address",
          "name": "token",
          "type": "address"
        },
        {
          "internalType": "uint256",
          "name": "amount",
          "type": "uint256"
        }
      ],
      "name": "transfer",
      "outputs": [],
      "stateMutability": "nonpayable",
      "type": "function"
    },
    {
      "inputs": [],
      "name": "unpause",
      "outputs": [],
      "stateMutability": "nonpayable",
      "type": "function"
    },
    {
      "inputs": [
        {
          "internalType": "address",
          "name": "newCustodian",
          "type": "address"
        }
      ],
      "name": "updateCustodian",
      "outputs": [],
      "stateMutability": "nonpayable",
      "type": "function"
    },
    {
      "inputs": [
        {
          "internalType": "address",
          "name": "newImplementation",
          "type": "address"
        },
        {
          "internalType": "bytes",
          "name": "data",
          "type": "bytes"
        }
      ],
      "name": "upgradeToAndCall",
      "outputs": [],
      "stateMutability": "payable",
      "type": "function"
    },
    {
      "stateMutability": "payable",
      "type": "receive"
    }
  ],
  "transactionHash": "0xe6fcb9e7e0d929a03aaa5a2ba742b383f4709f6d64276a508049b6106db7538d",
  "args": [],
  "numDeployments": 1,
  "solcInputHash": "5a48a35de5c6778bf907d9f78e6840d3",
  "bytecode": "0x60a06040523060805234801561001457600080fd5b5061001d610022565b6100d4565b7ff0c57e16840df040f15088dc2f81fe391c3923bec73e23a9662efc9c229c6a00805468010000000000000000900460ff16156100725760405163f92ee8a960e01b815260040160405180910390fd5b80546001600160401b03908116146100d15780546001600160401b0319166001600160401b0390811782556040519081527fc7f505b2f371ae2175ee4913f4499e1f2633a7b5936321eed1cdaeb6115181d29060200160405180910390a15b50565b60805161145d6100fd60003960008181610a0a01528181610a330152610b77015261145d6000f3fe6080604052600436106100e85760003560e01c806301ffc9a7146100f4578063248a9ca3146101295780632f2ff15d1461015757806336568abe14610179578063375b74c3146101995780633f4ba83a146101c657806344fd3939146101db578063485cc955146101f05780634f1ef28614610210578063510c82b31461022357806352d1902d146102435780635c975abb146102585780638456cb591461026d57806391d1485414610282578063a217fddf146102a2578063ad3cb1cc146102b7578063beabacc8146102f5578063c79445d014610315578063d547741f1461033757600080fd5b366100ef57005b600080fd5b34801561010057600080fd5b5061011461010f366004611123565b610357565b60405190151581526020015b60405180910390f35b34801561013557600080fd5b5061014961014436600461114d565b61038e565b604051908152602001610120565b34801561016357600080fd5b50610177610172366004611182565b6103ae565b005b34801561018557600080fd5b50610177610194366004611182565b6103d0565b3480156101a557600080fd5b506000546101b9906001600160a01b031681565b60405161012091906111ae565b3480156101d257600080fd5b50610177610408565b3480156101e757600080fd5b506101b9600081565b3480156101fc57600080fd5b5061017761020b3660046111c2565b61041e565b61017761021e366004611202565b610599565b34801561022f57600080fd5b5061017761023e3660046112c9565b6105b8565b34801561024f57600080fd5b5061014961061c565b34801561026457600080fd5b50610114610639565b34801561027957600080fd5b5061017761064e565b34801561028e57600080fd5b5061011461029d366004611182565b610661565b3480156102ae57600080fd5b50610149600081565b3480156102c357600080fd5b506102e8604051806040016040528060058152602001640352e302e360dc1b81525081565b6040516101209190611308565b34801561030157600080fd5b5061017761031036600461133b565b610697565b34801561032157600080fd5b506101496000805160206113e883398151915281565b34801561034357600080fd5b50610177610352366004611182565b610797565b60006001600160e01b03198216637965db0b60e01b148061038857506301ffc9a760e01b6001600160e01b03198316145b92915050565b6000806103996107b3565b60009384526020525050604090206001015490565b6103b78261038e565b6103c0816107d7565b6103ca83836107e1565b50505050565b6001600160a01b03811633146103f95760405163334bd91960e11b815260040160405180910390fd5b6104038282610882565b505050565b6000610413816107d7565b61041b6108fa565b50565b6000610428610951565b805490915060ff600160401b82041615906001600160401b031660008115801561044f5750825b90506000826001600160401b0316600114801561046b5750303b155b905081158015610479575080155b156104975760405163f92ee8a960e01b815260040160405180910390fd5b84546001600160401b031916600117855583156104c057845460ff60401b1916600160401b1785555b6104c8610975565b6104d0610987565b6104d861098f565b600080546001600160a01b0319166001600160a01b03881617815561050c906000805160206113e88339815191529061099f565b6105176000886107e1565b506105306000805160206113e8833981519152886107e1565b506105496000805160206113e8833981519152876107e1565b50831561059057845460ff60401b19168555604051600181527fc7f505b2f371ae2175ee4913f4499e1f2633a7b5936321eed1cdaeb6115181d29060200160405180910390a15b50505050505050565b6105a16109ff565b6105aa82610aa4565b6105b48282610aaf565b5050565b60006105c3816107d7565b6000546105e8906000805160206113e8833981519152906001600160a01b0316610882565b50600080546001600160a01b0319166001600160a01b0384161790556104036000805160206113e8833981519152836107e1565b6000610626610b6c565b5060008051602061140883398151915290565b600080610644610bb5565b5460ff1692915050565b6000610659816107d7565b61041b610bd9565b60008061066c6107b3565b6000948552602090815260408086206001600160a01b03959095168652939052505090205460ff1690565b61069f610c20565b6106a7610c56565b6000805160206113e88339815191526106bf816107d7565b816000036106e057604051631f2a200560e01b815260040160405180910390fd5b6001600160a01b0384166107075760405163d92e233d60e01b815260040160405180910390fd5b6001600160a01b03831661072d576107286001600160a01b03851683610c7c565b610741565b6107416001600160a01b0384168584610d13565b826001600160a01b0316846001600160a01b03167fddf252ad1be2c89b69c2b068fc378daa952ba7f163c4a11628f55a4df523b3ef8460405161078691815260200190565b60405180910390a350610403610d6b565b6107a08261038e565b6107a9816107d7565b6103ca8383610882565b7f02dd7bc7dec4dceedda775e58dd541e08a116c6c53815c0bd028192f7b62680090565b61041b8133610d7c565b6000806107ec6107b3565b90506107f88484610661565b610878576000848152602082815260408083206001600160a01b03871684529091529020805460ff1916600117905561082e3390565b6001600160a01b0316836001600160a01b0316857f2f8788117e7eff1d82e926ec794901d17c78024a50270940304540a733656f0d60405160405180910390a46001915050610388565b6000915050610388565b60008061088d6107b3565b90506108998484610661565b15610878576000848152602082815260408083206001600160a01b0387168085529252808320805460ff1916905551339287917ff6391f5c32d9c69d2a47ea670b442974b53935d1edc7fd64eb21e047a839171b9190a46001915050610388565b610902610da7565b600061090c610bb5565b805460ff1916815590507f5db9ee0a495bf2e6ff9c91a7834c1ba4fdd244a5e8aa4e537bd38aeae4b073aa335b60405161094691906111ae565b60405180910390a150565b7ff0c57e16840df040f15088dc2f81fe391c3923bec73e23a9662efc9c229c6a0090565b61097d610dcc565b610985610df1565b565b610985610dcc565b610997610dcc565b610985610e0e565b60006109a96107b3565b905060006109b68461038e565b600085815260208490526040808220600101869055519192508491839187917fbd79b86ffe0ab8e8776151514217cd7cacd52c909f66475c3af44e129f0b00ff9190a450505050565b306001600160a01b037f0000000000000000000000000000000000000000000000000000000000000000161480610a8657507f00000000000000000000000000000000000000000000000000000000000000006001600160a01b0316610a7a600080516020611408833981519152546001600160a01b031690565b6001600160a01b031614155b156109855760405163703e46dd60e11b815260040160405180910390fd5b60006105b4816107d7565b816001600160a01b03166352d1902d6040518163ffffffff1660e01b8152600401602060405180830381865afa925050508015610b09575060408051601f3d908101601f19168201909252610b0691810190611377565b60015b610b315781604051634c9c8ce360e01b8152600401610b2891906111ae565b60405180910390fd5b6000805160206114088339815191528114610b6257604051632a87526960e21b815260048101829052602401610b28565b6104038383610e16565b306001600160a01b037f000000000000000000000000000000000000000000000000000000000000000016146109855760405163703e46dd60e11b815260040160405180910390fd5b7fcd5ed15c6e187e77e9aee88184c21f4f2182ab5827cb3b7e07fbedcd63f0330090565b610be1610c56565b6000610beb610bb5565b805460ff1916600117815590507f62e78cea01bee320cd4e420270b5ea74000d11b0c9f74754ebdbfc544b05a2586109393390565b6000610c2a610e6c565b805490915060011901610c5057604051633ee5aeb560e01b815260040160405180910390fd5b60029055565b610c5e610639565b156109855760405163d93c066560e01b815260040160405180910390fd5b80471015610c9f573060405163cd78605960e01b8152600401610b2891906111ae565b6000826001600160a01b03168260405160006040518083038185875af1925050503d8060008114610cec576040519150601f19603f3d011682016040523d82523d6000602084013e610cf1565b606091505b505090508061040357604051630a12f52160e11b815260040160405180910390fd5b61040383846001600160a01b031663a9059cbb8585604051602401610d39929190611390565b604051602081830303815290604052915060e01b6020820180516001600160e01b038381831617835250505050610e90565b6000610d75610e6c565b6001905550565b610d868282610661565b6105b457808260405163e2517d3f60e01b8152600401610b28929190611390565b610daf610639565b61098557604051638dfc202b60e01b815260040160405180910390fd5b610dd4610eea565b61098557604051631afcd79f60e31b815260040160405180910390fd5b610df9610dcc565b6000610e03610bb5565b805460ff1916905550565b610d6b610dcc565b610e1f82610f04565b6040516001600160a01b038316907fbc7cd75a20ee27fd9adebab32041f755214dbc6bffa90cc0225b39da2e5c2d3b90600090a2805115610e64576104038282610f60565b6105b4610fd6565b7f9b779b17422d0df92223018b32b4d1fa46e071723d6817e2486d003becc55f0090565b6000610ea56001600160a01b03841683610ff5565b90508051600014158015610eca575080806020019051810190610ec891906113a9565b155b156104035782604051635274afe760e01b8152600401610b2891906111ae565b6000610ef4610951565b54600160401b900460ff16919050565b806001600160a01b03163b600003610f315780604051634c9c8ce360e01b8152600401610b2891906111ae565b60008051602061140883398151915280546001600160a01b0319166001600160a01b0392909216919091179055565b6060600080846001600160a01b031684604051610f7d91906113cb565b600060405180830381855af49150503d8060008114610fb8576040519150601f19603f3d011682016040523d82523d6000602084013e610fbd565b606091505b5091509150610fcd85838361100a565b95945050505050565b34156109855760405163b398979f60e01b815260040160405180910390fd5b60606110038383600061105d565b9392505050565b60608261101f5761101a826110fa565b611003565b815115801561103657506001600160a01b0384163b155b156110565783604051639996b31560e01b8152600401610b2891906111ae565b5092915050565b606081471015611082573060405163cd78605960e01b8152600401610b2891906111ae565b600080856001600160a01b0316848660405161109e91906113cb565b60006040518083038185875af1925050503d80600081146110db576040519150601f19603f3d011682016040523d82523d6000602084013e6110e0565b606091505b50915091506110f086838361100a565b9695505050505050565b80511561110a5780518082602001fd5b604051630a12f52160e11b815260040160405180910390fd5b60006020828403121561113557600080fd5b81356001600160e01b03198116811461100357600080fd5b60006020828403121561115f57600080fd5b5035919050565b80356001600160a01b038116811461117d57600080fd5b919050565b6000806040838503121561119557600080fd5b823591506111a560208401611166565b90509250929050565b6001600160a01b0391909116815260200190565b600080604083850312156111d557600080fd5b6111de83611166565b91506111a560208401611166565b634e487b7160e01b600052604160045260246000fd5b6000806040838503121561121557600080fd5b61121e83611166565b915060208301356001600160401b0381111561123957600080fd5b8301601f8101851361124a57600080fd5b80356001600160401b03811115611263576112636111ec565b604051601f8201601f19908116603f011681016001600160401b0381118282101715611291576112916111ec565b6040528181528282016020018710156112a957600080fd5b816020840160208301376000602083830101528093505050509250929050565b6000602082840312156112db57600080fd5b61100382611166565b60005b838110156112ff5781810151838201526020016112e7565b50506000910152565b60208152600082518060208401526113278160408501602087016112e4565b601f01601f19169190910160400192915050565b60008060006060848603121561135057600080fd5b61135984611166565b925061136760208501611166565b9150604084013590509250925092565b60006020828403121561138957600080fd5b5051919050565b6001600160a01b03929092168252602082015260400190565b6000602082840312156113bb57600080fd5b8151801515811461100357600080fd5b600082516113dd8184602087016112e4565b919091019291505056fee28434228950b641dbbc0178de89daa359a87c6ee0d8399aeace52a98fe902b9360894a13ba1a3210667c828492db98dca3e2076cc3735a920a3ca505d382bbca2646970667358221220727a00fe250a01b0f2963dad3e0aa9e842f0692443b980eec2188f54637ce9ab64736f6c634300081c0033",
  "devdoc": {
    "errors": {
      "AccessControlBadConfirmation()": [
        {
          "details": "The caller of a function is not the expected one. NOTE: Don't confuse with {AccessControlUnauthorizedAccount}."
        }
      ],
      "AccessControlUnauthorizedAccount(address,bytes32)": [
        {
          "details": "The `account` is missing a role."
        }
      ],
      "AddressEmptyCode(address)": [
        {
          "details": "There's no code at `target` (it is not a contract)."
        }
      ],
      "AddressInsufficientBalance(address)": [
        {
          "details": "The ETH balance of the account is not enough to perform the operation."
        }
      ],
      "ERC1967InvalidImplementation(address)": [
        {
          "details": "The `implementation` of the proxy is invalid."
        }
      ],
      "ERC1967NonPayable()": [
        {
          "details": "An upgrade function sees `msg.value > 0` that may be lost."
        }
      ],
      "EnforcedPause()": [
        {
          "details": "The operation failed because the contract is paused."
        }
      ],
      "ExpectedPause()": [
        {
          "details": "The operation failed because the contract is not paused."
        }
      ],
      "FailedInnerCall()": [
        {
          "details": "A call to an address target failed. The target may have reverted."
        }
      ],
      "InvalidInitialization()": [
        {
          "details": "The contract is already initialized."
        }
      ],
      "NotInitializing()": [
        {
          "details": "The contract is not initializing."
        }
      ],
      "ReentrancyGuardReentrantCall()": [
        {
          "details": "Unauthorized reentrant call."
        }
      ],
      "SafeERC20FailedOperation(address)": [
        {
          "details": "An operation with an ERC20 token failed."
        }
      ],
      "UUPSUnauthorizedCallContext()": [
        {
          "details": "The call is from an unauthorized context."
        }
      ],
      "UUPSUnsupportedProxiableUUID(bytes32)": [
        {
          "details": "The storage `slot` is unsupported as a UUID."
        }
      ]
    },
    "events": {
      "Initialized(uint64)": {
        "details": "Triggered when the contract has been initialized or reinitialized."
      },
      "Paused(address)": {
        "details": "Emitted when the pause is triggered by `account`."
      },
      "RoleAdminChanged(bytes32,bytes32,bytes32)": {
        "details": "Emitted when `newAdminRole` is set as ``role``'s admin role, replacing `previousAdminRole` `DEFAULT_ADMIN_ROLE` is the starting admin for all roles, despite {RoleAdminChanged} not being emitted signaling this."
      },
      "RoleGranted(bytes32,address,address)": {
        "details": "Emitted when `account` is granted `role`. `sender` is the account that originated the contract call, an admin role bearer except when using {AccessControl-_setupRole}."
      },
      "RoleRevoked(bytes32,address,address)": {
        "details": "Emitted when `account` is revoked `role`. `sender` is the account that originated the contract call:   - if using `revokeRole`, it is the admin role bearer   - if using `renounceRole`, it is the role bearer (i.e. `account`)"
      },
      "Unpaused(address)": {
        "details": "Emitted when the pause is lifted by `account`."
      },
      "Upgraded(address)": {
        "details": "Emitted when the implementation is upgraded."
      }
    },
    "kind": "dev",
    "methods": {
      "constructor": {
        "custom:oz-upgrades-unsafe-allow": "constructor"
      },
      "getRoleAdmin(bytes32)": {
        "details": "Returns the admin role that controls `role`. See {grantRole} and {revokeRole}. To change a role's admin, use {_setRoleAdmin}."
      },
      "grantRole(bytes32,address)": {
        "details": "Grants `role` to `account`. If `account` had not been already granted `role`, emits a {RoleGranted} event. Requirements: - the caller must have ``role``'s admin role. May emit a {RoleGranted} event."
      },
      "hasRole(bytes32,address)": {
        "details": "Returns `true` if `account` has been granted `role`."
      },
      "initialize(address,address)": {
        "params": {
          "ownerAddress": "Address of the owner"
        }
      },
      "paused()": {
        "details": "Returns true if the contract is paused, and false otherwise."
      },
      "proxiableUUID()": {
        "details": "Implementation of the ERC1822 {proxiableUUID} function. This returns the storage slot used by the implementation. It is used to validate the implementation's compatibility when performing an upgrade. IMPORTANT: A proxy pointing at a proxiable contract should not be considered proxiable itself, because this risks bricking a proxy that upgrades to it, by delegating to itself until out of gas. Thus it is critical that this function revert if invoked through a proxy. This is guaranteed by the `notDelegated` modifier."
      },
      "renounceRole(bytes32,address)": {
        "details": "Revokes `role` from the calling account. Roles are often managed via {grantRole} and {revokeRole}: this function's purpose is to provide a mechanism for accounts to lose their privileges if they are compromised (such as when a trusted device is misplaced). If the calling account had been revoked `role`, emits a {RoleRevoked} event. Requirements: - the caller must be `callerConfirmation`. May emit a {RoleRevoked} event."
      },
      "revokeRole(bytes32,address)": {
        "details": "Revokes `role` from `account`. If `account` had been granted `role`, emits a {RoleRevoked} event. Requirements: - the caller must have ``role``'s admin role. May emit a {RoleRevoked} event."
      },
      "supportsInterface(bytes4)": {
        "details": "See {IERC165-supportsInterface}."
      },
      "transfer(address,address,uint256)": {
        "params": {
          "amount": "The amount of tokens to transfer",
          "to": "The address to transfer the token to",
          "token": "The token to transfer"
        }
      },
      "upgradeToAndCall(address,bytes)": {
        "custom:oz-upgrades-unsafe-allow-reachable": "delegatecall",
        "details": "Upgrade the implementation of the proxy to `newImplementation`, and subsequently execute the function call encoded in `data`. Calls {_authorizeUpgrade}. Emits an {Upgraded} event."
      }
    },
    "version": 1
  },
  "userdoc": {
    "kind": "user",
    "methods": {
      "initialize(address,address)": {
        "notice": "Initializes the contract"
      },
      "pause()": {
        "notice": "Pauses the contract"
      },
      "transfer(address,address,uint256)": {
        "notice": "Transfers a token to the given address"
      },
      "unpause()": {
        "notice": "Unpauses the contract"
      }
    },
    "version": 1
  },
  "storageLayout": {
    "storage": [
      {
        "astId": 18865,
        "contract": "contracts/treasury/TreasuryImplementation.sol:TreasuryImplementation",
        "label": "custodian",
        "offset": 0,
        "slot": "0",
        "type": "t_address"
      }
    ],
    "types": {
      "t_address": {
        "encoding": "inplace",
        "label": "address",
        "numberOfBytes": "20"
      }
    }
  }
}