{
  "address": "0x0D8A17dD54a62860690F3D7c51FDa064D613F99e",
  "abi": [
    {
      "inputs": [],
      "stateMutability": "nonpayable",
      "type": "constructor"
    },
    {
      "inputs": [],
      "name": "AccessControlBadConfirmation",
      "type": "error"
    },
    {
      "inputs": [
        {
          "internalType": "address",
          "name": "account",
          "type": "address"
        },
        {
          "internalType": "bytes32",
          "name": "neededRole",
          "type": "bytes32"
        }
      ],
      "name": "AccessControlUnauthorizedAccount",
      "type": "error"
    },
    {
      "inputs": [
        {
          "internalType": "address",
          "name": "target",
          "type": "address"
        }
      ],
      "name": "AddressEmptyCode",
      "type": "error"
    },
    {
      "inputs": [
        {
          "internalType": "address",
          "name": "implementation",
          "type": "address"
        }
      ],
      "name": "ERC1967InvalidImplementation",
      "type": "error"
    },
    {
      "inputs": [],
      "name": "ERC1967NonPayable",
      "type": "error"
    },
    {
      "inputs": [],
      "name": "EnforcedPause",
      "type": "error"
    },
    {
      "inputs": [],
      "name": "EntityNameAlreadyExists",
      "type": "error"
    },
    {
      "inputs": [],
      "name": "ExpectedPause",
      "type": "error"
    },
    {
      "inputs": [],
      "name": "FailedInnerCall",
      "type": "error"
    },
    {
      "inputs": [],
      "name": "InvalidAddress",
      "type": "error"
    },
    {
      "inputs": [],
      "name": "InvalidEntityId",
      "type": "error"
    },
    {
      "inputs": [],
      "name": "InvalidEntityStatus",
      "type": "error"
    },
    {
      "inputs": [],
      "name": "InvalidInitialization",
      "type": "error"
    },
    {
      "inputs": [],
      "name": "InvalidName",
      "type": "error"
    },
    {
      "inputs": [],
      "name": "InvalidParam",
      "type": "error"
    },
    {
      "inputs": [],
      "name": "InvalidRegistrationStake",
      "type": "error"
    },
    {
      "inputs": [],
      "name": "NameTooShort",
      "type": "error"
    },
    {
      "inputs": [],
      "name": "NotAuthorized",
      "type": "error"
    },
    {
      "inputs": [],
      "name": "NotEntityOwner",
      "type": "error"
    },
    {
      "inputs": [],
      "name": "NotInitializing",
      "type": "error"
    },
    {
      "inputs": [],
      "name": "ReentrancyGuardReentrantCall",
      "type": "error"
    },
    {
      "inputs": [],
      "name": "StakersStillPresent",
      "type": "error"
    },
    {
      "inputs": [],
      "name": "TransferFailed",
      "type": "error"
    },
    {
      "inputs": [],
      "name": "UUPSUnauthorizedCallContext",
      "type": "error"
    },
    {
      "inputs": [
        {
          "internalType": "bytes32",
          "name": "slot",
          "type": "bytes32"
        }
      ],
      "name": "UUPSUnsupportedProxiableUUID",
      "type": "error"
    },
    {
      "anonymous": false,
      "inputs": [
        {
          "indexed": true,
          "internalType": "uint256",
          "name": "entityId",
          "type": "uint256"
        },
        {
          "indexed": false,
          "internalType": "address",
          "name": "ownerAddress",
          "type": "address"
        },
        {
          "indexed": false,
          "internalType": "string",
          "name": "name",
          "type": "string"
        },
        {
          "indexed": false,
          "internalType": "uint256",
          "name": "maxAPY",
          "type": "uint256"
        }
      ],
      "name": "EntityCreated",
      "type": "event"
    },
    {
      "anonymous": false,
      "inputs": [
        {
          "indexed": true,
          "internalType": "uint256",
          "name": "entityId",
          "type": "uint256"
        },
        {
          "indexed": false,
          "internalType": "uint256",
          "name": "newMaxAPY",
          "type": "uint256"
        }
      ],
      "name": "EntityMaxAPYUpdated",
      "type": "event"
    },
    {
      "anonymous": false,
      "inputs": [
        {
          "indexed": true,
          "internalType": "uint256",
          "name": "entityId",
          "type": "uint256"
        },
        {
          "indexed": false,
          "internalType": "enum IVanaPoolEntity.EntityStatus",
          "name": "newStatus",
          "type": "uint8"
        }
      ],
      "name": "EntityStatusUpdated",
      "type": "event"
    },
    {
      "anonymous": false,
      "inputs": [
        {
          "indexed": true,
          "internalType": "uint256",
          "name": "entityId",
          "type": "uint256"
        },
        {
          "indexed": false,
          "internalType": "address",
          "name": "ownerAddress",
          "type": "address"
        },
        {
          "indexed": false,
          "internalType": "string",
          "name": "name",
          "type": "string"
        }
      ],
      "name": "EntityUpdated",
      "type": "event"
    },
    {
      "anonymous": false,
      "inputs": [
        {
          "indexed": false,
          "internalType": "uint64",
          "name": "version",
          "type": "uint64"
        }
      ],
      "name": "Initialized",
      "type": "event"
    },
    {
      "anonymous": false,
      "inputs": [
        {
          "indexed": false,
          "internalType": "address",
          "name": "account",
          "type": "address"
        }
      ],
      "name": "Paused",
      "type": "event"
    },
    {
      "anonymous": false,
      "inputs": [
        {
          "indexed": true,
          "internalType": "uint256",
          "name": "entityId",
          "type": "uint256"
        },
        {
          "indexed": false,
          "internalType": "uint256",
          "name": "amount",
          "type": "uint256"
        }
      ],
      "name": "RewardsAdded",
      "type": "event"
    },
    {
      "anonymous": false,
      "inputs": [
        {
          "indexed": true,
          "internalType": "uint256",
          "name": "entityId",
          "type": "uint256"
        },
        {
          "indexed": false,
          "internalType": "uint256",
          "name": "distributedAmount",
          "type": "uint256"
        }
      ],
      "name": "RewardsProcessed",
      "type": "event"
    },
    {
      "anonymous": false,
      "inputs": [
        {
          "indexed": true,
          "internalType": "bytes32",
          "name": "role",
          "type": "bytes32"
        },
        {
          "indexed": true,
          "internalType": "bytes32",
          "name": "previousAdminRole",
          "type": "bytes32"
        },
        {
          "indexed": true,
          "internalType": "bytes32",
          "name": "newAdminRole",
          "type": "bytes32"
        }
      ],
      "name": "RoleAdminChanged",
      "type": "event"
    },
    {
      "anonymous": false,
      "inputs": [
        {
          "indexed": true,
          "internalType": "bytes32",
          "name": "role",
          "type": "bytes32"
        },
        {
          "indexed": true,
          "internalType": "address",
          "name": "account",
          "type": "address"
        },
        {
          "indexed": true,
          "internalType": "address",
          "name": "sender",
          "type": "address"
        }
      ],
      "name": "RoleGranted",
      "type": "event"
    },
    {
      "anonymous": false,
      "inputs": [
        {
          "indexed": true,
          "internalType": "bytes32",
          "name": "role",
          "type": "bytes32"
        },
        {
          "indexed": true,
          "internalType": "address",
          "name": "account",
          "type": "address"
        },
        {
          "indexed": true,
          "internalType": "address",
          "name": "sender",
          "type": "address"
        }
      ],
      "name": "RoleRevoked",
      "type": "event"
    },
    {
      "anonymous": false,
      "inputs": [
        {
          "indexed": false,
          "internalType": "address",
          "name": "account",
          "type": "address"
        }
      ],
      "name": "Unpaused",
      "type": "event"
    },
    {
      "anonymous": false,
      "inputs": [
        {
          "indexed": true,
          "internalType": "address",
          "name": "implementation",
          "type": "address"
        }
      ],
      "name": "Upgraded",
      "type": "event"
    },
    {
      "inputs": [],
      "name": "DEFAULT_ADMIN_ROLE",
      "outputs": [
        {
          "internalType": "bytes32",
          "name": "",
          "type": "bytes32"
        }
      ],
      "stateMutability": "view",
      "type": "function"
    },
    {
      "inputs": [],
      "name": "MAINTAINER_ROLE",
      "outputs": [
        {
          "internalType": "bytes32",
          "name": "",
          "type": "bytes32"
        }
      ],
      "stateMutability": "view",
      "type": "function"
    },
    {
      "inputs": [],
      "name": "UPGRADE_INTERFACE_VERSION",
      "outputs": [
        {
          "internalType": "string",
          "name": "",
          "type": "string"
        }
      ],
      "stateMutability": "view",
      "type": "function"
    },
    {
      "inputs": [],
      "name": "VANA_POOL_ROLE",
      "outputs": [
        {
          "internalType": "bytes32",
          "name": "",
          "type": "bytes32"
        }
      ],
      "stateMutability": "view",
      "type": "function"
    },
    {
      "inputs": [
        {
          "internalType": "uint256",
          "name": "exponent",
          "type": "uint256"
        }
      ],
      "name": "_calculateExponential",
      "outputs": [
        {
          "internalType": "uint256",
          "name": "r",
          "type": "uint256"
        }
      ],
      "stateMutability": "pure",
      "type": "function"
    },
    {
      "inputs": [],
      "name": "activeEntitiesValues",
      "outputs": [
        {
          "internalType": "uint256[]",
          "name": "",
          "type": "uint256[]"
        }
      ],
      "stateMutability": "view",
      "type": "function"
    },
    {
      "inputs": [
        {
          "internalType": "uint256",
          "name": "entityId",
          "type": "uint256"
        }
      ],
      "name": "addRewards",
      "outputs": [],
      "stateMutability": "payable",
      "type": "function"
    },
    {
      "inputs": [
        {
          "internalType": "uint256",
          "name": "entityId",
          "type": "uint256"
        }
      ],
      "name": "calculateContinuousAPYByEntity",
      "outputs": [
        {
          "internalType": "uint256",
          "name": "",
          "type": "uint256"
        }
      ],
      "stateMutability": "view",
      "type": "function"
    },
    {
      "inputs": [
        {
          "internalType": "uint256",
          "name": "apy",
          "type": "uint256"
        },
        {
          "internalType": "uint256",
          "name": "principal",
          "type": "uint256"
        },
        {
          "internalType": "uint256",
          "name": "time",
          "type": "uint256"
        }
      ],
      "name": "calculateContinuousCompoundingYield",
      "outputs": [
        {
          "internalType": "uint256",
          "name": "",
          "type": "uint256"
        }
      ],
      "stateMutability": "pure",
      "type": "function"
    },
    {
      "inputs": [
        {
          "components": [
            {
              "internalType": "address",
              "name": "ownerAddress",
              "type": "address"
            },
            {
              "internalType": "string",
              "name": "name",
              "type": "string"
            }
          ],
          "internalType": "struct IVanaPoolEntity.EntityRegistrationInfo",
          "name": "entityRegistrationInfo",
          "type": "tuple"
        }
      ],
      "name": "createEntity",
      "outputs": [],
      "stateMutability": "payable",
      "type": "function"
    },
    {
      "inputs": [
        {
          "internalType": "uint256",
          "name": "entityId",
          "type": "uint256"
        }
      ],
      "name": "entities",
      "outputs": [
        {
          "components": [
            {
              "internalType": "uint256",
              "name": "entityId",
              "type": "uint256"
            },
            {
              "internalType": "address",
              "name": "ownerAddress",
              "type": "address"
            },
            {
              "internalType": "enum IVanaPoolEntity.EntityStatus",
              "name": "status",
              "type": "uint8"
            },
            {
              "internalType": "string",
              "name": "name",
              "type": "string"
            },
            {
              "internalType": "uint256",
              "name": "maxAPY",
              "type": "uint256"
            },
            {
              "internalType": "uint256",
              "name": "lockedRewardPool",
              "type": "uint256"
            },
            {
              "internalType": "uint256",
              "name": "activeRewardPool",
              "type": "uint256"
            },
            {
              "internalType": "uint256",
              "name": "totalShares",
              "type": "uint256"
            },
            {
              "internalType": "uint256",
              "name": "lastUpdateTimestamp",
              "type": "uint256"
            }
          ],
          "internalType": "struct IVanaPoolEntity.EntityInfo",
          "name": "",
          "type": "tuple"
        }
      ],
      "stateMutability": "view",
      "type": "function"
    },
    {
      "inputs": [],
      "name": "entitiesCount",
      "outputs": [
        {
          "internalType": "uint256",
          "name": "",
          "type": "uint256"
        }
      ],
      "stateMutability": "view",
      "type": "function"
    },
    {
      "inputs": [
        {
          "internalType": "string",
          "name": "entityName",
          "type": "string"
        }
      ],
      "name": "entityByName",
      "outputs": [
        {
          "components": [
            {
              "internalType": "uint256",
              "name": "entityId",
              "type": "uint256"
            },
            {
              "internalType": "address",
              "name": "ownerAddress",
              "type": "address"
            },
            {
              "internalType": "enum IVanaPoolEntity.EntityStatus",
              "name": "status",
              "type": "uint8"
            },
            {
              "internalType": "string",
              "name": "name",
              "type": "string"
            },
            {
              "internalType": "uint256",
              "name": "maxAPY",
              "type": "uint256"
            },
            {
              "internalType": "uint256",
              "name": "lockedRewardPool",
              "type": "uint256"
            },
            {
              "internalType": "uint256",
              "name": "activeRewardPool",
              "type": "uint256"
            },
            {
              "internalType": "uint256",
              "name": "totalShares",
              "type": "uint256"
            },
            {
              "internalType": "uint256",
              "name": "lastUpdateTimestamp",
              "type": "uint256"
            }
          ],
          "internalType": "struct IVanaPoolEntity.EntityInfo",
          "name": "",
          "type": "tuple"
        }
      ],
      "stateMutability": "view",
      "type": "function"
    },
    {
      "inputs": [
        {
          "internalType": "string",
          "name": "entityName",
          "type": "string"
        }
      ],
      "name": "entityNameToId",
      "outputs": [
        {
          "internalType": "uint256",
          "name": "entityId",
          "type": "uint256"
        }
      ],
      "stateMutability": "view",
      "type": "function"
    },
    {
      "inputs": [
        {
          "internalType": "uint256",
          "name": "entityId",
          "type": "uint256"
        }
      ],
      "name": "entityShareToVana",
      "outputs": [
        {
          "internalType": "uint256",
          "name": "",
          "type": "uint256"
        }
      ],
      "stateMutability": "view",
      "type": "function"
    },
    {
      "inputs": [
        {
          "internalType": "bytes32",
          "name": "role",
          "type": "bytes32"
        }
      ],
      "name": "getRoleAdmin",
      "outputs": [
        {
          "internalType": "bytes32",
          "name": "",
          "type": "bytes32"
        }
      ],
      "stateMutability": "view",
      "type": "function"
    },
    {
      "inputs": [
        {
          "internalType": "bytes32",
          "name": "role",
          "type": "bytes32"
        },
        {
          "internalType": "address",
          "name": "account",
          "type": "address"
        }
      ],
      "name": "grantRole",
      "outputs": [],
      "stateMutability": "nonpayable",
      "type": "function"
    },
    {
      "inputs": [
        {
          "internalType": "bytes32",
          "name": "role",
          "type": "bytes32"
        },
        {
          "internalType": "address",
          "name": "account",
          "type": "address"
        }
      ],
      "name": "hasRole",
      "outputs": [
        {
          "internalType": "bool",
          "name": "",
          "type": "bool"
        }
      ],
      "stateMutability": "view",
      "type": "function"
    },
    {
      "inputs": [
        {
          "internalType": "address",
          "name": "ownerAddress",
          "type": "address"
        },
        {
          "internalType": "address",
          "name": "vanaPoolStakingAddress",
          "type": "address"
        },
        {
          "internalType": "uint256",
          "name": "initialMinRegistrationStake",
          "type": "uint256"
        },
        {
          "internalType": "uint256",
          "name": "initialMaxAPYDefault",
          "type": "uint256"
        }
      ],
      "name": "initialize",
      "outputs": [],
      "stateMutability": "nonpayable",
      "type": "function"
    },
    {
      "inputs": [],
      "name": "maxAPYDefault",
      "outputs": [
        {
          "internalType": "uint256",
          "name": "",
          "type": "uint256"
        }
      ],
      "stateMutability": "view",
      "type": "function"
    },
    {
      "inputs": [],
      "name": "minRegistrationStake",
      "outputs": [
        {
          "internalType": "uint256",
          "name": "",
          "type": "uint256"
        }
      ],
      "stateMutability": "view",
      "type": "function"
    },
    {
      "inputs": [
        {
          "internalType": "uint256",
          "name": "entityId",
          "type": "uint256"
        },
        {
          "internalType": "string",
          "name": "name",
          "type": "string"
        },
        {
          "internalType": "uint256",
          "name": "maxAPY",
          "type": "uint256"
        },
        {
          "internalType": "uint256",
          "name": "lockedRewardPool",
          "type": "uint256"
        },
        {
          "internalType": "uint256",
          "name": "activeRewardPool",
          "type": "uint256"
        },
        {
          "internalType": "uint256",
          "name": "totalShares",
          "type": "uint256"
        },
        {
          "internalType": "uint256",
          "name": "lastUpdateTimestamp",
          "type": "uint256"
        }
      ],
      "name": "overrideEntity",
      "outputs": [],
      "stateMutability": "nonpayable",
      "type": "function"
    },
    {
      "inputs": [],
      "name": "pause",
      "outputs": [],
      "stateMutability": "nonpayable",
      "type": "function"
    },
    {
      "inputs": [],
      "name": "paused",
      "outputs": [
        {
          "internalType": "bool",
          "name": "",
          "type": "bool"
        }
      ],
      "stateMutability": "view",
      "type": "function"
    },
    {
      "inputs": [
        {
          "internalType": "uint256",
          "name": "entityId",
          "type": "uint256"
        }
      ],
      "name": "processRewards",
      "outputs": [],
      "stateMutability": "nonpayable",
      "type": "function"
    },
    {
      "inputs": [],
      "name": "proxiableUUID",
      "outputs": [
        {
          "internalType": "bytes32",
          "name": "",
          "type": "bytes32"
        }
      ],
      "stateMutability": "view",
      "type": "function"
    },
    {
      "inputs": [
        {
          "internalType": "bytes32",
          "name": "role",
          "type": "bytes32"
        },
        {
          "internalType": "address",
          "name": "callerConfirmation",
          "type": "address"
        }
      ],
      "name": "renounceRole",
      "outputs": [],
      "stateMutability": "nonpayable",
      "type": "function"
    },
    {
      "inputs": [
        {
          "internalType": "bytes32",
          "name": "role",
          "type": "bytes32"
        },
        {
          "internalType": "address",
          "name": "account",
          "type": "address"
        }
      ],
      "name": "revokeRole",
      "outputs": [],
      "stateMutability": "nonpayable",
      "type": "function"
    },
    {
      "inputs": [
        {
          "internalType": "bytes4",
          "name": "interfaceId",
          "type": "bytes4"
        }
      ],
      "name": "supportsInterface",
      "outputs": [
        {
          "internalType": "bool",
          "name": "",
          "type": "bool"
        }
      ],
      "stateMutability": "view",
      "type": "function"
    },
    {
      "inputs": [],
      "name": "unpause",
      "outputs": [],
      "stateMutability": "nonpayable",
      "type": "function"
    },
    {
      "inputs": [
        {
          "internalType": "uint256",
          "name": "entityId",
          "type": "uint256"
        },
        {
          "components": [
            {
              "internalType": "address",
              "name": "ownerAddress",
              "type": "address"
            },
            {
              "internalType": "string",
              "name": "name",
              "type": "string"
            }
          ],
          "internalType": "struct IVanaPoolEntity.EntityRegistrationInfo",
          "name": "entityRegistrationInfo",
          "type": "tuple"
        }
      ],
      "name": "updateEntity",
      "outputs": [],
      "stateMutability": "nonpayable",
      "type": "function"
    },
    {
      "inputs": [
        {
          "internalType": "uint256",
          "name": "entityId",
          "type": "uint256"
        },
        {
          "internalType": "uint256",
          "name": "newMaxAPY",
          "type": "uint256"
        }
      ],
      "name": "updateEntityMaxAPY",
      "outputs": [],
      "stateMutability": "nonpayable",
      "type": "function"
    },
    {
      "inputs": [
        {
          "internalType": "uint256",
          "name": "entityId",
          "type": "uint256"
        },
        {
          "internalType": "uint256",
          "name": "shares",
          "type": "uint256"
        },
        {
          "internalType": "uint256",
          "name": "amount",
          "type": "uint256"
        },
        {
          "internalType": "bool",
          "name": "isStake",
          "type": "bool"
        }
      ],
      "name": "updateEntityPool",
      "outputs": [],
      "stateMutability": "nonpayable",
      "type": "function"
    },
    {
      "inputs": [
        {
          "internalType": "uint256",
          "name": "newMinRegistrationStake",
          "type": "uint256"
        }
      ],
      "name": "updateMinRegistrationStake",
      "outputs": [],
      "stateMutability": "nonpayable",
      "type": "function"
    },
    {
      "inputs": [
        {
          "internalType": "address",
          "name": "newVanaPoolStakingAddress",
          "type": "address"
        }
      ],
      "name": "updateVanaPool",
      "outputs": [],
      "stateMutability": "nonpayable",
      "type": "function"
    },
    {
      "inputs": [
        {
          "internalType": "address",
          "name": "newImplementation",
          "type": "address"
        },
        {
          "internalType": "bytes",
          "name": "data",
          "type": "bytes"
        }
      ],
      "name": "upgradeToAndCall",
      "outputs": [],
      "stateMutability": "payable",
      "type": "function"
    },
    {
      "inputs": [],
      "name": "vanaPoolStaking",
      "outputs": [
        {
          "internalType": "contract IVanaPoolStaking",
          "name": "",
          "type": "address"
        }
      ],
      "stateMutability": "view",
      "type": "function"
    },
    {
      "inputs": [
        {
          "internalType": "uint256",
          "name": "entityId",
          "type": "uint256"
        }
      ],
      "name": "vanaToEntityShare",
      "outputs": [
        {
          "internalType": "uint256",
          "name": "",
          "type": "uint256"
        }
      ],
      "stateMutability": "view",
      "type": "function"
    },
    {
      "inputs": [],
      "name": "version",
      "outputs": [
        {
          "internalType": "uint256",
          "name": "",
          "type": "uint256"
        }
      ],
      "stateMutability": "pure",
      "type": "function"
    }
  ],
  "transactionHash": "0xddbdff68b7c56a62d57a76f49190e690b56aaed297e805a116e7ba9c31829fb9",
  "args": [],
  "numDeployments": 5,
  "solcInputHash": "53b9026a46c1c5f23dac9867395b5330",
  "bytecode": "0x60a0604052306080523480156200001557600080fd5b506200002062000026565b620000da565b7ff0c57e16840df040f15088dc2f81fe391c3923bec73e23a9662efc9c229c6a00805468010000000000000000900460ff1615620000775760405163f92ee8a960e01b815260040160405180910390fd5b80546001600160401b0390811614620000d75780546001600160401b0319166001600160401b0390811782556040519081527fc7f505b2f371ae2175ee4913f4499e1f2633a7b5936321eed1cdaeb6115181d29060200160405180910390a15b50565b608051612cfb6200010460003960008181611ca401528181611ccd0152611e080152612cfb6000f3fe6080604052600436106101c05760003560e01c806301ffc9a7146101c5578063035c2481146101fa5780630d6c032b1461021c57806320f66e4f14610262578063248a9ca3146102825780632f2ff15d146102a257806336568abe146102c25780633f4ba83a146102e2578063449de32c146102f75780634f1ef2861461031757806352d1902d1461032a57806354d3d52a1461033f57806354fd4d501461035f57806356a46902146103735780635c975abb1461039557806361f927a1146103aa5780636331883b146103cc57806368bd646a146103f95780638456cb591461042657806391d148541461043b578063944da3fc1461045b578063a1a4239a1461047b578063a217fddf1461049b578063ad3cb1cc146104b0578063b29c41da146104ee578063bd0292521461050e578063beceed3914610524578063c04f712f14610537578063cf7beec31461054d578063cfc4481514610560578063d0a08a6c14610580578063d547741f146105a0578063d55b1981146105c0578063dccca299146105e0578063de230a66146105f6578063e6ef675b14610616578063eb990c5914610636578063f874225414610656578063fa54717a14610678575b600080fd5b3480156101d157600080fd5b506101e56101e03660046122b6565b610698565b60405190151581526020015b60405180910390f35b34801561020657600080fd5b5061021a6102153660046122f8565b6106cf565b005b34801561022857600080fd5b506102546102373660046123e9565b805160208183018101805160058252928201919093012091525481565b6040519081526020016101f1565b34801561026e57600080fd5b5061021a61027d36600461241d565b610980565b34801561028e57600080fd5b5061025461029d36600461241d565b61099e565b3480156102ae57600080fd5b5061021a6102bd36600461244b565b6109be565b3480156102ce57600080fd5b5061021a6102dd36600461244b565b6109e0565b3480156102ee57600080fd5b5061021a610a18565b34801561030357600080fd5b5061021a61031236600461247b565b610a3b565b61021a61032536600461249d565b610aea565b34801561033657600080fd5b50610254610b05565b34801561034b57600080fd5b5061021a61035a3660046124f6565b610b22565b34801561036b57600080fd5b506001610254565b34801561037f57600080fd5b50610388610bc3565b6040516101f19190612513565b3480156103a157600080fd5b506101e5610bd4565b3480156103b657600080fd5b50610254600080516020612c8683398151915281565b3480156103d857600080fd5b506103ec6103e736600461241d565b610be9565b6040516101f191906125df565b34801561040557600080fd5b50600054610419906001600160a01b031681565b6040516101f19190612678565b34801561043257600080fd5b5061021a610d14565b34801561044757600080fd5b506101e561045636600461244b565b610d34565b34801561046757600080fd5b5061025461047636600461241d565b610d6a565b34801561048757600080fd5b5061025461049636600461241d565b610f1b565b3480156104a757600080fd5b50610254600081565b3480156104bc57600080fd5b506104e1604051806040016040528060058152602001640352e302e360dc1b81525081565b6040516101f1919061268c565b3480156104fa57600080fd5b5061025461050936600461241d565b610f6e565b34801561051a57600080fd5b5061025460035481565b61021a61053236600461241d565b610fc2565b34801561054357600080fd5b5061025460015481565b61021a61055b36600461269f565b61116e565b34801561056c57600080fd5b5061025461057b3660046126d3565b61153a565b34801561058c57600080fd5b5061025461059b36600461241d565b6115a6565b3480156105ac57600080fd5b5061021a6105bb36600461244b565b6115e7565b3480156105cc57600080fd5b506103ec6105db3660046123e9565b611603565b3480156105ec57600080fd5b5061025460025481565b34801561060257600080fd5b5061021a6106113660046126ff565b611637565b34801561062257600080fd5b5061021a61063136600461241d565b611754565b34801561064257600080fd5b5061021a610651366004612745565b61185e565b34801561066257600080fd5b50610254600080516020612ca683398151915281565b34801561068457600080fd5b5061021a61069336600461278b565b6119d3565b60006001600160e01b03198216637965db0b60e01b14806106c957506301ffc9a760e01b6001600160e01b03198316145b92915050565b6106d7611a30565b6106df611a58565b60008281526004602052604090205482906001600160a01b031633146107185760405163fef2862960e01b815260040160405180910390fd5b600061072760208401846124f6565b6001600160a01b03160361074e5760405163e6c4247b60e01b815260040160405180910390fd5b600083815260046020526040902060018154600160a01b900460ff16600281111561077b5761077b612557565b146107995760405163ad0d278b60e01b815260040160405180910390fd5b806001016040516107aa91906128a4565b6040519081900390206107c060208501856128b0565b6040516107ce9291906128fd565b6040518091039020146108f75760056107ea60208501856128b0565b6040516107f89291906128fd565b908152602001604051809103902054600014158061085d575061085b61082160208501856128b0565b8080601f016020809104026020016040519081016040528093929190818152602001838380828437600092019190915250611a8e92505050565b155b1561087b5760405163430f13b360e01b815260040160405180910390fd5b600060058260010160405161089091906128a4565b9081526020016040518091039020819055508360058480602001906108b591906128b0565b6040516108c39291906128fd565b9081526020016040518091039020819055508280602001906108e591906128b0565b60018301916108f591908361296a565b505b61090460208401846124f6565b81546001600160a01b0319166001600160a01b0391909116178155837fc18055339d3481a334f2bf553f5687d28178158490c8ad81a86a4ab03adc347061094e60208601866124f6565b61095b60208701876128b0565b60405161096a93929190612a4d565b60405180910390a2505061097c611aea565b5050565b600080516020612ca683398151915261099881611afb565b50600255565b6000806109a9611b05565b60009384526020525050604090206001015490565b6109c78261099e565b6109d081611afb565b6109da8383611b29565b50505050565b6001600160a01b0381163314610a095760405163334bd91960e11b815260040160405180910390fd5b610a138282611bca565b505050565b600080516020612ca6833981519152610a3081611afb565b610a38611c42565b50565b600080516020612ca6833981519152610a5381611afb565b600083815260046020526040902060018154600160a01b900460ff166002811115610a8057610a80612557565b14610a9e5760405163ad0d278b60e01b815260040160405180910390fd5b610aa784611754565b6002810183905560405183815284907f66f9a9bffa3173cfd88573ba6e37b71c50501deae5c916c376815859973f7e47906020015b60405180910390a250505050565b610af2611c99565b610afb82611d3e565b61097c8282611d49565b6000610b0f611dfd565b50600080516020612c6683398151915290565b600080516020612ca6833981519152610b3a81611afb565b6001600160a01b038216610b615760405163e6c4247b60e01b815260040160405180910390fd5b600054610b8690600080516020612c86833981519152906001600160a01b0316611bca565b50610b9f600080516020612c8683398151915283611b29565b5050600080546001600160a01b0319166001600160a01b0392909216919091179055565b6060610bcf6006611e46565b905090565b600080610bdf611e53565b5460ff1692915050565b610bf161226a565b60008281526004602090815260409182902082516101208101845285815281546001600160a01b038116938201939093529092909190820190600160a01b900460ff166002811115610c4557610c45612557565b8152602001826001018054610c59906127fd565b80601f0160208091040260200160405190810160405280929190818152602001828054610c85906127fd565b8015610cd25780601f10610ca757610100808354040283529160200191610cd2565b820191906000526020600020905b815481529060010190602001808311610cb557829003601f168201915b50505050508152602001826002015481526020018260030154815260200182600401548152602001826005015481526020018260060154815250915050919050565b600080516020612ca6833981519152610d2c81611afb565b610a38611e77565b600080610d3f611b05565b6000948552602090815260408086206001600160a01b03959095168652939052505090205460ff1690565b600081680248ce36a70cb26b3e198113610d875750600092915050565b680755bf798b4a1bf1e58112610dd35760405162461bcd60e51b815260206004820152600c60248201526b4558505f4f564552464c4f5760a01b60448201526064015b60405180910390fd5b6503782dace9d9604e82901b059050600060606bb17217f7d1cf79abc9e3b39883821b056001605f1b01901d6bb17217f7d1cf79abc9e3b39881029092036c240c330e9fb2d9cbaf0fd5aafb1981018102606090811d6d0277594991cfc85f6e2461837cd9018202811d6d1a521255e34f6a5061b25ef1c9c319018202811d6db1bbb201f443cf962f1a1d3db4a5018202811d6e02c72388d9f74f51a9331fed693f1419018202811d6e05180bb14799ab47a8a8cb2a527d57016d02d16720577bd19bf614176fe9ea6c10fe68e7fd37d0007b713f765084018402831d9081019084016d01d3967ed30fc4f89c02bab5708119010290911d6e0587f503bb6ea29d25fcb740196450019091026d360d7aeea093263ecc6e0ecb291760621b010574029d9dc38563c32e5c2f6dc192ee70ef65f9978af30260c3929092039190911c9392505050565b6000818152600460208190526040822090810154610f4157670de0b6b3a7640000610f67565b60048101546005820154610f5d90670de0b6b3a7640000612a88565b610f679190612a9f565b9392505050565b6000818152600460205260408120600201548190610f8e90606490612a9f565b90506000610f9b82610d6a565b9050610faf670de0b6b3a764000082612ac1565b610fba906064612a88565b949350505050565b610fca611a30565b600081815260046020526040902060018154600160a01b900460ff166002811115610ff757610ff7612557565b146110155760405163ad0d278b60e01b815260040160405180910390fd5b3460000361103657604051633494a40d60e21b815260040160405180910390fd5b3481600301600082825461104a9190612ad4565b909155505060008054604080516339e9ade160e21b815290516001600160a01b039092169163e7a6b784916004808201926020929091908290030181865afa15801561109a573d6000803e3d6000fd5b505050506040513d601f19601f820116820180604052508101906110be9190612ae7565b6001600160a01b03163460405160006040518083038185875af1925050503d8060008114611108576040519150601f19603f3d011682016040523d82523d6000602084013e61110d565b606091505b505090508061112f576040516312171d8360e31b815260040160405180910390fd5b827f40df43107e8b4d467127964bd3c966687c0a6a39aaede970755397fd09535e983460405161116191815260200190565b60405180910390a2505050565b611176611a30565b61117e611a58565b600080516020612ca683398151915261119681611afb565b60006111a560208401846124f6565b6001600160a01b0316036111cc5760405163e6c4247b60e01b815260040160405180910390fd5b60056111db60208401846128b0565b6040516111e99291906128fd565b9081526020016040518091039020546000141580611214575061121261082160208401846128b0565b155b156112325760405163430f13b360e01b815260040160405180910390fd5b6002543414611254576040516307e5667760e31b815260040160405180910390fd5b6000349050600060016000815461126a90612b04565b9182905550600081815260046020908152604090912091925061128f908601866124f6565b81546001600160a01b0319166001600160a01b03919091161781556112b760208601866128b0565b60018301916112c791908361296a565b50805460ff60a01b1916600160a01b17815560035460028201554260068201558160056112f760208801886128b0565b6040516113059291906128fd565b90815260405190819003602001902055611320600683611ebe565b5060058101839055600481018390556000546001600160a01b0316639828ce868361134e60208901896124f6565b6040516001600160e01b031960e085901b16815260048101929092526001600160a01b0316602482015260448101869052606401600060405180830381600087803b15801561139c57600080fd5b505af11580156113b0573d6000803e3d6000fd5b5050505060008060009054906101000a90046001600160a01b03166001600160a01b031663e7a6b7846040518163ffffffff1660e01b8152600401602060405180830381865afa158015611408573d6000803e3d6000fd5b505050506040513d601f19601f8201168201806040525081019061142c9190612ae7565b6001600160a01b03168460405160006040518083038185875af1925050503d8060008114611476576040519150601f19603f3d011682016040523d82523d6000602084013e61147b565b606091505b505090508061149d576040516312171d8360e31b815260040160405180910390fd5b827fd568f486da04b49b70afcf7b829e7f9e8963338430f4e4befd65129fdc993bf56114cc60208901896124f6565b6114d960208a018a6128b0565b6003546040516114ec9493929190612b1d565b60405180910390a2827fa7ab1230134c09caa1e7d69e394e58c9774afb4c08d4a13209d3a74a72e0e39460016040516115259190612b53565b60405180910390a25050505050610a38611aea565b600080611548606486612a9f565b905060006301e1338061155b8584612a88565b6115659190612a9f565b9050600061157282610d6a565b9050670de0b6b3a76400006115878183612ac1565b6115919088612a88565b61159b9190612a9f565b979650505050505050565b600081815260046020526040812060058101546115cb57670de0b6b3a7640000610f67565b60058101546004820154610f5d90670de0b6b3a7640000612a88565b6115f08261099e565b6115f981611afb565b6109da8383611bca565b61160b61226a565b600060058360405161161d9190612b61565b9081526020016040518091039020549050610f6781610be9565b61163f611a30565b600080516020612c8683398151915261165781611afb565b61166f600080516020612c8683398151915233610d34565b61168c5760405163ea8e4eb560e01b815260040160405180910390fd5b600085815260046020526040902060018154600160a01b900460ff1660028111156116b9576116b9612557565b146116d75760405163ad0d278b60e01b815260040160405180910390fd5b821561171757848160050160008282546116f19190612ad4565b925050819055508381600401600082825461170c9190612ad4565b9091555061174c9050565b8481600501600082825461172b9190612ac1565b92505081905550838160040160008282546117469190612ac1565b90915550505b505050505050565b61175c611a30565b600081815260046020526040902060018154600160a01b900460ff16600281111561178957611789612557565b146117a75760405163ad0d278b60e01b815260040160405180910390fd5b60008160060154426117b99190612ac1565b9050806000036117c857505050565b60006117dd836002015484600401548461153a565b905082600301548111156117f2575060038201545b808360030160008282546118069190612ac1565b92505081905550808360040160008282546118219190612ad4565b909155505042600684015560405181815284907f1bace2b9ccc89d67d840a89b412ec371627fdba942715a6226aec894c66f4ad290602001610adc565b6000611868611eca565b805490915060ff600160401b82041615906001600160401b031660008115801561188f5750825b90506000826001600160401b031660011480156118ab5750303b155b9050811580156118b9575080155b156118d75760405163f92ee8a960e01b815260040160405180910390fd5b84546001600160401b0319166001178555831561190057845460ff60401b1916600160401b1785555b611908611eee565b611910611eee565b611918611ef6565b611920611f06565b600080546001600160a01b0319166001600160a01b038a161781556002889055600387905561194f908a611b29565b50611968600080516020612ca68339815191528a611b29565b50611981600080516020612c8683398151915289611b29565b5083156119c857845460ff60401b19168555604051600181527fc7f505b2f371ae2175ee4913f4499e1f2633a7b5936321eed1cdaeb6115181d29060200160405180910390a15b505050505050505050565b600080516020612ca68339815191526119eb81611afb565b600088815260046020526040902060018101611a078982612b7d565b506002810196909655506003850193909355600484019190915560058301556006909101555050565b611a38610bd4565b15611a565760405163d93c066560e01b815260040160405180910390fd5b565b6000611a62611f16565b805490915060011901611a8857604051633ee5aeb560e01b815260040160405180910390fd5b60029055565b60008181805b8251811015611adf57828181518110611aaf57611aaf612c36565b6020910101516001600160f81b031916600160fd1b14611ad75781611ad381612b04565b9250505b600101611a94565b506003109392505050565b6000611af4611f16565b6001905550565b610a388133611f3a565b7f02dd7bc7dec4dceedda775e58dd541e08a116c6c53815c0bd028192f7b62680090565b600080611b34611b05565b9050611b408484610d34565b611bc0576000848152602082815260408083206001600160a01b03871684529091529020805460ff19166001179055611b763390565b6001600160a01b0316836001600160a01b0316857f2f8788117e7eff1d82e926ec794901d17c78024a50270940304540a733656f0d60405160405180910390a460019150506106c9565b60009150506106c9565b600080611bd5611b05565b9050611be18484610d34565b15611bc0576000848152602082815260408083206001600160a01b0387168085529252808320805460ff1916905551339287917ff6391f5c32d9c69d2a47ea670b442974b53935d1edc7fd64eb21e047a839171b9190a460019150506106c9565b611c4a611f73565b6000611c54611e53565b805460ff1916815590507f5db9ee0a495bf2e6ff9c91a7834c1ba4fdd244a5e8aa4e537bd38aeae4b073aa335b604051611c8e9190612678565b60405180910390a150565b306001600160a01b037f0000000000000000000000000000000000000000000000000000000000000000161480611d2057507f00000000000000000000000000000000000000000000000000000000000000006001600160a01b0316611d14600080516020612c66833981519152546001600160a01b031690565b6001600160a01b031614155b15611a565760405163703e46dd60e11b815260040160405180910390fd5b600061097c81611afb565b816001600160a01b03166352d1902d6040518163ffffffff1660e01b8152600401602060405180830381865afa925050508015611da3575060408051601f3d908101601f19168201909252611da091810190612c4c565b60015b611dc25781604051634c9c8ce360e01b8152600401610dca9190612678565b600080516020612c668339815191528114611df357604051632a87526960e21b815260048101829052602401610dca565b610a138383611f98565b306001600160a01b037f00000000000000000000000000000000000000000000000000000000000000001614611a565760405163703e46dd60e11b815260040160405180910390fd5b60606000610f6783611fee565b7fcd5ed15c6e187e77e9aee88184c21f4f2182ab5827cb3b7e07fbedcd63f0330090565b611e7f611a30565b6000611e89611e53565b805460ff1916600117815590507f62e78cea01bee320cd4e420270b5ea74000d11b0c9f74754ebdbfc544b05a258611c813390565b6000610f67838361204a565b7ff0c57e16840df040f15088dc2f81fe391c3923bec73e23a9662efc9c229c6a0090565b611a56612099565b611efe612099565b611a566120be565b611f0e612099565b611a566120c6565b7f9b779b17422d0df92223018b32b4d1fa46e071723d6817e2486d003becc55f0090565b611f448282610d34565b61097c5760405163e2517d3f60e01b81526001600160a01b038216600482015260248101839052604401610dca565b611f7b610bd4565b611a5657604051638dfc202b60e01b815260040160405180910390fd5b611fa1826120e3565b6040516001600160a01b038316907fbc7cd75a20ee27fd9adebab32041f755214dbc6bffa90cc0225b39da2e5c2d3b90600090a2805115611fe657610a13828261213f565b61097c6121b5565b60608160000180548060200260200160405190810160405280929190818152602001828054801561203e57602002820191906000526020600020905b81548152602001906001019080831161202a575b50505050509050919050565b6000818152600183016020526040812054612091575081546001818101845560008481526020808220909301849055845484825282860190935260409020919091556106c9565b5060006106c9565b6120a16121d4565b611a5657604051631afcd79f60e31b815260040160405180910390fd5b611aea612099565b6120ce612099565b60006120d8611e53565b805460ff1916905550565b806001600160a01b03163b6000036121105780604051634c9c8ce360e01b8152600401610dca9190612678565b600080516020612c6683398151915280546001600160a01b0319166001600160a01b0392909216919091179055565b6060600080846001600160a01b03168460405161215c9190612b61565b600060405180830381855af49150503d8060008114612197576040519150601f19603f3d011682016040523d82523d6000602084013e61219c565b606091505b50915091506121ac8583836121ee565b95945050505050565b3415611a565760405163b398979f60e01b815260040160405180910390fd5b60006121de611eca565b54600160401b900460ff16919050565b606082612203576121fe82612241565b610f67565b815115801561221a57506001600160a01b0384163b155b1561223a5783604051639996b31560e01b8152600401610dca9190612678565b5080610f67565b8051156122515780518082602001fd5b604051630a12f52160e11b815260040160405180910390fd5b6040805161012081018252600080825260208201819052909182019081526020016060815260200160008152602001600081526020016000815260200160008152602001600081525090565b6000602082840312156122c857600080fd5b81356001600160e01b031981168114610f6757600080fd5b6000604082840312156122f257600080fd5b50919050565b6000806040838503121561230b57600080fd5b8235915060208301356001600160401b0381111561232857600080fd5b612334858286016122e0565b9150509250929050565b634e487b7160e01b600052604160045260246000fd5b60006001600160401b038084111561236e5761236e61233e565b604051601f8501601f19908116603f011681019082821181831017156123965761239661233e565b816040528093508581528686860111156123af57600080fd5b858560208301376000602087830101525050509392505050565b600082601f8301126123da57600080fd5b610f6783833560208501612354565b6000602082840312156123fb57600080fd5b81356001600160401b0381111561241157600080fd5b610fba848285016123c9565b60006020828403121561242f57600080fd5b5035919050565b6001600160a01b0381168114610a3857600080fd5b6000806040838503121561245e57600080fd5b82359150602083013561247081612436565b809150509250929050565b6000806040838503121561248e57600080fd5b50508035926020909101359150565b600080604083850312156124b057600080fd5b82356124bb81612436565b915060208301356001600160401b038111156124d657600080fd5b8301601f810185136124e757600080fd5b61233485823560208401612354565b60006020828403121561250857600080fd5b8135610f6781612436565b6020808252825182820181905260009190848201906040850190845b8181101561254b5783518352928401929184019160010161252f565b50909695505050505050565b634e487b7160e01b600052602160045260246000fd5b6003811061258b57634e487b7160e01b600052602160045260246000fd5b9052565b60005b838110156125aa578181015183820152602001612592565b50506000910152565b600081518084526125cb81602086016020860161258f565b601f01601f19169290920160200192915050565b60208152815160208201526000602083015161260660408401826001600160a01b03169052565b506040830151612619606084018261256d565b5060608301516101208060808501526126366101408501836125b3565b9150608085015160a085015260a085015160c085015260c085015160e085015260e0850151610100818187015280870151838701525050508091505092915050565b6001600160a01b0391909116815260200190565b602081526000610f6760208301846125b3565b6000602082840312156126b157600080fd5b81356001600160401b038111156126c757600080fd5b610fba848285016122e0565b6000806000606084860312156126e857600080fd5b505081359360208301359350604090920135919050565b6000806000806080858703121561271557600080fd5b8435935060208501359250604085013591506060850135801515811461273a57600080fd5b939692955090935050565b6000806000806080858703121561275b57600080fd5b843561276681612436565b9350602085013561277681612436565b93969395505050506040820135916060013590565b600080600080600080600060e0888a0312156127a657600080fd5b8735965060208801356001600160401b038111156127c357600080fd5b6127cf8a828b016123c9565b979a9799505050506040860135956060810135956080820135955060a0820135945060c09091013592509050565b600181811c9082168061281157607f821691505b6020821081036122f257634e487b7160e01b600052602260045260246000fd5b6000815461283e816127fd565b60018281168015612856576001811461286b5761289a565b60ff198416875282151583028701945061289a565b8560005260208060002060005b858110156128915781548a820152908401908201612878565b50505082870194505b5050505092915050565b6000610f678284612831565b6000808335601e198436030181126128c757600080fd5b8301803591506001600160401b038211156128e157600080fd5b6020019150368190038213156128f657600080fd5b9250929050565b8183823760009101908152919050565b601f821115610a13576000816000526020600020601f850160051c810160208610156129365750805b601f850160051c820191505b8181101561174c57828155600101612942565b600019600383901b1c191660019190911b1790565b6001600160401b038311156129815761298161233e565b6129958361298f83546127fd565b8361290d565b6000601f8411600181146129c357600085156129b15750838201355b6129bb8682612955565b845550612a1d565b600083815260209020601f19861690835b828110156129f457868501358255602094850194600190920191016129d4565b5086821015612a115760001960f88860031b161c19848701351681555b505060018560011b0183555b5050505050565b81835281816020850137506000828201602090810191909152601f909101601f19169091010190565b6001600160a01b03841681526040602082018190526000906121ac9083018486612a24565b634e487b7160e01b600052601160045260246000fd5b80820281158282048414176106c9576106c9612a72565b600082612abc57634e487b7160e01b600052601260045260246000fd5b500490565b818103818111156106c9576106c9612a72565b808201808211156106c9576106c9612a72565b600060208284031215612af957600080fd5b8151610f6781612436565b600060018201612b1657612b16612a72565b5060010190565b6001600160a01b0385168152606060208201819052600090612b429083018587612a24565b905082604083015295945050505050565b602081016106c9828461256d565b60008251612b7381846020870161258f565b9190910192915050565b81516001600160401b03811115612b9657612b9661233e565b612baa81612ba484546127fd565b8461290d565b602080601f831160018114612bd95760008415612bc75750858301515b612bd18582612955565b86555061174c565b600085815260208120601f198616915b82811015612c0857888601518255948401946001909101908401612be9565b5085821015612c265787850151600019600388901b60f8161c191681555b5050505050600190811b01905550565b634e487b7160e01b600052603260045260246000fd5b600060208284031215612c5e57600080fd5b505191905056fe360894a13ba1a3210667c828492db98dca3e2076cc3735a920a3ca505d382bbc6148e2a0228967e62cb0646b289b47d74a00aeee1b1387e9d6aa956c8edcf065339759585899103d2ace64958e37e18ccb0504652c81d4a1b8aa80fe2126ab95a2646970667358221220ee691542fc6ad53b734bb5eb0f8fdca32018621c6f07d8cf8c9bf2dd906c3fbb64736f6c63430008180033",
  "devdoc": {
    "errors": {
      "AccessControlBadConfirmation()": [
        {
          "details": "The caller of a function is not the expected one. NOTE: Don't confuse with {AccessControlUnauthorizedAccount}."
        }
      ],
      "AccessControlUnauthorizedAccount(address,bytes32)": [
        {
          "details": "The `account` is missing a role."
        }
      ],
      "AddressEmptyCode(address)": [
        {
          "details": "There's no code at `target` (it is not a contract)."
        }
      ],
      "ERC1967InvalidImplementation(address)": [
        {
          "details": "The `implementation` of the proxy is invalid."
        }
      ],
      "ERC1967NonPayable()": [
        {
          "details": "An upgrade function sees `msg.value > 0` that may be lost."
        }
      ],
      "EnforcedPause()": [
        {
          "details": "The operation failed because the contract is paused."
        }
      ],
      "ExpectedPause()": [
        {
          "details": "The operation failed because the contract is not paused."
        }
      ],
      "FailedInnerCall()": [
        {
          "details": "A call to an address target failed. The target may have reverted."
        }
      ],
      "InvalidInitialization()": [
        {
          "details": "The contract is already initialized."
        }
      ],
      "NotInitializing()": [
        {
          "details": "The contract is not initializing."
        }
      ],
      "ReentrancyGuardReentrantCall()": [
        {
          "details": "Unauthorized reentrant call."
        }
      ],
      "UUPSUnauthorizedCallContext()": [
        {
          "details": "The call is from an unauthorized context."
        }
      ],
      "UUPSUnsupportedProxiableUUID(bytes32)": [
        {
          "details": "The storage `slot` is unsupported as a UUID."
        }
      ]
    },
    "events": {
      "Initialized(uint64)": {
        "details": "Triggered when the contract has been initialized or reinitialized."
      },
      "Paused(address)": {
        "details": "Emitted when the pause is triggered by `account`."
      },
      "RoleAdminChanged(bytes32,bytes32,bytes32)": {
        "details": "Emitted when `newAdminRole` is set as ``role``'s admin role, replacing `previousAdminRole` `DEFAULT_ADMIN_ROLE` is the starting admin for all roles, despite {RoleAdminChanged} not being emitted signaling this."
      },
      "RoleGranted(bytes32,address,address)": {
        "details": "Emitted when `account` is granted `role`. `sender` is the account that originated the contract call, an admin role bearer except when using {AccessControl-_setupRole}."
      },
      "RoleRevoked(bytes32,address,address)": {
        "details": "Emitted when `account` is revoked `role`. `sender` is the account that originated the contract call:   - if using `revokeRole`, it is the admin role bearer   - if using `renounceRole`, it is the role bearer (i.e. `account`)"
      },
      "Unpaused(address)": {
        "details": "Emitted when the pause is lifted by `account`."
      },
      "Upgraded(address)": {
        "details": "Emitted when the implementation is upgraded."
      }
    },
    "kind": "dev",
    "methods": {
      "_calculateExponential(uint256)": {
        "details": "Approximates e^x using Pad approximation This function is a copy of wadExp from  solmate/utils/SignedWadMath.sol",
        "params": {
          "exponent": "The exponent multiplied by 1e18"
        },
        "returns": {
          "r": " = e^x multiplied by 1e18"
        }
      },
      "activeEntitiesValues()": {
        "returns": {
          "_0": "uint256[] Array of active entity IDs"
        }
      },
      "addRewards(uint256)": {
        "params": {
          "entityId": "The entity ID to add rewards to"
        }
      },
      "calculateContinuousAPYByEntity(uint256)": {
        "details": "Calculates continuously compounded APY for an entity",
        "params": {
          "entityId": "The entity ID"
        },
        "returns": {
          "_0": "The compounded APY"
        }
      },
      "calculateContinuousCompoundingYield(uint256,uint256,uint256)": {
        "details": "Calculates continuously compounded APY",
        "params": {
          "apy": "The annual interest rate where 6% = 6e18",
          "principal": "The initial amount",
          "time": "Time in seconds for which the interest is calculated"
        },
        "returns": {
          "_0": "The final amount after applying continuous compounding"
        }
      },
      "constructor": {
        "custom:oz-upgrades-unsafe-allow": "constructor"
      },
      "createEntity((address,string))": {
        "params": {
          "entityRegistrationInfo": "The entity registration information"
        }
      },
      "entities(uint256)": {
        "params": {
          "entityId": "The ID of the entity"
        },
        "returns": {
          "_0": "Entity information"
        }
      },
      "entityByName(string)": {
        "params": {
          "entityName": "The name of the entity"
        },
        "returns": {
          "_0": "Entity information"
        }
      },
      "entityShareToVana(uint256)": {
        "params": {
          "entityId": "ID of the entity"
        },
        "returns": {
          "_0": "uint256                          corresponding VANA value"
        }
      },
      "getRoleAdmin(bytes32)": {
        "details": "Returns the admin role that controls `role`. See {grantRole} and {revokeRole}. To change a role's admin, use {_setRoleAdmin}."
      },
      "grantRole(bytes32,address)": {
        "details": "Grants `role` to `account`. If `account` had not been already granted `role`, emits a {RoleGranted} event. Requirements: - the caller must have ``role``'s admin role. May emit a {RoleGranted} event."
      },
      "hasRole(bytes32,address)": {
        "details": "Returns `true` if `account` has been granted `role`."
      },
      "initialize(address,address,uint256,uint256)": {
        "params": {
          "ownerAddress": "The admin address",
          "vanaPoolStakingAddress": "The address of the VanaPoolStaking contract"
        }
      },
      "paused()": {
        "details": "Returns true if the contract is paused, and false otherwise."
      },
      "processRewards(uint256)": {
        "params": {
          "entityId": "The entity ID to process rewards for"
        }
      },
      "proxiableUUID()": {
        "details": "Implementation of the ERC1822 {proxiableUUID} function. This returns the storage slot used by the implementation. It is used to validate the implementation's compatibility when performing an upgrade. IMPORTANT: A proxy pointing at a proxiable contract should not be considered proxiable itself, because this risks bricking a proxy that upgrades to it, by delegating to itself until out of gas. Thus it is critical that this function revert if invoked through a proxy. This is guaranteed by the `notDelegated` modifier."
      },
      "renounceRole(bytes32,address)": {
        "details": "Revokes `role` from the calling account. Roles are often managed via {grantRole} and {revokeRole}: this function's purpose is to provide a mechanism for accounts to lose their privileges if they are compromised (such as when a trusted device is misplaced). If the calling account had been revoked `role`, emits a {RoleRevoked} event. Requirements: - the caller must be `callerConfirmation`. May emit a {RoleRevoked} event."
      },
      "revokeRole(bytes32,address)": {
        "details": "Revokes `role` from `account`. If `account` had been granted `role`, emits a {RoleRevoked} event. Requirements: - the caller must have ``role``'s admin role. May emit a {RoleRevoked} event."
      },
      "supportsInterface(bytes4)": {
        "details": "See {IERC165-supportsInterface}."
      },
      "updateEntity(uint256,(address,string))": {
        "params": {
          "entityId": "The ID of the entity",
          "entityRegistrationInfo": "The updated entity information"
        }
      },
      "updateEntityMaxAPY(uint256,uint256)": {
        "params": {
          "entityId": "The entity ID",
          "newMaxAPY": "The new max APY in basis points (1% = 100)"
        }
      },
      "updateEntityPool(uint256,uint256,uint256,bool)": {
        "params": {
          "amount": "The amount of VANA to add or remove",
          "entityId": "The entity ID",
          "isStake": "True if staking, false if unstaking",
          "shares": "The amount of shares to add or remove"
        }
      },
      "updateMinRegistrationStake(uint256)": {
        "params": {
          "newMinRegistrationStake": "The new minimum registration stake"
        }
      },
      "updateVanaPool(address)": {
        "params": {
          "newVanaPoolStakingAddress": "The new VanaPoolStaking contract address"
        }
      },
      "upgradeToAndCall(address,bytes)": {
        "custom:oz-upgrades-unsafe-allow-reachable": "delegatecall",
        "details": "Upgrade the implementation of the proxy to `newImplementation`, and subsequently execute the function call encoded in `data`. Calls {_authorizeUpgrade}. Emits an {Upgraded} event."
      },
      "vanaToEntityShare(uint256)": {
        "params": {
          "entityId": "ID of the entity"
        },
        "returns": {
          "_0": "uint256                          corresponding shares amount"
        }
      }
    },
    "version": 1
  },
  "userdoc": {
    "kind": "user",
    "methods": {
      "activeEntitiesValues()": {
        "notice": "Get all active entities"
      },
      "addRewards(uint256)": {
        "notice": "Add rewards to an entity's locked reward pool"
      },
      "createEntity((address,string))": {
        "notice": "Creates a new entity"
      },
      "entities(uint256)": {
        "notice": "Gets entity information"
      },
      "entityByName(string)": {
        "notice": "Gets entity information by name"
      },
      "entityShareToVana(uint256)": {
        "notice": "Convert share to VANA for a specific entity"
      },
      "initialize(address,address,uint256,uint256)": {
        "notice": "Initializes the contract"
      },
      "pause()": {
        "notice": "Pauses the contract"
      },
      "processRewards(uint256)": {
        "notice": "Process rewards for an entity"
      },
      "unpause()": {
        "notice": "Unpauses the contract"
      },
      "updateEntity(uint256,(address,string))": {
        "notice": "Updates an entity"
      },
      "updateEntityMaxAPY(uint256,uint256)": {
        "notice": "Update an entity's max APY"
      },
      "updateEntityPool(uint256,uint256,uint256,bool)": {
        "notice": "Update entity stake information - can only be called by VanaPoolStaking"
      },
      "updateMinRegistrationStake(uint256)": {
        "notice": "Updates the minimum registration stake"
      },
      "updateVanaPool(address)": {
        "notice": "Updates the VanaPoolStaking contract address"
      },
      "vanaToEntityShare(uint256)": {
        "notice": "Convert VANA to shares for a specific entity"
      },
      "version()": {
        "notice": "Returns the version of the contract"
      }
    },
    "version": 1
  },
  "storageLayout": {
    "storage": [
      {
        "astId": 4168,
        "contract": "contracts/vanaPoolEntity/VanaPoolEntityImplementation.sol:VanaPoolEntityImplementation",
        "label": "vanaPoolStaking",
        "offset": 0,
        "slot": "0",
        "type": "t_contract(IVanaPoolStaking)4304"
      },
      {
        "astId": 4171,
        "contract": "contracts/vanaPoolEntity/VanaPoolEntityImplementation.sol:VanaPoolEntityImplementation",
        "label": "entitiesCount",
        "offset": 0,
        "slot": "1",
        "type": "t_uint256"
      },
      {
        "astId": 4174,
        "contract": "contracts/vanaPoolEntity/VanaPoolEntityImplementation.sol:VanaPoolEntityImplementation",
        "label": "minRegistrationStake",
        "offset": 0,
        "slot": "2",
        "type": "t_uint256"
      },
      {
        "astId": 4177,
        "contract": "contracts/vanaPoolEntity/VanaPoolEntityImplementation.sol:VanaPoolEntityImplementation",
        "label": "maxAPYDefault",
        "offset": 0,
        "slot": "3",
        "type": "t_uint256"
      },
      {
        "astId": 4182,
        "contract": "contracts/vanaPoolEntity/VanaPoolEntityImplementation.sol:VanaPoolEntityImplementation",
        "label": "_entities",
        "offset": 0,
        "slot": "4",
        "type": "t_mapping(t_uint256,t_struct(Entity)3987_storage)"
      },
      {
        "astId": 4187,
        "contract": "contracts/vanaPoolEntity/VanaPoolEntityImplementation.sol:VanaPoolEntityImplementation",
        "label": "entityNameToId",
        "offset": 0,
        "slot": "5",
        "type": "t_mapping(t_string_memory_ptr,t_uint256)"
      },
      {
        "astId": 4190,
        "contract": "contracts/vanaPoolEntity/VanaPoolEntityImplementation.sol:VanaPoolEntityImplementation",
        "label": "_activeEntityIds",
        "offset": 0,
        "slot": "6",
        "type": "t_struct(UintSet)2453_storage"
      }
    ],
    "types": {
      "t_address": {
        "encoding": "inplace",
        "label": "address",
        "numberOfBytes": "20"
      },
      "t_array(t_bytes32)dyn_storage": {
        "base": "t_bytes32",
        "encoding": "dynamic_array",
        "label": "bytes32[]",
        "numberOfBytes": "32"
      },
      "t_bytes32": {
        "encoding": "inplace",
        "label": "bytes32",
        "numberOfBytes": "32"
      },
      "t_contract(IVanaPoolStaking)4304": {
        "encoding": "inplace",
        "label": "contract IVanaPoolStaking",
        "numberOfBytes": "20"
      },
      "t_enum(EntityStatus)3969": {
        "encoding": "inplace",
        "label": "enum IVanaPoolEntity.EntityStatus",
        "numberOfBytes": "1"
      },
      "t_mapping(t_bytes32,t_uint256)": {
        "encoding": "mapping",
        "key": "t_bytes32",
        "label": "mapping(bytes32 => uint256)",
        "numberOfBytes": "32",
        "value": "t_uint256"
      },
      "t_mapping(t_string_memory_ptr,t_uint256)": {
        "encoding": "mapping",
        "key": "t_string_memory_ptr",
        "label": "mapping(string => uint256)",
        "numberOfBytes": "32",
        "value": "t_uint256"
      },
      "t_mapping(t_uint256,t_struct(Entity)3987_storage)": {
        "encoding": "mapping",
        "key": "t_uint256",
        "label": "mapping(uint256 => struct IVanaPoolEntity.Entity)",
        "numberOfBytes": "32",
        "value": "t_struct(Entity)3987_storage"
      },
      "t_string_memory_ptr": {
        "encoding": "bytes",
        "label": "string",
        "numberOfBytes": "32"
      },
      "t_string_storage": {
        "encoding": "bytes",
        "label": "string",
        "numberOfBytes": "32"
      },
      "t_struct(Entity)3987_storage": {
        "encoding": "inplace",
        "label": "struct IVanaPoolEntity.Entity",
        "members": [
          {
            "astId": 3971,
            "contract": "contracts/vanaPoolEntity/VanaPoolEntityImplementation.sol:VanaPoolEntityImplementation",
            "label": "ownerAddress",
            "offset": 0,
            "slot": "0",
            "type": "t_address"
          },
          {
            "astId": 3974,
            "contract": "contracts/vanaPoolEntity/VanaPoolEntityImplementation.sol:VanaPoolEntityImplementation",
            "label": "status",
            "offset": 20,
            "slot": "0",
            "type": "t_enum(EntityStatus)3969"
          },
          {
            "astId": 3976,
            "contract": "contracts/vanaPoolEntity/VanaPoolEntityImplementation.sol:VanaPoolEntityImplementation",
            "label": "name",
            "offset": 0,
            "slot": "1",
            "type": "t_string_storage"
          },
          {
            "astId": 3978,
            "contract": "contracts/vanaPoolEntity/VanaPoolEntityImplementation.sol:VanaPoolEntityImplementation",
            "label": "maxAPY",
            "offset": 0,
            "slot": "2",
            "type": "t_uint256"
          },
          {
            "astId": 3980,
            "contract": "contracts/vanaPoolEntity/VanaPoolEntityImplementation.sol:VanaPoolEntityImplementation",
            "label": "lockedRewardPool",
            "offset": 0,
            "slot": "3",
            "type": "t_uint256"
          },
          {
            "astId": 3982,
            "contract": "contracts/vanaPoolEntity/VanaPoolEntityImplementation.sol:VanaPoolEntityImplementation",
            "label": "activeRewardPool",
            "offset": 0,
            "slot": "4",
            "type": "t_uint256"
          },
          {
            "astId": 3984,
            "contract": "contracts/vanaPoolEntity/VanaPoolEntityImplementation.sol:VanaPoolEntityImplementation",
            "label": "totalShares",
            "offset": 0,
            "slot": "5",
            "type": "t_uint256"
          },
          {
            "astId": 3986,
            "contract": "contracts/vanaPoolEntity/VanaPoolEntityImplementation.sol:VanaPoolEntityImplementation",
            "label": "lastUpdateTimestamp",
            "offset": 0,
            "slot": "6",
            "type": "t_uint256"
          }
        ],
        "numberOfBytes": "224"
      },
      "t_struct(Set)1981_storage": {
        "encoding": "inplace",
        "label": "struct EnumerableSet.Set",
        "members": [
          {
            "astId": 1976,
            "contract": "contracts/vanaPoolEntity/VanaPoolEntityImplementation.sol:VanaPoolEntityImplementation",
            "label": "_values",
            "offset": 0,
            "slot": "0",
            "type": "t_array(t_bytes32)dyn_storage"
          },
          {
            "astId": 1980,
            "contract": "contracts/vanaPoolEntity/VanaPoolEntityImplementation.sol:VanaPoolEntityImplementation",
            "label": "_positions",
            "offset": 0,
            "slot": "1",
            "type": "t_mapping(t_bytes32,t_uint256)"
          }
        ],
        "numberOfBytes": "64"
      },
      "t_struct(UintSet)2453_storage": {
        "encoding": "inplace",
        "label": "struct EnumerableSet.UintSet",
        "members": [
          {
            "astId": 2452,
            "contract": "contracts/vanaPoolEntity/VanaPoolEntityImplementation.sol:VanaPoolEntityImplementation",
            "label": "_inner",
            "offset": 0,
            "slot": "0",
            "type": "t_struct(Set)1981_storage"
          }
        ],
        "numberOfBytes": "64"
      },
      "t_uint256": {
        "encoding": "inplace",
        "label": "uint256",
        "numberOfBytes": "32"
      }
    }
  }
}