{
  "address": "0x730D4C18fB51dA119055e46571420cEe63927311",
  "abi": [
    {
      "inputs": [],
      "stateMutability": "nonpayable",
      "type": "constructor"
    },
    {
      "inputs": [],
      "name": "AccessControlBadConfirmation",
      "type": "error"
    },
    {
      "inputs": [
        {
          "internalType": "address",
          "name": "account",
          "type": "address"
        },
        {
          "internalType": "bytes32",
          "name": "neededRole",
          "type": "bytes32"
        }
      ],
      "name": "AccessControlUnauthorizedAccount",
      "type": "error"
    },
    {
      "inputs": [
        {
          "internalType": "address",
          "name": "target",
          "type": "address"
        }
      ],
      "name": "AddressEmptyCode",
      "type": "error"
    },
    {
      "inputs": [],
      "name": "CannotRemoveRegistrationStake",
      "type": "error"
    },
    {
      "inputs": [
        {
          "internalType": "address",
          "name": "implementation",
          "type": "address"
        }
      ],
      "name": "ERC1967InvalidImplementation",
      "type": "error"
    },
    {
      "inputs": [],
      "name": "ERC1967NonPayable",
      "type": "error"
    },
    {
      "inputs": [],
      "name": "EnforcedPause",
      "type": "error"
    },
    {
      "inputs": [],
      "name": "EntityNotActive",
      "type": "error"
    },
    {
      "inputs": [],
      "name": "EntityNotFound",
      "type": "error"
    },
    {
      "inputs": [],
      "name": "ExpectedPause",
      "type": "error"
    },
    {
      "inputs": [],
      "name": "FailedInnerCall",
      "type": "error"
    },
    {
      "inputs": [],
      "name": "InsufficientShares",
      "type": "error"
    },
    {
      "inputs": [],
      "name": "InsufficientStakeAmount",
      "type": "error"
    },
    {
      "inputs": [],
      "name": "InvalidAddress",
      "type": "error"
    },
    {
      "inputs": [],
      "name": "InvalidAmount",
      "type": "error"
    },
    {
      "inputs": [],
      "name": "InvalidEntity",
      "type": "error"
    },
    {
      "inputs": [],
      "name": "InvalidInitialization",
      "type": "error"
    },
    {
      "inputs": [],
      "name": "InvalidRecipient",
      "type": "error"
    },
    {
      "inputs": [],
      "name": "NotAuthorized",
      "type": "error"
    },
    {
      "inputs": [],
      "name": "NotEntityOwner",
      "type": "error"
    },
    {
      "inputs": [],
      "name": "NotInitializing",
      "type": "error"
    },
    {
      "inputs": [],
      "name": "ReentrancyGuardReentrantCall",
      "type": "error"
    },
    {
      "inputs": [],
      "name": "TransferFailed",
      "type": "error"
    },
    {
      "inputs": [],
      "name": "UUPSUnauthorizedCallContext",
      "type": "error"
    },
    {
      "inputs": [
        {
          "internalType": "bytes32",
          "name": "slot",
          "type": "bytes32"
        }
      ],
      "name": "UUPSUnsupportedProxiableUUID",
      "type": "error"
    },
    {
      "anonymous": false,
      "inputs": [
        {
          "indexed": true,
          "internalType": "uint256",
          "name": "entityId",
          "type": "uint256"
        },
        {
          "indexed": true,
          "internalType": "address",
          "name": "ownerAddress",
          "type": "address"
        }
      ],
      "name": "EntityStakeRegistered",
      "type": "event"
    },
    {
      "anonymous": false,
      "inputs": [
        {
          "indexed": false,
          "internalType": "uint64",
          "name": "version",
          "type": "uint64"
        }
      ],
      "name": "Initialized",
      "type": "event"
    },
    {
      "anonymous": false,
      "inputs": [
        {
          "indexed": false,
          "internalType": "uint256",
          "name": "newMinStake",
          "type": "uint256"
        }
      ],
      "name": "MinStakeUpdated",
      "type": "event"
    },
    {
      "anonymous": false,
      "inputs": [
        {
          "indexed": false,
          "internalType": "address",
          "name": "account",
          "type": "address"
        }
      ],
      "name": "Paused",
      "type": "event"
    },
    {
      "anonymous": false,
      "inputs": [
        {
          "indexed": true,
          "internalType": "bytes32",
          "name": "role",
          "type": "bytes32"
        },
        {
          "indexed": true,
          "internalType": "bytes32",
          "name": "previousAdminRole",
          "type": "bytes32"
        },
        {
          "indexed": true,
          "internalType": "bytes32",
          "name": "newAdminRole",
          "type": "bytes32"
        }
      ],
      "name": "RoleAdminChanged",
      "type": "event"
    },
    {
      "anonymous": false,
      "inputs": [
        {
          "indexed": true,
          "internalType": "bytes32",
          "name": "role",
          "type": "bytes32"
        },
        {
          "indexed": true,
          "internalType": "address",
          "name": "account",
          "type": "address"
        },
        {
          "indexed": true,
          "internalType": "address",
          "name": "sender",
          "type": "address"
        }
      ],
      "name": "RoleGranted",
      "type": "event"
    },
    {
      "anonymous": false,
      "inputs": [
        {
          "indexed": true,
          "internalType": "bytes32",
          "name": "role",
          "type": "bytes32"
        },
        {
          "indexed": true,
          "internalType": "address",
          "name": "account",
          "type": "address"
        },
        {
          "indexed": true,
          "internalType": "address",
          "name": "sender",
          "type": "address"
        }
      ],
      "name": "RoleRevoked",
      "type": "event"
    },
    {
      "anonymous": false,
      "inputs": [
        {
          "indexed": true,
          "internalType": "uint256",
          "name": "entityId",
          "type": "uint256"
        },
        {
          "indexed": true,
          "internalType": "address",
          "name": "staker",
          "type": "address"
        },
        {
          "indexed": false,
          "internalType": "uint256",
          "name": "amount",
          "type": "uint256"
        },
        {
          "indexed": false,
          "internalType": "uint256",
          "name": "sharesIssued",
          "type": "uint256"
        }
      ],
      "name": "Staked",
      "type": "event"
    },
    {
      "anonymous": false,
      "inputs": [
        {
          "indexed": false,
          "internalType": "address",
          "name": "account",
          "type": "address"
        }
      ],
      "name": "Unpaused",
      "type": "event"
    },
    {
      "anonymous": false,
      "inputs": [
        {
          "indexed": true,
          "internalType": "uint256",
          "name": "entityId",
          "type": "uint256"
        },
        {
          "indexed": true,
          "internalType": "address",
          "name": "staker",
          "type": "address"
        },
        {
          "indexed": false,
          "internalType": "uint256",
          "name": "amount",
          "type": "uint256"
        },
        {
          "indexed": false,
          "internalType": "uint256",
          "name": "sharesBurned",
          "type": "uint256"
        }
      ],
      "name": "Unstaked",
      "type": "event"
    },
    {
      "anonymous": false,
      "inputs": [
        {
          "indexed": true,
          "internalType": "address",
          "name": "implementation",
          "type": "address"
        }
      ],
      "name": "Upgraded",
      "type": "event"
    },
    {
      "inputs": [],
      "name": "DEFAULT_ADMIN_ROLE",
      "outputs": [
        {
          "internalType": "bytes32",
          "name": "",
          "type": "bytes32"
        }
      ],
      "stateMutability": "view",
      "type": "function"
    },
    {
      "inputs": [],
      "name": "MAINTAINER_ROLE",
      "outputs": [
        {
          "internalType": "bytes32",
          "name": "",
          "type": "bytes32"
        }
      ],
      "stateMutability": "view",
      "type": "function"
    },
    {
      "inputs": [],
      "name": "UPGRADE_INTERFACE_VERSION",
      "outputs": [
        {
          "internalType": "string",
          "name": "",
          "type": "string"
        }
      ],
      "stateMutability": "view",
      "type": "function"
    },
    {
      "inputs": [],
      "name": "VANA_POOL_ENTITY",
      "outputs": [
        {
          "internalType": "bytes32",
          "name": "",
          "type": "bytes32"
        }
      ],
      "stateMutability": "view",
      "type": "function"
    },
    {
      "inputs": [
        {
          "internalType": "bytes32",
          "name": "role",
          "type": "bytes32"
        }
      ],
      "name": "getRoleAdmin",
      "outputs": [
        {
          "internalType": "bytes32",
          "name": "",
          "type": "bytes32"
        }
      ],
      "stateMutability": "view",
      "type": "function"
    },
    {
      "inputs": [
        {
          "internalType": "bytes32",
          "name": "role",
          "type": "bytes32"
        },
        {
          "internalType": "address",
          "name": "account",
          "type": "address"
        }
      ],
      "name": "grantRole",
      "outputs": [],
      "stateMutability": "nonpayable",
      "type": "function"
    },
    {
      "inputs": [
        {
          "internalType": "bytes32",
          "name": "role",
          "type": "bytes32"
        },
        {
          "internalType": "address",
          "name": "account",
          "type": "address"
        }
      ],
      "name": "hasRole",
      "outputs": [
        {
          "internalType": "bool",
          "name": "",
          "type": "bool"
        }
      ],
      "stateMutability": "view",
      "type": "function"
    },
    {
      "inputs": [
        {
          "internalType": "address",
          "name": "trustedForwarderAddress",
          "type": "address"
        },
        {
          "internalType": "address",
          "name": "ownerAddress",
          "type": "address"
        },
        {
          "internalType": "uint256",
          "name": "initialMinStake",
          "type": "uint256"
        }
      ],
      "name": "initialize",
      "outputs": [],
      "stateMutability": "nonpayable",
      "type": "function"
    },
    {
      "inputs": [
        {
          "internalType": "address",
          "name": "forwarder",
          "type": "address"
        }
      ],
      "name": "isTrustedForwarder",
      "outputs": [
        {
          "internalType": "bool",
          "name": "",
          "type": "bool"
        }
      ],
      "stateMutability": "view",
      "type": "function"
    },
    {
      "inputs": [],
      "name": "minStakeAmount",
      "outputs": [
        {
          "internalType": "uint256",
          "name": "",
          "type": "uint256"
        }
      ],
      "stateMutability": "view",
      "type": "function"
    },
    {
      "inputs": [
        {
          "internalType": "bytes[]",
          "name": "data",
          "type": "bytes[]"
        }
      ],
      "name": "multicall",
      "outputs": [
        {
          "internalType": "bytes[]",
          "name": "results",
          "type": "bytes[]"
        }
      ],
      "stateMutability": "nonpayable",
      "type": "function"
    },
    {
      "inputs": [],
      "name": "pause",
      "outputs": [],
      "stateMutability": "nonpayable",
      "type": "function"
    },
    {
      "inputs": [],
      "name": "paused",
      "outputs": [
        {
          "internalType": "bool",
          "name": "",
          "type": "bool"
        }
      ],
      "stateMutability": "view",
      "type": "function"
    },
    {
      "inputs": [],
      "name": "proxiableUUID",
      "outputs": [
        {
          "internalType": "bytes32",
          "name": "",
          "type": "bytes32"
        }
      ],
      "stateMutability": "view",
      "type": "function"
    },
    {
      "inputs": [
        {
          "internalType": "uint256",
          "name": "entityId",
          "type": "uint256"
        },
        {
          "internalType": "address",
          "name": "ownerAddress",
          "type": "address"
        },
        {
          "internalType": "uint256",
          "name": "registrationStake",
          "type": "uint256"
        }
      ],
      "name": "registerEntityStake",
      "outputs": [],
      "stateMutability": "nonpayable",
      "type": "function"
    },
    {
      "inputs": [
        {
          "internalType": "bytes32",
          "name": "role",
          "type": "bytes32"
        },
        {
          "internalType": "address",
          "name": "callerConfirmation",
          "type": "address"
        }
      ],
      "name": "renounceRole",
      "outputs": [],
      "stateMutability": "nonpayable",
      "type": "function"
    },
    {
      "inputs": [
        {
          "internalType": "bytes32",
          "name": "role",
          "type": "bytes32"
        },
        {
          "internalType": "address",
          "name": "account",
          "type": "address"
        }
      ],
      "name": "revokeRole",
      "outputs": [],
      "stateMutability": "nonpayable",
      "type": "function"
    },
    {
      "inputs": [
        {
          "internalType": "uint256",
          "name": "entityId",
          "type": "uint256"
        },
        {
          "internalType": "address",
          "name": "recipient",
          "type": "address"
        }
      ],
      "name": "stake",
      "outputs": [],
      "stateMutability": "payable",
      "type": "function"
    },
    {
      "inputs": [
        {
          "internalType": "address",
          "name": "staker",
          "type": "address"
        },
        {
          "internalType": "uint256",
          "name": "entityId",
          "type": "uint256"
        }
      ],
      "name": "stakerEntities",
      "outputs": [
        {
          "components": [
            {
              "internalType": "uint256",
              "name": "shares",
              "type": "uint256"
            }
          ],
          "internalType": "struct IVanaPool.StakerEntity",
          "name": "",
          "type": "tuple"
        }
      ],
      "stateMutability": "view",
      "type": "function"
    },
    {
      "inputs": [
        {
          "internalType": "bytes4",
          "name": "interfaceId",
          "type": "bytes4"
        }
      ],
      "name": "supportsInterface",
      "outputs": [
        {
          "internalType": "bool",
          "name": "",
          "type": "bool"
        }
      ],
      "stateMutability": "view",
      "type": "function"
    },
    {
      "inputs": [],
      "name": "trustedForwarder",
      "outputs": [
        {
          "internalType": "address",
          "name": "",
          "type": "address"
        }
      ],
      "stateMutability": "view",
      "type": "function"
    },
    {
      "inputs": [],
      "name": "unpause",
      "outputs": [],
      "stateMutability": "nonpayable",
      "type": "function"
    },
    {
      "inputs": [
        {
          "internalType": "uint256",
          "name": "entityId",
          "type": "uint256"
        },
        {
          "internalType": "uint256",
          "name": "shareAmount",
          "type": "uint256"
        }
      ],
      "name": "unstake",
      "outputs": [],
      "stateMutability": "nonpayable",
      "type": "function"
    },
    {
      "inputs": [
        {
          "internalType": "uint256",
          "name": "newMinStake",
          "type": "uint256"
        }
      ],
      "name": "updateMinStakeAmount",
      "outputs": [],
      "stateMutability": "nonpayable",
      "type": "function"
    },
    {
      "inputs": [
        {
          "internalType": "address",
          "name": "trustedForwarderAddress",
          "type": "address"
        }
      ],
      "name": "updateTrustedForwarder",
      "outputs": [],
      "stateMutability": "nonpayable",
      "type": "function"
    },
    {
      "inputs": [
        {
          "internalType": "address",
          "name": "newVanaPoolEntityAddress",
          "type": "address"
        }
      ],
      "name": "updateVanaPoolEntity",
      "outputs": [],
      "stateMutability": "nonpayable",
      "type": "function"
    },
    {
      "inputs": [
        {
          "internalType": "address",
          "name": "newVanaPoolTreasuryAddress",
          "type": "address"
        }
      ],
      "name": "updateVanaPoolTreasury",
      "outputs": [],
      "stateMutability": "nonpayable",
      "type": "function"
    },
    {
      "inputs": [
        {
          "internalType": "address",
          "name": "newImplementation",
          "type": "address"
        },
        {
          "internalType": "bytes",
          "name": "data",
          "type": "bytes"
        }
      ],
      "name": "upgradeToAndCall",
      "outputs": [],
      "stateMutability": "payable",
      "type": "function"
    },
    {
      "inputs": [],
      "name": "vanaPoolEntity",
      "outputs": [
        {
          "internalType": "contract IVanaPoolEntity",
          "name": "",
          "type": "address"
        }
      ],
      "stateMutability": "view",
      "type": "function"
    },
    {
      "inputs": [],
      "name": "vanaPoolTreasury",
      "outputs": [
        {
          "internalType": "contract IVanaPoolTreasury",
          "name": "",
          "type": "address"
        }
      ],
      "stateMutability": "view",
      "type": "function"
    },
    {
      "inputs": [],
      "name": "version",
      "outputs": [
        {
          "internalType": "uint256",
          "name": "",
          "type": "uint256"
        }
      ],
      "stateMutability": "pure",
      "type": "function"
    }
  ],
  "transactionHash": "0x6846ffd565bb5a733d8b2f4c74353137efb911a07db8cf5588ff289437c47e7b",
  "args": [],
  "numDeployments": 3,
  "solcInputHash": "d9c5fdc3d25d8151a0122b0173f55da0",
  "bytecode": "0x60c06040523060805234801561001457600080fd5b50600060a052610022610027565b6100d9565b7ff0c57e16840df040f15088dc2f81fe391c3923bec73e23a9662efc9c229c6a00805468010000000000000000900460ff16156100775760405163f92ee8a960e01b815260040160405180910390fd5b80546001600160401b03908116146100d65780546001600160401b0319166001600160401b0390811782556040519081527fc7f505b2f371ae2175ee4913f4499e1f2633a7b5936321eed1cdaeb6115181d29060200160405180910390a15b50565b60805160a0516124a56200010a60003960005050600081816116720152818161169b01526117df01526124a56000f3fe6080604052600436106101685760003560e01c806301ffc9a71461016d5780631794bb3c146101a25780631dfae75c146101c4578063248a9ca3146101f45780632f2ff15d1461021457806335a8977c1461023457806336568abe146102615780633f4ba83a146102815780634f1ef2861461029657806352d1902d146102a957806354fd4d50146102be578063572b6c05146102d25780635c975abb146102f25780637acb7757146103075780637da0a8771461031a5780638456cb591461032f578063899ac34f1461034457806391d14854146103645780639828ce861461038457806399a9ec86146103a45780639e2c8a5b1461040a578063a217fddf1461042a578063ac9650d81461043f578063ad3cb1cc1461046c578063d547741f146104aa578063d8060cd5146104ca578063e7a6b784146104ea578063f18876841461050a578063f874225414610520578063f90b031114610542578063ff037e8e14610562575b600080fd5b34801561017957600080fd5b5061018d610188366004611ce6565b610582565b60405190151581526020015b60405180910390f35b3480156101ae57600080fd5b506101c26101bd366004611d25565b6105b9565b005b3480156101d057600080fd5b506101e660008051602061243083398151915281565b604051908152602001610199565b34801561020057600080fd5b506101e661020f366004611d66565b610731565b34801561022057600080fd5b506101c261022f366004611d7f565b610751565b34801561024057600080fd5b50600154610254906001600160a01b031681565b6040516101999190611daf565b34801561026d57600080fd5b506101c261027c366004611d7f565b610773565b34801561028d57600080fd5b506101c26107bb565b6101c26102a4366004611e59565b6107de565b3480156102b557600080fd5b506101e66107fd565b3480156102ca57600080fd5b5060016101e6565b3480156102de57600080fd5b5061018d6102ed366004611eeb565b61081a565b3480156102fe57600080fd5b5061018d61083f565b6101c2610315366004611d7f565b610854565b34801561032657600080fd5b50610254610b2c565b34801561033b57600080fd5b506101c2610b3b565b34801561035057600080fd5b506101c261035f366004611eeb565b610b5b565b34801561037057600080fd5b5061018d61037f366004611d7f565b610bd7565b34801561039057600080fd5b506101c261039f366004611f08565b610c0d565b3480156103b057600080fd5b506103fb6103bf366004611f2f565b6040805160208082018352600091829052825180820184526001600160a01b039590951682526006815282822093825292909252902054815290565b60405190518152602001610199565b34801561041657600080fd5b506101c2610425366004611f5b565b610ca4565b34801561043657600080fd5b506101e6600081565b34801561044b57600080fd5b5061045f61045a366004611f7d565b611111565b6040516101999190612041565b34801561047857600080fd5b5061049d604051806040016040528060058152602001640352e302e360dc1b81525081565b60405161019991906120a5565b3480156104b657600080fd5b506101c26104c5366004611d7f565b61126f565b3480156104d657600080fd5b506101c26104e5366004611d66565b61128b565b3480156104f657600080fd5b50600254610254906001600160a01b031681565b34801561051657600080fd5b506101e660035481565b34801561052c57600080fd5b506101e660008051602061245083398151915281565b34801561054e57600080fd5b506101c261055d366004611eeb565b6112df565b34801561056e57600080fd5b506101c261057d366004611eeb565b61131a565b60006001600160e01b03198216637965db0b60e01b14806105b357506301ffc9a760e01b6001600160e01b03198316145b92915050565b60006105c36113e7565b805490915060ff600160401b82041615906001600160401b03166000811580156105ea5750825b90506000826001600160401b031660011480156106065750303b155b905081158015610614575080155b156106325760405163f92ee8a960e01b815260040160405180910390fd5b84546001600160401b0319166001178555831561065b57845460ff60401b1916600160401b1785555b61066361140b565b61066b61140b565b610673611415565b61067b611425565b61068361140b565b600080546001600160a01b0319166001600160a01b038a1617815560038790556106bc9060008051602061245083398151915290611435565b6106c7600088611495565b506106e060008051602061245083398151915288611495565b50831561072757845460ff60401b19168555604051600181527fc7f505b2f371ae2175ee4913f4499e1f2633a7b5936321eed1cdaeb6115181d29060200160405180910390a15b5050505050505050565b60008061073c611537565b60009384526020525050604090206001015490565b61075a82610731565b6107638161155b565b61076d8383611495565b50505050565b61077b611565565b6001600160a01b0316816001600160a01b0316146107ac5760405163334bd91960e11b815260040160405180910390fd5b6107b68282611574565b505050565b6000805160206124508339815191526107d38161155b565b6107db61160a565b50565b6107e6611667565b6107ef8261170c565b6107f98282611717565b5050565b60006108076117d4565b5060008051602061241083398151915290565b6000610824610b2c565b6001600160a01b0316826001600160a01b0316149050919050565b60008061084a61181d565b5460ff1692915050565b61085c611841565b610864611877565b61086d8261189d565b61088a576040516305d06f5560e51b815260040160405180910390fd5b60035434908110156108af5760405163a8ded35f60e01b815260040160405180910390fd5b6001600160a01b0382166108d657604051634e46966960e11b815260040160405180910390fd5b60015460405163e6ef675b60e01b8152600481018590526001600160a01b039091169063e6ef675b90602401600060405180830381600087803b15801561091c57600080fd5b505af1158015610930573d6000803e3d6000fd5b50506001546040516350d211cd60e11b815260048101879052600093506001600160a01b03909116915063a1a4239a90602401602060405180830381865afa158015610980573d6000803e3d6000fd5b505050506040513d601f19601f820116820180604052508101906109a491906120b8565b90506000670de0b6b3a76400006109bb84846120e7565b6109c591906120fe565b6001600160a01b03851660009081526006602090815260408083208984529091528120805492935083929091906109fd908490612120565b90915550610a0e9050600485611935565b5060018054604051636f11853360e11b81526001600160a01b039091169163de230a6691610a4491899186918991600401612133565b600060405180830381600087803b158015610a5e57600080fd5b505af1158015610a72573d6000803e3d6000fd5b5050600254604051600093506001600160a01b03909116915085908381818185875af1925050503d8060008114610ac5576040519150601f19603f3d011682016040523d82523d6000602084013e610aca565b606091505b5050905080610aec576040516312171d8360e31b815260040160405180910390fd5b60408051858152602081018490526001600160a01b0387169188916000805160206123f0833981519152910160405180910390a3505050506107f9611951565b6000546001600160a01b031690565b600080516020612450833981519152610b538161155b565b6107db611962565b600080516020612450833981519152610b738161155b565b6001600160a01b0382161580610b9657506002546001600160a01b038381169116145b15610bb45760405163e6c4247b60e01b815260040160405180910390fd5b50600280546001600160a01b0319166001600160a01b0392909216919091179055565b600080610be2611537565b6000948552602090815260408086206001600160a01b03959095168652939052505090205460ff1690565b610c15611841565b610c1d611877565b600080516020612430833981519152610c358161155b565b6001600160a01b03831660009081526006602090815260408083208784529091529020829055610c66600484611935565b5060408051838152602081018490526001600160a01b0385169186916000805160206123f0833981519152910160405180910390a3506107b6611951565b610cac611841565b610cb4611877565b600060066000610cc2611565565b6001600160a01b03168152602080820192909252604090810160009081208682529092529020549050801580610cf6575081155b15610d145760405163162908e360e11b815260040160405180910390fd5b600154604051636331883b60e01b8152600481018590526000916001600160a01b031690636331883b90602401600060405180830381865afa158015610d5e573d6000803e3d6000fd5b505050506040513d6000823e601f3d908101601f19168201604052610d8691908101906121bc565b6001546040516350d211cd60e11b8152600481018790529192506000916001600160a01b039091169063a1a4239a90602401602060405180830381865afa158015610dd5573d6000803e3d6000fd5b505050506040513d601f19601f82011682018060405250810190610df991906120b8565b60015460405163e6ef675b60e01b8152600481018890529192506001600160a01b03169063e6ef675b90602401600060405180830381600087803b158015610e4057600080fd5b505af1158015610e54573d6000803e3d6000fd5b50505050610e60611565565b6001600160a01b031682602001516001600160a01b031603610f40576000670de0b6b3a7640000600160009054906101000a90046001600160a01b03166001600160a01b031663dccca2996040518163ffffffff1660e01b8152600401602060405180830381865afa158015610eda573d6000803e3d6000fd5b505050506040513d601f19601f82011682018060405250810190610efe91906120b8565b610f0890846120e7565b610f1291906120fe565b905080610f1f868661228d565b1015610f3e5760405163232a417b60e11b815260040160405180910390fd5b505b600081610f5586670de0b6b3a76400006120e7565b610f5f91906120fe565b90508460066000610f6e611565565b6001600160a01b03168152602080820192909252604090810160009081208a825290925281208054909190610fa490849061228d565b9091555050600154604051636f11853360e11b81526001600160a01b039091169063de230a6690610fe090899089908690600090600401612133565b600060405180830381600087803b158015610ffa57600080fd5b505af115801561100e573d6000803e3d6000fd5b5050600254600092506001600160a01b0316905063117511c961102f611565565b846040518363ffffffff1660e01b815260040161104d9291906122a0565b6020604051808303816000875af115801561106c573d6000803e3d6000fd5b505050506040513d601f19601f8201168201806040525081019061109091906122b9565b9050806110b0576040516312171d8360e31b815260040160405180910390fd5b6110b8611565565b6001600160a01b0316877fffdaf13b1d96bfc2213355f353f84c19493e0681eb0df26f83d862acd266750a84896040516110fc929190918252602082015260400190565b60405180910390a350505050506107f9611951565b6060600061111d611565565b6001600160a01b0316336001600160a01b0316146111885760003661114360148261228d565b61114e9282906122db565b8080601f01602080910402602001604051908101604052809392919081815260200183838082843760009201919091525061119892505050565b6040805160008152602081019091525b9050826001600160401b038111156111b2576111b2611dc3565b6040519080825280602002602001820160405280156111e557816020015b60608152602001906001900390816111d05790505b50915060005b83811015611267576112423086868481811061120957611209612305565b905060200281019061121b919061231b565b8560405160200161122e93929190612368565b6040516020818303038152906040526119aa565b83828151811061125457611254612305565b60209081029190910101526001016111eb565b505092915050565b61127882610731565b6112818161155b565b61076d8383611574565b6000805160206124508339815191526112a38161155b565b60038290556040518281527f47ab46f2c8d4258304a2f5551c1cbdb6981be49631365d1ba7191288a73f39ef9060200160405180910390a15050565b6000805160206124508339815191526112f78161155b565b50600080546001600160a01b0319166001600160a01b0392909216919091179055565b6000805160206124508339815191526113328161155b565b6001600160a01b038216158061135557506001546001600160a01b038381169116145b156113735760405163e6c4247b60e01b815260040160405180910390fd5b6001546001600160a01b0316156113ab576001546113a990600080516020612430833981519152906001600160a01b0316611574565b505b6113c360008051602061243083398151915283611495565b5050600180546001600160a01b0319166001600160a01b0392909216919091179055565b7ff0c57e16840df040f15088dc2f81fe391c3923bec73e23a9662efc9c229c6a0090565b611413611a20565b565b61141d611a20565b611413611a45565b61142d611a20565b611413611a62565b600061143f611537565b9050600061144c84610731565b600085815260208490526040808220600101869055519192508491839187917fbd79b86ffe0ab8e8776151514217cd7cacd52c909f66475c3af44e129f0b00ff9190a450505050565b6000806114a0611537565b90506114ac8484610bd7565b61152d576000848152602082815260408083206001600160a01b03871684529091529020805460ff191660011790556114e3611565565b6001600160a01b0316836001600160a01b0316857f2f8788117e7eff1d82e926ec794901d17c78024a50270940304540a733656f0d60405160405180910390a460019150506105b3565b60009150506105b3565b7f02dd7bc7dec4dceedda775e58dd541e08a116c6c53815c0bd028192f7b62680090565b6107db8133611a6a565b600061156f611a95565b905090565b60008061157f611537565b905061158b8484610bd7565b1561152d576000848152602082815260408083206001600160a01b03871684529091529020805460ff191690556115c0611565565b6001600160a01b0316836001600160a01b0316857ff6391f5c32d9c69d2a47ea670b442974b53935d1edc7fd64eb21e047a839171b60405160405180910390a460019150506105b3565b611612611ae7565b600061161c61181d565b805460ff1916815590507f5db9ee0a495bf2e6ff9c91a7834c1ba4fdd244a5e8aa4e537bd38aeae4b073aa61164f611565565b60405161165c9190611daf565b60405180910390a150565b306001600160a01b037f00000000000000000000000000000000000000000000000000000000000000001614806116ee57507f00000000000000000000000000000000000000000000000000000000000000006001600160a01b03166116e2600080516020612410833981519152546001600160a01b031690565b6001600160a01b031614155b156114135760405163703e46dd60e11b815260040160405180910390fd5b60006107f98161155b565b816001600160a01b03166352d1902d6040518163ffffffff1660e01b8152600401602060405180830381865afa925050508015611771575060408051601f3d908101601f1916820190925261176e918101906120b8565b60015b6117995781604051634c9c8ce360e01b81526004016117909190611daf565b60405180910390fd5b60008051602061241083398151915281146117ca57604051632a87526960e21b815260048101829052602401611790565b6107b68383611b0c565b306001600160a01b037f000000000000000000000000000000000000000000000000000000000000000016146114135760405163703e46dd60e11b815260040160405180910390fd5b7fcd5ed15c6e187e77e9aee88184c21f4f2182ab5827cb3b7e07fbedcd63f0330090565b600061184b611b62565b80549091506001190161187157604051633ee5aeb560e01b815260040160405180910390fd5b60029055565b61187f61083f565b156114135760405163d93c066560e01b815260040160405180910390fd5b600154604051636331883b60e01b81526004810183905260009182916001600160a01b0390911690636331883b90602401600060405180830381865afa1580156118eb573d6000803e3d6000fd5b505050506040513d6000823e601f3d908101601f1916820160405261191391908101906121bc565b905060018160400151600281111561192d5761192d61238f565b149392505050565b600061194a836001600160a01b038416611b86565b9392505050565b600061195b611b62565b6001905550565b61196a611877565b600061197461181d565b805460ff1916600117815590507f62e78cea01bee320cd4e420270b5ea74000d11b0c9f74754ebdbfc544b05a25861164f611565565b6060600080846001600160a01b0316846040516119c791906123a5565b600060405180830381855af49150503d8060008114611a02576040519150601f19603f3d011682016040523d82523d6000602084013e611a07565b606091505b5091509150611a17858383611bd5565b95945050505050565b611a28611c28565b61141357604051631afcd79f60e31b815260040160405180910390fd5b611a4d611a20565b6000611a5761181d565b805460ff1916905550565b611951611a20565b611a748282610bd7565b6107f957808260405163e2517d3f60e01b81526004016117909291906122a0565b6000366014611aa33361081a565b8015611aaf5750808210155b15611adf57600036611ac1838561228d565b611acc9282906122db565b611ad5916123c1565b60601c9250505090565b339250505090565b611aef61083f565b61141357604051638dfc202b60e01b815260040160405180910390fd5b611b1582611c42565b6040516001600160a01b038316907fbc7cd75a20ee27fd9adebab32041f755214dbc6bffa90cc0225b39da2e5c2d3b90600090a2805115611b5a576107b682826119aa565b6107f9611c9e565b7f9b779b17422d0df92223018b32b4d1fa46e071723d6817e2486d003becc55f0090565b6000818152600183016020526040812054611bcd575081546001818101845560008481526020808220909301849055845484825282860190935260409020919091556105b3565b5060006105b3565b606082611bea57611be582611cbd565b61194a565b8151158015611c0157506001600160a01b0384163b155b15611c215783604051639996b31560e01b81526004016117909190611daf565b5092915050565b6000611c326113e7565b54600160401b900460ff16919050565b806001600160a01b03163b600003611c6f5780604051634c9c8ce360e01b81526004016117909190611daf565b60008051602061241083398151915280546001600160a01b0319166001600160a01b0392909216919091179055565b34156114135760405163b398979f60e01b815260040160405180910390fd5b805115611ccd5780518082602001fd5b604051630a12f52160e11b815260040160405180910390fd5b600060208284031215611cf857600080fd5b81356001600160e01b03198116811461194a57600080fd5b6001600160a01b03811681146107db57600080fd5b600080600060608486031215611d3a57600080fd5b8335611d4581611d10565b92506020840135611d5581611d10565b929592945050506040919091013590565b600060208284031215611d7857600080fd5b5035919050565b60008060408385031215611d9257600080fd5b823591506020830135611da481611d10565b809150509250929050565b6001600160a01b0391909116815260200190565b634e487b7160e01b600052604160045260246000fd5b60405161012081016001600160401b0381118282101715611dfc57611dfc611dc3565b60405290565b604051601f8201601f191681016001600160401b0381118282101715611e2a57611e2a611dc3565b604052919050565b60006001600160401b03821115611e4b57611e4b611dc3565b50601f01601f191660200190565b60008060408385031215611e6c57600080fd5b8235611e7781611d10565b915060208301356001600160401b03811115611e9257600080fd5b8301601f81018513611ea357600080fd5b8035611eb6611eb182611e32565b611e02565b818152866020838501011115611ecb57600080fd5b816020840160208301376000602083830101528093505050509250929050565b600060208284031215611efd57600080fd5b813561194a81611d10565b600080600060608486031215611f1d57600080fd5b833592506020840135611d5581611d10565b60008060408385031215611f4257600080fd5b8235611f4d81611d10565b946020939093013593505050565b60008060408385031215611f6e57600080fd5b50508035926020909101359150565b60008060208385031215611f9057600080fd5b82356001600160401b0380821115611fa757600080fd5b818501915085601f830112611fbb57600080fd5b813581811115611fca57600080fd5b8660208260051b8501011115611fdf57600080fd5b60209290920196919550909350505050565b60005b8381101561200c578181015183820152602001611ff4565b50506000910152565b6000815180845261202d816020860160208601611ff1565b601f01601f19169290920160200192915050565b600060208083016020845280855180835260408601915060408160051b87010192506020870160005b8281101561209857603f19888603018452612086858351612015565b9450928501929085019060010161206a565b5092979650505050505050565b60208152600061194a6020830184612015565b6000602082840312156120ca57600080fd5b5051919050565b634e487b7160e01b600052601160045260246000fd5b80820281158282048414176105b3576105b36120d1565b60008261211b57634e487b7160e01b600052601260045260246000fd5b500490565b808201808211156105b3576105b36120d1565b938452602084019290925260408301521515606082015260800190565b805161215b81611d10565b919050565b80516003811061215b57600080fd5b600082601f83011261218057600080fd5b815161218e611eb182611e32565b8181528460208386010111156121a357600080fd5b6121b4826020830160208701611ff1565b949350505050565b6000602082840312156121ce57600080fd5b81516001600160401b03808211156121e557600080fd5b9083019061012082860312156121fa57600080fd5b612202611dd9565b8251815261221260208401612150565b602082015261222360408401612160565b604082015260608301518281111561223a57600080fd5b6122468782860161216f565b6060830152506080830151608082015260a083015160a082015260c083015160c082015260e083015160e08201526101009150818301518282015280935050505092915050565b818103818111156105b3576105b36120d1565b6001600160a01b03929092168252602082015260400190565b6000602082840312156122cb57600080fd5b8151801515811461194a57600080fd5b600080858511156122eb57600080fd5b838611156122f857600080fd5b5050820193919092039150565b634e487b7160e01b600052603260045260246000fd5b6000808335601e1984360301811261233257600080fd5b8301803591506001600160401b0382111561234c57600080fd5b60200191503681900382131561236157600080fd5b9250929050565b828482376000838201600081528351612385818360208801611ff1565b0195945050505050565b634e487b7160e01b600052602160045260246000fd5b600082516123b7818460208701611ff1565b9190910192915050565b6001600160601b031981358181169160148510156112675760149490940360031b84901b169092169291505056fe17700ceb1658b18206f427c1578048e87504106b14ec69e9b4586d9a95174a32360894a13ba1a3210667c828492db98dca3e2076cc3735a920a3ca505d382bbc4a9e0bcfdcf4f0a437aa6573b8f27b9835c3d0b1ea993474026f6c41467c1b64339759585899103d2ace64958e37e18ccb0504652c81d4a1b8aa80fe2126ab95a2646970667358221220916bd8ebf965a2bef2052bdd0b59ff32588f48cbdd2c5e287af2cfa1494aafee64736f6c63430008180033",
  "devdoc": {
    "errors": {
      "AccessControlBadConfirmation()": [
        {
          "details": "The caller of a function is not the expected one. NOTE: Don't confuse with {AccessControlUnauthorizedAccount}."
        }
      ],
      "AccessControlUnauthorizedAccount(address,bytes32)": [
        {
          "details": "The `account` is missing a role."
        }
      ],
      "AddressEmptyCode(address)": [
        {
          "details": "There's no code at `target` (it is not a contract)."
        }
      ],
      "ERC1967InvalidImplementation(address)": [
        {
          "details": "The `implementation` of the proxy is invalid."
        }
      ],
      "ERC1967NonPayable()": [
        {
          "details": "An upgrade function sees `msg.value > 0` that may be lost."
        }
      ],
      "EnforcedPause()": [
        {
          "details": "The operation failed because the contract is paused."
        }
      ],
      "ExpectedPause()": [
        {
          "details": "The operation failed because the contract is not paused."
        }
      ],
      "FailedInnerCall()": [
        {
          "details": "A call to an address target failed. The target may have reverted."
        }
      ],
      "InvalidInitialization()": [
        {
          "details": "The contract is already initialized."
        }
      ],
      "NotInitializing()": [
        {
          "details": "The contract is not initializing."
        }
      ],
      "ReentrancyGuardReentrantCall()": [
        {
          "details": "Unauthorized reentrant call."
        }
      ],
      "UUPSUnauthorizedCallContext()": [
        {
          "details": "The call is from an unauthorized context."
        }
      ],
      "UUPSUnsupportedProxiableUUID(bytes32)": [
        {
          "details": "The storage `slot` is unsupported as a UUID."
        }
      ]
    },
    "events": {
      "EntityStakeRegistered(uint256,address)": {
        "params": {
          "entityId": "ID of the entity",
          "ownerAddress": "address of the owner"
        }
      },
      "Initialized(uint64)": {
        "details": "Triggered when the contract has been initialized or reinitialized."
      },
      "MinStakeUpdated(uint256)": {
        "params": {
          "newMinStake": "new minimum stake amount"
        }
      },
      "Paused(address)": {
        "details": "Emitted when the pause is triggered by `account`."
      },
      "RoleAdminChanged(bytes32,bytes32,bytes32)": {
        "details": "Emitted when `newAdminRole` is set as ``role``'s admin role, replacing `previousAdminRole` `DEFAULT_ADMIN_ROLE` is the starting admin for all roles, despite {RoleAdminChanged} not being emitted signaling this."
      },
      "RoleGranted(bytes32,address,address)": {
        "details": "Emitted when `account` is granted `role`. `sender` is the account that originated the contract call, an admin role bearer except when using {AccessControl-_setupRole}."
      },
      "RoleRevoked(bytes32,address,address)": {
        "details": "Emitted when `account` is revoked `role`. `sender` is the account that originated the contract call:   - if using `revokeRole`, it is the admin role bearer   - if using `renounceRole`, it is the role bearer (i.e. `account`)"
      },
      "Staked(uint256,address,uint256,uint256)": {
        "params": {
          "amount": "amount staked",
          "entityId": "ID of the entity",
          "sharesIssued": "shares issued",
          "staker": "address of the staker"
        }
      },
      "Unpaused(address)": {
        "details": "Emitted when the pause is lifted by `account`."
      },
      "Unstaked(uint256,address,uint256,uint256)": {
        "params": {
          "amount": "amount unstaked",
          "entityId": "ID of the entity",
          "sharesBurned": "shares burned",
          "staker": "address of the staker"
        }
      },
      "Upgraded(address)": {
        "details": "Emitted when the implementation is upgraded."
      }
    },
    "kind": "dev",
    "methods": {
      "constructor": {
        "custom:oz-upgrades-unsafe-allow": "constructor"
      },
      "getRoleAdmin(bytes32)": {
        "details": "Returns the admin role that controls `role`. See {grantRole} and {revokeRole}. To change a role's admin, use {_setRoleAdmin}."
      },
      "grantRole(bytes32,address)": {
        "details": "Grants `role` to `account`. If `account` had not been already granted `role`, emits a {RoleGranted} event. Requirements: - the caller must have ``role``'s admin role. May emit a {RoleGranted} event."
      },
      "hasRole(bytes32,address)": {
        "details": "Returns `true` if `account` has been granted `role`."
      },
      "initialize(address,address,uint256)": {
        "params": {
          "initialMinStake": "initial minimum stake amount (in wei)",
          "ownerAddress": "address of the owner",
          "trustedForwarderAddress": "address of the trusted forwarder"
        }
      },
      "isTrustedForwarder(address)": {
        "details": "Indicates whether any particular address is the trusted forwarder."
      },
      "multicall(bytes[])": {
        "custom:oz-upgrades-unsafe-allow-reachable": "delegatecall",
        "details": "Receives and executes a batch of function calls on this contract."
      },
      "pause()": {
        "details": "Pauses the contract"
      },
      "paused()": {
        "details": "Returns true if the contract is paused, and false otherwise."
      },
      "proxiableUUID()": {
        "details": "Implementation of the ERC1822 {proxiableUUID} function. This returns the storage slot used by the implementation. It is used to validate the implementation's compatibility when performing an upgrade. IMPORTANT: A proxy pointing at a proxiable contract should not be considered proxiable itself, because this risks bricking a proxy that upgrades to it, by delegating to itself until out of gas. Thus it is critical that this function revert if invoked through a proxy. This is guaranteed by the `notDelegated` modifier."
      },
      "registerEntityStake(uint256,address,uint256)": {
        "params": {
          "entityId": "ID of the entity",
          "ownerAddress": "Address of the entity owner"
        }
      },
      "renounceRole(bytes32,address)": {
        "details": "Revokes `role` from the calling account. Roles are often managed via {grantRole} and {revokeRole}: this function's purpose is to provide a mechanism for accounts to lose their privileges if they are compromised (such as when a trusted device is misplaced). If the calling account had been revoked `role`, emits a {RoleRevoked} event. Requirements: - the caller must be `callerConfirmation`. May emit a {RoleRevoked} event."
      },
      "revokeRole(bytes32,address)": {
        "details": "Revokes `role` from `account`. If `account` had been granted `role`, emits a {RoleRevoked} event. Requirements: - the caller must have ``role``'s admin role. May emit a {RoleRevoked} event."
      },
      "stake(uint256,address)": {
        "params": {
          "entityId": "ID of the entity to stake into",
          "recipient": "Address of the recipient who will receive the stake"
        }
      },
      "stakerEntities(address,uint256)": {
        "params": {
          "entityId": "ID of the entity",
          "staker": "address of the staker"
        },
        "returns": {
          "_0": "uint256                         shares owned by staker in the entity"
        }
      },
      "supportsInterface(bytes4)": {
        "details": "See {IERC165-supportsInterface}."
      },
      "trustedForwarder()": {
        "details": "Returns the address of the trusted forwarder."
      },
      "unpause()": {
        "details": "Unpauses the contract"
      },
      "unstake(uint256,uint256)": {
        "params": {
          "entityId": "ID of the entity to unstake from",
          "shareAmount": "shareAmount to unstake"
        }
      },
      "updateMinStakeAmount(uint256)": {
        "params": {
          "newMinStake": "new minimum stake amount in wei"
        }
      },
      "updateTrustedForwarder(address)": {
        "params": {
          "trustedForwarderAddress": "address of the trusted forwarder"
        }
      },
      "updateVanaPoolEntity(address)": {
        "params": {
          "newVanaPoolEntityAddress": "new VanaPoolEntity contract address"
        }
      },
      "updateVanaPoolTreasury(address)": {
        "params": {
          "newVanaPoolTreasuryAddress": "new VanaPoolTreasury contract address"
        }
      },
      "upgradeToAndCall(address,bytes)": {
        "custom:oz-upgrades-unsafe-allow-reachable": "delegatecall",
        "details": "Upgrade the implementation of the proxy to `newImplementation`, and subsequently execute the function call encoded in `data`. Calls {_authorizeUpgrade}. Emits an {Upgraded} event."
      }
    },
    "version": 1
  },
  "userdoc": {
    "events": {
      "EntityStakeRegistered(uint256,address)": {
        "notice": "Triggered when an entity stake is registered"
      },
      "MinStakeUpdated(uint256)": {
        "notice": "Triggered when minimum stake amount is updated"
      },
      "Staked(uint256,address,uint256,uint256)": {
        "notice": "Triggered when a user stakes VANA to an entity"
      },
      "Unstaked(uint256,address,uint256,uint256)": {
        "notice": "Triggered when a user unstakes VANA from an entity"
      }
    },
    "kind": "user",
    "methods": {
      "initialize(address,address,uint256)": {
        "notice": "Initialize the contract"
      },
      "registerEntityStake(uint256,address,uint256)": {
        "notice": "Register stake for a new entity (called by VanaPoolEntity contract)"
      },
      "stake(uint256,address)": {
        "notice": "Stake VANA into a specific entity and allocate it to a recipient"
      },
      "stakerEntities(address,uint256)": {
        "notice": "Returns staker info for a specific entity"
      },
      "unstake(uint256,uint256)": {
        "notice": "Unstake VANA from a specific entity"
      },
      "updateMinStakeAmount(uint256)": {
        "notice": "Updates the minimum stake amount"
      },
      "updateTrustedForwarder(address)": {
        "notice": "Update the trusted forwarder"
      },
      "updateVanaPoolEntity(address)": {
        "notice": "Update the VanaPoolEntity contract address"
      },
      "updateVanaPoolTreasury(address)": {
        "notice": "Update the VanaPoolTreasury contract"
      },
      "version()": {
        "notice": "Returns the version of the contract"
      }
    },
    "version": 1
  },
  "storageLayout": {
    "storage": [
      {
        "astId": 3688,
        "contract": "contracts/vanaPool/VanaPoolImplementation.sol:VanaPoolImplementation",
        "label": "_trustedForwarder",
        "offset": 0,
        "slot": "0",
        "type": "t_address"
      },
      {
        "astId": 3692,
        "contract": "contracts/vanaPool/VanaPoolImplementation.sol:VanaPoolImplementation",
        "label": "vanaPoolEntity",
        "offset": 0,
        "slot": "1",
        "type": "t_contract(IVanaPoolEntity)4987"
      },
      {
        "astId": 3696,
        "contract": "contracts/vanaPool/VanaPoolImplementation.sol:VanaPoolImplementation",
        "label": "vanaPoolTreasury",
        "offset": 0,
        "slot": "2",
        "type": "t_contract(IVanaPoolTreasury)5060"
      },
      {
        "astId": 3699,
        "contract": "contracts/vanaPool/VanaPoolImplementation.sol:VanaPoolImplementation",
        "label": "minStakeAmount",
        "offset": 0,
        "slot": "3",
        "type": "t_uint256"
      },
      {
        "astId": 3702,
        "contract": "contracts/vanaPool/VanaPoolImplementation.sol:VanaPoolImplementation",
        "label": "_stakersList",
        "offset": 0,
        "slot": "4",
        "type": "t_struct(AddressSet)2546_storage"
      },
      {
        "astId": 3707,
        "contract": "contracts/vanaPool/VanaPoolImplementation.sol:VanaPoolImplementation",
        "label": "_stakers",
        "offset": 0,
        "slot": "6",
        "type": "t_mapping(t_address,t_struct(Staker)3602_storage)"
      }
    ],
    "types": {
      "t_address": {
        "encoding": "inplace",
        "label": "address",
        "numberOfBytes": "20"
      },
      "t_array(t_bytes32)dyn_storage": {
        "base": "t_bytes32",
        "encoding": "dynamic_array",
        "label": "bytes32[]",
        "numberOfBytes": "32"
      },
      "t_bytes32": {
        "encoding": "inplace",
        "label": "bytes32",
        "numberOfBytes": "32"
      },
      "t_contract(IVanaPoolEntity)4987": {
        "encoding": "inplace",
        "label": "contract IVanaPoolEntity",
        "numberOfBytes": "20"
      },
      "t_contract(IVanaPoolTreasury)5060": {
        "encoding": "inplace",
        "label": "contract IVanaPoolTreasury",
        "numberOfBytes": "20"
      },
      "t_mapping(t_address,t_struct(Staker)3602_storage)": {
        "encoding": "mapping",
        "key": "t_address",
        "label": "mapping(address => struct IVanaPool.Staker)",
        "numberOfBytes": "32",
        "value": "t_struct(Staker)3602_storage"
      },
      "t_mapping(t_bytes32,t_uint256)": {
        "encoding": "mapping",
        "key": "t_bytes32",
        "label": "mapping(bytes32 => uint256)",
        "numberOfBytes": "32",
        "value": "t_uint256"
      },
      "t_mapping(t_uint256,t_struct(StakerEntity)3596_storage)": {
        "encoding": "mapping",
        "key": "t_uint256",
        "label": "mapping(uint256 => struct IVanaPool.StakerEntity)",
        "numberOfBytes": "32",
        "value": "t_struct(StakerEntity)3596_storage"
      },
      "t_struct(AddressSet)2546_storage": {
        "encoding": "inplace",
        "label": "struct EnumerableSet.AddressSet",
        "members": [
          {
            "astId": 2545,
            "contract": "contracts/vanaPool/VanaPoolImplementation.sol:VanaPoolImplementation",
            "label": "_inner",
            "offset": 0,
            "slot": "0",
            "type": "t_struct(Set)2231_storage"
          }
        ],
        "numberOfBytes": "64"
      },
      "t_struct(Set)2231_storage": {
        "encoding": "inplace",
        "label": "struct EnumerableSet.Set",
        "members": [
          {
            "astId": 2226,
            "contract": "contracts/vanaPool/VanaPoolImplementation.sol:VanaPoolImplementation",
            "label": "_values",
            "offset": 0,
            "slot": "0",
            "type": "t_array(t_bytes32)dyn_storage"
          },
          {
            "astId": 2230,
            "contract": "contracts/vanaPool/VanaPoolImplementation.sol:VanaPoolImplementation",
            "label": "_positions",
            "offset": 0,
            "slot": "1",
            "type": "t_mapping(t_bytes32,t_uint256)"
          }
        ],
        "numberOfBytes": "64"
      },
      "t_struct(Staker)3602_storage": {
        "encoding": "inplace",
        "label": "struct IVanaPool.Staker",
        "members": [
          {
            "astId": 3601,
            "contract": "contracts/vanaPool/VanaPoolImplementation.sol:VanaPoolImplementation",
            "label": "entities",
            "offset": 0,
            "slot": "0",
            "type": "t_mapping(t_uint256,t_struct(StakerEntity)3596_storage)"
          }
        ],
        "numberOfBytes": "32"
      },
      "t_struct(StakerEntity)3596_storage": {
        "encoding": "inplace",
        "label": "struct IVanaPool.StakerEntity",
        "members": [
          {
            "astId": 3595,
            "contract": "contracts/vanaPool/VanaPoolImplementation.sol:VanaPoolImplementation",
            "label": "shares",
            "offset": 0,
            "slot": "0",
            "type": "t_uint256"
          }
        ],
        "numberOfBytes": "32"
      },
      "t_uint256": {
        "encoding": "inplace",
        "label": "uint256",
        "numberOfBytes": "32"
      }
    }
  }
}