{
  "address": "0xf4c1cc6e2336Da0c8cbCaBc09C49A1dAfB8da90f",
  "abi": [
    {
      "inputs": [],
      "stateMutability": "nonpayable",
      "type": "constructor"
    },
    {
      "inputs": [],
      "name": "AccessControlBadConfirmation",
      "type": "error"
    },
    {
      "inputs": [
        {
          "internalType": "address",
          "name": "account",
          "type": "address"
        },
        {
          "internalType": "bytes32",
          "name": "neededRole",
          "type": "bytes32"
        }
      ],
      "name": "AccessControlUnauthorizedAccount",
      "type": "error"
    },
    {
      "inputs": [
        {
          "internalType": "address",
          "name": "target",
          "type": "address"
        }
      ],
      "name": "AddressEmptyCode",
      "type": "error"
    },
    {
      "inputs": [],
      "name": "CheckpointUnorderedInsertion",
      "type": "error"
    },
    {
      "inputs": [],
      "name": "DLpAddressCannotBeChanged",
      "type": "error"
    },
    {
      "inputs": [
        {
          "internalType": "address",
          "name": "implementation",
          "type": "address"
        }
      ],
      "name": "ERC1967InvalidImplementation",
      "type": "error"
    },
    {
      "inputs": [],
      "name": "ERC1967NonPayable",
      "type": "error"
    },
    {
      "inputs": [],
      "name": "EnforcedPause",
      "type": "error"
    },
    {
      "inputs": [],
      "name": "EpochDlpScoreAlreadySaved",
      "type": "error"
    },
    {
      "inputs": [],
      "name": "EpochNotEnded",
      "type": "error"
    },
    {
      "inputs": [],
      "name": "ExpectedPause",
      "type": "error"
    },
    {
      "inputs": [],
      "name": "FailedInnerCall",
      "type": "error"
    },
    {
      "inputs": [],
      "name": "InvalidAddress",
      "type": "error"
    },
    {
      "inputs": [],
      "name": "InvalidDlpId",
      "type": "error"
    },
    {
      "inputs": [],
      "name": "InvalidDlpStatus",
      "type": "error"
    },
    {
      "inputs": [],
      "name": "InvalidInitialization",
      "type": "error"
    },
    {
      "inputs": [],
      "name": "InvalidParam",
      "type": "error"
    },
    {
      "inputs": [],
      "name": "InvalidStakeAmount",
      "type": "error"
    },
    {
      "inputs": [],
      "name": "InvalidStakersPercentage",
      "type": "error"
    },
    {
      "inputs": [],
      "name": "NotDlpOwner",
      "type": "error"
    },
    {
      "inputs": [],
      "name": "NotInitializing",
      "type": "error"
    },
    {
      "inputs": [],
      "name": "NotStakeOwner",
      "type": "error"
    },
    {
      "inputs": [],
      "name": "NothingToClaim",
      "type": "error"
    },
    {
      "inputs": [],
      "name": "ReentrancyGuardReentrantCall",
      "type": "error"
    },
    {
      "inputs": [
        {
          "internalType": "uint8",
          "name": "bits",
          "type": "uint8"
        },
        {
          "internalType": "uint256",
          "name": "value",
          "type": "uint256"
        }
      ],
      "name": "SafeCastOverflowedUintDowncast",
      "type": "error"
    },
    {
      "inputs": [],
      "name": "StakeAlreadyClosed",
      "type": "error"
    },
    {
      "inputs": [],
      "name": "StakeAlreadyWithdrawn",
      "type": "error"
    },
    {
      "inputs": [],
      "name": "StakeNotClosed",
      "type": "error"
    },
    {
      "inputs": [],
      "name": "StakeWithdrawalTooEarly",
      "type": "error"
    },
    {
      "inputs": [],
      "name": "TransferFailed",
      "type": "error"
    },
    {
      "inputs": [],
      "name": "UUPSUnauthorizedCallContext",
      "type": "error"
    },
    {
      "inputs": [
        {
          "internalType": "bytes32",
          "name": "slot",
          "type": "bytes32"
        }
      ],
      "name": "UUPSUnsupportedProxiableUUID",
      "type": "error"
    },
    {
      "anonymous": false,
      "inputs": [
        {
          "indexed": true,
          "internalType": "uint256",
          "name": "dlpId",
          "type": "uint256"
        }
      ],
      "name": "DlpBecameEligible",
      "type": "event"
    },
    {
      "anonymous": false,
      "inputs": [
        {
          "indexed": true,
          "internalType": "uint256",
          "name": "dlpId",
          "type": "uint256"
        }
      ],
      "name": "DlpDeregistered",
      "type": "event"
    },
    {
      "anonymous": false,
      "inputs": [
        {
          "indexed": false,
          "internalType": "uint256",
          "name": "newDlpEligibilityThreshold",
          "type": "uint256"
        }
      ],
      "name": "DlpEligibilityThresholdUpdated",
      "type": "event"
    },
    {
      "anonymous": false,
      "inputs": [
        {
          "indexed": true,
          "internalType": "uint256",
          "name": "dlpId",
          "type": "uint256"
        },
        {
          "indexed": true,
          "internalType": "address",
          "name": "dlpAddress",
          "type": "address"
        },
        {
          "indexed": false,
          "internalType": "address",
          "name": "ownerAddress",
          "type": "address"
        },
        {
          "indexed": false,
          "internalType": "address",
          "name": "treasuryAddress",
          "type": "address"
        },
        {
          "indexed": false,
          "internalType": "uint256",
          "name": "stakersPercentage",
          "type": "uint256"
        },
        {
          "indexed": false,
          "internalType": "string",
          "name": "name",
          "type": "string"
        },
        {
          "indexed": false,
          "internalType": "string",
          "name": "iconUrl",
          "type": "string"
        },
        {
          "indexed": false,
          "internalType": "string",
          "name": "website",
          "type": "string"
        },
        {
          "indexed": false,
          "internalType": "string",
          "name": "metadata",
          "type": "string"
        }
      ],
      "name": "DlpRegistered",
      "type": "event"
    },
    {
      "anonymous": false,
      "inputs": [
        {
          "indexed": false,
          "internalType": "uint256",
          "name": "newDlpSubEligibilityThreshold",
          "type": "uint256"
        }
      ],
      "name": "DlpSubEligibilityThresholdUpdated",
      "type": "event"
    },
    {
      "anonymous": false,
      "inputs": [
        {
          "indexed": true,
          "internalType": "uint256",
          "name": "dlpId",
          "type": "uint256"
        },
        {
          "indexed": true,
          "internalType": "address",
          "name": "dlpAddress",
          "type": "address"
        },
        {
          "indexed": false,
          "internalType": "address",
          "name": "ownerAddress",
          "type": "address"
        },
        {
          "indexed": false,
          "internalType": "address",
          "name": "treasuryAddress",
          "type": "address"
        },
        {
          "indexed": false,
          "internalType": "uint256",
          "name": "stakersPercentage",
          "type": "uint256"
        },
        {
          "indexed": false,
          "internalType": "string",
          "name": "name",
          "type": "string"
        },
        {
          "indexed": false,
          "internalType": "string",
          "name": "iconUrl",
          "type": "string"
        },
        {
          "indexed": false,
          "internalType": "string",
          "name": "website",
          "type": "string"
        },
        {
          "indexed": false,
          "internalType": "string",
          "name": "metadata",
          "type": "string"
        }
      ],
      "name": "DlpUpdated",
      "type": "event"
    },
    {
      "anonymous": false,
      "inputs": [
        {
          "indexed": false,
          "internalType": "uint256",
          "name": "newEligibleDlpsLimit",
          "type": "uint256"
        }
      ],
      "name": "EligibleDlpsLimitUpdated",
      "type": "event"
    },
    {
      "anonymous": false,
      "inputs": [
        {
          "indexed": false,
          "internalType": "uint256",
          "name": "epochId",
          "type": "uint256"
        }
      ],
      "name": "EpochCreated",
      "type": "event"
    },
    {
      "anonymous": false,
      "inputs": [
        {
          "indexed": true,
          "internalType": "uint256",
          "name": "epochId",
          "type": "uint256"
        },
        {
          "indexed": true,
          "internalType": "uint256",
          "name": "dlpId",
          "type": "uint256"
        },
        {
          "indexed": false,
          "internalType": "uint256",
          "name": "totalStakesScore",
          "type": "uint256"
        }
      ],
      "name": "EpochDlpScoreSaved",
      "type": "event"
    },
    {
      "anonymous": false,
      "inputs": [
        {
          "indexed": false,
          "internalType": "uint256",
          "name": "newEpochDlpsLimit",
          "type": "uint256"
        }
      ],
      "name": "EpochDlpsLimitUpdated",
      "type": "event"
    },
    {
      "anonymous": false,
      "inputs": [
        {
          "indexed": false,
          "internalType": "uint256",
          "name": "newEpochRewardAmount",
          "type": "uint256"
        }
      ],
      "name": "EpochRewardAmountUpdated",
      "type": "event"
    },
    {
      "anonymous": false,
      "inputs": [
        {
          "indexed": false,
          "internalType": "uint256",
          "name": "newEpochSize",
          "type": "uint256"
        }
      ],
      "name": "EpochSizeUpdated",
      "type": "event"
    },
    {
      "anonymous": false,
      "inputs": [
        {
          "indexed": false,
          "internalType": "uint64",
          "name": "version",
          "type": "uint64"
        }
      ],
      "name": "Initialized",
      "type": "event"
    },
    {
      "anonymous": false,
      "inputs": [
        {
          "indexed": false,
          "internalType": "uint256",
          "name": "newMaxDlpStakersPercentage",
          "type": "uint256"
        }
      ],
      "name": "MaxDlpStakersPercentageUpdated",
      "type": "event"
    },
    {
      "anonymous": false,
      "inputs": [
        {
          "indexed": false,
          "internalType": "uint256",
          "name": "newMinDlpRegistrationStake",
          "type": "uint256"
        }
      ],
      "name": "MinDlpRegistrationStakeUpdated",
      "type": "event"
    },
    {
      "anonymous": false,
      "inputs": [
        {
          "indexed": false,
          "internalType": "uint256",
          "name": "newMinDlpStakersPercentage",
          "type": "uint256"
        }
      ],
      "name": "MinDlpStakersPercentageUpdated",
      "type": "event"
    },
    {
      "anonymous": false,
      "inputs": [
        {
          "indexed": false,
          "internalType": "uint256",
          "name": "newMinStakeAmount",
          "type": "uint256"
        }
      ],
      "name": "MinStakeAmountUpdated",
      "type": "event"
    },
    {
      "anonymous": false,
      "inputs": [
        {
          "indexed": false,
          "internalType": "address",
          "name": "account",
          "type": "address"
        }
      ],
      "name": "Paused",
      "type": "event"
    },
    {
      "anonymous": false,
      "inputs": [
        {
          "indexed": false,
          "internalType": "uint256",
          "name": "newRewardClaimDelay",
          "type": "uint256"
        }
      ],
      "name": "RewardClaimDelayUpdated",
      "type": "event"
    },
    {
      "anonymous": false,
      "inputs": [
        {
          "indexed": true,
          "internalType": "bytes32",
          "name": "role",
          "type": "bytes32"
        },
        {
          "indexed": true,
          "internalType": "bytes32",
          "name": "previousAdminRole",
          "type": "bytes32"
        },
        {
          "indexed": true,
          "internalType": "bytes32",
          "name": "newAdminRole",
          "type": "bytes32"
        }
      ],
      "name": "RoleAdminChanged",
      "type": "event"
    },
    {
      "anonymous": false,
      "inputs": [
        {
          "indexed": true,
          "internalType": "bytes32",
          "name": "role",
          "type": "bytes32"
        },
        {
          "indexed": true,
          "internalType": "address",
          "name": "account",
          "type": "address"
        },
        {
          "indexed": true,
          "internalType": "address",
          "name": "sender",
          "type": "address"
        }
      ],
      "name": "RoleGranted",
      "type": "event"
    },
    {
      "anonymous": false,
      "inputs": [
        {
          "indexed": true,
          "internalType": "bytes32",
          "name": "role",
          "type": "bytes32"
        },
        {
          "indexed": true,
          "internalType": "address",
          "name": "account",
          "type": "address"
        },
        {
          "indexed": true,
          "internalType": "address",
          "name": "sender",
          "type": "address"
        }
      ],
      "name": "RoleRevoked",
      "type": "event"
    },
    {
      "anonymous": false,
      "inputs": [
        {
          "indexed": true,
          "internalType": "uint256",
          "name": "stakeId",
          "type": "uint256"
        }
      ],
      "name": "StakeClosed",
      "type": "event"
    },
    {
      "anonymous": false,
      "inputs": [
        {
          "indexed": false,
          "internalType": "uint256",
          "name": "stakeId",
          "type": "uint256"
        },
        {
          "indexed": true,
          "internalType": "address",
          "name": "staker",
          "type": "address"
        },
        {
          "indexed": true,
          "internalType": "uint256",
          "name": "dlpId",
          "type": "uint256"
        },
        {
          "indexed": false,
          "internalType": "uint256",
          "name": "amount",
          "type": "uint256"
        }
      ],
      "name": "StakeCreated",
      "type": "event"
    },
    {
      "anonymous": false,
      "inputs": [
        {
          "indexed": false,
          "internalType": "uint256",
          "name": "newStakeWithdrawalDelay",
          "type": "uint256"
        }
      ],
      "name": "StakeWithdrawalDelayUpdated",
      "type": "event"
    },
    {
      "anonymous": false,
      "inputs": [
        {
          "indexed": true,
          "internalType": "uint256",
          "name": "stakeId",
          "type": "uint256"
        }
      ],
      "name": "StakeWithdrawn",
      "type": "event"
    },
    {
      "anonymous": false,
      "inputs": [
        {
          "indexed": false,
          "internalType": "address",
          "name": "account",
          "type": "address"
        }
      ],
      "name": "Unpaused",
      "type": "event"
    },
    {
      "anonymous": false,
      "inputs": [
        {
          "indexed": true,
          "internalType": "address",
          "name": "implementation",
          "type": "address"
        }
      ],
      "name": "Upgraded",
      "type": "event"
    },
    {
      "inputs": [],
      "name": "DEFAULT_ADMIN_ROLE",
      "outputs": [
        {
          "internalType": "bytes32",
          "name": "",
          "type": "bytes32"
        }
      ],
      "stateMutability": "view",
      "type": "function"
    },
    {
      "inputs": [],
      "name": "MAINTAINER_ROLE",
      "outputs": [
        {
          "internalType": "bytes32",
          "name": "",
          "type": "bytes32"
        }
      ],
      "stateMutability": "view",
      "type": "function"
    },
    {
      "inputs": [],
      "name": "MANAGER_ROLE",
      "outputs": [
        {
          "internalType": "bytes32",
          "name": "",
          "type": "bytes32"
        }
      ],
      "stateMutability": "view",
      "type": "function"
    },
    {
      "inputs": [],
      "name": "UPGRADE_INTERFACE_VERSION",
      "outputs": [
        {
          "internalType": "string",
          "name": "",
          "type": "string"
        }
      ],
      "stateMutability": "view",
      "type": "function"
    },
    {
      "inputs": [
        {
          "internalType": "uint256",
          "name": "stakeId",
          "type": "uint256"
        }
      ],
      "name": "calculateStakeClaimableAmount",
      "outputs": [
        {
          "internalType": "uint256",
          "name": "",
          "type": "uint256"
        }
      ],
      "stateMutability": "nonpayable",
      "type": "function"
    },
    {
      "inputs": [
        {
          "internalType": "uint256",
          "name": "stakeAmount",
          "type": "uint256"
        },
        {
          "internalType": "uint256",
          "name": "stakeStartBlock",
          "type": "uint256"
        },
        {
          "internalType": "uint256",
          "name": "blockNumber",
          "type": "uint256"
        }
      ],
      "name": "calculateStakeScore",
      "outputs": [
        {
          "internalType": "uint256",
          "name": "",
          "type": "uint256"
        }
      ],
      "stateMutability": "view",
      "type": "function"
    },
    {
      "inputs": [
        {
          "internalType": "uint256",
          "name": "stakeId",
          "type": "uint256"
        },
        {
          "internalType": "uint256",
          "name": "lastEpochToClaim",
          "type": "uint256"
        }
      ],
      "name": "claimStakeRewardUntilEpoch",
      "outputs": [],
      "stateMutability": "nonpayable",
      "type": "function"
    },
    {
      "inputs": [
        {
          "internalType": "uint256[]",
          "name": "stakeIds",
          "type": "uint256[]"
        }
      ],
      "name": "claimStakesReward",
      "outputs": [],
      "stateMutability": "nonpayable",
      "type": "function"
    },
    {
      "inputs": [
        {
          "internalType": "uint256[]",
          "name": "stakeIds",
          "type": "uint256[]"
        }
      ],
      "name": "closeStakes",
      "outputs": [],
      "stateMutability": "nonpayable",
      "type": "function"
    },
    {
      "inputs": [],
      "name": "createEpochs",
      "outputs": [],
      "stateMutability": "nonpayable",
      "type": "function"
    },
    {
      "inputs": [
        {
          "internalType": "uint256",
          "name": "blockNumber",
          "type": "uint256"
        }
      ],
      "name": "createEpochsUntilBlockNumber",
      "outputs": [],
      "stateMutability": "nonpayable",
      "type": "function"
    },
    {
      "inputs": [
        {
          "internalType": "uint256",
          "name": "dlpId",
          "type": "uint256"
        }
      ],
      "name": "createStake",
      "outputs": [],
      "stateMutability": "payable",
      "type": "function"
    },
    {
      "inputs": [],
      "name": "daySize",
      "outputs": [
        {
          "internalType": "uint256",
          "name": "",
          "type": "uint256"
        }
      ],
      "stateMutability": "view",
      "type": "function"
    },
    {
      "inputs": [
        {
          "internalType": "uint256",
          "name": "dlpId",
          "type": "uint256"
        }
      ],
      "name": "deregisterDlp",
      "outputs": [],
      "stateMutability": "nonpayable",
      "type": "function"
    },
    {
      "inputs": [],
      "name": "dlpEligibilityThreshold",
      "outputs": [
        {
          "internalType": "uint256",
          "name": "",
          "type": "uint256"
        }
      ],
      "stateMutability": "view",
      "type": "function"
    },
    {
      "inputs": [
        {
          "internalType": "uint256",
          "name": "dlpId",
          "type": "uint256"
        },
        {
          "internalType": "uint256",
          "name": "epochId",
          "type": "uint256"
        }
      ],
      "name": "dlpEpochs",
      "outputs": [
        {
          "components": [
            {
              "internalType": "uint256",
              "name": "stakeAmount",
              "type": "uint256"
            },
            {
              "internalType": "bool",
              "name": "isTopDlp",
              "type": "bool"
            },
            {
              "internalType": "uint256",
              "name": "rewardAmount",
              "type": "uint256"
            },
            {
              "internalType": "uint256",
              "name": "stakersPercentage",
              "type": "uint256"
            },
            {
              "internalType": "uint256",
              "name": "totalStakesScore",
              "type": "uint256"
            },
            {
              "internalType": "bool",
              "name": "rewardClaimed",
              "type": "bool"
            }
          ],
          "internalType": "struct IDLPRoot.DlpEpochInfo",
          "name": "",
          "type": "tuple"
        }
      ],
      "stateMutability": "view",
      "type": "function"
    },
    {
      "inputs": [
        {
          "internalType": "address",
          "name": "dlpAddress",
          "type": "address"
        }
      ],
      "name": "dlpIds",
      "outputs": [
        {
          "internalType": "uint256",
          "name": "dlpId",
          "type": "uint256"
        }
      ],
      "stateMutability": "view",
      "type": "function"
    },
    {
      "inputs": [],
      "name": "dlpSubEligibilityThreshold",
      "outputs": [
        {
          "internalType": "uint256",
          "name": "",
          "type": "uint256"
        }
      ],
      "stateMutability": "view",
      "type": "function"
    },
    {
      "inputs": [
        {
          "internalType": "uint256",
          "name": "dlpId",
          "type": "uint256"
        }
      ],
      "name": "dlps",
      "outputs": [
        {
          "components": [
            {
              "internalType": "uint256",
              "name": "id",
              "type": "uint256"
            },
            {
              "internalType": "address",
              "name": "dlpAddress",
              "type": "address"
            },
            {
              "internalType": "address",
              "name": "ownerAddress",
              "type": "address"
            },
            {
              "internalType": "address",
              "name": "treasuryAddress",
              "type": "address"
            },
            {
              "internalType": "uint256",
              "name": "stakersPercentage",
              "type": "uint256"
            },
            {
              "internalType": "uint256",
              "name": "stakersPercentageEpoch",
              "type": "uint256"
            },
            {
              "internalType": "string",
              "name": "name",
              "type": "string"
            },
            {
              "internalType": "string",
              "name": "iconUrl",
              "type": "string"
            },
            {
              "internalType": "string",
              "name": "website",
              "type": "string"
            },
            {
              "internalType": "string",
              "name": "metadata",
              "type": "string"
            },
            {
              "internalType": "enum IDLPRoot.DlpStatus",
              "name": "status",
              "type": "uint8"
            },
            {
              "internalType": "uint256",
              "name": "registrationBlockNumber",
              "type": "uint256"
            },
            {
              "internalType": "uint256",
              "name": "stakeAmount",
              "type": "uint256"
            },
            {
              "internalType": "uint256[]",
              "name": "epochIds",
              "type": "uint256[]"
            }
          ],
          "internalType": "struct IDLPRoot.DlpInfo",
          "name": "",
          "type": "tuple"
        }
      ],
      "stateMutability": "view",
      "type": "function"
    },
    {
      "inputs": [
        {
          "internalType": "address",
          "name": "dlpAddress",
          "type": "address"
        }
      ],
      "name": "dlpsByAddress",
      "outputs": [
        {
          "components": [
            {
              "internalType": "uint256",
              "name": "id",
              "type": "uint256"
            },
            {
              "internalType": "address",
              "name": "dlpAddress",
              "type": "address"
            },
            {
              "internalType": "address",
              "name": "ownerAddress",
              "type": "address"
            },
            {
              "internalType": "address",
              "name": "treasuryAddress",
              "type": "address"
            },
            {
              "internalType": "uint256",
              "name": "stakersPercentage",
              "type": "uint256"
            },
            {
              "internalType": "uint256",
              "name": "stakersPercentageEpoch",
              "type": "uint256"
            },
            {
              "internalType": "string",
              "name": "name",
              "type": "string"
            },
            {
              "internalType": "string",
              "name": "iconUrl",
              "type": "string"
            },
            {
              "internalType": "string",
              "name": "website",
              "type": "string"
            },
            {
              "internalType": "string",
              "name": "metadata",
              "type": "string"
            },
            {
              "internalType": "enum IDLPRoot.DlpStatus",
              "name": "status",
              "type": "uint8"
            },
            {
              "internalType": "uint256",
              "name": "registrationBlockNumber",
              "type": "uint256"
            },
            {
              "internalType": "uint256",
              "name": "stakeAmount",
              "type": "uint256"
            },
            {
              "internalType": "uint256[]",
              "name": "epochIds",
              "type": "uint256[]"
            }
          ],
          "internalType": "struct IDLPRoot.DlpInfo",
          "name": "",
          "type": "tuple"
        }
      ],
      "stateMutability": "view",
      "type": "function"
    },
    {
      "inputs": [],
      "name": "dlpsCount",
      "outputs": [
        {
          "internalType": "uint256",
          "name": "",
          "type": "uint256"
        }
      ],
      "stateMutability": "view",
      "type": "function"
    },
    {
      "inputs": [],
      "name": "eligibleDlpsLimit",
      "outputs": [
        {
          "internalType": "uint256",
          "name": "",
          "type": "uint256"
        }
      ],
      "stateMutability": "view",
      "type": "function"
    },
    {
      "inputs": [
        {
          "internalType": "uint256",
          "name": "index",
          "type": "uint256"
        }
      ],
      "name": "eligibleDlpsListAt",
      "outputs": [
        {
          "internalType": "uint256",
          "name": "",
          "type": "uint256"
        }
      ],
      "stateMutability": "view",
      "type": "function"
    },
    {
      "inputs": [],
      "name": "eligibleDlpsListCount",
      "outputs": [
        {
          "internalType": "uint256",
          "name": "",
          "type": "uint256"
        }
      ],
      "stateMutability": "view",
      "type": "function"
    },
    {
      "inputs": [],
      "name": "eligibleDlpsListValues",
      "outputs": [
        {
          "internalType": "uint256[]",
          "name": "",
          "type": "uint256[]"
        }
      ],
      "stateMutability": "view",
      "type": "function"
    },
    {
      "inputs": [],
      "name": "epochDlpsLimit",
      "outputs": [
        {
          "internalType": "uint256",
          "name": "",
          "type": "uint256"
        }
      ],
      "stateMutability": "view",
      "type": "function"
    },
    {
      "inputs": [],
      "name": "epochRewardAmount",
      "outputs": [
        {
          "internalType": "uint256",
          "name": "",
          "type": "uint256"
        }
      ],
      "stateMutability": "view",
      "type": "function"
    },
    {
      "inputs": [],
      "name": "epochSize",
      "outputs": [
        {
          "internalType": "uint256",
          "name": "",
          "type": "uint256"
        }
      ],
      "stateMutability": "view",
      "type": "function"
    },
    {
      "inputs": [
        {
          "internalType": "uint256",
          "name": "epochId",
          "type": "uint256"
        }
      ],
      "name": "epochs",
      "outputs": [
        {
          "components": [
            {
              "internalType": "uint256",
              "name": "startBlock",
              "type": "uint256"
            },
            {
              "internalType": "uint256",
              "name": "endBlock",
              "type": "uint256"
            },
            {
              "internalType": "uint256",
              "name": "reward",
              "type": "uint256"
            },
            {
              "internalType": "bool",
              "name": "isFinalised",
              "type": "bool"
            },
            {
              "internalType": "uint256[]",
              "name": "dlpIds",
              "type": "uint256[]"
            }
          ],
          "internalType": "struct IDLPRoot.EpochInfo",
          "name": "",
          "type": "tuple"
        }
      ],
      "stateMutability": "view",
      "type": "function"
    },
    {
      "inputs": [],
      "name": "epochsCount",
      "outputs": [
        {
          "internalType": "uint256",
          "name": "",
          "type": "uint256"
        }
      ],
      "stateMutability": "view",
      "type": "function"
    },
    {
      "inputs": [
        {
          "internalType": "uint256[]",
          "name": "dlpIds",
          "type": "uint256[]"
        }
      ],
      "name": "estimatedDlpRewardPercentages",
      "outputs": [
        {
          "components": [
            {
              "internalType": "uint256",
              "name": "dlpId",
              "type": "uint256"
            },
            {
              "internalType": "uint256",
              "name": "APY",
              "type": "uint256"
            },
            {
              "internalType": "uint256",
              "name": "EPY",
              "type": "uint256"
            }
          ],
          "internalType": "struct IDLPRoot.DlpRewardApy[]",
          "name": "",
          "type": "tuple[]"
        }
      ],
      "stateMutability": "view",
      "type": "function"
    },
    {
      "inputs": [
        {
          "internalType": "bytes32",
          "name": "role",
          "type": "bytes32"
        }
      ],
      "name": "getRoleAdmin",
      "outputs": [
        {
          "internalType": "bytes32",
          "name": "",
          "type": "bytes32"
        }
      ],
      "stateMutability": "view",
      "type": "function"
    },
    {
      "inputs": [
        {
          "internalType": "bytes32",
          "name": "role",
          "type": "bytes32"
        },
        {
          "internalType": "address",
          "name": "account",
          "type": "address"
        }
      ],
      "name": "grantRole",
      "outputs": [],
      "stateMutability": "nonpayable",
      "type": "function"
    },
    {
      "inputs": [
        {
          "internalType": "bytes32",
          "name": "role",
          "type": "bytes32"
        },
        {
          "internalType": "address",
          "name": "account",
          "type": "address"
        }
      ],
      "name": "hasRole",
      "outputs": [
        {
          "internalType": "bool",
          "name": "",
          "type": "bool"
        }
      ],
      "stateMutability": "view",
      "type": "function"
    },
    {
      "inputs": [
        {
          "components": [
            {
              "internalType": "address",
              "name": "trustedForwarder",
              "type": "address"
            },
            {
              "internalType": "address payable",
              "name": "ownerAddress",
              "type": "address"
            },
            {
              "internalType": "uint256",
              "name": "eligibleDlpsLimit",
              "type": "uint256"
            },
            {
              "internalType": "uint256",
              "name": "epochDlpsLimit",
              "type": "uint256"
            },
            {
              "internalType": "uint256",
              "name": "minStakeAmount",
              "type": "uint256"
            },
            {
              "internalType": "uint256",
              "name": "minDlpStakersPercentage",
              "type": "uint256"
            },
            {
              "internalType": "uint256",
              "name": "maxDlpStakersPercentage",
              "type": "uint256"
            },
            {
              "internalType": "uint256",
              "name": "minDlpRegistrationStake",
              "type": "uint256"
            },
            {
              "internalType": "uint256",
              "name": "dlpEligibilityThreshold",
              "type": "uint256"
            },
            {
              "internalType": "uint256",
              "name": "dlpSubEligibilityThreshold",
              "type": "uint256"
            },
            {
              "internalType": "uint256",
              "name": "stakeWithdrawalDelay",
              "type": "uint256"
            },
            {
              "internalType": "uint256",
              "name": "rewardClaimDelay",
              "type": "uint256"
            },
            {
              "internalType": "uint256",
              "name": "startBlock",
              "type": "uint256"
            },
            {
              "internalType": "uint256",
              "name": "epochSize",
              "type": "uint256"
            },
            {
              "internalType": "uint256",
              "name": "daySize",
              "type": "uint256"
            },
            {
              "internalType": "uint256",
              "name": "epochRewardAmount",
              "type": "uint256"
            }
          ],
          "internalType": "struct DLPRootImplementation.InitParams",
          "name": "params",
          "type": "tuple"
        }
      ],
      "name": "initialize",
      "outputs": [],
      "stateMutability": "nonpayable",
      "type": "function"
    },
    {
      "inputs": [
        {
          "internalType": "address",
          "name": "forwarder",
          "type": "address"
        }
      ],
      "name": "isTrustedForwarder",
      "outputs": [
        {
          "internalType": "bool",
          "name": "",
          "type": "bool"
        }
      ],
      "stateMutability": "view",
      "type": "function"
    },
    {
      "inputs": [],
      "name": "maxDlpStakersPercentage",
      "outputs": [
        {
          "internalType": "uint256",
          "name": "",
          "type": "uint256"
        }
      ],
      "stateMutability": "view",
      "type": "function"
    },
    {
      "inputs": [],
      "name": "minDlpRegistrationStake",
      "outputs": [
        {
          "internalType": "uint256",
          "name": "",
          "type": "uint256"
        }
      ],
      "stateMutability": "view",
      "type": "function"
    },
    {
      "inputs": [],
      "name": "minDlpStakersPercentage",
      "outputs": [
        {
          "internalType": "uint256",
          "name": "",
          "type": "uint256"
        }
      ],
      "stateMutability": "view",
      "type": "function"
    },
    {
      "inputs": [],
      "name": "minStakeAmount",
      "outputs": [
        {
          "internalType": "uint256",
          "name": "",
          "type": "uint256"
        }
      ],
      "stateMutability": "view",
      "type": "function"
    },
    {
      "inputs": [
        {
          "internalType": "bytes[]",
          "name": "data",
          "type": "bytes[]"
        }
      ],
      "name": "multicall",
      "outputs": [
        {
          "internalType": "bytes[]",
          "name": "results",
          "type": "bytes[]"
        }
      ],
      "stateMutability": "nonpayable",
      "type": "function"
    },
    {
      "inputs": [
        {
          "components": [
            {
              "internalType": "uint256",
              "name": "epochId",
              "type": "uint256"
            },
            {
              "internalType": "uint256",
              "name": "dlpId",
              "type": "uint256"
            },
            {
              "internalType": "uint256",
              "name": "totalStakesScore",
              "type": "uint256"
            }
          ],
          "internalType": "struct IDLPRoot.EpochDlpsTotalStakesScore",
          "name": "stakeScore",
          "type": "tuple"
        }
      ],
      "name": "overrideEpochDlpsTotalStakesScore",
      "outputs": [],
      "stateMutability": "nonpayable",
      "type": "function"
    },
    {
      "inputs": [],
      "name": "pause",
      "outputs": [],
      "stateMutability": "nonpayable",
      "type": "function"
    },
    {
      "inputs": [],
      "name": "paused",
      "outputs": [
        {
          "internalType": "bool",
          "name": "",
          "type": "bool"
        }
      ],
      "stateMutability": "view",
      "type": "function"
    },
    {
      "inputs": [],
      "name": "proxiableUUID",
      "outputs": [
        {
          "internalType": "bytes32",
          "name": "",
          "type": "bytes32"
        }
      ],
      "stateMutability": "view",
      "type": "function"
    },
    {
      "inputs": [
        {
          "components": [
            {
              "internalType": "address",
              "name": "dlpAddress",
              "type": "address"
            },
            {
              "internalType": "address",
              "name": "ownerAddress",
              "type": "address"
            },
            {
              "internalType": "address payable",
              "name": "treasuryAddress",
              "type": "address"
            },
            {
              "internalType": "uint256",
              "name": "stakersPercentage",
              "type": "uint256"
            },
            {
              "internalType": "string",
              "name": "name",
              "type": "string"
            },
            {
              "internalType": "string",
              "name": "iconUrl",
              "type": "string"
            },
            {
              "internalType": "string",
              "name": "website",
              "type": "string"
            },
            {
              "internalType": "string",
              "name": "metadata",
              "type": "string"
            }
          ],
          "internalType": "struct IDLPRoot.DlpRegistration",
          "name": "registrationInfo",
          "type": "tuple"
        }
      ],
      "name": "registerDlp",
      "outputs": [],
      "stateMutability": "payable",
      "type": "function"
    },
    {
      "inputs": [
        {
          "internalType": "bytes32",
          "name": "role",
          "type": "bytes32"
        },
        {
          "internalType": "address",
          "name": "callerConfirmation",
          "type": "address"
        }
      ],
      "name": "renounceRole",
      "outputs": [],
      "stateMutability": "nonpayable",
      "type": "function"
    },
    {
      "inputs": [
        {
          "internalType": "bytes32",
          "name": "role",
          "type": "bytes32"
        },
        {
          "internalType": "address",
          "name": "account",
          "type": "address"
        }
      ],
      "name": "revokeRole",
      "outputs": [],
      "stateMutability": "nonpayable",
      "type": "function"
    },
    {
      "inputs": [],
      "name": "rewardClaimDelay",
      "outputs": [
        {
          "internalType": "uint256",
          "name": "",
          "type": "uint256"
        }
      ],
      "stateMutability": "view",
      "type": "function"
    },
    {
      "inputs": [
        {
          "components": [
            {
              "internalType": "uint256",
              "name": "epochId",
              "type": "uint256"
            },
            {
              "internalType": "uint256",
              "name": "dlpId",
              "type": "uint256"
            },
            {
              "internalType": "uint256",
              "name": "totalStakesScore",
              "type": "uint256"
            }
          ],
          "internalType": "struct IDLPRoot.EpochDlpsTotalStakesScore[]",
          "name": "stakeScore",
          "type": "tuple[]"
        }
      ],
      "name": "saveEpochDlpsTotalStakesScore",
      "outputs": [],
      "stateMutability": "nonpayable",
      "type": "function"
    },
    {
      "inputs": [],
      "name": "stakeWithdrawalDelay",
      "outputs": [
        {
          "internalType": "uint256",
          "name": "",
          "type": "uint256"
        }
      ],
      "stateMutability": "view",
      "type": "function"
    },
    {
      "inputs": [
        {
          "internalType": "address",
          "name": "staker",
          "type": "address"
        },
        {
          "internalType": "uint256",
          "name": "index",
          "type": "uint256"
        }
      ],
      "name": "stakerDlpsListAt",
      "outputs": [
        {
          "internalType": "uint256",
          "name": "",
          "type": "uint256"
        }
      ],
      "stateMutability": "view",
      "type": "function"
    },
    {
      "inputs": [
        {
          "internalType": "address",
          "name": "staker",
          "type": "address"
        }
      ],
      "name": "stakerDlpsListCount",
      "outputs": [
        {
          "internalType": "uint256",
          "name": "",
          "type": "uint256"
        }
      ],
      "stateMutability": "view",
      "type": "function"
    },
    {
      "inputs": [
        {
          "internalType": "address",
          "name": "staker",
          "type": "address"
        }
      ],
      "name": "stakerDlpsListValues",
      "outputs": [
        {
          "internalType": "uint256[]",
          "name": "",
          "type": "uint256[]"
        }
      ],
      "stateMutability": "view",
      "type": "function"
    },
    {
      "inputs": [
        {
          "internalType": "uint256",
          "name": "index",
          "type": "uint256"
        }
      ],
      "name": "stakerListAt",
      "outputs": [
        {
          "internalType": "address",
          "name": "",
          "type": "address"
        }
      ],
      "stateMutability": "view",
      "type": "function"
    },
    {
      "inputs": [],
      "name": "stakerListCount",
      "outputs": [
        {
          "internalType": "uint256",
          "name": "",
          "type": "uint256"
        }
      ],
      "stateMutability": "view",
      "type": "function"
    },
    {
      "inputs": [
        {
          "internalType": "uint256",
          "name": "stakeId",
          "type": "uint256"
        }
      ],
      "name": "stakes",
      "outputs": [
        {
          "components": [
            {
              "internalType": "uint256",
              "name": "id",
              "type": "uint256"
            },
            {
              "internalType": "address",
              "name": "stakerAddress",
              "type": "address"
            },
            {
              "internalType": "uint256",
              "name": "dlpId",
              "type": "uint256"
            },
            {
              "internalType": "uint256",
              "name": "amount",
              "type": "uint256"
            },
            {
              "internalType": "uint256",
              "name": "startBlock",
              "type": "uint256"
            },
            {
              "internalType": "uint256",
              "name": "endBlock",
              "type": "uint256"
            },
            {
              "internalType": "bool",
              "name": "withdrawn",
              "type": "bool"
            },
            {
              "internalType": "uint256",
              "name": "lastClaimedEpochId",
              "type": "uint256"
            }
          ],
          "internalType": "struct IDLPRoot.StakeInfo",
          "name": "",
          "type": "tuple"
        }
      ],
      "stateMutability": "view",
      "type": "function"
    },
    {
      "inputs": [],
      "name": "stakesCount",
      "outputs": [
        {
          "internalType": "uint256",
          "name": "",
          "type": "uint256"
        }
      ],
      "stateMutability": "view",
      "type": "function"
    },
    {
      "inputs": [
        {
          "internalType": "bytes4",
          "name": "interfaceId",
          "type": "bytes4"
        }
      ],
      "name": "supportsInterface",
      "outputs": [
        {
          "internalType": "bool",
          "name": "",
          "type": "bool"
        }
      ],
      "stateMutability": "view",
      "type": "function"
    },
    {
      "inputs": [
        {
          "internalType": "uint256",
          "name": "numberOfDlps",
          "type": "uint256"
        }
      ],
      "name": "topDlpIds",
      "outputs": [
        {
          "internalType": "uint256[]",
          "name": "",
          "type": "uint256[]"
        }
      ],
      "stateMutability": "view",
      "type": "function"
    },
    {
      "inputs": [],
      "name": "trustedForwarder",
      "outputs": [
        {
          "internalType": "address",
          "name": "",
          "type": "address"
        }
      ],
      "stateMutability": "view",
      "type": "function"
    },
    {
      "inputs": [],
      "name": "unpause",
      "outputs": [],
      "stateMutability": "nonpayable",
      "type": "function"
    },
    {
      "inputs": [
        {
          "internalType": "uint256",
          "name": "dlpId",
          "type": "uint256"
        },
        {
          "components": [
            {
              "internalType": "address",
              "name": "dlpAddress",
              "type": "address"
            },
            {
              "internalType": "address",
              "name": "ownerAddress",
              "type": "address"
            },
            {
              "internalType": "address payable",
              "name": "treasuryAddress",
              "type": "address"
            },
            {
              "internalType": "uint256",
              "name": "stakersPercentage",
              "type": "uint256"
            },
            {
              "internalType": "string",
              "name": "name",
              "type": "string"
            },
            {
              "internalType": "string",
              "name": "iconUrl",
              "type": "string"
            },
            {
              "internalType": "string",
              "name": "website",
              "type": "string"
            },
            {
              "internalType": "string",
              "name": "metadata",
              "type": "string"
            }
          ],
          "internalType": "struct IDLPRoot.DlpRegistration",
          "name": "dlpUpdateInfo",
          "type": "tuple"
        }
      ],
      "name": "updateDlp",
      "outputs": [],
      "stateMutability": "nonpayable",
      "type": "function"
    },
    {
      "inputs": [
        {
          "internalType": "uint256",
          "name": "newDlpEligibilityThreshold",
          "type": "uint256"
        }
      ],
      "name": "updateDlpEligibilityThreshold",
      "outputs": [],
      "stateMutability": "nonpayable",
      "type": "function"
    },
    {
      "inputs": [
        {
          "internalType": "uint256",
          "name": "newDlpSubEligibilityThreshold",
          "type": "uint256"
        }
      ],
      "name": "updateDlpSubEligibilityThreshold",
      "outputs": [],
      "stateMutability": "nonpayable",
      "type": "function"
    },
    {
      "inputs": [
        {
          "internalType": "uint256",
          "name": "newEligibleDlpsLimit",
          "type": "uint256"
        }
      ],
      "name": "updateEligibleDlpsLimit",
      "outputs": [],
      "stateMutability": "nonpayable",
      "type": "function"
    },
    {
      "inputs": [
        {
          "internalType": "uint256",
          "name": "newEpochDlpsLimit",
          "type": "uint256"
        }
      ],
      "name": "updateEpochDlpsLimit",
      "outputs": [],
      "stateMutability": "nonpayable",
      "type": "function"
    },
    {
      "inputs": [
        {
          "internalType": "uint256",
          "name": "newEpochRewardAmount",
          "type": "uint256"
        }
      ],
      "name": "updateEpochRewardAmount",
      "outputs": [],
      "stateMutability": "nonpayable",
      "type": "function"
    },
    {
      "inputs": [
        {
          "internalType": "uint256",
          "name": "newEpochSize",
          "type": "uint256"
        }
      ],
      "name": "updateEpochSize",
      "outputs": [],
      "stateMutability": "nonpayable",
      "type": "function"
    },
    {
      "inputs": [
        {
          "internalType": "uint256",
          "name": "newMaxDlpStakersPercentage",
          "type": "uint256"
        }
      ],
      "name": "updateMaxDlpStakersPercentage",
      "outputs": [],
      "stateMutability": "nonpayable",
      "type": "function"
    },
    {
      "inputs": [
        {
          "internalType": "uint256",
          "name": "newMinDlpRegistrationStake",
          "type": "uint256"
        }
      ],
      "name": "updateMinDlpRegistrationStake",
      "outputs": [],
      "stateMutability": "nonpayable",
      "type": "function"
    },
    {
      "inputs": [
        {
          "internalType": "uint256",
          "name": "newMinDlpStakersPercentage",
          "type": "uint256"
        }
      ],
      "name": "updateMinDlpStakersPercentage",
      "outputs": [],
      "stateMutability": "nonpayable",
      "type": "function"
    },
    {
      "inputs": [
        {
          "internalType": "uint256",
          "name": "newMinStakeAmount",
          "type": "uint256"
        }
      ],
      "name": "updateMinStakeAmount",
      "outputs": [],
      "stateMutability": "nonpayable",
      "type": "function"
    },
    {
      "inputs": [
        {
          "internalType": "uint256",
          "name": "newRewardClaimDelay",
          "type": "uint256"
        }
      ],
      "name": "updateRewardClaimDelay",
      "outputs": [],
      "stateMutability": "nonpayable",
      "type": "function"
    },
    {
      "inputs": [
        {
          "internalType": "uint256",
          "name": "newStakeWithdrawalDelay",
          "type": "uint256"
        }
      ],
      "name": "updateStakeWithdrawalDelay",
      "outputs": [],
      "stateMutability": "nonpayable",
      "type": "function"
    },
    {
      "inputs": [
        {
          "internalType": "address",
          "name": "trustedForwarderAddress",
          "type": "address"
        }
      ],
      "name": "updateTrustedForwarder",
      "outputs": [],
      "stateMutability": "nonpayable",
      "type": "function"
    },
    {
      "inputs": [
        {
          "internalType": "address",
          "name": "newImplementation",
          "type": "address"
        },
        {
          "internalType": "bytes",
          "name": "data",
          "type": "bytes"
        }
      ],
      "name": "upgradeToAndCall",
      "outputs": [],
      "stateMutability": "payable",
      "type": "function"
    },
    {
      "inputs": [],
      "name": "version",
      "outputs": [
        {
          "internalType": "uint256",
          "name": "",
          "type": "uint256"
        }
      ],
      "stateMutability": "pure",
      "type": "function"
    },
    {
      "inputs": [
        {
          "internalType": "uint256[]",
          "name": "stakeIds",
          "type": "uint256[]"
        }
      ],
      "name": "withdrawStakes",
      "outputs": [],
      "stateMutability": "nonpayable",
      "type": "function"
    }
  ],
  "transactionHash": "0x940f15cbea1f77d39a32528446bbf5652b74cfb4e6d525c70f43fe8db8b93b69",
  "args": [],
  "numDeployments": 2,
  "solcInputHash": "d553865b1a51a45c2112a46c975e44bd",
  "bytecode": "0x60c0604052306080523480156200001557600080fd5b50600060a052620000256200002b565b620000df565b7ff0c57e16840df040f15088dc2f81fe391c3923bec73e23a9662efc9c229c6a00805468010000000000000000900460ff16156200007c5760405163f92ee8a960e01b815260040160405180910390fd5b80546001600160401b0390811614620000dc5780546001600160401b0319166001600160401b0390811782556040519081527fc7f505b2f371ae2175ee4913f4499e1f2633a7b5936321eed1cdaeb6115181d29060200160405180910390a15b50565b60805160a051615f3f6200011060003960005050600081816140fc0152818161412501526142600152615f3f6000f3fe6080604052600436106103785760003560e01c806301ffc9a71461037d578063028f31f3146103b257806303a229f6146103d657806305c1c3f4146103f857806306a08b0e1461040d57806307e0cd171461043a578063132c58e91461045057806314973daf14610466578063151db1b9146104865780631bf6ddae1461049b5780631e6760d3146104ae5780632393526f146104ce578063248a9ca3146104ee57806324918d791461050e5780632624cc6f1461052e5780632ae51134146105435780632f2ff15d146105b3578063319fe36b146105d357806336568abe146105f3578063387548b5146106135780633f4ba83a14610633578063439b37561461064857806346582583146106755780634c85c8d91461068a5780634f1ef286146106aa57806352d1902d146106bd57806354fd4d50146106d2578063572b6c05146106e6578063572d356e146107065780635c975abb1461071c578063633e7e541461073157806368ed41ed146107515780636b289f5b146107675780636d352711146107875780636d51fa9d1461079c5780637217d22d146107c957806372c9acdc146107e957806376bc9869146107ff57806377a3b265146108145780637da0a877146108345780638456cb59146108495780638c31cd3e1461085e5780638d8c658f1461087e5780638e991ff31461089e578063901d97f6146108b4578063916e1c57146108d457806391d14854146108ea5780639e8e67171461090a578063a217fddf14610920578063aa37489814610935578063ac9650d814610955578063ad3cb1cc14610982578063b4fcea1d146109c0578063c02b8cf4146109e0578063c06020b014610a00578063c53036f414610a2d578063c6b61e4c14610a43578063cdf2003e14610a70578063d4dc04ba14610a86578063d4e0187214610aa6578063d547741f14610ac6578063d5a44f8614610ae6578063d7033ca014610b6d578063d8060cd514610b83578063dd8c017c14610ba3578063ddadf36914610bc3578063df18328b14610be3578063e1d648d114610c03578063e5331f1714610c23578063e6fe27c414610c39578063e7de504114610c59578063e7ebaa6f14610c79578063e98fa42b14610c99578063ea83e47b14610cb9578063eaeb2ec814610cd9578063ec87621c14610cf9578063f188768414610d1b578063f874225414610d31578063f90b031114610d53575b600080fd5b34801561038957600080fd5b5061039d610398366004615145565b610d73565b60405190151581526020015b60405180910390f35b3480156103be57600080fd5b506103c860045481565b6040519081526020016103a9565b3480156103e257600080fd5b506103eb610daa565b6040516103a9919061516f565b61040b6104063660046151c0565b610dbb565b005b34801561041957600080fd5b5061042d6104283660046151fc565b610de8565b6040516103a99190615222565b34801561044657600080fd5b506103c860075481565b34801561045c57600080fd5b506103c8600a5481565b34801561047257600080fd5b5061040b6104813660046151fc565b610df5565b34801561049257600080fd5b506103c8610e80565b61040b6104a93660046151fc565b610e9a565b3480156104ba57600080fd5b5061040b6104c9366004615236565b610ec5565b3480156104da57600080fd5b506103c86104e93660046151fc565b610f34565b3480156104fa57600080fd5b506103c86105093660046151fc565b610f41565b34801561051a57600080fd5b5061040b6105293660046152ea565b610f61565b34801561053a57600080fd5b506103c8610fc1565b34801561054f57600080fd5b5061056361055e366004615236565b610fcd565b6040516103a99190600060c0820190508251825260208301511515602083015260408301516040830152606083015160608301526080830151608083015260a0830151151560a083015292915050565b3480156105bf57600080fd5b5061040b6105ce3660046153a4565b611117565b3480156105df57600080fd5b5061040b6105ee36600461542f565b611139565b3480156105ff57600080fd5b5061040b61060e3660046153a4565b611219565b34801561061f57600080fd5b5061040b61062e36600461544b565b611261565b34801561063f57600080fd5b5061040b6115bc565b34801561065457600080fd5b5061066861066336600461551f565b6115dc565b6040516103a99190615600565b34801561068157600080fd5b506103c8611606565b34801561069657600080fd5b506103c86106a5366004615729565b611612565b61040b6106b8366004615755565b61165a565b3480156106c957600080fd5b506103c8611675565b3480156106de57600080fd5b5060016103c8565b3480156106f257600080fd5b5061039d61070136600461551f565b611692565b34801561071257600080fd5b506103c8600b5481565b34801561072857600080fd5b5061039d6116b7565b34801561073d57600080fd5b506103c861074c3660046157fc565b6116cc565b34801561075d57600080fd5b506103c8600d5481565b34801561077357600080fd5b5061040b6107823660046151fc565b6116ee565b34801561079357600080fd5b506103c861172e565b3480156107a857600080fd5b506107bc6107b73660046152ea565b61173a565b6040516103a99190615828565b3480156107d557600080fd5b506103eb6107e436600461551f565b6119bd565b3480156107f557600080fd5b506103c860195481565b34801561080b57600080fd5b5061040b6119e1565b34801561082057600080fd5b5061040b61082f3660046151fc565b611a04565b34801561084057600080fd5b5061042d611a85565b34801561085557600080fd5b5061040b611a94565b34801561086a57600080fd5b506103c86108793660046151fc565b611ab4565b34801561088a57600080fd5b506103eb6108993660046151fc565b611ae2565b3480156108aa57600080fd5b506103c860055481565b3480156108c057600080fd5b5061040b6108cf3660046151fc565b611d61565b3480156108e057600080fd5b506103c860125481565b3480156108f657600080fd5b5061039d6109053660046153a4565b611ddd565b34801561091657600080fd5b506103c860015481565b34801561092c57600080fd5b506103c8600081565b34801561094157600080fd5b5061040b6109503660046151fc565b611e13565b34801561096157600080fd5b50610975610970366004615881565b611e83565b6040516103a991906158f5565b34801561098e57600080fd5b506109b3604051806040016040528060058152602001640352e302e360dc1b81525081565b6040516103a99190615959565b3480156109cc57600080fd5b5061040b6109db3660046151fc565b611fe1565b3480156109ec57600080fd5b5061040b6109fb3660046151fc565b612123565b348015610a0c57600080fd5b506103c8610a1b36600461551f565b600f6020526000908152604090205481565b348015610a3957600080fd5b506103c860025481565b348015610a4f57600080fd5b50610a63610a5e3660046151fc565b612208565b6040516103a9919061596c565b348015610a7c57600080fd5b506103c860065481565b348015610a9257600080fd5b5061040b610aa13660046151fc565b61229d565b348015610ab257600080fd5b5061040b610ac13660046151fc565b61236a565b348015610ad257600080fd5b5061040b610ae13660046153a4565b6123aa565b348015610af257600080fd5b50610b06610b013660046151fc565b6123c6565b6040516103a99190815181526020808301516001600160a01b03169082015260408083015190820152606080830151908201526080808301519082015260a0808301519082015260c08083015115159082015260e091820151918101919091526101000190565b348015610b7957600080fd5b506103c8600c5481565b348015610b8f57600080fd5b5061040b610b9e3660046151fc565b61249f565b348015610baf57600080fd5b5061040b610bbe3660046152ea565b61250f565b348015610bcf57600080fd5b5061040b610bde3660046159b1565b612590565b348015610bef57600080fd5b5061040b610bfe3660046151fc565b6128cc565b348015610c0f57600080fd5b5061040b610c1e3660046152ea565b61293c565b348015610c2f57600080fd5b506103c860175481565b348015610c4557600080fd5b5061040b610c543660046151fc565b612993565b348015610c6557600080fd5b5061040b610c743660046159f7565b6129e8565b348015610c8557600080fd5b506103c8610c9436600461551f565b612be1565b348015610ca557600080fd5b5061040b610cb43660046151fc565b612c02565b348015610cc557600080fd5b50610668610cd43660046151fc565b612c57565b348015610ce557600080fd5b5061040b610cf43660046151fc565b61305e565b348015610d0557600080fd5b506103c8600080516020615eca83398151915281565b348015610d2757600080fd5b506103c860035481565b348015610d3d57600080fd5b506103c8600080516020615eea83398151915281565b348015610d5f57600080fd5b5061040b610d6e36600461551f565b613084565b60006001600160e01b03198216637965db0b60e01b1480610da457506301ffc9a760e01b6001600160e01b03198316145b92915050565b6060610db660106130bf565b905090565b610dc36130cc565b610dcb6130f2565b610dd443613128565b610ddd81613213565b610de5613571565b50565b6000610da4601483613582565b600080516020615eea833981519152610e0d8161358e565b68056bc75e2d63100000821180610e25575060045482105b15610e4357604051633494a40d60e21b815260040160405180910390fd5b60198290556040518281527f597ef447da3fcf95d1df392ba918a66ae2de15f4b5f47371c336b4e99a57008f906020015b60405180910390a15050565b6000610e8c600861359f565b6001600160d01b0316905090565b610ea26130f2565b610eaa6130cc565b610eb343613128565b610ddd610ebe6135e6565b82346135f0565b610ecd6130f2565b610ed56130cc565b610ede43613128565b601254600003610f0157604051633494a40d60e21b815260040160405180910390fd5b6000610f1b826001601254610f169190615aad565b613853565b9050610f278382613869565b50610f30613571565b5050565b6000610da4601083613582565b600080610f4c613922565b60009384526020525050604090206001015490565b610f696130f2565b610f716130cc565b610f7a43613128565b60005b8151811015610fb857610fb0610f916135e6565b838381518110610fa357610fa3615ac0565b6020026020010151613946565b600101610f7d565b50610de5613571565b6000610db66014613acc565b61100a6040518060c00160405280600081526020016000151581526020016000815260200160008152602001600081526020016000151581525090565b600082815260136020908152604080832086845260068101835281842082516080810184528154815260018201548186015260028201548185015260039091015460ff1615156060820152878552600e9093529083208154600a820154929491921161108f5761108a6110808560000154613ad6565b6004840190613b12565b6110a2565b61109d600483016000613b5d565b602001515b6001600160d01b031690506040518060c001604052806110ce896110c98860010154613ad6565b613bcd565b81526020016110e0600487018a613c1d565b1515815260200184600001518152602001828152602001846040015181526020018460600151151581525094505050505092915050565b61112082610f41565b6111298161358e565b6111338383613c29565b50505050565b600080516020615eca8339815191526111518161358e565b81516000908152601360209081526040808320828601518452600e909252909120600101546001600160a01b031661119c576040516306358e4f60e11b815260040160405180910390fd5b43816001015411806111ad57508054155b156111cb5760405163756b785760e01b815260040160405180910390fd5b6040838101805160208087018051600090815260068701835285902060020192909255905186519251935193845292600080516020615e8a83398151915291015b60405180910390a3505050565b6112216135e6565b6001600160a01b0316816001600160a01b0316146112525760405163334bd91960e11b815260040160405180910390fd5b61125c8282613cd2565b505050565b600061126b613d68565b805490915060ff600160401b82041615906001600160401b03166000811580156112925750825b90506000826001600160401b031660011480156112ae5750303b155b9050811580156112bc575080155b156112da5760405163f92ee8a960e01b815260040160405180910390fd5b84546001600160401b0319166001178555831561130357845460ff60401b1916600160401b1785555b61130b613d8c565b611313613d8c565b61131b613d94565b611323613da4565b61132b613d8c565b662386f26fc100008660a001511080611350575068056bc75e2d631000008660c00151115b8061136257508560c001518660a00151115b80611374575085604001518660600151115b8061138657508560e001518660800151115b8061139957508561012001518660e00151115b806113ad5750856101000151866101200151115b156113cb57604051633494a40d60e21b815260040160405180910390fd5b8551600080546001600160a01b0319166001600160a01b0390921691909117905560408601516001556060860151600255608086015160035560a086015160045560c086015160195560e086015160055561010086015160065561012086015160075561014086015161144090600890613db4565b50506114526009876101600151613db4565b50506101a0860151600b556101c0860151600c556101e0860151600a556000805260136020526101808601517f8fa6efc3be94b5b348b21fea823fe8d100408cee9b7f90524494500445d8ff6c906114b6906114b090600290615aad565b43613853565b81556101808701516114ca90600190615aad565b60018083019190915560038201805460ff191690911790556114fb600080516020615eea8339815191526000613de0565b611521600080516020615eca833981519152600080516020615eea833981519152613de0565b6115326000801b8860200151613c29565b5061154f600080516020615eea8339815191528860200151613c29565b5061156c600080516020615eca8339815191528860200151613c29565b505083156115b457845460ff60401b19168555604051600181527fc7f505b2f371ae2175ee4913f4499e1f2633a7b5936321eed1cdaeb6115181d29060200160405180910390a15b505050505050565b600080516020615eea8339815191526115d48161358e565b610de5613e40565b6115e46150aa565b6001600160a01b0382166000908152600f6020526040902054610da490612c57565b6000610e8c600961359f565b600080600c5484846116249190615aad565b61162e9190615ad6565b9050606461163b82613e9d565b6116459087615af8565b61164f9190615ad6565b9150505b9392505050565b6116626140f1565b61166b82614196565b610f3082826141a1565b600061167f614255565b50600080516020615eaa83398151915290565b600061169c611a85565b6001600160a01b0316826001600160a01b0316149050919050565b6000806116c261429e565b5460ff1692915050565b6001600160a01b03821660009081526016602052604081206116539083613582565b60006116f98161358e565b600a8290556040518281527f2fe8cb48ce95af273ee232223c3a0fbda25a65208753e99801ce508751f2b7fb90602001610e74565b6000610db66010613acc565b60606000611749600254611ae2565b90506000805b825181101561178e5761177a83828151811061176d5761176d615ac0565b60200260200101516142c2565b6117849083615b0f565b915060010161174f565b508151600090156117be576117bb83600185516117ab9190615aad565b8151811061176d5761176d615ac0565b90505b600085516001600160401b038111156117d9576117d9615258565b60405190808252806020026020018201604052801561182e57816020015b61181b60405180606001604052806000815260200160008152602001600081525090565b8152602001906001900390816117f75790505b5090506000805b87518110156119b157849150600088828151811061185557611855615ac0565b60200260200101519050611873816010613c1d90919063ffffffff16565b6118b75760405180606001604052808281526020016000815260200160008152508483815181106118a6576118a6615ac0565b6020026020010181905250506119a9565b60006118c2826142c2565b9050858110156118e3576118d68187615b0f565b6118e09085615aad565b93505b6000828152600e602052604081206118fd9060040161359f565b6001600160d01b03169050600085600a54846119199190615af8565b6119239190615ad6565b90506000836119328385615af8565b61193c9190615ad6565b90506000600b54600c548361016d6119549190615af8565b61195e9190615af8565b6119689190615ad6565b905060405180606001604052808781526020018281526020018381525089888151811061199757611997615ac0565b60200260200101819052505050505050505b600101611835565b50909695505050505050565b6001600160a01b0381166000908152601660205260409020606090610da4906130bf565b6119e96130f2565b6119f16130cc565b6119fa43613128565b611a02613571565b565b600080516020615eea833981519152611a1c8161358e565b662386f26fc10000821080611a32575060195482115b15611a5057604051633494a40d60e21b815260040160405180910390fd5b60048290556040518281527fcf130ebf0154d300b5d8c2c20f243f2e34a4dbbd54ddd70492f35f89f5c72e0090602001610e74565b6000546001600160a01b031690565b600080516020615eea833981519152611aac8161358e565b610de561430f565b6000601254600003611ac857506000919050565b610da4826001601254611adb9190615aad565b6000614357565b60606000611af060106130bf565b8051909150611aff8482613853565b93506000846001600160401b03811115611b1b57611b1b615258565b604051908082528060200260200182016040528015611b44578160200160208202803683370190505b50905084600003611b5757949350505050565b6000856001600160401b03811115611b7157611b71615258565b604051908082528060200260200182016040528015611b9a578160200160208202803683370190505b50905060005b83811015611d56576000858281518110611bbc57611bbc615ac0565b602002602001015190506000611bd1826142c2565b90508860005b8a811015611c5657858181518110611bf157611bf1615ac0565b6020026020010151831180611c415750858181518110611c1357611c13615ac0565b602002602001015183148015611c415750868181518110611c3657611c36615ac0565b602002602001015184105b15611c4e57809150611c56565b600101611bd7565b5089811015611d4b576000611c6c60018c615aad565b90505b81811115611d0b5786611c83600183615aad565b81518110611c9357611c93615ac0565b6020026020010151878281518110611cad57611cad615ac0565b602090810291909101015285611cc4600183615aad565b81518110611cd457611cd4615ac0565b6020026020010151868281518110611cee57611cee615ac0565b602090810291909101015280611d0381615b22565b915050611c6f565b5082868281518110611d1f57611d1f615ac0565b60200260200101818152505081858281518110611d3e57611d3e615ac0565b6020026020010181815250505b505050600101611ba0565b509095945050505050565b600080516020615eea833981519152611d798161358e565b816003541180611d8a575060075482115b15611da857604051633494a40d60e21b815260040160405180910390fd5b60058290556040518281527ff2a6752ea06dfdf93ef2d0ac5db269e4d58636cd56f160ed0c96e0a0a272362a90602001610e74565b600080611de8613922565b6000948552602090815260408086206001600160a01b03959095168652939052505090205460ff1690565b600080516020615eea833981519152611e2b8161358e565b600154821115611e4e57604051633494a40d60e21b815260040160405180910390fd5b60028290556040518281527f8c3ee37d01ee5f42c88d7ff11c34795aa06e1e65f21e3813d00e101f3c3d614f90602001610e74565b60606000611e8f6135e6565b6001600160a01b0316336001600160a01b031614611efa57600036611eb5601482615aad565b611ec0928290615b39565b8080601f016020809104026020016040519081016040528093929190818152602001838380828437600092019190915250611f0a92505050565b6040805160008152602081019091525b9050826001600160401b03811115611f2457611f24615258565b604051908082528060200260200182016040528015611f5757816020015b6060815260200190600190039081611f425790505b50915060005b83811015611fd957611fb430868684818110611f7b57611f7b615ac0565b9050602002810190611f8d9190615b63565b85604051602001611fa093929190615ba9565b604051602081830303815290604052614588565b838281518110611fc657611fc6615ac0565b6020908102919091010152600101611f5d565b505092915050565b611fe96130cc565b611ff16130f2565b80611ffa6135e6565b6000828152600e60205260409020600201546001600160a01b0390811691161461203757604051633387d70760e01b815260040160405180910390fd5b61204043613128565b6000828152600e602052604090206001600982015460ff1660048111156120695761206961558c565b1415801561209057506002600982015460ff16600481111561208d5761208d61558c565b14155b80156120b557506003600982015460ff1660048111156120b2576120b261558c565b14155b156120d357604051636e1ed6c560e11b815260040160405180910390fd5b60098101805460ff191660041790556120ed6010846145f5565b5060405183907fc3f4c6824ace066416e91f60e8762e0257019e0eb2e83afa4cdf62d23991e73990600090a25050610de5613571565b600080516020615eea83398151915261213b8161358e565b81600554118061214c575060065482115b1561216a57604051633494a40d60e21b815260040160405180910390fd5b600782905560005b61217c6010613acc565b8110156121d7576000612190601083613582565b6000818152600e60205260409020909150846121ab836142c2565b10156121cd5760098101805460ff191660011790556121cb6010836145f5565b505b5050600101612172565b506040518281527f5486872ddb5ca216cd9cb1f6e2e232e468aa32e312fbccba2ffb5edc831cfb2c90602001610e74565b61223c6040518060a00160405280600081526020016000815260200160008152602001600015158152602001606081525090565b6040805160a08101825260008481526013602081815284832080548552600181015482860152600281015495850195909552600385015460ff1615156060850152918690529052906080820190612295906004016130bf565b905292915050565b600080516020615eea8339815191526122b58161358e565b8160075411156122d857604051633494a40d60e21b815260040160405180910390fd5b600682905560005b6122ea6010613acc565b8110156123395760006122fe601083613582565b6000818152600e6020526040902090915084612319836142c2565b101561232f5760098101805460ff191660031790555b50506001016122e0565b506040518281527f97eca98512abc502b3bb1ef19702bf7eb53a988b87fd250138fbbfd1b62782c990602001610e74565b60006123758161358e565b600b8290556040518281527f3cd59cf395448ba3bfd2541dcb31ccd800b9e303281df0888a62ae5d5f673f5890602001610e74565b6123b382610f41565b6123bc8161358e565b6111338383613cd2565b6124196040518061010001604052806000815260200160006001600160a01b0316815260200160008152602001600081526020016000815260200160008152602001600015158152602001600081525090565b50600081815260186020908152604080832081516101008101835294855280546001600160a01b03168584015260018101548583018190526002820154606087015260038201546080870152600482015460a0870152600582015460ff16151560c08701528452600e80845282852060069092015485520190915290205460e082015290565b600080516020615eea8339815191526124b78161358e565b6005548211156124da57604051633494a40d60e21b815260040160405180910390fd5b60038290556040518281527f8448c02797b448f4946bc25b3bf925e5556d1df822c944da701c54bab8a3162f90602001610e74565b6125176130f2565b61251f6130cc565b61252843613128565b60125460000361254b576040516312d37ee560e31b815260040160405180910390fd5b60005b8151811015610fb85761258882828151811061256c5761256c615ac0565b602002602001015160016012546125839190615aad565b613869565b60010161254e565b6125986130cc565b6125a06130f2565b816125a96135e6565b6000828152600e60205260409020600201546001600160a01b039081169116146125e657604051633387d70760e01b815260040160405180910390fd5b6125ef43613128565b6000612601604084016020850161551f565b6001600160a01b0316148061262e57506000612623606084016040850161551f565b6001600160a01b0316145b1561264c5760405163e6c4247b60e01b815260040160405180910390fd5b6004548260600135108061266557506019548260600135115b156126835760405163d1be20e560e01b815260040160405180910390fd5b6000838152600e60209081526040909120906126a19084018461551f565b60018201546001600160a01b039081169116146126d15760405163793a3a3d60e11b815260040160405180910390fd5b6126e1604084016020850161551f565b6002820180546001600160a01b0319166001600160a01b0392909216919091179055612713606084016040850161551f565b6003820180546001600160a01b0319166001600160a01b039290921691909117905560608301356127466004830161359f565b6001600160d01b03161461276857612765816004018460600135613db4565b50505b6127756080840184615b63565b6005830191612785919083615c4c565b5061279360a0840184615b63565b60068301916127a3919083615c4c565b506127b160c0840184615b63565b60078301916127c1919083615c4c565b506127cf60e0840184615b63565b60088301916127df919083615c4c565b5083600f60006127f2602087018761551f565b6001600160a01b031681526020808201929092526040016000209190915561281c9084018461551f565b6001600160a01b0316847fdfb704f30cb8b5a69562201718d3bdfd1299983f120f8ff3932b295bfa15aede612857604087016020880161551f565b612867606088016040890161551f565b606088013561287960808a018a615b63565b61288660a08c018c615b63565b61289360c08e018e615b63565b8e8060e001906128a39190615b63565b6040516128ba9b9a99989796959493929190615d34565b60405180910390a35050610f30613571565b600080516020615eea8339815191526128e48161358e565b81600254111561290757604051633494a40d60e21b815260040160405180910390fd5b60018290556040518281527f4396ad8283225f2aee81ccc849dced59dc271fe85e61179ea6a74c854d628b7190602001610e74565b6129446130f2565b61294c6130cc565b61295543613128565b60005b8151811015610fb85761298b61296c6135e6565b83838151811061297e5761297e615ac0565b6020026020010151614601565b600101612958565b600080516020615eea8339815191526129ab8161358e565b6129b6600883613db4565b50506040518281527f5f77bf3bb8edc470b5034e85a2d7123e6578eec3b9705c24d40d2e984d4f2a7690602001610e74565b600080516020615eca833981519152612a008161358e565b60005b825181101561125c57600060136000858481518110612a2457612a24615ac0565b602002602001015160000151815260200190815260200160002090506000816006016000868581518110612a5a57612a5a615ac0565b6020026020010151602001518152602001908152602001600020905060006001600160a01b0316600e6000878681518110612a9757612a97615ac0565b6020908102919091018101518101518252810191909152604001600020600101546001600160a01b031603612adf576040516306358e4f60e11b815260040160405180910390fd5b4382600101541180612af057508154155b15612b0e5760405163756b785760e01b815260040160405180910390fd5b600281015415612b3157604051634d40249960e01b815260040160405180910390fd5b848381518110612b4357612b43615ac0565b6020026020010151604001518160020181905550848381518110612b6957612b69615ac0565b602002602001015160200151858481518110612b8757612b87615ac0565b602002602001015160000151600080516020615e8a833981519152878681518110612bb457612bb4615ac0565b602002602001015160400151604051612bcf91815260200190565b60405180910390a35050600101612a03565b6001600160a01b0381166000908152601660205260408120610da490613acc565b600080516020615eea833981519152612c1a8161358e565b612c25600983613db4565b50506040518281527f4a675b4074075265c6da90abb559f75ec801d6e403d0dd6dde4bb38631929ede90602001610e74565b612c5f6150aa565b6000828152600e602090815260408083206012548452601390925282208054600a8301549293919211612cab57612ca6612c9c8360000154613ad6565b6004850190613b12565b612cbe565b612cb9600484016000613b5d565b602001515b6001600160d01b03169050600083600d01546001600160401b03811115612ce757612ce7615258565b604051908082528060200260200182016040528015612d10578160200160208202803683370190505b50905060015b84600d01548111612d6b576000818152600e8601602052604090205482612d3e600184615aad565b81518110612d4e57612d4e615ac0565b602090810291909101015280612d6381615db7565b915050612d16565b50604080516101c0810182528554815260018601546001600160a01b03908116602083015260028701548116928201929092526003860154909116606082015260808101612dbb6004870161359f565b6001600160d01b03168152602001838152602001856005018054612dde90615bd0565b80601f0160208091040260200160405190810160405280929190818152602001828054612e0a90615bd0565b8015612e575780601f10612e2c57610100808354040283529160200191612e57565b820191906000526020600020905b815481529060010190602001808311612e3a57829003601f168201915b50505050508152602001856006018054612e7090615bd0565b80601f0160208091040260200160405190810160405280929190818152602001828054612e9c90615bd0565b8015612ee95780601f10612ebe57610100808354040283529160200191612ee9565b820191906000526020600020905b815481529060010190602001808311612ecc57829003601f168201915b50505050508152602001856007018054612f0290615bd0565b80601f0160208091040260200160405190810160405280929190818152602001828054612f2e90615bd0565b8015612f7b5780601f10612f5057610100808354040283529160200191612f7b565b820191906000526020600020905b815481529060010190602001808311612f5e57829003601f168201915b50505050508152602001856008018054612f9490615bd0565b80601f0160208091040260200160405190810160405280929190818152602001828054612fc090615bd0565b801561300d5780601f10612fe25761010080835404028352916020019161300d565b820191906000526020600020905b815481529060010190602001808311612ff057829003601f168201915b5050509183525050600986015460209091019060ff1660048111156130345761303461558c565b815260200185600a0154815260200161304c886142c2565b81526020019190915295945050505050565b6130666130f2565b61306e6130cc565b610ddd43821061307e5743613128565b81613128565b600080516020615eea83398151915261309c8161358e565b50600080546001600160a01b0319166001600160a01b0392909216919091179055565b6060600061165383614773565b6130d46116b7565b15611a025760405163d93c066560e01b815260040160405180910390fd5b60006130fc6147cf565b80549091506001190161312257604051633ee5aeb560e01b815260040160405180910390fd5b60029055565b60125460009081526013602052604090206001810154431015613149575050565b8181600101541015610f305760038101805460ff19166001179055601254613170906147f3565b60006013600060126000815461318590615db7565b91905081905581526020019081526020016000209050816001015460016131ac9190615b0f565b808255600b546001916131bf9190615b0f565b6131c99190615aad565b6001820155600a5460028201556012546040519081527f0129593a287c7be892e56181ff1238eb466a2c952dc53a3029140d1f3ddc4a8d9060200160405180910390a19050613149565b6000613225604083016020840161551f565b6001600160a01b0316148061325257506000613247606083016040840161551f565b6001600160a01b0316145b156132705760405163e6c4247b60e01b815260040160405180910390fd5b600f6000613281602084018461551f565b6001600160a01b03168152602081019190915260400160002054156132b957604051636e1ed6c560e11b815260040160405180910390fd5b600454816060013510806132d257506019548160600135115b156132f05760405163d1be20e560e01b815260040160405180910390fd5b60055434101561331357604051630103be3b60e21b815260040160405180910390fd5b6000600d6000815461332490615db7565b91829055506000818152600e6020908152604090912082815591925061334c9084018461551f565b6001820180546001600160a01b0319166001600160a01b039290921691909117905561337e604084016020850161551f565b6002820180546001600160a01b0319166001600160a01b03929092169190911790556133b0606084016040850161551f565b6003820180546001600160a01b0319166001600160a01b03929092169190911790556133e3600482016060850135613db4565b506133f390506080840184615b63565b6005830191613403919083615c4c565b5061341160a0840184615b63565b6006830191613421919083615c4c565b5061342f60c0840184615b63565b600783019161343f919083615c4c565b5061344d60e0840184615b63565b600883019161345d919083615c4c565b5060098101805460ff1916600117905543600a82015581600f6000613485602087018761551f565b6001600160a01b03166001600160a01b03168152602001908152602001600020819055506134c68360200160208101906134bf919061551f565b83346135f0565b6134d3602084018461551f565b6001600160a01b0316827fb7474aa65f72ae77dbf02c6bd0a0d85749e7101f97fc94d524af373e832dc06a61350e604087016020880161551f565b61351e606088016040890161551f565b606088013561353060808a018a615b63565b61353d60a08c018c615b63565b61354a60c08e018e615b63565b8e8060e0019061355a9190615b63565b60405161120c9b9a99989796959493929190615d34565b600061357b6147cf565b6001905550565b60006116538383614a42565b610de58161359a6135e6565b614a6c565b805460009080156135dd576135c7836135b9600184615aad565b600091825260209091200190565b54600160301b90046001600160d01b0316611653565b60009392505050565b6000610db6614aa5565b6001600160a01b0383166136175760405163e6c4247b60e01b815260040160405180910390fd5b60035481101561363a57604051630103be3b60e21b815260040160405180910390fd5b6000828152600e602052604090206001600982015460ff1660048111156136635761366361558c565b1415801561368a57506002600982015460ff1660048111156136875761368761558c565b14155b80156136af57506003600982015460ff1660048111156136ac576136ac61558c565b14155b156136cd57604051636e1ed6c560e11b815260040160405180910390fd5b6000601860006017600081546136e290615db7565b91829055508152602080820192909252604090810160009081206002810187905543600382015580546001600160a01b0319166001600160a01b038a16908117825560018201899055600d8701546006830155825260169093522090915061374a8186614af7565b50613756601487614b03565b5061376483600b0185614b18565b5060029050600984015460ff1660048111156137825761378261558c565b1415801561379a5750600654613797866142c2565b10155b80156137b057506001546137ae6010613acc565b105b156137fc576137c0601086614af7565b5060098301805460ff1916600217905560405185907fa22b756fb9961f15b7c68b1e8ee6629486ce6d13d0b3b006d1f2381fe491787e90600090a25b84866001600160a01b03167ff234bd1a05f5a6f0b6af3f0c8bacad613635f0022e2ec2162717ef21a1591d6a60175487604051613843929190918252602082015260400190565b60405180910390a3505050505050565b60008183106138625781611653565b5090919050565b600061387783836001614357565b90508060000361389a576040516312d37ee560e31b815260040160405180910390fd5b600083815260186020526040808220805491519092916001600160a01b03169084908381818185875af1925050503d80600081146138f4576040519150601f19603f3d011682016040523d82523d6000602084013e6138f9565b606091505b505090508061391b576040516312171d8360e31b815260040160405180910390fd5b5050505050565b7f02dd7bc7dec4dceedda775e58dd541e08a116c6c53815c0bd028192f7b62680090565b600081815260186020526040902080546001600160a01b038481169116146139815760405163335e79fb60e21b815260040160405180910390fd5b6004810154156139a457604051638ccbf9a560e01b815260040160405180910390fd5b60018101546000908152600e6020526040902060028201546139ca90600c830190614b18565b505043600483015560018201546000906139e3906142c2565b905060075481108015613a3057506003600983015460ff166004811115613a0c57613a0c61558c565b1480613a3057506002600983015460ff166004811115613a2e57613a2e61558c565b145b15613a5c5760098201805460ff19166001908117909155830154613a56906010906145f5565b50613a9a565b60065481108015613a8557506002600983015460ff166004811115613a8357613a8361558c565b145b15613a9a5760098201805460ff191660031790555b60405184907fc46bc112bb28b616434d6e89582a82bdc7cf9ef52a0b1228d20f5e5ccca7ec4690600090a25050505050565b6000610da4825490565b600065ffffffffffff821115613b0e576040516306dfcc6560e41b815260306004820152602481018390526044015b60405180910390fd5b5090565b815460009081613b2485858385614b43565b90508015613b5157613b3b856135b9600184615aad565b54600160301b90046001600160d01b0316613b54565b60005b95945050505050565b6040805180820190915260008082526020820152826000018263ffffffff1681548110613b8c57613b8c615ac0565b60009182526020918290206040805180820190915291015465ffffffffffff81168252600160301b90046001600160d01b0316918101919091529392505050565b6000828152600e60205260408120613be890600c0183613b12565b6000848152600e60205260409020613c0390600b0184613b12565b613c0d9190615dd0565b6001600160d01b03169392505050565b60006116538383614ba5565b600080613c34613922565b9050613c408484611ddd565b613cc1576000848152602082815260408083206001600160a01b03871684529091529020805460ff19166001179055613c776135e6565b6001600160a01b0316836001600160a01b0316857f2f8788117e7eff1d82e926ec794901d17c78024a50270940304540a733656f0d60405160405180910390a46001915050610da4565b6000915050610da4565b5092915050565b600080613cdd613922565b9050613ce98484611ddd565b15613cc1576000848152602082815260408083206001600160a01b03871684529091529020805460ff19169055613d1e6135e6565b6001600160a01b0316836001600160a01b0316857ff6391f5c32d9c69d2a47ea670b442974b53935d1edc7fd64eb21e047a839171b60405160405180910390a46001915050610da4565b7ff0c57e16840df040f15088dc2f81fe391c3923bec73e23a9662efc9c229c6a0090565b611a02614bbd565b613d9c614bbd565b611a02614be2565b613dac614bbd565b611a02614bea565b600080613dd4613dc343613ad6565b613dcc85614c07565b869190614c3b565b915091505b9250929050565b6000613dea613922565b90506000613df784610f41565b600085815260208490526040808220600101869055519192508491839187917fbd79b86ffe0ab8e8776151514217cd7cacd52c909f66475c3af44e129f0b00ff9190a450505050565b613e48614c56565b6000613e5261429e565b805460ff1916815590507f5db9ee0a495bf2e6ff9c91a7834c1ba4fdd244a5e8aa4e537bd38aeae4b073aa613e856135e6565b604051613e929190615222565b60405180910390a150565b600060408210613eb0575061012c919050565b60408051610800810182526064815260666020820152606981830152606b6060820152606e6080820152607060a0820152607260c080830191909152607560e08301526077610100830152607961012080840191909152607c610140840152607e610160840152608161018084015260836101a084015260856101c084015260886101e0840152608a610200840152608c610220840152608f6102408401526091610260840152609461028084015260966102a0840152609c6102c084015260a26102e084015260a861030084015260ae61032084015260b461034084015260ba61036084015261038083019190915260c66103a083015260cc6103c083015260d26103e083015260d761040083015260dd61042083015260e361044083015260e961046083015260ef61048083015260f56104a083015260fb6104c08301526101016104e083015261010761050083015261010d6105208301526101136105408301526101146105608301526101156105808301526101176105a08301526101186105c08301526101196105e083015261011a61060083015261011b61062083015261011d61064083015261011e61066083015261011f6106808301526106a08201526101216106c08201526101226106e082015261012461070082015261012561072082015261012661074082015261012761076082015261012861078082015261012a6107a082015261012b6107c082015261012c6107e0820152908190849081106140e1576140e1615ac0565b602002015161ffff169392505050565b306001600160a01b037f000000000000000000000000000000000000000000000000000000000000000016148061417857507f00000000000000000000000000000000000000000000000000000000000000006001600160a01b031661416c600080516020615eaa833981519152546001600160a01b031690565b6001600160a01b031614155b15611a025760405163703e46dd60e11b815260040160405180910390fd5b6000610f308161358e565b816001600160a01b03166352d1902d6040518163ffffffff1660e01b8152600401602060405180830381865afa9250505080156141fb575060408051601f3d908101601f191682019092526141f891810190615df0565b60015b61421a5781604051634c9c8ce360e01b8152600401613b059190615222565b600080516020615eaa833981519152811461424b57604051632a87526960e21b815260048101829052602401613b05565b61125c8383614c7b565b306001600160a01b037f00000000000000000000000000000000000000000000000000000000000000001614611a025760405163703e46dd60e11b815260040160405180910390fd5b7fcd5ed15c6e187e77e9aee88184c21f4f2182ab5827cb3b7e07fbedcd63f0330090565b6000818152600e602052604081206142dc90600c0161359f565b6000838152600e602052604090206142f690600b0161359f565b6143009190615dd0565b6001600160d01b031692915050565b6143176130cc565b600061432161429e565b805460ff1916600117815590507f62e78cea01bee320cd4e420270b5ea74000d11b0c9f74754ebdbfc544b05a258613e856135e6565b60008381526018602090815260408083206001808201548552600e9093529083206006820154919290918491829161438e91615b0f565b6000818152600e850160205260408120549192506143aa611606565b90505b6000821180156143bd5750888211155b1561457a57600082815260136020908152604080832060018a01548452600681019092529091208315806143f357506002810154155b80614414575060008860040154118015614414575087600401548260010154115b1561442057505061457a565b600061443989600201548a600301548560010154611612565b9050600082600201548268056bc75e2d63100000856001015486600001546144619190615af8565b61446b9190615ad6565b6144759190615af8565b61447f9190615ad6565b90506000600c548560010154436144969190615aad565b6144a09190615ad6565b6144ab906001615b0f565b90506000861180156144bc57508581105b156144dd57856144cc8284615af8565b6144d69190615ad6565b91506144eb565b8c156144eb5760068b018890555b600087815260078c016020526040902054821161450c57505050505061457a565b600087815260078c0160205260409020546145279083615aad565b614531908a615b0f565b98508c1561454d57600087815260078c01602052604090208290555b600e8a01600061455c8a615db7565b995089815260200190815260200160002054965050505050506143ad565b509198975050505050505050565b6060600080846001600160a01b0316846040516145a59190615e09565b600060405180830381855af49150503d80600081146145e0576040519150601f19603f3d011682016040523d82523d6000602084013e6145e5565b606091505b5091509150613b54858383614cd1565b60006116538383614d24565b600081815260186020526040902080546001600160a01b0384811691161461463c5760405163335e79fb60e21b815260040160405180910390fd5b600581015460ff16156146625760405163190507cd60e21b815260040160405180910390fd5b8060040154600003614687576040516372728c7960e11b815260040160405180910390fd5b43614690610e80565b826004015461469f9190615b0f565b11156146be57604051630fae9a4560e41b815260040160405180910390fd5b60058101805460ff1916600117905560028101546040516000916001600160a01b038616918381818185875af1925050503d806000811461471b576040519150601f19603f3d011682016040523d82523d6000602084013e614720565b606091505b5050905080614742576040516312171d8360e31b815260040160405180910390fd5b60405183907fa78b9f12a7da0df7ced737c5f83d0c05723bb5f43aab37e233b862710414847290600090a250505050565b6060816000018054806020026020016040519081016040528092919081815260200182805480156147c357602002820191906000526020600020905b8154815260200190600101908083116147af575b50505050509050919050565b7f9b779b17422d0df92223018b32b4d1fa46e071723d6817e2486d003becc55f0090565b806000036147fe5750565b600081815260136020526040812060025490919061481b90611ae2565b90506000808080805b85518510156148595761484286868151811061176d5761176d615ac0565b61484c9085615b0f565b6001909501949350614824565b600094505b8551851015614a385785858151811061487957614879615ac0565b602002602001015192506148998388600401614af790919063ffffffff16565b50600e600084815260200190815260200160002090508781600e01600083600d01600081546148c790615db7565b9190508190558152602001908152602001600020819055508660060160008481526020019081526020016000209150866000015481600a0154111561492b57614914600482016000613b5d565b602001516001600160d01b03166001830155614954565b61494561493b8860000154613ad6565b6004830190613b12565b6001600160d01b031660018301555b838760020154614963856142c2565b61496d9190615af8565b6149779190615ad6565b8255600182015468056bc75e2d631000001115614a2d57600381015460018301546000916001600160a01b03169068056bc75e2d63100000906149ba9082615aad565b85546149c69190615af8565b6149d09190615ad6565b604051600081818185875af1925050503d8060008114614a0c576040519150601f19603f3d011682016040523d82523d6000602084013e614a11565b606091505b505090508015614a2b5760038301805460ff191660011790555b505b60019094019361485e565b5050505050505050565b6000826000018281548110614a5957614a59615ac0565b9060005260206000200154905092915050565b614a768282611ddd565b610f305760405163e2517d3f60e01b81526001600160a01b038216600482015260248101839052604401613b05565b6000366014614ab333611692565b8015614abf5750808210155b15614aef57600036614ad18385615aad565b614adc928290615b39565b614ae591615e25565b60601c9250505090565b339250505090565b60006116538383614e0d565b6000611653836001600160a01b038416614e0d565b600080613dd4614b2743613ad6565b614b3085614c07565b614b398761359f565b613dcc9190615e53565b60005b81831015614b9d576000614b5a8484614e57565b60008781526020902090915065ffffffffffff86169082015465ffffffffffff161115614b8957809250614b97565b614b94816001615b0f565b93505b50614b46565b509392505050565b60009081526001919091016020526040902054151590565b614bc5614e72565b611a0257604051631afcd79f60e31b815260040160405180910390fd5b613571614bbd565b614bf2614bbd565b6000614bfc61429e565b805460ff1916905550565b60006001600160d01b03821115613b0e576040516306dfcc6560e41b815260d0600482015260248101839052604401613b05565b600080614c49858585614e8c565b915091505b935093915050565b614c5e6116b7565b611a0257604051638dfc202b60e01b815260040160405180910390fd5b614c8482615006565b6040516001600160a01b038316907fbc7cd75a20ee27fd9adebab32041f755214dbc6bffa90cc0225b39da2e5c2d3b90600090a2805115614cc95761125c8282614588565b610f30615062565b606082614ce657614ce182615081565b611653565b8151158015614cfd57506001600160a01b0384163b155b15614d1d5783604051639996b31560e01b8152600401613b059190615222565b5080611653565b60008181526001830160205260408120548015613cc1576000614d48600183615aad565b8554909150600090614d5c90600190615aad565b9050808214614dc1576000866000018281548110614d7c57614d7c615ac0565b9060005260206000200154905080876000018481548110614d9f57614d9f615ac0565b6000918252602080832090910192909255918252600188019052604090208390555b8554869080614dd257614dd2615e73565b600190038181906000526020600020016000905590558560010160008681526020019081526020016000206000905560019350505050610da4565b6000614e198383614ba5565b614e4f57508154600181810184556000848152602080822090930184905584548482528286019093526040902091909155610da4565b506000610da4565b6000614e666002848418615ad6565b61165390848416615b0f565b6000614e7c613d68565b54600160401b900460ff16919050565b825460009081908015614fab576000614eaa876135b9600185615aad565b60408051808201909152905465ffffffffffff808216808452600160301b9092046001600160d01b031660208401529192509087161015614efe57604051632520601d60e01b815260040160405180910390fd5b805165ffffffffffff808816911603614f4a5784614f21886135b9600186615aad565b80546001600160d01b0392909216600160301b0265ffffffffffff909216919091179055614f9b565b6040805180820190915265ffffffffffff80881682526001600160d01b0380881660208085019182528b54600181018d5560008d81529190912094519151909216600160301b029216919091179101555b602001519250839150614c4e9050565b50506040805180820190915265ffffffffffff80851682526001600160d01b0380851660208085019182528854600181018a5560008a815291822095519251909316600160301b029190931617920191909155905081614c4e565b806001600160a01b03163b6000036150335780604051634c9c8ce360e01b8152600401613b059190615222565b600080516020615eaa83398151915280546001600160a01b0319166001600160a01b0392909216919091179055565b3415611a025760405163b398979f60e01b815260040160405180910390fd5b8051156150915780518082602001fd5b604051630a12f52160e11b815260040160405180910390fd5b604051806101c001604052806000815260200160006001600160a01b0316815260200160006001600160a01b0316815260200160006001600160a01b031681526020016000815260200160008152602001606081526020016060815260200160608152602001606081526020016000600481111561512a5761512a61558c565b81526020016000815260200160008152602001606081525090565b60006020828403121561515757600080fd5b81356001600160e01b03198116811461165357600080fd5b6020808252825182820181905260009190848201906040850190845b818110156119b15783518352928401929184019160010161518b565b600061010082840312156151ba57600080fd5b50919050565b6000602082840312156151d257600080fd5b81356001600160401b038111156151e857600080fd5b6151f4848285016151a7565b949350505050565b60006020828403121561520e57600080fd5b5035919050565b6001600160a01b03169052565b6001600160a01b0391909116815260200190565b6000806040838503121561524957600080fd5b50508035926020909101359150565b634e487b7160e01b600052604160045260246000fd5b60405161020081016001600160401b038111828210171561529157615291615258565b60405290565b604051601f8201601f191681016001600160401b03811182821017156152bf576152bf615258565b604052919050565b60006001600160401b038211156152e0576152e0615258565b5060051b60200190565b600060208083850312156152fd57600080fd5b82356001600160401b0381111561531357600080fd5b8301601f8101851361532457600080fd5b8035615337615332826152c7565b615297565b81815260059190911b8201830190838101908783111561535657600080fd5b928401925b828410156153745783358252928401929084019061535b565b979650505050505050565b6001600160a01b0381168114610de557600080fd5b803561539f8161537f565b919050565b600080604083850312156153b757600080fd5b8235915060208301356153c98161537f565b809150509250929050565b6000606082840312156153e657600080fd5b604051606081016001600160401b038111828210171561540857615408615258565b80604052508091508235815260208301356020820152604083013560408201525092915050565b60006060828403121561544157600080fd5b61165383836153d4565b6000610200828403121561545e57600080fd5b61546661526e565b61546f83615394565b815261547d60208401615394565b602082015260408381013590820152606080840135908201526080808401359082015260a0808401359082015260c0808401359082015260e08084013590820152610100808401359082015261012080840135908201526101408084013590820152610160808401359082015261018080840135908201526101a080840135908201526101c080840135908201526101e0928301359281019290925250919050565b60006020828403121561553157600080fd5b81356116538161537f565b60005b8381101561555757818101518382015260200161553f565b50506000910152565b6000815180845261557881602086016020860161553c565b601f01601f19169290920160200192915050565b634e487b7160e01b600052602160045260246000fd5b600581106155c057634e487b7160e01b600052602160045260246000fd5b9052565b60008151808452602080850194506020840160005b838110156155f5578151875295820195908201906001016155d9565b509495945050505050565b60208152815160208201526000602083015161561f6040840182615215565b5060408301516156326060840182615215565b5060608301516156456080840182615215565b50608083015160a083015260a083015160c083015260c08301516101c08060e08501526156766101e0850183615560565b915060e0850151601f196101008187860301818801526156968584615560565b9450808801519250506101208187860301818801526156b58584615560565b9450808801519250506101408187860301818801526156d48584615560565b9450808801519250506101606156ec818801846155a2565b870151610180878101919091528701516101a08088019190915287015186850390910183870152905061571f83826155c4565b9695505050505050565b60008060006060848603121561573e57600080fd5b505081359360208301359350604090920135919050565b6000806040838503121561576857600080fd5b82356157738161537f565b91506020838101356001600160401b038082111561579057600080fd5b818601915086601f8301126157a457600080fd5b8135818111156157b6576157b6615258565b6157c8601f8201601f19168501615297565b915080825287848285010111156157de57600080fd5b80848401858401376000848284010152508093505050509250929050565b6000806040838503121561580f57600080fd5b823561581a8161537f565b946020939093013593505050565b602080825282518282018190526000919060409081850190868401855b828110156158745781518051855286810151878601528501518585015260609093019290850190600101615845565b5091979650505050505050565b6000806020838503121561589457600080fd5b82356001600160401b03808211156158ab57600080fd5b818501915085601f8301126158bf57600080fd5b8135818111156158ce57600080fd5b8660208260051b85010111156158e357600080fd5b60209290920196919550909350505050565b600060208083016020845280855180835260408601915060408160051b87010192506020870160005b8281101561594c57603f1988860301845261593a858351615560565b9450928501929085019060010161591e565b5092979650505050505050565b6020815260006116536020830184615560565b602081528151602082015260208201516040820152604082015160608201526060820151151560808201526000608083015160a0808401526151f460c08401826155c4565b600080604083850312156159c457600080fd5b8235915060208301356001600160401b038111156159e157600080fd5b6159ed858286016151a7565b9150509250929050565b60006020808385031215615a0a57600080fd5b82356001600160401b03811115615a2057600080fd5b8301601f81018513615a3157600080fd5b8035615a3f615332826152c7565b808282526020820191506060602060608502860101935088841115615a6357600080fd5b6020850194505b83851015615a8b57615a7c89866153d4565b83529384019391850191615a6a565b50979650505050505050565b634e487b7160e01b600052601160045260246000fd5b81810381811115610da457610da4615a97565b634e487b7160e01b600052603260045260246000fd5b600082615af357634e487b7160e01b600052601260045260246000fd5b500490565b8082028115828204841417610da457610da4615a97565b80820180821115610da457610da4615a97565b600081615b3157615b31615a97565b506000190190565b60008085851115615b4957600080fd5b83861115615b5657600080fd5b5050820193919092039150565b6000808335601e19843603018112615b7a57600080fd5b8301803591506001600160401b03821115615b9457600080fd5b602001915036819003821315613dd957600080fd5b828482376000838201600081528351615bc681836020880161553c565b0195945050505050565b600181811c90821680615be457607f821691505b6020821081036151ba57634e487b7160e01b600052602260045260246000fd5b601f82111561125c576000816000526020600020601f850160051c81016020861015615c2d5750805b601f850160051c820191505b818110156115b457828155600101615c39565b6001600160401b03831115615c6357615c63615258565b615c7783615c718354615bd0565b83615c04565b6000601f841160018114615cab5760008515615c935750838201355b600019600387901b1c1916600186901b17835561391b565b600083815260209020601f19861690835b82811015615cdc5786850135825560209485019460019092019101615cbc565b5086821015615cf95760001960f88860031b161c19848701351681555b505060018560011b0183555050505050565b81835281816020850137506000828201602090810191909152601f909101601f19169091010190565b6001600160a01b038c811682528b166020820152604081018a905260e060608201819052600090615d689083018a8c615d0b565b8281036080840152615d7b81898b615d0b565b905082810360a0840152615d90818789615d0b565b905082810360c0840152615da5818587615d0b565b9e9d5050505050505050505050505050565b600060018201615dc957615dc9615a97565b5060010190565b6001600160d01b03828116828216039080821115613ccb57613ccb615a97565b600060208284031215615e0257600080fd5b5051919050565b60008251615e1b81846020870161553c565b9190910192915050565b6001600160601b03198135818116916014851015611fd95760149490940360031b84901b1690921692915050565b6001600160d01b03818116838216019080821115613ccb57613ccb615a97565b634e487b7160e01b600052603160045260246000fdfe948d378fa4c68569d2ecf922375e8845e879b43a1b882cc2b3aece8b76982f84360894a13ba1a3210667c828492db98dca3e2076cc3735a920a3ca505d382bbc241ecf16d79d0f8dbfb92cbc07fe17840425976cf0667f022fe9877caa831b08339759585899103d2ace64958e37e18ccb0504652c81d4a1b8aa80fe2126ab95a2646970667358221220423185adb2adfa3a69358fd7f84d01744bee69c51f7963014192abc572ce20b764736f6c63430008180033",
  "devdoc": {
    "errors": {
      "AccessControlBadConfirmation()": [
        {
          "details": "The caller of a function is not the expected one. NOTE: Don't confuse with {AccessControlUnauthorizedAccount}."
        }
      ],
      "AccessControlUnauthorizedAccount(address,bytes32)": [
        {
          "details": "The `account` is missing a role."
        }
      ],
      "AddressEmptyCode(address)": [
        {
          "details": "There's no code at `target` (it is not a contract)."
        }
      ],
      "CheckpointUnorderedInsertion()": [
        {
          "details": "A value was attempted to be inserted on a past checkpoint."
        }
      ],
      "ERC1967InvalidImplementation(address)": [
        {
          "details": "The `implementation` of the proxy is invalid."
        }
      ],
      "ERC1967NonPayable()": [
        {
          "details": "An upgrade function sees `msg.value > 0` that may be lost."
        }
      ],
      "EnforcedPause()": [
        {
          "details": "The operation failed because the contract is paused."
        }
      ],
      "ExpectedPause()": [
        {
          "details": "The operation failed because the contract is not paused."
        }
      ],
      "FailedInnerCall()": [
        {
          "details": "A call to an address target failed. The target may have reverted."
        }
      ],
      "InvalidInitialization()": [
        {
          "details": "The contract is already initialized."
        }
      ],
      "NotInitializing()": [
        {
          "details": "The contract is not initializing."
        }
      ],
      "ReentrancyGuardReentrantCall()": [
        {
          "details": "Unauthorized reentrant call."
        }
      ],
      "SafeCastOverflowedUintDowncast(uint8,uint256)": [
        {
          "details": "Value doesn't fit in an uint of `bits` size."
        }
      ],
      "UUPSUnauthorizedCallContext()": [
        {
          "details": "The call is from an unauthorized context."
        }
      ],
      "UUPSUnsupportedProxiableUUID(bytes32)": [
        {
          "details": "The storage `slot` is unsupported as a UUID."
        }
      ]
    },
    "events": {
      "Initialized(uint64)": {
        "details": "Triggered when the contract has been initialized or reinitialized."
      },
      "Paused(address)": {
        "details": "Emitted when the pause is triggered by `account`."
      },
      "RoleAdminChanged(bytes32,bytes32,bytes32)": {
        "details": "Emitted when `newAdminRole` is set as ``role``'s admin role, replacing `previousAdminRole` `DEFAULT_ADMIN_ROLE` is the starting admin for all roles, despite {RoleAdminChanged} not being emitted signaling this."
      },
      "RoleGranted(bytes32,address,address)": {
        "details": "Emitted when `account` is granted `role`. `sender` is the account that originated the contract call, an admin role bearer except when using {AccessControl-_setupRole}."
      },
      "RoleRevoked(bytes32,address,address)": {
        "details": "Emitted when `account` is revoked `role`. `sender` is the account that originated the contract call:   - if using `revokeRole`, it is the admin role bearer   - if using `renounceRole`, it is the role bearer (i.e. `account`)"
      },
      "Unpaused(address)": {
        "details": "Emitted when the pause is lifted by `account`."
      },
      "Upgraded(address)": {
        "details": "Emitted when the implementation is upgraded."
      }
    },
    "kind": "dev",
    "methods": {
      "calculateStakeClaimableAmount(uint256)": {
        "details": "Takes into account stake duration, score, and reward distributionThis method is not marked as view because is using a method that modifies state to call it as a view, please using static call"
      },
      "constructor": {
        "custom:oz-upgrades-unsafe-allow": "constructor"
      },
      "deregisterDlp(uint256)": {
        "details": "Only owner can deregister, must be in valid status"
      },
      "estimatedDlpRewardPercentages(uint256[])": {
        "details": "Calculates based on stake amounts and current epoch parameters"
      },
      "getRoleAdmin(bytes32)": {
        "details": "Returns the admin role that controls `role`. See {grantRole} and {revokeRole}. To change a role's admin, use {_setRoleAdmin}."
      },
      "grantRole(bytes32,address)": {
        "details": "Grants `role` to `account`. If `account` had not been already granted `role`, emits a {RoleGranted} event. Requirements: - the caller must have ``role``'s admin role. May emit a {RoleGranted} event."
      },
      "hasRole(bytes32,address)": {
        "details": "Returns `true` if `account` has been granted `role`."
      },
      "isTrustedForwarder(address)": {
        "details": "Indicates whether any particular address is the trusted forwarder."
      },
      "multicall(bytes[])": {
        "custom:oz-upgrades-unsafe-allow-reachable": "delegatecall",
        "details": "Receives and executes a batch of function calls on this contract."
      },
      "paused()": {
        "details": "Returns true if the contract is paused, and false otherwise."
      },
      "proxiableUUID()": {
        "details": "Implementation of the ERC1822 {proxiableUUID} function. This returns the storage slot used by the implementation. It is used to validate the implementation's compatibility when performing an upgrade. IMPORTANT: A proxy pointing at a proxiable contract should not be considered proxiable itself, because this risks bricking a proxy that upgrades to it, by delegating to itself until out of gas. Thus it is critical that this function revert if invoked through a proxy. This is guaranteed by the `notDelegated` modifier."
      },
      "renounceRole(bytes32,address)": {
        "details": "Revokes `role` from the calling account. Roles are often managed via {grantRole} and {revokeRole}: this function's purpose is to provide a mechanism for accounts to lose their privileges if they are compromised (such as when a trusted device is misplaced). If the calling account had been revoked `role`, emits a {RoleRevoked} event. Requirements: - the caller must be `callerConfirmation`. May emit a {RoleRevoked} event."
      },
      "revokeRole(bytes32,address)": {
        "details": "Revokes `role` from `account`. If `account` had been granted `role`, emits a {RoleRevoked} event. Requirements: - the caller must have ``role``'s admin role. May emit a {RoleRevoked} event."
      },
      "supportsInterface(bytes4)": {
        "details": "See {IERC165-supportsInterface}."
      },
      "topDlpIds(uint256)": {
        "details": "Uses insertion sort to maintain ordered list"
      },
      "trustedForwarder()": {
        "details": "Returns the address of the trusted forwarder."
      },
      "updateDlp(uint256,(address,address,address,uint256,string,string,string,string))": {
        "details": "Only DLP owner can update"
      },
      "upgradeToAndCall(address,bytes)": {
        "custom:oz-upgrades-unsafe-allow-reachable": "delegatecall",
        "details": "Upgrade the implementation of the proxy to `newImplementation`, and subsequently execute the function call encoded in `data`. Calls {_authorizeUpgrade}. Emits an {Upgraded} event."
      }
    },
    "version": 1
  },
  "userdoc": {
    "kind": "user",
    "methods": {
      "calculateStakeClaimableAmount(uint256)": {
        "notice": "Calculates claimable rewards for a stake"
      },
      "calculateStakeScore(uint256,uint256,uint256)": {
        "notice": "Calculates stake score based on amount and duration"
      },
      "claimStakeRewardUntilEpoch(uint256,uint256)": {
        "notice": "Claims rewards for a stake up to specified epoch"
      },
      "claimStakesReward(uint256[])": {
        "notice": "Claims rewards for multiple stakes"
      },
      "closeStakes(uint256[])": {
        "notice": "Closes multiple stakes"
      },
      "createEpochs()": {
        "notice": "Creates epochs up to current block"
      },
      "createEpochsUntilBlockNumber(uint256)": {
        "notice": "Creates epochs up to specified block"
      },
      "createStake(uint256)": {
        "notice": "Creates a new stake for a DLP"
      },
      "deregisterDlp(uint256)": {
        "notice": "Deregisters a DLP"
      },
      "dlps(uint256)": {
        "notice": "Gets DLP information including current stake and status"
      },
      "estimatedDlpRewardPercentages(uint256[])": {
        "notice": "Estimates reward percentages for given DLPs"
      },
      "overrideEpochDlpsTotalStakesScore((uint256,uint256,uint256))": {
        "notice": "Overrides stake scores for DLPs in past epochs"
      },
      "registerDlp((address,address,address,uint256,string,string,string,string))": {
        "notice": "Registers a new DLP with initial stake"
      },
      "saveEpochDlpsTotalStakesScore((uint256,uint256,uint256)[])": {
        "notice": "Updates stake scores for DLPs in past epochs"
      },
      "topDlpIds(uint256)": {
        "notice": "Gets top DLP IDs by stake amount"
      },
      "updateDlp(uint256,(address,address,address,uint256,string,string,string,string))": {
        "notice": "Updates DLP information"
      },
      "updateDlpEligibilityThreshold(uint256)": {
        "notice": "Updates eligibility threshold and adjusts DLP statuses"
      },
      "updateDlpSubEligibilityThreshold(uint256)": {
        "notice": "Updates sub-eligibility threshold and adjusts DLP statuses"
      },
      "withdrawStakes(uint256[])": {
        "notice": "Withdraws multiple closed stakes"
      }
    },
    "version": 1
  },
  "storageLayout": {
    "storage": [
      {
        "astId": 25088,
        "contract": "contracts/root/DLPRootImplementation.sol:DLPRootImplementation",
        "label": "_trustedForwarder",
        "offset": 0,
        "slot": "0",
        "type": "t_address"
      },
      {
        "astId": 25091,
        "contract": "contracts/root/DLPRootImplementation.sol:DLPRootImplementation",
        "label": "eligibleDlpsLimit",
        "offset": 0,
        "slot": "1",
        "type": "t_uint256"
      },
      {
        "astId": 25094,
        "contract": "contracts/root/DLPRootImplementation.sol:DLPRootImplementation",
        "label": "epochDlpsLimit",
        "offset": 0,
        "slot": "2",
        "type": "t_uint256"
      },
      {
        "astId": 25097,
        "contract": "contracts/root/DLPRootImplementation.sol:DLPRootImplementation",
        "label": "minStakeAmount",
        "offset": 0,
        "slot": "3",
        "type": "t_uint256"
      },
      {
        "astId": 25100,
        "contract": "contracts/root/DLPRootImplementation.sol:DLPRootImplementation",
        "label": "minDlpStakersPercentage",
        "offset": 0,
        "slot": "4",
        "type": "t_uint256"
      },
      {
        "astId": 25103,
        "contract": "contracts/root/DLPRootImplementation.sol:DLPRootImplementation",
        "label": "minDlpRegistrationStake",
        "offset": 0,
        "slot": "5",
        "type": "t_uint256"
      },
      {
        "astId": 25106,
        "contract": "contracts/root/DLPRootImplementation.sol:DLPRootImplementation",
        "label": "dlpEligibilityThreshold",
        "offset": 0,
        "slot": "6",
        "type": "t_uint256"
      },
      {
        "astId": 25109,
        "contract": "contracts/root/DLPRootImplementation.sol:DLPRootImplementation",
        "label": "dlpSubEligibilityThreshold",
        "offset": 0,
        "slot": "7",
        "type": "t_uint256"
      },
      {
        "astId": 25112,
        "contract": "contracts/root/DLPRootImplementation.sol:DLPRootImplementation",
        "label": "_stakeWithdrawalDelayCheckpoints",
        "offset": 0,
        "slot": "8",
        "type": "t_struct(Trace208)9576_storage"
      },
      {
        "astId": 25115,
        "contract": "contracts/root/DLPRootImplementation.sol:DLPRootImplementation",
        "label": "_rewardClaimDelayCheckpoints",
        "offset": 0,
        "slot": "9",
        "type": "t_struct(Trace208)9576_storage"
      },
      {
        "astId": 25118,
        "contract": "contracts/root/DLPRootImplementation.sol:DLPRootImplementation",
        "label": "epochRewardAmount",
        "offset": 0,
        "slot": "10",
        "type": "t_uint256"
      },
      {
        "astId": 25121,
        "contract": "contracts/root/DLPRootImplementation.sol:DLPRootImplementation",
        "label": "epochSize",
        "offset": 0,
        "slot": "11",
        "type": "t_uint256"
      },
      {
        "astId": 25124,
        "contract": "contracts/root/DLPRootImplementation.sol:DLPRootImplementation",
        "label": "daySize",
        "offset": 0,
        "slot": "12",
        "type": "t_uint256"
      },
      {
        "astId": 25127,
        "contract": "contracts/root/DLPRootImplementation.sol:DLPRootImplementation",
        "label": "dlpsCount",
        "offset": 0,
        "slot": "13",
        "type": "t_uint256"
      },
      {
        "astId": 25132,
        "contract": "contracts/root/DLPRootImplementation.sol:DLPRootImplementation",
        "label": "_dlps",
        "offset": 0,
        "slot": "14",
        "type": "t_mapping(t_uint256,t_struct(Dlp)25215_storage)"
      },
      {
        "astId": 25137,
        "contract": "contracts/root/DLPRootImplementation.sol:DLPRootImplementation",
        "label": "dlpIds",
        "offset": 0,
        "slot": "15",
        "type": "t_mapping(t_address,t_uint256)"
      },
      {
        "astId": 25140,
        "contract": "contracts/root/DLPRootImplementation.sol:DLPRootImplementation",
        "label": "_eligibleDlpsList",
        "offset": 0,
        "slot": "16",
        "type": "t_struct(UintSet)11097_storage"
      },
      {
        "astId": 25143,
        "contract": "contracts/root/DLPRootImplementation.sol:DLPRootImplementation",
        "label": "epochsCount",
        "offset": 0,
        "slot": "18",
        "type": "t_uint256"
      },
      {
        "astId": 25148,
        "contract": "contracts/root/DLPRootImplementation.sol:DLPRootImplementation",
        "label": "_epochs",
        "offset": 0,
        "slot": "19",
        "type": "t_mapping(t_uint256,t_struct(Epoch)25241_storage)"
      },
      {
        "astId": 25151,
        "contract": "contracts/root/DLPRootImplementation.sol:DLPRootImplementation",
        "label": "_stakersList",
        "offset": 0,
        "slot": "20",
        "type": "t_struct(AddressSet)10940_storage"
      },
      {
        "astId": 25156,
        "contract": "contracts/root/DLPRootImplementation.sol:DLPRootImplementation",
        "label": "_stakers",
        "offset": 0,
        "slot": "22",
        "type": "t_mapping(t_address,t_struct(Staker)25264_storage)"
      },
      {
        "astId": 25159,
        "contract": "contracts/root/DLPRootImplementation.sol:DLPRootImplementation",
        "label": "stakesCount",
        "offset": 0,
        "slot": "23",
        "type": "t_uint256"
      },
      {
        "astId": 25164,
        "contract": "contracts/root/DLPRootImplementation.sol:DLPRootImplementation",
        "label": "_stakes",
        "offset": 0,
        "slot": "24",
        "type": "t_mapping(t_uint256,t_struct(Stake)25260_storage)"
      },
      {
        "astId": 25167,
        "contract": "contracts/root/DLPRootImplementation.sol:DLPRootImplementation",
        "label": "maxDlpStakersPercentage",
        "offset": 0,
        "slot": "25",
        "type": "t_uint256"
      }
    ],
    "types": {
      "t_address": {
        "encoding": "inplace",
        "label": "address",
        "numberOfBytes": "20"
      },
      "t_address_payable": {
        "encoding": "inplace",
        "label": "address payable",
        "numberOfBytes": "20"
      },
      "t_array(t_bytes32)dyn_storage": {
        "base": "t_bytes32",
        "encoding": "dynamic_array",
        "label": "bytes32[]",
        "numberOfBytes": "32"
      },
      "t_array(t_struct(Checkpoint208)9581_storage)dyn_storage": {
        "base": "t_struct(Checkpoint208)9581_storage",
        "encoding": "dynamic_array",
        "label": "struct Checkpoints.Checkpoint208[]",
        "numberOfBytes": "32"
      },
      "t_bool": {
        "encoding": "inplace",
        "label": "bool",
        "numberOfBytes": "1"
      },
      "t_bytes32": {
        "encoding": "inplace",
        "label": "bytes32",
        "numberOfBytes": "32"
      },
      "t_enum(DlpStatus)25178": {
        "encoding": "inplace",
        "label": "enum IDLPRoot.DlpStatus",
        "numberOfBytes": "1"
      },
      "t_mapping(t_address,t_struct(Staker)25264_storage)": {
        "encoding": "mapping",
        "key": "t_address",
        "label": "mapping(address => struct IDLPRoot.Staker)",
        "numberOfBytes": "32",
        "value": "t_struct(Staker)25264_storage"
      },
      "t_mapping(t_address,t_uint256)": {
        "encoding": "mapping",
        "key": "t_address",
        "label": "mapping(address => uint256)",
        "numberOfBytes": "32",
        "value": "t_uint256"
      },
      "t_mapping(t_bytes32,t_uint256)": {
        "encoding": "mapping",
        "key": "t_bytes32",
        "label": "mapping(bytes32 => uint256)",
        "numberOfBytes": "32",
        "value": "t_uint256"
      },
      "t_mapping(t_uint256,t_struct(Dlp)25215_storage)": {
        "encoding": "mapping",
        "key": "t_uint256",
        "label": "mapping(uint256 => struct IDLPRoot.Dlp)",
        "numberOfBytes": "32",
        "value": "t_struct(Dlp)25215_storage"
      },
      "t_mapping(t_uint256,t_struct(Epoch)25241_storage)": {
        "encoding": "mapping",
        "key": "t_uint256",
        "label": "mapping(uint256 => struct IDLPRoot.Epoch)",
        "numberOfBytes": "32",
        "value": "t_struct(Epoch)25241_storage"
      },
      "t_mapping(t_uint256,t_struct(EpochDlp)25224_storage)": {
        "encoding": "mapping",
        "key": "t_uint256",
        "label": "mapping(uint256 => struct IDLPRoot.EpochDlp)",
        "numberOfBytes": "32",
        "value": "t_struct(EpochDlp)25224_storage"
      },
      "t_mapping(t_uint256,t_struct(Stake)25260_storage)": {
        "encoding": "mapping",
        "key": "t_uint256",
        "label": "mapping(uint256 => struct IDLPRoot.Stake)",
        "numberOfBytes": "32",
        "value": "t_struct(Stake)25260_storage"
      },
      "t_mapping(t_uint256,t_uint256)": {
        "encoding": "mapping",
        "key": "t_uint256",
        "label": "mapping(uint256 => uint256)",
        "numberOfBytes": "32",
        "value": "t_uint256"
      },
      "t_string_storage": {
        "encoding": "bytes",
        "label": "string",
        "numberOfBytes": "32"
      },
      "t_struct(AddressSet)10940_storage": {
        "encoding": "inplace",
        "label": "struct EnumerableSet.AddressSet",
        "members": [
          {
            "astId": 10939,
            "contract": "contracts/root/DLPRootImplementation.sol:DLPRootImplementation",
            "label": "_inner",
            "offset": 0,
            "slot": "0",
            "type": "t_struct(Set)10625_storage"
          }
        ],
        "numberOfBytes": "64"
      },
      "t_struct(Checkpoint208)9581_storage": {
        "encoding": "inplace",
        "label": "struct Checkpoints.Checkpoint208",
        "members": [
          {
            "astId": 9578,
            "contract": "contracts/root/DLPRootImplementation.sol:DLPRootImplementation",
            "label": "_key",
            "offset": 0,
            "slot": "0",
            "type": "t_uint48"
          },
          {
            "astId": 9580,
            "contract": "contracts/root/DLPRootImplementation.sol:DLPRootImplementation",
            "label": "_value",
            "offset": 6,
            "slot": "0",
            "type": "t_uint208"
          }
        ],
        "numberOfBytes": "32"
      },
      "t_struct(Dlp)25215_storage": {
        "encoding": "inplace",
        "label": "struct IDLPRoot.Dlp",
        "members": [
          {
            "astId": 25180,
            "contract": "contracts/root/DLPRootImplementation.sol:DLPRootImplementation",
            "label": "id",
            "offset": 0,
            "slot": "0",
            "type": "t_uint256"
          },
          {
            "astId": 25182,
            "contract": "contracts/root/DLPRootImplementation.sol:DLPRootImplementation",
            "label": "dlpAddress",
            "offset": 0,
            "slot": "1",
            "type": "t_address"
          },
          {
            "astId": 25184,
            "contract": "contracts/root/DLPRootImplementation.sol:DLPRootImplementation",
            "label": "ownerAddress",
            "offset": 0,
            "slot": "2",
            "type": "t_address"
          },
          {
            "astId": 25186,
            "contract": "contracts/root/DLPRootImplementation.sol:DLPRootImplementation",
            "label": "treasuryAddress",
            "offset": 0,
            "slot": "3",
            "type": "t_address_payable"
          },
          {
            "astId": 25189,
            "contract": "contracts/root/DLPRootImplementation.sol:DLPRootImplementation",
            "label": "stakersPercentageCheckpoints",
            "offset": 0,
            "slot": "4",
            "type": "t_struct(Trace208)9576_storage"
          },
          {
            "astId": 25191,
            "contract": "contracts/root/DLPRootImplementation.sol:DLPRootImplementation",
            "label": "name",
            "offset": 0,
            "slot": "5",
            "type": "t_string_storage"
          },
          {
            "astId": 25193,
            "contract": "contracts/root/DLPRootImplementation.sol:DLPRootImplementation",
            "label": "iconUrl",
            "offset": 0,
            "slot": "6",
            "type": "t_string_storage"
          },
          {
            "astId": 25195,
            "contract": "contracts/root/DLPRootImplementation.sol:DLPRootImplementation",
            "label": "website",
            "offset": 0,
            "slot": "7",
            "type": "t_string_storage"
          },
          {
            "astId": 25197,
            "contract": "contracts/root/DLPRootImplementation.sol:DLPRootImplementation",
            "label": "metadata",
            "offset": 0,
            "slot": "8",
            "type": "t_string_storage"
          },
          {
            "astId": 25200,
            "contract": "contracts/root/DLPRootImplementation.sol:DLPRootImplementation",
            "label": "status",
            "offset": 0,
            "slot": "9",
            "type": "t_enum(DlpStatus)25178"
          },
          {
            "astId": 25202,
            "contract": "contracts/root/DLPRootImplementation.sol:DLPRootImplementation",
            "label": "registrationBlockNumber",
            "offset": 0,
            "slot": "10",
            "type": "t_uint256"
          },
          {
            "astId": 25205,
            "contract": "contracts/root/DLPRootImplementation.sol:DLPRootImplementation",
            "label": "stakeAmountCheckpoints",
            "offset": 0,
            "slot": "11",
            "type": "t_struct(Trace208)9576_storage"
          },
          {
            "astId": 25208,
            "contract": "contracts/root/DLPRootImplementation.sol:DLPRootImplementation",
            "label": "unstakeAmountCheckpoints",
            "offset": 0,
            "slot": "12",
            "type": "t_struct(Trace208)9576_storage"
          },
          {
            "astId": 25210,
            "contract": "contracts/root/DLPRootImplementation.sol:DLPRootImplementation",
            "label": "epochIdsCount",
            "offset": 0,
            "slot": "13",
            "type": "t_uint256"
          },
          {
            "astId": 25214,
            "contract": "contracts/root/DLPRootImplementation.sol:DLPRootImplementation",
            "label": "epochIds",
            "offset": 0,
            "slot": "14",
            "type": "t_mapping(t_uint256,t_uint256)"
          }
        ],
        "numberOfBytes": "480"
      },
      "t_struct(Epoch)25241_storage": {
        "encoding": "inplace",
        "label": "struct IDLPRoot.Epoch",
        "members": [
          {
            "astId": 25226,
            "contract": "contracts/root/DLPRootImplementation.sol:DLPRootImplementation",
            "label": "startBlock",
            "offset": 0,
            "slot": "0",
            "type": "t_uint256"
          },
          {
            "astId": 25228,
            "contract": "contracts/root/DLPRootImplementation.sol:DLPRootImplementation",
            "label": "endBlock",
            "offset": 0,
            "slot": "1",
            "type": "t_uint256"
          },
          {
            "astId": 25230,
            "contract": "contracts/root/DLPRootImplementation.sol:DLPRootImplementation",
            "label": "rewardAmount",
            "offset": 0,
            "slot": "2",
            "type": "t_uint256"
          },
          {
            "astId": 25232,
            "contract": "contracts/root/DLPRootImplementation.sol:DLPRootImplementation",
            "label": "isFinalised",
            "offset": 0,
            "slot": "3",
            "type": "t_bool"
          },
          {
            "astId": 25235,
            "contract": "contracts/root/DLPRootImplementation.sol:DLPRootImplementation",
            "label": "dlpIds",
            "offset": 0,
            "slot": "4",
            "type": "t_struct(UintSet)11097_storage"
          },
          {
            "astId": 25240,
            "contract": "contracts/root/DLPRootImplementation.sol:DLPRootImplementation",
            "label": "dlps",
            "offset": 0,
            "slot": "6",
            "type": "t_mapping(t_uint256,t_struct(EpochDlp)25224_storage)"
          }
        ],
        "numberOfBytes": "224"
      },
      "t_struct(EpochDlp)25224_storage": {
        "encoding": "inplace",
        "label": "struct IDLPRoot.EpochDlp",
        "members": [
          {
            "astId": 25217,
            "contract": "contracts/root/DLPRootImplementation.sol:DLPRootImplementation",
            "label": "rewardAmount",
            "offset": 0,
            "slot": "0",
            "type": "t_uint256"
          },
          {
            "astId": 25219,
            "contract": "contracts/root/DLPRootImplementation.sol:DLPRootImplementation",
            "label": "stakersPercentage",
            "offset": 0,
            "slot": "1",
            "type": "t_uint256"
          },
          {
            "astId": 25221,
            "contract": "contracts/root/DLPRootImplementation.sol:DLPRootImplementation",
            "label": "totalStakesScore",
            "offset": 0,
            "slot": "2",
            "type": "t_uint256"
          },
          {
            "astId": 25223,
            "contract": "contracts/root/DLPRootImplementation.sol:DLPRootImplementation",
            "label": "rewardClaimed",
            "offset": 0,
            "slot": "3",
            "type": "t_bool"
          }
        ],
        "numberOfBytes": "128"
      },
      "t_struct(Set)10625_storage": {
        "encoding": "inplace",
        "label": "struct EnumerableSet.Set",
        "members": [
          {
            "astId": 10620,
            "contract": "contracts/root/DLPRootImplementation.sol:DLPRootImplementation",
            "label": "_values",
            "offset": 0,
            "slot": "0",
            "type": "t_array(t_bytes32)dyn_storage"
          },
          {
            "astId": 10624,
            "contract": "contracts/root/DLPRootImplementation.sol:DLPRootImplementation",
            "label": "_positions",
            "offset": 0,
            "slot": "1",
            "type": "t_mapping(t_bytes32,t_uint256)"
          }
        ],
        "numberOfBytes": "64"
      },
      "t_struct(Stake)25260_storage": {
        "encoding": "inplace",
        "label": "struct IDLPRoot.Stake",
        "members": [
          {
            "astId": 25243,
            "contract": "contracts/root/DLPRootImplementation.sol:DLPRootImplementation",
            "label": "stakerAddress",
            "offset": 0,
            "slot": "0",
            "type": "t_address"
          },
          {
            "astId": 25245,
            "contract": "contracts/root/DLPRootImplementation.sol:DLPRootImplementation",
            "label": "dlpId",
            "offset": 0,
            "slot": "1",
            "type": "t_uint256"
          },
          {
            "astId": 25247,
            "contract": "contracts/root/DLPRootImplementation.sol:DLPRootImplementation",
            "label": "amount",
            "offset": 0,
            "slot": "2",
            "type": "t_uint256"
          },
          {
            "astId": 25249,
            "contract": "contracts/root/DLPRootImplementation.sol:DLPRootImplementation",
            "label": "startBlock",
            "offset": 0,
            "slot": "3",
            "type": "t_uint256"
          },
          {
            "astId": 25251,
            "contract": "contracts/root/DLPRootImplementation.sol:DLPRootImplementation",
            "label": "endBlock",
            "offset": 0,
            "slot": "4",
            "type": "t_uint256"
          },
          {
            "astId": 25253,
            "contract": "contracts/root/DLPRootImplementation.sol:DLPRootImplementation",
            "label": "withdrawn",
            "offset": 0,
            "slot": "5",
            "type": "t_bool"
          },
          {
            "astId": 25255,
            "contract": "contracts/root/DLPRootImplementation.sol:DLPRootImplementation",
            "label": "lastClaimedIndexEpochId",
            "offset": 0,
            "slot": "6",
            "type": "t_uint256"
          },
          {
            "astId": 25259,
            "contract": "contracts/root/DLPRootImplementation.sol:DLPRootImplementation",
            "label": "claimedAmounts",
            "offset": 0,
            "slot": "7",
            "type": "t_mapping(t_uint256,t_uint256)"
          }
        ],
        "numberOfBytes": "256"
      },
      "t_struct(Staker)25264_storage": {
        "encoding": "inplace",
        "label": "struct IDLPRoot.Staker",
        "members": [
          {
            "astId": 25263,
            "contract": "contracts/root/DLPRootImplementation.sol:DLPRootImplementation",
            "label": "dlpIds",
            "offset": 0,
            "slot": "0",
            "type": "t_struct(UintSet)11097_storage"
          }
        ],
        "numberOfBytes": "64"
      },
      "t_struct(Trace208)9576_storage": {
        "encoding": "inplace",
        "label": "struct Checkpoints.Trace208",
        "members": [
          {
            "astId": 9575,
            "contract": "contracts/root/DLPRootImplementation.sol:DLPRootImplementation",
            "label": "_checkpoints",
            "offset": 0,
            "slot": "0",
            "type": "t_array(t_struct(Checkpoint208)9581_storage)dyn_storage"
          }
        ],
        "numberOfBytes": "32"
      },
      "t_struct(UintSet)11097_storage": {
        "encoding": "inplace",
        "label": "struct EnumerableSet.UintSet",
        "members": [
          {
            "astId": 11096,
            "contract": "contracts/root/DLPRootImplementation.sol:DLPRootImplementation",
            "label": "_inner",
            "offset": 0,
            "slot": "0",
            "type": "t_struct(Set)10625_storage"
          }
        ],
        "numberOfBytes": "64"
      },
      "t_uint208": {
        "encoding": "inplace",
        "label": "uint208",
        "numberOfBytes": "26"
      },
      "t_uint256": {
        "encoding": "inplace",
        "label": "uint256",
        "numberOfBytes": "32"
      },
      "t_uint48": {
        "encoding": "inplace",
        "label": "uint48",
        "numberOfBytes": "6"
      }
    }
  }
}