{
  "address": "0x554cceb505220892c4280A8885DDa530334588d8",
  "abi": [
    {
      "inputs": [],
      "stateMutability": "nonpayable",
      "type": "constructor"
    },
    {
      "inputs": [
        {
          "internalType": "address",
          "name": "target",
          "type": "address"
        }
      ],
      "name": "AddressEmptyCode",
      "type": "error"
    },
    {
      "inputs": [
        {
          "internalType": "address",
          "name": "account",
          "type": "address"
        }
      ],
      "name": "AddressInsufficientBalance",
      "type": "error"
    },
    {
      "inputs": [
        {
          "internalType": "address",
          "name": "implementation",
          "type": "address"
        }
      ],
      "name": "ERC1967InvalidImplementation",
      "type": "error"
    },
    {
      "inputs": [],
      "name": "ERC1967NonPayable",
      "type": "error"
    },
    {
      "inputs": [],
      "name": "FailedInnerCall",
      "type": "error"
    },
    {
      "inputs": [],
      "name": "InvalidAllowance",
      "type": "error"
    },
    {
      "inputs": [],
      "name": "InvalidAmount",
      "type": "error"
    },
    {
      "inputs": [],
      "name": "InvalidInitialization",
      "type": "error"
    },
    {
      "inputs": [],
      "name": "NotInitializing",
      "type": "error"
    },
    {
      "inputs": [
        {
          "internalType": "address",
          "name": "owner",
          "type": "address"
        }
      ],
      "name": "OwnableInvalidOwner",
      "type": "error"
    },
    {
      "inputs": [
        {
          "internalType": "address",
          "name": "account",
          "type": "address"
        }
      ],
      "name": "OwnableUnauthorizedAccount",
      "type": "error"
    },
    {
      "inputs": [],
      "name": "ReentrancyGuardReentrantCall",
      "type": "error"
    },
    {
      "inputs": [
        {
          "internalType": "address",
          "name": "token",
          "type": "address"
        }
      ],
      "name": "SafeERC20FailedOperation",
      "type": "error"
    },
    {
      "inputs": [],
      "name": "UUPSUnauthorizedCallContext",
      "type": "error"
    },
    {
      "inputs": [
        {
          "internalType": "bytes32",
          "name": "slot",
          "type": "bytes32"
        }
      ],
      "name": "UUPSUnsupportedProxiableUUID",
      "type": "error"
    },
    {
      "anonymous": false,
      "inputs": [
        {
          "indexed": false,
          "internalType": "uint64",
          "name": "version",
          "type": "uint64"
        }
      ],
      "name": "Initialized",
      "type": "event"
    },
    {
      "anonymous": false,
      "inputs": [
        {
          "indexed": true,
          "internalType": "address",
          "name": "previousOwner",
          "type": "address"
        },
        {
          "indexed": true,
          "internalType": "address",
          "name": "newOwner",
          "type": "address"
        }
      ],
      "name": "OwnershipTransferStarted",
      "type": "event"
    },
    {
      "anonymous": false,
      "inputs": [
        {
          "indexed": true,
          "internalType": "address",
          "name": "previousOwner",
          "type": "address"
        },
        {
          "indexed": true,
          "internalType": "address",
          "name": "newOwner",
          "type": "address"
        }
      ],
      "name": "OwnershipTransferred",
      "type": "event"
    },
    {
      "anonymous": false,
      "inputs": [
        {
          "indexed": true,
          "internalType": "address",
          "name": "implementation",
          "type": "address"
        }
      ],
      "name": "Upgraded",
      "type": "event"
    },
    {
      "inputs": [],
      "name": "UPGRADE_INTERFACE_VERSION",
      "outputs": [
        {
          "internalType": "string",
          "name": "",
          "type": "string"
        }
      ],
      "stateMutability": "view",
      "type": "function"
    },
    {
      "inputs": [],
      "name": "acceptOwnership",
      "outputs": [],
      "stateMutability": "nonpayable",
      "type": "function"
    },
    {
      "inputs": [
        {
          "internalType": "address",
          "name": "ownerAddress",
          "type": "address"
        }
      ],
      "name": "initialize",
      "outputs": [],
      "stateMutability": "nonpayable",
      "type": "function"
    },
    {
      "inputs": [
        {
          "internalType": "contract IERC20",
          "name": "token",
          "type": "address"
        },
        {
          "internalType": "uint256",
          "name": "amount",
          "type": "uint256"
        },
        {
          "internalType": "address[]",
          "name": "recipients",
          "type": "address[]"
        }
      ],
      "name": "multisendToken",
      "outputs": [],
      "stateMutability": "nonpayable",
      "type": "function"
    },
    {
      "inputs": [
        {
          "internalType": "uint256",
          "name": "amount",
          "type": "uint256"
        },
        {
          "internalType": "address payable[]",
          "name": "recipients",
          "type": "address[]"
        }
      ],
      "name": "multisendVana",
      "outputs": [],
      "stateMutability": "payable",
      "type": "function"
    },
    {
      "inputs": [],
      "name": "owner",
      "outputs": [
        {
          "internalType": "address",
          "name": "",
          "type": "address"
        }
      ],
      "stateMutability": "view",
      "type": "function"
    },
    {
      "inputs": [],
      "name": "pendingOwner",
      "outputs": [
        {
          "internalType": "address",
          "name": "",
          "type": "address"
        }
      ],
      "stateMutability": "view",
      "type": "function"
    },
    {
      "inputs": [],
      "name": "proxiableUUID",
      "outputs": [
        {
          "internalType": "bytes32",
          "name": "",
          "type": "bytes32"
        }
      ],
      "stateMutability": "view",
      "type": "function"
    },
    {
      "inputs": [],
      "name": "renounceOwnership",
      "outputs": [],
      "stateMutability": "nonpayable",
      "type": "function"
    },
    {
      "inputs": [
        {
          "internalType": "address",
          "name": "newOwner",
          "type": "address"
        }
      ],
      "name": "transferOwnership",
      "outputs": [],
      "stateMutability": "nonpayable",
      "type": "function"
    },
    {
      "inputs": [
        {
          "internalType": "address",
          "name": "newImplementation",
          "type": "address"
        },
        {
          "internalType": "bytes",
          "name": "data",
          "type": "bytes"
        }
      ],
      "name": "upgradeToAndCall",
      "outputs": [],
      "stateMutability": "payable",
      "type": "function"
    }
  ],
  "transactionHash": "0x2685fccf6346d20f081a4ff2341f59b8326bcf0f9967e80f98fe91d288a50baa",
  "args": [],
  "numDeployments": 1,
  "solcInputHash": "5f74400b041aa8ac5dc0b898cad2e93f",
  "bytecode": "0x60a06040523060805234801561001457600080fd5b5061001d610022565b6100d4565b7ff0c57e16840df040f15088dc2f81fe391c3923bec73e23a9662efc9c229c6a00805468010000000000000000900460ff16156100725760405163f92ee8a960e01b815260040160405180910390fd5b80546001600160401b03908116146100d15780546001600160401b0319166001600160401b0390811782556040519081527fc7f505b2f371ae2175ee4913f4499e1f2633a7b5936321eed1cdaeb6115181d29060200160405180910390a15b50565b6080516111a36100fd6000396000818161071801528181610741015261088201526111a36000f3fe60806040526004361061009c5760003560e01c80638da5cb5b116100645780638da5cb5b1461011b57806398035f4b14610148578063ad3cb1cc14610168578063c4d66de8146101a6578063e30c3978146101c6578063f2fde38b146101db57600080fd5b80634f1ef286146100a157806352d1902d146100b6578063715018a6146100de57806379b9add0146100f357806379ba509714610106575b600080fd5b6100b46100af366004610df8565b6101fb565b005b3480156100c257600080fd5b506100cb61021a565b6040519081526020015b60405180910390f35b3480156100ea57600080fd5b506100b4610237565b6100b4610101366004610ec4565b61024b565b34801561011257600080fd5b506100b4610317565b34801561012757600080fd5b50610130610364565b6040516001600160a01b0390911681526020016100d5565b34801561015457600080fd5b506100b4610163366004610f6f565b610399565b34801561017457600080fd5b50610199604051806040016040528060058152602001640352e302e360dc1b81525081565b6040516100d5919061104b565b3480156101b257600080fd5b506100b46101c136600461107e565b610537565b3480156101d257600080fd5b5061013061065f565b3480156101e757600080fd5b506100b46101f636600461107e565b610688565b61020361070d565b61020c826107b2565b61021682826107ba565b5050565b6000610224610877565b5060008051602061112e83398151915290565b61023f6108c0565b61024960006108f2565b565b61025361092a565b805161025f908361109b565b34101561027f5760405163162908e360e11b815260040160405180910390fd5b60005b81518110156102ff5781818151811061029d5761029d6110c0565b60200260200101516001600160a01b03168360405160006040518083038185875af1925050503d80600081146102ef576040519150601f19603f3d011682016040523d82523d6000602084013e6102f4565b606091505b505050600101610282565b50610216600160008051602061114e83398151915255565b338061032161065f565b6001600160a01b0316146103585760405163118cdaa760e01b81526001600160a01b03821660048201526024015b60405180910390fd5b610361816108f2565b50565b6000807f9016d09d72d40fdae2fd8ceac6b6234c7706214fd39c1cd1e609a0528c1993005b546001600160a01b031692915050565b6103a161092a565b80516103ad908361109b565b6040516370a0823160e01b81523360048201526001600160a01b038516906370a0823190602401602060405180830381865afa1580156103f1573d6000803e3d6000fd5b505050506040513d601f19601f8201168201806040525081019061041591906110d6565b10156104345760405163162908e360e11b815260040160405180910390fd5b8051610440908361109b565b604051636eb1769f60e11b81523360048201523060248201526001600160a01b0385169063dd62ed3e90604401602060405180830381865afa15801561048a573d6000803e3d6000fd5b505050506040513d601f19601f820116820180604052508101906104ae91906110d6565b10156104cd576040516365ba6fc360e01b815260040160405180910390fd5b60005b815181101561051a57610512338383815181106104ef576104ef6110c0565b602002602001015185876001600160a01b0316610976909392919063ffffffff16565b6001016104d0565b50610532600160008051602061114e83398151915255565b505050565b7ff0c57e16840df040f15088dc2f81fe391c3923bec73e23a9662efc9c229c6a008054600160401b810460ff16159067ffffffffffffffff1660008115801561057d5750825b905060008267ffffffffffffffff16600114801561059a5750303b155b9050811580156105a8575080155b156105c65760405163f92ee8a960e01b815260040160405180910390fd5b845467ffffffffffffffff1916600117855583156105f057845460ff60401b1916600160401b1785555b6105f86109d6565b6106006109d6565b6106086109de565b610611866108f2565b831561065757845460ff60401b19168555604051600181527fc7f505b2f371ae2175ee4913f4499e1f2633a7b5936321eed1cdaeb6115181d29060200160405180910390a15b505050505050565b6000807f237e158222e3e6968b72b9db0d8043aacf074ad9f650f0d1606b4d82ee432c00610389565b6106906108c0565b7f237e158222e3e6968b72b9db0d8043aacf074ad9f650f0d1606b4d82ee432c0080546001600160a01b0319166001600160a01b03831690811782556106d4610364565b6001600160a01b03167f38d16b8cac22d99fc7c124b9cd0de2d3fa1faef420bfe791d8c362d765e2270060405160405180910390a35050565b306001600160a01b037f000000000000000000000000000000000000000000000000000000000000000016148061079457507f00000000000000000000000000000000000000000000000000000000000000006001600160a01b031661078860008051602061112e833981519152546001600160a01b031690565b6001600160a01b031614155b156102495760405163703e46dd60e11b815260040160405180910390fd5b6103616108c0565b816001600160a01b03166352d1902d6040518163ffffffff1660e01b8152600401602060405180830381865afa925050508015610814575060408051601f3d908101601f19168201909252610811918101906110d6565b60015b61083c57604051634c9c8ce360e01b81526001600160a01b038316600482015260240161034f565b60008051602061112e833981519152811461086d57604051632a87526960e21b81526004810182905260240161034f565b61053283836109ee565b306001600160a01b037f000000000000000000000000000000000000000000000000000000000000000016146102495760405163703e46dd60e11b815260040160405180910390fd5b336108c9610364565b6001600160a01b0316146102495760405163118cdaa760e01b815233600482015260240161034f565b7f237e158222e3e6968b72b9db0d8043aacf074ad9f650f0d1606b4d82ee432c0080546001600160a01b031916815561021682610a44565b60008051602061114e83398151915280546001190161095c57604051633ee5aeb560e01b815260040160405180910390fd5b60029055565b600160008051602061114e83398151915255565b604080516001600160a01b0385811660248301528416604482015260648082018490528251808303909101815260849091019091526020810180516001600160e01b03166323b872dd60e01b1790526109d0908590610ab5565b50505050565b610249610b18565b6109e6610b18565b610249610b61565b6109f782610b69565b6040516001600160a01b038316907fbc7cd75a20ee27fd9adebab32041f755214dbc6bffa90cc0225b39da2e5c2d3b90600090a2805115610a3c576105328282610bce565b610216610c46565b7f9016d09d72d40fdae2fd8ceac6b6234c7706214fd39c1cd1e609a0528c19930080546001600160a01b031981166001600160a01b03848116918217845560405192169182907f8be0079c531659141344cd1fd0a4f28419497f9722a3daafe3b4186f6b6457e090600090a3505050565b6000610aca6001600160a01b03841683610c65565b90508051600014158015610aef575080806020019051810190610aed91906110ef565b155b1561053257604051635274afe760e01b81526001600160a01b038416600482015260240161034f565b7ff0c57e16840df040f15088dc2f81fe391c3923bec73e23a9662efc9c229c6a0054600160401b900460ff1661024957604051631afcd79f60e31b815260040160405180910390fd5b610962610b18565b806001600160a01b03163b600003610b9f57604051634c9c8ce360e01b81526001600160a01b038216600482015260240161034f565b60008051602061112e83398151915280546001600160a01b0319166001600160a01b0392909216919091179055565b6060600080846001600160a01b031684604051610beb9190611111565b600060405180830381855af49150503d8060008114610c26576040519150601f19603f3d011682016040523d82523d6000602084013e610c2b565b606091505b5091509150610c3b858383610c7a565b925050505b92915050565b34156102495760405163b398979f60e01b815260040160405180910390fd5b6060610c7383836000610cd6565b9392505050565b606082610c8f57610c8a82610d73565b610c73565b8151158015610ca657506001600160a01b0384163b155b15610ccf57604051639996b31560e01b81526001600160a01b038516600482015260240161034f565b5092915050565b606081471015610cfb5760405163cd78605960e01b815230600482015260240161034f565b600080856001600160a01b03168486604051610d179190611111565b60006040518083038185875af1925050503d8060008114610d54576040519150601f19603f3d011682016040523d82523d6000602084013e610d59565b606091505b5091509150610d69868383610c7a565b9695505050505050565b805115610d835780518082602001fd5b604051630a12f52160e11b815260040160405180910390fd5b6001600160a01b038116811461036157600080fd5b634e487b7160e01b600052604160045260246000fd5b604051601f8201601f1916810167ffffffffffffffff81118282101715610df057610df0610db1565b604052919050565b60008060408385031215610e0b57600080fd5b8235610e1681610d9c565b915060208381013567ffffffffffffffff80821115610e3457600080fd5b818601915086601f830112610e4857600080fd5b813581811115610e5a57610e5a610db1565b610e6c601f8201601f19168501610dc7565b91508082528784828501011115610e8257600080fd5b80848401858401376000848284010152508093505050509250929050565b600067ffffffffffffffff821115610eba57610eba610db1565b5060051b60200190565b60008060408385031215610ed757600080fd5b8235915060208084013567ffffffffffffffff811115610ef657600080fd5b8401601f81018613610f0757600080fd5b8035610f1a610f1582610ea0565b610dc7565b81815260059190911b82018301908381019088831115610f3957600080fd5b928401925b82841015610f60578335610f5181610d9c565b82529284019290840190610f3e565b80955050505050509250929050565b600080600060608486031215610f8457600080fd5b8335610f8f81610d9c565b92506020848101359250604085013567ffffffffffffffff811115610fb357600080fd5b8501601f81018713610fc457600080fd5b8035610fd2610f1582610ea0565b81815260059190911b82018301908381019089831115610ff157600080fd5b928401925b8284101561101857833561100981610d9c565b82529284019290840190610ff6565b80955050505050509250925092565b60005b8381101561104257818101518382015260200161102a565b50506000910152565b602081526000825180602084015261106a816040850160208701611027565b601f01601f19169190910160400192915050565b60006020828403121561109057600080fd5b8135610c7381610d9c565b8082028115828204841417610c4057634e487b7160e01b600052601160045260246000fd5b634e487b7160e01b600052603260045260246000fd5b6000602082840312156110e857600080fd5b5051919050565b60006020828403121561110157600080fd5b81518015158114610c7357600080fd5b60008251611123818460208701611027565b919091019291505056fe360894a13ba1a3210667c828492db98dca3e2076cc3735a920a3ca505d382bbc9b779b17422d0df92223018b32b4d1fa46e071723d6817e2486d003becc55f00a2646970667358221220815668a1fc95e6d071bd41e66142c5666b3f3ff031775e67e8c0c64defe9166164736f6c63430008180033",
  "devdoc": {
    "errors": {
      "AddressEmptyCode(address)": [
        {
          "details": "There's no code at `target` (it is not a contract)."
        }
      ],
      "AddressInsufficientBalance(address)": [
        {
          "details": "The ETH balance of the account is not enough to perform the operation."
        }
      ],
      "ERC1967InvalidImplementation(address)": [
        {
          "details": "The `implementation` of the proxy is invalid."
        }
      ],
      "ERC1967NonPayable()": [
        {
          "details": "An upgrade function sees `msg.value > 0` that may be lost."
        }
      ],
      "FailedInnerCall()": [
        {
          "details": "A call to an address target failed. The target may have reverted."
        }
      ],
      "InvalidInitialization()": [
        {
          "details": "The contract is already initialized."
        }
      ],
      "NotInitializing()": [
        {
          "details": "The contract is not initializing."
        }
      ],
      "OwnableInvalidOwner(address)": [
        {
          "details": "The owner is not a valid owner account. (eg. `address(0)`)"
        }
      ],
      "OwnableUnauthorizedAccount(address)": [
        {
          "details": "The caller account is not authorized to perform an operation."
        }
      ],
      "ReentrancyGuardReentrantCall()": [
        {
          "details": "Unauthorized reentrant call."
        }
      ],
      "SafeERC20FailedOperation(address)": [
        {
          "details": "An operation with an ERC20 token failed."
        }
      ],
      "UUPSUnauthorizedCallContext()": [
        {
          "details": "The call is from an unauthorized context."
        }
      ],
      "UUPSUnsupportedProxiableUUID(bytes32)": [
        {
          "details": "The storage `slot` is unsupported as a UUID."
        }
      ]
    },
    "events": {
      "Initialized(uint64)": {
        "details": "Triggered when the contract has been initialized or reinitialized."
      },
      "Upgraded(address)": {
        "details": "Emitted when the implementation is upgraded."
      }
    },
    "kind": "dev",
    "methods": {
      "acceptOwnership()": {
        "details": "The new owner accepts the ownership transfer."
      },
      "constructor": {
        "custom:oz-upgrades-unsafe-allow": "constructor"
      },
      "initialize(address)": {
        "params": {
          "ownerAddress": "Address of the owner"
        }
      },
      "owner()": {
        "details": "Returns the address of the current owner."
      },
      "pendingOwner()": {
        "details": "Returns the address of the pending owner."
      },
      "proxiableUUID()": {
        "details": "Implementation of the ERC1822 {proxiableUUID} function. This returns the storage slot used by the implementation. It is used to validate the implementation's compatibility when performing an upgrade. IMPORTANT: A proxy pointing at a proxiable contract should not be considered proxiable itself, because this risks bricking a proxy that upgrades to it, by delegating to itself until out of gas. Thus it is critical that this function revert if invoked through a proxy. This is guaranteed by the `notDelegated` modifier."
      },
      "renounceOwnership()": {
        "details": "Leaves the contract without owner. It will not be possible to call `onlyOwner` functions. Can only be called by the current owner. NOTE: Renouncing ownership will leave the contract without an owner, thereby disabling any functionality that is only available to the owner."
      },
      "transferOwnership(address)": {
        "details": "Starts the ownership transfer of the contract to a new account. Replaces the pending transfer if there is one. Can only be called by the current owner."
      },
      "upgradeToAndCall(address,bytes)": {
        "custom:oz-upgrades-unsafe-allow-reachable": "delegatecall",
        "details": "Upgrade the implementation of the proxy to `newImplementation`, and subsequently execute the function call encoded in `data`. Calls {_authorizeUpgrade}. Emits an {Upgraded} event."
      }
    },
    "version": 1
  },
  "userdoc": {
    "kind": "user",
    "methods": {
      "initialize(address)": {
        "notice": "Used to initialize a new Faucet contract"
      }
    },
    "version": 1
  },
  "storageLayout": {
    "storage": [],
    "types": null
  }
}