{
  "address": "0xb427eAbbF997080861BDC9051c4663f18f3fAE57",
  "abi": [
    {
      "inputs": [],
      "stateMutability": "nonpayable",
      "type": "constructor"
    },
    {
      "inputs": [
        {
          "internalType": "address",
          "name": "target",
          "type": "address"
        }
      ],
      "name": "AddressEmptyCode",
      "type": "error"
    },
    {
      "inputs": [],
      "name": "CancelDelayNotPassed",
      "type": "error"
    },
    {
      "inputs": [
        {
          "internalType": "address",
          "name": "implementation",
          "type": "address"
        }
      ],
      "name": "ERC1967InvalidImplementation",
      "type": "error"
    },
    {
      "inputs": [],
      "name": "ERC1967NonPayable",
      "type": "error"
    },
    {
      "inputs": [],
      "name": "EnforcedPause",
      "type": "error"
    },
    {
      "inputs": [],
      "name": "ExpectedPause",
      "type": "error"
    },
    {
      "inputs": [],
      "name": "FailedInnerCall",
      "type": "error"
    },
    {
      "inputs": [],
      "name": "InsufficientFee",
      "type": "error"
    },
    {
      "inputs": [],
      "name": "InvalidInitialization",
      "type": "error"
    },
    {
      "inputs": [],
      "name": "InvalidJobStatus",
      "type": "error"
    },
    {
      "inputs": [],
      "name": "InvalidJobTee",
      "type": "error"
    },
    {
      "inputs": [],
      "name": "JobCompleted",
      "type": "error"
    },
    {
      "inputs": [],
      "name": "NoActiveTee",
      "type": "error"
    },
    {
      "inputs": [],
      "name": "NotInitializing",
      "type": "error"
    },
    {
      "inputs": [],
      "name": "NotJobOwner",
      "type": "error"
    },
    {
      "inputs": [],
      "name": "NothingToClaim",
      "type": "error"
    },
    {
      "inputs": [
        {
          "internalType": "address",
          "name": "owner",
          "type": "address"
        }
      ],
      "name": "OwnableInvalidOwner",
      "type": "error"
    },
    {
      "inputs": [
        {
          "internalType": "address",
          "name": "account",
          "type": "address"
        }
      ],
      "name": "OwnableUnauthorizedAccount",
      "type": "error"
    },
    {
      "inputs": [],
      "name": "ReentrancyGuardReentrantCall",
      "type": "error"
    },
    {
      "inputs": [],
      "name": "TeeAlreadyAdded",
      "type": "error"
    },
    {
      "inputs": [],
      "name": "TeeNotActive",
      "type": "error"
    },
    {
      "inputs": [],
      "name": "TransferFailed",
      "type": "error"
    },
    {
      "inputs": [],
      "name": "UUPSUnauthorizedCallContext",
      "type": "error"
    },
    {
      "inputs": [
        {
          "internalType": "bytes32",
          "name": "slot",
          "type": "bytes32"
        }
      ],
      "name": "UUPSUnsupportedProxiableUUID",
      "type": "error"
    },
    {
      "anonymous": false,
      "inputs": [
        {
          "indexed": true,
          "internalType": "address",
          "name": "teeAddress",
          "type": "address"
        },
        {
          "indexed": false,
          "internalType": "uint256",
          "name": "amount",
          "type": "uint256"
        }
      ],
      "name": "Claimed",
      "type": "event"
    },
    {
      "anonymous": false,
      "inputs": [
        {
          "indexed": false,
          "internalType": "uint64",
          "name": "version",
          "type": "uint64"
        }
      ],
      "name": "Initialized",
      "type": "event"
    },
    {
      "anonymous": false,
      "inputs": [
        {
          "indexed": true,
          "internalType": "uint256",
          "name": "jobId",
          "type": "uint256"
        }
      ],
      "name": "JobCanceled",
      "type": "event"
    },
    {
      "anonymous": false,
      "inputs": [
        {
          "indexed": true,
          "internalType": "uint256",
          "name": "jobId",
          "type": "uint256"
        },
        {
          "indexed": true,
          "internalType": "uint256",
          "name": "fileId",
          "type": "uint256"
        },
        {
          "indexed": false,
          "internalType": "address",
          "name": "teeAddress",
          "type": "address"
        },
        {
          "indexed": false,
          "internalType": "uint256",
          "name": "bidAmount",
          "type": "uint256"
        }
      ],
      "name": "JobSubmitted",
      "type": "event"
    },
    {
      "anonymous": false,
      "inputs": [
        {
          "indexed": true,
          "internalType": "address",
          "name": "previousOwner",
          "type": "address"
        },
        {
          "indexed": true,
          "internalType": "address",
          "name": "newOwner",
          "type": "address"
        }
      ],
      "name": "OwnershipTransferStarted",
      "type": "event"
    },
    {
      "anonymous": false,
      "inputs": [
        {
          "indexed": true,
          "internalType": "address",
          "name": "previousOwner",
          "type": "address"
        },
        {
          "indexed": true,
          "internalType": "address",
          "name": "newOwner",
          "type": "address"
        }
      ],
      "name": "OwnershipTransferred",
      "type": "event"
    },
    {
      "anonymous": false,
      "inputs": [
        {
          "indexed": false,
          "internalType": "address",
          "name": "account",
          "type": "address"
        }
      ],
      "name": "Paused",
      "type": "event"
    },
    {
      "anonymous": false,
      "inputs": [
        {
          "indexed": true,
          "internalType": "address",
          "name": "attestator",
          "type": "address"
        },
        {
          "indexed": true,
          "internalType": "uint256",
          "name": "jobId",
          "type": "uint256"
        },
        {
          "indexed": true,
          "internalType": "uint256",
          "name": "fileId",
          "type": "uint256"
        }
      ],
      "name": "ProofAdded",
      "type": "event"
    },
    {
      "anonymous": false,
      "inputs": [
        {
          "indexed": true,
          "internalType": "address",
          "name": "teeAddress",
          "type": "address"
        }
      ],
      "name": "TeeAdded",
      "type": "event"
    },
    {
      "anonymous": false,
      "inputs": [
        {
          "indexed": true,
          "internalType": "address",
          "name": "teeAddress",
          "type": "address"
        }
      ],
      "name": "TeeRemoved",
      "type": "event"
    },
    {
      "anonymous": false,
      "inputs": [
        {
          "indexed": false,
          "internalType": "address",
          "name": "account",
          "type": "address"
        }
      ],
      "name": "Unpaused",
      "type": "event"
    },
    {
      "anonymous": false,
      "inputs": [
        {
          "indexed": true,
          "internalType": "address",
          "name": "implementation",
          "type": "address"
        }
      ],
      "name": "Upgraded",
      "type": "event"
    },
    {
      "inputs": [],
      "name": "UPGRADE_INTERFACE_VERSION",
      "outputs": [
        {
          "internalType": "string",
          "name": "",
          "type": "string"
        }
      ],
      "stateMutability": "view",
      "type": "function"
    },
    {
      "inputs": [],
      "name": "acceptOwnership",
      "outputs": [],
      "stateMutability": "nonpayable",
      "type": "function"
    },
    {
      "inputs": [],
      "name": "activeTeeList",
      "outputs": [
        {
          "internalType": "address[]",
          "name": "",
          "type": "address[]"
        }
      ],
      "stateMutability": "view",
      "type": "function"
    },
    {
      "inputs": [
        {
          "internalType": "uint256",
          "name": "index",
          "type": "uint256"
        }
      ],
      "name": "activeTeeListAt",
      "outputs": [
        {
          "components": [
            {
              "internalType": "address",
              "name": "teeAddress",
              "type": "address"
            },
            {
              "internalType": "string",
              "name": "url",
              "type": "string"
            },
            {
              "internalType": "enum ITeePool.TeeStatus",
              "name": "status",
              "type": "uint8"
            },
            {
              "internalType": "uint256",
              "name": "amount",
              "type": "uint256"
            },
            {
              "internalType": "uint256",
              "name": "withdrawnAmount",
              "type": "uint256"
            },
            {
              "internalType": "uint256",
              "name": "jobsCount",
              "type": "uint256"
            }
          ],
          "internalType": "struct ITeePool.TeeInfo",
          "name": "",
          "type": "tuple"
        }
      ],
      "stateMutability": "view",
      "type": "function"
    },
    {
      "inputs": [],
      "name": "activeTeesCount",
      "outputs": [
        {
          "internalType": "uint256",
          "name": "",
          "type": "uint256"
        }
      ],
      "stateMutability": "view",
      "type": "function"
    },
    {
      "inputs": [
        {
          "internalType": "uint256",
          "name": "jobId",
          "type": "uint256"
        },
        {
          "components": [
            {
              "internalType": "bytes",
              "name": "signature",
              "type": "bytes"
            },
            {
              "components": [
                {
                  "internalType": "uint256",
                  "name": "score",
                  "type": "uint256"
                },
                {
                  "internalType": "uint256",
                  "name": "dlpId",
                  "type": "uint256"
                },
                {
                  "internalType": "string",
                  "name": "metadata",
                  "type": "string"
                },
                {
                  "internalType": "string",
                  "name": "proofUrl",
                  "type": "string"
                },
                {
                  "internalType": "string",
                  "name": "instruction",
                  "type": "string"
                }
              ],
              "internalType": "struct IDataRegistry.ProofData",
              "name": "data",
              "type": "tuple"
            }
          ],
          "internalType": "struct IDataRegistry.Proof",
          "name": "proof",
          "type": "tuple"
        }
      ],
      "name": "addProof",
      "outputs": [],
      "stateMutability": "payable",
      "type": "function"
    },
    {
      "inputs": [
        {
          "internalType": "address",
          "name": "teeAddress",
          "type": "address"
        },
        {
          "internalType": "string",
          "name": "url",
          "type": "string"
        }
      ],
      "name": "addTee",
      "outputs": [],
      "stateMutability": "nonpayable",
      "type": "function"
    },
    {
      "inputs": [],
      "name": "cancelDelay",
      "outputs": [
        {
          "internalType": "uint256",
          "name": "",
          "type": "uint256"
        }
      ],
      "stateMutability": "view",
      "type": "function"
    },
    {
      "inputs": [
        {
          "internalType": "uint256",
          "name": "jobId",
          "type": "uint256"
        }
      ],
      "name": "cancelJob",
      "outputs": [],
      "stateMutability": "nonpayable",
      "type": "function"
    },
    {
      "inputs": [],
      "name": "claim",
      "outputs": [],
      "stateMutability": "nonpayable",
      "type": "function"
    },
    {
      "inputs": [],
      "name": "dataRegistry",
      "outputs": [
        {
          "internalType": "contract IDataRegistry",
          "name": "",
          "type": "address"
        }
      ],
      "stateMutability": "view",
      "type": "function"
    },
    {
      "inputs": [
        {
          "internalType": "uint256",
          "name": "fileId",
          "type": "uint256"
        }
      ],
      "name": "fileJobIds",
      "outputs": [
        {
          "internalType": "uint256[]",
          "name": "",
          "type": "uint256[]"
        }
      ],
      "stateMutability": "view",
      "type": "function"
    },
    {
      "inputs": [
        {
          "internalType": "address",
          "name": "ownerAddress",
          "type": "address"
        },
        {
          "internalType": "address",
          "name": "dataRegistryAddress",
          "type": "address"
        },
        {
          "internalType": "uint256",
          "name": "initialCancelDelay",
          "type": "uint256"
        }
      ],
      "name": "initialize",
      "outputs": [],
      "stateMutability": "nonpayable",
      "type": "function"
    },
    {
      "inputs": [
        {
          "internalType": "address",
          "name": "teeAddress",
          "type": "address"
        }
      ],
      "name": "isTee",
      "outputs": [
        {
          "internalType": "bool",
          "name": "",
          "type": "bool"
        }
      ],
      "stateMutability": "view",
      "type": "function"
    },
    {
      "inputs": [
        {
          "internalType": "uint256",
          "name": "jobId",
          "type": "uint256"
        }
      ],
      "name": "jobs",
      "outputs": [
        {
          "components": [
            {
              "internalType": "uint256",
              "name": "fileId",
              "type": "uint256"
            },
            {
              "internalType": "uint256",
              "name": "bidAmount",
              "type": "uint256"
            },
            {
              "internalType": "enum ITeePool.JobStatus",
              "name": "status",
              "type": "uint8"
            },
            {
              "internalType": "uint256",
              "name": "addedTimestamp",
              "type": "uint256"
            },
            {
              "internalType": "address",
              "name": "ownerAddress",
              "type": "address"
            },
            {
              "internalType": "address",
              "name": "teeAddress",
              "type": "address"
            }
          ],
          "internalType": "struct ITeePool.Job",
          "name": "",
          "type": "tuple"
        }
      ],
      "stateMutability": "view",
      "type": "function"
    },
    {
      "inputs": [],
      "name": "jobsCount",
      "outputs": [
        {
          "internalType": "uint256",
          "name": "",
          "type": "uint256"
        }
      ],
      "stateMutability": "view",
      "type": "function"
    },
    {
      "inputs": [
        {
          "internalType": "bytes[]",
          "name": "data",
          "type": "bytes[]"
        }
      ],
      "name": "multicall",
      "outputs": [
        {
          "internalType": "bytes[]",
          "name": "results",
          "type": "bytes[]"
        }
      ],
      "stateMutability": "nonpayable",
      "type": "function"
    },
    {
      "inputs": [],
      "name": "owner",
      "outputs": [
        {
          "internalType": "address",
          "name": "",
          "type": "address"
        }
      ],
      "stateMutability": "view",
      "type": "function"
    },
    {
      "inputs": [],
      "name": "pause",
      "outputs": [],
      "stateMutability": "nonpayable",
      "type": "function"
    },
    {
      "inputs": [],
      "name": "paused",
      "outputs": [
        {
          "internalType": "bool",
          "name": "",
          "type": "bool"
        }
      ],
      "stateMutability": "view",
      "type": "function"
    },
    {
      "inputs": [],
      "name": "pendingOwner",
      "outputs": [
        {
          "internalType": "address",
          "name": "",
          "type": "address"
        }
      ],
      "stateMutability": "view",
      "type": "function"
    },
    {
      "inputs": [],
      "name": "proxiableUUID",
      "outputs": [
        {
          "internalType": "bytes32",
          "name": "",
          "type": "bytes32"
        }
      ],
      "stateMutability": "view",
      "type": "function"
    },
    {
      "inputs": [
        {
          "internalType": "address",
          "name": "teeAddress",
          "type": "address"
        }
      ],
      "name": "removeTee",
      "outputs": [],
      "stateMutability": "nonpayable",
      "type": "function"
    },
    {
      "inputs": [],
      "name": "renounceOwnership",
      "outputs": [],
      "stateMutability": "nonpayable",
      "type": "function"
    },
    {
      "inputs": [
        {
          "internalType": "uint256",
          "name": "fileId",
          "type": "uint256"
        }
      ],
      "name": "requestContributionProof",
      "outputs": [],
      "stateMutability": "payable",
      "type": "function"
    },
    {
      "inputs": [
        {
          "internalType": "uint256",
          "name": "fileId",
          "type": "uint256"
        }
      ],
      "name": "submitJob",
      "outputs": [],
      "stateMutability": "payable",
      "type": "function"
    },
    {
      "inputs": [],
      "name": "teeFee",
      "outputs": [
        {
          "internalType": "uint256",
          "name": "",
          "type": "uint256"
        }
      ],
      "stateMutability": "view",
      "type": "function"
    },
    {
      "inputs": [
        {
          "internalType": "address",
          "name": "teeAddress",
          "type": "address"
        },
        {
          "internalType": "uint256",
          "name": "start",
          "type": "uint256"
        },
        {
          "internalType": "uint256",
          "name": "limit",
          "type": "uint256"
        }
      ],
      "name": "teeJobIdsPaginated",
      "outputs": [
        {
          "internalType": "uint256[]",
          "name": "",
          "type": "uint256[]"
        }
      ],
      "stateMutability": "view",
      "type": "function"
    },
    {
      "inputs": [],
      "name": "teeList",
      "outputs": [
        {
          "internalType": "address[]",
          "name": "",
          "type": "address[]"
        }
      ],
      "stateMutability": "view",
      "type": "function"
    },
    {
      "inputs": [
        {
          "internalType": "uint256",
          "name": "index",
          "type": "uint256"
        }
      ],
      "name": "teeListAt",
      "outputs": [
        {
          "components": [
            {
              "internalType": "address",
              "name": "teeAddress",
              "type": "address"
            },
            {
              "internalType": "string",
              "name": "url",
              "type": "string"
            },
            {
              "internalType": "enum ITeePool.TeeStatus",
              "name": "status",
              "type": "uint8"
            },
            {
              "internalType": "uint256",
              "name": "amount",
              "type": "uint256"
            },
            {
              "internalType": "uint256",
              "name": "withdrawnAmount",
              "type": "uint256"
            },
            {
              "internalType": "uint256",
              "name": "jobsCount",
              "type": "uint256"
            }
          ],
          "internalType": "struct ITeePool.TeeInfo",
          "name": "",
          "type": "tuple"
        }
      ],
      "stateMutability": "view",
      "type": "function"
    },
    {
      "inputs": [
        {
          "internalType": "address",
          "name": "teeAddress",
          "type": "address"
        }
      ],
      "name": "tees",
      "outputs": [
        {
          "components": [
            {
              "internalType": "address",
              "name": "teeAddress",
              "type": "address"
            },
            {
              "internalType": "string",
              "name": "url",
              "type": "string"
            },
            {
              "internalType": "enum ITeePool.TeeStatus",
              "name": "status",
              "type": "uint8"
            },
            {
              "internalType": "uint256",
              "name": "amount",
              "type": "uint256"
            },
            {
              "internalType": "uint256",
              "name": "withdrawnAmount",
              "type": "uint256"
            },
            {
              "internalType": "uint256",
              "name": "jobsCount",
              "type": "uint256"
            }
          ],
          "internalType": "struct ITeePool.TeeInfo",
          "name": "",
          "type": "tuple"
        }
      ],
      "stateMutability": "view",
      "type": "function"
    },
    {
      "inputs": [],
      "name": "teesCount",
      "outputs": [
        {
          "internalType": "uint256",
          "name": "",
          "type": "uint256"
        }
      ],
      "stateMutability": "view",
      "type": "function"
    },
    {
      "inputs": [
        {
          "internalType": "address",
          "name": "newOwner",
          "type": "address"
        }
      ],
      "name": "transferOwnership",
      "outputs": [],
      "stateMutability": "nonpayable",
      "type": "function"
    },
    {
      "inputs": [],
      "name": "unpause",
      "outputs": [],
      "stateMutability": "nonpayable",
      "type": "function"
    },
    {
      "inputs": [
        {
          "internalType": "uint256",
          "name": "newCancelDelay",
          "type": "uint256"
        }
      ],
      "name": "updateCancelDelay",
      "outputs": [],
      "stateMutability": "nonpayable",
      "type": "function"
    },
    {
      "inputs": [
        {
          "internalType": "contract IDataRegistry",
          "name": "newDataRegistry",
          "type": "address"
        }
      ],
      "name": "updateDataRegistry",
      "outputs": [],
      "stateMutability": "nonpayable",
      "type": "function"
    },
    {
      "inputs": [
        {
          "internalType": "uint256",
          "name": "newTeeFee",
          "type": "uint256"
        }
      ],
      "name": "updateTeeFee",
      "outputs": [],
      "stateMutability": "nonpayable",
      "type": "function"
    },
    {
      "inputs": [
        {
          "internalType": "address",
          "name": "newImplementation",
          "type": "address"
        },
        {
          "internalType": "bytes",
          "name": "data",
          "type": "bytes"
        }
      ],
      "name": "upgradeToAndCall",
      "outputs": [],
      "stateMutability": "payable",
      "type": "function"
    },
    {
      "inputs": [],
      "name": "version",
      "outputs": [
        {
          "internalType": "uint256",
          "name": "",
          "type": "uint256"
        }
      ],
      "stateMutability": "pure",
      "type": "function"
    }
  ],
  "transactionHash": "0x9e7be7108386841df31bf6dfd3b8faf2f993728e6b34632440fb395f0c5a110c",
  "args": [],
  "numDeployments": 2,
  "solcInputHash": "b87d79d5f374f36da0e7f1b7dd61100a",
  "bytecode": "0x60a0604052306080523480156200001557600080fd5b506200002062000026565b620000da565b7ff0c57e16840df040f15088dc2f81fe391c3923bec73e23a9662efc9c229c6a00805468010000000000000000900460ff1615620000775760405163f92ee8a960e01b815260040160405180910390fd5b80546001600160401b0390811614620000d75780546001600160401b0319166001600160401b0390811782556040519081527fc7f505b2f371ae2175ee4913f4499e1f2633a7b5936321eed1cdaeb6115181d29060200160405180910390a15b50565b60805161287462000104600039600081816117630152818161178c01526118d201526128746000f3fe6080604052600436106102305760003560e01c806373c883961161012e578063c26045f7116100ab578063e30c39781161006f578063e30c397814610661578063e7aa019414610676578063eb07b9c614610689578063f2fde38b1461069e578063f5d548d8146106be57600080fd5b8063c26045f7146105f0578063ca45a28814610603578063d2ef73d914610623578063d402919f14610636578063d5fbcf421461064b57600080fd5b80639f1b7a3c116100f25780639f1b7a3c14610525578063a39c1d6b14610545578063a7016f7014610565578063ac9650d814610585578063ad3cb1cc146105b257600080fd5b806373c883961461048157806379ba5097146104ae5780638456cb59146104c35780638da5cb5b146104d8578063961884aa1461050557600080fd5b80634e71d92d116101bc5780635b818d36116101805780635b818d36146103f05780635c975abb14610405578063638a0f091461043657806369e8de561461044c578063715018a61461046c57600080fd5b80634e71d92d146103715780634f1ef2861461038657806352d1902d1461039957806354fd4d50146103bc578063576d6d4d146103d057600080fd5b80631dffa3dc116102035780631dffa3dc146102cf578063288fffac146102ef57806336011aca1461030f5780633f4ba83a1461032f5780634c0eb9c91461034457600080fd5b80630e2a14a31461023557806310f3cd30146102575780631794bb3c14610282578063180aedf3146102a2575b600080fd5b34801561024157600080fd5b50610255610250366004611eee565b6106d4565b005b34801561026357600080fd5b5061026c6106fe565b6040516102799190611f0b565b60405180910390f35b34801561028e57600080fd5b5061025561029d366004611f58565b61070f565b3480156102ae57600080fd5b506102c26102bd366004611f99565b610861565b6040516102799190611fc8565b3480156102db57600080fd5b506102556102ea366004611f99565b6108f7565b3480156102fb57600080fd5b5061025561030a366004611eee565b610a91565b34801561031b57600080fd5b5061025561032a366004612118565b610b27565b34801561033b57600080fd5b50610255610bd9565b34801561035057600080fd5b5061036461035f366004611f99565b610beb565b6040516102799190612168565b34801561037d57600080fd5b50610255610c0b565b610255610394366004612118565b610d28565b3480156103a557600080fd5b506103ae610d47565b604051908152602001610279565b3480156103c857600080fd5b5060016103ae565b3480156103dc57600080fd5b506102556103eb366004611f99565b610d64565b3480156103fc57600080fd5b5061026c610d71565b34801561041157600080fd5b506000805160206127ff8339815191525460ff165b6040519015158152602001610279565b34801561044257600080fd5b506103ae60095481565b34801561045857600080fd5b50610255610467366004611f99565b610d7d565b34801561047857600080fd5b50610255610d8a565b34801561048d57600080fd5b506104a161049c366004611f99565b610d9c565b60405161027991906121f0565b3480156104ba57600080fd5b50610255610db2565b3480156104cf57600080fd5b50610255610dfc565b3480156104e457600080fd5b506104ed610e0c565b6040516001600160a01b039091168152602001610279565b34801561051157600080fd5b506104a1610520366004611eee565b610e41565b34801561053157600080fd5b50610364610540366004612264565b610f88565b34801561055157600080fd5b506000546104ed906001600160a01b031681565b34801561057157600080fd5b50610426610580366004611eee565b611098565b34801561059157600080fd5b506105a56105a0366004612299565b6110d0565b604051610279919061230e565b3480156105be57600080fd5b506105e3604051806040016040528060058152602001640352e302e360dc1b81525081565b6040516102799190612372565b6102556105fe366004612385565b6111b8565b34801561060f57600080fd5b506104a161061e366004611f99565b611361565b610255610631366004611f99565b611377565b34801561064257600080fd5b506103ae6114e6565b34801561065757600080fd5b506103ae60015481565b34801561066d57600080fd5b506104ed6114f2565b610255610684366004611f99565b61151b565b34801561069557600080fd5b506103ae611524565b3480156106aa57600080fd5b506102556106b9366004611eee565b611530565b3480156106ca57600080fd5b506103ae60085481565b6106dc6115b5565b600080546001600160a01b0319166001600160a01b0392909216919091179055565b606061070a60056115e7565b905090565b7ff0c57e16840df040f15088dc2f81fe391c3923bec73e23a9662efc9c229c6a008054600160401b810460ff16159067ffffffffffffffff166000811580156107555750825b905060008267ffffffffffffffff1660011480156107725750303b155b905081158015610780575080155b1561079e5760405163f92ee8a960e01b815260040160405180910390fd5b845467ffffffffffffffff1916600117855583156107c857845460ff60401b1916600160401b1785555b6107d06115f4565b6107d86115f4565b6107e06115fc565b6107e861160c565b600080546001600160a01b0319166001600160a01b03891617905560098690556108118861161c565b831561085757845460ff60401b19168555604051600181527fc7f505b2f371ae2175ee4913f4499e1f2633a7b5936321eed1cdaeb6115181d29060200160405180910390a15b5050505050505050565b610869611e5c565b600082815260026020818152604092839020835160c0810185528154815260018201549281019290925291820154909283019060ff1660038111156108b0576108b0611fb2565b60038111156108c1576108c1611fb2565b81526003820154602082015260048201546001600160a01b03908116604083015260059092015490911660609091015292915050565b6108ff611654565b600081815260026020526040902060048101546001600160a01b0316331461093a57604051639015f92360e01b815260040160405180910390fd5b6001600282015460ff16600381111561095557610955611fb2565b146109735760405163b969563b60e01b815260040160405180910390fd5b42600954826003015461098691906124c2565b11156109a557604051634b40143d60e01b815260040160405180910390fd5b60028101805460ff1916600317905560058101546001600160a01b031660009081526007602052604090206109dd906004018361168c565b50600181015460405160009133918381818185875af1925050503d8060008114610a23576040519150601f19603f3d011682016040523d82523d6000602084013e610a28565b606091505b5050905080610a4a576040516312171d8360e31b815260040160405180910390fd5b60405183907f68a66a704ceacc38da3f12c63779e47866d9d72e875ec5d43237777adc666d6590600090a25050610a8e600160008051602061281f83398151915255565b50565b610a996115b5565b610aa46005826116ac565b610ac1576040516310eddccd60e01b815260040160405180910390fd5b6001600160a01b0381166000908152600760205260409020805460ff19166002179055610aef6005826116ce565b506040516001600160a01b038216907f18a003b29a5d1b1d6f0603956003fdc00a42ea8db3825c24a6bf532d5bae0bdf90600090a250565b610b2f6115b5565b610b3a6005836116ac565b15610b5857604051637668d56b60e01b815260040160405180910390fd5b610b636003836116e3565b50610b6f6005836116e3565b506001600160a01b0382166000908152600760205260409020805460ff19166001908117825501610ba0828261255f565b506040516001600160a01b038316907fcc7ab74a9b11b56487e4c7356320d0be894972f6132884ccd04e04baa284fb7990600090a25050565b610be16115b5565b610be96116f8565b565b6000818152600a60205260409020606090610c05906115e7565b92915050565b610c13611654565b3360009081526007602052604081206003810154600290910154610c37919061261f565b905080600003610c5a576040516312d37ee560e31b815260040160405180910390fd5b3360008181526007602052604080822060028101546003909101555190919083908381818185875af1925050503d8060008114610cb3576040519150601f19603f3d011682016040523d82523d6000602084013e610cb8565b606091505b5050905080610cda576040516312171d8360e31b815260040160405180910390fd5b60405182815233907fd8138f8a3f377c5259ca548e70e4c2de94f129f5a11036a15b69513cba2b426a9060200160405180910390a25050610be9600160008051602061281f83398151915255565b610d30611758565b610d39826117fd565b610d438282611805565b5050565b6000610d516118c7565b506000805160206127df83398151915290565b610d6c6115b5565b600955565b606061070a60036115e7565b610d856115b5565b600855565b610d926115b5565b610be9600061161c565b610da4611ea3565b610c05610520600384611910565b3380610dbc6114f2565b6001600160a01b031614610df35760405163118cdaa760e01b81526001600160a01b03821660048201526024015b60405180910390fd5b610a8e8161161c565b610e046115b5565b610be961191c565b6000807f9016d09d72d40fdae2fd8ceac6b6234c7706214fd39c1cd1e609a0528c1993005b546001600160a01b031692915050565b610e49611ea3565b6040805160c0810182526001600160a01b03841680825260009081526007602090815292902060010180549192830191610e82906124d5565b80601f0160208091040260200160405190810160405280929190818152602001828054610eae906124d5565b8015610efb5780601f10610ed057610100808354040283529160200191610efb565b820191906000526020600020905b815481529060010190602001808311610ede57829003601f168201915b50505091835250506001600160a01b03841660009081526007602090815260409091205491019060ff166002811115610f3657610f36611fb2565b81526001600160a01b0384166000818152600760208181526040808420600281015483880152600381015491870191909152939092529052606090910190610f8090600401611965565b905292915050565b6001600160a01b0383166000908152600760205260408120606091600490910190610fb282611965565b9050808510610fd35750506040805160008152602081019091529050611091565b600081610fe086886124c2565b11610ff457610fef85876124c2565b610ff6565b815b90506000611004878361261f565b67ffffffffffffffff81111561101c5761101c612029565b604051908082528060200260200182016040528015611045578160200160208202803683370190505b509050865b8281101561108a5761105c8582611910565b826110678a8461261f565b8151811061107757611077612632565b602090810291909101015260010161104a565b5093505050505b9392505050565b600060016001600160a01b03831660009081526007602052604090205460ff1660028111156110c9576110c9611fb2565b1492915050565b6040805160008152602081019091526060908267ffffffffffffffff8111156110fb576110fb612029565b60405190808252806020026020018201604052801561112e57816020015b60608152602001906001900390816111195790505b50915060005b838110156111b05761118b3086868481811061115257611152612632565b90506020028101906111649190612648565b8560405160200161117793929190612696565b60405160208183030381529060405261196f565b83828151811061119d5761119d612632565b6020908102919091010152600101611134565b505092915050565b60013360009081526007602052604090205460ff1660028111156111de576111de611fb2565b146111fc576040516310eddccd60e01b815260040160405180910390fd5b60008281526002602052604090206001600282015460ff16600381111561122557611225611fb2565b146112435760405163b969563b60e01b815260040160405180910390fd5b60058101546001600160a01b031633146112705760405163d1e62b8560e01b815260040160405180910390fd5b600054815460405163c26045f760e01b81526001600160a01b039092169163c26045f7916112a29186906004016126bd565b600060405180830381600087803b1580156112bc57600080fd5b505af11580156112d0573d6000803e3d6000fd5b50505060018201543360009081526007602052604081206002018054929350916112fb9084906124c2565b909155505033600090815260076020526040902061131c906004018461168c565b506002818101805460ff191690911790558054604051849033907f41eb9d6336d189fb4bf444a6b5056628c51aa4405c87f7389a107686e805726390600090a4505050565b611369611ea3565b610c05610520600584611910565b6008543410156113995760405162976f7560e21b815260040160405180910390fd5b6113a36005611965565b6000036113c3576040516329ed7f2760e01b815260040160405180910390fd5b60006001600081546113d490612758565b9182905550905060006113ff6105206113ed6005611965565b6113f79085612771565b600590611910565b516000838152600260208181526040808420888155346001808301919091554260038301556004820180546001600160a01b03199081163317909155948201805460ff1916909117905560050180549093166001600160a01b03861617909255868352600a9052902090915061147590836119e5565b506001600160a01b038116600090815260076020526040902061149b90600401836119e5565b50604080516001600160a01b0383168152346020820152849184917f489e923ac6ba31ef19d89736ac6998000e3fe5b1d1f26174a2c12e02393aa67e910160405180910390a3505050565b600061070a6005611965565b6000807f237e158222e3e6968b72b9db0d8043aacf074ad9f650f0d1606b4d82ee432c00610e31565b610a8e81611377565b600061070a6003611965565b6115386115b5565b7f237e158222e3e6968b72b9db0d8043aacf074ad9f650f0d1606b4d82ee432c0080546001600160a01b0319166001600160a01b038316908117825561157c610e0c565b6001600160a01b03167f38d16b8cac22d99fc7c124b9cd0de2d3fa1faef420bfe791d8c362d765e2270060405160405180910390a35050565b336115be610e0c565b6001600160a01b031614610be95760405163118cdaa760e01b8152336004820152602401610dea565b60606000611091836119f1565b610be9611a4d565b611604611a4d565b610be9611a96565b611614611a4d565b610be9611ab7565b7f237e158222e3e6968b72b9db0d8043aacf074ad9f650f0d1606b4d82ee432c0080546001600160a01b0319168155610d4382611abf565b60008051602061281f83398151915280546001190161168657604051633ee5aeb560e01b815260040160405180910390fd5b60029055565b60006110918383611b30565b600160008051602061281f83398151915255565b6001600160a01b03811660009081526001830160205260408120541515611091565b6000611091836001600160a01b038416611b30565b6000611091836001600160a01b038416611c23565b611700611c72565b6000805160206127ff833981519152805460ff191681557f5db9ee0a495bf2e6ff9c91a7834c1ba4fdd244a5e8aa4e537bd38aeae4b073aa335b6040516001600160a01b03909116815260200160405180910390a150565b306001600160a01b037f00000000000000000000000000000000000000000000000000000000000000001614806117df57507f00000000000000000000000000000000000000000000000000000000000000006001600160a01b03166117d36000805160206127df833981519152546001600160a01b031690565b6001600160a01b031614155b15610be95760405163703e46dd60e11b815260040160405180910390fd5b610a8e6115b5565b816001600160a01b03166352d1902d6040518163ffffffff1660e01b8152600401602060405180830381865afa92505050801561185f575060408051601f3d908101601f1916820190925261185c91810190612793565b60015b61188757604051634c9c8ce360e01b81526001600160a01b0383166004820152602401610dea565b6000805160206127df83398151915281146118b857604051632a87526960e21b815260048101829052602401610dea565b6118c28383611ca2565b505050565b306001600160a01b037f00000000000000000000000000000000000000000000000000000000000000001614610be95760405163703e46dd60e11b815260040160405180910390fd5b60006110918383611cf8565b611924611d22565b6000805160206127ff833981519152805460ff191660011781557f62e78cea01bee320cd4e420270b5ea74000d11b0c9f74754ebdbfc544b05a2583361173a565b6000610c05825490565b6060600080846001600160a01b03168460405161198c91906127ac565b600060405180830381855af49150503d80600081146119c7576040519150601f19603f3d011682016040523d82523d6000602084013e6119cc565b606091505b50915091506119dc858383611d53565b95945050505050565b60006110918383611c23565b606081600001805480602002602001604051908101604052809291908181526020018280548015611a4157602002820191906000526020600020905b815481526020019060010190808311611a2d575b50505050509050919050565b7ff0c57e16840df040f15088dc2f81fe391c3923bec73e23a9662efc9c229c6a0054600160401b900460ff16610be957604051631afcd79f60e31b815260040160405180910390fd5b611a9e611a4d565b6000805160206127ff833981519152805460ff19169055565b611698611a4d565b7f9016d09d72d40fdae2fd8ceac6b6234c7706214fd39c1cd1e609a0528c19930080546001600160a01b031981166001600160a01b03848116918217845560405192169182907f8be0079c531659141344cd1fd0a4f28419497f9722a3daafe3b4186f6b6457e090600090a3505050565b60008181526001830160205260408120548015611c19576000611b5460018361261f565b8554909150600090611b689060019061261f565b9050808214611bcd576000866000018281548110611b8857611b88612632565b9060005260206000200154905080876000018481548110611bab57611bab612632565b6000918252602080832090910192909255918252600188019052604090208390555b8554869080611bde57611bde6127c8565b600190038181906000526020600020016000905590558560010160008681526020019081526020016000206000905560019350505050610c05565b6000915050610c05565b6000818152600183016020526040812054611c6a57508154600181810184556000848152602080822090930184905584548482528286019093526040902091909155610c05565b506000610c05565b6000805160206127ff8339815191525460ff16610be957604051638dfc202b60e01b815260040160405180910390fd5b611cab82611daf565b6040516001600160a01b038316907fbc7cd75a20ee27fd9adebab32041f755214dbc6bffa90cc0225b39da2e5c2d3b90600090a2805115611cf0576118c2828261196f565b610d43611e14565b6000826000018281548110611d0f57611d0f612632565b9060005260206000200154905092915050565b6000805160206127ff8339815191525460ff1615610be95760405163d93c066560e01b815260040160405180910390fd5b606082611d6857611d6382611e33565b611091565b8151158015611d7f57506001600160a01b0384163b155b15611da857604051639996b31560e01b81526001600160a01b0385166004820152602401610dea565b5080611091565b806001600160a01b03163b600003611de557604051634c9c8ce360e01b81526001600160a01b0382166004820152602401610dea565b6000805160206127df83398151915280546001600160a01b0319166001600160a01b0392909216919091179055565b3415610be95760405163b398979f60e01b815260040160405180910390fd5b805115611e435780518082602001fd5b604051630a12f52160e11b815260040160405180910390fd5b6040518060c00160405280600081526020016000815260200160006003811115611e8857611e88611fb2565b81526000602082018190526040820181905260609091015290565b6040805160c081018252600080825260606020830152909182019081526020016000815260200160008152602001600081525090565b6001600160a01b0381168114610a8e57600080fd5b600060208284031215611f0057600080fd5b813561109181611ed9565b6020808252825182820181905260009190848201906040850190845b81811015611f4c5783516001600160a01b031683529284019291840191600101611f27565b50909695505050505050565b600080600060608486031215611f6d57600080fd5b8335611f7881611ed9565b92506020840135611f8881611ed9565b929592945050506040919091013590565b600060208284031215611fab57600080fd5b5035919050565b634e487b7160e01b600052602160045260246000fd5b8151815260208083015190820152604082015160c082019060048110611ff057611ff0611fb2565b6040830152606083810151908301526080808401516001600160a01b039081169184019190915260a09384015116929091019190915290565b634e487b7160e01b600052604160045260246000fd5b6040805190810167ffffffffffffffff8111828210171561206257612062612029565b60405290565b60405160a0810167ffffffffffffffff8111828210171561206257612062612029565b600082601f83011261209c57600080fd5b813567ffffffffffffffff808211156120b7576120b7612029565b604051601f8301601f19908116603f011681019082821181831017156120df576120df612029565b816040528381528660208588010111156120f857600080fd5b836020870160208301376000602085830101528094505050505092915050565b6000806040838503121561212b57600080fd5b823561213681611ed9565b9150602083013567ffffffffffffffff81111561215257600080fd5b61215e8582860161208b565b9150509250929050565b6020808252825182820181905260009190848201906040850190845b81811015611f4c57835183529284019291840191600101612184565b60005b838110156121bb5781810151838201526020016121a3565b50506000910152565b600081518084526121dc8160208601602086016121a0565b601f01601f19169290920160200192915050565b602080825282516001600160a01b03168282015282015160c0604083015260009061221e60e08401826121c4565b905060408401516003811061223557612235611fb2565b8060608501525060608401516080840152608084015160a084015260a084015160c08401528091505092915050565b60008060006060848603121561227957600080fd5b833561228481611ed9565b95602085013595506040909401359392505050565b600080602083850312156122ac57600080fd5b823567ffffffffffffffff808211156122c457600080fd5b818501915085601f8301126122d857600080fd5b8135818111156122e757600080fd5b8660208260051b85010111156122fc57600080fd5b60209290920196919550909350505050565b600060208083016020845280855180835260408601915060408160051b87010192506020870160005b8281101561236557603f198886030184526123538583516121c4565b94509285019290850190600101612337565b5092979650505050505050565b60208152600061109160208301846121c4565b6000806040838503121561239857600080fd5b82359150602083013567ffffffffffffffff808211156123b757600080fd5b90840190604082870312156123cb57600080fd5b6123d361203f565b8235828111156123e257600080fd5b6123ee8882860161208b565b82525060208301358281111561240357600080fd5b929092019160a0838803121561241857600080fd5b612420612068565b833581526020840135602082015260408401358381111561244057600080fd5b61244c8982870161208b565b60408301525060608401358381111561246457600080fd5b6124708982870161208b565b60608301525060808401358381111561248857600080fd5b6124948982870161208b565b60808301525060208201529396939550929350505050565b634e487b7160e01b600052601160045260246000fd5b80820180821115610c0557610c056124ac565b600181811c908216806124e957607f821691505b60208210810361250957634e487b7160e01b600052602260045260246000fd5b50919050565b601f8211156118c2576000816000526020600020601f850160051c810160208610156125385750805b601f850160051c820191505b8181101561255757828155600101612544565b505050505050565b815167ffffffffffffffff81111561257957612579612029565b61258d8161258784546124d5565b8461250f565b602080601f8311600181146125c257600084156125aa5750858301515b600019600386901b1c1916600185901b178555612557565b600085815260208120601f198616915b828110156125f1578886015182559484019460019091019084016125d2565b508582101561260f5787850151600019600388901b60f8161c191681555b5050505050600190811b01905550565b81810381811115610c0557610c056124ac565b634e487b7160e01b600052603260045260246000fd5b6000808335601e1984360301811261265f57600080fd5b83018035915067ffffffffffffffff82111561267a57600080fd5b60200191503681900382131561268f57600080fd5b9250929050565b8284823760008382016000815283516126b38183602088016121a0565b0195945050505050565b82815260406020820152600082516040808401526126de60808401826121c4565b90506020840151603f198483030160608501528051825260208101516020830152604081015160a0604084015261271860a08401826121c4565b90506060820151838203606085015261273182826121c4565b91505060808201519150828103608084015261274d81836121c4565b979650505050505050565b60006001820161276a5761276a6124ac565b5060010190565b60008261278e57634e487b7160e01b600052601260045260246000fd5b500690565b6000602082840312156127a557600080fd5b5051919050565b600082516127be8184602087016121a0565b9190910192915050565b634e487b7160e01b600052603160045260246000fdfe360894a13ba1a3210667c828492db98dca3e2076cc3735a920a3ca505d382bbccd5ed15c6e187e77e9aee88184c21f4f2182ab5827cb3b7e07fbedcd63f033009b779b17422d0df92223018b32b4d1fa46e071723d6817e2486d003becc55f00a264697066735822122096bb5506235347cec0100b7cccdad315e3938456a89c263e3044c516376552f964736f6c63430008180033",
  "devdoc": {
    "errors": {
      "AddressEmptyCode(address)": [
        {
          "details": "There's no code at `target` (it is not a contract)."
        }
      ],
      "ERC1967InvalidImplementation(address)": [
        {
          "details": "The `implementation` of the proxy is invalid."
        }
      ],
      "ERC1967NonPayable()": [
        {
          "details": "An upgrade function sees `msg.value > 0` that may be lost."
        }
      ],
      "EnforcedPause()": [
        {
          "details": "The operation failed because the contract is paused."
        }
      ],
      "ExpectedPause()": [
        {
          "details": "The operation failed because the contract is not paused."
        }
      ],
      "FailedInnerCall()": [
        {
          "details": "A call to an address target failed. The target may have reverted."
        }
      ],
      "InvalidInitialization()": [
        {
          "details": "The contract is already initialized."
        }
      ],
      "NotInitializing()": [
        {
          "details": "The contract is not initializing."
        }
      ],
      "OwnableInvalidOwner(address)": [
        {
          "details": "The owner is not a valid owner account. (eg. `address(0)`)"
        }
      ],
      "OwnableUnauthorizedAccount(address)": [
        {
          "details": "The caller account is not authorized to perform an operation."
        }
      ],
      "ReentrancyGuardReentrantCall()": [
        {
          "details": "Unauthorized reentrant call."
        }
      ],
      "UUPSUnauthorizedCallContext()": [
        {
          "details": "The call is from an unauthorized context."
        }
      ],
      "UUPSUnsupportedProxiableUUID(bytes32)": [
        {
          "details": "The storage `slot` is unsupported as a UUID."
        }
      ]
    },
    "events": {
      "Claimed(address,uint256)": {
        "params": {
          "amount": "amount claimed",
          "teeAddress": "address of the tee"
        }
      },
      "Initialized(uint64)": {
        "details": "Triggered when the contract has been initialized or reinitialized."
      },
      "JobCanceled(uint256)": {
        "params": {
          "jobId": "id of the job"
        }
      },
      "JobSubmitted(uint256,uint256,address,uint256)": {
        "params": {
          "bidAmount": "bid amount",
          "fileId": "id of the file",
          "jobId": "id of the job",
          "teeAddress": "address of the tee"
        }
      },
      "Paused(address)": {
        "details": "Emitted when the pause is triggered by `account`."
      },
      "ProofAdded(address,uint256,uint256)": {
        "params": {
          "attestator": "address of the attestator",
          "fileId": "id of the file",
          "jobId": "id of the job"
        }
      },
      "TeeAdded(address)": {
        "params": {
          "teeAddress": "address of the tee"
        }
      },
      "TeeRemoved(address)": {
        "params": {
          "teeAddress": "address of the tee"
        }
      },
      "Unpaused(address)": {
        "details": "Emitted when the pause is lifted by `account`."
      },
      "Upgraded(address)": {
        "details": "Emitted when the implementation is upgraded."
      }
    },
    "kind": "dev",
    "methods": {
      "acceptOwnership()": {
        "details": "The new owner accepts the ownership transfer."
      },
      "activeTeeListAt(uint256)": {
        "params": {
          "index": "index of the tee"
        },
        "returns": {
          "_0": "TeeDetails                       details of the tee"
        }
      },
      "addProof(uint256,(bytes,(uint256,uint256,string,string,string)))": {
        "params": {
          "jobId": "id of the job",
          "proof": "proof for the file"
        }
      },
      "addTee(address,string)": {
        "params": {
          "teeAddress": "address of the tee",
          "url": "url of the tee"
        }
      },
      "cancelJob(uint256)": {
        "params": {
          "jobId": "id of the job"
        }
      },
      "constructor": {
        "custom:oz-upgrades-unsafe-allow": "constructor"
      },
      "initialize(address,address,uint256)": {
        "params": {
          "dataRegistryAddress": "address of the data registry contract",
          "initialCancelDelay": "initial cancel delay",
          "ownerAddress": "address of the owner"
        }
      },
      "jobs(uint256)": {
        "params": {
          "jobId": "id of the job"
        },
        "returns": {
          "_0": "Job                              details of the job"
        }
      },
      "multicall(bytes[])": {
        "custom:oz-upgrades-unsafe-allow-reachable": "delegatecall",
        "details": "Receives and executes a batch of function calls on this contract."
      },
      "owner()": {
        "details": "Returns the address of the current owner."
      },
      "pause()": {
        "details": "Pauses the contract"
      },
      "paused()": {
        "details": "Returns true if the contract is paused, and false otherwise."
      },
      "pendingOwner()": {
        "details": "Returns the address of the pending owner."
      },
      "proxiableUUID()": {
        "details": "Implementation of the ERC1822 {proxiableUUID} function. This returns the storage slot used by the implementation. It is used to validate the implementation's compatibility when performing an upgrade. IMPORTANT: A proxy pointing at a proxiable contract should not be considered proxiable itself, because this risks bricking a proxy that upgrades to it, by delegating to itself until out of gas. Thus it is critical that this function revert if invoked through a proxy. This is guaranteed by the `notDelegated` modifier."
      },
      "removeTee(address)": {
        "params": {
          "teeAddress": "address of the tee"
        }
      },
      "renounceOwnership()": {
        "details": "Leaves the contract without owner. It will not be possible to call `onlyOwner` functions. Can only be called by the current owner. NOTE: Renouncing ownership will leave the contract without an owner, thereby disabling any functionality that is only available to the owner."
      },
      "requestContributionProof(uint256)": {
        "params": {
          "fileId": "id of the file"
        }
      },
      "submitJob(uint256)": {
        "params": {
          "fileId": "id of the file"
        }
      },
      "teeJobIdsPaginated(address,uint256,uint256)": {
        "params": {
          "limit": "limit",
          "start": "start index",
          "teeAddress": "address of the tee"
        },
        "returns": {
          "_0": "uint256[]                        list of job ids"
        }
      },
      "teeListAt(uint256)": {
        "params": {
          "index": "index of the tee"
        },
        "returns": {
          "_0": "TeeDetails                       details of the tee"
        }
      },
      "tees(address)": {
        "params": {
          "teeAddress": "address of the tee"
        },
        "returns": {
          "_0": "TeeDetails                       details of the tee"
        }
      },
      "transferOwnership(address)": {
        "details": "Starts the ownership transfer of the contract to a new account. Replaces the pending transfer if there is one. Can only be called by the current owner."
      },
      "unpause()": {
        "details": "Unpauses the contract"
      },
      "updateCancelDelay(uint256)": {
        "params": {
          "newCancelDelay": "new cancel delay"
        }
      },
      "updateDataRegistry(address)": {
        "params": {
          "newDataRegistry": "new file registry"
        }
      },
      "updateTeeFee(uint256)": {
        "params": {
          "newTeeFee": "new fee"
        }
      },
      "upgradeToAndCall(address,bytes)": {
        "custom:oz-upgrades-unsafe-allow-reachable": "delegatecall",
        "details": "Upgrade the implementation of the proxy to `newImplementation`, and subsequently execute the function call encoded in `data`. Calls {_authorizeUpgrade}. Emits an {Upgraded} event."
      }
    },
    "version": 1
  },
  "userdoc": {
    "events": {
      "Claimed(address,uint256)": {
        "notice": "Triggered when a claim has been made"
      },
      "JobCanceled(uint256)": {
        "notice": "Triggered when a job has been cancelled"
      },
      "JobSubmitted(uint256,uint256,address,uint256)": {
        "notice": "Triggered when a job has been submitted"
      },
      "ProofAdded(address,uint256,uint256)": {
        "notice": "Triggered when a proof has been added"
      },
      "TeeAdded(address)": {
        "notice": "Triggered when a tee has been added"
      },
      "TeeRemoved(address)": {
        "notice": "Triggered when a tee has been removed"
      }
    },
    "kind": "user",
    "methods": {
      "activeTeeList()": {
        "notice": "Returns the list of active tees"
      },
      "activeTeeListAt(uint256)": {
        "notice": "Returns the details of the active tee at the given index"
      },
      "activeTeesCount()": {
        "notice": "Returns the number of active tees"
      },
      "addProof(uint256,(bytes,(uint256,uint256,string,string,string)))": {
        "notice": "Adds a proof to the file"
      },
      "addTee(address,string)": {
        "notice": "Adds a tee to the pool"
      },
      "cancelJob(uint256)": {
        "notice": "Cancels a contribution proof request"
      },
      "claim()": {
        "notice": "method used by tees for claiming their rewards"
      },
      "fileJobIds(uint256)": {
        "notice": "Returns a list of job ids for the given file"
      },
      "initialize(address,address,uint256)": {
        "notice": "Initialize the contract"
      },
      "jobs(uint256)": {
        "notice": "Returns the details of the job"
      },
      "removeTee(address)": {
        "notice": "Removes a tee from the pool"
      },
      "requestContributionProof(uint256)": {
        "notice": "Adds a contribution proof request"
      },
      "submitJob(uint256)": {
        "notice": "Submits a contribution proof request"
      },
      "teeJobIdsPaginated(address,uint256,uint256)": {
        "notice": "Returns a paginated list of jobs for the given tee"
      },
      "teeList()": {
        "notice": "Returns the list of tees"
      },
      "teeListAt(uint256)": {
        "notice": "Returns the details of the tee at the given index"
      },
      "tees(address)": {
        "notice": "Returns the details of the tee"
      },
      "teesCount()": {
        "notice": "Returns the number of tees"
      },
      "updateCancelDelay(uint256)": {
        "notice": "Updates the cancel delay"
      },
      "updateDataRegistry(address)": {
        "notice": "Updates the file registry"
      },
      "updateTeeFee(uint256)": {
        "notice": "Updates the tee fee"
      },
      "version()": {
        "notice": "Returns the version of the contract"
      }
    },
    "version": 1
  },
  "storageLayout": {
    "storage": [
      {
        "astId": 7019,
        "contract": "contracts/teePool/TeePoolImplementation.sol:TeePoolImplementation",
        "label": "dataRegistry",
        "offset": 0,
        "slot": "0",
        "type": "t_contract(IDataRegistry)4892"
      },
      {
        "astId": 7022,
        "contract": "contracts/teePool/TeePoolImplementation.sol:TeePoolImplementation",
        "label": "jobsCount",
        "offset": 0,
        "slot": "1",
        "type": "t_uint256"
      },
      {
        "astId": 7027,
        "contract": "contracts/teePool/TeePoolImplementation.sol:TeePoolImplementation",
        "label": "_jobs",
        "offset": 0,
        "slot": "2",
        "type": "t_mapping(t_uint256,t_struct(Job)6817_storage)"
      },
      {
        "astId": 7030,
        "contract": "contracts/teePool/TeePoolImplementation.sol:TeePoolImplementation",
        "label": "_teeList",
        "offset": 0,
        "slot": "3",
        "type": "t_struct(AddressSet)4473_storage"
      },
      {
        "astId": 7033,
        "contract": "contracts/teePool/TeePoolImplementation.sol:TeePoolImplementation",
        "label": "_activeTeeList",
        "offset": 0,
        "slot": "5",
        "type": "t_struct(AddressSet)4473_storage"
      },
      {
        "astId": 7038,
        "contract": "contracts/teePool/TeePoolImplementation.sol:TeePoolImplementation",
        "label": "_tees",
        "offset": 0,
        "slot": "7",
        "type": "t_mapping(t_address,t_struct(Tee)6830_storage)"
      },
      {
        "astId": 7041,
        "contract": "contracts/teePool/TeePoolImplementation.sol:TeePoolImplementation",
        "label": "teeFee",
        "offset": 0,
        "slot": "8",
        "type": "t_uint256"
      },
      {
        "astId": 7044,
        "contract": "contracts/teePool/TeePoolImplementation.sol:TeePoolImplementation",
        "label": "cancelDelay",
        "offset": 0,
        "slot": "9",
        "type": "t_uint256"
      },
      {
        "astId": 7049,
        "contract": "contracts/teePool/TeePoolImplementation.sol:TeePoolImplementation",
        "label": "_fileJobsIds",
        "offset": 0,
        "slot": "10",
        "type": "t_mapping(t_uint256,t_struct(UintSet)4630_storage)"
      }
    ],
    "types": {
      "t_address": {
        "encoding": "inplace",
        "label": "address",
        "numberOfBytes": "20"
      },
      "t_array(t_bytes32)dyn_storage": {
        "base": "t_bytes32",
        "encoding": "dynamic_array",
        "label": "bytes32[]",
        "numberOfBytes": "32"
      },
      "t_bytes32": {
        "encoding": "inplace",
        "label": "bytes32",
        "numberOfBytes": "32"
      },
      "t_contract(IDataRegistry)4892": {
        "encoding": "inplace",
        "label": "contract IDataRegistry",
        "numberOfBytes": "20"
      },
      "t_enum(JobStatus)6803": {
        "encoding": "inplace",
        "label": "enum ITeePool.JobStatus",
        "numberOfBytes": "1"
      },
      "t_enum(TeeStatus)6798": {
        "encoding": "inplace",
        "label": "enum ITeePool.TeeStatus",
        "numberOfBytes": "1"
      },
      "t_mapping(t_address,t_struct(Tee)6830_storage)": {
        "encoding": "mapping",
        "key": "t_address",
        "label": "mapping(address => struct ITeePool.Tee)",
        "numberOfBytes": "32",
        "value": "t_struct(Tee)6830_storage"
      },
      "t_mapping(t_bytes32,t_uint256)": {
        "encoding": "mapping",
        "key": "t_bytes32",
        "label": "mapping(bytes32 => uint256)",
        "numberOfBytes": "32",
        "value": "t_uint256"
      },
      "t_mapping(t_uint256,t_struct(Job)6817_storage)": {
        "encoding": "mapping",
        "key": "t_uint256",
        "label": "mapping(uint256 => struct ITeePool.Job)",
        "numberOfBytes": "32",
        "value": "t_struct(Job)6817_storage"
      },
      "t_mapping(t_uint256,t_struct(UintSet)4630_storage)": {
        "encoding": "mapping",
        "key": "t_uint256",
        "label": "mapping(uint256 => struct EnumerableSet.UintSet)",
        "numberOfBytes": "32",
        "value": "t_struct(UintSet)4630_storage"
      },
      "t_string_storage": {
        "encoding": "bytes",
        "label": "string",
        "numberOfBytes": "32"
      },
      "t_struct(AddressSet)4473_storage": {
        "encoding": "inplace",
        "label": "struct EnumerableSet.AddressSet",
        "members": [
          {
            "astId": 4472,
            "contract": "contracts/teePool/TeePoolImplementation.sol:TeePoolImplementation",
            "label": "_inner",
            "offset": 0,
            "slot": "0",
            "type": "t_struct(Set)4158_storage"
          }
        ],
        "numberOfBytes": "64"
      },
      "t_struct(Job)6817_storage": {
        "encoding": "inplace",
        "label": "struct ITeePool.Job",
        "members": [
          {
            "astId": 6805,
            "contract": "contracts/teePool/TeePoolImplementation.sol:TeePoolImplementation",
            "label": "fileId",
            "offset": 0,
            "slot": "0",
            "type": "t_uint256"
          },
          {
            "astId": 6807,
            "contract": "contracts/teePool/TeePoolImplementation.sol:TeePoolImplementation",
            "label": "bidAmount",
            "offset": 0,
            "slot": "1",
            "type": "t_uint256"
          },
          {
            "astId": 6810,
            "contract": "contracts/teePool/TeePoolImplementation.sol:TeePoolImplementation",
            "label": "status",
            "offset": 0,
            "slot": "2",
            "type": "t_enum(JobStatus)6803"
          },
          {
            "astId": 6812,
            "contract": "contracts/teePool/TeePoolImplementation.sol:TeePoolImplementation",
            "label": "addedTimestamp",
            "offset": 0,
            "slot": "3",
            "type": "t_uint256"
          },
          {
            "astId": 6814,
            "contract": "contracts/teePool/TeePoolImplementation.sol:TeePoolImplementation",
            "label": "ownerAddress",
            "offset": 0,
            "slot": "4",
            "type": "t_address"
          },
          {
            "astId": 6816,
            "contract": "contracts/teePool/TeePoolImplementation.sol:TeePoolImplementation",
            "label": "teeAddress",
            "offset": 0,
            "slot": "5",
            "type": "t_address"
          }
        ],
        "numberOfBytes": "192"
      },
      "t_struct(Set)4158_storage": {
        "encoding": "inplace",
        "label": "struct EnumerableSet.Set",
        "members": [
          {
            "astId": 4153,
            "contract": "contracts/teePool/TeePoolImplementation.sol:TeePoolImplementation",
            "label": "_values",
            "offset": 0,
            "slot": "0",
            "type": "t_array(t_bytes32)dyn_storage"
          },
          {
            "astId": 4157,
            "contract": "contracts/teePool/TeePoolImplementation.sol:TeePoolImplementation",
            "label": "_positions",
            "offset": 0,
            "slot": "1",
            "type": "t_mapping(t_bytes32,t_uint256)"
          }
        ],
        "numberOfBytes": "64"
      },
      "t_struct(Tee)6830_storage": {
        "encoding": "inplace",
        "label": "struct ITeePool.Tee",
        "members": [
          {
            "astId": 6820,
            "contract": "contracts/teePool/TeePoolImplementation.sol:TeePoolImplementation",
            "label": "status",
            "offset": 0,
            "slot": "0",
            "type": "t_enum(TeeStatus)6798"
          },
          {
            "astId": 6822,
            "contract": "contracts/teePool/TeePoolImplementation.sol:TeePoolImplementation",
            "label": "url",
            "offset": 0,
            "slot": "1",
            "type": "t_string_storage"
          },
          {
            "astId": 6824,
            "contract": "contracts/teePool/TeePoolImplementation.sol:TeePoolImplementation",
            "label": "amount",
            "offset": 0,
            "slot": "2",
            "type": "t_uint256"
          },
          {
            "astId": 6826,
            "contract": "contracts/teePool/TeePoolImplementation.sol:TeePoolImplementation",
            "label": "withdrawnAmount",
            "offset": 0,
            "slot": "3",
            "type": "t_uint256"
          },
          {
            "astId": 6829,
            "contract": "contracts/teePool/TeePoolImplementation.sol:TeePoolImplementation",
            "label": "jobIdsList",
            "offset": 0,
            "slot": "4",
            "type": "t_struct(UintSet)4630_storage"
          }
        ],
        "numberOfBytes": "192"
      },
      "t_struct(UintSet)4630_storage": {
        "encoding": "inplace",
        "label": "struct EnumerableSet.UintSet",
        "members": [
          {
            "astId": 4629,
            "contract": "contracts/teePool/TeePoolImplementation.sol:TeePoolImplementation",
            "label": "_inner",
            "offset": 0,
            "slot": "0",
            "type": "t_struct(Set)4158_storage"
          }
        ],
        "numberOfBytes": "64"
      },
      "t_uint256": {
        "encoding": "inplace",
        "label": "uint256",
        "numberOfBytes": "32"
      }
    }
  }
}