{
  "address": "0xCaBDd9314d2b0c80D898871b850b5FA62AAf3777",
  "abi": [
    {
      "inputs": [],
      "stateMutability": "nonpayable",
      "type": "constructor"
    },
    {
      "inputs": [],
      "name": "AccessControlBadConfirmation",
      "type": "error"
    },
    {
      "inputs": [
        {
          "internalType": "address",
          "name": "account",
          "type": "address"
        },
        {
          "internalType": "bytes32",
          "name": "neededRole",
          "type": "bytes32"
        }
      ],
      "name": "AccessControlUnauthorizedAccount",
      "type": "error"
    },
    {
      "inputs": [
        {
          "internalType": "address",
          "name": "target",
          "type": "address"
        }
      ],
      "name": "AddressEmptyCode",
      "type": "error"
    },
    {
      "inputs": [
        {
          "internalType": "address",
          "name": "implementation",
          "type": "address"
        }
      ],
      "name": "ERC1967InvalidImplementation",
      "type": "error"
    },
    {
      "inputs": [],
      "name": "ERC1967NonPayable",
      "type": "error"
    },
    {
      "inputs": [],
      "name": "EnforcedPause",
      "type": "error"
    },
    {
      "inputs": [],
      "name": "ExpectedPause",
      "type": "error"
    },
    {
      "inputs": [],
      "name": "FailedInnerCall",
      "type": "error"
    },
    {
      "inputs": [],
      "name": "InvalidInitialization",
      "type": "error"
    },
    {
      "inputs": [],
      "name": "NotFileOwner",
      "type": "error"
    },
    {
      "inputs": [],
      "name": "NotInitializing",
      "type": "error"
    },
    {
      "inputs": [],
      "name": "UUPSUnauthorizedCallContext",
      "type": "error"
    },
    {
      "inputs": [
        {
          "internalType": "bytes32",
          "name": "slot",
          "type": "bytes32"
        }
      ],
      "name": "UUPSUnsupportedProxiableUUID",
      "type": "error"
    },
    {
      "anonymous": false,
      "inputs": [
        {
          "indexed": true,
          "internalType": "uint256",
          "name": "fileId",
          "type": "uint256"
        },
        {
          "indexed": true,
          "internalType": "address",
          "name": "ownerAddress",
          "type": "address"
        },
        {
          "indexed": false,
          "internalType": "string",
          "name": "url",
          "type": "string"
        }
      ],
      "name": "FileAdded",
      "type": "event"
    },
    {
      "anonymous": false,
      "inputs": [
        {
          "indexed": false,
          "internalType": "uint64",
          "name": "version",
          "type": "uint64"
        }
      ],
      "name": "Initialized",
      "type": "event"
    },
    {
      "anonymous": false,
      "inputs": [
        {
          "indexed": false,
          "internalType": "address",
          "name": "account",
          "type": "address"
        }
      ],
      "name": "Paused",
      "type": "event"
    },
    {
      "anonymous": false,
      "inputs": [
        {
          "indexed": true,
          "internalType": "uint256",
          "name": "fileId",
          "type": "uint256"
        },
        {
          "indexed": true,
          "internalType": "address",
          "name": "account",
          "type": "address"
        }
      ],
      "name": "PermissionGranted",
      "type": "event"
    },
    {
      "anonymous": false,
      "inputs": [
        {
          "indexed": true,
          "internalType": "uint256",
          "name": "fileId",
          "type": "uint256"
        },
        {
          "indexed": true,
          "internalType": "uint256",
          "name": "proofIndex",
          "type": "uint256"
        }
      ],
      "name": "ProofAdded",
      "type": "event"
    },
    {
      "anonymous": false,
      "inputs": [
        {
          "indexed": true,
          "internalType": "bytes32",
          "name": "role",
          "type": "bytes32"
        },
        {
          "indexed": true,
          "internalType": "bytes32",
          "name": "previousAdminRole",
          "type": "bytes32"
        },
        {
          "indexed": true,
          "internalType": "bytes32",
          "name": "newAdminRole",
          "type": "bytes32"
        }
      ],
      "name": "RoleAdminChanged",
      "type": "event"
    },
    {
      "anonymous": false,
      "inputs": [
        {
          "indexed": true,
          "internalType": "bytes32",
          "name": "role",
          "type": "bytes32"
        },
        {
          "indexed": true,
          "internalType": "address",
          "name": "account",
          "type": "address"
        },
        {
          "indexed": true,
          "internalType": "address",
          "name": "sender",
          "type": "address"
        }
      ],
      "name": "RoleGranted",
      "type": "event"
    },
    {
      "anonymous": false,
      "inputs": [
        {
          "indexed": true,
          "internalType": "bytes32",
          "name": "role",
          "type": "bytes32"
        },
        {
          "indexed": true,
          "internalType": "address",
          "name": "account",
          "type": "address"
        },
        {
          "indexed": true,
          "internalType": "address",
          "name": "sender",
          "type": "address"
        }
      ],
      "name": "RoleRevoked",
      "type": "event"
    },
    {
      "anonymous": false,
      "inputs": [
        {
          "indexed": false,
          "internalType": "address",
          "name": "account",
          "type": "address"
        }
      ],
      "name": "Unpaused",
      "type": "event"
    },
    {
      "anonymous": false,
      "inputs": [
        {
          "indexed": true,
          "internalType": "address",
          "name": "implementation",
          "type": "address"
        }
      ],
      "name": "Upgraded",
      "type": "event"
    },
    {
      "inputs": [],
      "name": "DEFAULT_ADMIN_ROLE",
      "outputs": [
        {
          "internalType": "bytes32",
          "name": "",
          "type": "bytes32"
        }
      ],
      "stateMutability": "view",
      "type": "function"
    },
    {
      "inputs": [],
      "name": "MAINTAINER_ROLE",
      "outputs": [
        {
          "internalType": "bytes32",
          "name": "",
          "type": "bytes32"
        }
      ],
      "stateMutability": "view",
      "type": "function"
    },
    {
      "inputs": [],
      "name": "UPGRADE_INTERFACE_VERSION",
      "outputs": [
        {
          "internalType": "string",
          "name": "",
          "type": "string"
        }
      ],
      "stateMutability": "view",
      "type": "function"
    },
    {
      "inputs": [
        {
          "internalType": "string",
          "name": "url",
          "type": "string"
        }
      ],
      "name": "addFile",
      "outputs": [
        {
          "internalType": "uint256",
          "name": "",
          "type": "uint256"
        }
      ],
      "stateMutability": "nonpayable",
      "type": "function"
    },
    {
      "inputs": [
        {
          "internalType": "uint256",
          "name": "fileId",
          "type": "uint256"
        },
        {
          "internalType": "address",
          "name": "account",
          "type": "address"
        },
        {
          "internalType": "string",
          "name": "key",
          "type": "string"
        }
      ],
      "name": "addFilePermission",
      "outputs": [],
      "stateMutability": "nonpayable",
      "type": "function"
    },
    {
      "inputs": [
        {
          "internalType": "string",
          "name": "url",
          "type": "string"
        },
        {
          "internalType": "address",
          "name": "ownerAddress",
          "type": "address"
        },
        {
          "components": [
            {
              "internalType": "address",
              "name": "account",
              "type": "address"
            },
            {
              "internalType": "string",
              "name": "key",
              "type": "string"
            }
          ],
          "internalType": "struct IDataRegistry.Permission[]",
          "name": "permissions",
          "type": "tuple[]"
        }
      ],
      "name": "addFileWithPermissions",
      "outputs": [
        {
          "internalType": "uint256",
          "name": "",
          "type": "uint256"
        }
      ],
      "stateMutability": "nonpayable",
      "type": "function"
    },
    {
      "inputs": [
        {
          "internalType": "uint256",
          "name": "fileId",
          "type": "uint256"
        },
        {
          "components": [
            {
              "internalType": "bytes",
              "name": "signature",
              "type": "bytes"
            },
            {
              "components": [
                {
                  "internalType": "uint256",
                  "name": "score",
                  "type": "uint256"
                },
                {
                  "internalType": "uint256",
                  "name": "dlpId",
                  "type": "uint256"
                },
                {
                  "internalType": "string",
                  "name": "metadata",
                  "type": "string"
                },
                {
                  "internalType": "string",
                  "name": "proofUrl",
                  "type": "string"
                },
                {
                  "internalType": "string",
                  "name": "instruction",
                  "type": "string"
                }
              ],
              "internalType": "struct IDataRegistry.ProofData",
              "name": "data",
              "type": "tuple"
            }
          ],
          "internalType": "struct IDataRegistry.Proof",
          "name": "proof",
          "type": "tuple"
        }
      ],
      "name": "addProof",
      "outputs": [],
      "stateMutability": "nonpayable",
      "type": "function"
    },
    {
      "inputs": [
        {
          "internalType": "uint256",
          "name": "fileId",
          "type": "uint256"
        },
        {
          "internalType": "address",
          "name": "account",
          "type": "address"
        }
      ],
      "name": "filePermissions",
      "outputs": [
        {
          "internalType": "string",
          "name": "",
          "type": "string"
        }
      ],
      "stateMutability": "view",
      "type": "function"
    },
    {
      "inputs": [
        {
          "internalType": "uint256",
          "name": "fileId",
          "type": "uint256"
        },
        {
          "internalType": "uint256",
          "name": "index",
          "type": "uint256"
        }
      ],
      "name": "fileProofs",
      "outputs": [
        {
          "components": [
            {
              "internalType": "bytes",
              "name": "signature",
              "type": "bytes"
            },
            {
              "components": [
                {
                  "internalType": "uint256",
                  "name": "score",
                  "type": "uint256"
                },
                {
                  "internalType": "uint256",
                  "name": "dlpId",
                  "type": "uint256"
                },
                {
                  "internalType": "string",
                  "name": "metadata",
                  "type": "string"
                },
                {
                  "internalType": "string",
                  "name": "proofUrl",
                  "type": "string"
                },
                {
                  "internalType": "string",
                  "name": "instruction",
                  "type": "string"
                }
              ],
              "internalType": "struct IDataRegistry.ProofData",
              "name": "data",
              "type": "tuple"
            }
          ],
          "internalType": "struct IDataRegistry.Proof",
          "name": "",
          "type": "tuple"
        }
      ],
      "stateMutability": "view",
      "type": "function"
    },
    {
      "inputs": [
        {
          "internalType": "uint256",
          "name": "fileId",
          "type": "uint256"
        }
      ],
      "name": "files",
      "outputs": [
        {
          "components": [
            {
              "internalType": "uint256",
              "name": "id",
              "type": "uint256"
            },
            {
              "internalType": "address",
              "name": "ownerAddress",
              "type": "address"
            },
            {
              "internalType": "string",
              "name": "url",
              "type": "string"
            },
            {
              "internalType": "uint256",
              "name": "addedAtBlock",
              "type": "uint256"
            }
          ],
          "internalType": "struct IDataRegistry.FileResponse",
          "name": "",
          "type": "tuple"
        }
      ],
      "stateMutability": "view",
      "type": "function"
    },
    {
      "inputs": [],
      "name": "filesCount",
      "outputs": [
        {
          "internalType": "uint256",
          "name": "",
          "type": "uint256"
        }
      ],
      "stateMutability": "view",
      "type": "function"
    },
    {
      "inputs": [
        {
          "internalType": "bytes32",
          "name": "role",
          "type": "bytes32"
        }
      ],
      "name": "getRoleAdmin",
      "outputs": [
        {
          "internalType": "bytes32",
          "name": "",
          "type": "bytes32"
        }
      ],
      "stateMutability": "view",
      "type": "function"
    },
    {
      "inputs": [
        {
          "internalType": "bytes32",
          "name": "role",
          "type": "bytes32"
        },
        {
          "internalType": "address",
          "name": "account",
          "type": "address"
        }
      ],
      "name": "grantRole",
      "outputs": [],
      "stateMutability": "nonpayable",
      "type": "function"
    },
    {
      "inputs": [
        {
          "internalType": "bytes32",
          "name": "role",
          "type": "bytes32"
        },
        {
          "internalType": "address",
          "name": "account",
          "type": "address"
        }
      ],
      "name": "hasRole",
      "outputs": [
        {
          "internalType": "bool",
          "name": "",
          "type": "bool"
        }
      ],
      "stateMutability": "view",
      "type": "function"
    },
    {
      "inputs": [
        {
          "internalType": "address",
          "name": "trustedForwarder",
          "type": "address"
        },
        {
          "internalType": "address",
          "name": "ownerAddress",
          "type": "address"
        }
      ],
      "name": "initialize",
      "outputs": [],
      "stateMutability": "nonpayable",
      "type": "function"
    },
    {
      "inputs": [
        {
          "internalType": "address",
          "name": "forwarder",
          "type": "address"
        }
      ],
      "name": "isTrustedForwarder",
      "outputs": [
        {
          "internalType": "bool",
          "name": "",
          "type": "bool"
        }
      ],
      "stateMutability": "view",
      "type": "function"
    },
    {
      "inputs": [
        {
          "internalType": "bytes[]",
          "name": "data",
          "type": "bytes[]"
        }
      ],
      "name": "multicall",
      "outputs": [
        {
          "internalType": "bytes[]",
          "name": "results",
          "type": "bytes[]"
        }
      ],
      "stateMutability": "nonpayable",
      "type": "function"
    },
    {
      "inputs": [],
      "name": "pause",
      "outputs": [],
      "stateMutability": "nonpayable",
      "type": "function"
    },
    {
      "inputs": [],
      "name": "paused",
      "outputs": [
        {
          "internalType": "bool",
          "name": "",
          "type": "bool"
        }
      ],
      "stateMutability": "view",
      "type": "function"
    },
    {
      "inputs": [],
      "name": "proxiableUUID",
      "outputs": [
        {
          "internalType": "bytes32",
          "name": "",
          "type": "bytes32"
        }
      ],
      "stateMutability": "view",
      "type": "function"
    },
    {
      "inputs": [
        {
          "internalType": "bytes32",
          "name": "role",
          "type": "bytes32"
        },
        {
          "internalType": "address",
          "name": "callerConfirmation",
          "type": "address"
        }
      ],
      "name": "renounceRole",
      "outputs": [],
      "stateMutability": "nonpayable",
      "type": "function"
    },
    {
      "inputs": [
        {
          "internalType": "bytes32",
          "name": "role",
          "type": "bytes32"
        },
        {
          "internalType": "address",
          "name": "account",
          "type": "address"
        }
      ],
      "name": "revokeRole",
      "outputs": [],
      "stateMutability": "nonpayable",
      "type": "function"
    },
    {
      "inputs": [
        {
          "internalType": "bytes4",
          "name": "interfaceId",
          "type": "bytes4"
        }
      ],
      "name": "supportsInterface",
      "outputs": [
        {
          "internalType": "bool",
          "name": "",
          "type": "bool"
        }
      ],
      "stateMutability": "view",
      "type": "function"
    },
    {
      "inputs": [],
      "name": "trustedForwarder",
      "outputs": [
        {
          "internalType": "address",
          "name": "",
          "type": "address"
        }
      ],
      "stateMutability": "view",
      "type": "function"
    },
    {
      "inputs": [],
      "name": "unpause",
      "outputs": [],
      "stateMutability": "nonpayable",
      "type": "function"
    },
    {
      "inputs": [
        {
          "internalType": "address",
          "name": "trustedForwarder",
          "type": "address"
        }
      ],
      "name": "updateTrustedForwarder",
      "outputs": [],
      "stateMutability": "nonpayable",
      "type": "function"
    },
    {
      "inputs": [
        {
          "internalType": "address",
          "name": "newImplementation",
          "type": "address"
        },
        {
          "internalType": "bytes",
          "name": "data",
          "type": "bytes"
        }
      ],
      "name": "upgradeToAndCall",
      "outputs": [],
      "stateMutability": "payable",
      "type": "function"
    },
    {
      "inputs": [],
      "name": "version",
      "outputs": [
        {
          "internalType": "uint256",
          "name": "",
          "type": "uint256"
        }
      ],
      "stateMutability": "pure",
      "type": "function"
    }
  ],
  "transactionHash": "0xe957ddd7c2c20c257eca910d39c6a4f5f0ba542752233346952e34b3ed515c99",
  "args": [],
  "numDeployments": 1,
  "solcInputHash": "6fd2454e3ff91a8f18ab0d7e34dfcd3b",
  "bytecode": "0x60c06040523060805234801561001457600080fd5b50600060a052610022610027565b6100d9565b7ff0c57e16840df040f15088dc2f81fe391c3923bec73e23a9662efc9c229c6a00805468010000000000000000900460ff16156100775760405163f92ee8a960e01b815260040160405180910390fd5b80546001600160401b03908116146100d65780546001600160401b0319166001600160401b0390811782556040519081527fc7f505b2f371ae2175ee4913f4499e1f2633a7b5936321eed1cdaeb6115181d29060200160405180910390a15b50565b60805160a05161245b6200010a600039600050506000818161138e015281816113b70152611500015261245b6000f3fe6080604052600436106101b75760003560e01c806391d14854116100ec578063dbda68db1161008a578063f4c714b411610064578063f4c714b4146104e6578063f75cf86714610513578063f874225414610533578063f90b03111461055557600080fd5b8063dbda68db14610483578063dfb5e9ba146104b0578063eb9b9b64146104c657600080fd5b8063ad3cb1cc116100c6578063ad3cb1cc146103f2578063afbfc15614610423578063c26045f714610443578063d547741f1461046357600080fd5b806391d1485414610390578063a217fddf146103b0578063ac9650d8146103c557600080fd5b806352d1902d116101595780635c975abb116101335780635c975abb1461030157806360f1c43a146103265780637da0a877146103535780638456cb591461037b57600080fd5b806352d1902d146102a957806354fd4d50146102be578063572b6c05146102d257600080fd5b806336568abe1161019557806336568abe146102415780633f4ba83a14610261578063485cc955146102765780634f1ef2861461029657600080fd5b806301ffc9a7146101bc578063248a9ca3146101f15780632f2ff15d1461021f575b600080fd5b3480156101c857600080fd5b506101dc6101d73660046119b5565b610575565b60405190151581526020015b60405180910390f35b3480156101fd57600080fd5b5061021161020c3660046119df565b6105ac565b6040519081526020016101e8565b34801561022b57600080fd5b5061023f61023a366004611a0f565b6105ce565b005b34801561024d57600080fd5b5061023f61025c366004611a0f565b6105f0565b34801561026d57600080fd5b5061023f610638565b34801561028257600080fd5b5061023f610291366004611a3b565b61065b565b61023f6102a4366004611b64565b6107d2565b3480156102b557600080fd5b506102116107f1565b3480156102ca57600080fd5b506001610211565b3480156102de57600080fd5b506101dc6102ed366004611bb1565b6000546001600160a01b0391821691161490565b34801561030d57600080fd5b506000805160206123e68339815191525460ff166101dc565b34801561033257600080fd5b50610346610341366004611a0f565b61080e565b6040516101e89190611c1c565b34801561035f57600080fd5b506000546040516001600160a01b0390911681526020016101e8565b34801561038757600080fd5b5061023f6108c8565b34801561039c57600080fd5b506101dc6103ab366004611a0f565b6108e8565b3480156103bc57600080fd5b50610211600081565b3480156103d157600080fd5b506103e56103e0366004611c2f565b610920565b6040516101e89190611ca3565b3480156103fe57600080fd5b50610346604051806040016040528060058152602001640352e302e360dc1b81525081565b34801561042f57600080fd5b5061021161043e366004611d07565b610a7e565b34801561044f57600080fd5b5061023f61045e366004611e41565b610b8a565b34801561046f57600080fd5b5061023f61047e366004611a0f565b610c78565b34801561048f57600080fd5b506104a361049e366004611f67565b610c94565b6040516101e89190611f89565b3480156104bc57600080fd5b5061021160015481565b3480156104d257600080fd5b506102116104e136600461201e565b610f38565b3480156104f257600080fd5b506105066105013660046119df565b610f51565b6040516101e8919061205a565b34801561051f57600080fd5b5061023f61052e3660046120a8565b61105b565b34801561053f57600080fd5b5061021160008051602061240683398151915281565b34801561056157600080fd5b5061023f610570366004611bb1565b611105565b60006001600160e01b03198216637965db0b60e01b14806105a657506301ffc9a760e01b6001600160e01b03198316145b92915050565b60009081526000805160206123c6833981519152602052604090206001015490565b6105d7826105ac565b6105e081611140565b6105ea8383611151565b50505050565b6105f86111f7565b6001600160a01b0316816001600160a01b0316146106295760405163334bd91960e11b815260040160405180910390fd5b6106338282611206565b505050565b60008051602061240683398151915261065081611140565b6106586112a0565b50565b7ff0c57e16840df040f15088dc2f81fe391c3923bec73e23a9662efc9c229c6a008054600160401b810460ff1615906001600160401b03166000811580156106a05750825b90506000826001600160401b031660011480156106bc5750303b155b9050811580156106ca575080155b156106e85760405163f92ee8a960e01b815260040160405180910390fd5b845467ffffffffffffffff19166001178555831561071257845460ff60401b1916600160401b1785555b61071a611306565b610722611306565b61072a611310565b600080546001600160a01b0319166001600160a01b03891617815561075e9060008051602061240683398151915290611320565b610769600087611151565b5061078260008051602061240683398151915287611151565b5083156107c957845460ff60401b19168555604051600181527fc7f505b2f371ae2175ee4913f4499e1f2633a7b5936321eed1cdaeb6115181d29060200160405180910390a15b50505050505050565b6107da611383565b6107e382611428565b6107ed8282611433565b5050565b60006107fb6114f5565b506000805160206123a683398151915290565b60008281526002602090815260408083206001600160a01b03851684526005019091529020805460609190610842906120fe565b80601f016020809104026020016040519081016040528092919081815260200182805461086e906120fe565b80156108bb5780601f10610890576101008083540402835291602001916108bb565b820191906000526020600020905b81548152906001019060200180831161089e57829003601f168201915b5050505050905092915050565b6000805160206124068339815191526108e081611140565b61065861153e565b60009182526000805160206123c6833981519152602090815260408084206001600160a01b0393909316845291905290205460ff1690565b6060600061092c6111f7565b6001600160a01b0316336001600160a01b0316146109975760003661095260148261214e565b61095d928290612161565b8080601f0160208091040260200160405190810160405280939291908181526020018383808284376000920191909152506109a792505050565b6040805160008152602081019091525b9050826001600160401b038111156109c1576109c1611a65565b6040519080825280602002602001820160405280156109f457816020015b60608152602001906001900390816109df5790505b50915060005b83811015610a7657610a5130868684818110610a1857610a1861218b565b9050602002810190610a2a91906121a1565b85604051602001610a3d939291906121ee565b604051602081830303815290604052611589565b838281518110610a6357610a6361218b565b60209081029190910101526001016109fa565b505092915050565b6000610a886115ff565b6000610a948585611630565b905060005b8351811015610b7f57838181518110610ab457610ab461218b565b602002602001015160200151600260008481526020019081526020016000206005016000868481518110610aea57610aea61218b565b6020026020010151600001516001600160a01b03166001600160a01b031681526020019081526020016000209081610b229190612265565b50838181518110610b3557610b3561218b565b6020026020010151600001516001600160a01b0316827f6e0403ef2b13328247bf9260ad8dd9c18fb5a18b95ea25de817ca991da05929b60405160405180910390a3600101610a99565b5090505b9392505050565b610b926115ff565b600082815260026020526040812060030180548290610bb090612324565b918290555060008481526002602090815260408083208484526004019091529020835191925083918190610be49082612265565b5060208201518160010160008201518160000155602082015181600101556040820151816002019081610c179190612265565b5060608201516003820190610c2c9082612265565b5060808201516004820190610c419082612265565b50506040518493508692507faf40333be7583051bc0470d0b829c7717be60e0b467a5f5fd722c30e1a8b00c69150600090a3505050565b610c81826105ac565b610c8a81611140565b6105ea8383611206565b610c9c61196c565b6000838152600260209081526040808320858452600401909152908190208151808301909252805482908290610cd1906120fe565b80601f0160208091040260200160405190810160405280929190818152602001828054610cfd906120fe565b8015610d4a5780601f10610d1f57610100808354040283529160200191610d4a565b820191906000526020600020905b815481529060010190602001808311610d2d57829003601f168201915b50505050508152602001600182016040518060a00160405290816000820154815260200160018201548152602001600282018054610d87906120fe565b80601f0160208091040260200160405190810160405280929190818152602001828054610db3906120fe565b8015610e005780601f10610dd557610100808354040283529160200191610e00565b820191906000526020600020905b815481529060010190602001808311610de357829003601f168201915b50505050508152602001600382018054610e19906120fe565b80601f0160208091040260200160405190810160405280929190818152602001828054610e45906120fe565b8015610e925780601f10610e6757610100808354040283529160200191610e92565b820191906000526020600020905b815481529060010190602001808311610e7557829003601f168201915b50505050508152602001600482018054610eab906120fe565b80601f0160208091040260200160405190810160405280929190818152602001828054610ed7906120fe565b8015610f245780601f10610ef957610100808354040283529160200191610f24565b820191906000526020600020905b815481529060010190602001808311610f0757829003601f168201915b505050919092525050509052509392505050565b6000610f426115ff565b6105a68233611630565b919050565b610f8560405180608001604052806000815260200160006001600160a01b0316815260200160608152602001600081525090565b600082815260026020908152604091829020825160808101845285815281546001600160a01b0316928101929092526001810180549193830191610fc8906120fe565b80601f0160208091040260200160405190810160405280929190818152602001828054610ff4906120fe565b80156110415780601f1061101657610100808354040283529160200191611041565b820191906000526020600020905b81548152906001019060200180831161102457829003601f168201915b505050505081526020018260020154815250915050919050565b6110636115ff565b6000838152600260205260409020546001600160a01b0316331461109a5760405163abea322960e01b815260040160405180910390fd5b60008381526002602090815260408083206001600160a01b038616845260050190915290206110c98282612265565b506040516001600160a01b0383169084907f6e0403ef2b13328247bf9260ad8dd9c18fb5a18b95ea25de817ca991da05929b90600090a3505050565b60008051602061240683398151915261111d81611140565b50600080546001600160a01b0319166001600160a01b0392909216919091179055565b6106588161114c6111f7565b6116df565b60006000805160206123c683398151915261116c84846108e8565b6111ed576000848152602082815260408083206001600160a01b03871684529091529020805460ff191660011790556111a36111f7565b6001600160a01b0316836001600160a01b0316857f2f8788117e7eff1d82e926ec794901d17c78024a50270940304540a733656f0d60405160405180910390a460019150506105a6565b60009150506105a6565b6000611201611718565b905090565b60006000805160206123c683398151915261122184846108e8565b156111ed576000848152602082815260408083206001600160a01b03871684529091529020805460ff191690556112566111f7565b6001600160a01b0316836001600160a01b0316857ff6391f5c32d9c69d2a47ea670b442974b53935d1edc7fd64eb21e047a839171b60405160405180910390a460019150506105a6565b6112a8611773565b6000805160206123e6833981519152805460ff191681557f5db9ee0a495bf2e6ff9c91a7834c1ba4fdd244a5e8aa4e537bd38aeae4b073aa6112e86111f7565b6040516001600160a01b03909116815260200160405180910390a150565b61130e6117a3565b565b6113186117a3565b61130e6117ec565b6000805160206123c6833981519152600061133a846105ac565b600085815260208490526040808220600101869055519192508491839187917fbd79b86ffe0ab8e8776151514217cd7cacd52c909f66475c3af44e129f0b00ff9190a450505050565b306001600160a01b037f000000000000000000000000000000000000000000000000000000000000000016148061140a57507f00000000000000000000000000000000000000000000000000000000000000006001600160a01b03166113fe6000805160206123a6833981519152546001600160a01b031690565b6001600160a01b031614155b1561130e5760405163703e46dd60e11b815260040160405180910390fd5b60006107ed81611140565b816001600160a01b03166352d1902d6040518163ffffffff1660e01b8152600401602060405180830381865afa92505050801561148d575060408051601f3d908101601f1916820190925261148a9181019061233d565b60015b6114ba57604051634c9c8ce360e01b81526001600160a01b03831660048201526024015b60405180910390fd5b6000805160206123a683398151915281146114eb57604051632a87526960e21b8152600481018290526024016114b1565b610633838361180d565b306001600160a01b037f0000000000000000000000000000000000000000000000000000000000000000161461130e5760405163703e46dd60e11b815260040160405180910390fd5b6115466115ff565b6000805160206123e6833981519152805460ff191660011781557f62e78cea01bee320cd4e420270b5ea74000d11b0c9f74754ebdbfc544b05a2586112e86111f7565b6060600080846001600160a01b0316846040516115a69190612356565b600060405180830381855af49150503d80600081146115e1576040519150601f19603f3d011682016040523d82523d6000602084013e6115e6565b606091505b50915091506115f6858383611863565b95945050505050565b6000805160206123e68339815191525460ff161561130e5760405163d93c066560e01b815260040160405180910390fd5b60008060016000815461164290612324565b9182905550600081815260026020526040902080546001600160a01b0319166001600160a01b03861617815590915060010161167e8582612265565b5060008181526002602081905260409182902043910155516001600160a01b0384169082907f2980b13036c0d9df6b71ea9e9c09536efd24d7dd1868e29aa730f0c3fbd1a0dc906116d0908890611c1c565b60405180910390a39392505050565b6116e982826108e8565b6107ed5760405163e2517d3f60e01b81526001600160a01b0382166004820152602481018390526044016114b1565b6000368160146000549091506001600160a01b03163314801561173b5750808210155b1561176b5760003661174d838561214e565b611758928290612161565b61176191612372565b60601c9250505090565b339250505090565b6000805160206123e68339815191525460ff1661130e57604051638dfc202b60e01b815260040160405180910390fd5b7ff0c57e16840df040f15088dc2f81fe391c3923bec73e23a9662efc9c229c6a0054600160401b900460ff1661130e57604051631afcd79f60e31b815260040160405180910390fd5b6117f46117a3565b6000805160206123e6833981519152805460ff19169055565b611816826118bf565b6040516001600160a01b038316907fbc7cd75a20ee27fd9adebab32041f755214dbc6bffa90cc0225b39da2e5c2d3b90600090a280511561185b576106338282611589565b6107ed611924565b6060826118785761187382611943565b610b83565b815115801561188f57506001600160a01b0384163b155b156118b857604051639996b31560e01b81526001600160a01b03851660048201526024016114b1565b5080610b83565b806001600160a01b03163b6000036118f557604051634c9c8ce360e01b81526001600160a01b03821660048201526024016114b1565b6000805160206123a683398151915280546001600160a01b0319166001600160a01b0392909216919091179055565b341561130e5760405163b398979f60e01b815260040160405180910390fd5b8051156119535780518082602001fd5b604051630a12f52160e11b815260040160405180910390fd5b6040518060400160405280606081526020016119b06040518060a0016040528060008152602001600081526020016060815260200160608152602001606081525090565b905290565b6000602082840312156119c757600080fd5b81356001600160e01b031981168114610b8357600080fd5b6000602082840312156119f157600080fd5b5035919050565b80356001600160a01b0381168114610f4c57600080fd5b60008060408385031215611a2257600080fd5b82359150611a32602084016119f8565b90509250929050565b60008060408385031215611a4e57600080fd5b611a57836119f8565b9150611a32602084016119f8565b634e487b7160e01b600052604160045260246000fd5b604080519081016001600160401b0381118282101715611a9d57611a9d611a65565b60405290565b60405160a081016001600160401b0381118282101715611a9d57611a9d611a65565b604051601f8201601f191681016001600160401b0381118282101715611aed57611aed611a65565b604052919050565b600082601f830112611b0657600080fd5b81356001600160401b03811115611b1f57611b1f611a65565b611b32601f8201601f1916602001611ac5565b818152846020838601011115611b4757600080fd5b816020850160208301376000918101602001919091529392505050565b60008060408385031215611b7757600080fd5b611b80836119f8565b915060208301356001600160401b03811115611b9b57600080fd5b611ba785828601611af5565b9150509250929050565b600060208284031215611bc357600080fd5b610b83826119f8565b60005b83811015611be7578181015183820152602001611bcf565b50506000910152565b60008151808452611c08816020860160208601611bcc565b601f01601f19169290920160200192915050565b602081526000610b836020830184611bf0565b60008060208385031215611c4257600080fd5b82356001600160401b0380821115611c5957600080fd5b818501915085601f830112611c6d57600080fd5b813581811115611c7c57600080fd5b8660208260051b8501011115611c9157600080fd5b60209290920196919550909350505050565b600060208083016020845280855180835260408601915060408160051b87010192506020870160005b82811015611cfa57603f19888603018452611ce8858351611bf0565b94509285019290850190600101611ccc565b5092979650505050505050565b600080600060608486031215611d1c57600080fd5b83356001600160401b0380821115611d3357600080fd5b611d3f87838801611af5565b945060209150611d508287016119f8565b9350604086013581811115611d6457600080fd5b8601601f81018813611d7557600080fd5b803582811115611d8757611d87611a65565b8060051b611d96858201611ac5565b918252828101850191858101908b841115611db057600080fd5b86850192505b83831015611e3057823586811115611dce5760008081fd5b85016040818e03601f19011215611de55760008081fd5b611ded611a7b565b611df88983016119f8565b8152604082013588811115611e0d5760008081fd5b611e1b8f8b83860101611af5565b828b0152508352509186019190860190611db6565b809750505050505050509250925092565b60008060408385031215611e5457600080fd5b8235915060208301356001600160401b0380821115611e7257600080fd5b9084019060408287031215611e8657600080fd5b611e8e611a7b565b823582811115611e9d57600080fd5b611ea988828601611af5565b825250602083013582811115611ebe57600080fd5b929092019160a08388031215611ed357600080fd5b611edb611aa3565b8335815260208401356020820152604084013583811115611efb57600080fd5b611f0789828701611af5565b604083015250606084013583811115611f1f57600080fd5b611f2b89828701611af5565b606083015250608084013583811115611f4357600080fd5b611f4f89828701611af5565b60808301525060208201529396939550929350505050565b60008060408385031215611f7a57600080fd5b50508035926020909101359150565b602081526000825160406020840152611fa56060840182611bf0565b90506020840151601f198483030160408501528051825260208101516020830152604081015160a06040840152611fdf60a0840182611bf0565b905060608201518382036060850152611ff88282611bf0565b9150506080820151915082810360808401526120148183611bf0565b9695505050505050565b60006020828403121561203057600080fd5b81356001600160401b0381111561204657600080fd5b61205284828501611af5565b949350505050565b602081528151602082015260018060a01b036020830151166040820152600060408301516080606084015261209260a0840182611bf0565b9050606084015160808401528091505092915050565b6000806000606084860312156120bd57600080fd5b833592506120cd602085016119f8565b915060408401356001600160401b038111156120e857600080fd5b6120f486828701611af5565b9150509250925092565b600181811c9082168061211257607f821691505b60208210810361213257634e487b7160e01b600052602260045260246000fd5b50919050565b634e487b7160e01b600052601160045260246000fd5b818103818111156105a6576105a6612138565b6000808585111561217157600080fd5b8386111561217e57600080fd5b5050820193919092039150565b634e487b7160e01b600052603260045260246000fd5b6000808335601e198436030181126121b857600080fd5b8301803591506001600160401b038211156121d257600080fd5b6020019150368190038213156121e757600080fd5b9250929050565b82848237600083820160008152835161220b818360208801611bcc565b0195945050505050565b601f821115610633576000816000526020600020601f850160051c8101602086101561223e5750805b601f850160051c820191505b8181101561225d5782815560010161224a565b505050505050565b81516001600160401b0381111561227e5761227e611a65565b6122928161228c84546120fe565b84612215565b602080601f8311600181146122c757600084156122af5750858301515b600019600386901b1c1916600185901b17855561225d565b600085815260208120601f198616915b828110156122f6578886015182559484019460019091019084016122d7565b50858210156123145787850151600019600388901b60f8161c191681555b5050505050600190811b01905550565b60006001820161233657612336612138565b5060010190565b60006020828403121561234f57600080fd5b5051919050565b60008251612368818460208701611bcc565b9190910192915050565b6bffffffffffffffffffffffff198135818116916014851015610a765760149490940360031b84901b169092169291505056fe360894a13ba1a3210667c828492db98dca3e2076cc3735a920a3ca505d382bbc02dd7bc7dec4dceedda775e58dd541e08a116c6c53815c0bd028192f7b626800cd5ed15c6e187e77e9aee88184c21f4f2182ab5827cb3b7e07fbedcd63f03300339759585899103d2ace64958e37e18ccb0504652c81d4a1b8aa80fe2126ab95a26469706673582212201fccdb1596867cf38df3962ec4c44a563f74359fe0c2bacad7dbe1df006b0e1964736f6c63430008180033",
  "devdoc": {
    "errors": {
      "AccessControlBadConfirmation()": [
        {
          "details": "The caller of a function is not the expected one. NOTE: Don't confuse with {AccessControlUnauthorizedAccount}."
        }
      ],
      "AccessControlUnauthorizedAccount(address,bytes32)": [
        {
          "details": "The `account` is missing a role."
        }
      ],
      "AddressEmptyCode(address)": [
        {
          "details": "There's no code at `target` (it is not a contract)."
        }
      ],
      "ERC1967InvalidImplementation(address)": [
        {
          "details": "The `implementation` of the proxy is invalid."
        }
      ],
      "ERC1967NonPayable()": [
        {
          "details": "An upgrade function sees `msg.value > 0` that may be lost."
        }
      ],
      "EnforcedPause()": [
        {
          "details": "The operation failed because the contract is paused."
        }
      ],
      "ExpectedPause()": [
        {
          "details": "The operation failed because the contract is not paused."
        }
      ],
      "FailedInnerCall()": [
        {
          "details": "A call to an address target failed. The target may have reverted."
        }
      ],
      "InvalidInitialization()": [
        {
          "details": "The contract is already initialized."
        }
      ],
      "NotInitializing()": [
        {
          "details": "The contract is not initializing."
        }
      ],
      "UUPSUnauthorizedCallContext()": [
        {
          "details": "The call is from an unauthorized context."
        }
      ],
      "UUPSUnsupportedProxiableUUID(bytes32)": [
        {
          "details": "The storage `slot` is unsupported as a UUID."
        }
      ]
    },
    "events": {
      "FileAdded(uint256,address,string)": {
        "params": {
          "fileId": "id of the file",
          "ownerAddress": "address of the owner",
          "url": "url of the file"
        }
      },
      "Initialized(uint64)": {
        "details": "Triggered when the contract has been initialized or reinitialized."
      },
      "Paused(address)": {
        "details": "Emitted when the pause is triggered by `account`."
      },
      "PermissionGranted(uint256,address)": {
        "params": {
          "account": "address of the account",
          "fileId": "id of the file"
        }
      },
      "ProofAdded(uint256,uint256)": {
        "params": {
          "fileId": "id of the file",
          "proofIndex": "index of the proof"
        }
      },
      "RoleAdminChanged(bytes32,bytes32,bytes32)": {
        "details": "Emitted when `newAdminRole` is set as ``role``'s admin role, replacing `previousAdminRole` `DEFAULT_ADMIN_ROLE` is the starting admin for all roles, despite {RoleAdminChanged} not being emitted signaling this."
      },
      "RoleGranted(bytes32,address,address)": {
        "details": "Emitted when `account` is granted `role`. `sender` is the account that originated the contract call, an admin role bearer except when using {AccessControl-_setupRole}."
      },
      "RoleRevoked(bytes32,address,address)": {
        "details": "Emitted when `account` is revoked `role`. `sender` is the account that originated the contract call:   - if using `revokeRole`, it is the admin role bearer   - if using `renounceRole`, it is the role bearer (i.e. `account`)"
      },
      "Unpaused(address)": {
        "details": "Emitted when the pause is lifted by `account`."
      },
      "Upgraded(address)": {
        "details": "Emitted when the implementation is upgraded."
      }
    },
    "kind": "dev",
    "methods": {
      "addFile(string)": {
        "params": {
          "url": "url of the file"
        },
        "returns": {
          "_0": "uint256                          id of the file"
        }
      },
      "addFilePermission(uint256,address,string)": {
        "params": {
          "account": "address of the account",
          "fileId": "id of the file",
          "key": "encryption key for the account"
        }
      },
      "addFileWithPermissions(string,address,(address,string)[])": {
        "params": {
          "ownerAddress": "address of the owner",
          "permissions": "permissions for the file",
          "url": "url of the file"
        },
        "returns": {
          "_0": "uint256                          id of the file"
        }
      },
      "addProof(uint256,(bytes,(uint256,uint256,string,string,string)))": {
        "params": {
          "fileId": "id of the file",
          "proof": "proof for the file"
        }
      },
      "constructor": {
        "custom:oz-upgrades-unsafe-allow": "constructor"
      },
      "filePermissions(uint256,address)": {
        "params": {
          "account": "address of the account",
          "fileId": "id of the file"
        },
        "returns": {
          "_0": "string                           key for the account"
        }
      },
      "fileProofs(uint256,uint256)": {
        "params": {
          "fileId": "id of the file",
          "index": "index of the proof"
        },
        "returns": {
          "_0": "Proof                            proof of the file"
        }
      },
      "files(uint256)": {
        "params": {
          "fileId": "id of the file"
        },
        "returns": {
          "_0": "FileResponse                     information about the file"
        }
      },
      "getRoleAdmin(bytes32)": {
        "details": "Returns the admin role that controls `role`. See {grantRole} and {revokeRole}. To change a role's admin, use {_setRoleAdmin}."
      },
      "grantRole(bytes32,address)": {
        "details": "Grants `role` to `account`. If `account` had not been already granted `role`, emits a {RoleGranted} event. Requirements: - the caller must have ``role``'s admin role. May emit a {RoleGranted} event."
      },
      "hasRole(bytes32,address)": {
        "details": "Returns `true` if `account` has been granted `role`."
      },
      "initialize(address,address)": {
        "params": {
          "ownerAddress": "address of the owner"
        }
      },
      "isTrustedForwarder(address)": {
        "details": "Indicates whether any particular address is the trusted forwarder."
      },
      "multicall(bytes[])": {
        "custom:oz-upgrades-unsafe-allow-reachable": "delegatecall",
        "details": "Receives and executes a batch of function calls on this contract."
      },
      "pause()": {
        "details": "Pauses the contract"
      },
      "paused()": {
        "details": "Returns true if the contract is paused, and false otherwise."
      },
      "proxiableUUID()": {
        "details": "Implementation of the ERC1822 {proxiableUUID} function. This returns the storage slot used by the implementation. It is used to validate the implementation's compatibility when performing an upgrade. IMPORTANT: A proxy pointing at a proxiable contract should not be considered proxiable itself, because this risks bricking a proxy that upgrades to it, by delegating to itself until out of gas. Thus it is critical that this function revert if invoked through a proxy. This is guaranteed by the `notDelegated` modifier."
      },
      "renounceRole(bytes32,address)": {
        "details": "Revokes `role` from the calling account. Roles are often managed via {grantRole} and {revokeRole}: this function's purpose is to provide a mechanism for accounts to lose their privileges if they are compromised (such as when a trusted device is misplaced). If the calling account had been revoked `role`, emits a {RoleRevoked} event. Requirements: - the caller must be `callerConfirmation`. May emit a {RoleRevoked} event."
      },
      "revokeRole(bytes32,address)": {
        "details": "Revokes `role` from `account`. If `account` had been granted `role`, emits a {RoleRevoked} event. Requirements: - the caller must have ``role``'s admin role. May emit a {RoleRevoked} event."
      },
      "supportsInterface(bytes4)": {
        "details": "See {IERC165-supportsInterface}."
      },
      "trustedForwarder()": {
        "details": "Returns the address of the trusted forwarder."
      },
      "unpause()": {
        "details": "Unpauses the contract"
      },
      "updateTrustedForwarder(address)": {
        "params": {
          "trustedForwarder": "address of the trusted forwarder"
        }
      },
      "upgradeToAndCall(address,bytes)": {
        "custom:oz-upgrades-unsafe-allow-reachable": "delegatecall",
        "details": "Upgrade the implementation of the proxy to `newImplementation`, and subsequently execute the function call encoded in `data`. Calls {_authorizeUpgrade}. Emits an {Upgraded} event."
      }
    },
    "version": 1
  },
  "userdoc": {
    "events": {
      "FileAdded(uint256,address,string)": {
        "notice": "Triggered when a file has been added"
      },
      "PermissionGranted(uint256,address)": {
        "notice": "Triggered when user has authorized an account to access the file"
      },
      "ProofAdded(uint256,uint256)": {
        "notice": "Triggered when user has added an proof to the file"
      }
    },
    "kind": "user",
    "methods": {
      "addFile(string)": {
        "notice": "Adds a file to the registry"
      },
      "addFilePermission(uint256,address,string)": {
        "notice": "Adds permissions for accounts to access the file"
      },
      "addFileWithPermissions(string,address,(address,string)[])": {
        "notice": "Adds a file to the registry with permissions"
      },
      "addProof(uint256,(bytes,(uint256,uint256,string,string,string)))": {
        "notice": "Adds an proof to the file"
      },
      "filePermissions(uint256,address)": {
        "notice": "Returns permissions for the file"
      },
      "fileProofs(uint256,uint256)": {
        "notice": "Returns the proof of the file"
      },
      "files(uint256)": {
        "notice": "Returns information about the file"
      },
      "initialize(address,address)": {
        "notice": "Initialize the contract"
      },
      "updateTrustedForwarder(address)": {
        "notice": "Update the trusted forwarder"
      },
      "version()": {
        "notice": "Returns the version of the contract"
      }
    },
    "version": 1
  },
  "storageLayout": {
    "storage": [
      {
        "astId": 5569,
        "contract": "contracts/dataRegistry/DataRegistryImplementation.sol:DataRegistryImplementation",
        "label": "_trustedForwarder",
        "offset": 0,
        "slot": "0",
        "type": "t_address"
      },
      {
        "astId": 5572,
        "contract": "contracts/dataRegistry/DataRegistryImplementation.sol:DataRegistryImplementation",
        "label": "filesCount",
        "offset": 0,
        "slot": "1",
        "type": "t_uint256"
      },
      {
        "astId": 5577,
        "contract": "contracts/dataRegistry/DataRegistryImplementation.sol:DataRegistryImplementation",
        "label": "_files",
        "offset": 0,
        "slot": "2",
        "type": "t_mapping(t_uint256,t_struct(File)5615_storage)"
      }
    ],
    "types": {
      "t_address": {
        "encoding": "inplace",
        "label": "address",
        "numberOfBytes": "20"
      },
      "t_bytes_storage": {
        "encoding": "bytes",
        "label": "bytes",
        "numberOfBytes": "32"
      },
      "t_mapping(t_address,t_string_storage)": {
        "encoding": "mapping",
        "key": "t_address",
        "label": "mapping(address => string)",
        "numberOfBytes": "32",
        "value": "t_string_storage"
      },
      "t_mapping(t_uint256,t_struct(File)5615_storage)": {
        "encoding": "mapping",
        "key": "t_uint256",
        "label": "mapping(uint256 => struct IDataRegistry.File)",
        "numberOfBytes": "32",
        "value": "t_struct(File)5615_storage"
      },
      "t_mapping(t_uint256,t_struct(Proof)5597_storage)": {
        "encoding": "mapping",
        "key": "t_uint256",
        "label": "mapping(uint256 => struct IDataRegistry.Proof)",
        "numberOfBytes": "32",
        "value": "t_struct(Proof)5597_storage"
      },
      "t_string_storage": {
        "encoding": "bytes",
        "label": "string",
        "numberOfBytes": "32"
      },
      "t_struct(File)5615_storage": {
        "encoding": "inplace",
        "label": "struct IDataRegistry.File",
        "members": [
          {
            "astId": 5599,
            "contract": "contracts/dataRegistry/DataRegistryImplementation.sol:DataRegistryImplementation",
            "label": "ownerAddress",
            "offset": 0,
            "slot": "0",
            "type": "t_address"
          },
          {
            "astId": 5601,
            "contract": "contracts/dataRegistry/DataRegistryImplementation.sol:DataRegistryImplementation",
            "label": "url",
            "offset": 0,
            "slot": "1",
            "type": "t_string_storage"
          },
          {
            "astId": 5603,
            "contract": "contracts/dataRegistry/DataRegistryImplementation.sol:DataRegistryImplementation",
            "label": "addedAtBlock",
            "offset": 0,
            "slot": "2",
            "type": "t_uint256"
          },
          {
            "astId": 5605,
            "contract": "contracts/dataRegistry/DataRegistryImplementation.sol:DataRegistryImplementation",
            "label": "proofsCount",
            "offset": 0,
            "slot": "3",
            "type": "t_uint256"
          },
          {
            "astId": 5610,
            "contract": "contracts/dataRegistry/DataRegistryImplementation.sol:DataRegistryImplementation",
            "label": "proofs",
            "offset": 0,
            "slot": "4",
            "type": "t_mapping(t_uint256,t_struct(Proof)5597_storage)"
          },
          {
            "astId": 5614,
            "contract": "contracts/dataRegistry/DataRegistryImplementation.sol:DataRegistryImplementation",
            "label": "permissions",
            "offset": 0,
            "slot": "5",
            "type": "t_mapping(t_address,t_string_storage)"
          }
        ],
        "numberOfBytes": "192"
      },
      "t_struct(Proof)5597_storage": {
        "encoding": "inplace",
        "label": "struct IDataRegistry.Proof",
        "members": [
          {
            "astId": 5593,
            "contract": "contracts/dataRegistry/DataRegistryImplementation.sol:DataRegistryImplementation",
            "label": "signature",
            "offset": 0,
            "slot": "0",
            "type": "t_bytes_storage"
          },
          {
            "astId": 5596,
            "contract": "contracts/dataRegistry/DataRegistryImplementation.sol:DataRegistryImplementation",
            "label": "data",
            "offset": 0,
            "slot": "1",
            "type": "t_struct(ProofData)5591_storage"
          }
        ],
        "numberOfBytes": "192"
      },
      "t_struct(ProofData)5591_storage": {
        "encoding": "inplace",
        "label": "struct IDataRegistry.ProofData",
        "members": [
          {
            "astId": 5582,
            "contract": "contracts/dataRegistry/DataRegistryImplementation.sol:DataRegistryImplementation",
            "label": "score",
            "offset": 0,
            "slot": "0",
            "type": "t_uint256"
          },
          {
            "astId": 5584,
            "contract": "contracts/dataRegistry/DataRegistryImplementation.sol:DataRegistryImplementation",
            "label": "dlpId",
            "offset": 0,
            "slot": "1",
            "type": "t_uint256"
          },
          {
            "astId": 5586,
            "contract": "contracts/dataRegistry/DataRegistryImplementation.sol:DataRegistryImplementation",
            "label": "metadata",
            "offset": 0,
            "slot": "2",
            "type": "t_string_storage"
          },
          {
            "astId": 5588,
            "contract": "contracts/dataRegistry/DataRegistryImplementation.sol:DataRegistryImplementation",
            "label": "proofUrl",
            "offset": 0,
            "slot": "3",
            "type": "t_string_storage"
          },
          {
            "astId": 5590,
            "contract": "contracts/dataRegistry/DataRegistryImplementation.sol:DataRegistryImplementation",
            "label": "instruction",
            "offset": 0,
            "slot": "4",
            "type": "t_string_storage"
          }
        ],
        "numberOfBytes": "160"
      },
      "t_uint256": {
        "encoding": "inplace",
        "label": "uint256",
        "numberOfBytes": "32"
      }
    }
  }
}