{
  "address": "0x4526A1B15e49B6aE9d549F4D82d888e0cCae6B13",
  "abi": [
    {
      "inputs": [],
      "stateMutability": "nonpayable",
      "type": "constructor"
    },
    {
      "inputs": [],
      "name": "AccessControlBadConfirmation",
      "type": "error"
    },
    {
      "inputs": [
        {
          "internalType": "address",
          "name": "account",
          "type": "address"
        },
        {
          "internalType": "bytes32",
          "name": "neededRole",
          "type": "bytes32"
        }
      ],
      "name": "AccessControlUnauthorizedAccount",
      "type": "error"
    },
    {
      "inputs": [
        {
          "internalType": "address",
          "name": "target",
          "type": "address"
        }
      ],
      "name": "AddressEmptyCode",
      "type": "error"
    },
    {
      "inputs": [],
      "name": "CheckpointUnorderedInsertion",
      "type": "error"
    },
    {
      "inputs": [
        {
          "internalType": "address",
          "name": "implementation",
          "type": "address"
        }
      ],
      "name": "ERC1967InvalidImplementation",
      "type": "error"
    },
    {
      "inputs": [],
      "name": "ERC1967NonPayable",
      "type": "error"
    },
    {
      "inputs": [],
      "name": "EnforcedPause",
      "type": "error"
    },
    {
      "inputs": [],
      "name": "EpochNotEnded",
      "type": "error"
    },
    {
      "inputs": [],
      "name": "ExpectedPause",
      "type": "error"
    },
    {
      "inputs": [],
      "name": "FailedInnerCall",
      "type": "error"
    },
    {
      "inputs": [],
      "name": "InvalidAddress",
      "type": "error"
    },
    {
      "inputs": [],
      "name": "InvalidDlpId",
      "type": "error"
    },
    {
      "inputs": [],
      "name": "InvalidDlpStatus",
      "type": "error"
    },
    {
      "inputs": [],
      "name": "InvalidInitialization",
      "type": "error"
    },
    {
      "inputs": [],
      "name": "InvalidParam",
      "type": "error"
    },
    {
      "inputs": [],
      "name": "InvalidStakeAmount",
      "type": "error"
    },
    {
      "inputs": [],
      "name": "InvalidStakersPercentage",
      "type": "error"
    },
    {
      "inputs": [],
      "name": "LastEpochMustBeFinalised",
      "type": "error"
    },
    {
      "inputs": [],
      "name": "NotInitializing",
      "type": "error"
    },
    {
      "inputs": [],
      "name": "NotStakeOwner",
      "type": "error"
    },
    {
      "inputs": [],
      "name": "NothingToClaim",
      "type": "error"
    },
    {
      "inputs": [],
      "name": "ReentrancyGuardReentrantCall",
      "type": "error"
    },
    {
      "inputs": [],
      "name": "StakeAlreadyClosed",
      "type": "error"
    },
    {
      "inputs": [],
      "name": "StakeAlreadyWithdrawn",
      "type": "error"
    },
    {
      "inputs": [],
      "name": "StakeNotClosed",
      "type": "error"
    },
    {
      "inputs": [],
      "name": "StakeWithdrawalTooEarly",
      "type": "error"
    },
    {
      "inputs": [],
      "name": "TransferFailed",
      "type": "error"
    },
    {
      "inputs": [],
      "name": "UUPSUnauthorizedCallContext",
      "type": "error"
    },
    {
      "inputs": [
        {
          "internalType": "bytes32",
          "name": "slot",
          "type": "bytes32"
        }
      ],
      "name": "UUPSUnsupportedProxiableUUID",
      "type": "error"
    },
    {
      "anonymous": false,
      "inputs": [
        {
          "indexed": false,
          "internalType": "uint64",
          "name": "version",
          "type": "uint64"
        }
      ],
      "name": "Initialized",
      "type": "event"
    },
    {
      "anonymous": false,
      "inputs": [
        {
          "indexed": false,
          "internalType": "uint256",
          "name": "newMinStakeAmount",
          "type": "uint256"
        }
      ],
      "name": "MinStakeAmountUpdated",
      "type": "event"
    },
    {
      "anonymous": false,
      "inputs": [
        {
          "indexed": false,
          "internalType": "address",
          "name": "account",
          "type": "address"
        }
      ],
      "name": "Paused",
      "type": "event"
    },
    {
      "anonymous": false,
      "inputs": [
        {
          "indexed": false,
          "internalType": "uint256",
          "name": "newRewardClaimDelay",
          "type": "uint256"
        }
      ],
      "name": "RewardClaimDelayUpdated",
      "type": "event"
    },
    {
      "anonymous": false,
      "inputs": [
        {
          "indexed": true,
          "internalType": "bytes32",
          "name": "role",
          "type": "bytes32"
        },
        {
          "indexed": true,
          "internalType": "bytes32",
          "name": "previousAdminRole",
          "type": "bytes32"
        },
        {
          "indexed": true,
          "internalType": "bytes32",
          "name": "newAdminRole",
          "type": "bytes32"
        }
      ],
      "name": "RoleAdminChanged",
      "type": "event"
    },
    {
      "anonymous": false,
      "inputs": [
        {
          "indexed": true,
          "internalType": "bytes32",
          "name": "role",
          "type": "bytes32"
        },
        {
          "indexed": true,
          "internalType": "address",
          "name": "account",
          "type": "address"
        },
        {
          "indexed": true,
          "internalType": "address",
          "name": "sender",
          "type": "address"
        }
      ],
      "name": "RoleGranted",
      "type": "event"
    },
    {
      "anonymous": false,
      "inputs": [
        {
          "indexed": true,
          "internalType": "bytes32",
          "name": "role",
          "type": "bytes32"
        },
        {
          "indexed": true,
          "internalType": "address",
          "name": "account",
          "type": "address"
        },
        {
          "indexed": true,
          "internalType": "address",
          "name": "sender",
          "type": "address"
        }
      ],
      "name": "RoleRevoked",
      "type": "event"
    },
    {
      "anonymous": false,
      "inputs": [
        {
          "indexed": true,
          "internalType": "uint256",
          "name": "stakeId",
          "type": "uint256"
        }
      ],
      "name": "StakeClosed",
      "type": "event"
    },
    {
      "anonymous": false,
      "inputs": [
        {
          "indexed": false,
          "internalType": "uint256",
          "name": "stakeId",
          "type": "uint256"
        },
        {
          "indexed": true,
          "internalType": "address",
          "name": "staker",
          "type": "address"
        },
        {
          "indexed": true,
          "internalType": "uint256",
          "name": "dlpId",
          "type": "uint256"
        },
        {
          "indexed": false,
          "internalType": "uint256",
          "name": "amount",
          "type": "uint256"
        }
      ],
      "name": "StakeCreated",
      "type": "event"
    },
    {
      "anonymous": false,
      "inputs": [
        {
          "indexed": false,
          "internalType": "uint256",
          "name": "oldDtakeId",
          "type": "uint256"
        },
        {
          "indexed": false,
          "internalType": "uint256",
          "name": "newStakeId",
          "type": "uint256"
        },
        {
          "indexed": true,
          "internalType": "uint256",
          "name": "newDlpId",
          "type": "uint256"
        },
        {
          "indexed": false,
          "internalType": "uint256",
          "name": "newAmount",
          "type": "uint256"
        }
      ],
      "name": "StakeMigrated",
      "type": "event"
    },
    {
      "anonymous": false,
      "inputs": [
        {
          "indexed": true,
          "internalType": "uint256",
          "name": "stakeId",
          "type": "uint256"
        },
        {
          "indexed": true,
          "internalType": "uint256",
          "name": "epochId",
          "type": "uint256"
        },
        {
          "indexed": false,
          "internalType": "uint256",
          "name": "amount",
          "type": "uint256"
        },
        {
          "indexed": false,
          "internalType": "bool",
          "name": "isFinal",
          "type": "bool"
        }
      ],
      "name": "StakeRewardClaimed",
      "type": "event"
    },
    {
      "anonymous": false,
      "inputs": [
        {
          "indexed": false,
          "internalType": "uint256",
          "name": "newStakeWithdrawalDelay",
          "type": "uint256"
        }
      ],
      "name": "StakeWithdrawalDelayUpdated",
      "type": "event"
    },
    {
      "anonymous": false,
      "inputs": [
        {
          "indexed": true,
          "internalType": "uint256",
          "name": "stakeId",
          "type": "uint256"
        }
      ],
      "name": "StakeWithdrawn",
      "type": "event"
    },
    {
      "anonymous": false,
      "inputs": [
        {
          "indexed": false,
          "internalType": "address",
          "name": "account",
          "type": "address"
        }
      ],
      "name": "Unpaused",
      "type": "event"
    },
    {
      "anonymous": false,
      "inputs": [
        {
          "indexed": true,
          "internalType": "address",
          "name": "implementation",
          "type": "address"
        }
      ],
      "name": "Upgraded",
      "type": "event"
    },
    {
      "inputs": [],
      "name": "DEFAULT_ADMIN_ROLE",
      "outputs": [
        {
          "internalType": "bytes32",
          "name": "",
          "type": "bytes32"
        }
      ],
      "stateMutability": "view",
      "type": "function"
    },
    {
      "inputs": [],
      "name": "DLP_ROOT_CORE_ROLE",
      "outputs": [
        {
          "internalType": "bytes32",
          "name": "",
          "type": "bytes32"
        }
      ],
      "stateMutability": "view",
      "type": "function"
    },
    {
      "inputs": [],
      "name": "DLP_ROOT_METRICS_ROLE",
      "outputs": [
        {
          "internalType": "bytes32",
          "name": "",
          "type": "bytes32"
        }
      ],
      "stateMutability": "view",
      "type": "function"
    },
    {
      "inputs": [],
      "name": "MAINTAINER_ROLE",
      "outputs": [
        {
          "internalType": "bytes32",
          "name": "",
          "type": "bytes32"
        }
      ],
      "stateMutability": "view",
      "type": "function"
    },
    {
      "inputs": [],
      "name": "MANAGER_ROLE",
      "outputs": [
        {
          "internalType": "bytes32",
          "name": "",
          "type": "bytes32"
        }
      ],
      "stateMutability": "view",
      "type": "function"
    },
    {
      "inputs": [],
      "name": "NEW_MULTIPLIER_EPOCH",
      "outputs": [
        {
          "internalType": "uint256",
          "name": "",
          "type": "uint256"
        }
      ],
      "stateMutability": "view",
      "type": "function"
    },
    {
      "inputs": [],
      "name": "UPGRADE_INTERFACE_VERSION",
      "outputs": [
        {
          "internalType": "string",
          "name": "",
          "type": "string"
        }
      ],
      "stateMutability": "view",
      "type": "function"
    },
    {
      "inputs": [
        {
          "internalType": "uint256",
          "name": "stakeId",
          "type": "uint256"
        }
      ],
      "name": "calculateStakeClaimableAmount",
      "outputs": [
        {
          "internalType": "uint256",
          "name": "",
          "type": "uint256"
        }
      ],
      "stateMutability": "nonpayable",
      "type": "function"
    },
    {
      "inputs": [
        {
          "internalType": "uint256",
          "name": "stakeAmount",
          "type": "uint256"
        },
        {
          "internalType": "uint256",
          "name": "stakeStartBlock",
          "type": "uint256"
        },
        {
          "internalType": "uint256",
          "name": "blockNumber",
          "type": "uint256"
        }
      ],
      "name": "calculateStakeScore",
      "outputs": [
        {
          "internalType": "uint256",
          "name": "",
          "type": "uint256"
        }
      ],
      "stateMutability": "view",
      "type": "function"
    },
    {
      "inputs": [
        {
          "internalType": "uint256",
          "name": "stakeId",
          "type": "uint256"
        },
        {
          "internalType": "uint256",
          "name": "lastEpochToClaim",
          "type": "uint256"
        }
      ],
      "name": "claimStakeRewardUntilEpoch",
      "outputs": [],
      "stateMutability": "nonpayable",
      "type": "function"
    },
    {
      "inputs": [
        {
          "internalType": "uint256[]",
          "name": "stakeIds",
          "type": "uint256[]"
        }
      ],
      "name": "claimStakesReward",
      "outputs": [],
      "stateMutability": "nonpayable",
      "type": "function"
    },
    {
      "inputs": [
        {
          "internalType": "uint256[]",
          "name": "stakeIds",
          "type": "uint256[]"
        }
      ],
      "name": "closeStakes",
      "outputs": [],
      "stateMutability": "nonpayable",
      "type": "function"
    },
    {
      "inputs": [
        {
          "internalType": "uint256",
          "name": "dlpId",
          "type": "uint256"
        }
      ],
      "name": "createStake",
      "outputs": [],
      "stateMutability": "payable",
      "type": "function"
    },
    {
      "inputs": [
        {
          "internalType": "uint256",
          "name": "dlpId",
          "type": "uint256"
        },
        {
          "internalType": "address",
          "name": "stakeOwner",
          "type": "address"
        }
      ],
      "name": "createStakeOnBehalf",
      "outputs": [],
      "stateMutability": "payable",
      "type": "function"
    },
    {
      "inputs": [],
      "name": "dlpRootCore",
      "outputs": [
        {
          "internalType": "contract IDLPRootCore",
          "name": "",
          "type": "address"
        }
      ],
      "stateMutability": "view",
      "type": "function"
    },
    {
      "inputs": [],
      "name": "dlpRootEpoch",
      "outputs": [
        {
          "internalType": "contract IDLPRootEpoch",
          "name": "",
          "type": "address"
        }
      ],
      "stateMutability": "view",
      "type": "function"
    },
    {
      "inputs": [],
      "name": "dlpRootMetrics",
      "outputs": [
        {
          "internalType": "contract IDLPRootMetrics",
          "name": "",
          "type": "address"
        }
      ],
      "stateMutability": "view",
      "type": "function"
    },
    {
      "inputs": [],
      "name": "dlpRootRewardsTreasury",
      "outputs": [
        {
          "internalType": "contract IDLPRootTreasury",
          "name": "",
          "type": "address"
        }
      ],
      "stateMutability": "view",
      "type": "function"
    },
    {
      "inputs": [],
      "name": "dlpRootStakesTreasury",
      "outputs": [
        {
          "internalType": "contract IDLPRootTreasury",
          "name": "",
          "type": "address"
        }
      ],
      "stateMutability": "view",
      "type": "function"
    },
    {
      "inputs": [
        {
          "internalType": "bytes32",
          "name": "role",
          "type": "bytes32"
        }
      ],
      "name": "getRoleAdmin",
      "outputs": [
        {
          "internalType": "bytes32",
          "name": "",
          "type": "bytes32"
        }
      ],
      "stateMutability": "view",
      "type": "function"
    },
    {
      "inputs": [
        {
          "internalType": "bytes32",
          "name": "role",
          "type": "bytes32"
        },
        {
          "internalType": "address",
          "name": "account",
          "type": "address"
        }
      ],
      "name": "grantRole",
      "outputs": [],
      "stateMutability": "nonpayable",
      "type": "function"
    },
    {
      "inputs": [
        {
          "internalType": "bytes32",
          "name": "role",
          "type": "bytes32"
        },
        {
          "internalType": "address",
          "name": "account",
          "type": "address"
        }
      ],
      "name": "hasRole",
      "outputs": [
        {
          "internalType": "bool",
          "name": "",
          "type": "bool"
        }
      ],
      "stateMutability": "view",
      "type": "function"
    },
    {
      "inputs": [
        {
          "internalType": "address",
          "name": "ownerAddress",
          "type": "address"
        }
      ],
      "name": "initialize",
      "outputs": [],
      "stateMutability": "nonpayable",
      "type": "function"
    },
    {
      "inputs": [
        {
          "internalType": "address",
          "name": "forwarder",
          "type": "address"
        }
      ],
      "name": "isTrustedForwarder",
      "outputs": [
        {
          "internalType": "bool",
          "name": "",
          "type": "bool"
        }
      ],
      "stateMutability": "view",
      "type": "function"
    },
    {
      "inputs": [
        {
          "internalType": "uint256",
          "name": "stakeId",
          "type": "uint256"
        },
        {
          "internalType": "uint256",
          "name": "newDlpId",
          "type": "uint256"
        },
        {
          "internalType": "uint256",
          "name": "newAmount",
          "type": "uint256"
        }
      ],
      "name": "migrateStake",
      "outputs": [],
      "stateMutability": "nonpayable",
      "type": "function"
    },
    {
      "inputs": [],
      "name": "minStakeAmount",
      "outputs": [
        {
          "internalType": "uint256",
          "name": "",
          "type": "uint256"
        }
      ],
      "stateMutability": "view",
      "type": "function"
    },
    {
      "inputs": [],
      "name": "pause",
      "outputs": [],
      "stateMutability": "nonpayable",
      "type": "function"
    },
    {
      "inputs": [],
      "name": "paused",
      "outputs": [
        {
          "internalType": "bool",
          "name": "",
          "type": "bool"
        }
      ],
      "stateMutability": "view",
      "type": "function"
    },
    {
      "inputs": [],
      "name": "proxiableUUID",
      "outputs": [
        {
          "internalType": "bytes32",
          "name": "",
          "type": "bytes32"
        }
      ],
      "stateMutability": "view",
      "type": "function"
    },
    {
      "inputs": [
        {
          "internalType": "bytes32",
          "name": "role",
          "type": "bytes32"
        },
        {
          "internalType": "address",
          "name": "callerConfirmation",
          "type": "address"
        }
      ],
      "name": "renounceRole",
      "outputs": [],
      "stateMutability": "nonpayable",
      "type": "function"
    },
    {
      "inputs": [
        {
          "internalType": "bytes32",
          "name": "role",
          "type": "bytes32"
        },
        {
          "internalType": "address",
          "name": "account",
          "type": "address"
        }
      ],
      "name": "revokeRole",
      "outputs": [],
      "stateMutability": "nonpayable",
      "type": "function"
    },
    {
      "inputs": [],
      "name": "rewardClaimDelay",
      "outputs": [
        {
          "internalType": "uint256",
          "name": "",
          "type": "uint256"
        }
      ],
      "stateMutability": "view",
      "type": "function"
    },
    {
      "inputs": [
        {
          "internalType": "uint256",
          "name": "stakeId",
          "type": "uint256"
        },
        {
          "internalType": "uint256",
          "name": "epochId",
          "type": "uint256"
        }
      ],
      "name": "stakeClaimedAmounts",
      "outputs": [
        {
          "internalType": "uint256",
          "name": "",
          "type": "uint256"
        }
      ],
      "stateMutability": "view",
      "type": "function"
    },
    {
      "inputs": [
        {
          "internalType": "uint256",
          "name": "stakeId",
          "type": "uint256"
        },
        {
          "internalType": "uint256",
          "name": "epochId",
          "type": "uint256"
        }
      ],
      "name": "stakeEpochReward",
      "outputs": [
        {
          "internalType": "uint256",
          "name": "",
          "type": "uint256"
        }
      ],
      "stateMutability": "view",
      "type": "function"
    },
    {
      "inputs": [],
      "name": "stakeWithdrawalDelay",
      "outputs": [
        {
          "internalType": "uint256",
          "name": "",
          "type": "uint256"
        }
      ],
      "stateMutability": "view",
      "type": "function"
    },
    {
      "inputs": [
        {
          "internalType": "address",
          "name": "stakerAddress",
          "type": "address"
        },
        {
          "internalType": "uint256",
          "name": "dlpId",
          "type": "uint256"
        }
      ],
      "name": "stakerDlpStakeAmount",
      "outputs": [
        {
          "internalType": "uint256",
          "name": "",
          "type": "uint256"
        }
      ],
      "stateMutability": "view",
      "type": "function"
    },
    {
      "inputs": [
        {
          "internalType": "address",
          "name": "staker",
          "type": "address"
        },
        {
          "internalType": "uint256",
          "name": "index",
          "type": "uint256"
        }
      ],
      "name": "stakerDlpsListAt",
      "outputs": [
        {
          "internalType": "uint256",
          "name": "",
          "type": "uint256"
        }
      ],
      "stateMutability": "view",
      "type": "function"
    },
    {
      "inputs": [
        {
          "internalType": "address",
          "name": "staker",
          "type": "address"
        }
      ],
      "name": "stakerDlpsListCount",
      "outputs": [
        {
          "internalType": "uint256",
          "name": "",
          "type": "uint256"
        }
      ],
      "stateMutability": "view",
      "type": "function"
    },
    {
      "inputs": [
        {
          "internalType": "address",
          "name": "staker",
          "type": "address"
        }
      ],
      "name": "stakerDlpsListValues",
      "outputs": [
        {
          "internalType": "uint256[]",
          "name": "",
          "type": "uint256[]"
        }
      ],
      "stateMutability": "view",
      "type": "function"
    },
    {
      "inputs": [
        {
          "internalType": "address",
          "name": "stakerAddress",
          "type": "address"
        },
        {
          "internalType": "uint256",
          "name": "index",
          "type": "uint256"
        }
      ],
      "name": "stakerStakesListAt",
      "outputs": [
        {
          "internalType": "uint256",
          "name": "",
          "type": "uint256"
        }
      ],
      "stateMutability": "view",
      "type": "function"
    },
    {
      "inputs": [
        {
          "internalType": "address",
          "name": "stakerAddress",
          "type": "address"
        }
      ],
      "name": "stakerStakesListCount",
      "outputs": [
        {
          "internalType": "uint256",
          "name": "",
          "type": "uint256"
        }
      ],
      "stateMutability": "view",
      "type": "function"
    },
    {
      "inputs": [
        {
          "internalType": "address",
          "name": "stakerAddress",
          "type": "address"
        }
      ],
      "name": "stakerStakesListValues",
      "outputs": [
        {
          "internalType": "uint256[]",
          "name": "",
          "type": "uint256[]"
        }
      ],
      "stateMutability": "view",
      "type": "function"
    },
    {
      "inputs": [
        {
          "internalType": "address",
          "name": "stakerAddress",
          "type": "address"
        }
      ],
      "name": "stakerTotalStakeAmount",
      "outputs": [
        {
          "internalType": "uint256",
          "name": "",
          "type": "uint256"
        }
      ],
      "stateMutability": "view",
      "type": "function"
    },
    {
      "inputs": [
        {
          "internalType": "uint256",
          "name": "index",
          "type": "uint256"
        }
      ],
      "name": "stakersListAt",
      "outputs": [
        {
          "internalType": "address",
          "name": "",
          "type": "address"
        }
      ],
      "stateMutability": "view",
      "type": "function"
    },
    {
      "inputs": [],
      "name": "stakersListCount",
      "outputs": [
        {
          "internalType": "uint256",
          "name": "",
          "type": "uint256"
        }
      ],
      "stateMutability": "view",
      "type": "function"
    },
    {
      "inputs": [
        {
          "internalType": "uint256",
          "name": "stakeId",
          "type": "uint256"
        }
      ],
      "name": "stakes",
      "outputs": [
        {
          "components": [
            {
              "internalType": "uint256",
              "name": "id",
              "type": "uint256"
            },
            {
              "internalType": "address",
              "name": "stakerAddress",
              "type": "address"
            },
            {
              "internalType": "uint256",
              "name": "dlpId",
              "type": "uint256"
            },
            {
              "internalType": "uint256",
              "name": "amount",
              "type": "uint256"
            },
            {
              "internalType": "uint256",
              "name": "startBlock",
              "type": "uint256"
            },
            {
              "internalType": "uint256",
              "name": "endBlock",
              "type": "uint256"
            },
            {
              "internalType": "bool",
              "name": "withdrawn",
              "type": "bool"
            },
            {
              "internalType": "uint256",
              "name": "lastClaimedEpochId",
              "type": "uint256"
            }
          ],
          "internalType": "struct IDLPRoot.StakeInfo",
          "name": "",
          "type": "tuple"
        }
      ],
      "stateMutability": "view",
      "type": "function"
    },
    {
      "inputs": [],
      "name": "stakesCount",
      "outputs": [
        {
          "internalType": "uint256",
          "name": "",
          "type": "uint256"
        }
      ],
      "stateMutability": "view",
      "type": "function"
    },
    {
      "inputs": [
        {
          "internalType": "bytes4",
          "name": "interfaceId",
          "type": "bytes4"
        }
      ],
      "name": "supportsInterface",
      "outputs": [
        {
          "internalType": "bool",
          "name": "",
          "type": "bool"
        }
      ],
      "stateMutability": "view",
      "type": "function"
    },
    {
      "inputs": [],
      "name": "trustedForwarder",
      "outputs": [
        {
          "internalType": "address",
          "name": "",
          "type": "address"
        }
      ],
      "stateMutability": "view",
      "type": "function"
    },
    {
      "inputs": [],
      "name": "unpause",
      "outputs": [],
      "stateMutability": "nonpayable",
      "type": "function"
    },
    {
      "inputs": [
        {
          "internalType": "address",
          "name": "newDlpRootCoreAddress",
          "type": "address"
        }
      ],
      "name": "updateDlpRootCore",
      "outputs": [],
      "stateMutability": "nonpayable",
      "type": "function"
    },
    {
      "inputs": [
        {
          "internalType": "address",
          "name": "newDlpRootEpochAddress",
          "type": "address"
        }
      ],
      "name": "updateDlpRootEpoch",
      "outputs": [],
      "stateMutability": "nonpayable",
      "type": "function"
    },
    {
      "inputs": [
        {
          "internalType": "address",
          "name": "newDlpRootMetricsAddress",
          "type": "address"
        }
      ],
      "name": "updateDlpRootMetrics",
      "outputs": [],
      "stateMutability": "nonpayable",
      "type": "function"
    },
    {
      "inputs": [
        {
          "internalType": "address",
          "name": "newDlpRootRewardsTreasuryAddress",
          "type": "address"
        }
      ],
      "name": "updateDlpRootRewardsTreasury",
      "outputs": [],
      "stateMutability": "nonpayable",
      "type": "function"
    },
    {
      "inputs": [
        {
          "internalType": "address",
          "name": "newDlpRootStakesTreasuryAddress",
          "type": "address"
        }
      ],
      "name": "updateDlpRootStakesTreasury",
      "outputs": [],
      "stateMutability": "nonpayable",
      "type": "function"
    },
    {
      "inputs": [
        {
          "internalType": "uint256",
          "name": "newMinStakeAmount",
          "type": "uint256"
        }
      ],
      "name": "updateMinStakeAmount",
      "outputs": [],
      "stateMutability": "nonpayable",
      "type": "function"
    },
    {
      "inputs": [
        {
          "internalType": "uint256",
          "name": "newRewardClaimDelay",
          "type": "uint256"
        }
      ],
      "name": "updateRewardClaimDelay",
      "outputs": [],
      "stateMutability": "nonpayable",
      "type": "function"
    },
    {
      "inputs": [
        {
          "internalType": "uint256",
          "name": "newStakeWithdrawalDelay",
          "type": "uint256"
        }
      ],
      "name": "updateStakeWithdrawalDelay",
      "outputs": [],
      "stateMutability": "nonpayable",
      "type": "function"
    },
    {
      "inputs": [
        {
          "internalType": "address",
          "name": "trustedForwarderAddress",
          "type": "address"
        }
      ],
      "name": "updateTrustedForwarder",
      "outputs": [],
      "stateMutability": "nonpayable",
      "type": "function"
    },
    {
      "inputs": [
        {
          "internalType": "address",
          "name": "newImplementation",
          "type": "address"
        },
        {
          "internalType": "bytes",
          "name": "data",
          "type": "bytes"
        }
      ],
      "name": "upgradeToAndCall",
      "outputs": [],
      "stateMutability": "payable",
      "type": "function"
    },
    {
      "inputs": [],
      "name": "version",
      "outputs": [
        {
          "internalType": "uint256",
          "name": "",
          "type": "uint256"
        }
      ],
      "stateMutability": "pure",
      "type": "function"
    },
    {
      "inputs": [
        {
          "internalType": "uint256[]",
          "name": "stakeIds",
          "type": "uint256[]"
        }
      ],
      "name": "withdrawStakes",
      "outputs": [],
      "stateMutability": "nonpayable",
      "type": "function"
    }
  ],
  "transactionHash": "0x8d3042067e5058139bfcb3e37ea304193a94fe5b04a9e5f350980887411b1f82",
  "args": [],
  "numDeployments": 1,
  "solcInputHash": "1cde907bd08325dd106fa96f593bbeb8",
  "bytecode": "0x60c0604052306080523480156200001557600080fd5b50600060a052620000256200002b565b620000df565b7ff0c57e16840df040f15088dc2f81fe391c3923bec73e23a9662efc9c229c6a00805468010000000000000000900460ff16156200007c5760405163f92ee8a960e01b815260040160405180910390fd5b80546001600160401b0390811614620000dc5780546001600160401b0319166001600160401b0390811782556040519081527fc7f505b2f371ae2175ee4913f4499e1f2633a7b5936321eed1cdaeb6115181d29060200160405180910390a15b50565b60805160a051613f396200011060003960005050600081816129020152818161292b0152612a6f0152613f396000f3fe6080604052600436106102bd5760003560e01c806301e22a69146102c257806301ffc9a7146102e45780630fc779ae14610319578063151db1b91461033c5780631bb2f452146103515780631bf6ddae1461037e5780631e6760d31461039157806320930fa4146103b1578063248a9ca3146103d157806324918d79146103f15780632f2ff15d1461041157806336568abe146104315780633f4ba83a1461045157806346582583146104665780634c85c8d91461047b5780634f1ef2861461049b5780635266aa90146104ae57806352d1902d146104e25780635410812b146104f757806354fd4d501461052b5780635690473e1461053f578063572b6c05146105865780635c975abb146105a65780635f5e4de7146105bb578063633e7e54146105db57806364aad423146105fb578063659ea4851461061b5780637217d22d1461063b5780637997d1b6146106685780637d40712c146106885780637da0a877146106c45780637eb9b0c3146106d9578063803d41d9146106f95780638456cb59146107325780638c31cd3e1461074757806391d148541461076757806392b95db91461078757806397f2746c146107a75780639889a303146107c7578063a217fddf146107e7578063ad3cb1cc146107fc578063c4d66de81461083a578063d4e90b971461085a578063d547741f1461086d578063d5a44f861461088d578063d8060cd514610914578063db589c5b14610934578063dd8c017c14610954578063e1d648d114610974578063e5331f1714610994578063e6fe27c4146109aa578063e7ebaa6f146109ca578063e8371545146109ea578063e983d10f14610a0a578063e98fa42b14610a2a578063ec5903f414610a4a578063ec87621c14610a5f578063ed2def1e14610a93578063f188768414610ab3578063f874225414610ac9578063f90b031114610aeb578063f9823b1314610b0b575b600080fd5b3480156102ce57600080fd5b506102e26102dd366004613604565b610b2b565b005b3480156102f057600080fd5b506103046102ff366004613621565b610b66565b60405190151581526020015b60405180910390f35b34801561032557600080fd5b5061032e610b9d565b604051908152602001610310565b34801561034857600080fd5b5061032e610bae565b34801561035d57600080fd5b50601e54610371906001600160a01b031681565b604051610310919061364b565b6102e261038c36600461365f565b610bc8565b34801561039d57600080fd5b506102e26103ac366004613678565b610c53565b3480156103bd57600080fd5b50601f54610371906001600160a01b031681565b3480156103dd57600080fd5b5061032e6103ec36600461365f565b610d7a565b3480156103fd57600080fd5b506102e261040c36600461374e565b610d9a565b34801561041d57600080fd5b506102e261042c3660046137d8565b610e4e565b34801561043d57600080fd5b506102e261044c3660046137d8565b610e70565b34801561045d57600080fd5b506102e2610eb8565b34801561047257600080fd5b5061032e610ed8565b34801561048757600080fd5b5061032e610496366004613808565b610ee4565b6102e26104a936600461385b565b61112e565b3480156104ba57600080fd5b5061032e7fdd3964e50534514b3adc5c2d0d2c4a8426863ff4376360d48539e1f11b5b822f81565b3480156104ee57600080fd5b5061032e611149565b34801561050357600080fd5b5061032e7fef64170e949ac6b5e7fa999451ba2ecc39a26e05ca66a932d780aecfcb055a3181565b34801561053757600080fd5b50600461032e565b34801561054b57600080fd5b5061032e61055a3660046138e8565b6001600160a01b0391909116600090815260166020908152604080832093835260029093019052205490565b34801561059257600080fd5b506103046105a1366004613604565b611166565b3480156105b257600080fd5b5061030461118b565b3480156105c757600080fd5b506103716105d636600461365f565b6111a0565b3480156105e757600080fd5b5061032e6105f63660046138e8565b6111ad565b34801561060757600080fd5b5061032e6106163660046138e8565b6111cf565b34801561062757600080fd5b506102e2610636366004613604565b6111f4565b34801561064757600080fd5b5061065b610656366004613604565b61122f565b6040516103109190613914565b34801561067457600080fd5b50601d54610371906001600160a01b031681565b34801561069457600080fd5b5061032e6106a3366004613678565b60009182526018602090815260408084209284526007909201905290205490565b3480156106d057600080fd5b50610371611253565b3480156106e557600080fd5b506102e26106f4366004613604565b611262565b34801561070557600080fd5b5061032e610714366004613604565b6001600160a01b031660009081526016602052604090206005015490565b34801561073e57600080fd5b506102e2611290565b34801561075357600080fd5b5061032e61076236600461365f565b6112b0565b34801561077357600080fd5b506103046107823660046137d8565b611340565b34801561079357600080fd5b5061065b6107a2366004613604565b611376565b3480156107b357600080fd5b50601b54610371906001600160a01b031681565b3480156107d357600080fd5b50601c54610371906001600160a01b031681565b3480156107f357600080fd5b5061032e600081565b34801561080857600080fd5b5061082d604051806040016040528060058152602001640352e302e360dc1b81525081565b604051610310919061397c565b34801561084657600080fd5b506102e2610855366004613604565b61139d565b6102e26108683660046137d8565b6114b9565b34801561087957600080fd5b506102e26108883660046137d8565b61153a565b34801561089957600080fd5b506108ad6108a836600461365f565b611556565b6040516103109190815181526020808301516001600160a01b03169082015260408083015190820152606080830151908201526080808301519082015260a0808301519082015260c08083015115159082015260e091820151918101919091526101000190565b34801561092057600080fd5b506102e261092f36600461365f565b61161f565b34801561094057600080fd5b506102e261094f366004613604565b61170b565b34801561096057600080fd5b506102e261096f36600461374e565b611746565b34801561098057600080fd5b506102e261098f36600461374e565b61186c565b3480156109a057600080fd5b5061032e60175481565b3480156109b657600080fd5b506102e26109c536600461365f565b611917565b3480156109d657600080fd5b5061032e6109e5366004613604565b61196c565b3480156109f657600080fd5b5061032e610a05366004613604565b61198d565b348015610a1657600080fd5b506102e2610a25366004613808565b6119b1565b348015610a3657600080fd5b506102e2610a4536600461365f565b611af5565b348015610a5657600080fd5b5061032e600381565b348015610a6b57600080fd5b5061032e7f241ecf16d79d0f8dbfb92cbc07fe17840425976cf0667f022fe9877caa831b0881565b348015610a9f57600080fd5b5061032e610aae366004613678565b611b4a565b348015610abf57600080fd5b5061032e60035481565b348015610ad557600080fd5b5061032e600080516020613ee483398151915281565b348015610af757600080fd5b506102e2610b06366004613604565b611ce4565b348015610b1757600080fd5b506102e2610b26366004613604565b611d1f565b600080516020613ee4833981519152610b4381611d4d565b50601e80546001600160a01b0319166001600160a01b0392909216919091179055565b60006001600160e01b03198216637965db0b60e01b1480610b9757506301ffc9a760e01b6001600160e01b03198316145b92915050565b6000610ba96014611d57565b905090565b6000610bba6008611d61565b6001600160d01b0316905090565b610bd0611da8565b610bd8611dde565b601f54604051631d5d65d960e31b81524360048201526001600160a01b039091169063eaeb2ec890602401600060405180830381600087803b158015610c1d57600080fd5b505af1158015610c31573d6000803e3d6000fd5b50505050610c48610c40611e06565b823443611e10565b610c50612337565b50565b610c5b611da8565b610c63611dde565b601f54604051631d5d65d960e31b81524360048201526001600160a01b039091169063eaeb2ec890602401600060405180830381600087803b158015610ca857600080fd5b505af1158015610cbc573d6000803e3d6000fd5b505050506000601f60009054906101000a90046001600160a01b03166001600160a01b031663916e1c576040518163ffffffff1660e01b8152600401602060405180830381865afa158015610d15573d6000803e3d6000fd5b505050506040513d601f19601f82011682018060405250810190610d3991906139af565b90506000610d486001836139de565b8310610d5e57610d596001836139de565b610d60565b825b9050610d6c8482612348565b5050610d76612337565b5050565b600080610d85612428565b60009384526020525050604090206001015490565b610da2611da8565b610daa611dde565b601f54604051631d5d65d960e31b81524360048201526001600160a01b039091169063eaeb2ec890602401600060405180830381600087803b158015610def57600080fd5b505af1158015610e03573d6000803e3d6000fd5b5050505060005b8151811015610e4557610e3d610e1e611e06565b838381518110610e3057610e306139f1565b602002602001015161244c565b600101610e0a565b50610c50612337565b610e5782610d7a565b610e6081611d4d565b610e6a8383612762565b50505050565b610e78611e06565b6001600160a01b0316816001600160a01b031614610ea95760405163334bd91960e11b815260040160405180910390fd5b610eb38282612804565b505050565b600080516020613ee4833981519152610ed081611d4d565b610c5061289a565b6000610bba6009611d61565b600080601f60009054906101000a90046001600160a01b03166001600160a01b031663d7033ca06040518163ffffffff1660e01b8152600401602060405180830381865afa158015610f3a573d6000803e3d6000fd5b505050506040513d601f19601f82011682018060405250810190610f5e91906139af565b9050600081610f6d86866139de565b610f779190613a07565b601f549091506001600160a01b031663c6b61e4c610f97600160036139de565b6040518263ffffffff1660e01b8152600401610fb591815260200190565b600060405180830381865afa158015610fd2573d6000803e3d6000fd5b505050506040513d6000823e601f3d908101601f19168201604052610ffa9190810190613a3e565b60200151851161109f57600182601f60009054906101000a90046001600160a01b03166001600160a01b031663572d356e6040518163ffffffff1660e01b8152600401602060405180830381865afa15801561105a573d6000803e3d6000fd5b505050506040513d601f19601f8201168201806040525081019061107e91906139af565b6110889190613a07565b61109291906139de565b61109c9082613b2f565b90505b601b5460405163adf8252d60e01b815260048101839052612710916001600160a01b03169063adf8252d90602401602060405180830381865afa1580156110ea573d6000803e3d6000fd5b505050506040513d601f19601f8201168201806040525081019061110e91906139af565b6111189088613b42565b6111229190613a07565b925050505b9392505050565b6111366128f7565b61113f8261299c565b610d7682826129a7565b6000611153612a64565b50600080516020613ec483398151915290565b6000611170611253565b6001600160a01b0316826001600160a01b0316149050919050565b600080611196612aad565b5460ff1692915050565b6000610b97601483612ad1565b6001600160a01b03821660009081526016602052604081206111279083612ad1565b6001600160a01b03821660009081526016602052604081206111279060030183612ad1565b600080516020613ee483398151915261120c81611d4d565b50601b80546001600160a01b0319166001600160a01b0392909216919091179055565b6001600160a01b0381166000908152601660205260409020606090610b9790612add565b6000546001600160a01b031690565b600061126d81611d4d565b50601d80546001600160a01b0319166001600160a01b0392909216919091179055565b600080516020613ee48339815191526112a881611d4d565b610c50612aea565b6000610b97826001601f60009054906101000a90046001600160a01b03166001600160a01b031663916e1c576040518163ffffffff1660e01b8152600401602060405180830381865afa15801561130b573d6000803e3d6000fd5b505050506040513d601f19601f8201168201806040525081019061132f91906139af565b61133991906139de565b6000612b32565b60008061134b612428565b6000948552602090815260408086206001600160a01b03959095168652939052505090205460ff1690565b6001600160a01b0381166000908152601660205260409020606090610b9790600301612add565b60006113a7612b8f565b805490915060ff600160401b82041615906001600160401b03166000811580156113ce5750825b90506000826001600160401b031660011480156113ea5750303b155b9050811580156113f8575080155b156114165760405163f92ee8a960e01b815260040160405180910390fd5b84546001600160401b0319166001178555831561143f57845460ff60401b1916600160401b1785555b611447612bb3565b61144f612bb3565b611457612bbb565b61145f612bcb565b61146a600087612762565b5083156114b157845460ff60401b19168555604051600181527fc7f505b2f371ae2175ee4913f4499e1f2633a7b5936321eed1cdaeb6115181d29060200160405180910390a15b505050505050565b6114c1611da8565b6114c9611dde565b601f54604051631d5d65d960e31b81524360048201526001600160a01b039091169063eaeb2ec890602401600060405180830381600087803b15801561150e57600080fd5b505af1158015611522573d6000803e3d6000fd5b5050505061153281833443611e10565b610d76612337565b61154382610d7a565b61154c81611d4d565b610e6a8383612804565b6115a96040518061010001604052806000815260200160006001600160a01b0316815260200160008152602001600081526020016000815260200160008152602001600015158152602001600081525090565b5060008181526018602090815260409182902082516101008101845293845280546001600160a01b0316918401919091526001810154918301919091526002810154606083015260038101546080830152600481015460a0830152600581015460ff16151560c08301526006015460e082015290565b600080516020613ee483398151915261163781611d4d565b601e60009054906101000a90046001600160a01b03166001600160a01b0316638e991ff36040518163ffffffff1660e01b8152600401602060405180830381865afa15801561168a573d6000803e3d6000fd5b505050506040513d601f19601f820116820180604052508101906116ae91906139af565b8211156116ce57604051633494a40d60e21b815260040160405180910390fd5b60038290556040518281527f8448c02797b448f4946bc25b3bf925e5556d1df822c944da701c54bab8a3162f906020015b60405180910390a15050565b600080516020613ee483398151915261172381611d4d565b50601f80546001600160a01b0319166001600160a01b0392909216919091179055565b61174e611da8565b611756611dde565b601f54604051631d5d65d960e31b81524360048201526001600160a01b039091169063eaeb2ec890602401600060405180830381600087803b15801561179b57600080fd5b505af11580156117af573d6000803e3d6000fd5b5050505060005b8151811015610e45576118648282815181106117d4576117d46139f1565b60200260200101516001601f60009054906101000a90046001600160a01b03166001600160a01b031663916e1c576040518163ffffffff1660e01b8152600401602060405180830381865afa158015611831573d6000803e3d6000fd5b505050506040513d601f19601f8201168201806040525081019061185591906139af565b61185f91906139de565b612348565b6001016117b6565b611874611da8565b61187c611dde565b601f54604051631d5d65d960e31b81524360048201526001600160a01b039091169063eaeb2ec890602401600060405180830381600087803b1580156118c157600080fd5b505af11580156118d5573d6000803e3d6000fd5b5050505060005b8151811015610e455761190f6118f0611e06565b838381518110611902576119026139f1565b6020026020010151612bdb565b6001016118dc565b600080516020613ee483398151915261192f81611d4d565b61193a600883612ca1565b50506040518281527f5f77bf3bb8edc470b5034e85a2d7123e6578eec3b9705c24d40d2e984d4f2a76906020016116ff565b6001600160a01b0381166000908152601660205260408120610b9790611d57565b6001600160a01b0381166000908152601660205260408120610b9790600301611d57565b6119b9611da8565b6119c1611dde565b601f54604051631d5d65d960e31b81524360048201526001600160a01b039091169063eaeb2ec890602401600060405180830381600087803b158015611a0657600080fd5b505af1158015611a1a573d6000803e3d6000fd5b505050600084815260186020526040902060018101549091508314611a52576040516306358e4f60e11b815260040160405180910390fd5b8060020154821115611a7757604051630103be3b60e21b815260040160405180910390fd5b611a88611a82611e06565b8561244c565b60088101829055611aa6611a9a611e06565b84848460030154611e10565b601754604080518681526020810192909252810183905283907f9069e5544eaaa148dab0db1c7f05414c778f0c318a55847bb555ed7a689ee78a9060600160405180910390a250610eb3612337565b600080516020613ee4833981519152611b0d81611d4d565b611b18600983612ca1565b50506040518281527f4a675b4074075265c6da90abb559f75ec801d6e403d0dd6dde4bb38631929ede906020016116ff565b600082815260186020526040808220601f5491516331ad879360e21b815260048101859052909183916001600160a01b039091169063c6b61e4c90602401600060405180830381865afa158015611ba5573d6000803e3d6000fd5b505050506040513d6000823e601f3d908101601f19168201604052611bcd9190810190613a3e565b601f5460018401546040516359d3dced60e11b81529293506000926001600160a01b039092169163b3a7b9da91611c0991899190600401613b59565b60e060405180830381865afa158015611c26573d6000803e3d6000fd5b505050506040513d601f19601f82011682018060405250810190611c4a9190613b67565b9050841580611c5b57506080810151155b80611c6d575081602001518360030154115b80611c8e575060008360040154118015611c8e575082600401548260200151115b15611c9f5760009350505050610b97565b6000611cb8846002015485600301548560200151610ee4565b90508160800151818360c00151611ccf9190613b42565b611cd99190613a07565b979650505050505050565b600080516020613ee4833981519152611cfc81611d4d565b50600080546001600160a01b0319166001600160a01b0392909216919091179055565b6000611d2a81611d4d565b50601c80546001600160a01b0319166001600160a01b0392909216919091179055565b610c508133612cba565b6000610b97825490565b80546000908015611d9f57611d8983611d7b6001846139de565b600091825260209091200190565b54600160301b90046001600160d01b0316611127565b60009392505050565b6000611db2612ce5565b805490915060011901611dd857604051633ee5aeb560e01b815260040160405180910390fd5b60029055565b611de661118b565b15611e045760405163d93c066560e01b815260040160405180910390fd5b565b6000610ba9612d09565b6001600160a01b038416611e375760405163e6c4247b60e01b815260040160405180910390fd5b600354821015611e5a57604051630103be3b60e21b815260040160405180910390fd5b601e5460405163ea83e47b60e01b8152600481018590526000916001600160a01b03169063ea83e47b90602401600060405180830381865afa158015611ea4573d6000803e3d6000fd5b505050506040513d6000823e601f3d908101601f19168201604052611ecc9190810190613c5d565b905060008161014001516004811115611ee757611ee7613dcd565b1480611f09575060048161014001516004811115611f0757611f07613dcd565b145b15611f2757604051636e1ed6c560e11b815260040160405180910390fd5b601f546040805163916e1c5760e01b815290516000926001600160a01b03169163916e1c579160048083019260209291908290030181865afa158015611f71573d6000803e3d6000fd5b505050506040513d601f19601f82011682018060405250810190611f9591906139af565b9050600060186000601760008154611fac90613de3565b918290555081526020810191909152604001600020600281018690556003810185905580546001600160a01b0319166001600160a01b0389161781556001808201889055909150821161200057600061200b565b61200b6001836139de565b60068201556001600160a01b03871660009081526016602052604090206120328188612d5b565b50600087815260028201602052604081208054889290612053908490613b2f565b9091555050601754612069906003830190612d5b565b508581600501600082825461207e9190613b2f565b9091555061208f9050601489612d67565b50601f546040516331ad879360e21b8152600481018590526000916001600160a01b03169063c6b61e4c90602401600060405180830381865afa1580156120da573d6000803e3d6000fd5b505050506040513d6000823e601f3d908101601f191682016040526121029190810190613a3e565b80519091508610801590612117575060038410155b1561220d57601b54601f546040516331ad879360e21b8152600481018790526001600160a01b039283169263610b70109288928d926121af928e928e929091169063c6b61e4c90602401600060405180830381865afa15801561217e573d6000803e3d6000fd5b505050506040513d6000823e601f3d908101601f191682016040526121a69190810190613a3e565b60200151610ee4565b6121b9908c6139de565b60016040518563ffffffff1660e01b81526004016121da9493929190613dfc565b600060405180830381600087803b1580156121f457600080fd5b505af1158015612208573d6000803e3d6000fd5b505050505b601d546040516000916001600160a01b03169034908381818185875af1925050503d806000811461225a576040519150601f19603f3d011682016040523d82523d6000602084013e61225f565b606091505b5050905080612281576040516312171d8360e31b815260040160405180910390fd5b601e546040516302634bcf60e21b81526001600160a01b039091169063098d2f3c906122b3908c908c90600401613b59565b600060405180830381600087803b1580156122cd57600080fd5b505af11580156122e1573d6000803e3d6000fd5b50505050888a6001600160a01b03167ff234bd1a05f5a6f0b6af3f0c8bacad613635f0022e2ec2162717ef21a1591d6a6017548b604051612323929190613b59565b60405180910390a350505050505050505050565b6000612341612ce5565b6001905550565b600061235683836001612b32565b905080600003612379576040516312d37ee560e31b815260040160405180910390fd5b600083815260186020526040808220601c548154925163117511c960e01b81529193926001600160a01b039182169263117511c9926123be9216908790600401613e19565b6020604051808303816000875af11580156123dd573d6000803e3d6000fd5b505050506040513d601f19601f820116820180604052508101906124019190613e32565b905080612421576040516312171d8360e31b815260040160405180910390fd5b5050505050565b7f02dd7bc7dec4dceedda775e58dd541e08a116c6c53815c0bd028192f7b62680090565b600081815260186020526040902080546001600160a01b038481169116146124875760405163335e79fb60e21b815260040160405180910390fd5b6004810154156124aa57604051638ccbf9a560e01b815260040160405180910390fd5b6001600160a01b0383166000908152601660209081526040808320600280860154600187015486529082019093529083208054919390916124ec9084906139de565b9091555050600282015460058201805460009061250a9084906139de565b909155505043600480840191909155601f546040805163916e1c5760e01b815290516000936001600160a01b039093169263916e1c57928082019260209290918290030181865afa158015612563573d6000803e3d6000fd5b505050506040513d601f19601f8201168201806040525081019061258791906139af565b601f546040516331ad879360e21b8152600481018390529192506000916001600160a01b039091169063c6b61e4c90602401600060405180830381865afa1580156125d6573d6000803e3d6000fd5b505050506040513d6000823e601f3d908101601f191682016040526125fe9190810190613a3e565b905060038210158015612615575080516003850154115b156126b357601b5460018501546002860154600387015460208501516001600160a01b039094169363610b7010938793909261265092610ee4565b886002015461265f91906139de565b60006040518563ffffffff1660e01b81526004016126809493929190613dfc565b600060405180830381600087803b15801561269a57600080fd5b505af11580156126ae573d6000803e3d6000fd5b505050505b60405185907fc46bc112bb28b616434d6e89582a82bdc7cf9ef52a0b1228d20f5e5ccca7ec4690600090a2601e54600185015460028601546040516307f4823f60e31b81526001600160a01b0390931692633fa411f892612718929091600401613b59565b600060405180830381600087803b15801561273257600080fd5b505af1158015612746573d6000803e3d6000fd5b50505050612752610bae565b6000036114b1576114b185612d7c565b60008061276d612428565b90506127798484611340565b6127fa576000848152602082815260408083206001600160a01b03871684529091529020805460ff191660011790556127b0611e06565b6001600160a01b0316836001600160a01b0316857f2f8788117e7eff1d82e926ec794901d17c78024a50270940304540a733656f0d60405160405180910390a46001915050610b97565b6000915050610b97565b60008061280f612428565b905061281b8484611340565b156127fa576000848152602082815260408083206001600160a01b03871684529091529020805460ff19169055612850611e06565b6001600160a01b0316836001600160a01b0316857ff6391f5c32d9c69d2a47ea670b442974b53935d1edc7fd64eb21e047a839171b60405160405180910390a46001915050610b97565b6128a2612e78565b60006128ac612aad565b805460ff1916815590507f5db9ee0a495bf2e6ff9c91a7834c1ba4fdd244a5e8aa4e537bd38aeae4b073aa6128df611e06565b6040516128ec919061364b565b60405180910390a150565b306001600160a01b037f000000000000000000000000000000000000000000000000000000000000000016148061297e57507f00000000000000000000000000000000000000000000000000000000000000006001600160a01b0316612972600080516020613ec4833981519152546001600160a01b031690565b6001600160a01b031614155b15611e045760405163703e46dd60e11b815260040160405180910390fd5b6000610d7681611d4d565b816001600160a01b03166352d1902d6040518163ffffffff1660e01b8152600401602060405180830381865afa925050508015612a01575060408051601f3d908101601f191682019092526129fe918101906139af565b60015b612a295781604051634c9c8ce360e01b8152600401612a20919061364b565b60405180910390fd5b600080516020613ec48339815191528114612a5a57604051632a87526960e21b815260048101829052602401612a20565b610eb38383612e9d565b306001600160a01b037f00000000000000000000000000000000000000000000000000000000000000001614611e045760405163703e46dd60e11b815260040160405180910390fd5b7fcd5ed15c6e187e77e9aee88184c21f4f2182ab5827cb3b7e07fbedcd63f0330090565b60006111278383612ef3565b6060600061112783612f1d565b612af2611dde565b6000612afc612aad565b805460ff1916600117815590507f62e78cea01bee320cd4e420270b5ea74000d11b0c9f74754ebdbfc544b05a2586128df611e06565b6000838152601860205260408120600681015482908190612b54906001613b2f565b90505b858111612b8557612b69878287612f79565b612b739083613b2f565b9150612b7e81613de3565b9050612b57565b5095945050505050565b7ff0c57e16840df040f15088dc2f81fe391c3923bec73e23a9662efc9c229c6a0090565b611e0461323a565b612bc361323a565b611e0461325f565b612bd361323a565b611e04613267565b600081815260186020526040902080546001600160a01b03848116911614612c165760405163335e79fb60e21b815260040160405180910390fd5b600581015460ff1615612c3c5760405163190507cd60e21b815260040160405180910390fd5b8060040154600003612c61576040516372728c7960e11b815260040160405180910390fd5b43612c6a610bae565b8260040154612c799190613b2f565b1115612c9857604051630fae9a4560e41b815260040160405180910390fd5b610eb382612d7c565b600080612caf844385613284565b915091509250929050565b612cc48282611340565b610d7657808260405163e2517d3f60e01b8152600401612a20929190613e19565b7f9b779b17422d0df92223018b32b4d1fa46e071723d6817e2486d003becc55f0090565b6000366014612d1733611166565b8015612d235750808210155b15612d5357600036612d3583856139de565b612d40928290613e4d565b612d4991613e77565b60601c9250505090565b339250505090565b6000611127838361329f565b6000611127836001600160a01b03841661329f565b600081815260186020526040812060058101805460ff19166001179055601d548154600883015460028401549394936001600160a01b039384169363117511c9931691612dc8916139de565b6040518363ffffffff1660e01b8152600401612de5929190613e19565b6020604051808303816000875af1158015612e04573d6000803e3d6000fd5b505050506040513d601f19601f82011682018060405250810190612e289190613e32565b905080612e48576040516312171d8360e31b815260040160405180910390fd5b60405183907fa78b9f12a7da0df7ced737c5f83d0c05723bb5f43aab37e233b862710414847290600090a2505050565b612e8061118b565b611e0457604051638dfc202b60e01b815260040160405180910390fd5b612ea6826132ee565b6040516001600160a01b038316907fbc7cd75a20ee27fd9adebab32041f755214dbc6bffa90cc0225b39da2e5c2d3b90600090a2805115612eeb57610eb3828261334a565b610d766133c0565b6000826000018281548110612f0a57612f0a6139f1565b9060005260206000200154905092915050565b606081600001805480602002602001604051908101604052809291908181526020018280548015612f6d57602002820191906000526020600020905b815481526020019060010190808311612f59575b50505050509050919050565b600083815260186020526040812060068101548290612f99906001613b2f565b90506000612fa5610ed8565b601f546040516331ad879360e21b8152600481018990529192506000916001600160a01b039091169063c6b61e4c90602401600060405180830381865afa158015612ff4573d6000803e3d6000fd5b505050506040513d6000823e601f3d908101601f1916820160405261301c9190810190613a3e565b601f5460018601546040516359d3dced60e11b81529293506000926001600160a01b039092169163b3a7b9da91613058918c9190600401613b59565b60e060405180830381865afa158015613075573d6000803e3d6000fd5b505050506040513d601f19601f820116820180604052508101906130999190613b67565b90508715806130aa57506080810151155b806130bc575081602001518560030154115b806130dd5750600085600401541180156130dd575084600401548260200151115b156130f057600095505050505050611127565b6000613109866002015487600301548560200151610ee4565b905060008260800151828460c001516131229190613b42565b61312c9190613a07565b9050600084602001514361314091906139de565b90506001861580159061315257508682105b1561317357866131628385613b42565b61316c9190613a07565b9250600090505b60008c815260078a016020526040902054831161319c5760009950505050505050505050611127565b60008c815260078a0160205260408120546131b790856139de565b90508b156132295760008d815260078b01602052604090819020859055518d908f907f84f18304332c1d0bc90eba2ce6fc3556bcfabe9ccc37f7d9f66225b293f903bf9061321390889087909182521515602082015260400190565b60405180910390a381156132295760068a018990555b9d9c50505050505050505050505050565b6132426133df565b611e0457604051631afcd79f60e31b815260040160405180910390fd5b61233761323a565b61326f61323a565b6000613279612aad565b805460ff1916905550565b6000806132928585856133f9565b915091505b935093915050565b60008181526001830160205260408120546132e657508154600181810184556000848152602080822090930184905584548482528286019093526040902091909155610b97565b506000610b97565b806001600160a01b03163b60000361331b5780604051634c9c8ce360e01b8152600401612a20919061364b565b600080516020613ec483398151915280546001600160a01b0319166001600160a01b0392909216919091179055565b6060600080846001600160a01b0316846040516133679190613ea7565b600060405180830381855af49150503d80600081146133a2576040519150601f19603f3d011682016040523d82523d6000602084013e6133a7565b606091505b50915091506133b7858383613573565b95945050505050565b3415611e045760405163b398979f60e01b815260040160405180910390fd5b60006133e9612b8f565b54600160401b900460ff16919050565b82546000908190801561351857600061341787611d7b6001856139de565b60408051808201909152905465ffffffffffff808216808452600160301b9092046001600160d01b03166020840152919250908716101561346b57604051632520601d60e01b815260040160405180910390fd5b805165ffffffffffff8088169116036134b7578461348e88611d7b6001866139de565b80546001600160d01b0392909216600160301b0265ffffffffffff909216919091179055613508565b6040805180820190915265ffffffffffff80881682526001600160d01b0380881660208085019182528b54600181018d5560008d81529190912094519151909216600160301b029216919091179101555b6020015192508391506132979050565b50506040805180820190915265ffffffffffff80851682526001600160d01b0380851660208085019182528854600181018a5560008a815291822095519251909316600160301b029190931617920191909155905081613297565b60608261358857613583826135c6565b611127565b815115801561359f57506001600160a01b0384163b155b156135bf5783604051639996b31560e01b8152600401612a20919061364b565b5080611127565b8051156135d65780518082602001fd5b604051630a12f52160e11b815260040160405180910390fd5b6001600160a01b0381168114610c5057600080fd5b60006020828403121561361657600080fd5b8135611127816135ef565b60006020828403121561363357600080fd5b81356001600160e01b03198116811461112757600080fd5b6001600160a01b0391909116815260200190565b60006020828403121561367157600080fd5b5035919050565b6000806040838503121561368b57600080fd5b50508035926020909101359150565b634e487b7160e01b600052604160045260246000fd5b60405160a081016001600160401b03811182821017156136d2576136d261369a565b60405290565b6040516101c081016001600160401b03811182821017156136d2576136d261369a565b604051601f8201601f191681016001600160401b03811182821017156137235761372361369a565b604052919050565b60006001600160401b038211156137445761374461369a565b5060051b60200190565b6000602080838503121561376157600080fd5b82356001600160401b0381111561377757600080fd5b8301601f8101851361378857600080fd5b803561379b6137968261372b565b6136fb565b81815260059190911b820183019083810190878311156137ba57600080fd5b928401925b82841015611cd9578335825292840192908401906137bf565b600080604083850312156137eb57600080fd5b8235915060208301356137fd816135ef565b809150509250929050565b60008060006060848603121561381d57600080fd5b505081359360208301359350604090920135919050565b60006001600160401b0382111561384d5761384d61369a565b50601f01601f191660200190565b6000806040838503121561386e57600080fd5b8235613879816135ef565b915060208301356001600160401b0381111561389457600080fd5b8301601f810185136138a557600080fd5b80356138b361379682613834565b8181528660208385010111156138c857600080fd5b816020840160208301376000602083830101528093505050509250929050565b600080604083850312156138fb57600080fd5b8235613906816135ef565b946020939093013593505050565b6020808252825182820181905260009190848201906040850190845b8181101561394c57835183529284019291840191600101613930565b50909695505050505050565b60005b8381101561397357818101518382015260200161395b565b50506000910152565b602081526000825180602084015261399b816040850160208701613958565b601f01601f19169190910160400192915050565b6000602082840312156139c157600080fd5b5051919050565b634e487b7160e01b600052601160045260246000fd5b81810381811115610b9757610b976139c8565b634e487b7160e01b600052603260045260246000fd5b600082613a2457634e487b7160e01b600052601260045260246000fd5b500490565b80518015158114613a3957600080fd5b919050565b60006020808385031215613a5157600080fd5b82516001600160401b0380821115613a6857600080fd5b9084019060a08287031215613a7c57600080fd5b613a846136b0565b82518152838301518482015260408301516040820152613aa660608401613a29565b6060820152608083015182811115613abd57600080fd5b80840193505086601f840112613ad257600080fd5b82519150613ae26137968361372b565b82815260059290921b83018401918481019088841115613b0157600080fd5b938501935b83851015613b1f57845182529385019390850190613b06565b6080830152509695505050505050565b80820180821115610b9757610b976139c8565b8082028115828204841417610b9757610b976139c8565b918252602082015260400190565b600060e08284031215613b7957600080fd5b60405160e081016001600160401b0381118282101715613b9b57613b9b61369a565b60405282518152613bae60208401613a29565b6020820152604083015160408201526060830151606082015260808301516080820152613bdd60a08401613a29565b60a082015260c083015160c08201528091505092915050565b8051613a39816135ef565b600082601f830112613c1257600080fd5b8151613c2061379682613834565b818152846020838601011115613c3557600080fd5b613c46826020830160208701613958565b949350505050565b805160058110613a3957600080fd5b600060208284031215613c6f57600080fd5b81516001600160401b0380821115613c8657600080fd5b908301906101c08286031215613c9b57600080fd5b613ca36136d8565b82518152613cb360208401613bf6565b6020820152613cc460408401613bf6565b6040820152613cd560608401613bf6565b60608201526080830151608082015260a083015160a082015260c083015182811115613d0057600080fd5b613d0c87828601613c01565b60c08301525060e083015182811115613d2457600080fd5b613d3087828601613c01565b60e0830152506101008084015183811115613d4a57600080fd5b613d5688828701613c01565b8284015250506101208084015183811115613d7057600080fd5b613d7c88828701613c01565b8284015250506101409150613d92828401613c4e565b91810191909152610160828101519082015261018080830151908201526101a090613dbe828401613a29565b91810191909152949350505050565b634e487b7160e01b600052602160045260246000fd5b600060018201613df557613df56139c8565b5060010190565b938452602084019290925260408301521515606082015260800190565b6001600160a01b03929092168252602082015260400190565b600060208284031215613e4457600080fd5b61112782613a29565b60008085851115613e5d57600080fd5b83861115613e6a57600080fd5b5050820193919092039150565b6001600160601b03198135818116916014851015613e9f5780818660140360031b1b83161692505b505092915050565b60008251613eb9818460208701613958565b919091019291505056fe360894a13ba1a3210667c828492db98dca3e2076cc3735a920a3ca505d382bbc339759585899103d2ace64958e37e18ccb0504652c81d4a1b8aa80fe2126ab95a2646970667358221220218706ee53893d209d4e67493f6816d636a358e731a09bfe1b1c80bf8086c1df64736f6c63430008180033",
  "devdoc": {
    "errors": {
      "AccessControlBadConfirmation()": [
        {
          "details": "The caller of a function is not the expected one. NOTE: Don't confuse with {AccessControlUnauthorizedAccount}."
        }
      ],
      "AccessControlUnauthorizedAccount(address,bytes32)": [
        {
          "details": "The `account` is missing a role."
        }
      ],
      "AddressEmptyCode(address)": [
        {
          "details": "There's no code at `target` (it is not a contract)."
        }
      ],
      "CheckpointUnorderedInsertion()": [
        {
          "details": "A value was attempted to be inserted on a past checkpoint."
        }
      ],
      "ERC1967InvalidImplementation(address)": [
        {
          "details": "The `implementation` of the proxy is invalid."
        }
      ],
      "ERC1967NonPayable()": [
        {
          "details": "An upgrade function sees `msg.value > 0` that may be lost."
        }
      ],
      "EnforcedPause()": [
        {
          "details": "The operation failed because the contract is paused."
        }
      ],
      "ExpectedPause()": [
        {
          "details": "The operation failed because the contract is not paused."
        }
      ],
      "FailedInnerCall()": [
        {
          "details": "A call to an address target failed. The target may have reverted."
        }
      ],
      "InvalidInitialization()": [
        {
          "details": "The contract is already initialized."
        }
      ],
      "NotInitializing()": [
        {
          "details": "The contract is not initializing."
        }
      ],
      "ReentrancyGuardReentrantCall()": [
        {
          "details": "Unauthorized reentrant call."
        }
      ],
      "UUPSUnauthorizedCallContext()": [
        {
          "details": "The call is from an unauthorized context."
        }
      ],
      "UUPSUnsupportedProxiableUUID(bytes32)": [
        {
          "details": "The storage `slot` is unsupported as a UUID."
        }
      ]
    },
    "events": {
      "Initialized(uint64)": {
        "details": "Triggered when the contract has been initialized or reinitialized."
      },
      "Paused(address)": {
        "details": "Emitted when the pause is triggered by `account`."
      },
      "RoleAdminChanged(bytes32,bytes32,bytes32)": {
        "details": "Emitted when `newAdminRole` is set as ``role``'s admin role, replacing `previousAdminRole` `DEFAULT_ADMIN_ROLE` is the starting admin for all roles, despite {RoleAdminChanged} not being emitted signaling this."
      },
      "RoleGranted(bytes32,address,address)": {
        "details": "Emitted when `account` is granted `role`. `sender` is the account that originated the contract call, an admin role bearer except when using {AccessControl-_setupRole}."
      },
      "RoleRevoked(bytes32,address,address)": {
        "details": "Emitted when `account` is revoked `role`. `sender` is the account that originated the contract call:   - if using `revokeRole`, it is the admin role bearer   - if using `renounceRole`, it is the role bearer (i.e. `account`)"
      },
      "Unpaused(address)": {
        "details": "Emitted when the pause is lifted by `account`."
      },
      "Upgraded(address)": {
        "details": "Emitted when the implementation is upgraded."
      }
    },
    "kind": "dev",
    "methods": {
      "calculateStakeClaimableAmount(uint256)": {
        "details": "Takes into account stake duration, score, and reward distributionThis method is not marked as view because is using a method that modifies state to call it as a view, please using static call"
      },
      "constructor": {
        "custom:oz-upgrades-unsafe-allow": "constructor"
      },
      "getRoleAdmin(bytes32)": {
        "details": "Returns the admin role that controls `role`. See {grantRole} and {revokeRole}. To change a role's admin, use {_setRoleAdmin}."
      },
      "grantRole(bytes32,address)": {
        "details": "Grants `role` to `account`. If `account` had not been already granted `role`, emits a {RoleGranted} event. Requirements: - the caller must have ``role``'s admin role. May emit a {RoleGranted} event."
      },
      "hasRole(bytes32,address)": {
        "details": "Returns `true` if `account` has been granted `role`."
      },
      "isTrustedForwarder(address)": {
        "details": "Indicates whether any particular address is the trusted forwarder."
      },
      "paused()": {
        "details": "Returns true if the contract is paused, and false otherwise."
      },
      "proxiableUUID()": {
        "details": "Implementation of the ERC1822 {proxiableUUID} function. This returns the storage slot used by the implementation. It is used to validate the implementation's compatibility when performing an upgrade. IMPORTANT: A proxy pointing at a proxiable contract should not be considered proxiable itself, because this risks bricking a proxy that upgrades to it, by delegating to itself until out of gas. Thus it is critical that this function revert if invoked through a proxy. This is guaranteed by the `notDelegated` modifier."
      },
      "renounceRole(bytes32,address)": {
        "details": "Revokes `role` from the calling account. Roles are often managed via {grantRole} and {revokeRole}: this function's purpose is to provide a mechanism for accounts to lose their privileges if they are compromised (such as when a trusted device is misplaced). If the calling account had been revoked `role`, emits a {RoleRevoked} event. Requirements: - the caller must be `callerConfirmation`. May emit a {RoleRevoked} event."
      },
      "revokeRole(bytes32,address)": {
        "details": "Revokes `role` from `account`. If `account` had been granted `role`, emits a {RoleRevoked} event. Requirements: - the caller must have ``role``'s admin role. May emit a {RoleRevoked} event."
      },
      "supportsInterface(bytes4)": {
        "details": "See {IERC165-supportsInterface}."
      },
      "trustedForwarder()": {
        "details": "Returns the address of the trusted forwarder."
      },
      "upgradeToAndCall(address,bytes)": {
        "custom:oz-upgrades-unsafe-allow-reachable": "delegatecall",
        "details": "Upgrade the implementation of the proxy to `newImplementation`, and subsequently execute the function call encoded in `data`. Calls {_authorizeUpgrade}. Emits an {Upgraded} event."
      }
    },
    "version": 1
  },
  "userdoc": {
    "kind": "user",
    "methods": {
      "calculateStakeClaimableAmount(uint256)": {
        "notice": "Calculates claimable rewards for a stake"
      },
      "calculateStakeScore(uint256,uint256,uint256)": {
        "notice": "Calculates stake score based on amount and duration"
      },
      "claimStakeRewardUntilEpoch(uint256,uint256)": {
        "notice": "Claims rewards for a stake up to specified epoch"
      },
      "claimStakesReward(uint256[])": {
        "notice": "Claims rewards for multiple stakes"
      },
      "closeStakes(uint256[])": {
        "notice": "Closes multiple stakes"
      },
      "withdrawStakes(uint256[])": {
        "notice": "Withdraws multiple closed stakes"
      }
    },
    "version": 1
  },
  "storageLayout": {
    "storage": [
      {
        "astId": 7470,
        "contract": "contracts/root/DLPRootImplementation.sol:DLPRootImplementation",
        "label": "_trustedForwarder",
        "offset": 0,
        "slot": "0",
        "type": "t_address"
      },
      {
        "astId": 7472,
        "contract": "contracts/root/DLPRootImplementation.sol:DLPRootImplementation",
        "label": "eligibleDlpsLimit",
        "offset": 0,
        "slot": "1",
        "type": "t_uint256"
      },
      {
        "astId": 7474,
        "contract": "contracts/root/DLPRootImplementation.sol:DLPRootImplementation",
        "label": "epochDlpsLimit",
        "offset": 0,
        "slot": "2",
        "type": "t_uint256"
      },
      {
        "astId": 7477,
        "contract": "contracts/root/DLPRootImplementation.sol:DLPRootImplementation",
        "label": "minStakeAmount",
        "offset": 0,
        "slot": "3",
        "type": "t_uint256"
      },
      {
        "astId": 7479,
        "contract": "contracts/root/DLPRootImplementation.sol:DLPRootImplementation",
        "label": "minDlpStakersPercentage",
        "offset": 0,
        "slot": "4",
        "type": "t_uint256"
      },
      {
        "astId": 7481,
        "contract": "contracts/root/DLPRootImplementation.sol:DLPRootImplementation",
        "label": "minDlpRegistrationStake",
        "offset": 0,
        "slot": "5",
        "type": "t_uint256"
      },
      {
        "astId": 7483,
        "contract": "contracts/root/DLPRootImplementation.sol:DLPRootImplementation",
        "label": "dlpEligibilityThreshold",
        "offset": 0,
        "slot": "6",
        "type": "t_uint256"
      },
      {
        "astId": 7485,
        "contract": "contracts/root/DLPRootImplementation.sol:DLPRootImplementation",
        "label": "dlpSubEligibilityThreshold",
        "offset": 0,
        "slot": "7",
        "type": "t_uint256"
      },
      {
        "astId": 7488,
        "contract": "contracts/root/DLPRootImplementation.sol:DLPRootImplementation",
        "label": "_stakeWithdrawalDelayCheckpoints",
        "offset": 0,
        "slot": "8",
        "type": "t_struct(Trace208)3705_storage"
      },
      {
        "astId": 7491,
        "contract": "contracts/root/DLPRootImplementation.sol:DLPRootImplementation",
        "label": "_rewardClaimDelayCheckpoints",
        "offset": 0,
        "slot": "9",
        "type": "t_struct(Trace208)3705_storage"
      },
      {
        "astId": 7493,
        "contract": "contracts/root/DLPRootImplementation.sol:DLPRootImplementation",
        "label": "epochRewardAmount",
        "offset": 0,
        "slot": "10",
        "type": "t_uint256"
      },
      {
        "astId": 7495,
        "contract": "contracts/root/DLPRootImplementation.sol:DLPRootImplementation",
        "label": "epochSize",
        "offset": 0,
        "slot": "11",
        "type": "t_uint256"
      },
      {
        "astId": 7497,
        "contract": "contracts/root/DLPRootImplementation.sol:DLPRootImplementation",
        "label": "daySize",
        "offset": 0,
        "slot": "12",
        "type": "t_uint256"
      },
      {
        "astId": 7499,
        "contract": "contracts/root/DLPRootImplementation.sol:DLPRootImplementation",
        "label": "dlpsCount",
        "offset": 0,
        "slot": "13",
        "type": "t_uint256"
      },
      {
        "astId": 7504,
        "contract": "contracts/root/DLPRootImplementation.sol:DLPRootImplementation",
        "label": "_dlps",
        "offset": 0,
        "slot": "14",
        "type": "t_mapping(t_uint256,t_struct(Dlp)7931_storage)"
      },
      {
        "astId": 7508,
        "contract": "contracts/root/DLPRootImplementation.sol:DLPRootImplementation",
        "label": "dlpIds",
        "offset": 0,
        "slot": "15",
        "type": "t_mapping(t_address,t_uint256)"
      },
      {
        "astId": 7511,
        "contract": "contracts/root/DLPRootImplementation.sol:DLPRootImplementation",
        "label": "_eligibleDlpsList",
        "offset": 0,
        "slot": "16",
        "type": "t_struct(UintSet)5226_storage"
      },
      {
        "astId": 7513,
        "contract": "contracts/root/DLPRootImplementation.sol:DLPRootImplementation",
        "label": "epochsCount",
        "offset": 0,
        "slot": "18",
        "type": "t_uint256"
      },
      {
        "astId": 7518,
        "contract": "contracts/root/DLPRootImplementation.sol:DLPRootImplementation",
        "label": "_epochs",
        "offset": 0,
        "slot": "19",
        "type": "t_mapping(t_uint256,t_struct(Epoch)7957_storage)"
      },
      {
        "astId": 7521,
        "contract": "contracts/root/DLPRootImplementation.sol:DLPRootImplementation",
        "label": "_stakersList",
        "offset": 0,
        "slot": "20",
        "type": "t_struct(AddressSet)5069_storage"
      },
      {
        "astId": 7526,
        "contract": "contracts/root/DLPRootImplementation.sol:DLPRootImplementation",
        "label": "_stakers",
        "offset": 0,
        "slot": "22",
        "type": "t_mapping(t_address,t_struct(Staker)7606_storage)"
      },
      {
        "astId": 7529,
        "contract": "contracts/root/DLPRootImplementation.sol:DLPRootImplementation",
        "label": "stakesCount",
        "offset": 0,
        "slot": "23",
        "type": "t_uint256"
      },
      {
        "astId": 7534,
        "contract": "contracts/root/DLPRootImplementation.sol:DLPRootImplementation",
        "label": "_stakes",
        "offset": 0,
        "slot": "24",
        "type": "t_mapping(t_uint256,t_struct(Stake)7593_storage)"
      },
      {
        "astId": 7536,
        "contract": "contracts/root/DLPRootImplementation.sol:DLPRootImplementation",
        "label": "maxDlpStakersPercentage",
        "offset": 0,
        "slot": "25",
        "type": "t_uint256"
      },
      {
        "astId": 7540,
        "contract": "contracts/root/DLPRootImplementation.sol:DLPRootImplementation",
        "label": "dlpNameToId",
        "offset": 0,
        "slot": "26",
        "type": "t_mapping(t_string_memory_ptr,t_uint256)"
      },
      {
        "astId": 7544,
        "contract": "contracts/root/DLPRootImplementation.sol:DLPRootImplementation",
        "label": "dlpRootMetrics",
        "offset": 0,
        "slot": "27",
        "type": "t_contract(IDLPRootMetrics)12961"
      },
      {
        "astId": 7548,
        "contract": "contracts/root/DLPRootImplementation.sol:DLPRootImplementation",
        "label": "dlpRootRewardsTreasury",
        "offset": 0,
        "slot": "28",
        "type": "t_contract(IDLPRootTreasury)14829"
      },
      {
        "astId": 7552,
        "contract": "contracts/root/DLPRootImplementation.sol:DLPRootImplementation",
        "label": "dlpRootStakesTreasury",
        "offset": 0,
        "slot": "29",
        "type": "t_contract(IDLPRootTreasury)14829"
      },
      {
        "astId": 7556,
        "contract": "contracts/root/DLPRootImplementation.sol:DLPRootImplementation",
        "label": "dlpRootCore",
        "offset": 0,
        "slot": "30",
        "type": "t_contract(IDLPRootCore)9875"
      },
      {
        "astId": 7560,
        "contract": "contracts/root/DLPRootImplementation.sol:DLPRootImplementation",
        "label": "dlpRootEpoch",
        "offset": 0,
        "slot": "31",
        "type": "t_contract(IDLPRootEpoch)11038"
      }
    ],
    "types": {
      "t_address": {
        "encoding": "inplace",
        "label": "address",
        "numberOfBytes": "20"
      },
      "t_address_payable": {
        "encoding": "inplace",
        "label": "address payable",
        "numberOfBytes": "20"
      },
      "t_array(t_bytes32)dyn_storage": {
        "base": "t_bytes32",
        "encoding": "dynamic_array",
        "label": "bytes32[]",
        "numberOfBytes": "32"
      },
      "t_array(t_struct(Checkpoint208)3710_storage)dyn_storage": {
        "base": "t_struct(Checkpoint208)3710_storage",
        "encoding": "dynamic_array",
        "label": "struct Checkpoints.Checkpoint208[]",
        "numberOfBytes": "32"
      },
      "t_bool": {
        "encoding": "inplace",
        "label": "bool",
        "numberOfBytes": "1"
      },
      "t_bytes32": {
        "encoding": "inplace",
        "label": "bytes32",
        "numberOfBytes": "32"
      },
      "t_contract(IDLPRootCore)9875": {
        "encoding": "inplace",
        "label": "contract IDLPRootCore",
        "numberOfBytes": "20"
      },
      "t_contract(IDLPRootEpoch)11038": {
        "encoding": "inplace",
        "label": "contract IDLPRootEpoch",
        "numberOfBytes": "20"
      },
      "t_contract(IDLPRootMetrics)12961": {
        "encoding": "inplace",
        "label": "contract IDLPRootMetrics",
        "numberOfBytes": "20"
      },
      "t_contract(IDLPRootTreasury)14829": {
        "encoding": "inplace",
        "label": "contract IDLPRootTreasury",
        "numberOfBytes": "20"
      },
      "t_enum(DlpStatus)7892": {
        "encoding": "inplace",
        "label": "enum IDLPRootDeprecated.DlpStatus",
        "numberOfBytes": "1"
      },
      "t_mapping(t_address,t_struct(Staker)7606_storage)": {
        "encoding": "mapping",
        "key": "t_address",
        "label": "mapping(address => struct IDLPRoot.Staker)",
        "numberOfBytes": "32",
        "value": "t_struct(Staker)7606_storage"
      },
      "t_mapping(t_address,t_uint256)": {
        "encoding": "mapping",
        "key": "t_address",
        "label": "mapping(address => uint256)",
        "numberOfBytes": "32",
        "value": "t_uint256"
      },
      "t_mapping(t_bytes32,t_uint256)": {
        "encoding": "mapping",
        "key": "t_bytes32",
        "label": "mapping(bytes32 => uint256)",
        "numberOfBytes": "32",
        "value": "t_uint256"
      },
      "t_mapping(t_string_memory_ptr,t_uint256)": {
        "encoding": "mapping",
        "key": "t_string_memory_ptr",
        "label": "mapping(string => uint256)",
        "numberOfBytes": "32",
        "value": "t_uint256"
      },
      "t_mapping(t_uint256,t_struct(Dlp)7931_storage)": {
        "encoding": "mapping",
        "key": "t_uint256",
        "label": "mapping(uint256 => struct IDLPRootDeprecated.Dlp)",
        "numberOfBytes": "32",
        "value": "t_struct(Dlp)7931_storage"
      },
      "t_mapping(t_uint256,t_struct(Epoch)7957_storage)": {
        "encoding": "mapping",
        "key": "t_uint256",
        "label": "mapping(uint256 => struct IDLPRootDeprecated.Epoch)",
        "numberOfBytes": "32",
        "value": "t_struct(Epoch)7957_storage"
      },
      "t_mapping(t_uint256,t_struct(EpochDlp)7940_storage)": {
        "encoding": "mapping",
        "key": "t_uint256",
        "label": "mapping(uint256 => struct IDLPRootDeprecated.EpochDlp)",
        "numberOfBytes": "32",
        "value": "t_struct(EpochDlp)7940_storage"
      },
      "t_mapping(t_uint256,t_struct(Stake)7593_storage)": {
        "encoding": "mapping",
        "key": "t_uint256",
        "label": "mapping(uint256 => struct IDLPRoot.Stake)",
        "numberOfBytes": "32",
        "value": "t_struct(Stake)7593_storage"
      },
      "t_mapping(t_uint256,t_uint256)": {
        "encoding": "mapping",
        "key": "t_uint256",
        "label": "mapping(uint256 => uint256)",
        "numberOfBytes": "32",
        "value": "t_uint256"
      },
      "t_string_memory_ptr": {
        "encoding": "bytes",
        "label": "string",
        "numberOfBytes": "32"
      },
      "t_string_storage": {
        "encoding": "bytes",
        "label": "string",
        "numberOfBytes": "32"
      },
      "t_struct(AddressSet)5069_storage": {
        "encoding": "inplace",
        "label": "struct EnumerableSet.AddressSet",
        "members": [
          {
            "astId": 5068,
            "contract": "contracts/root/DLPRootImplementation.sol:DLPRootImplementation",
            "label": "_inner",
            "offset": 0,
            "slot": "0",
            "type": "t_struct(Set)4754_storage"
          }
        ],
        "numberOfBytes": "64"
      },
      "t_struct(Checkpoint208)3710_storage": {
        "encoding": "inplace",
        "label": "struct Checkpoints.Checkpoint208",
        "members": [
          {
            "astId": 3707,
            "contract": "contracts/root/DLPRootImplementation.sol:DLPRootImplementation",
            "label": "_key",
            "offset": 0,
            "slot": "0",
            "type": "t_uint48"
          },
          {
            "astId": 3709,
            "contract": "contracts/root/DLPRootImplementation.sol:DLPRootImplementation",
            "label": "_value",
            "offset": 6,
            "slot": "0",
            "type": "t_uint208"
          }
        ],
        "numberOfBytes": "32"
      },
      "t_struct(Dlp)7931_storage": {
        "encoding": "inplace",
        "label": "struct IDLPRootDeprecated.Dlp",
        "members": [
          {
            "astId": 7894,
            "contract": "contracts/root/DLPRootImplementation.sol:DLPRootImplementation",
            "label": "id",
            "offset": 0,
            "slot": "0",
            "type": "t_uint256"
          },
          {
            "astId": 7896,
            "contract": "contracts/root/DLPRootImplementation.sol:DLPRootImplementation",
            "label": "dlpAddress",
            "offset": 0,
            "slot": "1",
            "type": "t_address"
          },
          {
            "astId": 7898,
            "contract": "contracts/root/DLPRootImplementation.sol:DLPRootImplementation",
            "label": "ownerAddress",
            "offset": 0,
            "slot": "2",
            "type": "t_address"
          },
          {
            "astId": 7900,
            "contract": "contracts/root/DLPRootImplementation.sol:DLPRootImplementation",
            "label": "treasuryAddress",
            "offset": 0,
            "slot": "3",
            "type": "t_address_payable"
          },
          {
            "astId": 7903,
            "contract": "contracts/root/DLPRootImplementation.sol:DLPRootImplementation",
            "label": "stakersPercentageCheckpoints",
            "offset": 0,
            "slot": "4",
            "type": "t_struct(Trace208)3705_storage"
          },
          {
            "astId": 7905,
            "contract": "contracts/root/DLPRootImplementation.sol:DLPRootImplementation",
            "label": "name",
            "offset": 0,
            "slot": "5",
            "type": "t_string_storage"
          },
          {
            "astId": 7907,
            "contract": "contracts/root/DLPRootImplementation.sol:DLPRootImplementation",
            "label": "iconUrl",
            "offset": 0,
            "slot": "6",
            "type": "t_string_storage"
          },
          {
            "astId": 7909,
            "contract": "contracts/root/DLPRootImplementation.sol:DLPRootImplementation",
            "label": "website",
            "offset": 0,
            "slot": "7",
            "type": "t_string_storage"
          },
          {
            "astId": 7911,
            "contract": "contracts/root/DLPRootImplementation.sol:DLPRootImplementation",
            "label": "metadata",
            "offset": 0,
            "slot": "8",
            "type": "t_string_storage"
          },
          {
            "astId": 7914,
            "contract": "contracts/root/DLPRootImplementation.sol:DLPRootImplementation",
            "label": "status",
            "offset": 0,
            "slot": "9",
            "type": "t_enum(DlpStatus)7892"
          },
          {
            "astId": 7916,
            "contract": "contracts/root/DLPRootImplementation.sol:DLPRootImplementation",
            "label": "registrationBlockNumber",
            "offset": 0,
            "slot": "10",
            "type": "t_uint256"
          },
          {
            "astId": 7919,
            "contract": "contracts/root/DLPRootImplementation.sol:DLPRootImplementation",
            "label": "stakeAmountCheckpoints",
            "offset": 0,
            "slot": "11",
            "type": "t_struct(Trace208)3705_storage"
          },
          {
            "astId": 7922,
            "contract": "contracts/root/DLPRootImplementation.sol:DLPRootImplementation",
            "label": "unstakeAmountCheckpoints",
            "offset": 0,
            "slot": "12",
            "type": "t_struct(Trace208)3705_storage"
          },
          {
            "astId": 7924,
            "contract": "contracts/root/DLPRootImplementation.sol:DLPRootImplementation",
            "label": "epochIdsCount",
            "offset": 0,
            "slot": "13",
            "type": "t_uint256"
          },
          {
            "astId": 7928,
            "contract": "contracts/root/DLPRootImplementation.sol:DLPRootImplementation",
            "label": "epochIds",
            "offset": 0,
            "slot": "14",
            "type": "t_mapping(t_uint256,t_uint256)"
          },
          {
            "astId": 7930,
            "contract": "contracts/root/DLPRootImplementation.sol:DLPRootImplementation",
            "label": "isVerified",
            "offset": 0,
            "slot": "15",
            "type": "t_bool"
          }
        ],
        "numberOfBytes": "512"
      },
      "t_struct(Epoch)7957_storage": {
        "encoding": "inplace",
        "label": "struct IDLPRootDeprecated.Epoch",
        "members": [
          {
            "astId": 7942,
            "contract": "contracts/root/DLPRootImplementation.sol:DLPRootImplementation",
            "label": "startBlock",
            "offset": 0,
            "slot": "0",
            "type": "t_uint256"
          },
          {
            "astId": 7944,
            "contract": "contracts/root/DLPRootImplementation.sol:DLPRootImplementation",
            "label": "endBlock",
            "offset": 0,
            "slot": "1",
            "type": "t_uint256"
          },
          {
            "astId": 7946,
            "contract": "contracts/root/DLPRootImplementation.sol:DLPRootImplementation",
            "label": "rewardAmount",
            "offset": 0,
            "slot": "2",
            "type": "t_uint256"
          },
          {
            "astId": 7948,
            "contract": "contracts/root/DLPRootImplementation.sol:DLPRootImplementation",
            "label": "isFinalised",
            "offset": 0,
            "slot": "3",
            "type": "t_bool"
          },
          {
            "astId": 7951,
            "contract": "contracts/root/DLPRootImplementation.sol:DLPRootImplementation",
            "label": "dlpIds",
            "offset": 0,
            "slot": "4",
            "type": "t_struct(UintSet)5226_storage"
          },
          {
            "astId": 7956,
            "contract": "contracts/root/DLPRootImplementation.sol:DLPRootImplementation",
            "label": "dlps",
            "offset": 0,
            "slot": "6",
            "type": "t_mapping(t_uint256,t_struct(EpochDlp)7940_storage)"
          }
        ],
        "numberOfBytes": "224"
      },
      "t_struct(EpochDlp)7940_storage": {
        "encoding": "inplace",
        "label": "struct IDLPRootDeprecated.EpochDlp",
        "members": [
          {
            "astId": 7933,
            "contract": "contracts/root/DLPRootImplementation.sol:DLPRootImplementation",
            "label": "rewardAmount",
            "offset": 0,
            "slot": "0",
            "type": "t_uint256"
          },
          {
            "astId": 7935,
            "contract": "contracts/root/DLPRootImplementation.sol:DLPRootImplementation",
            "label": "stakersRewardAmount",
            "offset": 0,
            "slot": "1",
            "type": "t_uint256"
          },
          {
            "astId": 7937,
            "contract": "contracts/root/DLPRootImplementation.sol:DLPRootImplementation",
            "label": "totalStakesScore",
            "offset": 0,
            "slot": "2",
            "type": "t_uint256"
          },
          {
            "astId": 7939,
            "contract": "contracts/root/DLPRootImplementation.sol:DLPRootImplementation",
            "label": "rewardClaimed",
            "offset": 0,
            "slot": "3",
            "type": "t_bool"
          }
        ],
        "numberOfBytes": "128"
      },
      "t_struct(Set)4754_storage": {
        "encoding": "inplace",
        "label": "struct EnumerableSet.Set",
        "members": [
          {
            "astId": 4749,
            "contract": "contracts/root/DLPRootImplementation.sol:DLPRootImplementation",
            "label": "_values",
            "offset": 0,
            "slot": "0",
            "type": "t_array(t_bytes32)dyn_storage"
          },
          {
            "astId": 4753,
            "contract": "contracts/root/DLPRootImplementation.sol:DLPRootImplementation",
            "label": "_positions",
            "offset": 0,
            "slot": "1",
            "type": "t_mapping(t_bytes32,t_uint256)"
          }
        ],
        "numberOfBytes": "64"
      },
      "t_struct(Stake)7593_storage": {
        "encoding": "inplace",
        "label": "struct IDLPRoot.Stake",
        "members": [
          {
            "astId": 7574,
            "contract": "contracts/root/DLPRootImplementation.sol:DLPRootImplementation",
            "label": "stakerAddress",
            "offset": 0,
            "slot": "0",
            "type": "t_address"
          },
          {
            "astId": 7576,
            "contract": "contracts/root/DLPRootImplementation.sol:DLPRootImplementation",
            "label": "dlpId",
            "offset": 0,
            "slot": "1",
            "type": "t_uint256"
          },
          {
            "astId": 7578,
            "contract": "contracts/root/DLPRootImplementation.sol:DLPRootImplementation",
            "label": "amount",
            "offset": 0,
            "slot": "2",
            "type": "t_uint256"
          },
          {
            "astId": 7580,
            "contract": "contracts/root/DLPRootImplementation.sol:DLPRootImplementation",
            "label": "startBlock",
            "offset": 0,
            "slot": "3",
            "type": "t_uint256"
          },
          {
            "astId": 7582,
            "contract": "contracts/root/DLPRootImplementation.sol:DLPRootImplementation",
            "label": "endBlock",
            "offset": 0,
            "slot": "4",
            "type": "t_uint256"
          },
          {
            "astId": 7584,
            "contract": "contracts/root/DLPRootImplementation.sol:DLPRootImplementation",
            "label": "withdrawn",
            "offset": 0,
            "slot": "5",
            "type": "t_bool"
          },
          {
            "astId": 7586,
            "contract": "contracts/root/DLPRootImplementation.sol:DLPRootImplementation",
            "label": "lastClaimedIndexEpochId",
            "offset": 0,
            "slot": "6",
            "type": "t_uint256"
          },
          {
            "astId": 7590,
            "contract": "contracts/root/DLPRootImplementation.sol:DLPRootImplementation",
            "label": "claimedAmounts",
            "offset": 0,
            "slot": "7",
            "type": "t_mapping(t_uint256,t_uint256)"
          },
          {
            "astId": 7592,
            "contract": "contracts/root/DLPRootImplementation.sol:DLPRootImplementation",
            "label": "movedAmount",
            "offset": 0,
            "slot": "8",
            "type": "t_uint256"
          }
        ],
        "numberOfBytes": "288"
      },
      "t_struct(Staker)7606_storage": {
        "encoding": "inplace",
        "label": "struct IDLPRoot.Staker",
        "members": [
          {
            "astId": 7596,
            "contract": "contracts/root/DLPRootImplementation.sol:DLPRootImplementation",
            "label": "dlpIds",
            "offset": 0,
            "slot": "0",
            "type": "t_struct(UintSet)5226_storage"
          },
          {
            "astId": 7600,
            "contract": "contracts/root/DLPRootImplementation.sol:DLPRootImplementation",
            "label": "dlpStakeAmounts",
            "offset": 0,
            "slot": "2",
            "type": "t_mapping(t_uint256,t_uint256)"
          },
          {
            "astId": 7603,
            "contract": "contracts/root/DLPRootImplementation.sol:DLPRootImplementation",
            "label": "stakeIds",
            "offset": 0,
            "slot": "3",
            "type": "t_struct(UintSet)5226_storage"
          },
          {
            "astId": 7605,
            "contract": "contracts/root/DLPRootImplementation.sol:DLPRootImplementation",
            "label": "totalStakeAmount",
            "offset": 0,
            "slot": "5",
            "type": "t_uint256"
          }
        ],
        "numberOfBytes": "192"
      },
      "t_struct(Trace208)3705_storage": {
        "encoding": "inplace",
        "label": "struct Checkpoints.Trace208",
        "members": [
          {
            "astId": 3704,
            "contract": "contracts/root/DLPRootImplementation.sol:DLPRootImplementation",
            "label": "_checkpoints",
            "offset": 0,
            "slot": "0",
            "type": "t_array(t_struct(Checkpoint208)3710_storage)dyn_storage"
          }
        ],
        "numberOfBytes": "32"
      },
      "t_struct(UintSet)5226_storage": {
        "encoding": "inplace",
        "label": "struct EnumerableSet.UintSet",
        "members": [
          {
            "astId": 5225,
            "contract": "contracts/root/DLPRootImplementation.sol:DLPRootImplementation",
            "label": "_inner",
            "offset": 0,
            "slot": "0",
            "type": "t_struct(Set)4754_storage"
          }
        ],
        "numberOfBytes": "64"
      },
      "t_uint208": {
        "encoding": "inplace",
        "label": "uint208",
        "numberOfBytes": "26"
      },
      "t_uint256": {
        "encoding": "inplace",
        "label": "uint256",
        "numberOfBytes": "32"
      },
      "t_uint48": {
        "encoding": "inplace",
        "label": "uint48",
        "numberOfBytes": "6"
      }
    }
  }
}