{
  "address": "0xDC8ac4040e0d2bB700d1886588310Fcc6396e784",
  "abi": [
    {
      "inputs": [],
      "stateMutability": "nonpayable",
      "type": "constructor"
    },
    {
      "inputs": [],
      "name": "AccessControlBadConfirmation",
      "type": "error"
    },
    {
      "inputs": [
        {
          "internalType": "address",
          "name": "account",
          "type": "address"
        },
        {
          "internalType": "bytes32",
          "name": "neededRole",
          "type": "bytes32"
        }
      ],
      "name": "AccessControlUnauthorizedAccount",
      "type": "error"
    },
    {
      "inputs": [
        {
          "internalType": "address",
          "name": "target",
          "type": "address"
        }
      ],
      "name": "AddressEmptyCode",
      "type": "error"
    },
    {
      "inputs": [],
      "name": "CheckpointUnorderedInsertion",
      "type": "error"
    },
    {
      "inputs": [],
      "name": "DlpAddressCannotBeChanged",
      "type": "error"
    },
    {
      "inputs": [
        {
          "internalType": "address",
          "name": "implementation",
          "type": "address"
        }
      ],
      "name": "ERC1967InvalidImplementation",
      "type": "error"
    },
    {
      "inputs": [],
      "name": "ERC1967NonPayable",
      "type": "error"
    },
    {
      "inputs": [],
      "name": "EnforcedPause",
      "type": "error"
    },
    {
      "inputs": [],
      "name": "EpochDlpScoreAlreadySaved",
      "type": "error"
    },
    {
      "inputs": [],
      "name": "EpochNotEnded",
      "type": "error"
    },
    {
      "inputs": [],
      "name": "EpochRewardsAlreadyDistributed",
      "type": "error"
    },
    {
      "inputs": [],
      "name": "ExpectedPause",
      "type": "error"
    },
    {
      "inputs": [],
      "name": "FailedInnerCall",
      "type": "error"
    },
    {
      "inputs": [],
      "name": "InvalidAddress",
      "type": "error"
    },
    {
      "inputs": [],
      "name": "InvalidDlpId",
      "type": "error"
    },
    {
      "inputs": [],
      "name": "InvalidDlpStatus",
      "type": "error"
    },
    {
      "inputs": [],
      "name": "InvalidInitialization",
      "type": "error"
    },
    {
      "inputs": [],
      "name": "InvalidName",
      "type": "error"
    },
    {
      "inputs": [],
      "name": "InvalidParam",
      "type": "error"
    },
    {
      "inputs": [],
      "name": "InvalidStakeAmount",
      "type": "error"
    },
    {
      "inputs": [],
      "name": "InvalidStakersPercentage",
      "type": "error"
    },
    {
      "inputs": [],
      "name": "LastEpochMustBeFinalised",
      "type": "error"
    },
    {
      "inputs": [],
      "name": "NotDlpOwner",
      "type": "error"
    },
    {
      "inputs": [],
      "name": "NotInitializing",
      "type": "error"
    },
    {
      "inputs": [],
      "name": "NotStakeOwner",
      "type": "error"
    },
    {
      "inputs": [],
      "name": "NothingToClaim",
      "type": "error"
    },
    {
      "inputs": [],
      "name": "ReentrancyGuardReentrantCall",
      "type": "error"
    },
    {
      "inputs": [],
      "name": "StakeAlreadyClosed",
      "type": "error"
    },
    {
      "inputs": [],
      "name": "StakeAlreadyWithdrawn",
      "type": "error"
    },
    {
      "inputs": [],
      "name": "StakeNotClosed",
      "type": "error"
    },
    {
      "inputs": [],
      "name": "StakeWithdrawalTooEarly",
      "type": "error"
    },
    {
      "inputs": [],
      "name": "TransferFailed",
      "type": "error"
    },
    {
      "inputs": [],
      "name": "UUPSUnauthorizedCallContext",
      "type": "error"
    },
    {
      "inputs": [
        {
          "internalType": "bytes32",
          "name": "slot",
          "type": "bytes32"
        }
      ],
      "name": "UUPSUnsupportedProxiableUUID",
      "type": "error"
    },
    {
      "anonymous": false,
      "inputs": [
        {
          "indexed": false,
          "internalType": "uint256",
          "name": "newDlpEligibilityThreshold",
          "type": "uint256"
        }
      ],
      "name": "DlpEligibilityThresholdUpdated",
      "type": "event"
    },
    {
      "anonymous": false,
      "inputs": [
        {
          "indexed": true,
          "internalType": "uint256",
          "name": "dlpId",
          "type": "uint256"
        },
        {
          "indexed": true,
          "internalType": "address",
          "name": "dlpAddress",
          "type": "address"
        },
        {
          "indexed": false,
          "internalType": "address",
          "name": "ownerAddress",
          "type": "address"
        },
        {
          "indexed": false,
          "internalType": "address",
          "name": "treasuryAddress",
          "type": "address"
        },
        {
          "indexed": false,
          "internalType": "uint256",
          "name": "stakersPercentage",
          "type": "uint256"
        },
        {
          "indexed": false,
          "internalType": "string",
          "name": "name",
          "type": "string"
        },
        {
          "indexed": false,
          "internalType": "string",
          "name": "iconUrl",
          "type": "string"
        },
        {
          "indexed": false,
          "internalType": "string",
          "name": "website",
          "type": "string"
        },
        {
          "indexed": false,
          "internalType": "string",
          "name": "metadata",
          "type": "string"
        }
      ],
      "name": "DlpRegistered",
      "type": "event"
    },
    {
      "anonymous": false,
      "inputs": [
        {
          "indexed": true,
          "internalType": "uint256",
          "name": "dlpId",
          "type": "uint256"
        },
        {
          "indexed": false,
          "internalType": "enum IDLPRootCore.DlpStatus",
          "name": "newStatus",
          "type": "uint8"
        }
      ],
      "name": "DlpStatusUpdated",
      "type": "event"
    },
    {
      "anonymous": false,
      "inputs": [
        {
          "indexed": false,
          "internalType": "uint256",
          "name": "newDlpSubEligibilityThreshold",
          "type": "uint256"
        }
      ],
      "name": "DlpSubEligibilityThresholdUpdated",
      "type": "event"
    },
    {
      "anonymous": false,
      "inputs": [
        {
          "indexed": true,
          "internalType": "uint256",
          "name": "dlpId",
          "type": "uint256"
        },
        {
          "indexed": true,
          "internalType": "address",
          "name": "dlpAddress",
          "type": "address"
        },
        {
          "indexed": false,
          "internalType": "address",
          "name": "ownerAddress",
          "type": "address"
        },
        {
          "indexed": false,
          "internalType": "address",
          "name": "treasuryAddress",
          "type": "address"
        },
        {
          "indexed": false,
          "internalType": "uint256",
          "name": "stakersPercentage",
          "type": "uint256"
        },
        {
          "indexed": false,
          "internalType": "string",
          "name": "name",
          "type": "string"
        },
        {
          "indexed": false,
          "internalType": "string",
          "name": "iconUrl",
          "type": "string"
        },
        {
          "indexed": false,
          "internalType": "string",
          "name": "website",
          "type": "string"
        },
        {
          "indexed": false,
          "internalType": "string",
          "name": "metadata",
          "type": "string"
        }
      ],
      "name": "DlpUpdated",
      "type": "event"
    },
    {
      "anonymous": false,
      "inputs": [
        {
          "indexed": true,
          "internalType": "uint256",
          "name": "dlpId",
          "type": "uint256"
        },
        {
          "indexed": false,
          "internalType": "bool",
          "name": "verified",
          "type": "bool"
        }
      ],
      "name": "DlpVerificationUpdated",
      "type": "event"
    },
    {
      "anonymous": false,
      "inputs": [
        {
          "indexed": false,
          "internalType": "uint64",
          "name": "version",
          "type": "uint64"
        }
      ],
      "name": "Initialized",
      "type": "event"
    },
    {
      "anonymous": false,
      "inputs": [
        {
          "indexed": false,
          "internalType": "uint256",
          "name": "newMaxDlpStakersPercentage",
          "type": "uint256"
        }
      ],
      "name": "MaxDlpStakersPercentageUpdated",
      "type": "event"
    },
    {
      "anonymous": false,
      "inputs": [
        {
          "indexed": false,
          "internalType": "uint256",
          "name": "newMinDlpRegistrationStake",
          "type": "uint256"
        }
      ],
      "name": "MinDlpRegistrationStakeUpdated",
      "type": "event"
    },
    {
      "anonymous": false,
      "inputs": [
        {
          "indexed": false,
          "internalType": "uint256",
          "name": "newMinDlpStakersPercentage",
          "type": "uint256"
        }
      ],
      "name": "MinDlpStakersPercentageUpdated",
      "type": "event"
    },
    {
      "anonymous": false,
      "inputs": [
        {
          "indexed": false,
          "internalType": "uint256",
          "name": "newMinStakeAmount",
          "type": "uint256"
        }
      ],
      "name": "MinStakeAmountUpdated",
      "type": "event"
    },
    {
      "anonymous": false,
      "inputs": [
        {
          "indexed": false,
          "internalType": "address",
          "name": "account",
          "type": "address"
        }
      ],
      "name": "Paused",
      "type": "event"
    },
    {
      "anonymous": false,
      "inputs": [
        {
          "indexed": true,
          "internalType": "bytes32",
          "name": "role",
          "type": "bytes32"
        },
        {
          "indexed": true,
          "internalType": "bytes32",
          "name": "previousAdminRole",
          "type": "bytes32"
        },
        {
          "indexed": true,
          "internalType": "bytes32",
          "name": "newAdminRole",
          "type": "bytes32"
        }
      ],
      "name": "RoleAdminChanged",
      "type": "event"
    },
    {
      "anonymous": false,
      "inputs": [
        {
          "indexed": true,
          "internalType": "bytes32",
          "name": "role",
          "type": "bytes32"
        },
        {
          "indexed": true,
          "internalType": "address",
          "name": "account",
          "type": "address"
        },
        {
          "indexed": true,
          "internalType": "address",
          "name": "sender",
          "type": "address"
        }
      ],
      "name": "RoleGranted",
      "type": "event"
    },
    {
      "anonymous": false,
      "inputs": [
        {
          "indexed": true,
          "internalType": "bytes32",
          "name": "role",
          "type": "bytes32"
        },
        {
          "indexed": true,
          "internalType": "address",
          "name": "account",
          "type": "address"
        },
        {
          "indexed": true,
          "internalType": "address",
          "name": "sender",
          "type": "address"
        }
      ],
      "name": "RoleRevoked",
      "type": "event"
    },
    {
      "anonymous": false,
      "inputs": [
        {
          "indexed": false,
          "internalType": "address",
          "name": "account",
          "type": "address"
        }
      ],
      "name": "Unpaused",
      "type": "event"
    },
    {
      "anonymous": false,
      "inputs": [
        {
          "indexed": true,
          "internalType": "address",
          "name": "implementation",
          "type": "address"
        }
      ],
      "name": "Upgraded",
      "type": "event"
    },
    {
      "inputs": [],
      "name": "DEFAULT_ADMIN_ROLE",
      "outputs": [
        {
          "internalType": "bytes32",
          "name": "",
          "type": "bytes32"
        }
      ],
      "stateMutability": "view",
      "type": "function"
    },
    {
      "inputs": [],
      "name": "DLP_ROOT_METRICS_ROLE",
      "outputs": [
        {
          "internalType": "bytes32",
          "name": "",
          "type": "bytes32"
        }
      ],
      "stateMutability": "view",
      "type": "function"
    },
    {
      "inputs": [],
      "name": "DLP_ROOT_ROLE",
      "outputs": [
        {
          "internalType": "bytes32",
          "name": "",
          "type": "bytes32"
        }
      ],
      "stateMutability": "view",
      "type": "function"
    },
    {
      "inputs": [],
      "name": "MAINTAINER_ROLE",
      "outputs": [
        {
          "internalType": "bytes32",
          "name": "",
          "type": "bytes32"
        }
      ],
      "stateMutability": "view",
      "type": "function"
    },
    {
      "inputs": [],
      "name": "MANAGER_ROLE",
      "outputs": [
        {
          "internalType": "bytes32",
          "name": "",
          "type": "bytes32"
        }
      ],
      "stateMutability": "view",
      "type": "function"
    },
    {
      "inputs": [],
      "name": "NEW_MULTIPLIER_EPOCH",
      "outputs": [
        {
          "internalType": "uint256",
          "name": "",
          "type": "uint256"
        }
      ],
      "stateMutability": "view",
      "type": "function"
    },
    {
      "inputs": [],
      "name": "UPGRADE_INTERFACE_VERSION",
      "outputs": [
        {
          "internalType": "string",
          "name": "",
          "type": "string"
        }
      ],
      "stateMutability": "view",
      "type": "function"
    },
    {
      "inputs": [
        {
          "internalType": "uint256",
          "name": "dlpId",
          "type": "uint256"
        },
        {
          "internalType": "uint256",
          "name": "amount",
          "type": "uint256"
        }
      ],
      "name": "addDlpStake",
      "outputs": [],
      "stateMutability": "nonpayable",
      "type": "function"
    },
    {
      "inputs": [
        {
          "internalType": "uint256",
          "name": "dlpId",
          "type": "uint256"
        }
      ],
      "name": "deregisterDlp",
      "outputs": [],
      "stateMutability": "nonpayable",
      "type": "function"
    },
    {
      "inputs": [],
      "name": "dlpEligibilityThreshold",
      "outputs": [
        {
          "internalType": "uint256",
          "name": "",
          "type": "uint256"
        }
      ],
      "stateMutability": "view",
      "type": "function"
    },
    {
      "inputs": [
        {
          "internalType": "uint256",
          "name": "dlpId",
          "type": "uint256"
        },
        {
          "internalType": "uint256",
          "name": "epochId",
          "type": "uint256"
        }
      ],
      "name": "dlpEpochStakeAmount",
      "outputs": [
        {
          "internalType": "uint256",
          "name": "",
          "type": "uint256"
        }
      ],
      "stateMutability": "view",
      "type": "function"
    },
    {
      "inputs": [
        {
          "internalType": "address",
          "name": "dlpAddress",
          "type": "address"
        }
      ],
      "name": "dlpIds",
      "outputs": [
        {
          "internalType": "uint256",
          "name": "dlpId",
          "type": "uint256"
        }
      ],
      "stateMutability": "view",
      "type": "function"
    },
    {
      "inputs": [
        {
          "internalType": "string",
          "name": "dlpName",
          "type": "string"
        }
      ],
      "name": "dlpNameToId",
      "outputs": [
        {
          "internalType": "uint256",
          "name": "dlpId",
          "type": "uint256"
        }
      ],
      "stateMutability": "view",
      "type": "function"
    },
    {
      "inputs": [],
      "name": "dlpRoot",
      "outputs": [
        {
          "internalType": "contract IDLPRoot",
          "name": "",
          "type": "address"
        }
      ],
      "stateMutability": "view",
      "type": "function"
    },
    {
      "inputs": [],
      "name": "dlpSubEligibilityThreshold",
      "outputs": [
        {
          "internalType": "uint256",
          "name": "",
          "type": "uint256"
        }
      ],
      "stateMutability": "view",
      "type": "function"
    },
    {
      "inputs": [
        {
          "internalType": "uint256",
          "name": "dlpId",
          "type": "uint256"
        }
      ],
      "name": "dlps",
      "outputs": [
        {
          "components": [
            {
              "internalType": "uint256",
              "name": "id",
              "type": "uint256"
            },
            {
              "internalType": "address",
              "name": "dlpAddress",
              "type": "address"
            },
            {
              "internalType": "address",
              "name": "ownerAddress",
              "type": "address"
            },
            {
              "internalType": "address",
              "name": "treasuryAddress",
              "type": "address"
            },
            {
              "internalType": "uint256",
              "name": "stakersPercentage",
              "type": "uint256"
            },
            {
              "internalType": "uint256",
              "name": "stakersPercentageEpoch",
              "type": "uint256"
            },
            {
              "internalType": "string",
              "name": "name",
              "type": "string"
            },
            {
              "internalType": "string",
              "name": "iconUrl",
              "type": "string"
            },
            {
              "internalType": "string",
              "name": "website",
              "type": "string"
            },
            {
              "internalType": "string",
              "name": "metadata",
              "type": "string"
            },
            {
              "internalType": "enum IDLPRootCore.DlpStatus",
              "name": "status",
              "type": "uint8"
            },
            {
              "internalType": "uint256",
              "name": "registrationBlockNumber",
              "type": "uint256"
            },
            {
              "internalType": "uint256",
              "name": "stakeAmount",
              "type": "uint256"
            },
            {
              "internalType": "bool",
              "name": "isVerified",
              "type": "bool"
            }
          ],
          "internalType": "struct IDLPRootCore.DlpInfo",
          "name": "",
          "type": "tuple"
        }
      ],
      "stateMutability": "view",
      "type": "function"
    },
    {
      "inputs": [
        {
          "internalType": "address",
          "name": "dlpAddress",
          "type": "address"
        }
      ],
      "name": "dlpsByAddress",
      "outputs": [
        {
          "components": [
            {
              "internalType": "uint256",
              "name": "id",
              "type": "uint256"
            },
            {
              "internalType": "address",
              "name": "dlpAddress",
              "type": "address"
            },
            {
              "internalType": "address",
              "name": "ownerAddress",
              "type": "address"
            },
            {
              "internalType": "address",
              "name": "treasuryAddress",
              "type": "address"
            },
            {
              "internalType": "uint256",
              "name": "stakersPercentage",
              "type": "uint256"
            },
            {
              "internalType": "uint256",
              "name": "stakersPercentageEpoch",
              "type": "uint256"
            },
            {
              "internalType": "string",
              "name": "name",
              "type": "string"
            },
            {
              "internalType": "string",
              "name": "iconUrl",
              "type": "string"
            },
            {
              "internalType": "string",
              "name": "website",
              "type": "string"
            },
            {
              "internalType": "string",
              "name": "metadata",
              "type": "string"
            },
            {
              "internalType": "enum IDLPRootCore.DlpStatus",
              "name": "status",
              "type": "uint8"
            },
            {
              "internalType": "uint256",
              "name": "registrationBlockNumber",
              "type": "uint256"
            },
            {
              "internalType": "uint256",
              "name": "stakeAmount",
              "type": "uint256"
            },
            {
              "internalType": "bool",
              "name": "isVerified",
              "type": "bool"
            }
          ],
          "internalType": "struct IDLPRootCore.DlpInfo",
          "name": "",
          "type": "tuple"
        }
      ],
      "stateMutability": "view",
      "type": "function"
    },
    {
      "inputs": [
        {
          "internalType": "string",
          "name": "dlpName",
          "type": "string"
        }
      ],
      "name": "dlpsByName",
      "outputs": [
        {
          "components": [
            {
              "internalType": "uint256",
              "name": "id",
              "type": "uint256"
            },
            {
              "internalType": "address",
              "name": "dlpAddress",
              "type": "address"
            },
            {
              "internalType": "address",
              "name": "ownerAddress",
              "type": "address"
            },
            {
              "internalType": "address",
              "name": "treasuryAddress",
              "type": "address"
            },
            {
              "internalType": "uint256",
              "name": "stakersPercentage",
              "type": "uint256"
            },
            {
              "internalType": "uint256",
              "name": "stakersPercentageEpoch",
              "type": "uint256"
            },
            {
              "internalType": "string",
              "name": "name",
              "type": "string"
            },
            {
              "internalType": "string",
              "name": "iconUrl",
              "type": "string"
            },
            {
              "internalType": "string",
              "name": "website",
              "type": "string"
            },
            {
              "internalType": "string",
              "name": "metadata",
              "type": "string"
            },
            {
              "internalType": "enum IDLPRootCore.DlpStatus",
              "name": "status",
              "type": "uint8"
            },
            {
              "internalType": "uint256",
              "name": "registrationBlockNumber",
              "type": "uint256"
            },
            {
              "internalType": "uint256",
              "name": "stakeAmount",
              "type": "uint256"
            },
            {
              "internalType": "bool",
              "name": "isVerified",
              "type": "bool"
            }
          ],
          "internalType": "struct IDLPRootCore.DlpInfo",
          "name": "",
          "type": "tuple"
        }
      ],
      "stateMutability": "view",
      "type": "function"
    },
    {
      "inputs": [],
      "name": "dlpsCount",
      "outputs": [
        {
          "internalType": "uint256",
          "name": "",
          "type": "uint256"
        }
      ],
      "stateMutability": "view",
      "type": "function"
    },
    {
      "inputs": [
        {
          "internalType": "uint256",
          "name": "index",
          "type": "uint256"
        }
      ],
      "name": "eligibleDlpsListAt",
      "outputs": [
        {
          "internalType": "uint256",
          "name": "",
          "type": "uint256"
        }
      ],
      "stateMutability": "view",
      "type": "function"
    },
    {
      "inputs": [],
      "name": "eligibleDlpsListCount",
      "outputs": [
        {
          "internalType": "uint256",
          "name": "",
          "type": "uint256"
        }
      ],
      "stateMutability": "view",
      "type": "function"
    },
    {
      "inputs": [],
      "name": "eligibleDlpsListValues",
      "outputs": [
        {
          "internalType": "uint256[]",
          "name": "",
          "type": "uint256[]"
        }
      ],
      "stateMutability": "view",
      "type": "function"
    },
    {
      "inputs": [
        {
          "internalType": "bytes32",
          "name": "role",
          "type": "bytes32"
        }
      ],
      "name": "getRoleAdmin",
      "outputs": [
        {
          "internalType": "bytes32",
          "name": "",
          "type": "bytes32"
        }
      ],
      "stateMutability": "view",
      "type": "function"
    },
    {
      "inputs": [
        {
          "internalType": "bytes32",
          "name": "role",
          "type": "bytes32"
        },
        {
          "internalType": "address",
          "name": "account",
          "type": "address"
        }
      ],
      "name": "grantRole",
      "outputs": [],
      "stateMutability": "nonpayable",
      "type": "function"
    },
    {
      "inputs": [
        {
          "internalType": "bytes32",
          "name": "role",
          "type": "bytes32"
        },
        {
          "internalType": "address",
          "name": "account",
          "type": "address"
        }
      ],
      "name": "hasRole",
      "outputs": [
        {
          "internalType": "bool",
          "name": "",
          "type": "bool"
        }
      ],
      "stateMutability": "view",
      "type": "function"
    },
    {
      "inputs": [
        {
          "internalType": "address",
          "name": "ownerAddress",
          "type": "address"
        },
        {
          "internalType": "address",
          "name": "dlpRootAddress",
          "type": "address"
        }
      ],
      "name": "initialize",
      "outputs": [],
      "stateMutability": "nonpayable",
      "type": "function"
    },
    {
      "inputs": [],
      "name": "maxDlpStakersPercentage",
      "outputs": [
        {
          "internalType": "uint256",
          "name": "",
          "type": "uint256"
        }
      ],
      "stateMutability": "view",
      "type": "function"
    },
    {
      "inputs": [],
      "name": "minDlpRegistrationStake",
      "outputs": [
        {
          "internalType": "uint256",
          "name": "",
          "type": "uint256"
        }
      ],
      "stateMutability": "view",
      "type": "function"
    },
    {
      "inputs": [],
      "name": "minDlpStakersPercentage",
      "outputs": [
        {
          "internalType": "uint256",
          "name": "",
          "type": "uint256"
        }
      ],
      "stateMutability": "view",
      "type": "function"
    },
    {
      "inputs": [],
      "name": "pause",
      "outputs": [],
      "stateMutability": "nonpayable",
      "type": "function"
    },
    {
      "inputs": [],
      "name": "paused",
      "outputs": [
        {
          "internalType": "bool",
          "name": "",
          "type": "bool"
        }
      ],
      "stateMutability": "view",
      "type": "function"
    },
    {
      "inputs": [],
      "name": "proxiableUUID",
      "outputs": [
        {
          "internalType": "bytes32",
          "name": "",
          "type": "bytes32"
        }
      ],
      "stateMutability": "view",
      "type": "function"
    },
    {
      "inputs": [
        {
          "components": [
            {
              "internalType": "address",
              "name": "dlpAddress",
              "type": "address"
            },
            {
              "internalType": "address",
              "name": "ownerAddress",
              "type": "address"
            },
            {
              "internalType": "address payable",
              "name": "treasuryAddress",
              "type": "address"
            },
            {
              "internalType": "uint256",
              "name": "stakersPercentage",
              "type": "uint256"
            },
            {
              "internalType": "string",
              "name": "name",
              "type": "string"
            },
            {
              "internalType": "string",
              "name": "iconUrl",
              "type": "string"
            },
            {
              "internalType": "string",
              "name": "website",
              "type": "string"
            },
            {
              "internalType": "string",
              "name": "metadata",
              "type": "string"
            }
          ],
          "internalType": "struct IDLPRootCore.DlpRegistration",
          "name": "registrationInfo",
          "type": "tuple"
        }
      ],
      "name": "registerDlp",
      "outputs": [],
      "stateMutability": "payable",
      "type": "function"
    },
    {
      "inputs": [
        {
          "internalType": "uint256",
          "name": "dlpId",
          "type": "uint256"
        },
        {
          "internalType": "uint256",
          "name": "amount",
          "type": "uint256"
        }
      ],
      "name": "removeDlpStake",
      "outputs": [],
      "stateMutability": "nonpayable",
      "type": "function"
    },
    {
      "inputs": [
        {
          "internalType": "bytes32",
          "name": "role",
          "type": "bytes32"
        },
        {
          "internalType": "address",
          "name": "callerConfirmation",
          "type": "address"
        }
      ],
      "name": "renounceRole",
      "outputs": [],
      "stateMutability": "nonpayable",
      "type": "function"
    },
    {
      "inputs": [
        {
          "internalType": "bytes32",
          "name": "role",
          "type": "bytes32"
        },
        {
          "internalType": "address",
          "name": "account",
          "type": "address"
        }
      ],
      "name": "revokeRole",
      "outputs": [],
      "stateMutability": "nonpayable",
      "type": "function"
    },
    {
      "inputs": [
        {
          "internalType": "bytes4",
          "name": "interfaceId",
          "type": "bytes4"
        }
      ],
      "name": "supportsInterface",
      "outputs": [
        {
          "internalType": "bool",
          "name": "",
          "type": "bool"
        }
      ],
      "stateMutability": "view",
      "type": "function"
    },
    {
      "inputs": [],
      "name": "unpause",
      "outputs": [],
      "stateMutability": "nonpayable",
      "type": "function"
    },
    {
      "inputs": [
        {
          "internalType": "uint256",
          "name": "dlpId",
          "type": "uint256"
        },
        {
          "components": [
            {
              "internalType": "address",
              "name": "dlpAddress",
              "type": "address"
            },
            {
              "internalType": "address",
              "name": "ownerAddress",
              "type": "address"
            },
            {
              "internalType": "address payable",
              "name": "treasuryAddress",
              "type": "address"
            },
            {
              "internalType": "uint256",
              "name": "stakersPercentage",
              "type": "uint256"
            },
            {
              "internalType": "string",
              "name": "name",
              "type": "string"
            },
            {
              "internalType": "string",
              "name": "iconUrl",
              "type": "string"
            },
            {
              "internalType": "string",
              "name": "website",
              "type": "string"
            },
            {
              "internalType": "string",
              "name": "metadata",
              "type": "string"
            }
          ],
          "internalType": "struct IDLPRootCore.DlpRegistration",
          "name": "dlpUpdateInfo",
          "type": "tuple"
        }
      ],
      "name": "updateDlp",
      "outputs": [],
      "stateMutability": "nonpayable",
      "type": "function"
    },
    {
      "inputs": [
        {
          "internalType": "uint256",
          "name": "newDlpSubEligibilityThreshold",
          "type": "uint256"
        },
        {
          "internalType": "uint256",
          "name": "newDlpEligibilityThreshold",
          "type": "uint256"
        }
      ],
      "name": "updateDlpEligibilityThresholds",
      "outputs": [],
      "stateMutability": "nonpayable",
      "type": "function"
    },
    {
      "inputs": [
        {
          "internalType": "address",
          "name": "newDlpRootAddress",
          "type": "address"
        }
      ],
      "name": "updateDlpRoot",
      "outputs": [],
      "stateMutability": "nonpayable",
      "type": "function"
    },
    {
      "inputs": [
        {
          "internalType": "uint256",
          "name": "newMinDlpStakersPercentage",
          "type": "uint256"
        },
        {
          "internalType": "uint256",
          "name": "newMaxDlpStakersPercentage",
          "type": "uint256"
        }
      ],
      "name": "updateDlpStakersPercentages",
      "outputs": [],
      "stateMutability": "nonpayable",
      "type": "function"
    },
    {
      "inputs": [
        {
          "internalType": "uint256",
          "name": "dlpId",
          "type": "uint256"
        },
        {
          "internalType": "bool",
          "name": "isVerified",
          "type": "bool"
        }
      ],
      "name": "updateDlpVerification",
      "outputs": [],
      "stateMutability": "nonpayable",
      "type": "function"
    },
    {
      "inputs": [
        {
          "internalType": "uint256",
          "name": "newMinDlpRegistrationStake",
          "type": "uint256"
        }
      ],
      "name": "updateMinDlpRegistrationStake",
      "outputs": [],
      "stateMutability": "nonpayable",
      "type": "function"
    },
    {
      "inputs": [
        {
          "internalType": "address",
          "name": "newImplementation",
          "type": "address"
        },
        {
          "internalType": "bytes",
          "name": "data",
          "type": "bytes"
        }
      ],
      "name": "upgradeToAndCall",
      "outputs": [],
      "stateMutability": "payable",
      "type": "function"
    },
    {
      "inputs": [],
      "name": "version",
      "outputs": [
        {
          "internalType": "uint256",
          "name": "",
          "type": "uint256"
        }
      ],
      "stateMutability": "pure",
      "type": "function"
    }
  ],
  "transactionHash": "0x6df215561b70a783a86b46f435125b1bed4d87d73c017ed21823b954c4e9fdf5",
  "args": [],
  "numDeployments": 1,
  "solcInputHash": "6c8f89815a57a9e17d346d67bf929869",
  "bytecode": "0x60a0604052306080523480156200001557600080fd5b506200002062000026565b620000da565b7ff0c57e16840df040f15088dc2f81fe391c3923bec73e23a9662efc9c229c6a00805468010000000000000000900460ff1615620000775760405163f92ee8a960e01b815260040160405180910390fd5b80546001600160401b0390811614620000d75780546001600160401b0319166001600160401b0390811782556040519081527fc7f505b2f371ae2175ee4913f4499e1f2633a7b5936321eed1cdaeb6115181d29060200160405180910390a15b50565b608051613fae6200010460003960008181612a2901528181612a520152612b960152613fae6000f3fe60806040526004361061020d5760003560e01c806301159c701461021257806301ffc9a714610234578063028f31f31461026957806303a229f61461028d57806305c1c3f4146102af57806307e0cd17146102c2578063098d2f3c146102d85780632393526f146102f857806324404fa714610318578063248a9ca3146103455780632f2ff15d1461036557806336568abe146103855780633f4ba83a146103a55780633fa411f8146103ba578063439b3756146103da578063485cc955146104075780634f1ef286146104275780635266aa901461043a57806352d1902d1461046e57806354fd4d50146104835780635c975abb146104975780635ec47f7d146104ac57806368ed41ed146104cc5780636d352711146104e257806372c9acdc146104f757806373801a881461050d578063776ddebc1461052d5780638456cb59146105655780638e991ff31461057a578063901d97f61461059057806391d14854146105b05780639dc6fe5a146105d05780639f802104146105f0578063a217fddf14610610578063ad3cb1cc14610625578063b4fcea1d14610663578063c06020b014610683578063cdf2003e146106b0578063d25f33e5146106c6578063d547741f146106e8578063ddadf36914610708578063e5c8307d14610728578063ea83e47b14610748578063ec5903f414610768578063ec87621c1461077d578063f8742254146107b1575b600080fd5b34801561021e57600080fd5b5061023261022d3660046133b0565b6107d3565b005b34801561024057600080fd5b5061025461024f3660046133cd565b61080e565b60405190151581526020015b60405180910390f35b34801561027557600080fd5b5061027f60025481565b604051908152602001610260565b34801561029957600080fd5b506102a2610845565b60405161026091906133f7565b6102326102bd366004613454565b610856565b3480156102ce57600080fd5b5061027f60065481565b3480156102e457600080fd5b506102326102f3366004613490565b6108d4565b34801561030457600080fd5b5061027f6103133660046134b2565b610b51565b34801561032457600080fd5b50600054610338906001600160a01b031681565b60405161026091906134cb565b34801561035157600080fd5b5061027f6103603660046134b2565b610b5e565b34801561037157600080fd5b506102326103803660046134df565b610b7e565b34801561039157600080fd5b506102326103a03660046134df565b610b9a565b3480156103b157600080fd5b50610232610bd2565b3480156103c657600080fd5b506102326103d5366004613490565b610bf2565b3480156103e657600080fd5b506103fa6103f53660046133b0565b610ec7565b60405161026091906135a4565b34801561041357600080fd5b506102326104223660046136bd565b610ef1565b6102326104353660046137b0565b61105a565b34801561044657600080fd5b5061027f7fdd3964e50534514b3adc5c2d0d2c4a8426863ff4376360d48539e1f11b5b822f81565b34801561047a57600080fd5b5061027f611079565b34801561048f57600080fd5b50600161027f565b3480156104a357600080fd5b50610254611096565b3480156104b857600080fd5b506102326104c7366004613490565b6110ab565b3480156104d857600080fd5b5061027f60075481565b3480156104ee57600080fd5b5061027f611384565b34801561050357600080fd5b5061027f60035481565b34801561051957600080fd5b50610232610528366004613821565b611390565b34801561053957600080fd5b5061027f610548366004613846565b8051602081830181018051600c8252928201919093012091525481565b34801561057157600080fd5b50610232611516565b34801561058657600080fd5b5061027f60045481565b34801561059c57600080fd5b506102326105ab3660046134b2565b611536565b3480156105bc57600080fd5b506102546105cb3660046134df565b611622565b3480156105dc57600080fd5b506103fa6105eb36600461388e565b611658565b3480156105fc57600080fd5b5061023261060b366004613490565b611690565b34801561061c57600080fd5b5061027f600081565b34801561063157600080fd5b50610656604051806040016040528060058152602001640352e302e360dc1b81525081565b60405161026091906138ff565b34801561066f57600080fd5b5061023261067e3660046134b2565b61173e565b34801561068f57600080fd5b5061027f61069e3660046133b0565b60096020526000908152604090205481565b3480156106bc57600080fd5b5061027f60055481565b3480156106d257600080fd5b5061027f600080516020613f1983398151915281565b3480156106f457600080fd5b506102326107033660046134df565b6119bb565b34801561071457600080fd5b50610232610723366004613912565b6119d7565b34801561073457600080fd5b5061027f610743366004613490565b611db3565b34801561075457600080fd5b506103fa6107633660046134b2565b611dde565b34801561077457600080fd5b5061027f600381565b34801561078957600080fd5b5061027f7f241ecf16d79d0f8dbfb92cbc07fe17840425976cf0667f022fe9877caa831b0881565b3480156107bd57600080fd5b5061027f600080516020613f5983398151915281565b600080516020613f598339815191526107eb8161217f565b50600080546001600160a01b0319166001600160a01b0392909216919091179055565b60006001600160e01b03198216637965db0b60e01b148061083f57506301ffc9a760e01b6001600160e01b03198316145b92915050565b6060610851600a612189565b905090565b61085e612196565b6108666121be565b61086e6121f4565b6001600160a01b03166376bc98696040518163ffffffff1660e01b8152600401600060405180830381600087803b1580156108a857600080fd5b505af11580156108bc573d6000803e3d6000fd5b505050506108c98161226c565b6108d1612770565b50565b600080516020613f198339815191526108ec8161217f565b6000838152600860205260409020610970600b82016109096121f4565b6001600160a01b031663916e1c576040518163ffffffff1660e01b8152600401602060405180830381865afa158015610946573d6000803e3d6000fd5b505050506040513d601f19601f8201168201806040525081019061096a919061394e565b85612781565b5050600c81015460ff1680156109c057506001600982015460ff16600481111561099c5761099c61356c565b14806109c057506003600982015460ff1660048111156109be576109be61356c565b145b80156109e257506005546109d682600b016127b1565b6001600160d01b031610155b15610b4b576109f2600a856127f8565b5060098101805460ff191660021790556000610a0c6121f4565b6001600160a01b031663916e1c576040518163ffffffff1660e01b8152600401602060405180830381865afa158015610a49573d6000803e3d6000fd5b505050506040513d601f19601f82011682018060405250810190610a6d919061394e565b9050600181118015610b045750610a826121f4565b6001600160a01b031663c6b61e4c610a9b60018461397d565b6040518263ffffffff1660e01b8152600401610ab991815260200190565b600060405180830381865afa158015610ad6573d6000803e3d6000fd5b505050506040513d6000823e601f3d908101601f19168201604052610afe9190810190613990565b60600151155b15610b2257604051630a5564fb60e41b815260040160405180910390fd5b84600080516020613f398339815191526002604051610b419190613a93565b60405180910390a2505b50505050565b600061083f600a83612804565b600080610b69612810565b60009384526020525050604090206001015490565b610b8782610b5e565b610b908161217f565b610b4b8383612834565b6001600160a01b0381163314610bc35760405163334bd91960e11b815260040160405180910390fd5b610bcd82826128dc565b505050565b600080516020613f59833981519152610bea8161217f565b6108d1612954565b600080516020613f19833981519152610c0a8161217f565b6000838152600860205260409020610c8e600b8201610c276121f4565b6001600160a01b031663916e1c576040518163ffffffff1660e01b8152600401602060405180830381865afa158015610c64573d6000803e3d6000fd5b505050506040513d601f19601f82011682018060405250810190610c88919061394e565b856129ab565b50506000610c9e82600b016127b1565b6001600160d01b0316905060065481108015610cf457506003600983015460ff166004811115610cd057610cd061356c565b1480610cf457506002600983015460ff166004811115610cf257610cf261356c565b145b15610e615760098201805460ff19166001179055610d13600a866129c6565b506000610d1e6121f4565b6001600160a01b031663916e1c576040518163ffffffff1660e01b8152600401602060405180830381865afa158015610d5b573d6000803e3d6000fd5b505050506040513d601f19601f82011682018060405250810190610d7f919061394e565b9050600181118015610e165750610d946121f4565b6001600160a01b031663c6b61e4c610dad60018461397d565b6040518263ffffffff1660e01b8152600401610dcb91815260200190565b600060405180830381865afa158015610de8573d6000803e3d6000fd5b505050506040513d6000823e601f3d908101601f19168201604052610e109190810190613990565b60600151155b15610e3457604051630a5564fb60e41b815260040160405180910390fd5b85600080516020613f398339815191526001604051610e539190613a93565b60405180910390a250610ec0565b60055481108015610e8a57506002600983015460ff166004811115610e8857610e8861356c565b145b15610ec05760098201805460ff191660039081179091556040518691600080516020613f3983398151915291610b419190613a93565b5050505050565b610ecf6132fe565b6001600160a01b03821660009081526009602052604090205461083f90611dde565b6000610efb6129d2565b805490915060ff600160401b82041615906001600160401b0316600081158015610f225750825b90506000826001600160401b03166001148015610f3e5750303b155b905081158015610f4c575080155b15610f6a5760405163f92ee8a960e01b815260040160405180910390fd5b84546001600160401b03191660011785558315610f9357845460ff60401b1916600160401b1785555b610f9b6129f6565b610fa36129f6565b610fab6129fe565b610fb3612a0e565b600080546001600160a01b0319166001600160a01b038816178155610fd89088612834565b50610ff1600080516020613f5983398151915288612834565b5061100a600080516020613f1983398151915287612834565b50831561105157845460ff60401b19168555604051600181527fc7f505b2f371ae2175ee4913f4499e1f2633a7b5936321eed1cdaeb6115181d29060200160405180910390a15b50505050505050565b611062612a1e565b61106b82612ac3565b6110758282612ace565b5050565b6000611083612b8b565b50600080516020613ef983398151915290565b6000806110a1612bd4565b5460ff1692915050565b600080516020613f598339815191526110c38161217f565b662386f26fc100008310806110d757508183115b156110f557604051633494a40d60e21b815260040160405180910390fd5b600283905560038290556040518381527fcf130ebf0154d300b5d8c2c20f243f2e34a4dbbd54ddd70492f35f89f5c72e009060200160405180910390a16040518281527f597ef447da3fcf95d1df392ba918a66ae2de15f4b5f47371c336b4e99a57008f9060200160405180910390a160075460015b818111610ec05760008181526008602052604090206004600982015460ff16600481111561119b5761119b61356c565b1461137b5760006111ae826004016127b1565b6001600160d01b031690508681101561129b57611237826004016111d06121f4565b6001600160a01b031663916e1c576040518163ffffffff1660e01b8152600401602060405180830381865afa15801561120d573d6000803e3d6000fd5b505050506040513d601f19601f82011682018060405250810190611231919061394e565b89612bf8565b50506001820154600283015460038401546040516001600160a01b03938416938793600080516020613ed98339815191529361128e939183169216908d9060058a019060068b019060078c019060088d0190613b52565b60405180910390a3611379565b8581111561137957611319826004016112b26121f4565b6001600160a01b031663916e1c576040518163ffffffff1660e01b8152600401602060405180830381865afa1580156112ef573d6000803e3d6000fd5b505050506040513d601f19601f82011682018060405250810190611313919061394e565b88612bf8565b50506001820154600283015460038401546040516001600160a01b03938416938793600080516020613ed983398151915293611370939183169216908c9060058a019060068b019060078c019060088d0190613b52565b60405180910390a35b505b5060010161116b565b6000610851600a612c06565b600080516020613f598339815191526113a88161217f565b6000838152600860205260408120600c8101805460ff191685151517905590600982015460ff1660048111156113e0576113e061356c565b148061140457506004600982015460ff1660048111156114025761140261356c565b145b1561142257604051636e1ed6c560e11b815260040160405180910390fd5b837fe11c4b38855d86735092f8c7e790a86765bacd0fe47618b41eb0c5142aea69c884604051611456911515815260200190565b60405180910390a260055461146d82600b016127b1565b6001600160d01b031610610b4b5782156114cb5761148c600a856127f8565b5060098101805460ff191660029081179091556040518591600080516020613f39833981519152916114be9190613a93565b60405180910390a2610b4b565b6114d6600a856129c6565b5060098101805460ff191660019081179091556040518591600080516020613f39833981519152916115089190613a93565b60405180910390a250505050565b600080516020613f5983398151915261152e8161217f565b6108d1612c10565b600080516020613f5983398151915261154e8161217f565b60005460408051633c621da160e21b8152905184926001600160a01b03169163f18876849160048083019260209291908290030181865afa158015611597573d6000803e3d6000fd5b505050506040513d601f19601f820116820180604052508101906115bb919061394e565b11806115c8575060065482115b156115e657604051633494a40d60e21b815260040160405180910390fd5b60048290556040518281527ff2a6752ea06dfdf93ef2d0ac5db269e4d58636cd56f160ed0c96e0a0a272362a9060200160405180910390a15050565b60008061162d612810565b6000948552602090815260408086206001600160a01b03959095168652939052505090205460ff1690565b6116606132fe565b611689600c8484604051611675929190613bcd565b908152602001604051809103902054611dde565b9392505050565b600080516020613f598339815191526116a88161217f565b818311156116c957604051633494a40d60e21b815260040160405180910390fd5b600683905560058290556040518381527f5486872ddb5ca216cd9cb1f6e2e232e468aa32e312fbccba2ffb5edc831cfb2c9060200160405180910390a16040518281527f97eca98512abc502b3bb1ef19702bf7eb53a988b87fd250138fbbfd1b62782c99060200160405180910390a1505050565b611746612196565b61174e6121be565b60008181526008602052604090206002015481906001600160a01b0316331461178a57604051633387d70760e01b815260040160405180910390fd5b6117926121f4565b6001600160a01b03166376bc98696040518163ffffffff1660e01b8152600401600060405180830381600087803b1580156117cc57600080fd5b505af11580156117e0573d6000803e3d6000fd5b50505060008381526008602052604081209150600982015460ff16600481111561180c5761180c61356c565b148061183057506004600982015460ff16600481111561182e5761182e61356c565b145b1561184e57604051636e1ed6c560e11b815260040160405180910390fd5b60098101805460ff19166004179055611868600a846129c6565b5060006118736121f4565b6001600160a01b031663916e1c576040518163ffffffff1660e01b8152600401602060405180830381865afa1580156118b0573d6000803e3d6000fd5b505050506040513d601f19601f820116820180604052508101906118d4919061394e565b905060018111801561196b57506118e96121f4565b6001600160a01b031663c6b61e4c61190260018461397d565b6040518263ffffffff1660e01b815260040161192091815260200190565b600060405180830381865afa15801561193d573d6000803e3d6000fd5b505050506040513d6000823e601f3d908101601f191682016040526119659190810190613990565b60600151155b1561198957604051630a5564fb60e41b815260040160405180910390fd5b83600080516020613f3983398151915260046040516119a89190613a93565b60405180910390a25050506108d1612770565b6119c482610b5e565b6119cd8161217f565b610b4b83836128dc565b6119df612196565b6119e76121be565b60008281526008602052604090206002015482906001600160a01b03163314611a2357604051633387d70760e01b815260040160405180910390fd5b611a2b6121f4565b6001600160a01b03166376bc98696040518163ffffffff1660e01b8152600401600060405180830381600087803b158015611a6557600080fd5b505af1158015611a79573d6000803e3d6000fd5b5060009250611a9191505060408401602085016133b0565b6001600160a01b03161480611abe57506000611ab360608401604085016133b0565b6001600160a01b0316145b15611adc5760405163e6c4247b60e01b815260040160405180910390fd5b60025482606001351080611af557506003548260600135115b15611b135760405163d1be20e560e01b815260040160405180910390fd5b600083815260086020908152604090912090611b31908401846133b0565b60018201546001600160a01b03908116911614611b6157604051630cd0dd4360e11b815260040160405180910390fd5b611b7160408401602085016133b0565b6002820180546001600160a01b0319166001600160a01b0392909216919091179055611ba360608401604085016133b0565b6003820180546001600160a01b0319166001600160a01b03929092169190911790556060830135611bd6600483016127b1565b6001600160d01b031614611c6157611c5e81600401611bf36121f4565b6001600160a01b031663916e1c576040518163ffffffff1660e01b8152600401602060405180830381865afa158015611c30573d6000803e3d6000fd5b505050506040513d601f19601f82011682018060405250810190611c54919061394e565b8560600135612bf8565b50505b611c6e6080840184613bdd565b6005830191611c7e919083613c7a565b50611c8c60a0840184613bdd565b6006830191611c9c919083613c7a565b50611caa60c0840184613bdd565b6007830191611cba919083613c7a565b50611cc860e0840184613bdd565b6008830191611cd8919083613c7a565b508360096000611ceb60208701876133b0565b6001600160a01b0316815260208082019290925260400160002091909155611d15908401846133b0565b6001600160a01b031684600080516020613ed9833981519152611d3e60408701602088016133b0565b611d4e60608801604089016133b0565b6060880135611d6060808a018a613bdd565b611d6d60a08c018c613bdd565b611d7a60c08e018e613bdd565b8e8060e00190611d8a9190613bdd565b604051611da19b9a99989796959493929190613d62565b60405180910390a35050611075612770565b6000828152600860205260408120611dce90600b0183612c57565b6001600160d01b03169392505050565b611de66132fe565b60008281526008602090815260409182902082516101c0810184528154815260018201546001600160a01b03908116938201939093526002820154831693810193909352600381015490911660608301529060808101611e48600484016127b1565b6001600160d01b03168152602001611ecc611e616121f4565b6001600160a01b031663916e1c576040518163ffffffff1660e01b8152600401602060405180830381865afa158015611e9e573d6000803e3d6000fd5b505050506040513d601f19601f82011682018060405250810190611ec2919061394e565b6004850190612c57565b6001600160d01b03168152602001826005018054611ee990613aa1565b80601f0160208091040260200160405190810160405280929190818152602001828054611f1590613aa1565b8015611f625780601f10611f3757610100808354040283529160200191611f62565b820191906000526020600020905b815481529060010190602001808311611f4557829003601f168201915b50505050508152602001826006018054611f7b90613aa1565b80601f0160208091040260200160405190810160405280929190818152602001828054611fa790613aa1565b8015611ff45780601f10611fc957610100808354040283529160200191611ff4565b820191906000526020600020905b815481529060010190602001808311611fd757829003601f168201915b5050505050815260200182600701805461200d90613aa1565b80601f016020809104026020016040519081016040528092919081815260200182805461203990613aa1565b80156120865780601f1061205b57610100808354040283529160200191612086565b820191906000526020600020905b81548152906001019060200180831161206957829003601f168201915b5050505050815260200182600801805461209f90613aa1565b80601f01602080910402602001604051908101604052809291908181526020018280546120cb90613aa1565b80156121185780601f106120ed57610100808354040283529160200191612118565b820191906000526020600020905b8154815290600101906020018083116120fb57829003601f168201915b5050509183525050600983015460209091019060ff16600481111561213f5761213f61356c565b815260200182600a0154815260200161215a83600b016127b1565b6001600160d01b03168152600c9092015460ff16151560209092019190915292915050565b6108d18133612ca2565b6060600061168983612cdb565b61219e611096565b156121bc5760405163d93c066560e01b815260040160405180910390fd5b565b60006121c8612d37565b8054909150600119016121ee57604051633ee5aeb560e01b815260040160405180910390fd5b60029055565b60008060009054906101000a90046001600160a01b03166001600160a01b03166320930fa46040518163ffffffff1660e01b8152600401602060405180830381865afa158015612248573d6000803e3d6000fd5b505050506040513d601f19601f820116820180604052508101906108519190613de5565b600061227e60408301602084016133b0565b6001600160a01b031614806122ab575060006122a060608301604084016133b0565b6001600160a01b0316145b156122c95760405163e6c4247b60e01b815260040160405180910390fd5b600960006122da60208401846133b0565b6001600160a01b031681526020810191909152604001600020541561231257604051636e1ed6c560e11b815260040160405180910390fd5b600c6123216080830183613bdd565b60405161232f929190613bcd565b908152602001604051809103902054600014158061235957506123556080820182613bdd565b1590505b156123775760405163430f13b360e01b815260040160405180910390fd5b6002548160600135108061239057506003548160600135115b156123ae5760405163d1be20e560e01b815260040160405180910390fd5b6004543410156123d157604051630103be3b60e21b815260040160405180910390fd5b60006007600081546123e290613e02565b918290555060008181526008602052604081209192506124006121f4565b6001600160a01b031663916e1c576040518163ffffffff1660e01b8152600401602060405180830381865afa15801561243d573d6000803e3d6000fd5b505050506040513d601f19601f82011682018060405250810190612461919061394e565b838355905061247360208501856133b0565b6001830180546001600160a01b0319166001600160a01b03929092169190911790556124a560408501602086016133b0565b6002830180546001600160a01b0319166001600160a01b03929092169190911790556124d760608501604086016133b0565b6003830180546001600160a01b0319166001600160a01b0392909216919091179055612521600483018261250c576000612517565b61251760018461397d565b8660600135612bf8565b5061253190506080850185613bdd565b6005840191612541919083613c7a565b5061254f60a0850185613bdd565b600684019161255f919083613c7a565b5061256d60c0850185613bdd565b600784019161257d919083613c7a565b5061258b60e0850185613bdd565b600884019161259b919083613c7a565b5043600a8301556009808301805460ff19166001179055839060006125c360208801886133b0565b6001600160a01b0316815260208101919091526040016000205582600c6125ed6080870187613bdd565b6040516125fb929190613bcd565b908152604051602091819003820190209190915561261b908501856133b0565b6001600160a01b0316837fb7474aa65f72ae77dbf02c6bd0a0d85749e7101f97fc94d524af373e832dc06a61265660408801602089016133b0565b6126666060890160408a016133b0565b606089013561267860808b018b613bdd565b61268560a08d018d613bdd565b61269260c08f018f613bdd565b8f8060e001906126a29190613bdd565b6040516126b99b9a99989796959493929190613d62565b60405180910390a382600080516020613f3983398151915260016040516126e09190613a93565b60405180910390a26000546001600160a01b031663d4e90b97348561270b6040890160208a016133b0565b6040516001600160e01b031960e086901b16815260048101929092526001600160a01b031660248201526044016000604051808303818588803b15801561275157600080fd5b505af1158015612765573d6000803e3d6000fd5b505050505050505050565b600061277a612d37565b6001905550565b6000806127a48484612792886127b1565b61279c9190613e1b565b879190612d5b565b915091505b935093915050565b805460009080156127ef576127d9836127cb60018461397d565b600091825260209091200190565b54600160301b90046001600160d01b0316611689565b60009392505050565b60006116898383612d69565b60006116898383612db8565b7f02dd7bc7dec4dceedda775e58dd541e08a116c6c53815c0bd028192f7b62680090565b60008061283f612810565b905061284b8484611622565b6128cb576000848152602082815260408083206001600160a01b03871684529091529020805460ff191660011790556128813390565b6001600160a01b0316836001600160a01b0316857f2f8788117e7eff1d82e926ec794901d17c78024a50270940304540a733656f0d60405160405180910390a4600191505061083f565b600091505061083f565b5092915050565b6000806128e7612810565b90506128f38484611622565b156128cb576000848152602082815260408083206001600160a01b0387168085529252808320805460ff1916905551339287917ff6391f5c32d9c69d2a47ea670b442974b53935d1edc7fd64eb21e047a839171b9190a4600191505061083f565b61295c612de2565b6000612966612bd4565b805460ff1916815590507f5db9ee0a495bf2e6ff9c91a7834c1ba4fdd244a5e8aa4e537bd38aeae4b073aa335b6040516129a091906134cb565b60405180910390a150565b6000806127a484846129bc886127b1565b61279c9190613e3b565b60006116898383612e07565b7ff0c57e16840df040f15088dc2f81fe391c3923bec73e23a9662efc9c229c6a0090565b6121bc612ef0565b612a06612ef0565b6121bc612f15565b612a16612ef0565b6121bc612f1d565b306001600160a01b037f0000000000000000000000000000000000000000000000000000000000000000161480612aa557507f00000000000000000000000000000000000000000000000000000000000000006001600160a01b0316612a99600080516020613ef9833981519152546001600160a01b031690565b6001600160a01b031614155b156121bc5760405163703e46dd60e11b815260040160405180910390fd5b60006110758161217f565b816001600160a01b03166352d1902d6040518163ffffffff1660e01b8152600401602060405180830381865afa925050508015612b28575060408051601f3d908101601f19168201909252612b259181019061394e565b60015b612b505781604051634c9c8ce360e01b8152600401612b4791906134cb565b60405180910390fd5b600080516020613ef98339815191528114612b8157604051632a87526960e21b815260048101829052602401612b47565b610bcd8383612f3a565b306001600160a01b037f000000000000000000000000000000000000000000000000000000000000000016146121bc5760405163703e46dd60e11b815260040160405180910390fd5b7fcd5ed15c6e187e77e9aee88184c21f4f2182ab5827cb3b7e07fbedcd63f0330090565b6000806127a4858585612d5b565b600061083f825490565b612c18612196565b6000612c22612bd4565b805460ff1916600117815590507f62e78cea01bee320cd4e420270b5ea74000d11b0c9f74754ebdbfc544b05a2586129933390565b815460009081612c6985858385612f90565b90508015612c9657612c80856127cb60018461397d565b54600160301b90046001600160d01b0316612c99565b60005b95945050505050565b612cac8282611622565b6110755760405163e2517d3f60e01b81526001600160a01b038216600482015260248101839052604401612b47565b606081600001805480602002602001604051908101604052809291908181526020018280548015612d2b57602002820191906000526020600020905b815481526020019060010190808311612d17575b50505050509050919050565b7f9b779b17422d0df92223018b32b4d1fa46e071723d6817e2486d003becc55f0090565b6000806127a4858585612ff2565b6000818152600183016020526040812054612db05750815460018181018455600084815260208082209093018490558454848252828601909352604090209190915561083f565b50600061083f565b6000826000018281548110612dcf57612dcf613e5b565b9060005260206000200154905092915050565b612dea611096565b6121bc57604051638dfc202b60e01b815260040160405180910390fd5b600081815260018301602052604081205480156128cb576000612e2b60018361397d565b8554909150600090612e3f9060019061397d565b9050808214612ea4576000866000018281548110612e5f57612e5f613e5b565b9060005260206000200154905080876000018481548110612e8257612e82613e5b565b6000918252602080832090910192909255918252600188019052604090208390555b8554869080612eb557612eb5613e71565b60019003818190600052602060002001600090559055856001016000868152602001908152602001600020600090556001935050505061083f565b612ef861316c565b6121bc57604051631afcd79f60e31b815260040160405180910390fd5b612770612ef0565b612f25612ef0565b6000612f2f612bd4565b805460ff1916905550565b612f4382613186565b6040516001600160a01b038316907fbc7cd75a20ee27fd9adebab32041f755214dbc6bffa90cc0225b39da2e5c2d3b90600090a2805115612f8857610bcd82826131e2565b61107561324f565b60005b81831015612fea576000612fa7848461326e565b60008781526020902090915065ffffffffffff86169082015465ffffffffffff161115612fd657809250612fe4565b612fe1816001613e87565b93505b50612f93565b509392505050565b825460009081908015613111576000613010876127cb60018561397d565b60408051808201909152905465ffffffffffff808216808452600160301b9092046001600160d01b03166020840152919250908716101561306457604051632520601d60e01b815260040160405180910390fd5b805165ffffffffffff8088169116036130b05784613087886127cb60018661397d565b80546001600160d01b0392909216600160301b0265ffffffffffff909216919091179055613101565b6040805180820190915265ffffffffffff80881682526001600160d01b0380881660208085019182528b54600181018d5560008d81529190912094519151909216600160301b029216919091179101555b6020015192508391506127a99050565b50506040805180820190915265ffffffffffff80851682526001600160d01b0380851660208085019182528854600181018a5560008a815291822095519251909316600160301b0291909316179201919091559050816127a9565b60006131766129d2565b54600160401b900460ff16919050565b806001600160a01b03163b6000036131b35780604051634c9c8ce360e01b8152600401612b4791906134cb565b600080516020613ef983398151915280546001600160a01b0319166001600160a01b0392909216919091179055565b6060600080846001600160a01b0316846040516131ff9190613e9a565b600060405180830381855af49150503d806000811461323a576040519150601f19603f3d011682016040523d82523d6000602084013e61323f565b606091505b5091509150612c99858383613289565b34156121bc5760405163b398979f60e01b815260040160405180910390fd5b600061327d6002848418613eb6565b61168990848416613e87565b60608261329e57613299826132d5565b611689565b81511580156132b557506001600160a01b0384163b155b156128d55783604051639996b31560e01b8152600401612b4791906134cb565b8051156132e55780518082602001fd5b604051630a12f52160e11b815260040160405180910390fd5b604051806101c001604052806000815260200160006001600160a01b0316815260200160006001600160a01b0316815260200160006001600160a01b031681526020016000815260200160008152602001606081526020016060815260200160608152602001606081526020016000600481111561337e5761337e61356c565b815260200160008152602001600081526020016000151581525090565b6001600160a01b03811681146108d157600080fd5b6000602082840312156133c257600080fd5b81356116898161339b565b6000602082840312156133df57600080fd5b81356001600160e01b03198116811461168957600080fd5b6020808252825182820181905260009190848201906040850190845b8181101561342f57835183529284019291840191600101613413565b50909695505050505050565b6000610100828403121561344e57600080fd5b50919050565b60006020828403121561346657600080fd5b81356001600160401b0381111561347c57600080fd5b6134888482850161343b565b949350505050565b600080604083850312156134a357600080fd5b50508035926020909101359150565b6000602082840312156134c457600080fd5b5035919050565b6001600160a01b0391909116815260200190565b600080604083850312156134f257600080fd5b8235915060208301356135048161339b565b809150509250929050565b6001600160a01b03169052565b60005b8381101561353757818101518382015260200161351f565b50506000910152565b6000815180845261355881602086016020860161351c565b601f01601f19169290920160200192915050565b634e487b7160e01b600052602160045260246000fd5b600581106135a057634e487b7160e01b600052602160045260246000fd5b9052565b6020815281516020820152600060208301516135c3604084018261350f565b5060408301516135d6606084018261350f565b5060608301516135e9608084018261350f565b50608083015160a083015260a083015160c083015260c08301516101c08060e085015261361a6101e0850183613540565b915060e0850151601f1961010081878603018188015261363a8584613540565b9450808801519250506101208187860301818801526136598584613540565b9450808801519250506101408187860301818801526136788584613540565b9450808801519250505061016061369181870183613582565b860151610180868101919091528601516101a08087019190915290950151151593019290925250919050565b600080604083850312156136d057600080fd5b82356136db8161339b565b915060208301356135048161339b565b634e487b7160e01b600052604160045260246000fd5b60405160a081016001600160401b0381118282101715613723576137236136eb565b60405290565b604051601f8201601f191681016001600160401b0381118282101715613751576137516136eb565b604052919050565b60006001600160401b03831115613772576137726136eb565b613785601f8401601f1916602001613729565b905082815283838301111561379957600080fd5b828260208301376000602084830101529392505050565b600080604083850312156137c357600080fd5b82356137ce8161339b565b915060208301356001600160401b038111156137e957600080fd5b8301601f810185136137fa57600080fd5b61380985823560208401613759565b9150509250929050565b80151581146108d157600080fd5b6000806040838503121561383457600080fd5b82359150602083013561350481613813565b60006020828403121561385857600080fd5b81356001600160401b0381111561386e57600080fd5b8201601f8101841361387f57600080fd5b61348884823560208401613759565b600080602083850312156138a157600080fd5b82356001600160401b03808211156138b857600080fd5b818501915085601f8301126138cc57600080fd5b8135818111156138db57600080fd5b8660208285010111156138ed57600080fd5b60209290920196919550909350505050565b6020815260006116896020830184613540565b6000806040838503121561392557600080fd5b8235915060208301356001600160401b0381111561394257600080fd5b6138098582860161343b565b60006020828403121561396057600080fd5b5051919050565b634e487b7160e01b600052601160045260246000fd5b8181038181111561083f5761083f613967565b600060208083850312156139a357600080fd5b82516001600160401b03808211156139ba57600080fd5b9084019060a082870312156139ce57600080fd5b6139d6613701565b8251815283830151848201526040830151604082015260608301516139fa81613813565b6060820152608083015182811115613a1157600080fd5b80840193505086601f840112613a2657600080fd5b825182811115613a3857613a386136eb565b8060051b9250613a49858401613729565b8181529284018501928581019089851115613a6357600080fd5b948601945b84861015613a8157855182529486019490860190613a68565b60808401525090979650505050505050565b6020810161083f8284613582565b600181811c90821680613ab557607f821691505b60208210810361344e57634e487b7160e01b600052602260045260246000fd5b60008154613ae281613aa1565b808552602060018381168015613aff5760018114613b1957613b47565b60ff1985168884015283151560051b880183019550613b47565b866000528260002060005b85811015613b3f5781548a8201860152908301908401613b24565b890184019650505b505050505092915050565b6001600160a01b038881168252871660208201526040810186905260e060608201819052600090613b8590830187613ad5565b8281036080840152613b978187613ad5565b905082810360a0840152613bab8186613ad5565b905082810360c0840152613bbf8185613ad5565b9a9950505050505050505050565b8183823760009101908152919050565b6000808335601e19843603018112613bf457600080fd5b8301803591506001600160401b03821115613c0e57600080fd5b602001915036819003821315613c2357600080fd5b9250929050565b601f821115610bcd576000816000526020600020601f850160051c81016020861015613c535750805b601f850160051c820191505b81811015613c7257828155600101613c5f565b505050505050565b6001600160401b03831115613c9157613c916136eb565b613ca583613c9f8354613aa1565b83613c2a565b6000601f841160018114613cd95760008515613cc15750838201355b600019600387901b1c1916600186901b178355610ec0565b600083815260209020601f19861690835b82811015613d0a5786850135825560209485019460019092019101613cea565b5086821015613d275760001960f88860031b161c19848701351681555b505060018560011b0183555050505050565b81835281816020850137506000828201602090810191909152601f909101601f19169091010190565b6001600160a01b038c811682528b166020820152604081018a905260e060608201819052600090613d969083018a8c613d39565b8281036080840152613da981898b613d39565b905082810360a0840152613dbe818789613d39565b905082810360c0840152613dd3818587613d39565b9e9d5050505050505050505050505050565b600060208284031215613df757600080fd5b81516116898161339b565b600060018201613e1457613e14613967565b5060010190565b6001600160d01b038181168382160190808211156128d5576128d5613967565b6001600160d01b038281168282160390808211156128d5576128d5613967565b634e487b7160e01b600052603260045260246000fd5b634e487b7160e01b600052603160045260246000fd5b8082018082111561083f5761083f613967565b60008251613eac81846020870161351c565b9190910192915050565b600082613ed357634e487b7160e01b600052601260045260246000fd5b50049056fedfb704f30cb8b5a69562201718d3bdfd1299983f120f8ff3932b295bfa15aede360894a13ba1a3210667c828492db98dca3e2076cc3735a920a3ca505d382bbc7a1532a7a87f7aacbb5e1d89fc13c95143d976fa27740467ab52d352a319ec6b77c6570970c38bcbef0f4075021f00b93c11bf5ecdb11f0a03db50dcbf584ad8339759585899103d2ace64958e37e18ccb0504652c81d4a1b8aa80fe2126ab95a26469706673582212203be6100a51ea37c6278d00886a9dc33dd00cbbe06ff5c12687633f91660d591564736f6c63430008180033",
  "devdoc": {
    "errors": {
      "AccessControlBadConfirmation()": [
        {
          "details": "The caller of a function is not the expected one. NOTE: Don't confuse with {AccessControlUnauthorizedAccount}."
        }
      ],
      "AccessControlUnauthorizedAccount(address,bytes32)": [
        {
          "details": "The `account` is missing a role."
        }
      ],
      "AddressEmptyCode(address)": [
        {
          "details": "There's no code at `target` (it is not a contract)."
        }
      ],
      "CheckpointUnorderedInsertion()": [
        {
          "details": "A value was attempted to be inserted on a past checkpoint."
        }
      ],
      "ERC1967InvalidImplementation(address)": [
        {
          "details": "The `implementation` of the proxy is invalid."
        }
      ],
      "ERC1967NonPayable()": [
        {
          "details": "An upgrade function sees `msg.value > 0` that may be lost."
        }
      ],
      "EnforcedPause()": [
        {
          "details": "The operation failed because the contract is paused."
        }
      ],
      "ExpectedPause()": [
        {
          "details": "The operation failed because the contract is not paused."
        }
      ],
      "FailedInnerCall()": [
        {
          "details": "A call to an address target failed. The target may have reverted."
        }
      ],
      "InvalidInitialization()": [
        {
          "details": "The contract is already initialized."
        }
      ],
      "NotInitializing()": [
        {
          "details": "The contract is not initializing."
        }
      ],
      "ReentrancyGuardReentrantCall()": [
        {
          "details": "Unauthorized reentrant call."
        }
      ],
      "UUPSUnauthorizedCallContext()": [
        {
          "details": "The call is from an unauthorized context."
        }
      ],
      "UUPSUnsupportedProxiableUUID(bytes32)": [
        {
          "details": "The storage `slot` is unsupported as a UUID."
        }
      ]
    },
    "events": {
      "Initialized(uint64)": {
        "details": "Triggered when the contract has been initialized or reinitialized."
      },
      "Paused(address)": {
        "details": "Emitted when the pause is triggered by `account`."
      },
      "RoleAdminChanged(bytes32,bytes32,bytes32)": {
        "details": "Emitted when `newAdminRole` is set as ``role``'s admin role, replacing `previousAdminRole` `DEFAULT_ADMIN_ROLE` is the starting admin for all roles, despite {RoleAdminChanged} not being emitted signaling this."
      },
      "RoleGranted(bytes32,address,address)": {
        "details": "Emitted when `account` is granted `role`. `sender` is the account that originated the contract call, an admin role bearer except when using {AccessControl-_setupRole}."
      },
      "RoleRevoked(bytes32,address,address)": {
        "details": "Emitted when `account` is revoked `role`. `sender` is the account that originated the contract call:   - if using `revokeRole`, it is the admin role bearer   - if using `renounceRole`, it is the role bearer (i.e. `account`)"
      },
      "Unpaused(address)": {
        "details": "Emitted when the pause is lifted by `account`."
      },
      "Upgraded(address)": {
        "details": "Emitted when the implementation is upgraded."
      }
    },
    "kind": "dev",
    "methods": {
      "constructor": {
        "custom:oz-upgrades-unsafe-allow": "constructor"
      },
      "deregisterDlp(uint256)": {
        "details": "Only owner can deregister, must be in valid status"
      },
      "getRoleAdmin(bytes32)": {
        "details": "Returns the admin role that controls `role`. See {grantRole} and {revokeRole}. To change a role's admin, use {_setRoleAdmin}."
      },
      "grantRole(bytes32,address)": {
        "details": "Grants `role` to `account`. If `account` had not been already granted `role`, emits a {RoleGranted} event. Requirements: - the caller must have ``role``'s admin role. May emit a {RoleGranted} event."
      },
      "hasRole(bytes32,address)": {
        "details": "Returns `true` if `account` has been granted `role`."
      },
      "paused()": {
        "details": "Returns true if the contract is paused, and false otherwise."
      },
      "proxiableUUID()": {
        "details": "Implementation of the ERC1822 {proxiableUUID} function. This returns the storage slot used by the implementation. It is used to validate the implementation's compatibility when performing an upgrade. IMPORTANT: A proxy pointing at a proxiable contract should not be considered proxiable itself, because this risks bricking a proxy that upgrades to it, by delegating to itself until out of gas. Thus it is critical that this function revert if invoked through a proxy. This is guaranteed by the `notDelegated` modifier."
      },
      "renounceRole(bytes32,address)": {
        "details": "Revokes `role` from the calling account. Roles are often managed via {grantRole} and {revokeRole}: this function's purpose is to provide a mechanism for accounts to lose their privileges if they are compromised (such as when a trusted device is misplaced). If the calling account had been revoked `role`, emits a {RoleRevoked} event. Requirements: - the caller must be `callerConfirmation`. May emit a {RoleRevoked} event."
      },
      "revokeRole(bytes32,address)": {
        "details": "Revokes `role` from `account`. If `account` had been granted `role`, emits a {RoleRevoked} event. Requirements: - the caller must have ``role``'s admin role. May emit a {RoleRevoked} event."
      },
      "supportsInterface(bytes4)": {
        "details": "See {IERC165-supportsInterface}."
      },
      "updateDlp(uint256,(address,address,address,uint256,string,string,string,string))": {
        "details": "Only DLP owner can update"
      },
      "upgradeToAndCall(address,bytes)": {
        "custom:oz-upgrades-unsafe-allow-reachable": "delegatecall",
        "details": "Upgrade the implementation of the proxy to `newImplementation`, and subsequently execute the function call encoded in `data`. Calls {_authorizeUpgrade}. Emits an {Upgraded} event."
      }
    },
    "version": 1
  },
  "userdoc": {
    "kind": "user",
    "methods": {
      "deregisterDlp(uint256)": {
        "notice": "Deregisters a DLP"
      },
      "dlps(uint256)": {
        "notice": "Gets DLP information including current stake and status"
      },
      "registerDlp((address,address,address,uint256,string,string,string,string))": {
        "notice": "Registers a new DLP with initial stake"
      },
      "updateDlp(uint256,(address,address,address,uint256,string,string,string,string))": {
        "notice": "Updates DLP information"
      },
      "updateDlpEligibilityThresholds(uint256,uint256)": {
        "notice": "Updates eligibility thresholds"
      }
    },
    "version": 1
  },
  "storageLayout": {
    "storage": [
      {
        "astId": 7175,
        "contract": "contracts/rootCore/DLPRootCoreImplementation.sol:DLPRootCoreImplementation",
        "label": "dlpRoot",
        "offset": 0,
        "slot": "0",
        "type": "t_contract(IDLPRoot)5567"
      },
      {
        "astId": 7177,
        "contract": "contracts/rootCore/DLPRootCoreImplementation.sol:DLPRootCoreImplementation",
        "label": "eligibleDlpsLimit",
        "offset": 0,
        "slot": "1",
        "type": "t_uint256"
      },
      {
        "astId": 7180,
        "contract": "contracts/rootCore/DLPRootCoreImplementation.sol:DLPRootCoreImplementation",
        "label": "minDlpStakersPercentage",
        "offset": 0,
        "slot": "2",
        "type": "t_uint256"
      },
      {
        "astId": 7183,
        "contract": "contracts/rootCore/DLPRootCoreImplementation.sol:DLPRootCoreImplementation",
        "label": "maxDlpStakersPercentage",
        "offset": 0,
        "slot": "3",
        "type": "t_uint256"
      },
      {
        "astId": 7186,
        "contract": "contracts/rootCore/DLPRootCoreImplementation.sol:DLPRootCoreImplementation",
        "label": "minDlpRegistrationStake",
        "offset": 0,
        "slot": "4",
        "type": "t_uint256"
      },
      {
        "astId": 7189,
        "contract": "contracts/rootCore/DLPRootCoreImplementation.sol:DLPRootCoreImplementation",
        "label": "dlpEligibilityThreshold",
        "offset": 0,
        "slot": "5",
        "type": "t_uint256"
      },
      {
        "astId": 7192,
        "contract": "contracts/rootCore/DLPRootCoreImplementation.sol:DLPRootCoreImplementation",
        "label": "dlpSubEligibilityThreshold",
        "offset": 0,
        "slot": "6",
        "type": "t_uint256"
      },
      {
        "astId": 7195,
        "contract": "contracts/rootCore/DLPRootCoreImplementation.sol:DLPRootCoreImplementation",
        "label": "dlpsCount",
        "offset": 0,
        "slot": "7",
        "type": "t_uint256"
      },
      {
        "astId": 7200,
        "contract": "contracts/rootCore/DLPRootCoreImplementation.sol:DLPRootCoreImplementation",
        "label": "_dlps",
        "offset": 0,
        "slot": "8",
        "type": "t_mapping(t_uint256,t_struct(Dlp)7260_storage)"
      },
      {
        "astId": 7205,
        "contract": "contracts/rootCore/DLPRootCoreImplementation.sol:DLPRootCoreImplementation",
        "label": "dlpIds",
        "offset": 0,
        "slot": "9",
        "type": "t_mapping(t_address,t_uint256)"
      },
      {
        "astId": 7208,
        "contract": "contracts/rootCore/DLPRootCoreImplementation.sol:DLPRootCoreImplementation",
        "label": "_eligibleDlpsList",
        "offset": 0,
        "slot": "10",
        "type": "t_struct(UintSet)5079_storage"
      },
      {
        "astId": 7213,
        "contract": "contracts/rootCore/DLPRootCoreImplementation.sol:DLPRootCoreImplementation",
        "label": "dlpNameToId",
        "offset": 0,
        "slot": "12",
        "type": "t_mapping(t_string_memory_ptr,t_uint256)"
      }
    ],
    "types": {
      "t_address": {
        "encoding": "inplace",
        "label": "address",
        "numberOfBytes": "20"
      },
      "t_address_payable": {
        "encoding": "inplace",
        "label": "address payable",
        "numberOfBytes": "20"
      },
      "t_array(t_bytes32)dyn_storage": {
        "base": "t_bytes32",
        "encoding": "dynamic_array",
        "label": "bytes32[]",
        "numberOfBytes": "32"
      },
      "t_array(t_struct(Checkpoint208)3563_storage)dyn_storage": {
        "base": "t_struct(Checkpoint208)3563_storage",
        "encoding": "dynamic_array",
        "label": "struct Checkpoints.Checkpoint208[]",
        "numberOfBytes": "32"
      },
      "t_bool": {
        "encoding": "inplace",
        "label": "bool",
        "numberOfBytes": "1"
      },
      "t_bytes32": {
        "encoding": "inplace",
        "label": "bytes32",
        "numberOfBytes": "32"
      },
      "t_contract(IDLPRoot)5567": {
        "encoding": "inplace",
        "label": "contract IDLPRoot",
        "numberOfBytes": "20"
      },
      "t_enum(DlpStatus)7230": {
        "encoding": "inplace",
        "label": "enum IDLPRootCore.DlpStatus",
        "numberOfBytes": "1"
      },
      "t_mapping(t_address,t_uint256)": {
        "encoding": "mapping",
        "key": "t_address",
        "label": "mapping(address => uint256)",
        "numberOfBytes": "32",
        "value": "t_uint256"
      },
      "t_mapping(t_bytes32,t_uint256)": {
        "encoding": "mapping",
        "key": "t_bytes32",
        "label": "mapping(bytes32 => uint256)",
        "numberOfBytes": "32",
        "value": "t_uint256"
      },
      "t_mapping(t_string_memory_ptr,t_uint256)": {
        "encoding": "mapping",
        "key": "t_string_memory_ptr",
        "label": "mapping(string => uint256)",
        "numberOfBytes": "32",
        "value": "t_uint256"
      },
      "t_mapping(t_uint256,t_struct(Dlp)7260_storage)": {
        "encoding": "mapping",
        "key": "t_uint256",
        "label": "mapping(uint256 => struct IDLPRootCore.Dlp)",
        "numberOfBytes": "32",
        "value": "t_struct(Dlp)7260_storage"
      },
      "t_string_memory_ptr": {
        "encoding": "bytes",
        "label": "string",
        "numberOfBytes": "32"
      },
      "t_string_storage": {
        "encoding": "bytes",
        "label": "string",
        "numberOfBytes": "32"
      },
      "t_struct(Checkpoint208)3563_storage": {
        "encoding": "inplace",
        "label": "struct Checkpoints.Checkpoint208",
        "members": [
          {
            "astId": 3560,
            "contract": "contracts/rootCore/DLPRootCoreImplementation.sol:DLPRootCoreImplementation",
            "label": "_key",
            "offset": 0,
            "slot": "0",
            "type": "t_uint48"
          },
          {
            "astId": 3562,
            "contract": "contracts/rootCore/DLPRootCoreImplementation.sol:DLPRootCoreImplementation",
            "label": "_value",
            "offset": 6,
            "slot": "0",
            "type": "t_uint208"
          }
        ],
        "numberOfBytes": "32"
      },
      "t_struct(Dlp)7260_storage": {
        "encoding": "inplace",
        "label": "struct IDLPRootCore.Dlp",
        "members": [
          {
            "astId": 7232,
            "contract": "contracts/rootCore/DLPRootCoreImplementation.sol:DLPRootCoreImplementation",
            "label": "id",
            "offset": 0,
            "slot": "0",
            "type": "t_uint256"
          },
          {
            "astId": 7234,
            "contract": "contracts/rootCore/DLPRootCoreImplementation.sol:DLPRootCoreImplementation",
            "label": "dlpAddress",
            "offset": 0,
            "slot": "1",
            "type": "t_address"
          },
          {
            "astId": 7236,
            "contract": "contracts/rootCore/DLPRootCoreImplementation.sol:DLPRootCoreImplementation",
            "label": "ownerAddress",
            "offset": 0,
            "slot": "2",
            "type": "t_address"
          },
          {
            "astId": 7238,
            "contract": "contracts/rootCore/DLPRootCoreImplementation.sol:DLPRootCoreImplementation",
            "label": "treasuryAddress",
            "offset": 0,
            "slot": "3",
            "type": "t_address_payable"
          },
          {
            "astId": 7241,
            "contract": "contracts/rootCore/DLPRootCoreImplementation.sol:DLPRootCoreImplementation",
            "label": "stakersPercentageCheckpoints",
            "offset": 0,
            "slot": "4",
            "type": "t_struct(Trace208)3558_storage"
          },
          {
            "astId": 7243,
            "contract": "contracts/rootCore/DLPRootCoreImplementation.sol:DLPRootCoreImplementation",
            "label": "name",
            "offset": 0,
            "slot": "5",
            "type": "t_string_storage"
          },
          {
            "astId": 7245,
            "contract": "contracts/rootCore/DLPRootCoreImplementation.sol:DLPRootCoreImplementation",
            "label": "iconUrl",
            "offset": 0,
            "slot": "6",
            "type": "t_string_storage"
          },
          {
            "astId": 7247,
            "contract": "contracts/rootCore/DLPRootCoreImplementation.sol:DLPRootCoreImplementation",
            "label": "website",
            "offset": 0,
            "slot": "7",
            "type": "t_string_storage"
          },
          {
            "astId": 7249,
            "contract": "contracts/rootCore/DLPRootCoreImplementation.sol:DLPRootCoreImplementation",
            "label": "metadata",
            "offset": 0,
            "slot": "8",
            "type": "t_string_storage"
          },
          {
            "astId": 7252,
            "contract": "contracts/rootCore/DLPRootCoreImplementation.sol:DLPRootCoreImplementation",
            "label": "status",
            "offset": 0,
            "slot": "9",
            "type": "t_enum(DlpStatus)7230"
          },
          {
            "astId": 7254,
            "contract": "contracts/rootCore/DLPRootCoreImplementation.sol:DLPRootCoreImplementation",
            "label": "registrationBlockNumber",
            "offset": 0,
            "slot": "10",
            "type": "t_uint256"
          },
          {
            "astId": 7257,
            "contract": "contracts/rootCore/DLPRootCoreImplementation.sol:DLPRootCoreImplementation",
            "label": "stakeAmountCheckpoints",
            "offset": 0,
            "slot": "11",
            "type": "t_struct(Trace208)3558_storage"
          },
          {
            "astId": 7259,
            "contract": "contracts/rootCore/DLPRootCoreImplementation.sol:DLPRootCoreImplementation",
            "label": "isVerified",
            "offset": 0,
            "slot": "12",
            "type": "t_bool"
          }
        ],
        "numberOfBytes": "416"
      },
      "t_struct(Set)4607_storage": {
        "encoding": "inplace",
        "label": "struct EnumerableSet.Set",
        "members": [
          {
            "astId": 4602,
            "contract": "contracts/rootCore/DLPRootCoreImplementation.sol:DLPRootCoreImplementation",
            "label": "_values",
            "offset": 0,
            "slot": "0",
            "type": "t_array(t_bytes32)dyn_storage"
          },
          {
            "astId": 4606,
            "contract": "contracts/rootCore/DLPRootCoreImplementation.sol:DLPRootCoreImplementation",
            "label": "_positions",
            "offset": 0,
            "slot": "1",
            "type": "t_mapping(t_bytes32,t_uint256)"
          }
        ],
        "numberOfBytes": "64"
      },
      "t_struct(Trace208)3558_storage": {
        "encoding": "inplace",
        "label": "struct Checkpoints.Trace208",
        "members": [
          {
            "astId": 3557,
            "contract": "contracts/rootCore/DLPRootCoreImplementation.sol:DLPRootCoreImplementation",
            "label": "_checkpoints",
            "offset": 0,
            "slot": "0",
            "type": "t_array(t_struct(Checkpoint208)3563_storage)dyn_storage"
          }
        ],
        "numberOfBytes": "32"
      },
      "t_struct(UintSet)5079_storage": {
        "encoding": "inplace",
        "label": "struct EnumerableSet.UintSet",
        "members": [
          {
            "astId": 5078,
            "contract": "contracts/rootCore/DLPRootCoreImplementation.sol:DLPRootCoreImplementation",
            "label": "_inner",
            "offset": 0,
            "slot": "0",
            "type": "t_struct(Set)4607_storage"
          }
        ],
        "numberOfBytes": "64"
      },
      "t_uint208": {
        "encoding": "inplace",
        "label": "uint208",
        "numberOfBytes": "26"
      },
      "t_uint256": {
        "encoding": "inplace",
        "label": "uint256",
        "numberOfBytes": "32"
      },
      "t_uint48": {
        "encoding": "inplace",
        "label": "uint48",
        "numberOfBytes": "6"
      }
    }
  }
}