{
  "address": "0xe43b16155138fb5F9Fd507D7EbC848cE5C33CF99",
  "abi": [
    {
      "inputs": [],
      "stateMutability": "nonpayable",
      "type": "constructor"
    },
    {
      "inputs": [],
      "name": "AccessControlBadConfirmation",
      "type": "error"
    },
    {
      "inputs": [
        {
          "internalType": "address",
          "name": "account",
          "type": "address"
        },
        {
          "internalType": "bytes32",
          "name": "neededRole",
          "type": "bytes32"
        }
      ],
      "name": "AccessControlUnauthorizedAccount",
      "type": "error"
    },
    {
      "inputs": [
        {
          "internalType": "address",
          "name": "target",
          "type": "address"
        }
      ],
      "name": "AddressEmptyCode",
      "type": "error"
    },
    {
      "inputs": [],
      "name": "AllEligibleDlpsMustHavePerformanceRatings",
      "type": "error"
    },
    {
      "inputs": [
        {
          "internalType": "uint256",
          "name": "dlpId",
          "type": "uint256"
        }
      ],
      "name": "DlpMustBeEligibleAndVerified",
      "type": "error"
    },
    {
      "inputs": [
        {
          "internalType": "address",
          "name": "implementation",
          "type": "address"
        }
      ],
      "name": "ERC1967InvalidImplementation",
      "type": "error"
    },
    {
      "inputs": [],
      "name": "ERC1967NonPayable",
      "type": "error"
    },
    {
      "inputs": [],
      "name": "EnforcedPause",
      "type": "error"
    },
    {
      "inputs": [],
      "name": "EpochAlreadyFinalised",
      "type": "error"
    },
    {
      "inputs": [],
      "name": "EpochNotEndedYet",
      "type": "error"
    },
    {
      "inputs": [],
      "name": "EpochRewardsAlreadyDistributed",
      "type": "error"
    },
    {
      "inputs": [],
      "name": "ExpectedPause",
      "type": "error"
    },
    {
      "inputs": [],
      "name": "FailedInnerCall",
      "type": "error"
    },
    {
      "inputs": [],
      "name": "InvalidEpoch",
      "type": "error"
    },
    {
      "inputs": [],
      "name": "InvalidFoundationWalletAddress",
      "type": "error"
    },
    {
      "inputs": [],
      "name": "InvalidInitialization",
      "type": "error"
    },
    {
      "inputs": [],
      "name": "InvalidPerformanceRating",
      "type": "error"
    },
    {
      "inputs": [],
      "name": "InvalidRatingPercentages",
      "type": "error"
    },
    {
      "inputs": [],
      "name": "NotInitializing",
      "type": "error"
    },
    {
      "inputs": [],
      "name": "UUPSUnauthorizedCallContext",
      "type": "error"
    },
    {
      "inputs": [
        {
          "internalType": "bytes32",
          "name": "slot",
          "type": "bytes32"
        }
      ],
      "name": "UUPSUnsupportedProxiableUUID",
      "type": "error"
    },
    {
      "anonymous": false,
      "inputs": [
        {
          "indexed": true,
          "internalType": "uint256",
          "name": "epochId",
          "type": "uint256"
        },
        {
          "indexed": true,
          "internalType": "uint256",
          "name": "dlpId",
          "type": "uint256"
        },
        {
          "indexed": false,
          "internalType": "uint256",
          "name": "performanceRating",
          "type": "uint256"
        }
      ],
      "name": "DlpEpochPerformanceRatingSaved",
      "type": "event"
    },
    {
      "anonymous": false,
      "inputs": [
        {
          "indexed": true,
          "internalType": "uint256",
          "name": "epochId",
          "type": "uint256"
        }
      ],
      "name": "EpochFinalised",
      "type": "event"
    },
    {
      "anonymous": false,
      "inputs": [
        {
          "indexed": true,
          "internalType": "uint256",
          "name": "epochId",
          "type": "uint256"
        },
        {
          "indexed": false,
          "internalType": "uint256",
          "name": "totalPerformanceRating",
          "type": "uint256"
        },
        {
          "indexed": false,
          "internalType": "bool",
          "name": "isFinalized",
          "type": "bool"
        }
      ],
      "name": "EpochPerformanceRatingsSaved",
      "type": "event"
    },
    {
      "anonymous": false,
      "inputs": [
        {
          "indexed": false,
          "internalType": "uint64",
          "name": "version",
          "type": "uint64"
        }
      ],
      "name": "Initialized",
      "type": "event"
    },
    {
      "anonymous": false,
      "inputs": [
        {
          "indexed": false,
          "internalType": "address",
          "name": "account",
          "type": "address"
        }
      ],
      "name": "Paused",
      "type": "event"
    },
    {
      "anonymous": false,
      "inputs": [
        {
          "indexed": false,
          "internalType": "enum IDLPRootMetrics.RatingType",
          "name": "ratingType",
          "type": "uint8"
        },
        {
          "indexed": false,
          "internalType": "uint256",
          "name": "percentage",
          "type": "uint256"
        }
      ],
      "name": "RatingPercentagesUpdated",
      "type": "event"
    },
    {
      "anonymous": false,
      "inputs": [
        {
          "indexed": true,
          "internalType": "bytes32",
          "name": "role",
          "type": "bytes32"
        },
        {
          "indexed": true,
          "internalType": "bytes32",
          "name": "previousAdminRole",
          "type": "bytes32"
        },
        {
          "indexed": true,
          "internalType": "bytes32",
          "name": "newAdminRole",
          "type": "bytes32"
        }
      ],
      "name": "RoleAdminChanged",
      "type": "event"
    },
    {
      "anonymous": false,
      "inputs": [
        {
          "indexed": true,
          "internalType": "bytes32",
          "name": "role",
          "type": "bytes32"
        },
        {
          "indexed": true,
          "internalType": "address",
          "name": "account",
          "type": "address"
        },
        {
          "indexed": true,
          "internalType": "address",
          "name": "sender",
          "type": "address"
        }
      ],
      "name": "RoleGranted",
      "type": "event"
    },
    {
      "anonymous": false,
      "inputs": [
        {
          "indexed": true,
          "internalType": "bytes32",
          "name": "role",
          "type": "bytes32"
        },
        {
          "indexed": true,
          "internalType": "address",
          "name": "account",
          "type": "address"
        },
        {
          "indexed": true,
          "internalType": "address",
          "name": "sender",
          "type": "address"
        }
      ],
      "name": "RoleRevoked",
      "type": "event"
    },
    {
      "anonymous": false,
      "inputs": [
        {
          "indexed": false,
          "internalType": "address",
          "name": "account",
          "type": "address"
        }
      ],
      "name": "Unpaused",
      "type": "event"
    },
    {
      "anonymous": false,
      "inputs": [
        {
          "indexed": true,
          "internalType": "address",
          "name": "implementation",
          "type": "address"
        }
      ],
      "name": "Upgraded",
      "type": "event"
    },
    {
      "inputs": [],
      "name": "DEFAULT_ADMIN_ROLE",
      "outputs": [
        {
          "internalType": "bytes32",
          "name": "",
          "type": "bytes32"
        }
      ],
      "stateMutability": "view",
      "type": "function"
    },
    {
      "inputs": [],
      "name": "DLP_ROOT_ROLE",
      "outputs": [
        {
          "internalType": "bytes32",
          "name": "",
          "type": "bytes32"
        }
      ],
      "stateMutability": "view",
      "type": "function"
    },
    {
      "inputs": [],
      "name": "MAINTAINER_ROLE",
      "outputs": [
        {
          "internalType": "bytes32",
          "name": "",
          "type": "bytes32"
        }
      ],
      "stateMutability": "view",
      "type": "function"
    },
    {
      "inputs": [],
      "name": "MANAGER_ROLE",
      "outputs": [
        {
          "internalType": "bytes32",
          "name": "",
          "type": "bytes32"
        }
      ],
      "stateMutability": "view",
      "type": "function"
    },
    {
      "inputs": [],
      "name": "UPGRADE_INTERFACE_VERSION",
      "outputs": [
        {
          "internalType": "string",
          "name": "",
          "type": "string"
        }
      ],
      "stateMutability": "view",
      "type": "function"
    },
    {
      "inputs": [
        {
          "internalType": "uint256",
          "name": "dlpId",
          "type": "uint256"
        },
        {
          "internalType": "uint256",
          "name": "epochId",
          "type": "uint256"
        },
        {
          "internalType": "uint256",
          "name": "totalDlpsStakeAmount",
          "type": "uint256"
        },
        {
          "internalType": "uint256",
          "name": "totalDlpsPerformanceRating",
          "type": "uint256"
        },
        {
          "internalType": "uint256[]",
          "name": "customRatingPercentages",
          "type": "uint256[]"
        }
      ],
      "name": "calculateDlpRating",
      "outputs": [
        {
          "internalType": "uint256",
          "name": "",
          "type": "uint256"
        }
      ],
      "stateMutability": "view",
      "type": "function"
    },
    {
      "inputs": [],
      "name": "dlpRoot",
      "outputs": [
        {
          "internalType": "contract IDLPRoot",
          "name": "",
          "type": "address"
        }
      ],
      "stateMutability": "view",
      "type": "function"
    },
    {
      "inputs": [
        {
          "internalType": "uint256",
          "name": "epochId",
          "type": "uint256"
        },
        {
          "internalType": "uint256",
          "name": "dlpId",
          "type": "uint256"
        }
      ],
      "name": "epochDlps",
      "outputs": [
        {
          "components": [
            {
              "internalType": "uint256",
              "name": "performanceRating",
              "type": "uint256"
            },
            {
              "internalType": "uint256",
              "name": "stakeAmountAdjustment",
              "type": "uint256"
            }
          ],
          "internalType": "struct IDLPRootMetrics.EpochDlpInfo",
          "name": "",
          "type": "tuple"
        }
      ],
      "stateMutability": "view",
      "type": "function"
    },
    {
      "inputs": [
        {
          "internalType": "uint256",
          "name": "epochId",
          "type": "uint256"
        }
      ],
      "name": "epochs",
      "outputs": [
        {
          "components": [
            {
              "internalType": "uint256",
              "name": "totalPerformanceRating",
              "type": "uint256"
            },
            {
              "internalType": "bool",
              "name": "finalized",
              "type": "bool"
            }
          ],
          "internalType": "struct IDLPRootMetrics.EpochInfo",
          "name": "",
          "type": "tuple"
        }
      ],
      "stateMutability": "view",
      "type": "function"
    },
    {
      "inputs": [
        {
          "internalType": "uint256[]",
          "name": "dlpIds",
          "type": "uint256[]"
        }
      ],
      "name": "estimatedDlpRewardPercentages",
      "outputs": [
        {
          "components": [
            {
              "internalType": "uint256",
              "name": "dlpId",
              "type": "uint256"
            },
            {
              "internalType": "uint256",
              "name": "APY",
              "type": "uint256"
            },
            {
              "internalType": "uint256",
              "name": "EPY",
              "type": "uint256"
            }
          ],
          "internalType": "struct IDLPRootMetrics.DlpRewardApy[]",
          "name": "",
          "type": "tuple[]"
        }
      ],
      "stateMutability": "view",
      "type": "function"
    },
    {
      "inputs": [
        {
          "internalType": "uint256[]",
          "name": "dlpIds",
          "type": "uint256[]"
        },
        {
          "internalType": "uint256[]",
          "name": "customRatingPercentages",
          "type": "uint256[]"
        }
      ],
      "name": "estimatedDlpRewardPercentagesCustomized",
      "outputs": [
        {
          "components": [
            {
              "internalType": "uint256",
              "name": "dlpId",
              "type": "uint256"
            },
            {
              "internalType": "uint256",
              "name": "APY",
              "type": "uint256"
            },
            {
              "internalType": "uint256",
              "name": "EPY",
              "type": "uint256"
            }
          ],
          "internalType": "struct IDLPRootMetrics.DlpRewardApy[]",
          "name": "",
          "type": "tuple[]"
        }
      ],
      "stateMutability": "view",
      "type": "function"
    },
    {
      "inputs": [
        {
          "internalType": "uint256",
          "name": "epochId",
          "type": "uint256"
        }
      ],
      "name": "finalizeEpoch",
      "outputs": [],
      "stateMutability": "nonpayable",
      "type": "function"
    },
    {
      "inputs": [],
      "name": "foundationWalletAddress",
      "outputs": [
        {
          "internalType": "address payable",
          "name": "",
          "type": "address"
        }
      ],
      "stateMutability": "view",
      "type": "function"
    },
    {
      "inputs": [
        {
          "internalType": "uint256",
          "name": "daysStaked",
          "type": "uint256"
        }
      ],
      "name": "getMultiplier",
      "outputs": [
        {
          "internalType": "uint256",
          "name": "",
          "type": "uint256"
        }
      ],
      "stateMutability": "pure",
      "type": "function"
    },
    {
      "inputs": [
        {
          "internalType": "bytes32",
          "name": "role",
          "type": "bytes32"
        }
      ],
      "name": "getRoleAdmin",
      "outputs": [
        {
          "internalType": "bytes32",
          "name": "",
          "type": "bytes32"
        }
      ],
      "stateMutability": "view",
      "type": "function"
    },
    {
      "inputs": [
        {
          "internalType": "bytes32",
          "name": "role",
          "type": "bytes32"
        },
        {
          "internalType": "address",
          "name": "account",
          "type": "address"
        }
      ],
      "name": "grantRole",
      "outputs": [],
      "stateMutability": "nonpayable",
      "type": "function"
    },
    {
      "inputs": [
        {
          "internalType": "bytes32",
          "name": "role",
          "type": "bytes32"
        },
        {
          "internalType": "address",
          "name": "account",
          "type": "address"
        }
      ],
      "name": "hasRole",
      "outputs": [
        {
          "internalType": "bool",
          "name": "",
          "type": "bool"
        }
      ],
      "stateMutability": "view",
      "type": "function"
    },
    {
      "inputs": [
        {
          "internalType": "address",
          "name": "trustedForwarderAddress",
          "type": "address"
        },
        {
          "internalType": "address",
          "name": "ownerAddress",
          "type": "address"
        },
        {
          "internalType": "address",
          "name": "dlpRootAddress",
          "type": "address"
        },
        {
          "internalType": "uint256",
          "name": "stakeRatingPercentage",
          "type": "uint256"
        },
        {
          "internalType": "uint256",
          "name": "performanceRatingPercentage",
          "type": "uint256"
        }
      ],
      "name": "initialize",
      "outputs": [],
      "stateMutability": "nonpayable",
      "type": "function"
    },
    {
      "inputs": [
        {
          "internalType": "address",
          "name": "forwarder",
          "type": "address"
        }
      ],
      "name": "isTrustedForwarder",
      "outputs": [
        {
          "internalType": "bool",
          "name": "",
          "type": "bool"
        }
      ],
      "stateMutability": "view",
      "type": "function"
    },
    {
      "inputs": [],
      "name": "pause",
      "outputs": [],
      "stateMutability": "nonpayable",
      "type": "function"
    },
    {
      "inputs": [],
      "name": "paused",
      "outputs": [
        {
          "internalType": "bool",
          "name": "",
          "type": "bool"
        }
      ],
      "stateMutability": "view",
      "type": "function"
    },
    {
      "inputs": [],
      "name": "proxiableUUID",
      "outputs": [
        {
          "internalType": "bytes32",
          "name": "",
          "type": "bytes32"
        }
      ],
      "stateMutability": "view",
      "type": "function"
    },
    {
      "inputs": [
        {
          "internalType": "enum IDLPRootMetrics.RatingType",
          "name": "ratingType",
          "type": "uint8"
        }
      ],
      "name": "ratingPercentages",
      "outputs": [
        {
          "internalType": "uint256",
          "name": "percentage",
          "type": "uint256"
        }
      ],
      "stateMutability": "view",
      "type": "function"
    },
    {
      "inputs": [
        {
          "internalType": "bytes32",
          "name": "role",
          "type": "bytes32"
        },
        {
          "internalType": "address",
          "name": "callerConfirmation",
          "type": "address"
        }
      ],
      "name": "renounceRole",
      "outputs": [],
      "stateMutability": "nonpayable",
      "type": "function"
    },
    {
      "inputs": [
        {
          "internalType": "bytes32",
          "name": "role",
          "type": "bytes32"
        },
        {
          "internalType": "address",
          "name": "account",
          "type": "address"
        }
      ],
      "name": "revokeRole",
      "outputs": [],
      "stateMutability": "nonpayable",
      "type": "function"
    },
    {
      "inputs": [
        {
          "internalType": "uint256",
          "name": "epochId",
          "type": "uint256"
        },
        {
          "components": [
            {
              "internalType": "uint256",
              "name": "dlpId",
              "type": "uint256"
            },
            {
              "internalType": "uint256",
              "name": "performanceRating",
              "type": "uint256"
            }
          ],
          "internalType": "struct IDLPRootMetrics.DlpPerformanceRating[]",
          "name": "dlpPerformanceRatings",
          "type": "tuple[]"
        }
      ],
      "name": "saveEpochPerformanceRatings",
      "outputs": [],
      "stateMutability": "nonpayable",
      "type": "function"
    },
    {
      "inputs": [
        {
          "internalType": "bytes4",
          "name": "interfaceId",
          "type": "bytes4"
        }
      ],
      "name": "supportsInterface",
      "outputs": [
        {
          "internalType": "bool",
          "name": "",
          "type": "bool"
        }
      ],
      "stateMutability": "view",
      "type": "function"
    },
    {
      "inputs": [
        {
          "internalType": "uint256",
          "name": "numberOfDlps",
          "type": "uint256"
        }
      ],
      "name": "topDlpIds",
      "outputs": [
        {
          "internalType": "uint256[]",
          "name": "",
          "type": "uint256[]"
        }
      ],
      "stateMutability": "view",
      "type": "function"
    },
    {
      "inputs": [
        {
          "internalType": "uint256",
          "name": "numberOfDlps",
          "type": "uint256"
        }
      ],
      "name": "topDlps",
      "outputs": [
        {
          "components": [
            {
              "internalType": "uint256",
              "name": "dlpId",
              "type": "uint256"
            },
            {
              "internalType": "uint256",
              "name": "rating",
              "type": "uint256"
            }
          ],
          "internalType": "struct IDLPRootMetrics.DlpRating[]",
          "name": "",
          "type": "tuple[]"
        }
      ],
      "stateMutability": "view",
      "type": "function"
    },
    {
      "inputs": [
        {
          "internalType": "uint256",
          "name": "epochId",
          "type": "uint256"
        },
        {
          "internalType": "uint256",
          "name": "numberOfDlps",
          "type": "uint256"
        },
        {
          "internalType": "uint256[]",
          "name": "dlpIds",
          "type": "uint256[]"
        },
        {
          "internalType": "uint256[]",
          "name": "customRatingPercentages",
          "type": "uint256[]"
        }
      ],
      "name": "topDlpsCustomized",
      "outputs": [
        {
          "components": [
            {
              "internalType": "uint256",
              "name": "dlpId",
              "type": "uint256"
            },
            {
              "internalType": "uint256",
              "name": "rating",
              "type": "uint256"
            }
          ],
          "internalType": "struct IDLPRootMetrics.DlpRating[]",
          "name": "",
          "type": "tuple[]"
        }
      ],
      "stateMutability": "view",
      "type": "function"
    },
    {
      "inputs": [],
      "name": "trustedForwarder",
      "outputs": [
        {
          "internalType": "address",
          "name": "",
          "type": "address"
        }
      ],
      "stateMutability": "view",
      "type": "function"
    },
    {
      "inputs": [],
      "name": "unpause",
      "outputs": [],
      "stateMutability": "nonpayable",
      "type": "function"
    },
    {
      "inputs": [
        {
          "internalType": "address",
          "name": "dlpRootAddress",
          "type": "address"
        }
      ],
      "name": "updateDlpRoot",
      "outputs": [],
      "stateMutability": "nonpayable",
      "type": "function"
    },
    {
      "inputs": [
        {
          "internalType": "uint256",
          "name": "epochId",
          "type": "uint256"
        },
        {
          "internalType": "uint256",
          "name": "dlpId",
          "type": "uint256"
        },
        {
          "internalType": "uint256",
          "name": "adjustment",
          "type": "uint256"
        },
        {
          "internalType": "bool",
          "name": "isAddition",
          "type": "bool"
        }
      ],
      "name": "updateEpochDlpStakeAmountAdjustment",
      "outputs": [],
      "stateMutability": "nonpayable",
      "type": "function"
    },
    {
      "inputs": [
        {
          "internalType": "address payable",
          "name": "foundationWalletAddress",
          "type": "address"
        }
      ],
      "name": "updateFoundationWalletAddress",
      "outputs": [],
      "stateMutability": "nonpayable",
      "type": "function"
    },
    {
      "inputs": [
        {
          "internalType": "uint256",
          "name": "stakeRatingPercentage",
          "type": "uint256"
        },
        {
          "internalType": "uint256",
          "name": "performanceRatingPercentage",
          "type": "uint256"
        }
      ],
      "name": "updateRatingPercentages",
      "outputs": [],
      "stateMutability": "nonpayable",
      "type": "function"
    },
    {
      "inputs": [
        {
          "internalType": "address",
          "name": "trustedForwarderAddress",
          "type": "address"
        }
      ],
      "name": "updateTrustedForwarder",
      "outputs": [],
      "stateMutability": "nonpayable",
      "type": "function"
    },
    {
      "inputs": [
        {
          "internalType": "address",
          "name": "newImplementation",
          "type": "address"
        },
        {
          "internalType": "bytes",
          "name": "data",
          "type": "bytes"
        }
      ],
      "name": "upgradeToAndCall",
      "outputs": [],
      "stateMutability": "payable",
      "type": "function"
    },
    {
      "inputs": [],
      "name": "version",
      "outputs": [
        {
          "internalType": "uint256",
          "name": "",
          "type": "uint256"
        }
      ],
      "stateMutability": "pure",
      "type": "function"
    }
  ],
  "transactionHash": "0x5517d1300062fac92b4895ae8a28807e6469db9e4d82b7b9f0a85b280cf13d32",
  "args": [],
  "numDeployments": 1,
  "solcInputHash": "1cde907bd08325dd106fa96f593bbeb8",
  "bytecode": "0x60c0604052306080523480156200001557600080fd5b50600060a052620000256200002b565b620000df565b7ff0c57e16840df040f15088dc2f81fe391c3923bec73e23a9662efc9c229c6a00805468010000000000000000900460ff16156200007c5760405163f92ee8a960e01b815260040160405180910390fd5b80546001600160401b0390811614620000dc5780546001600160401b0319166001600160401b0390811782556040519081527fc7f505b2f371ae2175ee4913f4499e1f2633a7b5936321eed1cdaeb6115181d29060200160405180910390a15b50565b60805160a0516142b86200011060003960005050600081816128720152818161289b01526129e101526142b86000f3fe6080604052600436106101c05760003560e01c806301159c70146101c557806301ffc9a7146101e757806324404fa71461021c578063248a9ca3146102495780632f2ff15d1461027757806336568abe1461029757806339a67b77146102b75780633a40519d146102e45780633c026aed146103115780633f4ba83a146103315780634bbaf86b146103465780634f1ef2861461036657806352d1902d1461037957806354fd4d501461038e578063572b6c05146103a25780635c975abb146103c2578063610b7010146103d75780636d51fa9d146103f75780637da0a877146104175780638456cb591461042c5780638d8c658f1461044157806391d148541461046e578063986bce2c1461048e5780639b812098146104ae5780639e0e7d2a146104db5780639e1006bb146104fb578063a217fddf1461051b578063a59850ce14610530578063a6b63eb814610545578063ad3cb1cc14610565578063adf8252d146105a3578063b3a7b9da146105c3578063c6b61e4c14610634578063d25f33e514610671578063d547741f14610693578063e4e3cbd5146106b3578063ec87621c146106d3578063f8742254146106f5578063f90b031114610717575b600080fd5b3480156101d157600080fd5b506101e56101e036600461350e565b610737565b005b3480156101f357600080fd5b5061020761020236600461352b565b610772565b60405190151581526020015b60405180910390f35b34801561022857600080fd5b5060015461023c906001600160a01b031681565b6040516102139190613555565b34801561025557600080fd5b50610269610264366004613569565b6107a9565b604051908152602001610213565b34801561028357600080fd5b506101e5610292366004613582565b6107c9565b3480156102a357600080fd5b506101e56102b2366004613582565b6107eb565b3480156102c357600080fd5b506102d76102d23660046136f7565b610833565b6040516102139190613773565b3480156102f057600080fd5b506103046102ff366004613569565b61108f565b60405161021391906137c1565b34801561031d57600080fd5b5061026961032c366004613818565b611270565b34801561033d57600080fd5b506101e56113e5565b34801561035257600080fd5b506101e561036136600461350e565b611408565b6101e56103743660046138a2565b611443565b34801561038557600080fd5b50610269611462565b34801561039a57600080fd5b506001610269565b3480156103ae57600080fd5b506102076103bd36600461350e565b61147f565b3480156103ce57600080fd5b506102076114a4565b3480156103e357600080fd5b506101e56103f236600461393d565b6114b9565b34801561040357600080fd5b506102d761041236600461397e565b61154b565b34801561042357600080fd5b5061023c611568565b34801561043857600080fd5b506101e5611577565b34801561044d57600080fd5b5061046161045c366004613569565b611597565b60405161021391906139b2565b34801561047a57600080fd5b50610207610489366004613582565b611646565b34801561049a57600080fd5b506101e56104a9366004613569565b61167c565b3480156104ba57600080fd5b506102696104c93660046139ea565b60036020526000908152604090205481565b3480156104e757600080fd5b506101e56104f6366004613a0b565b6119bd565b34801561050757600080fd5b50610304610516366004613acb565b611bd9565b34801561052757600080fd5b50610269600081565b34801561053c57600080fd5b5061023c611ecd565b34801561055157600080fd5b506101e5610560366004613b41565b611f09565b34801561057157600080fd5b50610596604051806040016040528060058152602001640352e302e360dc1b81525081565b6040516102139190613bc0565b3480156105af57600080fd5b506102696105be366004613569565b6120cc565b3480156105cf57600080fd5b506106276105de366004613bf3565b6040805180820182526000808252602091820181905282518084018452948152600280835283822085835201808352928120805486529390529081526001909101549082015290565b6040516102139190613c15565b34801561064057600080fd5b5061065461064f366004613569565b6123ef565b604080518251815260209283015115159281019290925201610213565b34801561067d57600080fd5b5061026960008051602061420383398151915281565b34801561069f57600080fd5b506101e56106ae366004613582565b612510565b3480156106bf57600080fd5b506101e56106ce366004613bf3565b61252c565b3480156106df57600080fd5b506102696000805160206141e383398151915281565b34801561070157600080fd5b5061026960008051602061426383398151915281565b34801561072357600080fd5b506101e561073236600461350e565b61254e565b60008051602061426383398151915261074f81612589565b50600180546001600160a01b0319166001600160a01b0392909216919091179055565b60006001600160e01b03198216637965db0b60e01b14806107a357506301ffc9a760e01b6001600160e01b03198316145b92915050565b6000806107b4612593565b60009384526020525050604090206001015490565b6107d2826107a9565b6107db81612589565b6107e583836125b7565b50505050565b6107f3612659565b6001600160a01b0316816001600160a01b0316146108245760405163334bd91960e11b815260040160405180910390fd5b61082e8282612668565b505050565b60606000600160009054906101000a90046001600160a01b03166001600160a01b03166320930fa46040518163ffffffff1660e01b8152600401602060405180830381865afa15801561088a573d6000803e3d6000fd5b505050506040513d601f19601f820116820180604052508101906108ae9190613c2c565b6001600160a01b031663916e1c576040518163ffffffff1660e01b8152600401602060405180830381865afa1580156108eb573d6000803e3d6000fd5b505050506040513d601f19601f8201168201806040525081019061090f9190613c49565b90506000610ad182600160009054906101000a90046001600160a01b03166001600160a01b03166320930fa46040518163ffffffff1660e01b8152600401602060405180830381865afa15801561096a573d6000803e3d6000fd5b505050506040513d601f19601f8201168201806040525081019061098e9190613c2c565b6001600160a01b031663c53036f46040518163ffffffff1660e01b8152600401602060405180830381865afa1580156109cb573d6000803e3d6000fd5b505050506040513d601f19601f820116820180604052508101906109ef9190613c49565b600160009054906101000a90046001600160a01b03166001600160a01b0316631bb2f4526040518163ffffffff1660e01b8152600401602060405180830381865afa158015610a42573d6000803e3d6000fd5b505050506040513d601f19601f82011682018060405250810190610a669190613c2c565b6001600160a01b03166303a229f66040518163ffffffff1660e01b8152600401600060405180830381865afa158015610aa3573d6000803e3d6000fd5b505050506040513d6000823e601f3d908101601f19168201604052610acb9190810190613cc1565b87611bd9565b905060008080805b8451841015610b7557610b09858581518110610af757610af7613cf5565b602002602001015160000151876126fe565b610b139084613d21565b9250600260008781526020019081526020016000206002016000868681518110610b3f57610b3f613cf5565b60200260200101516000015181526020019081526020016000206000015482610b689190613d21565b9150836001019350610ad9565b600080600095505b8651861015610bca57868681518110610b9857610b98613cf5565b6020026020010151600001519050610bb3818987878e611270565b610bbd9084613d21565b9250856001019550610b7d565b60008b516001600160401b03811115610be557610be56135b2565b604051908082528060200260200182016040528015610c3a57816020015b610c2760405180606001604052806000815260200160008152602001600081525090565b815260200190600190039081610c035790505b509050600096505b8b51871015611080578b8781518110610c5d57610c5d613cf5565b60200260200101519150610c74828a88888f611270565b9250600084600160009054906101000a90046001600160a01b03166001600160a01b03166320930fa46040518163ffffffff1660e01b8152600401602060405180830381865afa158015610ccc573d6000803e3d6000fd5b505050506040513d601f19601f82011682018060405250810190610cf09190613c2c565b6001600160a01b031663132c58e96040518163ffffffff1660e01b8152600401602060405180830381865afa158015610d2d573d6000803e3d6000fd5b505050506040513d601f19601f82011682018060405250810190610d519190613c49565b610d5b9086613d34565b610d659190613d4b565b90506000610d73848c6126fe565b60015460408051630dd97a2960e11b8152905185926001600160a01b031691631bb2f4529160048083019260209291908290030181865afa158015610dbc573d6000803e3d6000fd5b505050506040513d601f19601f82011682018060405250810190610de09190613c2c565b6001600160a01b031663ea83e47b876040518263ffffffff1660e01b8152600401610e0d91815260200190565b600060405180830381865afa158015610e2a573d6000803e3d6000fd5b505050506040513d6000823e601f3d908101601f19168201604052610e529190810190613ddc565b60a00151610e609190613d34565b610e6a9190613d4b565b90506040518060600160405280858152602001600160009054906101000a90046001600160a01b03166001600160a01b03166320930fa46040518163ffffffff1660e01b8152600401602060405180830381865afa158015610ed0573d6000803e3d6000fd5b505050506040513d601f19601f82011682018060405250810190610ef49190613c2c565b6001600160a01b031663572d356e6040518163ffffffff1660e01b8152600401602060405180830381865afa158015610f31573d6000803e3d6000fd5b505050506040513d601f19601f82011682018060405250810190610f559190613c49565b600160009054906101000a90046001600160a01b03166001600160a01b03166320930fa46040518163ffffffff1660e01b8152600401602060405180830381865afa158015610fa8573d6000803e3d6000fd5b505050506040513d601f19601f82011682018060405250810190610fcc9190613c2c565b6001600160a01b031663d7033ca06040518163ffffffff1660e01b8152600401602060405180830381865afa158015611009573d6000803e3d6000fd5b505050506040513d601f19601f8201168201806040525081019061102d9190613c49565b6110398561016d613d34565b6110439190613d34565b61104d9190613d4b565b815260200182815250838a8151811061106857611068613cf5565b60200260200101819052508860010198505050610c42565b9b9a5050505050505050505050565b60606107a3600160009054906101000a90046001600160a01b03166001600160a01b03166320930fa46040518163ffffffff1660e01b8152600401602060405180830381865afa1580156110e7573d6000803e3d6000fd5b505050506040513d601f19601f8201168201806040525081019061110b9190613c2c565b6001600160a01b031663916e1c576040518163ffffffff1660e01b8152600401602060405180830381865afa158015611148573d6000803e3d6000fd5b505050506040513d601f19601f8201168201806040525081019061116c9190613c49565b60015460408051630dd97a2960e11b8152905186926001600160a01b031691631bb2f4529160048083019260209291908290030181865afa1580156111b5573d6000803e3d6000fd5b505050506040513d601f19601f820116820180604052508101906111d99190613c2c565b6001600160a01b03166303a229f66040518163ffffffff1660e01b8152600401600060405180830381865afa158015611216573d6000803e3d6000fd5b505050506040513d6000823e601f3d908101601f1916820160405261123e9190810190613cc1565b60005b60405190808252806020026020018201604052801561126a578160200160208202803683370190505b50611bd9565b600080600085116112825760006112a9565b8461128d88886126fe565b61129f90670de0b6b3a7640000613d34565b6112a99190613d4b565b905060008085116112bb5760006112f5565b60008781526002602081815260408084208c8552909201905290205485906112eb90670de0b6b3a7640000613d34565b6112f59190613d4b565b90506000808551600203611352578560008151811061131657611316613cf5565b602002602001015191508560018081111561133357611333613f4c565b8151811061134357611343613cf5565b602002602001015190506113a5565b855160000361138c57505060036020526000805160206142438339815191525460016000526000805160206141a3833981519152546113a5565b60405163b5c0c3e160e01b815260040160405180910390fd5b68056bc75e2d631000006113b98483613d34565b6113c38685613d34565b6113cd9190613d21565b6113d79190613d4b565b9a9950505050505050505050565b6000805160206142638339815191526113fd81612589565b61140561280a565b50565b60008051602061426383398151915261142081612589565b50600480546001600160a01b0319166001600160a01b0392909216919091179055565b61144b612867565b6114548261290e565b61145e8282612919565b5050565b600061146c6129d6565b506000805160206141c383398151915290565b6000611489611568565b6001600160a01b0316826001600160a01b0316149050919050565b6000806114af612a1f565b5460ff1692915050565b6000805160206142038339815191526114d181612589565b8115611510576000858152600260208181526040808420888552909201905281206001018054859290611505908490613d21565b909155506115449050565b600085815260026020818152604080842088855290920190528120600101805485929061153e908490613f62565b90915550505b5050505050565b6040805160008152602081019091526060906107a3908390610833565b6000546001600160a01b031690565b60008051602061426383398151915261158f81612589565b611405612a43565b606060006115a48361108f565b80519091506000816001600160401b038111156115c3576115c36135b2565b6040519080825280602002602001820160405280156115ec578160200160208202803683370190505b50905060005b8281101561163d5783818151811061160c5761160c613cf5565b60200260200101516000015182828151811061162a5761162a613cf5565b60209081029190910101526001016115f2565b50949350505050565b600080611651612593565b6000948552602090815260408086206001600160a01b03959095168652939052505090205460ff1690565b60008051602061426383398151915261169481612589565b61169c612a8b565b600160009054906101000a90046001600160a01b03166001600160a01b03166320930fa46040518163ffffffff1660e01b8152600401602060405180830381865afa1580156116ef573d6000803e3d6000fd5b505050506040513d601f19601f820116820180604052508101906117139190613c2c565b6001600160a01b031663c6b61e4c836040518263ffffffff1660e01b815260040161174091815260200190565b600060405180830381865afa15801561175d573d6000803e3d6000fd5b505050506040513d6000823e601f3d908101601f191682016040526117859190810190613f75565b60600151156117a757604051630c2c2e0360e11b815260040160405180910390fd5b60015460408051630824c3e960e21b815290516000926001600160a01b0316916320930fa49160048083019260209291908290030181865afa1580156117f1573d6000803e3d6000fd5b505050506040513d601f19601f820116820180604052508101906118159190613c2c565b6001600160a01b031663c6b61e4c846040518263ffffffff1660e01b815260040161184291815260200190565b600060405180830381865afa15801561185f573d6000803e3d6000fd5b505050506040513d6000823e601f3d908101601f191682016040526118879190810190613f75565b9050438160200151106118ad576040516307cffebb60e01b815260040160405180910390fd5b60405183907f0867904ff22a2f7066c4e7f4f482ef661324499e28f2f99ced6b09c4a542384090600090a261082e83600160009054906101000a90046001600160a01b03166001600160a01b0316631bb2f4526040518163ffffffff1660e01b8152600401602060405180830381865afa15801561192f573d6000803e3d6000fd5b505050506040513d601f19601f820116820180604052508101906119539190613c2c565b6001600160a01b03166303a229f66040518163ffffffff1660e01b8152600401600060405180830381865afa158015611990573d6000803e3d6000fd5b505050506040513d6000823e601f3d908101601f191682016040526119b89190810190613cc1565b612ab1565b6000805160206141e38339815191526119d581612589565b6119dd612a8b565b6000838152600260209081526040918290206001548351630824c3e960e21b8152935191936001600160a01b03909116926320930fa4926004808401938290030181865afa158015611a33573d6000803e3d6000fd5b505050506040513d601f19601f82011682018060405250810190611a579190613c2c565b6001600160a01b031663c6b61e4c856040518263ffffffff1660e01b8152600401611a8491815260200190565b600060405180830381865afa158015611aa1573d6000803e3d6000fd5b505050506040513d6000823e601f3d908101601f19168201604052611ac99190810190613f75565b6060015115611aeb57604051630c2c2e0360e11b815260040160405180910390fd5b82516000805b82811015611b92576000868281518110611b0d57611b0d613cf5565b60209081029190910181015180820180518251600090815260028a019094526040909320929092559051909150611b449084613d21565b92508060000151887f14e080a7cc9c18aa303764d388372bee4d6b2dc6e2bc3cbe8a3d98c4c2072b438360200151604051611b8191815260200190565b60405180910390a350600101611af1565b50808355604080518281526000602082015287917f93f86f9bc6bd89602512fcde5fe72737b3dc03783e87688e4d755449d6643bb3910160405180910390a2505050505050565b606060008060005b8551811015611c7257611c0d868281518110611bff57611bff613cf5565b6020026020010151896126fe565b611c179084613d21565b9250600260008981526020019081526020016000206002016000878381518110611c4357611c43613cf5565b602002602001015181526020019081526020016000206000015482611c689190613d21565b9150600101611be1565b508451808710611c825780611c84565b865b96506000876001600160401b03811115611ca057611ca06135b2565b604051908082528060200260200182016040528015611ce557816020015b6040805180820190915260008082526020820152815260200190600190039081611cbe5790505b50905087600003611cfb579350611ec592505050565b60005b82811015611ebe576000888281518110611d1a57611d1a613cf5565b602002602001015190506000611d33828d89898d611270565b90508a60005b8c811015611dc457858181518110611d5357611d53613cf5565b602002602001015160200151831180611daf5750858181518110611d7957611d79613cf5565b60200260200101516020015183148015611daf5750858181518110611da057611da0613cf5565b60200260200101516000015184105b15611dbc57809150611dc4565b600101611d39565b508b811015611eb0576000611dda60018e613f62565b90505b81811115611e7c5785611df1600183613f62565b81518110611e0157611e01613cf5565b602002602001015160000151868281518110611e1f57611e1f613cf5565b60209081029190910101515285611e37600183613f62565b81518110611e4757611e47613cf5565b602002602001015160200151868281518110611e6557611e65613cf5565b602090810291909101810151015260001901611ddd565b50604051806040016040528084815260200183815250858281518110611ea457611ea4613cf5565b60200260200101819052505b836001019350505050611cfe565b5093505050505b949350505050565b6004546000906001600160a01b0316611ef957604051630d9c747960e41b815260040160405180910390fd5b506004546001600160a01b031690565b6000611f136130da565b805490915060ff600160401b82041615906001600160401b0316600081158015611f3a5750825b90506000826001600160401b03166001148015611f565750303b155b905081158015611f64575080155b15611f825760405163f92ee8a960e01b815260040160405180910390fd5b84546001600160401b03191660011785558315611fab57845460ff60401b1916600160401b1785555b611fb36130fe565b611fbb6130fe565b611fc3613106565b600080546001600160a01b03808d166001600160a01b03199283161790925560018054928b1692909116919091179055611ffd8787613116565b61201660008051602061426383398151915260006131ca565b61203c6000805160206141e38339815191526000805160206142638339815191526131ca565b61204760008a6125b7565b506120606000805160206142638339815191528a6125b7565b506120796000805160206141e38339815191528a6125b7565b5083156120c057845460ff60401b19168555604051600181527fc7f505b2f371ae2175ee4913f4499e1f2633a7b5936321eed1cdaeb6115181d29060200160405180910390a15b50505050505050505050565b600060528211156120e05750617530919050565b60408051610a60810182526101dc81526103b8602082015261059491810191909152610770606082015261094c6080820152610b2960a0820152610d0560c0820152610ee160e08201526110bd61010082015261129961012082015261147661014082015261165261016082015261182e610180820152611a0a6101a0820152611be66101c0820152611dc36101e0820152611f9f61020082015261217b6102208201526123576102408201526125336102608201526127106102808201526127d86102a08201526129046102c08201526129cc6102e0820152612af8610300820152612bc0610320820152612c88610340820152612db4610360820152612e7c610380820152612f446103a08201526130706103c08201526131386103e082015261326461040082015261332c6104208201526133f46104408201526135206104608201526135e86104808201526136b06104a08201526137dc6104c08201526138a46104e08201526139d0610500820152613a98610520820152613cf0610540820152613f486105608201526141a06105808201526143f86105a08201526146506105c08201526148a86105e0820152614b00610600820152614d58610620820152614fb06106408201526152086106608201526153fc6106808201526156546106a08201526158ac6106c0820152615b046106e0820152615d5c610700820152615fb461072082015261620c6107408201526164646107608201526166bc6107808201526169146107a0820152616b6c6107c0820152616bd06107e0820152616c34610800820152616cfc610820820152616d60610840820152616dc4610860820152616e28610880820152616e8c6108a0820152616f546108c0820152616fb86108e082015261701c6109008201526170806109208201526170e46109408201526171486109608201526172106109808201526172746109a08201526172d86109c082015261733c6109e08201526173a0610a00820152617468610a208201526174cc610a408201528083605381106123df576123df613cf5565b602002015161ffff169392505050565b604080518082019091526000808252602082015260008281526002602090815260409182902082518084018452815481526001548451630824c3e960e21b8152945192949193848101936001600160a01b03909216926320930fa492600480830193928290030181865afa15801561246b573d6000803e3d6000fd5b505050506040513d601f19601f8201168201806040525081019061248f9190613c2c565b6001600160a01b031663c6b61e4c866040518263ffffffff1660e01b81526004016124bc91815260200190565b600060405180830381865afa1580156124d9573d6000803e3d6000fd5b505050506040513d6000823e601f3d908101601f191682016040526125019190810190613f75565b60600151151590529392505050565b612519826107a9565b61252281612589565b6107e58383612668565b60008051602061426383398151915261254481612589565b61082e8383613116565b60008051602061426383398151915261256681612589565b50600080546001600160a01b0319166001600160a01b0392909216919091179055565b611405813361322a565b7f02dd7bc7dec4dceedda775e58dd541e08a116c6c53815c0bd028192f7b62680090565b6000806125c2612593565b90506125ce8484611646565b61264f576000848152602082815260408083206001600160a01b03871684529091529020805460ff19166001179055612605612659565b6001600160a01b0316836001600160a01b0316857f2f8788117e7eff1d82e926ec794901d17c78024a50270940304540a733656f0d60405160405180910390a460019150506107a3565b60009150506107a3565b6000612663613263565b905090565b600080612673612593565b905061267f8484611646565b1561264f576000848152602082815260408083206001600160a01b03871684529091529020805460ff191690556126b4612659565b6001600160a01b0316836001600160a01b0316857ff6391f5c32d9c69d2a47ea670b442974b53935d1edc7fd64eb21e047a839171b60405160405180910390a460019150506107a3565b6000818152600260208181526040808420868552909201815281832060019081015490548351630824c3e960e21b8152935191936001600160a01b03909116926320930fa4926004808401938290030181865afa158015612763573d6000803e3d6000fd5b505050506040513d601f19601f820116820180604052508101906127879190613c2c565b6040516304841cd160e31b815260048101859052602481018690526001600160a01b039190911690632420e68890604401602060405180830381865afa1580156127d5573d6000803e3d6000fd5b505050506040513d601f19601f820116820180604052508101906127f99190613c49565b6128039190613f62565b9392505050565b6128126132b5565b600061281c612a1f565b805460ff1916815590507f5db9ee0a495bf2e6ff9c91a7834c1ba4fdd244a5e8aa4e537bd38aeae4b073aa61284f612659565b60405161285c9190613555565b60405180910390a150565b306001600160a01b037f00000000000000000000000000000000000000000000000000000000000000001614806128ee57507f00000000000000000000000000000000000000000000000000000000000000006001600160a01b03166128e26000805160206141c3833981519152546001600160a01b031690565b6001600160a01b031614155b1561290c5760405163703e46dd60e11b815260040160405180910390fd5b565b600061145e81612589565b816001600160a01b03166352d1902d6040518163ffffffff1660e01b8152600401602060405180830381865afa925050508015612973575060408051601f3d908101601f1916820190925261297091810190613c49565b60015b61299b5781604051634c9c8ce360e01b81526004016129929190613555565b60405180910390fd5b6000805160206141c383398151915281146129cc57604051632a87526960e21b815260048101829052602401612992565b61082e83836132da565b306001600160a01b037f0000000000000000000000000000000000000000000000000000000000000000161461290c5760405163703e46dd60e11b815260040160405180910390fd5b7fcd5ed15c6e187e77e9aee88184c21f4f2182ab5827cb3b7e07fbedcd63f0330090565b612a4b612a8b565b6000612a55612a1f565b805460ff1916600117815590507f62e78cea01bee320cd4e420270b5ea74000d11b0c9f74754ebdbfc544b05a25861284f612659565b612a936114a4565b1561290c5760405163d93c066560e01b815260040160405180910390fd5b60015460408051630824c3e960e21b815290516000926001600160a01b0316916320930fa49160048083019260209291908290030181865afa158015612afb573d6000803e3d6000fd5b505050506040513d601f19601f82011682018060405250810190612b1f9190613c2c565b6001600160a01b031663c6b61e4c846040518263ffffffff1660e01b8152600401612b4c91815260200190565b600060405180830381865afa158015612b69573d6000803e3d6000fd5b505050506040513d6000823e601f3d908101601f19168201604052612b919190810190613f75565b60608101519091501515600103612bbb57604051634b5e16a360e01b815260040160405180910390fd5b6000612ca184600160009054906101000a90046001600160a01b03166001600160a01b03166320930fa46040518163ffffffff1660e01b8152600401602060405180830381865afa158015612c14573d6000803e3d6000fd5b505050506040513d601f19601f82011682018060405250810190612c389190613c2c565b6001600160a01b031663c53036f46040518163ffffffff1660e01b8152600401602060405180830381865afa158015612c75573d6000803e3d6000fd5b505050506040513d601f19601f82011682018060405250810190612c999190613c49565b856000611241565b805190915060009081816001600160401b03811115612cc257612cc26135b2565b604051908082528060200260200182016040528015612ceb578160200160208202803683370190505b50905060005b82811015612e5857848181518110612d0b57612d0b613cf5565b60200260200101516020015184612d229190613d21565b9350600160009054906101000a90046001600160a01b03166001600160a01b03166320930fa46040518163ffffffff1660e01b8152600401602060405180830381865afa158015612d77573d6000803e3d6000fd5b505050506040513d601f19601f82011682018060405250810190612d9b9190613c2c565b6001600160a01b031663b3a7b9da89878481518110612dbc57612dbc613cf5565b6020026020010151600001516040518363ffffffff1660e01b8152600401612dee929190918252602082015260400190565b60e060405180830381865afa158015612e0b573d6000803e3d6000fd5b505050506040513d601f19601f82011682018060405250810190612e2f9190614012565b60600151828281518110612e4557612e45613cf5565b6020908102919091010152600101612cf1565b6000836001600160401b03811115612e7257612e726135b2565b604051908082528060200260200182016040528015612ec757816020015b612eb460405180606001604052806000815260200160008152602001600081525090565b815260200190600190039081612e905790505b509050600080600093505b85841015612ff75760008711612ee9576000612f21565b868960400151898681518110612f0157612f01613cf5565b602002602001015160200151612f179190613d34565b612f219190613d4b565b915068056bc75e2d63100000858581518110612f3f57612f3f613cf5565b602002602001015183612f529190613d34565b612f5c9190613d4b565b9050878481518110612f7057612f70613cf5565b602002602001015160000151838581518110612f8e57612f8e613cf5565b6020026020010151600001818152505080838581518110612fb157612fb1613cf5565b602090810291909101015160400152612fca8183613f62565b838581518110612fdc57612fdc613cf5565b60200260200101516020018181525050836001019350612ed2565b600160009054906101000a90046001600160a01b03166001600160a01b03166320930fa46040518163ffffffff1660e01b8152600401602060405180830381865afa15801561304a573d6000803e3d6000fd5b505050506040513d601f19601f8201168201806040525081019061306e9190613c2c565b6001600160a01b031663cd0081a78c856040518363ffffffff1660e01b815260040161309b9291906140a6565b600060405180830381600087803b1580156130b557600080fd5b505af11580156130c9573d6000803e3d6000fd5b505050505050505050505050505050565b7ff0c57e16840df040f15088dc2f81fe391c3923bec73e23a9662efc9c229c6a0090565b61290c613330565b61310e613330565b61290c613355565b6131208183613d21565b68056bc75e2d63100000146131485760405163b5c0c3e160e01b815260040160405180910390fd5b6003602052600080516020614243833981519152829055600160008190526000805160206141a383398151915282905560405160008051602061422383398151915291613196918490614100565b60405180910390a16000805160206142238339815191526000836040516131be929190614100565b60405180910390a15050565b60006131d4612593565b905060006131e1846107a9565b600085815260208490526040808220600101869055519192508491839187917fbd79b86ffe0ab8e8776151514217cd7cacd52c909f66475c3af44e129f0b00ff9190a450505050565b6132348282611646565b61145e5760405163e2517d3f60e01b81526001600160a01b038216600482015260248101839052604401612992565b60003660146132713361147f565b801561327d5750808210155b156132ad5760003661328f8385613f62565b61329a92829061412c565b6132a391614156565b60601c9250505090565b339250505090565b6132bd6114a4565b61290c57604051638dfc202b60e01b815260040160405180910390fd5b6132e382613372565b6040516001600160a01b038316907fbc7cd75a20ee27fd9adebab32041f755214dbc6bffa90cc0225b39da2e5c2d3b90600090a28051156133285761082e82826133ce565b61145e613444565b613338613463565b61290c57604051631afcd79f60e31b815260040160405180910390fd5b61335d613330565b6000613367612a1f565b805460ff1916905550565b806001600160a01b03163b60000361339f5780604051634c9c8ce360e01b81526004016129929190613555565b6000805160206141c383398151915280546001600160a01b0319166001600160a01b0392909216919091179055565b6060600080846001600160a01b0316846040516133eb9190614186565b600060405180830381855af49150503d8060008114613426576040519150601f19603f3d011682016040523d82523d6000602084013e61342b565b606091505b509150915061343b85838361347d565b95945050505050565b341561290c5760405163b398979f60e01b815260040160405180910390fd5b600061346d6130da565b54600160401b900460ff16919050565b6060826134925761348d826134d0565b612803565b81511580156134a957506001600160a01b0384163b155b156134c95783604051639996b31560e01b81526004016129929190613555565b5092915050565b8051156134e05780518082602001fd5b604051630a12f52160e11b815260040160405180910390fd5b6001600160a01b038116811461140557600080fd5b60006020828403121561352057600080fd5b8135612803816134f9565b60006020828403121561353d57600080fd5b81356001600160e01b03198116811461280357600080fd5b6001600160a01b0391909116815260200190565b60006020828403121561357b57600080fd5b5035919050565b6000806040838503121561359557600080fd5b8235915060208301356135a7816134f9565b809150509250929050565b634e487b7160e01b600052604160045260246000fd5b604080519081016001600160401b03811182821017156135ea576135ea6135b2565b60405290565b6040516101c081016001600160401b03811182821017156135ea576135ea6135b2565b60405160a081016001600160401b03811182821017156135ea576135ea6135b2565b604051601f8201601f191681016001600160401b038111828210171561365d5761365d6135b2565b604052919050565b60006001600160401b0382111561367e5761367e6135b2565b5060051b60200190565b600082601f83011261369957600080fd5b813560206136ae6136a983613665565b613635565b8083825260208201915060208460051b8701019350868411156136d057600080fd5b602086015b848110156136ec57803583529183019183016136d5565b509695505050505050565b6000806040838503121561370a57600080fd5b82356001600160401b038082111561372157600080fd5b61372d86838701613688565b9350602085013591508082111561374357600080fd5b5061375085828601613688565b9150509250929050565b8051825260208082015190830152604090810151910152565b6020808252825182820181905260009190848201906040850190845b818110156137b5576137a283855161375a565b928401926060929092019160010161378f565b50909695505050505050565b602080825282518282018190526000919060409081850190868401855b8281101561380b576137fb84835180518252602090810151910152565b92840192908501906001016137de565b5091979650505050505050565b600080600080600060a0868803121561383057600080fd5b8535945060208601359350604086013592506060860135915060808601356001600160401b0381111561386257600080fd5b61386e88828901613688565b9150509295509295909350565b60006001600160401b03821115613894576138946135b2565b50601f01601f191660200190565b600080604083850312156138b557600080fd5b82356138c0816134f9565b915060208301356001600160401b038111156138db57600080fd5b8301601f810185136138ec57600080fd5b80356138fa6136a98261387b565b81815286602083850101111561390f57600080fd5b816020840160208301376000602083830101528093505050509250929050565b801515811461140557600080fd5b6000806000806080858703121561395357600080fd5b84359350602085013592506040850135915060608501356139738161392f565b939692955090935050565b60006020828403121561399057600080fd5b81356001600160401b038111156139a657600080fd5b611ec584828501613688565b6020808252825182820181905260009190848201906040850190845b818110156137b5578351835292840192918401916001016139ce565b6000602082840312156139fc57600080fd5b81356002811061280357600080fd5b6000806040808486031215613a1f57600080fd5b833592506020808501356001600160401b03811115613a3d57600080fd5b8501601f81018713613a4e57600080fd5b8035613a5c6136a982613665565b81815260069190911b82018301908381019089831115613a7b57600080fd5b928401925b82841015613abb5785848b031215613a985760008081fd5b613aa06135c8565b84358152858501358682015282529285019290840190613a80565b8096505050505050509250929050565b60008060008060808587031215613ae157600080fd5b843593506020850135925060408501356001600160401b0380821115613b0657600080fd5b613b1288838901613688565b93506060870135915080821115613b2857600080fd5b50613b3587828801613688565b91505092959194509250565b600080600080600060a08688031215613b5957600080fd5b8535613b64816134f9565b94506020860135613b74816134f9565b93506040860135613b84816134f9565b94979396509394606081013594506080013592915050565b60005b83811015613bb7578181015183820152602001613b9f565b50506000910152565b6020815260008251806020840152613bdf816040850160208701613b9c565b601f01601f19169190910160400192915050565b60008060408385031215613c0657600080fd5b50508035926020909101359150565b8151815260208083015190820152604081016107a3565b600060208284031215613c3e57600080fd5b8151612803816134f9565b600060208284031215613c5b57600080fd5b5051919050565b600082601f830112613c7357600080fd5b81516020613c836136a983613665565b8083825260208201915060208460051b870101935086841115613ca557600080fd5b602086015b848110156136ec5780518352918301918301613caa565b600060208284031215613cd357600080fd5b81516001600160401b03811115613ce957600080fd5b611ec584828501613c62565b634e487b7160e01b600052603260045260246000fd5b634e487b7160e01b600052601160045260246000fd5b808201808211156107a3576107a3613d0b565b80820281158282048414176107a3576107a3613d0b565b600082613d6857634e487b7160e01b600052601260045260246000fd5b500490565b8051613d78816134f9565b919050565b600082601f830112613d8e57600080fd5b8151613d9c6136a98261387b565b818152846020838601011115613db157600080fd5b611ec5826020830160208701613b9c565b805160058110613d7857600080fd5b8051613d788161392f565b600060208284031215613dee57600080fd5b81516001600160401b0380821115613e0557600080fd5b908301906101c08286031215613e1a57600080fd5b613e226135f0565b82518152613e3260208401613d6d565b6020820152613e4360408401613d6d565b6040820152613e5460608401613d6d565b60608201526080830151608082015260a083015160a082015260c083015182811115613e7f57600080fd5b613e8b87828601613d7d565b60c08301525060e083015182811115613ea357600080fd5b613eaf87828601613d7d565b60e0830152506101008084015183811115613ec957600080fd5b613ed588828701613d7d565b8284015250506101208084015183811115613eef57600080fd5b613efb88828701613d7d565b8284015250506101409150613f11828401613dc2565b91810191909152610160828101519082015261018080830151908201526101a090613f3d828401613dd1565b91810191909152949350505050565b634e487b7160e01b600052602160045260246000fd5b818103818111156107a3576107a3613d0b565b600060208284031215613f8757600080fd5b81516001600160401b0380821115613f9e57600080fd5b9083019060a08286031215613fb257600080fd5b613fba613613565b8251815260208301516020820152604083015160408201526060830151613fe08161392f565b6060820152608083015182811115613ff757600080fd5b61400387828601613c62565b60808301525095945050505050565b600060e0828403121561402457600080fd5b60405160e081016001600160401b0381118282101715614046576140466135b2565b60405282518152602083015161405b8161392f565b8060208301525060408301516040820152606083015160608201526080830151608082015260a083015161408e8161392f565b60a082015260c0928301519281019290925250919050565b600060408201848352602060406020850152818551808452606093506060860191506020870160005b828110156140f2576140e284835161375a565b92850192908401906001016140cf565b509198975050505050505050565b604081016002841061412257634e487b7160e01b600052602160045260246000fd5b9281526020015290565b6000808585111561413c57600080fd5b8386111561414957600080fd5b5050820193919092039150565b6001600160601b0319813581811691601485101561417e5780818660140360031b1b83161692505b505092915050565b60008251614198818460208701613b9c565b919091019291505056fea15bc60c955c405d20d9149c709e2460f1c2d9a497496a7f46004d1772c3054c360894a13ba1a3210667c828492db98dca3e2076cc3735a920a3ca505d382bbc241ecf16d79d0f8dbfb92cbc07fe17840425976cf0667f022fe9877caa831b087a1532a7a87f7aacbb5e1d89fc13c95143d976fa27740467ab52d352a319ec6bef783485acfab8a5c4973c0e812a2b69d85355a7456c94fe3e779bc85017f2fe3617319a054d772f909f7c479a2cebe5066e836a939412e32403c99029b92eff339759585899103d2ace64958e37e18ccb0504652c81d4a1b8aa80fe2126ab95a2646970667358221220e62e2cc2ba307e329486065098d1a62236d99aeae8d2711b51e5551776b3c09164736f6c63430008180033",
  "devdoc": {
    "errors": {
      "AccessControlBadConfirmation()": [
        {
          "details": "The caller of a function is not the expected one. NOTE: Don't confuse with {AccessControlUnauthorizedAccount}."
        }
      ],
      "AccessControlUnauthorizedAccount(address,bytes32)": [
        {
          "details": "The `account` is missing a role."
        }
      ],
      "AddressEmptyCode(address)": [
        {
          "details": "There's no code at `target` (it is not a contract)."
        }
      ],
      "ERC1967InvalidImplementation(address)": [
        {
          "details": "The `implementation` of the proxy is invalid."
        }
      ],
      "ERC1967NonPayable()": [
        {
          "details": "An upgrade function sees `msg.value > 0` that may be lost."
        }
      ],
      "EnforcedPause()": [
        {
          "details": "The operation failed because the contract is paused."
        }
      ],
      "ExpectedPause()": [
        {
          "details": "The operation failed because the contract is not paused."
        }
      ],
      "FailedInnerCall()": [
        {
          "details": "A call to an address target failed. The target may have reverted."
        }
      ],
      "InvalidInitialization()": [
        {
          "details": "The contract is already initialized."
        }
      ],
      "NotInitializing()": [
        {
          "details": "The contract is not initializing."
        }
      ],
      "UUPSUnauthorizedCallContext()": [
        {
          "details": "The call is from an unauthorized context."
        }
      ],
      "UUPSUnsupportedProxiableUUID(bytes32)": [
        {
          "details": "The storage `slot` is unsupported as a UUID."
        }
      ]
    },
    "events": {
      "Initialized(uint64)": {
        "details": "Triggered when the contract has been initialized or reinitialized."
      },
      "Paused(address)": {
        "details": "Emitted when the pause is triggered by `account`."
      },
      "RoleAdminChanged(bytes32,bytes32,bytes32)": {
        "details": "Emitted when `newAdminRole` is set as ``role``'s admin role, replacing `previousAdminRole` `DEFAULT_ADMIN_ROLE` is the starting admin for all roles, despite {RoleAdminChanged} not being emitted signaling this."
      },
      "RoleGranted(bytes32,address,address)": {
        "details": "Emitted when `account` is granted `role`. `sender` is the account that originated the contract call, an admin role bearer except when using {AccessControl-_setupRole}."
      },
      "RoleRevoked(bytes32,address,address)": {
        "details": "Emitted when `account` is revoked `role`. `sender` is the account that originated the contract call:   - if using `revokeRole`, it is the admin role bearer   - if using `renounceRole`, it is the role bearer (i.e. `account`)"
      },
      "Unpaused(address)": {
        "details": "Emitted when the pause is lifted by `account`."
      },
      "Upgraded(address)": {
        "details": "Emitted when the implementation is upgraded."
      }
    },
    "kind": "dev",
    "methods": {
      "constructor": {
        "custom:oz-upgrades-unsafe-allow": "constructor"
      },
      "estimatedDlpRewardPercentagesCustomized(uint256[],uint256[])": {
        "details": "Calculates based on ratings and current epoch parameters"
      },
      "finalizeEpoch(uint256)": {
        "params": {
          "epochId": "The epoch ID to save performanceRatings for"
        }
      },
      "getRoleAdmin(bytes32)": {
        "details": "Returns the admin role that controls `role`. See {grantRole} and {revokeRole}. To change a role's admin, use {_setRoleAdmin}."
      },
      "grantRole(bytes32,address)": {
        "details": "Grants `role` to `account`. If `account` had not been already granted `role`, emits a {RoleGranted} event. Requirements: - the caller must have ``role``'s admin role. May emit a {RoleGranted} event."
      },
      "hasRole(bytes32,address)": {
        "details": "Returns `true` if `account` has been granted `role`."
      },
      "isTrustedForwarder(address)": {
        "details": "Indicates whether any particular address is the trusted forwarder."
      },
      "paused()": {
        "details": "Returns true if the contract is paused, and false otherwise."
      },
      "proxiableUUID()": {
        "details": "Implementation of the ERC1822 {proxiableUUID} function. This returns the storage slot used by the implementation. It is used to validate the implementation's compatibility when performing an upgrade. IMPORTANT: A proxy pointing at a proxiable contract should not be considered proxiable itself, because this risks bricking a proxy that upgrades to it, by delegating to itself until out of gas. Thus it is critical that this function revert if invoked through a proxy. This is guaranteed by the `notDelegated` modifier."
      },
      "renounceRole(bytes32,address)": {
        "details": "Revokes `role` from the calling account. Roles are often managed via {grantRole} and {revokeRole}: this function's purpose is to provide a mechanism for accounts to lose their privileges if they are compromised (such as when a trusted device is misplaced). If the calling account had been revoked `role`, emits a {RoleRevoked} event. Requirements: - the caller must be `callerConfirmation`. May emit a {RoleRevoked} event."
      },
      "revokeRole(bytes32,address)": {
        "details": "Revokes `role` from `account`. If `account` had been granted `role`, emits a {RoleRevoked} event. Requirements: - the caller must have ``role``'s admin role. May emit a {RoleRevoked} event."
      },
      "saveEpochPerformanceRatings(uint256,(uint256,uint256)[])": {
        "params": {
          "dlpPerformanceRatings": "Array of DLP performanceRatings to save",
          "epochId": "The epoch ID to save performanceRatings for"
        }
      },
      "supportsInterface(bytes4)": {
        "details": "See {IERC165-supportsInterface}."
      },
      "topDlpsCustomized(uint256,uint256,uint256[],uint256[])": {
        "details": "Uses insertion sort to maintain ordered list"
      },
      "trustedForwarder()": {
        "details": "Returns the address of the trusted forwarder."
      },
      "upgradeToAndCall(address,bytes)": {
        "custom:oz-upgrades-unsafe-allow-reachable": "delegatecall",
        "details": "Upgrade the implementation of the proxy to `newImplementation`, and subsequently execute the function call encoded in `data`. Calls {_authorizeUpgrade}. Emits an {Upgraded} event."
      }
    },
    "version": 1
  },
  "userdoc": {
    "kind": "user",
    "methods": {
      "estimatedDlpRewardPercentagesCustomized(uint256[],uint256[])": {
        "notice": "Estimates reward percentages for given DLPs"
      },
      "finalizeEpoch(uint256)": {
        "notice": "Saves or updates epoch performanceRatings for DLPs"
      },
      "getMultiplier(uint256)": {
        "notice": "Returns stake score multiplier based number of days staked"
      },
      "saveEpochPerformanceRatings(uint256,(uint256,uint256)[])": {
        "notice": "Saves or updates epoch performanceRatings for DLPs"
      },
      "topDlpsCustomized(uint256,uint256,uint256[],uint256[])": {
        "notice": "Gets top DLP IDs by rating (performanceRating + stakeRating)"
      }
    },
    "version": 1
  },
  "storageLayout": {
    "storage": [
      {
        "astId": 12721,
        "contract": "contracts/rootMetrics/DLPRootMetricsImplementation.sol:DLPRootMetricsImplementation",
        "label": "_trustedForwarder",
        "offset": 0,
        "slot": "0",
        "type": "t_address"
      },
      {
        "astId": 12725,
        "contract": "contracts/rootMetrics/DLPRootMetricsImplementation.sol:DLPRootMetricsImplementation",
        "label": "dlpRoot",
        "offset": 0,
        "slot": "1",
        "type": "t_contract(IDLPRoot)7882"
      },
      {
        "astId": 12730,
        "contract": "contracts/rootMetrics/DLPRootMetricsImplementation.sol:DLPRootMetricsImplementation",
        "label": "_epochs",
        "offset": 0,
        "slot": "2",
        "type": "t_mapping(t_uint256,t_struct(Epoch)12765_storage)"
      },
      {
        "astId": 12736,
        "contract": "contracts/rootMetrics/DLPRootMetricsImplementation.sol:DLPRootMetricsImplementation",
        "label": "ratingPercentages",
        "offset": 0,
        "slot": "3",
        "type": "t_mapping(t_enum(RatingType)12750,t_uint256)"
      },
      {
        "astId": 12738,
        "contract": "contracts/rootMetrics/DLPRootMetricsImplementation.sol:DLPRootMetricsImplementation",
        "label": "_foundationWalletAddress",
        "offset": 0,
        "slot": "4",
        "type": "t_address_payable"
      }
    ],
    "types": {
      "t_address": {
        "encoding": "inplace",
        "label": "address",
        "numberOfBytes": "20"
      },
      "t_address_payable": {
        "encoding": "inplace",
        "label": "address payable",
        "numberOfBytes": "20"
      },
      "t_bool": {
        "encoding": "inplace",
        "label": "bool",
        "numberOfBytes": "1"
      },
      "t_contract(IDLPRoot)7882": {
        "encoding": "inplace",
        "label": "contract IDLPRoot",
        "numberOfBytes": "20"
      },
      "t_enum(RatingType)12750": {
        "encoding": "inplace",
        "label": "enum IDLPRootMetrics.RatingType",
        "numberOfBytes": "1"
      },
      "t_mapping(t_enum(RatingType)12750,t_uint256)": {
        "encoding": "mapping",
        "key": "t_enum(RatingType)12750",
        "label": "mapping(enum IDLPRootMetrics.RatingType => uint256)",
        "numberOfBytes": "32",
        "value": "t_uint256"
      },
      "t_mapping(t_uint256,t_struct(Epoch)12765_storage)": {
        "encoding": "mapping",
        "key": "t_uint256",
        "label": "mapping(uint256 => struct IDLPRootMetrics.Epoch)",
        "numberOfBytes": "32",
        "value": "t_struct(Epoch)12765_storage"
      },
      "t_mapping(t_uint256,t_struct(EpochDlp)12755_storage)": {
        "encoding": "mapping",
        "key": "t_uint256",
        "label": "mapping(uint256 => struct IDLPRootMetrics.EpochDlp)",
        "numberOfBytes": "32",
        "value": "t_struct(EpochDlp)12755_storage"
      },
      "t_struct(Epoch)12765_storage": {
        "encoding": "inplace",
        "label": "struct IDLPRootMetrics.Epoch",
        "members": [
          {
            "astId": 12757,
            "contract": "contracts/rootMetrics/DLPRootMetricsImplementation.sol:DLPRootMetricsImplementation",
            "label": "totalPerformanceRating",
            "offset": 0,
            "slot": "0",
            "type": "t_uint256"
          },
          {
            "astId": 12759,
            "contract": "contracts/rootMetrics/DLPRootMetricsImplementation.sol:DLPRootMetricsImplementation",
            "label": "finalized",
            "offset": 0,
            "slot": "1",
            "type": "t_bool"
          },
          {
            "astId": 12764,
            "contract": "contracts/rootMetrics/DLPRootMetricsImplementation.sol:DLPRootMetricsImplementation",
            "label": "dlps",
            "offset": 0,
            "slot": "2",
            "type": "t_mapping(t_uint256,t_struct(EpochDlp)12755_storage)"
          }
        ],
        "numberOfBytes": "96"
      },
      "t_struct(EpochDlp)12755_storage": {
        "encoding": "inplace",
        "label": "struct IDLPRootMetrics.EpochDlp",
        "members": [
          {
            "astId": 12752,
            "contract": "contracts/rootMetrics/DLPRootMetricsImplementation.sol:DLPRootMetricsImplementation",
            "label": "performanceRating",
            "offset": 0,
            "slot": "0",
            "type": "t_uint256"
          },
          {
            "astId": 12754,
            "contract": "contracts/rootMetrics/DLPRootMetricsImplementation.sol:DLPRootMetricsImplementation",
            "label": "stakeAmountAdjustment",
            "offset": 0,
            "slot": "1",
            "type": "t_uint256"
          }
        ],
        "numberOfBytes": "64"
      },
      "t_uint256": {
        "encoding": "inplace",
        "label": "uint256",
        "numberOfBytes": "32"
      }
    }
  }
}